{
  "address": "0xA7af921BDC98205DE59f3Fa2da560eE7707Fb179",
  "abi": [
    {
      "inputs": [
        {
          "internalType": "uint16",
          "name": "dungNum",
          "type": "uint16"
        }
      ],
      "name": "DungeonAlreadySpecific",
      "type": "error"
    },
    {
      "inputs": [
        {
          "internalType": "uint16",
          "name": "dungNum",
          "type": "uint16"
        }
      ],
      "name": "DungeonAlreadySpecific2",
      "type": "error"
    },
    {
      "inputs": [],
      "name": "ErrorDungeonCompleted",
      "type": "error"
    },
    {
      "inputs": [],
      "name": "ErrorDungeonIsFreeAlready",
      "type": "error"
    },
    {
      "inputs": [
        {
          "internalType": "address",
          "name": "heroToken",
          "type": "address"
        },
        {
          "internalType": "uint256",
          "name": "heroTokenId",
          "type": "uint256"
        }
      ],
      "name": "ErrorHeroIsDead",
      "type": "error"
    },
    {
      "inputs": [
        {
          "internalType": "address",
          "name": "heroToken",
          "type": "address"
        }
      ],
      "name": "ErrorHeroIsNotRegistered",
      "type": "error"
    },
    {
      "inputs": [],
      "name": "ErrorHeroLevelStartFrom1",
      "type": "error"
    },
    {
      "inputs": [],
      "name": "ErrorHeroNotInDungeon",
      "type": "error"
    },
    {
      "inputs": [
        {
          "internalType": "uint256",
          "name": "biome",
          "type": "uint256"
        }
      ],
      "name": "ErrorIncorrectBiome",
      "type": "error"
    },
    {
      "inputs": [
        {
          "internalType": "uint256",
          "name": "heroLevel",
          "type": "uint256"
        }
      ],
      "name": "ErrorLevelTooLow",
      "type": "error"
    },
    {
      "inputs": [
        {
          "internalType": "uint8",
          "name": "heroBiome",
          "type": "uint8"
        }
      ],
      "name": "ErrorNoDungeonsForBiome",
      "type": "error"
    },
    {
      "inputs": [],
      "name": "ErrorNoEligibleDungeons",
      "type": "error"
    },
    {
      "inputs": [],
      "name": "ErrorNotChances",
      "type": "error"
    },
    {
      "inputs": [
        {
          "internalType": "address",
          "name": "sender",
          "type": "address"
        }
      ],
      "name": "ErrorNotDeployer",
      "type": "error"
    },
    {
      "inputs": [],
      "name": "ErrorNotObject1",
      "type": "error"
    },
    {
      "inputs": [
        {
          "internalType": "address",
          "name": "token",
          "type": "address"
        },
        {
          "internalType": "uint256",
          "name": "tokenId",
          "type": "uint256"
        }
      ],
      "name": "ErrorNotOwner",
      "type": "error"
    },
    {
      "inputs": [],
      "name": "ErrorNotReady",
      "type": "error"
    },
    {
      "inputs": [],
      "name": "ErrorNotStages",
      "type": "error"
    },
    {
      "inputs": [],
      "name": "ErrorOnlyEoa",
      "type": "error"
    },
    {
      "inputs": [],
      "name": "ErrorPaused",
      "type": "error"
    },
    {
      "inputs": [
        {
          "internalType": "uint256",
          "name": "heroLevel",
          "type": "uint256"
        }
      ],
      "name": "ErrorWrongLevel",
      "type": "error"
    },
    {
      "inputs": [
        {
          "internalType": "uint256",
          "name": "multiplier",
          "type": "uint256"
        }
      ],
      "name": "ErrorWrongMultiplier",
      "type": "error"
    },
    {
      "inputs": [
        {
          "internalType": "uint256",
          "name": "stage",
          "type": "uint256"
        }
      ],
      "name": "ErrorWrongStage",
      "type": "error"
    },
    {
      "inputs": [],
      "name": "InvalidInitialization",
      "type": "error"
    },
    {
      "inputs": [],
      "name": "NotInitializing",
      "type": "error"
    },
    {
      "inputs": [
        {
          "internalType": "uint256",
          "name": "index",
          "type": "uint256"
        },
        {
          "internalType": "uint256",
          "name": "length",
          "type": "uint256"
        }
      ],
      "name": "OutOfBounds",
      "type": "error"
    },
    {
      "inputs": [
        {
          "internalType": "uint256",
          "name": "value",
          "type": "uint256"
        }
      ],
      "name": "TooHighValue",
      "type": "error"
    },
    {
      "inputs": [
        {
          "internalType": "uint256",
          "name": "x",
          "type": "uint256"
        }
      ],
      "name": "TooLowX",
      "type": "error"
    },
    {
      "inputs": [],
      "name": "WrongSpecificDungeon",
      "type": "error"
    },
    {
      "anonymous": false,
      "inputs": [
        {
          "indexed": false,
          "internalType": "uint64",
          "name": "dungId",
          "type": "uint64"
        }
      ],
      "name": "Clear",
      "type": "event"
    },
    {
      "anonymous": false,
      "inputs": [
        {
          "indexed": false,
          "internalType": "address",
          "name": "controller",
          "type": "address"
        },
        {
          "indexed": false,
          "internalType": "uint256",
          "name": "ts",
          "type": "uint256"
        },
        {
          "indexed": false,
          "internalType": "uint256",
          "name": "block",
          "type": "uint256"
        }
      ],
      "name": "ContractInitialized",
      "type": "event"
    },
    {
      "anonymous": false,
      "inputs": [
        {
          "indexed": false,
          "internalType": "uint16",
          "name": "dungLogicId",
          "type": "uint16"
        },
        {
          "components": [
            {
              "internalType": "uint8[][]",
              "name": "objTypesByStages",
              "type": "uint8[][]"
            },
            {
              "internalType": "uint32[][]",
              "name": "objChancesByStages",
              "type": "uint32[][]"
            },
            {
              "internalType": "uint32[]",
              "name": "uniqObjects",
              "type": "uint32[]"
            },
            {
              "internalType": "uint8",
              "name": "minLevel",
              "type": "uint8"
            },
            {
              "internalType": "uint8",
              "name": "maxLevel",
              "type": "uint8"
            },
            {
              "internalType": "bytes32[]",
              "name": "requiredCustomDataIndex",
              "type": "bytes32[]"
            },
            {
              "internalType": "uint64[]",
              "name": "requiredCustomDataMinValue",
              "type": "uint64[]"
            },
            {
              "internalType": "uint64[]",
              "name": "requiredCustomDataMaxValue",
              "type": "uint64[]"
            },
            {
              "internalType": "bool[]",
              "name": "requiredCustomDataIsHero",
              "type": "bool[]"
            }
          ],
          "indexed": false,
          "internalType": "struct IDungeonFactory.DungeonGenerateInfo",
          "name": "info",
          "type": "tuple"
        }
      ],
      "name": "DungeonLogicRegistered",
      "type": "event"
    },
    {
      "anonymous": false,
      "inputs": [
        {
          "indexed": false,
          "internalType": "uint16",
          "name": "dungLogicId",
          "type": "uint16"
        }
      ],
      "name": "DungeonLogicRemoved",
      "type": "event"
    },
    {
      "anonymous": false,
      "inputs": [
        {
          "indexed": false,
          "internalType": "uint16",
          "name": "dungLogicId",
          "type": "uint16"
        },
        {
          "indexed": false,
          "internalType": "uint256",
          "name": "biome",
          "type": "uint256"
        },
        {
          "indexed": false,
          "internalType": "uint256",
          "name": "heroCls",
          "type": "uint256"
        }
      ],
      "name": "DungeonSpecificLogicRegistered",
      "type": "event"
    },
    {
      "anonymous": false,
      "inputs": [
        {
          "indexed": false,
          "internalType": "uint16",
          "name": "dungLogicId",
          "type": "uint16"
        },
        {
          "indexed": false,
          "internalType": "uint256",
          "name": "heroLvl",
          "type": "uint256"
        },
        {
          "indexed": false,
          "internalType": "uint256",
          "name": "heroCls",
          "type": "uint256"
        }
      ],
      "name": "DungeonSpecificLogicRemoved",
      "type": "event"
    },
    {
      "anonymous": false,
      "inputs": [
        {
          "indexed": false,
          "internalType": "uint8",
          "name": "biome",
          "type": "uint8"
        },
        {
          "indexed": false,
          "internalType": "uint64",
          "name": "dungeonId",
          "type": "uint64"
        }
      ],
      "name": "FreeDungeonAdded",
      "type": "event"
    },
    {
      "anonymous": false,
      "inputs": [
        {
          "indexed": false,
          "internalType": "uint64",
          "name": "version",
          "type": "uint64"
        }
      ],
      "name": "Initialized",
      "type": "event"
    },
    {
      "anonymous": false,
      "inputs": [
        {
          "indexed": false,
          "internalType": "address",
          "name": "token",
          "type": "address"
        },
        {
          "indexed": false,
          "internalType": "uint256",
          "name": "level",
          "type": "uint256"
        }
      ],
      "name": "MinLevelForTreasuryChanged",
      "type": "event"
    },
    {
      "anonymous": false,
      "inputs": [
        {
          "indexed": false,
          "internalType": "uint64",
          "name": "dungId",
          "type": "uint64"
        },
        {
          "indexed": false,
          "internalType": "address",
          "name": "hero",
          "type": "address"
        },
        {
          "indexed": false,
          "internalType": "uint256",
          "name": "id",
          "type": "uint256"
        },
        {
          "indexed": false,
          "internalType": "uint32",
          "name": "objId",
          "type": "uint32"
        },
        {
          "indexed": false,
          "internalType": "uint256",
          "name": "iteration",
          "type": "uint256"
        },
        {
          "indexed": false,
          "internalType": "uint256",
          "name": "currentStage",
          "type": "uint256"
        }
      ],
      "name": "ObjectOpened",
      "type": "event"
    },
    {
      "anonymous": false,
      "inputs": [
        {
          "indexed": false,
          "internalType": "uint256",
          "name": "value",
          "type": "uint256"
        },
        {
          "indexed": false,
          "internalType": "address",
          "name": "oldLogic",
          "type": "address"
        }
      ],
      "name": "RevisionIncreased",
      "type": "event"
    },
    {
      "inputs": [],
      "name": "CONTROLLABLE_VERSION",
      "outputs": [
        {
          "internalType": "string",
          "name": "",
          "type": "string"
        }
      ],
      "stateMutability": "view",
      "type": "function"
    },
    {
      "inputs": [],
      "name": "VERSION",
      "outputs": [
        {
          "internalType": "string",
          "name": "",
          "type": "string"
        }
      ],
      "stateMutability": "view",
      "type": "function"
    },
    {
      "inputs": [],
      "name": "controller",
      "outputs": [
        {
          "internalType": "address",
          "name": "",
          "type": "address"
        }
      ],
      "stateMutability": "view",
      "type": "function"
    },
    {
      "inputs": [],
      "name": "created",
      "outputs": [
        {
          "internalType": "uint256",
          "name": "",
          "type": "uint256"
        }
      ],
      "stateMutability": "view",
      "type": "function"
    },
    {
      "inputs": [],
      "name": "createdBlock",
      "outputs": [
        {
          "internalType": "uint256",
          "name": "",
          "type": "uint256"
        }
      ],
      "stateMutability": "view",
      "type": "function"
    },
    {
      "inputs": [
        {
          "internalType": "address",
          "name": "heroToken",
          "type": "address"
        },
        {
          "internalType": "uint256",
          "name": "heroTokenId",
          "type": "uint256"
        }
      ],
      "name": "currentDungeon",
      "outputs": [
        {
          "internalType": "uint64",
          "name": "",
          "type": "uint64"
        }
      ],
      "stateMutability": "view",
      "type": "function"
    },
    {
      "inputs": [
        {
          "internalType": "uint16",
          "name": "dungLogicNum",
          "type": "uint16"
        }
      ],
      "name": "dungeonAttributes",
      "outputs": [
        {
          "components": [
            {
              "internalType": "uint8",
              "name": "stages",
              "type": "uint8"
            },
            {
              "internalType": "uint8",
              "name": "biome",
              "type": "uint8"
            },
            {
              "internalType": "uint32[]",
              "name": "uniqObjects",
              "type": "uint32[]"
            },
            {
              "internalType": "bytes32",
              "name": "minMaxLevel",
              "type": "bytes32"
            },
            {
              "internalType": "bytes32[]",
              "name": "requiredCustomDataIndex",
              "type": "bytes32[]"
            },
            {
              "internalType": "bytes32[]",
              "name": "requiredCustomDataValue",
              "type": "bytes32[]"
            },
            {
              "components": [
                {
                  "internalType": "bytes32[]",
                  "name": "objTypesByStages",
                  "type": "bytes32[]"
                },
                {
                  "internalType": "uint32[][]",
                  "name": "objChancesByStages",
                  "type": "uint32[][]"
                }
              ],
              "internalType": "struct IDungeonFactory.ObjectGenerateInfo",
              "name": "info",
              "type": "tuple"
            }
          ],
          "internalType": "struct IDungeonFactory.DungeonAttributes",
          "name": "",
          "type": "tuple"
        }
      ],
      "stateMutability": "view",
      "type": "function"
    },
    {
      "inputs": [],
      "name": "dungeonCounter",
      "outputs": [
        {
          "internalType": "uint64",
          "name": "",
          "type": "uint64"
        }
      ],
      "stateMutability": "view",
      "type": "function"
    },
    {
      "inputs": [
        {
          "internalType": "uint64",
          "name": "dungeonId",
          "type": "uint64"
        }
      ],
      "name": "dungeonNgLevel",
      "outputs": [
        {
          "internalType": "uint256",
          "name": "",
          "type": "uint256"
        }
      ],
      "stateMutability": "view",
      "type": "function"
    },
    {
      "inputs": [
        {
          "internalType": "uint64",
          "name": "dungeonId",
          "type": "uint64"
        }
      ],
      "name": "dungeonStatus",
      "outputs": [
        {
          "internalType": "uint16",
          "name": "dungNum",
          "type": "uint16"
        },
        {
          "internalType": "bool",
          "name": "isCompleted",
          "type": "bool"
        },
        {
          "internalType": "address",
          "name": "heroToken",
          "type": "address"
        },
        {
          "internalType": "uint256",
          "name": "heroTokenId",
          "type": "uint256"
        },
        {
          "internalType": "uint32",
          "name": "currentObject",
          "type": "uint32"
        },
        {
          "internalType": "uint8",
          "name": "currentObjIndex",
          "type": "uint8"
        },
        {
          "internalType": "address[]",
          "name": "treasuryTokens",
          "type": "address[]"
        },
        {
          "internalType": "uint256[]",
          "name": "treasuryTokensAmounts",
          "type": "uint256[]"
        },
        {
          "internalType": "bytes32[]",
          "name": "treasuryItems",
          "type": "bytes32[]"
        },
        {
          "internalType": "uint8",
          "name": "stages",
          "type": "uint8"
        },
        {
          "internalType": "uint32[]",
          "name": "uniqObjects",
          "type": "uint32[]"
        }
      ],
      "stateMutability": "view",
      "type": "function"
    },
    {
      "inputs": [
        {
          "internalType": "address",
          "name": "token",
          "type": "address"
        },
        {
          "internalType": "uint256",
          "name": "maxAvailableBiome_",
          "type": "uint256"
        },
        {
          "internalType": "uint256",
          "name": "treasuryBalance",
          "type": "uint256"
        },
        {
          "internalType": "uint8",
          "name": "heroLevel",
          "type": "uint8"
        },
        {
          "internalType": "uint8",
          "name": "dungeonBiome",
          "type": "uint8"
        },
        {
          "internalType": "uint8",
          "name": "maxOpenedNgLevel",
          "type": "uint8"
        },
        {
          "internalType": "uint8",
          "name": "heroNgLevel",
          "type": "uint8"
        }
      ],
      "name": "dungeonTreasuryReward",
      "outputs": [
        {
          "internalType": "uint256",
          "name": "",
          "type": "uint256"
        }
      ],
      "stateMutability": "view",
      "type": "function"
    },
    {
      "inputs": [
        {
          "internalType": "uint64",
          "name": "dungId",
          "type": "uint64"
        }
      ],
      "name": "emergencyExit",
      "outputs": [],
      "stateMutability": "nonpayable",
      "type": "function"
    },
    {
      "inputs": [
        {
          "internalType": "uint64",
          "name": "dungId",
          "type": "uint64"
        },
        {
          "internalType": "address",
          "name": "heroToken_",
          "type": "address"
        },
        {
          "internalType": "uint256",
          "name": "heroTokenId_",
          "type": "uint256"
        }
      ],
      "name": "enter",
      "outputs": [],
      "stateMutability": "nonpayable",
      "type": "function"
    },
    {
      "inputs": [
        {
          "internalType": "uint64",
          "name": "dungId",
          "type": "uint64"
        },
        {
          "internalType": "bool",
          "name": "claim",
          "type": "bool"
        }
      ],
      "name": "exit",
      "outputs": [],
      "stateMutability": "nonpayable",
      "type": "function"
    },
    {
      "inputs": [
        {
          "internalType": "address",
          "name": "heroToken",
          "type": "address"
        },
        {
          "internalType": "uint256",
          "name": "heroTokenId",
          "type": "uint256"
        },
        {
          "internalType": "address",
          "name": "msgSender",
          "type": "address"
        }
      ],
      "name": "exitForcibly",
      "outputs": [],
      "stateMutability": "nonpayable",
      "type": "function"
    },
    {
      "inputs": [
        {
          "internalType": "uint256",
          "name": "id",
          "type": "uint256"
        },
        {
          "internalType": "uint256",
          "name": "biome",
          "type": "uint256"
        }
      ],
      "name": "freeDungeonsByLevel",
      "outputs": [
        {
          "internalType": "uint64",
          "name": "",
          "type": "uint64"
        }
      ],
      "stateMutability": "view",
      "type": "function"
    },
    {
      "inputs": [
        {
          "internalType": "uint256",
          "name": "biome",
          "type": "uint256"
        }
      ],
      "name": "freeDungeonsByLevelLength",
      "outputs": [
        {
          "internalType": "uint256",
          "name": "",
          "type": "uint256"
        }
      ],
      "stateMutability": "view",
      "type": "function"
    },
    {
      "inputs": [
        {
          "internalType": "contract IController",
          "name": "controller_",
          "type": "address"
        },
        {
          "internalType": "uint8",
          "name": "heroLevel",
          "type": "uint8"
        },
        {
          "internalType": "address",
          "name": "heroToken",
          "type": "address"
        },
        {
          "internalType": "uint256",
          "name": "heroTokenId",
          "type": "uint256"
        },
        {
          "internalType": "uint256",
          "name": "random",
          "type": "uint256"
        }
      ],
      "name": "getDungeonLogic",
      "outputs": [
        {
          "internalType": "uint16",
          "name": "",
          "type": "uint16"
        }
      ],
      "stateMutability": "view",
      "type": "function"
    },
    {
      "inputs": [
        {
          "internalType": "address",
          "name": "token",
          "type": "address"
        },
        {
          "internalType": "uint256",
          "name": "heroLevel",
          "type": "uint256"
        },
        {
          "internalType": "uint256",
          "name": "biome",
          "type": "uint256"
        },
        {
          "internalType": "uint256",
          "name": "heroNgLevel",
          "type": "uint256"
        }
      ],
      "name": "getDungeonTreasuryAmount",
      "outputs": [
        {
          "internalType": "uint256",
          "name": "totalAmount",
          "type": "uint256"
        },
        {
          "internalType": "uint256",
          "name": "amountForDungeon",
          "type": "uint256"
        },
        {
          "internalType": "uint256",
          "name": "mintAmount",
          "type": "uint256"
        }
      ],
      "stateMutability": "view",
      "type": "function"
    },
    {
      "inputs": [
        {
          "internalType": "address",
          "name": "oldLogic",
          "type": "address"
        }
      ],
      "name": "increaseRevision",
      "outputs": [],
      "stateMutability": "nonpayable",
      "type": "function"
    },
    {
      "inputs": [
        {
          "internalType": "address",
          "name": "controller_",
          "type": "address"
        }
      ],
      "name": "init",
      "outputs": [],
      "stateMutability": "nonpayable",
      "type": "function"
    },
    {
      "inputs": [
        {
          "internalType": "address",
          "name": "heroToken",
          "type": "address"
        },
        {
          "internalType": "uint256",
          "name": "heroTokenId",
          "type": "uint256"
        }
      ],
      "name": "isBiomeBoss",
      "outputs": [
        {
          "internalType": "bool",
          "name": "",
          "type": "bool"
        }
      ],
      "stateMutability": "view",
      "type": "function"
    },
    {
      "inputs": [
        {
          "internalType": "address",
          "name": "value_",
          "type": "address"
        }
      ],
      "name": "isController",
      "outputs": [
        {
          "internalType": "bool",
          "name": "",
          "type": "bool"
        }
      ],
      "stateMutability": "view",
      "type": "function"
    },
    {
      "inputs": [
        {
          "internalType": "uint16",
          "name": "dungeonLogic",
          "type": "uint16"
        },
        {
          "internalType": "uint8",
          "name": "heroLevel",
          "type": "uint8"
        },
        {
          "internalType": "address",
          "name": "heroToken",
          "type": "address"
        },
        {
          "internalType": "uint256",
          "name": "heroTokenId",
          "type": "uint256"
        }
      ],
      "name": "isDungeonEligibleForHero",
      "outputs": [
        {
          "internalType": "bool",
          "name": "",
          "type": "bool"
        }
      ],
      "stateMutability": "view",
      "type": "function"
    },
    {
      "inputs": [
        {
          "internalType": "address",
          "name": "value_",
          "type": "address"
        }
      ],
      "name": "isGovernance",
      "outputs": [
        {
          "internalType": "bool",
          "name": "",
          "type": "bool"
        }
      ],
      "stateMutability": "view",
      "type": "function"
    },
    {
      "inputs": [
        {
          "internalType": "address",
          "name": "forwarder",
          "type": "address"
        }
      ],
      "name": "isTrustedForwarder",
      "outputs": [
        {
          "internalType": "bool",
          "name": "",
          "type": "bool"
        }
      ],
      "stateMutability": "view",
      "type": "function"
    },
    {
      "inputs": [
        {
          "internalType": "address",
          "name": "heroToken",
          "type": "address"
        },
        {
          "internalType": "uint256",
          "name": "heroTokenId",
          "type": "uint256"
        },
        {
          "internalType": "address",
          "name": "treasuryToken",
          "type": "address"
        }
      ],
      "name": "launch",
      "outputs": [
        {
          "internalType": "uint64",
          "name": "dungeonId",
          "type": "uint64"
        }
      ],
      "stateMutability": "nonpayable",
      "type": "function"
    },
    {
      "inputs": [
        {
          "internalType": "address",
          "name": "heroToken",
          "type": "address"
        },
        {
          "internalType": "uint256",
          "name": "heroTokenId",
          "type": "uint256"
        },
        {
          "internalType": "address",
          "name": "owner",
          "type": "address"
        }
      ],
      "name": "launchForNewHero",
      "outputs": [
        {
          "internalType": "uint64",
          "name": "dungeonId",
          "type": "uint64"
        }
      ],
      "stateMutability": "nonpayable",
      "type": "function"
    },
    {
      "inputs": [],
      "name": "maxAvailableBiome",
      "outputs": [
        {
          "internalType": "uint8",
          "name": "",
          "type": "uint8"
        }
      ],
      "stateMutability": "view",
      "type": "function"
    },
    {
      "inputs": [
        {
          "internalType": "address",
          "name": "heroToken",
          "type": "address"
        },
        {
          "internalType": "uint256",
          "name": "heroTokenId",
          "type": "uint256"
        }
      ],
      "name": "maxBiomeCompleted",
      "outputs": [
        {
          "internalType": "uint8",
          "name": "",
          "type": "uint8"
        }
      ],
      "stateMutability": "view",
      "type": "function"
    },
    {
      "inputs": [
        {
          "internalType": "address",
          "name": "token",
          "type": "address"
        }
      ],
      "name": "minLevelForTreasury",
      "outputs": [
        {
          "internalType": "uint256",
          "name": "",
          "type": "uint256"
        }
      ],
      "stateMutability": "view",
      "type": "function"
    },
    {
      "inputs": [
        {
          "internalType": "uint64",
          "name": "dungId",
          "type": "uint64"
        },
        {
          "internalType": "bytes",
          "name": "data",
          "type": "bytes"
        }
      ],
      "name": "objectAction",
      "outputs": [],
      "stateMutability": "nonpayable",
      "type": "function"
    },
    {
      "inputs": [
        {
          "internalType": "address",
          "name": "",
          "type": "address"
        },
        {
          "internalType": "address",
          "name": "",
          "type": "address"
        },
        {
          "internalType": "uint256",
          "name": "",
          "type": "uint256"
        },
        {
          "internalType": "bytes",
          "name": "",
          "type": "bytes"
        }
      ],
      "name": "onERC721Received",
      "outputs": [
        {
          "internalType": "bytes4",
          "name": "",
          "type": "bytes4"
        }
      ],
      "stateMutability": "nonpayable",
      "type": "function"
    },
    {
      "inputs": [
        {
          "internalType": "uint64",
          "name": "dungId",
          "type": "uint64"
        }
      ],
      "name": "openObject",
      "outputs": [],
      "stateMutability": "nonpayable",
      "type": "function"
    },
    {
      "inputs": [],
      "name": "previousImplementation",
      "outputs": [
        {
          "internalType": "address",
          "name": "",
          "type": "address"
        }
      ],
      "stateMutability": "view",
      "type": "function"
    },
    {
      "inputs": [
        {
          "internalType": "address",
          "name": "heroToken",
          "type": "address"
        },
        {
          "internalType": "uint256",
          "name": "heroTokenId",
          "type": "uint256"
        }
      ],
      "name": "reborn",
      "outputs": [],
      "stateMutability": "nonpayable",
      "type": "function"
    },
    {
      "inputs": [
        {
          "internalType": "uint16",
          "name": "dungLogicId",
          "type": "uint16"
        },
        {
          "internalType": "uint8",
          "name": "biome",
          "type": "uint8"
        },
        {
          "components": [
            {
              "internalType": "uint8[][]",
              "name": "objTypesByStages",
              "type": "uint8[][]"
            },
            {
              "internalType": "uint32[][]",
              "name": "objChancesByStages",
              "type": "uint32[][]"
            },
            {
              "internalType": "uint32[]",
              "name": "uniqObjects",
              "type": "uint32[]"
            },
            {
              "internalType": "uint8",
              "name": "minLevel",
              "type": "uint8"
            },
            {
              "internalType": "uint8",
              "name": "maxLevel",
              "type": "uint8"
            },
            {
              "internalType": "bytes32[]",
              "name": "requiredCustomDataIndex",
              "type": "bytes32[]"
            },
            {
              "internalType": "uint64[]",
              "name": "requiredCustomDataMinValue",
              "type": "uint64[]"
            },
            {
              "internalType": "uint64[]",
              "name": "requiredCustomDataMaxValue",
              "type": "uint64[]"
            },
            {
              "internalType": "bool[]",
              "name": "requiredCustomDataIsHero",
              "type": "bool[]"
            }
          ],
          "internalType": "struct IDungeonFactory.DungeonGenerateInfo",
          "name": "genInfo",
          "type": "tuple"
        },
        {
          "internalType": "uint8",
          "name": "specReqBiome",
          "type": "uint8"
        },
        {
          "internalType": "uint8",
          "name": "specReqHeroClass",
          "type": "uint8"
        },
        {
          "internalType": "bool",
          "name": "isSpecific",
          "type": "bool"
        }
      ],
      "name": "registerDungeonLogic",
      "outputs": [],
      "stateMutability": "nonpayable",
      "type": "function"
    },
    {
      "inputs": [
        {
          "internalType": "uint16",
          "name": "dungLogicId",
          "type": "uint16"
        },
        {
          "internalType": "uint8",
          "name": "specReqBiome",
          "type": "uint8"
        },
        {
          "internalType": "uint8",
          "name": "specReqHeroClass",
          "type": "uint8"
        }
      ],
      "name": "removeDungeonLogic",
      "outputs": [],
      "stateMutability": "nonpayable",
      "type": "function"
    },
    {
      "inputs": [],
      "name": "revision",
      "outputs": [
        {
          "internalType": "uint256",
          "name": "",
          "type": "uint256"
        }
      ],
      "stateMutability": "view",
      "type": "function"
    },
    {
      "inputs": [
        {
          "internalType": "uint32",
          "name": "objectId",
          "type": "uint32"
        },
        {
          "internalType": "address",
          "name": "heroToken",
          "type": "address"
        },
        {
          "internalType": "uint256",
          "name": "heroTokenId",
          "type": "uint256"
        },
        {
          "internalType": "uint8",
          "name": "heroBiome",
          "type": "uint8"
        }
      ],
      "name": "setBossCompleted",
      "outputs": [],
      "stateMutability": "nonpayable",
      "type": "function"
    },
    {
      "inputs": [
        {
          "internalType": "address",
          "name": "token",
          "type": "address"
        },
        {
          "internalType": "uint256",
          "name": "heroLevel",
          "type": "uint256"
        }
      ],
      "name": "setMinLevelForTreasury",
      "outputs": [],
      "stateMutability": "nonpayable",
      "type": "function"
    },
    {
      "inputs": [
        {
          "internalType": "address",
          "name": "heroToken",
          "type": "address"
        },
        {
          "internalType": "uint256",
          "name": "heroTokenId",
          "type": "uint256"
        }
      ],
      "name": "skillSlotsForDurabilityReduction",
      "outputs": [
        {
          "internalType": "uint8[]",
          "name": "result",
          "type": "uint8[]"
        }
      ],
      "stateMutability": "view",
      "type": "function"
    }
  ],
  "transactionHash": "0x36f30da8b13c5ea1573c8316394752a6e2be0126a01e7c9cd2efc4890dc22d16",
  "args": [],
  "numDeployments": 58,
  "solcInputHash": "1a4342b5d9fe8c3b83a893539aac6eae",
  "bytecode": "0x60806040523480156200001157600080fd5b507ff0c57e16840df040f15088dc2f81fe391c3923bec73e23a9662efc9c229c6a00805468010000000000000000810460ff1615906001600160401b03166000811580156200005d5750825b90506000826001600160401b031660011480156200007a5750303b155b90508115801562000089575080155b15620000a85760405163f92ee8a960e01b815260040160405180910390fd5b84546001600160401b03191660011785558315620000d757845460ff60401b1916680100000000000000001785555b83156200011e57845460ff60401b19168555604051600181527fc7f505b2f371ae2175ee4913f4499e1f2633a7b5936321eed1cdaeb6115181d29060200160405180910390a15b505050505061575a80620001336000396000f3fe608060405234801561001057600080fd5b506004361061021e5760003560e01c80639a641e0211610126578063b429afeb116100b3578063b429afeb146104eb578063b5a44d04146104fe578063b6d2fe6c14610511578063b701c1aa1461053f578063be2e0ad81461055f578063d06969c71461057f578063dee1f0e414610592578063e76bd825146105a5578063f77c4791146105b8578063fee27cbe146105c0578063ffa1ad74146105d357600080fd5b80639a641e021461042a5780639d0bcca01461043d5780639f3cfa7a14610452578063a433af6f1461045a578063a46374b31461046d578063a4efd30914610497578063a7540ee5146104aa578063ac257b3a146104bd578063ad8c5755146104d0578063b2192fdd146104e357600080fd5b80634fac6ccd116101af5780634fac6ccd1461031b578063572b6c051461032e57806357bd05b0146103415780635a67eb48146103545780636a8a5e8c146103675780636bb4b4591461037a5780637442adbc146103a55780637be89369146103b85780637c00116c146103de5780637cc96380146103f1578063936725ec146103f957600080fd5b80630e30c13e14610223578063150b7a021461024d57806319ab453c1461027957806327dd892f1461028e5780632fcd5deb146102a1578063325a19f1146102c457806338430cce146102da5780634593144c146102ed57806348b371bf146102f55780634d52532c14610308575b600080fd5b6102366102313660046142a5565b6105f7565b60405160ff90911681526020015b60405180910390f35b61026061025b3660046143af565b61060c565b6040516001600160e01b03199091168152602001610244565b61028c61028736600461441a565b61061d565b005b61028c61029c36600461446c565b610717565b6102b46102af3660046144d1565b61073d565b6040519015158152602001610244565b6102cc6107c4565b604051908152602001610244565b61028c6102e8366004614520565b6107fd565b6102cc61081f565b61028c61030336600461456f565b61084f565b6102cc61031636600461456f565b610863565b61028c61032936600461441a565b61086e565b6102b461033c36600461441a565b610980565b61028c61034f36600461459e565b6109f5565b61028c6103623660046142a5565b610a98565b61028c6103753660046145f1565b610aaa565b61038d6103883660046145f1565b610b40565b6040516001600160401b039091168152602001610244565b6102cc6103b3366004614633565b610c02565b6103cb6103c636600461464c565b610c0d565b60405161ffff9091168152602001610244565b61038d6103ec3660046146a7565b610c3b565b6102cc610c47565b61041d604051806040016040528060058152602001640312e302e360dc1b81525081565b604051610244919061470f565b61038d6104383660046142a5565b610c65565b610445610c71565b6040516102449190614722565b61038d610ca1565b61028c6104683660046142a5565b610cab565b61048061047b36600461456f565b610d30565b6040516102449b9a999897969594939291906147e3565b61028c6104a536600461488e565b610d70565b6102cc6104b836600461441a565b610d88565b6102cc6104cb3660046148cc565b610d93565b6102b46104de3660046142a5565b610dbc565b610236610dd0565b6102b46104f936600461441a565b610dda565b61028c61050c366004614950565b610dff565b61052461051f366004614991565b610e89565b60408051938452602084019290925290820152606001610244565b61055261054d3660046149cc565b610f45565b6040516102449190614a6f565b61057261056d3660046142a5565b610f56565b6040516102449190614b45565b61038d61058d3660046145f1565b610f62565b6102b46105a036600461441a565b610fc9565b61028c6105b3366004614e80565b61104e565b610445611064565b61028c6105ce36600461456f565b611094565b61041d60405180604001604052806005815260200164322e312e3160d81b81525081565b600061060383836110b5565b90505b92915050565b630a85bd0160e11b5b949350505050565b60006106276110f2565b805490915060ff600160401b82041615906001600160401b031660008115801561064e5750825b90506000826001600160401b0316600114801561066a5750303b155b905081158015610678575080155b156106965760405163f92ee8a960e01b815260040160405180910390fd5b845467ffffffffffffffff1916600117855583156106c057845460ff60401b1916600160401b1785555b6106c986611116565b831561070f57845460ff60401b19168555604051600181527fc7f505b2f371ae2175ee4913f4499e1f2633a7b5936321eed1cdaeb6115181d29060200160405180910390a15b505050505050565b610739610722611127565b61072a611064565b61073261113f565b8585611161565b5050565b60006107bb61074a6111fb565b610752611064565b6001600160a01b0316628e96916040518163ffffffff1660e01b8152600401602060405180830381865afa15801561078e573d6000803e3d6000fd5b505050506040513d601f19601f820116820180604052508101906107b2919061503f565b8787878761121f565b95945050505050565b60006107f86107f460017f6f55f470bdc9cb5f04223fd822021061668e4dccb43e8727b295106dc9769c8b615072565b5490565b905090565b610739610808611127565b610810611064565b61081861113f565b85856114d8565b60006107f86107f460017f812a673dfca07956350df10f8a654925f561d7a0da09bdbe79e653939a14d9f1615072565b61086061085a611064565b82611716565b50565b60006106068261176e565b3330146108c05760405162461bcd60e51b815260206004820152601b60248201527a24b731b932b0b9b2903932bb34b9b4b7b7103337b93134b23232b760291b60448201526064015b60405180910390fd5b60006108de6107f46001600080516020615705833981519152615072565b6108e9906001615085565b905061090b816109086001600080516020615705833981519152615072565b55565b61093a8261090860017fbfaaa2fb63266ff27c2da975f5894955056f50419af651a81f6c5060581857e4615072565b604080518281526001600160a01b03841660208201527ff27e2ef832a4eb8ed8ec553b875eecd44764cda95b1c24170e281539e0a869c891015b60405180910390a15050565b60006001600160a01b03821673d8253782c45a12053594b9deb72d8e8ab2fca54c14806109c957506001600160a01b0382167352ceba41da235af367bfc0b0ccd3314cb901bb5f145b8061060657506001600160a01b03821673102f1f556cd9c3d5f820e6920a8931657c5da21b1492915050565b73Efa058adaC8A0D21724D73f9466e3AF0D1B9A358637c1ecb8e610a17611064565b6040516001600160e01b031960e084901b1681526001600160a01b03918216600482015263ffffffff8816602482015290861660448201526064810185905260ff8416608482015260a40160006040518083038186803b158015610a7a57600080fd5b505af4158015610a8e573d6000803e3d6000fd5b5050505050505050565b610739610aa3611064565b838361179a565b73Efa058adaC8A0D21724D73f9466e3AF0D1B9A3586303395eef610acc611064565b6040516001600160e01b031960e084901b1681526001600160a01b03918216600482015281871660248201526044810186905290841660648201526084015b60006040518083038186803b158015610b2357600080fd5b505af4158015610b37573d6000803e3d6000fd5b50505050505050565b600073Efa058adaC8A0D21724D73f9466e3AF0D1B9A35863987707f9610b64611127565b610b6c611064565b610b7461113f565b6040516001600160e01b031960e086901b16815292151560048401526001600160a01b03918216602484015281166044830152808816606483015260848201879052851660a482015260c4015b602060405180830381865af4158015610bde573d6000803e3d6000fd5b505050506040513d601f19601f820116820180604052508101906106159190615098565b600061060682611839565b600080610c198761185a565b9050610c30610c266111fb565b8288888888611872565b979650505050505050565b60006106038383611b9f565b60006107f86107f46001600080516020615705833981519152615072565b60006106038383611bc2565b60006107f86107f460017fbfaaa2fb63266ff27c2da975f5894955056f50419af651a81f6c5060581857e4615072565b60006107f8611c05565b73Efa058adaC8A0D21724D73f9466e3AF0D1B9A35863dc01b901610ccd611064565b6040516001600160e01b031960e084901b1681526001600160a01b0391821660048201529085166024820152604481018490526064015b60006040518083038186803b158015610d1c57600080fd5b505af415801561070f573d6000803e3d6000fd5b600080600080600080606080606060006060610d4b8c611c21565b9a509a509a509a509a509a509a509a509a509a509a5091939597999b90929496989a50565b610d83610d7b611064565b848484611eca565b505050565b6000610606826120b8565b6000610db08888888860ff168860ff168860ff168860ff166120e4565b98975050505050505050565b6000610603610dc9611064565b8484612283565b60006107f8612396565b6000610de4611064565b6001600160a01b0316826001600160a01b0316149050919050565b73Efa058adaC8A0D21724D73f9466e3AF0D1B9A35863efa20d9b610e21611127565b610e29611064565b610e3161113f565b6040516001600160e01b031960e086901b16815292151560048401526001600160a01b039182166024840152811660448301526001600160401b03871660648301528516608482015260a4810184905260c401610b0b565b600080600073Efa058adaC8A0D21724D73f9466e3AF0D1B9A358633e457e4f610eb0611064565b6040516001600160e01b031960e084901b1681526001600160a01b039182166004820152908a16602482015260448101899052606481018890526084810187905260a401606060405180830381865af4158015610f11573d6000803e3d6000fd5b505050506040513d601f19601f82011682018060405250810190610f3591906150b5565b9250925092509450945094915050565b610f4d614071565b610606826123ac565b60606106038383612662565b600073Efa058adaC8A0D21724D73f9466e3AF0D1B9A35863c77d56a2610f86611064565b6040516001600160e01b031960e084901b1681526001600160a01b0391821660048201528186166024820152908716604482015260648101869052608401610bc1565b6000816001600160a01b0316610fdd611064565b6001600160a01b0316635aa6e6756040518163ffffffff1660e01b8152600401602060405180830381865afa15801561101a573d6000803e3d6000fd5b505050506040513d601f19601f8201168201806040525081019061103e919061503f565b6001600160a01b03161492915050565b61070f611059611064565b87878787878761269b565b60006107f86107f460017f5165972ef41194f06c5007493031d0b927c20741adcb74403b954009fd2c3618615072565b61086061109f611127565b6110a7611064565b6110af61113f565b84612aa2565b60006110bf612aca565b60030160006110d76001600160a01b03861685612ad4565b815260208101919091526040016000205460ff169392505050565b7ff0c57e16840df040f15088dc2f81fe391c3923bec73e23a9662efc9c229c6a0090565b61111e612b24565b61086081612b4b565b600061113233610980565b806107f857505032331490565b600061114a33610980565b1561115c575060131936013560601c90565b503390565b61116a85612c5e565b60405163139ed9b560e21b81526001600160a01b0380861660048301526001600160401b0384166024830152821515604483015284166064820152739ceDa5bC06a5b3a2416FAca9D37dcbe7410260cf90634e7b66d49060840160006040518083038186803b1580156111dc57600080fd5b505af41580156111f0573d6000803e3d6000fd5b505050505050505050565b7fae5971282b317bbed599861775fe0712755bb3b2f655bfe8fb14280d8429f60090565b61ffff84166000908152600d870160205260408120600281015460ff8082169160081c81169087168211806112565750808760ff16115b1561126757600093505050506114ce565b50506000816003018054806020026020016040519081016040528092919081815260200182805480156112b957602002820191906000526020600020905b8154815260200190600101908083116112a5575b5050505050905060008260040180548060200260200160405190810160405280929190818152602001828054801561131057602002820191906000526020600020905b8154815260200190600101908083116112fc575b505085519394506000925050505b818110156114c457600084828151811061133a5761133a6150e3565b602002602001015190506000801b810361135457506114bc565b600080600061138b87868151811061136e5761136e6150e3565b602002602001015190604082901c90608083901c60ff1660011490565b92509250925060008161140c578f6001600160a01b0316630a82c861866040518263ffffffff1660e01b81526004016113c691815260200190565b602060405180830381865afa1580156113e3573d6000803e3d6000fd5b505050506040513d601f19601f8201168201806040525081019061140791906150f9565b61147d565b8f6001600160a01b0316631c2aafe78e8e886040518463ffffffff1660e01b815260040161143c93929190615112565b602060405180830381865afa158015611459573d6000803e3d6000fd5b505050506040513d601f19601f8201168201806040525081019061147d91906150f9565b9050836001600160401b031681108061149e5750826001600160401b031681115b156114b65760009a50505050505050505050506114ce565b50505050505b60010161131e565b5060019450505050505b9695505050505050565b60006114e2612aca565b905060006114ef8661185a565b6040805160a0810182526000808252602080830182905282840182905260608301829052608083018290526001600160401b0389168252600e870181528382208054600160401b900461ffff168352600d8801909152929020929350916115558a612c5e565b611560828986612c7c565b50508160020160009054906101000a900463ffffffff16836040019063ffffffff16908163ffffffff1681525050739ceDa5bC06a5b3a2416FAca9D37dcbe7410260cf6311942d1783838a8c8b8f8a604001516040518863ffffffff1660e01b81526004016115d59796959493929190615133565b608060405180830381865af41580156115f2573d6000803e3d6000fd5b505050506040513d601f19601f820116820180604052508101906116169190615190565b1515602087015263ffffffff1660608601526080850152158015845261164857815460ff60501b1916600160501b1782555b60808301511561167957608083015160028301805460ff909216600160201b0264ff00000000199092169190911790555b826040015163ffffffff16836060015163ffffffff16146116b557606083015160028301805463ffffffff191663ffffffff9092169190911790555b8260200151156116d55780546116d5908390610100900460ff1689612da4565b82511580156116ec5750600282015463ffffffff16155b80156116fa57508260200151155b1561170a5761170a848989612e0f565b50505050505050505050565b61171f8261307e565b604051632586866b60e11b81526001600160a01b03831660048201526001600160401b0382166024820152739ceDa5bC06a5b3a2416FAca9D37dcbe7410260cf90634b0d0cd690604401610d04565b6000611778612aca565b6001600160401b039092166000908152600f9290920160205250604090205490565b6117a38361307e565b60058110156117c857604051634bebee7f60e01b8152600481018290526024016108b7565b806117d1612aca565b600a016000846001600160a01b03166001600160a01b03168152602001908152602001600020819055507f996f9d801b1a05cd3c7b555e5b6f61db994ea8ef57125b5b5d3b07b9dad4e2cf828260405161182c9291906151da565b60405180910390a1505050565b6000610606611846612aca565b60008481526020919091526040902061310a565b6118626140d1565b6001600160a01b03909116815290565b60008460ff166000036118985760405163a8473eab60e01b815260040160405180910390fd5b6000806118a488613114565b604051631ebd249360e01b81529091506001600160a01b03821690631ebd2493906118d590899089906004016151da565b602060405180830381865afa1580156118f2573d6000803e3d6000fd5b505050506040513d601f19601f8201168201806040525081019061191691906151f3565b915060008960050160006119ad60058b6119309190615226565b61193b906001615248565b604051631789b7b160e01b81526001600160a01b03871690631789b7b190611967908e90600401614722565b602060405180830381865afa158015611984573d6000803e3d6000fd5b505050506040513d601f19601f820116820180604052508101906119a891906151f3565b613134565b8152602081019190915260400160009081205461ffff169150819003611a0d578960050160006119f560058b6119e39190615226565b6119ee906001615248565b6000613134565b815260208101919091526040016000205461ffff1690505b8061ffff16600003611a4257896005016000611a2a600080613134565b815260208101919091526040016000205461ffff1690505b61ffff811615611ac8576001600160a01b03871660a087901b67ffffffffffffffff60a01b161760f082901b6001600160f01b03191617600090815260028b01602052604090205460ff16158015611ab9575061ffff81166000908152600d8b01602052604090205460ff84811661010090920416145b15611ac85792506114ce915050565b505060ff81166000908152600889016020526040812090611ae88261310a565b905080600003611b0f576040516283533360e01b815260ff841660048201526024016108b7565b6000611b1a8a613149565b9050600080611b298489615261565b905060005b84811015611b8557611b408683613168565b9250611b508e85858f8f8f61121f565b15611b6457829750505050505050506114ce565b81611b6e81615275565b925050848210611b7d57600091505b600101611b2e565b5060405163b940612960e01b815260040160405180910390fd5b600061060383611bad612aca565b60008581526020919091526040902090613168565b6000611bcc612aca565b6004016000611be46001600160a01b03861685612ad4565b81526020810191909152604001600020546001600160401b03169392505050565b6000611c0f612aca565b600c01546001600160401b0316919050565b6000806000806000806060806060600060606000611c3d612aca565b600e0160008e6001600160401b03166001600160401b0316815260200190815260200160002090508060000160089054906101000a900461ffff169b5080600001600a9054906101000a900460ff169a5080600001600b9054906101000a90046001600160a01b03169950806001015498508060020160009054906101000a900463ffffffff1697508060020160049054906101000a900460ff16965080600601805480602002602001604051908101604052809291908181526020018280548015611d2857602002820191906000526020600020905b815481526020019060010190808311611d14575b505050600784015460088501805460408051602080840282018101909252828152969a5060ff90931698509093509150830182828015611db357602002820191906000526020600020906000905b82829054906101000a900463ffffffff1663ffffffff1681526020019060040190602082600301049283019260010382029150808411611d765790505b505050505091506000611dc882600301613174565b9050806001600160401b03811115611de257611de26142d1565b604051908082528060200260200182016040528015611e0b578160200160208202803683370190505b509650806001600160401b03811115611e2657611e266142d1565b604051908082528060200260200182016040528015611e4f578160200160208202803683370190505b50955060005b81811015611eb857611e6a600384018261317f565b898381518110611e7c57611e7c6150e3565b60200260200101898481518110611e9557611e956150e3565b60209081029190910101919091526001600160a01b039091169052600101611e55565b50505091939597999b90929496989a50565b611ed38461307e565b6000611edd612aca565b61ffff85166000908152600d820160205260408120805461ffff198116825592935061010090920460ff169190611f1760018301826140f4565b6002820160009055600382016000611f2f9190614119565b611f3d600483016000614119565b600582016000611f4d8282614119565b611f5b600183016000614137565b50505060ff821660009081526008840160205260409020611f81915061ffff871661319b565b15611fe15760ff811660009081526008830160205260409020611fa89061ffff87166131b3565b5060405161ffff861681527f6ee9dd6501e6ec9a0a3e60e773ac5fd9d48414213bc6a16588c88bda44f492899060200160405180910390a15b611ff26006830161ffff871661319b565b1561070f5760006120038585613134565b600081815260058501602052604090205490915061ffff87811691161461203d5760405163066a129160e31b815260040160405180910390fd5b60008181526005840160205260409020805461ffff191690556120676006840161ffff88166131b3565b506040805161ffff8816815260ff878116602083015286168183015290517f9c5c01904f703f1392e848da84f3f506975241d8d8d0f67550729c5f5080c94e9181900360600190a150505050505050565b60006120c2612aca565b6001600160a01b039092166000908152600a9290920160205250604090205490565b6000868410806120f357508282105b1561210057506000610c30565b600061210a6111fb565b6001600160a01b038a166000908152600a9190910160205260409020549050801580159061213757508086105b15612146576000915050610c30565b606386111561216b57604051633505ce1b60e11b8152600481018790526024016108b7565b601385111561219057604051637d34ca9360e01b8152600481018690526024016108b7565b600061219d60058761528e565b9050675c33b801024d7e4a600060646121dc6121ba856063615072565b6121c5906001615085565b6121d790670de0b6b3a764000061528e565b6131bf565b6121e69084615072565b6121f091906152a5565b9050670de0b6b3a7640000811061221d57604051630dd7f01960e01b8152600481018290526024016108b7565b6000670de0b6b3a7640000612232838d61528e565b61223c91906152a5565b90508984101561227357612250848b615072565b61225b90600a615085565b61226690600261539d565b61227090826152a5565b90505b9c9b505050505050505050505050565b600080846001600160a01b031663016dff5d6040518163ffffffff1660e01b8152600401602060405180830381865afa1580156122c4573d6000803e3d6000fd5b505050506040513d601f19601f820116820180604052508101906122e8919061503f565b6001600160a01b0316631ebd249385856040518363ffffffff1660e01b81526004016123159291906151da565b602060405180830381865afa158015612332573d6000803e3d6000fd5b505050506040513d601f19601f8201168201806040525081019061235691906151f3565b9050612360612aca565b60010160006123796001600160a01b03871686856132a0565b815260208101919091526040016000205460ff1695945050505050565b60006123a0612aca565b6009015460ff16919050565b6123b4614071565b6123bc612aca565b61ffff83166000908152600d919091016020908152604091829020825160e081018452815460ff808216835261010090910416818401526001820180548551818602810186018752818152929593949386019383018282801561246a57602002820191906000526020600020906000905b82829054906101000a900463ffffffff1663ffffffff168152602001906004019060208260030104928301926001038202915080841161242d5790505b5050505050815260200160028201548152602001600382018054806020026020016040519081016040528092919081815260200182805480156124cc57602002820191906000526020600020905b8154815260200190600101908083116124b8575b505050505081526020016004820180548060200260200160405190810160405280929190818152602001828054801561252457602002820191906000526020600020905b815481526020019060010190808311612510575b50505050508152602001600582016040518060400160405290816000820180548060200260200160405190810160405280929190818152602001828054801561258c57602002820191906000526020600020905b815481526020019060010190808311612578575b5050505050815260200160018201805480602002602001604051908101604052809291908181526020016000905b828210156126525760008481526020908190208301805460408051828502810185019091528181529283018282801561263e57602002820191906000526020600020906000905b82829054906101000a900463ffffffff1663ffffffff16815260200190600401906020826003010492830192600103820291508084116126015790505b5050505050815260200190600101906125ba565b5050509152505090525092915050565b606061060361266f612aca565b600b0160006126876001600160a01b03871686612ad4565b8152602001908152602001600020546132d5565b6126a48761307e565b60006126ae612aca565b60208601515186515191925090811415806126ce57508560400151518114155b156126ec5760405163c81acf3360e01b815260040160405180910390fd5b60005b8181101561275957865180518290811061270b5761270b6150e3565b6020026020010151518760200151828151811061272a5761272a6150e3565b602002602001015151146127515760405163f001029b60e01b815260040160405180910390fd5b6001016126ef565b5061ffff88166000908152600d830160205260409020600983015460ff90811690891611156127945760098301805460ff191660ff8a161790555b805460ff8981166101000261ffff1990921690841617178155604087015180516127c8916001840191602090910190614155565b506127db87606001518860800151613134565b600282015560a087015180516127fb916003840191602090910190614204565b506004810160005b8860c001515181101561288f57816128748a60c00151838151811061282a5761282a6150e3565b60200260200101518b60e001518481518110612848576128486150e3565b60200260200101518c61010001518581518110612867576128676150e3565b602002602001015161334d565b81546001818101845560009384526020909320015501612803565b5060005b83811015612930578851805160058501916128c591849081106128b8576128b86150e3565b6020026020010151613388565b8154600181018355600092835260209283902001558901518051600685019190839081106128f5576128f56150e3565b602090810291909101810151825460018101845560009384529282902081516129279491909101929190910190614155565b50600101612893565b508415612a325760006129438888613134565b600081815260058701602052604090205490915061ffff161561297f576040516366e6550f60e01b815261ffff8c1660048201526024016108b7565b60008181526005860160205260409020805461ffff191661ffff8d169081179091556129af90600687019061319b565b156129d35760405163ce9c78df60e01b815261ffff8c1660048201526024016108b7565b6129e46006860161ffff8d16613407565b506040805161ffff8d16815260ff8a8116602083015289168183015290517fc27376e37bec2cd9acd6957a46ca5cba20a88a21fd0eff1b02cf8536462304769181900360600190a150612a5c565b8154610100900460ff1660009081526008850160205260409020612a5a9061ffff8c16613407565b505b7fa8932b9bd78638467b3e5c0f0ffa9c72761db9f7f605b8df2f7a899770d064ae8a89604051612a8d929190615463565b60405180910390a15050505050505050505050565b612aab84612c5e565b6000612ab68461185a565b9050612ac3818484612e0f565b5050505050565b60006107f86111fb565b60006001600160401b03821115612b0157604051633995b34160e01b8152600481018390526024016108b7565b5067ffffffffffffffff60a01b60a09190911b166001600160a01b039091161790565b612b2c613413565b612b4957604051631afcd79f60e31b815260040160405180910390fd5b565b6001600160a01b038116612b935760405162461bcd60e51b815260206004820152600f60248201526e2d32b9379031b7b73a3937b63632b960891b60448201526064016108b7565b612bc28161090860017f5165972ef41194f06c5007493031d0b927c20741adcb74403b954009fd2c3618615072565b612bf14261090860017f6f55f470bdc9cb5f04223fd822021061668e4dccb43e8727b295106dc9769c8b615072565b612c204361090860017f812a673dfca07956350df10f8a654925f561d7a0da09bdbe79e653939a14d9f1615072565b7f1a2dd071001ebf6e03174e3df5b305795a4ad5d41d8fdb9ba41dbbe236713426814243604051612c5393929190615112565b60405180910390a150565b8061086057604051636221cab960e01b815260040160405180910390fd5b82546001840154600160581b82046001600160a01b031691600160501b900460ff1615612cbc57604051636927c40b60e11b815260040160405180910390fd5b612cc88282868661342d565b612cd183613149565b6001600160a01b031663f16a306683836040518363ffffffff1660e01b8152600401612cfe9291906151da565b602060405180830381865afa158015612d1b573d6000803e3d6000fd5b505050506040513d601f19601f82011682018060405250810190612d3f9190615562565b612d6057818160405163033aace360e41b81526004016108b79291906151da565b84546001600160401b0316612d758383611bc2565b6001600160401b031614612d9c576040516337bcc65160e01b815260040160405180910390fd5b935093915050565b8254600160581b600160f81b03191683556000600184015560028301805464ffffffffff19169055612dd682826135ea565b6040516001600160401b03821681527f883aa0807cbcd64d238a9795b0433f37884de37e569aff04d512cb1df62c6e019060200161182c565b6000612e19612aca565b6001600160401b0383166000908152600e8201602090815260408083208054600160401b900461ffff168452600d85018352818420825160a081018452858152938401859052918301849052606083018490526080830193909352929350909190612e8387613676565b6001600160a01b03166040820152600283015463ffffffff1615612eba5760405163282404cd60e01b815260040160405180910390fd5b612ec5838789612c7c565b602083018190526001600160a01b03909116808352600285015460ff600160201b90910416606084018190526040840151612f0e93869388939291612f098e613149565b613696565b63ffffffff1660808201819052600003612f3b57604051638a874ec160e01b815260040160405180910390fd5b608081015160028401805463ffffffff191663ffffffff909216918217905560408083015183516020850151925163f2c6c6fb60e01b81526001600160a01b03918216600482015260248101939093526044830193909352600092169063f2c6c6fb906064016020604051808303816000875af1158015612fc0573d6000803e3d6000fd5b505050506040513d601f19601f82011682018060405250810190612fe491906150f9565b90507f7a40f4421a71ae931ce048b2171197c34a78510813f1d3f4202935dd9f105b1a8683600001518460200151856080015185876060015160405161306c969594939291906001600160401b039690961686526001600160a01b03949094166020860152604085019290925263ffffffff166060840152608083015260a082015260c00190565b60405180910390a15050505050505050565b604051631430d62960e21b81526001600160a01b038216906350c358a4906130aa903390600401614722565b602060405180830381865afa1580156130c7573d6000803e3d6000fd5b505050506040513d601f19601f820116820180604052508101906130eb9190615562565b610860573360405163451cea1760e11b81526004016108b79190614722565b6000610606825490565b600061060682600884600001516001600160a01b031663016dff5d613a91565b600060ff8316600883901b61ff001617610603565b600061060682600084600001516001600160a01b0316628e9691613a91565b60006106038383613b9d565b600061060682613bc7565b600080808061318e8686613bd2565b9097909650945050505050565b60008181526001830160205260408120541515610603565b60006106038383613bfd565b6000670de0b6b3a76400008210156131ed57604051637046c4a960e01b8152600481018390526024016108b7565b6000613209613204670de0b6b3a7640000856152a5565b613cf0565b9050600061321f82670de0b6b3a764000061528e565b905083821c670de0b6b3a764000081900361323c57509392505050565b6706f05b59d3b200005b801561329657670de0b6b3a764000061325f838061528e565b61326991906152a5565b9150671bc16d674ec80000821061328e576132848184615085565b9250600182901c91505b60011c613246565b5090949350505050565b60609290921b6001600160601b03191660209190911b6bffffffffffffffff00000000161760189190911b63ff000000161790565b6040805160208082526104208201909252606091600091908082016104008036833701905050905060005b60208110156133465761331481600861528e565b8460001c901c82828151811061332c5761332c6150e3565b60ff90921660209283029190910190910152600101613300565b5092915050565b67ffffffffffffffff60401b604083901b166001600160401b0384161760808261337857600061337b565b60015b60ff16901b179392505050565b805160009060208111156133b957604051633d71388b60e21b815260048101829052602060248201526044016108b7565b6000805b828110156133ff576133d081600861528e565b8582815181106133e2576133e26150e3565b602090810291909101015160ff16901b91909117906001016133bd565b509392505050565b60006106038383613dd3565b600061341d6110f2565b54600160401b900460ff16919050565b6040516331a9108f60e11b8152600481018490526001600160a01b038084169190861690636352211e90602401602060405180830381865afa158015613477573d6000803e3d6000fd5b505050506040513d601f19601f8201168201806040525081019061349b919061503f565b6001600160a01b0316146134c657838360405163547208b960e11b81526004016108b79291906151da565b6134cf81613114565b6001600160a01b0316631789b7b1856040518263ffffffff1660e01b81526004016134fa9190614722565b602060405180830381865afa158015613517573d6000803e3d6000fd5b505050506040513d601f19601f8201168201806040525081019061353b91906151f3565b60ff16600003613560578360405163adc7fced60e01b81526004016108b79190614722565b80600001516001600160a01b03166318d928316040518163ffffffff1660e01b8152600401602060405180830381865afa1580156135a2573d6000803e3d6000fd5b505050506040513d601f19601f820116820180604052508101906135c69190615562565b156135e457604051635e1633d360e11b815260040160405180910390fd5b50505050565b613618816001600160401b03166135ff612aca565b60ff851660009081526020919091526040902090613407565b613635576040516313e5d5f160e11b815260040160405180910390fd5b6040805160ff841681526001600160401b03831660208201527f3e9a7af2aeebce9d24ef707bdb61adf2708293e374a19f8e9c31f905c68b43c19101610974565b600061060682600584600001516001600160a01b03166389dd9f13613a91565b600786015460009060ff1686106136c3576040516315f7ec4560e21b8152600481018790526024016108b7565b8660080186815481106136d8576136d86150e3565b60009182526020822060088204015460079091166004026101000a900463ffffffff169150819003610c3057604051631a95890960e31b81526000906001600160a01b0384169063d4ac48489061373590889088906004016151da565b60a060405180830381865afa158015613752573d6000803e3d6000fd5b505050506040513d601f19601f82011682018060405250810190613776919061557f565b602081015181518b549293506137a09263ffffffff9283169290911690610100900460ff16613e22565b158015906137f157506137b1612aca565b8954600191909101906000906137db906001600160a01b038916908890610100900460ff166132a0565b815260208101919091526040016000205460ff16155b801561381e5750885461380d90610100900460ff166005615616565b60ff16816000015163ffffffff1610155b15613897578854610100900460ff166001036138405762138884915050610c30565b8854610100900460ff1660020361385d576222f238915050610c30565b8854610100900460ff1660030361387a57623234dc915050610c30565b8854610100900460ff166004036138975762417780915050610c30565b6040805160058b018054606060208202840181018552938301818152600094849284918401828280156138e957602002820191906000526020600020905b8154815260200190600101908083116138d5575b5050505050815260200160018201805480602002602001604051908101604052809291908181526020016000905b828210156139af5760008481526020908190208301805460408051828502810185019091528181529283018282801561399b57602002820191906000526020600020906000905b82829054906101000a900463ffffffff1663ffffffff168152602001906004019060208260030104928301926001038202915080841161395e5790505b505050505081526020019060010190613917565b50505050815250509050866001600160a01b0316636f383c0f6139ee83600001518b815181106139e1576139e16150e3565b6020026020010151613e78565b83602001518b81518110613a0457613a046150e3565b60200260200101518d60000160019054906101000a900460ff168a8a6040518663ffffffff1660e01b8152600401613a40959493929190615632565b6020604051808303816000875af1158015613a5f573d6000803e3d6000fd5b505050506040513d601f19601f82011682018060405250810190613a839190615681565b9a9950505050505050505050565b600080856020015185600e811115613aab57613aab61569e565b600f8110613abb57613abb6150e3565b602002015190506001600160a01b03811615613ad8579050610615565b83836040518163ffffffff1660e01b8152600401602060405180830381865afa158015613b09573d6000803e3d6000fd5b505050506040513d601f19601f82011682018060405250810190613b2d919061503f565b866020015186600e811115613b4457613b4461569e565b600f8110613b5457613b546150e3565b6001600160a01b039092166020928302919091015286015185600e811115613b7e57613b7e61569e565b600f8110613b8e57613b8e6150e3565b60200201519695505050505050565b6000826000018281548110613bb457613bb46150e3565b9060005260206000200154905092915050565b60006106068261310a565b60008080613be08585613168565b600081815260029690960160205260409095205494959350505050565b60008181526001830160205260408120548015613ce6576000613c21600183615072565b8554909150600090613c3590600190615072565b9050808214613c9a576000866000018281548110613c5557613c556150e3565b9060005260206000200154905080876000018481548110613c7857613c786150e3565b6000918252602080832090910192909255918252600188019052604090208390555b8554869080613cab57613cab6156b4565b600190038181906000526020600020016000905590558560010160008681526020019081526020016000206000905560019350505050610606565b6000915050610606565b6000600160801b8210613d1057608091821c91613d0d9082615085565b90505b600160401b8210613d2e57604091821c91613d2b9082615085565b90505b600160201b8210613d4c57602091821c91613d499082615085565b90505b620100008210613d6957601091821c91613d669082615085565b90505b6101008210613d8557600891821c91613d829082615085565b90505b60108210613da057600491821c91613d9d9082615085565b90505b60048210613dbb57600291821c91613db89082615085565b90505b60028210613dce57610606600182615085565b919050565b6000818152600183016020526040812054613e1a57508154600181810184556000848152602080822090930184905584548482528286019093526040902091909155610606565b506000610606565b6000806005613e3386866001613f6c565b613e3d91906152a5565b613e48906001615085565b9050828111613e585760006107bb565b613e628382615072565b613e6d90600a615085565b6107bb90600261539d565b60606000613e85836132d5565b90506000805b8251811015613ece57828181518110613ea657613ea66150e3565b602002602001015160ff1660000315613ece5781613ec381615275565b925050600101613e8b565b50806001600160401b03811115613ee757613ee76142d1565b604051908082528060200260200182016040528015613f10578160200160208202803683370190505b50925060005b81811015613f6457828181518110613f3057613f306150e3565b6020026020010151848281518110613f4a57613f4a6150e3565b60ff90921660209283029190910190910152600101613f16565b505050919050565b600080613f798585613fa2565b9050828015613f9257506002613f90826001615085565b115b15610615576107bb600282615072565b805b606381101561060657613fb8836001615085565b613fc182613fd5565b63ffffffff16101561060657600101613fa4565b600063ffffffff82161580613ff15750606363ffffffff831610155b15613ffe57506000919050565b670de0b6b3a76400006140386140158460636156ca565b6140209060026156e7565b6121d79063ffffffff16670de0b6b3a764000061528e565b61404a90675cfb2e807b1e0000615072565b61405d620186a063ffffffff861661528e565b614067919061528e565b61060691906152a5565b6040518060e00160405280600060ff168152602001600060ff168152602001606081526020016000801916815260200160608152602001606081526020016140cc604051806040016040528060608152602001606081525090565b905290565b604051806040016040528060006001600160a01b031681526020016140cc61423f565b508054600082556007016008900490600052602060002090810190610860919061425e565b5080546000825590600052602060002090810190610860919061425e565b50805460008255906000526020600020908101906108609190614273565b828054828255906000526020600020906007016008900481019282156141f45791602002820160005b838211156141c257835183826101000a81548163ffffffff021916908363ffffffff160217905550926020019260040160208160030104928301926001030261417e565b80156141f25782816101000a81549063ffffffff02191690556004016020816003010492830192600103026141c2565b505b5061420092915061425e565b5090565b8280548282559060005260206000209081019282156141f4579160200282015b828111156141f4578251825591602001919060010190614224565b604051806101e00160405280600f906020820280368337509192915050565b5b80821115614200576000815560010161425f565b8082111561420057600061428782826140f4565b50600101614273565b6001600160a01b038116811461086057600080fd5b600080604083850312156142b857600080fd5b82356142c381614290565b946020939093013593505050565b634e487b7160e01b600052604160045260246000fd5b60405161012081016001600160401b038111828210171561430a5761430a6142d1565b60405290565b604051601f8201601f191681016001600160401b0381118282101715614338576143386142d1565b604052919050565b600082601f83011261435157600080fd5b81356001600160401b0381111561436a5761436a6142d1565b61437d601f8201601f1916602001614310565b81815284602083860101111561439257600080fd5b816020850160208301376000918101602001919091529392505050565b600080600080608085870312156143c557600080fd5b84356143d081614290565b935060208501356143e081614290565b92506040850135915060608501356001600160401b0381111561440257600080fd5b61440e87828801614340565b91505092959194509250565b60006020828403121561442c57600080fd5b813561443781614290565b9392505050565b6001600160401b038116811461086057600080fd5b801515811461086057600080fd5b8035613dce81614453565b6000806040838503121561447f57600080fd5b823561448a8161443e565b9150602083013561449a81614453565b809150509250929050565b803561ffff81168114613dce57600080fd5b60ff8116811461086057600080fd5b8035613dce816144b7565b600080600080608085870312156144e757600080fd5b6144f0856144a5565b93506020850135614500816144b7565b9250604085013561451081614290565b9396929550929360600135925050565b6000806040838503121561453357600080fd5b823561453e8161443e565b915060208301356001600160401b0381111561455957600080fd5b61456585828601614340565b9150509250929050565b60006020828403121561458157600080fd5b81356144378161443e565b63ffffffff8116811461086057600080fd5b600080600080608085870312156145b457600080fd5b84356145bf8161458c565b935060208501356145cf81614290565b92506040850135915060608501356145e6816144b7565b939692955090935050565b60008060006060848603121561460657600080fd5b833561461181614290565b925060208401359150604084013561462881614290565b809150509250925092565b60006020828403121561464557600080fd5b5035919050565b600080600080600060a0868803121561466457600080fd5b853561466f81614290565b9450602086013561467f816144b7565b9350604086013561468f81614290565b94979396509394606081013594506080013592915050565b600080604083850312156146ba57600080fd5b50508035926020909101359150565b6000815180845260005b818110156146ef576020818501810151868301820152016146d3565b506000602082860101526020601f19601f83011685010191505092915050565b60208152600061060360208301846146c9565b6001600160a01b0391909116815260200190565b60008151808452602080850194506020840160005b838110156147705781516001600160a01b03168752958201959082019060010161474b565b509495945050505050565b60008151808452602080850194506020840160005b8381101561477057815187529582019590820190600101614790565b60008151808452602080850194506020840160005b8381101561477057815163ffffffff16875295820195908201906001016147c1565b61ffff8c1681528a151560208201526001600160a01b038a1660408201526060810189905263ffffffff88166080820152600061016060ff891660a08401528060c084015261483481840189614736565b905082810360e0840152614848818861477b565b905082810361010084015261485d818761477b565b60ff8616610120850152905082810361014084015261487c81856147ac565b9e9d5050505050505050505050505050565b6000806000606084860312156148a357600080fd5b6148ac846144a5565b925060208401356148bc816144b7565b91506040840135614628816144b7565b600080600080600080600060e0888a0312156148e757600080fd5b87356148f281614290565b965060208801359550604088013594506060880135614910816144b7565b93506080880135614920816144b7565b925060a0880135614930816144b7565b915060c0880135614940816144b7565b8091505092959891949750929550565b60008060006060848603121561496557600080fd5b83356149708161443e565b9250602084013561498081614290565b929592945050506040919091013590565b600080600080608085870312156149a757600080fd5b84356149b281614290565b966020860135965060408601359560600135945092505050565b6000602082840312156149de57600080fd5b610603826144a5565b60008282518085526020808601955060208260051b8401016020860160005b84811015614a3457601f19868403018952614a228383516147ac565b98840198925090830190600101614a06565b5090979650505050505050565b6000815160408452614a56604085018261477b565b9050602083015184820360208601526107bb82826149e7565b6020815260ff825116602082015260006020830151614a93604084018260ff169052565b50604083015160e06060840152614aae6101008401826147ac565b9050606084015160808401526080840151601f19808584030160a0860152614ad6838361477b565b925060a08601519150808584030160c0860152614af3838361477b565b925060c08601519150808584030160e0860152506107bb8282614a41565b60008151808452602080850194506020840160005b8381101561477057815160ff1687529582019590820190600101614b26565b6020815260006106036020830184614b11565b60006001600160401b03821115614b7157614b716142d1565b5060051b60200190565b600082601f830112614b8c57600080fd5b81356020614ba1614b9c83614b58565b614310565b828152600592831b8501820192828201919087851115614bc057600080fd5b8387015b85811015614a345780356001600160401b03811115614be35760008081fd5b8801603f81018a13614bf55760008081fd5b858101356040614c07614b9c83614b58565b82815291851b8301810191888101908d841115614c245760008081fd5b938201935b83851015614c4e5784359250614c3e836144b7565b8282529389019390890190614c29565b885250505093850193508401614bc4565b600082601f830112614c7057600080fd5b81356020614c80614b9c83614b58565b8083825260208201915060208460051b870101935086841115614ca257600080fd5b602086015b84811015614cc7578035614cba8161458c565b8352918301918301614ca7565b509695505050505050565b600082601f830112614ce357600080fd5b81356020614cf3614b9c83614b58565b82815260059290921b84018101918181019086841115614d1257600080fd5b8286015b84811015614cc75780356001600160401b03811115614d355760008081fd5b614d438986838b0101614c5f565b845250918301918301614d16565b600082601f830112614d6257600080fd5b81356020614d72614b9c83614b58565b8083825260208201915060208460051b870101935086841115614d9457600080fd5b602086015b84811015614cc75780358352918301918301614d99565b600082601f830112614dc157600080fd5b81356020614dd1614b9c83614b58565b8083825260208201915060208460051b870101935086841115614df357600080fd5b602086015b84811015614cc7578035614e0b8161443e565b8352918301918301614df8565b600082601f830112614e2957600080fd5b81356020614e39614b9c83614b58565b8083825260208201915060208460051b870101935086841115614e5b57600080fd5b602086015b84811015614cc7578035614e7381614453565b8352918301918301614e60565b60008060008060008060c08789031215614e9957600080fd5b614ea2876144a5565b95506020870135614eb2816144b7565b945060408701356001600160401b0380821115614ece57600080fd5b90880190610120828b031215614ee357600080fd5b614eeb6142e7565b823582811115614efa57600080fd5b614f068c828601614b7b565b825250602083013582811115614f1b57600080fd5b614f278c828601614cd2565b602083015250604083013582811115614f3f57600080fd5b614f4b8c828601614c5f565b604083015250614f5d606084016144c6565b6060820152614f6e608084016144c6565b608082015260a083013582811115614f8557600080fd5b614f918c828601614d51565b60a08301525060c083013582811115614fa957600080fd5b614fb58c828601614db0565b60c08301525060e083013582811115614fcd57600080fd5b614fd98c828601614db0565b60e0830152506101008084013583811115614ff357600080fd5b614fff8d828701614e18565b828401525050809650505050615017606088016144c6565b9250615025608088016144c6565b915061503360a08801614461565b90509295509295509295565b60006020828403121561505157600080fd5b815161443781614290565b634e487b7160e01b600052601160045260246000fd5b818103818111156106065761060661505c565b808201808211156106065761060661505c565b6000602082840312156150aa57600080fd5b81516144378161443e565b6000806000606084860312156150ca57600080fd5b8351925060208401519150604084015190509250925092565b634e487b7160e01b600052603260045260246000fd5b60006020828403121561510b57600080fd5b5051919050565b6001600160a01b039390931683526020830191909152604082015260600190565b8781528660208201526001600160401b0386166040820152600060018060a01b03808716606084015260e0608084015261517060e08401876146c9565b941660a08301525063ffffffff9190911660c09091015295945050505050565b600080600080608085870312156151a657600080fd5b84516151b181614453565b6020860151604087015191955093506151c98161458c565b60608601519092506145e681614453565b6001600160a01b03929092168252602082015260400190565b60006020828403121561520557600080fd5b8151614437816144b7565b634e487b7160e01b600052601260045260246000fd5b600060ff83168061523957615239615210565b8060ff84160491505092915050565b60ff81811683821601908111156106065761060661505c565b60008261527057615270615210565b500690565b6000600182016152875761528761505c565b5060010190565b80820281158282048414176106065761060661505c565b6000826152b4576152b4615210565b500490565b600181815b808511156152f45781600019048211156152da576152da61505c565b808516156152e757918102915b93841c93908002906152be565b509250929050565b60008261530b57506001610606565b8161531857506000610606565b816001811461532e576002811461533857615354565b6001915050610606565b60ff8411156153495761534961505c565b50506001821b610606565b5060208310610133831016604e8410600b8410161715615377575081810a610606565b61538183836152b9565b80600019048211156153955761539561505c565b029392505050565b600061060383836152fc565b60008282518085526020808601955060208260051b8401016020860160005b84811015614a3457601f198684030189526153e4838351614b11565b988401989250908301906001016153c8565b60008151808452602080850194506020840160005b838110156147705781516001600160401b03168752958201959082019060010161540b565b60008151808452602080850194506020840160005b83811015614770578151151587529582019590820190600101615445565b61ffff83168152604060208201526000825161012080604085015261548c6101608501836153a9565b91506020850151603f19808685030160608701526154aa84836149e7565b935060408701519150808685030160808701526154c784836147ac565b9350606087015191506154df60a087018360ff169052565b608087015160ff1660c087015260a0870151868503820160e08801529150615507848361477b565b935060c0870151915061010081878603018188015261552685846153f6565b945060e0880151925081878603018488015261554285846153f6565b945080880151935050808685030161014087015250506114ce8282615430565b60006020828403121561557457600080fd5b815161443781614453565b600060a0828403121561559157600080fd5b60405160a081018181106001600160401b03821117156155b3576155b36142d1565b60405282516155c18161458c565b815260208301516155d18161458c565b602082015260408301516155e48161458c565b604082015260608301516155f78161458c565b6060820152608083015161560a8161458c565b60808201529392505050565b60ff81811683821602908116908181146133465761334661505c565b60a08152600061564560a0830188614b11565b828103602084015261565781886147ac565b60ff96909616604084015250506001600160a01b0392909216606083015260809091015292915050565b60006020828403121561569357600080fd5b81516144378161458c565b634e487b7160e01b600052602160045260246000fd5b634e487b7160e01b600052603160045260246000fd5b63ffffffff8281168282160390808211156133465761334661505c565b63ffffffff8181168382160190808211156133465761334661505c56fe22573091f17911fb166032a3d9e0554aa73d31b7b7ddea4a4dd2995650af84bda26469706673582212206add5e1b9122d0164ff9d547463cf353763f3997eab433f184e9ec09d61cf30164736f6c63430008170033",
  "deployedBytecode": "0x608060405234801561001057600080fd5b506004361061021e5760003560e01c80639a641e0211610126578063b429afeb116100b3578063b429afeb146104eb578063b5a44d04146104fe578063b6d2fe6c14610511578063b701c1aa1461053f578063be2e0ad81461055f578063d06969c71461057f578063dee1f0e414610592578063e76bd825146105a5578063f77c4791146105b8578063fee27cbe146105c0578063ffa1ad74146105d357600080fd5b80639a641e021461042a5780639d0bcca01461043d5780639f3cfa7a14610452578063a433af6f1461045a578063a46374b31461046d578063a4efd30914610497578063a7540ee5146104aa578063ac257b3a146104bd578063ad8c5755146104d0578063b2192fdd146104e357600080fd5b80634fac6ccd116101af5780634fac6ccd1461031b578063572b6c051461032e57806357bd05b0146103415780635a67eb48146103545780636a8a5e8c146103675780636bb4b4591461037a5780637442adbc146103a55780637be89369146103b85780637c00116c146103de5780637cc96380146103f1578063936725ec146103f957600080fd5b80630e30c13e14610223578063150b7a021461024d57806319ab453c1461027957806327dd892f1461028e5780632fcd5deb146102a1578063325a19f1146102c457806338430cce146102da5780634593144c146102ed57806348b371bf146102f55780634d52532c14610308575b600080fd5b6102366102313660046142a5565b6105f7565b60405160ff90911681526020015b60405180910390f35b61026061025b3660046143af565b61060c565b6040516001600160e01b03199091168152602001610244565b61028c61028736600461441a565b61061d565b005b61028c61029c36600461446c565b610717565b6102b46102af3660046144d1565b61073d565b6040519015158152602001610244565b6102cc6107c4565b604051908152602001610244565b61028c6102e8366004614520565b6107fd565b6102cc61081f565b61028c61030336600461456f565b61084f565b6102cc61031636600461456f565b610863565b61028c61032936600461441a565b61086e565b6102b461033c36600461441a565b610980565b61028c61034f36600461459e565b6109f5565b61028c6103623660046142a5565b610a98565b61028c6103753660046145f1565b610aaa565b61038d6103883660046145f1565b610b40565b6040516001600160401b039091168152602001610244565b6102cc6103b3366004614633565b610c02565b6103cb6103c636600461464c565b610c0d565b60405161ffff9091168152602001610244565b61038d6103ec3660046146a7565b610c3b565b6102cc610c47565b61041d604051806040016040528060058152602001640312e302e360dc1b81525081565b604051610244919061470f565b61038d6104383660046142a5565b610c65565b610445610c71565b6040516102449190614722565b61038d610ca1565b61028c6104683660046142a5565b610cab565b61048061047b36600461456f565b610d30565b6040516102449b9a999897969594939291906147e3565b61028c6104a536600461488e565b610d70565b6102cc6104b836600461441a565b610d88565b6102cc6104cb3660046148cc565b610d93565b6102b46104de3660046142a5565b610dbc565b610236610dd0565b6102b46104f936600461441a565b610dda565b61028c61050c366004614950565b610dff565b61052461051f366004614991565b610e89565b60408051938452602084019290925290820152606001610244565b61055261054d3660046149cc565b610f45565b6040516102449190614a6f565b61057261056d3660046142a5565b610f56565b6040516102449190614b45565b61038d61058d3660046145f1565b610f62565b6102b46105a036600461441a565b610fc9565b61028c6105b3366004614e80565b61104e565b610445611064565b61028c6105ce36600461456f565b611094565b61041d60405180604001604052806005815260200164322e312e3160d81b81525081565b600061060383836110b5565b90505b92915050565b630a85bd0160e11b5b949350505050565b60006106276110f2565b805490915060ff600160401b82041615906001600160401b031660008115801561064e5750825b90506000826001600160401b0316600114801561066a5750303b155b905081158015610678575080155b156106965760405163f92ee8a960e01b815260040160405180910390fd5b845467ffffffffffffffff1916600117855583156106c057845460ff60401b1916600160401b1785555b6106c986611116565b831561070f57845460ff60401b19168555604051600181527fc7f505b2f371ae2175ee4913f4499e1f2633a7b5936321eed1cdaeb6115181d29060200160405180910390a15b505050505050565b610739610722611127565b61072a611064565b61073261113f565b8585611161565b5050565b60006107bb61074a6111fb565b610752611064565b6001600160a01b0316628e96916040518163ffffffff1660e01b8152600401602060405180830381865afa15801561078e573d6000803e3d6000fd5b505050506040513d601f19601f820116820180604052508101906107b2919061503f565b8787878761121f565b95945050505050565b60006107f86107f460017f6f55f470bdc9cb5f04223fd822021061668e4dccb43e8727b295106dc9769c8b615072565b5490565b905090565b610739610808611127565b610810611064565b61081861113f565b85856114d8565b60006107f86107f460017f812a673dfca07956350df10f8a654925f561d7a0da09bdbe79e653939a14d9f1615072565b61086061085a611064565b82611716565b50565b60006106068261176e565b3330146108c05760405162461bcd60e51b815260206004820152601b60248201527a24b731b932b0b9b2903932bb34b9b4b7b7103337b93134b23232b760291b60448201526064015b60405180910390fd5b60006108de6107f46001600080516020615705833981519152615072565b6108e9906001615085565b905061090b816109086001600080516020615705833981519152615072565b55565b61093a8261090860017fbfaaa2fb63266ff27c2da975f5894955056f50419af651a81f6c5060581857e4615072565b604080518281526001600160a01b03841660208201527ff27e2ef832a4eb8ed8ec553b875eecd44764cda95b1c24170e281539e0a869c891015b60405180910390a15050565b60006001600160a01b03821673d8253782c45a12053594b9deb72d8e8ab2fca54c14806109c957506001600160a01b0382167352ceba41da235af367bfc0b0ccd3314cb901bb5f145b8061060657506001600160a01b03821673102f1f556cd9c3d5f820e6920a8931657c5da21b1492915050565b73__$ab645b4c934bd909f08d0d9ba5d19f570d$__637c1ecb8e610a17611064565b6040516001600160e01b031960e084901b1681526001600160a01b03918216600482015263ffffffff8816602482015290861660448201526064810185905260ff8416608482015260a40160006040518083038186803b158015610a7a57600080fd5b505af4158015610a8e573d6000803e3d6000fd5b5050505050505050565b610739610aa3611064565b838361179a565b73__$ab645b4c934bd909f08d0d9ba5d19f570d$__6303395eef610acc611064565b6040516001600160e01b031960e084901b1681526001600160a01b03918216600482015281871660248201526044810186905290841660648201526084015b60006040518083038186803b158015610b2357600080fd5b505af4158015610b37573d6000803e3d6000fd5b50505050505050565b600073__$ab645b4c934bd909f08d0d9ba5d19f570d$__63987707f9610b64611127565b610b6c611064565b610b7461113f565b6040516001600160e01b031960e086901b16815292151560048401526001600160a01b03918216602484015281166044830152808816606483015260848201879052851660a482015260c4015b602060405180830381865af4158015610bde573d6000803e3d6000fd5b505050506040513d601f19601f820116820180604052508101906106159190615098565b600061060682611839565b600080610c198761185a565b9050610c30610c266111fb565b8288888888611872565b979650505050505050565b60006106038383611b9f565b60006107f86107f46001600080516020615705833981519152615072565b60006106038383611bc2565b60006107f86107f460017fbfaaa2fb63266ff27c2da975f5894955056f50419af651a81f6c5060581857e4615072565b60006107f8611c05565b73__$ab645b4c934bd909f08d0d9ba5d19f570d$__63dc01b901610ccd611064565b6040516001600160e01b031960e084901b1681526001600160a01b0391821660048201529085166024820152604481018490526064015b60006040518083038186803b158015610d1c57600080fd5b505af415801561070f573d6000803e3d6000fd5b600080600080600080606080606060006060610d4b8c611c21565b9a509a509a509a509a509a509a509a509a509a509a5091939597999b90929496989a50565b610d83610d7b611064565b848484611eca565b505050565b6000610606826120b8565b6000610db08888888860ff168860ff168860ff168860ff166120e4565b98975050505050505050565b6000610603610dc9611064565b8484612283565b60006107f8612396565b6000610de4611064565b6001600160a01b0316826001600160a01b0316149050919050565b73__$ab645b4c934bd909f08d0d9ba5d19f570d$__63efa20d9b610e21611127565b610e29611064565b610e3161113f565b6040516001600160e01b031960e086901b16815292151560048401526001600160a01b039182166024840152811660448301526001600160401b03871660648301528516608482015260a4810184905260c401610b0b565b600080600073__$ab645b4c934bd909f08d0d9ba5d19f570d$__633e457e4f610eb0611064565b6040516001600160e01b031960e084901b1681526001600160a01b039182166004820152908a16602482015260448101899052606481018890526084810187905260a401606060405180830381865af4158015610f11573d6000803e3d6000fd5b505050506040513d601f19601f82011682018060405250810190610f3591906150b5565b9250925092509450945094915050565b610f4d614071565b610606826123ac565b60606106038383612662565b600073__$ab645b4c934bd909f08d0d9ba5d19f570d$__63c77d56a2610f86611064565b6040516001600160e01b031960e084901b1681526001600160a01b0391821660048201528186166024820152908716604482015260648101869052608401610bc1565b6000816001600160a01b0316610fdd611064565b6001600160a01b0316635aa6e6756040518163ffffffff1660e01b8152600401602060405180830381865afa15801561101a573d6000803e3d6000fd5b505050506040513d601f19601f8201168201806040525081019061103e919061503f565b6001600160a01b03161492915050565b61070f611059611064565b87878787878761269b565b60006107f86107f460017f5165972ef41194f06c5007493031d0b927c20741adcb74403b954009fd2c3618615072565b61086061109f611127565b6110a7611064565b6110af61113f565b84612aa2565b60006110bf612aca565b60030160006110d76001600160a01b03861685612ad4565b815260208101919091526040016000205460ff169392505050565b7ff0c57e16840df040f15088dc2f81fe391c3923bec73e23a9662efc9c229c6a0090565b61111e612b24565b61086081612b4b565b600061113233610980565b806107f857505032331490565b600061114a33610980565b1561115c575060131936013560601c90565b503390565b61116a85612c5e565b60405163139ed9b560e21b81526001600160a01b0380861660048301526001600160401b038416602483015282151560448301528416606482015273__$1523437c96ee4244b41dcb81ce9bb69efd$__90634e7b66d49060840160006040518083038186803b1580156111dc57600080fd5b505af41580156111f0573d6000803e3d6000fd5b505050505050505050565b7fae5971282b317bbed599861775fe0712755bb3b2f655bfe8fb14280d8429f60090565b61ffff84166000908152600d870160205260408120600281015460ff8082169160081c81169087168211806112565750808760ff16115b1561126757600093505050506114ce565b50506000816003018054806020026020016040519081016040528092919081815260200182805480156112b957602002820191906000526020600020905b8154815260200190600101908083116112a5575b5050505050905060008260040180548060200260200160405190810160405280929190818152602001828054801561131057602002820191906000526020600020905b8154815260200190600101908083116112fc575b505085519394506000925050505b818110156114c457600084828151811061133a5761133a6150e3565b602002602001015190506000801b810361135457506114bc565b600080600061138b87868151811061136e5761136e6150e3565b602002602001015190604082901c90608083901c60ff1660011490565b92509250925060008161140c578f6001600160a01b0316630a82c861866040518263ffffffff1660e01b81526004016113c691815260200190565b602060405180830381865afa1580156113e3573d6000803e3d6000fd5b505050506040513d601f19601f8201168201806040525081019061140791906150f9565b61147d565b8f6001600160a01b0316631c2aafe78e8e886040518463ffffffff1660e01b815260040161143c93929190615112565b602060405180830381865afa158015611459573d6000803e3d6000fd5b505050506040513d601f19601f8201168201806040525081019061147d91906150f9565b9050836001600160401b031681108061149e5750826001600160401b031681115b156114b65760009a50505050505050505050506114ce565b50505050505b60010161131e565b5060019450505050505b9695505050505050565b60006114e2612aca565b905060006114ef8661185a565b6040805160a0810182526000808252602080830182905282840182905260608301829052608083018290526001600160401b0389168252600e870181528382208054600160401b900461ffff168352600d8801909152929020929350916115558a612c5e565b611560828986612c7c565b50508160020160009054906101000a900463ffffffff16836040019063ffffffff16908163ffffffff168152505073__$1523437c96ee4244b41dcb81ce9bb69efd$__6311942d1783838a8c8b8f8a604001516040518863ffffffff1660e01b81526004016115d59796959493929190615133565b608060405180830381865af41580156115f2573d6000803e3d6000fd5b505050506040513d601f19601f820116820180604052508101906116169190615190565b1515602087015263ffffffff1660608601526080850152158015845261164857815460ff60501b1916600160501b1782555b60808301511561167957608083015160028301805460ff909216600160201b0264ff00000000199092169190911790555b826040015163ffffffff16836060015163ffffffff16146116b557606083015160028301805463ffffffff191663ffffffff9092169190911790555b8260200151156116d55780546116d5908390610100900460ff1689612da4565b82511580156116ec5750600282015463ffffffff16155b80156116fa57508260200151155b1561170a5761170a848989612e0f565b50505050505050505050565b61171f8261307e565b604051632586866b60e11b81526001600160a01b03831660048201526001600160401b038216602482015273__$1523437c96ee4244b41dcb81ce9bb69efd$__90634b0d0cd690604401610d04565b6000611778612aca565b6001600160401b039092166000908152600f9290920160205250604090205490565b6117a38361307e565b60058110156117c857604051634bebee7f60e01b8152600481018290526024016108b7565b806117d1612aca565b600a016000846001600160a01b03166001600160a01b03168152602001908152602001600020819055507f996f9d801b1a05cd3c7b555e5b6f61db994ea8ef57125b5b5d3b07b9dad4e2cf828260405161182c9291906151da565b60405180910390a1505050565b6000610606611846612aca565b60008481526020919091526040902061310a565b6118626140d1565b6001600160a01b03909116815290565b60008460ff166000036118985760405163a8473eab60e01b815260040160405180910390fd5b6000806118a488613114565b604051631ebd249360e01b81529091506001600160a01b03821690631ebd2493906118d590899089906004016151da565b602060405180830381865afa1580156118f2573d6000803e3d6000fd5b505050506040513d601f19601f8201168201806040525081019061191691906151f3565b915060008960050160006119ad60058b6119309190615226565b61193b906001615248565b604051631789b7b160e01b81526001600160a01b03871690631789b7b190611967908e90600401614722565b602060405180830381865afa158015611984573d6000803e3d6000fd5b505050506040513d601f19601f820116820180604052508101906119a891906151f3565b613134565b8152602081019190915260400160009081205461ffff169150819003611a0d578960050160006119f560058b6119e39190615226565b6119ee906001615248565b6000613134565b815260208101919091526040016000205461ffff1690505b8061ffff16600003611a4257896005016000611a2a600080613134565b815260208101919091526040016000205461ffff1690505b61ffff811615611ac8576001600160a01b03871660a087901b67ffffffffffffffff60a01b161760f082901b6001600160f01b03191617600090815260028b01602052604090205460ff16158015611ab9575061ffff81166000908152600d8b01602052604090205460ff84811661010090920416145b15611ac85792506114ce915050565b505060ff81166000908152600889016020526040812090611ae88261310a565b905080600003611b0f576040516283533360e01b815260ff841660048201526024016108b7565b6000611b1a8a613149565b9050600080611b298489615261565b905060005b84811015611b8557611b408683613168565b9250611b508e85858f8f8f61121f565b15611b6457829750505050505050506114ce565b81611b6e81615275565b925050848210611b7d57600091505b600101611b2e565b5060405163b940612960e01b815260040160405180910390fd5b600061060383611bad612aca565b60008581526020919091526040902090613168565b6000611bcc612aca565b6004016000611be46001600160a01b03861685612ad4565b81526020810191909152604001600020546001600160401b03169392505050565b6000611c0f612aca565b600c01546001600160401b0316919050565b6000806000806000806060806060600060606000611c3d612aca565b600e0160008e6001600160401b03166001600160401b0316815260200190815260200160002090508060000160089054906101000a900461ffff169b5080600001600a9054906101000a900460ff169a5080600001600b9054906101000a90046001600160a01b03169950806001015498508060020160009054906101000a900463ffffffff1697508060020160049054906101000a900460ff16965080600601805480602002602001604051908101604052809291908181526020018280548015611d2857602002820191906000526020600020905b815481526020019060010190808311611d14575b505050600784015460088501805460408051602080840282018101909252828152969a5060ff90931698509093509150830182828015611db357602002820191906000526020600020906000905b82829054906101000a900463ffffffff1663ffffffff1681526020019060040190602082600301049283019260010382029150808411611d765790505b505050505091506000611dc882600301613174565b9050806001600160401b03811115611de257611de26142d1565b604051908082528060200260200182016040528015611e0b578160200160208202803683370190505b509650806001600160401b03811115611e2657611e266142d1565b604051908082528060200260200182016040528015611e4f578160200160208202803683370190505b50955060005b81811015611eb857611e6a600384018261317f565b898381518110611e7c57611e7c6150e3565b60200260200101898481518110611e9557611e956150e3565b60209081029190910101919091526001600160a01b039091169052600101611e55565b50505091939597999b90929496989a50565b611ed38461307e565b6000611edd612aca565b61ffff85166000908152600d820160205260408120805461ffff198116825592935061010090920460ff169190611f1760018301826140f4565b6002820160009055600382016000611f2f9190614119565b611f3d600483016000614119565b600582016000611f4d8282614119565b611f5b600183016000614137565b50505060ff821660009081526008840160205260409020611f81915061ffff871661319b565b15611fe15760ff811660009081526008830160205260409020611fa89061ffff87166131b3565b5060405161ffff861681527f6ee9dd6501e6ec9a0a3e60e773ac5fd9d48414213bc6a16588c88bda44f492899060200160405180910390a15b611ff26006830161ffff871661319b565b1561070f5760006120038585613134565b600081815260058501602052604090205490915061ffff87811691161461203d5760405163066a129160e31b815260040160405180910390fd5b60008181526005840160205260409020805461ffff191690556120676006840161ffff88166131b3565b506040805161ffff8816815260ff878116602083015286168183015290517f9c5c01904f703f1392e848da84f3f506975241d8d8d0f67550729c5f5080c94e9181900360600190a150505050505050565b60006120c2612aca565b6001600160a01b039092166000908152600a9290920160205250604090205490565b6000868410806120f357508282105b1561210057506000610c30565b600061210a6111fb565b6001600160a01b038a166000908152600a9190910160205260409020549050801580159061213757508086105b15612146576000915050610c30565b606386111561216b57604051633505ce1b60e11b8152600481018790526024016108b7565b601385111561219057604051637d34ca9360e01b8152600481018690526024016108b7565b600061219d60058761528e565b9050675c33b801024d7e4a600060646121dc6121ba856063615072565b6121c5906001615085565b6121d790670de0b6b3a764000061528e565b6131bf565b6121e69084615072565b6121f091906152a5565b9050670de0b6b3a7640000811061221d57604051630dd7f01960e01b8152600481018290526024016108b7565b6000670de0b6b3a7640000612232838d61528e565b61223c91906152a5565b90508984101561227357612250848b615072565b61225b90600a615085565b61226690600261539d565b61227090826152a5565b90505b9c9b505050505050505050505050565b600080846001600160a01b031663016dff5d6040518163ffffffff1660e01b8152600401602060405180830381865afa1580156122c4573d6000803e3d6000fd5b505050506040513d601f19601f820116820180604052508101906122e8919061503f565b6001600160a01b0316631ebd249385856040518363ffffffff1660e01b81526004016123159291906151da565b602060405180830381865afa158015612332573d6000803e3d6000fd5b505050506040513d601f19601f8201168201806040525081019061235691906151f3565b9050612360612aca565b60010160006123796001600160a01b03871686856132a0565b815260208101919091526040016000205460ff1695945050505050565b60006123a0612aca565b6009015460ff16919050565b6123b4614071565b6123bc612aca565b61ffff83166000908152600d919091016020908152604091829020825160e081018452815460ff808216835261010090910416818401526001820180548551818602810186018752818152929593949386019383018282801561246a57602002820191906000526020600020906000905b82829054906101000a900463ffffffff1663ffffffff168152602001906004019060208260030104928301926001038202915080841161242d5790505b5050505050815260200160028201548152602001600382018054806020026020016040519081016040528092919081815260200182805480156124cc57602002820191906000526020600020905b8154815260200190600101908083116124b8575b505050505081526020016004820180548060200260200160405190810160405280929190818152602001828054801561252457602002820191906000526020600020905b815481526020019060010190808311612510575b50505050508152602001600582016040518060400160405290816000820180548060200260200160405190810160405280929190818152602001828054801561258c57602002820191906000526020600020905b815481526020019060010190808311612578575b5050505050815260200160018201805480602002602001604051908101604052809291908181526020016000905b828210156126525760008481526020908190208301805460408051828502810185019091528181529283018282801561263e57602002820191906000526020600020906000905b82829054906101000a900463ffffffff1663ffffffff16815260200190600401906020826003010492830192600103820291508084116126015790505b5050505050815260200190600101906125ba565b5050509152505090525092915050565b606061060361266f612aca565b600b0160006126876001600160a01b03871686612ad4565b8152602001908152602001600020546132d5565b6126a48761307e565b60006126ae612aca565b60208601515186515191925090811415806126ce57508560400151518114155b156126ec5760405163c81acf3360e01b815260040160405180910390fd5b60005b8181101561275957865180518290811061270b5761270b6150e3565b6020026020010151518760200151828151811061272a5761272a6150e3565b602002602001015151146127515760405163f001029b60e01b815260040160405180910390fd5b6001016126ef565b5061ffff88166000908152600d830160205260409020600983015460ff90811690891611156127945760098301805460ff191660ff8a161790555b805460ff8981166101000261ffff1990921690841617178155604087015180516127c8916001840191602090910190614155565b506127db87606001518860800151613134565b600282015560a087015180516127fb916003840191602090910190614204565b506004810160005b8860c001515181101561288f57816128748a60c00151838151811061282a5761282a6150e3565b60200260200101518b60e001518481518110612848576128486150e3565b60200260200101518c61010001518581518110612867576128676150e3565b602002602001015161334d565b81546001818101845560009384526020909320015501612803565b5060005b83811015612930578851805160058501916128c591849081106128b8576128b86150e3565b6020026020010151613388565b8154600181018355600092835260209283902001558901518051600685019190839081106128f5576128f56150e3565b602090810291909101810151825460018101845560009384529282902081516129279491909101929190910190614155565b50600101612893565b508415612a325760006129438888613134565b600081815260058701602052604090205490915061ffff161561297f576040516366e6550f60e01b815261ffff8c1660048201526024016108b7565b60008181526005860160205260409020805461ffff191661ffff8d169081179091556129af90600687019061319b565b156129d35760405163ce9c78df60e01b815261ffff8c1660048201526024016108b7565b6129e46006860161ffff8d16613407565b506040805161ffff8d16815260ff8a8116602083015289168183015290517fc27376e37bec2cd9acd6957a46ca5cba20a88a21fd0eff1b02cf8536462304769181900360600190a150612a5c565b8154610100900460ff1660009081526008850160205260409020612a5a9061ffff8c16613407565b505b7fa8932b9bd78638467b3e5c0f0ffa9c72761db9f7f605b8df2f7a899770d064ae8a89604051612a8d929190615463565b60405180910390a15050505050505050505050565b612aab84612c5e565b6000612ab68461185a565b9050612ac3818484612e0f565b5050505050565b60006107f86111fb565b60006001600160401b03821115612b0157604051633995b34160e01b8152600481018390526024016108b7565b5067ffffffffffffffff60a01b60a09190911b166001600160a01b039091161790565b612b2c613413565b612b4957604051631afcd79f60e31b815260040160405180910390fd5b565b6001600160a01b038116612b935760405162461bcd60e51b815260206004820152600f60248201526e2d32b9379031b7b73a3937b63632b960891b60448201526064016108b7565b612bc28161090860017f5165972ef41194f06c5007493031d0b927c20741adcb74403b954009fd2c3618615072565b612bf14261090860017f6f55f470bdc9cb5f04223fd822021061668e4dccb43e8727b295106dc9769c8b615072565b612c204361090860017f812a673dfca07956350df10f8a654925f561d7a0da09bdbe79e653939a14d9f1615072565b7f1a2dd071001ebf6e03174e3df5b305795a4ad5d41d8fdb9ba41dbbe236713426814243604051612c5393929190615112565b60405180910390a150565b8061086057604051636221cab960e01b815260040160405180910390fd5b82546001840154600160581b82046001600160a01b031691600160501b900460ff1615612cbc57604051636927c40b60e11b815260040160405180910390fd5b612cc88282868661342d565b612cd183613149565b6001600160a01b031663f16a306683836040518363ffffffff1660e01b8152600401612cfe9291906151da565b602060405180830381865afa158015612d1b573d6000803e3d6000fd5b505050506040513d601f19601f82011682018060405250810190612d3f9190615562565b612d6057818160405163033aace360e41b81526004016108b79291906151da565b84546001600160401b0316612d758383611bc2565b6001600160401b031614612d9c576040516337bcc65160e01b815260040160405180910390fd5b935093915050565b8254600160581b600160f81b03191683556000600184015560028301805464ffffffffff19169055612dd682826135ea565b6040516001600160401b03821681527f883aa0807cbcd64d238a9795b0433f37884de37e569aff04d512cb1df62c6e019060200161182c565b6000612e19612aca565b6001600160401b0383166000908152600e8201602090815260408083208054600160401b900461ffff168452600d85018352818420825160a081018452858152938401859052918301849052606083018490526080830193909352929350909190612e8387613676565b6001600160a01b03166040820152600283015463ffffffff1615612eba5760405163282404cd60e01b815260040160405180910390fd5b612ec5838789612c7c565b602083018190526001600160a01b03909116808352600285015460ff600160201b90910416606084018190526040840151612f0e93869388939291612f098e613149565b613696565b63ffffffff1660808201819052600003612f3b57604051638a874ec160e01b815260040160405180910390fd5b608081015160028401805463ffffffff191663ffffffff909216918217905560408083015183516020850151925163f2c6c6fb60e01b81526001600160a01b03918216600482015260248101939093526044830193909352600092169063f2c6c6fb906064016020604051808303816000875af1158015612fc0573d6000803e3d6000fd5b505050506040513d601f19601f82011682018060405250810190612fe491906150f9565b90507f7a40f4421a71ae931ce048b2171197c34a78510813f1d3f4202935dd9f105b1a8683600001518460200151856080015185876060015160405161306c969594939291906001600160401b039690961686526001600160a01b03949094166020860152604085019290925263ffffffff166060840152608083015260a082015260c00190565b60405180910390a15050505050505050565b604051631430d62960e21b81526001600160a01b038216906350c358a4906130aa903390600401614722565b602060405180830381865afa1580156130c7573d6000803e3d6000fd5b505050506040513d601f19601f820116820180604052508101906130eb9190615562565b610860573360405163451cea1760e11b81526004016108b79190614722565b6000610606825490565b600061060682600884600001516001600160a01b031663016dff5d613a91565b600060ff8316600883901b61ff001617610603565b600061060682600084600001516001600160a01b0316628e9691613a91565b60006106038383613b9d565b600061060682613bc7565b600080808061318e8686613bd2565b9097909650945050505050565b60008181526001830160205260408120541515610603565b60006106038383613bfd565b6000670de0b6b3a76400008210156131ed57604051637046c4a960e01b8152600481018390526024016108b7565b6000613209613204670de0b6b3a7640000856152a5565b613cf0565b9050600061321f82670de0b6b3a764000061528e565b905083821c670de0b6b3a764000081900361323c57509392505050565b6706f05b59d3b200005b801561329657670de0b6b3a764000061325f838061528e565b61326991906152a5565b9150671bc16d674ec80000821061328e576132848184615085565b9250600182901c91505b60011c613246565b5090949350505050565b60609290921b6001600160601b03191660209190911b6bffffffffffffffff00000000161760189190911b63ff000000161790565b6040805160208082526104208201909252606091600091908082016104008036833701905050905060005b60208110156133465761331481600861528e565b8460001c901c82828151811061332c5761332c6150e3565b60ff90921660209283029190910190910152600101613300565b5092915050565b67ffffffffffffffff60401b604083901b166001600160401b0384161760808261337857600061337b565b60015b60ff16901b179392505050565b805160009060208111156133b957604051633d71388b60e21b815260048101829052602060248201526044016108b7565b6000805b828110156133ff576133d081600861528e565b8582815181106133e2576133e26150e3565b602090810291909101015160ff16901b91909117906001016133bd565b509392505050565b60006106038383613dd3565b600061341d6110f2565b54600160401b900460ff16919050565b6040516331a9108f60e11b8152600481018490526001600160a01b038084169190861690636352211e90602401602060405180830381865afa158015613477573d6000803e3d6000fd5b505050506040513d601f19601f8201168201806040525081019061349b919061503f565b6001600160a01b0316146134c657838360405163547208b960e11b81526004016108b79291906151da565b6134cf81613114565b6001600160a01b0316631789b7b1856040518263ffffffff1660e01b81526004016134fa9190614722565b602060405180830381865afa158015613517573d6000803e3d6000fd5b505050506040513d601f19601f8201168201806040525081019061353b91906151f3565b60ff16600003613560578360405163adc7fced60e01b81526004016108b79190614722565b80600001516001600160a01b03166318d928316040518163ffffffff1660e01b8152600401602060405180830381865afa1580156135a2573d6000803e3d6000fd5b505050506040513d601f19601f820116820180604052508101906135c69190615562565b156135e457604051635e1633d360e11b815260040160405180910390fd5b50505050565b613618816001600160401b03166135ff612aca565b60ff851660009081526020919091526040902090613407565b613635576040516313e5d5f160e11b815260040160405180910390fd5b6040805160ff841681526001600160401b03831660208201527f3e9a7af2aeebce9d24ef707bdb61adf2708293e374a19f8e9c31f905c68b43c19101610974565b600061060682600584600001516001600160a01b03166389dd9f13613a91565b600786015460009060ff1686106136c3576040516315f7ec4560e21b8152600481018790526024016108b7565b8660080186815481106136d8576136d86150e3565b60009182526020822060088204015460079091166004026101000a900463ffffffff169150819003610c3057604051631a95890960e31b81526000906001600160a01b0384169063d4ac48489061373590889088906004016151da565b60a060405180830381865afa158015613752573d6000803e3d6000fd5b505050506040513d601f19601f82011682018060405250810190613776919061557f565b602081015181518b549293506137a09263ffffffff9283169290911690610100900460ff16613e22565b158015906137f157506137b1612aca565b8954600191909101906000906137db906001600160a01b038916908890610100900460ff166132a0565b815260208101919091526040016000205460ff16155b801561381e5750885461380d90610100900460ff166005615616565b60ff16816000015163ffffffff1610155b15613897578854610100900460ff166001036138405762138884915050610c30565b8854610100900460ff1660020361385d576222f238915050610c30565b8854610100900460ff1660030361387a57623234dc915050610c30565b8854610100900460ff166004036138975762417780915050610c30565b6040805160058b018054606060208202840181018552938301818152600094849284918401828280156138e957602002820191906000526020600020905b8154815260200190600101908083116138d5575b5050505050815260200160018201805480602002602001604051908101604052809291908181526020016000905b828210156139af5760008481526020908190208301805460408051828502810185019091528181529283018282801561399b57602002820191906000526020600020906000905b82829054906101000a900463ffffffff1663ffffffff168152602001906004019060208260030104928301926001038202915080841161395e5790505b505050505081526020019060010190613917565b50505050815250509050866001600160a01b0316636f383c0f6139ee83600001518b815181106139e1576139e16150e3565b6020026020010151613e78565b83602001518b81518110613a0457613a046150e3565b60200260200101518d60000160019054906101000a900460ff168a8a6040518663ffffffff1660e01b8152600401613a40959493929190615632565b6020604051808303816000875af1158015613a5f573d6000803e3d6000fd5b505050506040513d601f19601f82011682018060405250810190613a839190615681565b9a9950505050505050505050565b600080856020015185600e811115613aab57613aab61569e565b600f8110613abb57613abb6150e3565b602002015190506001600160a01b03811615613ad8579050610615565b83836040518163ffffffff1660e01b8152600401602060405180830381865afa158015613b09573d6000803e3d6000fd5b505050506040513d601f19601f82011682018060405250810190613b2d919061503f565b866020015186600e811115613b4457613b4461569e565b600f8110613b5457613b546150e3565b6001600160a01b039092166020928302919091015286015185600e811115613b7e57613b7e61569e565b600f8110613b8e57613b8e6150e3565b60200201519695505050505050565b6000826000018281548110613bb457613bb46150e3565b9060005260206000200154905092915050565b60006106068261310a565b60008080613be08585613168565b600081815260029690960160205260409095205494959350505050565b60008181526001830160205260408120548015613ce6576000613c21600183615072565b8554909150600090613c3590600190615072565b9050808214613c9a576000866000018281548110613c5557613c556150e3565b9060005260206000200154905080876000018481548110613c7857613c786150e3565b6000918252602080832090910192909255918252600188019052604090208390555b8554869080613cab57613cab6156b4565b600190038181906000526020600020016000905590558560010160008681526020019081526020016000206000905560019350505050610606565b6000915050610606565b6000600160801b8210613d1057608091821c91613d0d9082615085565b90505b600160401b8210613d2e57604091821c91613d2b9082615085565b90505b600160201b8210613d4c57602091821c91613d499082615085565b90505b620100008210613d6957601091821c91613d669082615085565b90505b6101008210613d8557600891821c91613d829082615085565b90505b60108210613da057600491821c91613d9d9082615085565b90505b60048210613dbb57600291821c91613db89082615085565b90505b60028210613dce57610606600182615085565b919050565b6000818152600183016020526040812054613e1a57508154600181810184556000848152602080822090930184905584548482528286019093526040902091909155610606565b506000610606565b6000806005613e3386866001613f6c565b613e3d91906152a5565b613e48906001615085565b9050828111613e585760006107bb565b613e628382615072565b613e6d90600a615085565b6107bb90600261539d565b60606000613e85836132d5565b90506000805b8251811015613ece57828181518110613ea657613ea66150e3565b602002602001015160ff1660000315613ece5781613ec381615275565b925050600101613e8b565b50806001600160401b03811115613ee757613ee76142d1565b604051908082528060200260200182016040528015613f10578160200160208202803683370190505b50925060005b81811015613f6457828181518110613f3057613f306150e3565b6020026020010151848281518110613f4a57613f4a6150e3565b60ff90921660209283029190910190910152600101613f16565b505050919050565b600080613f798585613fa2565b9050828015613f9257506002613f90826001615085565b115b15610615576107bb600282615072565b805b606381101561060657613fb8836001615085565b613fc182613fd5565b63ffffffff16101561060657600101613fa4565b600063ffffffff82161580613ff15750606363ffffffff831610155b15613ffe57506000919050565b670de0b6b3a76400006140386140158460636156ca565b6140209060026156e7565b6121d79063ffffffff16670de0b6b3a764000061528e565b61404a90675cfb2e807b1e0000615072565b61405d620186a063ffffffff861661528e565b614067919061528e565b61060691906152a5565b6040518060e00160405280600060ff168152602001600060ff168152602001606081526020016000801916815260200160608152602001606081526020016140cc604051806040016040528060608152602001606081525090565b905290565b604051806040016040528060006001600160a01b031681526020016140cc61423f565b508054600082556007016008900490600052602060002090810190610860919061425e565b5080546000825590600052602060002090810190610860919061425e565b50805460008255906000526020600020908101906108609190614273565b828054828255906000526020600020906007016008900481019282156141f45791602002820160005b838211156141c257835183826101000a81548163ffffffff021916908363ffffffff160217905550926020019260040160208160030104928301926001030261417e565b80156141f25782816101000a81549063ffffffff02191690556004016020816003010492830192600103026141c2565b505b5061420092915061425e565b5090565b8280548282559060005260206000209081019282156141f4579160200282015b828111156141f4578251825591602001919060010190614224565b604051806101e00160405280600f906020820280368337509192915050565b5b80821115614200576000815560010161425f565b8082111561420057600061428782826140f4565b50600101614273565b6001600160a01b038116811461086057600080fd5b600080604083850312156142b857600080fd5b82356142c381614290565b946020939093013593505050565b634e487b7160e01b600052604160045260246000fd5b60405161012081016001600160401b038111828210171561430a5761430a6142d1565b60405290565b604051601f8201601f191681016001600160401b0381118282101715614338576143386142d1565b604052919050565b600082601f83011261435157600080fd5b81356001600160401b0381111561436a5761436a6142d1565b61437d601f8201601f1916602001614310565b81815284602083860101111561439257600080fd5b816020850160208301376000918101602001919091529392505050565b600080600080608085870312156143c557600080fd5b84356143d081614290565b935060208501356143e081614290565b92506040850135915060608501356001600160401b0381111561440257600080fd5b61440e87828801614340565b91505092959194509250565b60006020828403121561442c57600080fd5b813561443781614290565b9392505050565b6001600160401b038116811461086057600080fd5b801515811461086057600080fd5b8035613dce81614453565b6000806040838503121561447f57600080fd5b823561448a8161443e565b9150602083013561449a81614453565b809150509250929050565b803561ffff81168114613dce57600080fd5b60ff8116811461086057600080fd5b8035613dce816144b7565b600080600080608085870312156144e757600080fd5b6144f0856144a5565b93506020850135614500816144b7565b9250604085013561451081614290565b9396929550929360600135925050565b6000806040838503121561453357600080fd5b823561453e8161443e565b915060208301356001600160401b0381111561455957600080fd5b61456585828601614340565b9150509250929050565b60006020828403121561458157600080fd5b81356144378161443e565b63ffffffff8116811461086057600080fd5b600080600080608085870312156145b457600080fd5b84356145bf8161458c565b935060208501356145cf81614290565b92506040850135915060608501356145e6816144b7565b939692955090935050565b60008060006060848603121561460657600080fd5b833561461181614290565b925060208401359150604084013561462881614290565b809150509250925092565b60006020828403121561464557600080fd5b5035919050565b600080600080600060a0868803121561466457600080fd5b853561466f81614290565b9450602086013561467f816144b7565b9350604086013561468f81614290565b94979396509394606081013594506080013592915050565b600080604083850312156146ba57600080fd5b50508035926020909101359150565b6000815180845260005b818110156146ef576020818501810151868301820152016146d3565b506000602082860101526020601f19601f83011685010191505092915050565b60208152600061060360208301846146c9565b6001600160a01b0391909116815260200190565b60008151808452602080850194506020840160005b838110156147705781516001600160a01b03168752958201959082019060010161474b565b509495945050505050565b60008151808452602080850194506020840160005b8381101561477057815187529582019590820190600101614790565b60008151808452602080850194506020840160005b8381101561477057815163ffffffff16875295820195908201906001016147c1565b61ffff8c1681528a151560208201526001600160a01b038a1660408201526060810189905263ffffffff88166080820152600061016060ff891660a08401528060c084015261483481840189614736565b905082810360e0840152614848818861477b565b905082810361010084015261485d818761477b565b60ff8616610120850152905082810361014084015261487c81856147ac565b9e9d5050505050505050505050505050565b6000806000606084860312156148a357600080fd5b6148ac846144a5565b925060208401356148bc816144b7565b91506040840135614628816144b7565b600080600080600080600060e0888a0312156148e757600080fd5b87356148f281614290565b965060208801359550604088013594506060880135614910816144b7565b93506080880135614920816144b7565b925060a0880135614930816144b7565b915060c0880135614940816144b7565b8091505092959891949750929550565b60008060006060848603121561496557600080fd5b83356149708161443e565b9250602084013561498081614290565b929592945050506040919091013590565b600080600080608085870312156149a757600080fd5b84356149b281614290565b966020860135965060408601359560600135945092505050565b6000602082840312156149de57600080fd5b610603826144a5565b60008282518085526020808601955060208260051b8401016020860160005b84811015614a3457601f19868403018952614a228383516147ac565b98840198925090830190600101614a06565b5090979650505050505050565b6000815160408452614a56604085018261477b565b9050602083015184820360208601526107bb82826149e7565b6020815260ff825116602082015260006020830151614a93604084018260ff169052565b50604083015160e06060840152614aae6101008401826147ac565b9050606084015160808401526080840151601f19808584030160a0860152614ad6838361477b565b925060a08601519150808584030160c0860152614af3838361477b565b925060c08601519150808584030160e0860152506107bb8282614a41565b60008151808452602080850194506020840160005b8381101561477057815160ff1687529582019590820190600101614b26565b6020815260006106036020830184614b11565b60006001600160401b03821115614b7157614b716142d1565b5060051b60200190565b600082601f830112614b8c57600080fd5b81356020614ba1614b9c83614b58565b614310565b828152600592831b8501820192828201919087851115614bc057600080fd5b8387015b85811015614a345780356001600160401b03811115614be35760008081fd5b8801603f81018a13614bf55760008081fd5b858101356040614c07614b9c83614b58565b82815291851b8301810191888101908d841115614c245760008081fd5b938201935b83851015614c4e5784359250614c3e836144b7565b8282529389019390890190614c29565b885250505093850193508401614bc4565b600082601f830112614c7057600080fd5b81356020614c80614b9c83614b58565b8083825260208201915060208460051b870101935086841115614ca257600080fd5b602086015b84811015614cc7578035614cba8161458c565b8352918301918301614ca7565b509695505050505050565b600082601f830112614ce357600080fd5b81356020614cf3614b9c83614b58565b82815260059290921b84018101918181019086841115614d1257600080fd5b8286015b84811015614cc75780356001600160401b03811115614d355760008081fd5b614d438986838b0101614c5f565b845250918301918301614d16565b600082601f830112614d6257600080fd5b81356020614d72614b9c83614b58565b8083825260208201915060208460051b870101935086841115614d9457600080fd5b602086015b84811015614cc75780358352918301918301614d99565b600082601f830112614dc157600080fd5b81356020614dd1614b9c83614b58565b8083825260208201915060208460051b870101935086841115614df357600080fd5b602086015b84811015614cc7578035614e0b8161443e565b8352918301918301614df8565b600082601f830112614e2957600080fd5b81356020614e39614b9c83614b58565b8083825260208201915060208460051b870101935086841115614e5b57600080fd5b602086015b84811015614cc7578035614e7381614453565b8352918301918301614e60565b60008060008060008060c08789031215614e9957600080fd5b614ea2876144a5565b95506020870135614eb2816144b7565b945060408701356001600160401b0380821115614ece57600080fd5b90880190610120828b031215614ee357600080fd5b614eeb6142e7565b823582811115614efa57600080fd5b614f068c828601614b7b565b825250602083013582811115614f1b57600080fd5b614f278c828601614cd2565b602083015250604083013582811115614f3f57600080fd5b614f4b8c828601614c5f565b604083015250614f5d606084016144c6565b6060820152614f6e608084016144c6565b608082015260a083013582811115614f8557600080fd5b614f918c828601614d51565b60a08301525060c083013582811115614fa957600080fd5b614fb58c828601614db0565b60c08301525060e083013582811115614fcd57600080fd5b614fd98c828601614db0565b60e0830152506101008084013583811115614ff357600080fd5b614fff8d828701614e18565b828401525050809650505050615017606088016144c6565b9250615025608088016144c6565b915061503360a08801614461565b90509295509295509295565b60006020828403121561505157600080fd5b815161443781614290565b634e487b7160e01b600052601160045260246000fd5b818103818111156106065761060661505c565b808201808211156106065761060661505c565b6000602082840312156150aa57600080fd5b81516144378161443e565b6000806000606084860312156150ca57600080fd5b8351925060208401519150604084015190509250925092565b634e487b7160e01b600052603260045260246000fd5b60006020828403121561510b57600080fd5b5051919050565b6001600160a01b039390931683526020830191909152604082015260600190565b8781528660208201526001600160401b0386166040820152600060018060a01b03808716606084015260e0608084015261517060e08401876146c9565b941660a08301525063ffffffff9190911660c09091015295945050505050565b600080600080608085870312156151a657600080fd5b84516151b181614453565b6020860151604087015191955093506151c98161458c565b60608601519092506145e681614453565b6001600160a01b03929092168252602082015260400190565b60006020828403121561520557600080fd5b8151614437816144b7565b634e487b7160e01b600052601260045260246000fd5b600060ff83168061523957615239615210565b8060ff84160491505092915050565b60ff81811683821601908111156106065761060661505c565b60008261527057615270615210565b500690565b6000600182016152875761528761505c565b5060010190565b80820281158282048414176106065761060661505c565b6000826152b4576152b4615210565b500490565b600181815b808511156152f45781600019048211156152da576152da61505c565b808516156152e757918102915b93841c93908002906152be565b509250929050565b60008261530b57506001610606565b8161531857506000610606565b816001811461532e576002811461533857615354565b6001915050610606565b60ff8411156153495761534961505c565b50506001821b610606565b5060208310610133831016604e8410600b8410161715615377575081810a610606565b61538183836152b9565b80600019048211156153955761539561505c565b029392505050565b600061060383836152fc565b60008282518085526020808601955060208260051b8401016020860160005b84811015614a3457601f198684030189526153e4838351614b11565b988401989250908301906001016153c8565b60008151808452602080850194506020840160005b838110156147705781516001600160401b03168752958201959082019060010161540b565b60008151808452602080850194506020840160005b83811015614770578151151587529582019590820190600101615445565b61ffff83168152604060208201526000825161012080604085015261548c6101608501836153a9565b91506020850151603f19808685030160608701526154aa84836149e7565b935060408701519150808685030160808701526154c784836147ac565b9350606087015191506154df60a087018360ff169052565b608087015160ff1660c087015260a0870151868503820160e08801529150615507848361477b565b935060c0870151915061010081878603018188015261552685846153f6565b945060e0880151925081878603018488015261554285846153f6565b945080880151935050808685030161014087015250506114ce8282615430565b60006020828403121561557457600080fd5b815161443781614453565b600060a0828403121561559157600080fd5b60405160a081018181106001600160401b03821117156155b3576155b36142d1565b60405282516155c18161458c565b815260208301516155d18161458c565b602082015260408301516155e48161458c565b604082015260608301516155f78161458c565b6060820152608083015161560a8161458c565b60808201529392505050565b60ff81811683821602908116908181146133465761334661505c565b60a08152600061564560a0830188614b11565b828103602084015261565781886147ac565b60ff96909616604084015250506001600160a01b0392909216606083015260809091015292915050565b60006020828403121561569357600080fd5b81516144378161458c565b634e487b7160e01b600052602160045260246000fd5b634e487b7160e01b600052603160045260246000fd5b63ffffffff8281168282160390808211156133465761334661505c565b63ffffffff8181168382160190808211156133465761334661505c56fe22573091f17911fb166032a3d9e0554aa73d31b7b7ddea4a4dd2995650af84bda26469706673582212206add5e1b9122d0164ff9d547463cf353763f3997eab433f184e9ec09d61cf30164736f6c63430008170033",
  "libraries": {
    "DungeonLib": "0x9ceDa5bC06a5b3a2416FAca9D37dcbe7410260cf",
    "DungeonFactoryLib": "0xEfa058adaC8A0D21724D73f9466e3AF0D1B9A358"
  },
  "devdoc": {
    "errors": {
      "InvalidInitialization()": [
        {
          "details": "The contract is already initialized."
        }
      ],
      "NotInitializing()": [
        {
          "details": "The contract is not initializing."
        }
      ]
    },
    "events": {
      "Initialized(uint64)": {
        "details": "Triggered when the contract has been initialized or reinitialized."
      }
    },
    "kind": "dev",
    "methods": {
      "created()": {
        "returns": {
          "_0": "Creation timestamp"
        }
      },
      "createdBlock()": {
        "returns": {
          "_0": "Creation block number"
        }
      },
      "emergencyExit(uint64)": {
        "details": "Governance can drop hero from dungeon in emergency case"
      },
      "exitForcibly(address,uint256,address)": {
        "details": "Implement logic of special consumable that allows a hero to exit current dungeon using the shelter"
      },
      "increaseRevision(address)": {
        "details": "Revision should be increased on each contract upgrade"
      },
      "isBiomeBoss(address,uint256)": {
        "details": "Easily get info should given hero fight with boss in the current biome or not."
      },
      "isController(address)": {
        "details": "Return true if given address is controller"
      },
      "onERC721Received(address,address,uint256,bytes)": {
        "details": "See {IERC721Receiver-onERC721Received}. Always returns `IERC721Receiver.onERC721Received.selector`."
      },
      "previousImplementation()": {
        "details": "Previous logic implementation"
      },
      "registerDungeonLogic(uint16,uint8,(uint8[][],uint32[][],uint32[],uint8,uint8,bytes32[],uint64[],uint64[],bool[]),uint8,uint8,bool)": {
        "params": {
          "biome": "Assume biome > 0",
          "isSpecific": "The dungeon is specific, so it shouldn't be registered in dungeonsLogicByBiome",
          "specReqBiome": "required biome",
          "specReqHeroClass": "required hero class"
        }
      },
      "revision()": {
        "details": "Contract upgrade counter"
      },
      "setMinLevelForTreasury(address,uint256)": {
        "details": "Set eligible hero level for treasury tokens"
      }
    },
    "version": 1
  },
  "userdoc": {
    "kind": "user",
    "methods": {
      "CONTROLLABLE_VERSION()": {
        "notice": "Version of the contract"
      },
      "VERSION()": {
        "notice": "Version of the contract"
      },
      "controller()": {
        "notice": "Return controller address saved in the contract slot"
      },
      "created()": {
        "notice": "Return creation timestamp"
      },
      "createdBlock()": {
        "notice": "Return creation block number"
      },
      "exitForcibly(address,uint256,address)": {
        "notice": "Hero exists current dungeon forcibly same as when dying but without loosing life chance"
      },
      "isGovernance(address)": {
        "notice": "Return true if given address is setup as governance in Controller"
      },
      "registerDungeonLogic(uint16,uint8,(uint8[][],uint32[][],uint32[],uint8,uint8,bytes32[],uint64[],uint64[],bool[]),uint8,uint8,bool)": {
        "notice": "Register ordinal or specific dungeon"
      }
    },
    "version": 1
  },
  "storageLayout": {
    "storage": [],
    "types": null
  }
}