{
  "address": "0x9E072173A6cC5A5b83ed819f4782584684102160",
  "abi": [
    {
      "inputs": [],
      "name": "AlreadyHaveReinforcement",
      "type": "error"
    },
    {
      "inputs": [],
      "name": "EquippedItemsExist",
      "type": "error"
    },
    {
      "inputs": [
        {
          "internalType": "address",
          "name": "sender",
          "type": "address"
        }
      ],
      "name": "ErrorForbidden",
      "type": "error"
    },
    {
      "inputs": [
        {
          "internalType": "address",
          "name": "heroToken",
          "type": "address"
        },
        {
          "internalType": "uint256",
          "name": "heroTokenId",
          "type": "uint256"
        }
      ],
      "name": "ErrorHeroIsDead",
      "type": "error"
    },
    {
      "inputs": [
        {
          "internalType": "address",
          "name": "heroToken",
          "type": "address"
        }
      ],
      "name": "ErrorHeroIsNotRegistered",
      "type": "error"
    },
    {
      "inputs": [],
      "name": "ErrorHeroNotInDungeon",
      "type": "error"
    },
    {
      "inputs": [
        {
          "internalType": "uint256",
          "name": "biome",
          "type": "uint256"
        }
      ],
      "name": "ErrorIncorrectBiome",
      "type": "error"
    },
    {
      "inputs": [
        {
          "internalType": "address",
          "name": "sender",
          "type": "address"
        }
      ],
      "name": "ErrorNotDeployer",
      "type": "error"
    },
    {
      "inputs": [
        {
          "internalType": "address",
          "name": "sender",
          "type": "address"
        }
      ],
      "name": "ErrorNotDungeonFactory",
      "type": "error"
    },
    {
      "inputs": [
        {
          "internalType": "address",
          "name": "sender",
          "type": "address"
        }
      ],
      "name": "ErrorNotItemController",
      "type": "error"
    },
    {
      "inputs": [
        {
          "internalType": "address",
          "name": "token",
          "type": "address"
        },
        {
          "internalType": "uint256",
          "name": "tokenId",
          "type": "uint256"
        }
      ],
      "name": "ErrorNotOwner",
      "type": "error"
    },
    {
      "inputs": [],
      "name": "ErrorPaused",
      "type": "error"
    },
    {
      "inputs": [],
      "name": "HeroInDungeon",
      "type": "error"
    },
    {
      "inputs": [],
      "name": "InvalidInitialization",
      "type": "error"
    },
    {
      "inputs": [],
      "name": "LengthsMismatch",
      "type": "error"
    },
    {
      "inputs": [
        {
          "internalType": "address",
          "name": "token",
          "type": "address"
        },
        {
          "internalType": "uint256",
          "name": "payTokenAmount",
          "type": "uint256"
        }
      ],
      "name": "NoPayToken",
      "type": "error"
    },
    {
      "inputs": [
        {
          "internalType": "address",
          "name": "sender",
          "type": "address"
        }
      ],
      "name": "NotEOA",
      "type": "error"
    },
    {
      "inputs": [],
      "name": "NotInitializing",
      "type": "error"
    },
    {
      "inputs": [
        {
          "internalType": "address",
          "name": "heroToken",
          "type": "address"
        },
        {
          "internalType": "uint256",
          "name": "heroId",
          "type": "uint256"
        }
      ],
      "name": "Staked",
      "type": "error"
    },
    {
      "inputs": [
        {
          "internalType": "uint256",
          "name": "biome",
          "type": "uint256"
        }
      ],
      "name": "TooHighBiome",
      "type": "error"
    },
    {
      "inputs": [
        {
          "internalType": "uint256",
          "name": "value",
          "type": "uint256"
        }
      ],
      "name": "TooHighValue",
      "type": "error"
    },
    {
      "inputs": [
        {
          "internalType": "uint256",
          "name": "tier",
          "type": "uint256"
        }
      ],
      "name": "WrongTier",
      "type": "error"
    },
    {
      "anonymous": false,
      "inputs": [
        {
          "indexed": false,
          "internalType": "address",
          "name": "hero",
          "type": "address"
        },
        {
          "indexed": false,
          "internalType": "uint256",
          "name": "heroId",
          "type": "uint256"
        },
        {
          "indexed": false,
          "internalType": "uint8",
          "name": "biome",
          "type": "uint8"
        }
      ],
      "name": "BiomeChanged",
      "type": "event"
    },
    {
      "anonymous": false,
      "inputs": [
        {
          "indexed": false,
          "internalType": "address",
          "name": "controller",
          "type": "address"
        },
        {
          "indexed": false,
          "internalType": "uint256",
          "name": "ts",
          "type": "uint256"
        },
        {
          "indexed": false,
          "internalType": "uint256",
          "name": "block",
          "type": "uint256"
        }
      ],
      "name": "ContractInitialized",
      "type": "event"
    },
    {
      "anonymous": false,
      "inputs": [
        {
          "indexed": false,
          "internalType": "address",
          "name": "hero",
          "type": "address"
        },
        {
          "indexed": false,
          "internalType": "uint256",
          "name": "heroId",
          "type": "uint256"
        },
        {
          "indexed": false,
          "internalType": "address",
          "name": "helpHeroToken",
          "type": "address"
        },
        {
          "indexed": false,
          "internalType": "uint256",
          "name": "helpHeroId",
          "type": "uint256"
        }
      ],
      "name": "GuildReinforcementAsked",
      "type": "event"
    },
    {
      "anonymous": false,
      "inputs": [
        {
          "indexed": false,
          "internalType": "address",
          "name": "hero",
          "type": "address"
        },
        {
          "indexed": false,
          "internalType": "uint256",
          "name": "heroId",
          "type": "uint256"
        },
        {
          "indexed": false,
          "internalType": "address",
          "name": "helperToken",
          "type": "address"
        },
        {
          "indexed": false,
          "internalType": "uint256",
          "name": "helperId",
          "type": "uint256"
        }
      ],
      "name": "GuildReinforcementReleased",
      "type": "event"
    },
    {
      "anonymous": false,
      "inputs": [
        {
          "indexed": false,
          "internalType": "address",
          "name": "hero",
          "type": "address"
        },
        {
          "indexed": false,
          "internalType": "uint8",
          "name": "heroClass",
          "type": "uint8"
        },
        {
          "indexed": false,
          "internalType": "address",
          "name": "payToken",
          "type": "address"
        },
        {
          "indexed": false,
          "internalType": "uint256",
          "name": "payAmount",
          "type": "uint256"
        }
      ],
      "name": "HeroRegistered",
      "type": "event"
    },
    {
      "anonymous": false,
      "inputs": [
        {
          "indexed": false,
          "internalType": "uint64",
          "name": "version",
          "type": "uint64"
        }
      ],
      "name": "Initialized",
      "type": "event"
    },
    {
      "anonymous": false,
      "inputs": [
        {
          "indexed": false,
          "internalType": "address",
          "name": "hero",
          "type": "address"
        },
        {
          "indexed": false,
          "internalType": "uint256",
          "name": "heroId",
          "type": "uint256"
        },
        {
          "indexed": false,
          "internalType": "address",
          "name": "killer",
          "type": "address"
        },
        {
          "indexed": false,
          "internalType": "bytes32[]",
          "name": "dropItems",
          "type": "bytes32[]"
        },
        {
          "indexed": false,
          "internalType": "uint256",
          "name": "dropTokenAmount",
          "type": "uint256"
        }
      ],
      "name": "Killed",
      "type": "event"
    },
    {
      "anonymous": false,
      "inputs": [
        {
          "indexed": false,
          "internalType": "address",
          "name": "hero",
          "type": "address"
        },
        {
          "indexed": false,
          "internalType": "uint256",
          "name": "heroId",
          "type": "uint256"
        },
        {
          "indexed": false,
          "internalType": "address",
          "name": "owner",
          "type": "address"
        },
        {
          "components": [
            {
              "internalType": "int32",
              "name": "strength",
              "type": "int32"
            },
            {
              "internalType": "int32",
              "name": "dexterity",
              "type": "int32"
            },
            {
              "internalType": "int32",
              "name": "vitality",
              "type": "int32"
            },
            {
              "internalType": "int32",
              "name": "energy",
              "type": "int32"
            }
          ],
          "indexed": false,
          "internalType": "struct IStatController.CoreAttributes",
          "name": "change",
          "type": "tuple"
        }
      ],
      "name": "LevelUp",
      "type": "event"
    },
    {
      "anonymous": false,
      "inputs": [
        {
          "indexed": false,
          "internalType": "address",
          "name": "hero",
          "type": "address"
        },
        {
          "indexed": false,
          "internalType": "uint256",
          "name": "heroId",
          "type": "uint256"
        },
        {
          "indexed": false,
          "internalType": "address",
          "name": "helpHeroToken",
          "type": "address"
        },
        {
          "indexed": false,
          "internalType": "uint256",
          "name": "helpHeroId",
          "type": "uint256"
        }
      ],
      "name": "ReinforcementAsked",
      "type": "event"
    },
    {
      "anonymous": false,
      "inputs": [
        {
          "indexed": false,
          "internalType": "address",
          "name": "hero",
          "type": "address"
        },
        {
          "indexed": false,
          "internalType": "uint256",
          "name": "heroId",
          "type": "uint256"
        },
        {
          "indexed": false,
          "internalType": "address",
          "name": "helperToken",
          "type": "address"
        },
        {
          "indexed": false,
          "internalType": "uint256",
          "name": "helperId",
          "type": "uint256"
        }
      ],
      "name": "ReinforcementReleased",
      "type": "event"
    },
    {
      "anonymous": false,
      "inputs": [
        {
          "indexed": false,
          "internalType": "uint256",
          "name": "value",
          "type": "uint256"
        },
        {
          "indexed": false,
          "internalType": "address",
          "name": "oldLogic",
          "type": "address"
        }
      ],
      "name": "RevisionIncreased",
      "type": "event"
    },
    {
      "anonymous": false,
      "inputs": [
        {
          "indexed": false,
          "internalType": "uint8",
          "name": "tier",
          "type": "uint8"
        },
        {
          "indexed": false,
          "internalType": "address",
          "name": "hero",
          "type": "address"
        },
        {
          "indexed": false,
          "internalType": "uint72",
          "name": "payAmount",
          "type": "uint72"
        },
        {
          "indexed": false,
          "internalType": "uint8[]",
          "name": "slots",
          "type": "uint8[]"
        },
        {
          "indexed": false,
          "internalType": "address[][]",
          "name": "items",
          "type": "address[][]"
        }
      ],
      "name": "TierSetup",
      "type": "event"
    },
    {
      "inputs": [],
      "name": "CONTROLLABLE_VERSION",
      "outputs": [
        {
          "internalType": "string",
          "name": "",
          "type": "string"
        }
      ],
      "stateMutability": "view",
      "type": "function"
    },
    {
      "inputs": [],
      "name": "VERSION",
      "outputs": [
        {
          "internalType": "string",
          "name": "",
          "type": "string"
        }
      ],
      "stateMutability": "view",
      "type": "function"
    },
    {
      "inputs": [
        {
          "internalType": "address",
          "name": "hero",
          "type": "address"
        },
        {
          "internalType": "uint256",
          "name": "heroId",
          "type": "uint256"
        },
        {
          "internalType": "address",
          "name": "helper",
          "type": "address"
        },
        {
          "internalType": "uint256",
          "name": "helperId",
          "type": "uint256"
        }
      ],
      "name": "askGuildReinforcement",
      "outputs": [],
      "stateMutability": "nonpayable",
      "type": "function"
    },
    {
      "inputs": [
        {
          "internalType": "address",
          "name": "hero",
          "type": "address"
        },
        {
          "internalType": "uint256",
          "name": "heroId",
          "type": "uint256"
        },
        {
          "internalType": "address",
          "name": "helper",
          "type": "address"
        },
        {
          "internalType": "uint256",
          "name": "helperId",
          "type": "uint256"
        }
      ],
      "name": "askReinforcement",
      "outputs": [],
      "stateMutability": "nonpayable",
      "type": "function"
    },
    {
      "inputs": [
        {
          "internalType": "address",
          "name": "hero",
          "type": "address"
        },
        {
          "internalType": "uint256",
          "name": "heroId",
          "type": "uint256"
        }
      ],
      "name": "beforeTokenTransfer",
      "outputs": [
        {
          "internalType": "bool",
          "name": "isAllowedToTransferOut",
          "type": "bool"
        }
      ],
      "stateMutability": "nonpayable",
      "type": "function"
    },
    {
      "inputs": [],
      "name": "controller",
      "outputs": [
        {
          "internalType": "address",
          "name": "",
          "type": "address"
        }
      ],
      "stateMutability": "view",
      "type": "function"
    },
    {
      "inputs": [
        {
          "internalType": "address",
          "name": "hero",
          "type": "address"
        },
        {
          "internalType": "uint256",
          "name": "heroId",
          "type": "uint256"
        }
      ],
      "name": "countHeroTransfers",
      "outputs": [
        {
          "internalType": "uint256",
          "name": "",
          "type": "uint256"
        }
      ],
      "stateMutability": "view",
      "type": "function"
    },
    {
      "inputs": [
        {
          "internalType": "address",
          "name": "hero",
          "type": "address"
        },
        {
          "internalType": "string",
          "name": "heroName_",
          "type": "string"
        },
        {
          "internalType": "bool",
          "name": "enter",
          "type": "bool"
        }
      ],
      "name": "create",
      "outputs": [
        {
          "internalType": "uint256",
          "name": "",
          "type": "uint256"
        }
      ],
      "stateMutability": "nonpayable",
      "type": "function"
    },
    {
      "inputs": [
        {
          "internalType": "address",
          "name": "hero",
          "type": "address"
        },
        {
          "components": [
            {
              "internalType": "uint8",
              "name": "ngLevel",
              "type": "uint8"
            },
            {
              "internalType": "uint8",
              "name": "tier",
              "type": "uint8"
            },
            {
              "internalType": "bool",
              "name": "enter",
              "type": "bool"
            },
            {
              "internalType": "string",
              "name": "heroName",
              "type": "string"
            },
            {
              "internalType": "address",
              "name": "targetUserAccount",
              "type": "address"
            },
            {
              "internalType": "string",
              "name": "refCode",
              "type": "string"
            }
          ],
          "internalType": "struct IHeroController.HeroCreationData",
          "name": "data",
          "type": "tuple"
        }
      ],
      "name": "createHero",
      "outputs": [
        {
          "internalType": "uint256",
          "name": "",
          "type": "uint256"
        }
      ],
      "stateMutability": "nonpayable",
      "type": "function"
    },
    {
      "inputs": [
        {
          "internalType": "address",
          "name": "hero",
          "type": "address"
        },
        {
          "internalType": "string",
          "name": "heroName_",
          "type": "string"
        },
        {
          "internalType": "string",
          "name": "refCode",
          "type": "string"
        },
        {
          "internalType": "bool",
          "name": "enter",
          "type": "bool"
        }
      ],
      "name": "createWithRefCode",
      "outputs": [
        {
          "internalType": "uint256",
          "name": "",
          "type": "uint256"
        }
      ],
      "stateMutability": "nonpayable",
      "type": "function"
    },
    {
      "inputs": [],
      "name": "created",
      "outputs": [
        {
          "internalType": "uint256",
          "name": "",
          "type": "uint256"
        }
      ],
      "stateMutability": "view",
      "type": "function"
    },
    {
      "inputs": [],
      "name": "createdBlock",
      "outputs": [
        {
          "internalType": "uint256",
          "name": "",
          "type": "uint256"
        }
      ],
      "stateMutability": "view",
      "type": "function"
    },
    {
      "inputs": [
        {
          "internalType": "address",
          "name": "hero",
          "type": "address"
        },
        {
          "internalType": "uint256",
          "name": "heroId",
          "type": "uint256"
        }
      ],
      "name": "getHeroInfo",
      "outputs": [
        {
          "components": [
            {
              "internalType": "uint8",
              "name": "tier",
              "type": "uint8"
            },
            {
              "internalType": "uint8",
              "name": "ngLevel",
              "type": "uint8"
            },
            {
              "internalType": "bool",
              "name": "rebornAllowed",
              "type": "bool"
            },
            {
              "internalType": "uint72",
              "name": "paidAmount",
              "type": "uint72"
            },
            {
              "internalType": "address",
              "name": "paidToken",
              "type": "address"
            }
          ],
          "internalType": "struct IHeroController.HeroInfo",
          "name": "data",
          "type": "tuple"
        }
      ],
      "stateMutability": "view",
      "type": "function"
    },
    {
      "inputs": [
        {
          "internalType": "uint8",
          "name": "tier",
          "type": "uint8"
        },
        {
          "internalType": "address",
          "name": "hero",
          "type": "address"
        }
      ],
      "name": "getTier",
      "outputs": [
        {
          "internalType": "uint256",
          "name": "payAmount",
          "type": "uint256"
        },
        {
          "internalType": "uint8[]",
          "name": "slots",
          "type": "uint8[]"
        },
        {
          "internalType": "address[][]",
          "name": "items",
          "type": "address[][]"
        }
      ],
      "stateMutability": "view",
      "type": "function"
    },
    {
      "inputs": [
        {
          "internalType": "address",
          "name": "hero",
          "type": "address"
        },
        {
          "internalType": "uint256",
          "name": "heroId",
          "type": "uint256"
        }
      ],
      "name": "heroBiome",
      "outputs": [
        {
          "internalType": "uint8",
          "name": "",
          "type": "uint8"
        }
      ],
      "stateMutability": "view",
      "type": "function"
    },
    {
      "inputs": [
        {
          "internalType": "address",
          "name": "hero",
          "type": "address"
        }
      ],
      "name": "heroClass",
      "outputs": [
        {
          "internalType": "uint8",
          "name": "",
          "type": "uint8"
        }
      ],
      "stateMutability": "view",
      "type": "function"
    },
    {
      "inputs": [
        {
          "internalType": "address",
          "name": "hero",
          "type": "address"
        },
        {
          "internalType": "uint256",
          "name": "heroId",
          "type": "uint256"
        }
      ],
      "name": "heroName",
      "outputs": [
        {
          "internalType": "string",
          "name": "",
          "type": "string"
        }
      ],
      "stateMutability": "view",
      "type": "function"
    },
    {
      "inputs": [
        {
          "internalType": "address",
          "name": "hero",
          "type": "address"
        },
        {
          "internalType": "uint256",
          "name": "heroId",
          "type": "uint256"
        }
      ],
      "name": "heroReinforcementHelp",
      "outputs": [
        {
          "internalType": "address",
          "name": "helperHeroToken",
          "type": "address"
        },
        {
          "internalType": "uint256",
          "name": "helperHeroId",
          "type": "uint256"
        }
      ],
      "stateMutability": "view",
      "type": "function"
    },
    {
      "inputs": [
        {
          "internalType": "address",
          "name": "oldLogic",
          "type": "address"
        }
      ],
      "name": "increaseRevision",
      "outputs": [],
      "stateMutability": "nonpayable",
      "type": "function"
    },
    {
      "inputs": [
        {
          "internalType": "address",
          "name": "controller_",
          "type": "address"
        }
      ],
      "name": "init",
      "outputs": [],
      "stateMutability": "nonpayable",
      "type": "function"
    },
    {
      "inputs": [
        {
          "internalType": "address",
          "name": "hero",
          "type": "address"
        },
        {
          "internalType": "uint256",
          "name": "heroId",
          "type": "uint256"
        }
      ],
      "name": "isAllowedToTransfer",
      "outputs": [
        {
          "internalType": "bool",
          "name": "",
          "type": "bool"
        }
      ],
      "stateMutability": "view",
      "type": "function"
    },
    {
      "inputs": [
        {
          "internalType": "address",
          "name": "value_",
          "type": "address"
        }
      ],
      "name": "isController",
      "outputs": [
        {
          "internalType": "bool",
          "name": "",
          "type": "bool"
        }
      ],
      "stateMutability": "view",
      "type": "function"
    },
    {
      "inputs": [
        {
          "internalType": "address",
          "name": "value_",
          "type": "address"
        }
      ],
      "name": "isGovernance",
      "outputs": [
        {
          "internalType": "bool",
          "name": "",
          "type": "bool"
        }
      ],
      "stateMutability": "view",
      "type": "function"
    },
    {
      "inputs": [
        {
          "internalType": "address",
          "name": "forwarder",
          "type": "address"
        }
      ],
      "name": "isTrustedForwarder",
      "outputs": [
        {
          "internalType": "bool",
          "name": "",
          "type": "bool"
        }
      ],
      "stateMutability": "view",
      "type": "function"
    },
    {
      "inputs": [
        {
          "internalType": "address",
          "name": "hero",
          "type": "address"
        },
        {
          "internalType": "uint256",
          "name": "heroId",
          "type": "uint256"
        }
      ],
      "name": "kill",
      "outputs": [
        {
          "internalType": "bytes32[]",
          "name": "dropItems",
          "type": "bytes32[]"
        }
      ],
      "stateMutability": "nonpayable",
      "type": "function"
    },
    {
      "inputs": [
        {
          "internalType": "address",
          "name": "hero",
          "type": "address"
        },
        {
          "internalType": "uint256",
          "name": "heroId",
          "type": "uint256"
        },
        {
          "internalType": "uint8",
          "name": "biome",
          "type": "uint8"
        },
        {
          "internalType": "uint8",
          "name": "ngLevel",
          "type": "uint8"
        }
      ],
      "name": "killedBosses",
      "outputs": [
        {
          "internalType": "uint256",
          "name": "",
          "type": "uint256"
        }
      ],
      "stateMutability": "view",
      "type": "function"
    },
    {
      "inputs": [
        {
          "internalType": "address",
          "name": "hero",
          "type": "address"
        },
        {
          "internalType": "uint256",
          "name": "heroId",
          "type": "uint256"
        },
        {
          "components": [
            {
              "internalType": "int32",
              "name": "strength",
              "type": "int32"
            },
            {
              "internalType": "int32",
              "name": "dexterity",
              "type": "int32"
            },
            {
              "internalType": "int32",
              "name": "vitality",
              "type": "int32"
            },
            {
              "internalType": "int32",
              "name": "energy",
              "type": "int32"
            }
          ],
          "internalType": "struct IStatController.CoreAttributes",
          "name": "change",
          "type": "tuple"
        }
      ],
      "name": "levelUp",
      "outputs": [],
      "stateMutability": "nonpayable",
      "type": "function"
    },
    {
      "inputs": [],
      "name": "maxOpenedNgLevel",
      "outputs": [
        {
          "internalType": "uint256",
          "name": "",
          "type": "uint256"
        }
      ],
      "stateMutability": "view",
      "type": "function"
    },
    {
      "inputs": [
        {
          "internalType": "address",
          "name": "user",
          "type": "address"
        }
      ],
      "name": "maxUserNgLevel",
      "outputs": [
        {
          "internalType": "uint256",
          "name": "",
          "type": "uint256"
        }
      ],
      "stateMutability": "view",
      "type": "function"
    },
    {
      "inputs": [
        {
          "internalType": "string",
          "name": "name",
          "type": "string"
        }
      ],
      "name": "nameToHero",
      "outputs": [
        {
          "internalType": "address",
          "name": "hero",
          "type": "address"
        },
        {
          "internalType": "uint256",
          "name": "heroId",
          "type": "uint256"
        }
      ],
      "stateMutability": "view",
      "type": "function"
    },
    {
      "inputs": [
        {
          "internalType": "address",
          "name": "hero",
          "type": "address"
        }
      ],
      "name": "payTokenInfo",
      "outputs": [
        {
          "internalType": "address",
          "name": "token",
          "type": "address"
        },
        {
          "internalType": "uint256",
          "name": "amount",
          "type": "uint256"
        }
      ],
      "stateMutability": "view",
      "type": "function"
    },
    {
      "inputs": [],
      "name": "previousImplementation",
      "outputs": [
        {
          "internalType": "address",
          "name": "",
          "type": "address"
        }
      ],
      "stateMutability": "view",
      "type": "function"
    },
    {
      "inputs": [
        {
          "internalType": "address",
          "name": "hero",
          "type": "address"
        },
        {
          "internalType": "uint256",
          "name": "heroId",
          "type": "uint256"
        }
      ],
      "name": "reborn",
      "outputs": [],
      "stateMutability": "nonpayable",
      "type": "function"
    },
    {
      "inputs": [
        {
          "internalType": "address",
          "name": "hero",
          "type": "address"
        },
        {
          "internalType": "uint8",
          "name": "heroClass_",
          "type": "uint8"
        },
        {
          "internalType": "address",
          "name": "payToken",
          "type": "address"
        },
        {
          "internalType": "uint256",
          "name": "payAmount",
          "type": "uint256"
        }
      ],
      "name": "registerHero",
      "outputs": [],
      "stateMutability": "nonpayable",
      "type": "function"
    },
    {
      "inputs": [
        {
          "internalType": "address",
          "name": "hero",
          "type": "address"
        },
        {
          "internalType": "uint256",
          "name": "heroId",
          "type": "uint256"
        },
        {
          "internalType": "uint32",
          "name": "bossObjectId",
          "type": "uint32"
        }
      ],
      "name": "registerKilledBoss",
      "outputs": [],
      "stateMutability": "nonpayable",
      "type": "function"
    },
    {
      "inputs": [
        {
          "internalType": "address",
          "name": "hero",
          "type": "address"
        },
        {
          "internalType": "uint256",
          "name": "heroId",
          "type": "uint256"
        }
      ],
      "name": "releaseReinforcement",
      "outputs": [
        {
          "internalType": "address",
          "name": "helperToken",
          "type": "address"
        },
        {
          "internalType": "uint256",
          "name": "helperId",
          "type": "uint256"
        }
      ],
      "stateMutability": "nonpayable",
      "type": "function"
    },
    {
      "inputs": [
        {
          "internalType": "address",
          "name": "hero",
          "type": "address"
        },
        {
          "internalType": "uint256",
          "name": "heroId",
          "type": "uint256"
        }
      ],
      "name": "resetLifeAndMana",
      "outputs": [],
      "stateMutability": "nonpayable",
      "type": "function"
    },
    {
      "inputs": [],
      "name": "revision",
      "outputs": [
        {
          "internalType": "uint256",
          "name": "",
          "type": "uint256"
        }
      ],
      "stateMutability": "view",
      "type": "function"
    },
    {
      "inputs": [
        {
          "internalType": "address",
          "name": "hero",
          "type": "address"
        },
        {
          "internalType": "uint256",
          "name": "heroId",
          "type": "uint256"
        }
      ],
      "name": "score",
      "outputs": [
        {
          "internalType": "uint256",
          "name": "",
          "type": "uint256"
        }
      ],
      "stateMutability": "view",
      "type": "function"
    },
    {
      "inputs": [
        {
          "internalType": "address",
          "name": "hero",
          "type": "address"
        },
        {
          "internalType": "uint256",
          "name": "heroId",
          "type": "uint256"
        },
        {
          "internalType": "uint8",
          "name": "biome",
          "type": "uint8"
        }
      ],
      "name": "setBiome",
      "outputs": [],
      "stateMutability": "nonpayable",
      "type": "function"
    },
    {
      "inputs": [
        {
          "internalType": "uint8",
          "name": "tier",
          "type": "uint8"
        },
        {
          "internalType": "address",
          "name": "hero",
          "type": "address"
        },
        {
          "internalType": "uint72",
          "name": "payAmount",
          "type": "uint72"
        },
        {
          "internalType": "uint8[]",
          "name": "slots",
          "type": "uint8[]"
        },
        {
          "internalType": "address[][]",
          "name": "items",
          "type": "address[][]"
        }
      ],
      "name": "setTier",
      "outputs": [],
      "stateMutability": "nonpayable",
      "type": "function"
    },
    {
      "inputs": [
        {
          "internalType": "address",
          "name": "hero",
          "type": "address"
        },
        {
          "internalType": "uint256",
          "name": "heroId",
          "type": "uint256"
        },
        {
          "internalType": "bool",
          "name": "decLifeChances",
          "type": "bool"
        },
        {
          "internalType": "bool",
          "name": "resetMana",
          "type": "bool"
        }
      ],
      "name": "softKill",
      "outputs": [
        {
          "internalType": "bytes32[]",
          "name": "dropItems",
          "type": "bytes32[]"
        }
      ],
      "stateMutability": "nonpayable",
      "type": "function"
    }
  ],
  "transactionHash": "0x06f925fb6b5d695e3591fd1c1da4295d3ab491ef722f059f308ffc1ae5bd2603",
  "args": [],
  "numDeployments": 36,
  "solcInputHash": "05d369a9a000244b16a46c28e04f97f8",
  "bytecode": "0x60806040523480156200001157600080fd5b507ff0c57e16840df040f15088dc2f81fe391c3923bec73e23a9662efc9c229c6a00805468010000000000000000810460ff1615906001600160401b03166000811580156200005d5750825b90506000826001600160401b031660011480156200007a5750303b155b90508115801562000089575080155b15620000a85760405163f92ee8a960e01b815260040160405180910390fd5b84546001600160401b03191660011785558315620000d757845460ff60401b1916680100000000000000001785555b83156200011e57845460ff60401b19168555604051600181527fc7f505b2f371ae2175ee4913f4499e1f2633a7b5936321eed1cdaeb6115181d29060200160405180910390a15b505050505061560680620001336000396000f3fe608060405234801561001057600080fd5b506004361061021e5760003560e01c80637cc9638011610126578063a13cf106116100b3578063a13cf106146104d0578063a2959fbe146104e3578063a433af6f146104f6578063b429afeb14610509578063bcd418b01461051c578063d360a9c114610588578063dee1f0e41461059b578063df13f489146105ae578063ec5316b5146105b6578063f77c4791146105c9578063ffa1ad74146105d157600080fd5b80637cc963801461040a5780637e57699814610412578063820ff82414610425578063865969881461043857806387a97d3f1461044b578063927078021461045e5780639325fac614610471578063936725ec1461048457806395f0d29a146104a85780639d0bcca0146104bb57600080fd5b80633b6d15c6116101af5780633b6d15c6146103295780634593144c1461033c578063498abc70146103445780634fac6ccd14610365578063542c7b4614610378578063572b6c0514610398578063602b419c146103ab578063608fa40d146103be57806362a62a9d146103d1578063649dab39146103e45780637401edba146103f757600080fd5b80631789b7b11461022357806319ab453c1461024d5780631cb3cd4f146102625780631dca7e30146102755780631e78fd71146102975780631ebd2493146102aa57806320b7c941146102bd57806327238f12146102d0578063286a93d8146102f3578063325a19f114610313575b600080fd5b610236610231366004614483565b6105f5565b60405160ff90911681526020015b60405180910390f35b61026061025b366004614483565b610606565b005b61026061027036600461451d565b610700565b6102886102833660046145ee565b610728565b604051610244939291906146ee565b6102606102a5366004614723565b610745565b6102366102b8366004614723565b610763565b6102606102cb36600461474f565b610776565b6102e36102de366004614723565b610790565b6040519015158152602001610244565b6103066103013660046147b9565b6107a4565b604051610244919061483d565b61031b6107cb565b604051908152602001610244565b61031b610337366004614891565b610804565b61031b6108ae565b610357610352366004614994565b6108de565b6040516102449291906149c8565b610260610373366004614483565b6108f3565b61038b610386366004614723565b610a04565b6040516102449190614a31565b6102e36103a6366004614483565b610a10565b6102606103b9366004614a44565b610a5e565b6102606103cc366004614a44565b610a82565b61031b6103df366004614483565b610a96565b6102e36103f2366004614723565b610aa1565b61031b610405366004614723565b610abd565b61031b610ad1565b61031b610420366004614a7c565b610aef565b61031b610433366004614ac4565b610afd565b610260610446366004614bbf565b610b8b565b610357610459366004614723565b610c34565b61030661046c366004614723565b610c5d565b61026061047f366004614c01565b610c79565b61038b604051806040016040528060058152602001640312e302e360dc1b81525081565b6103576104b6366004614723565b610c9c565b6104c3610ca9565b6040516102449190614c38565b6103576104de366004614483565b610cd9565b6102606104f1366004614d60565b610ce5565b610260610504366004614723565b610d01565b6102e3610517366004614483565b610d95565b61052f61052a366004614723565b610dba565b6040516102449190815160ff9081168252602080840151909116908201526040808301511515908201526060808301516001600160481b0316908201526080918201516001600160a01b03169181019190915260a00190565b61031b610596366004614e67565b610dcc565b6102e36105a9366004614483565b610e5e565b61031b610ee3565b61031b6105c4366004614723565b610eed565b6104c3610ef9565b61038b60405180604001604052806005815260200164312e302e3360d81b81525081565b600061060082610f29565b92915050565b6000610610610f58565b805490915060ff600160401b82041615906001600160401b03166000811580156106375750825b90506000826001600160401b031660011480156106535750303b155b905081158015610661575080155b1561067f5760405163f92ee8a960e01b815260040160405180910390fd5b845467ffffffffffffffff1916600117855583156106a957845460ff60401b1916600160401b1785555b6106b286610f7c565b83156106f857845460ff60401b19168555604051600181527fc7f505b2f371ae2175ee4913f4499e1f2633a7b5936321eed1cdaeb6115181d29060200160405180910390a15b505050505050565b61072361070b610f90565b610713610ef9565b61071b610fa8565b868686610fca565b505050565b60006060806107378585610fe0565b9250925092505b9250925092565b61075f610750610ef9565b610758610fa8565b84846111e4565b5050565b600061076f83836112be565b9392505050565b61078a610781610ef9565b858585856112fb565b50505050565b600061076f61079d610ef9565b8484611310565b60606107c26107b1610ef9565b6107b9610fa8565b87878787611325565b95945050505050565b60006107ff6107fb60017f6f55f470bdc9cb5f04223fd822021061668e4dccb43e8727b295106dc9769c8b614ed9565b5490565b905090565b60007385596740537F57825C80A2422fea97b974aDB315635758ba7c610828610f90565b610830610ef9565b610838610fa8565b8b8b8b8b8b8b6040518a63ffffffff1660e01b815260040161086299989796959493929190614f15565b602060405180830381865af415801561087f573d6000803e3d6000fd5b505050506040513d601f19601f820116820180604052508101906108a39190614f7e565b979650505050505050565b60006107ff6107fb60017f812a673dfca07956350df10f8a654925f561d7a0da09bdbe79e653939a14d9f1614ed9565b6000806108ea8361148a565b91509150915091565b3330146109455760405162461bcd60e51b815260206004820152601b60248201527a24b731b932b0b9b2903932bb34b9b4b7b7103337b93134b23232b760291b60448201526064015b60405180910390fd5b60006109636107fb60016000805160206155b1833981519152614ed9565b61096e906001614f97565b90506109908161098d60016000805160206155b1833981519152614ed9565b55565b6109bf8261098d60017fbfaaa2fb63266ff27c2da975f5894955056f50419af651a81f6c5060581857e4614ed9565b604080518281526001600160a01b03841660208201527ff27e2ef832a4eb8ed8ec553b875eecd44764cda95b1c24170e281539e0a869c8910160405180910390a15050565b606061076f83836114c1565b60006001600160a01b03821673d8253782c45a12053594b9deb72d8e8ab2fca54c148061060057506001600160a01b0382167352ceba41da235af367bfc0b0ccd3314cb901bb5f1492915050565b61078a610a69610f90565b610a71610ef9565b610a79610fa8565b87878787611582565b61078a610a8d610ef9565b85858585611599565b6000610600826115af565b600061076f610aae610ef9565b610ab6610fa8565b85856115de565b600061076f610aca610ef9565b848461166e565b60006107ff6107fb60016000805160206155b1833981519152614ed9565b60006107c2858585856117c5565b60007385596740537F57825C80A2422fea97b974aDB3156376e3ae2c610b21610ef9565b610b29610fa8565b86866040518563ffffffff1660e01b8152600401610b4a9493929190614faa565b602060405180830381865af4158015610b67573d6000803e3d6000fd5b505050506040513d601f19601f8201168201806040525081019061076f9190614f7e565b7385596740537F57825C80A2422fea97b974aDB31563607b2a50610bad610ef9565b610bb5610fa8565b6040516001600160e01b031960e085901b1681526001600160a01b039283166004820152908216602482015290861660448201526064810185905263ffffffff8416608482015260a40160006040518083038186803b158015610c1757600080fd5b505af4158015610c2b573d6000803e3d6000fd5b50505050505050565b600080610c51610c42610ef9565b610c4a610fa8565b8686611818565b915091505b9250929050565b606061076f610c6a610ef9565b610c72610fa8565b8585611c5d565b610723610c84610f90565b610c8c610ef9565b610c94610fa8565b868686611d14565b600080610c518484611d2a565b60006107ff6107fb60017fbfaaa2fb63266ff27c2da975f5894955056f50419af651a81f6c5060581857e4614ed9565b6000806108ea83611d68565b610cfa610cf0610ef9565b8686868686611d9c565b5050505050565b7385596740537F57825C80A2422fea97b974aDB31563460e635b610d23610ef9565b610d2b610fa8565b6040516001600160e01b031960e085901b1681526001600160a01b039283166004820152908216602482015290851660448201526064810184905260840160006040518083038186803b158015610d8157600080fd5b505af41580156106f8573d6000803e3d6000fd5b6000610d9f610ef9565b6001600160a01b0316826001600160a01b0316149050919050565b610dc261435d565b61076f8383611f96565b60007385596740537F57825C80A2422fea97b974aDB31563d789d548610df0610ef9565b610df8610fa8565b888888886040518763ffffffff1660e01b8152600401610e1d96959493929190615044565b602060405180830381865af4158015610e3a573d6000803e3d6000fd5b505050506040513d601f19601f820116820180604052508101906107c29190614f7e565b6000816001600160a01b0316610e72610ef9565b6001600160a01b0316635aa6e6756040518163ffffffff1660e01b8152600401602060405180830381865afa158015610eaf573d6000803e3d6000fd5b505050506040513d601f19601f82011682018060405250810190610ed3919061508e565b6001600160a01b03161492915050565b60006107ff61202b565b600061076f838361203e565b60006107ff6107fb60017f5165972ef41194f06c5007493031d0b927c20741adcb74403b954009fd2c3618614ed9565b6000610f3361206e565b6001600160a01b03909216600090815260029290920160205250604090205460ff1690565b7ff0c57e16840df040f15088dc2f81fe391c3923bec73e23a9662efc9c229c6a0090565b610f84612078565b610f8d8161209f565b50565b6000610f9b33610a10565b806107ff57505032331490565b6000610fb333610a10565b15610fc5575060131936013560601c90565b503390565b610fd3866121be565b6106f885858585856121de565b600060608060001960ff861601610ffe57610ffa84611d68565b9350505b60ff851660021480611013575060ff85166003145b1561073e57600061102261206e565b600901600061103188886124e3565b81526020019081526020016000209050806000015493506000611056826001016124fc565b9050806001600160401b03811115611070576110706144a0565b604051908082528060200260200182016040528015611099578160200160208202803683370190505b509350806001600160401b038111156110b4576110b46144a0565b6040519080825280602002602001820160405280156110e757816020015b60608152602001906001900390816110d25790505b50925060005b818110156111da576111026001840182612506565b858281518110611114576111146150ab565b602002602001019060ff16908160ff1681525050826003016000868381518110611140576111406150ab565b602002602001015160ff1660ff1681526020019081526020016000208054806020026020016040519081016040528092919081815260200182805480156111b057602002820191906000526020600020905b81546001600160a01b03168152600190910190602001808311611192575b50505050508482815181106111c7576111c76150ab565b60209081029190910101526001016110ed565b5050509250925092565b61124f846001600160a01b031663683fedf76040518163ffffffff1660e01b8152600401602060405180830381865afa158015611225573d6000803e3d6000fd5b505050506040513d601f19601f82011682018060405250810190611249919061508e565b84612512565b61078a846001600160a01b0316628e96916040518163ffffffff1660e01b8152600401602060405180830381865afa15801561128f573d6000803e3d6000fd5b505050506040513d601f19601f820116820180604052508101906112b3919061508e565b838360006001612546565b60006112c861206e565b60050160006112e06001600160a01b038616856126df565b815260208101919091526040016000205460ff169392505050565b6113048561272f565b610cfa848484846127bb565b600061131d84848461287c565b949350505050565b6060611392876001600160a01b031663683fedf76040518163ffffffff1660e01b8152600401602060405180830381865afa158015611368573d6000803e3d6000fd5b505050506040513d601f19601f8201168201806040525081019061138c919061508e565b87612512565b61139b856129f1565b6000876001600160a01b0316628e96916040518163ffffffff1660e01b8152600401602060405180830381865afa1580156113da573d6000803e3d6000fd5b505050506040513d601f19601f820116820180604052508101906113fe919061508e565b9050611470886001600160a01b03166331423c266040518163ffffffff1660e01b8152600401602060405180830381865afa158015611441573d6000803e3d6000fd5b505050506040513d601f19601f82011682018060405250810190611465919061508e565b8288888b6001612a3a565b915061147f8187878787612546565b509695505050505050565b6000806108ea61149861206e565b600401846040516114a991906150c1565b9081526020016040518091039020549060a082901c90565b60606114cb61206e565b60030160006114e36001600160a01b038616856126df565b815260200190815260200160002080546114fc906150dd565b80601f0160208091040260200160405190810160405280929190818152602001828054611528906150dd565b80156115755780601f1061154a57610100808354040283529160200191611575565b820191906000526020600020905b81548152906001019060200180831161155857829003601f168201915b5050505050905092915050565b61158b876121be565b610c2b868686868686612cb4565b6115a285612cce565b610cfa8585858585612d63565b60006115b9612d72565b6001600160a01b039092166000908152600b9290920160205250604090205460ff1690565b6000826001600160a01b0316846001600160a01b031614611614578360405163f652640360e01b815260040161093c9190614c38565b61161d836129f1565b61162885848461287c565b9050600161163461206e565b600801600061164386866126df565b815260200190815260200160002060008282546116609190614f97565b909155509095945050505050565b600080846001600160a01b0316628e96916040518163ffffffff1660e01b8152600401602060405180830381865afa1580156116ae573d6000803e3d6000fd5b505050506040513d601f19601f820116820180604052508101906116d2919061508e565b90506107c2816001600160a01b0316631f051fa086866040518363ffffffff1660e01b81526004016117059291906149c8565b600060405180830381865afa158015611722573d6000803e3d6000fd5b505050506040513d6000823e601f3d908101601f1916820160405261174a9190810190615117565b604051631a95890960e31b81526001600160a01b0384169063d4ac48489061177890899089906004016149c8565b60a060405180830381865afa158015611795573d6000803e3d6000fd5b505050506040513d601f19601f820116820180604052508101906117b991906151a5565b5163ffffffff16612d96565b60006117cf612d72565b600c0160006117de87876126df565b8152602081019190915260400160009081209060ff8516600885901b61ff0016178152602001908152602001600020549050949350505050565b600080611886866001600160a01b031663683fedf76040518163ffffffff1660e01b8152600401602060405180830381865afa15801561185c573d6000803e3d6000fd5b505050506040513d601f19601f82011682018060405250810190611880919061508e565b86612512565b61188f846129f1565b60006118a46001600160a01b038616856126df565b90506118cd6118b1612d72565b600083815260069190910160205260409020549060a082901c90565b90935091506001600160a01b03831615611c53576000876001600160a01b0316628e96916040518163ffffffff1660e01b8152600401602060405180830381865afa158015611920573d6000803e3d6000fd5b505050506040513d601f19601f82011682018060405250810190611944919061508e565b905060006119c6602b611955612d72565b60070160008681526020019081526020016000208054806020026020016040519081016040528092919081815260200182805480156119b357602002820191906000526020600020905b81548152602001906001019080831161199f575b5050505050612db990919063ffffffff16565b6040805160a0810182526001600160a01b038a81168252602082018a905281830184905260006060830181905260808301529151634ffa2edf60e11b815292935090841691639ff45dbe91611a1d91600401615270565b600060405180830381600087803b158015611a3757600080fd5b505af1158015611a4b573d6000803e3d6000fd5b50505050611a57612d72565b60008481526006919091016020526040812055611a72612d72565b600084815260079190910160205260408120611a8d9161438b565b6000896001600160a01b0316632f91ede96040518163ffffffff1660e01b8152600401602060405180830381865afa158015611acd573d6000803e3d6000fd5b505050506040513d601f19601f82011682018060405250810190611af1919061508e565b90506000816001600160a01b03166332aa45c888886040518363ffffffff1660e01b8152600401611b239291906149c8565b602060405180830381865afa158015611b40573d6000803e3d6000fd5b505050506040513d601f19601f82011682018060405250810190611b649190614f7e565b905080600003611bb0577fd706d04d97d13bf3638215af61921215fca49e37cf4c1d91a2a07d1c7382787689898989604051611ba394939291906152cc565b60405180910390a1611c4e565b604051630c1b5d1360e41b81526001600160a01b0383169063c1b5d13090611bde908a908a906004016149c8565b600060405180830381600087803b158015611bf857600080fd5b505af1158015611c0c573d6000803e3d6000fd5b505050507fe2a65884b136f54e31ab4bf0d7c084a299e4b5a0bebacd4492b264748ec9a2fb89898989604051611c4594939291906152cc565b60405180910390a15b505050505b5094509492505050565b6060611c6f8585858560016000611325565b604051630852cd8d60e31b8152600481018490529091506001600160a01b038416906342966c6890602401600060405180830381600087803b158015611cb457600080fd5b505af1158015611cc8573d6000803e3d6000fd5b505050507f0a5a92d625a671065fa01b9e0e054b6a6844f5a7bee65a8502d60d3a6a601d46838386846000604051611d049594939291906152f6565b60405180910390a1949350505050565b611d1d866121be565b6106f88585858585612e89565b600080610c51611d3861206e565b6006016000611d506001600160a01b038816876126df565b8152602001908152602001600020549060a082901c90565b6000806108ea611d7661206e565b6001600160a01b038516600090815260019190910160205260409020549060a082901c90565b611da58661272f565b60ff8516600214801590611dbd575060ff8516600314155b15611de05760405163021610a960e61b815260ff8616600482015260240161093c565b6000611dea61206e565b6009016000611df988886124e3565b815260200190815260200160002090506000611e17826001016124fc565b90508015611e745760005b81811015611e72576000611e396001850182612506565b9050611e4b6001850160ff8316613084565b5060ff811660009081526003850160205260408120611e699161438b565b50600101611e22565b505b835183518114611e975760405163586cb9e160e01b815260040160405180910390fd5b6001600160481b038616835560005b81811015611f4b57611ee0868281518110611ec357611ec36150ab565b602002602001015160ff168560010161309090919063ffffffff16565b50848181518110611ef357611ef36150ab565b6020026020010151846003016000888481518110611f1357611f136150ab565b602002602001015160ff1660ff1681526020019081526020016000209080519060200190611f429291906143a9565b50600101611ea6565b507f175a187d26dec8ccd1362d67962fabe3a584231ec4f929b3516ef6e3389a30198888888888604051611f8395949392919061533b565b60405180910390a1505050505050505050565b611f9e61435d565b611fa6612d72565b600a016000611fb585856126df565b81526020808201929092526040908101600020815160a081018352905460ff80821683526101008204811694830194909452620100008104909316151591810191909152630100000082046001600160481b03166060820152600160601b9091046001600160a01b031660808201529392505050565b6000612035612d72565b600d0154905090565b600061204861206e565b600801600061205785856126df565b815260200190815260200160002054905092915050565b60006107ff612d72565b61208061309c565b61209d57604051631afcd79f60e31b815260040160405180910390fd5b565b6001600160a01b0381166120e75760405162461bcd60e51b815260206004820152600f60248201526e2d32b9379031b7b73a3937b63632b960891b604482015260640161093c565b6121168161098d60017f5165972ef41194f06c5007493031d0b927c20741adcb74403b954009fd2c3618614ed9565b6121454261098d60017f6f55f470bdc9cb5f04223fd822021061668e4dccb43e8727b295106dc9769c8b614ed9565b6121744361098d60017f812a673dfca07956350df10f8a654925f561d7a0da09bdbe79e653939a14d9f1614ed9565b604080516001600160a01b0383168152426020820152438183015290517f1a2dd071001ebf6e03174e3df5b305795a4ad5d41d8fdb9ba41dbbe2367134269181900360600190a150565b80610f8d57336040516377817ac360e01b815260040161093c9190614c38565b6121e98383866130b6565b6121f3858461314f565b6121fe8584846131d8565b5050600061220c8484611f96565b90506000866001600160a01b0316628e96916040518163ffffffff1660e01b8152600401602060405180830381865afa15801561224d573d6000803e3d6000fd5b505050506040513d601f19601f82011682018060405250810190612271919061508e565b90506000816001600160a01b031663af6a5722878761228e612d72565b6001600160a01b038b1660009081526002919091016020526040908190205490516001600160e01b031960e086901b1681526122d493929160ff16908a906004016153bb565b6020604051808303816000875af11580156122f3573d6000803e3d6000fd5b505050506040513d601f19601f820116820180604052508101906123179190614f7e565b60808401519091506001600160a01b031661249c576000886001600160a01b031663c3dfdae66040518163ffffffff1660e01b8152600401602060405180830381865afa15801561236c573d6000803e3d6000fd5b505050506040513d601f19601f82011682018060405250810190612390919061508e565b90506000806123c66123a0612d72565b6001600160a01b038b16600090815260019190910160205260409020549060a082901c90565b90925090506001600160a01b0382166123f65781816040516333f7df9760e11b815260040161093c9291906149c8565b826001600160a01b0316826001600160a01b03161461241d5750819050678ac7230489e800005b600061242985836153e8565b604051631e478ddf60e11b81526001600160a01b038581166004830152602482018390528d81166044830152919250908d1690633c8f1bbe90606401600060405180830381600087803b15801561247f57600080fd5b505af1158015612493573d6000803e3d6000fd5b50505050505050505b7f670be388881e5c89a1832bbcb766dd58a782cafce815af1dbeda4188c1c34fb2868689876040516124d194939291906153ff565b60405180910390a15050505050505050565b610100600160a81b0360089190911b1660ff9091161790565b6000610600825490565b600061076f8383613350565b806001600160a01b0316826001600160a01b03161461075f578060405163cf219bef60e01b815260040161093c9190614c38565b604051631a95890960e31b81526000906001600160a01b0387169063d4ac48489061257790889088906004016149c8565b60a060405180830381865afa158015612594573d6000803e3d6000fd5b505050506040513d601f19601f820116820180604052508101906125b891906151a5565b9050856001600160a01b031663afb1a9ed86866040518060a00160405280600063ffffffff168152602001600063ffffffff168152602001866040015163ffffffff1681526020018761260c576000612612565b86606001515b63ffffffff1681526020018861262957600061262c565b60015b60ff1690526040805160e086901b6001600160e01b03191681526001600160a01b0390941660048501526024840192909252805163ffffffff908116604485015260208201518116606485015291810151821660848401526060810151821660a4840152608001511660c4820152600060e482015261010401600060405180830381600087803b1580156126bf57600080fd5b505af11580156126d3573d6000803e3d6000fd5b50505050505050505050565b60006001600160401b0382111561270c57604051633995b34160e01b81526004810183905260240161093c565b5067ffffffffffffffff60a01b60a09190911b166001600160a01b039091161790565b604051631430d62960e21b81526001600160a01b038216906350c358a49061275b903390600401614c38565b602060405180830381865afa158015612778573d6000803e3d6000fd5b505050506040513d601f19601f8201168201806040525081019061279c919061542b565b610f8d573360405163451cea1760e11b815260040161093c9190614c38565b826127c4612d72565b6001600160a01b0386811660009081526002929092016020526040909120805460ff191660ff93909316929092179091556128019083168261337a565b612809612d72565b6001600160a01b038681166000818152600193909301602090815260409384902094909455825190815260ff87169381019390935284168282015260608201839052517fc0155de360d47eaeaff9d27e2fb3819908a9025a3d325cd79d229592ead8df009181900360800190a150505050565b60006128ea846001600160a01b031663683fedf76040518163ffffffff1660e01b8152600401602060405180830381865afa1580156128bf573d6000803e3d6000fd5b505050506040513d601f19601f820116820180604052508101906128e3919061508e565b84846133c7565b836001600160a01b0316628e96916040518163ffffffff1660e01b8152600401602060405180830381865afa158015612927573d6000803e3d6000fd5b505050506040513d601f19601f8201168201806040525081019061294b919061508e565b6001600160a01b031663fbed9ac584846040518363ffffffff1660e01b81526004016129789291906149c8565b600060405180830381865afa158015612995573d6000803e3d6000fd5b505050506040513d6000823e601f3d908101601f191682016040526129bd9190810190615448565b51156129dc576040516303a684c160e51b815260040160405180910390fd5b6129e784848461345c565b5060019392505050565b6129f9612d72565b6001600160a01b0382166000908152600291909101602052604081205460ff169003610f8d578060405163adc7fced60e01b815260040161093c9190614c38565b60606000866001600160a01b031663fbed9ac587876040518363ffffffff1660e01b8152600401612a6c9291906149c8565b600060405180830381865afa158015612a89573d6000803e3d6000fd5b505050506040513d6000823e601f3d908101601f19168201604052612ab19190810190615448565b8051909150806001600160401b03811115612ace57612ace6144a0565b604051908082528060200260200182016040528015612af7578160200160208202803683370190505b50925060005b81811015612ca7576000896001600160a01b0316633bdb788b8a8a878681518110612b2a57612b2a6150ab565b60209081029190910101516040516001600160e01b031960e086901b1681526001600160a01b0390931660048401526001600160401b03909116602483015260ff166044820152606401602060405180830381865afa158015612b91573d6000803e3d6000fd5b505050506040513d601f19601f82011682018060405250810190612bb59190614f7e565b90506000808260a081901c915091508c6001600160a01b0316631af6585983838e8e8b8a81518110612be957612be96150ab565b60209081029190910101516040516001600160e01b031960e088901b1681526001600160a01b03958616600482015260248101949094529184166044840152606483015260ff166084820152908c1660a48201528a151560c482015260e401600060405180830381600087803b158015612c6257600080fd5b505af1158015612c76573d6000803e3d6000fd5b5050505082878581518110612c8d57612c8d6150ab565b602002602001018181525050505050806001019050612afd565b5050509695505050505050565b612cbf8484876130b6565b6106f88685856000868661354e565b336001600160a01b0316816001600160a01b03166331423c266040518163ffffffff1660e01b8152600401602060405180830381865afa158015612d16573d6000803e3d6000fd5b505050506040513d601f19601f82011682018060405250810190612d3a919061508e565b6001600160a01b031614610f8d573360405163f6b9c4d960e01b815260040161093c9190614c38565b610cfa8585856001868661354e565b7fd333325b749986e76669f0e0c2c1aa0e0abd19e216c3678477196e408924140090565b6000612da46103e8836153e8565b612daf846001613a3c565b61076f9190614f97565b60606000826001600160401b03811115612dd557612dd56144a0565b604051908082528060200260200182016040528015612dfe578160200160208202803683370190505b50905060005b8451811015612e815760005b6008811015612e7857600081612e278460086153e8565b612e319190614f97565b9050858110612e405750612e78565b612e4a8782613fcc565b848281518110612e5c57612e5c6150ab565b60039290920b6020928302919091019091015250600101612e10565b50600101612e04565b509392505050565b612e948383866130b6565b612e9e858461314f565b6000612eab8685856131d8565b50905060ff82161580612f245750806001600160a01b031663b2192fdd6040518163ffffffff1660e01b8152600401602060405180830381865afa158015612ef7573d6000803e3d6000fd5b505050506040513d601f19601f82011682018060405250810190612f1b91906154d6565b60ff168260ff16115b15612f4757604051637d34ca9360e01b815260ff8316600482015260240161093c565b604051630718609f60e11b81526000906001600160a01b03831690630e30c13e90612f7890889088906004016149c8565b602060405180830381865afa158015612f95573d6000803e3d6000fd5b505050506040513d601f19601f82011682018060405250810190612fb991906154d6565b9050612fc68160016154f3565b60ff168360ff161115612ff15760405163c312099f60e01b815260ff8416600482015260240161093c565b82612ffa612d72565b60050160006130126001600160a01b038916886126df565b81526020808201929092526040908101600020805460ff191660ff94851617905580516001600160a01b03891681529182018790529185168183015290517f548528b5eab74a6b2c96d3ea6fb246d4bafc50e211c3973b47ec10ad0effe46f916060908290030190a150505050505050565b600061076f8383614030565b600061076f8383614123565b60006130a6610f58565b54600160401b900460ff16919050565b6040516331a9108f60e11b8152600481018390526001600160a01b038083169190851690636352211e90602401602060405180830381865afa158015613100573d6000803e3d6000fd5b505050506040513d601f19601f82011682018060405250810190613124919061508e565b6001600160a01b03161461072357828260405163547208b960e11b815260040161093c9291906149c8565b613158816129f1565b816001600160a01b03166318d928316040518163ffffffff1660e01b8152600401602060405180830381865afa158015613196573d6000803e3d6000fd5b505050506040513d601f19601f820116820180604052508101906131ba919061542b565b1561075f57604051635e1633d360e11b815260040160405180910390fd5b600080846001600160a01b031663683fedf76040518163ffffffff1660e01b8152600401602060405180830381865afa158015613219573d6000803e3d6000fd5b505050506040513d601f19601f8201168201806040525081019061323d919061508e565b9150846001600160a01b0316628e96916040518163ffffffff1660e01b8152600401602060405180830381865afa15801561327c573d6000803e3d6000fd5b505050506040513d601f19601f820116820180604052508101906132a0919061508e565b90506132ad8285856133c7565b6132b885858561345c565b6040516378b5183360e11b81526001600160a01b0382169063f16a3066906132e690879087906004016149c8565b602060405180830381865afa158015613303573d6000803e3d6000fd5b505050506040513d601f19601f82011682018060405250810190613327919061542b565b61334857838360405163033aace360e41b815260040161093c9291906149c8565b935093915050565b6000826000018281548110613367576133676150ab565b9060005260206000200154905092915050565b60006001600160601b038211156133a757604051633995b34160e01b81526004810183905260240161093c565b506001600160a01b031960a09190911b166001600160a01b039091161790565b604051634d320f0160e11b81526001600160a01b03841690639a641e02906133f590859085906004016149c8565b602060405180830381865afa158015613412573d6000803e3d6000fd5b505050506040513d601f19601f82011682018060405250810190613436919061550c565b6001600160401b0316156107235760405162dc1c0b60e01b815260040160405180910390fd5b826001600160a01b0316632f91ede96040518163ffffffff1660e01b8152600401602060405180830381865afa15801561349a573d6000803e3d6000fd5b505050506040513d601f19601f820116820180604052508101906134be919061508e565b6001600160a01b0316635451da1b83836040518363ffffffff1660e01b81526004016134eb9291906149c8565b602060405180830381865afa158015613508573d6000803e3d6000fd5b505050506040513d601f19601f8201168201806040525081019061352c919061542b565b15610723578181604051634f38de4760e11b815260040161093c9291906149c8565b613558868661314f565b6135c4866001600160a01b031663683fedf76040518163ffffffff1660e01b8152600401602060405180830381865afa158015613599573d6000803e3d6000fd5b505050506040513d601f19601f820116820180604052508101906135bd919061508e565b8686614172565b60006135d96001600160a01b038716866126df565b905060006135e5612d72565b600083815260069190910160205260409020541461361657604051631c93a6e960e31b815260040160405180910390fd5b6000876001600160a01b0316628e96916040518163ffffffff1660e01b8152600401602060405180830381865afa158015613655573d6000803e3d6000fd5b505050506040513d601f19601f82011682018060405250810190613679919061508e565b90506000886001600160a01b0316632f91ede96040518163ffffffff1660e01b8152600401602060405180830381865afa1580156136bb573d6000803e3d6000fd5b505050506040513d601f19601f820116820180604052508101906136df919061508e565b9050606086613766576040516334622f6560e11b81526001600160a01b038316906368c45eca9061371a908c908c908b908b906004016152cc565b6000604051808303816000875af1158015613739573d6000803e3d6000fd5b505050506040513d6000823e601f3d908101601f191682016040526137619190810190615117565b6137df565b60405163600c667360e01b81526001600160a01b0383169063600c667390613798908c908c908b908b906004016152cc565b6000604051808303816000875af11580156137b7573d6000803e3d6000fd5b505050506040513d6000823e601f3d908101601f191682016040526137df9190810190615117565b90506000836001600160a01b0316631f051fa08b8b6040518363ffffffff1660e01b81526004016138119291906149c8565b600060405180830381865afa15801561382e573d6000803e3d6000fd5b505050506040513d6000823e601f3d908101601f191682016040526138569190810190615117565b6040805160a0810182526001600160a01b038d81168252602082018d905281830186905260016060830152600060808301529151634ffa2edf60e11b815292935090861691639ff45dbe916138ad91600401615270565b600060405180830381600087803b1580156138c757600080fd5b505af11580156138db573d6000803e3d6000fd5b506138f3925050506001600160a01b038816876126df565b6138fb612d72565b600087815260069190910160205260409020556139178261420a565b61391f612d72565b6007016000878152602001908152602001600020908051906020019061394692919061440e565b50604051632e80ad4d60e11b81526001600160a01b03851690635d015a9a90613977908d908d908690600401615535565b600060405180830381600087803b15801561399157600080fd5b505af11580156139a5573d6000803e3d6000fd5b5050505087156139f1577f6f8146918e4a56c3c0afd937ecf5aed94c8c1b4310cdc01a6b8950aed083f3458a8a89896040516139e494939291906152cc565b60405180910390a1613a2f565b7fb03aa2b3e79085a007537123a0d347753f0349d22e18c9bd6b8d44d7bbbe2d238a8a8989604051613a2694939291906152cc565b60405180910390a15b5050505050505050505050565b600080600a613a7b613a6b8660045b81518110613a5b57613a5b6150ab565b602002602001015160030b614313565b613a76876005613a4b565b614342565b613a8591906153e8565b6101f4613a93866008613a4b565b613a9d91906153e8565b600a613aaa876007613a4b565b613ab491906153e8565b6003613ac1886006613a4b565b613acb91906153e8565b6064613ad8896003613a4b565b613ae291906153e8565b6064613aef8a6002613a4b565b613af991906153e8565b6064613b068b6001613a4b565b613b1091906153e8565b6064613b1d8c6000613a4b565b613b2791906153e8565b613b319190614f97565b613b3b9190614f97565b613b459190614f97565b613b4f9190614f97565b613b599190614f97565b613b639190614f97565b613b6d9190614f97565b613b779082614f97565b90506064613b8685600d613a4b565b613b9091906153e8565b6064613b9d86600c613a4b565b613ba791906153e8565b6064613bb487600b613a4b565b613bbe91906153e8565b613bc89190614f97565b613bd29190614f97565b613bdc9082614f97565b90508261076f57600a613bef8582613a4b565b613bf991906153e8565b600a613c06866009613a4b565b613c1091906153e8565b613c1a9190614f97565b613c249082614f97565b90506014613c33856015613a4b565b613c3d91906153e8565b6014613c498682613a4b565b613c5391906153e8565b6014613c60876013613a4b565b613c6a91906153e8565b6014613c77886012613a4b565b613c8191906153e8565b6014613c8e896011613a4b565b613c9891906153e8565b6014613ca58a6010613a4b565b613caf91906153e8565b6014613cbc8b600f613a4b565b613cc691906153e8565b6014613cd38c600e613a4b565b613cdd91906153e8565b613ce79190614f97565b613cf19190614f97565b613cfb9190614f97565b613d059190614f97565b613d0f9190614f97565b613d199190614f97565b613d239190614f97565b613d2d9082614f97565b90506064613d3c856029613a4b565b613d4691906153e8565b6064613d53866026613a4b565b613d5d91906153e8565b6064613d6a876025613a4b565b613d7491906153e8565b6064613d81886024613a4b565b613d8b91906153e8565b6064613d98896023613a4b565b613da291906153e8565b6064613daf8a6022613a4b565b613db991906153e8565b613dc39190614f97565b613dcd9190614f97565b613dd79190614f97565b613de19190614f97565b613deb9190614f97565b613df59082614f97565b905060c8613e0485601d613a4b565b613e0e91906153e8565b60c8613e1b86601c613a4b565b613e2591906153e8565b60c8613e3287601b613a4b565b613e3c91906153e8565b60c8613e4988601a613a4b565b613e5391906153e8565b6096613e60896019613a4b565b613e6a91906153e8565b61012c613e788a6017613a4b565b613e8291906153e8565b612710613e908b6016613a4b565b613e9a91906153e8565b613ea49190614f97565b613eae9190614f97565b613eb89190614f97565b613ec29190614f97565b613ecc9190614f97565b613ed69190614f97565b613ee09082614f97565b90506046613eef85602a613a4b565b613ef991906153e8565b60fa613f06866028613a4b565b613f1091906153e8565b60fa613f1d876027613a4b565b613f2791906153e8565b6101f4613f35886021613a4b565b613f3f91906153e8565b6103e8613f4d896020613a4b565b613f5791906153e8565b6103e8613f658a601f613a4b565b613f6f91906153e8565b60c8613f7c8b601e613a4b565b613f8691906153e8565b613f909190614f97565b613f9a9190614f97565b613fa49190614f97565b613fae9190614f97565b613fb89190614f97565b613fc29190614f97565b61131d9082614f97565b8151600090613fdc600884615572565b10613fe957506000610600565b613ff4600883615586565b613fff9060206153e8565b8361400b600885615572565b8151811061401b5761401b6150ab565b602002602001015160001c901c905092915050565b60008181526001830160205260408120548015614119576000614054600183614ed9565b855490915060009061406890600190614ed9565b90508082146140cd576000866000018281548110614088576140886150ab565b90600052602060002001549050808760000184815481106140ab576140ab6150ab565b6000918252602080832090910192909255918252600188019052604090208390555b85548690806140de576140de61559a565b600190038181906000526020600020016000905590558560010160008681526020019081526020016000206000905560019350505050610600565b6000915050610600565b600081815260018301602052604081205461416a57508154600181810184556000848152602080822090930184905584548482528286019093526040902091909155610600565b506000610600565b604051634d320f0160e11b81526001600160a01b03841690639a641e02906141a090859085906004016149c8565b602060405180830381865afa1580156141bd573d6000803e3d6000fd5b505050506040513d601f19601f820116820180604052508101906141e1919061550c565b6001600160401b0316600003610723576040516337bcc65160e01b815260040160405180910390fd5b606060006008835161421c9190615572565b614227906001614f97565b90506000816001600160401b03811115614243576142436144a0565b60405190808252806020026020018201604052801561426c578160200160208202803683370190505b50905060005b82811015612e815760005b600881101561430a576000816142948460086153e8565b61429e9190614f97565b9050865181106142ae575061430a565b6142b98260206153e8565b8782815181106142cb576142cb6150ab565b602002602001015163ffffffff1660001b901b8484815181106142f0576142f06150ab565b60209081029190910101805190911790525060010161427d565b50600101614272565b6000808260030b121561432857506000919050565b60008260030b1361433b57506000919050565b5060030b90565b60006143516002848418615572565b61076f90848416614f97565b6040805160a08101825260008082526020820181905291810182905260608101829052608081019190915290565b5080546000825590600052602060002090810190610f8d9190614449565b8280548282559060005260206000209081019282156143fe579160200282015b828111156143fe57825182546001600160a01b0319166001600160a01b039091161782556020909201916001909101906143c9565b5061440a929150614449565b5090565b8280548282559060005260206000209081019282156143fe579160200282015b828111156143fe57825182559160200191906001019061442e565b5b8082111561440a576000815560010161444a565b6001600160a01b0381168114610f8d57600080fd5b803561447e8161445e565b919050565b60006020828403121561449557600080fd5b813561076f8161445e565b634e487b7160e01b600052604160045260246000fd5b60405160c081016001600160401b03811182821017156144d8576144d86144a0565b60405290565b604051601f8201601f191681016001600160401b0381118282101715614506576145066144a0565b604052919050565b8060030b8114610f8d57600080fd5b600080600083850360c081121561453357600080fd5b843561453e8161445e565b9350602085013592506080603f198201121561455957600080fd5b50604051608081018181106001600160401b038211171561457c5761457c6144a0565b604090815285013561458d8161450e565b8152606085013561459d8161450e565b602082015260808501356145b08161450e565b604082015260a08501356145c38161450e565b606082015292959194509192509050565b60ff81168114610f8d57600080fd5b803561447e816145d4565b6000806040838503121561460157600080fd5b823561460c816145d4565b9150602083013561461c8161445e565b809150509250929050565b60008151808452602080850194506020840160005b8381101561465b57815160ff168752958201959082019060010161463c565b509495945050505050565b600082825180855260208086019550808260051b8401018186016000805b858110156146e057868403601f19018a52825180518086529086019086860190845b818110156146cb5783516001600160a01b0316835292880192918801916001016146a6565b50509a86019a94505091840191600101614684565b509198975050505050505050565b8381526060602082015260006147076060830185614627565b82810360408401526147198185614666565b9695505050505050565b6000806040838503121561473657600080fd5b82356147418161445e565b946020939093013593505050565b6000806000806080858703121561476557600080fd5b84356147708161445e565b93506020850135614780816145d4565b925060408501356147908161445e565b9396929550929360600135925050565b8015158114610f8d57600080fd5b803561447e816147a0565b600080600080608085870312156147cf57600080fd5b84356147da8161445e565b93506020850135925060408501356147f1816147a0565b91506060850135614801816147a0565b939692955090935050565b60008151808452602080850194506020840160005b8381101561465b57815187529582019590820190600101614821565b60208152600061076f602083018461480c565b60008083601f84011261486257600080fd5b5081356001600160401b0381111561487957600080fd5b602083019150836020828501011115610c5657600080fd5b600080600080600080608087890312156148aa57600080fd5b86356148b58161445e565b955060208701356001600160401b03808211156148d157600080fd5b6148dd8a838b01614850565b909750955060408901359150808211156148f657600080fd5b5061490389828a01614850565b9094509250506060870135614917816147a0565b809150509295509295509295565b600082601f83011261493657600080fd5b81356001600160401b0381111561494f5761494f6144a0565b614962601f8201601f19166020016144de565b81815284602083860101111561497757600080fd5b816020850160208301376000918101602001919091529392505050565b6000602082840312156149a657600080fd5b81356001600160401b038111156149bc57600080fd5b61131d84828501614925565b6001600160a01b03929092168252602082015260400190565b60005b838110156149fc5781810151838201526020016149e4565b50506000910152565b60008151808452614a1d8160208601602086016149e1565b601f01601f19169290920160200192915050565b60208152600061076f6020830184614a05565b60008060008060808587031215614a5a57600080fd5b8435614a658161445e565b93506020850135925060408501356147908161445e565b60008060008060808587031215614a9257600080fd5b8435614a9d8161445e565b9350602085013592506040850135614ab4816145d4565b91506060850135614801816145d4565b60008060408385031215614ad757600080fd5b8235614ae28161445e565b915060208301356001600160401b0380821115614afe57600080fd5b9084019060c08287031215614b1257600080fd5b614b1a6144b6565b614b23836145e3565b8152614b31602084016145e3565b6020820152614b42604084016147ae565b6040820152606083013582811115614b5957600080fd5b614b6588828601614925565b606083015250614b7760808401614473565b608082015260a083013582811115614b8e57600080fd5b614b9a88828601614925565b60a0830152508093505050509250929050565b63ffffffff81168114610f8d57600080fd5b600080600060608486031215614bd457600080fd5b8335614bdf8161445e565b9250602084013591506040840135614bf681614bad565b809150509250925092565b600080600060608486031215614c1657600080fd5b8335614c218161445e565b9250602084013591506040840135614bf6816145d4565b6001600160a01b0391909116815260200190565b60006001600160401b03821115614c6557614c656144a0565b5060051b60200190565b600082601f830112614c8057600080fd5b81356020614c95614c9083614c4c565b6144de565b828152600592831b8501820192828201919087851115614cb457600080fd5b8387015b85811015614d535780356001600160401b03811115614cd75760008081fd5b8801603f81018a13614ce95760008081fd5b858101356040614cfb614c9083614c4c565b82815291851b8301810191888101908d841115614d185760008081fd5b938201935b83851015614d425784359250614d328361445e565b8282529389019390890190614d1d565b885250505093850193508401614cb8565b5090979650505050505050565b600080600080600060a08688031215614d7857600080fd5b8535614d83816145d4565b9450602086810135614d948161445e565b945060408701356001600160481b0381168114614db057600080fd5b935060608701356001600160401b0380821115614dcc57600080fd5b818901915089601f830112614de057600080fd5b8135614dee614c9082614c4c565b81815260059190911b8301840190848101908c831115614e0d57600080fd5b938501935b82851015614e34578435614e25816145d4565b82529385019390850190614e12565b965050506080890135925080831115614e4c57600080fd5b5050614e5a88828901614c6f565b9150509295509295909350565b60008060008060608587031215614e7d57600080fd5b8435614e888161445e565b935060208501356001600160401b03811115614ea357600080fd5b614eaf87828801614850565b9094509250506040850135614801816147a0565b634e487b7160e01b600052601160045260246000fd5b8181038181111561060057610600614ec3565b81835281816020850137506000828201602090810191909152601f909101601f19169091010190565b89151581526001600160a01b03898116602083015288811660408301528716606082015260e060808201819052600090614f529083018789614eec565b82810360a0840152614f65818688614eec565b91505082151560c08301529a9950505050505050505050565b600060208284031215614f9057600080fd5b5051919050565b8082018082111561060057610600614ec3565b600060018060a01b038087168352808616602084015280851660408401526080606084015260ff845116608084015260ff60208501511660a08401526040840151151560c0840152606084015160c060e085015261500c610140850182614a05565b60808601519092166101008501525060a0840151838203607f1901610120850152906150388183614a05565b98975050505050505050565b6001600160a01b03878116825286811660208301528516604082015260a0606082018190526000906150799083018587614eec565b90508215156080830152979650505050505050565b6000602082840312156150a057600080fd5b815161076f8161445e565b634e487b7160e01b600052603260045260246000fd5b600082516150d38184602087016149e1565b9190910192915050565b600181811c908216806150f157607f821691505b60208210810361511157634e487b7160e01b600052602260045260246000fd5b50919050565b6000602080838503121561512a57600080fd5b82516001600160401b0381111561514057600080fd5b8301601f8101851361515157600080fd5b805161515f614c9082614c4c565b81815260059190911b8201830190838101908783111561517e57600080fd5b928401925b828410156108a35783516151968161450e565b82529284019290840190615183565b600060a082840312156151b757600080fd5b60405160a081018181106001600160401b03821117156151d9576151d96144a0565b60405282516151e781614bad565b815260208301516151f781614bad565b6020820152604083015161520a81614bad565b6040820152606083015161521d81614bad565b6060820152608083015161523081614bad565b60808201529392505050565b60008151808452602080850194506020840160005b8381101561465b57815160030b87529582019590820190600101615251565b6020815260018060a01b038251166020820152602082015160408201526000604083015160a060608401526152a860c084018261523c565b90506060840151151560808401526080840151151560a08401528091505092915050565b6001600160a01b039485168152602081019390935292166040820152606081019190915260800190565b6001600160a01b038681168252602082018690528416604082015260a0606082018190526000906153299083018561480c565b90508260808301529695505050505050565b60ff861681526001600160a01b03851660208201526001600160481b038416604082015260a06060820181905260009061537790830185614627565b82810360808401526150388185614666565b805160030b8252602081015160030b6020830152604081015160030b6040830152606081015160030b60608301525050565b6001600160a01b03851681526020810184905260ff8316604082015260e081016107c26060830184615389565b808202811582820484141761060057610600614ec3565b6001600160a01b038581168252602082018590528316604082015260e081016107c26060830184615389565b60006020828403121561543d57600080fd5b815161076f816147a0565b6000602080838503121561545b57600080fd5b82516001600160401b0381111561547157600080fd5b8301601f8101851361548257600080fd5b8051615490614c9082614c4c565b81815260059190911b820183019083810190878311156154af57600080fd5b928401925b828410156108a35783516154c7816145d4565b825292840192908401906154b4565b6000602082840312156154e857600080fd5b815161076f816145d4565b60ff818116838216019081111561060057610600614ec3565b60006020828403121561551e57600080fd5b81516001600160401b038116811461076f57600080fd5b60018060a01b03841681528260208201526060604082015260006107c2606083018461523c565b634e487b7160e01b600052601260045260246000fd5b6000826155815761558161555c565b500490565b6000826155955761559561555c565b500690565b634e487b7160e01b600052603160045260246000fdfe22573091f17911fb166032a3d9e0554aa73d31b7b7ddea4a4dd2995650af84bda264697066735822122009ec02333641ad3d44e5f2f0630f3c5a398f5400ee66eda26062e0b44f5aa6a664736f6c63430008170033",
  "deployedBytecode": "0x608060405234801561001057600080fd5b506004361061021e5760003560e01c80637cc9638011610126578063a13cf106116100b3578063a13cf106146104d0578063a2959fbe146104e3578063a433af6f146104f6578063b429afeb14610509578063bcd418b01461051c578063d360a9c114610588578063dee1f0e41461059b578063df13f489146105ae578063ec5316b5146105b6578063f77c4791146105c9578063ffa1ad74146105d157600080fd5b80637cc963801461040a5780637e57699814610412578063820ff82414610425578063865969881461043857806387a97d3f1461044b578063927078021461045e5780639325fac614610471578063936725ec1461048457806395f0d29a146104a85780639d0bcca0146104bb57600080fd5b80633b6d15c6116101af5780633b6d15c6146103295780634593144c1461033c578063498abc70146103445780634fac6ccd14610365578063542c7b4614610378578063572b6c0514610398578063602b419c146103ab578063608fa40d146103be57806362a62a9d146103d1578063649dab39146103e45780637401edba146103f757600080fd5b80631789b7b11461022357806319ab453c1461024d5780631cb3cd4f146102625780631dca7e30146102755780631e78fd71146102975780631ebd2493146102aa57806320b7c941146102bd57806327238f12146102d0578063286a93d8146102f3578063325a19f114610313575b600080fd5b610236610231366004614483565b6105f5565b60405160ff90911681526020015b60405180910390f35b61026061025b366004614483565b610606565b005b61026061027036600461451d565b610700565b6102886102833660046145ee565b610728565b604051610244939291906146ee565b6102606102a5366004614723565b610745565b6102366102b8366004614723565b610763565b6102606102cb36600461474f565b610776565b6102e36102de366004614723565b610790565b6040519015158152602001610244565b6103066103013660046147b9565b6107a4565b604051610244919061483d565b61031b6107cb565b604051908152602001610244565b61031b610337366004614891565b610804565b61031b6108ae565b610357610352366004614994565b6108de565b6040516102449291906149c8565b610260610373366004614483565b6108f3565b61038b610386366004614723565b610a04565b6040516102449190614a31565b6102e36103a6366004614483565b610a10565b6102606103b9366004614a44565b610a5e565b6102606103cc366004614a44565b610a82565b61031b6103df366004614483565b610a96565b6102e36103f2366004614723565b610aa1565b61031b610405366004614723565b610abd565b61031b610ad1565b61031b610420366004614a7c565b610aef565b61031b610433366004614ac4565b610afd565b610260610446366004614bbf565b610b8b565b610357610459366004614723565b610c34565b61030661046c366004614723565b610c5d565b61026061047f366004614c01565b610c79565b61038b604051806040016040528060058152602001640312e302e360dc1b81525081565b6103576104b6366004614723565b610c9c565b6104c3610ca9565b6040516102449190614c38565b6103576104de366004614483565b610cd9565b6102606104f1366004614d60565b610ce5565b610260610504366004614723565b610d01565b6102e3610517366004614483565b610d95565b61052f61052a366004614723565b610dba565b6040516102449190815160ff9081168252602080840151909116908201526040808301511515908201526060808301516001600160481b0316908201526080918201516001600160a01b03169181019190915260a00190565b61031b610596366004614e67565b610dcc565b6102e36105a9366004614483565b610e5e565b61031b610ee3565b61031b6105c4366004614723565b610eed565b6104c3610ef9565b61038b60405180604001604052806005815260200164312e302e3360d81b81525081565b600061060082610f29565b92915050565b6000610610610f58565b805490915060ff600160401b82041615906001600160401b03166000811580156106375750825b90506000826001600160401b031660011480156106535750303b155b905081158015610661575080155b1561067f5760405163f92ee8a960e01b815260040160405180910390fd5b845467ffffffffffffffff1916600117855583156106a957845460ff60401b1916600160401b1785555b6106b286610f7c565b83156106f857845460ff60401b19168555604051600181527fc7f505b2f371ae2175ee4913f4499e1f2633a7b5936321eed1cdaeb6115181d29060200160405180910390a15b505050505050565b61072361070b610f90565b610713610ef9565b61071b610fa8565b868686610fca565b505050565b60006060806107378585610fe0565b9250925092505b9250925092565b61075f610750610ef9565b610758610fa8565b84846111e4565b5050565b600061076f83836112be565b9392505050565b61078a610781610ef9565b858585856112fb565b50505050565b600061076f61079d610ef9565b8484611310565b60606107c26107b1610ef9565b6107b9610fa8565b87878787611325565b95945050505050565b60006107ff6107fb60017f6f55f470bdc9cb5f04223fd822021061668e4dccb43e8727b295106dc9769c8b614ed9565b5490565b905090565b600073__$4dd4e34d4146e87275b31ad86b20f00477$__635758ba7c610828610f90565b610830610ef9565b610838610fa8565b8b8b8b8b8b8b6040518a63ffffffff1660e01b815260040161086299989796959493929190614f15565b602060405180830381865af415801561087f573d6000803e3d6000fd5b505050506040513d601f19601f820116820180604052508101906108a39190614f7e565b979650505050505050565b60006107ff6107fb60017f812a673dfca07956350df10f8a654925f561d7a0da09bdbe79e653939a14d9f1614ed9565b6000806108ea8361148a565b91509150915091565b3330146109455760405162461bcd60e51b815260206004820152601b60248201527a24b731b932b0b9b2903932bb34b9b4b7b7103337b93134b23232b760291b60448201526064015b60405180910390fd5b60006109636107fb60016000805160206155b1833981519152614ed9565b61096e906001614f97565b90506109908161098d60016000805160206155b1833981519152614ed9565b55565b6109bf8261098d60017fbfaaa2fb63266ff27c2da975f5894955056f50419af651a81f6c5060581857e4614ed9565b604080518281526001600160a01b03841660208201527ff27e2ef832a4eb8ed8ec553b875eecd44764cda95b1c24170e281539e0a869c8910160405180910390a15050565b606061076f83836114c1565b60006001600160a01b03821673d8253782c45a12053594b9deb72d8e8ab2fca54c148061060057506001600160a01b0382167352ceba41da235af367bfc0b0ccd3314cb901bb5f1492915050565b61078a610a69610f90565b610a71610ef9565b610a79610fa8565b87878787611582565b61078a610a8d610ef9565b85858585611599565b6000610600826115af565b600061076f610aae610ef9565b610ab6610fa8565b85856115de565b600061076f610aca610ef9565b848461166e565b60006107ff6107fb60016000805160206155b1833981519152614ed9565b60006107c2858585856117c5565b600073__$4dd4e34d4146e87275b31ad86b20f00477$__6376e3ae2c610b21610ef9565b610b29610fa8565b86866040518563ffffffff1660e01b8152600401610b4a9493929190614faa565b602060405180830381865af4158015610b67573d6000803e3d6000fd5b505050506040513d601f19601f8201168201806040525081019061076f9190614f7e565b73__$4dd4e34d4146e87275b31ad86b20f00477$__63607b2a50610bad610ef9565b610bb5610fa8565b6040516001600160e01b031960e085901b1681526001600160a01b039283166004820152908216602482015290861660448201526064810185905263ffffffff8416608482015260a40160006040518083038186803b158015610c1757600080fd5b505af4158015610c2b573d6000803e3d6000fd5b50505050505050565b600080610c51610c42610ef9565b610c4a610fa8565b8686611818565b915091505b9250929050565b606061076f610c6a610ef9565b610c72610fa8565b8585611c5d565b610723610c84610f90565b610c8c610ef9565b610c94610fa8565b868686611d14565b600080610c518484611d2a565b60006107ff6107fb60017fbfaaa2fb63266ff27c2da975f5894955056f50419af651a81f6c5060581857e4614ed9565b6000806108ea83611d68565b610cfa610cf0610ef9565b8686868686611d9c565b5050505050565b73__$4dd4e34d4146e87275b31ad86b20f00477$__63460e635b610d23610ef9565b610d2b610fa8565b6040516001600160e01b031960e085901b1681526001600160a01b039283166004820152908216602482015290851660448201526064810184905260840160006040518083038186803b158015610d8157600080fd5b505af41580156106f8573d6000803e3d6000fd5b6000610d9f610ef9565b6001600160a01b0316826001600160a01b0316149050919050565b610dc261435d565b61076f8383611f96565b600073__$4dd4e34d4146e87275b31ad86b20f00477$__63d789d548610df0610ef9565b610df8610fa8565b888888886040518763ffffffff1660e01b8152600401610e1d96959493929190615044565b602060405180830381865af4158015610e3a573d6000803e3d6000fd5b505050506040513d601f19601f820116820180604052508101906107c29190614f7e565b6000816001600160a01b0316610e72610ef9565b6001600160a01b0316635aa6e6756040518163ffffffff1660e01b8152600401602060405180830381865afa158015610eaf573d6000803e3d6000fd5b505050506040513d601f19601f82011682018060405250810190610ed3919061508e565b6001600160a01b03161492915050565b60006107ff61202b565b600061076f838361203e565b60006107ff6107fb60017f5165972ef41194f06c5007493031d0b927c20741adcb74403b954009fd2c3618614ed9565b6000610f3361206e565b6001600160a01b03909216600090815260029290920160205250604090205460ff1690565b7ff0c57e16840df040f15088dc2f81fe391c3923bec73e23a9662efc9c229c6a0090565b610f84612078565b610f8d8161209f565b50565b6000610f9b33610a10565b806107ff57505032331490565b6000610fb333610a10565b15610fc5575060131936013560601c90565b503390565b610fd3866121be565b6106f885858585856121de565b600060608060001960ff861601610ffe57610ffa84611d68565b9350505b60ff851660021480611013575060ff85166003145b1561073e57600061102261206e565b600901600061103188886124e3565b81526020019081526020016000209050806000015493506000611056826001016124fc565b9050806001600160401b03811115611070576110706144a0565b604051908082528060200260200182016040528015611099578160200160208202803683370190505b509350806001600160401b038111156110b4576110b46144a0565b6040519080825280602002602001820160405280156110e757816020015b60608152602001906001900390816110d25790505b50925060005b818110156111da576111026001840182612506565b858281518110611114576111146150ab565b602002602001019060ff16908160ff1681525050826003016000868381518110611140576111406150ab565b602002602001015160ff1660ff1681526020019081526020016000208054806020026020016040519081016040528092919081815260200182805480156111b057602002820191906000526020600020905b81546001600160a01b03168152600190910190602001808311611192575b50505050508482815181106111c7576111c76150ab565b60209081029190910101526001016110ed565b5050509250925092565b61124f846001600160a01b031663683fedf76040518163ffffffff1660e01b8152600401602060405180830381865afa158015611225573d6000803e3d6000fd5b505050506040513d601f19601f82011682018060405250810190611249919061508e565b84612512565b61078a846001600160a01b0316628e96916040518163ffffffff1660e01b8152600401602060405180830381865afa15801561128f573d6000803e3d6000fd5b505050506040513d601f19601f820116820180604052508101906112b3919061508e565b838360006001612546565b60006112c861206e565b60050160006112e06001600160a01b038616856126df565b815260208101919091526040016000205460ff169392505050565b6113048561272f565b610cfa848484846127bb565b600061131d84848461287c565b949350505050565b6060611392876001600160a01b031663683fedf76040518163ffffffff1660e01b8152600401602060405180830381865afa158015611368573d6000803e3d6000fd5b505050506040513d601f19601f8201168201806040525081019061138c919061508e565b87612512565b61139b856129f1565b6000876001600160a01b0316628e96916040518163ffffffff1660e01b8152600401602060405180830381865afa1580156113da573d6000803e3d6000fd5b505050506040513d601f19601f820116820180604052508101906113fe919061508e565b9050611470886001600160a01b03166331423c266040518163ffffffff1660e01b8152600401602060405180830381865afa158015611441573d6000803e3d6000fd5b505050506040513d601f19601f82011682018060405250810190611465919061508e565b8288888b6001612a3a565b915061147f8187878787612546565b509695505050505050565b6000806108ea61149861206e565b600401846040516114a991906150c1565b9081526020016040518091039020549060a082901c90565b60606114cb61206e565b60030160006114e36001600160a01b038616856126df565b815260200190815260200160002080546114fc906150dd565b80601f0160208091040260200160405190810160405280929190818152602001828054611528906150dd565b80156115755780601f1061154a57610100808354040283529160200191611575565b820191906000526020600020905b81548152906001019060200180831161155857829003601f168201915b5050505050905092915050565b61158b876121be565b610c2b868686868686612cb4565b6115a285612cce565b610cfa8585858585612d63565b60006115b9612d72565b6001600160a01b039092166000908152600b9290920160205250604090205460ff1690565b6000826001600160a01b0316846001600160a01b031614611614578360405163f652640360e01b815260040161093c9190614c38565b61161d836129f1565b61162885848461287c565b9050600161163461206e565b600801600061164386866126df565b815260200190815260200160002060008282546116609190614f97565b909155509095945050505050565b600080846001600160a01b0316628e96916040518163ffffffff1660e01b8152600401602060405180830381865afa1580156116ae573d6000803e3d6000fd5b505050506040513d601f19601f820116820180604052508101906116d2919061508e565b90506107c2816001600160a01b0316631f051fa086866040518363ffffffff1660e01b81526004016117059291906149c8565b600060405180830381865afa158015611722573d6000803e3d6000fd5b505050506040513d6000823e601f3d908101601f1916820160405261174a9190810190615117565b604051631a95890960e31b81526001600160a01b0384169063d4ac48489061177890899089906004016149c8565b60a060405180830381865afa158015611795573d6000803e3d6000fd5b505050506040513d601f19601f820116820180604052508101906117b991906151a5565b5163ffffffff16612d96565b60006117cf612d72565b600c0160006117de87876126df565b8152602081019190915260400160009081209060ff8516600885901b61ff0016178152602001908152602001600020549050949350505050565b600080611886866001600160a01b031663683fedf76040518163ffffffff1660e01b8152600401602060405180830381865afa15801561185c573d6000803e3d6000fd5b505050506040513d601f19601f82011682018060405250810190611880919061508e565b86612512565b61188f846129f1565b60006118a46001600160a01b038616856126df565b90506118cd6118b1612d72565b600083815260069190910160205260409020549060a082901c90565b90935091506001600160a01b03831615611c53576000876001600160a01b0316628e96916040518163ffffffff1660e01b8152600401602060405180830381865afa158015611920573d6000803e3d6000fd5b505050506040513d601f19601f82011682018060405250810190611944919061508e565b905060006119c6602b611955612d72565b60070160008681526020019081526020016000208054806020026020016040519081016040528092919081815260200182805480156119b357602002820191906000526020600020905b81548152602001906001019080831161199f575b5050505050612db990919063ffffffff16565b6040805160a0810182526001600160a01b038a81168252602082018a905281830184905260006060830181905260808301529151634ffa2edf60e11b815292935090841691639ff45dbe91611a1d91600401615270565b600060405180830381600087803b158015611a3757600080fd5b505af1158015611a4b573d6000803e3d6000fd5b50505050611a57612d72565b60008481526006919091016020526040812055611a72612d72565b600084815260079190910160205260408120611a8d9161438b565b6000896001600160a01b0316632f91ede96040518163ffffffff1660e01b8152600401602060405180830381865afa158015611acd573d6000803e3d6000fd5b505050506040513d601f19601f82011682018060405250810190611af1919061508e565b90506000816001600160a01b03166332aa45c888886040518363ffffffff1660e01b8152600401611b239291906149c8565b602060405180830381865afa158015611b40573d6000803e3d6000fd5b505050506040513d601f19601f82011682018060405250810190611b649190614f7e565b905080600003611bb0577fd706d04d97d13bf3638215af61921215fca49e37cf4c1d91a2a07d1c7382787689898989604051611ba394939291906152cc565b60405180910390a1611c4e565b604051630c1b5d1360e41b81526001600160a01b0383169063c1b5d13090611bde908a908a906004016149c8565b600060405180830381600087803b158015611bf857600080fd5b505af1158015611c0c573d6000803e3d6000fd5b505050507fe2a65884b136f54e31ab4bf0d7c084a299e4b5a0bebacd4492b264748ec9a2fb89898989604051611c4594939291906152cc565b60405180910390a15b505050505b5094509492505050565b6060611c6f8585858560016000611325565b604051630852cd8d60e31b8152600481018490529091506001600160a01b038416906342966c6890602401600060405180830381600087803b158015611cb457600080fd5b505af1158015611cc8573d6000803e3d6000fd5b505050507f0a5a92d625a671065fa01b9e0e054b6a6844f5a7bee65a8502d60d3a6a601d46838386846000604051611d049594939291906152f6565b60405180910390a1949350505050565b611d1d866121be565b6106f88585858585612e89565b600080610c51611d3861206e565b6006016000611d506001600160a01b038816876126df565b8152602001908152602001600020549060a082901c90565b6000806108ea611d7661206e565b6001600160a01b038516600090815260019190910160205260409020549060a082901c90565b611da58661272f565b60ff8516600214801590611dbd575060ff8516600314155b15611de05760405163021610a960e61b815260ff8616600482015260240161093c565b6000611dea61206e565b6009016000611df988886124e3565b815260200190815260200160002090506000611e17826001016124fc565b90508015611e745760005b81811015611e72576000611e396001850182612506565b9050611e4b6001850160ff8316613084565b5060ff811660009081526003850160205260408120611e699161438b565b50600101611e22565b505b835183518114611e975760405163586cb9e160e01b815260040160405180910390fd5b6001600160481b038616835560005b81811015611f4b57611ee0868281518110611ec357611ec36150ab565b602002602001015160ff168560010161309090919063ffffffff16565b50848181518110611ef357611ef36150ab565b6020026020010151846003016000888481518110611f1357611f136150ab565b602002602001015160ff1660ff1681526020019081526020016000209080519060200190611f429291906143a9565b50600101611ea6565b507f175a187d26dec8ccd1362d67962fabe3a584231ec4f929b3516ef6e3389a30198888888888604051611f8395949392919061533b565b60405180910390a1505050505050505050565b611f9e61435d565b611fa6612d72565b600a016000611fb585856126df565b81526020808201929092526040908101600020815160a081018352905460ff80821683526101008204811694830194909452620100008104909316151591810191909152630100000082046001600160481b03166060820152600160601b9091046001600160a01b031660808201529392505050565b6000612035612d72565b600d0154905090565b600061204861206e565b600801600061205785856126df565b815260200190815260200160002054905092915050565b60006107ff612d72565b61208061309c565b61209d57604051631afcd79f60e31b815260040160405180910390fd5b565b6001600160a01b0381166120e75760405162461bcd60e51b815260206004820152600f60248201526e2d32b9379031b7b73a3937b63632b960891b604482015260640161093c565b6121168161098d60017f5165972ef41194f06c5007493031d0b927c20741adcb74403b954009fd2c3618614ed9565b6121454261098d60017f6f55f470bdc9cb5f04223fd822021061668e4dccb43e8727b295106dc9769c8b614ed9565b6121744361098d60017f812a673dfca07956350df10f8a654925f561d7a0da09bdbe79e653939a14d9f1614ed9565b604080516001600160a01b0383168152426020820152438183015290517f1a2dd071001ebf6e03174e3df5b305795a4ad5d41d8fdb9ba41dbbe2367134269181900360600190a150565b80610f8d57336040516377817ac360e01b815260040161093c9190614c38565b6121e98383866130b6565b6121f3858461314f565b6121fe8584846131d8565b5050600061220c8484611f96565b90506000866001600160a01b0316628e96916040518163ffffffff1660e01b8152600401602060405180830381865afa15801561224d573d6000803e3d6000fd5b505050506040513d601f19601f82011682018060405250810190612271919061508e565b90506000816001600160a01b031663af6a5722878761228e612d72565b6001600160a01b038b1660009081526002919091016020526040908190205490516001600160e01b031960e086901b1681526122d493929160ff16908a906004016153bb565b6020604051808303816000875af11580156122f3573d6000803e3d6000fd5b505050506040513d601f19601f820116820180604052508101906123179190614f7e565b60808401519091506001600160a01b031661249c576000886001600160a01b031663c3dfdae66040518163ffffffff1660e01b8152600401602060405180830381865afa15801561236c573d6000803e3d6000fd5b505050506040513d601f19601f82011682018060405250810190612390919061508e565b90506000806123c66123a0612d72565b6001600160a01b038b16600090815260019190910160205260409020549060a082901c90565b90925090506001600160a01b0382166123f65781816040516333f7df9760e11b815260040161093c9291906149c8565b826001600160a01b0316826001600160a01b03161461241d5750819050678ac7230489e800005b600061242985836153e8565b604051631e478ddf60e11b81526001600160a01b038581166004830152602482018390528d81166044830152919250908d1690633c8f1bbe90606401600060405180830381600087803b15801561247f57600080fd5b505af1158015612493573d6000803e3d6000fd5b50505050505050505b7f670be388881e5c89a1832bbcb766dd58a782cafce815af1dbeda4188c1c34fb2868689876040516124d194939291906153ff565b60405180910390a15050505050505050565b610100600160a81b0360089190911b1660ff9091161790565b6000610600825490565b600061076f8383613350565b806001600160a01b0316826001600160a01b03161461075f578060405163cf219bef60e01b815260040161093c9190614c38565b604051631a95890960e31b81526000906001600160a01b0387169063d4ac48489061257790889088906004016149c8565b60a060405180830381865afa158015612594573d6000803e3d6000fd5b505050506040513d601f19601f820116820180604052508101906125b891906151a5565b9050856001600160a01b031663afb1a9ed86866040518060a00160405280600063ffffffff168152602001600063ffffffff168152602001866040015163ffffffff1681526020018761260c576000612612565b86606001515b63ffffffff1681526020018861262957600061262c565b60015b60ff1690526040805160e086901b6001600160e01b03191681526001600160a01b0390941660048501526024840192909252805163ffffffff908116604485015260208201518116606485015291810151821660848401526060810151821660a4840152608001511660c4820152600060e482015261010401600060405180830381600087803b1580156126bf57600080fd5b505af11580156126d3573d6000803e3d6000fd5b50505050505050505050565b60006001600160401b0382111561270c57604051633995b34160e01b81526004810183905260240161093c565b5067ffffffffffffffff60a01b60a09190911b166001600160a01b039091161790565b604051631430d62960e21b81526001600160a01b038216906350c358a49061275b903390600401614c38565b602060405180830381865afa158015612778573d6000803e3d6000fd5b505050506040513d601f19601f8201168201806040525081019061279c919061542b565b610f8d573360405163451cea1760e11b815260040161093c9190614c38565b826127c4612d72565b6001600160a01b0386811660009081526002929092016020526040909120805460ff191660ff93909316929092179091556128019083168261337a565b612809612d72565b6001600160a01b038681166000818152600193909301602090815260409384902094909455825190815260ff87169381019390935284168282015260608201839052517fc0155de360d47eaeaff9d27e2fb3819908a9025a3d325cd79d229592ead8df009181900360800190a150505050565b60006128ea846001600160a01b031663683fedf76040518163ffffffff1660e01b8152600401602060405180830381865afa1580156128bf573d6000803e3d6000fd5b505050506040513d601f19601f820116820180604052508101906128e3919061508e565b84846133c7565b836001600160a01b0316628e96916040518163ffffffff1660e01b8152600401602060405180830381865afa158015612927573d6000803e3d6000fd5b505050506040513d601f19601f8201168201806040525081019061294b919061508e565b6001600160a01b031663fbed9ac584846040518363ffffffff1660e01b81526004016129789291906149c8565b600060405180830381865afa158015612995573d6000803e3d6000fd5b505050506040513d6000823e601f3d908101601f191682016040526129bd9190810190615448565b51156129dc576040516303a684c160e51b815260040160405180910390fd5b6129e784848461345c565b5060019392505050565b6129f9612d72565b6001600160a01b0382166000908152600291909101602052604081205460ff169003610f8d578060405163adc7fced60e01b815260040161093c9190614c38565b60606000866001600160a01b031663fbed9ac587876040518363ffffffff1660e01b8152600401612a6c9291906149c8565b600060405180830381865afa158015612a89573d6000803e3d6000fd5b505050506040513d6000823e601f3d908101601f19168201604052612ab19190810190615448565b8051909150806001600160401b03811115612ace57612ace6144a0565b604051908082528060200260200182016040528015612af7578160200160208202803683370190505b50925060005b81811015612ca7576000896001600160a01b0316633bdb788b8a8a878681518110612b2a57612b2a6150ab565b60209081029190910101516040516001600160e01b031960e086901b1681526001600160a01b0390931660048401526001600160401b03909116602483015260ff166044820152606401602060405180830381865afa158015612b91573d6000803e3d6000fd5b505050506040513d601f19601f82011682018060405250810190612bb59190614f7e565b90506000808260a081901c915091508c6001600160a01b0316631af6585983838e8e8b8a81518110612be957612be96150ab565b60209081029190910101516040516001600160e01b031960e088901b1681526001600160a01b03958616600482015260248101949094529184166044840152606483015260ff166084820152908c1660a48201528a151560c482015260e401600060405180830381600087803b158015612c6257600080fd5b505af1158015612c76573d6000803e3d6000fd5b5050505082878581518110612c8d57612c8d6150ab565b602002602001018181525050505050806001019050612afd565b5050509695505050505050565b612cbf8484876130b6565b6106f88685856000868661354e565b336001600160a01b0316816001600160a01b03166331423c266040518163ffffffff1660e01b8152600401602060405180830381865afa158015612d16573d6000803e3d6000fd5b505050506040513d601f19601f82011682018060405250810190612d3a919061508e565b6001600160a01b031614610f8d573360405163f6b9c4d960e01b815260040161093c9190614c38565b610cfa8585856001868661354e565b7fd333325b749986e76669f0e0c2c1aa0e0abd19e216c3678477196e408924140090565b6000612da46103e8836153e8565b612daf846001613a3c565b61076f9190614f97565b60606000826001600160401b03811115612dd557612dd56144a0565b604051908082528060200260200182016040528015612dfe578160200160208202803683370190505b50905060005b8451811015612e815760005b6008811015612e7857600081612e278460086153e8565b612e319190614f97565b9050858110612e405750612e78565b612e4a8782613fcc565b848281518110612e5c57612e5c6150ab565b60039290920b6020928302919091019091015250600101612e10565b50600101612e04565b509392505050565b612e948383866130b6565b612e9e858461314f565b6000612eab8685856131d8565b50905060ff82161580612f245750806001600160a01b031663b2192fdd6040518163ffffffff1660e01b8152600401602060405180830381865afa158015612ef7573d6000803e3d6000fd5b505050506040513d601f19601f82011682018060405250810190612f1b91906154d6565b60ff168260ff16115b15612f4757604051637d34ca9360e01b815260ff8316600482015260240161093c565b604051630718609f60e11b81526000906001600160a01b03831690630e30c13e90612f7890889088906004016149c8565b602060405180830381865afa158015612f95573d6000803e3d6000fd5b505050506040513d601f19601f82011682018060405250810190612fb991906154d6565b9050612fc68160016154f3565b60ff168360ff161115612ff15760405163c312099f60e01b815260ff8416600482015260240161093c565b82612ffa612d72565b60050160006130126001600160a01b038916886126df565b81526020808201929092526040908101600020805460ff191660ff94851617905580516001600160a01b03891681529182018790529185168183015290517f548528b5eab74a6b2c96d3ea6fb246d4bafc50e211c3973b47ec10ad0effe46f916060908290030190a150505050505050565b600061076f8383614030565b600061076f8383614123565b60006130a6610f58565b54600160401b900460ff16919050565b6040516331a9108f60e11b8152600481018390526001600160a01b038083169190851690636352211e90602401602060405180830381865afa158015613100573d6000803e3d6000fd5b505050506040513d601f19601f82011682018060405250810190613124919061508e565b6001600160a01b03161461072357828260405163547208b960e11b815260040161093c9291906149c8565b613158816129f1565b816001600160a01b03166318d928316040518163ffffffff1660e01b8152600401602060405180830381865afa158015613196573d6000803e3d6000fd5b505050506040513d601f19601f820116820180604052508101906131ba919061542b565b1561075f57604051635e1633d360e11b815260040160405180910390fd5b600080846001600160a01b031663683fedf76040518163ffffffff1660e01b8152600401602060405180830381865afa158015613219573d6000803e3d6000fd5b505050506040513d601f19601f8201168201806040525081019061323d919061508e565b9150846001600160a01b0316628e96916040518163ffffffff1660e01b8152600401602060405180830381865afa15801561327c573d6000803e3d6000fd5b505050506040513d601f19601f820116820180604052508101906132a0919061508e565b90506132ad8285856133c7565b6132b885858561345c565b6040516378b5183360e11b81526001600160a01b0382169063f16a3066906132e690879087906004016149c8565b602060405180830381865afa158015613303573d6000803e3d6000fd5b505050506040513d601f19601f82011682018060405250810190613327919061542b565b61334857838360405163033aace360e41b815260040161093c9291906149c8565b935093915050565b6000826000018281548110613367576133676150ab565b9060005260206000200154905092915050565b60006001600160601b038211156133a757604051633995b34160e01b81526004810183905260240161093c565b506001600160a01b031960a09190911b166001600160a01b039091161790565b604051634d320f0160e11b81526001600160a01b03841690639a641e02906133f590859085906004016149c8565b602060405180830381865afa158015613412573d6000803e3d6000fd5b505050506040513d601f19601f82011682018060405250810190613436919061550c565b6001600160401b0316156107235760405162dc1c0b60e01b815260040160405180910390fd5b826001600160a01b0316632f91ede96040518163ffffffff1660e01b8152600401602060405180830381865afa15801561349a573d6000803e3d6000fd5b505050506040513d601f19601f820116820180604052508101906134be919061508e565b6001600160a01b0316635451da1b83836040518363ffffffff1660e01b81526004016134eb9291906149c8565b602060405180830381865afa158015613508573d6000803e3d6000fd5b505050506040513d601f19601f8201168201806040525081019061352c919061542b565b15610723578181604051634f38de4760e11b815260040161093c9291906149c8565b613558868661314f565b6135c4866001600160a01b031663683fedf76040518163ffffffff1660e01b8152600401602060405180830381865afa158015613599573d6000803e3d6000fd5b505050506040513d601f19601f820116820180604052508101906135bd919061508e565b8686614172565b60006135d96001600160a01b038716866126df565b905060006135e5612d72565b600083815260069190910160205260409020541461361657604051631c93a6e960e31b815260040160405180910390fd5b6000876001600160a01b0316628e96916040518163ffffffff1660e01b8152600401602060405180830381865afa158015613655573d6000803e3d6000fd5b505050506040513d601f19601f82011682018060405250810190613679919061508e565b90506000886001600160a01b0316632f91ede96040518163ffffffff1660e01b8152600401602060405180830381865afa1580156136bb573d6000803e3d6000fd5b505050506040513d601f19601f820116820180604052508101906136df919061508e565b9050606086613766576040516334622f6560e11b81526001600160a01b038316906368c45eca9061371a908c908c908b908b906004016152cc565b6000604051808303816000875af1158015613739573d6000803e3d6000fd5b505050506040513d6000823e601f3d908101601f191682016040526137619190810190615117565b6137df565b60405163600c667360e01b81526001600160a01b0383169063600c667390613798908c908c908b908b906004016152cc565b6000604051808303816000875af11580156137b7573d6000803e3d6000fd5b505050506040513d6000823e601f3d908101601f191682016040526137df9190810190615117565b90506000836001600160a01b0316631f051fa08b8b6040518363ffffffff1660e01b81526004016138119291906149c8565b600060405180830381865afa15801561382e573d6000803e3d6000fd5b505050506040513d6000823e601f3d908101601f191682016040526138569190810190615117565b6040805160a0810182526001600160a01b038d81168252602082018d905281830186905260016060830152600060808301529151634ffa2edf60e11b815292935090861691639ff45dbe916138ad91600401615270565b600060405180830381600087803b1580156138c757600080fd5b505af11580156138db573d6000803e3d6000fd5b506138f3925050506001600160a01b038816876126df565b6138fb612d72565b600087815260069190910160205260409020556139178261420a565b61391f612d72565b6007016000878152602001908152602001600020908051906020019061394692919061440e565b50604051632e80ad4d60e11b81526001600160a01b03851690635d015a9a90613977908d908d908690600401615535565b600060405180830381600087803b15801561399157600080fd5b505af11580156139a5573d6000803e3d6000fd5b5050505087156139f1577f6f8146918e4a56c3c0afd937ecf5aed94c8c1b4310cdc01a6b8950aed083f3458a8a89896040516139e494939291906152cc565b60405180910390a1613a2f565b7fb03aa2b3e79085a007537123a0d347753f0349d22e18c9bd6b8d44d7bbbe2d238a8a8989604051613a2694939291906152cc565b60405180910390a15b5050505050505050505050565b600080600a613a7b613a6b8660045b81518110613a5b57613a5b6150ab565b602002602001015160030b614313565b613a76876005613a4b565b614342565b613a8591906153e8565b6101f4613a93866008613a4b565b613a9d91906153e8565b600a613aaa876007613a4b565b613ab491906153e8565b6003613ac1886006613a4b565b613acb91906153e8565b6064613ad8896003613a4b565b613ae291906153e8565b6064613aef8a6002613a4b565b613af991906153e8565b6064613b068b6001613a4b565b613b1091906153e8565b6064613b1d8c6000613a4b565b613b2791906153e8565b613b319190614f97565b613b3b9190614f97565b613b459190614f97565b613b4f9190614f97565b613b599190614f97565b613b639190614f97565b613b6d9190614f97565b613b779082614f97565b90506064613b8685600d613a4b565b613b9091906153e8565b6064613b9d86600c613a4b565b613ba791906153e8565b6064613bb487600b613a4b565b613bbe91906153e8565b613bc89190614f97565b613bd29190614f97565b613bdc9082614f97565b90508261076f57600a613bef8582613a4b565b613bf991906153e8565b600a613c06866009613a4b565b613c1091906153e8565b613c1a9190614f97565b613c249082614f97565b90506014613c33856015613a4b565b613c3d91906153e8565b6014613c498682613a4b565b613c5391906153e8565b6014613c60876013613a4b565b613c6a91906153e8565b6014613c77886012613a4b565b613c8191906153e8565b6014613c8e896011613a4b565b613c9891906153e8565b6014613ca58a6010613a4b565b613caf91906153e8565b6014613cbc8b600f613a4b565b613cc691906153e8565b6014613cd38c600e613a4b565b613cdd91906153e8565b613ce79190614f97565b613cf19190614f97565b613cfb9190614f97565b613d059190614f97565b613d0f9190614f97565b613d199190614f97565b613d239190614f97565b613d2d9082614f97565b90506064613d3c856029613a4b565b613d4691906153e8565b6064613d53866026613a4b565b613d5d91906153e8565b6064613d6a876025613a4b565b613d7491906153e8565b6064613d81886024613a4b565b613d8b91906153e8565b6064613d98896023613a4b565b613da291906153e8565b6064613daf8a6022613a4b565b613db991906153e8565b613dc39190614f97565b613dcd9190614f97565b613dd79190614f97565b613de19190614f97565b613deb9190614f97565b613df59082614f97565b905060c8613e0485601d613a4b565b613e0e91906153e8565b60c8613e1b86601c613a4b565b613e2591906153e8565b60c8613e3287601b613a4b565b613e3c91906153e8565b60c8613e4988601a613a4b565b613e5391906153e8565b6096613e60896019613a4b565b613e6a91906153e8565b61012c613e788a6017613a4b565b613e8291906153e8565b612710613e908b6016613a4b565b613e9a91906153e8565b613ea49190614f97565b613eae9190614f97565b613eb89190614f97565b613ec29190614f97565b613ecc9190614f97565b613ed69190614f97565b613ee09082614f97565b90506046613eef85602a613a4b565b613ef991906153e8565b60fa613f06866028613a4b565b613f1091906153e8565b60fa613f1d876027613a4b565b613f2791906153e8565b6101f4613f35886021613a4b565b613f3f91906153e8565b6103e8613f4d896020613a4b565b613f5791906153e8565b6103e8613f658a601f613a4b565b613f6f91906153e8565b60c8613f7c8b601e613a4b565b613f8691906153e8565b613f909190614f97565b613f9a9190614f97565b613fa49190614f97565b613fae9190614f97565b613fb89190614f97565b613fc29190614f97565b61131d9082614f97565b8151600090613fdc600884615572565b10613fe957506000610600565b613ff4600883615586565b613fff9060206153e8565b8361400b600885615572565b8151811061401b5761401b6150ab565b602002602001015160001c901c905092915050565b60008181526001830160205260408120548015614119576000614054600183614ed9565b855490915060009061406890600190614ed9565b90508082146140cd576000866000018281548110614088576140886150ab565b90600052602060002001549050808760000184815481106140ab576140ab6150ab565b6000918252602080832090910192909255918252600188019052604090208390555b85548690806140de576140de61559a565b600190038181906000526020600020016000905590558560010160008681526020019081526020016000206000905560019350505050610600565b6000915050610600565b600081815260018301602052604081205461416a57508154600181810184556000848152602080822090930184905584548482528286019093526040902091909155610600565b506000610600565b604051634d320f0160e11b81526001600160a01b03841690639a641e02906141a090859085906004016149c8565b602060405180830381865afa1580156141bd573d6000803e3d6000fd5b505050506040513d601f19601f820116820180604052508101906141e1919061550c565b6001600160401b0316600003610723576040516337bcc65160e01b815260040160405180910390fd5b606060006008835161421c9190615572565b614227906001614f97565b90506000816001600160401b03811115614243576142436144a0565b60405190808252806020026020018201604052801561426c578160200160208202803683370190505b50905060005b82811015612e815760005b600881101561430a576000816142948460086153e8565b61429e9190614f97565b9050865181106142ae575061430a565b6142b98260206153e8565b8782815181106142cb576142cb6150ab565b602002602001015163ffffffff1660001b901b8484815181106142f0576142f06150ab565b60209081029190910101805190911790525060010161427d565b50600101614272565b6000808260030b121561432857506000919050565b60008260030b1361433b57506000919050565b5060030b90565b60006143516002848418615572565b61076f90848416614f97565b6040805160a08101825260008082526020820181905291810182905260608101829052608081019190915290565b5080546000825590600052602060002090810190610f8d9190614449565b8280548282559060005260206000209081019282156143fe579160200282015b828111156143fe57825182546001600160a01b0319166001600160a01b039091161782556020909201916001909101906143c9565b5061440a929150614449565b5090565b8280548282559060005260206000209081019282156143fe579160200282015b828111156143fe57825182559160200191906001019061442e565b5b8082111561440a576000815560010161444a565b6001600160a01b0381168114610f8d57600080fd5b803561447e8161445e565b919050565b60006020828403121561449557600080fd5b813561076f8161445e565b634e487b7160e01b600052604160045260246000fd5b60405160c081016001600160401b03811182821017156144d8576144d86144a0565b60405290565b604051601f8201601f191681016001600160401b0381118282101715614506576145066144a0565b604052919050565b8060030b8114610f8d57600080fd5b600080600083850360c081121561453357600080fd5b843561453e8161445e565b9350602085013592506080603f198201121561455957600080fd5b50604051608081018181106001600160401b038211171561457c5761457c6144a0565b604090815285013561458d8161450e565b8152606085013561459d8161450e565b602082015260808501356145b08161450e565b604082015260a08501356145c38161450e565b606082015292959194509192509050565b60ff81168114610f8d57600080fd5b803561447e816145d4565b6000806040838503121561460157600080fd5b823561460c816145d4565b9150602083013561461c8161445e565b809150509250929050565b60008151808452602080850194506020840160005b8381101561465b57815160ff168752958201959082019060010161463c565b509495945050505050565b600082825180855260208086019550808260051b8401018186016000805b858110156146e057868403601f19018a52825180518086529086019086860190845b818110156146cb5783516001600160a01b0316835292880192918801916001016146a6565b50509a86019a94505091840191600101614684565b509198975050505050505050565b8381526060602082015260006147076060830185614627565b82810360408401526147198185614666565b9695505050505050565b6000806040838503121561473657600080fd5b82356147418161445e565b946020939093013593505050565b6000806000806080858703121561476557600080fd5b84356147708161445e565b93506020850135614780816145d4565b925060408501356147908161445e565b9396929550929360600135925050565b8015158114610f8d57600080fd5b803561447e816147a0565b600080600080608085870312156147cf57600080fd5b84356147da8161445e565b93506020850135925060408501356147f1816147a0565b91506060850135614801816147a0565b939692955090935050565b60008151808452602080850194506020840160005b8381101561465b57815187529582019590820190600101614821565b60208152600061076f602083018461480c565b60008083601f84011261486257600080fd5b5081356001600160401b0381111561487957600080fd5b602083019150836020828501011115610c5657600080fd5b600080600080600080608087890312156148aa57600080fd5b86356148b58161445e565b955060208701356001600160401b03808211156148d157600080fd5b6148dd8a838b01614850565b909750955060408901359150808211156148f657600080fd5b5061490389828a01614850565b9094509250506060870135614917816147a0565b809150509295509295509295565b600082601f83011261493657600080fd5b81356001600160401b0381111561494f5761494f6144a0565b614962601f8201601f19166020016144de565b81815284602083860101111561497757600080fd5b816020850160208301376000918101602001919091529392505050565b6000602082840312156149a657600080fd5b81356001600160401b038111156149bc57600080fd5b61131d84828501614925565b6001600160a01b03929092168252602082015260400190565b60005b838110156149fc5781810151838201526020016149e4565b50506000910152565b60008151808452614a1d8160208601602086016149e1565b601f01601f19169290920160200192915050565b60208152600061076f6020830184614a05565b60008060008060808587031215614a5a57600080fd5b8435614a658161445e565b93506020850135925060408501356147908161445e565b60008060008060808587031215614a9257600080fd5b8435614a9d8161445e565b9350602085013592506040850135614ab4816145d4565b91506060850135614801816145d4565b60008060408385031215614ad757600080fd5b8235614ae28161445e565b915060208301356001600160401b0380821115614afe57600080fd5b9084019060c08287031215614b1257600080fd5b614b1a6144b6565b614b23836145e3565b8152614b31602084016145e3565b6020820152614b42604084016147ae565b6040820152606083013582811115614b5957600080fd5b614b6588828601614925565b606083015250614b7760808401614473565b608082015260a083013582811115614b8e57600080fd5b614b9a88828601614925565b60a0830152508093505050509250929050565b63ffffffff81168114610f8d57600080fd5b600080600060608486031215614bd457600080fd5b8335614bdf8161445e565b9250602084013591506040840135614bf681614bad565b809150509250925092565b600080600060608486031215614c1657600080fd5b8335614c218161445e565b9250602084013591506040840135614bf6816145d4565b6001600160a01b0391909116815260200190565b60006001600160401b03821115614c6557614c656144a0565b5060051b60200190565b600082601f830112614c8057600080fd5b81356020614c95614c9083614c4c565b6144de565b828152600592831b8501820192828201919087851115614cb457600080fd5b8387015b85811015614d535780356001600160401b03811115614cd75760008081fd5b8801603f81018a13614ce95760008081fd5b858101356040614cfb614c9083614c4c565b82815291851b8301810191888101908d841115614d185760008081fd5b938201935b83851015614d425784359250614d328361445e565b8282529389019390890190614d1d565b885250505093850193508401614cb8565b5090979650505050505050565b600080600080600060a08688031215614d7857600080fd5b8535614d83816145d4565b9450602086810135614d948161445e565b945060408701356001600160481b0381168114614db057600080fd5b935060608701356001600160401b0380821115614dcc57600080fd5b818901915089601f830112614de057600080fd5b8135614dee614c9082614c4c565b81815260059190911b8301840190848101908c831115614e0d57600080fd5b938501935b82851015614e34578435614e25816145d4565b82529385019390850190614e12565b965050506080890135925080831115614e4c57600080fd5b5050614e5a88828901614c6f565b9150509295509295909350565b60008060008060608587031215614e7d57600080fd5b8435614e888161445e565b935060208501356001600160401b03811115614ea357600080fd5b614eaf87828801614850565b9094509250506040850135614801816147a0565b634e487b7160e01b600052601160045260246000fd5b8181038181111561060057610600614ec3565b81835281816020850137506000828201602090810191909152601f909101601f19169091010190565b89151581526001600160a01b03898116602083015288811660408301528716606082015260e060808201819052600090614f529083018789614eec565b82810360a0840152614f65818688614eec565b91505082151560c08301529a9950505050505050505050565b600060208284031215614f9057600080fd5b5051919050565b8082018082111561060057610600614ec3565b600060018060a01b038087168352808616602084015280851660408401526080606084015260ff845116608084015260ff60208501511660a08401526040840151151560c0840152606084015160c060e085015261500c610140850182614a05565b60808601519092166101008501525060a0840151838203607f1901610120850152906150388183614a05565b98975050505050505050565b6001600160a01b03878116825286811660208301528516604082015260a0606082018190526000906150799083018587614eec565b90508215156080830152979650505050505050565b6000602082840312156150a057600080fd5b815161076f8161445e565b634e487b7160e01b600052603260045260246000fd5b600082516150d38184602087016149e1565b9190910192915050565b600181811c908216806150f157607f821691505b60208210810361511157634e487b7160e01b600052602260045260246000fd5b50919050565b6000602080838503121561512a57600080fd5b82516001600160401b0381111561514057600080fd5b8301601f8101851361515157600080fd5b805161515f614c9082614c4c565b81815260059190911b8201830190838101908783111561517e57600080fd5b928401925b828410156108a35783516151968161450e565b82529284019290840190615183565b600060a082840312156151b757600080fd5b60405160a081018181106001600160401b03821117156151d9576151d96144a0565b60405282516151e781614bad565b815260208301516151f781614bad565b6020820152604083015161520a81614bad565b6040820152606083015161521d81614bad565b6060820152608083015161523081614bad565b60808201529392505050565b60008151808452602080850194506020840160005b8381101561465b57815160030b87529582019590820190600101615251565b6020815260018060a01b038251166020820152602082015160408201526000604083015160a060608401526152a860c084018261523c565b90506060840151151560808401526080840151151560a08401528091505092915050565b6001600160a01b039485168152602081019390935292166040820152606081019190915260800190565b6001600160a01b038681168252602082018690528416604082015260a0606082018190526000906153299083018561480c565b90508260808301529695505050505050565b60ff861681526001600160a01b03851660208201526001600160481b038416604082015260a06060820181905260009061537790830185614627565b82810360808401526150388185614666565b805160030b8252602081015160030b6020830152604081015160030b6040830152606081015160030b60608301525050565b6001600160a01b03851681526020810184905260ff8316604082015260e081016107c26060830184615389565b808202811582820484141761060057610600614ec3565b6001600160a01b038581168252602082018590528316604082015260e081016107c26060830184615389565b60006020828403121561543d57600080fd5b815161076f816147a0565b6000602080838503121561545b57600080fd5b82516001600160401b0381111561547157600080fd5b8301601f8101851361548257600080fd5b8051615490614c9082614c4c565b81815260059190911b820183019083810190878311156154af57600080fd5b928401925b828410156108a35783516154c7816145d4565b825292840192908401906154b4565b6000602082840312156154e857600080fd5b815161076f816145d4565b60ff818116838216019081111561060057610600614ec3565b60006020828403121561551e57600080fd5b81516001600160401b038116811461076f57600080fd5b60018060a01b03841681528260208201526060604082015260006107c2606083018461523c565b634e487b7160e01b600052601260045260246000fd5b6000826155815761558161555c565b500490565b6000826155955761559561555c565b500690565b634e487b7160e01b600052603160045260246000fdfe22573091f17911fb166032a3d9e0554aa73d31b7b7ddea4a4dd2995650af84bda264697066735822122009ec02333641ad3d44e5f2f0630f3c5a398f5400ee66eda26062e0b44f5aa6a664736f6c63430008170033",
  "libraries": {
    "HeroLib": "0xa6805c19eaE24E9915B437D02f4BF45881793026",
    "HeroControllerLib": "0x85596740537F57825C80A2422fea97b974aDB315"
  },
  "devdoc": {
    "errors": {
      "InvalidInitialization()": [
        {
          "details": "The contract is already initialized."
        }
      ],
      "NotInitializing()": [
        {
          "details": "The contract is not initializing."
        }
      ]
    },
    "events": {
      "Initialized(uint64)": {
        "details": "Triggered when the contract has been initialized or reinitialized."
      }
    },
    "kind": "dev",
    "methods": {
      "created()": {
        "returns": {
          "_0": "Creation timestamp"
        }
      },
      "createdBlock()": {
        "returns": {
          "_0": "Creation block number"
        }
      },
      "increaseRevision(address)": {
        "details": "Revision should be increased on each contract upgrade"
      },
      "isController(address)": {
        "details": "Return true if given address is controller"
      },
      "killedBosses(address,uint256,uint8,uint8)": {
        "returns": {
          "_0": "time stamp of the moment when the boss of the given biome at the given NG_LEVEL was killed by the hero"
        }
      },
      "previousImplementation()": {
        "details": "Previous logic implementation"
      },
      "reborn(address,uint256)": {
        "details": "Approve to controller is required if the hero is post-paid and upgrade to pre-paid is available. The hero is upgraded to tier=1 always"
      },
      "revision()": {
        "details": "Contract upgrade counter"
      },
      "setTier(uint8,address,uint72,uint8[],address[][])": {
        "params": {
          "payAmount": "Limited by uint72, see remarks to IHeroController.HeroInfo"
        }
      }
    },
    "version": 1
  },
  "userdoc": {
    "kind": "user",
    "methods": {
      "CONTROLLABLE_VERSION()": {
        "notice": "Version of the contract"
      },
      "VERSION()": {
        "notice": "Version of the contract"
      },
      "beforeTokenTransfer(address,uint256)": {
        "notice": "Check if transfer is allowed and increment counter of transfers for the hero"
      },
      "controller()": {
        "notice": "Return controller address saved in the contract slot"
      },
      "create(address,string,bool)": {
        "notice": "Create a hero in tier 1. Deprecated, use {createHero} instead"
      },
      "createWithRefCode(address,string,string,bool)": {
        "notice": "Create a hero in tier 1 with given {refCode}. Deprecated, use {createHero} instead"
      },
      "created()": {
        "notice": "Return creation timestamp"
      },
      "createdBlock()": {
        "notice": "Return creation block number"
      },
      "isGovernance(address)": {
        "notice": "Return true if given address is setup as governance in Controller"
      },
      "maxOpenedNgLevel()": {
        "notice": "Max value of NG_LEVEL opened by any heroes"
      },
      "resetLifeAndMana(address,uint256)": {
        "notice": "Life => 1, mana => 0"
      },
      "softKill(address,uint256,bool,bool)": {
        "notice": "Take off all items from the hero, reduce life to 1. The hero is NOT burnt. Optionally reduce mana to zero and/or decrease life chance."
      }
    },
    "version": 1
  },
  "storageLayout": {
    "storage": [],
    "types": null
  }
}