{
  "address": "0xa6805c19eaE24E9915B437D02f4BF45881793026",
  "abi": [
    {
      "inputs": [],
      "name": "BASE_AMOUNT_LEVEL_UP",
      "outputs": [
        {
          "internalType": "uint256",
          "name": "",
          "type": "uint256"
        }
      ],
      "stateMutability": "view",
      "type": "function"
    },
    {
      "inputs": [],
      "name": "KILL_PENALTY",
      "outputs": [
        {
          "internalType": "uint256",
          "name": "",
          "type": "uint256"
        }
      ],
      "stateMutability": "view",
      "type": "function"
    },
    {
      "inputs": [],
      "name": "TIER_1",
      "outputs": [
        {
          "internalType": "uint8",
          "name": "",
          "type": "uint8"
        }
      ],
      "stateMutability": "view",
      "type": "function"
    },
    {
      "inputs": [],
      "name": "TIER_2",
      "outputs": [
        {
          "internalType": "uint8",
          "name": "",
          "type": "uint8"
        }
      ],
      "stateMutability": "view",
      "type": "function"
    },
    {
      "inputs": [],
      "name": "TIER_3",
      "outputs": [
        {
          "internalType": "uint8",
          "name": "",
          "type": "uint8"
        }
      ],
      "stateMutability": "view",
      "type": "function"
    },
    {
      "inputs": [],
      "name": "TIER_DEFAULT",
      "outputs": [
        {
          "internalType": "uint8",
          "name": "",
          "type": "uint8"
        }
      ],
      "stateMutability": "view",
      "type": "function"
    }
  ],
  "transactionHash": "0x978a6d756dcd63b24778cc1fc69b907c1b0b1b5bc63497addf23177776e1da2b",
  "args": [],
  "numDeployments": 34,
  "solcInputHash": "05d369a9a000244b16a46c28e04f97f8",
  "bytecode": "0x60f5610039600b82828239805160001a60731461002c57634e487b7160e01b600052600060045260246000fd5b30600052607381538281f3fe730000000000000000000000000000000000000000301460806040526004361060655760003560e01c80631d2a056114606a5780639dd58485146088578063a2f69a5914608f578063bff5f2ac146096578063d9f20a7f1460b1578063fa13ef2c1460b8575b600080fd5b6071600281565b60405160ff90911681526020015b60405180910390f35b6071600181565b6071600381565b60a4678ac7230489e8000081565b604051908152602001607f565b60a4604681565b607160008156fea2646970667358221220e753ea5b14bd4f062d64dd2c989939d307e67cae8af3497a6118bac38a60982564736f6c63430008170033",
  "devdoc": {
    "kind": "dev",
    "methods": {},
    "stateVariables": {
      "BASE_AMOUNT_LEVEL_UP": {
        "details": "The case: payToken for the hero is changed, postpaid hero makes level up, base amount should be paid."
      },
      "HERO_CONTROLLER_STORAGE_LOCATION": {
        "details": "keccak256(abi.encode(uint256(keccak256(\"hero.controller.main\")) - 1)) & ~bytes32(uint256(0xff))"
      }
    },
    "version": 1
  },
  "userdoc": {
    "kind": "user",
    "methods": {
      "BASE_AMOUNT_LEVEL_UP()": {
        "notice": "Cost of level up in game token, final amount is adjusted by game token price"
      }
    },
    "version": 1
  },
  "storageLayout": {
    "storage": [],
    "types": null
  }
}