{
  "address": "0x9CBb76454606c57CA32B33649514046B8ebF43Db",
  "abi": [
    {
      "inputs": [
        {
          "internalType": "address",
          "name": "item",
          "type": "address"
        }
      ],
      "name": "Consumable",
      "type": "error"
    },
    {
      "inputs": [
        {
          "internalType": "address",
          "name": "sender",
          "type": "address"
        }
      ],
      "name": "ErrorForbidden",
      "type": "error"
    },
    {
      "inputs": [
        {
          "internalType": "address",
          "name": "heroToken",
          "type": "address"
        }
      ],
      "name": "ErrorHeroIsNotRegistered",
      "type": "error"
    },
    {
      "inputs": [
        {
          "internalType": "address",
          "name": "sender",
          "type": "address"
        }
      ],
      "name": "ErrorNotDungeonFactory",
      "type": "error"
    },
    {
      "inputs": [
        {
          "internalType": "address",
          "name": "heroToken",
          "type": "address"
        },
        {
          "internalType": "address",
          "name": "msgSender",
          "type": "address"
        }
      ],
      "name": "ErrorNotHeroOwner",
      "type": "error"
    },
    {
      "inputs": [],
      "name": "ErrorPaused",
      "type": "error"
    },
    {
      "inputs": [
        {
          "internalType": "int256",
          "name": "value",
          "type": "int256"
        }
      ],
      "name": "IntOutOfRange",
      "type": "error"
    },
    {
      "inputs": [],
      "name": "ItemEquipped",
      "type": "error"
    },
    {
      "inputs": [],
      "name": "LengthsMismatch",
      "type": "error"
    },
    {
      "inputs": [
        {
          "internalType": "address",
          "name": "item",
          "type": "address"
        }
      ],
      "name": "NotConsumable",
      "type": "error"
    },
    {
      "inputs": [
        {
          "internalType": "address",
          "name": "sender",
          "type": "address"
        }
      ],
      "name": "NotEOA",
      "type": "error"
    },
    {
      "inputs": [],
      "name": "RequirementsToItemAttributes",
      "type": "error"
    },
    {
      "inputs": [],
      "name": "SameIdsNotAllowed",
      "type": "error"
    },
    {
      "inputs": [
        {
          "internalType": "address",
          "name": "heroToken",
          "type": "address"
        },
        {
          "internalType": "uint256",
          "name": "heroId",
          "type": "uint256"
        }
      ],
      "name": "Staked",
      "type": "error"
    },
    {
      "inputs": [
        {
          "internalType": "uint8",
          "name": "augmentationLevel",
          "type": "uint8"
        }
      ],
      "name": "TooHighAgLevel",
      "type": "error"
    },
    {
      "inputs": [
        {
          "internalType": "uint256",
          "name": "value",
          "type": "uint256"
        }
      ],
      "name": "TooHighValue",
      "type": "error"
    },
    {
      "inputs": [],
      "name": "UseForbiddenZeroPayToken",
      "type": "error"
    },
    {
      "inputs": [],
      "name": "ZeroAugmentation",
      "type": "error"
    },
    {
      "inputs": [],
      "name": "ZeroDurability",
      "type": "error"
    },
    {
      "inputs": [],
      "name": "ZeroValue",
      "type": "error"
    },
    {
      "anonymous": false,
      "inputs": [
        {
          "indexed": false,
          "internalType": "address",
          "name": "item",
          "type": "address"
        },
        {
          "indexed": false,
          "internalType": "uint256",
          "name": "itemId",
          "type": "uint256"
        },
        {
          "indexed": false,
          "internalType": "uint256",
          "name": "consumedItemId",
          "type": "uint256"
        },
        {
          "indexed": false,
          "internalType": "uint8",
          "name": "augLevel",
          "type": "uint8"
        },
        {
          "components": [
            {
              "internalType": "uint8[]",
              "name": "attributesIds",
              "type": "uint8[]"
            },
            {
              "internalType": "int32[]",
              "name": "attributesValues",
              "type": "int32[]"
            },
            {
              "components": [
                {
                  "internalType": "enum IItemController.AttackType",
                  "name": "aType",
                  "type": "uint8"
                },
                {
                  "internalType": "int32",
                  "name": "min",
                  "type": "int32"
                },
                {
                  "internalType": "int32",
                  "name": "max",
                  "type": "int32"
                },
                {
                  "components": [
                    {
                      "internalType": "int32",
                      "name": "strength",
                      "type": "int32"
                    },
                    {
                      "internalType": "int32",
                      "name": "dexterity",
                      "type": "int32"
                    },
                    {
                      "internalType": "int32",
                      "name": "vitality",
                      "type": "int32"
                    },
                    {
                      "internalType": "int32",
                      "name": "energy",
                      "type": "int32"
                    }
                  ],
                  "internalType": "struct IStatController.CoreAttributes",
                  "name": "attributeFactors",
                  "type": "tuple"
                }
              ],
              "internalType": "struct IItemController.AttackInfo",
              "name": "attackInfo",
              "type": "tuple"
            },
            {
              "internalType": "uint8[]",
              "name": "casterIds",
              "type": "uint8[]"
            },
            {
              "internalType": "int32[]",
              "name": "casterValues",
              "type": "int32[]"
            },
            {
              "internalType": "uint8[]",
              "name": "targetIds",
              "type": "uint8[]"
            },
            {
              "internalType": "int32[]",
              "name": "targetValues",
              "type": "int32[]"
            }
          ],
          "indexed": false,
          "internalType": "struct IItemController.AugmentInfo",
          "name": "info",
          "type": "tuple"
        }
      ],
      "name": "Augmented",
      "type": "event"
    },
    {
      "anonymous": false,
      "inputs": [
        {
          "indexed": false,
          "internalType": "address",
          "name": "item",
          "type": "address"
        },
        {
          "indexed": false,
          "internalType": "uint256",
          "name": "itemId",
          "type": "uint256"
        }
      ],
      "name": "Destroyed",
      "type": "event"
    },
    {
      "anonymous": false,
      "inputs": [
        {
          "indexed": false,
          "internalType": "address",
          "name": "item",
          "type": "address"
        },
        {
          "indexed": false,
          "internalType": "uint256",
          "name": "itemId",
          "type": "uint256"
        },
        {
          "indexed": false,
          "internalType": "uint256",
          "name": "consumedItemId",
          "type": "uint256"
        },
        {
          "indexed": false,
          "internalType": "uint16",
          "name": "baseDurability",
          "type": "uint16"
        }
      ],
      "name": "ItemRepaired",
      "type": "event"
    },
    {
      "anonymous": false,
      "inputs": [
        {
          "indexed": false,
          "internalType": "address",
          "name": "item",
          "type": "address"
        },
        {
          "indexed": false,
          "internalType": "uint256",
          "name": "itemId",
          "type": "uint256"
        },
        {
          "indexed": false,
          "internalType": "uint256",
          "name": "consumedItemId",
          "type": "uint256"
        },
        {
          "indexed": false,
          "internalType": "uint8",
          "name": "augLevel",
          "type": "uint8"
        }
      ],
      "name": "NotAugmented",
      "type": "event"
    },
    {
      "anonymous": false,
      "inputs": [
        {
          "indexed": false,
          "internalType": "address",
          "name": "item",
          "type": "address"
        },
        {
          "indexed": false,
          "internalType": "uint256",
          "name": "itemId",
          "type": "uint256"
        },
        {
          "indexed": false,
          "internalType": "uint256",
          "name": "newDurability",
          "type": "uint256"
        }
      ],
      "name": "ReduceDurability",
      "type": "event"
    },
    {
      "anonymous": false,
      "inputs": [
        {
          "indexed": false,
          "internalType": "address",
          "name": "item",
          "type": "address"
        },
        {
          "indexed": false,
          "internalType": "uint256",
          "name": "itemId",
          "type": "uint256"
        },
        {
          "indexed": false,
          "internalType": "address",
          "name": "heroToken",
          "type": "address"
        },
        {
          "indexed": false,
          "internalType": "uint256",
          "name": "heroTokenId",
          "type": "uint256"
        },
        {
          "indexed": false,
          "internalType": "uint8",
          "name": "itemSlot",
          "type": "uint8"
        },
        {
          "indexed": false,
          "internalType": "address",
          "name": "destination",
          "type": "address"
        }
      ],
      "name": "TakenOff",
      "type": "event"
    },
    {
      "anonymous": false,
      "inputs": [
        {
          "indexed": false,
          "internalType": "address",
          "name": "item",
          "type": "address"
        },
        {
          "indexed": false,
          "internalType": "uint256",
          "name": "tokenId",
          "type": "uint256"
        },
        {
          "indexed": false,
          "internalType": "address",
          "name": "heroToken",
          "type": "address"
        },
        {
          "indexed": false,
          "internalType": "uint256",
          "name": "heroTokenId",
          "type": "uint256"
        }
      ],
      "name": "Used",
      "type": "event"
    },
    {
      "inputs": [
        {
          "internalType": "address",
          "name": "item",
          "type": "address"
        },
        {
          "internalType": "uint256",
          "name": "itemId",
          "type": "uint256"
        }
      ],
      "name": "score",
      "outputs": [
        {
          "internalType": "uint256",
          "name": "",
          "type": "uint256"
        }
      ],
      "stateMutability": "view",
      "type": "function"
    }
  ],
  "transactionHash": "0x4a8f9e8340e93d7e8f5b05af261238495b26cd62d2445b4c35c16ddea302b542",
  "args": [],
  "numDeployments": 4,
  "solcInputHash": "ab128610a613a12ee3464e154c92869f",
  "bytecode": "0x613f1361003a600b82828239805160001a60731461002d57634e487b7160e01b600052600060045260246000fd5b30600052607381538281f3fe730000000000000000000000000000000000000000301460806040526004361061006c5760003560e01c80630244c7ef1461007157806334d9da65146100935780637401edba146100b3578063c1336c97146100d8578063c4be6cb4146100f8578063dfd41dfb14610118575b600080fd5b81801561007d57600080fd5b5061009161008c3660046135c8565b610138565b005b81801561009f57600080fd5b506100916100ae36600461364c565b610609565b6100c66100c13660046136ba565b610b52565b60405190815260200160405180910390f35b8180156100e457600080fd5b506100916100f33660046136e6565b610c12565b81801561010457600080fd5b50610091610113366004613746565b610de9565b81801561012457600080fd5b5061009161013336600461364c565b611303565b6101418761141a565b61014c84848761143d565b60006101566114db565b90506000876001600160a01b0316628e96916040518163ffffffff1660e01b8152600401602060405180830381865afa158015610197573d6000803e3d6000fd5b505050506040513d601f19601f820116820180604052508101906101bb91906137ae565b90506000886001600160a01b031663016dff5d6040518163ffffffff1660e01b8152600401602060405180830381865afa1580156101fd573d6000803e3d6000fd5b505050506040513d601f19601f8201168201806040525081019061022191906137ae565b90506000816001600160a01b031663a13cf106876040518263ffffffff1660e01b815260040161025191906137cb565b6040805180830381865afa15801561026d573d6000803e3d6000fd5b505050506040513d601f19601f8201168201806040525081019061029191906137df565b5090506001600160a01b0381166102bb576040516325ff1f5f60e21b815260040160405180910390fd5b6102c88a838b89896114ff565b6001600160a01b03881660009081526002850160205260408120546102ec90611715565b90508060400151600c8111156103045761030461380d565b60ff1615610330578860405163171d4bb560e01b815260040161032791906137cb565b60405180910390fd5b610341848888846101000151611726565b60405163138e914f60e11b81526001600160a01b038881166004830152602482018890528a8116604483015285169063271d229e90606401600060405180830381600087803b15801561039357600080fd5b505af11580156103a7573d6000803e3d6000fd5b50505050836001600160a01b031663afb1a9ed88886103ec8960060160008f6001600160a01b03166001600160a01b0316815260200190815260200160002054611811565b604080516001600160e01b031960e087901b1681526001600160a01b0390941660048501526024840192909252805163ffffffff908116604485015260208201518116606485015291810151821660848401526060810151821660a4840152608001511660c4820152600160e482015261010401600060405180830381600087803b15801561047a57600080fd5b505af115801561048e573d6000803e3d6000fd5b505050506001600160a01b03891660009081526005860160209081526040808320805482518185028101850190935280835291929091908301828280156104f457602002820191906000526020600020905b8154815260200190600101908083116104e0575b50505050509050805160001461059a57600061050f82611916565b6040805160a0810182526001600160a01b038c81168252602082018c905281830184905260016060830181905260808301529151634ffa2edf60e11b815292935090881691639ff45dbe9161056691600401613862565b600060405180830381600087803b15801561058057600080fd5b505af1158015610594573d6000803e3d6000fd5b50505050505b6105a48a8a61193a565b604080516001600160a01b03808d168252602082018c90528a1691810191909152606081018890527ff1f1eb1e7ff49bd9762762b9f568220c821456dbf31ce29687137cb19c4cd356906080015b60405180910390a150505050505050505050505050565b60006106136114db565b9050600080610627838a8a8a8a8a8a6119d1565b8151919350915060ff166003190161065457856040516327f46c4f60e01b815260040161032791906137cb565b600a816020015160ff1610610687576020810151604051630b1a2ddd60e31b815260ff9091166004820152602401610327565b610691868561193a565b60006106a1848a898b6002611b3e565b90506001600160a01b0381166106ca57604051637eb9811b60e01b815260040160405180910390fd5b6709b6e64a8ec60000896001600160a01b0316637dc0d1d06040518163ffffffff1660e01b8152600401602060405180830381865afa158015610711573d6000803e3d6000fd5b505050506040513d601f19601f8201168201806040525081019061073591906137ae565b6040516337347e0560e11b8152670de0b6b3a76400006004820152600060248201526001600160a01b039190911690636e68fc0a906044016020604051808303816000875af115801561078c573d6000803e3d6000fd5b505050506040513d601f19601f820116820180604052508101906107b091906138be565b1015610ae5576107be613443565b60006107d36001600160a01b038a1689611cbe565b6000818152600c88016020908152604091829020805483518184028101840190945280845293945061083c93909183018282801561083057602002820191906000526020600020905b81548152602001906001019080831161081c575b50505050506001611d0e565b808452602084018290526108509190611e07565b6000828152600c88016020908152604090912082516108759391929190910190613486565b50845160ff166001190161090f576000818152600f8701602052604090205461089d90612065565b60408301819052602001516108b190612111565b82604001516020019060030b908160030b815250506108d7826040015160400151612111565b82604001516040019060030b908160030b815250506108f98260400151612185565b6000828152600f88016020526040902055610a61565b845160ff1660021901610a61576000818152600d87016020908152604091829020805483518184028101840190945280845261097f9392830182828015610830576020028201919060005260206000209081548152602001906001019080831161081c5750505050506001611d0e565b60608401819052608084018290526109979190611e07565b6000828152600d88016020908152604090912082516109bc9391929190910190613486565b506000818152600e870160209081526040918290208054835181840281018401909452808452610a229392830182828015610a1657602002820191906000526020600020905b815481526020019060010190808311610a02575b50505050506000611d0e565b60a0840181905260c08401829052610a3a9190611e07565b6000828152600e8801602090815260409091208251610a5f9391929190910190613486565b505b6020840151610a719060016138ed565b60ff166020850152610a8284612217565b86600a016000838152602001908152602001600020819055507f1db56059595d20d4bf27bb8520ad32deabe14f9503a113eea7e75391137d2e79898989876020015186604051610ad6959493929190613999565b60405180910390a15050610b46565b610aef878761193a565b602080830151604080516001600160a01b038b168152928301899052820187905260ff1660608201527faab8f05ee857b52318d8925d90dcc8cafae83a1cb25512d8511ac4c76a3e779a9060800160405180910390a15b50505050505050505050565b6000610c09610bd3610b626114db565b600c016000610b718787611cbe565b8152602001908152602001600020805480602002602001604051908101604052809291908181526020018280548015610bc957602002820191906000526020600020905b815481526020019060010190808311610bb5575b5050505050611916565b610c00610bde6114db565b6001600160a01b03871660009081526002919091016020526040902054611715565b6060015161225d565b90505b92915050565b826001600160a01b0316846001600160a01b03166389dd9f136040518163ffffffff1660e01b8152600401602060405180830381865afa158015610c5a573d6000803e3d6000fd5b505050506040513d601f19601f82011682018060405250810190610c7e91906137ae565b6001600160a01b031614158015610d085750826001600160a01b0316846001600160a01b031663524a562f6040518163ffffffff1660e01b8152600401602060405180830381865afa158015610cd8573d6000803e3d6000fd5b505050506040513d601f19601f82011682018060405250810190610cfc91906137ae565b6001600160a01b031614155b8015610d8957506040516331a9108f60e11b8152600481018290526001600160a01b038085169190841690636352211e90602401602060405180830381865afa158015610d59573d6000803e3d6000fd5b505050506040513d601f19601f82011682018060405250810190610d7d91906137ae565b6001600160a01b031614155b15610da9578260405163f652640360e01b815260040161032791906137cb565b610dbb610db46114db565b8383612281565b15610dd957604051630a87219960e21b815260040160405180910390fd5b610de3828261193a565b50505050565b6000856001600160a01b031663683fedf76040518163ffffffff1660e01b8152600401602060405180830381865afa158015610e29573d6000803e3d6000fd5b505050506040513d601f19601f82011682018060405250810190610e4d91906137ae565b9050846001600160a01b0316816001600160a01b031614610e83578460405163cf219bef60e01b815260040161032791906137cb565b6000610e8d6114db565b9050610ede6040518060c00160405280606081526020016060815260200160006001600160a01b0316815260200160006001600160a01b03168152602001600061ffff168152602001600081525090565b6040516317c5c15b60e31b81526001600160a01b0384169063be2e0ad890610f0c9089908990600401613a92565b600060405180830381865afa158015610f29573d6000803e3d6000fd5b505050506040513d6000823e601f3d908101601f19168201604052610f519190810190613af1565b8160000181905250876001600160a01b0316628e96916040518163ffffffff1660e01b8152600401602060405180830381865afa158015610f96573d6000803e3d6000fd5b505050506040513d601f19601f82011682018060405250810190610fba91906137ae565b6001600160a01b031660408083018290525163fbed9ac560e01b815263fbed9ac590610fec9089908990600401613a92565b600060405180830381865afa158015611009573d6000803e3d6000fd5b505050506040513d6000823e601f3d908101601f191682016040526110319190810190613af1565b602082015260005b8160200151518110156112f857600c60ff168260200151828151811061106157611061613ba2565b602002602001015160ff1614801561109657508151805160009061108757611087613ba2565b602002602001015160ff166000145b806110ee5750600d60ff16826020015182815181106110b7576110b7613ba2565b602002602001015160ff161480156110ee57508151805160019081106110df576110df613ba2565b602002602001015160ff166000145b806111465750600e60ff168260200151828151811061110f5761110f613ba2565b602002602001015160ff16148015611146575081518051600290811061113757611137613ba2565b602002602001015160ff166000145b6112f05761120c82604001516001600160a01b0316633bdb788b89898660200151868151811061117857611178613ba2565b60209081029190910101516040516001600160e01b031960e086901b1681526001600160a01b0390931660048401526001600160401b03909116602483015260ff166044820152606401602060405180830381865afa1580156111df573d6000803e3d6000fd5b505050506040513d601f19601f8201168201806040525081019061120391906138be565b9060a082901c90565b60a084018190526001600160a01b03909116606084018190526112359185919060ff89166122b6565b61ffff16608083018190526000036112f0576112f083836040015184606001518560a001518b8b8860200151888151811061127257611272613ba2565b60200260200101518e6001600160a01b0316636352211e8f6040518263ffffffff1660e01b81526004016112a891815260200190565b602060405180830381865afa1580156112c5573d6000803e3d6000fd5b505050506040513d601f19601f820116820180604052508101906112e991906137ae565b60006123b1565b600101611039565b505050505050505050565b600061130d6114db565b9050600080611321838a8a8a8a8a8a6119d1565b91509150816060015161ffff1660000361134e576040516331bbe31b60e11b815260040160405180910390fd5b611358868561193a565b6113668389888a6001611b3e565b50606082015161ffff16604082015261137e81612217565b600a840160006113976001600160a01b038a1689611cbe565b8152602001908152602001600020819055507fde16350403f256cc67aeea6a71567d525e5f2856e1faf79c8de707ed6d4f4e26868686856060015160405161140794939291906001600160a01b039490941684526020840192909252604083015261ffff16606082015260800190565b60405180910390a1505050505050505050565b8061143a57336040516377817ac360e01b815260040161032791906137cb565b50565b6040516331a9108f60e11b8152600481018390526001600160a01b038083169190851690636352211e90602401602060405180830381865afa158015611487573d6000803e3d6000fd5b505050506040513d601f19601f820116820180604052508101906114ab91906137ae565b6001600160a01b0316146114d657828160405163c8e98f8960e01b8152600401610327929190613bb8565b505050565b7fe78a2879cd91c3f7b62ea14e72546fed47c40919bca4daada532a5fa05ac670090565b61150a82828561143d565b846001600160a01b0316632f91ede96040518163ffffffff1660e01b8152600401602060405180830381865afa158015611548573d6000803e3d6000fd5b505050506040513d601f19601f8201168201806040525081019061156c91906137ae565b6001600160a01b0316635451da1b83836040518363ffffffff1660e01b8152600401611599929190613a92565b602060405180830381865afa1580156115b6573d6000803e3d6000fd5b505050506040513d601f19601f820116820180604052508101906115da9190613bd2565b156115fc578181604051634f38de4760e11b8152600401610327929190613a92565b846001600160a01b03166318d928316040518163ffffffff1660e01b8152600401602060405180830381865afa15801561163a573d6000803e3d6000fd5b505050506040513d601f19601f8201168201806040525081019061165e9190613bd2565b1561167c57604051635e1633d360e11b815260040160405180910390fd5b604051631789b7b160e01b81526001600160a01b03851690631789b7b1906116a89085906004016137cb565b602060405180830381865afa1580156116c5573d6000803e3d6000fd5b505050506040513d601f19601f820116820180604052508101906116e99190613bef565b60ff1660000361170e578160405163adc7fced60e01b815260040161032791906137cb565b5050505050565b61171d6134d1565b610c0c82612709565b604051630fba6a5960e11b81526000906001600160a01b03861690631f74d4b2906117579087908790600401613a92565b608060405180830381865afa158015611774573d6000803e3d6000fd5b505050506040513d601f19601f820116820180604052508101906117989190613c1e565b9050806000015160030b826000015160030b13806117c35750806020015160030b826020015160030b135b806117db5750806040015160030b826040015160030b135b806117f35750806060015160030b826060015160030b135b1561170e57604051637e2b537360e11b815260040160405180910390fd5b6040805160a08101825260008082526020820181905291810182905260608101829052608081018290529061184583612807565b90506040518060a001604052808260008151811061186557611865613ba2565b602002602001015163ffffffff1681526020018260018151811061188b5761188b613ba2565b602002602001015163ffffffff168152602001826002815181106118b1576118b1613ba2565b602002602001015163ffffffff168152602001826003815181106118d7576118d7613ba2565b602002602001015163ffffffff168152602001826004815181106118fd576118fd613ba2565b602002602001015163ffffffff16815250915050919050565b606060008061192484612883565b915091506119328282612b74565b949350505050565b604051630852cd8d60e31b8152600481018290526001600160a01b038316906342966c6890602401600060405180830381600087803b15801561197c57600080fd5b505af1158015611990573d6000803e3d6000fd5b505050507f789ec66f21698ed1b990c0a8a8be99cf6f5fb8eb3826ee4ee9384870e8db25b182826040516119c5929190613a92565b60405180910390a15050565b6119d96134d1565b6119e1613522565b6119ea8861141a565b828403611a0a5760405163501056cd60e01b815260040160405180910390fd5b611a1585858861143d565b611a2085848861143d565b6001600160a01b038516600090815260028a016020526040902054611a4490611715565b9150611a76600a8a016000611a626001600160a01b03891688611cbe565b815260200190815260200160002054612c1b565b9050611a83898686612281565b80611a945750611a94898685612281565b15611ab257604051630a87219960e21b815260040160405180910390fd5b866001600160a01b03166318d928316040518163ffffffff1660e01b8152600401602060405180830381865afa158015611af0573d6000803e3d6000fd5b505050506040513d601f19601f82011682018060405250810190611b149190613bd2565b15611b3257604051635e1633d360e11b815260040160405180910390fd5b97509795505050505050565b6001600160a01b038381166000908152600387016020526040812054909160a082901c90821615611cb3576000876001600160a01b03166361d027b36040518163ffffffff1660e01b8152600401602060405180830381865afa158015611ba9573d6000803e3d6000fd5b505050506040513d601f19601f82011682018060405250810190611bcd91906137ae565b6040516323b872dd60e01b81529091506001600160a01b038416906323b872dd90611c0090899030908790600401613c9a565b6020604051808303816000875af1158015611c1f573d6000803e3d6000fd5b505050506040513d601f19601f82011682018060405250810190611c439190613bd2565b50611c4f838383612c84565b6040516331df992360e11b81526001600160a01b038216906363bf324690611c7f90869086908a90600401613cbe565b600060405180830381600087803b158015611c9957600080fd5b505af1158015611cad573d6000803e3d6000fd5b50505050505b509695505050505050565b60006001600160401b03821115611ceb57604051633995b34160e01b815260048101839052602401610327565b5067ffffffffffffffff60a01b60a09190911b166001600160a01b039091161790565b606080611d1a84612883565b909250905060005b8251811015611dff576018828281518110611d3f57611d3f613ba2565b602002602001015160ff160315611df757838015611d7957506000838281518110611d6c57611d6c613ba2565b602002602001015160030b135b80611da9575083158015611da957506000838281518110611d9c57611d9c613ba2565b602002602001015160030b125b15611df757611dd0838281518110611dc357611dc3613ba2565b6020026020010151612111565b838281518110611de257611de2613ba2565b602002602001019060030b908160030b815250505b600101611d22565b509250929050565b60608151835114611e2b5760405163586cb9e160e01b815260040160405180910390fd5b600060088451611e3b9190613d09565b611e46906001613d2b565b90506000816001600160401b03811115611e6257611e62613aab565b604051908082528060200260200182016040528015611e8b578160200160208202803683370190505b50905060005b8281101561205c5760005b600881101561205357600081611eb3846008613d3e565b611ebd9190613d2b565b905087518110611ecd5750612053565b627fffff60020b888281518110611ee657611ee6613ba2565b602002602001015160030b1380611f1f5750627fffff1960020b888281518110611f1257611f12613ba2565b602002602001015160030b125b15611f5d57878181518110611f3657611f36613ba2565b602002602001015160030b604051632eb1d06960e01b815260040161032791815260200190565b878181518110611f6f57611f6f613ba2565b602002602001015160030b600003611f9a57604051637c946ed760e01b815260040160405180910390fd5b611fa5826020613d3e565b888281518110611fb757611fb7613ba2565b602002602001015162ffffff1660001b901b848481518110611fdb57611fdb613ba2565b602002602001018181511791508181525050816020611ffa9190613d3e565b612005906018613d2b565b87828151811061201757612017613ba2565b602002602001015160ff1660001b901b84848151811061203957612039613ba2565b602090810291909101018051909117905250600101611e9c565b50600101611e91565b50949350505050565b61206d613544565b612075613569565b60a883901c600390810b6060830152608884901c810b604080840191909152606885901c820b602080850191909152604886901c830b8452602886901c830b91850191909152600885901c90910b908301528260ff811660058111156120dd576120dd61380d565b839060058111156120f0576120f061380d565b908160058111156121035761210361380d565b905250506060820152919050565b60008160030b60000361212657506000919050565b60008260030b131561215c5761215261214b6121448460030b612d6e565b6005612d9d565b6001612de2565b610c0c9083613d55565b61217661214b61214461216e85613d7c565b60030b612d6e565b610c0c9083613d9f565b919050565b6000610c0c826000015160058111156121a0576121a061380d565b6020848101516040808701516060808901518051958101519381015191015160ff9690961660089490941b64ffffffff00169390931760289190911b63ffffffff60281b161760489390931b600c0b9290921760689290921b60100b9190911760889190911b60140b1760a89190911b60180b1790565b6000610c0c826000015160068111156122325761223261380d565b6020840151604085015160ff9290921660089190911b61ff00161760109190911b63ffff0000161790565b600061226e600161ffff8416613d3e565b61227784612df8565b610c099190613d2b565b600080600b85018161229c6001600160a01b03871686611cbe565b815260200190815260200160002054141590509392505050565b6001600160a01b038316600090815260028501602052604081205481906122dc90611715565b905060006122fb600a880182611a626001600160a01b038a1689611cbe565b905061231984826040015161ffff1684602001518560400151613388565b61ffff81166040830152925061232e81612217565b600a880160006123476001600160a01b038a1689611cbe565b815260208082019290925260409081016000209290925581516001600160a01b038916815290810187905261ffff85168183015290517fc908941e7b4ba5cafc0301345d054e70cacd43a6dae9abfbf2a4157259c686939181900360600190a15050949350505050565b60006123c66001600160a01b03891688611cbe565b6001600160a01b038916600090815260028c016020526040812054919250906123ee90611715565b6000838152600a8d0160205260408120549192509061240c90612c1b565b90508160400151600c8111156124245761242461380d565b60000361244657896040516327f46c4f60e01b815260040161032791906137cb565b8a6001600160a01b031663906f0ced89898560400151600c81111561246d5761246d61380d565b6040516001600160e01b031960e086901b1681526001600160a01b0393841660048201526001600160401b039092166024830152604482015260ff8a166064820152908d16608482015260a481018c9052600060c482015260e401600060405180830381600087803b1580156124e257600080fd5b505af11580156124f6573d6000803e3d6000fd5b505050508315612522576000604082015261251081612217565b6000848152600a8e0160205260409020555b6000838152600c8d01602090815260408083208054825181850281018501909352808352919290919083018282801561257a57602002820191906000526020600020905b815481526020019060010190808311612566575b505050505090508051600014612625578b6001600160a01b0316639ff45dbe6040518060a001604052808c6001600160a01b031681526020018b81526020016125c285611916565b8152600060208201819052604091820152516001600160e01b031960e084901b1681526125f29190600401613862565b600060405180830381600087803b15801561260c57600080fd5b505af1158015612620573d6000803e3d6000fd5b505050505b6000848152600b8e0160205260408082209190915551630ee8df4560e31b81526001600160a01b038c1690637746fa2890612668908c908a908f90600401613c9a565b600060405180830381600087803b15801561268257600080fd5b505af1158015612696573d6000803e3d6000fd5b505050507fd26bc924e2dd5a06c95c625446278e313e22ec09b4f606842d4a603b9dcb795e8b8b8b8b8b8b6040516105f2969594939291906001600160a01b03968716815260208101959095529285166040850152606084019190915260ff16608083015290911660a082015260c00190565b6127116134d1565b6127196134d1565b60ff8084168252600884901c81166020830152601084901c16600c8111156127435761274361380d565b8160400190600c8111156127595761275961380d565b9081600c81111561276c5761276c61380d565b905250601883901c61ffff16606082810191909152602884901c60ff908116608080850191909152603086901c821660c080860191909152603887901c90921660e0850152604086811c63ffffffff1660a0808701919091526101008601805189871c600390810b9091528151948a901c810b6020959095019490945280519189901c840b9190920152519590911c900b9301929092525090565b604080516008808252610120820190925260609160009190602082016101008036833701905050905060005b600881101561287c57612847816020613d3e565b8460001c901c82828151811061285f5761285f613ba2565b63ffffffff90921660209283029190910190910152600101612833565b5092915050565b805160609081906000612897826008613d3e565b90506000816001600160401b038111156128b3576128b3613aab565b6040519080825280602002602001820160405280156128dc578160200160208202803683370190505b5090506000826001600160401b038111156128f9576128f9613aab565b604051908082528060200260200182016040528015612922578160200160208202803683370190505b5090506000805b85811015612a4f5760005b6008811015612a465760008161294b846008613d3e565b6129559190613d2b565b9050612962826020613d3e565b8b848151811061297457612974613ba2565b602002602001015160001c901c60020b86828151811061299657612996613ba2565b60039290920b6020928302919091018201526129b3908390613d3e565b6129be906018613d2b565b8b84815181106129d0576129d0613ba2565b602002602001015160001c901c8582815181106129ef576129ef613ba2565b602002602001019060ff16908160ff1681525050858181518110612a1557612a15613ba2565b602002602001015160030b600003612a2d5750612a46565b83612a3781613dc6565b94505050806001019050612934565b50600101612929565b50806001600160401b03811115612a6857612a68613aab565b604051908082528060200260200182016040528015612a91578160200160208202803683370190505b509650806001600160401b03811115612aac57612aac613aab565b604051908082528060200260200182016040528015612ad5578160200160208202803683370190505b50955060005b81811015612b6957838181518110612af557612af5613ba2565b6020026020010151888281518110612b0f57612b0f613ba2565b602002602001019060030b908160030b81525050828181518110612b3557612b35613ba2565b6020026020010151878281518110612b4f57612b4f613ba2565b60ff90921660209283029190910190910152600101612adb565b505050505050915091565b60408051602b8082526105808201909252606091602082016105608036833701905050905060005b835181101561287c576000848281518110612bb957612bb9613ba2565b602002602001015190508060030b600014612c12578083858481518110612be257612be2613ba2565b602002602001015160ff1681518110612bfd57612bfd613ba2565b602002602001019060030b908160030b815250505b50600101612b9c565b612c23613522565b61ffff601083901c16604082015260ff600883901c81166020830152829081166006811115612c5457612c5461380d565b82906006811115612c6757612c6761380d565b90816006811115612c7a57612c7a61380d565b8152505050919050565b604051636eb1769f60e11b815282906001600160a01b0385169063dd62ed3e90612cb49030908690600401613bb8565b602060405180830381865afa158015612cd1573d6000803e3d6000fd5b505050506040513d601f19601f82011682018060405250810190612cf591906138be565b10156114d65760405163095ea7b360e01b81526001600160a01b0384169063095ea7b390612d2b90849060001990600401613a92565b6020604051808303816000875af1158015612d4a573d6000803e3d6000fd5b505050506040513d601f19601f82011682018060405250810190610de39190613bd2565b6000808260030b1215612d8357506000919050565b60008260030b13612d9657506000919050565b5060030b90565b600081600003612db857612db18284613d09565b9050610c0c565b8215612dd957816001840381612dd057612dd0613cf3565b04600101610c09565b50600092915050565b6000818311612df15781610c09565b5090919050565b600080600a612e37612e278560045b81518110612e1757612e17613ba2565b602002602001015160030b612d6e565b612e32866005612e07565b613428565b612e419190613d3e565b6101f4612e4f856008612e07565b612e599190613d3e565b600a612e66866007612e07565b612e709190613d3e565b6003612e7d876006612e07565b612e879190613d3e565b6064612e94886003612e07565b612e9e9190613d3e565b6064612eab896002612e07565b612eb59190613d3e565b6064612ec28a6001612e07565b612ecc9190613d3e565b6064612ed98b6000612e07565b612ee39190613d3e565b612eed9190613d2b565b612ef79190613d2b565b612f019190613d2b565b612f0b9190613d2b565b612f159190613d2b565b612f1f9190613d2b565b612f299190613d2b565b612f339082613d2b565b90506064612f4284600d612e07565b612f4c9190613d3e565b6064612f5985600c612e07565b612f639190613d3e565b6064612f7086600b612e07565b612f7a9190613d3e565b600a612f868782612e07565b612f909190613d3e565b600a612f9d886009612e07565b612fa79190613d3e565b612fb19190613d2b565b612fbb9190613d2b565b612fc59190613d2b565b612fcf9190613d2b565b612fd99082613d2b565b90506014612fe8846015612e07565b612ff29190613d3e565b6014612ffe8582612e07565b6130089190613d3e565b6014613015866013612e07565b61301f9190613d3e565b601461302c876012612e07565b6130369190613d3e565b6014613043886011612e07565b61304d9190613d3e565b601461305a896010612e07565b6130649190613d3e565b60146130718a600f612e07565b61307b9190613d3e565b60146130888b600e612e07565b6130929190613d3e565b61309c9190613d2b565b6130a69190613d2b565b6130b09190613d2b565b6130ba9190613d2b565b6130c49190613d2b565b6130ce9190613d2b565b6130d89190613d2b565b6130e29082613d2b565b905060646130f1846029612e07565b6130fb9190613d3e565b6064613108856026612e07565b6131129190613d3e565b606461311f866025612e07565b6131299190613d3e565b6064613136876024612e07565b6131409190613d3e565b606461314d886023612e07565b6131579190613d3e565b6064613164896022612e07565b61316e9190613d3e565b6131789190613d2b565b6131829190613d2b565b61318c9190613d2b565b6131969190613d2b565b6131a09190613d2b565b6131aa9082613d2b565b905060c86131b984601d612e07565b6131c39190613d3e565b60c86131d085601c612e07565b6131da9190613d3e565b60c86131e786601b612e07565b6131f19190613d3e565b60c86131fe87601a612e07565b6132089190613d3e565b6096613215886019612e07565b61321f9190613d3e565b61012c61322d896017612e07565b6132379190613d3e565b6127106132458a6016612e07565b61324f9190613d3e565b6132599190613d2b565b6132639190613d2b565b61326d9190613d2b565b6132779190613d2b565b6132819190613d2b565b61328b9190613d2b565b6132959082613d2b565b905060466132a484602a612e07565b6132ae9190613d3e565b60fa6132bb856028612e07565b6132c59190613d3e565b60fa6132d2866027612e07565b6132dc9190613d3e565b6101f46132ea876021612e07565b6132f49190613d3e565b6103e8613302886020612e07565b61330c9190613d3e565b6103e861331a89601f612e07565b6133249190613d3e565b60c86133318a601e612e07565b61333b9190613d3e565b6133459190613d2b565b61334f9190613d2b565b6133599190613d2b565b6133639190613d2b565b61336d9190613d2b565b6133779190613d2b565b6133819082613d2b565b9392505050565b60006003600b83600c8111156133a0576133a061380d565b146134065760006133b5600560ff8716613d09565b6133c0906001613d2b565b905086811015613404576002806133d7838a613ddf565b6133e2906001613d2b565b6133ec9190613ece565b6133f69190613d09565b613401906003613d3e565b91505b505b80851161341457600061341e565b61341e8186613ddf565b9695505050505050565b60006134376002848418613d09565b610c0990848416613d2b565b6040518060e001604052806060815260200160608152602001613464613544565b8152602001606081526020016060815260200160608152602001606081525090565b8280548282559060005260206000209081019282156134c1579160200282015b828111156134c15782518255916020019190600101906134a6565b506134cd929150613590565b5090565b60408051610120810182526000808252602082018190529091820190815260006020820181905260408201819052606082018190526080820181905260a082015260c00161351d613569565b905290565b6040805160608101909152806000815260006020820181905260409091015290565b60408051608081019091528060008152600060208201819052604082015260600161351d5b60408051608081018252600080825260208201819052918101829052606081019190915290565b5b808211156134cd5760008155600101613591565b801515811461143a57600080fd5b6001600160a01b038116811461143a57600080fd5b600080600080600080600060e0888a0312156135e357600080fd5b87356135ee816135a5565b965060208801356135fe816135b3565b9550604088013561360e816135b3565b9450606088013561361e816135b3565b93506080880135925060a0880135613635816135b3565b8092505060c0880135905092959891949750929550565b60008060008060008060c0878903121561366557600080fd5b8635613670816135a5565b95506020870135613680816135b3565b94506040870135613690816135b3565b935060608701356136a0816135b3565b9598949750929560808101359460a0909101359350915050565b600080604083850312156136cd57600080fd5b82356136d8816135b3565b946020939093013593505050565b600080600080608085870312156136fc57600080fd5b8435613707816135b3565b93506020850135613717816135b3565b92506040850135613727816135b3565b9396929550929360600135925050565b60ff8116811461143a57600080fd5b600080600080600060a0868803121561375e57600080fd5b8535613769816135b3565b94506020860135613779816135b3565b93506040860135613789816135b3565b92506060860135915060808601356137a081613737565b809150509295509295909350565b6000602082840312156137c057600080fd5b8151613381816135b3565b6001600160a01b0391909116815260200190565b600080604083850312156137f257600080fd5b82516137fd816135b3565b6020939093015192949293505050565b634e487b7160e01b600052602160045260246000fd5b60008151808452602080850194506020840160005b8381101561385757815160030b87529582019590820190600101613838565b509495945050505050565b6020815260018060a01b038251166020820152602082015160408201526000604083015160a0606084015261389a60c0840182613823565b90506060840151151560808401526080840151151560a08401528091505092915050565b6000602082840312156138d057600080fd5b5051919050565b634e487b7160e01b600052601160045260246000fd5b60ff8181168382160190811115610c0c57610c0c6138d7565b60008151808452602080850194506020840160005b8381101561385757815160ff168752958201959082019060010161391b565b80516006811061394c5761394c61380d565b8252602081810151600390810b82850152604080840151820b818601526060938401518051830b8587015292830151820b6080860152820151810b60a0850152910151900b60c090910152565b60018060a01b038616815284602082015283604082015260ff8316606082015260a06080820152600082516101a060a08401526139da610240840182613906565b90506020840151609f19808584030160c08601526139f88383613823565b925060408601519150613a0e60e086018361393a565b6060860151915080858403016101c0860152613a2a8383613906565b92506080860151915080858403016101e0860152613a488383613823565b925060a086015191508085840301610200860152613a668383613906565b925060c08601519150808584030161022086015250613a858282613823565b9998505050505050505050565b6001600160a01b03929092168252602082015260400190565b634e487b7160e01b600052604160045260246000fd5b604051601f8201601f191681016001600160401b0381118282101715613ae957613ae9613aab565b604052919050565b60006020808385031215613b0457600080fd5b82516001600160401b0380821115613b1b57600080fd5b818501915085601f830112613b2f57600080fd5b815181811115613b4157613b41613aab565b8060051b9150613b52848301613ac1565b8181529183018401918481019088841115613b6c57600080fd5b938501935b83851015613b965784519250613b8683613737565b8282529385019390850190613b71565b98975050505050505050565b634e487b7160e01b600052603260045260246000fd5b6001600160a01b0392831681529116602082015260400190565b600060208284031215613be457600080fd5b8151613381816135a5565b600060208284031215613c0157600080fd5b815161338181613737565b8051600381900b811461218057600080fd5b600060808284031215613c3057600080fd5b604051608081018181106001600160401b0382111715613c5257613c52613aab565b604052613c5e83613c0c565b8152613c6c60208401613c0c565b6020820152613c7d60408401613c0c565b6040820152613c8e60608401613c0c565b60608201529392505050565b6001600160a01b039384168152919092166020820152604081019190915260600190565b6001600160a01b0384168152602081018390526060810160058310613ce557613ce561380d565b826040830152949350505050565b634e487b7160e01b600052601260045260246000fd5b600082613d2657634e487b7160e01b600052601260045260246000fd5b500490565b80820180821115610c0c57610c0c6138d7565b8082028115828204841417610c0c57610c0c6138d7565b600381810b9083900b01637fffffff8113637fffffff1982121715610c0c57610c0c6138d7565b60008160030b637fffffff198103613d9657613d966138d7565b60000392915050565b600382810b9082900b03637fffffff198112637fffffff82131715610c0c57610c0c6138d7565b600060018201613dd857613dd86138d7565b5060010190565b81810381811115610c0c57610c0c6138d7565b600181815b80851115611dff578160001904821115613e1357613e136138d7565b80851615613e2057918102915b93841c9390800290613df7565b600082613e3c57506001610c0c565b81613e4957506000610c0c565b8160018114613e5f5760028114613e6957613e85565b6001915050610c0c565b60ff841115613e7a57613e7a6138d7565b50506001821b610c0c565b5060208310610133831016604e8410600b8410161715613ea8575081810a610c0c565b613eb28383613df2565b8060001904821115613ec657613ec66138d7565b029392505050565b6000610c0960ff841683613e2d56fea264697066735822122033998fa022afbe8c5f11dbfbe9180a073eb5522fbfd36131c489c8308048b71364736f6c63430008170033",
  "libraries": {},
  "devdoc": {
    "kind": "dev",
    "methods": {},
    "stateVariables": {
      "AUGMENT_FACTOR": {
        "details": "should be 20%"
      },
      "MAIN_STORAGE_LOCATION": {
        "details": "keccak256(abi.encode(uint256(keccak256(\"item.controller.main\")) - 1)) & ~bytes32(uint256(0xff))"
      }
    },
    "version": 1
  },
  "userdoc": {
    "kind": "user",
    "methods": {
      "augment(bool,IController,address,address,uint256,uint256)": {
        "notice": "Destroy {consumed item} to augment given {item}. There is a chance of 30% that the item will be destroyed instead of augmentation."
      },
      "reduceEquippedItemsDurability(IController,address,address,uint256,uint8)": {
        "notice": "Reduce durability of all equipped items except items of SKILL-type."
      },
      "repairDurability(bool,IController,address,address,uint256,uint256)": {
        "notice": "Destroy {consumed item} to repair durability of the {item}"
      },
      "use(bool,IController,address,address,uint256,address,uint256)": {
        "notice": "Use consumable item to temporally increase bonus attributes and destroy the item"
      }
    },
    "version": 1
  },
  "storageLayout": {
    "storage": [],
    "types": null
  }
}