{
  "address": "0xdB3eb5370d642CF68B38D78a3E202fe72D17ed17",
  "abi": [
    {
      "inputs": [
        {
          "internalType": "address",
          "name": "pawnShop_",
          "type": "address"
        },
        {
          "internalType": "address",
          "name": "gameToken_",
          "type": "address"
        }
      ],
      "stateMutability": "nonpayable",
      "type": "constructor"
    },
    {
      "inputs": [
        {
          "internalType": "address",
          "name": "deployed",
          "type": "address"
        }
      ],
      "name": "AlreadyDeployed",
      "type": "error"
    },
    {
      "inputs": [],
      "name": "ZeroAddress",
      "type": "error"
    },
    {
      "anonymous": false,
      "inputs": [
        {
          "indexed": false,
          "internalType": "address",
          "name": "pawnShop",
          "type": "address"
        },
        {
          "indexed": false,
          "internalType": "address",
          "name": "gameToken",
          "type": "address"
        },
        {
          "indexed": false,
          "internalType": "address",
          "name": "routerOwner",
          "type": "address"
        },
        {
          "indexed": false,
          "internalType": "address",
          "name": "deployed",
          "type": "address"
        }
      ],
      "name": "PawnShopRouterDeployed",
      "type": "event"
    },
    {
      "inputs": [],
      "name": "VERSION",
      "outputs": [
        {
          "internalType": "string",
          "name": "",
          "type": "string"
        }
      ],
      "stateMutability": "view",
      "type": "function"
    },
    {
      "inputs": [
        {
          "internalType": "address",
          "name": "user",
          "type": "address"
        }
      ],
      "name": "deployRouter",
      "outputs": [],
      "stateMutability": "nonpayable",
      "type": "function"
    },
    {
      "inputs": [],
      "name": "gameToken",
      "outputs": [
        {
          "internalType": "address",
          "name": "",
          "type": "address"
        }
      ],
      "stateMutability": "view",
      "type": "function"
    },
    {
      "inputs": [],
      "name": "pawnShop",
      "outputs": [
        {
          "internalType": "address",
          "name": "",
          "type": "address"
        }
      ],
      "stateMutability": "view",
      "type": "function"
    },
    {
      "inputs": [
        {
          "internalType": "address",
          "name": "user",
          "type": "address"
        }
      ],
      "name": "router",
      "outputs": [
        {
          "internalType": "address",
          "name": "router",
          "type": "address"
        }
      ],
      "stateMutability": "view",
      "type": "function"
    }
  ],
  "transactionHash": "0xe4d5ac5bd4d2596a3486b70b8f61559b8d4520e4094a8486c2f0a0ddff0d5dd9",
  "args": [
    "0xfc0a5E585Ddc9bD07D5513848d1232b00F9e8264",
    "0xe4436821E403e78a6Dd62f7a9F5611f97a18f44C"
  ],
  "numDeployments": 1,
  "solcInputHash": "d9ffe6b6ea34889802b7fb760a8d08cb",
  "bytecode": "0x60c060405234801561001057600080fd5b50604051612c95380380612c9583398101604081905261002f9161009d565b6001600160a01b038216158061004c57506001600160a01b038116155b1561006a5760405163d92e233d60e01b815260040160405180910390fd5b6001600160a01b039182166080521660a0526100d0565b80516001600160a01b038116811461009857600080fd5b919050565b600080604083850312156100b057600080fd5b6100b983610081565b91506100c760208401610081565b90509250929050565b60805160a051612b8661010f60003960008181609e015281816101bf015261029401526000818160610152818161019e01526102720152612b866000f3fe608060405234801561001057600080fd5b50600436106100575760003560e01c8063b784a4971461005c578063c3dfdae614610099578063e2a1bd4e146100c0578063e4b643e3146100d5578063ffa1ad74146100fe575b600080fd5b6100837f000000000000000000000000000000000000000000000000000000000000000081565b60405161009091906102d6565b60405180910390f35b6100837f000000000000000000000000000000000000000000000000000000000000000081565b6100d36100ce3660046102ea565b61012f565b005b6100836100e33660046102ea565b6000602081905290815260409020546001600160a01b031681565b610122604051806040016040528060058152602001640312e302e360dc1b81525081565b604051610090919061031a565b6001600160a01b0381166101565760405163d92e233d60e01b815260040160405180910390fd5b6001600160a01b0380821660009081526020819052604090205416801561019b57806040516329ab51bf60e01b815260040161019291906102d6565b60405180910390fd5b307f00000000000000000000000000000000000000000000000000000000000000007f0000000000000000000000000000000000000000000000000000000000000000846040516101eb906102c9565b6101f89493929190610369565b604051809103906000f080158015610214573d6000803e3d6000fd5b506001600160a01b038381166000908152602081905260409081902080546001600160a01b03191692841692909217909155519091507f38540df229fbabf3d176dfb78f1b8174d9a93eb70dcf74fd90a2c61d042520dd906102bd907f0000000000000000000000000000000000000000000000000000000000000000907f00000000000000000000000000000000000000000000000000000000000000009086908690610369565b60405180910390a15050565b6127bc8061039583390190565b6001600160a01b0391909116815260200190565b6000602082840312156102fc57600080fd5b81356001600160a01b038116811461031357600080fd5b9392505050565b60006020808352835180602085015260005b818110156103485785810183015185820160400152820161032c565b506000604082860101526040601f19601f8301168501019250505092915050565b6001600160a01b0394851681529284166020840152908316604083015290911660608201526080019056fe6101006040523480156200001257600080fd5b50604051620027bc380380620027bc833981016040819052620000359162000153565b6001600160a01b03841615806200005357506001600160a01b038316155b806200006657506001600160a01b038216155b806200007957506001600160a01b038116155b15620000985760405163d92e233d60e01b815260040160405180910390fd5b6001600160a01b0384811660805282811660c081905284821660a081905291831660e05260405163095ea7b360e01b81526004810192909252600160ff1b60248301529063095ea7b3906044016020604051808303816000875af115801562000105573d6000803e3d6000fd5b505050506040513d601f19601f820116820180604052508101906200012b9190620001b0565b5050505050620001db565b80516001600160a01b03811681146200014e57600080fd5b919050565b600080600080608085870312156200016a57600080fd5b620001758562000136565b9350620001856020860162000136565b9250620001956040860162000136565b9150620001a56060860162000136565b905092959194509250565b600060208284031215620001c357600080fd5b81518015158114620001d457600080fd5b9392505050565b60805160a05160c05160e05161250d620002af600039600081816101b901528181610312015281816103c0015281816104690152818161065901528181610701015281816107b1015261088b0152600081816102a0015281816103910152818161043a0152818161062a015281816106d201528181610782015261085c01526000818161025e015281816103620152818161040b015281816104af015281816104e4015281816105fb015281816106a301528181610753015281816107f2015261082d015260006102c7015261250d6000f3fe608060405234801561001057600080fd5b50600436106100f65760003560e01c80637189983f116100925780637189983f14610220578063aa820e3014610233578063b7760c8f14610246578063b784a49714610259578063bbda23e414610280578063c1d7ee9214610288578063c3dfdae61461029b578063c45a0155146102c2578063ffa1ad74146102e957600080fd5b8063150b7a02146100fb5780631b8b921d146101375780631e3cd4041461014c5780632742d6441461015f578063378de45b146101725780633a58ad8d146101935780634f8632ba146101b4578063572b6c05146101e857806370bf11941461020b575b600080fd5b610119610109366004611b41565b630a85bd0160e11b949350505050565b6040516001600160e01b031990911681526020015b60405180910390f35b61014a610145366004611bac565b61030d565b005b61014a61015a366004611bfb565b610352565b61014a61016d366004611ccf565b6103fb565b610185610180366004611d20565b6104a7565b60405161012e929190611d39565b6101a66101a1366004611d20565b6104dd565b60405190815260200161012e565b6101db7f000000000000000000000000000000000000000000000000000000000000000081565b60405161012e9190611d52565b6101fb6101f6366004611d66565b61050f565b604051901515815260200161012e565b61021361055d565b60405161012e9190611dd3565b61014a61022e366004611ccf565b6105eb565b61014a610241366004611de6565b610693565b61014a610254366004611edc565b610743565b6101db7f000000000000000000000000000000000000000000000000000000000000000081565b6101a66107eb565b6101a6610296366004611f01565b61081b565b6101db7f000000000000000000000000000000000000000000000000000000000000000081565b6101db7f000000000000000000000000000000000000000000000000000000000000000081565b61021360405180604001604052806005815260200164312e302e3160d81b81525081565b6103407f00000000000000000000000000000000000000000000000000000000000000006103396108bc565b84846108de565b60009061034d9082611fbf565b505050565b61034d60405180606001604052807f00000000000000000000000000000000000000000000000000000000000000006001600160a01b031681526020017f00000000000000000000000000000000000000000000000000000000000000006001600160a01b031681526020017f00000000000000000000000000000000000000000000000000000000000000006001600160a01b03168152506103f36108bc565b85858561097d565b6104a360405180606001604052807f00000000000000000000000000000000000000000000000000000000000000006001600160a01b031681526020017f00000000000000000000000000000000000000000000000000000000000000006001600160a01b031681526020017f00000000000000000000000000000000000000000000000000000000000000006001600160a01b031681525061049c6108bc565b8484610a3f565b5050565b6000806104d47f000000000000000000000000000000000000000000000000000000000000000084610c1e565b91509150915091565b60006105097f000000000000000000000000000000000000000000000000000000000000000083610cfb565b92915050565b60006001600160a01b03821673d8253782c45a12053594b9deb72d8e8ab2fca54c148061050957506001600160a01b0382167352ceba41da235af367bfc0b0ccd3314cb901bb5f1492915050565b6000805461056a90611f3d565b80601f016020809104026020016040519081016040528092919081815260200182805461059690611f3d565b80156105e35780601f106105b8576101008083540402835291602001916105e3565b820191906000526020600020905b8154815290600101906020018083116105c657829003601f168201915b505050505081565b6104a360405180606001604052807f00000000000000000000000000000000000000000000000000000000000000006001600160a01b031681526020017f00000000000000000000000000000000000000000000000000000000000000006001600160a01b031681526020017f00000000000000000000000000000000000000000000000000000000000000006001600160a01b031681525061068c6108bc565b8484610d74565b61073d60405180606001604052807f00000000000000000000000000000000000000000000000000000000000000006001600160a01b031681526020017f00000000000000000000000000000000000000000000000000000000000000006001600160a01b031681526020017f00000000000000000000000000000000000000000000000000000000000000006001600160a01b03168152506107346108bc565b8686868661107b565b50505050565b6104a360405180606001604052807f00000000000000000000000000000000000000000000000000000000000000006001600160a01b031681526020017f00000000000000000000000000000000000000000000000000000000000000006001600160a01b031681526020017f00000000000000000000000000000000000000000000000000000000000000006001600160a01b03168152506107e46108bc565b8484611483565b60006108167f000000000000000000000000000000000000000000000000000000000000000061154c565b905090565b600061050960405180606001604052807f00000000000000000000000000000000000000000000000000000000000000006001600160a01b031681526020017f00000000000000000000000000000000000000000000000000000000000000006001600160a01b031681526020017f00000000000000000000000000000000000000000000000000000000000000006001600160a01b0316815250836115ba565b60006108c73361050f565b156108d9575060131936013560601c90565b503390565b60606108ea848661160b565b6000836001600160a01b031683604051610904919061207e565b6000604051808303816000865af19150503d8060008114610941576040519150601f19603f3d011682016040523d82523d6000602084013e610946565b606091505b509250905080610974578160405163a5fa8d2b60e01b815260040161096b9190611dd3565b60405180910390fd5b50949350505050565b61098b84866040015161160b565b60405163a9059cbb60e01b81526001600160a01b0384169063a9059cbb906109b99084908690600401611d39565b6020604051808303816000875af11580156109d8573d6000803e3d6000fd5b505050506040513d601f19601f820116820180604052508101906109fc91906120aa565b507f0661ce452aa0a13f47c93bb193363973d51bb9664404a6f6e1ce817d082dea29838383604051610a30939291906120c5565b60405180910390a15050505050565b610a4d83856040015161160b565b8351825160005b81811015610bdc576000836001600160a01b031663eb02c301878481518110610a7f57610a7f6120e8565b60200260200101516040518263ffffffff1660e01b8152600401610aa591815260200190565b61028060405180830381865afa158015610ac3573d6000803e3d6000fd5b505050506040513d601f19601f82011682018060405250810190610ae79190612252565b9050836001600160a01b031663a126d601878481518110610b0a57610b0a6120e8565b60200260200101516040518263ffffffff1660e01b8152600401610b3091815260200190565b600060405180830381600087803b158015610b4a57600080fd5b505af1158015610b5e573d6000803e3d6000fd5b5050505060e081015180516060909101516040516323b872dd60e01b81526001600160a01b03909216916323b872dd91610b9e9130918a9160040161230c565b600060405180830381600087803b158015610bb857600080fd5b505af1158015610bcc573d6000803e3d6000fd5b5050505050806001019050610a54565b507f73ebb0c261bcb022f9442dff3e06c47787cf88f7bdaf9f1d39801266e19630fc8484604051610c0e92919061236c565b60405180910390a1505050505050565b600080836001600160a01b031663db2dbb446040518163ffffffff1660e01b8152600401602060405180830381865afa158015610c5f573d6000803e3d6000fd5b505050506040513d601f19601f82011682018060405250810190610c839190612396565b83856001600160a01b03166398584c0f6040518163ffffffff1660e01b8152600401602060405180830381865afa158015610cc2573d6000803e3d6000fd5b505050506040513d601f19601f82011682018060405250810190610ce691906123b3565b610cf091906123e2565b915091509250929050565b6040516302c0601960e11b81526000906001600160a01b03841690630580c03290610d2c9030908690600401611d39565b602060405180830381865afa158015610d49573d6000803e3d6000fd5b505050506040513d601f19601f82011682018060405250810190610d6d91906123b3565b9392505050565b610d8283856040015161160b565b835182516000816001600160401b03811115610da057610da0611a41565b604051908082528060200260200182016040528015610dd957816020015b610dc6611928565b815260200190600190039081610dbe5790505b5090506000805b83811015610e6057610e0b89888381518110610dfe57610dfe6120e8565b602002602001015161163f565b838281518110610e1d57610e1d6120e8565b6020026020010181905250828181518110610e3a57610e3a6120e8565b602002602001015161010001516020015182610e5691906123f9565b9150600101610de0565b5087602001516001600160a01b03166323b872dd8830846040518463ffffffff1660e01b8152600401610e959392919061230c565b6020604051808303816000875af1158015610eb4573d6000803e3d6000fd5b505050506040513d601f19601f82011682018060405250810190610ed891906120aa565b5060005b8381101561103757846001600160a01b031663598647f8888381518110610f0557610f056120e8565b6020026020010151858481518110610f1f57610f1f6120e8565b60200260200101516101000151602001516040518363ffffffff1660e01b8152600401610f56929190918252602082015260400190565b600060405180830381600087803b158015610f7057600080fd5b505af1158015610f84573d6000803e3d6000fd5b50505050828181518110610f9a57610f9a6120e8565b602002602001015160e00151600001516001600160a01b03166323b872dd3088868581518110610fcc57610fcc6120e8565b602002602001015160e00151606001516040518463ffffffff1660e01b8152600401610ffa9392919061230c565b600060405180830381600087803b15801561101457600080fd5b505af1158015611028573d6000803e3d6000fd5b50505050806001019050610edc565b507f9ed1012aa23606a118975c1396e31aef3e82a0ae379c4cc6abbd1c403ecec7bc868660405161106992919061236c565b60405180910390a15050505050505050565b61108985876040015161160b565b825182518114158061109c575084518114155b156110ba5760405163586cb9e160e01b815260040160405180910390fd5b600087600001516001600160a01b03166398584c0f6040518163ffffffff1660e01b8152600401602060405180830381865afa1580156110fe573d6000803e3d6000fd5b505050506040513d601f19601f8201168201806040525081019061112291906123b3565b9050801561122857600088600001516001600160a01b031663db2dbb446040518163ffffffff1660e01b8152600401602060405180830381865afa15801561116e573d6000803e3d6000fd5b505050506040513d601f19601f820116820180604052508101906111929190612396565b90506001600160a01b0381166323b872dd89306111af87876123e2565b6040518463ffffffff1660e01b81526004016111cd9392919061230c565b6020604051808303816000875af11580156111ec573d6000803e3d6000fd5b505050506040513d601f19601f8201168201806040525081019061121091906120aa565b506112268161121f85856123e2565b8b51611763565b505b6000826001600160401b0381111561124257611242611a41565b60405190808252806020026020018201604052801561126b578160200160208202803683370190505b50905060005b8381101561143857600088828151811061128d5761128d6120e8565b60200260200101519050806001600160a01b03166323b872dd87308b86815181106112ba576112ba6120e8565b60200260200101516040518463ffffffff1660e01b81526004016112e09392919061230c565b600060405180830381600087803b1580156112fa57600080fd5b505af115801561130e573d6000803e3d6000fd5b50505050611320818c6000015161184f565b8a600001516001600160a01b0316633a5edc548260008b8681518110611348576113486120e8565b60200260200101518f602001518c8881518110611367576113676120e8565b602090810291909101015160405160e087901b6001600160e01b03191681526001600160a01b0395861660048201526024810194909452604484019290925290921660648201526084810191909152600060a4820181905260c4820181905260e4820152610104016020604051808303816000875af11580156113ee573d6000803e3d6000fd5b505050506040513d601f19601f8201168201806040525081019061141291906123b3565b838381518110611424576114246120e8565b602090810291909101015250600101611271565b507fdc0ba8e6af9d6a2318c8ee4dcc198ed3ebcfd722d7d4a37b0c24f0f48ccb201c878787878560405161147095949392919061240c565b60405180910390a1505050505050505050565b61149183856040015161160b565b83602001516001600160a01b031663a9059cbb82846040518363ffffffff1660e01b81526004016114c3929190611d39565b6020604051808303816000875af11580156114e2573d6000803e3d6000fd5b505050506040513d601f19601f8201168201806040525081019061150691906120aa565b507f0661ce452aa0a13f47c93bb193363973d51bb9664404a6f6e1ce817d082dea298460200151838360405161153e939291906120c5565b60405180910390a150505050565b604051624ce3d360e01b81526000906001600160a01b03831690624ce3d390611579903090600401611d52565b602060405180830381865afa158015611596573d6000803e3d6000fd5b505050506040513d601f19601f8201168201806040525081019061050991906123b3565b8051600090815b818110156116035760006115e186868481518110610dfe57610dfe6120e8565b905080610100015160200151846115f891906123f9565b9350506001016115c1565b505092915050565b806001600160a01b0316826001600160a01b0316146104a3578160405163f652640360e01b815260040161096b9190611d52565b611647611928565b825160405163eb02c30160e01b8152600481018490526000916001600160a01b03169063eb02c3019060240161028060405180830381865afa158015611691573d6000803e3d6000fd5b505050506040513d601f19601f820116820180604052508101906116b59190612252565b9050806101000151602001516000036116e457604051633ad994bb60e11b81526004810184905260240161096b565b83602001516001600160a01b0316816101000151600001516001600160a01b0316146117265760405163778f598560e01b81526004810184905260240161096b565b60018160e00151602001516001811115611742576117426124a7565b14610d6d5760405163ed450ff160e01b81526004810184905260240161096b565b604051636eb1769f60e11b815282906001600160a01b0385169063dd62ed3e9061179390309086906004016124bd565b602060405180830381865afa1580156117b0573d6000803e3d6000fd5b505050506040513d601f19601f820116820180604052508101906117d491906123b3565b101561034d5760405163095ea7b360e01b81526001600160a01b0384169063095ea7b39061180c908490600160ff1b90600401611d39565b6020604051808303816000875af115801561182b573d6000803e3d6000fd5b505050506040513d601f19601f8201168201806040525081019061073d91906120aa565b60405163e985e9c560e01b81526001600160a01b0383169063e985e9c59061187d90309085906004016124bd565b602060405180830381865afa15801561189a573d6000803e3d6000fd5b505050506040513d601f19601f820116820180604052508101906118be91906120aa565b6104a35760405163a22cb46560e01b81526001600160a01b0382811660048301526001602483015283169063a22cb46590604401600060405180830381600087803b15801561190c57600080fd5b505af1158015611920573d6000803e3d6000fd5b505050505050565b6040518061014001604052806000815260200160006001600160a01b0316815260200160006001600160a01b03168152602001600081526020016000151581526020016000815260200161199d6040518060800160405280600081526020016000815260200160008152602001600081525090565b81526040805160808101825260008082526020808301829052828401829052606083018290528085019290925282518084018452818152918201529101908152602001611a14604051806080016040528060006001600160a01b031681526020016000815260200160008152602001600081525090565b905290565b6001600160a01b0381168114611a2e57600080fd5b50565b8035611a3c81611a19565b919050565b634e487b7160e01b600052604160045260246000fd5b604051608081016001600160401b0381118282101715611a7957611a79611a41565b60405290565b60405161014081016001600160401b0381118282101715611a7957611a79611a41565b604051601f8201601f191681016001600160401b0381118282101715611aca57611aca611a41565b604052919050565b600082601f830112611ae357600080fd5b81356001600160401b03811115611afc57611afc611a41565b611b0f601f8201601f1916602001611aa2565b818152846020838601011115611b2457600080fd5b816020850160208301376000918101602001919091529392505050565b60008060008060808587031215611b5757600080fd5b8435611b6281611a19565b93506020850135611b7281611a19565b92506040850135915060608501356001600160401b03811115611b9457600080fd5b611ba087828801611ad2565b91505092959194509250565b60008060408385031215611bbf57600080fd5b8235611bca81611a19565b915060208301356001600160401b03811115611be557600080fd5b611bf185828601611ad2565b9150509250929050565b600080600060608486031215611c1057600080fd5b8335611c1b81611a19565b9250602084013591506040840135611c3281611a19565b809150509250925092565b60006001600160401b03821115611c5657611c56611a41565b5060051b60200190565b600082601f830112611c7157600080fd5b81356020611c86611c8183611c3d565b611aa2565b8083825260208201915060208460051b870101935086841115611ca857600080fd5b602086015b84811015611cc45780358352918301918301611cad565b509695505050505050565b60008060408385031215611ce257600080fd5b82356001600160401b03811115611cf857600080fd5b611d0485828601611c60565b9250506020830135611d1581611a19565b809150509250929050565b600060208284031215611d3257600080fd5b5035919050565b6001600160a01b03929092168252602082015260400190565b6001600160a01b0391909116815260200190565b600060208284031215611d7857600080fd5b8135610d6d81611a19565b60005b83811015611d9e578181015183820152602001611d86565b50506000910152565b60008151808452611dbf816020860160208601611d83565b601f01601f19169290920160200192915050565b602081526000610d6d6020830184611da7565b60008060008060808587031215611dfc57600080fd5b84356001600160401b0380821115611e1357600080fd5b818701915087601f830112611e2757600080fd5b81356020611e37611c8183611c3d565b82815260059290921b8401810191818101908b841115611e5657600080fd5b948201945b83861015611e7d578535611e6e81611a19565b82529482019490820190611e5b565b98505088013592505080821115611e9357600080fd5b611e9f88838901611c60565b94506040870135915080821115611eb557600080fd5b50611ec287828801611c60565b925050611ed160608601611a31565b905092959194509250565b60008060408385031215611eef57600080fd5b823591506020830135611d1581611a19565b600060208284031215611f1357600080fd5b81356001600160401b03811115611f2957600080fd5b611f3584828501611c60565b949350505050565b600181811c90821680611f5157607f821691505b602082108103611f7157634e487b7160e01b600052602260045260246000fd5b50919050565b601f82111561034d576000816000526020600020601f850160051c81016020861015611fa05750805b601f850160051c820191505b8181101561192057828155600101611fac565b81516001600160401b03811115611fd857611fd8611a41565b611fec81611fe68454611f3d565b84611f77565b602080601f83116001811461202157600084156120095750858301515b600019600386901b1c1916600185901b178555611920565b600085815260208120601f198616915b8281101561205057888601518255948401946001909101908401612031565b508582101561206e5787850151600019600388901b60f8161c191681555b5050505050600190811b01905550565b60008251612090818460208701611d83565b9190910192915050565b80518015158114611a3c57600080fd5b6000602082840312156120bc57600080fd5b610d6d8261209a565b6001600160a01b0393841681526020810192909252909116604082015260600190565b634e487b7160e01b600052603260045260246000fd5b8051611a3c81611a19565b60006080828403121561211b57600080fd5b612123611a57565b90508151815260208201516020820152604082015160408201526060820151606082015292915050565b60006080828403121561215f57600080fd5b612167611a57565b9050815161217481611a19565b815260208201516002811061218857600080fd5b80602083015250604082015160408201526060820151606082015292915050565b6000604082840312156121bb57600080fd5b604051604081018181106001600160401b03821117156121dd576121dd611a41565b806040525080915082516121f081611a19565b8152602092830151920191909152919050565b60006080828403121561221557600080fd5b61221d611a57565b9050815161222a81611a19565b8082525060208201516020820152604082015160408201526060820151606082015292915050565b6000610280828403121561226557600080fd5b61226d611a7f565b8251815261227d602084016120fe565b602082015261228e604084016120fe565b6040820152606083015160608201526122a96080840161209a565b608082015260a083015160a08201526122c58460c08501612109565b60c08201526122d884610140850161214d565b60e08201526122eb846101c085016121a9565b6101008201526122ff846102008501612203565b6101208201529392505050565b6001600160a01b039384168152919092166020820152604081019190915260600190565b60008151808452602080850194506020840160005b8381101561236157815187529582019590820190600101612345565b509495945050505050565b60408152600061237f6040830185612330565b905060018060a01b03831660208301529392505050565b6000602082840312156123a857600080fd5b8151610d6d81611a19565b6000602082840312156123c557600080fd5b5051919050565b634e487b7160e01b600052601160045260246000fd5b8082028115828204841417610509576105096123cc565b80820180821115610509576105096123cc565b60a0808252865190820181905260009060209060c0840190828a01845b8281101561244e5781516001600160a01b031684529284019290840190600101612429565b50505083810360208501526124638189612330565b91505082810360408401526124788187612330565b6001600160a01b03861660608501528381036080850152905061249b8185612330565b98975050505050505050565b634e487b7160e01b600052602160045260246000fd5b6001600160a01b039283168152911660208201526040019056fea264697066735822122028652835ab111f76a64a51e027f8cf353ec228d4605c77311b862b5655ebe5e864736f6c63430008170033a2646970667358221220567e6ad5b53fbfa433f4d6fb0a18fe447edbdc994cfd59225195429271ff01ae64736f6c63430008170033",
  "devdoc": {
    "kind": "dev",
    "methods": {},
    "stateVariables": {
      "VERSION": {
        "details": "Should be incremented when contract changed"
      }
    },
    "version": 1
  },
  "userdoc": {
    "kind": "user",
    "methods": {
      "VERSION()": {
        "notice": "Version of the contract"
      },
      "deployRouter(address)": {
        "notice": "Deploy {PawnShopRouter} for the given {user}. Any user is allowed to have only one instance of deployed router. Address of the deployed router can be taken through {deployedRouter}"
      },
      "router(address)": {
        "notice": "Deployed instances of PawnShopRouter for the given users"
      }
    },
    "notice": "Factory to deploy personal instances of PawnShopRouter",
    "version": 1
  },
  "storageLayout": {
    "storage": [
      {
        "astId": 63685,
        "contract": "contracts/marketplace/PawnShopRouterFactory.sol:PawnShopRouterFactory",
        "label": "router",
        "offset": 0,
        "slot": "0",
        "type": "t_mapping(t_address,t_address)"
      }
    ],
    "types": {
      "t_address": {
        "encoding": "inplace",
        "label": "address",
        "numberOfBytes": "20"
      },
      "t_mapping(t_address,t_address)": {
        "encoding": "mapping",
        "key": "t_address",
        "label": "mapping(address => address)",
        "numberOfBytes": "32",
        "value": "t_address"
      }
    }
  }
}