{
  "address": "0xf452568Efaf85f8070EE4ac011cF83d45a09e63E",
  "abi": [
    {
      "inputs": [],
      "name": "BiomeAlreadySelected",
      "type": "error"
    },
    {
      "inputs": [
        {
          "internalType": "bytes32",
          "name": "key",
          "type": "bytes32"
        }
      ],
      "name": "EnumerableMapNonexistentKey",
      "type": "error"
    },
    {
      "inputs": [
        {
          "internalType": "address",
          "name": "heroToken",
          "type": "address"
        },
        {
          "internalType": "uint256",
          "name": "heroTokenId",
          "type": "uint256"
        }
      ],
      "name": "ErrorHeroIsDead",
      "type": "error"
    },
    {
      "inputs": [
        {
          "internalType": "address",
          "name": "heroToken",
          "type": "address"
        }
      ],
      "name": "ErrorHeroIsNotRegistered",
      "type": "error"
    },
    {
      "inputs": [
        {
          "internalType": "uint256",
          "name": "biome",
          "type": "uint256"
        }
      ],
      "name": "ErrorIncorrectBiome",
      "type": "error"
    },
    {
      "inputs": [
        {
          "internalType": "uint256",
          "name": "heroLevel",
          "type": "uint256"
        }
      ],
      "name": "ErrorLevelTooLow",
      "type": "error"
    },
    {
      "inputs": [
        {
          "internalType": "address",
          "name": "sender",
          "type": "address"
        }
      ],
      "name": "ErrorNotDeployer",
      "type": "error"
    },
    {
      "inputs": [],
      "name": "ErrorNotGuildController",
      "type": "error"
    },
    {
      "inputs": [
        {
          "internalType": "address",
          "name": "token",
          "type": "address"
        },
        {
          "internalType": "uint256",
          "name": "tokenId",
          "type": "uint256"
        }
      ],
      "name": "ErrorNotOwner",
      "type": "error"
    },
    {
      "inputs": [],
      "name": "ErrorPaused",
      "type": "error"
    },
    {
      "inputs": [
        {
          "internalType": "uint256",
          "name": "right",
          "type": "uint256"
        }
      ],
      "name": "GuildActionForbidden",
      "type": "error"
    },
    {
      "inputs": [],
      "name": "HeroInDungeon",
      "type": "error"
    },
    {
      "inputs": [],
      "name": "HeroWasTransferredBetweenAccounts",
      "type": "error"
    },
    {
      "inputs": [],
      "name": "InvalidInitialization",
      "type": "error"
    },
    {
      "inputs": [],
      "name": "NoDominationRequest",
      "type": "error"
    },
    {
      "inputs": [],
      "name": "NotGuildMember",
      "type": "error"
    },
    {
      "inputs": [],
      "name": "NotInitializing",
      "type": "error"
    },
    {
      "inputs": [],
      "name": "PvpFightOpponentNotFound",
      "type": "error"
    },
    {
      "inputs": [],
      "name": "PvpHeroHasInitializedFight",
      "type": "error"
    },
    {
      "inputs": [],
      "name": "PvpHeroNotRegistered",
      "type": "error"
    },
    {
      "inputs": [],
      "name": "SandboxModeNotAllowed",
      "type": "error"
    },
    {
      "inputs": [
        {
          "internalType": "address",
          "name": "heroToken",
          "type": "address"
        },
        {
          "internalType": "uint256",
          "name": "heroId",
          "type": "uint256"
        }
      ],
      "name": "Staked",
      "type": "error"
    },
    {
      "inputs": [
        {
          "internalType": "uint256",
          "name": "value",
          "type": "uint256"
        }
      ],
      "name": "TooHighValue",
      "type": "error"
    },
    {
      "inputs": [],
      "name": "TooLowGuildLevel",
      "type": "error"
    },
    {
      "inputs": [],
      "name": "UnknownPvpStrategy",
      "type": "error"
    },
    {
      "inputs": [
        {
          "internalType": "uint8",
          "name": "biome",
          "type": "uint8"
        }
      ],
      "name": "UserHasRegisteredPvpHeroInBiome",
      "type": "error"
    },
    {
      "inputs": [
        {
          "internalType": "uint256",
          "name": "week",
          "type": "uint256"
        }
      ],
      "name": "UserNotAllowedForPvpInCurrentEpoch",
      "type": "error"
    },
    {
      "inputs": [],
      "name": "ZeroAddress",
      "type": "error"
    },
    {
      "anonymous": false,
      "inputs": [
        {
          "indexed": false,
          "internalType": "address",
          "name": "user",
          "type": "address"
        },
        {
          "indexed": false,
          "internalType": "uint8",
          "name": "biome",
          "type": "uint8"
        },
        {
          "indexed": false,
          "internalType": "uint256",
          "name": "guildId",
          "type": "uint256"
        },
        {
          "indexed": false,
          "internalType": "uint32",
          "name": "week",
          "type": "uint32"
        }
      ],
      "name": "AddBiomeRequest",
      "type": "event"
    },
    {
      "anonymous": false,
      "inputs": [
        {
          "indexed": false,
          "internalType": "address",
          "name": "controller",
          "type": "address"
        },
        {
          "indexed": false,
          "internalType": "uint256",
          "name": "ts",
          "type": "uint256"
        },
        {
          "indexed": false,
          "internalType": "uint256",
          "name": "block",
          "type": "uint256"
        }
      ],
      "name": "ContractInitialized",
      "type": "event"
    },
    {
      "anonymous": false,
      "inputs": [
        {
          "indexed": false,
          "internalType": "uint8",
          "name": "biome",
          "type": "uint8"
        },
        {
          "indexed": false,
          "internalType": "uint32",
          "name": "week",
          "type": "uint32"
        }
      ],
      "name": "FirstPvpEpoch",
      "type": "event"
    },
    {
      "anonymous": false,
      "inputs": [
        {
          "indexed": false,
          "internalType": "uint64",
          "name": "version",
          "type": "uint64"
        }
      ],
      "name": "Initialized",
      "type": "event"
    },
    {
      "anonymous": false,
      "inputs": [
        {
          "indexed": false,
          "internalType": "uint48",
          "name": "fightId",
          "type": "uint48"
        },
        {
          "indexed": false,
          "internalType": "uint32",
          "name": "week",
          "type": "uint32"
        },
        {
          "indexed": false,
          "internalType": "address",
          "name": "hero",
          "type": "address"
        },
        {
          "indexed": false,
          "internalType": "uint256",
          "name": "heroId",
          "type": "uint256"
        },
        {
          "indexed": false,
          "internalType": "uint256",
          "name": "heroGuildId",
          "type": "uint256"
        },
        {
          "indexed": false,
          "internalType": "address",
          "name": "opponentHero",
          "type": "address"
        },
        {
          "indexed": false,
          "internalType": "uint256",
          "name": "opponentHeroId",
          "type": "uint256"
        },
        {
          "indexed": false,
          "internalType": "uint256",
          "name": "opponentGuildId",
          "type": "uint256"
        }
      ],
      "name": "PreparePvpFight",
      "type": "event"
    },
    {
      "anonymous": false,
      "inputs": [
        {
          "indexed": false,
          "internalType": "address",
          "name": "user",
          "type": "address"
        },
        {
          "indexed": false,
          "internalType": "uint256",
          "name": "guildId",
          "type": "uint256"
        },
        {
          "indexed": false,
          "internalType": "address",
          "name": "hero",
          "type": "address"
        },
        {
          "indexed": false,
          "internalType": "uint256",
          "name": "heroId",
          "type": "uint256"
        },
        {
          "indexed": false,
          "internalType": "uint256",
          "name": "week",
          "type": "uint256"
        },
        {
          "indexed": false,
          "internalType": "uint8",
          "name": "biome",
          "type": "uint8"
        }
      ],
      "name": "PvpHeroAdded",
      "type": "event"
    },
    {
      "anonymous": false,
      "inputs": [
        {
          "indexed": false,
          "internalType": "address",
          "name": "user",
          "type": "address"
        },
        {
          "indexed": false,
          "internalType": "uint256",
          "name": "guildId",
          "type": "uint256"
        },
        {
          "indexed": false,
          "internalType": "uint256",
          "name": "week",
          "type": "uint256"
        },
        {
          "indexed": false,
          "internalType": "uint8",
          "name": "biome",
          "type": "uint8"
        },
        {
          "indexed": false,
          "internalType": "address",
          "name": "hero",
          "type": "address"
        },
        {
          "indexed": false,
          "internalType": "uint256",
          "name": "heroId",
          "type": "uint256"
        },
        {
          "indexed": false,
          "internalType": "bool",
          "name": "manuallyRemoved",
          "type": "bool"
        }
      ],
      "name": "PvpHeroRemoved",
      "type": "event"
    },
    {
      "anonymous": false,
      "inputs": [
        {
          "indexed": false,
          "internalType": "uint256",
          "name": "value",
          "type": "uint256"
        },
        {
          "indexed": false,
          "internalType": "address",
          "name": "oldLogic",
          "type": "address"
        }
      ],
      "name": "RevisionIncreased",
      "type": "event"
    },
    {
      "anonymous": false,
      "inputs": [
        {
          "indexed": false,
          "internalType": "address",
          "name": "adapter",
          "type": "address"
        }
      ],
      "name": "SetGuildStakingAdapter",
      "type": "event"
    },
    {
      "anonymous": false,
      "inputs": [
        {
          "indexed": false,
          "internalType": "uint256",
          "name": "level",
          "type": "uint256"
        }
      ],
      "name": "SetMinHeroLevel",
      "type": "event"
    },
    {
      "anonymous": false,
      "inputs": [
        {
          "indexed": false,
          "internalType": "uint8",
          "name": "biome",
          "type": "uint8"
        },
        {
          "indexed": false,
          "internalType": "uint32",
          "name": "week",
          "type": "uint32"
        },
        {
          "indexed": false,
          "internalType": "uint256",
          "name": "guildBiomeOwnerId",
          "type": "uint256"
        }
      ],
      "name": "UpdatePvpEpoch",
      "type": "event"
    },
    {
      "inputs": [],
      "name": "CONTROLLABLE_VERSION",
      "outputs": [
        {
          "internalType": "string",
          "name": "",
          "type": "string"
        }
      ],
      "stateMutability": "view",
      "type": "function"
    },
    {
      "inputs": [],
      "name": "VERSION",
      "outputs": [
        {
          "internalType": "string",
          "name": "",
          "type": "string"
        }
      ],
      "stateMutability": "view",
      "type": "function"
    },
    {
      "inputs": [
        {
          "internalType": "address",
          "name": "hero",
          "type": "address"
        },
        {
          "internalType": "uint256",
          "name": "heroId",
          "type": "uint256"
        },
        {
          "internalType": "bytes",
          "name": "pvpStrategy",
          "type": "bytes"
        },
        {
          "internalType": "uint8",
          "name": "maxFights",
          "type": "uint8"
        }
      ],
      "name": "addPvpHero",
      "outputs": [],
      "stateMutability": "nonpayable",
      "type": "function"
    },
    {
      "inputs": [],
      "name": "controller",
      "outputs": [
        {
          "internalType": "address",
          "name": "",
          "type": "address"
        }
      ],
      "stateMutability": "view",
      "type": "function"
    },
    {
      "inputs": [],
      "name": "created",
      "outputs": [
        {
          "internalType": "uint256",
          "name": "",
          "type": "uint256"
        }
      ],
      "stateMutability": "view",
      "type": "function"
    },
    {
      "inputs": [],
      "name": "createdBlock",
      "outputs": [
        {
          "internalType": "uint256",
          "name": "",
          "type": "uint256"
        }
      ],
      "stateMutability": "view",
      "type": "function"
    },
    {
      "inputs": [],
      "name": "currentWeek",
      "outputs": [
        {
          "internalType": "uint32",
          "name": "",
          "type": "uint32"
        }
      ],
      "stateMutability": "view",
      "type": "function"
    },
    {
      "inputs": [
        {
          "internalType": "uint8",
          "name": "biome",
          "type": "uint8"
        },
        {
          "internalType": "uint32",
          "name": "week",
          "type": "uint32"
        }
      ],
      "name": "getBiomeGuilds",
      "outputs": [
        {
          "internalType": "uint256[]",
          "name": "guildIds",
          "type": "uint256[]"
        }
      ],
      "stateMutability": "view",
      "type": "function"
    },
    {
      "inputs": [
        {
          "internalType": "uint8",
          "name": "biome",
          "type": "uint8"
        }
      ],
      "name": "getBiomeOwner",
      "outputs": [
        {
          "internalType": "uint256",
          "name": "guildId",
          "type": "uint256"
        }
      ],
      "stateMutability": "view",
      "type": "function"
    },
    {
      "inputs": [
        {
          "internalType": "uint8",
          "name": "biome",
          "type": "uint8"
        }
      ],
      "name": "getBiomeTax",
      "outputs": [
        {
          "internalType": "uint256",
          "name": "guildId",
          "type": "uint256"
        },
        {
          "internalType": "uint256",
          "name": "taxPercent",
          "type": "uint256"
        }
      ],
      "stateMutability": "view",
      "type": "function"
    },
    {
      "inputs": [],
      "name": "getCounterFightId",
      "outputs": [
        {
          "internalType": "uint48",
          "name": "",
          "type": "uint48"
        }
      ],
      "stateMutability": "view",
      "type": "function"
    },
    {
      "inputs": [
        {
          "internalType": "uint256",
          "name": "blockTimestamp",
          "type": "uint256"
        }
      ],
      "name": "getCurrentEpochWeek",
      "outputs": [
        {
          "internalType": "uint32",
          "name": "",
          "type": "uint32"
        }
      ],
      "stateMutability": "pure",
      "type": "function"
    },
    {
      "inputs": [
        {
          "internalType": "uint8",
          "name": "biome",
          "type": "uint8"
        }
      ],
      "name": "getDominationCounter",
      "outputs": [
        {
          "internalType": "uint16",
          "name": "dominationCounter",
          "type": "uint16"
        }
      ],
      "stateMutability": "view",
      "type": "function"
    },
    {
      "inputs": [
        {
          "internalType": "uint256",
          "name": "guildId",
          "type": "uint256"
        },
        {
          "internalType": "uint32",
          "name": "week",
          "type": "uint32"
        }
      ],
      "name": "getDominationRequest",
      "outputs": [
        {
          "internalType": "uint8",
          "name": "biome",
          "type": "uint8"
        }
      ],
      "stateMutability": "view",
      "type": "function"
    },
    {
      "inputs": [
        {
          "internalType": "uint32",
          "name": "epochWeek",
          "type": "uint32"
        },
        {
          "internalType": "address",
          "name": "user",
          "type": "address"
        },
        {
          "internalType": "uint256",
          "name": "index0",
          "type": "uint256"
        }
      ],
      "name": "getFightDataByIndex",
      "outputs": [
        {
          "components": [
            {
              "internalType": "address",
              "name": "fightOpponent",
              "type": "address"
            },
            {
              "internalType": "enum IPvpController.PvpFightStatus",
              "name": "fightStatus",
              "type": "uint8"
            },
            {
              "internalType": "uint32",
              "name": "health",
              "type": "uint32"
            },
            {
              "internalType": "uint32",
              "name": "mana",
              "type": "uint32"
            },
            {
              "internalType": "uint8",
              "name": "countTurns",
              "type": "uint8"
            }
          ],
          "internalType": "struct IPvpController.PvpFightData",
          "name": "",
          "type": "tuple"
        }
      ],
      "stateMutability": "view",
      "type": "function"
    },
    {
      "inputs": [
        {
          "internalType": "uint32",
          "name": "epochWeek",
          "type": "uint32"
        },
        {
          "internalType": "address",
          "name": "user",
          "type": "address"
        }
      ],
      "name": "getFightDataLength",
      "outputs": [
        {
          "internalType": "uint256",
          "name": "",
          "type": "uint256"
        }
      ],
      "stateMutability": "view",
      "type": "function"
    },
    {
      "inputs": [
        {
          "internalType": "uint8",
          "name": "biome",
          "type": "uint8"
        },
        {
          "internalType": "uint32",
          "name": "epochWeek",
          "type": "uint32"
        },
        {
          "internalType": "uint256",
          "name": "guildId",
          "type": "uint256"
        }
      ],
      "name": "getFreeUsers",
      "outputs": [
        {
          "internalType": "address[]",
          "name": "",
          "type": "address[]"
        }
      ],
      "stateMutability": "view",
      "type": "function"
    },
    {
      "inputs": [
        {
          "internalType": "uint8",
          "name": "biome",
          "type": "uint8"
        },
        {
          "internalType": "uint32",
          "name": "epochWeek",
          "type": "uint32"
        },
        {
          "internalType": "uint256",
          "name": "guildId",
          "type": "uint256"
        }
      ],
      "name": "getGuildPoints",
      "outputs": [
        {
          "internalType": "uint256",
          "name": "",
          "type": "uint256"
        }
      ],
      "stateMutability": "view",
      "type": "function"
    },
    {
      "inputs": [],
      "name": "getGuildStakingAdapter",
      "outputs": [
        {
          "internalType": "address",
          "name": "",
          "type": "address"
        }
      ],
      "stateMutability": "view",
      "type": "function"
    },
    {
      "inputs": [],
      "name": "getMinHeroLevel",
      "outputs": [
        {
          "internalType": "uint256",
          "name": "",
          "type": "uint256"
        }
      ],
      "stateMutability": "view",
      "type": "function"
    },
    {
      "inputs": [
        {
          "internalType": "uint8",
          "name": "biome",
          "type": "uint8"
        },
        {
          "internalType": "uint32",
          "name": "epochWeek",
          "type": "uint32"
        },
        {
          "internalType": "address",
          "name": "hero",
          "type": "address"
        },
        {
          "internalType": "uint256",
          "name": "heroId",
          "type": "uint256"
        }
      ],
      "name": "getPvpStrategy",
      "outputs": [
        {
          "internalType": "bytes",
          "name": "",
          "type": "bytes"
        }
      ],
      "stateMutability": "view",
      "type": "function"
    },
    {
      "inputs": [
        {
          "internalType": "uint8",
          "name": "biome",
          "type": "uint8"
        },
        {
          "internalType": "uint32",
          "name": "epochWeek",
          "type": "uint32"
        },
        {
          "internalType": "address",
          "name": "hero",
          "type": "address"
        },
        {
          "internalType": "uint256",
          "name": "heroId",
          "type": "uint256"
        }
      ],
      "name": "getPvpStrategyKind",
      "outputs": [
        {
          "internalType": "uint256",
          "name": "",
          "type": "uint256"
        }
      ],
      "stateMutability": "view",
      "type": "function"
    },
    {
      "inputs": [
        {
          "internalType": "uint8",
          "name": "biome",
          "type": "uint8"
        }
      ],
      "name": "getStartedEpoch",
      "outputs": [
        {
          "internalType": "uint32",
          "name": "epochWeek",
          "type": "uint32"
        }
      ],
      "stateMutability": "view",
      "type": "function"
    },
    {
      "inputs": [
        {
          "internalType": "uint32",
          "name": "week",
          "type": "uint32"
        },
        {
          "internalType": "address",
          "name": "user",
          "type": "address"
        }
      ],
      "name": "getUserState",
      "outputs": [
        {
          "components": [
            {
              "internalType": "uint8",
              "name": "biome",
              "type": "uint8"
            },
            {
              "internalType": "uint32",
              "name": "activeFightIndex1",
              "type": "uint32"
            },
            {
              "internalType": "uint32",
              "name": "numHeroesStaked",
              "type": "uint32"
            },
            {
              "internalType": "uint64",
              "name": "guildId",
              "type": "uint64"
            },
            {
              "internalType": "uint8",
              "name": "countFights",
              "type": "uint8"
            },
            {
              "internalType": "uint8",
              "name": "maxFights",
              "type": "uint8"
            },
            {
              "internalType": "uint48",
              "name": "fightId",
              "type": "uint48"
            }
          ],
          "internalType": "struct IPvpController.PvpUserState",
          "name": "userState",
          "type": "tuple"
        }
      ],
      "stateMutability": "view",
      "type": "function"
    },
    {
      "inputs": [
        {
          "internalType": "address",
          "name": "user",
          "type": "address"
        },
        {
          "internalType": "uint256",
          "name": "guildId",
          "type": "uint256"
        },
        {
          "internalType": "uint32",
          "name": "week",
          "type": "uint32"
        }
      ],
      "name": "hasPvpHero",
      "outputs": [
        {
          "internalType": "bool",
          "name": "",
          "type": "bool"
        }
      ],
      "stateMutability": "view",
      "type": "function"
    },
    {
      "inputs": [
        {
          "internalType": "address",
          "name": "oldLogic",
          "type": "address"
        }
      ],
      "name": "increaseRevision",
      "outputs": [],
      "stateMutability": "nonpayable",
      "type": "function"
    },
    {
      "inputs": [
        {
          "internalType": "address",
          "name": "controller_",
          "type": "address"
        }
      ],
      "name": "init",
      "outputs": [],
      "stateMutability": "nonpayable",
      "type": "function"
    },
    {
      "inputs": [
        {
          "internalType": "address",
          "name": "value_",
          "type": "address"
        }
      ],
      "name": "isController",
      "outputs": [
        {
          "internalType": "bool",
          "name": "",
          "type": "bool"
        }
      ],
      "stateMutability": "view",
      "type": "function"
    },
    {
      "inputs": [
        {
          "internalType": "address",
          "name": "value_",
          "type": "address"
        }
      ],
      "name": "isGovernance",
      "outputs": [
        {
          "internalType": "bool",
          "name": "",
          "type": "bool"
        }
      ],
      "stateMutability": "view",
      "type": "function"
    },
    {
      "inputs": [
        {
          "internalType": "address",
          "name": "hero",
          "type": "address"
        },
        {
          "internalType": "uint256",
          "name": "heroId",
          "type": "uint256"
        },
        {
          "internalType": "uint32",
          "name": "epoch",
          "type": "uint32"
        }
      ],
      "name": "isHeroStaked",
      "outputs": [
        {
          "internalType": "bool",
          "name": "staked",
          "type": "bool"
        }
      ],
      "stateMutability": "view",
      "type": "function"
    },
    {
      "inputs": [
        {
          "internalType": "address",
          "name": "hero",
          "type": "address"
        },
        {
          "internalType": "uint256",
          "name": "heroId",
          "type": "uint256"
        }
      ],
      "name": "isHeroStakedCurrently",
      "outputs": [
        {
          "internalType": "bool",
          "name": "staked",
          "type": "bool"
        }
      ],
      "stateMutability": "view",
      "type": "function"
    },
    {
      "inputs": [
        {
          "internalType": "address",
          "name": "forwarder",
          "type": "address"
        }
      ],
      "name": "isTrustedForwarder",
      "outputs": [
        {
          "internalType": "bool",
          "name": "",
          "type": "bool"
        }
      ],
      "stateMutability": "view",
      "type": "function"
    },
    {
      "inputs": [
        {
          "internalType": "address",
          "name": "",
          "type": "address"
        },
        {
          "internalType": "address",
          "name": "",
          "type": "address"
        },
        {
          "internalType": "uint256",
          "name": "",
          "type": "uint256"
        },
        {
          "internalType": "bytes",
          "name": "",
          "type": "bytes"
        }
      ],
      "name": "onERC721Received",
      "outputs": [
        {
          "internalType": "bytes4",
          "name": "",
          "type": "bytes4"
        }
      ],
      "stateMutability": "nonpayable",
      "type": "function"
    },
    {
      "inputs": [
        {
          "internalType": "uint256",
          "name": "guildId",
          "type": "uint256"
        }
      ],
      "name": "onGuildDeletion",
      "outputs": [],
      "stateMutability": "nonpayable",
      "type": "function"
    },
    {
      "inputs": [
        {
          "internalType": "uint256",
          "name": "guildId",
          "type": "uint256"
        }
      ],
      "name": "ownedBiome",
      "outputs": [
        {
          "internalType": "uint8",
          "name": "biome",
          "type": "uint8"
        }
      ],
      "stateMutability": "view",
      "type": "function"
    },
    {
      "inputs": [],
      "name": "prepareFight",
      "outputs": [],
      "stateMutability": "nonpayable",
      "type": "function"
    },
    {
      "inputs": [],
      "name": "previousImplementation",
      "outputs": [
        {
          "internalType": "address",
          "name": "",
          "type": "address"
        }
      ],
      "stateMutability": "view",
      "type": "function"
    },
    {
      "inputs": [
        {
          "internalType": "uint8",
          "name": "biome",
          "type": "uint8"
        }
      ],
      "name": "refreshBiomeTax",
      "outputs": [
        {
          "internalType": "uint256",
          "name": "guildId",
          "type": "uint256"
        },
        {
          "internalType": "uint256",
          "name": "taxPercent",
          "type": "uint256"
        }
      ],
      "stateMutability": "nonpayable",
      "type": "function"
    },
    {
      "inputs": [
        {
          "internalType": "uint8",
          "name": "biome",
          "type": "uint8"
        },
        {
          "internalType": "uint32",
          "name": "epochWeek",
          "type": "uint32"
        },
        {
          "internalType": "uint256",
          "name": "guildId",
          "type": "uint256"
        },
        {
          "internalType": "address",
          "name": "user",
          "type": "address"
        }
      ],
      "name": "registeredHero",
      "outputs": [
        {
          "internalType": "address",
          "name": "hero",
          "type": "address"
        },
        {
          "internalType": "uint256",
          "name": "heroId",
          "type": "uint256"
        }
      ],
      "stateMutability": "view",
      "type": "function"
    },
    {
      "inputs": [
        {
          "internalType": "uint8",
          "name": "biome",
          "type": "uint8"
        },
        {
          "internalType": "uint32",
          "name": "epochWeek",
          "type": "uint32"
        },
        {
          "internalType": "uint256",
          "name": "guildId",
          "type": "uint256"
        }
      ],
      "name": "registeredUsers",
      "outputs": [
        {
          "internalType": "address[]",
          "name": "",
          "type": "address[]"
        }
      ],
      "stateMutability": "view",
      "type": "function"
    },
    {
      "inputs": [],
      "name": "removePvpHero",
      "outputs": [],
      "stateMutability": "nonpayable",
      "type": "function"
    },
    {
      "inputs": [],
      "name": "revision",
      "outputs": [
        {
          "internalType": "uint256",
          "name": "",
          "type": "uint256"
        }
      ],
      "stateMutability": "view",
      "type": "function"
    },
    {
      "inputs": [
        {
          "internalType": "uint8",
          "name": "biome",
          "type": "uint8"
        }
      ],
      "name": "selectBiomeForDomination",
      "outputs": [],
      "stateMutability": "nonpayable",
      "type": "function"
    },
    {
      "inputs": [
        {
          "internalType": "address",
          "name": "adapter_",
          "type": "address"
        }
      ],
      "name": "setGuildStakingAdapter",
      "outputs": [],
      "stateMutability": "nonpayable",
      "type": "function"
    },
    {
      "inputs": [
        {
          "internalType": "uint256",
          "name": "level",
          "type": "uint256"
        }
      ],
      "name": "setMinHeroLevel",
      "outputs": [],
      "stateMutability": "nonpayable",
      "type": "function"
    },
    {
      "inputs": [
        {
          "internalType": "uint8",
          "name": "maxCountTurns",
          "type": "uint8"
        }
      ],
      "name": "startFight",
      "outputs": [],
      "stateMutability": "nonpayable",
      "type": "function"
    },
    {
      "inputs": [
        {
          "internalType": "uint8",
          "name": "biome",
          "type": "uint8"
        }
      ],
      "name": "updateEpoch",
      "outputs": [],
      "stateMutability": "nonpayable",
      "type": "function"
    }
  ],
  "transactionHash": "0x4add4c8299141876a97a34c0fa29b6cc04132321423c00384ceaa01ac16df037",
  "args": [],
  "numDeployments": 3,
  "solcInputHash": "1a4342b5d9fe8c3b83a893539aac6eae",
  "bytecode": "0x60806040523480156200001157600080fd5b507ff0c57e16840df040f15088dc2f81fe391c3923bec73e23a9662efc9c229c6a00805468010000000000000000810460ff1615906001600160401b03166000811580156200005d5750825b90506000826001600160401b031660011480156200007a5750303b155b90508115801562000089575080155b15620000a85760405163f92ee8a960e01b815260040160405180910390fd5b84546001600160401b03191660011785558315620000d757845460ff60401b1916680100000000000000001785555b83156200011e57845460ff60401b19168555604051600181527fc7f505b2f371ae2175ee4913f4499e1f2633a7b5936321eed1cdaeb6115181d29060200160405180910390a15b50505050506155b080620001336000396000f3fe608060405234801561001057600080fd5b50600436106102555760003560e01c80637cc9638011610147578063cb80c82f116100be578063cb80c82f1461062e578063ce24c6e514610641578063ce4a79a914610654578063d2336d2e14610667578063d49e18be1461066f578063dee1f0e414610682578063e22d24af14610695578063e89acf061461069d578063f2f17ec8146106a5578063f77c4791146106c6578063f88cb61d146106ce578063ffa1ad741461058957600080fd5b80637cc96380146104b9578063859ec734146104c1578063901bccda146104d457806390c928cd146104e757806390e52dc3146104fa578063936725ec14610589578063991bb818146105ba5780639d0bcca0146105cd578063a399f0d7146105e2578063b2c56c9b146105f5578063b429afeb14610608578063c5beb1e01461061b57600080fd5b80633349eafa116101db5780633349eafa146103a357806342be39a4146103b6578063454ac5c8146103dc5780634593144c146103ef57806347ff6204146103f75780634fac6ccd14610417578063572b6c051461042a5780635ecd46781461044d57806361aa8057146104605780636672009e1461047357806371c2b99c146104935780637a5654d8146104a657600080fd5b806306575c891461025a5780630984b3cb1461027c5780630abb07c3146102a4578063150b7a02146102c55780631518fc25146102fc57806319ab453c1461031c5780631b541a351461033157806325b3b32c146103445780632b529bde146103575780632fe7b1b51461037c578063325a19f11461039b575b600080fd5b6102626106d6565b60405163ffffffff90911681526020015b60405180910390f35b61028f61028a3660046149f0565b6106e6565b60408051928352602083019190915201610273565b6102b76102b2366004614a34565b6106ff565b604051908152602001610273565b6102e36102d3366004614b30565b630a85bd0160e11b949350505050565b6040516001600160e01b03199091168152602001610273565b61030f61030a366004614b9b565b610714565b6040516102739190614bc9565b61032f61032a366004614c0d565b610720565b005b6102b761033f366004614c2a565b610836565b61032f610352366004614c6b565b61084b565b61036a610365366004614c6b565b61085f565b60405160ff9091168152602001610273565b61038461086a565b60405165ffffffffffff9091168152602001610273565b6102b7610874565b61036a6103b1366004614c84565b6108a8565b6103c96103c43660046149f0565b6108b4565b60405161ffff9091168152602001610273565b6102626103ea366004614c6b565b6108bf565b6102b76108ca565b61040a610405366004614ca9565b6108fa565b6040516102739190614cef565b61032f610425366004614c0d565b61090d565b61043d610438366004614c0d565b610a1f565b6040519015158152602001610273565b61043d61045b366004614d5e565b610a94565b6102b761046e3660046149f0565b610aa1565b610486610481366004614c2a565b610aac565b6040516102739190614da0565b61032f6104a1366004614c0d565b610ab9565b6104866104b4366004614c2a565b610aca565b6102b7610ad7565b6102626104cf3660046149f0565b610af5565b61032f6104e23660046149f0565b610b00565b6102b76104f5366004614de1565b610b1d565b61050d610508366004614a34565b610b34565b6040516102739190600060e08201905060ff8351168252602083015163ffffffff808216602085015280604086015116604085015250506001600160401b03606084015116606083015260ff608084015116608083015260ff60a08401511660a083015265ffffffffffff60c08401511660c083015292915050565b6105ad604051806040016040528060058152602001640312e302e360dc1b81525081565b6040516102739190614e82565b6105ad6105c8366004614de1565b610b46565b6105d5610b54565b6040516102739190614e95565b61032f6105f0366004614ea9565b610b84565b61043d610603366004614d5e565b610baa565b61043d610616366004614c0d565b610bb7565b61028f6106293660046149f0565b610bdc565b61032f61063c366004614c6b565b610be8565b61032f61064f3660046149f0565b610bf9565b61043d610662366004614f14565b610c06565b61032f610c1b565b61032f61067d3660046149f0565b610c39565b61043d610690366004614c0d565b610cd3565b61032f610d58565b6102b7610d71565b6106b86106b3366004614f40565b610d7b565b604051610273929190614f88565b6105d5610d98565b6105d5610dc8565b60006106e142610dd2565b905090565b6000806106f68342610def610e9f565b91509150915091565b600061070b8383610ec8565b90505b92915050565b606061070b8383610f0b565b600061072a610f47565b805490915060ff600160401b82041615906001600160401b03166000811580156107515750825b90506000826001600160401b0316600114801561076d5750303b155b90508115801561077b575080155b156107995760405163f92ee8a960e01b815260040160405180910390fd5b845467ffffffffffffffff1916600117855583156107c357845460ff60401b1916600160401b1785555b6107cc86610f6b565b60056107d6610f7c565b600160009081526020919091526040902055831561082e57845460ff60401b19168555604051600181527fc7f505b2f371ae2175ee4913f4499e1f2633a7b5936321eed1cdaeb6115181d29060200160405180910390a15b505050505050565b6000610843848484610fa0565b949350505050565b61085c610856610d98565b82611001565b50565b600061070e826110f2565b60006106e1611113565b60006106e16108a460017f6f55f470bdc9cb5f04223fd822021061668e4dccb43e8727b295106dc9769c8b614fb7565b5490565b600061070b8383611147565b600061070e82611181565b600061070e82610dd2565b60006106e16108a460017f812a673dfca07956350df10f8a654925f561d7a0da09bdbe79e653939a14d9f1614fb7565b6109026148ed565b6108438484846111b2565b33301461095f5760405162461bcd60e51b815260206004820152601b60248201527a24b731b932b0b9b2903932bb34b9b4b7b7103337b93134b23232b760291b60448201526064015b60405180910390fd5b600061097d6108a4600160008051602061555b833981519152614fb7565b610988906001614fca565b90506109aa816109a7600160008051602061555b833981519152614fb7565b55565b6109d9826109a760017fbfaaa2fb63266ff27c2da975f5894955056f50419af651a81f6c5060581857e4614fb7565b604080518281526001600160a01b03841660208201527ff27e2ef832a4eb8ed8ec553b875eecd44764cda95b1c24170e281539e0a869c891015b60405180910390a15050565b60006001600160a01b03821673d8253782c45a12053594b9deb72d8e8ab2fca54c1480610a6857506001600160a01b0382167352ceba41da235af367bfc0b0ccd3314cb901bb5f145b8061070e57506001600160a01b03821673102f1f556cd9c3d5f820e6920a8931657c5da21b1492915050565b600061084384848461129b565b600061070e826112d9565b6060610843848484611308565b61085c610ac4610d98565b8261134f565b60606108438484846113af565b60006106e16108a4600160008051602061555b833981519152614fb7565b600061070e826113f3565b61085c610b0b611426565b610b13610d98565b8342610def61144b565b6000610b2b8585858561169f565b95945050505050565b610b3c61491d565b61070b8383611782565b6060610b2b8585858561183d565b60006106e16108a460017fbfaaa2fb63266ff27c2da975f5894955056f50419af651a81f6c5060581857e4614fb7565b610ba4610b8f611426565b610b97610d98565b8686868642610def611920565b50505050565b6000610843848484612551565b6000610bc1610d98565b6001600160a01b0316826001600160a01b0316149050919050565b6000806106f6836125cf565b61085c610bf3610d98565b82612639565b61085c8142610def61268e565b600061070b8383610c1642610dd2565b61129b565b610c37610c26611426565b610c2e610d98565b42610def612699565b565b73536edbB5eEDaD839155E70510Bb1F55604dF3d0c638eb687a9610c5b611426565b610c63610d98565b6040516001600160e01b031960e085901b1681526001600160a01b0392831660048201529116602482015242604482015260ff8416606482015260840160006040518083038186803b158015610cb857600080fd5b505af4158015610ccc573d6000803e3d6000fd5b5050505050565b6000816001600160a01b0316610ce7610d98565b6001600160a01b0316635aa6e6756040518163ffffffff1660e01b8152600401602060405180830381865afa158015610d24573d6000803e3d6000fd5b505050506040513d601f19601f82011682018060405250810190610d489190614fdd565b6001600160a01b03161492915050565b610c37610d63611426565b610d6b610d98565b4261292c565b60006106e1612a33565b600080610d8a86868686612a46565b915091505b94509492505050565b60006106e16108a460017f5165972ef41194f06c5007493031d0b927c20741adcb74403b954009fd2c3618614fb7565b60006106e1612ab7565b600061070e610de46201518084615010565b63ffffffff16612aca565b600081600003610e0157506000919050565b6000610e0b612ae3565b9050610e18836001614fca565b4340414443423a5a88604051602001610e7598979695949392919097885260609690961b6001600160601b0319166020880152603487019490945260548601929092526074850152609484015260b483015260d482015260f40190565b6040516020818303038152906040528051906020012060001c610e989190615024565b9392505050565b6000806000610eaf868686612b1a565b9050610eba81612f49565b92509250505b935093915050565b6000610ed2610f7c565b63ffffffff84166000908152600391909101602090815260408083206001600160a01b0386168452600201909152902054905092915050565b606061070b610f18610f7c565b63ffffffff841660009081526003919091016020908152604080832060ff88168452600601909152902061305c565b7ff0c57e16840df040f15088dc2f81fe391c3923bec73e23a9662efc9c229c6a0090565b610f73613069565b61085c8161308e565b7f6750db0cf5db3c73c8abbeff54ef9c65daabbed6967cb68f37e0698f5fc7bb0090565b6000806000610fe584610fb1610f7c565b63ffffffff80891660009081526003929092016020908152604080842060ff8d16855260010190915290912091906131ad16565b9150915081610ff5576000610ff7565b805b9695505050505050565b61100a826131cb565b6000611014610f7c565b600301600061102242610dd2565b63ffffffff1681526020808201929092526040908101600090812085825260058101909352205490915060ff1680156110755760ff811660009081526006830160205260409020611073908461325e565b505b600061107f610f7c565b6000858152600291909101602052604090205460ff1690508015610ccc576110a5610f7c565b600085815260029190910160205260409020805460ff191690556110c7610f7c565b60ff821660009081526001919091016020526040902080546001600160701b03191690555050505050565b60006110fc610f7c565b600092835260020160205250604090205460ff1690565b600061111d610f7c565b600060035b600381111561113357611133614cd9565b815260200190815260200160002054905090565b6000611151610f7c565b63ffffffff9290921660009081526003909201602090815260408084209484526005909401905250205460ff1690565b600061118b610f7c565b60ff9290921660009081526001909201602052506040902054600160601b900461ffff1690565b6111ba6148ed565b6111c2610f7c565b63ffffffff85166000908152600391909101602090815260408083206001600160a01b0387168452600201909152902080548390811061120457611204615038565b60009182526020918290206040805160a08101909152910180546001600160a01b03811683529192909190830190600160a01b900460ff16600481111561124d5761124d614cd9565b600481111561125e5761125e614cd9565b81529054600160a81b810463ffffffff9081166020840152600160c81b8204166040830152600160e81b900460ff16606090910152949350505050565b6000806112a6610f7c565b60030160008463ffffffff1681526020019081526020016000209050610b2b6112cf868661326a565b60038301906132ba565b60006112e3610f7c565b60ff90921660009081526001929092016020525060409020546001600160401b031690565b6060610843611315610f7c565b63ffffffff851660009081526003919091016020908152604080832060ff89168452600101825280832086845260040190915290206132d2565b611358826132df565b806001600160a01b031661136a610f7c565b600060028152602001908152602001600020819055507fb55212beea0c27733221a3151de625a0f9a00c6435c0ec42102d42180204eb2c81604051610a139190614e95565b60606108436113bc610f7c565b63ffffffff8516600090815260039182016020908152604080832060ff8a168452600101825280832087845290930190522061305c565b60006113fd610f7c565b60ff9290921660009081526001909201602052506040902054600160401b900463ffffffff1690565b600061143133610a1f565b15611443575060131936013560601c90565b503390565b90565b6114548461336b565b6000846001600160a01b03166325eb1c876040518163ffffffff1660e01b8152600401602060405180830381865afa158015611494573d6000803e3d6000fd5b505050506040513d601f19601f820116820180604052508101906114b89190614fdd565b90508360ff166000036114e357604051637d34ca9360e01b815260ff85166004820152602401610956565b60006114f18288600d6133eb565b50604051636f8eecbb60e11b8152600481018290529091506000906001600160a01b0384169063df1dd97690602401600060405180830381865afa15801561153d573d6000803e3d6000fd5b505050506040513d6000823e601f3d908101601f1916820160405261156591908101906150af565b5050935050505060038160ff161015611591576040516368dfb41160e11b815260040160405180910390fd5b50600061159d85610dd2565b905060006115a9610f7c565b63ffffffff8316600090815260039190910160209081526040808320868452600581019092529091205490915060ff16156115f757604051637e524e1960e01b815260040160405180910390fd5b611602878787612b1a565b5060008381526005820160209081526040808320805460ff191660ff8c16908117909155835260068401909152902061163b9084613558565b50604080516001600160a01b038b16815260ff8916602082015290810184905263ffffffff831660608201527f5e1c8323b6cf985eec8241831ea88c82e70a972471b5f5b9afcb5fc46b5eb24a9060800160405180910390a1505050505050505050565b6000610b2b6116ac610f7c565b63ffffffff861660009081526003919091016020908152604080832060ff8a1684526001019091528120600501906116e4868661326a565b815260200190815260200160002080546116fd90615151565b80601f016020809104026020016040519081016040528092919081815260200182805461172990615151565b80156117765780601f1061174b57610100808354040283529160200191611776565b820191906000526020600020905b81548152906001019060200180831161175957829003601f168201915b50505050506040015190565b61178a61491d565b611792610f7c565b63ffffffff9384166000908152600391909101602090815260408083206001600160a01b0395909516835293815290839020835160e081018552905460ff80821683526101008204871693830193909352600160281b810490951693810193909352600160481b84046001600160401b03166060840152600160881b840481166080840152600160901b84041660a083015250600160981b90910465ffffffffffff1660c082015290565b6060611847610f7c565b63ffffffff851660009081526003919091016020908152604080832060ff8916845260010190915281206005019061187f858561326a565b8152602001908152602001600020805461189890615151565b80601f01602080910402602001604051908101604052809291908181526020018280546118c490615151565b80156119115780601f106118e657610100808354040283529160200191611911565b820191906000526020600020905b8154815290600101906020018083116118f457829003601f168201915b50505050509050949350505050565b6119298761336b565b611931614959565b876001600160a01b03166325eb1c876040518163ffffffff1660e01b8152600401602060405180830381865afa15801561196f573d6000803e3d6000fd5b505050506040513d601f19601f820116820180604052508101906119939190614fdd565b81606001906001600160a01b031690816001600160a01b031681525050876001600160a01b031663016dff5d6040518163ffffffff1660e01b8152600401602060405180830381865afa1580156119ee573d6000803e3d6000fd5b505050506040513d601f19601f82011682018060405250810190611a129190614fdd565b81608001906001600160a01b031690816001600160a01b031681525050876001600160a01b0316628e96916040518163ffffffff1660e01b8152600401602060405180830381865afa158015611a6c573d6000803e3d6000fd5b505050506040513d601f19601f82011682018060405250810190611a909190614fdd565b6001600160a01b031660a0820152611aa783610dd2565b63ffffffff16602082018190526060820151611ac7918b91906001613564565b60ff1682526101208201526040516331a9108f60e11b8152600481018790526001600160a01b038a81169190891690636352211e90602401602060405180830381865afa158015611b1c573d6000803e3d6000fd5b505050506040513d601f19601f82011682018060405250810190611b409190614fdd565b6001600160a01b031614611b6b57868660405163547208b960e11b8152600401610956929190614f88565b80608001516001600160a01b0316631789b7b1886040518263ffffffff1660e01b8152600401611b9b9190614e95565b602060405180830381865afa158015611bb8573d6000803e3d6000fd5b505050506040513d601f19601f82011682018060405250810190611bdc919061518b565b60ff16600003611c01578660405163adc7fced60e01b81526004016109569190614e95565b876001600160a01b0316632f91ede96040518163ffffffff1660e01b8152600401602060405180830381865afa158015611c3f573d6000803e3d6000fd5b505050506040513d601f19601f82011682018060405250810190611c639190614fdd565b6001600160a01b0316635451da1b88886040518363ffffffff1660e01b8152600401611c90929190614f88565b602060405180830381865afa158015611cad573d6000803e3d6000fd5b505050506040513d601f19601f82011682018060405250810190611cd191906151a8565b15611cf3578686604051634f38de4760e11b8152600401610956929190614f88565b8060a001516001600160a01b031663f16a306688886040518363ffffffff1660e01b8152600401611d25929190614f88565b602060405180830381865afa158015611d42573d6000803e3d6000fd5b505050506040513d601f19601f82011682018060405250810190611d6691906151a8565b611d8757868660405163033aace360e41b8152600401610956929190614f88565b608081015160405163dec38e7760e01b81526001916001600160a01b03169063dec38e7790611dbc908b908b90600401614f88565b602060405180830381865afa158015611dd9573d6000803e3d6000fd5b505050506040513d601f19601f82011682018060405250810190611dfd919061518b565b60ff1603611e1e57604051631ed7101960e21b815260040160405180910390fd5b876001600160a01b031663683fedf76040518163ffffffff1660e01b8152600401602060405180830381865afa158015611e5c573d6000803e3d6000fd5b505050506040513d601f19601f82011682018060405250810190611e809190614fdd565b6001600160a01b0316639a641e0288886040518363ffffffff1660e01b8152600401611ead929190614f88565b602060405180830381865afa158015611eca573d6000803e3d6000fd5b505050506040513d601f19601f82011682018060405250810190611eee91906151ca565b6001600160401b031615611f145760405162dc1c0b60e01b815260040160405180910390fd5b608081015160405163ec5316b560e01b81526001916001600160a01b03169063ec5316b590611f49908b908b90600401614f88565b602060405180830381865afa158015611f66573d6000803e3d6000fd5b505050506040513d601f19601f82011682018060405250810190611f8a91906151e5565b1115611fa957604051639928185760e01b815260040160405180910390fd5b60a0810151604051631a95890960e31b81526000916001600160a01b03169063d4ac484890611fde908b908b90600401614f88565b60a060405180830381865afa158015611ffb573d6000803e3d6000fd5b505050506040513d601f19601f8201168201806040525081019061201f91906151fe565b51905061202a612a33565b8163ffffffff16101561205857604051634bebee7f60e01b815263ffffffff82166004820152602401610956565b508051612066908484612b1a565b506000612071610f7c565b60208381015163ffffffff9081166000908152600393909301825260408084206001600160a01b038f16855280845293819020815160e081018352905460ff80821683526101008204851695830195909552600160281b810490931691810191909152600160481b82046001600160401b03166060820152600160881b820483166080820152600160901b8204831660a0820152600160981b90910465ffffffffffff1660c0820152610140850181905251919250161561215257610140820151516040516321da897960e11b815260ff9091166004820152602401610956565b612161600163ffffffff615295565b63ffffffff168261014001516040015163ffffffff16106121a35760208201516040516305eee3b960e11b815263ffffffff9091166004820152602401610956565b815160ff16600090815260018201602052604090206121c2898961326a565b604084015260006121d4886040015190565b905080156121f55760405163d860955b60e01b815260040160405180910390fd5b6040808501516000908152600584016020522061221289826152ff565b50506040808401516101208501516000908152600484016020529190912061223b918d9061366e565b50604083015161224f906003840190613558565b506040805160e081018252845160ff1681526000602082015261014085015182015190918201906122819060016153be565b63ffffffff1681526020018461012001516001600160401b03168152602001600060ff1681526020018760ff168152602001600065ffffffffffff168152508260000160008d6001600160a01b03166001600160a01b0316815260200190815260200160002060008201518160000160006101000a81548160ff021916908360ff16021790555060208201518160000160016101000a81548163ffffffff021916908363ffffffff16021790555060408201518160000160056101000a81548163ffffffff021916908363ffffffff16021790555060608201518160000160096101000a8154816001600160401b0302191690836001600160401b0316021790555060808201518160000160116101000a81548160ff021916908360ff16021790555060a08201518160000160126101000a81548160ff021916908360ff16021790555060c08201518160000160136101000a81548165ffffffffffff021916908365ffffffffffff1602179055509050507f2521d98b2c88e19cb124cca9f2860404ff4e038f074120bbc3d69e2c751ffc928b8461012001518b8b87602001518860000151604051612476969594939291906001600160a01b0396871681526020810195909552929094166040840152606083015263ffffffff92909216608082015260ff9190911660a082015260c00190565b60405180910390a1612498836060015184600001518486610120015188613684565b61010086015260e08501526001600160a01b031660c084018190526124dd57610120830151600090815260038201602052604090206124d7908c613786565b50612544565b6040518060800160405280846020015163ffffffff1681526020018a6001600160a01b031681526020018981526020018460e001518152508361016001819052506125448360000151838d8660c0015187610120015188610100015189610160015161379b565b5050505050505050505050565b60008061255c610f7c565b63ffffffff8416600090815260039190910160209081526040808320878452600581019092529091205490915060ff1680156125c35760ff81166000908152600183016020908152604080832088845260040190915290206125be9087613c49565b610ff7565b50600095945050505050565b6000806106f66125dd610f7c565b60ff851660009081526001919091016020908152604091829020825160608101845290546001600160401b0381168252600160401b810463ffffffff1692820192909252600160601b90910461ffff1691810191909152612f49565b612642826132df565b8061264b610f7c565b6001600090815260209182526040908190209290925590518281527fee3ba0763748d6e285026c82cf5f0233531ace4040dce0d5c4434c55bf5cd9399101610a13565b610ba4838383612b1a565b6126a28361336b565b6040805160c081018252600080825260208201819052918101829052606081018290526080810182905260a0810191909152836001600160a01b03166325eb1c876040518163ffffffff1660e01b8152600401602060405180830381865afa158015612712573d6000803e3d6000fd5b505050506040513d601f19601f820116820180604052508101906127369190614fdd565b6001600160a01b0316606082015261274d83610dd2565b63ffffffff1660208201819052606082015161276d918791906001613564565b60ff16825250600061277d610f7c565b60208381015163ffffffff9081166000908152600393909301825260408084206001600160a01b038b16855280845293819020815160e081018352905460ff80821683526101008204851695830195909552600160281b810490931691810191909152600160481b82046001600160401b03166060820152600160881b820483166080820152600160901b820490921660a0830152600160981b900465ffffffffffff1660c082015290915061283281613c5e565b612854836060015184600001518484606001516001600160401b031688613684565b60a086015260808501526001600160a01b03166040840181905261288b57604051633381fb0d60e01b815260040160405180910390fd5b805160ff166000908152600183016020526040812060608301516128b991906001600160401b03168a613cac565b90506129228460000151848a876040015186606001516001600160401b03168960a0015160405180608001604052808c6020015163ffffffff16815260200189600001516001600160a01b03168152602001896020015181526020018c6080015181525061379b565b5050505050505050565b6129358261336b565b600061294082610dd2565b9050600061294c610f7c565b63ffffffff8381166000908152600392909201602090815260408084206001600160a01b038a16855280835293819020815160e081018352905460ff80821683526101008204861694830194909452600160281b810490941691810191909152600160481b83046001600160401b03166060820152600160881b830482166080820152600160901b830490911660a0820152600160981b90910465ffffffffffff1660c08201529091506129ff81613c5e565b805160ff1660009081526001808401602052604090912090612a2a9085908590849086908c90613dd1565b50505050505050565b6000612a3d610f7c565b60006001611122565b600080600080612a9785612a58610f7c565b63ffffffff808b1660009081526003929092016020908152604080842060ff8f16855260010182528084208c8552600401909152909120919061409d16565b915091508115612aac57925060a083901c9150825b505094509492505050565b6000612ac1610f7c565b60006002611122565b60006007612ad9836003614fca565b61070e9190615010565b60006350877ed6461480612afa5750630235ddd046145b15611448576040518060208160008060185afa612b1357fe5b5051905090565b6040805160608101825260008082526020820181905291810191909152612b3f610f7c565b60ff8516600090815260019190910160209081526040808320815160608101835290546001600160401b0381168252600160401b810463ffffffff1693820193909352600160601b90920461ffff16908201529150612b9d84610dd2565b9050816020015163ffffffff16600003612c6c5763ffffffff8116602083015281612bc6610f7c565b60ff8716600081815260019290920160209081526040928390208451815486840151968601516001600160401b039092166001600160601b031990911617600160401b63ffffffff978816021761ffff60601b1916600160601b61ffff909216919091021790558251918252928416928101929092527f1122d4fb8516daedc106927e0acc4baf5f6be5f82112b501be8790859c3d4d9b910160405180910390a1612f41565b816020015163ffffffff168163ffffffff1614612f41576000612cc1612c90610f7c565b60208086015163ffffffff1660009081526003929092018152604080832060ff8b168452600601909152902061305c565b90506000612cdb87856020015163ffffffff1684886140b5565b905080600003612cf2575082516001600160401b03165b83516001600160401b03168114612e1b576000612d0d610f7c565b60008381526002919091016020526040902054855160ff90911691506001600160401b031615612d6557612d3f610f7c565b85516001600160401b0316600090815260029190910160205260409020805460ff191690555b60ff811615612dec576000612d78610f7c565b60ff8316600090815260019190910160205260408120805467ffffffffffffffff19166001600160401b039390931692909217909155612db6610f7c565b60ff8316600090815260019190910160205260409020805461ffff92909216600160601b0261ffff60601b199092169190911790555b87612df5610f7c565b600084815260029190910160205260409020805460ff191660ff92909216919091179055505b6040518060600160405280826001600160401b031681526020018463ffffffff16815260200185600001516001600160401b031683148015612e5c57508215155b612e67576000612e85565b6020860151612e769086615295565b8660400151612e8591906153db565b61ffff169052935083612e96610f7c565b60ff8916600081815260019290920160209081526040928390208451815486840151968601516001600160401b039092166001600160601b031990911617600160401b63ffffffff978816021761ffff60601b1916600160601b61ffff9092169190910217905582519182529286169281019290925281018290527f1ffb10ddeed1be3e5ce0225fdd14d2df110d52b970118a7f9d58de2ecce3c0629060600160405180910390a150505b509392505050565b80516001600160401b031660008115612f64576103e8612f67565b60005b90508115613057576000612f79610f7c565b60026000908152602091909152604090205490506001600160a01b03811615613055576040516306d71c2560e51b8152600481018490526000906001600160a01b0383169063dae384a090602401602060405180830381865afa158015612fe4573d6000803e3d6000fd5b505050506040513d601f19601f8201168201806040525081019061300891906151e5565b9050670de0b6b3a764000061302582670de0b6b3a764000061432d565b6130336103e8612710614fb7565b61303d91906153f6565b6130479190615010565b6130519084614fca565b9250505b505b915091565b60606000610e9883614343565b61307161439f565b610c3757604051631afcd79f60e31b815260040160405180910390fd5b6001600160a01b0381166130d65760405162461bcd60e51b815260206004820152600f60248201526e2d32b9379031b7b73a3937b63632b960891b6044820152606401610956565b613105816109a760017f5165972ef41194f06c5007493031d0b927c20741adcb74403b954009fd2c3618614fb7565b613134426109a760017f6f55f470bdc9cb5f04223fd822021061668e4dccb43e8727b295106dc9769c8b614fb7565b613163436109a760017f812a673dfca07956350df10f8a654925f561d7a0da09bdbe79e653939a14d9f1614fb7565b604080516001600160a01b0383168152426020820152438183015290517f1a2dd071001ebf6e03174e3df5b305795a4ad5d41d8fdb9ba41dbbe2367134269181900360600190a150565b60008080806131bc86866143b9565b909450925050505b9250929050565b336001600160a01b0316816001600160a01b03166325eb1c876040518163ffffffff1660e01b8152600401602060405180830381865afa158015613213573d6000803e3d6000fd5b505050506040513d601f19601f820116820180604052508101906132379190614fdd565b6001600160a01b03161461085c576040516302619f2b60e51b815260040160405180910390fd5b600061070b83836143fb565b60006001600160401b0382111561329757604051633995b34160e01b815260048101839052602401610956565b5067ffffffffffffffff60a01b60a09190911b166001600160a01b039091161790565b6000818152600183016020526040812054151561070b565b60606000610e98836144f5565b604051631430d62960e21b81526001600160a01b038216906350c358a49061330b903390600401614e95565b602060405180830381865afa158015613328573d6000803e3d6000fd5b505050506040513d601f19601f8201168201806040525081019061334c91906151a8565b61085c573360405163451cea1760e11b81526004016109569190614e95565b806001600160a01b03166318d928316040518163ffffffff1660e01b8152600401602060405180830381865afa1580156133a9573d6000803e3d6000fd5b505050506040513d601f19601f820116820180604052508101906133cd91906151a8565b1561085c57604051635e1633d360e11b815260040160405180910390fd5b600080846001600160a01b0316633b4c9891856040518263ffffffff1660e01b815260040161341a9190614e95565b602060405180830381865afa158015613437573d6000803e3d6000fd5b505050506040513d601f19601f8201168201806040525081019061345b91906151e5565b6040516373cf874b60e11b81529092506001600160a01b0386169063e79f0e969061348a908790600401614e95565b602060405180830381865afa1580156134a7573d6000803e3d6000fd5b505050506040513d601f19601f820116820180604052508101906134cb91906151e5565b9050816000036134ee57604051632f6c853960e11b815260040160405180910390fd5b6134fa600060026154e9565b8116151580613526575082600d81111561351657613516614cd9565b6135219060026154e9565b811615155b610ec05782600d81111561353c5761353c614cd9565b604051630d816ed160e01b815260040161095691815260200190565b600061070b8383614500565b600080846001600160a01b0316633b4c9891876040518263ffffffff1660e01b81526004016135939190614e95565b602060405180830381865afa1580156135b0573d6000803e3d6000fd5b505050506040513d601f19601f820116820180604052508101906135d491906151e5565b91508280156135e1575081155b156135ff57604051632f6c853960e11b815260040160405180910390fd5b811561363d5761360d610f7c565b63ffffffff851660009081526003919091016020908152604080832085845260050190915290205460ff16613640565b60005b9050828015613650575060ff8116155b15610d8f57604051632e8e6b7560e11b815260040160405180910390fd5b6000610843846001600160a01b0385168461454f565b600080600080886001600160a01b031663df1dd976876040518263ffffffff1660e01b81526004016136b891815260200190565b600060405180830381865afa1580156136d5573d6000803e3d6000fd5b505050506040513d6000823e601f3d908101601f191682016040526136fd91908101906150af565b5050935050505060038160ff161061377a5760ff88166000908152600188016020908152604080832060068b0190925290912061373e908b90838a8a61456c565b925082156137785761375181848861472b565b909550935060008490036137785760405163d92e233d60e01b815260040160405180910390fd5b505b50955095509592505050565b600061070b836001600160a01b038416614500565b6001600160a01b0385811660009081526002880160209081526040808320815160a08101835289861681526001818501818152938201869052606082018690526080820186905282549081018355918552929093208251930180546001600160a01b0319811694909516938417815590519193909283916001600160a81b03191617600160a01b83600481111561383457613834614cd9565b0217905550604082810151825460608086015160809687015160ff16600160e81b0260ff60e81b1963ffffffff928316600160c81b0263ffffffff60c81b1993909616600160a81b029290921667ffffffffffffffff60a81b19909416939093179390931792909216179092556001600160a01b03878116600090815260028b016020908152838220845160a0810186528c85168152600181840181815296820185905296810184905296870183905280549586018155825290208451930180546001600160a01b031981169490921693841781559151919283916001600160a81b03191617600160a01b83600481111561393157613931614cd9565b021790555060408201518154606084015160809094015167ffffffffffffffff60a81b19909116600160a81b63ffffffff9384160263ffffffff60c81b191617600160c81b92909416919091029290921760ff60e81b1916600160e81b60ff9093169290920291909117905560006139a76147af565b9050866002016000876001600160a01b03166001600160a01b0316815260200190815260200160002080549050876000016000886001600160a01b03166001600160a01b0316815260200190815260200160002060000160016101000a81548163ffffffff021916908363ffffffff16021790555080876000016000886001600160a01b03166001600160a01b0316815260200190815260200160002060000160136101000a81548165ffffffffffff021916908365ffffffffffff160217905550866002016000866001600160a01b03166001600160a01b0316815260200190815260200160002080549050876000016000876001600160a01b03166001600160a01b0316815260200190815260200160002060000160016101000a81548163ffffffff021916908363ffffffff16021790555080876000016000876001600160a01b03166001600160a01b0316815260200190815260200160002060000160136101000a81548165ffffffffffff021916908365ffffffffffff160217905550613b6a868860010160008b60ff1660ff16815260200190815260200160002060030160008781526020019081526020016000206147fe90919063ffffffff16565b5060ff8816600090815260018801602090815260408083208684526003019091529020613b9790866147fe565b50600080613bac84606001519060a082901c90565b85516020808801516040808a0151815165ffffffffffff8b16815263ffffffff909516938501939093526001600160a01b03918216908401526060830191909152608082018a9052831660a082015260c0810182905260e0810188905291935091507fd7da27827582ad8f7f3f4fc8a20f7be83108736c88b28aa3b41dccf6ad6e877990610100015b60405180910390a150505050505050505050565b600061070b836001600160a01b038416614813565b805160ff16600003613c83576040516315e0349160e11b815260040160405180910390fd5b602081015163ffffffff161561085c576040516366fab05760e01b815260040160405180910390fd5b60408051606080820183526000808352602083015291810191909152600083815260048501602052604081208190613ce4908561409d565b9150915081613d0957600060405163adc7fced60e01b81526004016109569190614e95565b808060a081901c6020808701919091526001600160a01b039091168552600082815260058901909152604090208054613d4190615151565b80601f0160208091040260200160405190810160405280929190818152602001828054613d6d90615151565b8015613dba5780601f10613d8f57610100808354040283529160200191613dba565b820191906000526020600020905b815481529060010190602001808311613d9d57829003601f168201915b505050505084604001819052505050509392505050565b60608301516001600160401b031660009081526004850160205260408120819081908190613dff908761409d565b915091508115613e4b5760608701516001600160401b031660009081526004890160205260409020613e31908761481f565b50613e3f60038a018261325e565b50925060a083901c9150825b60608701516001600160401b031660009081526003890160205260409020613e7390876147fe565b506040518060e00160405280600060ff168152602001600063ffffffff168152602001886040015163ffffffff16815260200160006001600160401b03168152602001600060ff168152602001600060ff168152602001600065ffffffffffff16815250896000016000886001600160a01b03166001600160a01b0316815260200190815260200160002060008201518160000160006101000a81548160ff021916908360ff16021790555060208201518160000160016101000a81548163ffffffff021916908363ffffffff16021790555060408201518160000160056101000a81548163ffffffff021916908363ffffffff16021790555060608201518160000160096101000a8154816001600160401b0302191690836001600160401b0316021790555060808201518160000160116101000a81548160ff021916908360ff16021790555060a08201518160000160126101000a81548160ff021916908360ff16021790555060c08201518160000160136101000a81548165ffffffffffff021916908365ffffffffffff1602179055509050507f43123e2ba4590155d8a1fddade2bb91cc46a6ce2a49d8fba12fdeae963bc7be88688606001518c8a6000015188888b604051613c3597969594939291906001600160a01b0397881681526001600160401b0396909616602087015263ffffffff94909416604086015260ff929092166060850152909316608083015260a082019290925290151560c082015260e00190565b60008080806131bc866001600160a01b0387166143b9565b815160009081816001600160401b038111156140d3576140d3614a6d565b6040519080825280602002602001820160405280156140fc578160200160208202803683370190505b509050600080600061410c610f7c565b60008a81526003919091016020908152604080832060ff8e168452600101909152812091505b8581101561422b5760008061416c8b848151811061415257614152615038565b6020026020010151856000016131ad90919063ffffffff16565b9150915081801561417c57508015155b15614221578087848151811061419457614194615038565b60209081029190910101528515806141ce575080876141b4600189614fb7565b815181106141c4576141c4615038565b6020026020010151105b156141e9576141de836001614fca565b955060019450614221565b80876141f6600189614fb7565b8151811061420657614206615038565b602002602001015103614221578461421d816154f5565b9550505b5050600101614132565b508215614320576000826001146142585761425361424a600185614fb7565b8963ffffffff16565b61425b565b60005b9050806000036142905788614271600186614fb7565b8151811061428157614281615038565b6020026020010151965061431e565b835b8681101561431c57856142a6600187614fb7565b815181106142b6576142b6615038565b60200260200101518682815181106142d0576142d0615038565b6020026020010151036143145781600103614306578981815181106142f7576142f7615038565b6020026020010151975061431c565b816143108161550e565b9250505b600101614292565b505b505b5050505050949350505050565b600081831061433c578161070b565b5090919050565b60608160000180548060200260200160405190810160405280929190818152602001828054801561439357602002820191906000526020600020905b81548152602001906001019080831161437f575b50505050509050919050565b60006143a9610f47565b54600160401b900460ff16919050565b60008181526002830160205260408120548190806143e8576143db8585614813565b9250600091506131c49050565b6001925090506131c4565b509250929050565b600081815260018301602052604081205480156144e457600061441f600183614fb7565b855490915060009061443390600190614fb7565b905080821461449857600086600001828154811061445357614453615038565b906000526020600020015490508087600001848154811061447657614476615038565b6000918252602080832090910192909255918252600188019052604090208390555b85548690806144a9576144a9615525565b60019003818190600052602060002001600090559055856001016000868152602001908152602001600020600090556001935050505061070e565b600091505061070e565b5092915050565b606061070e8261305c565b60008181526001830160205260408120546145475750815460018181018455600084815260208082209093018490558454848252828601909352604090209190915561070e565b50600061070e565b600082815260028401602052604081208290556108438484613558565b60008061457886614834565b9050600181111561472157600061459c614593600184614fb7565b8563ffffffff16565b9050805b60006145ac898361483e565b604051636f8eecbb60e11b8152600481018290529091506000906001600160a01b038c169063df1dd97690602401600060405180830381865afa1580156145f7573d6000803e3d6000fd5b505050506040513d6000823e601f3d908101601f1916820160405261461f91908101906150af565b5050935050505060038160ff16101580156146515750600082815260038a016020526040902061464e90614834565b15155b801561465d5750818814155b80156146d65750604051630562452b60e21b815260048101899052602481018390526001600160a01b038c169063158914ac90604401602060405180830381865afa1580156146b0573d6000803e3d6000fd5b505050506040513d601f19601f820116820180604052508101906146d491906151a8565b155b156146e35750935061471e565b846146ef846001614fca565b14614704576146ff836001614fca565b614707565b60005b925083830361471757505061471e565b50506145a0565b50505b5095945050505050565b6000828152600384016020526040812081908161474782614834565b905080156147a55760008160011461477557614770614767600184614fb7565b8763ffffffff16565b614778565b60005b9050614784838261483e565b600088815260048a01602052604090209095506147a1908661484a565b9350505b5050935093915050565b60006147b9610f7c565b6003600090815260209190915260409020546147d690600161553b565b90508065ffffffffffff166147e9610f7c565b60036000908152602091909152604090205590565b600061070b836001600160a01b0384166143fb565b600061070b83836132ba565b600061070b836001600160a01b03841661485f565b600061070e825490565b600061070b838361487c565b600061070b836001600160a01b0384166148a6565b6000818152600283016020526040812081905561070b838361325e565b600082600001828154811061489357614893615038565b9060005260206000200154905092915050565b6000818152600283016020526040812054801580156148cc57506148ca8484614813565b155b1561070b5760405163015ab34360e11b815260048101849052602401610956565b6040805160a081019091526000808252602082019081526000602082018190526040820181905260609091015290565b6040805160e081018252600080825260208201819052918101829052606081018290526080810182905260a0810182905260c081019190915290565b6040805161018081018252600080825260208201819052918101829052606081018290526080810182905260a0810182905260c0810182905260e08101829052610100810182905261012081019190915261014081016149b761491d565b81526040805160808101825260008082526020828101829052928201819052606082015291015290565b60ff8116811461085c57600080fd5b600060208284031215614a0257600080fd5b813561070b816149e1565b63ffffffff8116811461085c57600080fd5b6001600160a01b038116811461085c57600080fd5b60008060408385031215614a4757600080fd5b8235614a5281614a0d565b91506020830135614a6281614a1f565b809150509250929050565b634e487b7160e01b600052604160045260246000fd5b604051601f8201601f191681016001600160401b0381118282101715614aab57614aab614a6d565b604052919050565b60006001600160401b03821115614acc57614acc614a6d565b50601f01601f191660200190565b600082601f830112614aeb57600080fd5b8135614afe614af982614ab3565b614a83565b818152846020838601011115614b1357600080fd5b816020850160208301376000918101602001919091529392505050565b60008060008060808587031215614b4657600080fd5b8435614b5181614a1f565b93506020850135614b6181614a1f565b92506040850135915060608501356001600160401b03811115614b8357600080fd5b614b8f87828801614ada565b91505092959194509250565b60008060408385031215614bae57600080fd5b8235614bb9816149e1565b91506020830135614a6281614a0d565b6020808252825182820181905260009190848201906040850190845b81811015614c0157835183529284019291840191600101614be5565b50909695505050505050565b600060208284031215614c1f57600080fd5b813561070b81614a1f565b600080600060608486031215614c3f57600080fd5b8335614c4a816149e1565b92506020840135614c5a81614a0d565b929592945050506040919091013590565b600060208284031215614c7d57600080fd5b5035919050565b60008060408385031215614c9757600080fd5b823591506020830135614a6281614a0d565b600080600060608486031215614cbe57600080fd5b8335614cc981614a0d565b92506020840135614c5a81614a1f565b634e487b7160e01b600052602160045260246000fd5b81516001600160a01b03168152602082015160a082019060058110614d2457634e487b7160e01b600052602160045260246000fd5b80602084015250604083015163ffffffff8082166040850152806060860151166060850152505060ff608084015116608083015292915050565b600080600060608486031215614d7357600080fd5b8335614d7e81614a1f565b9250602084013591506040840135614d9581614a0d565b809150509250925092565b6020808252825182820181905260009190848201906040850190845b81811015614c015783516001600160a01b031683529284019291840191600101614dbc565b60008060008060808587031215614df757600080fd5b8435614e02816149e1565b93506020850135614e1281614a0d565b92506040850135614e2281614a1f565b9396929550929360600135925050565b60005b83811015614e4d578181015183820152602001614e35565b50506000910152565b60008151808452614e6e816020860160208601614e32565b601f01601f19169290920160200192915050565b60208152600061070b6020830184614e56565b6001600160a01b0391909116815260200190565b60008060008060808587031215614ebf57600080fd5b8435614eca81614a1f565b93506020850135925060408501356001600160401b03811115614eec57600080fd5b614ef887828801614ada565b9250506060850135614f09816149e1565b939692955090935050565b60008060408385031215614f2757600080fd5b8235614f3281614a1f565b946020939093013593505050565b60008060008060808587031215614f5657600080fd5b8435614f61816149e1565b93506020850135614f7181614a0d565b9250604085013591506060850135614f0981614a1f565b6001600160a01b03929092168252602082015260400190565b634e487b7160e01b600052601160045260246000fd5b8181038181111561070e5761070e614fa1565b8082018082111561070e5761070e614fa1565b600060208284031215614fef57600080fd5b815161070b81614a1f565b634e487b7160e01b600052601260045260246000fd5b60008261501f5761501f614ffa565b500490565b60008261503357615033614ffa565b500690565b634e487b7160e01b600052603260045260246000fd5b600082601f83011261505f57600080fd5b815161506d614af982614ab3565b81815284602083860101111561508257600080fd5b610843826020830160208701614e32565b80516001600160401b03811681146150aa57600080fd5b919050565b60008060008060008060c087890312156150c857600080fd5b86516001600160401b03808211156150df57600080fd5b6150eb8a838b0161504e565b9750602089015191508082111561510157600080fd5b5061510e89828a0161504e565b955050604087015161511f81614a1f565b6060880151909450615130816149e1565b925061513e60808801615093565b915060a087015190509295509295509295565b600181811c9082168061516557607f821691505b60208210810361518557634e487b7160e01b600052602260045260246000fd5b50919050565b60006020828403121561519d57600080fd5b815161070b816149e1565b6000602082840312156151ba57600080fd5b8151801515811461070b57600080fd5b6000602082840312156151dc57600080fd5b61070b82615093565b6000602082840312156151f757600080fd5b5051919050565b600060a0828403121561521057600080fd5b60405160a081018181106001600160401b038211171561523257615232614a6d565b604052825161524081614a0d565b8152602083015161525081614a0d565b6020820152604083015161526381614a0d565b6040820152606083015161527681614a0d565b6060820152608083015161528981614a0d565b60808201529392505050565b63ffffffff8281168282160390808211156144ee576144ee614fa1565b601f8211156152fa576000816000526020600020601f850160051c810160208610156152db5750805b601f850160051c820191505b8181101561082e578281556001016152e7565b505050565b81516001600160401b0381111561531857615318614a6d565b61532c816153268454615151565b846152b2565b602080601f83116001811461536157600084156153495750858301515b600019600386901b1c1916600185901b17855561082e565b600085815260208120601f198616915b8281101561539057888601518255948401946001909101908401615371565b50858210156153ae5787850151600019600388901b60f8161c191681555b5050505050600190811b01905550565b63ffffffff8181168382160190808211156144ee576144ee614fa1565b61ffff8181168382160190808211156144ee576144ee614fa1565b808202811582820484141761070e5761070e614fa1565b600181815b808511156143f357816000190482111561542e5761542e614fa1565b8085161561543b57918102915b93841c9390800290615412565b6000826154575750600161070e565b816154645750600061070e565b816001811461547a5760028114615484576154a0565b600191505061070e565b60ff84111561549557615495614fa1565b50506001821b61070e565b5060208310610133831016604e8410600b84101617156154c3575081810a61070e565b6154cd838361540d565b80600019048211156154e1576154e1614fa1565b029392505050565b600061070b8383615448565b60006001820161550757615507614fa1565b5060010190565b60008161551d5761551d614fa1565b506000190190565b634e487b7160e01b600052603160045260246000fd5b65ffffffffffff8181168382160190808211156144ee576144ee614fa156fe22573091f17911fb166032a3d9e0554aa73d31b7b7ddea4a4dd2995650af84bda26469706673582212204affa8f29f3c0492de33f003f072fc29d6cb8c9e4e5b2760f520527e986d3ea264736f6c63430008170033",
  "deployedBytecode": "0x608060405234801561001057600080fd5b50600436106102555760003560e01c80637cc9638011610147578063cb80c82f116100be578063cb80c82f1461062e578063ce24c6e514610641578063ce4a79a914610654578063d2336d2e14610667578063d49e18be1461066f578063dee1f0e414610682578063e22d24af14610695578063e89acf061461069d578063f2f17ec8146106a5578063f77c4791146106c6578063f88cb61d146106ce578063ffa1ad741461058957600080fd5b80637cc96380146104b9578063859ec734146104c1578063901bccda146104d457806390c928cd146104e757806390e52dc3146104fa578063936725ec14610589578063991bb818146105ba5780639d0bcca0146105cd578063a399f0d7146105e2578063b2c56c9b146105f5578063b429afeb14610608578063c5beb1e01461061b57600080fd5b80633349eafa116101db5780633349eafa146103a357806342be39a4146103b6578063454ac5c8146103dc5780634593144c146103ef57806347ff6204146103f75780634fac6ccd14610417578063572b6c051461042a5780635ecd46781461044d57806361aa8057146104605780636672009e1461047357806371c2b99c146104935780637a5654d8146104a657600080fd5b806306575c891461025a5780630984b3cb1461027c5780630abb07c3146102a4578063150b7a02146102c55780631518fc25146102fc57806319ab453c1461031c5780631b541a351461033157806325b3b32c146103445780632b529bde146103575780632fe7b1b51461037c578063325a19f11461039b575b600080fd5b6102626106d6565b60405163ffffffff90911681526020015b60405180910390f35b61028f61028a3660046149f0565b6106e6565b60408051928352602083019190915201610273565b6102b76102b2366004614a34565b6106ff565b604051908152602001610273565b6102e36102d3366004614b30565b630a85bd0160e11b949350505050565b6040516001600160e01b03199091168152602001610273565b61030f61030a366004614b9b565b610714565b6040516102739190614bc9565b61032f61032a366004614c0d565b610720565b005b6102b761033f366004614c2a565b610836565b61032f610352366004614c6b565b61084b565b61036a610365366004614c6b565b61085f565b60405160ff9091168152602001610273565b61038461086a565b60405165ffffffffffff9091168152602001610273565b6102b7610874565b61036a6103b1366004614c84565b6108a8565b6103c96103c43660046149f0565b6108b4565b60405161ffff9091168152602001610273565b6102626103ea366004614c6b565b6108bf565b6102b76108ca565b61040a610405366004614ca9565b6108fa565b6040516102739190614cef565b61032f610425366004614c0d565b61090d565b61043d610438366004614c0d565b610a1f565b6040519015158152602001610273565b61043d61045b366004614d5e565b610a94565b6102b761046e3660046149f0565b610aa1565b610486610481366004614c2a565b610aac565b6040516102739190614da0565b61032f6104a1366004614c0d565b610ab9565b6104866104b4366004614c2a565b610aca565b6102b7610ad7565b6102626104cf3660046149f0565b610af5565b61032f6104e23660046149f0565b610b00565b6102b76104f5366004614de1565b610b1d565b61050d610508366004614a34565b610b34565b6040516102739190600060e08201905060ff8351168252602083015163ffffffff808216602085015280604086015116604085015250506001600160401b03606084015116606083015260ff608084015116608083015260ff60a08401511660a083015265ffffffffffff60c08401511660c083015292915050565b6105ad604051806040016040528060058152602001640312e302e360dc1b81525081565b6040516102739190614e82565b6105ad6105c8366004614de1565b610b46565b6105d5610b54565b6040516102739190614e95565b61032f6105f0366004614ea9565b610b84565b61043d610603366004614d5e565b610baa565b61043d610616366004614c0d565b610bb7565b61028f6106293660046149f0565b610bdc565b61032f61063c366004614c6b565b610be8565b61032f61064f3660046149f0565b610bf9565b61043d610662366004614f14565b610c06565b61032f610c1b565b61032f61067d3660046149f0565b610c39565b61043d610690366004614c0d565b610cd3565b61032f610d58565b6102b7610d71565b6106b86106b3366004614f40565b610d7b565b604051610273929190614f88565b6105d5610d98565b6105d5610dc8565b60006106e142610dd2565b905090565b6000806106f68342610def610e9f565b91509150915091565b600061070b8383610ec8565b90505b92915050565b606061070b8383610f0b565b600061072a610f47565b805490915060ff600160401b82041615906001600160401b03166000811580156107515750825b90506000826001600160401b0316600114801561076d5750303b155b90508115801561077b575080155b156107995760405163f92ee8a960e01b815260040160405180910390fd5b845467ffffffffffffffff1916600117855583156107c357845460ff60401b1916600160401b1785555b6107cc86610f6b565b60056107d6610f7c565b600160009081526020919091526040902055831561082e57845460ff60401b19168555604051600181527fc7f505b2f371ae2175ee4913f4499e1f2633a7b5936321eed1cdaeb6115181d29060200160405180910390a15b505050505050565b6000610843848484610fa0565b949350505050565b61085c610856610d98565b82611001565b50565b600061070e826110f2565b60006106e1611113565b60006106e16108a460017f6f55f470bdc9cb5f04223fd822021061668e4dccb43e8727b295106dc9769c8b614fb7565b5490565b600061070b8383611147565b600061070e82611181565b600061070e82610dd2565b60006106e16108a460017f812a673dfca07956350df10f8a654925f561d7a0da09bdbe79e653939a14d9f1614fb7565b6109026148ed565b6108438484846111b2565b33301461095f5760405162461bcd60e51b815260206004820152601b60248201527a24b731b932b0b9b2903932bb34b9b4b7b7103337b93134b23232b760291b60448201526064015b60405180910390fd5b600061097d6108a4600160008051602061555b833981519152614fb7565b610988906001614fca565b90506109aa816109a7600160008051602061555b833981519152614fb7565b55565b6109d9826109a760017fbfaaa2fb63266ff27c2da975f5894955056f50419af651a81f6c5060581857e4614fb7565b604080518281526001600160a01b03841660208201527ff27e2ef832a4eb8ed8ec553b875eecd44764cda95b1c24170e281539e0a869c891015b60405180910390a15050565b60006001600160a01b03821673d8253782c45a12053594b9deb72d8e8ab2fca54c1480610a6857506001600160a01b0382167352ceba41da235af367bfc0b0ccd3314cb901bb5f145b8061070e57506001600160a01b03821673102f1f556cd9c3d5f820e6920a8931657c5da21b1492915050565b600061084384848461129b565b600061070e826112d9565b6060610843848484611308565b61085c610ac4610d98565b8261134f565b60606108438484846113af565b60006106e16108a4600160008051602061555b833981519152614fb7565b600061070e826113f3565b61085c610b0b611426565b610b13610d98565b8342610def61144b565b6000610b2b8585858561169f565b95945050505050565b610b3c61491d565b61070b8383611782565b6060610b2b8585858561183d565b60006106e16108a460017fbfaaa2fb63266ff27c2da975f5894955056f50419af651a81f6c5060581857e4614fb7565b610ba4610b8f611426565b610b97610d98565b8686868642610def611920565b50505050565b6000610843848484612551565b6000610bc1610d98565b6001600160a01b0316826001600160a01b0316149050919050565b6000806106f6836125cf565b61085c610bf3610d98565b82612639565b61085c8142610def61268e565b600061070b8383610c1642610dd2565b61129b565b610c37610c26611426565b610c2e610d98565b42610def612699565b565b73__$695852aadc1d4ca48ce3d505359eaf15eb$__638eb687a9610c5b611426565b610c63610d98565b6040516001600160e01b031960e085901b1681526001600160a01b0392831660048201529116602482015242604482015260ff8416606482015260840160006040518083038186803b158015610cb857600080fd5b505af4158015610ccc573d6000803e3d6000fd5b5050505050565b6000816001600160a01b0316610ce7610d98565b6001600160a01b0316635aa6e6756040518163ffffffff1660e01b8152600401602060405180830381865afa158015610d24573d6000803e3d6000fd5b505050506040513d601f19601f82011682018060405250810190610d489190614fdd565b6001600160a01b03161492915050565b610c37610d63611426565b610d6b610d98565b4261292c565b60006106e1612a33565b600080610d8a86868686612a46565b915091505b94509492505050565b60006106e16108a460017f5165972ef41194f06c5007493031d0b927c20741adcb74403b954009fd2c3618614fb7565b60006106e1612ab7565b600061070e610de46201518084615010565b63ffffffff16612aca565b600081600003610e0157506000919050565b6000610e0b612ae3565b9050610e18836001614fca565b4340414443423a5a88604051602001610e7598979695949392919097885260609690961b6001600160601b0319166020880152603487019490945260548601929092526074850152609484015260b483015260d482015260f40190565b6040516020818303038152906040528051906020012060001c610e989190615024565b9392505050565b6000806000610eaf868686612b1a565b9050610eba81612f49565b92509250505b935093915050565b6000610ed2610f7c565b63ffffffff84166000908152600391909101602090815260408083206001600160a01b0386168452600201909152902054905092915050565b606061070b610f18610f7c565b63ffffffff841660009081526003919091016020908152604080832060ff88168452600601909152902061305c565b7ff0c57e16840df040f15088dc2f81fe391c3923bec73e23a9662efc9c229c6a0090565b610f73613069565b61085c8161308e565b7f6750db0cf5db3c73c8abbeff54ef9c65daabbed6967cb68f37e0698f5fc7bb0090565b6000806000610fe584610fb1610f7c565b63ffffffff80891660009081526003929092016020908152604080842060ff8d16855260010190915290912091906131ad16565b9150915081610ff5576000610ff7565b805b9695505050505050565b61100a826131cb565b6000611014610f7c565b600301600061102242610dd2565b63ffffffff1681526020808201929092526040908101600090812085825260058101909352205490915060ff1680156110755760ff811660009081526006830160205260409020611073908461325e565b505b600061107f610f7c565b6000858152600291909101602052604090205460ff1690508015610ccc576110a5610f7c565b600085815260029190910160205260409020805460ff191690556110c7610f7c565b60ff821660009081526001919091016020526040902080546001600160701b03191690555050505050565b60006110fc610f7c565b600092835260020160205250604090205460ff1690565b600061111d610f7c565b600060035b600381111561113357611133614cd9565b815260200190815260200160002054905090565b6000611151610f7c565b63ffffffff9290921660009081526003909201602090815260408084209484526005909401905250205460ff1690565b600061118b610f7c565b60ff9290921660009081526001909201602052506040902054600160601b900461ffff1690565b6111ba6148ed565b6111c2610f7c565b63ffffffff85166000908152600391909101602090815260408083206001600160a01b0387168452600201909152902080548390811061120457611204615038565b60009182526020918290206040805160a08101909152910180546001600160a01b03811683529192909190830190600160a01b900460ff16600481111561124d5761124d614cd9565b600481111561125e5761125e614cd9565b81529054600160a81b810463ffffffff9081166020840152600160c81b8204166040830152600160e81b900460ff16606090910152949350505050565b6000806112a6610f7c565b60030160008463ffffffff1681526020019081526020016000209050610b2b6112cf868661326a565b60038301906132ba565b60006112e3610f7c565b60ff90921660009081526001929092016020525060409020546001600160401b031690565b6060610843611315610f7c565b63ffffffff851660009081526003919091016020908152604080832060ff89168452600101825280832086845260040190915290206132d2565b611358826132df565b806001600160a01b031661136a610f7c565b600060028152602001908152602001600020819055507fb55212beea0c27733221a3151de625a0f9a00c6435c0ec42102d42180204eb2c81604051610a139190614e95565b60606108436113bc610f7c565b63ffffffff8516600090815260039182016020908152604080832060ff8a168452600101825280832087845290930190522061305c565b60006113fd610f7c565b60ff9290921660009081526001909201602052506040902054600160401b900463ffffffff1690565b600061143133610a1f565b15611443575060131936013560601c90565b503390565b90565b6114548461336b565b6000846001600160a01b03166325eb1c876040518163ffffffff1660e01b8152600401602060405180830381865afa158015611494573d6000803e3d6000fd5b505050506040513d601f19601f820116820180604052508101906114b89190614fdd565b90508360ff166000036114e357604051637d34ca9360e01b815260ff85166004820152602401610956565b60006114f18288600d6133eb565b50604051636f8eecbb60e11b8152600481018290529091506000906001600160a01b0384169063df1dd97690602401600060405180830381865afa15801561153d573d6000803e3d6000fd5b505050506040513d6000823e601f3d908101601f1916820160405261156591908101906150af565b5050935050505060038160ff161015611591576040516368dfb41160e11b815260040160405180910390fd5b50600061159d85610dd2565b905060006115a9610f7c565b63ffffffff8316600090815260039190910160209081526040808320868452600581019092529091205490915060ff16156115f757604051637e524e1960e01b815260040160405180910390fd5b611602878787612b1a565b5060008381526005820160209081526040808320805460ff191660ff8c16908117909155835260068401909152902061163b9084613558565b50604080516001600160a01b038b16815260ff8916602082015290810184905263ffffffff831660608201527f5e1c8323b6cf985eec8241831ea88c82e70a972471b5f5b9afcb5fc46b5eb24a9060800160405180910390a1505050505050505050565b6000610b2b6116ac610f7c565b63ffffffff861660009081526003919091016020908152604080832060ff8a1684526001019091528120600501906116e4868661326a565b815260200190815260200160002080546116fd90615151565b80601f016020809104026020016040519081016040528092919081815260200182805461172990615151565b80156117765780601f1061174b57610100808354040283529160200191611776565b820191906000526020600020905b81548152906001019060200180831161175957829003601f168201915b50505050506040015190565b61178a61491d565b611792610f7c565b63ffffffff9384166000908152600391909101602090815260408083206001600160a01b0395909516835293815290839020835160e081018552905460ff80821683526101008204871693830193909352600160281b810490951693810193909352600160481b84046001600160401b03166060840152600160881b840481166080840152600160901b84041660a083015250600160981b90910465ffffffffffff1660c082015290565b6060611847610f7c565b63ffffffff851660009081526003919091016020908152604080832060ff8916845260010190915281206005019061187f858561326a565b8152602001908152602001600020805461189890615151565b80601f01602080910402602001604051908101604052809291908181526020018280546118c490615151565b80156119115780601f106118e657610100808354040283529160200191611911565b820191906000526020600020905b8154815290600101906020018083116118f457829003601f168201915b50505050509050949350505050565b6119298761336b565b611931614959565b876001600160a01b03166325eb1c876040518163ffffffff1660e01b8152600401602060405180830381865afa15801561196f573d6000803e3d6000fd5b505050506040513d601f19601f820116820180604052508101906119939190614fdd565b81606001906001600160a01b031690816001600160a01b031681525050876001600160a01b031663016dff5d6040518163ffffffff1660e01b8152600401602060405180830381865afa1580156119ee573d6000803e3d6000fd5b505050506040513d601f19601f82011682018060405250810190611a129190614fdd565b81608001906001600160a01b031690816001600160a01b031681525050876001600160a01b0316628e96916040518163ffffffff1660e01b8152600401602060405180830381865afa158015611a6c573d6000803e3d6000fd5b505050506040513d601f19601f82011682018060405250810190611a909190614fdd565b6001600160a01b031660a0820152611aa783610dd2565b63ffffffff16602082018190526060820151611ac7918b91906001613564565b60ff1682526101208201526040516331a9108f60e11b8152600481018790526001600160a01b038a81169190891690636352211e90602401602060405180830381865afa158015611b1c573d6000803e3d6000fd5b505050506040513d601f19601f82011682018060405250810190611b409190614fdd565b6001600160a01b031614611b6b57868660405163547208b960e11b8152600401610956929190614f88565b80608001516001600160a01b0316631789b7b1886040518263ffffffff1660e01b8152600401611b9b9190614e95565b602060405180830381865afa158015611bb8573d6000803e3d6000fd5b505050506040513d601f19601f82011682018060405250810190611bdc919061518b565b60ff16600003611c01578660405163adc7fced60e01b81526004016109569190614e95565b876001600160a01b0316632f91ede96040518163ffffffff1660e01b8152600401602060405180830381865afa158015611c3f573d6000803e3d6000fd5b505050506040513d601f19601f82011682018060405250810190611c639190614fdd565b6001600160a01b0316635451da1b88886040518363ffffffff1660e01b8152600401611c90929190614f88565b602060405180830381865afa158015611cad573d6000803e3d6000fd5b505050506040513d601f19601f82011682018060405250810190611cd191906151a8565b15611cf3578686604051634f38de4760e11b8152600401610956929190614f88565b8060a001516001600160a01b031663f16a306688886040518363ffffffff1660e01b8152600401611d25929190614f88565b602060405180830381865afa158015611d42573d6000803e3d6000fd5b505050506040513d601f19601f82011682018060405250810190611d6691906151a8565b611d8757868660405163033aace360e41b8152600401610956929190614f88565b608081015160405163dec38e7760e01b81526001916001600160a01b03169063dec38e7790611dbc908b908b90600401614f88565b602060405180830381865afa158015611dd9573d6000803e3d6000fd5b505050506040513d601f19601f82011682018060405250810190611dfd919061518b565b60ff1603611e1e57604051631ed7101960e21b815260040160405180910390fd5b876001600160a01b031663683fedf76040518163ffffffff1660e01b8152600401602060405180830381865afa158015611e5c573d6000803e3d6000fd5b505050506040513d601f19601f82011682018060405250810190611e809190614fdd565b6001600160a01b0316639a641e0288886040518363ffffffff1660e01b8152600401611ead929190614f88565b602060405180830381865afa158015611eca573d6000803e3d6000fd5b505050506040513d601f19601f82011682018060405250810190611eee91906151ca565b6001600160401b031615611f145760405162dc1c0b60e01b815260040160405180910390fd5b608081015160405163ec5316b560e01b81526001916001600160a01b03169063ec5316b590611f49908b908b90600401614f88565b602060405180830381865afa158015611f66573d6000803e3d6000fd5b505050506040513d601f19601f82011682018060405250810190611f8a91906151e5565b1115611fa957604051639928185760e01b815260040160405180910390fd5b60a0810151604051631a95890960e31b81526000916001600160a01b03169063d4ac484890611fde908b908b90600401614f88565b60a060405180830381865afa158015611ffb573d6000803e3d6000fd5b505050506040513d601f19601f8201168201806040525081019061201f91906151fe565b51905061202a612a33565b8163ffffffff16101561205857604051634bebee7f60e01b815263ffffffff82166004820152602401610956565b508051612066908484612b1a565b506000612071610f7c565b60208381015163ffffffff9081166000908152600393909301825260408084206001600160a01b038f16855280845293819020815160e081018352905460ff80821683526101008204851695830195909552600160281b810490931691810191909152600160481b82046001600160401b03166060820152600160881b820483166080820152600160901b8204831660a0820152600160981b90910465ffffffffffff1660c0820152610140850181905251919250161561215257610140820151516040516321da897960e11b815260ff9091166004820152602401610956565b612161600163ffffffff615295565b63ffffffff168261014001516040015163ffffffff16106121a35760208201516040516305eee3b960e11b815263ffffffff9091166004820152602401610956565b815160ff16600090815260018201602052604090206121c2898961326a565b604084015260006121d4886040015190565b905080156121f55760405163d860955b60e01b815260040160405180910390fd5b6040808501516000908152600584016020522061221289826152ff565b50506040808401516101208501516000908152600484016020529190912061223b918d9061366e565b50604083015161224f906003840190613558565b506040805160e081018252845160ff1681526000602082015261014085015182015190918201906122819060016153be565b63ffffffff1681526020018461012001516001600160401b03168152602001600060ff1681526020018760ff168152602001600065ffffffffffff168152508260000160008d6001600160a01b03166001600160a01b0316815260200190815260200160002060008201518160000160006101000a81548160ff021916908360ff16021790555060208201518160000160016101000a81548163ffffffff021916908363ffffffff16021790555060408201518160000160056101000a81548163ffffffff021916908363ffffffff16021790555060608201518160000160096101000a8154816001600160401b0302191690836001600160401b0316021790555060808201518160000160116101000a81548160ff021916908360ff16021790555060a08201518160000160126101000a81548160ff021916908360ff16021790555060c08201518160000160136101000a81548165ffffffffffff021916908365ffffffffffff1602179055509050507f2521d98b2c88e19cb124cca9f2860404ff4e038f074120bbc3d69e2c751ffc928b8461012001518b8b87602001518860000151604051612476969594939291906001600160a01b0396871681526020810195909552929094166040840152606083015263ffffffff92909216608082015260ff9190911660a082015260c00190565b60405180910390a1612498836060015184600001518486610120015188613684565b61010086015260e08501526001600160a01b031660c084018190526124dd57610120830151600090815260038201602052604090206124d7908c613786565b50612544565b6040518060800160405280846020015163ffffffff1681526020018a6001600160a01b031681526020018981526020018460e001518152508361016001819052506125448360000151838d8660c0015187610120015188610100015189610160015161379b565b5050505050505050505050565b60008061255c610f7c565b63ffffffff8416600090815260039190910160209081526040808320878452600581019092529091205490915060ff1680156125c35760ff81166000908152600183016020908152604080832088845260040190915290206125be9087613c49565b610ff7565b50600095945050505050565b6000806106f66125dd610f7c565b60ff851660009081526001919091016020908152604091829020825160608101845290546001600160401b0381168252600160401b810463ffffffff1692820192909252600160601b90910461ffff1691810191909152612f49565b612642826132df565b8061264b610f7c565b6001600090815260209182526040908190209290925590518281527fee3ba0763748d6e285026c82cf5f0233531ace4040dce0d5c4434c55bf5cd9399101610a13565b610ba4838383612b1a565b6126a28361336b565b6040805160c081018252600080825260208201819052918101829052606081018290526080810182905260a0810191909152836001600160a01b03166325eb1c876040518163ffffffff1660e01b8152600401602060405180830381865afa158015612712573d6000803e3d6000fd5b505050506040513d601f19601f820116820180604052508101906127369190614fdd565b6001600160a01b0316606082015261274d83610dd2565b63ffffffff1660208201819052606082015161276d918791906001613564565b60ff16825250600061277d610f7c565b60208381015163ffffffff9081166000908152600393909301825260408084206001600160a01b038b16855280845293819020815160e081018352905460ff80821683526101008204851695830195909552600160281b810490931691810191909152600160481b82046001600160401b03166060820152600160881b820483166080820152600160901b820490921660a0830152600160981b900465ffffffffffff1660c082015290915061283281613c5e565b612854836060015184600001518484606001516001600160401b031688613684565b60a086015260808501526001600160a01b03166040840181905261288b57604051633381fb0d60e01b815260040160405180910390fd5b805160ff166000908152600183016020526040812060608301516128b991906001600160401b03168a613cac565b90506129228460000151848a876040015186606001516001600160401b03168960a0015160405180608001604052808c6020015163ffffffff16815260200189600001516001600160a01b03168152602001896020015181526020018c6080015181525061379b565b5050505050505050565b6129358261336b565b600061294082610dd2565b9050600061294c610f7c565b63ffffffff8381166000908152600392909201602090815260408084206001600160a01b038a16855280835293819020815160e081018352905460ff80821683526101008204861694830194909452600160281b810490941691810191909152600160481b83046001600160401b03166060820152600160881b830482166080820152600160901b830490911660a0820152600160981b90910465ffffffffffff1660c08201529091506129ff81613c5e565b805160ff1660009081526001808401602052604090912090612a2a9085908590849086908c90613dd1565b50505050505050565b6000612a3d610f7c565b60006001611122565b600080600080612a9785612a58610f7c565b63ffffffff808b1660009081526003929092016020908152604080842060ff8f16855260010182528084208c8552600401909152909120919061409d16565b915091508115612aac57925060a083901c9150825b505094509492505050565b6000612ac1610f7c565b60006002611122565b60006007612ad9836003614fca565b61070e9190615010565b60006350877ed6461480612afa5750630235ddd046145b15611448576040518060208160008060185afa612b1357fe5b5051905090565b6040805160608101825260008082526020820181905291810191909152612b3f610f7c565b60ff8516600090815260019190910160209081526040808320815160608101835290546001600160401b0381168252600160401b810463ffffffff1693820193909352600160601b90920461ffff16908201529150612b9d84610dd2565b9050816020015163ffffffff16600003612c6c5763ffffffff8116602083015281612bc6610f7c565b60ff8716600081815260019290920160209081526040928390208451815486840151968601516001600160401b039092166001600160601b031990911617600160401b63ffffffff978816021761ffff60601b1916600160601b61ffff909216919091021790558251918252928416928101929092527f1122d4fb8516daedc106927e0acc4baf5f6be5f82112b501be8790859c3d4d9b910160405180910390a1612f41565b816020015163ffffffff168163ffffffff1614612f41576000612cc1612c90610f7c565b60208086015163ffffffff1660009081526003929092018152604080832060ff8b168452600601909152902061305c565b90506000612cdb87856020015163ffffffff1684886140b5565b905080600003612cf2575082516001600160401b03165b83516001600160401b03168114612e1b576000612d0d610f7c565b60008381526002919091016020526040902054855160ff90911691506001600160401b031615612d6557612d3f610f7c565b85516001600160401b0316600090815260029190910160205260409020805460ff191690555b60ff811615612dec576000612d78610f7c565b60ff8316600090815260019190910160205260408120805467ffffffffffffffff19166001600160401b039390931692909217909155612db6610f7c565b60ff8316600090815260019190910160205260409020805461ffff92909216600160601b0261ffff60601b199092169190911790555b87612df5610f7c565b600084815260029190910160205260409020805460ff191660ff92909216919091179055505b6040518060600160405280826001600160401b031681526020018463ffffffff16815260200185600001516001600160401b031683148015612e5c57508215155b612e67576000612e85565b6020860151612e769086615295565b8660400151612e8591906153db565b61ffff169052935083612e96610f7c565b60ff8916600081815260019290920160209081526040928390208451815486840151968601516001600160401b039092166001600160601b031990911617600160401b63ffffffff978816021761ffff60601b1916600160601b61ffff9092169190910217905582519182529286169281019290925281018290527f1ffb10ddeed1be3e5ce0225fdd14d2df110d52b970118a7f9d58de2ecce3c0629060600160405180910390a150505b509392505050565b80516001600160401b031660008115612f64576103e8612f67565b60005b90508115613057576000612f79610f7c565b60026000908152602091909152604090205490506001600160a01b03811615613055576040516306d71c2560e51b8152600481018490526000906001600160a01b0383169063dae384a090602401602060405180830381865afa158015612fe4573d6000803e3d6000fd5b505050506040513d601f19601f8201168201806040525081019061300891906151e5565b9050670de0b6b3a764000061302582670de0b6b3a764000061432d565b6130336103e8612710614fb7565b61303d91906153f6565b6130479190615010565b6130519084614fca565b9250505b505b915091565b60606000610e9883614343565b61307161439f565b610c3757604051631afcd79f60e31b815260040160405180910390fd5b6001600160a01b0381166130d65760405162461bcd60e51b815260206004820152600f60248201526e2d32b9379031b7b73a3937b63632b960891b6044820152606401610956565b613105816109a760017f5165972ef41194f06c5007493031d0b927c20741adcb74403b954009fd2c3618614fb7565b613134426109a760017f6f55f470bdc9cb5f04223fd822021061668e4dccb43e8727b295106dc9769c8b614fb7565b613163436109a760017f812a673dfca07956350df10f8a654925f561d7a0da09bdbe79e653939a14d9f1614fb7565b604080516001600160a01b0383168152426020820152438183015290517f1a2dd071001ebf6e03174e3df5b305795a4ad5d41d8fdb9ba41dbbe2367134269181900360600190a150565b60008080806131bc86866143b9565b909450925050505b9250929050565b336001600160a01b0316816001600160a01b03166325eb1c876040518163ffffffff1660e01b8152600401602060405180830381865afa158015613213573d6000803e3d6000fd5b505050506040513d601f19601f820116820180604052508101906132379190614fdd565b6001600160a01b03161461085c576040516302619f2b60e51b815260040160405180910390fd5b600061070b83836143fb565b60006001600160401b0382111561329757604051633995b34160e01b815260048101839052602401610956565b5067ffffffffffffffff60a01b60a09190911b166001600160a01b039091161790565b6000818152600183016020526040812054151561070b565b60606000610e98836144f5565b604051631430d62960e21b81526001600160a01b038216906350c358a49061330b903390600401614e95565b602060405180830381865afa158015613328573d6000803e3d6000fd5b505050506040513d601f19601f8201168201806040525081019061334c91906151a8565b61085c573360405163451cea1760e11b81526004016109569190614e95565b806001600160a01b03166318d928316040518163ffffffff1660e01b8152600401602060405180830381865afa1580156133a9573d6000803e3d6000fd5b505050506040513d601f19601f820116820180604052508101906133cd91906151a8565b1561085c57604051635e1633d360e11b815260040160405180910390fd5b600080846001600160a01b0316633b4c9891856040518263ffffffff1660e01b815260040161341a9190614e95565b602060405180830381865afa158015613437573d6000803e3d6000fd5b505050506040513d601f19601f8201168201806040525081019061345b91906151e5565b6040516373cf874b60e11b81529092506001600160a01b0386169063e79f0e969061348a908790600401614e95565b602060405180830381865afa1580156134a7573d6000803e3d6000fd5b505050506040513d601f19601f820116820180604052508101906134cb91906151e5565b9050816000036134ee57604051632f6c853960e11b815260040160405180910390fd5b6134fa600060026154e9565b8116151580613526575082600d81111561351657613516614cd9565b6135219060026154e9565b811615155b610ec05782600d81111561353c5761353c614cd9565b604051630d816ed160e01b815260040161095691815260200190565b600061070b8383614500565b600080846001600160a01b0316633b4c9891876040518263ffffffff1660e01b81526004016135939190614e95565b602060405180830381865afa1580156135b0573d6000803e3d6000fd5b505050506040513d601f19601f820116820180604052508101906135d491906151e5565b91508280156135e1575081155b156135ff57604051632f6c853960e11b815260040160405180910390fd5b811561363d5761360d610f7c565b63ffffffff851660009081526003919091016020908152604080832085845260050190915290205460ff16613640565b60005b9050828015613650575060ff8116155b15610d8f57604051632e8e6b7560e11b815260040160405180910390fd5b6000610843846001600160a01b0385168461454f565b600080600080886001600160a01b031663df1dd976876040518263ffffffff1660e01b81526004016136b891815260200190565b600060405180830381865afa1580156136d5573d6000803e3d6000fd5b505050506040513d6000823e601f3d908101601f191682016040526136fd91908101906150af565b5050935050505060038160ff161061377a5760ff88166000908152600188016020908152604080832060068b0190925290912061373e908b90838a8a61456c565b925082156137785761375181848861472b565b909550935060008490036137785760405163d92e233d60e01b815260040160405180910390fd5b505b50955095509592505050565b600061070b836001600160a01b038416614500565b6001600160a01b0385811660009081526002880160209081526040808320815160a08101835289861681526001818501818152938201869052606082018690526080820186905282549081018355918552929093208251930180546001600160a01b0319811694909516938417815590519193909283916001600160a81b03191617600160a01b83600481111561383457613834614cd9565b0217905550604082810151825460608086015160809687015160ff16600160e81b0260ff60e81b1963ffffffff928316600160c81b0263ffffffff60c81b1993909616600160a81b029290921667ffffffffffffffff60a81b19909416939093179390931792909216179092556001600160a01b03878116600090815260028b016020908152838220845160a0810186528c85168152600181840181815296820185905296810184905296870183905280549586018155825290208451930180546001600160a01b031981169490921693841781559151919283916001600160a81b03191617600160a01b83600481111561393157613931614cd9565b021790555060408201518154606084015160809094015167ffffffffffffffff60a81b19909116600160a81b63ffffffff9384160263ffffffff60c81b191617600160c81b92909416919091029290921760ff60e81b1916600160e81b60ff9093169290920291909117905560006139a76147af565b9050866002016000876001600160a01b03166001600160a01b0316815260200190815260200160002080549050876000016000886001600160a01b03166001600160a01b0316815260200190815260200160002060000160016101000a81548163ffffffff021916908363ffffffff16021790555080876000016000886001600160a01b03166001600160a01b0316815260200190815260200160002060000160136101000a81548165ffffffffffff021916908365ffffffffffff160217905550866002016000866001600160a01b03166001600160a01b0316815260200190815260200160002080549050876000016000876001600160a01b03166001600160a01b0316815260200190815260200160002060000160016101000a81548163ffffffff021916908363ffffffff16021790555080876000016000876001600160a01b03166001600160a01b0316815260200190815260200160002060000160136101000a81548165ffffffffffff021916908365ffffffffffff160217905550613b6a868860010160008b60ff1660ff16815260200190815260200160002060030160008781526020019081526020016000206147fe90919063ffffffff16565b5060ff8816600090815260018801602090815260408083208684526003019091529020613b9790866147fe565b50600080613bac84606001519060a082901c90565b85516020808801516040808a0151815165ffffffffffff8b16815263ffffffff909516938501939093526001600160a01b03918216908401526060830191909152608082018a9052831660a082015260c0810182905260e0810188905291935091507fd7da27827582ad8f7f3f4fc8a20f7be83108736c88b28aa3b41dccf6ad6e877990610100015b60405180910390a150505050505050505050565b600061070b836001600160a01b038416614813565b805160ff16600003613c83576040516315e0349160e11b815260040160405180910390fd5b602081015163ffffffff161561085c576040516366fab05760e01b815260040160405180910390fd5b60408051606080820183526000808352602083015291810191909152600083815260048501602052604081208190613ce4908561409d565b9150915081613d0957600060405163adc7fced60e01b81526004016109569190614e95565b808060a081901c6020808701919091526001600160a01b039091168552600082815260058901909152604090208054613d4190615151565b80601f0160208091040260200160405190810160405280929190818152602001828054613d6d90615151565b8015613dba5780601f10613d8f57610100808354040283529160200191613dba565b820191906000526020600020905b815481529060010190602001808311613d9d57829003601f168201915b505050505084604001819052505050509392505050565b60608301516001600160401b031660009081526004850160205260408120819081908190613dff908761409d565b915091508115613e4b5760608701516001600160401b031660009081526004890160205260409020613e31908761481f565b50613e3f60038a018261325e565b50925060a083901c9150825b60608701516001600160401b031660009081526003890160205260409020613e7390876147fe565b506040518060e00160405280600060ff168152602001600063ffffffff168152602001886040015163ffffffff16815260200160006001600160401b03168152602001600060ff168152602001600060ff168152602001600065ffffffffffff16815250896000016000886001600160a01b03166001600160a01b0316815260200190815260200160002060008201518160000160006101000a81548160ff021916908360ff16021790555060208201518160000160016101000a81548163ffffffff021916908363ffffffff16021790555060408201518160000160056101000a81548163ffffffff021916908363ffffffff16021790555060608201518160000160096101000a8154816001600160401b0302191690836001600160401b0316021790555060808201518160000160116101000a81548160ff021916908360ff16021790555060a08201518160000160126101000a81548160ff021916908360ff16021790555060c08201518160000160136101000a81548165ffffffffffff021916908365ffffffffffff1602179055509050507f43123e2ba4590155d8a1fddade2bb91cc46a6ce2a49d8fba12fdeae963bc7be88688606001518c8a6000015188888b604051613c3597969594939291906001600160a01b0397881681526001600160401b0396909616602087015263ffffffff94909416604086015260ff929092166060850152909316608083015260a082019290925290151560c082015260e00190565b60008080806131bc866001600160a01b0387166143b9565b815160009081816001600160401b038111156140d3576140d3614a6d565b6040519080825280602002602001820160405280156140fc578160200160208202803683370190505b509050600080600061410c610f7c565b60008a81526003919091016020908152604080832060ff8e168452600101909152812091505b8581101561422b5760008061416c8b848151811061415257614152615038565b6020026020010151856000016131ad90919063ffffffff16565b9150915081801561417c57508015155b15614221578087848151811061419457614194615038565b60209081029190910101528515806141ce575080876141b4600189614fb7565b815181106141c4576141c4615038565b6020026020010151105b156141e9576141de836001614fca565b955060019450614221565b80876141f6600189614fb7565b8151811061420657614206615038565b602002602001015103614221578461421d816154f5565b9550505b5050600101614132565b508215614320576000826001146142585761425361424a600185614fb7565b8963ffffffff16565b61425b565b60005b9050806000036142905788614271600186614fb7565b8151811061428157614281615038565b6020026020010151965061431e565b835b8681101561431c57856142a6600187614fb7565b815181106142b6576142b6615038565b60200260200101518682815181106142d0576142d0615038565b6020026020010151036143145781600103614306578981815181106142f7576142f7615038565b6020026020010151975061431c565b816143108161550e565b9250505b600101614292565b505b505b5050505050949350505050565b600081831061433c578161070b565b5090919050565b60608160000180548060200260200160405190810160405280929190818152602001828054801561439357602002820191906000526020600020905b81548152602001906001019080831161437f575b50505050509050919050565b60006143a9610f47565b54600160401b900460ff16919050565b60008181526002830160205260408120548190806143e8576143db8585614813565b9250600091506131c49050565b6001925090506131c4565b509250929050565b600081815260018301602052604081205480156144e457600061441f600183614fb7565b855490915060009061443390600190614fb7565b905080821461449857600086600001828154811061445357614453615038565b906000526020600020015490508087600001848154811061447657614476615038565b6000918252602080832090910192909255918252600188019052604090208390555b85548690806144a9576144a9615525565b60019003818190600052602060002001600090559055856001016000868152602001908152602001600020600090556001935050505061070e565b600091505061070e565b5092915050565b606061070e8261305c565b60008181526001830160205260408120546145475750815460018181018455600084815260208082209093018490558454848252828601909352604090209190915561070e565b50600061070e565b600082815260028401602052604081208290556108438484613558565b60008061457886614834565b9050600181111561472157600061459c614593600184614fb7565b8563ffffffff16565b9050805b60006145ac898361483e565b604051636f8eecbb60e11b8152600481018290529091506000906001600160a01b038c169063df1dd97690602401600060405180830381865afa1580156145f7573d6000803e3d6000fd5b505050506040513d6000823e601f3d908101601f1916820160405261461f91908101906150af565b5050935050505060038160ff16101580156146515750600082815260038a016020526040902061464e90614834565b15155b801561465d5750818814155b80156146d65750604051630562452b60e21b815260048101899052602481018390526001600160a01b038c169063158914ac90604401602060405180830381865afa1580156146b0573d6000803e3d6000fd5b505050506040513d601f19601f820116820180604052508101906146d491906151a8565b155b156146e35750935061471e565b846146ef846001614fca565b14614704576146ff836001614fca565b614707565b60005b925083830361471757505061471e565b50506145a0565b50505b5095945050505050565b6000828152600384016020526040812081908161474782614834565b905080156147a55760008160011461477557614770614767600184614fb7565b8763ffffffff16565b614778565b60005b9050614784838261483e565b600088815260048a01602052604090209095506147a1908661484a565b9350505b5050935093915050565b60006147b9610f7c565b6003600090815260209190915260409020546147d690600161553b565b90508065ffffffffffff166147e9610f7c565b60036000908152602091909152604090205590565b600061070b836001600160a01b0384166143fb565b600061070b83836132ba565b600061070b836001600160a01b03841661485f565b600061070e825490565b600061070b838361487c565b600061070b836001600160a01b0384166148a6565b6000818152600283016020526040812081905561070b838361325e565b600082600001828154811061489357614893615038565b9060005260206000200154905092915050565b6000818152600283016020526040812054801580156148cc57506148ca8484614813565b155b1561070b5760405163015ab34360e11b815260048101849052602401610956565b6040805160a081019091526000808252602082019081526000602082018190526040820181905260609091015290565b6040805160e081018252600080825260208201819052918101829052606081018290526080810182905260a0810182905260c081019190915290565b6040805161018081018252600080825260208201819052918101829052606081018290526080810182905260a0810182905260c0810182905260e08101829052610100810182905261012081019190915261014081016149b761491d565b81526040805160808101825260008082526020828101829052928201819052606082015291015290565b60ff8116811461085c57600080fd5b600060208284031215614a0257600080fd5b813561070b816149e1565b63ffffffff8116811461085c57600080fd5b6001600160a01b038116811461085c57600080fd5b60008060408385031215614a4757600080fd5b8235614a5281614a0d565b91506020830135614a6281614a1f565b809150509250929050565b634e487b7160e01b600052604160045260246000fd5b604051601f8201601f191681016001600160401b0381118282101715614aab57614aab614a6d565b604052919050565b60006001600160401b03821115614acc57614acc614a6d565b50601f01601f191660200190565b600082601f830112614aeb57600080fd5b8135614afe614af982614ab3565b614a83565b818152846020838601011115614b1357600080fd5b816020850160208301376000918101602001919091529392505050565b60008060008060808587031215614b4657600080fd5b8435614b5181614a1f565b93506020850135614b6181614a1f565b92506040850135915060608501356001600160401b03811115614b8357600080fd5b614b8f87828801614ada565b91505092959194509250565b60008060408385031215614bae57600080fd5b8235614bb9816149e1565b91506020830135614a6281614a0d565b6020808252825182820181905260009190848201906040850190845b81811015614c0157835183529284019291840191600101614be5565b50909695505050505050565b600060208284031215614c1f57600080fd5b813561070b81614a1f565b600080600060608486031215614c3f57600080fd5b8335614c4a816149e1565b92506020840135614c5a81614a0d565b929592945050506040919091013590565b600060208284031215614c7d57600080fd5b5035919050565b60008060408385031215614c9757600080fd5b823591506020830135614a6281614a0d565b600080600060608486031215614cbe57600080fd5b8335614cc981614a0d565b92506020840135614c5a81614a1f565b634e487b7160e01b600052602160045260246000fd5b81516001600160a01b03168152602082015160a082019060058110614d2457634e487b7160e01b600052602160045260246000fd5b80602084015250604083015163ffffffff8082166040850152806060860151166060850152505060ff608084015116608083015292915050565b600080600060608486031215614d7357600080fd5b8335614d7e81614a1f565b9250602084013591506040840135614d9581614a0d565b809150509250925092565b6020808252825182820181905260009190848201906040850190845b81811015614c015783516001600160a01b031683529284019291840191600101614dbc565b60008060008060808587031215614df757600080fd5b8435614e02816149e1565b93506020850135614e1281614a0d565b92506040850135614e2281614a1f565b9396929550929360600135925050565b60005b83811015614e4d578181015183820152602001614e35565b50506000910152565b60008151808452614e6e816020860160208601614e32565b601f01601f19169290920160200192915050565b60208152600061070b6020830184614e56565b6001600160a01b0391909116815260200190565b60008060008060808587031215614ebf57600080fd5b8435614eca81614a1f565b93506020850135925060408501356001600160401b03811115614eec57600080fd5b614ef887828801614ada565b9250506060850135614f09816149e1565b939692955090935050565b60008060408385031215614f2757600080fd5b8235614f3281614a1f565b946020939093013593505050565b60008060008060808587031215614f5657600080fd5b8435614f61816149e1565b93506020850135614f7181614a0d565b9250604085013591506060850135614f0981614a1f565b6001600160a01b03929092168252602082015260400190565b634e487b7160e01b600052601160045260246000fd5b8181038181111561070e5761070e614fa1565b8082018082111561070e5761070e614fa1565b600060208284031215614fef57600080fd5b815161070b81614a1f565b634e487b7160e01b600052601260045260246000fd5b60008261501f5761501f614ffa565b500490565b60008261503357615033614ffa565b500690565b634e487b7160e01b600052603260045260246000fd5b600082601f83011261505f57600080fd5b815161506d614af982614ab3565b81815284602083860101111561508257600080fd5b610843826020830160208701614e32565b80516001600160401b03811681146150aa57600080fd5b919050565b60008060008060008060c087890312156150c857600080fd5b86516001600160401b03808211156150df57600080fd5b6150eb8a838b0161504e565b9750602089015191508082111561510157600080fd5b5061510e89828a0161504e565b955050604087015161511f81614a1f565b6060880151909450615130816149e1565b925061513e60808801615093565b915060a087015190509295509295509295565b600181811c9082168061516557607f821691505b60208210810361518557634e487b7160e01b600052602260045260246000fd5b50919050565b60006020828403121561519d57600080fd5b815161070b816149e1565b6000602082840312156151ba57600080fd5b8151801515811461070b57600080fd5b6000602082840312156151dc57600080fd5b61070b82615093565b6000602082840312156151f757600080fd5b5051919050565b600060a0828403121561521057600080fd5b60405160a081018181106001600160401b038211171561523257615232614a6d565b604052825161524081614a0d565b8152602083015161525081614a0d565b6020820152604083015161526381614a0d565b6040820152606083015161527681614a0d565b6060820152608083015161528981614a0d565b60808201529392505050565b63ffffffff8281168282160390808211156144ee576144ee614fa1565b601f8211156152fa576000816000526020600020601f850160051c810160208610156152db5750805b601f850160051c820191505b8181101561082e578281556001016152e7565b505050565b81516001600160401b0381111561531857615318614a6d565b61532c816153268454615151565b846152b2565b602080601f83116001811461536157600084156153495750858301515b600019600386901b1c1916600185901b17855561082e565b600085815260208120601f198616915b8281101561539057888601518255948401946001909101908401615371565b50858210156153ae5787850151600019600388901b60f8161c191681555b5050505050600190811b01905550565b63ffffffff8181168382160190808211156144ee576144ee614fa1565b61ffff8181168382160190808211156144ee576144ee614fa1565b808202811582820484141761070e5761070e614fa1565b600181815b808511156143f357816000190482111561542e5761542e614fa1565b8085161561543b57918102915b93841c9390800290615412565b6000826154575750600161070e565b816154645750600061070e565b816001811461547a5760028114615484576154a0565b600191505061070e565b60ff84111561549557615495614fa1565b50506001821b61070e565b5060208310610133831016604e8410600b84101617156154c3575081810a61070e565b6154cd838361540d565b80600019048211156154e1576154e1614fa1565b029392505050565b600061070b8383615448565b60006001820161550757615507614fa1565b5060010190565b60008161551d5761551d614fa1565b506000190190565b634e487b7160e01b600052603160045260246000fd5b65ffffffffffff8181168382160190808211156144ee576144ee614fa156fe22573091f17911fb166032a3d9e0554aa73d31b7b7ddea4a4dd2995650af84bda26469706673582212204affa8f29f3c0492de33f003f072fc29d6cb8c9e4e5b2760f520527e986d3ea264736f6c63430008170033",
  "libraries": {
    "PvpFightLib": "0x536edbB5eEDaD839155E70510Bb1F55604dF3d0c"
  },
  "devdoc": {
    "errors": {
      "EnumerableMapNonexistentKey(bytes32)": [
        {
          "details": "Query for a nonexistent map key."
        }
      ],
      "InvalidInitialization()": [
        {
          "details": "The contract is already initialized."
        }
      ],
      "NotInitializing()": [
        {
          "details": "The contract is not initializing."
        }
      ]
    },
    "events": {
      "Initialized(uint64)": {
        "details": "Triggered when the contract has been initialized or reinitialized."
      },
      "PvpHeroRemoved(address,uint256,uint256,uint8,address,uint256,bool)": {
        "params": {
          "manuallyRemoved": "True - removed manually by the user, false - removed automatically after the fight"
        }
      }
    },
    "kind": "dev",
    "methods": {
      "addPvpHero(address,uint256,bytes,uint8)": {
        "params": {
          "pvpStrategy": "abi.encode(PvpAttackInfoDefaultStrategy)"
        }
      },
      "created()": {
        "returns": {
          "_0": "Creation timestamp"
        }
      },
      "createdBlock()": {
        "returns": {
          "_0": "Creation block number"
        }
      },
      "getBiomeTax(uint8)": {
        "returns": {
          "guildId": "Owner of the biome",
          "taxPercent": "Final tax percent, [0...100_000], decimals 3"
        }
      },
      "getDominationRequest(uint256,uint32)": {
        "returns": {
          "biome": "Biome where the guild is going to dominate in the given epoch"
        }
      },
      "increaseRevision(address)": {
        "details": "Revision should be increased on each contract upgrade"
      },
      "isController(address)": {
        "details": "Return true if given address is controller"
      },
      "onERC721Received(address,address,uint256,bytes)": {
        "details": "See {IERC721Receiver-onERC721Received}. Always returns `IERC721Receiver.onERC721Received.selector`."
      },
      "previousImplementation()": {
        "details": "Previous logic implementation"
      },
      "refreshBiomeTax(uint8)": {
        "returns": {
          "guildId": "Owner of the biome",
          "taxPercent": "Tax percent [0...100_000], decimals 3"
        }
      },
      "revision()": {
        "details": "Contract upgrade counter"
      }
    },
    "stateVariables": {
      "VERSION": {
        "details": "Should be incremented when contract changed"
      }
    },
    "version": 1
  },
  "userdoc": {
    "errors": {
      "BiomeAlreadySelected()": [
        {
          "notice": "Target biome can be selected only once per epoch"
        }
      ],
      "UserHasRegisteredPvpHeroInBiome(uint8)": [
        {
          "notice": "User should unregister pvp-hero from prev biome and only then register it in the new biome"
        }
      ]
    },
    "kind": "user",
    "methods": {
      "CONTROLLABLE_VERSION()": {
        "notice": "Version of the contract"
      },
      "VERSION()": {
        "notice": "Version of the contract"
      },
      "addPvpHero(address,uint256,bytes,uint8)": {
        "notice": "Stake hero for pvp for the current epoch. User is able to register a hero only once per epoch, the hero cannot be replaced, only removed."
      },
      "controller()": {
        "notice": "Return controller address saved in the contract slot"
      },
      "created()": {
        "notice": "Return creation timestamp"
      },
      "createdBlock()": {
        "notice": "Return creation block number"
      },
      "getBiomeGuilds(uint8,uint32)": {
        "notice": "List of guilds that send domination request for the biome"
      },
      "getBiomeTax(uint8)": {
        "notice": "Get biome tax"
      },
      "getCurrentEpochWeek(uint256)": {
        "notice": "Get week for the given timestamp. Assume that first day of the week is Monday"
      },
      "getFightDataLength(uint32,address)": {
        "notice": "Number of pvp-fights registered for the user in the given epoch"
      },
      "getMinHeroLevel()": {
        "notice": "Get min hero level allowed for pvp-fight"
      },
      "hasPvpHero(address,uint256,uint32)": {
        "notice": "Check if the user has a pvp-hero registered for pvp-fight in the given epoch"
      },
      "isGovernance(address)": {
        "notice": "Return true if given address is setup as governance in Controller"
      },
      "isHeroStaked(address,uint256,uint32)": {
        "notice": "Check if the given hero is staked in pvp controller in the given epoch"
      },
      "isHeroStakedCurrently(address,uint256)": {
        "notice": "Check if the given hero is staked in pvp controller in the current epoch"
      },
      "ownedBiome(uint256)": {
        "notice": "Biome owned currently by the given guild"
      },
      "refreshBiomeTax(uint8)": {
        "notice": "Update epoch if necessary and return biome owner and biome tax"
      },
      "registeredHero(uint8,uint32,uint256,address)": {
        "notice": "Hero registered by the user for pvp-fight in the given week and biome"
      },
      "registeredUsers(uint8,uint32,uint256)": {
        "notice": "List of the users registered for pvp-fight in the given week and biome"
      },
      "removePvpHero()": {
        "notice": "Withdraw hero from pvp for the current epoch"
      },
      "selectBiomeForDomination(uint8)": {
        "notice": "Select new domination target once per epoch"
      },
      "updateEpoch(uint8)": {
        "notice": "Change epoch if the current epoch is completed, update biome owner"
      }
    },
    "version": 1
  },
  "storageLayout": {
    "storage": [],
    "types": null
  }
}