{
  "address": "0x6880314c2934824ed10f8D4803f23eEe6579a737",
  "abi": [
    {
      "inputs": [],
      "name": "AlreadyStaked",
      "type": "error"
    },
    {
      "inputs": [
        {
          "internalType": "address",
          "name": "heroToken",
          "type": "address"
        },
        {
          "internalType": "uint256",
          "name": "heroTokenId",
          "type": "uint256"
        }
      ],
      "name": "ErrorHeroIsDead",
      "type": "error"
    },
    {
      "inputs": [
        {
          "internalType": "address",
          "name": "heroToken",
          "type": "address"
        }
      ],
      "name": "ErrorHeroIsNotRegistered",
      "type": "error"
    },
    {
      "inputs": [
        {
          "internalType": "address",
          "name": "sender",
          "type": "address"
        }
      ],
      "name": "ErrorNotDungeonFactory",
      "type": "error"
    },
    {
      "inputs": [
        {
          "internalType": "address",
          "name": "heroToken",
          "type": "address"
        },
        {
          "internalType": "address",
          "name": "msgSender",
          "type": "address"
        }
      ],
      "name": "ErrorNotHeroOwner",
      "type": "error"
    },
    {
      "inputs": [],
      "name": "ErrorOnlyEoa",
      "type": "error"
    },
    {
      "inputs": [],
      "name": "ErrorPaused",
      "type": "error"
    },
    {
      "inputs": [],
      "name": "HeroInDungeon",
      "type": "error"
    },
    {
      "inputs": [],
      "name": "InvalidInitialization",
      "type": "error"
    },
    {
      "inputs": [
        {
          "internalType": "uint8",
          "name": "fee",
          "type": "uint8"
        }
      ],
      "name": "MaxFee",
      "type": "error"
    },
    {
      "inputs": [],
      "name": "NoStakedHeroes",
      "type": "error"
    },
    {
      "inputs": [
        {
          "internalType": "address",
          "name": "sender",
          "type": "address"
        }
      ],
      "name": "NotGovernance",
      "type": "error"
    },
    {
      "inputs": [],
      "name": "NotInitializing",
      "type": "error"
    },
    {
      "inputs": [],
      "name": "NotStaked",
      "type": "error"
    },
    {
      "inputs": [],
      "name": "StakeHeroNotStats",
      "type": "error"
    },
    {
      "inputs": [
        {
          "internalType": "uint256",
          "name": "value",
          "type": "uint256"
        }
      ],
      "name": "TooHighValue",
      "type": "error"
    },
    {
      "anonymous": false,
      "inputs": [
        {
          "indexed": false,
          "internalType": "address",
          "name": "heroToken",
          "type": "address"
        },
        {
          "indexed": false,
          "internalType": "uint256",
          "name": "heroId",
          "type": "uint256"
        },
        {
          "indexed": false,
          "internalType": "address",
          "name": "item",
          "type": "address"
        },
        {
          "indexed": false,
          "internalType": "uint256",
          "name": "itemId",
          "type": "uint256"
        },
        {
          "indexed": false,
          "internalType": "address",
          "name": "recipient",
          "type": "address"
        }
      ],
      "name": "ClaimedItem",
      "type": "event"
    },
    {
      "anonymous": false,
      "inputs": [
        {
          "indexed": false,
          "internalType": "address",
          "name": "heroToken",
          "type": "address"
        },
        {
          "indexed": false,
          "internalType": "uint256",
          "name": "heroId",
          "type": "uint256"
        },
        {
          "indexed": false,
          "internalType": "address",
          "name": "token",
          "type": "address"
        },
        {
          "indexed": false,
          "internalType": "uint256",
          "name": "amount",
          "type": "uint256"
        },
        {
          "indexed": false,
          "internalType": "address",
          "name": "recipient",
          "type": "address"
        }
      ],
      "name": "ClaimedToken",
      "type": "event"
    },
    {
      "anonymous": false,
      "inputs": [
        {
          "indexed": false,
          "internalType": "address",
          "name": "controller",
          "type": "address"
        },
        {
          "indexed": false,
          "internalType": "uint256",
          "name": "ts",
          "type": "uint256"
        },
        {
          "indexed": false,
          "internalType": "uint256",
          "name": "block",
          "type": "uint256"
        }
      ],
      "name": "ContractInitialized",
      "type": "event"
    },
    {
      "anonymous": false,
      "inputs": [
        {
          "indexed": false,
          "internalType": "address",
          "name": "heroToken",
          "type": "address"
        },
        {
          "indexed": false,
          "internalType": "uint256",
          "name": "heroId",
          "type": "uint256"
        }
      ],
      "name": "HeroAsk",
      "type": "event"
    },
    {
      "anonymous": false,
      "inputs": [
        {
          "indexed": false,
          "internalType": "address",
          "name": "heroToken",
          "type": "address"
        },
        {
          "indexed": false,
          "internalType": "uint256",
          "name": "heroId",
          "type": "uint256"
        },
        {
          "indexed": false,
          "internalType": "uint256",
          "name": "biome",
          "type": "uint256"
        },
        {
          "indexed": false,
          "internalType": "uint256",
          "name": "score",
          "type": "uint256"
        }
      ],
      "name": "HeroStaked",
      "type": "event"
    },
    {
      "anonymous": false,
      "inputs": [
        {
          "indexed": false,
          "internalType": "address",
          "name": "heroToken",
          "type": "address"
        },
        {
          "indexed": false,
          "internalType": "uint256",
          "name": "heroId",
          "type": "uint256"
        }
      ],
      "name": "HeroWithdraw",
      "type": "event"
    },
    {
      "anonymous": false,
      "inputs": [
        {
          "indexed": false,
          "internalType": "uint64",
          "name": "version",
          "type": "uint64"
        }
      ],
      "name": "Initialized",
      "type": "event"
    },
    {
      "anonymous": false,
      "inputs": [
        {
          "indexed": false,
          "internalType": "uint8",
          "name": "value",
          "type": "uint8"
        }
      ],
      "name": "MinLevelChanged",
      "type": "event"
    },
    {
      "anonymous": false,
      "inputs": [
        {
          "indexed": false,
          "internalType": "uint256",
          "name": "value",
          "type": "uint256"
        }
      ],
      "name": "MinLifeChancesChanged",
      "type": "event"
    },
    {
      "anonymous": false,
      "inputs": [
        {
          "indexed": false,
          "internalType": "address",
          "name": "heroToken",
          "type": "address"
        },
        {
          "indexed": false,
          "internalType": "uint256",
          "name": "heroId",
          "type": "uint256"
        },
        {
          "indexed": false,
          "internalType": "address",
          "name": "token",
          "type": "address"
        },
        {
          "indexed": false,
          "internalType": "uint256",
          "name": "id",
          "type": "uint256"
        }
      ],
      "name": "NftRewardRegistered",
      "type": "event"
    },
    {
      "anonymous": false,
      "inputs": [
        {
          "indexed": false,
          "internalType": "uint256",
          "name": "value",
          "type": "uint256"
        },
        {
          "indexed": false,
          "internalType": "address",
          "name": "oldLogic",
          "type": "address"
        }
      ],
      "name": "RevisionIncreased",
      "type": "event"
    },
    {
      "anonymous": false,
      "inputs": [
        {
          "indexed": false,
          "internalType": "address",
          "name": "heroToken",
          "type": "address"
        },
        {
          "indexed": false,
          "internalType": "uint256",
          "name": "heroId",
          "type": "uint256"
        },
        {
          "indexed": false,
          "internalType": "address",
          "name": "token",
          "type": "address"
        },
        {
          "indexed": false,
          "internalType": "uint256",
          "name": "amountAdded",
          "type": "uint256"
        },
        {
          "indexed": false,
          "internalType": "uint256",
          "name": "totalAmount",
          "type": "uint256"
        }
      ],
      "name": "TokenRewardRegistered",
      "type": "event"
    },
    {
      "inputs": [],
      "name": "CONTROLLABLE_VERSION",
      "outputs": [
        {
          "internalType": "string",
          "name": "",
          "type": "string"
        }
      ],
      "stateMutability": "view",
      "type": "function"
    },
    {
      "inputs": [],
      "name": "VERSION",
      "outputs": [
        {
          "internalType": "string",
          "name": "",
          "type": "string"
        }
      ],
      "stateMutability": "view",
      "type": "function"
    },
    {
      "inputs": [
        {
          "internalType": "uint256",
          "name": "biome",
          "type": "uint256"
        }
      ],
      "name": "askHero",
      "outputs": [
        {
          "internalType": "address",
          "name": "heroToken",
          "type": "address"
        },
        {
          "internalType": "uint256",
          "name": "heroId",
          "type": "uint256"
        },
        {
          "internalType": "int32[]",
          "name": "attributes",
          "type": "int32[]"
        }
      ],
      "stateMutability": "nonpayable",
      "type": "function"
    },
    {
      "inputs": [
        {
          "internalType": "address",
          "name": "heroToken",
          "type": "address"
        },
        {
          "internalType": "uint256",
          "name": "heroId",
          "type": "uint256"
        }
      ],
      "name": "claimAll",
      "outputs": [],
      "stateMutability": "nonpayable",
      "type": "function"
    },
    {
      "inputs": [],
      "name": "controller",
      "outputs": [
        {
          "internalType": "address",
          "name": "",
          "type": "address"
        }
      ],
      "stateMutability": "view",
      "type": "function"
    },
    {
      "inputs": [],
      "name": "created",
      "outputs": [
        {
          "internalType": "uint256",
          "name": "",
          "type": "uint256"
        }
      ],
      "stateMutability": "view",
      "type": "function"
    },
    {
      "inputs": [],
      "name": "createdBlock",
      "outputs": [
        {
          "internalType": "uint256",
          "name": "",
          "type": "uint256"
        }
      ],
      "stateMutability": "view",
      "type": "function"
    },
    {
      "inputs": [
        {
          "internalType": "address",
          "name": "heroToken",
          "type": "address"
        },
        {
          "internalType": "uint256",
          "name": "heroId",
          "type": "uint256"
        }
      ],
      "name": "earned",
      "outputs": [
        {
          "internalType": "address[]",
          "name": "tokens",
          "type": "address[]"
        },
        {
          "internalType": "uint256[]",
          "name": "amounts",
          "type": "uint256[]"
        },
        {
          "internalType": "address[]",
          "name": "nfts",
          "type": "address[]"
        },
        {
          "internalType": "uint256[]",
          "name": "ids",
          "type": "uint256[]"
        }
      ],
      "stateMutability": "view",
      "type": "function"
    },
    {
      "inputs": [
        {
          "internalType": "address",
          "name": "heroToken",
          "type": "address"
        },
        {
          "internalType": "uint256",
          "name": "heroId",
          "type": "uint256"
        }
      ],
      "name": "heroInfo",
      "outputs": [
        {
          "components": [
            {
              "internalType": "uint8",
              "name": "biome",
              "type": "uint8"
            },
            {
              "internalType": "uint256",
              "name": "score",
              "type": "uint256"
            },
            {
              "internalType": "uint8",
              "name": "fee",
              "type": "uint8"
            },
            {
              "internalType": "uint64",
              "name": "stakeTs",
              "type": "uint64"
            }
          ],
          "internalType": "struct IReinforcementController.HeroInfo",
          "name": "",
          "type": "tuple"
        }
      ],
      "stateMutability": "view",
      "type": "function"
    },
    {
      "inputs": [
        {
          "internalType": "address",
          "name": "heroToken",
          "type": "address"
        },
        {
          "internalType": "uint256",
          "name": "heroId",
          "type": "uint256"
        }
      ],
      "name": "heroScoreAdjusted",
      "outputs": [
        {
          "internalType": "uint256",
          "name": "",
          "type": "uint256"
        }
      ],
      "stateMutability": "view",
      "type": "function"
    },
    {
      "inputs": [
        {
          "internalType": "address",
          "name": "oldLogic",
          "type": "address"
        }
      ],
      "name": "increaseRevision",
      "outputs": [],
      "stateMutability": "nonpayable",
      "type": "function"
    },
    {
      "inputs": [
        {
          "internalType": "address",
          "name": "controller_",
          "type": "address"
        }
      ],
      "name": "init",
      "outputs": [],
      "stateMutability": "nonpayable",
      "type": "function"
    },
    {
      "inputs": [
        {
          "internalType": "address",
          "name": "value_",
          "type": "address"
        }
      ],
      "name": "isController",
      "outputs": [
        {
          "internalType": "bool",
          "name": "",
          "type": "bool"
        }
      ],
      "stateMutability": "view",
      "type": "function"
    },
    {
      "inputs": [
        {
          "internalType": "address",
          "name": "value_",
          "type": "address"
        }
      ],
      "name": "isGovernance",
      "outputs": [
        {
          "internalType": "bool",
          "name": "",
          "type": "bool"
        }
      ],
      "stateMutability": "view",
      "type": "function"
    },
    {
      "inputs": [
        {
          "internalType": "address",
          "name": "heroToken",
          "type": "address"
        },
        {
          "internalType": "uint256",
          "name": "heroId",
          "type": "uint256"
        }
      ],
      "name": "isStaked",
      "outputs": [
        {
          "internalType": "bool",
          "name": "",
          "type": "bool"
        }
      ],
      "stateMutability": "view",
      "type": "function"
    },
    {
      "inputs": [
        {
          "internalType": "address",
          "name": "forwarder",
          "type": "address"
        }
      ],
      "name": "isTrustedForwarder",
      "outputs": [
        {
          "internalType": "bool",
          "name": "",
          "type": "bool"
        }
      ],
      "stateMutability": "view",
      "type": "function"
    },
    {
      "inputs": [
        {
          "internalType": "uint256",
          "name": "biome",
          "type": "uint256"
        }
      ],
      "name": "maxScore",
      "outputs": [
        {
          "internalType": "uint256",
          "name": "",
          "type": "uint256"
        }
      ],
      "stateMutability": "view",
      "type": "function"
    },
    {
      "inputs": [],
      "name": "minLevel",
      "outputs": [
        {
          "internalType": "uint8",
          "name": "_minLevel",
          "type": "uint8"
        }
      ],
      "stateMutability": "view",
      "type": "function"
    },
    {
      "inputs": [],
      "name": "minLifeChances",
      "outputs": [
        {
          "internalType": "uint8",
          "name": "_minLifeChances",
          "type": "uint8"
        }
      ],
      "stateMutability": "view",
      "type": "function"
    },
    {
      "inputs": [
        {
          "internalType": "address",
          "name": "",
          "type": "address"
        },
        {
          "internalType": "address",
          "name": "",
          "type": "address"
        },
        {
          "internalType": "uint256",
          "name": "",
          "type": "uint256"
        },
        {
          "internalType": "bytes",
          "name": "",
          "type": "bytes"
        }
      ],
      "name": "onERC721Received",
      "outputs": [
        {
          "internalType": "bytes4",
          "name": "",
          "type": "bytes4"
        }
      ],
      "stateMutability": "nonpayable",
      "type": "function"
    },
    {
      "inputs": [],
      "name": "previousImplementation",
      "outputs": [
        {
          "internalType": "address",
          "name": "",
          "type": "address"
        }
      ],
      "stateMutability": "view",
      "type": "function"
    },
    {
      "inputs": [
        {
          "internalType": "address",
          "name": "heroToken",
          "type": "address"
        },
        {
          "internalType": "uint256",
          "name": "heroId",
          "type": "uint256"
        },
        {
          "internalType": "address",
          "name": "token",
          "type": "address"
        },
        {
          "internalType": "uint256",
          "name": "tokenId",
          "type": "uint256"
        }
      ],
      "name": "registerNftReward",
      "outputs": [],
      "stateMutability": "nonpayable",
      "type": "function"
    },
    {
      "inputs": [
        {
          "internalType": "address",
          "name": "heroToken",
          "type": "address"
        },
        {
          "internalType": "uint256",
          "name": "heroId",
          "type": "uint256"
        },
        {
          "internalType": "address",
          "name": "token",
          "type": "address"
        },
        {
          "internalType": "uint256",
          "name": "amount",
          "type": "uint256"
        }
      ],
      "name": "registerTokenReward",
      "outputs": [],
      "stateMutability": "nonpayable",
      "type": "function"
    },
    {
      "inputs": [],
      "name": "revision",
      "outputs": [
        {
          "internalType": "uint256",
          "name": "",
          "type": "uint256"
        }
      ],
      "stateMutability": "view",
      "type": "function"
    },
    {
      "inputs": [
        {
          "internalType": "uint8",
          "name": "value",
          "type": "uint8"
        }
      ],
      "name": "setMinLevel",
      "outputs": [],
      "stateMutability": "nonpayable",
      "type": "function"
    },
    {
      "inputs": [
        {
          "internalType": "uint8",
          "name": "value",
          "type": "uint8"
        }
      ],
      "name": "setMinLifeChances",
      "outputs": [],
      "stateMutability": "nonpayable",
      "type": "function"
    },
    {
      "inputs": [
        {
          "internalType": "address",
          "name": "heroToken",
          "type": "address"
        },
        {
          "internalType": "uint256",
          "name": "heroId",
          "type": "uint256"
        },
        {
          "internalType": "uint8",
          "name": "fee",
          "type": "uint8"
        }
      ],
      "name": "stakeHero",
      "outputs": [],
      "stateMutability": "nonpayable",
      "type": "function"
    },
    {
      "inputs": [
        {
          "internalType": "address",
          "name": "heroToken",
          "type": "address"
        },
        {
          "internalType": "uint256",
          "name": "heroId",
          "type": "uint256"
        }
      ],
      "name": "toHelperRatio",
      "outputs": [
        {
          "internalType": "uint256",
          "name": "",
          "type": "uint256"
        }
      ],
      "stateMutability": "view",
      "type": "function"
    },
    {
      "inputs": [
        {
          "internalType": "address",
          "name": "heroToken",
          "type": "address"
        },
        {
          "internalType": "uint256",
          "name": "heroId",
          "type": "uint256"
        }
      ],
      "name": "withdrawHero",
      "outputs": [],
      "stateMutability": "nonpayable",
      "type": "function"
    }
  ],
  "transactionHash": "0x70aab6d22561f0c963b4ae1820601bd9e88a168daa8b5968c47a977e768322a6",
  "args": [],
  "numDeployments": 3,
  "solcInputHash": "eb7375f78aa5586f984b50496c8eef6c",
  "bytecode": "0x60806040523480156200001157600080fd5b507ff0c57e16840df040f15088dc2f81fe391c3923bec73e23a9662efc9c229c6a00805468010000000000000000810460ff1615906001600160401b03166000811580156200005d5750825b90506000826001600160401b031660011480156200007a5750303b155b90508115801562000089575080155b15620000a85760405163f92ee8a960e01b815260040160405180910390fd5b84546001600160401b03191660011785558315620000d757845460ff60401b1916680100000000000000001785555b83156200011e57845460ff60401b19168555604051600181527fc7f505b2f371ae2175ee4913f4499e1f2633a7b5936321eed1cdaeb6115181d29060200160405180910390a15b50505050506134ad80620001336000396000f3fe608060405234801561001057600080fd5b506004361061016f5760003560e01c80637cc96380116100d45780637cc963801461031e578063807e831b14610326578063902535da14610339578063936725ec1461034c57806396fe42881461037d5780639d0bcca014610385578063ae1d42681461039a578063b429afeb146103ad578063c78f839d146103c0578063cac066a6146103d3578063ce1da0cb146103e6578063dee1f0e4146103f9578063e3dcab851461040c578063f77c47911461041f578063ffa1ad741461042757600080fd5b8063150b7a021461017457806319ab453c146101b05780632e322a9c146101c5578063325a19f11461021f5780633bd0033d146102355780633e491d47146102575780634593144c1461027a5780634e0b6e08146102825780634fac6ccd146102955780635451da1b146102a8578063572b6c05146102cb5780635cf20c7b146102de5780635d7496d0146102f15780635f74949214610304575b600080fd5b610192610182366004612cf6565b630a85bd0160e11b949350505050565b6040516001600160e01b031990911681526020015b60405180910390f35b6101c36101be366004612db9565b61044b565b005b6101d86101d3366004612ddd565b610545565b6040516101a79190600060808201905060ff83511682526020830151602083015260ff60408401511660408301526001600160401b03606084015116606083015292915050565b610227610560565b6040519081526020016101a7565b610248610243366004612e09565b610599565b6040516101a793929190612e22565b61026a610265366004612ddd565b6105bc565b6040516101a79493929190612ef8565b6102276105dc565b610227610290366004612ddd565b61060c565b6101c36102a3366004612db9565b610618565b6102bb6102b6366004612ddd565b610729565b60405190151581526020016101a7565b6102bb6102d9366004612db9565b610735565b6101c36102ec366004612ddd565b610783565b6101c36102ff366004612f5f565b6107a9565b61030c6107be565b60405160ff90911681526020016101a7565b6102276107c8565b6101c3610334366004612f7c565b6107e6565b610227610347366004612e09565b61080e565b610370604051806040016040528060058152602001640312e302e360dc1b81525081565b6040516101a79190612fbe565b61030c610819565b61038d610823565b6040516101a7919061300d565b6101c36103a8366004613021565b610853565b6102bb6103bb366004612db9565b61086d565b6102276103ce366004612ddd565b610892565b6101c36103e1366004613021565b61089e565b6101c36103f4366004612ddd565b6108b2565b6102bb610407366004612db9565b6108d4565b6101c361041a366004612f5f565b610959565b61038d61096b565b61037060405180604001604052806005815260200164322e302e3160d81b81525081565b600061045561099b565b805490915060ff600160401b82041615906001600160401b031660008115801561047c5750825b90506000826001600160401b031660011480156104985750303b155b9050811580156104a6575080155b156104c45760405163f92ee8a960e01b815260040160405180910390fd5b845467ffffffffffffffff1916600117855583156104ee57845460ff60401b1916600160401b1785555b6104f7866109bf565b831561053d57845460ff60401b19168555604051600181527fc7f505b2f371ae2175ee4913f4499e1f2633a7b5936321eed1cdaeb6115181d29060200160405180910390a15b505050505050565b61054d612c42565b61055783836109d0565b90505b92915050565b600061059461059060017f6f55f470bdc9cb5f04223fd822021061668e4dccb43e8727b295106dc9769c8b61307f565b5490565b905090565b60008060606105af6105a961096b565b85610a0f565b9250925092509193909250565b6060806060806105cc8686610e6d565b9299919850965090945092505050565b600061059461059060017f812a673dfca07956350df10f8a654925f561d7a0da09bdbe79e653939a14d9f161307f565b600061055783836110ed565b33301461066a5760405162461bcd60e51b815260206004820152601b60248201527a24b731b932b0b9b2903932bb34b9b4b7b7103337b93134b23232b760291b60448201526064015b60405180910390fd5b6000610688610590600160008051602061345883398151915261307f565b610693906001613092565b90506106b5816106b2600160008051602061345883398151915261307f565b55565b6106e4826106b260017fbfaaa2fb63266ff27c2da975f5894955056f50419af651a81f6c5060581857e461307f565b604080518281526001600160a01b03841660208201527ff27e2ef832a4eb8ed8ec553b875eecd44764cda95b1c24170e281539e0a869c8910160405180910390a15050565b600061055783836111e5565b60006001600160a01b03821673d8253782c45a12053594b9deb72d8e8ab2fca54c148061055a57506001600160a01b0382167352ceba41da235af367bfc0b0ccd3314cb901bb5f1492915050565b6107a561078e6111fe565b61079661096b565b61079e611216565b8585611238565b5050565b6107bb6107b5336108d4565b8261138c565b50565b6000610594611415565b6000610594610590600160008051602061345883398151915261307f565b6108096107f16111fe565b6107f961096b565b610801611216565b868686611422565b505050565b600061055a82611b37565b6000610594611b55565b600061059461059060017fbfaaa2fb63266ff27c2da975f5894955056f50419af651a81f6c5060581857e461307f565b61086761085e61096b565b85858585611b68565b50505050565b600061087761096b565b6001600160a01b0316826001600160a01b0316149050919050565b60006105578383611cd4565b6108676108a961096b565b85858585611cee565b6107a56108bd6111fe565b6108c561096b565b6108cd611216565b8585611e32565b6000816001600160a01b03166108e861096b565b6001600160a01b0316635aa6e6756040518163ffffffff1660e01b8152600401602060405180830381865afa158015610925573d6000803e3d6000fd5b505050506040513d601f19601f8201168201806040525081019061094991906130a5565b6001600160a01b03161492915050565b6107bb610965336108d4565b8261213a565b600061059461059060017f5165972ef41194f06c5007493031d0b927c20741adcb74403b954009fd2c361861307f565b7ff0c57e16840df040f15088dc2f81fe391c3923bec73e23a9662efc9c229c6a0090565b6109c76121b0565b6107bb816121d7565b6109d8612c42565b6105576109e36122ea565b60010160006109fb6001600160a01b0387168661230e565b81526020019081526020016000205461235e565b600080606060009250600091506000856001600160a01b0316637dc0d1d06040518163ffffffff1660e01b8152600401602060405180830381865afa158015610a5c573d6000803e3d6000fd5b505050506040513d601f19601f82011682018060405250810190610a8091906130a5565b90506000610a8c6122ea565b6000878152600291909101602052604081209150610aa9826123a2565b905080600003610acc5760405163dbdfd61160e01b815260040160405180910390fd5b6000610ad66122ea565b600089815260039190910160205260408120549150610af4826123ac565b905060005b600a811015610c0a576040516337347e0560e11b8152670de0b6b3a76400006004820152602481018590526000906001600160a01b03881690636e68fc0a906044016020604051808303816000875af1158015610b5a573d6000803e3d6000fd5b505050506040513d601f19601f82011682018060405250810190610b7e91906130c2565b905060006002670de0b6b3a7640000610b9786856130db565b610ba19190613108565b610bab91906131f8565b9050610bcd610bc4610bbd8885613207565b899061247c565b9060a082901c90565b909b509950848110610be0576000610bea565b610bea818661307f565b610bf48c8c6110ed565b10610c00575050610c0a565b5050600101610af9565b5050505050506000856001600160a01b0316628e96916040518163ffffffff1660e01b8152600401602060405180830381865afa158015610c4f573d6000803e3d6000fd5b505050506040513d601f19601f82011682018060405250810190610c7391906130a5565b60408051600c8082526101a08201909252919250600091906020820161018080368337019050509050600081600081518110610cb157610cb161321b565b6020908102919091010152600181600181518110610cd157610cd161321b565b6020908102919091010152600281600281518110610cf157610cf161321b565b6020908102919091010152600381600381518110610d1157610d1161321b565b6020908102919091010152600481600481518110610d3157610d3161321b565b6020908102919091010152600581600581518110610d5157610d5161321b565b6020908102919091010152600681600681518110610d7157610d7161321b565b6020908102919091010152600781600781518110610d9157610d9161321b565b6020908102919091010152600881600881518110610db157610db161321b565b6020908102919091010152600b81600981518110610dd157610dd161321b565b6020908102919091010152600c81600a81518110610df157610df161321b565b6020908102919091010152600d81600b81518110610e1157610e1161321b565b602002602001018181525050610e2982828787612488565b925050507f4f59e46e6b2215437a0dbd556dc3596d574d47f64110018c6ce9752eb7da73e08383604051610e5e929190613231565b60405180910390a19250925092565b6060806060806000610e7d6122ea565b6005016000610e956001600160a01b038a168961230e565b815260200190815260200160002090506000610eb0826125b4565b9050806001600160401b03811115610eca57610eca612cb0565b604051908082528060200260200182016040528015610ef3578160200160208202803683370190505b509550806001600160401b03811115610f0e57610f0e612cb0565b604051908082528060200260200182016040528015610f37578160200160208202803683370190505b50945060005b81811015610f9d57610f4f83826125bf565b888381518110610f6157610f6161321b565b60200260200101888481518110610f7a57610f7a61321b565b60209081029190910101919091526001600160a01b039091169052600101610f3d565b506000610fa86122ea565b6004016000610fc06001600160a01b038c168b61230e565b81526020810191909152604001600020805492509050816001600160401b03811115610fee57610fee612cb0565b604051908082528060200260200182016040528015611017578160200160208202803683370190505b509450816001600160401b0381111561103257611032612cb0565b60405190808252806020026020018201604052801561105b578160200160208202803683370190505b50935060005b828110156110e05761109282828154811061107e5761107e61321b565b90600052602060002001549060a082901c90565b8783815181106110a4576110a461321b565b602002602001018784815181106110bd576110bd61321b565b60209081029190910101919091526001600160a01b039091169052600101611061565b5050505092959194509250565b6000806111136110fb6122ea565b60010160006109fb6001600160a01b0388168761230e565b90504281606001516001600160401b0316111561113457600091505061055a565b600081606001516001600160401b03164261114f919061307f565b905062093a808111156111705761116962093a808261307f565b905061117c565b5060200151905061055a565b61118a600262093a806130db565b81111561119c5760009250505061055a565b6111aa600262093a806130db565b816111b9600262093a806130db565b6111c3919061307f565b83602001516111d291906130db565b6111dc9190613108565b95945050505050565b60006111f183836109d0565b5160ff1615159392505050565b600061120933610735565b8061059457505032331490565b600061122133610735565b15611233575060131936013560601c90565b503390565b6040516331a9108f60e11b8152600481018290526001600160a01b038085169190841690636352211e90602401602060405180830381865afa158015611282573d6000803e3d6000fd5b505050506040513d601f19601f820116820180604052508101906112a691906130a5565b6001600160a01b0316146112d157818360405163c8e98f8960e01b815260040161066192919061324a565b836001600160a01b03166318d928316040518163ffffffff1660e01b8152600401602060405180830381865afa15801561130f573d6000803e3d6000fd5b505050506040513d601f19601f820116820180604052508101906113339190613264565b1561135157604051635e1633d360e11b815260040160405180910390fd5b8461136f57604051636221cab960e01b815260040160405180910390fd5b61137a8282856125dd565b6113858282856127af565b5050505050565b816113ac573360405163988d1f0360e01b8152600401610661919061300d565b60006113c36113b96122ea565b5490600882901c90565b9150506113d082826128fd565b6113d86122ea565b5560405160ff831681527f074aef0a3a7a9a88c0af1ad5b2e19417886b720a6942876ed914a782c907094c906020015b60405180910390a1505050565b600061055a6113b96122ea565b600061142c6122ea565b90508661144c57604051636221cab960e01b815260040160405180910390fd5b856001600160a01b03166318d928316040518163ffffffff1660e01b8152600401602060405180830381865afa15801561148a573d6000803e3d6000fd5b505050506040513d601f19601f820116820180604052508101906114ae9190613264565b156114cc57604051635e1633d360e11b815260040160405180910390fd5b6040516331a9108f60e11b8152600481018490526001600160a01b038087169190861690636352211e90602401602060405180830381865afa158015611516573d6000803e3d6000fd5b505050506040513d601f19601f8201168201806040525081019061153a91906130a5565b6001600160a01b03161461156557838560405163c8e98f8960e01b815260040161066192919061324a565b6000866001600160a01b031663016dff5d6040518163ffffffff1660e01b8152600401602060405180830381865afa1580156115a5573d6000803e3d6000fd5b505050506040513d601f19601f820116820180604052508101906115c991906130a5565b604051631789b7b160e01b81529091506001600160a01b03821690631789b7b1906115f890889060040161300d565b602060405180830381865afa158015611615573d6000803e3d6000fd5b505050506040513d601f19601f820116820180604052508101906116399190613286565b60ff1660000361165e578460405163adc7fced60e01b8152600401610661919061300d565b866001600160a01b031663683fedf76040518163ffffffff1660e01b8152600401602060405180830381865afa15801561169c573d6000803e3d6000fd5b505050506040513d601f19601f820116820180604052508101906116c091906130a5565b6001600160a01b0316639a641e0286866040518363ffffffff1660e01b81526004016116ed929190613231565b602060405180830381865afa15801561170a573d6000803e3d6000fd5b505050506040513d601f19601f8201168201806040525081019061172e91906132a3565b6001600160401b0316156117545760405162dc1c0b60e01b815260040160405180910390fd5b61175e85856111e5565b1561177c57604051630ae3514d60e01b815260040160405180910390fd5b60328360ff1611156117a6576040516391866ccb60e01b815260ff84166004820152602401610661565b6000876001600160a01b0316628e96916040518163ffffffff1660e01b8152600401602060405180830381865afa1580156117e5573d6000803e3d6000fd5b505050506040513d601f19601f8201168201806040525081019061180991906130a5565b6001600160a01b031663d4ac484887876040518363ffffffff1660e01b8152600401611836929190613231565b60a060405180830381865afa158015611853573d6000803e3d6000fd5b505050506040513d601f19601f8201168201806040525081019061187791906132e5565b8354815191925090600882901c9060ff831663ffffffff90911610806118a957508060ff16836080015163ffffffff16105b156118c7576040516312bbf80d60e11b815260040160405180910390fd5b826080015163ffffffff166000036118f657878760405163033aace360e41b8152600401610661929190613231565b5050604051631ebd249360e01b81526000906001600160a01b03841690631ebd249390611929908a908a90600401613231565b602060405180830381865afa158015611946573d6000803e3d6000fd5b505050506040513d601f19601f8201168201806040525081019061196a9190613286565b90506000836001600160a01b0316637401edba89896040518363ffffffff1660e01b815260040161199c929190613231565b602060405180830381865afa1580156119b9573d6000803e3d6000fd5b505050506040513d601f19601f820116820180604052508101906119dd91906130c2565b9050600a6119ef60ff8816603261307f565b6119f990836130db565b611a039190613108565b611a0d9082613092565b60ff83166000908152600287016020908152604080832060038a01909252909120549192509080831115611a535760ff8416600090815260038801602052604090208390555b611a70611a696001600160a01b038c168b61230e565b8390612912565b50611aa960405180608001604052808660ff1681526020018581526020018a60ff168152602001426001600160401b031681525061291e565b600188016000611ac26001600160a01b038e168d61230e565b815260208082019290925260409081016000209290925581516001600160a01b038d1681529081018b905260ff8616818301526060810185905290517ffce5deda61527ec63851f29a83ee759c594075760e0f570a8a8cabe4e4641d2d9181900360800190a150505050505050505050505050565b6000611b416122ea565b600092835260030160205250604090205490565b6000611b626113b96122ea565b50919050565b336001600160a01b0316856001600160a01b031663683fedf76040518163ffffffff1660e01b8152600401602060405180830381865afa158015611bb0573d6000803e3d6000fd5b505050506040513d601f19601f82011682018060405250810190611bd491906130a5565b6001600160a01b031614611bfd573360405163cf219bef60e01b8152600401610661919061300d565b6000611c076122ea565b6005016000611c1f6001600160a01b0388168761230e565b815260200190815260200160002090506000611c44848361296f90919063ffffffff16565b9150611c5e905084611c568584613092565b849190612987565b507f489180b84bf13edb925b7af708ef969b23c416ae7162f37699365c9c199155f986868686611c8e8187613092565b604080516001600160a01b039687168152602081019590955292909416918301919091526060820152608081019190915260a0015b60405180910390a150505050505050565b6000611ce083836109d0565b6040015160ff169392505050565b336001600160a01b0316856001600160a01b031663683fedf76040518163ffffffff1660e01b8152600401602060405180830381865afa158015611d36573d6000803e3d6000fd5b505050506040513d601f19601f82011682018060405250810190611d5a91906130a5565b6001600160a01b031614611d83573360405163cf219bef60e01b8152600401610661919061300d565b611d8b6122ea565b6004016000611da36001600160a01b0387168661230e565b81526020810191909152604001600020611dc66001600160a01b0384168361230e565b815460018101835560009283526020928390200155604080516001600160a01b0387811682529281018690529184168282015260608201839052517f919406f90d972565a1723b92e77ce09436e08a13d98dcc138b0ebac4ccc793619181900360800190a15050505050565b6000611e3c6122ea565b905085611e5c57604051636221cab960e01b815260040160405180910390fd5b846001600160a01b03166318d928316040518163ffffffff1660e01b8152600401602060405180830381865afa158015611e9a573d6000803e3d6000fd5b505050506040513d601f19601f82011682018060405250810190611ebe9190613264565b15611edc57604051635e1633d360e11b815260040160405180910390fd5b6040516331a9108f60e11b8152600481018390526001600160a01b038086169190851690636352211e90602401602060405180830381865afa158015611f26573d6000803e3d6000fd5b505050506040513d601f19601f82011682018060405250810190611f4a91906130a5565b6001600160a01b031614611f7557828460405163c8e98f8960e01b815260040161066192919061324a565b846001600160a01b031663016dff5d6040518163ffffffff1660e01b8152600401602060405180830381865afa158015611fb3573d6000803e3d6000fd5b505050506040513d601f19601f82011682018060405250810190611fd791906130a5565b6001600160a01b0316631789b7b1846040518263ffffffff1660e01b8152600401612002919061300d565b602060405180830381865afa15801561201f573d6000803e3d6000fd5b505050506040513d601f19601f820116820180604052508101906120439190613286565b60ff16600003612068578260405163adc7fced60e01b8152600401610661919061300d565b600061208560018301826109fb6001600160a01b0388168761230e565b805190915060ff166000036120ac576040516273e5c360e31b815260040160405180910390fd5b6120dd6120c26001600160a01b0386168561230e565b825160ff1660009081526002850160205260409020906129a5565b506001820160006120f76001600160a01b0387168661230e565b8152602001908152602001600020600090557f20eeb4de14666113d3c1af96b5380282a9d983b562f22d95af267f1603f8a7408484604051611cc3929190613231565b8161215a573360405163988d1f0360e01b8152600401610661919061300d565b60006121676113b96122ea565b50905061217481836128fd565b61217c6122ea565b5560405160ff831681527f8c10825a4006de6d1a1941d18bf26c91a710f73a9ed52b1b4c32aa5d7dc641c390602001611408565b6121b86129b1565b6121d557604051631afcd79f60e31b815260040160405180910390fd5b565b6001600160a01b03811661221f5760405162461bcd60e51b815260206004820152600f60248201526e2d32b9379031b7b73a3937b63632b960891b6044820152606401610661565b61224e816106b260017f5165972ef41194f06c5007493031d0b927c20741adcb74403b954009fd2c361861307f565b61227d426106b260017f6f55f470bdc9cb5f04223fd822021061668e4dccb43e8727b295106dc9769c8b61307f565b6122ac436106b260017f812a673dfca07956350df10f8a654925f561d7a0da09bdbe79e653939a14d9f161307f565b7f1a2dd071001ebf6e03174e3df5b305795a4ad5d41d8fdb9ba41dbbe2367134268142436040516122df93929190613372565b60405180910390a150565b7f5a053c541e08c6bd7dfc3042a100e83af246544a23ecda1a47bf22b441b00c0090565b60006001600160401b0382111561233b57604051633995b34160e01b815260048101839052602401610661565b5067ffffffffffffffff60a01b60a09190911b166001600160a01b039091161790565b612366612c42565b6001600160401b03609083901c16606082015260ff608883901c811660408301526001600160801b03600884901c166020830152909116815290565b600061055a825490565b600181600160801b81106123c55760409190911b9060801c5b600160401b81106123db5760209190911b9060401c5b64010000000081106123f25760109190911b9060201c5b6201000081106124075760089190911b9060101c5b610100811061241b5760049190911b9060081c5b6010811061242e5760029190911b9060041c5b6008811061243d578160011b91505b5080820401600190811c80830401811c80830401811c80830401811c80830401811c80830401811c80830401901c80820481811015611b625792915050565b600061055783836129cb565b60408051602b8082526105808201909252606091602082016105608036833701905050905060005b84518110156125ab5761256560646014886001600160a01b03166320a7d29988888b88815181106124e3576124e361321b565b60200260200101516040518463ffffffff1660e01b815260040161250993929190613372565b602060405180830381865afa158015612526573d6000803e3d6000fd5b505050506040513d601f19601f8201168201806040525081019061254a9190613393565b61255491906133b6565b61255e91906133d6565b60016129f5565b828683815181106125785761257861321b565b6020026020010151815181106125905761259061321b565b60039290920b602092830291909101909101526001016124b0565b50949350505050565b600061055a82612a12565b60008080806125ce8686612a1d565b909450925050505b9250929050565b60006125e76122ea565b60050160006125ff6001600160a01b0387168661230e565b81526020019081526020016000209050600061261a826125b4565b90506000816001600160401b0381111561263657612636612cb0565b60405190808252806020026020018201604052801561265f578160200160208202803683370190505b50905060005b828110156127655760008061267a86846125bf565b60405163a9059cbb60e01b815291935091506001600160a01b0383169063a9059cbb906126ad908a908590600401613231565b6020604051808303816000875af11580156126cc573d6000803e3d6000fd5b505050506040513d601f19601f820116820180604052508101906126f09190613264565b507f846e45ae5b621ebf9a92358abaccb933a344b2d44654dfbd9993c99c6add12c3898984848b604051612728959493929190613411565b60405180910390a1818484815181106127435761274361321b565b6001600160a01b03909216602092830291909101909101525050600101612665565b5060005b828110156127a65761279d8282815181106127865761278661321b565b602002602001015185612a4890919063ffffffff16565b50600101612769565b50505050505050565b60006127b96122ea565b60040160006127d16001600160a01b0387168661230e565b8152602081019190915260400160009081208054909250905b818110156128c25760008061280a85848154811061107e5761107e61321b565b604051632142170760e11b81523060048201526001600160a01b03898116602483015260448201839052929450909250908316906342842e0e90606401600060405180830381600087803b15801561286157600080fd5b505af1158015612875573d6000803e3d6000fd5b505050507fff05befd582c4ae0b942a67d42cde1aa0fbd2c4cebd9e347e376be674e44df87888884848a6040516128b0959493929190613411565b60405180910390a150506001016127ea565b506128cb6122ea565b60040160006128e36001600160a01b0388168761230e565b815260200190815260200160002060006113859190612c69565b600060ff8316600883901b61ff001617610557565b60006105578383612a5d565b805160208201516040830151606084015160009360ff1660089390931b610100600160881b03169290921760889190911b60ff60881b161760909190911b67ffffffffffffffff60901b161761055a565b60008080806125ce866001600160a01b038716612aac565b600061299d846001600160a01b03851684612aee565b949350505050565b60006105578383612b0b565b60006129bb61099b565b54600160401b900460ff16919050565b60008260000182815481106129e2576129e261321b565b9060005260206000200154905092915050565b60008160030b8360030b1215612a0b5781610557565b5090919050565b600061055a826123a2565b60008080612a2b858561247c565b600081815260029690960160205260409095205494959350505050565b6000610557836001600160a01b038416612c05565b6000818152600183016020526040812054612aa45750815460018181018455600084815260208082209093018490558454848252828601909352604090209190915561055a565b50600061055a565b6000818152600283016020526040812054819080612adb57612ace8585612c22565b9250600091506125d69050565b6001925090506125d6565b509250929050565b6000828152600284016020526040812082905561299d8484612912565b60008181526001830160205260408120548015612bf4576000612b2f60018361307f565b8554909150600090612b439060019061307f565b9050808214612ba8576000866000018281548110612b6357612b6361321b565b9060005260206000200154905080876000018481548110612b8657612b8661321b565b6000918252602080832090910192909255918252600188019052604090208390555b8554869080612bb957612bb9613441565b60019003818190600052602060002001600090559055856001016000868152602001908152602001600020600090556001935050505061055a565b600091505061055a565b5092915050565b6000818152600283016020526040812081905561055783836129a5565b600081815260018301602052604081205461055790849084908490151584565b60408051608081018252600080825260208201819052918101829052606081019190915290565b50805460008255906000526020600020908101906107bb91905b80821115612c975760008155600101612c83565b5090565b6001600160a01b03811681146107bb57600080fd5b634e487b7160e01b600052604160045260246000fd5b604051601f8201601f191681016001600160401b0381118282101715612cee57612cee612cb0565b604052919050565b60008060008060808587031215612d0c57600080fd5b8435612d1781612c9b565b9350602085810135612d2881612c9b565b93506040860135925060608601356001600160401b0380821115612d4b57600080fd5b818801915088601f830112612d5f57600080fd5b813581811115612d7157612d71612cb0565b612d83601f8201601f19168501612cc6565b91508082528984828501011115612d9957600080fd5b808484018584013760008482840101525080935050505092959194509250565b600060208284031215612dcb57600080fd5b8135612dd681612c9b565b9392505050565b60008060408385031215612df057600080fd5b8235612dfb81612c9b565b946020939093013593505050565b600060208284031215612e1b57600080fd5b5035919050565b6001600160a01b038416815260208082018490526060604083018190528351908301819052600091848101916080850190845b81811015612e7457845160030b83529383019391830191600101612e55565b509098975050505050505050565b60008151808452602080850194506020840160005b83811015612ebc5781516001600160a01b031687529582019590820190600101612e97565b509495945050505050565b60008151808452602080850194506020840160005b83811015612ebc57815187529582019590820190600101612edc565b608081526000612f0b6080830187612e82565b8281036020840152612f1d8187612ec7565b90508281036040840152612f318186612e82565b90508281036060840152612f458185612ec7565b979650505050505050565b60ff811681146107bb57600080fd5b600060208284031215612f7157600080fd5b8135612dd681612f50565b600080600060608486031215612f9157600080fd5b8335612f9c81612c9b565b9250602084013591506040840135612fb381612f50565b809150509250925092565b60006020808352835180602085015260005b81811015612fec57858101830151858201604001528201612fd0565b506000604082860101526040601f19601f8301168501019250505092915050565b6001600160a01b0391909116815260200190565b6000806000806080858703121561303757600080fd5b843561304281612c9b565b935060208501359250604085013561305981612c9b565b9396929550929360600135925050565b634e487b7160e01b600052601160045260246000fd5b8181038181111561055a5761055a613069565b8082018082111561055a5761055a613069565b6000602082840312156130b757600080fd5b8151612dd681612c9b565b6000602082840312156130d457600080fd5b5051919050565b808202811582820484141761055a5761055a613069565b634e487b7160e01b600052601260045260246000fd5b600082613117576131176130f2565b500490565b600181815b80851115612ae657816000190482111561313d5761313d613069565b8085161561314a57918102915b93841c9390800290613121565b6000826131665750600161055a565b816131735750600061055a565b81600181146131895760028114613193576131af565b600191505061055a565b60ff8411156131a4576131a4613069565b50506001821b61055a565b5060208310610133831016604e8410600b84101617156131d2575081810a61055a565b6131dc838361311c565b80600019048211156131f0576131f0613069565b029392505050565b600061055760ff841683613157565b600082613216576132166130f2565b500690565b634e487b7160e01b600052603260045260246000fd5b6001600160a01b03929092168252602082015260400190565b6001600160a01b0392831681529116602082015260400190565b60006020828403121561327657600080fd5b81518015158114612dd657600080fd5b60006020828403121561329857600080fd5b8151612dd681612f50565b6000602082840312156132b557600080fd5b81516001600160401b0381168114612dd657600080fd5b805163ffffffff811681146132e057600080fd5b919050565b600060a082840312156132f757600080fd5b60405160a081018181106001600160401b038211171561331957613319612cb0565b604052613325836132cc565b8152613333602084016132cc565b6020820152613344604084016132cc565b6040820152613355606084016132cc565b6060820152613366608084016132cc565b60808201529392505050565b6001600160a01b039390931683526020830191909152604082015260600190565b6000602082840312156133a557600080fd5b81518060030b8114612dd657600080fd5b60008260030b8260030b028060030b9150808214612bfe57612bfe613069565b60008160030b8360030b806133ed576133ed6130f2565b637fffffff1982146000198214161561340857613408613069565b90059392505050565b6001600160a01b039586168152602081019490945291841660408401526060830152909116608082015260a00190565b634e487b7160e01b600052603160045260246000fdfe22573091f17911fb166032a3d9e0554aa73d31b7b7ddea4a4dd2995650af84bda2646970667358221220af8faa088e3aa8482216f266daed6680012e746353e32b38915172a40d82a54f64736f6c63430008170033",
  "devdoc": {
    "errors": {
      "InvalidInitialization()": [
        {
          "details": "The contract is already initialized."
        }
      ],
      "NotInitializing()": [
        {
          "details": "The contract is not initializing."
        }
      ]
    },
    "events": {
      "Initialized(uint64)": {
        "details": "Triggered when the contract has been initialized or reinitialized."
      }
    },
    "kind": "dev",
    "methods": {
      "askHero(uint256)": {
        "details": "It's view like function but we need to touch slots in oracle function."
      },
      "created()": {
        "returns": {
          "_0": "Creation timestamp"
        }
      },
      "createdBlock()": {
        "returns": {
          "_0": "Creation block number"
        }
      },
      "increaseRevision(address)": {
        "details": "Revision should be increased on each contract upgrade"
      },
      "isController(address)": {
        "details": "Return true if given address is controller"
      },
      "onERC721Received(address,address,uint256,bytes)": {
        "details": "See {IERC721Receiver-onERC721Received}. Always returns `IERC721Receiver.onERC721Received.selector`."
      },
      "previousImplementation()": {
        "details": "Previous logic implementation"
      },
      "registerNftReward(address,uint256,address,uint256)": {
        "details": "Only for dungeon. Assume the NFT already sent to this contract."
      },
      "registerTokenReward(address,uint256,address,uint256)": {
        "details": "Only for dungeon. Assume the tokens already sent to this contract."
      },
      "revision()": {
        "details": "Contract upgrade counter"
      }
    },
    "version": 1
  },
  "userdoc": {
    "kind": "user",
    "methods": {
      "CONTROLLABLE_VERSION()": {
        "notice": "Version of the contract"
      },
      "VERSION()": {
        "notice": "Version of the contract"
      },
      "controller()": {
        "notice": "Return controller address saved in the contract slot"
      },
      "created()": {
        "notice": "Return creation timestamp"
      },
      "createdBlock()": {
        "notice": "Return creation block number"
      },
      "isGovernance(address)": {
        "notice": "Return true if given address is setup as governance in Controller"
      }
    },
    "version": 1
  },
  "storageLayout": {
    "storage": [],
    "types": null
  }
}