{
  "address": "0xe77308Bf604c630eF5A81DFE9d1cb54482923beE",
  "abi": [
    {
      "inputs": [
        {
          "internalType": "address",
          "name": "_logic",
          "type": "address"
        }
      ],
      "stateMutability": "nonpayable",
      "type": "constructor"
    },
    {
      "anonymous": false,
      "inputs": [
        {
          "indexed": true,
          "internalType": "address",
          "name": "implementation",
          "type": "address"
        }
      ],
      "name": "Upgraded",
      "type": "event"
    },
    {
      "stateMutability": "payable",
      "type": "fallback"
    },
    {
      "inputs": [],
      "name": "PROXY_CONTROLLED_VERSION",
      "outputs": [
        {
          "internalType": "string",
          "name": "",
          "type": "string"
        }
      ],
      "stateMutability": "view",
      "type": "function"
    },
    {
      "inputs": [],
      "name": "implementation",
      "outputs": [
        {
          "internalType": "address",
          "name": "",
          "type": "address"
        }
      ],
      "stateMutability": "view",
      "type": "function"
    },
    {
      "inputs": [
        {
          "internalType": "address",
          "name": "newImplementation_",
          "type": "address"
        }
      ],
      "name": "upgrade",
      "outputs": [],
      "stateMutability": "nonpayable",
      "type": "function"
    },
    {
      "stateMutability": "payable",
      "type": "receive"
    }
  ],
  "transactionHash": "0xb22c4117ec8616571ec41f40ff121da85b0c2db4d168f8427020bced9a81f934",
  "args": [
    "0x28ce921516c5850A39913ec31207BA9F92f3A40B"
  ],
  "numDeployments": 1,
  "solcInputHash": "19fdf0006dcaa675b7b9fa021ba12940",
  "bytecode": "0x608060405234801561001057600080fd5b5060405161070938038061070983398101604081905261002f9161018c565b8061005b60017f360894a13ba1a3210667c828492db98dca3e2076cc3735a920a3ca505d382bbd6101bc565b6000805160206106e983398151915214610077576100776101e3565b610080816100f6565b506000816001600160a01b031663325a19f16040518163ffffffff1660e01b8152600401602060405180830381865afa1580156100c1573d6000803e3d6000fd5b505050506040513d601f19601f820116820180604052508101906100e591906101f9565b10156100f057600080fd5b50610212565b806001600160a01b03163b60000361017a5760405162461bcd60e51b815260206004820152603660248201527f5570677261646561626c6550726f78793a206e657720696d706c656d656e746160448201527f74696f6e206973206e6f74206120636f6e747261637400000000000000000000606482015260840160405180910390fd5b6000805160206106e983398151915255565b60006020828403121561019e57600080fd5b81516001600160a01b03811681146101b557600080fd5b9392505050565b818103818111156101dd57634e487b7160e01b600052601160045260246000fd5b92915050565b634e487b7160e01b600052600160045260246000fd5b60006020828403121561020b57600080fd5b5051919050565b6104c8806102216000396000f3fe6080604052600436106100385760003560e01c80630900f0101461004f5780633bc845301461006f5780635c60da1b146100b657610047565b36610047576100456100d8565b005b6100456100d8565b34801561005b57600080fd5b5061004561006a3660046103dd565b6100ea565b34801561007b57600080fd5b506100a0604051806040016040528060058152602001640312e302e360dc1b81525081565b6040516100ad919061040d565b60405180910390f35b3480156100c257600080fd5b506100cb6102a8565b6040516100ad919061045c565b6100e86100e36102b7565b6102dc565b565b60405163b429afeb60e01b8152309063b429afeb9061010d90339060040161045c565b602060405180830381865afa15801561012a573d6000803e3d6000fd5b505050506040513d601f19601f8201168201806040525081019061014e9190610470565b6101925760405162461bcd60e51b815260206004820152601060248201526f283937bc3c9d102337b93134b23232b760811b60448201526064015b60405180910390fd5b30634fac6ccd6101a06102b7565b6040518263ffffffff1660e01b81526004016101bc919061045c565b600060405180830381600087803b1580156101d657600080fd5b505af11580156101ea573d6000803e3d6000fd5b505050506101f781610300565b60405163b429afeb60e01b8152309063b429afeb9061021a90339060040161045c565b602060405180830381865afa158015610237573d6000803e3d6000fd5b505050506040513d601f19601f8201168201806040525081019061025b9190610470565b6102a55760405162461bcd60e51b815260206004820152601b60248201527a283937bc3c9d102bb937b7339034b6b83632b6b2b73a30ba34b7b760291b6044820152606401610189565b50565b60006102b26102b7565b905090565b7f360894a13ba1a3210667c828492db98dca3e2076cc3735a920a3ca505d382bbc5490565b3660008037600080366000845af43d6000803e8080156102fb573d6000f35b3d6000fd5b61030981610340565b6040516001600160a01b038216907fbc7cd75a20ee27fd9adebab32041f755214dbc6bffa90cc0225b39da2e5c2d3b90600090a250565b806001600160a01b03163b6000036103b95760405162461bcd60e51b815260206004820152603660248201527f5570677261646561626c6550726f78793a206e657720696d706c656d656e74616044820152751d1a5bdb881a5cc81b9bdd08184818dbdb9d1c9858dd60521b6064820152608401610189565b7f360894a13ba1a3210667c828492db98dca3e2076cc3735a920a3ca505d382bbc55565b6000602082840312156103ef57600080fd5b81356001600160a01b038116811461040657600080fd5b9392505050565b60006020808352835180602085015260005b8181101561043b5785810183015185820160400152820161041f565b506000604082860101526040601f19601f8301168501019250505092915050565b6001600160a01b0391909116815260200190565b60006020828403121561048257600080fd5b8151801515811461040657600080fdfea264697066735822122094f38bfa4ee4eb407f7641ff3ff44cbb430a8416df9fb51da581c7781365bbf864736f6c63430008170033360894a13ba1a3210667c828492db98dca3e2076cc3735a920a3ca505d382bbc",
  "devdoc": {
    "author": "belbix",
    "details": "Only Controller has access and should implement time-lock for upgrade action.",
    "events": {
      "Upgraded(address)": {
        "details": "Emitted when the implementation is upgraded."
      }
    },
    "kind": "dev",
    "methods": {
      "upgrade(address)": {
        "details": "Upgrade allowed only for Controller and should be done only after time-lock period",
        "params": {
          "newImplementation_": "Implementation address"
        }
      }
    },
    "stateVariables": {
      "PROXY_CONTROLLED_VERSION": {
        "details": "Should be incremented when contract changed"
      }
    },
    "title": "EIP1967 Upgradable proxy implementation.",
    "version": 1
  },
  "userdoc": {
    "kind": "user",
    "methods": {
      "PROXY_CONTROLLED_VERSION()": {
        "notice": "Version of the contract"
      },
      "implementation()": {
        "notice": "Return current logic implementation"
      },
      "upgrade(address)": {
        "notice": "Upgrade contract logic"
      }
    },
    "version": 1
  },
  "storageLayout": {
    "storage": [],
    "types": null
  }
}