{
  "address": "0x55101851643359977340Fb44F639678BaAf4ef97",
  "abi": [
    {
      "inputs": [],
      "name": "AuctionBidClosed",
      "type": "error"
    },
    {
      "inputs": [],
      "name": "AuctionBidExists",
      "type": "error"
    },
    {
      "inputs": [],
      "name": "AuctionBidNotFound",
      "type": "error"
    },
    {
      "inputs": [
        {
          "internalType": "uint256",
          "name": "positionId",
          "type": "uint256"
        }
      ],
      "name": "AuctionBidOpened",
      "type": "error"
    },
    {
      "inputs": [],
      "name": "AuctionEnded",
      "type": "error"
    },
    {
      "inputs": [],
      "name": "AuctionGuildWithShelterCannotBid",
      "type": "error"
    },
    {
      "inputs": [],
      "name": "AuctionNotEnded",
      "type": "error"
    },
    {
      "inputs": [],
      "name": "AuctionPositionClosed",
      "type": "error"
    },
    {
      "inputs": [
        {
          "internalType": "uint256",
          "name": "positionId",
          "type": "uint256"
        }
      ],
      "name": "AuctionPositionOpened",
      "type": "error"
    },
    {
      "inputs": [],
      "name": "AuctionSellerCannotBid",
      "type": "error"
    },
    {
      "inputs": [],
      "name": "AuctionSellerOnly",
      "type": "error"
    },
    {
      "inputs": [],
      "name": "ErrorNotAllowedSender",
      "type": "error"
    },
    {
      "inputs": [
        {
          "internalType": "address",
          "name": "sender",
          "type": "address"
        }
      ],
      "name": "ErrorNotDeployer",
      "type": "error"
    },
    {
      "inputs": [],
      "name": "ErrorPaused",
      "type": "error"
    },
    {
      "inputs": [
        {
          "internalType": "uint256",
          "name": "right",
          "type": "uint256"
        }
      ],
      "name": "GuildActionForbidden",
      "type": "error"
    },
    {
      "inputs": [],
      "name": "InvalidInitialization",
      "type": "error"
    },
    {
      "inputs": [],
      "name": "NotGuildMember",
      "type": "error"
    },
    {
      "inputs": [],
      "name": "NotInitializing",
      "type": "error"
    },
    {
      "inputs": [],
      "name": "ShelterIsNotOwnedByTheGuild",
      "type": "error"
    },
    {
      "inputs": [
        {
          "internalType": "uint256",
          "name": "value",
          "type": "uint256"
        }
      ],
      "name": "TooHighValue",
      "type": "error"
    },
    {
      "inputs": [],
      "name": "TooLowAmountForNewBid",
      "type": "error"
    },
    {
      "inputs": [],
      "name": "TooLowAmountToBid",
      "type": "error"
    },
    {
      "inputs": [],
      "name": "WrongAuctionPosition",
      "type": "error"
    },
    {
      "inputs": [],
      "name": "ZeroValueNotAllowed",
      "type": "error"
    },
    {
      "anonymous": false,
      "inputs": [
        {
          "indexed": false,
          "internalType": "uint256",
          "name": "bidId",
          "type": "uint256"
        },
        {
          "indexed": false,
          "internalType": "address",
          "name": "msgSender",
          "type": "address"
        }
      ],
      "name": "ApplyAuctionBid",
      "type": "event"
    },
    {
      "anonymous": false,
      "inputs": [
        {
          "indexed": false,
          "internalType": "uint256",
          "name": "bidId",
          "type": "uint256"
        },
        {
          "indexed": false,
          "internalType": "uint256",
          "name": "positionId",
          "type": "uint256"
        },
        {
          "indexed": false,
          "internalType": "uint256",
          "name": "amount",
          "type": "uint256"
        },
        {
          "indexed": false,
          "internalType": "address",
          "name": "msgSender",
          "type": "address"
        }
      ],
      "name": "AuctionBidOpened",
      "type": "event"
    },
    {
      "anonymous": false,
      "inputs": [
        {
          "indexed": false,
          "internalType": "uint256",
          "name": "positionId",
          "type": "uint256"
        },
        {
          "indexed": false,
          "internalType": "address",
          "name": "msgSender",
          "type": "address"
        }
      ],
      "name": "AuctionPositionClosed",
      "type": "event"
    },
    {
      "anonymous": false,
      "inputs": [
        {
          "indexed": false,
          "internalType": "uint256",
          "name": "positionId",
          "type": "uint256"
        },
        {
          "indexed": false,
          "internalType": "uint256",
          "name": "shelterId",
          "type": "uint256"
        },
        {
          "indexed": false,
          "internalType": "uint256",
          "name": "sellerGuildId",
          "type": "uint256"
        },
        {
          "indexed": false,
          "internalType": "address",
          "name": "msgSender",
          "type": "address"
        },
        {
          "indexed": false,
          "internalType": "uint256",
          "name": "minAuctionPrice",
          "type": "uint256"
        }
      ],
      "name": "AuctionPositionOpened",
      "type": "event"
    },
    {
      "anonymous": false,
      "inputs": [
        {
          "indexed": false,
          "internalType": "uint256",
          "name": "fee",
          "type": "uint256"
        }
      ],
      "name": "AuctionSetFee",
      "type": "event"
    },
    {
      "anonymous": false,
      "inputs": [
        {
          "indexed": false,
          "internalType": "address",
          "name": "controller",
          "type": "address"
        },
        {
          "indexed": false,
          "internalType": "uint256",
          "name": "ts",
          "type": "uint256"
        },
        {
          "indexed": false,
          "internalType": "uint256",
          "name": "block",
          "type": "uint256"
        }
      ],
      "name": "ContractInitialized",
      "type": "event"
    },
    {
      "anonymous": false,
      "inputs": [
        {
          "indexed": false,
          "internalType": "uint64",
          "name": "version",
          "type": "uint64"
        }
      ],
      "name": "Initialized",
      "type": "event"
    },
    {
      "anonymous": false,
      "inputs": [
        {
          "indexed": false,
          "internalType": "uint256",
          "name": "value",
          "type": "uint256"
        },
        {
          "indexed": false,
          "internalType": "address",
          "name": "oldLogic",
          "type": "address"
        }
      ],
      "name": "RevisionIncreased",
      "type": "event"
    },
    {
      "inputs": [],
      "name": "CONTROLLABLE_VERSION",
      "outputs": [
        {
          "internalType": "string",
          "name": "",
          "type": "string"
        }
      ],
      "stateMutability": "view",
      "type": "function"
    },
    {
      "inputs": [],
      "name": "VERSION",
      "outputs": [
        {
          "internalType": "string",
          "name": "",
          "type": "string"
        }
      ],
      "stateMutability": "view",
      "type": "function"
    },
    {
      "inputs": [
        {
          "internalType": "uint256",
          "name": "bidId",
          "type": "uint256"
        }
      ],
      "name": "applyAuctionBid",
      "outputs": [],
      "stateMutability": "nonpayable",
      "type": "function"
    },
    {
      "inputs": [
        {
          "internalType": "uint256",
          "name": "positionId",
          "type": "uint256"
        }
      ],
      "name": "auctionEndTs",
      "outputs": [
        {
          "internalType": "uint256",
          "name": "timestamp",
          "type": "uint256"
        }
      ],
      "stateMutability": "view",
      "type": "function"
    },
    {
      "inputs": [
        {
          "internalType": "uint256",
          "name": "positionId",
          "type": "uint256"
        },
        {
          "internalType": "uint256",
          "name": "amount",
          "type": "uint256"
        }
      ],
      "name": "bid",
      "outputs": [],
      "stateMutability": "nonpayable",
      "type": "function"
    },
    {
      "inputs": [],
      "name": "bidCounter",
      "outputs": [
        {
          "internalType": "uint256",
          "name": "",
          "type": "uint256"
        }
      ],
      "stateMutability": "view",
      "type": "function"
    },
    {
      "inputs": [
        {
          "internalType": "uint256",
          "name": "positionId",
          "type": "uint256"
        }
      ],
      "name": "closePosition",
      "outputs": [],
      "stateMutability": "nonpayable",
      "type": "function"
    },
    {
      "inputs": [],
      "name": "controller",
      "outputs": [
        {
          "internalType": "address",
          "name": "",
          "type": "address"
        }
      ],
      "stateMutability": "view",
      "type": "function"
    },
    {
      "inputs": [],
      "name": "created",
      "outputs": [
        {
          "internalType": "uint256",
          "name": "",
          "type": "uint256"
        }
      ],
      "stateMutability": "view",
      "type": "function"
    },
    {
      "inputs": [],
      "name": "createdBlock",
      "outputs": [
        {
          "internalType": "uint256",
          "name": "",
          "type": "uint256"
        }
      ],
      "stateMutability": "view",
      "type": "function"
    },
    {
      "inputs": [],
      "name": "fee",
      "outputs": [
        {
          "internalType": "uint256",
          "name": "",
          "type": "uint256"
        }
      ],
      "stateMutability": "view",
      "type": "function"
    },
    {
      "inputs": [
        {
          "internalType": "uint256",
          "name": "bidId_",
          "type": "uint256"
        }
      ],
      "name": "getBid",
      "outputs": [
        {
          "components": [
            {
              "internalType": "bool",
              "name": "open",
              "type": "bool"
            },
            {
              "internalType": "address",
              "name": "buyer",
              "type": "address"
            },
            {
              "internalType": "uint128",
              "name": "bidId",
              "type": "uint128"
            },
            {
              "internalType": "uint128",
              "name": "positionId",
              "type": "uint128"
            },
            {
              "internalType": "uint128",
              "name": "amount",
              "type": "uint128"
            },
            {
              "internalType": "uint128",
              "name": "buyerGuildId",
              "type": "uint128"
            }
          ],
          "internalType": "struct IShelterAuction.AuctionBid",
          "name": "",
          "type": "tuple"
        }
      ],
      "stateMutability": "view",
      "type": "function"
    },
    {
      "inputs": [
        {
          "internalType": "uint256",
          "name": "positionId_",
          "type": "uint256"
        }
      ],
      "name": "getPosition",
      "outputs": [
        {
          "components": [
            {
              "internalType": "bool",
              "name": "open",
              "type": "bool"
            },
            {
              "internalType": "address",
              "name": "seller",
              "type": "address"
            },
            {
              "internalType": "uint64",
              "name": "shelterId",
              "type": "uint64"
            },
            {
              "internalType": "uint128",
              "name": "positionId",
              "type": "uint128"
            },
            {
              "internalType": "uint128",
              "name": "minAuctionPrice",
              "type": "uint128"
            },
            {
              "internalType": "uint128",
              "name": "sellerGuildId",
              "type": "uint128"
            }
          ],
          "internalType": "struct IShelterAuction.Position",
          "name": "",
          "type": "tuple"
        }
      ],
      "stateMutability": "view",
      "type": "function"
    },
    {
      "inputs": [
        {
          "internalType": "address",
          "name": "oldLogic",
          "type": "address"
        }
      ],
      "name": "increaseRevision",
      "outputs": [],
      "stateMutability": "nonpayable",
      "type": "function"
    },
    {
      "inputs": [
        {
          "internalType": "address",
          "name": "controller_",
          "type": "address"
        }
      ],
      "name": "init",
      "outputs": [],
      "stateMutability": "nonpayable",
      "type": "function"
    },
    {
      "inputs": [
        {
          "internalType": "address",
          "name": "value_",
          "type": "address"
        }
      ],
      "name": "isController",
      "outputs": [
        {
          "internalType": "bool",
          "name": "",
          "type": "bool"
        }
      ],
      "stateMutability": "view",
      "type": "function"
    },
    {
      "inputs": [
        {
          "internalType": "address",
          "name": "value_",
          "type": "address"
        }
      ],
      "name": "isGovernance",
      "outputs": [
        {
          "internalType": "bool",
          "name": "",
          "type": "bool"
        }
      ],
      "stateMutability": "view",
      "type": "function"
    },
    {
      "inputs": [
        {
          "internalType": "address",
          "name": "forwarder",
          "type": "address"
        }
      ],
      "name": "isTrustedForwarder",
      "outputs": [
        {
          "internalType": "bool",
          "name": "",
          "type": "bool"
        }
      ],
      "stateMutability": "view",
      "type": "function"
    },
    {
      "inputs": [
        {
          "internalType": "uint256",
          "name": "positionId",
          "type": "uint256"
        }
      ],
      "name": "lastAuctionBidTs",
      "outputs": [
        {
          "internalType": "uint256",
          "name": "timestamp",
          "type": "uint256"
        }
      ],
      "stateMutability": "view",
      "type": "function"
    },
    {
      "inputs": [
        {
          "internalType": "uint256",
          "name": "positionId",
          "type": "uint256"
        }
      ],
      "name": "nextAmount",
      "outputs": [
        {
          "internalType": "uint256",
          "name": "",
          "type": "uint256"
        }
      ],
      "stateMutability": "view",
      "type": "function"
    },
    {
      "inputs": [
        {
          "internalType": "uint256",
          "name": "shelterId",
          "type": "uint256"
        },
        {
          "internalType": "uint256",
          "name": "minAuctionPrice",
          "type": "uint256"
        }
      ],
      "name": "openPosition",
      "outputs": [
        {
          "internalType": "uint256",
          "name": "",
          "type": "uint256"
        }
      ],
      "stateMutability": "nonpayable",
      "type": "function"
    },
    {
      "inputs": [
        {
          "internalType": "uint256",
          "name": "index",
          "type": "uint256"
        }
      ],
      "name": "openPositionByIndex",
      "outputs": [
        {
          "internalType": "uint256",
          "name": "positionId",
          "type": "uint256"
        }
      ],
      "stateMutability": "view",
      "type": "function"
    },
    {
      "inputs": [],
      "name": "openPositionsLength",
      "outputs": [
        {
          "internalType": "uint256",
          "name": "",
          "type": "uint256"
        }
      ],
      "stateMutability": "view",
      "type": "function"
    },
    {
      "inputs": [
        {
          "internalType": "uint256",
          "name": "shelterId_",
          "type": "uint256"
        }
      ],
      "name": "posByShelter",
      "outputs": [
        {
          "internalType": "uint256",
          "name": "positionId",
          "type": "uint256"
        }
      ],
      "stateMutability": "view",
      "type": "function"
    },
    {
      "inputs": [
        {
          "internalType": "uint256",
          "name": "positionId",
          "type": "uint256"
        },
        {
          "internalType": "uint256",
          "name": "bidIndex",
          "type": "uint256"
        }
      ],
      "name": "positionBidByIndex",
      "outputs": [
        {
          "internalType": "uint256",
          "name": "",
          "type": "uint256"
        }
      ],
      "stateMutability": "view",
      "type": "function"
    },
    {
      "inputs": [
        {
          "internalType": "uint256",
          "name": "positionId",
          "type": "uint256"
        }
      ],
      "name": "positionBidsLength",
      "outputs": [
        {
          "internalType": "uint256",
          "name": "",
          "type": "uint256"
        }
      ],
      "stateMutability": "view",
      "type": "function"
    },
    {
      "inputs": [
        {
          "internalType": "uint256",
          "name": "buyerGuildId",
          "type": "uint256"
        }
      ],
      "name": "positionByBuyer",
      "outputs": [
        {
          "internalType": "uint256",
          "name": "positionId",
          "type": "uint256"
        },
        {
          "internalType": "uint256",
          "name": "bidIndex",
          "type": "uint256"
        }
      ],
      "stateMutability": "view",
      "type": "function"
    },
    {
      "inputs": [
        {
          "internalType": "uint256",
          "name": "sellerGuildId_",
          "type": "uint256"
        }
      ],
      "name": "positionBySeller",
      "outputs": [
        {
          "internalType": "uint256",
          "name": "positionId",
          "type": "uint256"
        }
      ],
      "stateMutability": "view",
      "type": "function"
    },
    {
      "inputs": [],
      "name": "positionCounter",
      "outputs": [
        {
          "internalType": "uint256",
          "name": "",
          "type": "uint256"
        }
      ],
      "stateMutability": "view",
      "type": "function"
    },
    {
      "inputs": [],
      "name": "previousImplementation",
      "outputs": [
        {
          "internalType": "address",
          "name": "",
          "type": "address"
        }
      ],
      "stateMutability": "view",
      "type": "function"
    },
    {
      "inputs": [],
      "name": "revision",
      "outputs": [
        {
          "internalType": "uint256",
          "name": "",
          "type": "uint256"
        }
      ],
      "stateMutability": "view",
      "type": "function"
    },
    {
      "inputs": [
        {
          "internalType": "uint256",
          "name": "fee_",
          "type": "uint256"
        }
      ],
      "name": "setFee",
      "outputs": [],
      "stateMutability": "nonpayable",
      "type": "function"
    }
  ],
  "transactionHash": "0x877507900c34e09f14ec73c96627d55c87f5ebbfd2614dc96e2f27c020f54fe2",
  "args": [],
  "numDeployments": 19,
  "solcInputHash": "1a4342b5d9fe8c3b83a893539aac6eae",
  "bytecode": "0x60806040523480156200001157600080fd5b507ff0c57e16840df040f15088dc2f81fe391c3923bec73e23a9662efc9c229c6a00805468010000000000000000810460ff1615906001600160401b03166000811580156200005d5750825b90506000826001600160401b031660011480156200007a5750303b155b90508115801562000089575080155b15620000a85760405163f92ee8a960e01b815260040160405180910390fd5b84546001600160401b03191660011785558315620000d757845460ff60401b1916680100000000000000001785555b83156200011e57845460ff60401b19168555604051600181527fc7f505b2f371ae2175ee4913f4499e1f2633a7b5936321eed1cdaeb6115181d29060200160405180910390a15b5050505050612c3380620001336000396000f3fe608060405234801561001057600080fd5b50600436106101b05760003560e01c806369fe0e2d116100ef578063b429afeb11610092578063b429afeb146103f8578063b6dcc9831461040b578063ddca3f431461041e578063dee1f0e414610426578063eb02c30114610439578063ec82a664146104b8578063f77c4791146104cb578063ffa1ad74146104d357600080fd5b806369fe0e2d146103365780637cc963801461034957806381165ec614610351578063905c1e9314610364578063936725ec1461038c5780639d0bcca0146103bd578063a126d601146103d2578063b17583e7146103e557600080fd5b80633f678f05116101575780633f678f05146102af5780634593144c146102c25780634fac6ccd146102ca578063572b6c05146102dd578063598647f81461030057806363d5ab8d14610313578063689d84ca1461031b578063699083031461032357600080fd5b806303f69354146101b557806319ab453c146101d057806320bc4b50146101e557806320e763b8146101f85780633012b05c1461020b578063325a19f11461021e578063366e3000146102265780633c889e6f14610239575b600080fd5b6101bd6104f7565b6040519081526020015b60405180910390f35b6101e36101de3660046128ec565b610506565b005b6101bd6101f3366004612910565b61061c565b6101bd610206366004612932565b610631565b6101bd610219366004612910565b610640565b6101bd61065c565b6101bd610234366004612932565b610690565b61024c610247366004612932565b61069b565b604080518251151581526020808401516001600160a01b031690820152828201516001600160801b039081169282019290925260608084015183169082015260808084015183169082015260a0928301519091169181019190915260c0016101c7565b6101e36102bd366004612932565b6106ac565b6101bd6106cd565b6101e36102d83660046128ec565b6106fd565b6102f06102eb3660046128ec565b610806565b60405190151581526020016101c7565b6101e361030e366004612910565b61087b565b6101bd61089e565b6101bd6108a8565b6101bd610331366004612932565b6108b2565b6101e3610344366004612932565b6108bd565b6101bd6108ce565b6101bd61035f366004612932565b6108ec565b610377610372366004612932565b6108f7565b604080519283526020830191909152016101c7565b6103b0604051806040016040528060058152602001640312e302e360dc1b81525081565b6040516101c7919061294b565b6103c5610923565b6040516101c7919061299a565b6101e36103e0366004612932565b610953565b6101bd6103f3366004612932565b61096c565b6102f06104063660046128ec565b61097f565b6101bd610419366004612932565b6109a4565b6101bd6109af565b6102f06104343660046128ec565b6109b9565b61044c610447366004612932565b610a3e565b6040516101c791908151151581526020808301516001600160a01b0316908201526040808301516001600160401b0316908201526060808301516001600160801b039081169183019190915260808084015182169083015260a092830151169181019190915260c00190565b6101bd6104c6366004612932565b610a4f565b6103c5610a5a565b6103b060405180604001604052806005815260200164312e302e3160d81b81525081565b6000610501610a8a565b905090565b6000610510610abe565b805490915060ff600160401b82041615906001600160401b03166000811580156105375750825b90506000826001600160401b031660011480156105535750303b155b905081158015610561575080155b1561057f5760405163f92ee8a960e01b815260040160405180910390fd5b845467ffffffffffffffff1916600117855583156105a957845460ff60401b1916600160401b1785555b6105b286610ae2565b60646105bc610af3565b600360009081526020919091526040902055831561061457845460ff60401b19168555604051600181527fc7f505b2f371ae2175ee4913f4499e1f2633a7b5936321eed1cdaeb6115181d29060200160405180910390a15b505050505050565b60006106288383610b17565b90505b92915050565b600061062b8262015180610b59565b600061062861064d610a5a565b610655610b99565b8585610bbb565b600061050161068c60017f6f55f470bdc9cb5f04223fd822021061668e4dccb43e8727b295106dc9769c8b6129da565b5490565b600061062b82610f15565b6106a36128a2565b61062b82610fed565b6106ca6106b7610a5a565b6106bf610b99565b83620151804261107b565b50565b600061050161068c60017f812a673dfca07956350df10f8a654925f561d7a0da09bdbe79e653939a14d9f16129da565b33301461074f5760405162461bcd60e51b815260206004820152601b60248201527a24b731b932b0b9b2903932bb34b9b4b7b7103337b93134b23232b760291b60448201526064015b60405180910390fd5b600061076d61068c6001600080516020612bde8339815191526129da565b6107789060016129ed565b905061079a816107976001600080516020612bde8339815191526129da565b55565b6107c98261079760017fbfaaa2fb63266ff27c2da975f5894955056f50419af651a81f6c5060581857e46129da565b7ff27e2ef832a4eb8ed8ec553b875eecd44764cda95b1c24170e281539e0a869c881836040516107fa929190612a00565b60405180910390a15050565b60006001600160a01b03821673d8253782c45a12053594b9deb72d8e8ab2fca54c148061084f57506001600160a01b0382167352ceba41da235af367bfc0b0ccd3314cb901bb5f145b8061062b57506001600160a01b03821673102f1f556cd9c3d5f820e6920a8931657c5da21b1492915050565b61089a610886610a5a565b61088e610b99565b848462015180426115c4565b5050565b6000610501611bd6565b6000610501611be9565b600061062b82611bfe565b6106ca6108c8610a5a565b82611c1c565b600061050161068c6001600080516020612bde8339815191526129da565b600061062b82611c97565b600080600061090584611cb5565b80516020909101516001600160801b03918216969116945092505050565b600061050161068c60017fbfaaa2fb63266ff27c2da975f5894955056f50419af651a81f6c5060581857e46129da565b6106ca61095e610a5a565b610966610b99565b83611d0b565b600061062b610979610a5a565b83611ed7565b6000610989610a5a565b6001600160a01b0316826001600160a01b0316149050919050565b600061062b82612035565b6000610501612053565b6000816001600160a01b03166109cd610a5a565b6001600160a01b0316635aa6e6756040518163ffffffff1660e01b8152600401602060405180830381865afa158015610a0a573d6000803e3d6000fd5b505050506040513d601f19601f82011682018060405250810190610a2e9190612a17565b6001600160a01b03161492915050565b610a466128a2565b61062b82612066565b600061062b826120ff565b600061050161068c60017f5165972ef41194f06c5007493031d0b927c20741adcb74403b954009fd2c36186129da565b6000610a94610af3565b600060025b6003811115610aaa57610aaa6129ae565b815260200190815260200160002054905090565b7ff0c57e16840df040f15088dc2f81fe391c3923bec73e23a9662efc9c229c6a0090565b610aea612116565b6106ca8161213d565b7f597e4e55fd306bfc6bfaaa6b3e10d80a4b0fe770b166ac704f10504e76e97c0090565b6000610b21610af3565b60070160008481526020019081526020016000208281548110610b4657610b46612a34565b9060005260206000200154905092915050565b600080610b64610af3565b6000858152600891909101602052604090205490508015610b8e57610b8983826129ed565b610b91565b60005b949350505050565b6000610ba433610806565b15610bb6575060131936013560601c90565b503390565b6000610bc68561225c565b81600003610be75760405163273e150360e21b815260040160405180910390fd5b6000856001600160a01b03166325eb1c876040518163ffffffff1660e01b8152600401602060405180830381865afa158015610c27573d6000803e3d6000fd5b505050506040513d601f19601f82011682018060405250810190610c4b9190612a17565b90506000610c5b868360036122dc565b5090506000610c68610af3565b6000838152600591909101602052604090205490508015610c9f5760405163cc0a2fff60e01b815260048101829052602401610746565b604051635f1c54df60e01b81526004810183905286906001600160a01b03851690635f1c54df90602401602060405180830381865afa158015610ce6573d6000803e3d6000fd5b505050506040513d601f19601f82011682018060405250810190610d0a9190612a4a565b14610d2857604051631ca073bd60e31b815260040160405180910390fd5b85600003610d495760405163273e150360e21b815260040160405180910390fd5b6000610d556001612450565b9050610d6c81610d63610af3565b600301906124e0565b506040518060c00160405280600115158152602001896001600160a01b03168152602001886001600160401b03168152602001826001600160801b03168152602001876001600160801b03168152602001846001600160801b0316815250610dd2610af3565b6000838152600191820160209081526040918290208451815492860151938601516001600160a81b0319909316901515610100600160a81b031916176101006001600160a01b03909416939093029290921767ffffffffffffffff60a81b1916600160a81b6001600160401b0390921691909102178155606083015160808401516001600160801b03918216600160801b91831691909102179282019290925560a090920151600290920180546001600160801b0319169290911691909117905580610e9c610af3565b6000858152600591909101602090815260409182902092909255805183815291820189905281018490526001600160a01b0389166060820152608081018790527fa44f8017b814948f1b74137948e0765373df974f6f93314e7eae177beefdfe979060a00160405180910390a198975050505050505050565b600080610f20610af3565b600084815260079190910160205260408120805490925090819003610f7457610f47610af3565b60009485526001908101602052604090942090930154600160801b90046001600160801b03169392505050565b6000610f7e610af3565b600201600084610f8f6001866129da565b81548110610f9f57610f9f612a34565b6000918252602080832090910154835282019290925260400190206002810154909150606490610fda90606e906001600160801b0316612a63565b610fe49190612a7a565b95945050505050565b610ff56128a2565b610ffd610af3565b600092835260029081016020908152604093849020845160c081018652815460ff81161515825261010090046001600160a01b03169281019290925260018101546001600160801b0380821696840196909652600160801b908190048616606084015292015480851660808301529190910490921660a08301525090565b6110848561225c565b6000856001600160a01b03166325eb1c876040518163ffffffff1660e01b8152600401602060405180830381865afa1580156110c4573d6000803e3d6000fd5b505050506040513d601f19601f820116820180604052508101906110e89190612a17565b905060006110f8868360036122dc565b5090506000611105610af3565b6000878152600291909101602052604081206001810154909250600160801b90046001600160801b03169081900361115057604051633efb857360e11b815260040160405180910390fd5b815460ff1661117257604051637905976d60e11b815260040160405180910390fd5b600061117c610af3565b600083815260019190910160205260409020805490915060ff166111b3576040516311d0812360e01b815260040160405180910390fd5b85876111bd610af3565b600085815260089190910160205260409020546111da91906129ed565b106111f857604051636463738960e01b815260040160405180910390fd5b600280820154908401546001600160801b0391821691600160801b909104168582148015906112275750808614155b156112455760405163f20e063760e01b815260040160405180910390fd5b825460ff199081168455855416855561126984611260610af3565b600301906124ec565b50611272610af3565b6000838152600591909101602052604081205561128d610af3565b6000828152600691909101602090815260408083208390558051632d4f2d5160e11b815290516001600160a01b038b1692635a9e5aa292600480820193918290030181865afa1580156112e4573d6000803e3d6000fd5b505050506040513d601f19601f820116820180604052508101906113089190612a17565b8454604051635f623c8b60e01b8152600160a81b9091046001600160401b03166004820152602481018490529091506001600160a01b03821690635f623c8b90604401600060405180830381600087803b15801561136557600080fd5b505af1158015611379573d6000803e3d6000fd5b50505050505060008b6001600160a01b031663c3dfdae66040518163ffffffff1660e01b8152600401602060405180830381865afa1580156113bf573d6000803e3d6000fd5b505050506040513d601f19601f820116820180604052508101906113e39190612a17565b60028601549091506001600160801b03166000620186a0611402612053565b61140c9084612a63565b6114169190612a7a565b9050801561149157826001600160a01b031663a9059cbb8f836040518363ffffffff1660e01b815260040161144c929190612a9c565b6020604051808303816000875af115801561146b573d6000803e3d6000fd5b505050506040513d601f19601f8201168201806040525081019061148f9190612ab5565b505b60405163f2e0023d60e01b8152600481018590526000906001600160a01b038b169063f2e0023d90602401602060405180830381865afa1580156114d9573d6000803e3d6000fd5b505050506040513d601f19601f820116820180604052508101906114fd9190612a17565b90506001600160a01b03841663a9059cbb8261151985876129da565b6040518363ffffffff1660e01b8152600401611536929190612a9c565b6020604051808303816000875af1158015611555573d6000803e3d6000fd5b505050506040513d601f19601f820116820180604052508101906115799190612ab5565b507f9834c8f337fc2a0366d32d529e1db177384dc0489017773693ba39599898b76a8d8f6040516115ab929190612a00565b60405180910390a1505050505050505050505050505050565b6115cd8661225c565b6000866001600160a01b03166325eb1c876040518163ffffffff1660e01b8152600401602060405180830381865afa15801561160d573d6000803e3d6000fd5b505050506040513d601f19601f820116820180604052508101906116319190612a17565b90506000611641878360036122dc565b509050600061164e610af3565b6000888152600191820160205260409020908101549091506001600160801b0316871461168e57604051638f948d0760e01b815260040160405180910390fd5b805460ff166116b0576040516311d0812360e01b815260040160405180910390fd5b60028101546001600160801b03168290036116de5760405163b918ff0360e01b815260040160405180910390fd5b60006116e8610af3565b60008481526006919091016020526040902080549091506001600160801b031615611734578054604051636a34a9f760e01b81526001600160801b039091166004820152602401610746565b50600061173f610af3565b60070160008981526020019081526020016000209050836001600160a01b0316635a9e5aa26040518163ffffffff1660e01b8152600401602060405180830381865afa158015611793573d6000803e3d6000fd5b505050506040513d601f19601f820116820180604052508101906117b79190612a17565b6001600160a01b0316635f1c54df846040518263ffffffff1660e01b81526004016117e491815260200190565b602060405180830381865afa158015611801573d6000803e3d6000fd5b505050506040513d601f19601f820116820180604052508101906118259190612a4a565b1561184357604051630a340f6960e11b815260040160405180910390fd5b80546000819003611888576001830154600160801b90046001600160801b03168810156118835760405163578b090f60e11b815260040160405180910390fd5b61196c565b8587611892610af3565b60008c815260089190910160205260409020546118af91906129ed565b10156118ce5760405163283a4a6160e21b815260040160405180910390fd5b60006118d8610af3565b6002016000846118e96001866129da565b815481106118f9576118f9612a34565b6000918252602080832090910154835282019290925260400190206002810154909150899060649061193690606e906001600160801b0316612a63565b6119409190612a7a565b111561195f5760405163b0738bcb60e01b815260040160405180910390fd5b61196a81878e6124f8565b505b6040805160c081018252600181526001600160a01b038c16602082015260009181016119986002612450565b6001600160801b0390811682528c81166020808401919091528c821660408085019190915289831660609094019390935291830151865460018101885560008881529390932091169101559050806119ee610af3565b6040808401516001600160801b039081166000908152600293840160209081529083902085518154878401516001600160a01b031661010002610100600160a81b0319921515929092166001600160a81b0319909116171781558584015160608701518416600160801b908102918516919091176001830155608087015160a09097015184160295831695909517949093019390935580518082019091528c8316815291841690820152611aa0610af3565b600087815260069190910160209081526040909120825192909101516001600160801b03908116600160801b02921691909117905586611ade610af3565b60008c815260089190910160205260409081902091909155818101519051630a8b446b60e41b815260048101879052602481018b90526001600160801b0390911660448201526001600160a01b0387169063a8b446b090606401600060405180830381600087803b158015611b5257600080fd5b505af1158015611b66573d6000803e3d6000fd5b50505060408083015181516001600160801b039091168152602081018d90529081018b90526001600160a01b038d1660608201527f212de920a843943385be4d0be6f5375802a6c0eb13258959f94184f8599aa1f1915060800160405180910390a1505050505050505050505050565b6000611be0610af3565b60006001610a99565b6000610501611bf6610af3565b60030161268d565b6000611c08610af3565b600092835260070160205250604090205490565b611c2582612697565b61c350811115611c4b57604051633995b34160e01b815260048101829052602401610746565b80611c54610af3565b6003600090815260209182526040908190209290925590518281527f77d8be18ef86f9e4034ef84c9b2889a8cff8685d920b58b49d3a7eab81c6cd0a91016107fa565b6000611ca1610af3565b600092835260080160205250604090205490565b6040805180820190915260008082526020820152611cd1610af3565b600092835260060160209081526040928390208351808501909452546001600160801b038082168552600160801b90910416908301525090565b611d148361225c565b6000836001600160a01b03166325eb1c876040518163ffffffff1660e01b8152600401602060405180830381865afa158015611d54573d6000803e3d6000fd5b505050506040513d601f19601f82011682018060405250810190611d789190612a17565b90506000611d88848360036122dc565b5090506000611d95610af3565b6000858152600191820160205260409020908101549091506001600160801b03168414611dd557604051638f948d0760e01b815260040160405180910390fd5b60028101546001600160801b03168214611e02576040516303cdc39d60e01b815260040160405180910390fd5b805460ff16611e24576040516311d0812360e01b815260040160405180910390fd5b6000611e2e610af3565b6000868152600891909101602052604090205490508015611e625760405163331bb74960e11b815260040160405180910390fd5b611e6e85611260610af3565b50611e77610af3565b6000848152600591909101602052604080822091909155825460ff19168355517fda6994de7462b880631ad7c521a8208d0ddddecdac70aeb1b3abeaa408a2cd6e90611ec69087908990612a00565b60405180910390a150505050505050565b600080836001600160a01b03166325eb1c876040518163ffffffff1660e01b8152600401602060405180830381865afa158015611f18573d6000803e3d6000fd5b505050506040513d601f19601f82011682018060405250810190611f3c9190612a17565b90506000816001600160a01b0316635a9e5aa26040518163ffffffff1660e01b8152600401602060405180830381865afa158015611f7e573d6000803e3d6000fd5b505050506040513d601f19601f82011682018060405250810190611fa29190612a17565b90506001600160a01b0381161561202a57604051630cf9202b60e11b815260048101859052612025906001600160a01b038316906319f2405690602401602060405180830381865afa158015611ffc573d6000803e3d6000fd5b505050506040513d601f19601f820116820180604052508101906120209190612a4a565b612035565b610fe4565b600095945050505050565b600061203f610af3565b600092835260050160205250604090205490565b600061205d610af3565b60006003610a99565b61206e6128a2565b612076610af3565b600092835260019081016020908152604093849020845160c081018652815460ff81161515825261010081046001600160a01b031693820193909352600160a81b9092046001600160401b031694820194909452908301546001600160801b038082166060840152600160801b9091048116608083015260029093015490921660a08301525090565b600061062b8261210d610af3565b60030190612723565b61211e61272f565b61213b57604051631afcd79f60e31b815260040160405180910390fd5b565b6001600160a01b0381166121855760405162461bcd60e51b815260206004820152600f60248201526e2d32b9379031b7b73a3937b63632b960891b6044820152606401610746565b6121b48161079760017f5165972ef41194f06c5007493031d0b927c20741adcb74403b954009fd2c36186129da565b6121e34261079760017f6f55f470bdc9cb5f04223fd822021061668e4dccb43e8727b295106dc9769c8b6129da565b6122124361079760017f812a673dfca07956350df10f8a654925f561d7a0da09bdbe79e653939a14d9f16129da565b604080516001600160a01b0383168152426020820152438183015290517f1a2dd071001ebf6e03174e3df5b305795a4ad5d41d8fdb9ba41dbbe2367134269181900360600190a150565b806001600160a01b03166318d928316040518163ffffffff1660e01b8152600401602060405180830381865afa15801561229a573d6000803e3d6000fd5b505050506040513d601f19601f820116820180604052508101906122be9190612ab5565b156106ca57604051635e1633d360e11b815260040160405180910390fd5b600080836001600160a01b0316633b4c9891866040518263ffffffff1660e01b815260040161230b919061299a565b602060405180830381865afa158015612328573d6000803e3d6000fd5b505050506040513d601f19601f8201168201806040525081019061234c9190612a4a565b91508160000361236f57604051632f6c853960e11b815260040160405180910390fd5b6040516373cf874b60e11b81526001600160a01b0385169063e79f0e969061239b90889060040161299a565b602060405180830381865afa1580156123b8573d6000803e3d6000fd5b505050506040513d601f19601f820116820180604052508101906123dc9190612a4a565b90506123ea60006002612bbb565b8116151580612416575082600d811115612406576124066129ae565b612411906002612bbb565b811615155b6124485782600d81111561242c5761242c6129ae565b604051630d816ed160e01b815260040161074691815260200190565b935093915050565b600061245a610af3565b600083600381111561246e5761246e6129ae565b600381111561247f5761247f6129ae565b815260200190815260200160002054600161249a91906129ed565b9050806124a5610af3565b60008460038111156124b9576124b96129ae565b60038111156124ca576124ca6129ae565b8152602081019190915260400160002055919050565b60006106288383612749565b60006106288383612798565b6002830154835460ff19168455600160801b90046001600160801b031661251d610af3565b600082815260069190910160205260408082208290555163f2e0023d60e01b8152600481018390526001600160a01b0385169063f2e0023d90602401602060405180830381865afa158015612576573d6000803e3d6000fd5b505050506040513d601f19601f8201168201806040525081019061259a9190612a17565b90506000836001600160a01b031663c3dfdae66040518163ffffffff1660e01b8152600401602060405180830381865afa1580156125dc573d6000803e3d6000fd5b505050506040513d601f19601f820116820180604052508101906126009190612a17565b600287015460405163a9059cbb60e01b81526001600160a01b0385811660048301526001600160801b03909216602482015291925082169063a9059cbb906044016020604051808303816000875af1158015612660573d6000803e3d6000fd5b505050506040513d601f19601f820116820180604052508101906126849190612ab5565b50505050505050565b600061062b825490565b604051631430d62960e21b81526001600160a01b038216906350c358a4906126c390339060040161299a565b602060405180830381865afa1580156126e0573d6000803e3d6000fd5b505050506040513d601f19601f820116820180604052508101906127049190612ab5565b6106ca573360405163451cea1760e11b8152600401610746919061299a565b6000610628838361288b565b6000612739610abe565b54600160401b900460ff16919050565b60008181526001830160205260408120546127905750815460018181018455600084815260208082209093018490558454848252828601909352604090209190915561062b565b50600061062b565b600081815260018301602052604081205480156128815760006127bc6001836129da565b85549091506000906127d0906001906129da565b90508082146128355760008660000182815481106127f0576127f0612a34565b906000526020600020015490508087600001848154811061281357612813612a34565b6000918252602080832090910192909255918252600188019052604090208390555b855486908061284657612846612bc7565b60019003818190600052602060002001600090559055856001016000868152602001908152602001600020600090556001935050505061062b565b600091505061062b565b6000826000018281548110610b4657610b46612a34565b6040805160c081018252600080825260208201819052918101829052606081018290526080810182905260a081019190915290565b6001600160a01b03811681146106ca57600080fd5b6000602082840312156128fe57600080fd5b8135612909816128d7565b9392505050565b6000806040838503121561292357600080fd5b50508035926020909101359150565b60006020828403121561294457600080fd5b5035919050565b60006020808352835180602085015260005b818110156129795785810183015185820160400152820161295d565b506000604082860101526040601f19601f8301168501019250505092915050565b6001600160a01b0391909116815260200190565b634e487b7160e01b600052602160045260246000fd5b634e487b7160e01b600052601160045260246000fd5b8181038181111561062b5761062b6129c4565b8082018082111561062b5761062b6129c4565b9182526001600160a01b0316602082015260400190565b600060208284031215612a2957600080fd5b8151612909816128d7565b634e487b7160e01b600052603260045260246000fd5b600060208284031215612a5c57600080fd5b5051919050565b808202811582820484141761062b5761062b6129c4565b600082612a9757634e487b7160e01b600052601260045260246000fd5b500490565b6001600160a01b03929092168252602082015260400190565b600060208284031215612ac757600080fd5b8151801515811461290957600080fd5b600181815b80851115612b12578160001904821115612af857612af86129c4565b80851615612b0557918102915b93841c9390800290612adc565b509250929050565b600082612b295750600161062b565b81612b365750600061062b565b8160018114612b4c5760028114612b5657612b72565b600191505061062b565b60ff841115612b6757612b676129c4565b50506001821b61062b565b5060208310610133831016604e8410600b8410161715612b95575081810a61062b565b612b9f8383612ad7565b8060001904821115612bb357612bb36129c4565b029392505050565b60006106288383612b1a565b634e487b7160e01b600052603160045260246000fdfe22573091f17911fb166032a3d9e0554aa73d31b7b7ddea4a4dd2995650af84bda264697066735822122000948633e10c9dc77347aee922ee9da1c54ef37d508e97655c3e15e01e993be064736f6c63430008170033",
  "libraries": {},
  "devdoc": {
    "errors": {
      "InvalidInitialization()": [
        {
          "details": "The contract is already initialized."
        }
      ],
      "NotInitializing()": [
        {
          "details": "The contract is not initializing."
        }
      ]
    },
    "events": {
      "Initialized(uint64)": {
        "details": "Triggered when the contract has been initialized or reinitialized."
      }
    },
    "kind": "dev",
    "methods": {
      "bid(uint256,uint256)": {
        "params": {
          "amount": "Amount of the bid in terms of the game token. Use {nextAmount} to know min valid value"
        }
      },
      "created()": {
        "returns": {
          "_0": "Creation timestamp"
        }
      },
      "createdBlock()": {
        "returns": {
          "_0": "Creation block number"
        }
      },
      "increaseRevision(address)": {
        "details": "Revision should be increased on each contract upgrade"
      },
      "isController(address)": {
        "details": "Return true if given address is controller"
      },
      "openPosition(uint256,uint256)": {
        "params": {
          "minAuctionPrice": "Min allowed initial price, 0 is not allowed",
          "shelterId": "Shelter to be sold. Assume, that message sender belongs to the guild that owns the shelter."
        },
        "returns": {
          "_0": "id of newly crated position. You can get this ID also by using {positionBySeller}"
        }
      },
      "positionByBuyer(uint256)": {
        "returns": {
          "bidIndex": "0-based index of the opened bid in {positionToBidIds}",
          "positionId": "ID of the position that the buyer is going to purchase"
        }
      },
      "previousImplementation()": {
        "details": "Previous logic implementation"
      },
      "revision()": {
        "details": "Contract upgrade counter"
      }
    },
    "version": 1
  },
  "userdoc": {
    "kind": "user",
    "methods": {
      "CONTROLLABLE_VERSION()": {
        "notice": "Version of the contract"
      },
      "VERSION()": {
        "notice": "Version of the contract"
      },
      "applyAuctionBid(uint256)": {
        "notice": "Apply winner-bid by seller or by buyer. Assume that auction ended. Transfer winner-bid-amount to the seller. Transfer shelter from seller to the buyer. CLose the position."
      },
      "auctionEndTs(uint256)": {
        "notice": "Deadline of auction ending. The deadline is changed on each creation of new bid for the given position."
      },
      "bid(uint256,uint256)": {
        "notice": "Buyer action. Create new bid with amount higher than the amount of previously registered bid. The amount is taken from guild bank to balance of this contract and returned if the bid is closed. Close previous auction bid and transfer bid-amount back to the buyer."
      },
      "closePosition(uint256)": {
        "notice": "Seller action. Close position without any bids."
      },
      "controller()": {
        "notice": "Return controller address saved in the contract slot"
      },
      "created()": {
        "notice": "Return creation timestamp"
      },
      "createdBlock()": {
        "notice": "Return creation block number"
      },
      "fee()": {
        "notice": "Percent of fee (100% = 100_000) that is taken in behalf of the governance from each sold shelter."
      },
      "isGovernance(address)": {
        "notice": "Return true if given address is setup as governance in Controller"
      },
      "lastAuctionBidTs(uint256)": {
        "notice": "Timestamp (in seconds) of last created bid for the given position"
      },
      "nextAmount(uint256)": {
        "notice": "Min amount that is valid to be passed to {bid} for the given position. Initial amount is specified by seller in openPosition, than amount is increased with rate {NEXT_AMOUNT_RATIO} on creation of each new bid"
      },
      "openPosition(uint256,uint256)": {
        "notice": "Seller action. Open new position, setup min allowed auction price."
      },
      "openPositionsLength()": {
        "notice": "Total number of currently opened positions"
      },
      "posByShelter(uint256)": {
        "notice": "Get position currently opened for the given shelter or 0"
      },
      "positionBidsLength(uint256)": {
        "notice": "Total number of currently opened bids for the given position"
      },
      "positionByBuyer(uint256)": {
        "notice": "Get info about bid opened by the given guild. Only one bid can be opened at any time."
      },
      "positionBySeller(uint256)": {
        "notice": "Get position currently opened by the given guild. Only one position can be opened at any time."
      }
    },
    "version": 1
  },
  "storageLayout": {
    "storage": [],
    "types": null
  }
}