{
  "address": "0x86A43843E4a4ec9566d41d4Bd084b87EFefA164E",
  "abi": [
    {
      "inputs": [],
      "name": "ErrorCannotRemoveItemFromMap",
      "type": "error"
    },
    {
      "inputs": [
        {
          "internalType": "address",
          "name": "item",
          "type": "address"
        }
      ],
      "name": "ErrorConsumableItemIsUsed",
      "type": "error"
    },
    {
      "inputs": [],
      "name": "ErrorExperienceMustNotDecrease",
      "type": "error"
    },
    {
      "inputs": [
        {
          "internalType": "address",
          "name": "sender",
          "type": "address"
        }
      ],
      "name": "ErrorForbidden",
      "type": "error"
    },
    {
      "inputs": [
        {
          "internalType": "uint256",
          "name": "itemType",
          "type": "uint256"
        },
        {
          "internalType": "uint8",
          "name": "itemSlot",
          "type": "uint8"
        }
      ],
      "name": "ErrorItemNotEligibleForTheSlot",
      "type": "error"
    },
    {
      "inputs": [],
      "name": "ErrorItemNotInSlot",
      "type": "error"
    },
    {
      "inputs": [],
      "name": "ErrorItemSlotBusy",
      "type": "error"
    },
    {
      "inputs": [
        {
          "internalType": "uint8",
          "name": "slot",
          "type": "uint8"
        }
      ],
      "name": "ErrorItemSlotBusyHand",
      "type": "error"
    },
    {
      "inputs": [],
      "name": "ErrorMaxLevel",
      "type": "error"
    },
    {
      "inputs": [],
      "name": "ErrorNotEnoughExperience",
      "type": "error"
    },
    {
      "inputs": [
        {
          "internalType": "address",
          "name": "sender",
          "type": "address"
        }
      ],
      "name": "ErrorNotHeroController",
      "type": "error"
    },
    {
      "inputs": [
        {
          "internalType": "address",
          "name": "sender",
          "type": "address"
        }
      ],
      "name": "ErrorNotItemController",
      "type": "error"
    },
    {
      "inputs": [],
      "name": "ErrorWrongLevelUpSum",
      "type": "error"
    },
    {
      "inputs": [],
      "name": "ErrorZeroKarmaNotAllowed",
      "type": "error"
    },
    {
      "inputs": [],
      "name": "InvalidInitialization",
      "type": "error"
    },
    {
      "inputs": [],
      "name": "NotInitializing",
      "type": "error"
    },
    {
      "inputs": [
        {
          "internalType": "uint256",
          "name": "index",
          "type": "uint256"
        },
        {
          "internalType": "uint256",
          "name": "length",
          "type": "uint256"
        }
      ],
      "name": "OutOfBounds",
      "type": "error"
    },
    {
      "inputs": [
        {
          "internalType": "uint256",
          "name": "value",
          "type": "uint256"
        }
      ],
      "name": "TooHighValue",
      "type": "error"
    },
    {
      "inputs": [
        {
          "internalType": "uint256",
          "name": "x",
          "type": "uint256"
        }
      ],
      "name": "TooLowX",
      "type": "error"
    },
    {
      "inputs": [
        {
          "internalType": "uint256",
          "name": "expected",
          "type": "uint256"
        },
        {
          "internalType": "uint256",
          "name": "actual",
          "type": "uint256"
        }
      ],
      "name": "UnexpectedValue",
      "type": "error"
    },
    {
      "inputs": [
        {
          "internalType": "uint256",
          "name": "heroClass",
          "type": "uint256"
        }
      ],
      "name": "UnknownHeroClass",
      "type": "error"
    },
    {
      "anonymous": false,
      "inputs": [
        {
          "indexed": false,
          "internalType": "address",
          "name": "heroToken",
          "type": "address"
        },
        {
          "indexed": false,
          "internalType": "uint256",
          "name": "heroTokenId",
          "type": "uint256"
        },
        {
          "indexed": false,
          "internalType": "bool",
          "name": "add",
          "type": "bool"
        },
        {
          "indexed": false,
          "internalType": "bool",
          "name": "temporally",
          "type": "bool"
        },
        {
          "indexed": false,
          "internalType": "address",
          "name": "caller",
          "type": "address"
        }
      ],
      "name": "BonusAttributesChanged",
      "type": "event"
    },
    {
      "anonymous": false,
      "inputs": [
        {
          "indexed": false,
          "internalType": "address",
          "name": "heroToken",
          "type": "address"
        },
        {
          "indexed": false,
          "internalType": "uint256",
          "name": "heroTokenId",
          "type": "uint256"
        },
        {
          "indexed": false,
          "internalType": "address",
          "name": "item",
          "type": "address"
        }
      ],
      "name": "ConsumableUsed",
      "type": "event"
    },
    {
      "anonymous": false,
      "inputs": [
        {
          "indexed": false,
          "internalType": "address",
          "name": "controller",
          "type": "address"
        },
        {
          "indexed": false,
          "internalType": "uint256",
          "name": "ts",
          "type": "uint256"
        },
        {
          "indexed": false,
          "internalType": "uint256",
          "name": "block",
          "type": "uint256"
        }
      ],
      "name": "ContractInitialized",
      "type": "event"
    },
    {
      "anonymous": false,
      "inputs": [
        {
          "indexed": false,
          "internalType": "address",
          "name": "heroToken",
          "type": "address"
        },
        {
          "indexed": false,
          "internalType": "uint256",
          "name": "heroTokenId",
          "type": "uint256"
        },
        {
          "components": [
            {
              "internalType": "uint32",
              "name": "level",
              "type": "uint32"
            },
            {
              "internalType": "uint32",
              "name": "experience",
              "type": "uint32"
            },
            {
              "internalType": "uint32",
              "name": "life",
              "type": "uint32"
            },
            {
              "internalType": "uint32",
              "name": "mana",
              "type": "uint32"
            },
            {
              "internalType": "uint32",
              "name": "lifeChances",
              "type": "uint32"
            }
          ],
          "indexed": false,
          "internalType": "struct IStatController.ChangeableStats",
          "name": "change",
          "type": "tuple"
        },
        {
          "indexed": false,
          "internalType": "bool",
          "name": "increase",
          "type": "bool"
        },
        {
          "indexed": false,
          "internalType": "address",
          "name": "caller",
          "type": "address"
        }
      ],
      "name": "CurrentStatsChanged",
      "type": "event"
    },
    {
      "anonymous": false,
      "inputs": [
        {
          "indexed": false,
          "internalType": "bytes32",
          "name": "index",
          "type": "bytes32"
        },
        {
          "indexed": false,
          "internalType": "uint256",
          "name": "value",
          "type": "uint256"
        }
      ],
      "name": "GlobalCustomDataChanged",
      "type": "event"
    },
    {
      "anonymous": false,
      "inputs": [
        {
          "indexed": false,
          "internalType": "address",
          "name": "token",
          "type": "address"
        },
        {
          "indexed": false,
          "internalType": "uint256",
          "name": "tokenId",
          "type": "uint256"
        },
        {
          "indexed": false,
          "internalType": "bytes32",
          "name": "index",
          "type": "bytes32"
        },
        {
          "indexed": false,
          "internalType": "uint256",
          "name": "value",
          "type": "uint256"
        },
        {
          "indexed": false,
          "internalType": "uint8",
          "name": "ngLevel",
          "type": "uint8"
        }
      ],
      "name": "HeroCustomDataChangedNg",
      "type": "event"
    },
    {
      "anonymous": false,
      "inputs": [
        {
          "indexed": false,
          "internalType": "address",
          "name": "heroToken",
          "type": "address"
        },
        {
          "indexed": false,
          "internalType": "uint256",
          "name": "heroTokenId",
          "type": "uint256"
        },
        {
          "indexed": false,
          "internalType": "uint256",
          "name": "itemType",
          "type": "uint256"
        },
        {
          "indexed": false,
          "internalType": "uint256",
          "name": "itemSlot",
          "type": "uint256"
        },
        {
          "indexed": false,
          "internalType": "address",
          "name": "itemToken",
          "type": "address"
        },
        {
          "indexed": false,
          "internalType": "uint256",
          "name": "itemTokenId",
          "type": "uint256"
        },
        {
          "indexed": false,
          "internalType": "bool",
          "name": "equip",
          "type": "bool"
        },
        {
          "indexed": false,
          "internalType": "address",
          "name": "caller",
          "type": "address"
        }
      ],
      "name": "HeroItemSlotChanged",
      "type": "event"
    },
    {
      "anonymous": false,
      "inputs": [
        {
          "indexed": false,
          "internalType": "uint64",
          "name": "version",
          "type": "uint64"
        }
      ],
      "name": "Initialized",
      "type": "event"
    },
    {
      "anonymous": false,
      "inputs": [
        {
          "indexed": false,
          "internalType": "address",
          "name": "heroToken",
          "type": "address"
        },
        {
          "indexed": false,
          "internalType": "uint256",
          "name": "heroTokenId",
          "type": "uint256"
        },
        {
          "indexed": false,
          "internalType": "uint256",
          "name": "heroClass",
          "type": "uint256"
        },
        {
          "components": [
            {
              "internalType": "int32",
              "name": "strength",
              "type": "int32"
            },
            {
              "internalType": "int32",
              "name": "dexterity",
              "type": "int32"
            },
            {
              "internalType": "int32",
              "name": "vitality",
              "type": "int32"
            },
            {
              "internalType": "int32",
              "name": "energy",
              "type": "int32"
            }
          ],
          "indexed": false,
          "internalType": "struct IStatController.CoreAttributes",
          "name": "change",
          "type": "tuple"
        }
      ],
      "name": "LevelUp",
      "type": "event"
    },
    {
      "anonymous": false,
      "inputs": [
        {
          "indexed": false,
          "internalType": "address",
          "name": "heroToken",
          "type": "address"
        },
        {
          "indexed": false,
          "internalType": "uint256",
          "name": "heroTokenId",
          "type": "uint256"
        },
        {
          "indexed": false,
          "internalType": "address",
          "name": "item",
          "type": "address"
        }
      ],
      "name": "RemoveConsumableUsage",
      "type": "event"
    },
    {
      "anonymous": false,
      "inputs": [
        {
          "indexed": false,
          "internalType": "uint256",
          "name": "value",
          "type": "uint256"
        },
        {
          "indexed": false,
          "internalType": "address",
          "name": "oldLogic",
          "type": "address"
        }
      ],
      "name": "RevisionIncreased",
      "type": "event"
    },
    {
      "anonymous": false,
      "inputs": [
        {
          "indexed": false,
          "internalType": "address",
          "name": "heroToken",
          "type": "address"
        },
        {
          "indexed": false,
          "internalType": "uint256",
          "name": "heroTokenId",
          "type": "uint256"
        },
        {
          "indexed": false,
          "internalType": "address",
          "name": "caller",
          "type": "address"
        }
      ],
      "name": "TemporallyAttributesCleared",
      "type": "event"
    },
    {
      "inputs": [],
      "name": "CONTROLLABLE_VERSION",
      "outputs": [
        {
          "internalType": "string",
          "name": "",
          "type": "string"
        }
      ],
      "stateMutability": "view",
      "type": "function"
    },
    {
      "inputs": [],
      "name": "VERSION",
      "outputs": [
        {
          "internalType": "string",
          "name": "",
          "type": "string"
        }
      ],
      "stateMutability": "view",
      "type": "function"
    },
    {
      "inputs": [
        {
          "components": [
            {
              "internalType": "address",
              "name": "heroToken",
              "type": "address"
            },
            {
              "internalType": "uint256",
              "name": "heroTokenId",
              "type": "uint256"
            },
            {
              "internalType": "uint32",
              "name": "heroLevel",
              "type": "uint32"
            },
            {
              "internalType": "address[]",
              "name": "buffTokens",
              "type": "address[]"
            },
            {
              "internalType": "uint256[]",
              "name": "buffTokenIds",
              "type": "uint256[]"
            }
          ],
          "internalType": "struct IStatController.BuffInfo",
          "name": "info",
          "type": "tuple"
        }
      ],
      "name": "buffHero",
      "outputs": [
        {
          "internalType": "int32[]",
          "name": "",
          "type": "int32[]"
        },
        {
          "internalType": "int32",
          "name": "",
          "type": "int32"
        }
      ],
      "stateMutability": "view",
      "type": "function"
    },
    {
      "inputs": [
        {
          "components": [
            {
              "internalType": "address",
              "name": "heroToken",
              "type": "address"
            },
            {
              "internalType": "uint256",
              "name": "heroTokenId",
              "type": "uint256"
            },
            {
              "internalType": "int32[]",
              "name": "changeAttributes",
              "type": "int32[]"
            },
            {
              "internalType": "bool",
              "name": "add",
              "type": "bool"
            },
            {
              "internalType": "bool",
              "name": "temporally",
              "type": "bool"
            }
          ],
          "internalType": "struct IStatController.ChangeAttributesInfo",
          "name": "info",
          "type": "tuple"
        }
      ],
      "name": "changeBonusAttributes",
      "outputs": [],
      "stateMutability": "nonpayable",
      "type": "function"
    },
    {
      "inputs": [
        {
          "internalType": "address",
          "name": "heroToken",
          "type": "address"
        },
        {
          "internalType": "uint256",
          "name": "heroTokenId",
          "type": "uint256"
        },
        {
          "components": [
            {
              "internalType": "uint32",
              "name": "level",
              "type": "uint32"
            },
            {
              "internalType": "uint32",
              "name": "experience",
              "type": "uint32"
            },
            {
              "internalType": "uint32",
              "name": "life",
              "type": "uint32"
            },
            {
              "internalType": "uint32",
              "name": "mana",
              "type": "uint32"
            },
            {
              "internalType": "uint32",
              "name": "lifeChances",
              "type": "uint32"
            }
          ],
          "internalType": "struct IStatController.ChangeableStats",
          "name": "change",
          "type": "tuple"
        },
        {
          "internalType": "bool",
          "name": "increase",
          "type": "bool"
        }
      ],
      "name": "changeCurrentStats",
      "outputs": [],
      "stateMutability": "nonpayable",
      "type": "function"
    },
    {
      "inputs": [
        {
          "internalType": "address",
          "name": "heroToken",
          "type": "address"
        },
        {
          "internalType": "uint64",
          "name": "heroTokenId",
          "type": "uint64"
        },
        {
          "internalType": "uint256",
          "name": "itemType",
          "type": "uint256"
        },
        {
          "internalType": "uint8",
          "name": "itemSlot",
          "type": "uint8"
        },
        {
          "internalType": "address",
          "name": "itemToken",
          "type": "address"
        },
        {
          "internalType": "uint256",
          "name": "itemTokenId",
          "type": "uint256"
        },
        {
          "internalType": "bool",
          "name": "equip",
          "type": "bool"
        }
      ],
      "name": "changeHeroItemSlot",
      "outputs": [],
      "stateMutability": "nonpayable",
      "type": "function"
    },
    {
      "inputs": [
        {
          "internalType": "address",
          "name": "heroToken",
          "type": "address"
        },
        {
          "internalType": "uint256",
          "name": "heroTokenId",
          "type": "uint256"
        }
      ],
      "name": "clearTemporallyAttributes",
      "outputs": [],
      "stateMutability": "nonpayable",
      "type": "function"
    },
    {
      "inputs": [
        {
          "internalType": "address",
          "name": "heroToken",
          "type": "address"
        },
        {
          "internalType": "uint256",
          "name": "heroTokenId",
          "type": "uint256"
        }
      ],
      "name": "clearUsedConsumables",
      "outputs": [],
      "stateMutability": "nonpayable",
      "type": "function"
    },
    {
      "inputs": [],
      "name": "controller",
      "outputs": [
        {
          "internalType": "address",
          "name": "",
          "type": "address"
        }
      ],
      "stateMutability": "view",
      "type": "function"
    },
    {
      "inputs": [],
      "name": "created",
      "outputs": [
        {
          "internalType": "uint256",
          "name": "",
          "type": "uint256"
        }
      ],
      "stateMutability": "view",
      "type": "function"
    },
    {
      "inputs": [],
      "name": "createdBlock",
      "outputs": [
        {
          "internalType": "uint256",
          "name": "",
          "type": "uint256"
        }
      ],
      "stateMutability": "view",
      "type": "function"
    },
    {
      "inputs": [
        {
          "internalType": "address",
          "name": "token",
          "type": "address"
        },
        {
          "internalType": "uint256",
          "name": "tokenId",
          "type": "uint256"
        }
      ],
      "name": "getAllHeroCustomData",
      "outputs": [
        {
          "internalType": "bytes32[]",
          "name": "keys",
          "type": "bytes32[]"
        },
        {
          "internalType": "uint256[]",
          "name": "values",
          "type": "uint256[]"
        }
      ],
      "stateMutability": "view",
      "type": "function"
    },
    {
      "inputs": [
        {
          "internalType": "bytes32",
          "name": "index",
          "type": "bytes32"
        }
      ],
      "name": "globalCustomData",
      "outputs": [
        {
          "internalType": "uint256",
          "name": "",
          "type": "uint256"
        }
      ],
      "stateMutability": "view",
      "type": "function"
    },
    {
      "inputs": [
        {
          "internalType": "address",
          "name": "token",
          "type": "address"
        },
        {
          "internalType": "uint256",
          "name": "tokenId",
          "type": "uint256"
        },
        {
          "internalType": "uint256",
          "name": "index",
          "type": "uint256"
        }
      ],
      "name": "heroAttribute",
      "outputs": [
        {
          "internalType": "int32",
          "name": "",
          "type": "int32"
        }
      ],
      "stateMutability": "view",
      "type": "function"
    },
    {
      "inputs": [
        {
          "internalType": "address",
          "name": "token",
          "type": "address"
        },
        {
          "internalType": "uint256",
          "name": "tokenId",
          "type": "uint256"
        }
      ],
      "name": "heroAttributes",
      "outputs": [
        {
          "internalType": "int32[]",
          "name": "",
          "type": "int32[]"
        }
      ],
      "stateMutability": "view",
      "type": "function"
    },
    {
      "inputs": [
        {
          "internalType": "address",
          "name": "token",
          "type": "address"
        },
        {
          "internalType": "uint256",
          "name": "tokenId",
          "type": "uint256"
        }
      ],
      "name": "heroAttributesLength",
      "outputs": [
        {
          "internalType": "uint256",
          "name": "",
          "type": "uint256"
        }
      ],
      "stateMutability": "pure",
      "type": "function"
    },
    {
      "inputs": [
        {
          "internalType": "address",
          "name": "token",
          "type": "address"
        },
        {
          "internalType": "uint256",
          "name": "tokenId",
          "type": "uint256"
        }
      ],
      "name": "heroBaseAttributes",
      "outputs": [
        {
          "components": [
            {
              "internalType": "int32",
              "name": "strength",
              "type": "int32"
            },
            {
              "internalType": "int32",
              "name": "dexterity",
              "type": "int32"
            },
            {
              "internalType": "int32",
              "name": "vitality",
              "type": "int32"
            },
            {
              "internalType": "int32",
              "name": "energy",
              "type": "int32"
            }
          ],
          "internalType": "struct IStatController.CoreAttributes",
          "name": "core",
          "type": "tuple"
        }
      ],
      "stateMutability": "view",
      "type": "function"
    },
    {
      "inputs": [
        {
          "internalType": "address",
          "name": "token",
          "type": "address"
        },
        {
          "internalType": "uint256",
          "name": "tokenId",
          "type": "uint256"
        }
      ],
      "name": "heroBonusAttributes",
      "outputs": [
        {
          "internalType": "int32[]",
          "name": "",
          "type": "int32[]"
        }
      ],
      "stateMutability": "view",
      "type": "function"
    },
    {
      "inputs": [
        {
          "internalType": "address",
          "name": "hero",
          "type": "address"
        },
        {
          "internalType": "uint256",
          "name": "heroId",
          "type": "uint256"
        },
        {
          "internalType": "bytes32",
          "name": "index",
          "type": "bytes32"
        }
      ],
      "name": "heroCustomData",
      "outputs": [
        {
          "internalType": "uint256",
          "name": "",
          "type": "uint256"
        }
      ],
      "stateMutability": "view",
      "type": "function"
    },
    {
      "inputs": [
        {
          "internalType": "address",
          "name": "hero",
          "type": "address"
        },
        {
          "internalType": "uint256",
          "name": "heroId",
          "type": "uint256"
        },
        {
          "internalType": "bytes32",
          "name": "index",
          "type": "bytes32"
        },
        {
          "internalType": "uint8",
          "name": "ngLevel",
          "type": "uint8"
        }
      ],
      "name": "heroCustomDataOnNgLevel",
      "outputs": [
        {
          "internalType": "uint256",
          "name": "",
          "type": "uint256"
        }
      ],
      "stateMutability": "view",
      "type": "function"
    },
    {
      "inputs": [
        {
          "internalType": "uint256",
          "name": "heroClass",
          "type": "uint256"
        }
      ],
      "name": "heroInitialAttributes",
      "outputs": [
        {
          "components": [
            {
              "components": [
                {
                  "internalType": "int32",
                  "name": "strength",
                  "type": "int32"
                },
                {
                  "internalType": "int32",
                  "name": "dexterity",
                  "type": "int32"
                },
                {
                  "internalType": "int32",
                  "name": "vitality",
                  "type": "int32"
                },
                {
                  "internalType": "int32",
                  "name": "energy",
                  "type": "int32"
                }
              ],
              "internalType": "struct IStatController.CoreAttributes",
              "name": "core",
              "type": "tuple"
            },
            {
              "components": [
                {
                  "internalType": "uint256",
                  "name": "minDamage",
                  "type": "uint256"
                },
                {
                  "internalType": "uint256",
                  "name": "maxDamage",
                  "type": "uint256"
                },
                {
                  "internalType": "uint256",
                  "name": "attackRating",
                  "type": "uint256"
                },
                {
                  "internalType": "uint256",
                  "name": "defense",
                  "type": "uint256"
                },
                {
                  "internalType": "uint256",
                  "name": "blockRating",
                  "type": "uint256"
                },
                {
                  "internalType": "uint256",
                  "name": "life",
                  "type": "uint256"
                },
                {
                  "internalType": "uint256",
                  "name": "mana",
                  "type": "uint256"
                }
              ],
              "internalType": "struct StatLib.BaseMultiplier",
              "name": "multiplier",
              "type": "tuple"
            },
            {
              "components": [
                {
                  "internalType": "uint256",
                  "name": "life",
                  "type": "uint256"
                },
                {
                  "internalType": "uint256",
                  "name": "mana",
                  "type": "uint256"
                }
              ],
              "internalType": "struct StatLib.LevelUp",
              "name": "levelUp",
              "type": "tuple"
            },
            {
              "internalType": "int32",
              "name": "baseLifeChances",
              "type": "int32"
            }
          ],
          "internalType": "struct StatLib.InitialHero",
          "name": "",
          "type": "tuple"
        }
      ],
      "stateMutability": "view",
      "type": "function"
    },
    {
      "inputs": [
        {
          "internalType": "address",
          "name": "heroToken",
          "type": "address"
        },
        {
          "internalType": "uint64",
          "name": "heroTokenId",
          "type": "uint64"
        },
        {
          "internalType": "uint8",
          "name": "itemSlot",
          "type": "uint8"
        }
      ],
      "name": "heroItemSlot",
      "outputs": [
        {
          "internalType": "bytes32",
          "name": "nftPacked",
          "type": "bytes32"
        }
      ],
      "stateMutability": "view",
      "type": "function"
    },
    {
      "inputs": [
        {
          "internalType": "address",
          "name": "heroToken",
          "type": "address"
        },
        {
          "internalType": "uint256",
          "name": "heroTokenId",
          "type": "uint256"
        }
      ],
      "name": "heroItemSlots",
      "outputs": [
        {
          "internalType": "uint8[]",
          "name": "",
          "type": "uint8[]"
        }
      ],
      "stateMutability": "view",
      "type": "function"
    },
    {
      "inputs": [
        {
          "internalType": "address",
          "name": "token",
          "type": "address"
        },
        {
          "internalType": "uint256",
          "name": "tokenId",
          "type": "uint256"
        }
      ],
      "name": "heroStats",
      "outputs": [
        {
          "components": [
            {
              "internalType": "uint32",
              "name": "level",
              "type": "uint32"
            },
            {
              "internalType": "uint32",
              "name": "experience",
              "type": "uint32"
            },
            {
              "internalType": "uint32",
              "name": "life",
              "type": "uint32"
            },
            {
              "internalType": "uint32",
              "name": "mana",
              "type": "uint32"
            },
            {
              "internalType": "uint32",
              "name": "lifeChances",
              "type": "uint32"
            }
          ],
          "internalType": "struct IStatController.ChangeableStats",
          "name": "result",
          "type": "tuple"
        }
      ],
      "stateMutability": "view",
      "type": "function"
    },
    {
      "inputs": [
        {
          "internalType": "address",
          "name": "token",
          "type": "address"
        },
        {
          "internalType": "uint256",
          "name": "tokenId",
          "type": "uint256"
        }
      ],
      "name": "heroTemporallyAttributes",
      "outputs": [
        {
          "internalType": "int32[]",
          "name": "",
          "type": "int32[]"
        }
      ],
      "stateMutability": "view",
      "type": "function"
    },
    {
      "inputs": [
        {
          "internalType": "address",
          "name": "oldLogic",
          "type": "address"
        }
      ],
      "name": "increaseRevision",
      "outputs": [],
      "stateMutability": "nonpayable",
      "type": "function"
    },
    {
      "inputs": [
        {
          "internalType": "address",
          "name": "controller_",
          "type": "address"
        }
      ],
      "name": "init",
      "outputs": [],
      "stateMutability": "nonpayable",
      "type": "function"
    },
    {
      "inputs": [
        {
          "internalType": "address",
          "name": "heroToken",
          "type": "address"
        },
        {
          "internalType": "uint256",
          "name": "heroTokenId",
          "type": "uint256"
        },
        {
          "internalType": "uint256",
          "name": "heroClass",
          "type": "uint256"
        }
      ],
      "name": "initNewHero",
      "outputs": [],
      "stateMutability": "nonpayable",
      "type": "function"
    },
    {
      "inputs": [
        {
          "internalType": "address",
          "name": "heroToken",
          "type": "address"
        },
        {
          "internalType": "uint256",
          "name": "heroTokenId",
          "type": "uint256"
        },
        {
          "internalType": "address",
          "name": "item",
          "type": "address"
        }
      ],
      "name": "isConsumableUsed",
      "outputs": [
        {
          "internalType": "bool",
          "name": "",
          "type": "bool"
        }
      ],
      "stateMutability": "view",
      "type": "function"
    },
    {
      "inputs": [
        {
          "internalType": "address",
          "name": "value_",
          "type": "address"
        }
      ],
      "name": "isController",
      "outputs": [
        {
          "internalType": "bool",
          "name": "",
          "type": "bool"
        }
      ],
      "stateMutability": "view",
      "type": "function"
    },
    {
      "inputs": [
        {
          "internalType": "address",
          "name": "value_",
          "type": "address"
        }
      ],
      "name": "isGovernance",
      "outputs": [
        {
          "internalType": "bool",
          "name": "",
          "type": "bool"
        }
      ],
      "stateMutability": "view",
      "type": "function"
    },
    {
      "inputs": [
        {
          "internalType": "address",
          "name": "heroToken",
          "type": "address"
        },
        {
          "internalType": "uint256",
          "name": "heroTokenId",
          "type": "uint256"
        }
      ],
      "name": "isHeroAlive",
      "outputs": [
        {
          "internalType": "bool",
          "name": "",
          "type": "bool"
        }
      ],
      "stateMutability": "view",
      "type": "function"
    },
    {
      "inputs": [
        {
          "internalType": "uint32",
          "name": "level",
          "type": "uint32"
        }
      ],
      "name": "levelExperience",
      "outputs": [
        {
          "internalType": "uint256",
          "name": "",
          "type": "uint256"
        }
      ],
      "stateMutability": "pure",
      "type": "function"
    },
    {
      "inputs": [
        {
          "internalType": "address",
          "name": "heroToken",
          "type": "address"
        },
        {
          "internalType": "uint256",
          "name": "heroTokenId",
          "type": "uint256"
        },
        {
          "internalType": "uint256",
          "name": "heroClass",
          "type": "uint256"
        },
        {
          "components": [
            {
              "internalType": "int32",
              "name": "strength",
              "type": "int32"
            },
            {
              "internalType": "int32",
              "name": "dexterity",
              "type": "int32"
            },
            {
              "internalType": "int32",
              "name": "vitality",
              "type": "int32"
            },
            {
              "internalType": "int32",
              "name": "energy",
              "type": "int32"
            }
          ],
          "internalType": "struct IStatController.CoreAttributes",
          "name": "change",
          "type": "tuple"
        }
      ],
      "name": "levelUp",
      "outputs": [
        {
          "internalType": "uint256",
          "name": "newLvl",
          "type": "uint256"
        }
      ],
      "stateMutability": "nonpayable",
      "type": "function"
    },
    {
      "inputs": [
        {
          "internalType": "uint32",
          "name": "level",
          "type": "uint32"
        }
      ],
      "name": "levelUpExperienceRequired",
      "outputs": [
        {
          "internalType": "uint256",
          "name": "",
          "type": "uint256"
        }
      ],
      "stateMutability": "pure",
      "type": "function"
    },
    {
      "inputs": [],
      "name": "previousImplementation",
      "outputs": [
        {
          "internalType": "address",
          "name": "",
          "type": "address"
        }
      ],
      "stateMutability": "view",
      "type": "function"
    },
    {
      "inputs": [
        {
          "internalType": "address",
          "name": "heroToken",
          "type": "address"
        },
        {
          "internalType": "uint256",
          "name": "heroTokenId",
          "type": "uint256"
        },
        {
          "internalType": "uint256",
          "name": "heroClass",
          "type": "uint256"
        }
      ],
      "name": "reborn",
      "outputs": [],
      "stateMutability": "nonpayable",
      "type": "function"
    },
    {
      "inputs": [
        {
          "internalType": "address",
          "name": "heroToken",
          "type": "address"
        },
        {
          "internalType": "uint256",
          "name": "heroTokenId",
          "type": "uint256"
        },
        {
          "internalType": "address",
          "name": "item",
          "type": "address"
        }
      ],
      "name": "registerConsumableUsage",
      "outputs": [],
      "stateMutability": "nonpayable",
      "type": "function"
    },
    {
      "inputs": [
        {
          "internalType": "address",
          "name": "heroToken",
          "type": "address"
        },
        {
          "internalType": "uint256",
          "name": "heroTokenId",
          "type": "uint256"
        }
      ],
      "name": "resetHeroCustomData",
      "outputs": [],
      "stateMutability": "nonpayable",
      "type": "function"
    },
    {
      "inputs": [
        {
          "internalType": "address",
          "name": "heroToken",
          "type": "address"
        },
        {
          "internalType": "uint256",
          "name": "heroTokenId",
          "type": "uint256"
        },
        {
          "internalType": "int32[]",
          "name": "prevAttributes",
          "type": "int32[]"
        }
      ],
      "name": "restoreLifeAndMana",
      "outputs": [],
      "stateMutability": "nonpayable",
      "type": "function"
    },
    {
      "inputs": [],
      "name": "revision",
      "outputs": [
        {
          "internalType": "uint256",
          "name": "",
          "type": "uint256"
        }
      ],
      "stateMutability": "view",
      "type": "function"
    },
    {
      "inputs": [
        {
          "internalType": "bytes32",
          "name": "index",
          "type": "bytes32"
        },
        {
          "internalType": "uint256",
          "name": "value",
          "type": "uint256"
        }
      ],
      "name": "setGlobalCustomData",
      "outputs": [],
      "stateMutability": "nonpayable",
      "type": "function"
    },
    {
      "inputs": [
        {
          "internalType": "address",
          "name": "token",
          "type": "address"
        },
        {
          "internalType": "uint256",
          "name": "tokenId",
          "type": "uint256"
        },
        {
          "internalType": "bytes32",
          "name": "index",
          "type": "bytes32"
        },
        {
          "internalType": "uint256",
          "name": "value",
          "type": "uint256"
        }
      ],
      "name": "setHeroCustomData",
      "outputs": [],
      "stateMutability": "nonpayable",
      "type": "function"
    }
  ],
  "transactionHash": "0x1815ad91c649a25973d64ac864c3eb49668efd8b306eec6e17d4143c09ed61bb",
  "args": [],
  "numDeployments": 44,
  "solcInputHash": "05d369a9a000244b16a46c28e04f97f8",
  "bytecode": "0x60806040523480156200001157600080fd5b507ff0c57e16840df040f15088dc2f81fe391c3923bec73e23a9662efc9c229c6a00805468010000000000000000810460ff1615906001600160401b03166000811580156200005d5750825b90506000826001600160401b031660011480156200007a5750303b155b90508115801562000089575080155b15620000a85760405163f92ee8a960e01b815260040160405180910390fd5b84546001600160401b03191660011785558315620000d757845460ff60401b1916680100000000000000001785555b83156200011e57845460ff60401b19168555604051600181527fc7f505b2f371ae2175ee4913f4499e1f2633a7b5936321eed1cdaeb6115181d29060200160405180910390a15b50505050506158bb80620001336000396000f3fe608060405234801561001057600080fd5b50600436106102295760003560e01c806357e9ee7b11610131578063af6a5722116100b3578063af6a572214610508578063afb1a9ed1461051b578063b429afeb1461052e578063c756abc214610541578063cf53669014610554578063d4ac484814610567578063dee1f0e414610587578063f16a30661461059a578063f77c4791146105ad578063fbed9ac5146105b5578063ffa1ad74146105d557600080fd5b806357e9ee7b146104145780635d015a9a146104355780636bad2ebd146104485780637527a8c01461045b5780637ac46f971461046e5780637cc9638014610481578063906f0ced14610489578063936725ec1461049c57806395e34c34146104cd5780639d0bcca0146104e05780639ff45dbe146104f557600080fd5b806320a7d299116101ba57806320a7d2991461031b578063236715f014610341578063271d229e14610361578063297835fd14610374578063325a19f11461039557806333237c091461039d5780633a658951146103b05780633bdb788b146103d35780633e4d93f6146103e65780634593144c146103f95780634fac6ccd1461040157600080fd5b80630959f7611461022e5780630a82c861146102545780630f82ecaf1461026757806314e4105a1461027c578063184f61431461028f57806319ab453c146102a25780631c2aafe7146102b55780631f051fa0146102c85780631f74d4b2146102e8578063205a119914610308575b600080fd5b61024161023c3660046149d8565b6105f9565b6040519081526020015b60405180910390f35b610241610262366004614a22565b610679565b61027a610275366004614a3b565b6106a2565b005b61027a61028a366004614a5d565b6106c0565b61027a61029d366004614a89565b6106da565b61027a6102b0366004614ac4565b6106fc565b6102416102c3366004614ae1565b6107f6565b6102db6102d6366004614a5d565b610874565b60405161024b9190614b55565b6102fb6102f6366004614a5d565b61088f565b60405161024b9190614b9a565b61027a610316366004614ae1565b6108a9565b61032e610329366004614ae1565b61093e565b60405160039190910b815260200161024b565b61035461034f366004614a22565b610953565b60405161024b9190614ba8565b61027a61036f366004614c3b565b610964565b610387610382366004614a5d565b610984565b60405161024b929190614c7d565b610241610a06565b61027a6103ab366004614ae1565b610a3f565b6103c36103be366004614c3b565b610ab2565b604051901515815260200161024b565b6102416103e1366004614d0f565b610ac7565b6102416103f4366004614d61565b610adc565b610241610af3565b61027a61040f366004614ac4565b610b23565b610427610422366004614d7c565b610c34565b60405161024b929190614db6565b61027a610443366004614ef3565b610ccf565b610241610456366004614a5d565b610cea565b610241610469366004614d61565b610cf6565b61027a61047c366004614a5d565b610d01565b610241610d1b565b61027a610497366004614f59565b610d39565b6104c0604051806040016040528060058152602001640312e302e360dc1b81525081565b60405161024b9190614fdb565b6102db6104db366004614a5d565b610d58565b6104e8610d6c565b60405161024b919061502a565b61027a61050336600461503e565b610d9c565b6102416105163660046150f4565b610db8565b61027a6105293660046151b2565b610dd6565b6103c361053c366004614ac4565b610df2565b61027a61054f366004614a5d565b610e17565b6102db610562366004614a5d565b610eaa565b61057a610575366004614a5d565b610ebe565b60405161024b919061529b565b6103c3610595366004614ac4565b610ed8565b6103c36105a8366004614a5d565b610f5d565b6104e8610f71565b6105c86105c3366004614a5d565b610fa1565b60405161024b91906152a9565b6104c060405180604001604052806005815260200164191718971960d91b81525081565b6000610670610606610f71565b6001600160a01b031663016dff5d6040518163ffffffff1660e01b8152600401602060405180830381865afa158015610643573d6000803e3d6000fd5b505050506040513d601f19601f8201168201806040525081019061066791906152f0565b86868686610fb5565b95945050505050565b600061069c6106866110b1565b6000848152600991909101602052604090205490565b92915050565b6106bc6106ad6110b1565b6106b5610f71565b84846110d5565b5050565b6106bc6106cb6110b1565b6106d3610f71565b8484611132565b6106f66106e56110b1565b6106ed610f71565b8686868661133d565b50505050565b600061070661148f565b805490915060ff600160401b82041615906001600160401b031660008115801561072d5750825b90506000826001600160401b031660011480156107495750303b155b905081158015610757575080155b156107755760405163f92ee8a960e01b815260040160405180910390fd5b845467ffffffffffffffff19166001178555831561079f57845460ff60401b1916600160401b1785555b6107a8866114b3565b83156107ee57845460ff60401b19168555604051600181527fc7f505b2f371ae2175ee4913f4499e1f2633a7b5936321eed1cdaeb6115181d29060200160405180910390a15b505050505050565b600061086c610803610f71565b6001600160a01b031663016dff5d6040518163ffffffff1660e01b8152600401602060405180830381865afa158015610840573d6000803e3d6000fd5b505050506040513d601f19601f8201168201806040525081019061086491906152f0565b8585856114c4565b949350505050565b60606108886108816110b1565b8484611545565b9392505050565b6108976148a6565b6108886108a26110b1565b84846115c2565b73c9E4E643DEc0cDbb8B87e04F8117C962DdDF2f9663089aa40d6108cb610f71565b6040516001600160e01b031960e084901b1681526001600160a01b039182166004820152908616602482015260448101859052606481018490526084015b60006040518083038186803b15801561092157600080fd5b505af4158015610935573d6000803e3d6000fd5b50505050505050565b600061086c61094b6110b1565b858585611694565b61095b6148cd565b61069c826116b9565b61097f61096f6110b1565b610977610f71565b858585611742565b505050565b6060806109fa610992610f71565b6001600160a01b031663016dff5d6040518163ffffffff1660e01b8152600401602060405180830381865afa1580156109cf573d6000803e3d6000fd5b505050506040513d601f19601f820116820180604052508101906109f391906152f0565b85856117dc565b915091505b9250929050565b6000610a3a610a3660017f6f55f470bdc9cb5f04223fd822021061668e4dccb43e8727b295106dc9769c8b615323565b5490565b905090565b73c9E4E643DEc0cDbb8B87e04F8117C962DdDF2f96630c2bd671610a616110b1565b610a69610f71565b6040516001600160e01b031960e085901b16815260048101929092526001600160a01b03908116602483015286166044820152606481018590526084810184905260a401610909565b600061086c610abf6110b1565b858585611975565b600061086c610ad46110b1565b8585856119a7565b6000610ae7826119d3565b63ffffffff1692915050565b6000610a3a610a3660017f812a673dfca07956350df10f8a654925f561d7a0da09bdbe79e653939a14d9f1615323565b333014610b755760405162461bcd60e51b815260206004820152601b60248201527a24b731b932b0b9b2903932bb34b9b4b7b7103337b93134b23232b760291b60448201526064015b60405180910390fd5b6000610b93610a366001600080516020615866833981519152615323565b610b9e906001615336565b9050610bc081610bbd6001600080516020615866833981519152615323565b55565b610bef82610bbd60017fbfaaa2fb63266ff27c2da975f5894955056f50419af651a81f6c5060581857e4615323565b604080518281526001600160a01b03841660208201527ff27e2ef832a4eb8ed8ec553b875eecd44764cda95b1c24170e281539e0a869c8910160405180910390a15050565b6060600073c9E4E643DEc0cDbb8B87e04F8117C962DdDF2f9663bc361372610c5a6110b1565b610c62610f71565b866040518463ffffffff1660e01b8152600401610c81939291906153c3565b600060405180830381865af4158015610c9e573d6000803e3d6000fd5b505050506040513d6000823e601f3d908101601f19168201604052610cc691908101906154a5565b91509150915091565b61097f610cda6110b1565b610ce2610f71565b858585611a74565b60006108888383611b55565b600061069c82611b5e565b6106bc610d0c6110b1565b610d14610f71565b8484611bc9565b6000610a3a610a366001600080516020615866833981519152615323565b610935610d446110b1565b610d4c610f71565b89898989898989611c86565b6060610888610d656110b1565b8484611f46565b6000610a3a610a3660017fbfaaa2fb63266ff27c2da975f5894955056f50419af651a81f6c5060581857e4615323565b610db5610da76110b1565b610daf610f71565b83611f5b565b50565b6000610670610dc56110b1565b610dcd610f71565b878787876121b6565b6106f6610de16110b1565b610de9610f71565b86868686612553565b6000610dfc610f71565b6001600160a01b0316826001600160a01b0316149050919050565b73c9E4E643DEc0cDbb8B87e04F8117C962DdDF2f966324642164610e396110b1565b610e41610f71565b6040516001600160e01b031960e085901b16815260048101929092526001600160a01b039081166024830152851660448201526064810184905260840160006040518083038186803b158015610e9657600080fd5b505af41580156107ee573d6000803e3d6000fd5b6060610888610eb76110b1565b848461277b565b610ec6614954565b610888610ed16110b1565b8484612790565b6000816001600160a01b0316610eec610f71565b6001600160a01b0316635aa6e6756040518163ffffffff1660e01b8152600401602060405180830381865afa158015610f29573d6000803e3d6000fd5b505050506040513d601f19601f82011682018060405250810190610f4d91906152f0565b6001600160a01b03161492915050565b6000610888610f6a6110b1565b8484612894565b6000610a3a610a3660017f5165972ef41194f06c5007493031d0b927c20741adcb74403b954009fd2c3618615323565b6060610888610fae6110b1565b84846128b5565b6000694845524f5f434c41535360b01b830361104257604051631789b7b160e01b81526001600160a01b03871690631789b7b190610ff790889060040161502a565b602060405180830381865afa158015611014573d6000803e3d6000fd5b505050506040513d601f19601f820116820180604052508101906110389190615550565b60ff169050610670565b600061107f846110506110b1565b600a0160006110638a8a8960ff16612a42565b8152602001908152602001600020612aa490919063ffffffff16565b915050644b41524d4160d81b84148015611097575080155b156110a7576103e8915050610670565b9695505050505050565b7fca9e8235a410bd2656fc43f888ab589425034944963c2881072ee821e700e60090565b6110de83612ac0565b50600082815260098501602090815260409182902083905581518481529081018390527feacbaeebfddf6fe98883b2aebd3ab60c079050480c8e910625719e1f1c949fb2910160405180910390a150505050565b61113b83612ac0565b5060006111488383612d5e565b60008181526003870160209081526040808320805482518185028101850190935280835294955092939092918301828280156111a357602002820191906000526020600020905b81548152602001906001019080831161118f575b5050505050905060006111b7878686612790565b600084815260028901602090815260408083208b83528184208251602b80825261058082019094529596509094909392909190820161056080368337505060408051602b80825261058082019092529293506000929150602082016105608036833701905050905060005b602b8110156112ae5760006112378883612dae565b9050600381900b156112a5576112588261125083615583565b879190612e12565b5084838151811061126b5761126b6155a6565b602002602001018160030b60030b8152505080838381518110611290576112906155a6565b602002602001019060030b908160030b815250505b50600101611222565b50600087815260038c01602052604081206112c891614982565b600087815260038c01602052604090206112e88b8587848a8f8989612e64565b6112f48c898689612ed2565b7fe4463ace42a449d7bf063bb8fa11b72c776ab039ad1e72d287d73e47c8de0d218a8a33604051611327939291906155bc565b60405180910390a1505050505050505050505050565b600061134886612ac0565b90506000816001600160a01b031663bcd418b087876040518363ffffffff1660e01b815260040161137a9291906155df565b60a060405180830381865afa158015611397573d6000803e3d6000fd5b505050506040513d601f19601f820116820180604052508101906113bb91906155f8565b602001519050644b41524d4160d81b841480156113d6575082155b156113f457604051633757c0e960e21b815260040160405180910390fd5b61142a84848a600a01600061140d8b8b8860ff16612a42565b8152602001908152602001600020612f8a9092919063ffffffff16565b50604080516001600160a01b0388168152602081018790529081018590526060810184905260ff821660808201527f8af92dbc104a8f5c91bb1ce162c9bb05b14354b888ff1d97cd8c09ebee4925999060a00160405180910390a15050505050505050565b7ff0c57e16840df040f15088dc2f81fe391c3923bec73e23a9662efc9c229c6a0090565b6114bb612f97565b610db581612fbe565b600061067085858585896001600160a01b031663bcd418b08a8a6040518363ffffffff1660e01b81526004016114fb9291906155df565b60a060405180830381865afa158015611518573d6000803e3d6000fd5b505050506040513d601f19601f8201168201806040525081019061153c91906155f8565b60200151610fb5565b606061086c8460006115578686612d5e565b81526020019081526020016000208054806020026020016040519081016040528092919081815260200182805480156115af57602002820191906000526020600020905b81548152602001906001019080831161159b575b50602b93506115bd92505050565b6130dd565b6115ca6148a6565b60006115f38560010160006115df8787612d5e565b8152602001908152602001600020546131ad565b9050604051806080016040528082600081518110611613576116136155a6565b602002602001015160030b815260200182600181518110611636576116366155a6565b602002602001015160030b815260200182600281518110611659576116596155a6565b602002602001015160030b81526020018260038151811061167c5761167c6155a6565b602002602001015160030b8152509150509392505050565b600061067085826116a58787612d5e565b815260200190815260200160002083613227565b6116c16148cd565b816001036116d15761069c61328b565b816002036116e15761069c61337b565b816003036116f15761069c6134a5565b816004036117015761069c613595565b816005036117115761069c613685565b816006036117215761069c613775565b604051635613365f60e11b815260048101839052602401610b6c565b919050565b61174b84612ac0565b5061177c818660070160006117608787612d5e565b815260200190815260200160002061386590919063ffffffff16565b61179a578060405162f5d9b360e21b8152600401610b6c919061502a565b7fc6a0e07638c51d1c81ce988c90724173ebe207b85cd9b4563e34460940623e3d8383836040516117cd939291906155bc565b60405180910390a15050505050565b60608060006117e96110b1565b600a01600061186e87878a6001600160a01b031663bcd418b08b8b6040518363ffffffff1660e01b81526004016118219291906155df565b60a060405180830381865afa15801561183e573d6000803e3d6000fd5b505050506040513d601f19601f8201168201806040525081019061186291906155f8565b6020015160ff16612a42565b8152602001908152602001600020905060006118898261387a565b9050806001600160401b038111156118a3576118a3614ddb565b6040519080825280602002602001820160405280156118cc578160200160208202803683370190505b509350806001600160401b038111156118e7576118e7614ddb565b604051908082528060200260200182016040528015611910578160200160208202803683370190505b50925060005b8181101561196a576119288382613885565b86838151811061193a5761193a6155a6565b60200260200101868481518110611953576119536155a6565b602090810291909101019190915252600101611916565b505050935093915050565b60006106708286600701600061198b8888612d5e565b815260200190815260200160002061389490919063ffffffff16565b60008460050160006119ba8686866138a9565b8152602001908152602001600020549050949350505050565b600063ffffffff821615806119ef5750606363ffffffff831610155b156119fc57506000919050565b670de0b6b3a7640000611a3b611a13846063615680565b611a1e90600261569d565b611a369063ffffffff16670de0b6b3a76400006156ba565b6138de565b611a4d90675cfb2e807b1e0000615323565b611a60620186a063ffffffff86166156ba565b611a6a91906156ba565b61069c91906156e7565b611a7d84612ac0565b506000611a8b868585612790565b90506000611a998585612d5e565b6000818152602089905260409020909150611adb611aba60095b8390613227565b8560095b81518110611ace57611ace6155a6565b60200260200101516139bf565b83604001818151611aec919061569d565b63ffffffff16905250611b0a611b02600a611ab3565b85600a611abe565b83606001818151611b1b919061569d565b63ffffffff1690525082516020840151604085015160608601516080870151611b4b948d948894919390926139e9565b5050505050505050565b6000602b610888565b600063ffffffff82161580611b7a5750606363ffffffff831610155b15611b8757506000919050565b63ffffffff8216600114611bc057611ba8611ba3600184615680565b6119d3565b611bb1836119d3565b611bbb9190615680565b610ae7565b610ae7826119d3565b611bd283612ac0565b506000846007016000611be58585612d5e565b815260200190815260200160002090506000611c0082613b3c565b905060005b81811015610935576000611c198482613b46565b9050611c258482613b52565b611c4257604051630cd274c160e41b815260040160405180910390fd5b7f990d1d901983cf7739aa5466bcf829c3a1266cd06d92c460cc8bea285cddc800868683604051611c75939291906155bc565b60405180910390a150600101611c05565b611c8f88613b67565b611c9c858560ff16613bfc565b611cc5576040516329c8542d60e11b81526004810186905260ff85166024820152604401610b6c565b600b8460ff1603611d1c576000611cdf8a898960096119a7565b141580611cf957506000611cf68a8989600a6119a7565b14155b15611d1c5760405163160400f960e01b815260ff85166004820152602401610b6c565b60098460ff161480611d315750600a8460ff16145b15611d68576000611d458a8989600b6119a7565b14611d685760405163160400f960e01b815260ff85166004820152602401610b6c565b6000611d7d88886001600160401b0316612d5e565b9050600080611d9a611d918d8c8c8b6119a7565b9060a082901c90565b915091508315611e35576001600160a01b03821615611dcc57604051637101e8f760e11b815260040160405180910390fd5b611dd68686612d5e565b8c6005016000611de78d8d8c6138a9565b815260200190815260200160002081905550611e1f8c6006016000858152602001908152602001600020548860ff1660016000613ca6565b600084815260068e016020526040902055611ecf565b856001600160a01b0316826001600160a01b0316141580611e565750848114155b15611e7457604051631d0507df60e21b815260040160405180910390fd5b8b6005016000611e858c8c8b6138a9565b815260200190815260200160002060009055611ebd8c6006016000858152602001908152602001600020548860ff1660006001613ca6565b600084815260068e0160205260409020555b604080516001600160a01b03808d1682526001600160401b038c1660208301529181018a905260ff89166060820152908716608082015260a0810186905284151560c08201523360e08201527fc6cb8c2a2f03a3e6a43771211e58b1343cb739d7404d4130a938138f0fe24f149061010001611327565b606061086c8460030160006115578686612d5e565b611f6482612ac0565b506000611f7982600001518360200151612d5e565b90506000611f908584600001518560200151612790565b60008381526020879052604081206080860151929350918190611fcf576000858152600289016020908152604080832060038c01909252909120611fed565b6000858152600389016020908152604080832060028c019092529091205b9150915060008660400151516001600160401b0381111561201057612010614ddb565b604051908082528060200260200182016040528015612039578160200160208202803683370190505b50905060005b87604001515181101561211c57600088604001518281518110612064576120646155a6565b602002602001015190508060030b6000146121135760008960600151156120af57612090868484612e12565b5082905061209e8885613227565b6120a891906156fb565b90506120df565b6120c4836120bc84615583565b889190612e12565b508290506120d28885613227565b6120dc9190615722565b90505b6120ea878483613d4f565b808484815181106120fd576120fd6155a6565b602002602001019060030b908160030b81525050505b5060010161203f565b5061213588858585898c60000151878e60400151612e64565b61214189878688612ed2565b86516020808901516060808b01516080808d0151604080516001600160a01b0390981688529587019490945290151585850152911515908401523390830152517ffce07ece8fe77b8dd7f25ce471bb0c4b9bc4a78340b4bfa97827af2307b142409181900360a00190a1505050505050505050565b60006121c186613e26565b5060006121ce8686612d5e565b60608401516040850151602086015186519394506005936121ef91906156fb565b6121f991906156fb565b61220391906156fb565b60030b14612224576040516342fa645360e11b815260040160405180910390fd5b6000612231898888612790565b9050606363ffffffff16816000015163ffffffff16106122645760405163094b8de560e31b815260040160405180910390fd5b806020015163ffffffff16612282826000015163ffffffff166119d3565b63ffffffff1611156122a7576040516311c7bf1f60e31b815260040160405180910390fd5b8051816122b382615749565b63ffffffff16905250600082815260018a0160205260408120546122d6906131ad565b90508460000151816000815181106122f0576122f06155a6565b6020026020010181815161230491906156fb565b60030b9052506020850151815182906001908110612324576123246155a6565b6020026020010181815161233891906156fb565b60030b9052506040850151815182906002908110612358576123586155a6565b6020026020010181815161236c91906156fb565b600390810b90915260608701518351909250839190811061238f5761238f6155a6565b602002602001018181516123a391906156fb565b60030b9052506123b281613eb8565b8a600101600085815260200190815260200160002081905550506000896000016000848152602001908152602001600020905060008a6002016000858152602001908152602001600020905060008b6003016000868152602001908152602001600020905061243d8b848484888f8d600001516000602b8111156124385761243861556d565b613f32565b61245e8b848484888f8d602001516001602b8111156124385761243861556d565b61247f8b848484888f8d604001516002602b8111156124385761243861556d565b6124a08b848484888f8d606001516003602b8111156124385761243861556d565b506124b890506124b06009611ab3565b60030b613f68565b63ffffffff1660408301526124d06124b0600a611ab3565b63ffffffff16606083018190528251602084015160408501516080860151612502948f948994909390929091906139e9565b7f084f827316fe91358fc5d55a0d078803e03592c8f0be5630e6b51b5feb08d7f088888888604051612537949392919061576c565b60405180910390a1505163ffffffff1698975050505050505050565b61255c85612ac0565b5060006125698585612d5e565b90506000612578888787612790565b6040810151606082015160808301519293509091851561266157600085815260208c905260408120906125ab6009611ab3565b905060006125ba83600a613227565b905060006125cb60165b8590613227565b90508a60200151886020018181516125e3919061569d565b63ffffffff169052506126166125fc600385900b613f68565b60408d015161260b908a61569d565b63ffffffff16613f97565b96506126366126278360030b613f68565b60608d015161260b908961569d565b95506126566126478260030b613f68565b60808d015161260b908861569d565b945050505050612718565b602087015163ffffffff161561268a5760405163ca9cdbef60e01b815260040160405180910390fd5b866040015163ffffffff168363ffffffff16116126a85760006126b7565b60408701516126b79084615680565b9250866080015163ffffffff168163ffffffff16116126d75760006126e6565b60808701516126e69082615680565b9050866060015163ffffffff168263ffffffff1611612706576000612715565b60608701516127159083615680565b91505b61272f8b86866000015187602001518787876139e9565b7ff92789f80d24dd48838ae6569cf1fe54ca007b75af463e061bd4732677002b2b8989898933604051612766959493929190615797565b60405180910390a15050505050505050505050565b606061086c8460020160006115578686612d5e565b612798614954565b60006127c18560040160006127ad8787612d5e565b815260200190815260200160002054613fad565b90506040518060a00160405280826000815181106127e1576127e16155a6565b602002602001015163ffffffff16815260200182600181518110612807576128076155a6565b602002602001015163ffffffff1681526020018260028151811061282d5761282d6155a6565b602002602001015163ffffffff16815260200182600381518110612853576128536155a6565b602002602001015163ffffffff16815260200182600481518110612879576128796155a6565b602002602001015163ffffffff168152509150509392505050565b60006128a1848484612790565b6080015163ffffffff161515949350505050565b606060006128e08560060160006128cc8787612d5e565b815260200190815260200160002054614022565b9050600081516001600160401b038111156128fd576128fd614ddb565b604051908082528060200260200182016040528015612926578160200160208202803683370190505b5090506000805b835160ff168160ff16101561299e57838160ff1681518110612951576129516155a6565b602002602001015160ff166000146129965780838381518110612976576129766155a6565b60ff9092166020928302919091019091015281612992816157da565b9250505b60010161292d565b506000816001600160401b038111156129b9576129b9614ddb565b6040519080825280602002602001820160405280156129e2578160200160208202803683370190505b50905060005b82811015612a3657838181518110612a0257612a026155a6565b6020026020010151828281518110612a1c57612a1c6155a6565b60ff909216602092830291909101909101526001016129e8565b50979650505050505050565b60006001600160401b03831115612a6f57604051633995b34160e01b815260048101849052602401610b6c565b506001600160a01b039290921660a09190911b67ffffffffffffffff60a01b161760e09190911b6001600160e01b0319161790565b6000808080612ab38686614093565b9097909650945050505050565b6000803390506000836001600160a01b031663016dff5d6040518163ffffffff1660e01b8152600401602060405180830381865afa158015612b06573d6000803e3d6000fd5b505050506040513d601f19601f82011682018060405250810190612b2a91906152f0565b9050816001600160a01b0316816001600160a01b031614158015612bc15750816001600160a01b0316846001600160a01b03166331423c266040518163ffffffff1660e01b8152600401602060405180830381865afa158015612b91573d6000803e3d6000fd5b505050506040513d601f19601f82011682018060405250810190612bb591906152f0565b6001600160a01b031614155b8015612c405750816001600160a01b0316846001600160a01b031663683fedf76040518163ffffffff1660e01b8152600401602060405180830381865afa158015612c10573d6000803e3d6000fd5b505050506040513d601f19601f82011682018060405250810190612c3491906152f0565b6001600160a01b031614155b8015612cbf5750816001600160a01b0316846001600160a01b031663524a562f6040518163ffffffff1660e01b8152600401602060405180830381865afa158015612c8f573d6000803e3d6000fd5b505050506040513d601f19601f82011682018060405250810190612cb391906152f0565b6001600160a01b031614155b8015612d3e5750816001600160a01b0316846001600160a01b03166389dd9f136040518163ffffffff1660e01b8152600401602060405180830381865afa158015612d0e573d6000803e3d6000fd5b505050506040513d601f19601f82011682018060405250810190612d3291906152f0565b6001600160a01b031614155b15610888578160405163f652640360e01b8152600401610b6c919061502a565b60006001600160401b03821115612d8b57604051633995b34160e01b815260048101839052602401610b6c565b5067ffffffffffffffff60a01b60a09190911b166001600160a01b039091161790565b8151600090612dbe6008846156e7565b10612dcb5750600061069c565b612dd66008836157f3565b612de19060206156ba565b83612ded6008856156e7565b81518110612dfd57612dfd6155a6565b602002602001015160001c901c905092915050565b6000806000612e218686613227565b60030b905060008460030b8260030b612e3a9190615807565b9350839050612e4d600383900b8261582f565b9250612e5a878786613d4f565b5050935093915050565b805160005b81811015612ec657828181518110612e8357612e836155a6565b602002602001015160030b600014612ebe57612ebe8a8a8a8a8a868b8b8981518110612eb157612eb16155a6565b60200260200101516140cd565b600101612e69565b50505050505050505050565b6000612ee16124b060096125c4565b90506000612ef36124b085600a613227565b90506000836040015163ffffffff16831015612f2c57612f1d83856040015163ffffffff16613f97565b63ffffffff1660408501525060015b836060015163ffffffff16821015612f6157612f5282856060015163ffffffff16613f97565b63ffffffff1660608501525060015b801561093557610935878786600001518760200151886040015189606001518a608001516139e9565b600061086c8484846142e5565b612f9f614302565b612fbc57604051631afcd79f60e31b815260040160405180910390fd5b565b6001600160a01b0381166130065760405162461bcd60e51b815260206004820152600f60248201526e2d32b9379031b7b73a3937b63632b960891b6044820152606401610b6c565b61303581610bbd60017f5165972ef41194f06c5007493031d0b927c20741adcb74403b954009fd2c3618615323565b61306442610bbd60017f6f55f470bdc9cb5f04223fd822021061668e4dccb43e8727b295106dc9769c8b615323565b61309343610bbd60017f812a673dfca07956350df10f8a654925f561d7a0da09bdbe79e653939a14d9f1615323565b604080516001600160a01b0383168152426020820152438183015290517f1a2dd071001ebf6e03174e3df5b305795a4ad5d41d8fdb9ba41dbbe2367134269181900360600190a150565b60606000826001600160401b038111156130f9576130f9614ddb565b604051908082528060200260200182016040528015613122578160200160208202803683370190505b50905060005b84518110156131a55760005b600881101561319c5760008161314b8460086156ba565b6131559190615336565b9050858110613164575061319c565b61316e8782612dae565b848281518110613180576131806155a6565b60039290920b6020928302919091019091015250600101613134565b50600101613128565b509392505050565b604080516008808252610120820190925260609160009190602082016101008036833701905050905060005b6008811015613220576131ed8160206156ba565b8460001c901c828281518110613205576132056155a6565b60039290920b602092830291909101909101526001016131d9565b5092915050565b81546000906132376008846156e7565b106132445750600061069c565b61324f6008836157f3565b61325a9060206156ba565b836132666008856156e7565b81548110613276576132766155a6565b600091825260209091200154901c9392505050565b6132936148cd565b60405180608001604052806040518060800160405280600f60030b8152602001600f60030b8152602001601e60030b8152602001600a60030b81525081526020016040518060e0016040528067016345785d8a000081526020016702c68af0bb1400008152602001671bc16d674ec800008152602001671bc16d674ec80000815260200167016345785d8a000081526020016714d1120d7b16000081526020016706f05b59d3b2000081525081526020016040518060400160405280671bc16d674ec800008152602001670de0b6b3a76400008152508152602001600560030b815250905090565b6133836148cd565b600061338d61431c565b6040805161010081018252601e60808201908152600560a0830152601960c0830152600a60e0808401919091529082528251908101909252670214e8348c4f00008252919250602080830191908101846133ef576706f05b59d3b200006133f9565b6703782dace9d900005b6001600160401b031681526020018461341a576729a2241af62c0000613424565b671bc16d674ec800005b6001600160401b03168152602001670de0b6b3a7640000815260200167011c37937e080000815260200167120a871cc002000081526020016706f05b59d3b20000815250815260200160405180604001604052806718fae27693b400008152602001670de0b6b3a76400008152508152602001600560030b81525091505090565b6134ad6148cd565b60405180608001604052806040518060800160405280600a60030b8152602001600f60030b8152602001601460030b8152602001601960030b81525081526020016040518060e0016040528067016345785d8a000081526020016702c68af0bb1400008152602001671bc16d674ec800008152602001670de0b6b3a7640000815260200167016345785d8a00008152602001670de0b6b3a76400008152602001671bc16d674ec800008152508152602001604051806040016040528067120a871cc00200008152602001671bc16d674ec800008152508152602001600560030b815250905090565b61359d6148cd565b60405180608001604052806040518060800160405280600f60030b8152602001601960030b8152602001600f60030b8152602001600f60030b81525081526020016040518060e0016040528067016345785d8a000081526020016702c68af0bb1400008152602001673782dace9d90000081526020016729a2241af62c000081526020016702c68af0bb14000081526020016710a741a4627800008152602001670de0b6b3a7640000815250815260200160405180604001604052806717979cfe362a000081526020016714d1120d7b1600008152508152602001600560030b815250905090565b61368d6148cd565b60405180608001604052806040518060800160405280601460030b8152602001601460030b8152602001601460030b8152602001600a60030b81525081526020016040518060e00160405280670214e8348c4f000081526020016703782dace9d9000081526020016729a2241af62c000081526020016722b1c8c1227a00008152602001670214e8348c4f000081526020016714d1120d7b16000081526020016714d1120d7b160000815250815260200160405180604001604052806714d1120d7b16000081526020016714d1120d7b1600008152508152602001600160030b815250905090565b61377d6148cd565b60405180608001604052806040518060800160405280603260030b8152602001601e60030b8152602001603260030b8152602001600f60030b81525081526020016040518060e001604052806702c68af0bb1400008152602001670429d069189e00008152602001674563918244f4000081526020016729a2241af62c00008152602001670214e8348c4f00008152602001671bc16d674ec800008152602001671bc16d674ec80000815250815260200160405180604001604052806717979cfe362a000081526020016714d1120d7b1600008152508152602001600160030b815250905090565b6000610888836001600160a01b038416614332565b600061069c8261437c565b6000808080612ab38686614387565b6000610888836001600160a01b0384166143b2565b60609290921b6001600160601b03191660209190911b6bffffffffffffffff00000000161760189190911b63ff000000161790565b6000670de0b6b3a764000082101561390c57604051637046c4a960e01b815260048101839052602401610b6c565b6000613928613923670de0b6b3a7640000856156e7565b6143ca565b9050600061393e82670de0b6b3a76400006156ba565b905083821c670de0b6b3a764000081900361395b57509392505050565b6706f05b59d3b200005b80156139b557670de0b6b3a764000061397e83806156ba565b61398891906156e7565b9150671bc16d674ec8000082106139ad576139a38184615336565b9250600182901c91505b60011c613965565b5090949350505050565b60008160030b8360030b126139e0576139d88284615722565b60030b610888565b50600092915050565b63ffffffff811615801590613a02575063ffffffff8316155b15613a0c57600192505b60408051600580825260c082019092526000916020820160a0803683370190505090508581600081518110613a4357613a436155a6565b602002602001019063ffffffff16908163ffffffff16815250508481600181518110613a7157613a716155a6565b602002602001019063ffffffff16908163ffffffff16815250508381600281518110613a9f57613a9f6155a6565b602002602001019063ffffffff16908163ffffffff16815250508281600381518110613acd57613acd6155a6565b602002602001019063ffffffff16908163ffffffff16815250508181600481518110613afb57613afb6155a6565b602002602001019063ffffffff16908163ffffffff1681525050613b1e816144a9565b60009788526004909801602052505060409094209490945550505050565b600061069c825490565b60006108888383614523565b6000610888836001600160a01b03841661454d565b336001600160a01b0316816001600160a01b03166331423c266040518163ffffffff1660e01b8152600401602060405180830381865afa158015613baf573d6000803e3d6000fd5b505050506040513d601f19601f82011682018060405250810190613bd391906152f0565b6001600160a01b031614610db5573360405163f6b9c4d960e01b8152600401610b6c919061502a565b6000821580613c09575081155b15613c165750600061069c565b60058311613c27575080821461069c565b60068303613c46576007821480613c3f575060085b82145b905061069c565b60088303613c55576006613c3c565b60098303613c64576009613c3c565b60078303613c7357600a613c3c565b600a8303613c8257600b613c3c565b600b83036139e057600c821480613c995750600d82145b80613c3f5750600e613c3c565b600080613cb286614022565b90508260ff16818681518110613cca57613cca6155a6565b602002602001015160ff1614613d1f578260ff16818681518110613cf057613cf06155a6565b602002602001015160ff1660405163c230690360e01b8152600401610b6c929190918252602082015260400190565b83818681518110613d3257613d326155a6565b602002602001019060ff16908160ff16815250506110a781614640565b6000613d5c6008846156e7565b90506000613d6b6008856157f3565b613d769060206156ba565b8554909150808310613dc257855460018101875560008781526020812090910155805b83811015613dc0578654600181810189556000898152602081209092019190915501613d99565b505b818463ffffffff1663ffffffff16901b8263ffffffff901b19878581548110613ded57613ded6155a6565b906000526020600020015460001c161760001b868481548110613e1257613e126155a6565b600091825260209091200155505050505050565b600080826001600160a01b031663016dff5d6040518163ffffffff1660e01b8152600401602060405180830381865afa158015613e67573d6000803e3d6000fd5b505050506040513d601f19601f82011682018060405250810190613e8b91906152f0565b90506001600160a01b038116331461069c57336040516303f2374960e01b8152600401610b6c919061502a565b80516000906008811115613ee957604051633d71388b60e21b81526004810182905260086024820152604401610b6c565b6000805b828110156131a557613f008160206156ba565b858281518110613f1257613f126155a6565b602090810291909101015163ffffffff16901b9190911790600101613eed565b8160030b600014611b4b576000613f4a888385612e12565b509050613f5d8989898989878a886140cd565b505050505050505050565b6000808260030b1215613f7d57506000919050565b60008260030b13613f9057506000919050565b5060030b90565b6000818310613fa65781610888565b5090919050565b604080516008808252610120820190925260609160009190602082016101008036833701905050905060005b600881101561322057613fed8160206156ba565b8460001c901c828281518110614005576140056155a6565b63ffffffff90921660209283029190910190910152600101613fd9565b6040805160208082526104208201909252606091600091908082016104008036833701905050905060005b6020811015613220576140618160086156ba565b8460001c901c828281518110614079576140796155a6565b60ff9092166020928302919091019091015260010161404d565b60008181526002830160205260408120548190806140c2576140b585856146b7565b9250600091506109ff9050565b6001925090506109ff565b6000886001600160a01b031663016dff5d6040518163ffffffff1660e01b8152600401602060405180830381865afa15801561410d573d6000803e3d6000fd5b505050506040513d601f19601f8201168201806040525081019061413191906152f0565b6001600160a01b0316631789b7b1846040518263ffffffff1660e01b815260040161415c919061502a565b602060405180830381865afa158015614179573d6000803e3d6000fd5b505050506040513d601f19601f8201168201806040525081019061419d9190615550565b60ff16905083614214576141ec60046141b960045b8990613227565b6141c660045b8b90613227565b6141d086866146c3565b6141da91906156fb565b6141e491906156fb565b8a9190613d4f565b61420f60056141fb60056141b2565b61420560056141bf565b6141d086866146fd565b613f5d565b600184036142855761423f600661422b60066141b2565b61423560066141bf565b6141d08686614725565b614262600761424e60076141b2565b61425860076141bf565b6141d0868661474d565b61420f600861427160086141b2565b61427b60086141bf565b6141d08686614775565b600284036142b55761420f600961429c60096141b2565b6142a660096141bf565b6141d086868b600001516147bb565b60038403613f5d57613f5d600a6142cc600a6141b2565b6142d6600a6141bf565b6141d086868b60000151614832565b6000828152600284016020526040812082905561086c848461488e565b600061430c61148f565b54600160401b900460ff16919050565b60006201b254461480610a3a5750504660fa1490565b600061433e83836143b2565b6143745750815460018181018455600084815260208082209093018490558454848252828601909352604090209190915561069c565b50600061069c565b600061069c82613b3c565b600080806143958585613b46565b600081815260029690960160205260409095205494959350505050565b60009081526001919091016020526040902054151590565b6000600160801b82106143ea57608091821c916143e79082615336565b90505b600160401b821061440857604091821c916144059082615336565b90505b640100000000821061442757602091821c916144249082615336565b90505b62010000821061444457601091821c916144419082615336565b90505b610100821061446057600891821c9161445d9082615336565b90505b6010821061447b57600491821c916144789082615336565b90505b6004821061449657600291821c916144939082615336565b90505b6002821061173d5761069c600182615336565b805160009060088111156144da57604051633d71388b60e21b81526004810182905260086024820152604401610b6c565b6000805b828110156131a5576144f18160206156ba565b858281518110614503576145036155a6565b602090810291909101015163ffffffff16901b91909117906001016144de565b600082600001828154811061453a5761453a6155a6565b9060005260206000200154905092915050565b60008181526001830160205260408120548015614636576000614571600183615323565b855490915060009061458590600190615323565b90508082146145ea5760008660000182815481106145a5576145a56155a6565b90600052602060002001549050808760000184815481106145c8576145c86155a6565b6000918252602080832090910192909255918252600188019052604090208390555b85548690806145fb576145fb61584f565b60019003818190600052602060002001600090559055856001016000868152602001908152602001600020600090556001935050505061069c565b600091505061069c565b8051600090602081111561467157604051633d71388b60e21b81526004810182905260206024820152604401610b6c565b6000805b828110156131a5576146888160086156ba565b85828151811061469a5761469a6155a6565b602090810291909101015160ff16901b9190911790600101614675565b6000610888838361489a565b6000670de0b6b3a76400006146d7836116b9565b60200151516146e9600386900b613f68565b6146f391906156ba565b61088891906156e7565b6000670de0b6b3a7640000614711836116b9565b60200151602001516146e98560030b613f68565b6000670de0b6b3a7640000614739836116b9565b60200151604001516146e98560030b613f68565b6000670de0b6b3a7640000614761836116b9565b60200151606001516146e98560030b613f68565b6000610888670de0b6b3a764000061478c846116b9565b60200151608001516147a08660030b613f68565b6147aa91906156ba565b6147b491906156e7565b604b613f97565b6000670de0b6b3a76400006147cf846116b9565b60400151516147e49063ffffffff85166156ba565b6147ee91906156e7565b670de0b6b3a7640000614800856116b9565b6020015160a001516148148760030b613f68565b61481e91906156ba565b61482891906156e7565b61086c9190615336565b6000670de0b6b3a7640000614846846116b9565b604001516020015161485e9063ffffffff85166156ba565b61486891906156e7565b670de0b6b3a764000061487a856116b9565b6020015160c001516148148760030b613f68565b60006108888383614332565b600061088883836143b2565b60408051608081018252600080825260208201819052918101829052606081019190915290565b60405180608001604052806148e06148a6565b81526020016149256040518060e00160405280600081526020016000815260200160008152602001600081526020016000815260200160008152602001600081525090565b8152602001614947604051806040016040528060008152602001600081525090565b8152600060209091015290565b6040805160a08101825260008082526020820181905291810182905260608101829052608081019190915290565b5080546000825590600052602060002090810190610db591905b808211156149b0576000815560010161499c565b5090565b6001600160a01b0381168114610db557600080fd5b60ff81168114610db557600080fd5b600080600080608085870312156149ee57600080fd5b84356149f9816149b4565b935060208501359250604085013591506060850135614a17816149c9565b939692955090935050565b600060208284031215614a3457600080fd5b5035919050565b60008060408385031215614a4e57600080fd5b50508035926020909101359150565b60008060408385031215614a7057600080fd5b8235614a7b816149b4565b946020939093013593505050565b60008060008060808587031215614a9f57600080fd5b8435614aaa816149b4565b966020860135965060408601359560600135945092505050565b600060208284031215614ad657600080fd5b8135610888816149b4565b600080600060608486031215614af657600080fd5b8335614b01816149b4565b95602085013595506040909401359392505050565b60008151808452602080850194506020840160005b83811015614b4a57815160030b87529582019590820190600101614b2b565b509495945050505050565b6020815260006108886020830184614b16565b805160030b8252602081015160030b6020830152604081015160030b6040830152606081015160030b60608301525050565b6080810161069c8284614b68565b60006101c082019050614bbc828451614b68565b602083015180516080840152602081015160a0840152604081015160c0840152606081015160e0840152608081015161010084015260a081015161012084015260c0810151610140840152506040830151614c2561016084018280518252602090810151910152565b5060608301516132206101a084018260030b9052565b600080600060608486031215614c5057600080fd5b8335614c5b816149b4565b9250602084013591506040840135614c72816149b4565b809150509250925092565b604080825283519082018190526000906020906060840190828701845b82811015614cb657815184529284019290840190600101614c9a565b5050508381038285015284518082528583019183019060005b81811015614ceb57835183529284019291840191600101614ccf565b5090979650505050505050565b80356001600160401b038116811461173d57600080fd5b600080600060608486031215614d2457600080fd5b8335614d2f816149b4565b9250614d3d60208501614cf8565b91506040840135614c72816149c9565b803563ffffffff8116811461173d57600080fd5b600060208284031215614d7357600080fd5b61088882614d4d565b600060208284031215614d8e57600080fd5b81356001600160401b03811115614da457600080fd5b820160a0818503121561088857600080fd5b604081526000614dc96040830185614b16565b90508260030b60208301529392505050565b634e487b7160e01b600052604160045260246000fd5b60405160a081016001600160401b0381118282101715614e1357614e13614ddb565b60405290565b604051601f8201601f191681016001600160401b0381118282101715614e4157614e41614ddb565b604052919050565b60006001600160401b03821115614e6257614e62614ddb565b5060051b60200190565b8060030b8114610db557600080fd5b600082601f830112614e8c57600080fd5b81356020614ea1614e9c83614e49565b614e19565b8083825260208201915060208460051b870101935086841115614ec357600080fd5b602086015b84811015614ee8578035614edb81614e6c565b8352918301918301614ec8565b509695505050505050565b600080600060608486031215614f0857600080fd5b8335614f13816149b4565b92506020840135915060408401356001600160401b03811115614f3557600080fd5b614f4186828701614e7b565b9150509250925092565b8015158114610db557600080fd5b600080600080600080600060e0888a031215614f7457600080fd5b8735614f7f816149b4565b9650614f8d60208901614cf8565b9550604088013594506060880135614fa4816149c9565b93506080880135614fb4816149b4565b925060a0880135915060c0880135614fcb81614f4b565b8091505092959891949750929550565b60006020808352835180602085015260005b8181101561500957858101830151858201604001528201614fed565b506000604082860101526040601f19601f8301168501019250505092915050565b6001600160a01b0391909116815260200190565b60006020828403121561505057600080fd5b81356001600160401b038082111561506757600080fd5b9083019060a0828603121561507b57600080fd5b615083614df1565b823561508e816149b4565b8152602083810135908201526040830135828111156150ac57600080fd5b6150b887828601614e7b565b604083015250606083013591506150ce82614f4b565b816060820152608083013592506150e483614f4b565b6080810192909252509392505050565b60008060008084860360e081121561510b57600080fd5b8535615116816149b4565b945060208601359350604086013592506080605f198201121561513857600080fd5b50604051608081018181106001600160401b038211171561515b5761515b614ddb565b604052606086013561516c81614e6c565b8152608086013561517c81614e6c565b602082015260a086013561518f81614e6c565b604082015260c08601356151a281614e6c565b6060820152939692955090935050565b6000806000808486036101008112156151ca57600080fd5b85356151d5816149b4565b94506020860135935060a0603f19820112156151f057600080fd5b506151f9614df1565b61520560408701614d4d565b815261521360608701614d4d565b602082015261522460808701614d4d565b604082015261523560a08701614d4d565b606082015261524660c08701614d4d565b6080820152915060e0850135614a1781614f4b565b63ffffffff808251168352806020830151166020840152806040830151166040840152806060830151166060840152806080830151166080840152505050565b60a0810161069c828461525b565b6020808252825182820181905260009190848201906040850190845b818110156152e457835160ff16835292840192918401916001016152c5565b50909695505050505050565b60006020828403121561530257600080fd5b8151610888816149b4565b634e487b7160e01b600052601160045260246000fd5b8181038181111561069c5761069c61530d565b8082018082111561069c5761069c61530d565b6000808335601e1984360301811261536057600080fd5b83016020810192503590506001600160401b0381111561537f57600080fd5b8060051b36038213156109ff57600080fd5b81835260006001600160fb1b038311156153aa57600080fd5b8260051b80836020870137939093016020019392505050565b8381526000602060018060a01b03808616602085015260606040850152610100840185356153f0816149b4565b821660608601526020860135608086015263ffffffff61541260408801614d4d565b1660a08601526154256060870187615349565b60a060c0880152918290529060009061012087015b8183101561546357833561544d816149b4565b851681529285019260019290920191850161543a565b61547060808a018a615349565b898303605f190160e08b01529650945061548b818787615391565b9b9a5050505050505050505050565b805161173d81614e6c565b600080604083850312156154b857600080fd5b82516001600160401b038111156154ce57600080fd5b8301601f810185136154df57600080fd5b805160206154ef614e9c83614e49565b82815260059290921b8301810191818101908884111561550e57600080fd5b938201935b8385101561553557845161552681614e6c565b82529382019390820190615513565b9550615544905086820161549a565b93505050509250929050565b60006020828403121561556257600080fd5b8151610888816149c9565b634e487b7160e01b600052602160045260246000fd5b60008160030b637fffffff19810361559d5761559d61530d565b60000392915050565b634e487b7160e01b600052603260045260246000fd5b6001600160a01b0393841681526020810192909252909116604082015260600190565b6001600160a01b03929092168252602082015260400190565b600060a0828403121561560a57600080fd5b615612614df1565b825161561d816149c9565b8152602083015161562d816149c9565b6020820152604083015161564081614f4b565b6040820152606083015168ffffffffffffffffff8116811461566157600080fd5b60608201526080830151615674816149b4565b60808201529392505050565b63ffffffff8281168282160390808211156132205761322061530d565b63ffffffff8181168382160190808211156132205761322061530d565b808202811582820484141761069c5761069c61530d565b634e487b7160e01b600052601260045260246000fd5b6000826156f6576156f66156d1565b500490565b600381810b9083900b01637fffffff8113637fffffff198212171561069c5761069c61530d565b600382810b9082900b03637fffffff198112637fffffff8213171561069c5761069c61530d565b600063ffffffff8083168181036157625761576261530d565b6001019392505050565b6001600160a01b0385168152602081018490526040810183905260e081016106706060830184614b68565b6001600160a01b038681168252602082018690526101208201906157be604084018761525b565b84151560e0840152808416610100840152509695505050505050565b6000600182016157ec576157ec61530d565b5060010190565b600082615802576158026156d1565b500690565b80820182811260008312801582168215821617156158275761582761530d565b505092915050565b81810360008312801583831316838312821617156132205761322061530d565b634e487b7160e01b600052603160045260246000fdfe22573091f17911fb166032a3d9e0554aa73d31b7b7ddea4a4dd2995650af84bda2646970667358221220e05eb8c2a876da899b6a3abc2378afb4c1069a8df7ad9ee43071ac608836c6ee64736f6c63430008170033",
  "deployedBytecode": "0x608060405234801561001057600080fd5b50600436106102295760003560e01c806357e9ee7b11610131578063af6a5722116100b3578063af6a572214610508578063afb1a9ed1461051b578063b429afeb1461052e578063c756abc214610541578063cf53669014610554578063d4ac484814610567578063dee1f0e414610587578063f16a30661461059a578063f77c4791146105ad578063fbed9ac5146105b5578063ffa1ad74146105d557600080fd5b806357e9ee7b146104145780635d015a9a146104355780636bad2ebd146104485780637527a8c01461045b5780637ac46f971461046e5780637cc9638014610481578063906f0ced14610489578063936725ec1461049c57806395e34c34146104cd5780639d0bcca0146104e05780639ff45dbe146104f557600080fd5b806320a7d299116101ba57806320a7d2991461031b578063236715f014610341578063271d229e14610361578063297835fd14610374578063325a19f11461039557806333237c091461039d5780633a658951146103b05780633bdb788b146103d35780633e4d93f6146103e65780634593144c146103f95780634fac6ccd1461040157600080fd5b80630959f7611461022e5780630a82c861146102545780630f82ecaf1461026757806314e4105a1461027c578063184f61431461028f57806319ab453c146102a25780631c2aafe7146102b55780631f051fa0146102c85780631f74d4b2146102e8578063205a119914610308575b600080fd5b61024161023c3660046149d8565b6105f9565b6040519081526020015b60405180910390f35b610241610262366004614a22565b610679565b61027a610275366004614a3b565b6106a2565b005b61027a61028a366004614a5d565b6106c0565b61027a61029d366004614a89565b6106da565b61027a6102b0366004614ac4565b6106fc565b6102416102c3366004614ae1565b6107f6565b6102db6102d6366004614a5d565b610874565b60405161024b9190614b55565b6102fb6102f6366004614a5d565b61088f565b60405161024b9190614b9a565b61027a610316366004614ae1565b6108a9565b61032e610329366004614ae1565b61093e565b60405160039190910b815260200161024b565b61035461034f366004614a22565b610953565b60405161024b9190614ba8565b61027a61036f366004614c3b565b610964565b610387610382366004614a5d565b610984565b60405161024b929190614c7d565b610241610a06565b61027a6103ab366004614ae1565b610a3f565b6103c36103be366004614c3b565b610ab2565b604051901515815260200161024b565b6102416103e1366004614d0f565b610ac7565b6102416103f4366004614d61565b610adc565b610241610af3565b61027a61040f366004614ac4565b610b23565b610427610422366004614d7c565b610c34565b60405161024b929190614db6565b61027a610443366004614ef3565b610ccf565b610241610456366004614a5d565b610cea565b610241610469366004614d61565b610cf6565b61027a61047c366004614a5d565b610d01565b610241610d1b565b61027a610497366004614f59565b610d39565b6104c0604051806040016040528060058152602001640312e302e360dc1b81525081565b60405161024b9190614fdb565b6102db6104db366004614a5d565b610d58565b6104e8610d6c565b60405161024b919061502a565b61027a61050336600461503e565b610d9c565b6102416105163660046150f4565b610db8565b61027a6105293660046151b2565b610dd6565b6103c361053c366004614ac4565b610df2565b61027a61054f366004614a5d565b610e17565b6102db610562366004614a5d565b610eaa565b61057a610575366004614a5d565b610ebe565b60405161024b919061529b565b6103c3610595366004614ac4565b610ed8565b6103c36105a8366004614a5d565b610f5d565b6104e8610f71565b6105c86105c3366004614a5d565b610fa1565b60405161024b91906152a9565b6104c060405180604001604052806005815260200164191718971960d91b81525081565b6000610670610606610f71565b6001600160a01b031663016dff5d6040518163ffffffff1660e01b8152600401602060405180830381865afa158015610643573d6000803e3d6000fd5b505050506040513d601f19601f8201168201806040525081019061066791906152f0565b86868686610fb5565b95945050505050565b600061069c6106866110b1565b6000848152600991909101602052604090205490565b92915050565b6106bc6106ad6110b1565b6106b5610f71565b84846110d5565b5050565b6106bc6106cb6110b1565b6106d3610f71565b8484611132565b6106f66106e56110b1565b6106ed610f71565b8686868661133d565b50505050565b600061070661148f565b805490915060ff600160401b82041615906001600160401b031660008115801561072d5750825b90506000826001600160401b031660011480156107495750303b155b905081158015610757575080155b156107755760405163f92ee8a960e01b815260040160405180910390fd5b845467ffffffffffffffff19166001178555831561079f57845460ff60401b1916600160401b1785555b6107a8866114b3565b83156107ee57845460ff60401b19168555604051600181527fc7f505b2f371ae2175ee4913f4499e1f2633a7b5936321eed1cdaeb6115181d29060200160405180910390a15b505050505050565b600061086c610803610f71565b6001600160a01b031663016dff5d6040518163ffffffff1660e01b8152600401602060405180830381865afa158015610840573d6000803e3d6000fd5b505050506040513d601f19601f8201168201806040525081019061086491906152f0565b8585856114c4565b949350505050565b60606108886108816110b1565b8484611545565b9392505050565b6108976148a6565b6108886108a26110b1565b84846115c2565b73__$42d9812720fe747317ed55ee6334dd4718$__63089aa40d6108cb610f71565b6040516001600160e01b031960e084901b1681526001600160a01b039182166004820152908616602482015260448101859052606481018490526084015b60006040518083038186803b15801561092157600080fd5b505af4158015610935573d6000803e3d6000fd5b50505050505050565b600061086c61094b6110b1565b858585611694565b61095b6148cd565b61069c826116b9565b61097f61096f6110b1565b610977610f71565b858585611742565b505050565b6060806109fa610992610f71565b6001600160a01b031663016dff5d6040518163ffffffff1660e01b8152600401602060405180830381865afa1580156109cf573d6000803e3d6000fd5b505050506040513d601f19601f820116820180604052508101906109f391906152f0565b85856117dc565b915091505b9250929050565b6000610a3a610a3660017f6f55f470bdc9cb5f04223fd822021061668e4dccb43e8727b295106dc9769c8b615323565b5490565b905090565b73__$42d9812720fe747317ed55ee6334dd4718$__630c2bd671610a616110b1565b610a69610f71565b6040516001600160e01b031960e085901b16815260048101929092526001600160a01b03908116602483015286166044820152606481018590526084810184905260a401610909565b600061086c610abf6110b1565b858585611975565b600061086c610ad46110b1565b8585856119a7565b6000610ae7826119d3565b63ffffffff1692915050565b6000610a3a610a3660017f812a673dfca07956350df10f8a654925f561d7a0da09bdbe79e653939a14d9f1615323565b333014610b755760405162461bcd60e51b815260206004820152601b60248201527a24b731b932b0b9b2903932bb34b9b4b7b7103337b93134b23232b760291b60448201526064015b60405180910390fd5b6000610b93610a366001600080516020615866833981519152615323565b610b9e906001615336565b9050610bc081610bbd6001600080516020615866833981519152615323565b55565b610bef82610bbd60017fbfaaa2fb63266ff27c2da975f5894955056f50419af651a81f6c5060581857e4615323565b604080518281526001600160a01b03841660208201527ff27e2ef832a4eb8ed8ec553b875eecd44764cda95b1c24170e281539e0a869c8910160405180910390a15050565b6060600073__$42d9812720fe747317ed55ee6334dd4718$__63bc361372610c5a6110b1565b610c62610f71565b866040518463ffffffff1660e01b8152600401610c81939291906153c3565b600060405180830381865af4158015610c9e573d6000803e3d6000fd5b505050506040513d6000823e601f3d908101601f19168201604052610cc691908101906154a5565b91509150915091565b61097f610cda6110b1565b610ce2610f71565b858585611a74565b60006108888383611b55565b600061069c82611b5e565b6106bc610d0c6110b1565b610d14610f71565b8484611bc9565b6000610a3a610a366001600080516020615866833981519152615323565b610935610d446110b1565b610d4c610f71565b89898989898989611c86565b6060610888610d656110b1565b8484611f46565b6000610a3a610a3660017fbfaaa2fb63266ff27c2da975f5894955056f50419af651a81f6c5060581857e4615323565b610db5610da76110b1565b610daf610f71565b83611f5b565b50565b6000610670610dc56110b1565b610dcd610f71565b878787876121b6565b6106f6610de16110b1565b610de9610f71565b86868686612553565b6000610dfc610f71565b6001600160a01b0316826001600160a01b0316149050919050565b73__$42d9812720fe747317ed55ee6334dd4718$__6324642164610e396110b1565b610e41610f71565b6040516001600160e01b031960e085901b16815260048101929092526001600160a01b039081166024830152851660448201526064810184905260840160006040518083038186803b158015610e9657600080fd5b505af41580156107ee573d6000803e3d6000fd5b6060610888610eb76110b1565b848461277b565b610ec6614954565b610888610ed16110b1565b8484612790565b6000816001600160a01b0316610eec610f71565b6001600160a01b0316635aa6e6756040518163ffffffff1660e01b8152600401602060405180830381865afa158015610f29573d6000803e3d6000fd5b505050506040513d601f19601f82011682018060405250810190610f4d91906152f0565b6001600160a01b03161492915050565b6000610888610f6a6110b1565b8484612894565b6000610a3a610a3660017f5165972ef41194f06c5007493031d0b927c20741adcb74403b954009fd2c3618615323565b6060610888610fae6110b1565b84846128b5565b6000694845524f5f434c41535360b01b830361104257604051631789b7b160e01b81526001600160a01b03871690631789b7b190610ff790889060040161502a565b602060405180830381865afa158015611014573d6000803e3d6000fd5b505050506040513d601f19601f820116820180604052508101906110389190615550565b60ff169050610670565b600061107f846110506110b1565b600a0160006110638a8a8960ff16612a42565b8152602001908152602001600020612aa490919063ffffffff16565b915050644b41524d4160d81b84148015611097575080155b156110a7576103e8915050610670565b9695505050505050565b7fca9e8235a410bd2656fc43f888ab589425034944963c2881072ee821e700e60090565b6110de83612ac0565b50600082815260098501602090815260409182902083905581518481529081018390527feacbaeebfddf6fe98883b2aebd3ab60c079050480c8e910625719e1f1c949fb2910160405180910390a150505050565b61113b83612ac0565b5060006111488383612d5e565b60008181526003870160209081526040808320805482518185028101850190935280835294955092939092918301828280156111a357602002820191906000526020600020905b81548152602001906001019080831161118f575b5050505050905060006111b7878686612790565b600084815260028901602090815260408083208b83528184208251602b80825261058082019094529596509094909392909190820161056080368337505060408051602b80825261058082019092529293506000929150602082016105608036833701905050905060005b602b8110156112ae5760006112378883612dae565b9050600381900b156112a5576112588261125083615583565b879190612e12565b5084838151811061126b5761126b6155a6565b602002602001018160030b60030b8152505080838381518110611290576112906155a6565b602002602001019060030b908160030b815250505b50600101611222565b50600087815260038c01602052604081206112c891614982565b600087815260038c01602052604090206112e88b8587848a8f8989612e64565b6112f48c898689612ed2565b7fe4463ace42a449d7bf063bb8fa11b72c776ab039ad1e72d287d73e47c8de0d218a8a33604051611327939291906155bc565b60405180910390a1505050505050505050505050565b600061134886612ac0565b90506000816001600160a01b031663bcd418b087876040518363ffffffff1660e01b815260040161137a9291906155df565b60a060405180830381865afa158015611397573d6000803e3d6000fd5b505050506040513d601f19601f820116820180604052508101906113bb91906155f8565b602001519050644b41524d4160d81b841480156113d6575082155b156113f457604051633757c0e960e21b815260040160405180910390fd5b61142a84848a600a01600061140d8b8b8860ff16612a42565b8152602001908152602001600020612f8a9092919063ffffffff16565b50604080516001600160a01b0388168152602081018790529081018590526060810184905260ff821660808201527f8af92dbc104a8f5c91bb1ce162c9bb05b14354b888ff1d97cd8c09ebee4925999060a00160405180910390a15050505050505050565b7ff0c57e16840df040f15088dc2f81fe391c3923bec73e23a9662efc9c229c6a0090565b6114bb612f97565b610db581612fbe565b600061067085858585896001600160a01b031663bcd418b08a8a6040518363ffffffff1660e01b81526004016114fb9291906155df565b60a060405180830381865afa158015611518573d6000803e3d6000fd5b505050506040513d601f19601f8201168201806040525081019061153c91906155f8565b60200151610fb5565b606061086c8460006115578686612d5e565b81526020019081526020016000208054806020026020016040519081016040528092919081815260200182805480156115af57602002820191906000526020600020905b81548152602001906001019080831161159b575b50602b93506115bd92505050565b6130dd565b6115ca6148a6565b60006115f38560010160006115df8787612d5e565b8152602001908152602001600020546131ad565b9050604051806080016040528082600081518110611613576116136155a6565b602002602001015160030b815260200182600181518110611636576116366155a6565b602002602001015160030b815260200182600281518110611659576116596155a6565b602002602001015160030b81526020018260038151811061167c5761167c6155a6565b602002602001015160030b8152509150509392505050565b600061067085826116a58787612d5e565b815260200190815260200160002083613227565b6116c16148cd565b816001036116d15761069c61328b565b816002036116e15761069c61337b565b816003036116f15761069c6134a5565b816004036117015761069c613595565b816005036117115761069c613685565b816006036117215761069c613775565b604051635613365f60e11b815260048101839052602401610b6c565b919050565b61174b84612ac0565b5061177c818660070160006117608787612d5e565b815260200190815260200160002061386590919063ffffffff16565b61179a578060405162f5d9b360e21b8152600401610b6c919061502a565b7fc6a0e07638c51d1c81ce988c90724173ebe207b85cd9b4563e34460940623e3d8383836040516117cd939291906155bc565b60405180910390a15050505050565b60608060006117e96110b1565b600a01600061186e87878a6001600160a01b031663bcd418b08b8b6040518363ffffffff1660e01b81526004016118219291906155df565b60a060405180830381865afa15801561183e573d6000803e3d6000fd5b505050506040513d601f19601f8201168201806040525081019061186291906155f8565b6020015160ff16612a42565b8152602001908152602001600020905060006118898261387a565b9050806001600160401b038111156118a3576118a3614ddb565b6040519080825280602002602001820160405280156118cc578160200160208202803683370190505b509350806001600160401b038111156118e7576118e7614ddb565b604051908082528060200260200182016040528015611910578160200160208202803683370190505b50925060005b8181101561196a576119288382613885565b86838151811061193a5761193a6155a6565b60200260200101868481518110611953576119536155a6565b602090810291909101019190915252600101611916565b505050935093915050565b60006106708286600701600061198b8888612d5e565b815260200190815260200160002061389490919063ffffffff16565b60008460050160006119ba8686866138a9565b8152602001908152602001600020549050949350505050565b600063ffffffff821615806119ef5750606363ffffffff831610155b156119fc57506000919050565b670de0b6b3a7640000611a3b611a13846063615680565b611a1e90600261569d565b611a369063ffffffff16670de0b6b3a76400006156ba565b6138de565b611a4d90675cfb2e807b1e0000615323565b611a60620186a063ffffffff86166156ba565b611a6a91906156ba565b61069c91906156e7565b611a7d84612ac0565b506000611a8b868585612790565b90506000611a998585612d5e565b6000818152602089905260409020909150611adb611aba60095b8390613227565b8560095b81518110611ace57611ace6155a6565b60200260200101516139bf565b83604001818151611aec919061569d565b63ffffffff16905250611b0a611b02600a611ab3565b85600a611abe565b83606001818151611b1b919061569d565b63ffffffff1690525082516020840151604085015160608601516080870151611b4b948d948894919390926139e9565b5050505050505050565b6000602b610888565b600063ffffffff82161580611b7a5750606363ffffffff831610155b15611b8757506000919050565b63ffffffff8216600114611bc057611ba8611ba3600184615680565b6119d3565b611bb1836119d3565b611bbb9190615680565b610ae7565b610ae7826119d3565b611bd283612ac0565b506000846007016000611be58585612d5e565b815260200190815260200160002090506000611c0082613b3c565b905060005b81811015610935576000611c198482613b46565b9050611c258482613b52565b611c4257604051630cd274c160e41b815260040160405180910390fd5b7f990d1d901983cf7739aa5466bcf829c3a1266cd06d92c460cc8bea285cddc800868683604051611c75939291906155bc565b60405180910390a150600101611c05565b611c8f88613b67565b611c9c858560ff16613bfc565b611cc5576040516329c8542d60e11b81526004810186905260ff85166024820152604401610b6c565b600b8460ff1603611d1c576000611cdf8a898960096119a7565b141580611cf957506000611cf68a8989600a6119a7565b14155b15611d1c5760405163160400f960e01b815260ff85166004820152602401610b6c565b60098460ff161480611d315750600a8460ff16145b15611d68576000611d458a8989600b6119a7565b14611d685760405163160400f960e01b815260ff85166004820152602401610b6c565b6000611d7d88886001600160401b0316612d5e565b9050600080611d9a611d918d8c8c8b6119a7565b9060a082901c90565b915091508315611e35576001600160a01b03821615611dcc57604051637101e8f760e11b815260040160405180910390fd5b611dd68686612d5e565b8c6005016000611de78d8d8c6138a9565b815260200190815260200160002081905550611e1f8c6006016000858152602001908152602001600020548860ff1660016000613ca6565b600084815260068e016020526040902055611ecf565b856001600160a01b0316826001600160a01b0316141580611e565750848114155b15611e7457604051631d0507df60e21b815260040160405180910390fd5b8b6005016000611e858c8c8b6138a9565b815260200190815260200160002060009055611ebd8c6006016000858152602001908152602001600020548860ff1660006001613ca6565b600084815260068e0160205260409020555b604080516001600160a01b03808d1682526001600160401b038c1660208301529181018a905260ff89166060820152908716608082015260a0810186905284151560c08201523360e08201527fc6cb8c2a2f03a3e6a43771211e58b1343cb739d7404d4130a938138f0fe24f149061010001611327565b606061086c8460030160006115578686612d5e565b611f6482612ac0565b506000611f7982600001518360200151612d5e565b90506000611f908584600001518560200151612790565b60008381526020879052604081206080860151929350918190611fcf576000858152600289016020908152604080832060038c01909252909120611fed565b6000858152600389016020908152604080832060028c019092529091205b9150915060008660400151516001600160401b0381111561201057612010614ddb565b604051908082528060200260200182016040528015612039578160200160208202803683370190505b50905060005b87604001515181101561211c57600088604001518281518110612064576120646155a6565b602002602001015190508060030b6000146121135760008960600151156120af57612090868484612e12565b5082905061209e8885613227565b6120a891906156fb565b90506120df565b6120c4836120bc84615583565b889190612e12565b508290506120d28885613227565b6120dc9190615722565b90505b6120ea878483613d4f565b808484815181106120fd576120fd6155a6565b602002602001019060030b908160030b81525050505b5060010161203f565b5061213588858585898c60000151878e60400151612e64565b61214189878688612ed2565b86516020808901516060808b01516080808d0151604080516001600160a01b0390981688529587019490945290151585850152911515908401523390830152517ffce07ece8fe77b8dd7f25ce471bb0c4b9bc4a78340b4bfa97827af2307b142409181900360a00190a1505050505050505050565b60006121c186613e26565b5060006121ce8686612d5e565b60608401516040850151602086015186519394506005936121ef91906156fb565b6121f991906156fb565b61220391906156fb565b60030b14612224576040516342fa645360e11b815260040160405180910390fd5b6000612231898888612790565b9050606363ffffffff16816000015163ffffffff16106122645760405163094b8de560e31b815260040160405180910390fd5b806020015163ffffffff16612282826000015163ffffffff166119d3565b63ffffffff1611156122a7576040516311c7bf1f60e31b815260040160405180910390fd5b8051816122b382615749565b63ffffffff16905250600082815260018a0160205260408120546122d6906131ad565b90508460000151816000815181106122f0576122f06155a6565b6020026020010181815161230491906156fb565b60030b9052506020850151815182906001908110612324576123246155a6565b6020026020010181815161233891906156fb565b60030b9052506040850151815182906002908110612358576123586155a6565b6020026020010181815161236c91906156fb565b600390810b90915260608701518351909250839190811061238f5761238f6155a6565b602002602001018181516123a391906156fb565b60030b9052506123b281613eb8565b8a600101600085815260200190815260200160002081905550506000896000016000848152602001908152602001600020905060008a6002016000858152602001908152602001600020905060008b6003016000868152602001908152602001600020905061243d8b848484888f8d600001516000602b8111156124385761243861556d565b613f32565b61245e8b848484888f8d602001516001602b8111156124385761243861556d565b61247f8b848484888f8d604001516002602b8111156124385761243861556d565b6124a08b848484888f8d606001516003602b8111156124385761243861556d565b506124b890506124b06009611ab3565b60030b613f68565b63ffffffff1660408301526124d06124b0600a611ab3565b63ffffffff16606083018190528251602084015160408501516080860151612502948f948994909390929091906139e9565b7f084f827316fe91358fc5d55a0d078803e03592c8f0be5630e6b51b5feb08d7f088888888604051612537949392919061576c565b60405180910390a1505163ffffffff1698975050505050505050565b61255c85612ac0565b5060006125698585612d5e565b90506000612578888787612790565b6040810151606082015160808301519293509091851561266157600085815260208c905260408120906125ab6009611ab3565b905060006125ba83600a613227565b905060006125cb60165b8590613227565b90508a60200151886020018181516125e3919061569d565b63ffffffff169052506126166125fc600385900b613f68565b60408d015161260b908a61569d565b63ffffffff16613f97565b96506126366126278360030b613f68565b60608d015161260b908961569d565b95506126566126478260030b613f68565b60808d015161260b908861569d565b945050505050612718565b602087015163ffffffff161561268a5760405163ca9cdbef60e01b815260040160405180910390fd5b866040015163ffffffff168363ffffffff16116126a85760006126b7565b60408701516126b79084615680565b9250866080015163ffffffff168163ffffffff16116126d75760006126e6565b60808701516126e69082615680565b9050866060015163ffffffff168263ffffffff1611612706576000612715565b60608701516127159083615680565b91505b61272f8b86866000015187602001518787876139e9565b7ff92789f80d24dd48838ae6569cf1fe54ca007b75af463e061bd4732677002b2b8989898933604051612766959493929190615797565b60405180910390a15050505050505050505050565b606061086c8460020160006115578686612d5e565b612798614954565b60006127c18560040160006127ad8787612d5e565b815260200190815260200160002054613fad565b90506040518060a00160405280826000815181106127e1576127e16155a6565b602002602001015163ffffffff16815260200182600181518110612807576128076155a6565b602002602001015163ffffffff1681526020018260028151811061282d5761282d6155a6565b602002602001015163ffffffff16815260200182600381518110612853576128536155a6565b602002602001015163ffffffff16815260200182600481518110612879576128796155a6565b602002602001015163ffffffff168152509150509392505050565b60006128a1848484612790565b6080015163ffffffff161515949350505050565b606060006128e08560060160006128cc8787612d5e565b815260200190815260200160002054614022565b9050600081516001600160401b038111156128fd576128fd614ddb565b604051908082528060200260200182016040528015612926578160200160208202803683370190505b5090506000805b835160ff168160ff16101561299e57838160ff1681518110612951576129516155a6565b602002602001015160ff166000146129965780838381518110612976576129766155a6565b60ff9092166020928302919091019091015281612992816157da565b9250505b60010161292d565b506000816001600160401b038111156129b9576129b9614ddb565b6040519080825280602002602001820160405280156129e2578160200160208202803683370190505b50905060005b82811015612a3657838181518110612a0257612a026155a6565b6020026020010151828281518110612a1c57612a1c6155a6565b60ff909216602092830291909101909101526001016129e8565b50979650505050505050565b60006001600160401b03831115612a6f57604051633995b34160e01b815260048101849052602401610b6c565b506001600160a01b039290921660a09190911b67ffffffffffffffff60a01b161760e09190911b6001600160e01b0319161790565b6000808080612ab38686614093565b9097909650945050505050565b6000803390506000836001600160a01b031663016dff5d6040518163ffffffff1660e01b8152600401602060405180830381865afa158015612b06573d6000803e3d6000fd5b505050506040513d601f19601f82011682018060405250810190612b2a91906152f0565b9050816001600160a01b0316816001600160a01b031614158015612bc15750816001600160a01b0316846001600160a01b03166331423c266040518163ffffffff1660e01b8152600401602060405180830381865afa158015612b91573d6000803e3d6000fd5b505050506040513d601f19601f82011682018060405250810190612bb591906152f0565b6001600160a01b031614155b8015612c405750816001600160a01b0316846001600160a01b031663683fedf76040518163ffffffff1660e01b8152600401602060405180830381865afa158015612c10573d6000803e3d6000fd5b505050506040513d601f19601f82011682018060405250810190612c3491906152f0565b6001600160a01b031614155b8015612cbf5750816001600160a01b0316846001600160a01b031663524a562f6040518163ffffffff1660e01b8152600401602060405180830381865afa158015612c8f573d6000803e3d6000fd5b505050506040513d601f19601f82011682018060405250810190612cb391906152f0565b6001600160a01b031614155b8015612d3e5750816001600160a01b0316846001600160a01b03166389dd9f136040518163ffffffff1660e01b8152600401602060405180830381865afa158015612d0e573d6000803e3d6000fd5b505050506040513d601f19601f82011682018060405250810190612d3291906152f0565b6001600160a01b031614155b15610888578160405163f652640360e01b8152600401610b6c919061502a565b60006001600160401b03821115612d8b57604051633995b34160e01b815260048101839052602401610b6c565b5067ffffffffffffffff60a01b60a09190911b166001600160a01b039091161790565b8151600090612dbe6008846156e7565b10612dcb5750600061069c565b612dd66008836157f3565b612de19060206156ba565b83612ded6008856156e7565b81518110612dfd57612dfd6155a6565b602002602001015160001c901c905092915050565b6000806000612e218686613227565b60030b905060008460030b8260030b612e3a9190615807565b9350839050612e4d600383900b8261582f565b9250612e5a878786613d4f565b5050935093915050565b805160005b81811015612ec657828181518110612e8357612e836155a6565b602002602001015160030b600014612ebe57612ebe8a8a8a8a8a868b8b8981518110612eb157612eb16155a6565b60200260200101516140cd565b600101612e69565b50505050505050505050565b6000612ee16124b060096125c4565b90506000612ef36124b085600a613227565b90506000836040015163ffffffff16831015612f2c57612f1d83856040015163ffffffff16613f97565b63ffffffff1660408501525060015b836060015163ffffffff16821015612f6157612f5282856060015163ffffffff16613f97565b63ffffffff1660608501525060015b801561093557610935878786600001518760200151886040015189606001518a608001516139e9565b600061086c8484846142e5565b612f9f614302565b612fbc57604051631afcd79f60e31b815260040160405180910390fd5b565b6001600160a01b0381166130065760405162461bcd60e51b815260206004820152600f60248201526e2d32b9379031b7b73a3937b63632b960891b6044820152606401610b6c565b61303581610bbd60017f5165972ef41194f06c5007493031d0b927c20741adcb74403b954009fd2c3618615323565b61306442610bbd60017f6f55f470bdc9cb5f04223fd822021061668e4dccb43e8727b295106dc9769c8b615323565b61309343610bbd60017f812a673dfca07956350df10f8a654925f561d7a0da09bdbe79e653939a14d9f1615323565b604080516001600160a01b0383168152426020820152438183015290517f1a2dd071001ebf6e03174e3df5b305795a4ad5d41d8fdb9ba41dbbe2367134269181900360600190a150565b60606000826001600160401b038111156130f9576130f9614ddb565b604051908082528060200260200182016040528015613122578160200160208202803683370190505b50905060005b84518110156131a55760005b600881101561319c5760008161314b8460086156ba565b6131559190615336565b9050858110613164575061319c565b61316e8782612dae565b848281518110613180576131806155a6565b60039290920b6020928302919091019091015250600101613134565b50600101613128565b509392505050565b604080516008808252610120820190925260609160009190602082016101008036833701905050905060005b6008811015613220576131ed8160206156ba565b8460001c901c828281518110613205576132056155a6565b60039290920b602092830291909101909101526001016131d9565b5092915050565b81546000906132376008846156e7565b106132445750600061069c565b61324f6008836157f3565b61325a9060206156ba565b836132666008856156e7565b81548110613276576132766155a6565b600091825260209091200154901c9392505050565b6132936148cd565b60405180608001604052806040518060800160405280600f60030b8152602001600f60030b8152602001601e60030b8152602001600a60030b81525081526020016040518060e0016040528067016345785d8a000081526020016702c68af0bb1400008152602001671bc16d674ec800008152602001671bc16d674ec80000815260200167016345785d8a000081526020016714d1120d7b16000081526020016706f05b59d3b2000081525081526020016040518060400160405280671bc16d674ec800008152602001670de0b6b3a76400008152508152602001600560030b815250905090565b6133836148cd565b600061338d61431c565b6040805161010081018252601e60808201908152600560a0830152601960c0830152600a60e0808401919091529082528251908101909252670214e8348c4f00008252919250602080830191908101846133ef576706f05b59d3b200006133f9565b6703782dace9d900005b6001600160401b031681526020018461341a576729a2241af62c0000613424565b671bc16d674ec800005b6001600160401b03168152602001670de0b6b3a7640000815260200167011c37937e080000815260200167120a871cc002000081526020016706f05b59d3b20000815250815260200160405180604001604052806718fae27693b400008152602001670de0b6b3a76400008152508152602001600560030b81525091505090565b6134ad6148cd565b60405180608001604052806040518060800160405280600a60030b8152602001600f60030b8152602001601460030b8152602001601960030b81525081526020016040518060e0016040528067016345785d8a000081526020016702c68af0bb1400008152602001671bc16d674ec800008152602001670de0b6b3a7640000815260200167016345785d8a00008152602001670de0b6b3a76400008152602001671bc16d674ec800008152508152602001604051806040016040528067120a871cc00200008152602001671bc16d674ec800008152508152602001600560030b815250905090565b61359d6148cd565b60405180608001604052806040518060800160405280600f60030b8152602001601960030b8152602001600f60030b8152602001600f60030b81525081526020016040518060e0016040528067016345785d8a000081526020016702c68af0bb1400008152602001673782dace9d90000081526020016729a2241af62c000081526020016702c68af0bb14000081526020016710a741a4627800008152602001670de0b6b3a7640000815250815260200160405180604001604052806717979cfe362a000081526020016714d1120d7b1600008152508152602001600560030b815250905090565b61368d6148cd565b60405180608001604052806040518060800160405280601460030b8152602001601460030b8152602001601460030b8152602001600a60030b81525081526020016040518060e00160405280670214e8348c4f000081526020016703782dace9d9000081526020016729a2241af62c000081526020016722b1c8c1227a00008152602001670214e8348c4f000081526020016714d1120d7b16000081526020016714d1120d7b160000815250815260200160405180604001604052806714d1120d7b16000081526020016714d1120d7b1600008152508152602001600160030b815250905090565b61377d6148cd565b60405180608001604052806040518060800160405280603260030b8152602001601e60030b8152602001603260030b8152602001600f60030b81525081526020016040518060e001604052806702c68af0bb1400008152602001670429d069189e00008152602001674563918244f4000081526020016729a2241af62c00008152602001670214e8348c4f00008152602001671bc16d674ec800008152602001671bc16d674ec80000815250815260200160405180604001604052806717979cfe362a000081526020016714d1120d7b1600008152508152602001600160030b815250905090565b6000610888836001600160a01b038416614332565b600061069c8261437c565b6000808080612ab38686614387565b6000610888836001600160a01b0384166143b2565b60609290921b6001600160601b03191660209190911b6bffffffffffffffff00000000161760189190911b63ff000000161790565b6000670de0b6b3a764000082101561390c57604051637046c4a960e01b815260048101839052602401610b6c565b6000613928613923670de0b6b3a7640000856156e7565b6143ca565b9050600061393e82670de0b6b3a76400006156ba565b905083821c670de0b6b3a764000081900361395b57509392505050565b6706f05b59d3b200005b80156139b557670de0b6b3a764000061397e83806156ba565b61398891906156e7565b9150671bc16d674ec8000082106139ad576139a38184615336565b9250600182901c91505b60011c613965565b5090949350505050565b60008160030b8360030b126139e0576139d88284615722565b60030b610888565b50600092915050565b63ffffffff811615801590613a02575063ffffffff8316155b15613a0c57600192505b60408051600580825260c082019092526000916020820160a0803683370190505090508581600081518110613a4357613a436155a6565b602002602001019063ffffffff16908163ffffffff16815250508481600181518110613a7157613a716155a6565b602002602001019063ffffffff16908163ffffffff16815250508381600281518110613a9f57613a9f6155a6565b602002602001019063ffffffff16908163ffffffff16815250508281600381518110613acd57613acd6155a6565b602002602001019063ffffffff16908163ffffffff16815250508181600481518110613afb57613afb6155a6565b602002602001019063ffffffff16908163ffffffff1681525050613b1e816144a9565b60009788526004909801602052505060409094209490945550505050565b600061069c825490565b60006108888383614523565b6000610888836001600160a01b03841661454d565b336001600160a01b0316816001600160a01b03166331423c266040518163ffffffff1660e01b8152600401602060405180830381865afa158015613baf573d6000803e3d6000fd5b505050506040513d601f19601f82011682018060405250810190613bd391906152f0565b6001600160a01b031614610db5573360405163f6b9c4d960e01b8152600401610b6c919061502a565b6000821580613c09575081155b15613c165750600061069c565b60058311613c27575080821461069c565b60068303613c46576007821480613c3f575060085b82145b905061069c565b60088303613c55576006613c3c565b60098303613c64576009613c3c565b60078303613c7357600a613c3c565b600a8303613c8257600b613c3c565b600b83036139e057600c821480613c995750600d82145b80613c3f5750600e613c3c565b600080613cb286614022565b90508260ff16818681518110613cca57613cca6155a6565b602002602001015160ff1614613d1f578260ff16818681518110613cf057613cf06155a6565b602002602001015160ff1660405163c230690360e01b8152600401610b6c929190918252602082015260400190565b83818681518110613d3257613d326155a6565b602002602001019060ff16908160ff16815250506110a781614640565b6000613d5c6008846156e7565b90506000613d6b6008856157f3565b613d769060206156ba565b8554909150808310613dc257855460018101875560008781526020812090910155805b83811015613dc0578654600181810189556000898152602081209092019190915501613d99565b505b818463ffffffff1663ffffffff16901b8263ffffffff901b19878581548110613ded57613ded6155a6565b906000526020600020015460001c161760001b868481548110613e1257613e126155a6565b600091825260209091200155505050505050565b600080826001600160a01b031663016dff5d6040518163ffffffff1660e01b8152600401602060405180830381865afa158015613e67573d6000803e3d6000fd5b505050506040513d601f19601f82011682018060405250810190613e8b91906152f0565b90506001600160a01b038116331461069c57336040516303f2374960e01b8152600401610b6c919061502a565b80516000906008811115613ee957604051633d71388b60e21b81526004810182905260086024820152604401610b6c565b6000805b828110156131a557613f008160206156ba565b858281518110613f1257613f126155a6565b602090810291909101015163ffffffff16901b9190911790600101613eed565b8160030b600014611b4b576000613f4a888385612e12565b509050613f5d8989898989878a886140cd565b505050505050505050565b6000808260030b1215613f7d57506000919050565b60008260030b13613f9057506000919050565b5060030b90565b6000818310613fa65781610888565b5090919050565b604080516008808252610120820190925260609160009190602082016101008036833701905050905060005b600881101561322057613fed8160206156ba565b8460001c901c828281518110614005576140056155a6565b63ffffffff90921660209283029190910190910152600101613fd9565b6040805160208082526104208201909252606091600091908082016104008036833701905050905060005b6020811015613220576140618160086156ba565b8460001c901c828281518110614079576140796155a6565b60ff9092166020928302919091019091015260010161404d565b60008181526002830160205260408120548190806140c2576140b585856146b7565b9250600091506109ff9050565b6001925090506109ff565b6000886001600160a01b031663016dff5d6040518163ffffffff1660e01b8152600401602060405180830381865afa15801561410d573d6000803e3d6000fd5b505050506040513d601f19601f8201168201806040525081019061413191906152f0565b6001600160a01b0316631789b7b1846040518263ffffffff1660e01b815260040161415c919061502a565b602060405180830381865afa158015614179573d6000803e3d6000fd5b505050506040513d601f19601f8201168201806040525081019061419d9190615550565b60ff16905083614214576141ec60046141b960045b8990613227565b6141c660045b8b90613227565b6141d086866146c3565b6141da91906156fb565b6141e491906156fb565b8a9190613d4f565b61420f60056141fb60056141b2565b61420560056141bf565b6141d086866146fd565b613f5d565b600184036142855761423f600661422b60066141b2565b61423560066141bf565b6141d08686614725565b614262600761424e60076141b2565b61425860076141bf565b6141d0868661474d565b61420f600861427160086141b2565b61427b60086141bf565b6141d08686614775565b600284036142b55761420f600961429c60096141b2565b6142a660096141bf565b6141d086868b600001516147bb565b60038403613f5d57613f5d600a6142cc600a6141b2565b6142d6600a6141bf565b6141d086868b60000151614832565b6000828152600284016020526040812082905561086c848461488e565b600061430c61148f565b54600160401b900460ff16919050565b60006201b254461480610a3a5750504660fa1490565b600061433e83836143b2565b6143745750815460018181018455600084815260208082209093018490558454848252828601909352604090209190915561069c565b50600061069c565b600061069c82613b3c565b600080806143958585613b46565b600081815260029690960160205260409095205494959350505050565b60009081526001919091016020526040902054151590565b6000600160801b82106143ea57608091821c916143e79082615336565b90505b600160401b821061440857604091821c916144059082615336565b90505b640100000000821061442757602091821c916144249082615336565b90505b62010000821061444457601091821c916144419082615336565b90505b610100821061446057600891821c9161445d9082615336565b90505b6010821061447b57600491821c916144789082615336565b90505b6004821061449657600291821c916144939082615336565b90505b6002821061173d5761069c600182615336565b805160009060088111156144da57604051633d71388b60e21b81526004810182905260086024820152604401610b6c565b6000805b828110156131a5576144f18160206156ba565b858281518110614503576145036155a6565b602090810291909101015163ffffffff16901b91909117906001016144de565b600082600001828154811061453a5761453a6155a6565b9060005260206000200154905092915050565b60008181526001830160205260408120548015614636576000614571600183615323565b855490915060009061458590600190615323565b90508082146145ea5760008660000182815481106145a5576145a56155a6565b90600052602060002001549050808760000184815481106145c8576145c86155a6565b6000918252602080832090910192909255918252600188019052604090208390555b85548690806145fb576145fb61584f565b60019003818190600052602060002001600090559055856001016000868152602001908152602001600020600090556001935050505061069c565b600091505061069c565b8051600090602081111561467157604051633d71388b60e21b81526004810182905260206024820152604401610b6c565b6000805b828110156131a5576146888160086156ba565b85828151811061469a5761469a6155a6565b602090810291909101015160ff16901b9190911790600101614675565b6000610888838361489a565b6000670de0b6b3a76400006146d7836116b9565b60200151516146e9600386900b613f68565b6146f391906156ba565b61088891906156e7565b6000670de0b6b3a7640000614711836116b9565b60200151602001516146e98560030b613f68565b6000670de0b6b3a7640000614739836116b9565b60200151604001516146e98560030b613f68565b6000670de0b6b3a7640000614761836116b9565b60200151606001516146e98560030b613f68565b6000610888670de0b6b3a764000061478c846116b9565b60200151608001516147a08660030b613f68565b6147aa91906156ba565b6147b491906156e7565b604b613f97565b6000670de0b6b3a76400006147cf846116b9565b60400151516147e49063ffffffff85166156ba565b6147ee91906156e7565b670de0b6b3a7640000614800856116b9565b6020015160a001516148148760030b613f68565b61481e91906156ba565b61482891906156e7565b61086c9190615336565b6000670de0b6b3a7640000614846846116b9565b604001516020015161485e9063ffffffff85166156ba565b61486891906156e7565b670de0b6b3a764000061487a856116b9565b6020015160c001516148148760030b613f68565b60006108888383614332565b600061088883836143b2565b60408051608081018252600080825260208201819052918101829052606081019190915290565b60405180608001604052806148e06148a6565b81526020016149256040518060e00160405280600081526020016000815260200160008152602001600081526020016000815260200160008152602001600081525090565b8152602001614947604051806040016040528060008152602001600081525090565b8152600060209091015290565b6040805160a08101825260008082526020820181905291810182905260608101829052608081019190915290565b5080546000825590600052602060002090810190610db591905b808211156149b0576000815560010161499c565b5090565b6001600160a01b0381168114610db557600080fd5b60ff81168114610db557600080fd5b600080600080608085870312156149ee57600080fd5b84356149f9816149b4565b935060208501359250604085013591506060850135614a17816149c9565b939692955090935050565b600060208284031215614a3457600080fd5b5035919050565b60008060408385031215614a4e57600080fd5b50508035926020909101359150565b60008060408385031215614a7057600080fd5b8235614a7b816149b4565b946020939093013593505050565b60008060008060808587031215614a9f57600080fd5b8435614aaa816149b4565b966020860135965060408601359560600135945092505050565b600060208284031215614ad657600080fd5b8135610888816149b4565b600080600060608486031215614af657600080fd5b8335614b01816149b4565b95602085013595506040909401359392505050565b60008151808452602080850194506020840160005b83811015614b4a57815160030b87529582019590820190600101614b2b565b509495945050505050565b6020815260006108886020830184614b16565b805160030b8252602081015160030b6020830152604081015160030b6040830152606081015160030b60608301525050565b6080810161069c8284614b68565b60006101c082019050614bbc828451614b68565b602083015180516080840152602081015160a0840152604081015160c0840152606081015160e0840152608081015161010084015260a081015161012084015260c0810151610140840152506040830151614c2561016084018280518252602090810151910152565b5060608301516132206101a084018260030b9052565b600080600060608486031215614c5057600080fd5b8335614c5b816149b4565b9250602084013591506040840135614c72816149b4565b809150509250925092565b604080825283519082018190526000906020906060840190828701845b82811015614cb657815184529284019290840190600101614c9a565b5050508381038285015284518082528583019183019060005b81811015614ceb57835183529284019291840191600101614ccf565b5090979650505050505050565b80356001600160401b038116811461173d57600080fd5b600080600060608486031215614d2457600080fd5b8335614d2f816149b4565b9250614d3d60208501614cf8565b91506040840135614c72816149c9565b803563ffffffff8116811461173d57600080fd5b600060208284031215614d7357600080fd5b61088882614d4d565b600060208284031215614d8e57600080fd5b81356001600160401b03811115614da457600080fd5b820160a0818503121561088857600080fd5b604081526000614dc96040830185614b16565b90508260030b60208301529392505050565b634e487b7160e01b600052604160045260246000fd5b60405160a081016001600160401b0381118282101715614e1357614e13614ddb565b60405290565b604051601f8201601f191681016001600160401b0381118282101715614e4157614e41614ddb565b604052919050565b60006001600160401b03821115614e6257614e62614ddb565b5060051b60200190565b8060030b8114610db557600080fd5b600082601f830112614e8c57600080fd5b81356020614ea1614e9c83614e49565b614e19565b8083825260208201915060208460051b870101935086841115614ec357600080fd5b602086015b84811015614ee8578035614edb81614e6c565b8352918301918301614ec8565b509695505050505050565b600080600060608486031215614f0857600080fd5b8335614f13816149b4565b92506020840135915060408401356001600160401b03811115614f3557600080fd5b614f4186828701614e7b565b9150509250925092565b8015158114610db557600080fd5b600080600080600080600060e0888a031215614f7457600080fd5b8735614f7f816149b4565b9650614f8d60208901614cf8565b9550604088013594506060880135614fa4816149c9565b93506080880135614fb4816149b4565b925060a0880135915060c0880135614fcb81614f4b565b8091505092959891949750929550565b60006020808352835180602085015260005b8181101561500957858101830151858201604001528201614fed565b506000604082860101526040601f19601f8301168501019250505092915050565b6001600160a01b0391909116815260200190565b60006020828403121561505057600080fd5b81356001600160401b038082111561506757600080fd5b9083019060a0828603121561507b57600080fd5b615083614df1565b823561508e816149b4565b8152602083810135908201526040830135828111156150ac57600080fd5b6150b887828601614e7b565b604083015250606083013591506150ce82614f4b565b816060820152608083013592506150e483614f4b565b6080810192909252509392505050565b60008060008084860360e081121561510b57600080fd5b8535615116816149b4565b945060208601359350604086013592506080605f198201121561513857600080fd5b50604051608081018181106001600160401b038211171561515b5761515b614ddb565b604052606086013561516c81614e6c565b8152608086013561517c81614e6c565b602082015260a086013561518f81614e6c565b604082015260c08601356151a281614e6c565b6060820152939692955090935050565b6000806000808486036101008112156151ca57600080fd5b85356151d5816149b4565b94506020860135935060a0603f19820112156151f057600080fd5b506151f9614df1565b61520560408701614d4d565b815261521360608701614d4d565b602082015261522460808701614d4d565b604082015261523560a08701614d4d565b606082015261524660c08701614d4d565b6080820152915060e0850135614a1781614f4b565b63ffffffff808251168352806020830151166020840152806040830151166040840152806060830151166060840152806080830151166080840152505050565b60a0810161069c828461525b565b6020808252825182820181905260009190848201906040850190845b818110156152e457835160ff16835292840192918401916001016152c5565b50909695505050505050565b60006020828403121561530257600080fd5b8151610888816149b4565b634e487b7160e01b600052601160045260246000fd5b8181038181111561069c5761069c61530d565b8082018082111561069c5761069c61530d565b6000808335601e1984360301811261536057600080fd5b83016020810192503590506001600160401b0381111561537f57600080fd5b8060051b36038213156109ff57600080fd5b81835260006001600160fb1b038311156153aa57600080fd5b8260051b80836020870137939093016020019392505050565b8381526000602060018060a01b03808616602085015260606040850152610100840185356153f0816149b4565b821660608601526020860135608086015263ffffffff61541260408801614d4d565b1660a08601526154256060870187615349565b60a060c0880152918290529060009061012087015b8183101561546357833561544d816149b4565b851681529285019260019290920191850161543a565b61547060808a018a615349565b898303605f190160e08b01529650945061548b818787615391565b9b9a5050505050505050505050565b805161173d81614e6c565b600080604083850312156154b857600080fd5b82516001600160401b038111156154ce57600080fd5b8301601f810185136154df57600080fd5b805160206154ef614e9c83614e49565b82815260059290921b8301810191818101908884111561550e57600080fd5b938201935b8385101561553557845161552681614e6c565b82529382019390820190615513565b9550615544905086820161549a565b93505050509250929050565b60006020828403121561556257600080fd5b8151610888816149c9565b634e487b7160e01b600052602160045260246000fd5b60008160030b637fffffff19810361559d5761559d61530d565b60000392915050565b634e487b7160e01b600052603260045260246000fd5b6001600160a01b0393841681526020810192909252909116604082015260600190565b6001600160a01b03929092168252602082015260400190565b600060a0828403121561560a57600080fd5b615612614df1565b825161561d816149c9565b8152602083015161562d816149c9565b6020820152604083015161564081614f4b565b6040820152606083015168ffffffffffffffffff8116811461566157600080fd5b60608201526080830151615674816149b4565b60808201529392505050565b63ffffffff8281168282160390808211156132205761322061530d565b63ffffffff8181168382160190808211156132205761322061530d565b808202811582820484141761069c5761069c61530d565b634e487b7160e01b600052601260045260246000fd5b6000826156f6576156f66156d1565b500490565b600381810b9083900b01637fffffff8113637fffffff198212171561069c5761069c61530d565b600382810b9082900b03637fffffff198112637fffffff8213171561069c5761069c61530d565b600063ffffffff8083168181036157625761576261530d565b6001019392505050565b6001600160a01b0385168152602081018490526040810183905260e081016106706060830184614b68565b6001600160a01b038681168252602082018690526101208201906157be604084018761525b565b84151560e0840152808416610100840152509695505050505050565b6000600182016157ec576157ec61530d565b5060010190565b600082615802576158026156d1565b500690565b80820182811260008312801582168215821617156158275761582761530d565b505092915050565b81810360008312801583831316838312821617156132205761322061530d565b634e487b7160e01b600052603160045260246000fdfe22573091f17911fb166032a3d9e0554aa73d31b7b7ddea4a4dd2995650af84bda2646970667358221220e05eb8c2a876da899b6a3abc2378afb4c1069a8df7ad9ee43071ac608836c6ee64736f6c63430008170033",
  "libraries": {
    "StatControllerLib": "0xc9E4E643DEc0cDbb8B87e04F8117C962DdDF2f96"
  },
  "devdoc": {
    "errors": {
      "InvalidInitialization()": [
        {
          "details": "The contract is already initialized."
        }
      ],
      "NotInitializing()": [
        {
          "details": "The contract is not initializing."
        }
      ]
    },
    "events": {
      "Initialized(uint64)": {
        "details": "Triggered when the contract has been initialized or reinitialized."
      }
    },
    "kind": "dev",
    "methods": {
      "created()": {
        "returns": {
          "_0": "Creation timestamp"
        }
      },
      "createdBlock()": {
        "returns": {
          "_0": "Creation block number"
        }
      },
      "increaseRevision(address)": {
        "details": "Revision should be increased on each contract upgrade"
      },
      "isController(address)": {
        "details": "Return true if given address is controller"
      },
      "previousImplementation()": {
        "details": "Previous logic implementation"
      },
      "restoreLifeAndMana(address,uint256,int32[])": {
        "params": {
          "prevAttributes": "Hero attributes before reinforcement"
        }
      },
      "revision()": {
        "details": "Contract upgrade counter"
      }
    },
    "stateVariables": {
      "VERSION": {
        "details": "Should be incremented when contract changed"
      }
    },
    "version": 1
  },
  "userdoc": {
    "kind": "user",
    "methods": {
      "CONTROLLABLE_VERSION()": {
        "notice": "Version of the contract"
      },
      "VERSION()": {
        "notice": "Version of the contract"
      },
      "controller()": {
        "notice": "Return controller address saved in the contract slot"
      },
      "created()": {
        "notice": "Return creation timestamp"
      },
      "createdBlock()": {
        "notice": "Return creation block number"
      },
      "isGovernance(address)": {
        "notice": "Return true if given address is setup as governance in Controller"
      },
      "restoreLifeAndMana(address,uint256,int32[])": {
        "notice": "Restore life and mana during reinforcement"
      }
    },
    "version": 1
  },
  "storageLayout": {
    "storage": [],
    "types": null
  }
}