{
  "address": "0x6BD6979fe0345A9c02bF5Fa714003C428627F353",
  "abi": [
    {
      "inputs": [
        {
          "internalType": "uint16",
          "name": "pageId",
          "type": "uint16"
        },
        {
          "internalType": "uint16",
          "name": "pageIdFromAnswerHash",
          "type": "uint16"
        }
      ],
      "name": "AnswerPageIdMismatch",
      "type": "error"
    },
    {
      "inputs": [
        {
          "internalType": "uint16",
          "name": "storyId",
          "type": "uint16"
        },
        {
          "internalType": "uint16",
          "name": "storyIdFromAnswerHash",
          "type": "uint16"
        }
      ],
      "name": "AnswerStoryIdMismatch",
      "type": "error"
    },
    {
      "inputs": [
        {
          "internalType": "address",
          "name": "sender",
          "type": "address"
        }
      ],
      "name": "ErrorNotDeployer",
      "type": "error"
    },
    {
      "inputs": [
        {
          "internalType": "address",
          "name": "sender",
          "type": "address"
        }
      ],
      "name": "ErrorNotObjectController",
      "type": "error"
    },
    {
      "inputs": [],
      "name": "InvalidInitialization",
      "type": "error"
    },
    {
      "inputs": [],
      "name": "NotAnswer",
      "type": "error"
    },
    {
      "inputs": [],
      "name": "NotInitializing",
      "type": "error"
    },
    {
      "inputs": [],
      "name": "ZeroStoryIdStoryAction",
      "type": "error"
    },
    {
      "anonymous": false,
      "inputs": [
        {
          "indexed": false,
          "internalType": "address",
          "name": "controller",
          "type": "address"
        },
        {
          "indexed": false,
          "internalType": "uint256",
          "name": "ts",
          "type": "uint256"
        },
        {
          "indexed": false,
          "internalType": "uint256",
          "name": "block",
          "type": "uint256"
        }
      ],
      "name": "ContractInitialized",
      "type": "event"
    },
    {
      "anonymous": false,
      "inputs": [
        {
          "indexed": false,
          "internalType": "uint64",
          "name": "version",
          "type": "uint64"
        }
      ],
      "name": "Initialized",
      "type": "event"
    },
    {
      "anonymous": false,
      "inputs": [
        {
          "indexed": false,
          "internalType": "address",
          "name": "heroToken",
          "type": "address"
        },
        {
          "indexed": false,
          "internalType": "uint256",
          "name": "heroTokenId",
          "type": "uint256"
        },
        {
          "indexed": false,
          "internalType": "uint64",
          "name": "dungeonId",
          "type": "uint64"
        },
        {
          "indexed": false,
          "internalType": "uint256",
          "name": "objectId",
          "type": "uint256"
        },
        {
          "indexed": false,
          "internalType": "address",
          "name": "nftToken",
          "type": "address"
        },
        {
          "indexed": false,
          "internalType": "uint256",
          "name": "nftId",
          "type": "uint256"
        },
        {
          "indexed": false,
          "internalType": "uint256",
          "name": "stageId",
          "type": "uint256"
        },
        {
          "indexed": false,
          "internalType": "uint256",
          "name": "iteration",
          "type": "uint256"
        }
      ],
      "name": "ItemBurned",
      "type": "event"
    },
    {
      "anonymous": false,
      "inputs": [
        {
          "indexed": false,
          "internalType": "uint256",
          "name": "value",
          "type": "uint256"
        },
        {
          "indexed": false,
          "internalType": "address",
          "name": "oldLogic",
          "type": "address"
        }
      ],
      "name": "RevisionIncreased",
      "type": "event"
    },
    {
      "inputs": [],
      "name": "CONTROLLABLE_VERSION",
      "outputs": [
        {
          "internalType": "string",
          "name": "",
          "type": "string"
        }
      ],
      "stateMutability": "view",
      "type": "function"
    },
    {
      "inputs": [],
      "name": "VERSION",
      "outputs": [
        {
          "internalType": "string",
          "name": "",
          "type": "string"
        }
      ],
      "stateMutability": "view",
      "type": "function"
    },
    {
      "inputs": [
        {
          "internalType": "uint16",
          "name": "storyId",
          "type": "uint16"
        },
        {
          "internalType": "uint256",
          "name": "index",
          "type": "uint256"
        }
      ],
      "name": "allStoryAnswers",
      "outputs": [
        {
          "internalType": "bytes32",
          "name": "",
          "type": "bytes32"
        }
      ],
      "stateMutability": "view",
      "type": "function"
    },
    {
      "inputs": [
        {
          "internalType": "uint16",
          "name": "storyId",
          "type": "uint16"
        }
      ],
      "name": "allStoryAnswersLength",
      "outputs": [
        {
          "internalType": "uint256",
          "name": "",
          "type": "uint256"
        }
      ],
      "stateMutability": "view",
      "type": "function"
    },
    {
      "inputs": [
        {
          "internalType": "uint16",
          "name": "storyId",
          "type": "uint16"
        },
        {
          "internalType": "uint256",
          "name": "index",
          "type": "uint256"
        }
      ],
      "name": "allStoryPages",
      "outputs": [
        {
          "internalType": "uint256",
          "name": "",
          "type": "uint256"
        }
      ],
      "stateMutability": "view",
      "type": "function"
    },
    {
      "inputs": [
        {
          "internalType": "uint16",
          "name": "storyId",
          "type": "uint16"
        }
      ],
      "name": "allStoryPagesLength",
      "outputs": [
        {
          "internalType": "uint256",
          "name": "",
          "type": "uint256"
        }
      ],
      "stateMutability": "view",
      "type": "function"
    },
    {
      "inputs": [],
      "name": "controller",
      "outputs": [
        {
          "internalType": "address",
          "name": "",
          "type": "address"
        }
      ],
      "stateMutability": "view",
      "type": "function"
    },
    {
      "inputs": [],
      "name": "created",
      "outputs": [
        {
          "internalType": "uint256",
          "name": "",
          "type": "uint256"
        }
      ],
      "stateMutability": "view",
      "type": "function"
    },
    {
      "inputs": [],
      "name": "createdBlock",
      "outputs": [
        {
          "internalType": "uint256",
          "name": "",
          "type": "uint256"
        }
      ],
      "stateMutability": "view",
      "type": "function"
    },
    {
      "inputs": [
        {
          "internalType": "uint16",
          "name": "storyId",
          "type": "uint16"
        },
        {
          "internalType": "address",
          "name": "hero",
          "type": "address"
        },
        {
          "internalType": "uint80",
          "name": "heroId",
          "type": "uint80"
        }
      ],
      "name": "currentHeroAnswers",
      "outputs": [
        {
          "internalType": "bytes32[]",
          "name": "",
          "type": "bytes32[]"
        }
      ],
      "stateMutability": "view",
      "type": "function"
    },
    {
      "inputs": [
        {
          "internalType": "uint16",
          "name": "storyId",
          "type": "uint16"
        },
        {
          "internalType": "uint32",
          "name": "objectId",
          "type": "uint32"
        },
        {
          "internalType": "uint256",
          "name": "buildHash",
          "type": "uint256"
        }
      ],
      "name": "finalizeStoryRegistration",
      "outputs": [],
      "stateMutability": "nonpayable",
      "type": "function"
    },
    {
      "inputs": [
        {
          "internalType": "address",
          "name": "hero",
          "type": "address"
        },
        {
          "internalType": "uint80",
          "name": "heroId",
          "type": "uint80"
        },
        {
          "internalType": "uint16",
          "name": "storyId",
          "type": "uint16"
        }
      ],
      "name": "heroPage",
      "outputs": [
        {
          "internalType": "uint16",
          "name": "pageId",
          "type": "uint16"
        }
      ],
      "stateMutability": "view",
      "type": "function"
    },
    {
      "inputs": [
        {
          "internalType": "uint16",
          "name": "storyId",
          "type": "uint16"
        }
      ],
      "name": "idToStory",
      "outputs": [
        {
          "internalType": "uint32",
          "name": "",
          "type": "uint32"
        }
      ],
      "stateMutability": "view",
      "type": "function"
    },
    {
      "inputs": [
        {
          "internalType": "address",
          "name": "oldLogic",
          "type": "address"
        }
      ],
      "name": "increaseRevision",
      "outputs": [],
      "stateMutability": "nonpayable",
      "type": "function"
    },
    {
      "inputs": [
        {
          "internalType": "address",
          "name": "controller_",
          "type": "address"
        }
      ],
      "name": "init",
      "outputs": [],
      "stateMutability": "nonpayable",
      "type": "function"
    },
    {
      "inputs": [
        {
          "internalType": "address",
          "name": "value_",
          "type": "address"
        }
      ],
      "name": "isController",
      "outputs": [
        {
          "internalType": "bool",
          "name": "",
          "type": "bool"
        }
      ],
      "stateMutability": "view",
      "type": "function"
    },
    {
      "inputs": [
        {
          "internalType": "address",
          "name": "value_",
          "type": "address"
        }
      ],
      "name": "isGovernance",
      "outputs": [
        {
          "internalType": "bool",
          "name": "",
          "type": "bool"
        }
      ],
      "stateMutability": "view",
      "type": "function"
    },
    {
      "inputs": [
        {
          "internalType": "uint32",
          "name": "objectId",
          "type": "uint32"
        },
        {
          "internalType": "address",
          "name": "heroToken",
          "type": "address"
        },
        {
          "internalType": "uint256",
          "name": "heroTokenId",
          "type": "uint256"
        }
      ],
      "name": "isStoryAvailableForHero",
      "outputs": [
        {
          "internalType": "bool",
          "name": "",
          "type": "bool"
        }
      ],
      "stateMutability": "view",
      "type": "function"
    },
    {
      "inputs": [
        {
          "internalType": "address",
          "name": "",
          "type": "address"
        },
        {
          "internalType": "address",
          "name": "",
          "type": "address"
        },
        {
          "internalType": "uint256",
          "name": "",
          "type": "uint256"
        },
        {
          "internalType": "bytes",
          "name": "",
          "type": "bytes"
        }
      ],
      "name": "onERC721Received",
      "outputs": [
        {
          "internalType": "bytes4",
          "name": "",
          "type": "bytes4"
        }
      ],
      "stateMutability": "nonpayable",
      "type": "function"
    },
    {
      "inputs": [],
      "name": "previousImplementation",
      "outputs": [
        {
          "internalType": "address",
          "name": "",
          "type": "address"
        }
      ],
      "stateMutability": "view",
      "type": "function"
    },
    {
      "inputs": [
        {
          "internalType": "uint32",
          "name": "objectId",
          "type": "uint32"
        }
      ],
      "name": "registeredStories",
      "outputs": [
        {
          "internalType": "bool",
          "name": "",
          "type": "bool"
        }
      ],
      "stateMutability": "view",
      "type": "function"
    },
    {
      "inputs": [
        {
          "internalType": "uint32",
          "name": "objectId",
          "type": "uint32"
        }
      ],
      "name": "removeStory",
      "outputs": [],
      "stateMutability": "nonpayable",
      "type": "function"
    },
    {
      "inputs": [
        {
          "internalType": "uint16",
          "name": "storyId",
          "type": "uint16"
        },
        {
          "internalType": "uint256",
          "name": "maxIterations",
          "type": "uint256"
        }
      ],
      "name": "removeStoryAnswersMeta",
      "outputs": [],
      "stateMutability": "nonpayable",
      "type": "function"
    },
    {
      "inputs": [
        {
          "internalType": "uint16",
          "name": "storyId",
          "type": "uint16"
        },
        {
          "internalType": "uint256",
          "name": "maxIterations",
          "type": "uint256"
        }
      ],
      "name": "removeStoryPagesMeta",
      "outputs": [],
      "stateMutability": "nonpayable",
      "type": "function"
    },
    {
      "inputs": [],
      "name": "revision",
      "outputs": [
        {
          "internalType": "uint256",
          "name": "",
          "type": "uint256"
        }
      ],
      "stateMutability": "view",
      "type": "function"
    },
    {
      "inputs": [
        {
          "components": [
            {
              "internalType": "uint16",
              "name": "storyId",
              "type": "uint16"
            },
            {
              "internalType": "bytes32[]",
              "name": "requiredCustomDataIndex",
              "type": "bytes32[]"
            },
            {
              "internalType": "uint64[]",
              "name": "requiredCustomDataMinValue",
              "type": "uint64[]"
            },
            {
              "internalType": "uint64[]",
              "name": "requiredCustomDataMaxValue",
              "type": "uint64[]"
            },
            {
              "internalType": "bool[]",
              "name": "requiredCustomDataIsHero",
              "type": "bool[]"
            },
            {
              "internalType": "uint256",
              "name": "minLevel",
              "type": "uint256"
            },
            {
              "components": [
                {
                  "internalType": "uint16[]",
                  "name": "answerPageIds",
                  "type": "uint16[]"
                },
                {
                  "internalType": "uint8[]",
                  "name": "answerHeroClasses",
                  "type": "uint8[]"
                },
                {
                  "internalType": "uint16[]",
                  "name": "answerIds",
                  "type": "uint16[]"
                }
              ],
              "internalType": "struct IStoryController.AnswersMeta",
              "name": "answersMeta",
              "type": "tuple"
            },
            {
              "components": [
                {
                  "internalType": "uint16[]",
                  "name": "pageId",
                  "type": "uint16[]"
                },
                {
                  "internalType": "uint8[]",
                  "name": "heroClass",
                  "type": "uint8[]"
                },
                {
                  "internalType": "uint16[]",
                  "name": "answerId",
                  "type": "uint16[]"
                },
                {
                  "internalType": "uint8[]",
                  "name": "answerResultIds",
                  "type": "uint8[]"
                },
                {
                  "internalType": "uint16[][]",
                  "name": "answerNextPageIds",
                  "type": "uint16[][]"
                }
              ],
              "internalType": "struct IStoryController.AnswerNextPageMeta",
              "name": "answerNextPage",
              "type": "tuple"
            },
            {
              "components": [
                {
                  "internalType": "uint16[]",
                  "name": "pageId",
                  "type": "uint16[]"
                },
                {
                  "internalType": "uint8[]",
                  "name": "heroClass",
                  "type": "uint8[]"
                },
                {
                  "internalType": "uint16[]",
                  "name": "answerId",
                  "type": "uint16[]"
                },
                {
                  "internalType": "bool[][]",
                  "name": "cores",
                  "type": "bool[][]"
                },
                {
                  "internalType": "uint8[][]",
                  "name": "ids",
                  "type": "uint8[][]"
                },
                {
                  "internalType": "int32[][]",
                  "name": "values",
                  "type": "int32[][]"
                }
              ],
              "internalType": "struct IStoryController.AnswerAttributeRequirementsMeta",
              "name": "answerAttributeRequirements",
              "type": "tuple"
            },
            {
              "components": [
                {
                  "internalType": "uint16[]",
                  "name": "pageId",
                  "type": "uint16[]"
                },
                {
                  "internalType": "uint8[]",
                  "name": "heroClass",
                  "type": "uint8[]"
                },
                {
                  "internalType": "uint16[]",
                  "name": "answerId",
                  "type": "uint16[]"
                },
                {
                  "internalType": "address[][]",
                  "name": "requireItems",
                  "type": "address[][]"
                },
                {
                  "internalType": "bool[][]",
                  "name": "requireItemBurn",
                  "type": "bool[][]"
                },
                {
                  "internalType": "bool[][]",
                  "name": "requireItemEquipped",
                  "type": "bool[][]"
                }
              ],
              "internalType": "struct IStoryController.AnswerItemRequirementsMeta",
              "name": "answerItemRequirements",
              "type": "tuple"
            },
            {
              "components": [
                {
                  "internalType": "uint16[]",
                  "name": "pageId",
                  "type": "uint16[]"
                },
                {
                  "internalType": "uint8[]",
                  "name": "heroClass",
                  "type": "uint8[]"
                },
                {
                  "internalType": "uint16[]",
                  "name": "answerId",
                  "type": "uint16[]"
                },
                {
                  "internalType": "address[][]",
                  "name": "requireToken",
                  "type": "address[][]"
                },
                {
                  "internalType": "uint88[][]",
                  "name": "requireAmount",
                  "type": "uint88[][]"
                },
                {
                  "internalType": "bool[][]",
                  "name": "requireTransfer",
                  "type": "bool[][]"
                }
              ],
              "internalType": "struct IStoryController.AnswerTokenRequirementsMeta",
              "name": "answerTokenRequirements",
              "type": "tuple"
            },
            {
              "components": [
                {
                  "internalType": "uint16[]",
                  "name": "pageId",
                  "type": "uint16[]"
                },
                {
                  "internalType": "uint8[]",
                  "name": "heroClass",
                  "type": "uint8[]"
                },
                {
                  "internalType": "uint16[]",
                  "name": "answerId",
                  "type": "uint16[]"
                },
                {
                  "internalType": "uint32[]",
                  "name": "randomRequirements",
                  "type": "uint32[]"
                },
                {
                  "internalType": "uint32[]",
                  "name": "delayRequirements",
                  "type": "uint32[]"
                },
                {
                  "internalType": "bool[]",
                  "name": "isFinalAnswer",
                  "type": "bool[]"
                }
              ],
              "internalType": "struct IStoryController.AnswerAttributesMeta",
              "name": "answerAttributes",
              "type": "tuple"
            },
            {
              "components": [
                {
                  "internalType": "uint16[]",
                  "name": "pageId",
                  "type": "uint16[]"
                },
                {
                  "internalType": "uint8[]",
                  "name": "heroClass",
                  "type": "uint8[]"
                },
                {
                  "internalType": "uint16[]",
                  "name": "answerId",
                  "type": "uint16[]"
                },
                {
                  "internalType": "bytes32[][]",
                  "name": "dataIndexes",
                  "type": "bytes32[][]"
                },
                {
                  "internalType": "bool[][]",
                  "name": "mandatory",
                  "type": "bool[][]"
                },
                {
                  "internalType": "uint64[][]",
                  "name": "dataValuesMin",
                  "type": "uint64[][]"
                },
                {
                  "internalType": "uint64[][]",
                  "name": "dataValuesMax",
                  "type": "uint64[][]"
                }
              ],
              "internalType": "struct IStoryController.AnswerCustomDataMeta",
              "name": "answerHeroCustomDataRequirement",
              "type": "tuple"
            },
            {
              "components": [
                {
                  "internalType": "uint16[]",
                  "name": "pageId",
                  "type": "uint16[]"
                },
                {
                  "internalType": "uint8[]",
                  "name": "heroClass",
                  "type": "uint8[]"
                },
                {
                  "internalType": "uint16[]",
                  "name": "answerId",
                  "type": "uint16[]"
                },
                {
                  "internalType": "bytes32[][]",
                  "name": "dataIndexes",
                  "type": "bytes32[][]"
                },
                {
                  "internalType": "bool[][]",
                  "name": "mandatory",
                  "type": "bool[][]"
                },
                {
                  "internalType": "uint64[][]",
                  "name": "dataValuesMin",
                  "type": "uint64[][]"
                },
                {
                  "internalType": "uint64[][]",
                  "name": "dataValuesMax",
                  "type": "uint64[][]"
                }
              ],
              "internalType": "struct IStoryController.AnswerCustomDataMeta",
              "name": "answerGlobalCustomDataRequirement",
              "type": "tuple"
            },
            {
              "components": [
                {
                  "internalType": "uint16[]",
                  "name": "pageId",
                  "type": "uint16[]"
                },
                {
                  "internalType": "uint8[]",
                  "name": "heroClass",
                  "type": "uint8[]"
                },
                {
                  "internalType": "uint16[]",
                  "name": "answerId",
                  "type": "uint16[]"
                },
                {
                  "internalType": "uint8[][]",
                  "name": "slots",
                  "type": "uint8[][]"
                },
                {
                  "internalType": "uint64[][]",
                  "name": "chances",
                  "type": "uint64[][]"
                },
                {
                  "internalType": "bool[][]",
                  "name": "isStopIfBurnt",
                  "type": "bool[][]"
                }
              ],
              "internalType": "struct IStoryController.AnswerBurnRandomItemMeta",
              "name": "answerBurnRandomItemMeta",
              "type": "tuple"
            },
            {
              "components": [
                {
                  "internalType": "uint16[]",
                  "name": "nextObjPageIds",
                  "type": "uint16[]"
                },
                {
                  "internalType": "uint8[]",
                  "name": "nextObjHeroClasses",
                  "type": "uint8[]"
                },
                {
                  "internalType": "uint32[][]",
                  "name": "nextObjIds",
                  "type": "uint32[][]"
                }
              ],
              "internalType": "struct IStoryController.NextObjRewriteMeta",
              "name": "nextObjRewriteMeta",
              "type": "tuple"
            },
            {
              "components": [
                {
                  "internalType": "uint16[]",
                  "name": "pageId",
                  "type": "uint16[]"
                },
                {
                  "internalType": "uint8[]",
                  "name": "heroClass",
                  "type": "uint8[]"
                },
                {
                  "internalType": "uint16[]",
                  "name": "answerId",
                  "type": "uint16[]"
                },
                {
                  "internalType": "uint8[][]",
                  "name": "attributeIds",
                  "type": "uint8[][]"
                },
                {
                  "internalType": "int32[][]",
                  "name": "attributeValues",
                  "type": "int32[][]"
                },
                {
                  "internalType": "uint32[]",
                  "name": "experience",
                  "type": "uint32[]"
                },
                {
                  "internalType": "int32[]",
                  "name": "heal",
                  "type": "int32[]"
                },
                {
                  "internalType": "int32[]",
                  "name": "manaRegen",
                  "type": "int32[]"
                },
                {
                  "internalType": "int32[]",
                  "name": "lifeChancesRecovered",
                  "type": "int32[]"
                },
                {
                  "internalType": "int32[]",
                  "name": "damage",
                  "type": "int32[]"
                },
                {
                  "internalType": "int32[]",
                  "name": "manaConsumed",
                  "type": "int32[]"
                },
                {
                  "internalType": "address[][]",
                  "name": "mintItems",
                  "type": "address[][]"
                },
                {
                  "internalType": "uint32[][]",
                  "name": "mintItemsChances",
                  "type": "uint32[][]"
                }
              ],
              "internalType": "struct IStoryController.AnswerResultMeta",
              "name": "successInfo",
              "type": "tuple"
            },
            {
              "components": [
                {
                  "internalType": "uint16[]",
                  "name": "pageId",
                  "type": "uint16[]"
                },
                {
                  "internalType": "uint8[]",
                  "name": "heroClass",
                  "type": "uint8[]"
                },
                {
                  "internalType": "uint16[]",
                  "name": "answerId",
                  "type": "uint16[]"
                },
                {
                  "internalType": "uint8[][]",
                  "name": "attributeIds",
                  "type": "uint8[][]"
                },
                {
                  "internalType": "int32[][]",
                  "name": "attributeValues",
                  "type": "int32[][]"
                },
                {
                  "internalType": "uint32[]",
                  "name": "experience",
                  "type": "uint32[]"
                },
                {
                  "internalType": "int32[]",
                  "name": "heal",
                  "type": "int32[]"
                },
                {
                  "internalType": "int32[]",
                  "name": "manaRegen",
                  "type": "int32[]"
                },
                {
                  "internalType": "int32[]",
                  "name": "lifeChancesRecovered",
                  "type": "int32[]"
                },
                {
                  "internalType": "int32[]",
                  "name": "damage",
                  "type": "int32[]"
                },
                {
                  "internalType": "int32[]",
                  "name": "manaConsumed",
                  "type": "int32[]"
                },
                {
                  "internalType": "address[][]",
                  "name": "mintItems",
                  "type": "address[][]"
                },
                {
                  "internalType": "uint32[][]",
                  "name": "mintItemsChances",
                  "type": "uint32[][]"
                }
              ],
              "internalType": "struct IStoryController.AnswerResultMeta",
              "name": "failInfo",
              "type": "tuple"
            },
            {
              "components": [
                {
                  "internalType": "uint16[]",
                  "name": "pageId",
                  "type": "uint16[]"
                },
                {
                  "internalType": "uint8[]",
                  "name": "heroClass",
                  "type": "uint8[]"
                },
                {
                  "internalType": "uint16[]",
                  "name": "answerId",
                  "type": "uint16[]"
                },
                {
                  "internalType": "bytes32[][]",
                  "name": "dataIndexes",
                  "type": "bytes32[][]"
                },
                {
                  "internalType": "int16[][]",
                  "name": "dataValues",
                  "type": "int16[][]"
                }
              ],
              "internalType": "struct IStoryController.AnswerCustomDataResultMeta",
              "name": "successHeroCustomData",
              "type": "tuple"
            },
            {
              "components": [
                {
                  "internalType": "uint16[]",
                  "name": "pageId",
                  "type": "uint16[]"
                },
                {
                  "internalType": "uint8[]",
                  "name": "heroClass",
                  "type": "uint8[]"
                },
                {
                  "internalType": "uint16[]",
                  "name": "answerId",
                  "type": "uint16[]"
                },
                {
                  "internalType": "bytes32[][]",
                  "name": "dataIndexes",
                  "type": "bytes32[][]"
                },
                {
                  "internalType": "int16[][]",
                  "name": "dataValues",
                  "type": "int16[][]"
                }
              ],
              "internalType": "struct IStoryController.AnswerCustomDataResultMeta",
              "name": "failHeroCustomData",
              "type": "tuple"
            },
            {
              "components": [
                {
                  "internalType": "uint16[]",
                  "name": "pageId",
                  "type": "uint16[]"
                },
                {
                  "internalType": "uint8[]",
                  "name": "heroClass",
                  "type": "uint8[]"
                },
                {
                  "internalType": "uint16[]",
                  "name": "answerId",
                  "type": "uint16[]"
                },
                {
                  "internalType": "bytes32[][]",
                  "name": "dataIndexes",
                  "type": "bytes32[][]"
                },
                {
                  "internalType": "int16[][]",
                  "name": "dataValues",
                  "type": "int16[][]"
                }
              ],
              "internalType": "struct IStoryController.AnswerCustomDataResultMeta",
              "name": "successGlobalCustomData",
              "type": "tuple"
            },
            {
              "components": [
                {
                  "internalType": "uint16[]",
                  "name": "pageId",
                  "type": "uint16[]"
                },
                {
                  "internalType": "uint8[]",
                  "name": "heroClass",
                  "type": "uint8[]"
                },
                {
                  "internalType": "uint16[]",
                  "name": "answerId",
                  "type": "uint16[]"
                },
                {
                  "internalType": "bytes32[][]",
                  "name": "dataIndexes",
                  "type": "bytes32[][]"
                },
                {
                  "internalType": "int16[][]",
                  "name": "dataValues",
                  "type": "int16[][]"
                }
              ],
              "internalType": "struct IStoryController.AnswerCustomDataResultMeta",
              "name": "failGlobalCustomData",
              "type": "tuple"
            }
          ],
          "internalType": "struct IStoryController.StoryMetaInfo",
          "name": "meta",
          "type": "tuple"
        }
      ],
      "name": "setAllStoryFields",
      "outputs": [],
      "stateMutability": "nonpayable",
      "type": "function"
    },
    {
      "inputs": [
        {
          "internalType": "uint16",
          "name": "storyId",
          "type": "uint16"
        },
        {
          "components": [
            {
              "internalType": "uint16[]",
              "name": "pageId",
              "type": "uint16[]"
            },
            {
              "internalType": "uint8[]",
              "name": "heroClass",
              "type": "uint8[]"
            },
            {
              "internalType": "uint16[]",
              "name": "answerId",
              "type": "uint16[]"
            },
            {
              "internalType": "bool[][]",
              "name": "cores",
              "type": "bool[][]"
            },
            {
              "internalType": "uint8[][]",
              "name": "ids",
              "type": "uint8[][]"
            },
            {
              "internalType": "int32[][]",
              "name": "values",
              "type": "int32[][]"
            }
          ],
          "internalType": "struct IStoryController.AnswerAttributeRequirementsMeta",
          "name": "meta",
          "type": "tuple"
        }
      ],
      "name": "setAnswerAttributeRequirements",
      "outputs": [],
      "stateMutability": "nonpayable",
      "type": "function"
    },
    {
      "inputs": [
        {
          "internalType": "uint16",
          "name": "storyId",
          "type": "uint16"
        },
        {
          "components": [
            {
              "internalType": "uint16[]",
              "name": "pageId",
              "type": "uint16[]"
            },
            {
              "internalType": "uint8[]",
              "name": "heroClass",
              "type": "uint8[]"
            },
            {
              "internalType": "uint16[]",
              "name": "answerId",
              "type": "uint16[]"
            },
            {
              "internalType": "uint32[]",
              "name": "randomRequirements",
              "type": "uint32[]"
            },
            {
              "internalType": "uint32[]",
              "name": "delayRequirements",
              "type": "uint32[]"
            },
            {
              "internalType": "bool[]",
              "name": "isFinalAnswer",
              "type": "bool[]"
            }
          ],
          "internalType": "struct IStoryController.AnswerAttributesMeta",
          "name": "meta",
          "type": "tuple"
        }
      ],
      "name": "setAnswerAttributes",
      "outputs": [],
      "stateMutability": "nonpayable",
      "type": "function"
    },
    {
      "inputs": [
        {
          "internalType": "uint16",
          "name": "storyId",
          "type": "uint16"
        },
        {
          "components": [
            {
              "internalType": "uint16[]",
              "name": "pageId",
              "type": "uint16[]"
            },
            {
              "internalType": "uint8[]",
              "name": "heroClass",
              "type": "uint8[]"
            },
            {
              "internalType": "uint16[]",
              "name": "answerId",
              "type": "uint16[]"
            },
            {
              "internalType": "bytes32[][]",
              "name": "dataIndexes",
              "type": "bytes32[][]"
            },
            {
              "internalType": "bool[][]",
              "name": "mandatory",
              "type": "bool[][]"
            },
            {
              "internalType": "uint64[][]",
              "name": "dataValuesMin",
              "type": "uint64[][]"
            },
            {
              "internalType": "uint64[][]",
              "name": "dataValuesMax",
              "type": "uint64[][]"
            }
          ],
          "internalType": "struct IStoryController.AnswerCustomDataMeta",
          "name": "meta",
          "type": "tuple"
        }
      ],
      "name": "setAnswerGlobalCustomDataRequirementMeta",
      "outputs": [],
      "stateMutability": "nonpayable",
      "type": "function"
    },
    {
      "inputs": [
        {
          "internalType": "uint16",
          "name": "storyId",
          "type": "uint16"
        },
        {
          "components": [
            {
              "internalType": "uint16[]",
              "name": "pageId",
              "type": "uint16[]"
            },
            {
              "internalType": "uint8[]",
              "name": "heroClass",
              "type": "uint8[]"
            },
            {
              "internalType": "uint16[]",
              "name": "answerId",
              "type": "uint16[]"
            },
            {
              "internalType": "bytes32[][]",
              "name": "dataIndexes",
              "type": "bytes32[][]"
            },
            {
              "internalType": "bool[][]",
              "name": "mandatory",
              "type": "bool[][]"
            },
            {
              "internalType": "uint64[][]",
              "name": "dataValuesMin",
              "type": "uint64[][]"
            },
            {
              "internalType": "uint64[][]",
              "name": "dataValuesMax",
              "type": "uint64[][]"
            }
          ],
          "internalType": "struct IStoryController.AnswerCustomDataMeta",
          "name": "meta",
          "type": "tuple"
        }
      ],
      "name": "setAnswerHeroCustomDataRequirementMeta",
      "outputs": [],
      "stateMutability": "nonpayable",
      "type": "function"
    },
    {
      "inputs": [
        {
          "internalType": "uint16",
          "name": "storyId",
          "type": "uint16"
        },
        {
          "components": [
            {
              "internalType": "uint16[]",
              "name": "pageId",
              "type": "uint16[]"
            },
            {
              "internalType": "uint8[]",
              "name": "heroClass",
              "type": "uint8[]"
            },
            {
              "internalType": "uint16[]",
              "name": "answerId",
              "type": "uint16[]"
            },
            {
              "internalType": "address[][]",
              "name": "requireItems",
              "type": "address[][]"
            },
            {
              "internalType": "bool[][]",
              "name": "requireItemBurn",
              "type": "bool[][]"
            },
            {
              "internalType": "bool[][]",
              "name": "requireItemEquipped",
              "type": "bool[][]"
            }
          ],
          "internalType": "struct IStoryController.AnswerItemRequirementsMeta",
          "name": "meta",
          "type": "tuple"
        }
      ],
      "name": "setAnswerItemRequirements",
      "outputs": [],
      "stateMutability": "nonpayable",
      "type": "function"
    },
    {
      "inputs": [
        {
          "internalType": "uint16",
          "name": "storyId",
          "type": "uint16"
        },
        {
          "components": [
            {
              "internalType": "uint16[]",
              "name": "pageId",
              "type": "uint16[]"
            },
            {
              "internalType": "uint8[]",
              "name": "heroClass",
              "type": "uint8[]"
            },
            {
              "internalType": "uint16[]",
              "name": "answerId",
              "type": "uint16[]"
            },
            {
              "internalType": "uint8[]",
              "name": "answerResultIds",
              "type": "uint8[]"
            },
            {
              "internalType": "uint16[][]",
              "name": "answerNextPageIds",
              "type": "uint16[][]"
            }
          ],
          "internalType": "struct IStoryController.AnswerNextPageMeta",
          "name": "meta",
          "type": "tuple"
        }
      ],
      "name": "setAnswerNextPageMeta",
      "outputs": [],
      "stateMutability": "nonpayable",
      "type": "function"
    },
    {
      "inputs": [
        {
          "internalType": "uint16",
          "name": "storyId",
          "type": "uint16"
        },
        {
          "components": [
            {
              "internalType": "uint16[]",
              "name": "pageId",
              "type": "uint16[]"
            },
            {
              "internalType": "uint8[]",
              "name": "heroClass",
              "type": "uint8[]"
            },
            {
              "internalType": "uint16[]",
              "name": "answerId",
              "type": "uint16[]"
            },
            {
              "internalType": "address[][]",
              "name": "requireToken",
              "type": "address[][]"
            },
            {
              "internalType": "uint88[][]",
              "name": "requireAmount",
              "type": "uint88[][]"
            },
            {
              "internalType": "bool[][]",
              "name": "requireTransfer",
              "type": "bool[][]"
            }
          ],
          "internalType": "struct IStoryController.AnswerTokenRequirementsMeta",
          "name": "meta",
          "type": "tuple"
        }
      ],
      "name": "setAnswerTokenRequirementsMeta",
      "outputs": [],
      "stateMutability": "nonpayable",
      "type": "function"
    },
    {
      "inputs": [
        {
          "internalType": "uint16",
          "name": "storyId",
          "type": "uint16"
        },
        {
          "internalType": "uint16[]",
          "name": "answerPageIds",
          "type": "uint16[]"
        },
        {
          "internalType": "uint8[]",
          "name": "answerHeroClasses",
          "type": "uint8[]"
        },
        {
          "internalType": "uint16[]",
          "name": "answerIds",
          "type": "uint16[]"
        }
      ],
      "name": "setAnswersMeta",
      "outputs": [],
      "stateMutability": "nonpayable",
      "type": "function"
    },
    {
      "inputs": [
        {
          "internalType": "uint16",
          "name": "storyId",
          "type": "uint16"
        },
        {
          "components": [
            {
              "internalType": "uint16[]",
              "name": "pageId",
              "type": "uint16[]"
            },
            {
              "internalType": "uint8[]",
              "name": "heroClass",
              "type": "uint8[]"
            },
            {
              "internalType": "uint16[]",
              "name": "answerId",
              "type": "uint16[]"
            },
            {
              "internalType": "uint8[][]",
              "name": "slots",
              "type": "uint8[][]"
            },
            {
              "internalType": "uint64[][]",
              "name": "chances",
              "type": "uint64[][]"
            },
            {
              "internalType": "bool[][]",
              "name": "isStopIfBurnt",
              "type": "bool[][]"
            }
          ],
          "internalType": "struct IStoryController.AnswerBurnRandomItemMeta",
          "name": "meta",
          "type": "tuple"
        }
      ],
      "name": "setBurnItemsMeta",
      "outputs": [],
      "stateMutability": "nonpayable",
      "type": "function"
    },
    {
      "inputs": [
        {
          "internalType": "uint16",
          "name": "storyId",
          "type": "uint16"
        },
        {
          "components": [
            {
              "internalType": "uint16[]",
              "name": "pageId",
              "type": "uint16[]"
            },
            {
              "internalType": "uint8[]",
              "name": "heroClass",
              "type": "uint8[]"
            },
            {
              "internalType": "uint16[]",
              "name": "answerId",
              "type": "uint16[]"
            },
            {
              "internalType": "bytes32[][]",
              "name": "dataIndexes",
              "type": "bytes32[][]"
            },
            {
              "internalType": "int16[][]",
              "name": "dataValues",
              "type": "int16[][]"
            }
          ],
          "internalType": "struct IStoryController.AnswerCustomDataResultMeta",
          "name": "meta",
          "type": "tuple"
        },
        {
          "internalType": "enum IStoryController.CustomDataResult",
          "name": "type_",
          "type": "uint8"
        }
      ],
      "name": "setCustomDataResult",
      "outputs": [],
      "stateMutability": "nonpayable",
      "type": "function"
    },
    {
      "inputs": [
        {
          "internalType": "uint16",
          "name": "storyId",
          "type": "uint16"
        },
        {
          "components": [
            {
              "internalType": "uint16[]",
              "name": "pageId",
              "type": "uint16[]"
            },
            {
              "internalType": "uint8[]",
              "name": "heroClass",
              "type": "uint8[]"
            },
            {
              "internalType": "uint16[]",
              "name": "answerId",
              "type": "uint16[]"
            },
            {
              "internalType": "uint8[][]",
              "name": "attributeIds",
              "type": "uint8[][]"
            },
            {
              "internalType": "int32[][]",
              "name": "attributeValues",
              "type": "int32[][]"
            },
            {
              "internalType": "uint32[]",
              "name": "experience",
              "type": "uint32[]"
            },
            {
              "internalType": "int32[]",
              "name": "heal",
              "type": "int32[]"
            },
            {
              "internalType": "int32[]",
              "name": "manaRegen",
              "type": "int32[]"
            },
            {
              "internalType": "int32[]",
              "name": "lifeChancesRecovered",
              "type": "int32[]"
            },
            {
              "internalType": "int32[]",
              "name": "damage",
              "type": "int32[]"
            },
            {
              "internalType": "int32[]",
              "name": "manaConsumed",
              "type": "int32[]"
            },
            {
              "internalType": "address[][]",
              "name": "mintItems",
              "type": "address[][]"
            },
            {
              "internalType": "uint32[][]",
              "name": "mintItemsChances",
              "type": "uint32[][]"
            }
          ],
          "internalType": "struct IStoryController.AnswerResultMeta",
          "name": "meta",
          "type": "tuple"
        }
      ],
      "name": "setFailInfo",
      "outputs": [],
      "stateMutability": "nonpayable",
      "type": "function"
    },
    {
      "inputs": [
        {
          "internalType": "uint16",
          "name": "storyId",
          "type": "uint16"
        },
        {
          "components": [
            {
              "internalType": "uint16[]",
              "name": "nextObjPageIds",
              "type": "uint16[]"
            },
            {
              "internalType": "uint8[]",
              "name": "nextObjHeroClasses",
              "type": "uint8[]"
            },
            {
              "internalType": "uint32[][]",
              "name": "nextObjIds",
              "type": "uint32[][]"
            }
          ],
          "internalType": "struct IStoryController.NextObjRewriteMeta",
          "name": "meta",
          "type": "tuple"
        }
      ],
      "name": "setNextObjRewriteMeta",
      "outputs": [],
      "stateMutability": "nonpayable",
      "type": "function"
    },
    {
      "inputs": [
        {
          "internalType": "uint16",
          "name": "storyId",
          "type": "uint16"
        },
        {
          "internalType": "bytes32[]",
          "name": "requiredCustomDataIndex",
          "type": "bytes32[]"
        },
        {
          "internalType": "uint64[]",
          "name": "requiredCustomDataMinValue",
          "type": "uint64[]"
        },
        {
          "internalType": "uint64[]",
          "name": "requiredCustomDataMaxValue",
          "type": "uint64[]"
        },
        {
          "internalType": "bool[]",
          "name": "requiredCustomDataIsHero",
          "type": "bool[]"
        },
        {
          "internalType": "uint256",
          "name": "minLevel",
          "type": "uint256"
        }
      ],
      "name": "setStoryCustomDataRequirements",
      "outputs": [],
      "stateMutability": "nonpayable",
      "type": "function"
    },
    {
      "inputs": [
        {
          "internalType": "uint16",
          "name": "storyId",
          "type": "uint16"
        },
        {
          "components": [
            {
              "internalType": "uint16[]",
              "name": "pageId",
              "type": "uint16[]"
            },
            {
              "internalType": "uint8[]",
              "name": "heroClass",
              "type": "uint8[]"
            },
            {
              "internalType": "uint16[]",
              "name": "answerId",
              "type": "uint16[]"
            },
            {
              "internalType": "uint8[][]",
              "name": "attributeIds",
              "type": "uint8[][]"
            },
            {
              "internalType": "int32[][]",
              "name": "attributeValues",
              "type": "int32[][]"
            },
            {
              "internalType": "uint32[]",
              "name": "experience",
              "type": "uint32[]"
            },
            {
              "internalType": "int32[]",
              "name": "heal",
              "type": "int32[]"
            },
            {
              "internalType": "int32[]",
              "name": "manaRegen",
              "type": "int32[]"
            },
            {
              "internalType": "int32[]",
              "name": "lifeChancesRecovered",
              "type": "int32[]"
            },
            {
              "internalType": "int32[]",
              "name": "damage",
              "type": "int32[]"
            },
            {
              "internalType": "int32[]",
              "name": "manaConsumed",
              "type": "int32[]"
            },
            {
              "internalType": "address[][]",
              "name": "mintItems",
              "type": "address[][]"
            },
            {
              "internalType": "uint32[][]",
              "name": "mintItemsChances",
              "type": "uint32[][]"
            }
          ],
          "internalType": "struct IStoryController.AnswerResultMeta",
          "name": "meta",
          "type": "tuple"
        }
      ],
      "name": "setSuccessInfo",
      "outputs": [],
      "stateMutability": "nonpayable",
      "type": "function"
    },
    {
      "inputs": [
        {
          "internalType": "address",
          "name": "sender",
          "type": "address"
        },
        {
          "internalType": "uint64",
          "name": "dungeonId",
          "type": "uint64"
        },
        {
          "internalType": "uint32",
          "name": "objectId",
          "type": "uint32"
        },
        {
          "internalType": "uint256",
          "name": "stageId",
          "type": "uint256"
        },
        {
          "internalType": "address",
          "name": "heroToken",
          "type": "address"
        },
        {
          "internalType": "uint256",
          "name": "heroTokenId",
          "type": "uint256"
        },
        {
          "internalType": "uint8",
          "name": "biome",
          "type": "uint8"
        },
        {
          "internalType": "uint256",
          "name": "iteration",
          "type": "uint256"
        },
        {
          "internalType": "bytes",
          "name": "data",
          "type": "bytes"
        }
      ],
      "name": "storyAction",
      "outputs": [
        {
          "components": [
            {
              "internalType": "bool",
              "name": "kill",
              "type": "bool"
            },
            {
              "internalType": "bool",
              "name": "completed",
              "type": "bool"
            },
            {
              "internalType": "address",
              "name": "heroToken",
              "type": "address"
            },
            {
              "internalType": "address[]",
              "name": "mintItems",
              "type": "address[]"
            },
            {
              "internalType": "int32",
              "name": "heal",
              "type": "int32"
            },
            {
              "internalType": "int32",
              "name": "manaRegen",
              "type": "int32"
            },
            {
              "internalType": "int32",
              "name": "lifeChancesRecovered",
              "type": "int32"
            },
            {
              "internalType": "int32",
              "name": "damage",
              "type": "int32"
            },
            {
              "internalType": "int32",
              "name": "manaConsumed",
              "type": "int32"
            },
            {
              "internalType": "uint32",
              "name": "objectId",
              "type": "uint32"
            },
            {
              "internalType": "uint32",
              "name": "experience",
              "type": "uint32"
            },
            {
              "internalType": "uint256",
              "name": "heroTokenId",
              "type": "uint256"
            },
            {
              "internalType": "uint256",
              "name": "iteration",
              "type": "uint256"
            },
            {
              "internalType": "uint32[]",
              "name": "rewriteNextObject",
              "type": "uint32[]"
            }
          ],
          "internalType": "struct IGOC.ActionResult",
          "name": "result",
          "type": "tuple"
        }
      ],
      "stateMutability": "nonpayable",
      "type": "function"
    },
    {
      "inputs": [
        {
          "internalType": "uint16",
          "name": "storyId",
          "type": "uint16"
        }
      ],
      "name": "storyBuildHash",
      "outputs": [
        {
          "internalType": "uint256",
          "name": "",
          "type": "uint256"
        }
      ],
      "stateMutability": "view",
      "type": "function"
    },
    {
      "inputs": [
        {
          "internalType": "uint32",
          "name": "objectId",
          "type": "uint32"
        }
      ],
      "name": "storyIds",
      "outputs": [
        {
          "internalType": "uint16",
          "name": "",
          "type": "uint16"
        }
      ],
      "stateMutability": "view",
      "type": "function"
    }
  ],
  "transactionHash": "0x672299e9bda39cd381515232eb1920dfb321e2ddbb62fb5115b4740f17d26a6c",
  "args": [],
  "numDeployments": 4,
  "solcInputHash": "ab128610a613a12ee3464e154c92869f",
  "bytecode": "0x60806040523480156200001157600080fd5b507ff0c57e16840df040f15088dc2f81fe391c3923bec73e23a9662efc9c229c6a00805468010000000000000000810460ff1615906001600160401b03166000811580156200005d5750825b90506000826001600160401b031660011480156200007a5750303b155b90508115801562000089575080155b15620000a85760405163f92ee8a960e01b815260040160405180910390fd5b84546001600160401b03191660011785558315620000d757845460ff60401b1916680100000000000000001785555b83156200011e57845460ff60401b19168555604051600181527fc7f505b2f371ae2175ee4913f4499e1f2633a7b5936321eed1cdaeb6115181d29060200160405180910390a15b505050505061547080620001336000396000f3fe608060405234801561001057600080fd5b50600436106102295760003560e01c80637cc9638011610131578063cb90acc0116100b3578063cb90acc014610500578063d02a74a414610513578063d6dd327314610526578063dce9127214610539578063dee1f0e41461054c578063e08868ae1461055f578063e893564714610572578063ef76796114610592578063f660b274146105a5578063f77c4791146105b8578063ffa1ad74146105c057600080fd5b80637cc963801461041a5780637f9e78a21461042257806384ff97d414610435578063889700641461044857806392b6c5cf1461045b578063936725ec1461046e5780639d0bcca01461049f578063aa1293d9146104b4578063ac62e9f9146104c7578063b429afeb146104da578063bc982d2b146104ed57600080fd5b80631c1b0daa116101ba5780631c1b0daa1461032a578063325a19f11461034a5780633ed2f89a146103525780634593144c1461036557806349a8ccd51461036d5780634fac6ccd14610393578063509a093f146103a6578063656218ff146103ce5780636eee5afe146103e157806373aeb392146103f4578063788a2d2e1461040757600080fd5b806305f922391461022e5780630c0e97dd146102435780630cac0c1f1461025657806312a554ec14610269578063150b7a021461028f578063152f74f0146102bb57806318daea98146102de57806319ab453c146102f15780631a94214a146103045780631aab826a14610317575b600080fd5b61024161023c366004612cf4565b6105e4565b005b610241610251366004612d49565b6105f8565b610241610264366004612de3565b61060e565b61027c610277366004612ec3565b610634565b6040519081526020015b60405180910390f35b6102a261029d366004612fd3565b610645565b6040516001600160e01b03199091168152602001610286565b6102ce6102c936600461303e565b610656565b6040519015158152602001610286565b61027c6102ec366004612ec3565b61066b565b6102416102ff36600461307f565b610676565b61024161031236600461309c565b610770565b6102416103253660046130c8565b610782565b61033d610338366004613144565b610794565b6040516102869190613282565b61027c6107c3565b6102ce610360366004612cf4565b6107fc565b61027c610807565b61038061037b366004612cf4565b610837565b60405161ffff9091168152602001610286565b6102416103a136600461307f565b610842565b6103b96103b4366004612ec3565b610953565b60405163ffffffff9091168152602001610286565b6102416103dc366004612d49565b61095e565b61027c6103ef366004612ec3565b610970565b6102416104023660046133c9565b61097b565b61027c61041536600461309c565b610993565b61027c6109a6565b610241610430366004613430565b6109c4565b61024161044336600461347c565b6109d6565b61024161045636600461309c565b6109f6565b61038061046936600461353f565b610a08565b610492604051806040016040528060058152602001640312e302e360dc1b81525081565b604051610286919061357d565b6104a7610a15565b60405161028691906135cc565b6102416104c23660046135e0565b610a45565b6102416104d536600461362b565b610a57565b6102ce6104e836600461307f565b610a69565b6102416104fb366004612d49565b610a8e565b61024161050e366004613670565b610aa0565b610241610521366004612d49565b610ab3565b6102416105343660046136a0565b610ac5565b6102416105473660046130c8565b610ad6565b6102ce61055a36600461307f565b610ae8565b61027c61056d36600461309c565b610b6d565b6105856105803660046136db565b610b79565b6040516102869190613722565b6102416105a0366004612d49565b610b8e565b6102416105b3366004613430565b610ba0565b6104a7610bb2565b61049260405180604001604052806005815260200164322e312e3160d81b81525081565b6105f56105ef610bb2565b82610be2565b50565b61060a610603610bb2565b8383610c65565b5050565b610628610619610bb2565b8b8b8b8b8b8b8b8b8b8b610cdc565b50505050505050505050565b600061063f82610d74565b92915050565b630a85bd0160e11b5b949350505050565b600061064e610663610bb2565b858585610d9d565b600061063f82610e44565b6000610680610e6d565b805490915060ff600160401b82041615906001600160401b03166000811580156106a75750825b90506000826001600160401b031660011480156106c35750303b155b9050811580156106d1575080155b156106ef5760405163f92ee8a960e01b815260040160405180910390fd5b845467ffffffffffffffff19166001178555831561071957845460ff60401b1916600160401b1785555b61072286610e91565b831561076857845460ff60401b19168555604051600181527fc7f505b2f371ae2175ee4913f4499e1f2633a7b5936321eed1cdaeb6115181d29060200160405180910390a15b505050505050565b61060a61077b610bb2565b8383610ea2565b61060a61078d610bb2565b8383610f02565b61079c612c6c565b6107b56107a7610bb2565b8b8b8b8b8b8b8b8b8b610f4d565b9a9950505050505050505050565b60006107f76107f360017f6f55f470bdc9cb5f04223fd822021061668e4dccb43e8727b295106dc9769c8b61377c565b5490565b905090565b600061063f826114b7565b60006107f76107f360017f812a673dfca07956350df10f8a654925f561d7a0da09bdbe79e653939a14d9f161377c565b600061063f826114e3565b3330146108945760405162461bcd60e51b815260206004820152601b60248201527a24b731b932b0b9b2903932bb34b9b4b7b7103337b93134b23232b760291b60448201526064015b60405180910390fd5b60006108b26107f3600160008051602061541b83398151915261377c565b6108bd90600161378f565b90506108df816108dc600160008051602061541b83398151915261377c565b55565b61090e826108dc60017fbfaaa2fb63266ff27c2da975f5894955056f50419af651a81f6c5060581857e461377c565b604080518281526001600160a01b03841660208201527ff27e2ef832a4eb8ed8ec553b875eecd44764cda95b1c24170e281539e0a869c8910160405180910390a15050565b600061063f8261150d565b61060a610969610bb2565b838361153a565b600061063f82611585565b61098e610986610bb2565b8484846115ac565b505050565b600061099f838361162f565b9392505050565b60006107f76107f3600160008051602061541b83398151915261377c565b61060a6109cf610bb2565b838361165a565b6109ed6109e1610bb2565b888888888888886116a5565b50505050505050565b61060a610a01610bb2565b8383611734565b600061064e84848461175f565b60006107f76107f360017fbfaaa2fb63266ff27c2da975f5894955056f50419af651a81f6c5060581857e461377c565b61060a610a50610bb2565b838361178e565b61060a610a62610bb2565b83836117d9565b6000610a73610bb2565b6001600160a01b0316826001600160a01b0316149050919050565b61060a610a99610bb2565b8383611824565b61098e610aab610bb2565b84848461186f565b61060a610abe610bb2565b83836118db565b6105f5610ad0610bb2565b82611926565b61060a610ae1610bb2565b838361196f565b6000816001600160a01b0316610afc610bb2565b6001600160a01b0316635aa6e6756040518163ffffffff1660e01b8152600401602060405180830381865afa158015610b39573d6000803e3d6000fd5b505050506040513d601f19601f82011682018060405250810190610b5d91906137ad565b6001600160a01b03161492915050565b600061099f838361199a565b606061064e610b86610bb2565b8585856119c5565b61060a610b99610bb2565b8383611c84565b61060a610bab610bb2565b8383611ccf565b60006107f76107f360017f5165972ef41194f06c5007493031d0b927c20741adcb74403b954009fd2c361861377c565b610beb82611cfa565b731d21Db6cde1b18c7E47B0F7F42f4b3F68b9beeC963a913674b610c0d611d86565b6040516001600160e01b031960e084901b168152600481019190915263ffffffff841660248201526044015b60006040518083038186803b158015610c5157600080fd5b505af4158015610768573d6000803e3d6000fd5b610c6e83611cfa565b731d21Db6cde1b18c7E47B0F7F42f4b3F68b9beeC963a84d660c610c90611d86565b84846040518463ffffffff1660e01b8152600401610cb093929190613ae9565b60006040518083038186803b158015610cc857600080fd5b505af41580156109ed573d6000803e3d6000fd5b610ce58b611cfa565b731d21Db6cde1b18c7E47B0F7F42f4b3F68b9beeC963ca473936610d07611d86565b8c8c8c8c8c8c8c8c8c8c6040518c63ffffffff1660e01b8152600401610d379b9a99989796959493929190613b7a565b60006040518083038186803b158015610d4f57600080fd5b505af4158015610d63573d6000803e3d6000fd5b505050505050505050505050505050565b600061063f610d81611d86565b61ffff8416600090815260049190910160205260409020611daa565b6000610e3b610daa611d86565b610db2611d86565b63ffffffff871660009081526020918252604090819020548151628e969160e01b8152915161ffff90911692889288926001600160a01b038d1692628e969192600480820193918290030181865afa158015610e12573d6000803e3d6000fd5b505050506040513d601f19601f82011682018060405250810190610e3691906137ad565b611db4565b95945050505050565b600061063f610e51611d86565b61ffff8416600090815260059190910160205260409020611daa565b7ff0c57e16840df040f15088dc2f81fe391c3923bec73e23a9662efc9c229c6a0090565b610e99612037565b6105f58161205e565b610eab83611cfa565b731d21Db6cde1b18c7E47B0F7F42f4b3F68b9beeC9633e8dd868610ecd611d86565b6040516001600160e01b031960e084901b168152600481019190915261ffff8516602482015260448101849052606401610cb0565b610f0b83611cfa565b731d21Db6cde1b18c7E47B0F7F42f4b3F68b9beeC96301c7664c610f2d611d86565b84846040518463ffffffff1660e01b8152600401610cb093929190613d91565b610f55612c6c565b336001600160a01b03168b6001600160a01b03166389dd9f136040518163ffffffff1660e01b8152600401602060405180830381865afa158015610f9d573d6000803e3d6000fd5b505050506040513d601f19601f82011682018060405250810190610fc191906137ad565b6001600160a01b031614610fea57336040516309f23ad160e41b815260040161088b91906135cc565b60008b6001600160a01b0316628e96916040518163ffffffff1660e01b8152600401602060405180830381865afa158015611029573d6000803e3d6000fd5b505050506040513d601f19601f8201168201806040525081019061104d91906137ad565b905060006040518061030001604052808a815260200186815260200161107286612171565b81526020016000801b81526020018d6001600160a01b03168152602001896001600160a01b031681526020018e6001600160a01b03168152602001836001600160a01b031681526020018e6001600160a01b031663016dff5d6040518163ffffffff1660e01b8152600401602060405180830381865afa1580156110fa573d6000803e3d6000fd5b505050506040513d601f19601f8201168201806040525081019061111e91906137ad565b6001600160a01b031681526020018e6001600160a01b0316637dc0d1d06040518163ffffffff1660e01b8152600401602060405180830381865afa15801561116a573d6000803e3d6000fd5b505050506040513d601f19601f8201168201806040525081019061118e91906137ad565b6001600160a01b031681526020018e6001600160a01b03166331423c266040518163ffffffff1660e01b8152600401602060405180830381865afa1580156111da573d6000803e3d6000fd5b505050506040513d601f19601f820116820180604052508101906111fe91906137ad565b6001600160a01b03168152600060208201819052604082015260ff8816606082015260800161122b611d86565b63ffffffff8d166000818152602092835260408082205461ffff168552928401819052838301819052606084018190526080840181905260a08401919091526001600160401b038f1660c084015260e08301526001600160501b038a1661010083015251631a95890960e31b8152610120909101906001600160a01b0385169063d4ac4848906112c1908d908d90600401613db4565b60a060405180830381865afa1580156112de573d6000803e3d6000fd5b505050506040513d601f19601f820116820180604052508101906113029190613dd8565b8152509050806101c0015161ffff16600003611331576040516326358d7f60e21b815260040160405180910390fd5b8061010001516001600160a01b0316631789b7b1896040518263ffffffff1660e01b815260040161136291906135cc565b602060405180830381865afa15801561137f573d6000803e3d6000fd5b505050506040513d601f19601f820116820180604052508101906113a39190613e6f565b60ff166101608201526113b4611d86565b6040808301516000908152600992909201602052902054606082015261141b6113db611d86565b60190160006114038a856101c001518d6001600160a01b03166121879092919063ffffffff16565b81526020019081526020016000205490601082901c90565b64ffffffffff166102a083015261ffff166102408201526040810151601081901c602082901c602883901c846101e0018561020001866101800187610220018461ffff1661ffff168152508460ff1660ff168152508461ffff1661ffff168152508461ffff1661ffff16815250505050506114a6816114a18f846101c001518c8c6119c5565b6121ba565b9d9c50505050505050505050505050565b60006114c1611d86565b63ffffffff909216600090815260039290920160205250604090205460ff1690565b60006114ed611d86565b63ffffffff909216600090815260209290925250604090205461ffff1690565b6000611517611d86565b61ffff909216600090815260019290920160205250604090205463ffffffff1690565b61154383611cfa565b731d21Db6cde1b18c7E47B0F7F42f4b3F68b9beeC96356814190611565611d86565b84846040518463ffffffff1660e01b8152600401610cb09392919061406e565b600061158f611d86565b61ffff9092166000908152601a9290920160205250604090205490565b6115b584611cfa565b731d21Db6cde1b18c7E47B0F7F42f4b3F68b9beeC9630324a18c6115d7611d86565b8585856040518563ffffffff1660e01b81526004016115f994939291906141d1565b60006040518083038186803b15801561161157600080fd5b505af4158015611625573d6000803e3d6000fd5b5050505050505050565b600061099f8261163d611d86565b61ffff861660009081526004919091016020526040902090612481565b61166383611cfa565b731d21Db6cde1b18c7E47B0F7F42f4b3F68b9beeC963b5083ab9611685611d86565b84846040518463ffffffff1660e01b8152600401610cb09392919061447c565b6116ae88611cfa565b731d21Db6cde1b18c7E47B0F7F42f4b3F68b9beeC96301c3192f6116d0611d86565b898989898989896040518963ffffffff1660e01b81526004016116fa9897969594939291906144d8565b60006040518083038186803b15801561171257600080fd5b505af4158015611726573d6000803e3d6000fd5b505050505050505050505050565b61173d83611cfa565b731d21Db6cde1b18c7E47B0F7F42f4b3F68b9beeC963b5287c91610ecd611d86565b600061178561176c611d86565b60190160006114036001600160a01b0388168787612187565b50949350505050565b61179783611cfa565b731d21Db6cde1b18c7E47B0F7F42f4b3F68b9beeC963d335b7f36117b9611d86565b84846040518463ffffffff1660e01b8152600401610cb0939291906145b2565b6117e283611cfa565b731d21Db6cde1b18c7E47B0F7F42f4b3F68b9beeC9638cd5642c611804611d86565b84846040518463ffffffff1660e01b8152600401610cb0939291906146c4565b61182d83611cfa565b731d21Db6cde1b18c7E47B0F7F42f4b3F68b9beeC963679dde4c61184f611d86565b84846040518463ffffffff1660e01b8152600401610cb0939291906147b8565b61187884611cfa565b731d21Db6cde1b18c7E47B0F7F42f4b3F68b9beeC9631c9a900861189a611d86565b6040516001600160e01b031960e084901b168152600481019190915261ffff8616602482015263ffffffff85166044820152606481018490526084016115f9565b6118e483611cfa565b731d21Db6cde1b18c7E47B0F7F42f4b3F68b9beeC9636b6cc9f8611906611d86565b84846040518463ffffffff1660e01b8152600401610cb0939291906148ac565b61192f82611cfa565b731d21Db6cde1b18c7E47B0F7F42f4b3F68b9beeC9639c9dc579611951611d86565b836040518363ffffffff1660e01b8152600401610c39929190614a59565b61197883611cfa565b731d21Db6cde1b18c7E47B0F7F42f4b3F68b9beeC963cbbefc28610f2d611d86565b600061099f826119a8611d86565b61ffff861660009081526005919091016020526040902090612481565b60606000856001600160a01b031663016dff5d6040518163ffffffff1660e01b8152600401602060405180830381865afa158015611a07573d6000803e3d6000fd5b505050506040513d601f19601f82011682018060405250810190611a2b91906137ad565b90506000611a53611a3a611d86565b60190160006114036001600160a01b038916888b612187565b5090506000611a60611d86565b6006016000611ae284866001600160a01b0316631789b7b18b6040518263ffffffff1660e01b8152600401611a9591906135cc565b602060405180830381865afa158015611ab2573d6000803e3d6000fd5b505050506040513d601f19601f82011682018060405250810190611ad69190613e6f565b61ffff8c16919061248d565b8152602001908152602001600020805480602002602001604051908101604052809291908181526020018280548015611b3a57602002820191906000526020600020905b815481526020019060010190808311611b26575b505050505090508051600003611bc657611b52611d86565b6006016000611b6661ffff8a16858361248d565b8152602001908152602001600020805480602002602001604051908101604052809291908181526020018280548015611bbe57602002820191906000526020600020905b815481526020019060010190808311611baa575b505050505090505b805115611c795760005b60018251611bde919061377c565b811015611c77576000611bfe8260018551611bf9919061377c565b6124b2565b9050828281518110611c1257611c12614d9b565b6020026020010151838281518110611c2c57611c2c614d9b565b6020026020010151848381518110611c4657611c46614d9b565b60200260200101858581518110611c5f57611c5f614d9b565b60209081029190910101919091525250600101611bd0565b505b979650505050505050565b611c8d83611cfa565b731d21Db6cde1b18c7E47B0F7F42f4b3F68b9beeC963c5828ff1611caf611d86565b84846040518463ffffffff1660e01b8152600401610cb093929190614db1565b611cd883611cfa565b731d21Db6cde1b18c7E47B0F7F42f4b3F68b9beeC963751dda43611685611d86565b604051631430d62960e21b81526001600160a01b038216906350c358a490611d269033906004016135cc565b602060405180830381865afa158015611d43573d6000803e3d6000fd5b505050506040513d601f19601f82011682018060405250810190611d679190614ddf565b6105f5573360405163451cea1760e11b815260040161088b91906135cc565b7f1fbca2ab9841348cca3f2687c48325e9989a76ad929b9970d1c11e233677cf0090565b600061063f825490565b61ffff841660009081526018860160205260408120548015801590611e4e5750604051631a95890960e31b815281906001600160a01b0385169063d4ac484890611e049089908990600401613db4565b60a060405180830381865afa158015611e21573d6000803e3d6000fd5b505050506040513d601f19601f82011682018060405250810190611e459190613dd8565b5163ffffffff16105b15611e5d576000915050610e3b565b61ffff861660009081526017880160205260408120805490915b81811015612027576000838281548110611e9357611e93614d9b565b6000918252602091829020604080518082019091526002909202018054808352600190910154928201929092529150611ecc575061201f565b6000806000611eee846020015190604082901c90608083901c60ff1660011490565b925092509250600081611f6c578451604051630a82c86160e01b815260048101919091526001600160a01b038c1690630a82c86190602401602060405180830381865afa158015611f43573d6000803e3d6000fd5b505050506040513d601f19601f82011682018060405250810190611f679190614dfc565b611fe1565b8a6001600160a01b0316631c2aafe78e8e88600001516040518463ffffffff1660e01b8152600401611fa093929190614e15565b602060405180830381865afa158015611fbd573d6000803e3d6000fd5b505050506040513d601f19601f82011682018060405250810190611fe19190614dfc565b9050836001600160401b03168110806120025750826001600160401b031681115b156120195760009950505050505050505050610e3b565b50505050505b600101611e77565b5060019998505050505050505050565b61203f6124e2565b61205c57604051631afcd79f60e31b815260040160405180910390fd5b565b6001600160a01b0381166120a65760405162461bcd60e51b815260206004820152600f60248201526e2d32b9379031b7b73a3937b63632b960891b604482015260640161088b565b6120d5816108dc60017f5165972ef41194f06c5007493031d0b927c20741adcb74403b954009fd2c361861377c565b612104426108dc60017f6f55f470bdc9cb5f04223fd822021061668e4dccb43e8727b295106dc9769c8b61377c565b612133436108dc60017f812a673dfca07956350df10f8a654925f561d7a0da09bdbe79e653939a14d9f161377c565b7f1a2dd071001ebf6e03174e3df5b305795a4ad5d41d8fdb9ba41dbbe23671342681424360405161216693929190614e15565b60405180910390a150565b60008180602001905181019061063f9190614dfc565b6001600160a01b039290921660a09190911b600160a01b600160f01b03161760f09190911b6001600160f01b0319161790565b6121c2612c6c565b60006121cc611d86565b9050825160000361221d5761026084015163ffffffff166101208301526102c08401516001600160501b031661016083015260a08401516001600160a01b031660408301526001602083015261245f565b836101e0015161ffff16846101c0015161ffff1614612269576101c08401516101e0850151604051636df9cb0960e11b815261ffff92831660048201529116602482015260440161088b565b83610200015161ffff1684610240015161ffff16146122b5576102408401516102008501516040516364f16ac560e01b815261ffff92831660048201529116602482015260440161088b565b6122c38385604001516124fc565b60608401516040805163be03c0c360e01b815291901c60ff166001149060009073caC54849A53d23393C0212a937dEA42f402E99b59063be03c0c39061230f9089908790600401614ff3565b602060405180830381865af415801561232c573d6000803e3d6000fd5b505050506040513d601f19601f820116820180604052508101906123509190615010565b905061235c8684612551565b6000606073caC54849A53d23393C0212a937dEA42f402E99b563341bebc884878b6040518463ffffffff1660e01b815260040161239b93929190615031565b600060405180830381865af41580156123b8573d6000803e3d6000fd5b505050506040513d6000823e601f3d908101601f191682016040526123e091908101906151dd565b9197509250905083806123f257508051155b15612403576001602087015261245a565b4260101b66ffffffffff00001661ffff8316178560190160006124488b6102c001518c6101c001518d60a001516001600160a01b03166121879092919063ffffffff16565b81526020810191909152604001600020555b505050505b81602001511561247a57612473848261284a565b6101a08301525b5092915050565b600061099f838361294b565b61ffff9290921660109190911b63ffff0000161760209190911b64ff00000000161790565b60008183106124c257508061063f565b60006124d66124d1858561377c565b612975565b905061064e818561378f565b60006124ec610e6d565b54600160401b900460ff16919050565b815160005b81811015612537578284828151811061251c5761251c614d9b565b60200260200101510361252f5750505050565b600101612501565b5060405163e378efef60e01b815260040160405180910390fd5b604080830151600090815260168301602052908120805490915b818110156128435760008060006125ad86858154811061258d5761258d614d9b565b906000526020600020015490600882901c90604883901c60ff1660011490565b925092509250816001600160401b0316600014158015612657575061012088015160405163018c895b60e21b815260006004820181905260646024830181905260448301919091526001600160401b038516926001600160a01b031691630632256c91016020604051808303816000875af1158015612630573d6000803e3d6000fd5b505050506040513d601f19601f820116820180604052508101906126549190614dfc565b11155b156128355760e088015160a08901516102c08a015160405163fbed9ac560e01b81526000936001600160a01b03169263fbed9ac5926126b5926004016001600160a01b039290921682526001600160501b0316602082015260400190565b600060405180830381865afa1580156126d2573d6000803e3d6000fd5b505050506040513d6000823e601f3d908101601f191682016040526126fa919081019061536a565b80519091508015612832576000808660ff166000036127ad576101208c01516001600160a01b0316630632256c600061273460018761377c565b6040516001600160e01b031960e085901b16815260048101929092526024820152600060448201526064016020604051808303816000875af115801561277e573d6000803e3d6000fd5b505050506040513d601f19601f820116820180604052508101906127a29190614dfc565b9150600190506127f4565b60005b838110156127f2578760ff168582815181106127ce576127ce614d9b565b602002602001015160ff16036127ea57809250600191506127f2565b6001016127b0565b505b801561282f5761281d8c85848151811061281057612810614d9b565b6020026020010151612a0b565b841561282f5750505050505050612843565b50505b50505b50505080600101905061256b565b5050505050565b606081601901600061287e856102c00151866101c001518760a001516001600160a01b03166121879092919063ffffffff16565b8152602001908152602001600020600090558160080160006128ba8561024001516000876101c0015161ffff1661248d9092919063ffffffff16565b815260200190815260200160002080548060200260200160405190810160405280929190818152602001828054801561293e57602002820191906000526020600020906000905b82829054906101000a900463ffffffff1663ffffffff16815260200190600401906020826003010492830192600103820291508084116129015790505b5050505050905092915050565b600082600001828154811061296257612962614d9b565b9060005260206000200154905092915050565b60008160000361298757506000919050565b61299282600161378f565b4340414443423a5a6040516020016129e8979695949392919096875260609590951b6001600160601b0319166020870152603486019390935260548501919091526074840152609483015260b482015260d40190565b6040516020818303038152906040528051906020012060001c61063f91906153f8565b60e082015160a08301516102c0840151604051633bdb788b60e01b81526001600160a01b0392831660048201526001600160401b03909116602482015260ff841660448201526000928392612ab092911690633bdb788b90606401602060405180830381865afa158015612a83573d6000803e3d6000fd5b505050506040513d601f19601f82011682018060405250810190612aa79190614dfc565b9060a082901c90565b61014086015160a08701516102c0880151604051631af6585960e01b81526001600160a01b0380871660048301526024820186905292831660448201526001600160501b03909116606482015260ff881660848201523060a4820152600060c48201529395509193501690631af658599060e401600060405180830381600087803b158015612b3e57600080fd5b505af1158015612b52573d6000803e3d6000fd5b505050508361014001516001600160a01b031663a24835d183836040518363ffffffff1660e01b8152600401612b89929190613db4565b600060405180830381600087803b158015612ba357600080fd5b505af1158015612bb7573d6000803e3d6000fd5b5050505060a0848101516102c086015161028087015161026088015188516020808b0151604080516001600160a01b0398891681526001600160501b03909716928701929092526001600160401b039094169085015263ffffffff9091166060840152928616608083015292810184905260c081019190915260e08101919091527fdb9d6e401acb3147153857557ad8bbec7bc628d66296e6a3588b8c8ea763268c906101000160405180910390a150505050565b604080516101c08101825260008082526020820181905291810182905260608082018190526080820183905260a0820183905260c0820183905260e0820183905261010082018390526101208201839052610140820183905261016082018390526101808201929092526101a081019190915290565b63ffffffff811681146105f557600080fd5b600060208284031215612d0657600080fd5b813561099f81612ce2565b61ffff811681146105f557600080fd5b8035612d2c81612d11565b919050565b600060c08284031215612d4357600080fd5b50919050565b60008060408385031215612d5c57600080fd5b8235612d6781612d11565b915060208301356001600160401b03811115612d8257600080fd5b612d8e85828601612d31565b9150509250929050565b60008083601f840112612daa57600080fd5b5081356001600160401b03811115612dc157600080fd5b6020830191508360208260051b8501011115612ddc57600080fd5b9250929050565b60008060008060008060008060008060c08b8d031215612e0257600080fd5b612e0b8b612d21565b995060208b01356001600160401b0380821115612e2757600080fd5b612e338e838f01612d98565b909b50995060408d0135915080821115612e4c57600080fd5b612e588e838f01612d98565b909950975060608d0135915080821115612e7157600080fd5b612e7d8e838f01612d98565b909750955060808d0135915080821115612e9657600080fd5b50612ea38d828e01612d98565b9150809450508092505060a08b013590509295989b9194979a5092959850565b600060208284031215612ed557600080fd5b813561099f81612d11565b6001600160a01b03811681146105f557600080fd5b634e487b7160e01b600052604160045260246000fd5b6040516101c081016001600160401b0381118282101715612f2e57612f2e612ef5565b60405290565b604051601f8201601f191681016001600160401b0381118282101715612f5c57612f5c612ef5565b604052919050565b600082601f830112612f7557600080fd5b81356001600160401b03811115612f8e57612f8e612ef5565b612fa1601f8201601f1916602001612f34565b818152846020838601011115612fb657600080fd5b816020850160208301376000918101602001919091529392505050565b60008060008060808587031215612fe957600080fd5b8435612ff481612ee0565b9350602085013561300481612ee0565b92506040850135915060608501356001600160401b0381111561302657600080fd5b61303287828801612f64565b91505092959194509250565b60008060006060848603121561305357600080fd5b833561305e81612ce2565b9250602084013561306e81612ee0565b929592945050506040919091013590565b60006020828403121561309157600080fd5b813561099f81612ee0565b600080604083850312156130af57600080fd5b82356130ba81612d11565b946020939093013593505050565b600080604083850312156130db57600080fd5b82356130e681612d11565b915060208301356001600160401b0381111561310157600080fd5b830160e0818603121561311357600080fd5b809150509250929050565b80356001600160401b0381168114612d2c57600080fd5b60ff811681146105f557600080fd5b60008060008060008060008060006101208a8c03121561316357600080fd5b893561316e81612ee0565b985061317c60208b0161311e565b975060408a013561318c81612ce2565b965060608a0135955060808a01356131a381612ee0565b945060a08a0135935060c08a01356131ba81613135565b925060e08a013591506101008a01356001600160401b038111156131dd57600080fd5b6131e98c828d01612f64565b9150509295985092959850929598565b6001600160a01b03169052565b60008151808452602080850194506020840160005b838110156132405781516001600160a01b03168752958201959082019060010161321b565b509495945050505050565b60008151808452602080850194506020840160005b8381101561324057815163ffffffff1687529582019590820190600101613260565b6020815261329560208201835115159052565b600060208301516132aa604084018215159052565b5060408301516132bd60608401826131f9565b5060608301516101c08060808501526132da6101e0850183613206565b915060808501516132f060a086018260030b9052565b5060a085015161330560c086018260030b9052565b5060c085015161331a60e086018260030b9052565b5060e08501516101006133318187018360030b9052565b86015190506101206133478682018360030b9052565b86015190506101406133608682018363ffffffff169052565b86015190506101606133798682018363ffffffff169052565b860151610180868101919091528601516101a080870191909152860151858403601f19018387015290506133ad838261324b565b9695505050505050565b600060a08284031215612d4357600080fd5b6000806000606084860312156133de57600080fd5b83356133e981612d11565b925060208401356001600160401b0381111561340457600080fd5b613410868287016133b7565b92505060408401356006811061342557600080fd5b809150509250925092565b6000806040838503121561344357600080fd5b823561344e81612d11565b915060208301356001600160401b0381111561346957600080fd5b83016101a0818603121561311357600080fd5b60008060008060008060006080888a03121561349757600080fd5b87356134a281612d11565b965060208801356001600160401b03808211156134be57600080fd5b6134ca8b838c01612d98565b909850965060408a01359150808211156134e357600080fd5b6134ef8b838c01612d98565b909650945060608a013591508082111561350857600080fd5b506135158a828b01612d98565b989b979a50959850939692959293505050565b80356001600160501b0381168114612d2c57600080fd5b60008060006060848603121561355457600080fd5b833561355f81612ee0565b925061356d60208501613528565b9150604084013561342581612d11565b60006020808352835180602085015260005b818110156135ab5785810183015185820160400152820161358f565b506000604082860101526040601f19601f8301168501019250505092915050565b6001600160a01b0391909116815260200190565b600080604083850312156135f357600080fd5b82356135fe81612d11565b915060208301356001600160401b0381111561361957600080fd5b83016060818603121561311357600080fd5b6000806040838503121561363e57600080fd5b823561364981612d11565b915060208301356001600160401b0381111561366457600080fd5b612d8e858286016133b7565b60008060006060848603121561368557600080fd5b833561369081612d11565b9250602084013561306e81612ce2565b6000602082840312156136b257600080fd5b81356001600160401b038111156136c857600080fd5b82016102c0818503121561099f57600080fd5b6000806000606084860312156136f057600080fd5b83356136fb81612d11565b9250602084013561370b81612ee0565b915061371960408501613528565b90509250925092565b6020808252825182820181905260009190848201906040850190845b8181101561375a5783518352928401929184019160010161373e565b50909695505050505050565b634e487b7160e01b600052601160045260246000fd5b8181038181111561063f5761063f613766565b8082018082111561063f5761063f613766565b8051612d2c81612ee0565b6000602082840312156137bf57600080fd5b815161099f81612ee0565b6000808335601e198436030181126137e157600080fd5b83016020810192503590506001600160401b0381111561380057600080fd5b8060051b3603821315612ddc57600080fd5b8183526000602080850194508260005b8581101561324057813561383581612d11565b61ffff1687529582019590820190600101613822565b8183526000602080850194508260005b8581101561324057813561386e81613135565b60ff168752958201959082019060010161385b565b80151581146105f557600080fd5b8183526000602080850194508260005b858110156132405781356138b481613883565b1515875295820195908201906001016138a1565b6000838385526020808601955060208560051b8301018460005b8781101561391c57848303601f190189526138fd82886137ca565b613908858284613891565b9a86019a94505050908301906001016138e2565b5090979650505050505050565b6000838385526020808601955060208560051b8301018460005b8781101561391c57848303601f1901895261395e82886137ca565b61396985828461384b565b9a86019a9450505090830190600101613943565b8060030b81146105f557600080fd5b8183526000602080850194508260005b858110156132405781356139af8161397d565b60030b8752958201959082019060010161399c565b6000838385526020808601955060208560051b8301018460005b8781101561391c57848303601f190189526139f982886137ca565b613a0485828461398c565b9a86019a94505050908301906001016139de565b6000613a2482836137ca565b60c08552613a3660c086018284613812565b915050613a4660208401846137ca565b8583036020870152613a5983828461384b565b92505050613a6a60408401846137ca565b8583036040870152613a7d838284613812565b92505050613a8e60608401846137ca565b8583036060870152613aa18382846138c8565b92505050613ab260808401846137ca565b8583036080870152613ac5838284613929565b92505050613ad660a08401846137ca565b85830360a08701526133ad8382846139c4565b83815261ffff83166020820152606060408201526000610e3b6060830184613a18565b81835260006001600160fb1b03831115613b2557600080fd5b8260051b80836020870137939093016020019392505050565b8183526000602080850194508260005b85811015613240576001600160401b03613b678361311e565b1687529582019590820190600101613b4e565b8b815261ffff8b16602082015260e060408201526000613b9e60e083018b8d613b0c565b8281036060840152613bb1818a8c613b3e565b90508281036080840152613bc681888a613b3e565b905082810360a0840152613bdb818688613891565b9150508260c08301529c9b505050505050505050505050565b6000838385526020808601955060208560051b8301018460005b8781101561391c57848303601f19018952613c2982886137ca565b613c34858284613b0c565b9a86019a9450505090830190600101613c0e565b6000838385526020808601955060208560051b8301018460005b8781101561391c57848303601f19018952613c7d82886137ca565b613c88858284613b3e565b9a86019a9450505090830190600101613c62565b6000613ca882836137ca565b60e08552613cba60e086018284613812565b915050613cca60208401846137ca565b8583036020870152613cdd83828461384b565b92505050613cee60408401846137ca565b8583036040870152613d01838284613812565b92505050613d1260608401846137ca565b8583036060870152613d25838284613bf4565b92505050613d3660808401846137ca565b8583036080870152613d498382846138c8565b92505050613d5a60a08401846137ca565b85830360a0870152613d6d838284613c48565b92505050613d7e60c08401846137ca565b85830360c08701526133ad838284613c48565b83815261ffff83166020820152606060408201526000610e3b6060830184613c9c565b6001600160a01b03929092168252602082015260400190565b8051612d2c81612ce2565b600060a08284031215613dea57600080fd5b60405160a081018181106001600160401b0382111715613e0c57613e0c612ef5565b6040528251613e1a81612ce2565b81526020830151613e2a81612ce2565b60208201526040830151613e3d81612ce2565b60408201526060830151613e5081612ce2565b60608201526080830151613e6381612ce2565b60808201529392505050565b600060208284031215613e8157600080fd5b815161099f81613135565b60008383855260208086019550808560051b830101846000805b88811015613f0c57858403601f19018a52613ec183896137ca565b808652868601845b82811015613ef7578335613edc81612ee0565b6001600160a01b031682529288019290880190600101613ec9565b509b87019b9550505091840191600101613ea6565b509198975050505050505050565b6000613f2682836137ca565b60c08552613f3860c086018284613812565b9150506020613f49818501856137ca565b86840383880152613f5b84828461384b565b93505050613f6c60408501856137ca565b8684036040880152613f7f848284613812565b93505050613f9060608501856137ca565b8684036060880152613fa3848284613e8c565b93505050613fb460808501856137ca565b8684036080880152808452828401600582901b850184018360005b8481101561403b57878303601f19018452613fea82876137ca565b80855288850160005b828110156140265783356001600160581b03811680821461401357600080fd5b835250928a0192908a0190600101613ff3565b50958901959450505090860190600101613fcf565b505061404a60a08901896137ca565b9650945088810360a08a01526140618187876138c8565b9998505050505050505050565b83815261ffff83166020820152606060408201526000610e3b6060830184613f1a565b600061409d82836137ca565b60a085526140af60a086018284613812565b91505060206140c0818501856137ca565b868403838801526140d284828461384b565b935050506140e360408501856137ca565b86840360408801526140f6848284613812565b9350505061410760608501856137ca565b868403606088015261411a848284613bf4565b9350505061412b60808501856137ca565b8684036080880152808452828401600582901b850184018360005b848110156141ac57878303601f1901845261416182876137ca565b80855288850160005b828110156141975783358060010b80821461418457600080fd5b835250928a0192908a019060010161416a565b50958901959450505090860190600101614146565b50909998505050505050505050565b634e487b7160e01b600052602160045260246000fd5b84815261ffff841660208201526080604082015260006141f46080830185614091565b905060068310614206576142066141bb565b82606083015295945050505050565b8183526000602080850194508260005b8581101561324057813561423881612ce2565b63ffffffff1687529582019590820190600101614225565b6000838385526020808601955060208560051b8301018460005b8781101561391c57848303601f1901895261428582886137ca565b614290858284614215565b9a86019a945050509083019060010161426a565b60006101a06142b383846137ca565b8286526142c38387018284613812565b925050506142d460208401846137ca565b85830360208701526142e783828461384b565b925050506142f860408401846137ca565b858303604087015261430b838284613812565b9250505061431c60608401846137ca565b858303606087015261432f838284613929565b9250505061434060808401846137ca565b85830360808701526143538382846139c4565b9250505061436460a08401846137ca565b85830360a0870152614377838284614215565b9250505061438860c08401846137ca565b85830360c087015261439b83828461398c565b925050506143ac60e08401846137ca565b85830360e08701526143bf83828461398c565b925050506101006143d2818501856137ca565b868403838801526143e484828461398c565b93505050506101206143f8818501856137ca565b8684038388015261440a84828461398c565b935050505061014061441e818501856137ca565b8684038388015261443084828461398c565b9350505050610160614444818501856137ca565b86840383880152614456848284613e8c565b935050505061018061446a818501856137ca565b86840383880152611c79848284614250565b83815261ffff83166020820152606060408201526000610e3b60608301846142a4565b8183526000602080850194508260005b858110156132405781356144c281612d11565b61ffff16875295820195908201906001016144af565b8881526000602061ffff8a16602084015260a060408401526144fe60a08401898b61449f565b8381036060850152868152879060200160005b8881101561453957823561452481613135565b60ff1682529183019190830190600101614511565b5084810360808601526114a681878961449f565b600061455982836137ca565b6060855261456b606086018284613812565b91505061457b60208401846137ca565b858303602087015261458e83828461384b565b9250505061459f60408401846137ca565b85830360408701526133ad838284614250565b83815261ffff83166020820152606060408201526000610e3b606083018461454d565b60006145e182836137ca565b60a085526145f360a086018284613812565b9150506020614604818501856137ca565b8684038388015261461684828461384b565b9350505061462760408501856137ca565b868403604088015261463a848284613812565b9350505061464b60608501856137ca565b868403606088015261465e84828461384b565b9350505061466f60808501856137ca565b8684036080880152808452828401600582901b850184018360005b848110156141ac57878303601f190184526146a582876137ca565b6146b0858284613812565b95890195945050509086019060010161468a565b83815261ffff83166020820152606060408201526000610e3b60608301846145d5565b60006146f382836137ca565b60c0855261470560c086018284613812565b91505061471560208401846137ca565b858303602087015261472883828461384b565b9250505061473960408401846137ca565b858303604087015261474c838284613812565b9250505061475d60608401846137ca565b8583036060870152614770838284613e8c565b9250505061478160808401846137ca565b85830360808701526147948382846138c8565b925050506147a560a08401846137ca565b85830360a08701526133ad8382846138c8565b83815261ffff83166020820152606060408201526000610e3b60608301846146e7565b60006147e782836137ca565b60c085526147f960c086018284613812565b91505061480960208401846137ca565b858303602087015261481c83828461384b565b9250505061482d60408401846137ca565b8583036040870152614840838284613812565b9250505061485160608401846137ca565b8583036060870152614864838284614215565b9250505061487560808401846137ca565b8583036080870152614888838284614215565b9250505061489960a08401846137ca565b85830360a08701526133ad838284613891565b83815261ffff83166020820152606060408201526000610e3b60608301846147db565b60008235605e198336030181126148e557600080fd5b90910192915050565b60006148fa82836137ca565b6060855261490c606086018284613812565b91505061491c60208401846137ca565b858303602087015261492f83828461384b565b9250505061494060408401846137ca565b85830360408701526133ad838284613812565b60008235609e198336030181126148e557600080fd5b6000823560be198336030181126148e557600080fd5b6000823560de198336030181126148e557600080fd5b60006149a182836137ca565b60c085526149b360c086018284613812565b9150506149c360208401846137ca565b85830360208701526149d683828461384b565b925050506149e760408401846137ca565b85830360408701526149fa838284613812565b92505050614a0b60608401846137ca565b8583036060870152614a1e838284613929565b92505050614a2f60808401846137ca565b8583036080870152614794838284613c48565b6000823561019e198336030181126148e557600080fd5b82815260406020820152614a7b60408201614a7384612d21565b61ffff169052565b6000614a8a60208401846137ca565b6102c0806060860152614aa261030086018385613b0c565b9250614ab160408701876137ca565b9250603f1980878603016080880152614acb858584613b3e565b9450614ada60608901896137ca565b94509150808786030160a0880152614af3858584613b3e565b9450614b0260808901896137ca565b94509150808786030160c0880152614b1b858584613891565b945060a088013560e0880152614b3460c08901896148cf565b93506101009150808786030182880152614b4e85856148ee565b9450614b5d60e0890189614953565b9350610120818887030181890152614b7586866145d5565b9550614b83838a018a614969565b94506101409250818887030183890152614b9d8686613a18565b9550614bab818a018a614969565b945050610160818887030181890152614bc486866146e7565b9550614bd2838a018a614969565b94506101809250818887030183890152614bec8686613f1a565b9550614bfa818a018a614969565b9450506101a0818887030181890152614c1386866147db565b9550614c21838a018a61497f565b94506101c09250818887030183890152614c3b8686613c9c565b9550614c49818a018a61497f565b9450506101e0818887030181890152614c628686613c9c565b9550614c70838a018a614969565b94506102009250818887030183890152614c8a8686614995565b9550614c98818a018a6148cf565b945050610220818887030181890152614cb1868661454d565b9550614cbf838a018a614a42565b94506102409250818887030183890152614cd986866142a4565b9550614ce7818a018a614a42565b945050610260818887030181890152614d0086866142a4565b9550614d0e838a018a614953565b94506102809250818887030183890152614d288686614091565b9550614d36818a018a614953565b9450506102a0818887030181890152614d4f8686614091565b9550614d5d838a018a614953565b9450818887030184890152614d728686614091565b9550614d80818a018a614953565b94505080878603016102e08801525050506133ad8282614091565b634e487b7160e01b600052603260045260246000fd5b83815261ffff83166020820152606060408201526000610e3b6060830184614995565b8051612d2c81613883565b600060208284031215614df157600080fd5b815161099f81613883565b600060208284031215614e0e57600080fd5b5051919050565b6001600160a01b039390931683526020830191909152604082015260600190565b805182526020810151602083015260408101516040830152606081015160608301526080810151614e6a60808401826131f9565b5060a0810151614e7d60a08401826131f9565b5060c0810151614e9060c08401826131f9565b5060e0810151614ea360e08401826131f9565b5061010080820151614eb7828501826131f9565b505061012080820151614ecc828501826131f9565b505061014080820151614ee1828501826131f9565b50506101608181015160ff90811691840191909152610180808301518216908401526101a080830151909116908301526101c08082015161ffff908116918401919091526101e080830151821690840152610200808301518216908401526102208083015182169084015261024080830151909116908301526102608082015163ffffffff90811691840191909152610280808301516001600160401b0316908401526102a08083015164ffffffffff16908401526102c0808301516001600160501b0316908401526102e09182015180518216928401929092526020820151811661030084015260408201518116610320840152606082015181166103408401526080909101511661036090910152565b6103a081016150028285614e36565b826103808301529392505050565b60006020828403121561502257600080fd5b81516008811061099f57600080fd5b6103c0810160088510615046576150466141bb565b84825283602083015261064e6040830184614e36565b60006001600160401b0382111561507557615075612ef5565b5060051b60200190565b600082601f83011261509057600080fd5b815160206150a56150a08361505c565b612f34565b8083825260208201915060208460051b8701019350868411156150c757600080fd5b602086015b848110156150ec5780516150df81612ee0565b83529183019183016150cc565b509695505050505050565b8051612d2c8161397d565b600082601f83011261511357600080fd5b815160206151236150a08361505c565b8083825260208201915060208460051b87010193508684111561514557600080fd5b602086015b848110156150ec57805161515d81612ce2565b835291830191830161514a565b8051612d2c81612d11565b600082601f83011261518657600080fd5b815160206151966150a08361505c565b8083825260208201915060208460051b8701019350868411156151b857600080fd5b602086015b848110156150ec5780516151d081612d11565b83529183019183016151bd565b6000806000606084860312156151f257600080fd5b83516001600160401b038082111561520957600080fd5b908501906101c0828803121561521e57600080fd5b615226612f0b565b61522f83614dd4565b815261523d60208401614dd4565b602082015261524e604084016137a2565b604082015260608301518281111561526557600080fd5b6152718982860161507f565b606083015250615283608084016150f7565b608082015261529460a084016150f7565b60a08201526152a560c084016150f7565b60c08201526152b660e084016150f7565b60e08201526101006152c98185016150f7565b908201526101206152db848201613dcd565b908201526101406152ed848201613dcd565b90820152610160838101519082015261018080840151908201526101a0808401518381111561531b57600080fd5b6153278a828701615102565b8284015250508095505061533d6020870161516a565b9350604086015191508082111561535357600080fd5b5061536086828701615175565b9150509250925092565b6000602080838503121561537d57600080fd5b82516001600160401b0381111561539357600080fd5b8301601f810185136153a457600080fd5b80516153b26150a08261505c565b81815260059190911b820183019083810190878311156153d157600080fd5b928401925b82841015611c795783516153e981613135565b825292840192908401906153d6565b60008261541557634e487b7160e01b600052601260045260246000fd5b50069056fe22573091f17911fb166032a3d9e0554aa73d31b7b7ddea4a4dd2995650af84bda264697066735822122070a601f578c656b8164379610e42e5fc7d4d50d20472e35147461b004831360564736f6c63430008170033",
  "deployedBytecode": "0x608060405234801561001057600080fd5b50600436106102295760003560e01c80637cc9638011610131578063cb90acc0116100b3578063cb90acc014610500578063d02a74a414610513578063d6dd327314610526578063dce9127214610539578063dee1f0e41461054c578063e08868ae1461055f578063e893564714610572578063ef76796114610592578063f660b274146105a5578063f77c4791146105b8578063ffa1ad74146105c057600080fd5b80637cc963801461041a5780637f9e78a21461042257806384ff97d414610435578063889700641461044857806392b6c5cf1461045b578063936725ec1461046e5780639d0bcca01461049f578063aa1293d9146104b4578063ac62e9f9146104c7578063b429afeb146104da578063bc982d2b146104ed57600080fd5b80631c1b0daa116101ba5780631c1b0daa1461032a578063325a19f11461034a5780633ed2f89a146103525780634593144c1461036557806349a8ccd51461036d5780634fac6ccd14610393578063509a093f146103a6578063656218ff146103ce5780636eee5afe146103e157806373aeb392146103f4578063788a2d2e1461040757600080fd5b806305f922391461022e5780630c0e97dd146102435780630cac0c1f1461025657806312a554ec14610269578063150b7a021461028f578063152f74f0146102bb57806318daea98146102de57806319ab453c146102f15780631a94214a146103045780631aab826a14610317575b600080fd5b61024161023c366004612cf4565b6105e4565b005b610241610251366004612d49565b6105f8565b610241610264366004612de3565b61060e565b61027c610277366004612ec3565b610634565b6040519081526020015b60405180910390f35b6102a261029d366004612fd3565b610645565b6040516001600160e01b03199091168152602001610286565b6102ce6102c936600461303e565b610656565b6040519015158152602001610286565b61027c6102ec366004612ec3565b61066b565b6102416102ff36600461307f565b610676565b61024161031236600461309c565b610770565b6102416103253660046130c8565b610782565b61033d610338366004613144565b610794565b6040516102869190613282565b61027c6107c3565b6102ce610360366004612cf4565b6107fc565b61027c610807565b61038061037b366004612cf4565b610837565b60405161ffff9091168152602001610286565b6102416103a136600461307f565b610842565b6103b96103b4366004612ec3565b610953565b60405163ffffffff9091168152602001610286565b6102416103dc366004612d49565b61095e565b61027c6103ef366004612ec3565b610970565b6102416104023660046133c9565b61097b565b61027c61041536600461309c565b610993565b61027c6109a6565b610241610430366004613430565b6109c4565b61024161044336600461347c565b6109d6565b61024161045636600461309c565b6109f6565b61038061046936600461353f565b610a08565b610492604051806040016040528060058152602001640312e302e360dc1b81525081565b604051610286919061357d565b6104a7610a15565b60405161028691906135cc565b6102416104c23660046135e0565b610a45565b6102416104d536600461362b565b610a57565b6102ce6104e836600461307f565b610a69565b6102416104fb366004612d49565b610a8e565b61024161050e366004613670565b610aa0565b610241610521366004612d49565b610ab3565b6102416105343660046136a0565b610ac5565b6102416105473660046130c8565b610ad6565b6102ce61055a36600461307f565b610ae8565b61027c61056d36600461309c565b610b6d565b6105856105803660046136db565b610b79565b6040516102869190613722565b6102416105a0366004612d49565b610b8e565b6102416105b3366004613430565b610ba0565b6104a7610bb2565b61049260405180604001604052806005815260200164322e312e3160d81b81525081565b6105f56105ef610bb2565b82610be2565b50565b61060a610603610bb2565b8383610c65565b5050565b610628610619610bb2565b8b8b8b8b8b8b8b8b8b8b610cdc565b50505050505050505050565b600061063f82610d74565b92915050565b630a85bd0160e11b5b949350505050565b600061064e610663610bb2565b858585610d9d565b600061063f82610e44565b6000610680610e6d565b805490915060ff600160401b82041615906001600160401b03166000811580156106a75750825b90506000826001600160401b031660011480156106c35750303b155b9050811580156106d1575080155b156106ef5760405163f92ee8a960e01b815260040160405180910390fd5b845467ffffffffffffffff19166001178555831561071957845460ff60401b1916600160401b1785555b61072286610e91565b831561076857845460ff60401b19168555604051600181527fc7f505b2f371ae2175ee4913f4499e1f2633a7b5936321eed1cdaeb6115181d29060200160405180910390a15b505050505050565b61060a61077b610bb2565b8383610ea2565b61060a61078d610bb2565b8383610f02565b61079c612c6c565b6107b56107a7610bb2565b8b8b8b8b8b8b8b8b8b610f4d565b9a9950505050505050505050565b60006107f76107f360017f6f55f470bdc9cb5f04223fd822021061668e4dccb43e8727b295106dc9769c8b61377c565b5490565b905090565b600061063f826114b7565b60006107f76107f360017f812a673dfca07956350df10f8a654925f561d7a0da09bdbe79e653939a14d9f161377c565b600061063f826114e3565b3330146108945760405162461bcd60e51b815260206004820152601b60248201527a24b731b932b0b9b2903932bb34b9b4b7b7103337b93134b23232b760291b60448201526064015b60405180910390fd5b60006108b26107f3600160008051602061541b83398151915261377c565b6108bd90600161378f565b90506108df816108dc600160008051602061541b83398151915261377c565b55565b61090e826108dc60017fbfaaa2fb63266ff27c2da975f5894955056f50419af651a81f6c5060581857e461377c565b604080518281526001600160a01b03841660208201527ff27e2ef832a4eb8ed8ec553b875eecd44764cda95b1c24170e281539e0a869c8910160405180910390a15050565b600061063f8261150d565b61060a610969610bb2565b838361153a565b600061063f82611585565b61098e610986610bb2565b8484846115ac565b505050565b600061099f838361162f565b9392505050565b60006107f76107f3600160008051602061541b83398151915261377c565b61060a6109cf610bb2565b838361165a565b6109ed6109e1610bb2565b888888888888886116a5565b50505050505050565b61060a610a01610bb2565b8383611734565b600061064e84848461175f565b60006107f76107f360017fbfaaa2fb63266ff27c2da975f5894955056f50419af651a81f6c5060581857e461377c565b61060a610a50610bb2565b838361178e565b61060a610a62610bb2565b83836117d9565b6000610a73610bb2565b6001600160a01b0316826001600160a01b0316149050919050565b61060a610a99610bb2565b8383611824565b61098e610aab610bb2565b84848461186f565b61060a610abe610bb2565b83836118db565b6105f5610ad0610bb2565b82611926565b61060a610ae1610bb2565b838361196f565b6000816001600160a01b0316610afc610bb2565b6001600160a01b0316635aa6e6756040518163ffffffff1660e01b8152600401602060405180830381865afa158015610b39573d6000803e3d6000fd5b505050506040513d601f19601f82011682018060405250810190610b5d91906137ad565b6001600160a01b03161492915050565b600061099f838361199a565b606061064e610b86610bb2565b8585856119c5565b61060a610b99610bb2565b8383611c84565b61060a610bab610bb2565b8383611ccf565b60006107f76107f360017f5165972ef41194f06c5007493031d0b927c20741adcb74403b954009fd2c361861377c565b610beb82611cfa565b73__$418e69fab995b7bcb2c7cc5bb73ada6f02$__63a913674b610c0d611d86565b6040516001600160e01b031960e084901b168152600481019190915263ffffffff841660248201526044015b60006040518083038186803b158015610c5157600080fd5b505af4158015610768573d6000803e3d6000fd5b610c6e83611cfa565b73__$418e69fab995b7bcb2c7cc5bb73ada6f02$__63a84d660c610c90611d86565b84846040518463ffffffff1660e01b8152600401610cb093929190613ae9565b60006040518083038186803b158015610cc857600080fd5b505af41580156109ed573d6000803e3d6000fd5b610ce58b611cfa565b73__$418e69fab995b7bcb2c7cc5bb73ada6f02$__63ca473936610d07611d86565b8c8c8c8c8c8c8c8c8c8c6040518c63ffffffff1660e01b8152600401610d379b9a99989796959493929190613b7a565b60006040518083038186803b158015610d4f57600080fd5b505af4158015610d63573d6000803e3d6000fd5b505050505050505050505050505050565b600061063f610d81611d86565b61ffff8416600090815260049190910160205260409020611daa565b6000610e3b610daa611d86565b610db2611d86565b63ffffffff871660009081526020918252604090819020548151628e969160e01b8152915161ffff90911692889288926001600160a01b038d1692628e969192600480820193918290030181865afa158015610e12573d6000803e3d6000fd5b505050506040513d601f19601f82011682018060405250810190610e3691906137ad565b611db4565b95945050505050565b600061063f610e51611d86565b61ffff8416600090815260059190910160205260409020611daa565b7ff0c57e16840df040f15088dc2f81fe391c3923bec73e23a9662efc9c229c6a0090565b610e99612037565b6105f58161205e565b610eab83611cfa565b73__$418e69fab995b7bcb2c7cc5bb73ada6f02$__633e8dd868610ecd611d86565b6040516001600160e01b031960e084901b168152600481019190915261ffff8516602482015260448101849052606401610cb0565b610f0b83611cfa565b73__$418e69fab995b7bcb2c7cc5bb73ada6f02$__6301c7664c610f2d611d86565b84846040518463ffffffff1660e01b8152600401610cb093929190613d91565b610f55612c6c565b336001600160a01b03168b6001600160a01b03166389dd9f136040518163ffffffff1660e01b8152600401602060405180830381865afa158015610f9d573d6000803e3d6000fd5b505050506040513d601f19601f82011682018060405250810190610fc191906137ad565b6001600160a01b031614610fea57336040516309f23ad160e41b815260040161088b91906135cc565b60008b6001600160a01b0316628e96916040518163ffffffff1660e01b8152600401602060405180830381865afa158015611029573d6000803e3d6000fd5b505050506040513d601f19601f8201168201806040525081019061104d91906137ad565b905060006040518061030001604052808a815260200186815260200161107286612171565b81526020016000801b81526020018d6001600160a01b03168152602001896001600160a01b031681526020018e6001600160a01b03168152602001836001600160a01b031681526020018e6001600160a01b031663016dff5d6040518163ffffffff1660e01b8152600401602060405180830381865afa1580156110fa573d6000803e3d6000fd5b505050506040513d601f19601f8201168201806040525081019061111e91906137ad565b6001600160a01b031681526020018e6001600160a01b0316637dc0d1d06040518163ffffffff1660e01b8152600401602060405180830381865afa15801561116a573d6000803e3d6000fd5b505050506040513d601f19601f8201168201806040525081019061118e91906137ad565b6001600160a01b031681526020018e6001600160a01b03166331423c266040518163ffffffff1660e01b8152600401602060405180830381865afa1580156111da573d6000803e3d6000fd5b505050506040513d601f19601f820116820180604052508101906111fe91906137ad565b6001600160a01b03168152600060208201819052604082015260ff8816606082015260800161122b611d86565b63ffffffff8d166000818152602092835260408082205461ffff168552928401819052838301819052606084018190526080840181905260a08401919091526001600160401b038f1660c084015260e08301526001600160501b038a1661010083015251631a95890960e31b8152610120909101906001600160a01b0385169063d4ac4848906112c1908d908d90600401613db4565b60a060405180830381865afa1580156112de573d6000803e3d6000fd5b505050506040513d601f19601f820116820180604052508101906113029190613dd8565b8152509050806101c0015161ffff16600003611331576040516326358d7f60e21b815260040160405180910390fd5b8061010001516001600160a01b0316631789b7b1896040518263ffffffff1660e01b815260040161136291906135cc565b602060405180830381865afa15801561137f573d6000803e3d6000fd5b505050506040513d601f19601f820116820180604052508101906113a39190613e6f565b60ff166101608201526113b4611d86565b6040808301516000908152600992909201602052902054606082015261141b6113db611d86565b60190160006114038a856101c001518d6001600160a01b03166121879092919063ffffffff16565b81526020019081526020016000205490601082901c90565b64ffffffffff166102a083015261ffff166102408201526040810151601081901c602082901c602883901c846101e0018561020001866101800187610220018461ffff1661ffff168152508460ff1660ff168152508461ffff1661ffff168152508461ffff1661ffff16815250505050506114a6816114a18f846101c001518c8c6119c5565b6121ba565b9d9c50505050505050505050505050565b60006114c1611d86565b63ffffffff909216600090815260039290920160205250604090205460ff1690565b60006114ed611d86565b63ffffffff909216600090815260209290925250604090205461ffff1690565b6000611517611d86565b61ffff909216600090815260019290920160205250604090205463ffffffff1690565b61154383611cfa565b73__$418e69fab995b7bcb2c7cc5bb73ada6f02$__6356814190611565611d86565b84846040518463ffffffff1660e01b8152600401610cb09392919061406e565b600061158f611d86565b61ffff9092166000908152601a9290920160205250604090205490565b6115b584611cfa565b73__$418e69fab995b7bcb2c7cc5bb73ada6f02$__630324a18c6115d7611d86565b8585856040518563ffffffff1660e01b81526004016115f994939291906141d1565b60006040518083038186803b15801561161157600080fd5b505af4158015611625573d6000803e3d6000fd5b5050505050505050565b600061099f8261163d611d86565b61ffff861660009081526004919091016020526040902090612481565b61166383611cfa565b73__$418e69fab995b7bcb2c7cc5bb73ada6f02$__63b5083ab9611685611d86565b84846040518463ffffffff1660e01b8152600401610cb09392919061447c565b6116ae88611cfa565b73__$418e69fab995b7bcb2c7cc5bb73ada6f02$__6301c3192f6116d0611d86565b898989898989896040518963ffffffff1660e01b81526004016116fa9897969594939291906144d8565b60006040518083038186803b15801561171257600080fd5b505af4158015611726573d6000803e3d6000fd5b505050505050505050505050565b61173d83611cfa565b73__$418e69fab995b7bcb2c7cc5bb73ada6f02$__63b5287c91610ecd611d86565b600061178561176c611d86565b60190160006114036001600160a01b0388168787612187565b50949350505050565b61179783611cfa565b73__$418e69fab995b7bcb2c7cc5bb73ada6f02$__63d335b7f36117b9611d86565b84846040518463ffffffff1660e01b8152600401610cb0939291906145b2565b6117e283611cfa565b73__$418e69fab995b7bcb2c7cc5bb73ada6f02$__638cd5642c611804611d86565b84846040518463ffffffff1660e01b8152600401610cb0939291906146c4565b61182d83611cfa565b73__$418e69fab995b7bcb2c7cc5bb73ada6f02$__63679dde4c61184f611d86565b84846040518463ffffffff1660e01b8152600401610cb0939291906147b8565b61187884611cfa565b73__$418e69fab995b7bcb2c7cc5bb73ada6f02$__631c9a900861189a611d86565b6040516001600160e01b031960e084901b168152600481019190915261ffff8616602482015263ffffffff85166044820152606481018490526084016115f9565b6118e483611cfa565b73__$418e69fab995b7bcb2c7cc5bb73ada6f02$__636b6cc9f8611906611d86565b84846040518463ffffffff1660e01b8152600401610cb0939291906148ac565b61192f82611cfa565b73__$418e69fab995b7bcb2c7cc5bb73ada6f02$__639c9dc579611951611d86565b836040518363ffffffff1660e01b8152600401610c39929190614a59565b61197883611cfa565b73__$418e69fab995b7bcb2c7cc5bb73ada6f02$__63cbbefc28610f2d611d86565b600061099f826119a8611d86565b61ffff861660009081526005919091016020526040902090612481565b60606000856001600160a01b031663016dff5d6040518163ffffffff1660e01b8152600401602060405180830381865afa158015611a07573d6000803e3d6000fd5b505050506040513d601f19601f82011682018060405250810190611a2b91906137ad565b90506000611a53611a3a611d86565b60190160006114036001600160a01b038916888b612187565b5090506000611a60611d86565b6006016000611ae284866001600160a01b0316631789b7b18b6040518263ffffffff1660e01b8152600401611a9591906135cc565b602060405180830381865afa158015611ab2573d6000803e3d6000fd5b505050506040513d601f19601f82011682018060405250810190611ad69190613e6f565b61ffff8c16919061248d565b8152602001908152602001600020805480602002602001604051908101604052809291908181526020018280548015611b3a57602002820191906000526020600020905b815481526020019060010190808311611b26575b505050505090508051600003611bc657611b52611d86565b6006016000611b6661ffff8a16858361248d565b8152602001908152602001600020805480602002602001604051908101604052809291908181526020018280548015611bbe57602002820191906000526020600020905b815481526020019060010190808311611baa575b505050505090505b805115611c795760005b60018251611bde919061377c565b811015611c77576000611bfe8260018551611bf9919061377c565b6124b2565b9050828281518110611c1257611c12614d9b565b6020026020010151838281518110611c2c57611c2c614d9b565b6020026020010151848381518110611c4657611c46614d9b565b60200260200101858581518110611c5f57611c5f614d9b565b60209081029190910101919091525250600101611bd0565b505b979650505050505050565b611c8d83611cfa565b73__$418e69fab995b7bcb2c7cc5bb73ada6f02$__63c5828ff1611caf611d86565b84846040518463ffffffff1660e01b8152600401610cb093929190614db1565b611cd883611cfa565b73__$418e69fab995b7bcb2c7cc5bb73ada6f02$__63751dda43611685611d86565b604051631430d62960e21b81526001600160a01b038216906350c358a490611d269033906004016135cc565b602060405180830381865afa158015611d43573d6000803e3d6000fd5b505050506040513d601f19601f82011682018060405250810190611d679190614ddf565b6105f5573360405163451cea1760e11b815260040161088b91906135cc565b7f1fbca2ab9841348cca3f2687c48325e9989a76ad929b9970d1c11e233677cf0090565b600061063f825490565b61ffff841660009081526018860160205260408120548015801590611e4e5750604051631a95890960e31b815281906001600160a01b0385169063d4ac484890611e049089908990600401613db4565b60a060405180830381865afa158015611e21573d6000803e3d6000fd5b505050506040513d601f19601f82011682018060405250810190611e459190613dd8565b5163ffffffff16105b15611e5d576000915050610e3b565b61ffff861660009081526017880160205260408120805490915b81811015612027576000838281548110611e9357611e93614d9b565b6000918252602091829020604080518082019091526002909202018054808352600190910154928201929092529150611ecc575061201f565b6000806000611eee846020015190604082901c90608083901c60ff1660011490565b925092509250600081611f6c578451604051630a82c86160e01b815260048101919091526001600160a01b038c1690630a82c86190602401602060405180830381865afa158015611f43573d6000803e3d6000fd5b505050506040513d601f19601f82011682018060405250810190611f679190614dfc565b611fe1565b8a6001600160a01b0316631c2aafe78e8e88600001516040518463ffffffff1660e01b8152600401611fa093929190614e15565b602060405180830381865afa158015611fbd573d6000803e3d6000fd5b505050506040513d601f19601f82011682018060405250810190611fe19190614dfc565b9050836001600160401b03168110806120025750826001600160401b031681115b156120195760009950505050505050505050610e3b565b50505050505b600101611e77565b5060019998505050505050505050565b61203f6124e2565b61205c57604051631afcd79f60e31b815260040160405180910390fd5b565b6001600160a01b0381166120a65760405162461bcd60e51b815260206004820152600f60248201526e2d32b9379031b7b73a3937b63632b960891b604482015260640161088b565b6120d5816108dc60017f5165972ef41194f06c5007493031d0b927c20741adcb74403b954009fd2c361861377c565b612104426108dc60017f6f55f470bdc9cb5f04223fd822021061668e4dccb43e8727b295106dc9769c8b61377c565b612133436108dc60017f812a673dfca07956350df10f8a654925f561d7a0da09bdbe79e653939a14d9f161377c565b7f1a2dd071001ebf6e03174e3df5b305795a4ad5d41d8fdb9ba41dbbe23671342681424360405161216693929190614e15565b60405180910390a150565b60008180602001905181019061063f9190614dfc565b6001600160a01b039290921660a09190911b600160a01b600160f01b03161760f09190911b6001600160f01b0319161790565b6121c2612c6c565b60006121cc611d86565b9050825160000361221d5761026084015163ffffffff166101208301526102c08401516001600160501b031661016083015260a08401516001600160a01b031660408301526001602083015261245f565b836101e0015161ffff16846101c0015161ffff1614612269576101c08401516101e0850151604051636df9cb0960e11b815261ffff92831660048201529116602482015260440161088b565b83610200015161ffff1684610240015161ffff16146122b5576102408401516102008501516040516364f16ac560e01b815261ffff92831660048201529116602482015260440161088b565b6122c38385604001516124fc565b60608401516040805163be03c0c360e01b815291901c60ff166001149060009073__$178ac38bd41d46643174775c0e64a3f7b4$__9063be03c0c39061230f9089908790600401614ff3565b602060405180830381865af415801561232c573d6000803e3d6000fd5b505050506040513d601f19601f820116820180604052508101906123509190615010565b905061235c8684612551565b6000606073__$178ac38bd41d46643174775c0e64a3f7b4$__63341bebc884878b6040518463ffffffff1660e01b815260040161239b93929190615031565b600060405180830381865af41580156123b8573d6000803e3d6000fd5b505050506040513d6000823e601f3d908101601f191682016040526123e091908101906151dd565b9197509250905083806123f257508051155b15612403576001602087015261245a565b4260101b66ffffffffff00001661ffff8316178560190160006124488b6102c001518c6101c001518d60a001516001600160a01b03166121879092919063ffffffff16565b81526020810191909152604001600020555b505050505b81602001511561247a57612473848261284a565b6101a08301525b5092915050565b600061099f838361294b565b61ffff9290921660109190911b63ffff0000161760209190911b64ff00000000161790565b60008183106124c257508061063f565b60006124d66124d1858561377c565b612975565b905061064e818561378f565b60006124ec610e6d565b54600160401b900460ff16919050565b815160005b81811015612537578284828151811061251c5761251c614d9b565b60200260200101510361252f5750505050565b600101612501565b5060405163e378efef60e01b815260040160405180910390fd5b604080830151600090815260168301602052908120805490915b818110156128435760008060006125ad86858154811061258d5761258d614d9b565b906000526020600020015490600882901c90604883901c60ff1660011490565b925092509250816001600160401b0316600014158015612657575061012088015160405163018c895b60e21b815260006004820181905260646024830181905260448301919091526001600160401b038516926001600160a01b031691630632256c91016020604051808303816000875af1158015612630573d6000803e3d6000fd5b505050506040513d601f19601f820116820180604052508101906126549190614dfc565b11155b156128355760e088015160a08901516102c08a015160405163fbed9ac560e01b81526000936001600160a01b03169263fbed9ac5926126b5926004016001600160a01b039290921682526001600160501b0316602082015260400190565b600060405180830381865afa1580156126d2573d6000803e3d6000fd5b505050506040513d6000823e601f3d908101601f191682016040526126fa919081019061536a565b80519091508015612832576000808660ff166000036127ad576101208c01516001600160a01b0316630632256c600061273460018761377c565b6040516001600160e01b031960e085901b16815260048101929092526024820152600060448201526064016020604051808303816000875af115801561277e573d6000803e3d6000fd5b505050506040513d601f19601f820116820180604052508101906127a29190614dfc565b9150600190506127f4565b60005b838110156127f2578760ff168582815181106127ce576127ce614d9b565b602002602001015160ff16036127ea57809250600191506127f2565b6001016127b0565b505b801561282f5761281d8c85848151811061281057612810614d9b565b6020026020010151612a0b565b841561282f5750505050505050612843565b50505b50505b50505080600101905061256b565b5050505050565b606081601901600061287e856102c00151866101c001518760a001516001600160a01b03166121879092919063ffffffff16565b8152602001908152602001600020600090558160080160006128ba8561024001516000876101c0015161ffff1661248d9092919063ffffffff16565b815260200190815260200160002080548060200260200160405190810160405280929190818152602001828054801561293e57602002820191906000526020600020906000905b82829054906101000a900463ffffffff1663ffffffff16815260200190600401906020826003010492830192600103820291508084116129015790505b5050505050905092915050565b600082600001828154811061296257612962614d9b565b9060005260206000200154905092915050565b60008160000361298757506000919050565b61299282600161378f565b4340414443423a5a6040516020016129e8979695949392919096875260609590951b6001600160601b0319166020870152603486019390935260548501919091526074840152609483015260b482015260d40190565b6040516020818303038152906040528051906020012060001c61063f91906153f8565b60e082015160a08301516102c0840151604051633bdb788b60e01b81526001600160a01b0392831660048201526001600160401b03909116602482015260ff841660448201526000928392612ab092911690633bdb788b90606401602060405180830381865afa158015612a83573d6000803e3d6000fd5b505050506040513d601f19601f82011682018060405250810190612aa79190614dfc565b9060a082901c90565b61014086015160a08701516102c0880151604051631af6585960e01b81526001600160a01b0380871660048301526024820186905292831660448201526001600160501b03909116606482015260ff881660848201523060a4820152600060c48201529395509193501690631af658599060e401600060405180830381600087803b158015612b3e57600080fd5b505af1158015612b52573d6000803e3d6000fd5b505050508361014001516001600160a01b031663a24835d183836040518363ffffffff1660e01b8152600401612b89929190613db4565b600060405180830381600087803b158015612ba357600080fd5b505af1158015612bb7573d6000803e3d6000fd5b5050505060a0848101516102c086015161028087015161026088015188516020808b0151604080516001600160a01b0398891681526001600160501b03909716928701929092526001600160401b039094169085015263ffffffff9091166060840152928616608083015292810184905260c081019190915260e08101919091527fdb9d6e401acb3147153857557ad8bbec7bc628d66296e6a3588b8c8ea763268c906101000160405180910390a150505050565b604080516101c08101825260008082526020820181905291810182905260608082018190526080820183905260a0820183905260c0820183905260e0820183905261010082018390526101208201839052610140820183905261016082018390526101808201929092526101a081019190915290565b63ffffffff811681146105f557600080fd5b600060208284031215612d0657600080fd5b813561099f81612ce2565b61ffff811681146105f557600080fd5b8035612d2c81612d11565b919050565b600060c08284031215612d4357600080fd5b50919050565b60008060408385031215612d5c57600080fd5b8235612d6781612d11565b915060208301356001600160401b03811115612d8257600080fd5b612d8e85828601612d31565b9150509250929050565b60008083601f840112612daa57600080fd5b5081356001600160401b03811115612dc157600080fd5b6020830191508360208260051b8501011115612ddc57600080fd5b9250929050565b60008060008060008060008060008060c08b8d031215612e0257600080fd5b612e0b8b612d21565b995060208b01356001600160401b0380821115612e2757600080fd5b612e338e838f01612d98565b909b50995060408d0135915080821115612e4c57600080fd5b612e588e838f01612d98565b909950975060608d0135915080821115612e7157600080fd5b612e7d8e838f01612d98565b909750955060808d0135915080821115612e9657600080fd5b50612ea38d828e01612d98565b9150809450508092505060a08b013590509295989b9194979a5092959850565b600060208284031215612ed557600080fd5b813561099f81612d11565b6001600160a01b03811681146105f557600080fd5b634e487b7160e01b600052604160045260246000fd5b6040516101c081016001600160401b0381118282101715612f2e57612f2e612ef5565b60405290565b604051601f8201601f191681016001600160401b0381118282101715612f5c57612f5c612ef5565b604052919050565b600082601f830112612f7557600080fd5b81356001600160401b03811115612f8e57612f8e612ef5565b612fa1601f8201601f1916602001612f34565b818152846020838601011115612fb657600080fd5b816020850160208301376000918101602001919091529392505050565b60008060008060808587031215612fe957600080fd5b8435612ff481612ee0565b9350602085013561300481612ee0565b92506040850135915060608501356001600160401b0381111561302657600080fd5b61303287828801612f64565b91505092959194509250565b60008060006060848603121561305357600080fd5b833561305e81612ce2565b9250602084013561306e81612ee0565b929592945050506040919091013590565b60006020828403121561309157600080fd5b813561099f81612ee0565b600080604083850312156130af57600080fd5b82356130ba81612d11565b946020939093013593505050565b600080604083850312156130db57600080fd5b82356130e681612d11565b915060208301356001600160401b0381111561310157600080fd5b830160e0818603121561311357600080fd5b809150509250929050565b80356001600160401b0381168114612d2c57600080fd5b60ff811681146105f557600080fd5b60008060008060008060008060006101208a8c03121561316357600080fd5b893561316e81612ee0565b985061317c60208b0161311e565b975060408a013561318c81612ce2565b965060608a0135955060808a01356131a381612ee0565b945060a08a0135935060c08a01356131ba81613135565b925060e08a013591506101008a01356001600160401b038111156131dd57600080fd5b6131e98c828d01612f64565b9150509295985092959850929598565b6001600160a01b03169052565b60008151808452602080850194506020840160005b838110156132405781516001600160a01b03168752958201959082019060010161321b565b509495945050505050565b60008151808452602080850194506020840160005b8381101561324057815163ffffffff1687529582019590820190600101613260565b6020815261329560208201835115159052565b600060208301516132aa604084018215159052565b5060408301516132bd60608401826131f9565b5060608301516101c08060808501526132da6101e0850183613206565b915060808501516132f060a086018260030b9052565b5060a085015161330560c086018260030b9052565b5060c085015161331a60e086018260030b9052565b5060e08501516101006133318187018360030b9052565b86015190506101206133478682018360030b9052565b86015190506101406133608682018363ffffffff169052565b86015190506101606133798682018363ffffffff169052565b860151610180868101919091528601516101a080870191909152860151858403601f19018387015290506133ad838261324b565b9695505050505050565b600060a08284031215612d4357600080fd5b6000806000606084860312156133de57600080fd5b83356133e981612d11565b925060208401356001600160401b0381111561340457600080fd5b613410868287016133b7565b92505060408401356006811061342557600080fd5b809150509250925092565b6000806040838503121561344357600080fd5b823561344e81612d11565b915060208301356001600160401b0381111561346957600080fd5b83016101a0818603121561311357600080fd5b60008060008060008060006080888a03121561349757600080fd5b87356134a281612d11565b965060208801356001600160401b03808211156134be57600080fd5b6134ca8b838c01612d98565b909850965060408a01359150808211156134e357600080fd5b6134ef8b838c01612d98565b909650945060608a013591508082111561350857600080fd5b506135158a828b01612d98565b989b979a50959850939692959293505050565b80356001600160501b0381168114612d2c57600080fd5b60008060006060848603121561355457600080fd5b833561355f81612ee0565b925061356d60208501613528565b9150604084013561342581612d11565b60006020808352835180602085015260005b818110156135ab5785810183015185820160400152820161358f565b506000604082860101526040601f19601f8301168501019250505092915050565b6001600160a01b0391909116815260200190565b600080604083850312156135f357600080fd5b82356135fe81612d11565b915060208301356001600160401b0381111561361957600080fd5b83016060818603121561311357600080fd5b6000806040838503121561363e57600080fd5b823561364981612d11565b915060208301356001600160401b0381111561366457600080fd5b612d8e858286016133b7565b60008060006060848603121561368557600080fd5b833561369081612d11565b9250602084013561306e81612ce2565b6000602082840312156136b257600080fd5b81356001600160401b038111156136c857600080fd5b82016102c0818503121561099f57600080fd5b6000806000606084860312156136f057600080fd5b83356136fb81612d11565b9250602084013561370b81612ee0565b915061371960408501613528565b90509250925092565b6020808252825182820181905260009190848201906040850190845b8181101561375a5783518352928401929184019160010161373e565b50909695505050505050565b634e487b7160e01b600052601160045260246000fd5b8181038181111561063f5761063f613766565b8082018082111561063f5761063f613766565b8051612d2c81612ee0565b6000602082840312156137bf57600080fd5b815161099f81612ee0565b6000808335601e198436030181126137e157600080fd5b83016020810192503590506001600160401b0381111561380057600080fd5b8060051b3603821315612ddc57600080fd5b8183526000602080850194508260005b8581101561324057813561383581612d11565b61ffff1687529582019590820190600101613822565b8183526000602080850194508260005b8581101561324057813561386e81613135565b60ff168752958201959082019060010161385b565b80151581146105f557600080fd5b8183526000602080850194508260005b858110156132405781356138b481613883565b1515875295820195908201906001016138a1565b6000838385526020808601955060208560051b8301018460005b8781101561391c57848303601f190189526138fd82886137ca565b613908858284613891565b9a86019a94505050908301906001016138e2565b5090979650505050505050565b6000838385526020808601955060208560051b8301018460005b8781101561391c57848303601f1901895261395e82886137ca565b61396985828461384b565b9a86019a9450505090830190600101613943565b8060030b81146105f557600080fd5b8183526000602080850194508260005b858110156132405781356139af8161397d565b60030b8752958201959082019060010161399c565b6000838385526020808601955060208560051b8301018460005b8781101561391c57848303601f190189526139f982886137ca565b613a0485828461398c565b9a86019a94505050908301906001016139de565b6000613a2482836137ca565b60c08552613a3660c086018284613812565b915050613a4660208401846137ca565b8583036020870152613a5983828461384b565b92505050613a6a60408401846137ca565b8583036040870152613a7d838284613812565b92505050613a8e60608401846137ca565b8583036060870152613aa18382846138c8565b92505050613ab260808401846137ca565b8583036080870152613ac5838284613929565b92505050613ad660a08401846137ca565b85830360a08701526133ad8382846139c4565b83815261ffff83166020820152606060408201526000610e3b6060830184613a18565b81835260006001600160fb1b03831115613b2557600080fd5b8260051b80836020870137939093016020019392505050565b8183526000602080850194508260005b85811015613240576001600160401b03613b678361311e565b1687529582019590820190600101613b4e565b8b815261ffff8b16602082015260e060408201526000613b9e60e083018b8d613b0c565b8281036060840152613bb1818a8c613b3e565b90508281036080840152613bc681888a613b3e565b905082810360a0840152613bdb818688613891565b9150508260c08301529c9b505050505050505050505050565b6000838385526020808601955060208560051b8301018460005b8781101561391c57848303601f19018952613c2982886137ca565b613c34858284613b0c565b9a86019a9450505090830190600101613c0e565b6000838385526020808601955060208560051b8301018460005b8781101561391c57848303601f19018952613c7d82886137ca565b613c88858284613b3e565b9a86019a9450505090830190600101613c62565b6000613ca882836137ca565b60e08552613cba60e086018284613812565b915050613cca60208401846137ca565b8583036020870152613cdd83828461384b565b92505050613cee60408401846137ca565b8583036040870152613d01838284613812565b92505050613d1260608401846137ca565b8583036060870152613d25838284613bf4565b92505050613d3660808401846137ca565b8583036080870152613d498382846138c8565b92505050613d5a60a08401846137ca565b85830360a0870152613d6d838284613c48565b92505050613d7e60c08401846137ca565b85830360c08701526133ad838284613c48565b83815261ffff83166020820152606060408201526000610e3b6060830184613c9c565b6001600160a01b03929092168252602082015260400190565b8051612d2c81612ce2565b600060a08284031215613dea57600080fd5b60405160a081018181106001600160401b0382111715613e0c57613e0c612ef5565b6040528251613e1a81612ce2565b81526020830151613e2a81612ce2565b60208201526040830151613e3d81612ce2565b60408201526060830151613e5081612ce2565b60608201526080830151613e6381612ce2565b60808201529392505050565b600060208284031215613e8157600080fd5b815161099f81613135565b60008383855260208086019550808560051b830101846000805b88811015613f0c57858403601f19018a52613ec183896137ca565b808652868601845b82811015613ef7578335613edc81612ee0565b6001600160a01b031682529288019290880190600101613ec9565b509b87019b9550505091840191600101613ea6565b509198975050505050505050565b6000613f2682836137ca565b60c08552613f3860c086018284613812565b9150506020613f49818501856137ca565b86840383880152613f5b84828461384b565b93505050613f6c60408501856137ca565b8684036040880152613f7f848284613812565b93505050613f9060608501856137ca565b8684036060880152613fa3848284613e8c565b93505050613fb460808501856137ca565b8684036080880152808452828401600582901b850184018360005b8481101561403b57878303601f19018452613fea82876137ca565b80855288850160005b828110156140265783356001600160581b03811680821461401357600080fd5b835250928a0192908a0190600101613ff3565b50958901959450505090860190600101613fcf565b505061404a60a08901896137ca565b9650945088810360a08a01526140618187876138c8565b9998505050505050505050565b83815261ffff83166020820152606060408201526000610e3b6060830184613f1a565b600061409d82836137ca565b60a085526140af60a086018284613812565b91505060206140c0818501856137ca565b868403838801526140d284828461384b565b935050506140e360408501856137ca565b86840360408801526140f6848284613812565b9350505061410760608501856137ca565b868403606088015261411a848284613bf4565b9350505061412b60808501856137ca565b8684036080880152808452828401600582901b850184018360005b848110156141ac57878303601f1901845261416182876137ca565b80855288850160005b828110156141975783358060010b80821461418457600080fd5b835250928a0192908a019060010161416a565b50958901959450505090860190600101614146565b50909998505050505050505050565b634e487b7160e01b600052602160045260246000fd5b84815261ffff841660208201526080604082015260006141f46080830185614091565b905060068310614206576142066141bb565b82606083015295945050505050565b8183526000602080850194508260005b8581101561324057813561423881612ce2565b63ffffffff1687529582019590820190600101614225565b6000838385526020808601955060208560051b8301018460005b8781101561391c57848303601f1901895261428582886137ca565b614290858284614215565b9a86019a945050509083019060010161426a565b60006101a06142b383846137ca565b8286526142c38387018284613812565b925050506142d460208401846137ca565b85830360208701526142e783828461384b565b925050506142f860408401846137ca565b858303604087015261430b838284613812565b9250505061431c60608401846137ca565b858303606087015261432f838284613929565b9250505061434060808401846137ca565b85830360808701526143538382846139c4565b9250505061436460a08401846137ca565b85830360a0870152614377838284614215565b9250505061438860c08401846137ca565b85830360c087015261439b83828461398c565b925050506143ac60e08401846137ca565b85830360e08701526143bf83828461398c565b925050506101006143d2818501856137ca565b868403838801526143e484828461398c565b93505050506101206143f8818501856137ca565b8684038388015261440a84828461398c565b935050505061014061441e818501856137ca565b8684038388015261443084828461398c565b9350505050610160614444818501856137ca565b86840383880152614456848284613e8c565b935050505061018061446a818501856137ca565b86840383880152611c79848284614250565b83815261ffff83166020820152606060408201526000610e3b60608301846142a4565b8183526000602080850194508260005b858110156132405781356144c281612d11565b61ffff16875295820195908201906001016144af565b8881526000602061ffff8a16602084015260a060408401526144fe60a08401898b61449f565b8381036060850152868152879060200160005b8881101561453957823561452481613135565b60ff1682529183019190830190600101614511565b5084810360808601526114a681878961449f565b600061455982836137ca565b6060855261456b606086018284613812565b91505061457b60208401846137ca565b858303602087015261458e83828461384b565b9250505061459f60408401846137ca565b85830360408701526133ad838284614250565b83815261ffff83166020820152606060408201526000610e3b606083018461454d565b60006145e182836137ca565b60a085526145f360a086018284613812565b9150506020614604818501856137ca565b8684038388015261461684828461384b565b9350505061462760408501856137ca565b868403604088015261463a848284613812565b9350505061464b60608501856137ca565b868403606088015261465e84828461384b565b9350505061466f60808501856137ca565b8684036080880152808452828401600582901b850184018360005b848110156141ac57878303601f190184526146a582876137ca565b6146b0858284613812565b95890195945050509086019060010161468a565b83815261ffff83166020820152606060408201526000610e3b60608301846145d5565b60006146f382836137ca565b60c0855261470560c086018284613812565b91505061471560208401846137ca565b858303602087015261472883828461384b565b9250505061473960408401846137ca565b858303604087015261474c838284613812565b9250505061475d60608401846137ca565b8583036060870152614770838284613e8c565b9250505061478160808401846137ca565b85830360808701526147948382846138c8565b925050506147a560a08401846137ca565b85830360a08701526133ad8382846138c8565b83815261ffff83166020820152606060408201526000610e3b60608301846146e7565b60006147e782836137ca565b60c085526147f960c086018284613812565b91505061480960208401846137ca565b858303602087015261481c83828461384b565b9250505061482d60408401846137ca565b8583036040870152614840838284613812565b9250505061485160608401846137ca565b8583036060870152614864838284614215565b9250505061487560808401846137ca565b8583036080870152614888838284614215565b9250505061489960a08401846137ca565b85830360a08701526133ad838284613891565b83815261ffff83166020820152606060408201526000610e3b60608301846147db565b60008235605e198336030181126148e557600080fd5b90910192915050565b60006148fa82836137ca565b6060855261490c606086018284613812565b91505061491c60208401846137ca565b858303602087015261492f83828461384b565b9250505061494060408401846137ca565b85830360408701526133ad838284613812565b60008235609e198336030181126148e557600080fd5b6000823560be198336030181126148e557600080fd5b6000823560de198336030181126148e557600080fd5b60006149a182836137ca565b60c085526149b360c086018284613812565b9150506149c360208401846137ca565b85830360208701526149d683828461384b565b925050506149e760408401846137ca565b85830360408701526149fa838284613812565b92505050614a0b60608401846137ca565b8583036060870152614a1e838284613929565b92505050614a2f60808401846137ca565b8583036080870152614794838284613c48565b6000823561019e198336030181126148e557600080fd5b82815260406020820152614a7b60408201614a7384612d21565b61ffff169052565b6000614a8a60208401846137ca565b6102c0806060860152614aa261030086018385613b0c565b9250614ab160408701876137ca565b9250603f1980878603016080880152614acb858584613b3e565b9450614ada60608901896137ca565b94509150808786030160a0880152614af3858584613b3e565b9450614b0260808901896137ca565b94509150808786030160c0880152614b1b858584613891565b945060a088013560e0880152614b3460c08901896148cf565b93506101009150808786030182880152614b4e85856148ee565b9450614b5d60e0890189614953565b9350610120818887030181890152614b7586866145d5565b9550614b83838a018a614969565b94506101409250818887030183890152614b9d8686613a18565b9550614bab818a018a614969565b945050610160818887030181890152614bc486866146e7565b9550614bd2838a018a614969565b94506101809250818887030183890152614bec8686613f1a565b9550614bfa818a018a614969565b9450506101a0818887030181890152614c1386866147db565b9550614c21838a018a61497f565b94506101c09250818887030183890152614c3b8686613c9c565b9550614c49818a018a61497f565b9450506101e0818887030181890152614c628686613c9c565b9550614c70838a018a614969565b94506102009250818887030183890152614c8a8686614995565b9550614c98818a018a6148cf565b945050610220818887030181890152614cb1868661454d565b9550614cbf838a018a614a42565b94506102409250818887030183890152614cd986866142a4565b9550614ce7818a018a614a42565b945050610260818887030181890152614d0086866142a4565b9550614d0e838a018a614953565b94506102809250818887030183890152614d288686614091565b9550614d36818a018a614953565b9450506102a0818887030181890152614d4f8686614091565b9550614d5d838a018a614953565b9450818887030184890152614d728686614091565b9550614d80818a018a614953565b94505080878603016102e08801525050506133ad8282614091565b634e487b7160e01b600052603260045260246000fd5b83815261ffff83166020820152606060408201526000610e3b6060830184614995565b8051612d2c81613883565b600060208284031215614df157600080fd5b815161099f81613883565b600060208284031215614e0e57600080fd5b5051919050565b6001600160a01b039390931683526020830191909152604082015260600190565b805182526020810151602083015260408101516040830152606081015160608301526080810151614e6a60808401826131f9565b5060a0810151614e7d60a08401826131f9565b5060c0810151614e9060c08401826131f9565b5060e0810151614ea360e08401826131f9565b5061010080820151614eb7828501826131f9565b505061012080820151614ecc828501826131f9565b505061014080820151614ee1828501826131f9565b50506101608181015160ff90811691840191909152610180808301518216908401526101a080830151909116908301526101c08082015161ffff908116918401919091526101e080830151821690840152610200808301518216908401526102208083015182169084015261024080830151909116908301526102608082015163ffffffff90811691840191909152610280808301516001600160401b0316908401526102a08083015164ffffffffff16908401526102c0808301516001600160501b0316908401526102e09182015180518216928401929092526020820151811661030084015260408201518116610320840152606082015181166103408401526080909101511661036090910152565b6103a081016150028285614e36565b826103808301529392505050565b60006020828403121561502257600080fd5b81516008811061099f57600080fd5b6103c0810160088510615046576150466141bb565b84825283602083015261064e6040830184614e36565b60006001600160401b0382111561507557615075612ef5565b5060051b60200190565b600082601f83011261509057600080fd5b815160206150a56150a08361505c565b612f34565b8083825260208201915060208460051b8701019350868411156150c757600080fd5b602086015b848110156150ec5780516150df81612ee0565b83529183019183016150cc565b509695505050505050565b8051612d2c8161397d565b600082601f83011261511357600080fd5b815160206151236150a08361505c565b8083825260208201915060208460051b87010193508684111561514557600080fd5b602086015b848110156150ec57805161515d81612ce2565b835291830191830161514a565b8051612d2c81612d11565b600082601f83011261518657600080fd5b815160206151966150a08361505c565b8083825260208201915060208460051b8701019350868411156151b857600080fd5b602086015b848110156150ec5780516151d081612d11565b83529183019183016151bd565b6000806000606084860312156151f257600080fd5b83516001600160401b038082111561520957600080fd5b908501906101c0828803121561521e57600080fd5b615226612f0b565b61522f83614dd4565b815261523d60208401614dd4565b602082015261524e604084016137a2565b604082015260608301518281111561526557600080fd5b6152718982860161507f565b606083015250615283608084016150f7565b608082015261529460a084016150f7565b60a08201526152a560c084016150f7565b60c08201526152b660e084016150f7565b60e08201526101006152c98185016150f7565b908201526101206152db848201613dcd565b908201526101406152ed848201613dcd565b90820152610160838101519082015261018080840151908201526101a0808401518381111561531b57600080fd5b6153278a828701615102565b8284015250508095505061533d6020870161516a565b9350604086015191508082111561535357600080fd5b5061536086828701615175565b9150509250925092565b6000602080838503121561537d57600080fd5b82516001600160401b0381111561539357600080fd5b8301601f810185136153a457600080fd5b80516153b26150a08261505c565b81815260059190911b820183019083810190878311156153d157600080fd5b928401925b82841015611c795783516153e981613135565b825292840192908401906153d6565b60008261541557634e487b7160e01b600052601260045260246000fd5b50069056fe22573091f17911fb166032a3d9e0554aa73d31b7b7ddea4a4dd2995650af84bda264697066735822122070a601f578c656b8164379610e42e5fc7d4d50d20472e35147461b004831360564736f6c63430008170033",
  "libraries": {
    "StoryLib": "0xcaC54849A53d23393C0212a937dEA42f402E99b5",
    "StorySetupLib": "0x1d21Db6cde1b18c7E47B0F7F42f4b3F68b9beeC9"
  },
  "devdoc": {
    "errors": {
      "InvalidInitialization()": [
        {
          "details": "The contract is already initialized."
        }
      ],
      "NotInitializing()": [
        {
          "details": "The contract is not initializing."
        }
      ]
    },
    "events": {
      "Initialized(uint64)": {
        "details": "Triggered when the contract has been initialized or reinitialized."
      }
    },
    "kind": "dev",
    "methods": {
      "created()": {
        "returns": {
          "_0": "Creation timestamp"
        }
      },
      "createdBlock()": {
        "returns": {
          "_0": "Creation block number"
        }
      },
      "increaseRevision(address)": {
        "details": "Revision should be increased on each contract upgrade"
      },
      "isController(address)": {
        "details": "Return true if given address is controller"
      },
      "onERC721Received(address,address,uint256,bytes)": {
        "details": "See {IERC721Receiver-onERC721Received}. Always returns `IERC721Receiver.onERC721Received.selector`."
      },
      "previousImplementation()": {
        "details": "Previous logic implementation"
      },
      "revision()": {
        "details": "Contract upgrade counter"
      }
    },
    "stateVariables": {
      "VERSION": {
        "details": "Should be incremented when contract changed"
      }
    },
    "version": 1
  },
  "userdoc": {
    "kind": "user",
    "methods": {
      "CONTROLLABLE_VERSION()": {
        "notice": "Version of the contract"
      },
      "VERSION()": {
        "notice": "Version of the contract"
      },
      "controller()": {
        "notice": "Return controller address saved in the contract slot"
      },
      "created()": {
        "notice": "Return creation timestamp"
      },
      "createdBlock()": {
        "notice": "Return creation block number"
      },
      "isGovernance(address)": {
        "notice": "Return true if given address is setup as governance in Controller"
      }
    },
    "version": 1
  },
  "storageLayout": {
    "storage": [],
    "types": null
  }
}