{
  "address": "0x560dcc947461B50DD718E7467b85CCe387bd553E",
  "abi": [
    {
      "inputs": [
        {
          "internalType": "bytes1",
          "name": "b",
          "type": "bytes1"
        }
      ],
      "name": "char",
      "outputs": [
        {
          "internalType": "bytes1",
          "name": "c",
          "type": "bytes1"
        }
      ],
      "stateMutability": "pure",
      "type": "function"
    },
    {
      "inputs": [
        {
          "internalType": "address",
          "name": "x",
          "type": "address"
        }
      ],
      "name": "toAsciiString",
      "outputs": [
        {
          "internalType": "string",
          "name": "",
          "type": "string"
        }
      ],
      "stateMutability": "pure",
      "type": "function"
    },
    {
      "inputs": [
        {
          "internalType": "uint256",
          "name": "value",
          "type": "uint256"
        }
      ],
      "name": "toString",
      "outputs": [
        {
          "internalType": "string",
          "name": "",
          "type": "string"
        }
      ],
      "stateMutability": "pure",
      "type": "function"
    }
  ],
  "transactionHash": "0xb9c1ceb4b39ae7f54479636407da5d21b4a7c7e3b76112d23f75bcf99dec1889",
  "args": [],
  "numDeployments": 1,
  "solcInputHash": "8591c9f00e01372e8f6dd13b570c9dc2",
  "bytecode": "0x61068c61003a600b82828239805160001a60731461002d57634e487b7160e01b600052600060045260246000fd5b30600052607381538281f3fe730000000000000000000000000000000000000000301460806040526004361061004b5760003560e01c80632c6e7598146100505780636900a3ae1461007957806369f9ad2f1461008c575b600080fd5b61006361005e36600461035e565b6100b8565b604051610070919061038e565b60405180910390f35b6100636100873660046103dd565b6100c9565b61009f61009a3660046103f6565b6100d4565b6040516001600160f81b03199091168152602001610070565b60606100c3826100df565b92915050565b60606100c38261021f565b60006100c382610328565b60408051602880825260608281019093526000919060208201818036833701905050905060005b601481101561021857600061011c82601361044c565b61012790600861045f565b61013290600261055a565b610145906001600160a01b03871661057c565b60f81b9050600060108260f81c61015c9190610590565b60f81b905060008160f81c601061017391906105b2565b8360f81c61018191906105ce565b60f81b905061018f82610328565b8561019b86600261045f565b815181106101ab576101ab6105e7565b60200101906001600160f81b031916908160001a9053506101cb81610328565b856101d786600261045f565b6101e29060016105fd565b815181106101f2576101f26105e7565b60200101906001600160f81b031916908160001a90535050600190920191506101069050565b5092915050565b6060816000036102465750506040805180820190915260018152600360fc1b602082015290565b8160005b8115610270578061025a81610610565b91506102699050600a8361057c565b915061024a565b60008167ffffffffffffffff81111561028b5761028b610420565b6040519080825280601f01601f1916602001820160405280156102b5576020820181803683370190505b5090505b8415610320576102ca60018361044c565b91506102d7600a86610629565b6102e29060306105fd565b60f81b8183815181106102f7576102f76105e7565b60200101906001600160f81b031916908160001a905350610319600a8661057c565b94506102b9565b949350505050565b6000600a60f883901c101561034f5761034660f883901c603061063d565b60f81b92915050565b61034660f883901c605761063d565b60006020828403121561037057600080fd5b81356001600160a01b038116811461038757600080fd5b9392505050565b60006020808352835180602085015260005b818110156103bc578581018301518582016040015282016103a0565b506000604082860101526040601f19601f8301168501019250505092915050565b6000602082840312156103ef57600080fd5b5035919050565b60006020828403121561040857600080fd5b81356001600160f81b03198116811461038757600080fd5b634e487b7160e01b600052604160045260246000fd5b634e487b7160e01b600052601160045260246000fd5b818103818111156100c3576100c3610436565b80820281158282048414176100c3576100c3610436565b600181815b808511156104b157816000190482111561049757610497610436565b808516156104a457918102915b93841c939080029061047b565b509250929050565b6000826104c8575060016100c3565b816104d5575060006100c3565b81600181146104eb57600281146104f557610511565b60019150506100c3565b60ff84111561050657610506610436565b50506001821b6100c3565b5060208310610133831016604e8410600b8410161715610534575081810a6100c3565b61053e8383610476565b806000190482111561055257610552610436565b029392505050565b600061038783836104b9565b634e487b7160e01b600052601260045260246000fd5b60008261058b5761058b610566565b500490565b600060ff8316806105a3576105a3610566565b8060ff84160491505092915050565b60ff818116838216029081169081811461021857610218610436565b60ff82811682821603908111156100c3576100c3610436565b634e487b7160e01b600052603260045260246000fd5b808201808211156100c3576100c3610436565b60006001820161062257610622610436565b5060010190565b60008261063857610638610566565b500690565b60ff81811683821601908111156100c3576100c361043656fea2646970667358221220e27d48c145a3b5dedd85d32e12f3cdac06027f343ff0cdac47af0ac15593386364736f6c63430008170033",
  "devdoc": {
    "kind": "dev",
    "methods": {
      "toString(uint256)": {
        "details": "Inspired by OraclizeAPI's implementation - MIT license      https://github.com/oraclize/ethereum-api/blob/b42146b063c7d6ee1358846c198246239e9360e8/oraclizeAPI_0.4.25.sol"
      }
    },
    "version": 1
  },
  "userdoc": {
    "kind": "user",
    "methods": {},
    "version": 1
  },
  "storageLayout": {
    "storage": [],
    "types": null
  }
}