{
  "address": "0x232cC35E4f68db73d7f361Fe1cFBD3b5B140e811",
  "abi": [
    {
      "inputs": [],
      "name": "ErrorNotAllowedSender",
      "type": "error"
    },
    {
      "inputs": [
        {
          "internalType": "address",
          "name": "sender",
          "type": "address"
        }
      ],
      "name": "ErrorNotDeployer",
      "type": "error"
    },
    {
      "inputs": [],
      "name": "InvalidInitialization",
      "type": "error"
    },
    {
      "inputs": [
        {
          "internalType": "address",
          "name": "sender",
          "type": "address"
        }
      ],
      "name": "NotFutureGovernance",
      "type": "error"
    },
    {
      "inputs": [
        {
          "internalType": "address",
          "name": "sender",
          "type": "address"
        }
      ],
      "name": "NotGovernance",
      "type": "error"
    },
    {
      "inputs": [],
      "name": "NotInitializing",
      "type": "error"
    },
    {
      "inputs": [],
      "name": "ZeroAddress",
      "type": "error"
    },
    {
      "inputs": [],
      "name": "ZeroAmount",
      "type": "error"
    },
    {
      "anonymous": false,
      "inputs": [
        {
          "indexed": false,
          "internalType": "address",
          "name": "token",
          "type": "address"
        },
        {
          "indexed": false,
          "internalType": "uint256",
          "name": "amount",
          "type": "uint256"
        }
      ],
      "name": "Claimed",
      "type": "event"
    },
    {
      "anonymous": false,
      "inputs": [
        {
          "indexed": false,
          "internalType": "address",
          "name": "controller",
          "type": "address"
        },
        {
          "indexed": false,
          "internalType": "uint256",
          "name": "ts",
          "type": "uint256"
        },
        {
          "indexed": false,
          "internalType": "uint256",
          "name": "block",
          "type": "uint256"
        }
      ],
      "name": "ContractInitialized",
      "type": "event"
    },
    {
      "anonymous": false,
      "inputs": [
        {
          "indexed": false,
          "internalType": "address",
          "name": "value",
          "type": "address"
        }
      ],
      "name": "DungeonFactoryChanged",
      "type": "event"
    },
    {
      "anonymous": false,
      "inputs": [
        {
          "indexed": false,
          "internalType": "address",
          "name": "value",
          "type": "address"
        }
      ],
      "name": "GameObjectControllerChanged",
      "type": "event"
    },
    {
      "anonymous": false,
      "inputs": [
        {
          "indexed": false,
          "internalType": "address",
          "name": "value",
          "type": "address"
        }
      ],
      "name": "GameTokenChanged",
      "type": "event"
    },
    {
      "anonymous": false,
      "inputs": [
        {
          "indexed": false,
          "internalType": "uint256",
          "name": "value",
          "type": "uint256"
        }
      ],
      "name": "GameTokenPriceChanged",
      "type": "event"
    },
    {
      "anonymous": false,
      "inputs": [
        {
          "indexed": false,
          "internalType": "address",
          "name": "gauge",
          "type": "address"
        }
      ],
      "name": "GaugeChanged",
      "type": "event"
    },
    {
      "anonymous": false,
      "inputs": [
        {
          "indexed": false,
          "internalType": "address",
          "name": "gov",
          "type": "address"
        }
      ],
      "name": "GovernanceAccepted",
      "type": "event"
    },
    {
      "anonymous": false,
      "inputs": [
        {
          "indexed": false,
          "internalType": "address",
          "name": "value",
          "type": "address"
        }
      ],
      "name": "GuildControllerChanged",
      "type": "event"
    },
    {
      "anonymous": false,
      "inputs": [
        {
          "indexed": false,
          "internalType": "address",
          "name": "value",
          "type": "address"
        }
      ],
      "name": "HeroControllerChanged",
      "type": "event"
    },
    {
      "anonymous": false,
      "inputs": [
        {
          "indexed": false,
          "internalType": "uint64",
          "name": "version",
          "type": "uint64"
        }
      ],
      "name": "Initialized",
      "type": "event"
    },
    {
      "anonymous": false,
      "inputs": [
        {
          "indexed": false,
          "internalType": "address",
          "name": "value",
          "type": "address"
        }
      ],
      "name": "ItemBoxControllerChanged",
      "type": "event"
    },
    {
      "anonymous": false,
      "inputs": [
        {
          "indexed": false,
          "internalType": "address",
          "name": "value",
          "type": "address"
        }
      ],
      "name": "ItemControllerChanged",
      "type": "event"
    },
    {
      "anonymous": false,
      "inputs": [
        {
          "indexed": false,
          "internalType": "address",
          "name": "token",
          "type": "address"
        },
        {
          "indexed": false,
          "internalType": "uint256",
          "name": "amount",
          "type": "uint256"
        }
      ],
      "name": "NotifyRewardAmount",
      "type": "event"
    },
    {
      "anonymous": false,
      "inputs": [
        {
          "indexed": false,
          "internalType": "address",
          "name": "newGov",
          "type": "address"
        }
      ],
      "name": "OfferGovernance",
      "type": "event"
    },
    {
      "anonymous": false,
      "inputs": [
        {
          "indexed": false,
          "internalType": "address",
          "name": "value",
          "type": "address"
        }
      ],
      "name": "OracleChanged",
      "type": "event"
    },
    {
      "anonymous": false,
      "inputs": [
        {
          "indexed": false,
          "internalType": "address",
          "name": "token",
          "type": "address"
        },
        {
          "indexed": false,
          "internalType": "uint256",
          "name": "amount",
          "type": "uint256"
        },
        {
          "indexed": false,
          "internalType": "address",
          "name": "from",
          "type": "address"
        },
        {
          "indexed": false,
          "internalType": "uint256",
          "name": "toBurn",
          "type": "uint256"
        },
        {
          "indexed": false,
          "internalType": "uint256",
          "name": "toTreasury",
          "type": "uint256"
        },
        {
          "indexed": false,
          "internalType": "uint256",
          "name": "toGov",
          "type": "uint256"
        }
      ],
      "name": "Process",
      "type": "event"
    },
    {
      "anonymous": false,
      "inputs": [
        {
          "indexed": false,
          "internalType": "address",
          "name": "proxy",
          "type": "address"
        },
        {
          "indexed": false,
          "internalType": "address",
          "name": "logic",
          "type": "address"
        }
      ],
      "name": "ProxyUpdated",
      "type": "event"
    },
    {
      "anonymous": false,
      "inputs": [
        {
          "indexed": false,
          "internalType": "address",
          "name": "value",
          "type": "address"
        }
      ],
      "name": "PvpControllerChanged",
      "type": "event"
    },
    {
      "anonymous": false,
      "inputs": [
        {
          "indexed": false,
          "internalType": "address",
          "name": "value",
          "type": "address"
        }
      ],
      "name": "ReinforcementControllerChanged",
      "type": "event"
    },
    {
      "anonymous": false,
      "inputs": [
        {
          "indexed": false,
          "internalType": "uint256",
          "name": "value",
          "type": "uint256"
        },
        {
          "indexed": false,
          "internalType": "address",
          "name": "oldLogic",
          "type": "address"
        }
      ],
      "name": "RevisionIncreased",
      "type": "event"
    },
    {
      "anonymous": false,
      "inputs": [
        {
          "indexed": false,
          "internalType": "address",
          "name": "value",
          "type": "address"
        }
      ],
      "name": "RewardsPoolChanged",
      "type": "event"
    },
    {
      "anonymous": false,
      "inputs": [
        {
          "indexed": false,
          "internalType": "address",
          "name": "value",
          "type": "address"
        }
      ],
      "name": "StatControllerChanged",
      "type": "event"
    },
    {
      "anonymous": false,
      "inputs": [
        {
          "indexed": false,
          "internalType": "address",
          "name": "value",
          "type": "address"
        }
      ],
      "name": "StoryControllerChanged",
      "type": "event"
    },
    {
      "anonymous": false,
      "inputs": [
        {
          "indexed": false,
          "internalType": "address",
          "name": "token",
          "type": "address"
        },
        {
          "indexed": false,
          "internalType": "bool",
          "name": "status",
          "type": "bool"
        }
      ],
      "name": "TokenStatusChanged",
      "type": "event"
    },
    {
      "anonymous": false,
      "inputs": [
        {
          "indexed": false,
          "internalType": "address",
          "name": "value",
          "type": "address"
        }
      ],
      "name": "TreasuryChanged",
      "type": "event"
    },
    {
      "anonymous": false,
      "inputs": [
        {
          "indexed": false,
          "internalType": "uint256",
          "name": "myrdAmount",
          "type": "uint256"
        }
      ],
      "name": "UpdatePeriod",
      "type": "event"
    },
    {
      "anonymous": false,
      "inputs": [
        {
          "indexed": false,
          "internalType": "address",
          "name": "value",
          "type": "address"
        }
      ],
      "name": "UserControllerChanged",
      "type": "event"
    },
    {
      "inputs": [],
      "name": "CONTROLLABLE_VERSION",
      "outputs": [
        {
          "internalType": "string",
          "name": "",
          "type": "string"
        }
      ],
      "stateMutability": "view",
      "type": "function"
    },
    {
      "inputs": [],
      "name": "DEPLOYER_ELIGIBILITY_PERIOD",
      "outputs": [
        {
          "internalType": "uint256",
          "name": "",
          "type": "uint256"
        }
      ],
      "stateMutability": "view",
      "type": "function"
    },
    {
      "inputs": [],
      "name": "VERSION",
      "outputs": [
        {
          "internalType": "string",
          "name": "",
          "type": "string"
        }
      ],
      "stateMutability": "view",
      "type": "function"
    },
    {
      "inputs": [],
      "name": "acceptGovernance",
      "outputs": [],
      "stateMutability": "nonpayable",
      "type": "function"
    },
    {
      "inputs": [
        {
          "internalType": "address",
          "name": "eoa",
          "type": "address"
        },
        {
          "internalType": "bool",
          "name": "remove",
          "type": "bool"
        }
      ],
      "name": "changeDeployer",
      "outputs": [],
      "stateMutability": "nonpayable",
      "type": "function"
    },
    {
      "inputs": [
        {
          "internalType": "bool",
          "name": "value",
          "type": "bool"
        }
      ],
      "name": "changePause",
      "outputs": [],
      "stateMutability": "nonpayable",
      "type": "function"
    },
    {
      "inputs": [
        {
          "internalType": "address",
          "name": "token",
          "type": "address"
        },
        {
          "internalType": "bool",
          "name": "status",
          "type": "bool"
        }
      ],
      "name": "changeTreasuryTokenStatus",
      "outputs": [],
      "stateMutability": "nonpayable",
      "type": "function"
    },
    {
      "inputs": [
        {
          "internalType": "address",
          "name": "token",
          "type": "address"
        }
      ],
      "name": "claimToGovernance",
      "outputs": [],
      "stateMutability": "nonpayable",
      "type": "function"
    },
    {
      "inputs": [],
      "name": "controller",
      "outputs": [
        {
          "internalType": "address",
          "name": "",
          "type": "address"
        }
      ],
      "stateMutability": "view",
      "type": "function"
    },
    {
      "inputs": [],
      "name": "created",
      "outputs": [
        {
          "internalType": "uint256",
          "name": "",
          "type": "uint256"
        }
      ],
      "stateMutability": "view",
      "type": "function"
    },
    {
      "inputs": [],
      "name": "createdBlock",
      "outputs": [
        {
          "internalType": "uint256",
          "name": "",
          "type": "uint256"
        }
      ],
      "stateMutability": "view",
      "type": "function"
    },
    {
      "inputs": [],
      "name": "dungeonFactory",
      "outputs": [
        {
          "internalType": "address",
          "name": "",
          "type": "address"
        }
      ],
      "stateMutability": "view",
      "type": "function"
    },
    {
      "inputs": [],
      "name": "futureGovernance",
      "outputs": [
        {
          "internalType": "address",
          "name": "",
          "type": "address"
        }
      ],
      "stateMutability": "view",
      "type": "function"
    },
    {
      "inputs": [],
      "name": "gameObjectController",
      "outputs": [
        {
          "internalType": "address",
          "name": "",
          "type": "address"
        }
      ],
      "stateMutability": "view",
      "type": "function"
    },
    {
      "inputs": [],
      "name": "gameToken",
      "outputs": [
        {
          "internalType": "address",
          "name": "",
          "type": "address"
        }
      ],
      "stateMutability": "view",
      "type": "function"
    },
    {
      "inputs": [],
      "name": "gameTokenPrice",
      "outputs": [
        {
          "internalType": "uint256",
          "name": "",
          "type": "uint256"
        }
      ],
      "stateMutability": "view",
      "type": "function"
    },
    {
      "inputs": [],
      "name": "gauge",
      "outputs": [
        {
          "internalType": "address",
          "name": "",
          "type": "address"
        }
      ],
      "stateMutability": "view",
      "type": "function"
    },
    {
      "inputs": [
        {
          "internalType": "address",
          "name": "token",
          "type": "address"
        },
        {
          "internalType": "uint256",
          "name": "amount",
          "type": "uint256"
        }
      ],
      "name": "getProcessDetails",
      "outputs": [
        {
          "internalType": "uint256",
          "name": "toBurn",
          "type": "uint256"
        },
        {
          "internalType": "uint256",
          "name": "toTreasury",
          "type": "uint256"
        },
        {
          "internalType": "uint256",
          "name": "toGov",
          "type": "uint256"
        },
        {
          "internalType": "uint256",
          "name": "toRewardsPool",
          "type": "uint256"
        }
      ],
      "stateMutability": "view",
      "type": "function"
    },
    {
      "inputs": [],
      "name": "governance",
      "outputs": [
        {
          "internalType": "address",
          "name": "",
          "type": "address"
        }
      ],
      "stateMutability": "view",
      "type": "function"
    },
    {
      "inputs": [],
      "name": "guildController",
      "outputs": [
        {
          "internalType": "address",
          "name": "",
          "type": "address"
        }
      ],
      "stateMutability": "view",
      "type": "function"
    },
    {
      "inputs": [],
      "name": "heroController",
      "outputs": [
        {
          "internalType": "address",
          "name": "",
          "type": "address"
        }
      ],
      "stateMutability": "view",
      "type": "function"
    },
    {
      "inputs": [
        {
          "internalType": "address",
          "name": "oldLogic",
          "type": "address"
        }
      ],
      "name": "increaseRevision",
      "outputs": [],
      "stateMutability": "nonpayable",
      "type": "function"
    },
    {
      "inputs": [
        {
          "internalType": "address",
          "name": "governance_",
          "type": "address"
        }
      ],
      "name": "init",
      "outputs": [],
      "stateMutability": "nonpayable",
      "type": "function"
    },
    {
      "inputs": [
        {
          "internalType": "address",
          "name": "value_",
          "type": "address"
        }
      ],
      "name": "isController",
      "outputs": [
        {
          "internalType": "bool",
          "name": "",
          "type": "bool"
        }
      ],
      "stateMutability": "view",
      "type": "function"
    },
    {
      "inputs": [
        {
          "internalType": "address",
          "name": "adr",
          "type": "address"
        }
      ],
      "name": "isDeployer",
      "outputs": [
        {
          "internalType": "bool",
          "name": "",
          "type": "bool"
        }
      ],
      "stateMutability": "view",
      "type": "function"
    },
    {
      "inputs": [
        {
          "internalType": "address",
          "name": "value_",
          "type": "address"
        }
      ],
      "name": "isGovernance",
      "outputs": [
        {
          "internalType": "bool",
          "name": "",
          "type": "bool"
        }
      ],
      "stateMutability": "view",
      "type": "function"
    },
    {
      "inputs": [],
      "name": "itemBoxController",
      "outputs": [
        {
          "internalType": "address",
          "name": "",
          "type": "address"
        }
      ],
      "stateMutability": "view",
      "type": "function"
    },
    {
      "inputs": [],
      "name": "itemController",
      "outputs": [
        {
          "internalType": "address",
          "name": "",
          "type": "address"
        }
      ],
      "stateMutability": "view",
      "type": "function"
    },
    {
      "inputs": [
        {
          "internalType": "address",
          "name": "newGov",
          "type": "address"
        }
      ],
      "name": "offerGovernance",
      "outputs": [],
      "stateMutability": "nonpayable",
      "type": "function"
    },
    {
      "inputs": [],
      "name": "onPause",
      "outputs": [
        {
          "internalType": "bool",
          "name": "",
          "type": "bool"
        }
      ],
      "stateMutability": "view",
      "type": "function"
    },
    {
      "inputs": [],
      "name": "oracle",
      "outputs": [
        {
          "internalType": "address",
          "name": "",
          "type": "address"
        }
      ],
      "stateMutability": "view",
      "type": "function"
    },
    {
      "inputs": [
        {
          "internalType": "uint256",
          "name": "totalSupply",
          "type": "uint256"
        }
      ],
      "name": "percentToBurn",
      "outputs": [
        {
          "internalType": "uint256",
          "name": "",
          "type": "uint256"
        }
      ],
      "stateMutability": "pure",
      "type": "function"
    },
    {
      "inputs": [],
      "name": "previousImplementation",
      "outputs": [
        {
          "internalType": "address",
          "name": "",
          "type": "address"
        }
      ],
      "stateMutability": "view",
      "type": "function"
    },
    {
      "inputs": [
        {
          "internalType": "address",
          "name": "token",
          "type": "address"
        },
        {
          "internalType": "uint256",
          "name": "amount",
          "type": "uint256"
        },
        {
          "internalType": "address",
          "name": "from",
          "type": "address"
        }
      ],
      "name": "process",
      "outputs": [],
      "stateMutability": "nonpayable",
      "type": "function"
    },
    {
      "inputs": [],
      "name": "pvpController",
      "outputs": [
        {
          "internalType": "address",
          "name": "",
          "type": "address"
        }
      ],
      "stateMutability": "view",
      "type": "function"
    },
    {
      "inputs": [],
      "name": "reinforcementController",
      "outputs": [
        {
          "internalType": "address",
          "name": "",
          "type": "address"
        }
      ],
      "stateMutability": "view",
      "type": "function"
    },
    {
      "inputs": [],
      "name": "revision",
      "outputs": [
        {
          "internalType": "uint256",
          "name": "",
          "type": "uint256"
        }
      ],
      "stateMutability": "view",
      "type": "function"
    },
    {
      "inputs": [],
      "name": "rewardsPool",
      "outputs": [
        {
          "internalType": "address",
          "name": "",
          "type": "address"
        }
      ],
      "stateMutability": "view",
      "type": "function"
    },
    {
      "inputs": [
        {
          "internalType": "address",
          "name": "value",
          "type": "address"
        }
      ],
      "name": "setDungeonFactory",
      "outputs": [],
      "stateMutability": "nonpayable",
      "type": "function"
    },
    {
      "inputs": [
        {
          "internalType": "address",
          "name": "value",
          "type": "address"
        }
      ],
      "name": "setGameObjectController",
      "outputs": [],
      "stateMutability": "nonpayable",
      "type": "function"
    },
    {
      "inputs": [
        {
          "internalType": "address",
          "name": "value",
          "type": "address"
        }
      ],
      "name": "setGameToken",
      "outputs": [],
      "stateMutability": "nonpayable",
      "type": "function"
    },
    {
      "inputs": [
        {
          "internalType": "uint256",
          "name": "value",
          "type": "uint256"
        }
      ],
      "name": "setGameTokenPrice",
      "outputs": [],
      "stateMutability": "nonpayable",
      "type": "function"
    },
    {
      "inputs": [
        {
          "internalType": "address",
          "name": "value",
          "type": "address"
        }
      ],
      "name": "setGauge",
      "outputs": [],
      "stateMutability": "nonpayable",
      "type": "function"
    },
    {
      "inputs": [
        {
          "internalType": "address",
          "name": "value",
          "type": "address"
        }
      ],
      "name": "setGuildController",
      "outputs": [],
      "stateMutability": "nonpayable",
      "type": "function"
    },
    {
      "inputs": [
        {
          "internalType": "address",
          "name": "value",
          "type": "address"
        }
      ],
      "name": "setHeroController",
      "outputs": [],
      "stateMutability": "nonpayable",
      "type": "function"
    },
    {
      "inputs": [
        {
          "internalType": "address",
          "name": "value",
          "type": "address"
        }
      ],
      "name": "setItemBoxController",
      "outputs": [],
      "stateMutability": "nonpayable",
      "type": "function"
    },
    {
      "inputs": [
        {
          "internalType": "address",
          "name": "value",
          "type": "address"
        }
      ],
      "name": "setItemController",
      "outputs": [],
      "stateMutability": "nonpayable",
      "type": "function"
    },
    {
      "inputs": [
        {
          "internalType": "address",
          "name": "value",
          "type": "address"
        }
      ],
      "name": "setOracle",
      "outputs": [],
      "stateMutability": "nonpayable",
      "type": "function"
    },
    {
      "inputs": [
        {
          "internalType": "address",
          "name": "value",
          "type": "address"
        }
      ],
      "name": "setPvpController",
      "outputs": [],
      "stateMutability": "nonpayable",
      "type": "function"
    },
    {
      "inputs": [
        {
          "internalType": "address",
          "name": "value",
          "type": "address"
        }
      ],
      "name": "setReinforcementController",
      "outputs": [],
      "stateMutability": "nonpayable",
      "type": "function"
    },
    {
      "inputs": [
        {
          "internalType": "address",
          "name": "value",
          "type": "address"
        }
      ],
      "name": "setRewardsPool",
      "outputs": [],
      "stateMutability": "nonpayable",
      "type": "function"
    },
    {
      "inputs": [
        {
          "internalType": "address",
          "name": "value",
          "type": "address"
        }
      ],
      "name": "setStatController",
      "outputs": [],
      "stateMutability": "nonpayable",
      "type": "function"
    },
    {
      "inputs": [
        {
          "internalType": "address",
          "name": "value",
          "type": "address"
        }
      ],
      "name": "setStoryController",
      "outputs": [],
      "stateMutability": "nonpayable",
      "type": "function"
    },
    {
      "inputs": [
        {
          "internalType": "address",
          "name": "value",
          "type": "address"
        }
      ],
      "name": "setTreasury",
      "outputs": [],
      "stateMutability": "nonpayable",
      "type": "function"
    },
    {
      "inputs": [
        {
          "internalType": "address",
          "name": "value",
          "type": "address"
        }
      ],
      "name": "setUserController",
      "outputs": [],
      "stateMutability": "nonpayable",
      "type": "function"
    },
    {
      "inputs": [],
      "name": "statController",
      "outputs": [
        {
          "internalType": "address",
          "name": "",
          "type": "address"
        }
      ],
      "stateMutability": "view",
      "type": "function"
    },
    {
      "inputs": [],
      "name": "storyController",
      "outputs": [
        {
          "internalType": "address",
          "name": "",
          "type": "address"
        }
      ],
      "stateMutability": "view",
      "type": "function"
    },
    {
      "inputs": [],
      "name": "treasury",
      "outputs": [
        {
          "internalType": "address",
          "name": "",
          "type": "address"
        }
      ],
      "stateMutability": "view",
      "type": "function"
    },
    {
      "inputs": [
        {
          "internalType": "address[]",
          "name": "proxies",
          "type": "address[]"
        },
        {
          "internalType": "address",
          "name": "newLogic",
          "type": "address"
        }
      ],
      "name": "updateProxies",
      "outputs": [],
      "stateMutability": "nonpayable",
      "type": "function"
    },
    {
      "inputs": [],
      "name": "userController",
      "outputs": [
        {
          "internalType": "address",
          "name": "",
          "type": "address"
        }
      ],
      "stateMutability": "view",
      "type": "function"
    },
    {
      "inputs": [
        {
          "internalType": "address",
          "name": "token",
          "type": "address"
        }
      ],
      "name": "validTreasuryTokens",
      "outputs": [
        {
          "internalType": "bool",
          "name": "",
          "type": "bool"
        }
      ],
      "stateMutability": "view",
      "type": "function"
    }
  ],
  "transactionHash": "0x8f880f8c59c44fa32c09b0370e5efe275f7598fc9cb96f42150eb40bd7a4741f",
  "args": [],
  "numDeployments": 3,
  "solcInputHash": "d0e7b78f844cf860ee0bc8ebf8c63b8d",
  "bytecode": "0x60806040523480156200001157600080fd5b507ff0c57e16840df040f15088dc2f81fe391c3923bec73e23a9662efc9c229c6a00805468010000000000000000810460ff1615906001600160401b03166000811580156200005d5750825b90506000826001600160401b031660011480156200007a5750303b155b90508115801562000089575080155b15620000a85760405163f92ee8a960e01b815260040160405180910390fd5b84546001600160401b03191660011785558315620000d757845460ff60401b1916680100000000000000001785555b83156200011e57845460ff60401b19168555604051600181527fc7f505b2f371ae2175ee4913f4499e1f2633a7b5936321eed1cdaeb6115181d29060200160405180910390a15b505050505061315380620001336000396000f3fe608060405234801561001057600080fd5b50600436106102fe5760003560e01c806361d027b3116101a45780639d0bcca0116100fa578063d11d18611161009d578063d11d186114610653578063dee1f0e41461065d578063e4ce087114610670578063f0f4426014610683578063f2c7b2eb14610696578063f6914cfa146106a9578063f77c4791146106bc578063ffa1ad74146106c457600080fd5b80639d0bcca0146105f2578063a27218ac146105fa578063a6f19c8414610602578063b1bc41951461060a578063b429afeb14610612578063bcb384fa14610625578063c3dfdae614610638578063c81529c61461064057600080fd5b806361d027b3146104d957806368321eb7146104e1578063683fedf7146105145780637262bb2d1461051c5780637405bab81461052f5780637adbf973146105425780637c000293146105555780637c66b452146105685780637cc963801461057b5780637dc0d1d0146105835780638070c5031461058b57806380d29e6614610593578063822f804c146105a657806389dd9f13146105b9578063936725ec146105c157600080fd5b8063359a7d8f11610259578063359a7d8f146103e8578063361e4b27146103fb57806337cac68a1461040e5780633c8f1bbe146104215780634453bd89146104345780634576dc52146104475780634593144c1461045a578063490fb76a146104625780634fac6ccd1461046a57806350c358a41461047d578063524a562f1461049057806355a68ed3146104985780635aa6e675146104ab5780635d4fead3146104b3578063605918ae146104c657600080fd5b80628e9691146103035780630139009f14610321578063016dff5d146103295780630359fea91461033157806308ac0fd71461033957806311b0aebe1461034e5780631534e0501461036f57806318d928311461038257806319ab453c1461039a5780631ec47600146103ad578063238efcbc146103c057806325eb1c87146103c85780632f91ede9146103d057806331423c26146103d8578063325a19f1146103e0575b600080fd5b61030b6106e8565b6040516103189190612d6f565b60405180910390f35b61030b6106f7565b61030b610701565b61030b61070b565b61034c610347366004612da8565b610715565b005b61036161035c366004612dc5565b610721565b604051908152602001610318565b61034c61037d366004612da8565b610732565b61038a61073b565b6040519015158152602001610318565b61034c6103a8366004612da8565b610745565b61034c6103bb366004612da8565b610868565b61034c610871565b61030b61087b565b61030b610885565b61030b61088f565b610361610899565b61034c6103f6366004612da8565b6108cd565b61034c610409366004612da8565b6108d6565b61034c61041c366004612da8565b6108df565b61034c61042f366004612dde565b6108e8565b61034c610442366004612da8565b6108f9565b61034c610455366004612e36565b610902565b610361610910565b61030b610940565b61034c610478366004612da8565b61094a565b61038a61048b366004612da8565b610a5c565b61030b610a67565b61034c6104a6366004612da8565b610a71565b61030b610a7a565b61034c6104c1366004612f1b565b610a84565b61034c6104d4366004612da8565b610a8d565b61030b610a96565b6104f46104ef366004612f38565b610aa0565b604080519485526020850193909352918301526060820152608001610318565b61030b610b22565b61034c61052a366004612f64565b610b2c565b61034c61053d366004612da8565b610b36565b61034c610550366004612da8565b610b3f565b61034c610563366004612da8565b610b48565b61038a610576366004612da8565b610b51565b610361610b5c565b61030b610b7a565b61030b610b84565b61034c6105a1366004612da8565b610b8e565b61034c6105b4366004612da8565b610b97565b61030b610ba0565b6105e5604051806040016040528060058152602001640312e302e360dc1b81525081565b6040516103189190612f9d565b61030b610baa565b61030b610bda565b61030b610be4565b610361610bee565b61038a610620366004612da8565b610bf8565b61034c610633366004612da8565b610c1d565b61030b610c26565b61034c61064e366004612da8565b610c30565b61036162093a8081565b61038a61066b366004612da8565b610c39565b61034c61067e366004612da8565b610cbe565b61034c610691366004612da8565b610cc7565b61034c6106a4366004612dc5565b610cd0565b61034c6106b7366004612f64565b610cd9565b61030b610ce3565b6105e560405180604001604052806005815260200164312e302e3360d81b81525081565b60006106f2610d13565b905090565b60006106f2610d2f565b60006106f2610d4b565b60006106f2610d67565b61071e81610d83565b50565b600061072c82610e17565b92915050565b61071e81610e54565b60006106f2610edd565b600061074f610ef3565b805490915060ff600160401b820416159067ffffffffffffffff166000811580156107775750825b905060008267ffffffffffffffff1660011480156107945750303b155b9050811580156107a2575080155b156107c05760405163f92ee8a960e01b815260040160405180910390fd5b845467ffffffffffffffff1916600117855583156107ea57845460ff60401b1916600160401b1785555b6107f330610f17565b856107fc610f28565b80546001600160a01b0319166001600160a01b0392909216919091179055831561086057845460ff60401b19168555604051600181527fc7f505b2f371ae2175ee4913f4499e1f2633a7b5936321eed1cdaeb6115181d29060200160405180910390a15b505050505050565b61071e81610f4c565b610879610fae565b565b60006106f261105e565b60006106f261107a565b60006106f2611096565b60006106f26108c960017f6f55f470bdc9cb5f04223fd822021061668e4dccb43e8727b295106dc9769c8b613002565b5490565b61071e816110b2565b61071e81611140565b61071e816111c9565b6108f430848484611252565b505050565b61071e816115c3565b61090c828261164c565b5050565b60006106f26108c960017f812a673dfca07956350df10f8a654925f561d7a0da09bdbe79e653939a14d9f1613002565b60006106f2611731565b33301461099c5760405162461bcd60e51b815260206004820152601b60248201527a24b731b932b0b9b2903932bb34b9b4b7b7103337b93134b23232b760291b60448201526064015b60405180910390fd5b60006109ba6108c960016000805160206130fe833981519152613002565b6109c5906001613015565b90506109e7816109e460016000805160206130fe833981519152613002565b55565b610a16826109e460017fbfaaa2fb63266ff27c2da975f5894955056f50419af651a81f6c5060581857e4613002565b604080518281526001600160a01b03841660208201527ff27e2ef832a4eb8ed8ec553b875eecd44764cda95b1c24170e281539e0a869c891015b60405180910390a15050565b600061072c82611752565b60006106f26117a0565b61071e816117bc565b60006106f261181e565b61071e81611837565b61071e8161185d565b60006106f26118e6565b600080600080610b128686306001600160a01b031663c3dfdae66040518163ffffffff1660e01b8152600401602060405180830381865afa158015610ae9573d6000803e3d6000fd5b505050506040513d601f19601f82011682018060405250810190610b0d9190613028565b611902565b9299919850965090945092505050565b60006106f26119af565b61090c82826119cb565b61071e81611a38565b61071e81611ac1565b61071e81611b4a565b600061072c82611bd3565b60006106f26108c960016000805160206130fe833981519152613002565b60006106f2611c02565b60006106f2611c1e565b61071e81611c3a565b61071e81611cc3565b60006106f2611d4c565b60006106f26108c960017fbfaaa2fb63266ff27c2da975f5894955056f50419af651a81f6c5060581857e4613002565b60006106f2611d68565b60006106f2611d84565b60006106f2611da0565b6000610c02610ce3565b6001600160a01b0316826001600160a01b0316149050919050565b61071e81611dc6565b60006106f2611eff565b61071e81611f1b565b6000816001600160a01b0316610c4d610ce3565b6001600160a01b0316635aa6e6756040518163ffffffff1660e01b8152600401602060405180830381865afa158015610c8a573d6000803e3d6000fd5b505050506040513d601f19601f82011682018060405250810190610cae9190613028565b6001600160a01b03161492915050565b61071e81611fa4565b61071e8161202d565b61071e816120b6565b61090c828261211c565b60006106f26108c960017f5165972ef41194f06c5007493031d0b927c20741adcb74403b954009fd2c3618613002565b6000610d1d610f28565b600201546001600160a01b0316919050565b6000610d39610f28565b601301546001600160a01b0316919050565b6000610d55610f28565b600a01546001600160a01b0316919050565b6000610d71610f28565b601101546001600160a01b0316919050565b610d8b612194565b6001600160a01b038116610db25760405163d92e233d60e01b815260040160405180910390fd5b80610dbb610f28565b60060180546001600160a01b0319166001600160a01b03929092169190911790556040517f5d77c617926cd1f4106de1bae23b2eb1a9d6e84911f701858a0b1d831e92816590610e0c908390612d6f565b60405180910390a150565b600061072c6a084595161401484a000000610e3b68056bc75e2d6310000085613045565b610e45919061305c565b68056bc75e2d631000006121bc565b610e5c612194565b6001600160a01b038116610e835760405163d92e233d60e01b815260040160405180910390fd5b80610e8c610f28565b60130180546001600160a01b0319166001600160a01b03929092169190911790556040517fcaa89af641ab6d1a458e39f225a12c0d1137f317d718b8713054a445bd2cde6790610e0c908390612d6f565b6000610ee7610f28565b600e015460ff16919050565b7ff0c57e16840df040f15088dc2f81fe391c3923bec73e23a9662efc9c229c6a0090565b610f1f6121d2565b61071e816121f7565b7f4d96152d518acf5697a667aeb82f27b3218b679995afa077296a84fdcb65bb0090565b610f54612194565b80610f5d610f28565b60010180546001600160a01b0319166001600160a01b03929092169190911790556040517f93a15bbe6d7cb67fff86738ed92efd14e9fe04e7d30042086570034a2f2eb3c290610e0c908390612d6f565b33610fb7610f28565b600101546001600160a01b031614610fe4573360405163ba18f1e160e01b81526004016109939190612d6f565b33610fed610f28565b80546001600160a01b0319166001600160a01b0392909216919091179055611013610f28565b60010180546001600160a01b03191690556040517fb1476cf38ac36ee528f1ad1ae81bdb46de8807d42475e16078426bce6001396190611054903390612d6f565b60405180910390a1565b6000611068610f28565b600f01546001600160a01b0316919050565b6000611084610f28565b600801546001600160a01b0316919050565b60006110a0610f28565b600901546001600160a01b0316919050565b6110ba612194565b6001600160a01b0381166110e15760405163d92e233d60e01b815260040160405180910390fd5b806110ea610f28565b600e0160016101000a8154816001600160a01b0302191690836001600160a01b031602179055507fd86fc86ebea7a7d81c1a9fa7e0977cdafcfccf0cc35295a095231a7b28274e4981604051610e0c9190612d6f565b611148612194565b6001600160a01b03811661116f5760405163d92e233d60e01b815260040160405180910390fd5b80611178610f28565b60030180546001600160a01b0319166001600160a01b03929092169190911790556040517fecbc0f0d903f1b9964d257a8043a5ecdf9c55a8e3d0060fb920b40c4009a257d90610e0c908390612d6f565b6111d1612194565b6001600160a01b0381166111f85760405163d92e233d60e01b815260040160405180910390fd5b80611201610f28565b60120180546001600160a01b0319166001600160a01b03929092169190911790556040517fe34dace06c75fb12cb36ab5627f4ad085768e0e550b787566c647aa0cd052b0690610e0c908390612d6f565b61125b84612314565b6000806000806112a487878a6001600160a01b031663c3dfdae66040518163ffffffff1660e01b8152600401602060405180830381865afa158015610ae9573d6000803e3d6000fd5b6040516323b872dd60e01b81526001600160a01b038a81166004830152306024830152604482018c90529498509296509094509250908816906323b872dd906064016020604051808303816000875af1158015611305573d6000803e3d6000fd5b505050506040513d601f19601f82011682018060405250810190611329919061307e565b50801561140457866001600160a01b031663a9059cbb896001600160a01b0316630359fea96040518163ffffffff1660e01b8152600401602060405180830381865afa15801561137d573d6000803e3d6000fd5b505050506040513d601f19601f820116820180604052508101906113a19190613028565b836040518363ffffffff1660e01b81526004016113bf92919061309b565b6020604051808303816000875af11580156113de573d6000803e3d6000fd5b505050506040513d601f19601f82011682018060405250810190611402919061307e565b505b82156114de57866001600160a01b031663a9059cbb896001600160a01b03166361d027b36040518163ffffffff1660e01b8152600401602060405180830381865afa158015611457573d6000803e3d6000fd5b505050506040513d601f19601f8201168201806040525081019061147b9190613028565b856040518363ffffffff1660e01b815260040161149992919061309b565b6020604051808303816000875af11580156114b8573d6000803e3d6000fd5b505050506040513d601f19601f820116820180604052508101906114dc919061307e565b505b831561155157604051630852cd8d60e31b8152600481018590526001600160a01b038816906342966c68906024016020604051808303816000875af115801561152b573d6000803e3d6000fd5b505050506040513d601f19601f8201168201806040525081019061154f919061307e565b505b61155a87612624565b604080516001600160a01b03898116825260208201899052871681830152606081018690526080810185905260a0810184905290517f1fd334c200f7b34cefbcb9762981e99dea5bdff9c149c5e4a279a1f55e8c97729181900360c00190a15050505050505050565b6115cb612194565b6001600160a01b0381166115f25760405163d92e233d60e01b815260040160405180910390fd5b806115fb610f28565b600f0180546001600160a01b0319166001600160a01b03929092169190911790556040517f0d1f076dd618d44fc1ed0ae909dcb5a875262080a1fb3386f155e47003323ed790610e0c908390612d6f565b611654612bf9565b60005b82518110156108f457828181518110611672576116726130b4565b60200260200101516001600160a01b0316630900f010836040518263ffffffff1660e01b81526004016116a59190612d6f565b600060405180830381600087803b1580156116bf57600080fd5b505af11580156116d3573d6000803e3d6000fd5b505050507fd32d24edea94f55e932d9a008afc425a8561462d1b1f57bc6e508e9a6b9509e183828151811061170a5761170a6130b4565b6020026020010151836040516117219291906130ca565b60405180910390a1600101611657565b600061173b610f28565b600e015461010090046001600160a01b0316919050565b60008061175d610f28565b6001600160a01b0384166000908152600d9190910160205260409020549050801580159061178a57508042105b80611799575061179983612c21565b9392505050565b60006117aa610f28565b600301546001600160a01b0316919050565b6117c4612194565b806117cd610f28565b60140180546001600160a01b0319166001600160a01b03929092169190911790556040517f1d609dbce8c46093a144a3723e81b905c328eb5034d986a74301fb4764ded28190610e0c908390612d6f565b6000611828610f28565b546001600160a01b0316919050565b61183f612bf9565b80611848610f28565b600e01805460ff191691151591909117905550565b611865612194565b6001600160a01b03811661188c5760405163d92e233d60e01b815260040160405180910390fd5b80611895610f28565b60020180546001600160a01b0319166001600160a01b03929092169190911790556040517f573b0be2ffc8c66825968c4e3b38a0af5edb18ce20f9a516e0f8a04867d2638990610e0c908390612d6f565b60006118f0610f28565b600501546001600160a01b0316919050565b600080600080846001600160a01b0316876001600160a01b03160361195557600261192d8588613002565b611937919061305c565b9250826119448588613002565b61194e9190613002565b91506119a6565b620186a06119666201388088613045565b611970919061305c565b9050620186a061198261271088613045565b61198c919061305c565b9250826119998288613002565b6119a39190613002565b91505b93509350935093565b60006119b9610f28565b600601546001600160a01b0316919050565b6119d3612194565b8015611a02576119e1610f28565b6001600160a01b0383166000908152600d9190910160205260408120555050565b611a0f62093a8042613015565b611a17610f28565b6001600160a01b0384166000908152600d9190910160205260409020555050565b611a40612194565b6001600160a01b038116611a675760405163d92e233d60e01b815260040160405180910390fd5b80611a70610f28565b60090180546001600160a01b0319166001600160a01b03929092169190911790556040517fedcd6ea89a41d21f1bafa9a7cc32e754079d18642839a1a48c938447d2a740eb90610e0c908390612d6f565b611ac9612194565b6001600160a01b038116611af05760405163d92e233d60e01b815260040160405180910390fd5b80611af9610f28565b60040180546001600160a01b0319166001600160a01b03929092169190911790556040517f0e05ae75e8b926552cf6fcd744d19f422561e3ced1e426868730852702dbe41890610e0c908390612d6f565b611b52612194565b6001600160a01b038116611b795760405163d92e233d60e01b815260040160405180910390fd5b80611b82610f28565b60110180546001600160a01b0319166001600160a01b03929092169190911790556040517f657bb19de5473f7be7de9ccbcfa6d9aabcb3cfd199aef85e949a1d8570c290ab90610e0c908390612d6f565b6000611bdd610f28565b6001600160a01b039092166000908152600c9290920160205250604090205460ff1690565b6000611c0c610f28565b600401546001600160a01b0316919050565b6000611c28610f28565b600101546001600160a01b0316919050565b611c42612194565b6001600160a01b038116611c695760405163d92e233d60e01b815260040160405180910390fd5b80611c72610f28565b600b0180546001600160a01b0319166001600160a01b03929092169190911790556040517f035bee136adcafe288762d810fef741bc236d20bb1b469acb4c23e5357f0856790610e0c908390612d6f565b611ccb612194565b6001600160a01b038116611cf25760405163d92e233d60e01b815260040160405180910390fd5b80611cfb610f28565b60070180546001600160a01b0319166001600160a01b03929092169190911790556040517ffa195fffb4bf4e5339e2e98fb090f0d634c64261640c07c1ee6ee43d5f23516190610e0c908390612d6f565b6000611d56610f28565b600701546001600160a01b0316919050565b6000611d72610f28565b601201546001600160a01b0316919050565b6000611d8e610f28565b601401546001600160a01b0316919050565b6000611daa610f28565b60100154905080600003611dc35750678ac7230489e800005b90565b611dce612194565b6040516370a0823160e01b81526000906001600160a01b038316906370a0823190611dfd903090600401612d6f565b602060405180830381865afa158015611e1a573d6000803e3d6000fd5b505050506040513d601f19601f82011682018060405250810190611e3e91906130e4565b9050801561090c57816001600160a01b031663a9059cbb611e5d610f28565b546040516001600160e01b031960e084901b168152611e8a916001600160a01b031690859060040161309b565b6020604051808303816000875af1158015611ea9573d6000803e3d6000fd5b505050506040513d601f19601f82011682018060405250810190611ecd919061307e565b507fd8138f8a3f377c5259ca548e70e4c2de94f129f5a11036a15b69513cba2b426a8282604051610a5092919061309b565b6000611f09610f28565b600b01546001600160a01b0316919050565b611f23612194565b6001600160a01b038116611f4a5760405163d92e233d60e01b815260040160405180910390fd5b80611f53610f28565b600a0180546001600160a01b0319166001600160a01b03929092169190911790556040517fd1e9a4ae1231531a757f1e31a2ff8a1db9d359a194436efe40bccb972cde86f090610e0c908390612d6f565b611fac612194565b6001600160a01b038116611fd35760405163d92e233d60e01b815260040160405180910390fd5b80611fdc610f28565b60080180546001600160a01b0319166001600160a01b03929092169190911790556040517f29fdde0e067ae34f44ca706fd84ea4b9dabb69557e7e935d379c932ba023b2be90610e0c908390612d6f565b612035612194565b6001600160a01b03811661205c5760405163d92e233d60e01b815260040160405180910390fd5b80612065610f28565b60050180546001600160a01b0319166001600160a01b03929092169190911790556040517fc714d22a2f08b695f81e7c707058db484aa5b4d6b4c9fd64beb10fe85832f60890610e0c908390612d6f565b6120be612194565b806000036120df57604051631f2a200560e01b815260040160405180910390fd5b806120e8610f28565b601001556040518181527f867c590cfc1b2ba6732d5d876a96733ad5cde9c836a978d6107517c00cf3f44590602001610e0c565b612124612194565b8061212d610f28565b6001600160a01b0384166000818152600c929092016020908152604092839020805460ff1916941515949094179093558151908152831515928101929092527f0de9c5667496fd561ff9dfa59efdc1c76f7dbf3844adae3d14a3a14d563321b19101610a50565b61219d33612c21565b610879573360405163988d1f0360e01b81526004016109939190612d6f565b60008183106121cb5781611799565b5090919050565b6121da612c6b565b61087957604051631afcd79f60e31b815260040160405180910390fd5b6001600160a01b03811661223f5760405162461bcd60e51b815260206004820152600f60248201526e2d32b9379031b7b73a3937b63632b960891b6044820152606401610993565b61226e816109e460017f5165972ef41194f06c5007493031d0b927c20741adcb74403b954009fd2c3618613002565b61229d426109e460017f6f55f470bdc9cb5f04223fd822021061668e4dccb43e8727b295106dc9769c8b613002565b6122cc436109e460017f812a673dfca07956350df10f8a654925f561d7a0da09bdbe79e653939a14d9f1613002565b604080516001600160a01b038316815242602082015243918101919091527f1a2dd071001ebf6e03174e3df5b305795a4ad5d41d8fdb9ba41dbbe23671342690606001610e0c565b336001600160a01b0316816001600160a01b031663016dff5d6040518163ffffffff1660e01b8152600401602060405180830381865afa15801561235c573d6000803e3d6000fd5b505050506040513d601f19601f820116820180604052508101906123809190613028565b6001600160a01b03161415801561240a5750336001600160a01b0316816001600160a01b031663490fb76a6040518163ffffffff1660e01b8152600401602060405180830381865afa1580156123da573d6000803e3d6000fd5b505050506040513d601f19601f820116820180604052508101906123fe9190613028565b6001600160a01b031614155b80156124895750336001600160a01b0316816001600160a01b03166325eb1c876040518163ffffffff1660e01b8152600401602060405180830381865afa158015612459573d6000803e3d6000fd5b505050506040513d601f19601f8201168201806040525081019061247d9190613028565b6001600160a01b031614155b80156125085750336001600160a01b0316816001600160a01b0316632f91ede96040518163ffffffff1660e01b8152600401602060405180830381865afa1580156124d8573d6000803e3d6000fd5b505050506040513d601f19601f820116820180604052508101906124fc9190613028565b6001600160a01b031614155b80156125875750336001600160a01b0316816001600160a01b03166331423c266040518163ffffffff1660e01b8152600401602060405180830381865afa158015612557573d6000803e3d6000fd5b505050506040513d601f19601f8201168201806040525081019061257b9190613028565b6001600160a01b031614155b80156126065750336001600160a01b0316816001600160a01b031663524a562f6040518163ffffffff1660e01b8152600401602060405180830381865afa1580156125d6573d6000803e3d6000fd5b505050506040513d601f19601f820116820180604052508101906125fa9190613028565b6001600160a01b031614155b1561071e5760405163f20e063760e01b815260040160405180910390fd5b600061262e610f28565b601401546001600160a01b03169050801561090c576000816001600160a01b031663ff3a4ac06040518163ffffffff1660e01b8152600401602060405180830381865afa158015612683573d6000803e3d6000fd5b505050506040513d601f19601f820116820180604052508101906126a79190613028565b9050806001600160a01b0316836001600160a01b0316036128a257816001600160a01b0316631ed241956040518163ffffffff1660e01b8152600401602060405180830381865afa158015612700573d6000803e3d6000fd5b505050506040513d601f19601f8201168201806040525081019061272491906130e4565b826001600160a01b0316630a441f7b6040518163ffffffff1660e01b8152600401602060405180830381865afa158015612762573d6000803e3d6000fd5b505050506040513d601f19601f8201168201806040525081019061278691906130e4565b10156108f4576040516370a0823160e01b81526000906001600160a01b038516906370a08231906127bb903090600401612d6f565b602060405180830381865afa1580156127d8573d6000803e3d6000fd5b505050506040513d601f19601f820116820180604052508101906127fc91906130e4565b9050801561280f5761280f848285612c85565b60405163e270d1df60e01b8152600481018290526001600160a01b0384169063e270d1df90602401600060405180830381600087803b15801561285157600080fd5b505af1925050508015612862575060015b1561289c576040518181527fd1c043d38a3243c01780647a1340049807cd98af891021c89c32c99a8e0c59e7906020015b60405180910390a15b50505050565b6040516370a0823160e01b81526000906001600160a01b038516906370a08231906128d1903090600401612d6f565b602060405180830381865afa1580156128ee573d6000803e3d6000fd5b505050506040513d601f19601f8201168201806040525081019061291291906130e4565b9050826001600160a01b0316636180c3f9846001600160a01b03166379d83f8e6040518163ffffffff1660e01b8152600401602060405180830381865afa158015612961573d6000803e3d6000fd5b505050506040513d601f19601f820116820180604052508101906129859190613028565b866040518363ffffffff1660e01b81526004016129a39291906130ca565b602060405180830381865afa1580156129c0573d6000803e3d6000fd5b505050506040513d601f19601f820116820180604052508101906129e491906130e4565b811180156129fe575060006129fc62093a808361305c565b115b15612aa657612a0e848285612c85565b60405163b66503cf60e01b81526001600160a01b0384169063b66503cf90612a3c908790859060040161309b565b600060405180830381600087803b158015612a5657600080fd5b505af1925050508015612a67575060015b15612aa6577ff6b60b7da8e0f883e399412005b6205515604a993e7e3f0c3b199b9cb07d6ae68482604051612a9d92919061309b565b60405180910390a15b826001600160a01b0316631ed241956040518163ffffffff1660e01b8152600401602060405180830381865afa158015612ae4573d6000803e3d6000fd5b505050506040513d601f19601f82011682018060405250810190612b0891906130e4565b836001600160a01b0316630a441f7b6040518163ffffffff1660e01b8152600401602060405180830381865afa158015612b46573d6000803e3d6000fd5b505050506040513d601f19601f82011682018060405250810190612b6a91906130e4565b101561289c5760405163e270d1df60e01b8152600060048201526001600160a01b0384169063e270d1df90602401600060405180830381600087803b158015612bb257600080fd5b505af1925050508015612bc3575060015b1561289c57604051600081527fd1c043d38a3243c01780647a1340049807cd98af891021c89c32c99a8e0c59e790602001612893565b612c0233611752565b610879573360405163451cea1760e11b81526004016109939190612d6f565b6000816001600160a01b0316306001600160a01b0316635aa6e6756040518163ffffffff1660e01b8152600401602060405180830381865afa158015610c8a573d6000803e3d6000fd5b6000612c75610ef3565b54600160401b900460ff16919050565b604051636eb1769f60e11b815282906001600160a01b0385169063dd62ed3e90612cb590309086906004016130ca565b602060405180830381865afa158015612cd2573d6000803e3d6000fd5b505050506040513d601f19601f82011682018060405250810190612cf691906130e4565b10156108f45760405163095ea7b360e01b81526001600160a01b0384169063095ea7b390612d2c9084906000199060040161309b565b6020604051808303816000875af1158015612d4b573d6000803e3d6000fd5b505050506040513d601f19601f8201168201806040525081019061289c919061307e565b6001600160a01b0391909116815260200190565b6001600160a01b038116811461071e57600080fd5b8035612da381612d83565b919050565b600060208284031215612dba57600080fd5b813561179981612d83565b600060208284031215612dd757600080fd5b5035919050565b600080600060608486031215612df357600080fd5b8335612dfe81612d83565b9250602084013591506040840135612e1581612d83565b809150509250925092565b634e487b7160e01b600052604160045260246000fd5b60008060408385031215612e4957600080fd5b823567ffffffffffffffff80821115612e6157600080fd5b818501915085601f830112612e7557600080fd5b8135602082821115612e8957612e89612e20565b8160051b604051601f19603f83011681018181108682111715612eae57612eae612e20565b604052928352818301935084810182019289841115612ecc57600080fd5b948201945b83861015612ef157612ee286612d98565b85529482019493820193612ed1565b9650612f009050878201612d98565b9450505050509250929050565b801515811461071e57600080fd5b600060208284031215612f2d57600080fd5b813561179981612f0d565b60008060408385031215612f4b57600080fd5b8235612f5681612d83565b946020939093013593505050565b60008060408385031215612f7757600080fd5b8235612f8281612d83565b91506020830135612f9281612f0d565b809150509250929050565b60006020808352835180602085015260005b81811015612fcb57858101830151858201604001528201612faf565b506000604082860101526040601f19601f8301168501019250505092915050565b634e487b7160e01b600052601160045260246000fd5b8181038181111561072c5761072c612fec565b8082018082111561072c5761072c612fec565b60006020828403121561303a57600080fd5b815161179981612d83565b808202811582820484141761072c5761072c612fec565b60008261307957634e487b7160e01b600052601260045260246000fd5b500490565b60006020828403121561309057600080fd5b815161179981612f0d565b6001600160a01b03929092168252602082015260400190565b634e487b7160e01b600052603260045260246000fd5b6001600160a01b0392831681529116602082015260400190565b6000602082840312156130f657600080fd5b505191905056fe22573091f17911fb166032a3d9e0554aa73d31b7b7ddea4a4dd2995650af84bda26469706673582212209dab2921094ac04a62bc389e403315b51537eec1a88ac4e5c4423ae9162982f964736f6c63430008170033",
  "devdoc": {
    "errors": {
      "InvalidInitialization()": [
        {
          "details": "The contract is already initialized."
        }
      ],
      "NotInitializing()": [
        {
          "details": "The contract is not initializing."
        }
      ]
    },
    "events": {
      "Initialized(uint64)": {
        "details": "Triggered when the contract has been initialized or reinitialized."
      }
    },
    "kind": "dev",
    "methods": {
      "created()": {
        "returns": {
          "_0": "Creation timestamp"
        }
      },
      "createdBlock()": {
        "returns": {
          "_0": "Creation block number"
        }
      },
      "increaseRevision(address)": {
        "details": "Revision should be increased on each contract upgrade"
      },
      "isController(address)": {
        "details": "Return true if given address is controller"
      },
      "previousImplementation()": {
        "details": "Previous logic implementation"
      },
      "process(address,uint256,address)": {
        "params": {
          "amount": "Assume that this amount is approved by {from} to this contract"
        }
      },
      "revision()": {
        "details": "Contract upgrade counter"
      }
    },
    "version": 1
  },
  "userdoc": {
    "kind": "user",
    "methods": {
      "CONTROLLABLE_VERSION()": {
        "notice": "Version of the contract"
      },
      "VERSION()": {
        "notice": "Version of the contract"
      },
      "controller()": {
        "notice": "Return controller address saved in the contract slot"
      },
      "created()": {
        "notice": "Return creation timestamp"
      },
      "createdBlock()": {
        "notice": "Return creation block number"
      },
      "isGovernance(address)": {
        "notice": "Return true if given address is setup as governance in Controller"
      },
      "process(address,uint256,address)": {
        "notice": "Transfer {amount} from {from}, divide it on three parts: to treasury, to governance, to burn User must approve given amount to the controller."
      }
    },
    "version": 1
  },
  "storageLayout": {
    "storage": [],
    "types": null
  }
}