{
  "address": "0x1C372b87bEF6e10Da9373bd613AF58aaFD85f700",
  "abi": [
    {
      "inputs": [],
      "name": "EmptyObjects",
      "type": "error"
    },
    {
      "inputs": [
        {
          "internalType": "address",
          "name": "sender",
          "type": "address"
        }
      ],
      "name": "ErrorNotDeployer",
      "type": "error"
    },
    {
      "inputs": [
        {
          "internalType": "address",
          "name": "sender",
          "type": "address"
        }
      ],
      "name": "ErrorNotDungeonFactory",
      "type": "error"
    },
    {
      "inputs": [],
      "name": "FightDelay",
      "type": "error"
    },
    {
      "inputs": [
        {
          "internalType": "uint8",
          "name": "biome",
          "type": "uint8"
        }
      ],
      "name": "GenObjectIdBiomeOverflow",
      "type": "error"
    },
    {
      "inputs": [
        {
          "internalType": "uint256",
          "name": "id",
          "type": "uint256"
        }
      ],
      "name": "GenObjectIdIdOverflow",
      "type": "error"
    },
    {
      "inputs": [
        {
          "internalType": "uint256",
          "name": "subType",
          "type": "uint256"
        }
      ],
      "name": "GenObjectIdSubTypeOverflow",
      "type": "error"
    },
    {
      "inputs": [
        {
          "internalType": "int256",
          "name": "value",
          "type": "int256"
        }
      ],
      "name": "IntOutOfRange",
      "type": "error"
    },
    {
      "inputs": [
        {
          "internalType": "int256",
          "name": "value",
          "type": "int256"
        }
      ],
      "name": "IntValueOutOfRange",
      "type": "error"
    },
    {
      "inputs": [],
      "name": "InvalidInitialization",
      "type": "error"
    },
    {
      "inputs": [],
      "name": "LengthsMismatch",
      "type": "error"
    },
    {
      "inputs": [],
      "name": "NotInitializing",
      "type": "error"
    },
    {
      "inputs": [],
      "name": "ObjectNotFound",
      "type": "error"
    },
    {
      "inputs": [
        {
          "internalType": "uint32",
          "name": "chance",
          "type": "uint32"
        }
      ],
      "name": "TooHighChance",
      "type": "error"
    },
    {
      "inputs": [
        {
          "internalType": "uint256",
          "name": "value",
          "type": "uint256"
        }
      ],
      "name": "TooHighValue",
      "type": "error"
    },
    {
      "inputs": [
        {
          "internalType": "uint8",
          "name": "objectSubType",
          "type": "uint8"
        }
      ],
      "name": "UnknownObjectTypeForSubtype",
      "type": "error"
    },
    {
      "inputs": [
        {
          "internalType": "uint8",
          "name": "objectType",
          "type": "uint8"
        }
      ],
      "name": "UnknownObjectTypeGoc1",
      "type": "error"
    },
    {
      "inputs": [
        {
          "internalType": "uint8",
          "name": "objectType",
          "type": "uint8"
        }
      ],
      "name": "UnknownObjectTypeGoc2",
      "type": "error"
    },
    {
      "inputs": [
        {
          "internalType": "uint8",
          "name": "objectType",
          "type": "uint8"
        }
      ],
      "name": "UnknownObjectTypeGocLib1",
      "type": "error"
    },
    {
      "inputs": [
        {
          "internalType": "uint8",
          "name": "objectType",
          "type": "uint8"
        }
      ],
      "name": "UnknownObjectTypeGocLib2",
      "type": "error"
    },
    {
      "inputs": [
        {
          "internalType": "uint32",
          "name": "chances",
          "type": "uint32"
        },
        {
          "internalType": "uint32",
          "name": "maxChances",
          "type": "uint32"
        }
      ],
      "name": "WrongChances",
      "type": "error"
    },
    {
      "inputs": [],
      "name": "WrongGetObjectTypeInput",
      "type": "error"
    },
    {
      "inputs": [],
      "name": "ZeroAddress",
      "type": "error"
    },
    {
      "inputs": [],
      "name": "ZeroChance",
      "type": "error"
    },
    {
      "inputs": [],
      "name": "ZeroValue",
      "type": "error"
    },
    {
      "inputs": [],
      "name": "ZeroValueNotAllowed",
      "type": "error"
    },
    {
      "anonymous": false,
      "inputs": [
        {
          "indexed": false,
          "internalType": "address",
          "name": "controller",
          "type": "address"
        },
        {
          "indexed": false,
          "internalType": "uint256",
          "name": "ts",
          "type": "uint256"
        },
        {
          "indexed": false,
          "internalType": "uint256",
          "name": "block",
          "type": "uint256"
        }
      ],
      "name": "ContractInitialized",
      "type": "event"
    },
    {
      "anonymous": false,
      "inputs": [
        {
          "indexed": false,
          "internalType": "uint32",
          "name": "objectId",
          "type": "uint32"
        },
        {
          "components": [
            {
              "internalType": "uint8",
              "name": "biome",
              "type": "uint8"
            },
            {
              "internalType": "uint16",
              "name": "eventId",
              "type": "uint16"
            },
            {
              "internalType": "enum IGOC.ObjectSubType",
              "name": "subType",
              "type": "uint8"
            },
            {
              "internalType": "uint32",
              "name": "goodChance",
              "type": "uint32"
            },
            {
              "components": [
                {
                  "internalType": "uint8[]",
                  "name": "ids",
                  "type": "uint8[]"
                },
                {
                  "internalType": "int32[]",
                  "name": "values",
                  "type": "int32[]"
                }
              ],
              "internalType": "struct IGOC.AttributeGenerateInfo",
              "name": "goodAttributes",
              "type": "tuple"
            },
            {
              "components": [
                {
                  "internalType": "uint8[]",
                  "name": "ids",
                  "type": "uint8[]"
                },
                {
                  "internalType": "int32[]",
                  "name": "values",
                  "type": "int32[]"
                }
              ],
              "internalType": "struct IGOC.AttributeGenerateInfo",
              "name": "badAttributes",
              "type": "tuple"
            },
            {
              "internalType": "uint32",
              "name": "experience",
              "type": "uint32"
            },
            {
              "internalType": "int32",
              "name": "heal",
              "type": "int32"
            },
            {
              "internalType": "int32",
              "name": "manaRegen",
              "type": "int32"
            },
            {
              "internalType": "int32",
              "name": "lifeChancesRecovered",
              "type": "int32"
            },
            {
              "internalType": "int32",
              "name": "damage",
              "type": "int32"
            },
            {
              "internalType": "int32",
              "name": "manaConsumed",
              "type": "int32"
            },
            {
              "internalType": "address[]",
              "name": "mintItems",
              "type": "address[]"
            },
            {
              "internalType": "uint32[]",
              "name": "mintItemsChances",
              "type": "uint32[]"
            }
          ],
          "indexed": false,
          "internalType": "struct IGOC.EventRegInfo",
          "name": "eventRegInfo",
          "type": "tuple"
        }
      ],
      "name": "EventRegistered",
      "type": "event"
    },
    {
      "anonymous": false,
      "inputs": [
        {
          "indexed": false,
          "internalType": "uint64",
          "name": "version",
          "type": "uint64"
        }
      ],
      "name": "Initialized",
      "type": "event"
    },
    {
      "anonymous": false,
      "inputs": [
        {
          "indexed": false,
          "internalType": "uint32",
          "name": "objectId",
          "type": "uint32"
        },
        {
          "components": [
            {
              "internalType": "uint16",
              "name": "monsterId",
              "type": "uint16"
            },
            {
              "internalType": "uint8",
              "name": "biome",
              "type": "uint8"
            },
            {
              "internalType": "enum IGOC.ObjectSubType",
              "name": "subType",
              "type": "uint8"
            },
            {
              "internalType": "uint8[]",
              "name": "attributeIds",
              "type": "uint8[]"
            },
            {
              "internalType": "int32[]",
              "name": "attributeValues",
              "type": "int32[]"
            },
            {
              "internalType": "uint8",
              "name": "level",
              "type": "uint8"
            },
            {
              "internalType": "uint8",
              "name": "race",
              "type": "uint8"
            },
            {
              "internalType": "uint32",
              "name": "experience",
              "type": "uint32"
            },
            {
              "internalType": "uint8",
              "name": "maxDropItems",
              "type": "uint8"
            },
            {
              "internalType": "address",
              "name": "attackToken",
              "type": "address"
            },
            {
              "internalType": "uint64",
              "name": "attackTokenId",
              "type": "uint64"
            },
            {
              "internalType": "uint8",
              "name": "attackType",
              "type": "uint8"
            },
            {
              "internalType": "address[]",
              "name": "mintItems",
              "type": "address[]"
            },
            {
              "internalType": "uint32[]",
              "name": "mintItemsChances",
              "type": "uint32[]"
            }
          ],
          "indexed": false,
          "internalType": "struct IGOC.MonsterGenInfo",
          "name": "monsterGenInfo",
          "type": "tuple"
        }
      ],
      "name": "MonsterRegistered",
      "type": "event"
    },
    {
      "anonymous": false,
      "inputs": [
        {
          "indexed": false,
          "internalType": "uint32",
          "name": "objectId",
          "type": "uint32"
        }
      ],
      "name": "ObjectRemoved",
      "type": "event"
    },
    {
      "anonymous": false,
      "inputs": [
        {
          "indexed": false,
          "internalType": "uint64",
          "name": "dungeonId",
          "type": "uint64"
        },
        {
          "indexed": false,
          "internalType": "uint32",
          "name": "objectId",
          "type": "uint32"
        },
        {
          "indexed": false,
          "internalType": "enum IGOC.ObjectType",
          "name": "objectType",
          "type": "uint8"
        },
        {
          "indexed": false,
          "internalType": "address",
          "name": "hero",
          "type": "address"
        },
        {
          "indexed": false,
          "internalType": "uint256",
          "name": "heroId",
          "type": "uint256"
        },
        {
          "indexed": false,
          "internalType": "uint8",
          "name": "stageId",
          "type": "uint8"
        },
        {
          "indexed": false,
          "internalType": "uint256",
          "name": "iteration",
          "type": "uint256"
        },
        {
          "indexed": false,
          "internalType": "bytes",
          "name": "data",
          "type": "bytes"
        },
        {
          "components": [
            {
              "internalType": "bool",
              "name": "kill",
              "type": "bool"
            },
            {
              "internalType": "bool",
              "name": "completed",
              "type": "bool"
            },
            {
              "internalType": "address",
              "name": "heroToken",
              "type": "address"
            },
            {
              "internalType": "address[]",
              "name": "mintItems",
              "type": "address[]"
            },
            {
              "internalType": "int32",
              "name": "heal",
              "type": "int32"
            },
            {
              "internalType": "int32",
              "name": "manaRegen",
              "type": "int32"
            },
            {
              "internalType": "int32",
              "name": "lifeChancesRecovered",
              "type": "int32"
            },
            {
              "internalType": "int32",
              "name": "damage",
              "type": "int32"
            },
            {
              "internalType": "int32",
              "name": "manaConsumed",
              "type": "int32"
            },
            {
              "internalType": "uint32",
              "name": "objectId",
              "type": "uint32"
            },
            {
              "internalType": "uint32",
              "name": "experience",
              "type": "uint32"
            },
            {
              "internalType": "uint256",
              "name": "heroTokenId",
              "type": "uint256"
            },
            {
              "internalType": "uint256",
              "name": "iteration",
              "type": "uint256"
            },
            {
              "internalType": "uint32[]",
              "name": "rewriteNextObject",
              "type": "uint32[]"
            }
          ],
          "indexed": false,
          "internalType": "struct IGOC.ActionResultEvent",
          "name": "result",
          "type": "tuple"
        },
        {
          "indexed": false,
          "internalType": "uint256",
          "name": "salt",
          "type": "uint256"
        }
      ],
      "name": "ObjectResultEvent",
      "type": "event"
    },
    {
      "anonymous": false,
      "inputs": [
        {
          "indexed": false,
          "internalType": "uint256",
          "name": "value",
          "type": "uint256"
        },
        {
          "indexed": false,
          "internalType": "address",
          "name": "oldLogic",
          "type": "address"
        }
      ],
      "name": "RevisionIncreased",
      "type": "event"
    },
    {
      "anonymous": false,
      "inputs": [
        {
          "indexed": false,
          "internalType": "uint32",
          "name": "objectId",
          "type": "uint32"
        },
        {
          "indexed": false,
          "internalType": "uint16",
          "name": "storyId",
          "type": "uint16"
        }
      ],
      "name": "StoryRegistered",
      "type": "event"
    },
    {
      "inputs": [],
      "name": "CONTROLLABLE_VERSION",
      "outputs": [
        {
          "internalType": "string",
          "name": "",
          "type": "string"
        }
      ],
      "stateMutability": "view",
      "type": "function"
    },
    {
      "inputs": [],
      "name": "VERSION",
      "outputs": [
        {
          "internalType": "string",
          "name": "",
          "type": "string"
        }
      ],
      "stateMutability": "view",
      "type": "function"
    },
    {
      "inputs": [
        {
          "internalType": "address",
          "name": "sender",
          "type": "address"
        },
        {
          "internalType": "uint64",
          "name": "dungeonId",
          "type": "uint64"
        },
        {
          "internalType": "uint32",
          "name": "objectId",
          "type": "uint32"
        },
        {
          "internalType": "address",
          "name": "hero",
          "type": "address"
        },
        {
          "internalType": "uint256",
          "name": "heroId",
          "type": "uint256"
        },
        {
          "internalType": "uint8",
          "name": "stageId",
          "type": "uint8"
        },
        {
          "internalType": "bytes",
          "name": "data",
          "type": "bytes"
        }
      ],
      "name": "action",
      "outputs": [
        {
          "components": [
            {
              "internalType": "bool",
              "name": "kill",
              "type": "bool"
            },
            {
              "internalType": "bool",
              "name": "completed",
              "type": "bool"
            },
            {
              "internalType": "address",
              "name": "heroToken",
              "type": "address"
            },
            {
              "internalType": "address[]",
              "name": "mintItems",
              "type": "address[]"
            },
            {
              "internalType": "uint32[]",
              "name": "mintItemsMF",
              "type": "uint32[]"
            },
            {
              "internalType": "int32",
              "name": "heal",
              "type": "int32"
            },
            {
              "internalType": "int32",
              "name": "manaRegen",
              "type": "int32"
            },
            {
              "internalType": "int32",
              "name": "lifeChancesRecovered",
              "type": "int32"
            },
            {
              "internalType": "int32",
              "name": "damage",
              "type": "int32"
            },
            {
              "internalType": "int32",
              "name": "manaConsumed",
              "type": "int32"
            },
            {
              "internalType": "uint32",
              "name": "objectId",
              "type": "uint32"
            },
            {
              "internalType": "uint32",
              "name": "experience",
              "type": "uint32"
            },
            {
              "internalType": "uint256",
              "name": "heroTokenId",
              "type": "uint256"
            },
            {
              "internalType": "uint256",
              "name": "iteration",
              "type": "uint256"
            },
            {
              "internalType": "uint32[]",
              "name": "rewriteNextObject",
              "type": "uint32[]"
            }
          ],
          "internalType": "struct IGOC.ActionResult",
          "name": "",
          "type": "tuple"
        }
      ],
      "stateMutability": "nonpayable",
      "type": "function"
    },
    {
      "inputs": [],
      "name": "controller",
      "outputs": [
        {
          "internalType": "address",
          "name": "",
          "type": "address"
        }
      ],
      "stateMutability": "view",
      "type": "function"
    },
    {
      "inputs": [],
      "name": "created",
      "outputs": [
        {
          "internalType": "uint256",
          "name": "",
          "type": "uint256"
        }
      ],
      "stateMutability": "view",
      "type": "function"
    },
    {
      "inputs": [],
      "name": "createdBlock",
      "outputs": [
        {
          "internalType": "uint256",
          "name": "",
          "type": "uint256"
        }
      ],
      "stateMutability": "view",
      "type": "function"
    },
    {
      "inputs": [
        {
          "internalType": "uint32",
          "name": "objectId",
          "type": "uint32"
        }
      ],
      "name": "getEventInfo",
      "outputs": [
        {
          "components": [
            {
              "internalType": "uint32",
              "name": "goodChance",
              "type": "uint32"
            },
            {
              "internalType": "bytes32[]",
              "name": "goodAttributes",
              "type": "bytes32[]"
            },
            {
              "internalType": "bytes32[]",
              "name": "badAttributes",
              "type": "bytes32[]"
            },
            {
              "internalType": "bytes32",
              "name": "statsChange",
              "type": "bytes32"
            },
            {
              "internalType": "bytes32[]",
              "name": "mintItems",
              "type": "bytes32[]"
            }
          ],
          "internalType": "struct IGOC.EventInfo",
          "name": "",
          "type": "tuple"
        }
      ],
      "stateMutability": "view",
      "type": "function"
    },
    {
      "inputs": [],
      "name": "getFightDelay",
      "outputs": [
        {
          "internalType": "uint256",
          "name": "",
          "type": "uint256"
        }
      ],
      "stateMutability": "view",
      "type": "function"
    },
    {
      "inputs": [
        {
          "internalType": "address",
          "name": "heroToken",
          "type": "address"
        },
        {
          "internalType": "uint256",
          "name": "heroTokenId",
          "type": "uint256"
        },
        {
          "internalType": "uint32",
          "name": "objId",
          "type": "uint32"
        }
      ],
      "name": "getIteration",
      "outputs": [
        {
          "internalType": "uint256",
          "name": "",
          "type": "uint256"
        }
      ],
      "stateMutability": "view",
      "type": "function"
    },
    {
      "inputs": [
        {
          "internalType": "address",
          "name": "heroToken",
          "type": "address"
        },
        {
          "internalType": "uint256",
          "name": "heroTokenId",
          "type": "uint256"
        }
      ],
      "name": "getLastHeroFightTs",
      "outputs": [
        {
          "internalType": "uint256",
          "name": "",
          "type": "uint256"
        }
      ],
      "stateMutability": "view",
      "type": "function"
    },
    {
      "inputs": [
        {
          "internalType": "address",
          "name": "hero",
          "type": "address"
        },
        {
          "internalType": "uint256",
          "name": "heroId",
          "type": "uint256"
        },
        {
          "internalType": "uint32",
          "name": "objectId",
          "type": "uint32"
        }
      ],
      "name": "getMonsterInfo",
      "outputs": [
        {
          "components": [
            {
              "internalType": "uint16",
              "name": "monsterId",
              "type": "uint16"
            },
            {
              "internalType": "uint8",
              "name": "biome",
              "type": "uint8"
            },
            {
              "internalType": "enum IGOC.ObjectSubType",
              "name": "subType",
              "type": "uint8"
            },
            {
              "internalType": "uint8[]",
              "name": "attributeIds",
              "type": "uint8[]"
            },
            {
              "internalType": "int32[]",
              "name": "attributeValues",
              "type": "int32[]"
            },
            {
              "internalType": "uint8",
              "name": "level",
              "type": "uint8"
            },
            {
              "internalType": "uint8",
              "name": "race",
              "type": "uint8"
            },
            {
              "internalType": "uint32",
              "name": "experience",
              "type": "uint32"
            },
            {
              "internalType": "uint8",
              "name": "maxDropItems",
              "type": "uint8"
            },
            {
              "internalType": "address",
              "name": "attackToken",
              "type": "address"
            },
            {
              "internalType": "uint64",
              "name": "attackTokenId",
              "type": "uint64"
            },
            {
              "internalType": "uint8",
              "name": "attackType",
              "type": "uint8"
            },
            {
              "internalType": "address[]",
              "name": "mintItems",
              "type": "address[]"
            },
            {
              "internalType": "uint32[]",
              "name": "mintItemsChances",
              "type": "uint32[]"
            }
          ],
          "internalType": "struct IGOC.MonsterGenInfo",
          "name": "mGenInfo",
          "type": "tuple"
        },
        {
          "components": [
            {
              "internalType": "bool",
              "name": "generated",
              "type": "bool"
            },
            {
              "internalType": "uint8",
              "name": "turnCounter",
              "type": "uint8"
            },
            {
              "internalType": "int32",
              "name": "hp",
              "type": "int32"
            },
            {
              "internalType": "uint32",
              "name": "amplifier",
              "type": "uint32"
            }
          ],
          "internalType": "struct IGOC.GeneratedMonster",
          "name": "gen",
          "type": "tuple"
        }
      ],
      "stateMutability": "view",
      "type": "function"
    },
    {
      "inputs": [
        {
          "internalType": "uint8",
          "name": "heroNgLevel",
          "type": "uint8"
        }
      ],
      "name": "getMonsterMultiplier",
      "outputs": [
        {
          "internalType": "uint256",
          "name": "",
          "type": "uint256"
        }
      ],
      "stateMutability": "pure",
      "type": "function"
    },
    {
      "inputs": [
        {
          "internalType": "uint8",
          "name": "biome",
          "type": "uint8"
        },
        {
          "internalType": "enum IGOC.ObjectSubType",
          "name": "subType",
          "type": "uint8"
        }
      ],
      "name": "getObjectIds",
      "outputs": [
        {
          "internalType": "uint256[]",
          "name": "",
          "type": "uint256[]"
        }
      ],
      "stateMutability": "view",
      "type": "function"
    },
    {
      "inputs": [
        {
          "internalType": "uint32",
          "name": "objectId",
          "type": "uint32"
        }
      ],
      "name": "getObjectMeta",
      "outputs": [
        {
          "internalType": "uint8",
          "name": "biome",
          "type": "uint8"
        },
        {
          "internalType": "uint8",
          "name": "objectSubType",
          "type": "uint8"
        }
      ],
      "stateMutability": "view",
      "type": "function"
    },
    {
      "inputs": [
        {
          "internalType": "uint32",
          "name": "objectId",
          "type": "uint32"
        }
      ],
      "name": "getObjectTypeBySubType",
      "outputs": [
        {
          "internalType": "enum IGOC.ObjectType",
          "name": "",
          "type": "uint8"
        }
      ],
      "stateMutability": "view",
      "type": "function"
    },
    {
      "inputs": [
        {
          "internalType": "uint8[]",
          "name": "cTypes",
          "type": "uint8[]"
        },
        {
          "internalType": "uint32[]",
          "name": "chances",
          "type": "uint32[]"
        },
        {
          "internalType": "uint8",
          "name": "biome",
          "type": "uint8"
        },
        {
          "internalType": "address",
          "name": "hero",
          "type": "address"
        },
        {
          "internalType": "uint256",
          "name": "heroId",
          "type": "uint256"
        }
      ],
      "name": "getRandomObject",
      "outputs": [
        {
          "internalType": "uint32",
          "name": "objectId",
          "type": "uint32"
        }
      ],
      "stateMutability": "nonpayable",
      "type": "function"
    },
    {
      "inputs": [
        {
          "internalType": "uint32",
          "name": "objectId",
          "type": "uint32"
        }
      ],
      "name": "getStoryId",
      "outputs": [
        {
          "internalType": "uint16",
          "name": "",
          "type": "uint16"
        }
      ],
      "stateMutability": "view",
      "type": "function"
    },
    {
      "inputs": [
        {
          "internalType": "address",
          "name": "oldLogic",
          "type": "address"
        }
      ],
      "name": "increaseRevision",
      "outputs": [],
      "stateMutability": "nonpayable",
      "type": "function"
    },
    {
      "inputs": [
        {
          "internalType": "address",
          "name": "controller_",
          "type": "address"
        }
      ],
      "name": "init",
      "outputs": [],
      "stateMutability": "nonpayable",
      "type": "function"
    },
    {
      "inputs": [
        {
          "internalType": "address",
          "name": "heroToken",
          "type": "address"
        },
        {
          "internalType": "uint256",
          "name": "heroTokenId",
          "type": "uint256"
        },
        {
          "internalType": "uint32",
          "name": "objId",
          "type": "uint32"
        }
      ],
      "name": "isAvailableForHero",
      "outputs": [
        {
          "internalType": "bool",
          "name": "",
          "type": "bool"
        }
      ],
      "stateMutability": "view",
      "type": "function"
    },
    {
      "inputs": [
        {
          "internalType": "uint32",
          "name": "objectId",
          "type": "uint32"
        }
      ],
      "name": "isBattleObject",
      "outputs": [
        {
          "internalType": "bool",
          "name": "",
          "type": "bool"
        }
      ],
      "stateMutability": "view",
      "type": "function"
    },
    {
      "inputs": [
        {
          "internalType": "address",
          "name": "value_",
          "type": "address"
        }
      ],
      "name": "isController",
      "outputs": [
        {
          "internalType": "bool",
          "name": "",
          "type": "bool"
        }
      ],
      "stateMutability": "view",
      "type": "function"
    },
    {
      "inputs": [
        {
          "internalType": "address",
          "name": "value_",
          "type": "address"
        }
      ],
      "name": "isGovernance",
      "outputs": [
        {
          "internalType": "bool",
          "name": "",
          "type": "bool"
        }
      ],
      "stateMutability": "view",
      "type": "function"
    },
    {
      "inputs": [
        {
          "internalType": "address",
          "name": "hero",
          "type": "address"
        },
        {
          "internalType": "uint256",
          "name": "heroId",
          "type": "uint256"
        },
        {
          "internalType": "uint32",
          "name": "objectId",
          "type": "uint32"
        }
      ],
      "name": "open",
      "outputs": [
        {
          "internalType": "uint256",
          "name": "iteration",
          "type": "uint256"
        }
      ],
      "stateMutability": "nonpayable",
      "type": "function"
    },
    {
      "inputs": [],
      "name": "previousImplementation",
      "outputs": [
        {
          "internalType": "address",
          "name": "",
          "type": "address"
        }
      ],
      "stateMutability": "view",
      "type": "function"
    },
    {
      "inputs": [
        {
          "components": [
            {
              "internalType": "uint8",
              "name": "biome",
              "type": "uint8"
            },
            {
              "internalType": "uint16",
              "name": "eventId",
              "type": "uint16"
            },
            {
              "internalType": "enum IGOC.ObjectSubType",
              "name": "subType",
              "type": "uint8"
            },
            {
              "internalType": "uint32",
              "name": "goodChance",
              "type": "uint32"
            },
            {
              "components": [
                {
                  "internalType": "uint8[]",
                  "name": "ids",
                  "type": "uint8[]"
                },
                {
                  "internalType": "int32[]",
                  "name": "values",
                  "type": "int32[]"
                }
              ],
              "internalType": "struct IGOC.AttributeGenerateInfo",
              "name": "goodAttributes",
              "type": "tuple"
            },
            {
              "components": [
                {
                  "internalType": "uint8[]",
                  "name": "ids",
                  "type": "uint8[]"
                },
                {
                  "internalType": "int32[]",
                  "name": "values",
                  "type": "int32[]"
                }
              ],
              "internalType": "struct IGOC.AttributeGenerateInfo",
              "name": "badAttributes",
              "type": "tuple"
            },
            {
              "internalType": "uint32",
              "name": "experience",
              "type": "uint32"
            },
            {
              "internalType": "int32",
              "name": "heal",
              "type": "int32"
            },
            {
              "internalType": "int32",
              "name": "manaRegen",
              "type": "int32"
            },
            {
              "internalType": "int32",
              "name": "lifeChancesRecovered",
              "type": "int32"
            },
            {
              "internalType": "int32",
              "name": "damage",
              "type": "int32"
            },
            {
              "internalType": "int32",
              "name": "manaConsumed",
              "type": "int32"
            },
            {
              "internalType": "address[]",
              "name": "mintItems",
              "type": "address[]"
            },
            {
              "internalType": "uint32[]",
              "name": "mintItemsChances",
              "type": "uint32[]"
            }
          ],
          "internalType": "struct IGOC.EventRegInfo",
          "name": "regInfo",
          "type": "tuple"
        }
      ],
      "name": "registerEvent",
      "outputs": [],
      "stateMutability": "nonpayable",
      "type": "function"
    },
    {
      "inputs": [
        {
          "components": [
            {
              "internalType": "uint16",
              "name": "monsterId",
              "type": "uint16"
            },
            {
              "internalType": "uint8",
              "name": "biome",
              "type": "uint8"
            },
            {
              "internalType": "enum IGOC.ObjectSubType",
              "name": "subType",
              "type": "uint8"
            },
            {
              "internalType": "uint8[]",
              "name": "attributeIds",
              "type": "uint8[]"
            },
            {
              "internalType": "int32[]",
              "name": "attributeValues",
              "type": "int32[]"
            },
            {
              "internalType": "uint8",
              "name": "level",
              "type": "uint8"
            },
            {
              "internalType": "uint8",
              "name": "race",
              "type": "uint8"
            },
            {
              "internalType": "uint32",
              "name": "experience",
              "type": "uint32"
            },
            {
              "internalType": "uint8",
              "name": "maxDropItems",
              "type": "uint8"
            },
            {
              "internalType": "address",
              "name": "attackToken",
              "type": "address"
            },
            {
              "internalType": "uint64",
              "name": "attackTokenId",
              "type": "uint64"
            },
            {
              "internalType": "uint8",
              "name": "attackType",
              "type": "uint8"
            },
            {
              "internalType": "address[]",
              "name": "mintItems",
              "type": "address[]"
            },
            {
              "internalType": "uint32[]",
              "name": "mintItemsChances",
              "type": "uint32[]"
            }
          ],
          "internalType": "struct IGOC.MonsterGenInfo",
          "name": "monsterGenInfo",
          "type": "tuple"
        }
      ],
      "name": "registerMonster",
      "outputs": [],
      "stateMutability": "nonpayable",
      "type": "function"
    },
    {
      "inputs": [
        {
          "internalType": "uint16",
          "name": "storyId",
          "type": "uint16"
        },
        {
          "internalType": "uint8",
          "name": "biome",
          "type": "uint8"
        },
        {
          "internalType": "enum IGOC.ObjectSubType",
          "name": "subType",
          "type": "uint8"
        }
      ],
      "name": "registerStory",
      "outputs": [],
      "stateMutability": "nonpayable",
      "type": "function"
    },
    {
      "inputs": [
        {
          "internalType": "uint32",
          "name": "objectId",
          "type": "uint32"
        }
      ],
      "name": "removeObject",
      "outputs": [],
      "stateMutability": "nonpayable",
      "type": "function"
    },
    {
      "inputs": [],
      "name": "revision",
      "outputs": [
        {
          "internalType": "uint256",
          "name": "",
          "type": "uint256"
        }
      ],
      "stateMutability": "view",
      "type": "function"
    }
  ],
  "transactionHash": "0x63870369eb7715e236b577cd0ac6344c0021f6ca2260a8140f7787cca530b503",
  "args": [],
  "numDeployments": 3,
  "solcInputHash": "d0e7b78f844cf860ee0bc8ebf8c63b8d",
  "bytecode": "0x60806040523480156200001157600080fd5b507ff0c57e16840df040f15088dc2f81fe391c3923bec73e23a9662efc9c229c6a00805468010000000000000000810460ff1615906001600160401b03166000811580156200005d5750825b90506000826001600160401b031660011480156200007a5750303b155b90508115801562000089575080155b15620000a85760405163f92ee8a960e01b815260040160405180910390fd5b84546001600160401b03191660011785558315620000d757845460ff60401b1916680100000000000000001785555b83156200011e57845460ff60401b19168555604051600181527fc7f505b2f371ae2175ee4913f4499e1f2633a7b5936321eed1cdaeb6115181d29060200160405180910390a15b505050505061599180620001336000396000f3fe608060405234801561001057600080fd5b506004361061017a5760003560e01c80637cc96380116100d45780637cc96380146102f05780638154916e146102f8578063909aa53914610318578063936725ec146103385780639d0bcca014610369578063a8ca89ff1461037e578063b414c55314610391578063b429afeb146103a4578063d447d4df146103b7578063d5e46dcd146103ca578063dee1f0e4146103f7578063f2c6c6fb1461040a578063f3deb3911461041d578063f77c479114610430578063ffa1ad741461043857600080fd5b806306efb7851461017f5780630e2ecde2146101a55780630e91f15e146101cb578063172ae49a146101eb57806319ab453c146102005780631c10968c14610213578063325a19f11461021b5780634593144c146102235780634675bfff1461022b5780634fac6ccd1461023e5780635f1d20a1146102515780636742e2d61461026457806369c3d472146102875780636f383c0f146102a857806375a8e7da146102d0575b600080fd5b61019261018d366004613e67565b61045c565b6040519081526020015b60405180910390f35b6101b86101b3366004613eb0565b610471565b60405161ffff909116815260200161019c565b6101de6101d9366004613ef6565b61047c565b60405161019c9190613f2b565b6101fe6101f9366004613eb0565b610488565b005b6101fe61020e366004613f6f565b61049c565b610192610596565b6101926105a5565b6101926105d9565b6101fe6102393660046142a6565b610609565b6101fe61024c366004613f6f565b61061a565b61019261025f366004614433565b61072b565b610277610272366004614450565b610736565b604051901515815260200161019c565b61029a610295366004614450565b610755565b60405161019c9291906146db565b6102bb6102b636600461472a565b61077c565b60405163ffffffff909116815260200161019c565b6102e36102de366004613eb0565b61079f565b60405161019c91906147eb565b6101926107b0565b61030b610306366004613eb0565b6107ce565b60405161019c919061486d565b61032b610326366004614892565b6107d9565b60405161019c919061498b565b61035c604051806040016040528060058152602001640312e302e360dc1b81525081565b60405161019c9190614b1e565b610371610804565b60405161019c9190614b31565b6101fe61038c366004614b45565b610834565b6101fe61039f366004614b8a565b61084c565b6102776103b2366004613f6f565b61085d565b6102776103c5366004613eb0565b610882565b6103dd6103d8366004613eb0565b61088d565b6040805160ff93841681529290911660208301520161019c565b610277610405366004613f6f565b6108a2565b610192610418366004614450565b610927565b61019261042b366004614450565b61093c565b610371610949565b61035c60405180604001604052806005815260200164312e312e3560d81b81525081565b60006104688383610979565b90505b92915050565b600061046b826109b2565b606061046883836109df565b610499610493610949565b82610a1f565b50565b60006104a6610ad1565b805490915060ff600160401b82041615906001600160401b03166000811580156104cd5750825b90506000826001600160401b031660011480156104e95750303b155b9050811580156104f7575080155b156105155760405163f92ee8a960e01b815260040160405180910390fd5b845467ffffffffffffffff19166001178555831561053f57845460ff60401b1916600160401b1785555b61054886610af5565b831561058e57845460ff60401b19168555604051600181527fc7f505b2f371ae2175ee4913f4499e1f2633a7b5936321eed1cdaeb6115181d29060200160405180910390a15b505050505050565b60006105a0610b06565b905090565b60006105a06105d560017f6f55f470bdc9cb5f04223fd822021061668e4dccb43e8727b295106dc9769c8b614cd2565b5490565b60006105a06105d560017f812a673dfca07956350df10f8a654925f561d7a0da09bdbe79e653939a14d9f1614cd2565b610499610614610949565b82610b19565b33301461066c5760405162461bcd60e51b815260206004820152601b60248201527a24b731b932b0b9b2903932bb34b9b4b7b7103337b93134b23232b760291b60448201526064015b60405180910390fd5b600061068a6105d5600160008051602061593c833981519152614cd2565b610695906001614ce5565b90506106b7816106b4600160008051602061593c833981519152614cd2565b55565b6106e6826106b460017fbfaaa2fb63266ff27c2da975f5894955056f50419af651a81f6c5060581857e4614cd2565b604080518281526001600160a01b03841660208201527ff27e2ef832a4eb8ed8ec553b875eecd44764cda95b1c24170e281539e0a869c8910160405180910390a15050565b600061046b82610c0d565b600061074b610743610949565b858585610c20565b90505b9392505050565b61075d613c3e565b610765613cb0565b610770858585610ca9565b91509150935093915050565b6000610793610789610949565b8787878787610d89565b90505b95945050505050565b6107a7613cd7565b61046b82610e77565b60006105a06105d5600160008051602061593c833981519152614cd2565b600061046b82610fca565b6107e1613d04565b6107f86107ec610949565b89898989898989611018565b98975050505050505050565b60006105a06105d560017fbfaaa2fb63266ff27c2da975f5894955056f50419af651a81f6c5060581857e4614cd2565b61084761083f610949565b8484846115d4565b505050565b610499610857610949565b82611663565b6000610867610949565b6001600160a01b0316826001600160a01b0316149050919050565b600061046b82611744565b60008061089983611789565b91509150915091565b6000816001600160a01b03166108b6610949565b6001600160a01b0316635aa6e6756040518163ffffffff1660e01b8152600401602060405180830381865afa1580156108f3573d6000803e3d6000fd5b505050506040513d601f19601f820116820180604052508101906109179190614d03565b6001600160a01b03161492915050565b600061074b610934610949565b858585611797565b600061074b848484611982565b60006105a06105d560017f5165972ef41194f06c5007493031d0b927c20741adcb74403b954009fd2c3618614cd2565b60006109836119b4565b600701600061099b6001600160a01b038616856119d8565b815260200190815260200160002054905092915050565b60006109bc6119b4565b63ffffffff909216600090815260059290920160205250604090205461ffff1690565b60606104686109ec6119b4565b6001016000610a0c86866035811115610a0757610a07614492565b611a27565b8152602001908152602001600020611a3c565b610a2882611a49565b6000610a326119b4565b63ffffffff8316600090815260209190915260409020549050610a536119b4565b63ffffffff831660008181526020929092526040822091909155610a9190610a796119b4565b60008481526001919091016020526040902090611ad5565b5060405163ffffffff831681527f93afafd4d79cc89e4afba48bcd8cac7b8a35b45dfb55afe60cccae721124cd0f906020015b60405180910390a1505050565b7ff0c57e16840df040f15088dc2f81fe391c3923bec73e23a9662efc9c229c6a0090565b610afd611ae1565b61049981611b08565b6000610b106119b4565b60080154905090565b610b2282611a49565b610b36816101800151826101a00151611c27565b6000610b4f826000015183604001518460200151611d60565b905073ce6c031299703B9794cF0DF103a2Df6e122da6BA6330f53b2c83610b746119b4565b63ffffffff85166000908152600491820160205260409081902090516001600160e01b031960e086901b168152610bac939201614da0565b60006040518083038186803b158015610bc457600080fd5b505af4158015610bd8573d6000803e3d6000fd5b505050507f8ee0b45ff34ecba58a4014e0e0a9ebb97960cbfcae1e413072685b6b56b724fe8183604051610ac4929190614f34565b600061046b60ff8316633b9aca00615095565b600080610c2c83611789565b915050610c9d866001600160a01b031663524a562f6040518163ffffffff1660e01b8152600401602060405180830381865afa158015610c70573d6000803e3d6000fd5b505050506040513d601f19601f82011682018060405250810190610c949190614d03565b84838888611de1565b9150505b949350505050565b610cb1613c3e565b610cb9613cb0565b6000610cc36119b4565b6003016000610cdc6001600160a01b0389168888611f00565b8152602001908152602001600020549050610d16610cf86119b4565b63ffffffff8616600090815260069190910160205260409020611f33565b9250610d7e610d236119b4565b63ffffffff8087166000908152600692909201602052604082206004019190610d59906001600160a01b038b16908a906119d816565b8152602001908152602001600020600083815260200190815260200160002054612154565b915050935093915050565b6000610df5876001600160a01b031663683fedf76040518163ffffffff1660e01b8152600401602060405180830381865afa158015610dcc573d6000803e3d6000fd5b505050506040513d601f19601f82011682018060405250810190610df09190614d03565b6121a2565b610e6c610e006119b4565b886001600160a01b031663524a562f6040518163ffffffff1660e01b8152600401602060405180830381865afa158015610e3e573d6000803e3d6000fd5b505050506040513d601f19601f82011682018060405250810190610e629190614d03565b88888888886121cd565b979650505050505050565b610e7f613cd7565b610e876119b4565b63ffffffff80841660009081526004929092016020908152604092839020835160a081018552815490931683526001810180548551818502810185019096528086529394919385840193830182828015610f0057602002820191906000526020600020905b815481526020019060010190808311610eec575b5050505050815260200160028201805480602002602001604051908101604052809291908181526020018280548015610f5857602002820191906000526020600020905b815481526020019060010190808311610f44575b505050505081526020016003820154815260200160048201805480602002602001604051908101604052809291908181526020018280548015610fba57602002820191906000526020600020905b815481526020019060010190808311610fa6575b5050505050815250509050919050565b600080610ff8610fd86119b4565b63ffffffff85166000908152602091909152604090205490600882901c90565b91505061074e8160ff16603581111561101357611013614492565b612300565b611020613d04565b600061102b8a6128de565b9050611039610df0826128f6565b604080516101a0810182526000918101829052606081018290526080810182905260c081018290526101008101829052610140810182905261016081019190915263ffffffff881660e08201526001600160a01b038a8116825287166020820152610120810186905260ff851660a082015261018081018490526110bc88611789565b60ff90811660808401521660608201526110d582612916565b6001600160a01b031663bcd418b088886040518363ffffffff1660e01b81526004016111029291906150ac565b60a060405180830381865afa15801561111f573d6000803e3d6000fd5b505050506040513d601f19601f8201168201806040525081019061114391906150d5565b6020015160ff1660c08201526001600160401b0389166101008201526111676119b4565b600301600061117789898c612936565b815260208101919091526040908101600020546101608301526001600160a01b038c16908201526111a6613d04565b60006111c4836080015160ff16603581111561101357611013614492565b60048111156111d5576111d5614492565b4361014085015290506201b2531946016112535760646001600160a01b031663a3b1b31d6040518163ffffffff1660e01b8152600401602060405180830381865afa158015611228573d6000803e3d6000fd5b505050506040513d601f19601f8201168201806040525081019061124c9190615178565b6101408401525b60001960ff8216016113065773ce6c031299703B9794cF0DF103a2Df6e122da6BA63bd9fe9db846112826119b4565b63ffffffff8e166000908152600491820160205260409081902090516001600160e01b031960e086901b1681526112ba939201615281565b600060405180830381865af41580156112d7573d6000803e3d6000fd5b505050506040513d6000823e601f3d908101601f191682016040526112ff91908101906154ef565b9150611465565b60011960ff8216016113d15761131c898961294c565b73d876059838Db2fFFCF4ec06227A570ED074dA3fD63307800a28461133f6119b4565b60060160008e63ffffffff1663ffffffff1681526020019081526020016000206040518363ffffffff1660e01b815260040161137c929190615281565b600060405180830381865af4158015611399573d6000803e3d6000fd5b505050506040513d6000823e601f3d908101601f191682016040526113c19190810190615523565b60ff166101408501529150611465565b60021960ff82160161144757732E825E06c9AE8796c8d0718AE31F996fDB4acBC963f60d304b85856114016119b4565b60e08881015163ffffffff1660009081526005929092016020526040918290205491519085901b6001600160e01b03191681526112ba93929161ffff1690600401615574565b604051634d07af3360e01b815260ff82166004820152602401610663565b60e083015163ffffffff166101408301526001600160a01b038916604083015261018082018890526101608301516101a08301527f67af56937d4d46082b2327381733f95fd39ed3df103ec0f3761eb315b463f5648b8b60ff841660048111156114d1576114d1614492565b8c8c8c8961016001518d604051806101c001604052808c60000151151581526020018c60200151151581526020018c604001516001600160a01b031681526020018c6060015181526020018c60a0015160030b81526020018c60c0015160030b81526020018c60e0015160030b81526020018c610100015160030b81526020018c610120015160030b81526020018c610140015163ffffffff1681526020018c610160015163ffffffff1681526020018c610180015181526020018c6101a0015181526020018c6101c001518152508c61014001516040516115bc9a999897969594939291906155e0565b60405180910390a1509b9a5050505050505050505050565b6115dd84611a49565b60006115ea838386611d60565b9050836115f56119b4565b63ffffffff831660008181526005929092016020908152604092839020805461ffff191661ffff9586161790558251918252928716928101929092527f9df2729723fcb63a4f46ffc16905a683f7eb0e8dd3ec260515e66b4d4cd8c0ad910160405180910390a15050505050565b61166c82611a49565b611680816101800151826101a00151611c27565b6000611699826020015183604001518460000151611d60565b90506116a36119b4565b63ffffffff8216600090815260069190910160205260408120906116c78282613d82565b600182016000905560028201600090556003820160006116e79190613d82565b5050611713826116f56119b4565b63ffffffff84166000908152600691909101602052604090206129c9565b7fe9039f79f66d71725ba719a022b5729bbfce163887322d74e690772fe247fa4b8183604051610ac492919061577b565b600080611752610fd86119b4565b9150600290506117708260ff16603581111561101357611013614492565b600481111561178157611781614492565b149392505050565b600080610899610fd86119b4565b60006117da856001600160a01b031663683fedf76040518163ffffffff1660e01b8152600401602060405180830381865afa158015610dcc573d6000803e3d6000fd5b6117e5848484612b6d565b905060006117f283611789565b915050600061180f8260ff16603581111561101357611013614492565b600481111561182057611820614492565b905060001960ff821601156119785760011960ff82160161194d576000876001600160a01b031663016dff5d6040518163ffffffff1660e01b8152600401602060405180830381865afa15801561187b573d6000803e3d6000fd5b505050506040513d601f19601f8201168201806040525081019061189f9190614d03565b6001600160a01b031663bcd418b088886040518363ffffffff1660e01b81526004016118cc9291906150ac565b60a060405180830381865afa1580156118e9573d6000803e3d6000fd5b505050506040513d601f19601f8201168201806040525081019061190d91906150d5565b905061194761191a6119b4565b60060160008763ffffffff1663ffffffff1681526020019081526020016000208888878560200151612bc2565b50611978565b60021960ff821601156119785760405163cafe050760e01b815260ff82166004820152602401610663565b5050949350505050565b600061198c6119b4565b600301600061199c868686612936565b81526020019081526020016000205490509392505050565b7ffa9e067a92ca4a9057b7b4465a8f29d633e1758238bd3a4a8ec5d0f904f6b90090565b60006001600160401b03821115611a0557604051633995b34160e01b815260048101839052602401610663565b50600160a01b600160e01b0360a09190911b166001600160a01b039091161790565b600060ff8316600883901b61ff001617610468565b6060600061074e83612bd2565b604051631430d62960e21b81526001600160a01b038216906350c358a490611a75903390600401614b31565b602060405180830381865afa158015611a92573d6000803e3d6000fd5b505050506040513d601f19601f82011682018060405250810190611ab6919061579a565b610499573360405163451cea1760e11b81526004016106639190614b31565b60006104688383612c2e565b611ae9612d28565b611b0657604051631afcd79f60e31b815260040160405180910390fd5b565b6001600160a01b038116611b505760405162461bcd60e51b815260206004820152600f60248201526e2d32b9379031b7b73a3937b63632b960891b6044820152606401610663565b611b7f816106b460017f5165972ef41194f06c5007493031d0b927c20741adcb74403b954009fd2c3618614cd2565b611bae426106b460017f6f55f470bdc9cb5f04223fd822021061668e4dccb43e8727b295106dc9769c8b614cd2565b611bdd436106b460017f812a673dfca07956350df10f8a654925f561d7a0da09bdbe79e653939a14d9f1614cd2565b604080516001600160a01b0383168152426020820152438183015290517f1a2dd071001ebf6e03174e3df5b305795a4ad5d41d8fdb9ba41dbbe2367134269181900360600190a150565b815181518114611c4a5760405163586cb9e160e01b815260040160405180910390fd5b60005b81811015611d5a5760006001600160a01b0316848281518110611c7257611c726157b5565b60200260200101516001600160a01b031603611ca15760405163d92e233d60e01b815260040160405180910390fd5b828181518110611cb357611cb36157b5565b602002602001015163ffffffff16600003611ce15760405163eb79f4eb60e01b815260040160405180910390fd5b633b9aca0063ffffffff16838281518110611cfe57611cfe6157b5565b602002602001015163ffffffff161115611d5257828181518110611d2457611d246157b5565b60200260200101516040516304470bfd60e21b8152600401610663919063ffffffff91909116815260200190565b600101611c4d565b50505050565b600080611d6b6119b4565b9050611d8985856035811115611d8357611d83614492565b85612d42565b91506000611da386866035811115610a0757610a07614492565b63ffffffff808516600081815260208681526040808320869055858352600188019091529020929350611dd79291612e3716565b5050509392505050565b600080611dfc8560ff16603581111561101357611013614492565b90506001816004811115611e1257611e12614492565b03611e21576001915050610796565b6002816004811115611e3557611e35614492565b03611e44576001915050610796565b6003816004811115611e5857611e58614492565b03611ee257604051630152f74f60e41b815263ffffffff871660048201526001600160a01b0385811660248301526044820185905288169063152f74f090606401602060405180830381865afa158015611eb6573d6000803e3d6000fd5b505050506040513d601f19601f82011682018060405250810190611eda919061579a565b915050610796565b604051630dad26cb60e31b815260ff86166004820152602401610663565b6001600160a01b039290921660a09190911b600160a01b600160e01b03161760e09190911b6001600160e01b0319161790565b611f3b613c3e565b611f43613c3e565b611f9e83600001805480602002602001604051908101604052809291908181526020018280548015611f9457602002820191906000526020600020905b815481526020019060010190808311611f80575b5050505050612e43565b606083015260808201526001830154600881901c601082901c603083901c60ff90811661010086015263ffffffff90911660e085015290811660c08401521660a08201526002830154611ff860a082901c9060e083901c90565b60ff166101608401526001600160401b039081166101408401526001600160a01b03909116610120830152600384015490819081111561203a5761203a613f8c565b604051908082528060200260200182016040528015612063578160200160208202803683370190505b50610180830152806001600160401b0381111561208257612082613f8c565b6040519080825280602002602001820160405280156120ab578160200160208202803683370190505b506101a083015260005b8181101561214b576120e98560030182815481106120d5576120d56157b5565b90600052602060002001549060a082901c90565b8461018001518381518110612100576121006157b5565b60200260200101856101a00151848151811061211e5761211e6157b5565b63ffffffff909316602093840291909101909201919091526001600160a01b0390911690526001016120b5565b50909392505050565b61215c613cb0565b506040805160808101825260ff8381166001148252604884901c166020820152602883901c60030b9181019190915263ffffffff60089290921c91909116606082015290565b6001600160a01b0381163314610499573360405163cf219bef60e01b81526004016106639190614b31565b6000806121dd87876131346131dd565b905060008960010160006121f18885611a27565b81526020019081526020016000209050600061220c826133e6565b90508060000361222f5760405163296a76c760e21b815260040160405180910390fd5b6000816001146122515761224c612247600184614cd2565b613134565b612254565b60005b9050600060028d018160ff60e81b60e88c901b1660ff60e01b60e089901b16600160a01b600160e01b0360a08c901b166001600160a01b038d16171717815260200190815260200160002090506122b38c8486848660008e8e8d6133f0565b95508563ffffffff166000036122dc57604051639cb04d5d60e01b815260040160405180910390fd5b6122ef8163ffffffff80891690612e3716565b505050505050979650505050505050565b6000600482603581111561231657612316614492565b14806123335750600582603581111561233157612331614492565b145b8061234f5750600882603581111561234d5761234d614492565b145b1561235c57506001919050565b600182603581111561237057612370614492565b148061238d5750600282603581111561238b5761238b614492565b145b806123a9575060038260358111156123a7576123a7614492565b145b806123c55750600a8260358111156123c3576123c3614492565b145b806123e1575060208260358111156123df576123df614492565b145b806123fd575060218260358111156123fb576123fb614492565b145b806124195750602282603581111561241757612417614492565b145b806124355750602382603581111561243357612433614492565b145b806124515750602a82603581111561244f5761244f614492565b145b8061246d5750602b82603581111561246b5761246b614492565b145b806124895750602c82603581111561248757612487614492565b145b806124a55750602d8260358111156124a3576124a3614492565b145b806124c15750602e8260358111156124bf576124bf614492565b145b806124dd5750602f8260358111156124db576124db614492565b145b156124ea57506002919050565b60068260358111156124fe576124fe614492565b148061251b5750600782603581111561251957612519614492565b145b806125375750600b82603581111561253557612535614492565b145b806125535750600c82603581111561255157612551614492565b145b8061256f5750600d82603581111561256d5761256d614492565b145b8061258b5750600e82603581111561258957612589614492565b145b806125a75750600f8260358111156125a5576125a5614492565b145b806125c3575060108260358111156125c1576125c1614492565b145b806125df575060118260358111156125dd576125dd614492565b145b806125fb575060128260358111156125f9576125f9614492565b145b806126175750601382603581111561261557612615614492565b145b806126335750601482603581111561263157612631614492565b145b8061264f5750601582603581111561264d5761264d614492565b145b8061266b5750601682603581111561266957612669614492565b145b806126875750601782603581111561268557612685614492565b145b806126a3575060188260358111156126a1576126a1614492565b145b806126bf575060198260358111156126bd576126bd614492565b145b806126db5750601a8260358111156126d9576126d9614492565b145b806126f75750601b8260358111156126f5576126f5614492565b145b806127135750601c82603581111561271157612711614492565b145b8061272f5750601d82603581111561272d5761272d614492565b145b8061274b5750601e82603581111561274957612749614492565b145b806127675750601f82603581111561276557612765614492565b145b806127835750602482603581111561278157612781614492565b145b8061279f5750602582603581111561279d5761279d614492565b145b806127bb575060268260358111156127b9576127b9614492565b145b806127d7575060278260358111156127d5576127d5614492565b145b806127f3575060288260358111156127f1576127f1614492565b145b8061280f5750602982603581111561280d5761280d614492565b145b8061282b5750603082603581111561282957612829614492565b145b806128475750603182603581111561284557612845614492565b145b806128635750603282603581111561286157612861614492565b145b8061287f5750603382603581111561287d5761287d614492565b145b8061289b5750603482603581111561289957612899614492565b145b156128a857506003919050565b8160358111156128ba576128ba614492565b6040516302f13cad60e41b815260ff9091166004820152602401610663565b919050565b6128e6613da0565b6001600160a01b03909116815290565b600061046b82600484600001516001600160a01b031663683fedf76134bf565b600061046b82600884600001516001600160a01b031663016dff5d6134bf565b600061074b6001600160a01b0385168484611f00565b60006129566119b4565b9050600061296d6001600160a01b038516846119d8565b6008830154600082815260078501602052604090205491925042916129929190614ce5565b11156129b15760405163051211b760e11b815260040160405180910390fd5b60009081526007909101602052604090204290555050565b606082015160808301516129dc916135cb565b80516129ef918391602090910190613dc8565b5060a082015160c083015160e084015161010085015160ff90931660089290921b61ff00169190911760109190911b65ffffffff0000161760309190911b60ff60301b161760018201556101208201516101408301516101608401516001600160a01b0390921660a09190911b600160a01b600160e01b03161760e09190911b60ff60e01b16176002820155610180820151516000816001600160401b03811115612a9c57612a9c613f8c565b604051908082528060200260200182016040528015612ac5578160200160208202803683370190505b50905060005b82811015612b5057612b2b856101a001518281518110612aed57612aed6157b5565b60200260200101518661018001518381518110612b0c57612b0c6157b5565b60200260200101516001600160a01b031661382990919063ffffffff16565b828281518110612b3d57612b3d6157b5565b6020908102919091010152600101612acb565b508051612b669060038501906020840190613dc8565b5050505050565b600080612b786119b4565b90506000612b87868686612936565b6000818152600384016020526040902054909150612ba6906001614ce5565b6000918252600390920160205260409020819055949350505050565b612b668585858561384786613852565b606081600001805480602002602001604051908101604052809291908181526020018280548015612c2257602002820191906000526020600020905b815481526020019060010190808311612c0e575b50505050509050919050565b60008181526001830160205260408120548015612d17576000612c52600183614cd2565b8554909150600090612c6690600190614cd2565b9050808214612ccb576000866000018281548110612c8657612c866157b5565b9060005260206000200154905080876000018481548110612ca957612ca96157b5565b6000918252602080832090910192909255918252600188019052604090208390555b8554869080612cdc57612cdc6157cb565b60019003818190600052602060002001600090559055856001016000868152602001908152602001600020600090556001935050505061046b565b600091505061046b565b5092915050565b6000612d32610ad1565b54600160401b900460ff16919050565b600060ff84161580612d55575060ff8316155b80612d62575061ffff8216155b15612d805760405163273e150360e21b815260040160405180910390fd5b60648460ff1610612da9576040516340eff0e560e01b815260ff85166004820152602401610663565b60648360ff1610612dd25760405163017c4c5960e01b815260ff84166004820152602401610663565b6127108261ffff161115612dff57604051637dc12d1d60e01b815261ffff83166004820152602401610663565b61ffff8216612e1360ff85166127106157e1565b612e2360ff8716620f42406157e1565b612e2d9190615809565b61074b9190615809565b6000610468838361393b565b805160609081906000612e57826008615095565b90506000816001600160401b03811115612e7357612e73613f8c565b604051908082528060200260200182016040528015612e9c578160200160208202803683370190505b5090506000826001600160401b03811115612eb957612eb9613f8c565b604051908082528060200260200182016040528015612ee2578160200160208202803683370190505b5090506000805b8581101561300f5760005b600881101561300657600081612f0b846008615095565b612f159190614ce5565b9050612f22826020615095565b8b8481518110612f3457612f346157b5565b602002602001015160001c901c60020b868281518110612f5657612f566157b5565b60039290920b602092830291909101820152612f73908390615095565b612f7e906018614ce5565b8b8481518110612f9057612f906157b5565b602002602001015160001c901c858281518110612faf57612faf6157b5565b602002602001019060ff16908160ff1681525050858181518110612fd557612fd56157b5565b602002602001015160030b600003612fed5750613006565b83612ff781615826565b94505050806001019050612ef4565b50600101612ee9565b50806001600160401b0381111561302857613028613f8c565b604051908082528060200260200182016040528015613051578160200160208202803683370190505b509650806001600160401b0381111561306c5761306c613f8c565b604051908082528060200260200182016040528015613095578160200160208202803683370190505b50955060005b81811015613129578381815181106130b5576130b56157b5565b60200260200101518882815181106130cf576130cf6157b5565b602002602001019060030b908160030b815250508281815181106130f5576130f56157b5565b602002602001015187828151811061310f5761310f6157b5565b60ff9092166020928302919091019091015260010161309b565b505050505050915091565b60008160000361314657506000919050565b600061315061398a565b905061315d836001614ce5565b4340414443423a5a886040516020016131ba98979695949392919097885260609690961b6001600160601b0319166020880152603487019490945260548601929092526074850152609484015260b483015260d482015260f40190565b6040516020818303038152906040528051906020012060001c61074e9190615855565b82516000908015806131f0575083518114155b1561320e5760405163360ee06360e21b815260040160405180910390fd5b806001036132385784600081518110613229576132296157b5565b602002602001015191506133b7565b600061324b633b9aca0063ffffffff8616565b9050600061325e633b9aca006001615809565b63ffffffff16905060005b838110156133b357878181518110613283576132836157b5565b602002602001015160ff16600003156133ab57633b9aca0063ffffffff168782815181106132b3576132b36157b5565b602002602001015163ffffffff161115613310578681815181106132d9576132d96157b5565b6020908102919091010151604051631b4fdad960e11b815263ffffffff9091166004820152633b9aca006024820152604401610663565b82878281518110613323576133236157b5565b6020026020010151633b9aca0061333a9190615869565b63ffffffff16116133ab5781878281518110613358576133586157b5565b602002602001015163ffffffff1610156133ab5786818151811061337e5761337e6157b5565b602002602001015163ffffffff1691508781815181106133a0576133a06157b5565b602002602001015194505b600101613269565b5050505b8160ff166000036133de5760405163b3cea44d60e01b815260006004820152602401610663565b509392505050565b600061046b825490565b6000886133fc886133e6565b1061340e576001945061340e876139c2565b6000805b8a811015613481578a881061342657600097505b60006134328b8a613a10565b90506134418d82878a8a611de1565b80156134645750878061346457506134628a63ffffffff80841690613a1c16565b155b1561347457925060019150613481565b5060019788019701613412565b508015801561348e575085155b156134b15761349c886139c2565b6134ae8b8b8b8b8b60018b8b8b6133f0565b91505b509998505050505050505050565b600080856020015185600e8111156134d9576134d9614492565b600f81106134e9576134e96157b5565b602002015190506001600160a01b03811615613506579050610ca1565b83836040518163ffffffff1660e01b8152600401602060405180830381865afa158015613537573d6000803e3d6000fd5b505050506040513d601f19601f8201168201806040525081019061355b9190614d03565b866020015186600e81111561357257613572614492565b600f8110613582576135826157b5565b6001600160a01b039092166020928302919091015286015185600e8111156135ac576135ac614492565b600f81106135bc576135bc6157b5565b60200201519695505050505050565b606081518351146135ef5760405163586cb9e160e01b815260040160405180910390fd5b6000600884516135ff9190615886565b61360a906001614ce5565b90506000816001600160401b0381111561362657613626613f8c565b60405190808252806020026020018201604052801561364f578160200160208202803683370190505b50905060005b828110156138205760005b600881101561381757600081613677846008615095565b6136819190614ce5565b9050875181106136915750613817565b627fffff60020b8882815181106136aa576136aa6157b5565b602002602001015160030b13806136e35750627fffff1960020b8882815181106136d6576136d66157b5565b602002602001015160030b125b15613721578781815181106136fa576136fa6157b5565b602002602001015160030b604051632eb1d06960e01b815260040161066391815260200190565b878181518110613733576137336157b5565b602002602001015160030b60000361375e57604051637c946ed760e01b815260040160405180910390fd5b613769826020615095565b88828151811061377b5761377b6157b5565b602002602001015162ffffff1660001b901b84848151811061379f5761379f6157b5565b6020026020010181815117915081815250508160206137be9190615095565b6137c9906018614ce5565b8782815181106137db576137db6157b5565b602002602001015160ff1660001b901b8484815181106137fd576137fd6157b5565b602090810291909101018051909117905250600101613660565b50600101613655565b50949350505050565b63ffffffff60a01b60a09190911b166001600160a01b039091161790565b600061046b82613134565b604080516080810182526001815260006020820181905291810182905260608101613884633b9aca0063ffffffff8716565b63ffffffff1690529050600061389988611f33565b905060006138c28260600151836080015185606001516138b888610c0d565b8660e00151613a34565b509050806009815181106138d8576138d86157b5565b602090810291909101015160030b60408401526138f483613afa565b60048a01600061390d6001600160a01b038c168b6119d8565b8152602001908152602001600020600088815260200190815260200160002081905550505050505050505050565b60008181526001830160205260408120546139825750815460018181018455600084815260208082209093018490558454848252828601909352604090209190915561046b565b50600061046b565b60006350877ed64614806139a15750630235ddd046145b156139bf576040518060208160008060185afa6139ba57fe5b505190505b90565b60006139cd82611a3c565b905060005b815181101561084757613a078282815181106139f0576139f06157b5565b602002602001015184611ad590919063ffffffff16565b506001016139d2565b60006104688383613b18565b60008181526001830160205260408120541515610468565b60606000613a4360048661589a565b60408051602b8082526105808201909252919650602082016105608036833701905050915060005b8751811015613ae157613a98878281518110613a8957613a896157b5565b60200260200101518787613b42565b83898381518110613aab57613aab6157b5565b602002602001015160ff1681518110613ac657613ac66157b5565b60039290920b60209283029190910190910152600101613a6b565b50613aee83866000613b42565b90509550959350505050565b600061046b8260000151836060015184604001518560200151613bea565b6000826000018281548110613b2f57613b2f6157b5565b9060005260206000200154905092915050565b60008360030b600003613b575750600061074e565b6000633b9aca00613b6c84600388900b6158bd565b613b7691906158ed565b633b9aca00613b8f63ffffffff8716600389900b6158bd565b613b9991906158ed565b8660030b613ba7919061591b565b613bb1919061591b565b9050637fffffff811380613bc95750637fffffff1981125b1561074b576040516344dc334160e01b815260048101829052602401610663565b600084613bf8576000613bfb565b60015b60ff1660001b905060088463ffffffff1660001b901b8117905060288363ffffffff1660001b901b8117905060488260ff1660001b901b81179050949350505050565b604080516101c081018252600080825260208201819052909182019081526060602082018190526040820181905260008183018190526080830181905260a0830181905260c0830181905260e08301819052610100830181905261012083015261014082018190526101609091015290565b60408051608081018252600080825260208201819052918101829052606081019190915290565b6040805160a081018252600080825260606020830181905292820183905282820152608081019190915290565b604080516101e08101825260008082526020820181905291810182905260608082018190526080820181905260a0820183905260c0820183905260e08201839052610100820183905261012082018390526101408201839052610160820183905261018082018390526101a08201929092526101c081019190915290565b50805460008255906000526020600020908101906104999190613e13565b604051806040016040528060006001600160a01b03168152602001613dc3613e28565b905290565b828054828255906000526020600020908101928215613e03579160200282015b82811115613e03578251825591602001919060010190613de8565b50613e0f929150613e13565b5090565b5b80821115613e0f5760008155600101613e14565b604051806101e00160405280600f906020820280368337509192915050565b6001600160a01b038116811461049957600080fd5b80356128d981613e47565b60008060408385031215613e7a57600080fd5b8235613e8581613e47565b946020939093013593505050565b63ffffffff8116811461049957600080fd5b80356128d981613e93565b600060208284031215613ec257600080fd5b813561074e81613e93565b60ff8116811461049957600080fd5b80356128d981613ecd565b8035603681106128d957600080fd5b60008060408385031215613f0957600080fd5b8235613f1481613ecd565b9150613f2260208401613ee7565b90509250929050565b6020808252825182820181905260009190848201906040850190845b81811015613f6357835183529284019291840191600101613f47565b50909695505050505050565b600060208284031215613f8157600080fd5b813561074e81613e47565b634e487b7160e01b600052604160045260246000fd5b6040516101c081016001600160401b0381118282101715613fc557613fc5613f8c565b60405290565b6040516101e081016001600160401b0381118282101715613fc557613fc5613f8c565b604051601f8201601f191681016001600160401b038111828210171561401657614016613f8c565b604052919050565b803561ffff811681146128d957600080fd5b60006001600160401b0382111561404957614049613f8c565b5060051b60200190565b600082601f83011261406457600080fd5b8135602061407961407483614030565b613fee565b8083825260208201915060208460051b87010193508684111561409b57600080fd5b602086015b848110156140c05780356140b381613ecd565b83529183019183016140a0565b509695505050505050565b8060030b811461049957600080fd5b80356128d9816140cb565b600082601f8301126140f657600080fd5b8135602061410661407483614030565b8083825260208201915060208460051b87010193508684111561412857600080fd5b602086015b848110156140c0578035614140816140cb565b835291830191830161412d565b60006040828403121561415f57600080fd5b604051604081016001600160401b03828210818311171561418257614182613f8c565b81604052829350843591508082111561419a57600080fd5b6141a686838701614053565b835260208501359150808211156141bc57600080fd5b506141c9858286016140e5565b6020830152505092915050565b600082601f8301126141e757600080fd5b813560206141f761407483614030565b8083825260208201915060208460051b87010193508684111561421957600080fd5b602086015b848110156140c057803561423181613e47565b835291830191830161421e565b600082601f83011261424f57600080fd5b8135602061425f61407483614030565b8083825260208201915060208460051b87010193508684111561428157600080fd5b602086015b848110156140c057803561429981613e93565b8352918301918301614286565b6000602082840312156142b857600080fd5b81356001600160401b03808211156142cf57600080fd5b908301906101c082860312156142e457600080fd5b6142ec613fa2565b6142f583613edc565b81526143036020840161401e565b602082015261431460408401613ee7565b604082015261432560608401613ea5565b606082015260808301358281111561433c57600080fd5b6143488782860161414d565b60808301525060a08301358281111561436057600080fd5b61436c8782860161414d565b60a08301525061437e60c08401613ea5565b60c082015261438f60e084016140da565b60e08201526101006143a28185016140da565b908201526101206143b48482016140da565b908201526101406143c68482016140da565b908201526101606143d88482016140da565b9082015261018083810135838111156143f057600080fd5b6143fc888287016141d6565b8284015250506101a0808401358381111561441657600080fd5b6144228882870161423e565b918301919091525095945050505050565b60006020828403121561444557600080fd5b813561074e81613ecd565b60008060006060848603121561446557600080fd5b833561447081613e47565b925060208401359150604084013561448781613e93565b809150509250925092565b634e487b7160e01b600052602160045260246000fd5b603681106144b8576144b8614492565b9052565b60008151808452602080850194506020840160005b838110156144f057815160ff16875295820195908201906001016144d1565b509495945050505050565b60008151808452602080850194506020840160005b838110156144f057815160030b87529582019590820190600101614510565b6001600160a01b03169052565b60008151808452602080850194506020840160005b838110156144f05781516001600160a01b031687529582019590820190600101614551565b60008151808452602080850194506020840160005b838110156144f057815163ffffffff168752958201959082019060010161458b565b805161ffff16825260006101c060208301516145ce602086018260ff169052565b5060408301516145e160408601826144a8565b5060608301518160608601526145f9828601826144bc565b9150506080830151848203608086015261461382826144fb565b91505060a083015161462a60a086018260ff169052565b5060c083015161463f60c086018260ff169052565b5060e083015161465760e086018263ffffffff169052565b506101008381015160ff1690850152610120808401516146798287018261452f565b5050610140838101516001600160401b0316908501526101608084015160ff169085015261018080840151858303828701526146b5838261453c565b925050506101a080840151858303828701526146d18382614576565b9695505050505050565b60a0815260006146ee60a08301856145ad565b905082511515602083015260ff6020840151166040830152604083015160030b606083015263ffffffff60608401511660808301529392505050565b600080600080600060a0868803121561474257600080fd5b85356001600160401b038082111561475957600080fd5b61476589838a01614053565b9650602088013591508082111561477b57600080fd5b506147888882890161423e565b945050604086013561479981613ecd565b925060608601356147a981613e47565b949793965091946080013592915050565b60008151808452602080850194506020840160005b838110156144f0578151875295820195908201906001016147cf565b6020815263ffffffff82511660208201526000602083015160a0604084015261481760c08401826147ba565b90506040840151601f198085840301606086015261483583836147ba565b92506060860151608086015260808601519150808584030160a08601525061079682826147ba565b600581106144b8576144b8614492565b6020810161046b828461485d565b80356001600160401b03811681146128d957600080fd5b600080600080600080600060e0888a0312156148ad57600080fd5b87356148b881613e47565b965060206148c789820161487b565b965060408901356148d781613e93565b955060608901356148e781613e47565b94506080890135935060a08901356148fe81613ecd565b925060c08901356001600160401b038082111561491a57600080fd5b818b0191508b601f83011261492e57600080fd5b81358181111561494057614940613f8c565b614952601f8201601f19168501613fee565b91508082528c8482850101111561496857600080fd5b808484018584013760008482840101525080935050505092959891949750929550565b6020815261499e60208201835115159052565b600060208301516149b3604084018215159052565b5060408301516149c6606084018261452f565b5060608301516101e08060808501526149e361020085018361453c565b91506080850151601f19808685030160a0870152614a018483614576565b935060a08701519150614a1960c087018360030b9052565b60c08701519150614a2f60e087018360030b9052565b60e08701519150610100614a478188018460030b9052565b8701519150610120614a5d8782018460030b9052565b8701519150610140614a738782018460030b9052565b8701519150610160614a8c8782018463ffffffff169052565b8701519150610180614aa58782018463ffffffff169052565b8701516101a0878101919091528701516101c0808801919091528701518685039091018387015290506146d18382614576565b6000815180845260005b81811015614afe57602081850181015186830182015201614ae2565b506000602082860101526020601f19601f83011685010191505092915050565b6020815260006104686020830184614ad8565b6001600160a01b0391909116815260200190565b600080600060608486031215614b5a57600080fd5b614b638461401e565b92506020840135614b7381613ecd565b9150614b8160408501613ee7565b90509250925092565b600060208284031215614b9c57600080fd5b81356001600160401b0380821115614bb357600080fd5b908301906101c08286031215614bc857600080fd5b614bd0613fa2565b614bd98361401e565b8152614be760208401613edc565b6020820152614bf860408401613ee7565b6040820152606083013582811115614c0f57600080fd5b614c1b87828601614053565b606083015250608083013582811115614c3357600080fd5b614c3f878286016140e5565b608083015250614c5160a08401613edc565b60a0820152614c6260c08401613edc565b60c0820152614c7360e08401613ea5565b60e0820152610100614c86818501613edc565b90820152610120614c98848201613e5c565b90820152610140614caa84820161487b565b908201526101606143d8848201613edc565b634e487b7160e01b600052601160045260246000fd5b8181038181111561046b5761046b614cbc565b8082018082111561046b5761046b614cbc565b80516128d981613e47565b600060208284031215614d1557600080fd5b815161074e81613e47565b805160408084528151908401819052600091602091908201906060860190845b81811015614d5f57835160ff1683529284019291840191600101614d40565b50508483015186820387850152805180835290840192506000918401905b808310156140c057835160030b8252928401926001929092019190840190614d7d565b60408152614db460408201845160ff169052565b60006020840151614dcb606084018261ffff169052565b506040840151614dde60808401826144a8565b50606084015163ffffffff1660a083015260808401516101c060c08401819052614e0c610200850183614d20565b915060a0860151603f19808685030160e0870152614e2a8483614d20565b935060c08801519150610100614e478188018463ffffffff169052565b60e08901519250610120614e5f8189018560030b9052565b90890151925061014090614e778883018560030b9052565b8901519250610160614e8d8882018560030b9052565b90890151925061018090614ea58883018560030b9052565b89015192506101a0614ebb8882018560030b9052565b818a01519350828887030185890152614ed4868561453c565b9550808a01519450505080868503016101e08701525050614ef58282614576565b925050508260208301529392505050565b6000815160408452614f1b60408501826144bc565b90506020830151848203602086015261079682826144fb565b63ffffffff8316815260406020820152614f5460408201835160ff169052565b60006020830151614f6b606084018261ffff169052565b506040830151614f7e60808401826144a8565b50606083015163ffffffff1660a083015260808301516101c060c08401819052614fac610200850183614f06565b915060a0850151603f19808685030160e0870152614fca8483614f06565b935060c08701519150610100614fe78188018463ffffffff169052565b60e08801519250610120614fff8189018560030b9052565b908801519250610140906150178883018560030b9052565b880151925061016061502d8882018560030b9052565b908801519250610180906150458883018560030b9052565b88015192506101a061505b8882018560030b9052565b818901519350828887030185890152615074868561453c565b9550808901519450505080868503016101e087015250506146d18282614576565b808202811582820484141761046b5761046b614cbc565b6001600160a01b03929092168252602082015260400190565b805180151581146128d957600080fd5b600060a082840312156150e757600080fd5b60405160a081018181106001600160401b038211171561510957615109613f8c565b604052825161511781613ecd565b8152602083015161512781613ecd565b6020820152615138604084016150c5565b6040820152606083015168ffffffffffffffffff8116811461515957600080fd5b6060820152608083015161516c81613e47565b60808201529392505050565b60006020828403121561518a57600080fd5b5051919050565b60006101a06151a184845161452f565b60208301516151b3602086018261452f565b5060408301516151c6604086018261452f565b5060608301516151db606086018260ff169052565b5060808301516151f0608086018260ff169052565b5060a083015161520560a086018260ff169052565b5060c083015161521a60c086018260ff169052565b5060e083015161523260e086018263ffffffff169052565b50610100838101516001600160401b031690850152610120808401519085015261014080840151908501526101608084015190850152610180808401518186018390526146d183870182614ad8565b6040815260006152946040830185615191565b90508260208301529392505050565b600082601f8301126152b457600080fd5b815160206152c461407483614030565b8083825260208201915060208460051b8701019350868411156152e657600080fd5b602086015b848110156140c05780516152fe81613e47565b83529183019183016152eb565b80516128d981613e93565b600082601f83011261532757600080fd5b8151602061533761407483614030565b8083825260208201915060208460051b87010193508684111561535957600080fd5b602086015b848110156140c057805161537181613e93565b835291830191830161535e565b80516128d9816140cb565b60006101e0828403121561539c57600080fd5b6153a4613fcb565b90506153af826150c5565b81526153bd602083016150c5565b60208201526153ce60408301614cf8565b604082015260608201516001600160401b03808211156153ed57600080fd5b6153f9858386016152a3565b6060840152608084015191508082111561541257600080fd5b61541e85838601615316565b608084015261542f60a0850161537e565b60a084015261544060c0850161537e565b60c084015261545160e0850161537e565b60e0840152610100915061546682850161537e565b82840152610120915061547a82850161537e565b82840152610140915061548e82850161530b565b8284015261016091506154a282850161530b565b82840152610180915081840151828401526101a0915081840151828401526101c0915081840151818111156154d657600080fd5b6154e286828701615316565b8385015250505092915050565b60006020828403121561550157600080fd5b81516001600160401b0381111561551757600080fd5b610ca184828501615389565b6000806040838503121561553657600080fd5b82516001600160401b0381111561554c57600080fd5b61555885828601615389565b925050602083015161556981613ecd565b809150509250929050565b600061024060018060a01b038087511684526020808801516020860160005b600f8110156155b2578251851682529183019190830190600101615593565b5050505050806102008401526155ca81840186615191565b91505061ffff8316610220830152949350505050565b60006101406001600160401b038d16835263ffffffff8c16602084015261560a604084018c61485d565b6001600160a01b038a1660608401526080830189905260ff881660a084015260c0830187905260e0830181905261564381840187614ad8565b610100848203818601526101c061565c83895115159052565b602088015161566f602085018215159052565b506040880151615682604085018261452f565b50606088015181606085015261569a8285018261453c565b91505060808801516156b1608085018260030b9052565b5060a08801516156c660a085018260030b9052565b5060c08801516156db60c085018260030b9052565b5060e08801516156f060e085018260030b9052565b50818801516157038385018260030b9052565b5061012091508188015161571e8385018263ffffffff169052565b508784015163ffffffff81168486015250610160888101519084015261018080890151908401526101a080890151848303828601529094506157608282614576565b9550505085818601525050509b9a5050505050505050505050565b63ffffffff8316815260406020820152600061074b60408301846145ad565b6000602082840312156157ac57600080fd5b610468826150c5565b634e487b7160e01b600052603260045260246000fd5b634e487b7160e01b600052603160045260246000fd5b63ffffffff81811683821602808216919082811461580157615801614cbc565b505092915050565b63ffffffff818116838216019080821115612d2157612d21614cbc565b60006001820161583857615838614cbc565b5060010190565b634e487b7160e01b600052601260045260246000fd5b6000826158645761586461583f565b500690565b63ffffffff828116828216039080821115612d2157612d21614cbc565b6000826158955761589561583f565b500490565b600063ffffffff808416806158b1576158b161583f565b92169190910492915050565b80820260008212600160ff1b841416156158d9576158d9614cbc565b818105831482151761046b5761046b614cbc565b6000826158fc576158fc61583f565b600160ff1b82146000198414161561591657615916614cbc565b500590565b808201828112600083128015821682158216171561580157615801614cbc56fe22573091f17911fb166032a3d9e0554aa73d31b7b7ddea4a4dd2995650af84bda2646970667358221220e5993d21b43c5545bb341adafa62090e22650d56d2d810fb7f74eeaa91d4c22f64736f6c63430008170033",
  "deployedBytecode": "0x608060405234801561001057600080fd5b506004361061017a5760003560e01c80637cc96380116100d45780637cc96380146102f05780638154916e146102f8578063909aa53914610318578063936725ec146103385780639d0bcca014610369578063a8ca89ff1461037e578063b414c55314610391578063b429afeb146103a4578063d447d4df146103b7578063d5e46dcd146103ca578063dee1f0e4146103f7578063f2c6c6fb1461040a578063f3deb3911461041d578063f77c479114610430578063ffa1ad741461043857600080fd5b806306efb7851461017f5780630e2ecde2146101a55780630e91f15e146101cb578063172ae49a146101eb57806319ab453c146102005780631c10968c14610213578063325a19f11461021b5780634593144c146102235780634675bfff1461022b5780634fac6ccd1461023e5780635f1d20a1146102515780636742e2d61461026457806369c3d472146102875780636f383c0f146102a857806375a8e7da146102d0575b600080fd5b61019261018d366004613e67565b61045c565b6040519081526020015b60405180910390f35b6101b86101b3366004613eb0565b610471565b60405161ffff909116815260200161019c565b6101de6101d9366004613ef6565b61047c565b60405161019c9190613f2b565b6101fe6101f9366004613eb0565b610488565b005b6101fe61020e366004613f6f565b61049c565b610192610596565b6101926105a5565b6101926105d9565b6101fe6102393660046142a6565b610609565b6101fe61024c366004613f6f565b61061a565b61019261025f366004614433565b61072b565b610277610272366004614450565b610736565b604051901515815260200161019c565b61029a610295366004614450565b610755565b60405161019c9291906146db565b6102bb6102b636600461472a565b61077c565b60405163ffffffff909116815260200161019c565b6102e36102de366004613eb0565b61079f565b60405161019c91906147eb565b6101926107b0565b61030b610306366004613eb0565b6107ce565b60405161019c919061486d565b61032b610326366004614892565b6107d9565b60405161019c919061498b565b61035c604051806040016040528060058152602001640312e302e360dc1b81525081565b60405161019c9190614b1e565b610371610804565b60405161019c9190614b31565b6101fe61038c366004614b45565b610834565b6101fe61039f366004614b8a565b61084c565b6102776103b2366004613f6f565b61085d565b6102776103c5366004613eb0565b610882565b6103dd6103d8366004613eb0565b61088d565b6040805160ff93841681529290911660208301520161019c565b610277610405366004613f6f565b6108a2565b610192610418366004614450565b610927565b61019261042b366004614450565b61093c565b610371610949565b61035c60405180604001604052806005815260200164312e312e3560d81b81525081565b60006104688383610979565b90505b92915050565b600061046b826109b2565b606061046883836109df565b610499610493610949565b82610a1f565b50565b60006104a6610ad1565b805490915060ff600160401b82041615906001600160401b03166000811580156104cd5750825b90506000826001600160401b031660011480156104e95750303b155b9050811580156104f7575080155b156105155760405163f92ee8a960e01b815260040160405180910390fd5b845467ffffffffffffffff19166001178555831561053f57845460ff60401b1916600160401b1785555b61054886610af5565b831561058e57845460ff60401b19168555604051600181527fc7f505b2f371ae2175ee4913f4499e1f2633a7b5936321eed1cdaeb6115181d29060200160405180910390a15b505050505050565b60006105a0610b06565b905090565b60006105a06105d560017f6f55f470bdc9cb5f04223fd822021061668e4dccb43e8727b295106dc9769c8b614cd2565b5490565b60006105a06105d560017f812a673dfca07956350df10f8a654925f561d7a0da09bdbe79e653939a14d9f1614cd2565b610499610614610949565b82610b19565b33301461066c5760405162461bcd60e51b815260206004820152601b60248201527a24b731b932b0b9b2903932bb34b9b4b7b7103337b93134b23232b760291b60448201526064015b60405180910390fd5b600061068a6105d5600160008051602061593c833981519152614cd2565b610695906001614ce5565b90506106b7816106b4600160008051602061593c833981519152614cd2565b55565b6106e6826106b460017fbfaaa2fb63266ff27c2da975f5894955056f50419af651a81f6c5060581857e4614cd2565b604080518281526001600160a01b03841660208201527ff27e2ef832a4eb8ed8ec553b875eecd44764cda95b1c24170e281539e0a869c8910160405180910390a15050565b600061046b82610c0d565b600061074b610743610949565b858585610c20565b90505b9392505050565b61075d613c3e565b610765613cb0565b610770858585610ca9565b91509150935093915050565b6000610793610789610949565b8787878787610d89565b90505b95945050505050565b6107a7613cd7565b61046b82610e77565b60006105a06105d5600160008051602061593c833981519152614cd2565b600061046b82610fca565b6107e1613d04565b6107f86107ec610949565b89898989898989611018565b98975050505050505050565b60006105a06105d560017fbfaaa2fb63266ff27c2da975f5894955056f50419af651a81f6c5060581857e4614cd2565b61084761083f610949565b8484846115d4565b505050565b610499610857610949565b82611663565b6000610867610949565b6001600160a01b0316826001600160a01b0316149050919050565b600061046b82611744565b60008061089983611789565b91509150915091565b6000816001600160a01b03166108b6610949565b6001600160a01b0316635aa6e6756040518163ffffffff1660e01b8152600401602060405180830381865afa1580156108f3573d6000803e3d6000fd5b505050506040513d601f19601f820116820180604052508101906109179190614d03565b6001600160a01b03161492915050565b600061074b610934610949565b858585611797565b600061074b848484611982565b60006105a06105d560017f5165972ef41194f06c5007493031d0b927c20741adcb74403b954009fd2c3618614cd2565b60006109836119b4565b600701600061099b6001600160a01b038616856119d8565b815260200190815260200160002054905092915050565b60006109bc6119b4565b63ffffffff909216600090815260059290920160205250604090205461ffff1690565b60606104686109ec6119b4565b6001016000610a0c86866035811115610a0757610a07614492565b611a27565b8152602001908152602001600020611a3c565b610a2882611a49565b6000610a326119b4565b63ffffffff8316600090815260209190915260409020549050610a536119b4565b63ffffffff831660008181526020929092526040822091909155610a9190610a796119b4565b60008481526001919091016020526040902090611ad5565b5060405163ffffffff831681527f93afafd4d79cc89e4afba48bcd8cac7b8a35b45dfb55afe60cccae721124cd0f906020015b60405180910390a1505050565b7ff0c57e16840df040f15088dc2f81fe391c3923bec73e23a9662efc9c229c6a0090565b610afd611ae1565b61049981611b08565b6000610b106119b4565b60080154905090565b610b2282611a49565b610b36816101800151826101a00151611c27565b6000610b4f826000015183604001518460200151611d60565b905073__$a0fcfc253474aa5cdb2dbfa020c220d358$__6330f53b2c83610b746119b4565b63ffffffff85166000908152600491820160205260409081902090516001600160e01b031960e086901b168152610bac939201614da0565b60006040518083038186803b158015610bc457600080fd5b505af4158015610bd8573d6000803e3d6000fd5b505050507f8ee0b45ff34ecba58a4014e0e0a9ebb97960cbfcae1e413072685b6b56b724fe8183604051610ac4929190614f34565b600061046b60ff8316633b9aca00615095565b600080610c2c83611789565b915050610c9d866001600160a01b031663524a562f6040518163ffffffff1660e01b8152600401602060405180830381865afa158015610c70573d6000803e3d6000fd5b505050506040513d601f19601f82011682018060405250810190610c949190614d03565b84838888611de1565b9150505b949350505050565b610cb1613c3e565b610cb9613cb0565b6000610cc36119b4565b6003016000610cdc6001600160a01b0389168888611f00565b8152602001908152602001600020549050610d16610cf86119b4565b63ffffffff8616600090815260069190910160205260409020611f33565b9250610d7e610d236119b4565b63ffffffff8087166000908152600692909201602052604082206004019190610d59906001600160a01b038b16908a906119d816565b8152602001908152602001600020600083815260200190815260200160002054612154565b915050935093915050565b6000610df5876001600160a01b031663683fedf76040518163ffffffff1660e01b8152600401602060405180830381865afa158015610dcc573d6000803e3d6000fd5b505050506040513d601f19601f82011682018060405250810190610df09190614d03565b6121a2565b610e6c610e006119b4565b886001600160a01b031663524a562f6040518163ffffffff1660e01b8152600401602060405180830381865afa158015610e3e573d6000803e3d6000fd5b505050506040513d601f19601f82011682018060405250810190610e629190614d03565b88888888886121cd565b979650505050505050565b610e7f613cd7565b610e876119b4565b63ffffffff80841660009081526004929092016020908152604092839020835160a081018552815490931683526001810180548551818502810185019096528086529394919385840193830182828015610f0057602002820191906000526020600020905b815481526020019060010190808311610eec575b5050505050815260200160028201805480602002602001604051908101604052809291908181526020018280548015610f5857602002820191906000526020600020905b815481526020019060010190808311610f44575b505050505081526020016003820154815260200160048201805480602002602001604051908101604052809291908181526020018280548015610fba57602002820191906000526020600020905b815481526020019060010190808311610fa6575b5050505050815250509050919050565b600080610ff8610fd86119b4565b63ffffffff85166000908152602091909152604090205490600882901c90565b91505061074e8160ff16603581111561101357611013614492565b612300565b611020613d04565b600061102b8a6128de565b9050611039610df0826128f6565b604080516101a0810182526000918101829052606081018290526080810182905260c081018290526101008101829052610140810182905261016081019190915263ffffffff881660e08201526001600160a01b038a8116825287166020820152610120810186905260ff851660a082015261018081018490526110bc88611789565b60ff90811660808401521660608201526110d582612916565b6001600160a01b031663bcd418b088886040518363ffffffff1660e01b81526004016111029291906150ac565b60a060405180830381865afa15801561111f573d6000803e3d6000fd5b505050506040513d601f19601f8201168201806040525081019061114391906150d5565b6020015160ff1660c08201526001600160401b0389166101008201526111676119b4565b600301600061117789898c612936565b815260208101919091526040908101600020546101608301526001600160a01b038c16908201526111a6613d04565b60006111c4836080015160ff16603581111561101357611013614492565b60048111156111d5576111d5614492565b4361014085015290506201b2531946016112535760646001600160a01b031663a3b1b31d6040518163ffffffff1660e01b8152600401602060405180830381865afa158015611228573d6000803e3d6000fd5b505050506040513d601f19601f8201168201806040525081019061124c9190615178565b6101408401525b60001960ff8216016113065773__$a0fcfc253474aa5cdb2dbfa020c220d358$__63bd9fe9db846112826119b4565b63ffffffff8e166000908152600491820160205260409081902090516001600160e01b031960e086901b1681526112ba939201615281565b600060405180830381865af41580156112d7573d6000803e3d6000fd5b505050506040513d6000823e601f3d908101601f191682016040526112ff91908101906154ef565b9150611465565b60011960ff8216016113d15761131c898961294c565b73__$201d0d5baf5bd2c94d39dac94ac4e46c3c$__63307800a28461133f6119b4565b60060160008e63ffffffff1663ffffffff1681526020019081526020016000206040518363ffffffff1660e01b815260040161137c929190615281565b600060405180830381865af4158015611399573d6000803e3d6000fd5b505050506040513d6000823e601f3d908101601f191682016040526113c19190810190615523565b60ff166101408501529150611465565b60021960ff8216016114475773__$178ac38bd41d46643174775c0e64a3f7b4$__63f60d304b85856114016119b4565b60e08881015163ffffffff1660009081526005929092016020526040918290205491519085901b6001600160e01b03191681526112ba93929161ffff1690600401615574565b604051634d07af3360e01b815260ff82166004820152602401610663565b60e083015163ffffffff166101408301526001600160a01b038916604083015261018082018890526101608301516101a08301527f67af56937d4d46082b2327381733f95fd39ed3df103ec0f3761eb315b463f5648b8b60ff841660048111156114d1576114d1614492565b8c8c8c8961016001518d604051806101c001604052808c60000151151581526020018c60200151151581526020018c604001516001600160a01b031681526020018c6060015181526020018c60a0015160030b81526020018c60c0015160030b81526020018c60e0015160030b81526020018c610100015160030b81526020018c610120015160030b81526020018c610140015163ffffffff1681526020018c610160015163ffffffff1681526020018c610180015181526020018c6101a0015181526020018c6101c001518152508c61014001516040516115bc9a999897969594939291906155e0565b60405180910390a1509b9a5050505050505050505050565b6115dd84611a49565b60006115ea838386611d60565b9050836115f56119b4565b63ffffffff831660008181526005929092016020908152604092839020805461ffff191661ffff9586161790558251918252928716928101929092527f9df2729723fcb63a4f46ffc16905a683f7eb0e8dd3ec260515e66b4d4cd8c0ad910160405180910390a15050505050565b61166c82611a49565b611680816101800151826101a00151611c27565b6000611699826020015183604001518460000151611d60565b90506116a36119b4565b63ffffffff8216600090815260069190910160205260408120906116c78282613d82565b600182016000905560028201600090556003820160006116e79190613d82565b5050611713826116f56119b4565b63ffffffff84166000908152600691909101602052604090206129c9565b7fe9039f79f66d71725ba719a022b5729bbfce163887322d74e690772fe247fa4b8183604051610ac492919061577b565b600080611752610fd86119b4565b9150600290506117708260ff16603581111561101357611013614492565b600481111561178157611781614492565b149392505050565b600080610899610fd86119b4565b60006117da856001600160a01b031663683fedf76040518163ffffffff1660e01b8152600401602060405180830381865afa158015610dcc573d6000803e3d6000fd5b6117e5848484612b6d565b905060006117f283611789565b915050600061180f8260ff16603581111561101357611013614492565b600481111561182057611820614492565b905060001960ff821601156119785760011960ff82160161194d576000876001600160a01b031663016dff5d6040518163ffffffff1660e01b8152600401602060405180830381865afa15801561187b573d6000803e3d6000fd5b505050506040513d601f19601f8201168201806040525081019061189f9190614d03565b6001600160a01b031663bcd418b088886040518363ffffffff1660e01b81526004016118cc9291906150ac565b60a060405180830381865afa1580156118e9573d6000803e3d6000fd5b505050506040513d601f19601f8201168201806040525081019061190d91906150d5565b905061194761191a6119b4565b60060160008763ffffffff1663ffffffff1681526020019081526020016000208888878560200151612bc2565b50611978565b60021960ff821601156119785760405163cafe050760e01b815260ff82166004820152602401610663565b5050949350505050565b600061198c6119b4565b600301600061199c868686612936565b81526020019081526020016000205490509392505050565b7ffa9e067a92ca4a9057b7b4465a8f29d633e1758238bd3a4a8ec5d0f904f6b90090565b60006001600160401b03821115611a0557604051633995b34160e01b815260048101839052602401610663565b50600160a01b600160e01b0360a09190911b166001600160a01b039091161790565b600060ff8316600883901b61ff001617610468565b6060600061074e83612bd2565b604051631430d62960e21b81526001600160a01b038216906350c358a490611a75903390600401614b31565b602060405180830381865afa158015611a92573d6000803e3d6000fd5b505050506040513d601f19601f82011682018060405250810190611ab6919061579a565b610499573360405163451cea1760e11b81526004016106639190614b31565b60006104688383612c2e565b611ae9612d28565b611b0657604051631afcd79f60e31b815260040160405180910390fd5b565b6001600160a01b038116611b505760405162461bcd60e51b815260206004820152600f60248201526e2d32b9379031b7b73a3937b63632b960891b6044820152606401610663565b611b7f816106b460017f5165972ef41194f06c5007493031d0b927c20741adcb74403b954009fd2c3618614cd2565b611bae426106b460017f6f55f470bdc9cb5f04223fd822021061668e4dccb43e8727b295106dc9769c8b614cd2565b611bdd436106b460017f812a673dfca07956350df10f8a654925f561d7a0da09bdbe79e653939a14d9f1614cd2565b604080516001600160a01b0383168152426020820152438183015290517f1a2dd071001ebf6e03174e3df5b305795a4ad5d41d8fdb9ba41dbbe2367134269181900360600190a150565b815181518114611c4a5760405163586cb9e160e01b815260040160405180910390fd5b60005b81811015611d5a5760006001600160a01b0316848281518110611c7257611c726157b5565b60200260200101516001600160a01b031603611ca15760405163d92e233d60e01b815260040160405180910390fd5b828181518110611cb357611cb36157b5565b602002602001015163ffffffff16600003611ce15760405163eb79f4eb60e01b815260040160405180910390fd5b633b9aca0063ffffffff16838281518110611cfe57611cfe6157b5565b602002602001015163ffffffff161115611d5257828181518110611d2457611d246157b5565b60200260200101516040516304470bfd60e21b8152600401610663919063ffffffff91909116815260200190565b600101611c4d565b50505050565b600080611d6b6119b4565b9050611d8985856035811115611d8357611d83614492565b85612d42565b91506000611da386866035811115610a0757610a07614492565b63ffffffff808516600081815260208681526040808320869055858352600188019091529020929350611dd79291612e3716565b5050509392505050565b600080611dfc8560ff16603581111561101357611013614492565b90506001816004811115611e1257611e12614492565b03611e21576001915050610796565b6002816004811115611e3557611e35614492565b03611e44576001915050610796565b6003816004811115611e5857611e58614492565b03611ee257604051630152f74f60e41b815263ffffffff871660048201526001600160a01b0385811660248301526044820185905288169063152f74f090606401602060405180830381865afa158015611eb6573d6000803e3d6000fd5b505050506040513d601f19601f82011682018060405250810190611eda919061579a565b915050610796565b604051630dad26cb60e31b815260ff86166004820152602401610663565b6001600160a01b039290921660a09190911b600160a01b600160e01b03161760e09190911b6001600160e01b0319161790565b611f3b613c3e565b611f43613c3e565b611f9e83600001805480602002602001604051908101604052809291908181526020018280548015611f9457602002820191906000526020600020905b815481526020019060010190808311611f80575b5050505050612e43565b606083015260808201526001830154600881901c601082901c603083901c60ff90811661010086015263ffffffff90911660e085015290811660c08401521660a08201526002830154611ff860a082901c9060e083901c90565b60ff166101608401526001600160401b039081166101408401526001600160a01b03909116610120830152600384015490819081111561203a5761203a613f8c565b604051908082528060200260200182016040528015612063578160200160208202803683370190505b50610180830152806001600160401b0381111561208257612082613f8c565b6040519080825280602002602001820160405280156120ab578160200160208202803683370190505b506101a083015260005b8181101561214b576120e98560030182815481106120d5576120d56157b5565b90600052602060002001549060a082901c90565b8461018001518381518110612100576121006157b5565b60200260200101856101a00151848151811061211e5761211e6157b5565b63ffffffff909316602093840291909101909201919091526001600160a01b0390911690526001016120b5565b50909392505050565b61215c613cb0565b506040805160808101825260ff8381166001148252604884901c166020820152602883901c60030b9181019190915263ffffffff60089290921c91909116606082015290565b6001600160a01b0381163314610499573360405163cf219bef60e01b81526004016106639190614b31565b6000806121dd87876131346131dd565b905060008960010160006121f18885611a27565b81526020019081526020016000209050600061220c826133e6565b90508060000361222f5760405163296a76c760e21b815260040160405180910390fd5b6000816001146122515761224c612247600184614cd2565b613134565b612254565b60005b9050600060028d018160ff60e81b60e88c901b1660ff60e01b60e089901b16600160a01b600160e01b0360a08c901b166001600160a01b038d16171717815260200190815260200160002090506122b38c8486848660008e8e8d6133f0565b95508563ffffffff166000036122dc57604051639cb04d5d60e01b815260040160405180910390fd5b6122ef8163ffffffff80891690612e3716565b505050505050979650505050505050565b6000600482603581111561231657612316614492565b14806123335750600582603581111561233157612331614492565b145b8061234f5750600882603581111561234d5761234d614492565b145b1561235c57506001919050565b600182603581111561237057612370614492565b148061238d5750600282603581111561238b5761238b614492565b145b806123a9575060038260358111156123a7576123a7614492565b145b806123c55750600a8260358111156123c3576123c3614492565b145b806123e1575060208260358111156123df576123df614492565b145b806123fd575060218260358111156123fb576123fb614492565b145b806124195750602282603581111561241757612417614492565b145b806124355750602382603581111561243357612433614492565b145b806124515750602a82603581111561244f5761244f614492565b145b8061246d5750602b82603581111561246b5761246b614492565b145b806124895750602c82603581111561248757612487614492565b145b806124a55750602d8260358111156124a3576124a3614492565b145b806124c15750602e8260358111156124bf576124bf614492565b145b806124dd5750602f8260358111156124db576124db614492565b145b156124ea57506002919050565b60068260358111156124fe576124fe614492565b148061251b5750600782603581111561251957612519614492565b145b806125375750600b82603581111561253557612535614492565b145b806125535750600c82603581111561255157612551614492565b145b8061256f5750600d82603581111561256d5761256d614492565b145b8061258b5750600e82603581111561258957612589614492565b145b806125a75750600f8260358111156125a5576125a5614492565b145b806125c3575060108260358111156125c1576125c1614492565b145b806125df575060118260358111156125dd576125dd614492565b145b806125fb575060128260358111156125f9576125f9614492565b145b806126175750601382603581111561261557612615614492565b145b806126335750601482603581111561263157612631614492565b145b8061264f5750601582603581111561264d5761264d614492565b145b8061266b5750601682603581111561266957612669614492565b145b806126875750601782603581111561268557612685614492565b145b806126a3575060188260358111156126a1576126a1614492565b145b806126bf575060198260358111156126bd576126bd614492565b145b806126db5750601a8260358111156126d9576126d9614492565b145b806126f75750601b8260358111156126f5576126f5614492565b145b806127135750601c82603581111561271157612711614492565b145b8061272f5750601d82603581111561272d5761272d614492565b145b8061274b5750601e82603581111561274957612749614492565b145b806127675750601f82603581111561276557612765614492565b145b806127835750602482603581111561278157612781614492565b145b8061279f5750602582603581111561279d5761279d614492565b145b806127bb575060268260358111156127b9576127b9614492565b145b806127d7575060278260358111156127d5576127d5614492565b145b806127f3575060288260358111156127f1576127f1614492565b145b8061280f5750602982603581111561280d5761280d614492565b145b8061282b5750603082603581111561282957612829614492565b145b806128475750603182603581111561284557612845614492565b145b806128635750603282603581111561286157612861614492565b145b8061287f5750603382603581111561287d5761287d614492565b145b8061289b5750603482603581111561289957612899614492565b145b156128a857506003919050565b8160358111156128ba576128ba614492565b6040516302f13cad60e41b815260ff9091166004820152602401610663565b919050565b6128e6613da0565b6001600160a01b03909116815290565b600061046b82600484600001516001600160a01b031663683fedf76134bf565b600061046b82600884600001516001600160a01b031663016dff5d6134bf565b600061074b6001600160a01b0385168484611f00565b60006129566119b4565b9050600061296d6001600160a01b038516846119d8565b6008830154600082815260078501602052604090205491925042916129929190614ce5565b11156129b15760405163051211b760e11b815260040160405180910390fd5b60009081526007909101602052604090204290555050565b606082015160808301516129dc916135cb565b80516129ef918391602090910190613dc8565b5060a082015160c083015160e084015161010085015160ff90931660089290921b61ff00169190911760109190911b65ffffffff0000161760309190911b60ff60301b161760018201556101208201516101408301516101608401516001600160a01b0390921660a09190911b600160a01b600160e01b03161760e09190911b60ff60e01b16176002820155610180820151516000816001600160401b03811115612a9c57612a9c613f8c565b604051908082528060200260200182016040528015612ac5578160200160208202803683370190505b50905060005b82811015612b5057612b2b856101a001518281518110612aed57612aed6157b5565b60200260200101518661018001518381518110612b0c57612b0c6157b5565b60200260200101516001600160a01b031661382990919063ffffffff16565b828281518110612b3d57612b3d6157b5565b6020908102919091010152600101612acb565b508051612b669060038501906020840190613dc8565b5050505050565b600080612b786119b4565b90506000612b87868686612936565b6000818152600384016020526040902054909150612ba6906001614ce5565b6000918252600390920160205260409020819055949350505050565b612b668585858561384786613852565b606081600001805480602002602001604051908101604052809291908181526020018280548015612c2257602002820191906000526020600020905b815481526020019060010190808311612c0e575b50505050509050919050565b60008181526001830160205260408120548015612d17576000612c52600183614cd2565b8554909150600090612c6690600190614cd2565b9050808214612ccb576000866000018281548110612c8657612c866157b5565b9060005260206000200154905080876000018481548110612ca957612ca96157b5565b6000918252602080832090910192909255918252600188019052604090208390555b8554869080612cdc57612cdc6157cb565b60019003818190600052602060002001600090559055856001016000868152602001908152602001600020600090556001935050505061046b565b600091505061046b565b5092915050565b6000612d32610ad1565b54600160401b900460ff16919050565b600060ff84161580612d55575060ff8316155b80612d62575061ffff8216155b15612d805760405163273e150360e21b815260040160405180910390fd5b60648460ff1610612da9576040516340eff0e560e01b815260ff85166004820152602401610663565b60648360ff1610612dd25760405163017c4c5960e01b815260ff84166004820152602401610663565b6127108261ffff161115612dff57604051637dc12d1d60e01b815261ffff83166004820152602401610663565b61ffff8216612e1360ff85166127106157e1565b612e2360ff8716620f42406157e1565b612e2d9190615809565b61074b9190615809565b6000610468838361393b565b805160609081906000612e57826008615095565b90506000816001600160401b03811115612e7357612e73613f8c565b604051908082528060200260200182016040528015612e9c578160200160208202803683370190505b5090506000826001600160401b03811115612eb957612eb9613f8c565b604051908082528060200260200182016040528015612ee2578160200160208202803683370190505b5090506000805b8581101561300f5760005b600881101561300657600081612f0b846008615095565b612f159190614ce5565b9050612f22826020615095565b8b8481518110612f3457612f346157b5565b602002602001015160001c901c60020b868281518110612f5657612f566157b5565b60039290920b602092830291909101820152612f73908390615095565b612f7e906018614ce5565b8b8481518110612f9057612f906157b5565b602002602001015160001c901c858281518110612faf57612faf6157b5565b602002602001019060ff16908160ff1681525050858181518110612fd557612fd56157b5565b602002602001015160030b600003612fed5750613006565b83612ff781615826565b94505050806001019050612ef4565b50600101612ee9565b50806001600160401b0381111561302857613028613f8c565b604051908082528060200260200182016040528015613051578160200160208202803683370190505b509650806001600160401b0381111561306c5761306c613f8c565b604051908082528060200260200182016040528015613095578160200160208202803683370190505b50955060005b81811015613129578381815181106130b5576130b56157b5565b60200260200101518882815181106130cf576130cf6157b5565b602002602001019060030b908160030b815250508281815181106130f5576130f56157b5565b602002602001015187828151811061310f5761310f6157b5565b60ff9092166020928302919091019091015260010161309b565b505050505050915091565b60008160000361314657506000919050565b600061315061398a565b905061315d836001614ce5565b4340414443423a5a886040516020016131ba98979695949392919097885260609690961b6001600160601b0319166020880152603487019490945260548601929092526074850152609484015260b483015260d482015260f40190565b6040516020818303038152906040528051906020012060001c61074e9190615855565b82516000908015806131f0575083518114155b1561320e5760405163360ee06360e21b815260040160405180910390fd5b806001036132385784600081518110613229576132296157b5565b602002602001015191506133b7565b600061324b633b9aca0063ffffffff8616565b9050600061325e633b9aca006001615809565b63ffffffff16905060005b838110156133b357878181518110613283576132836157b5565b602002602001015160ff16600003156133ab57633b9aca0063ffffffff168782815181106132b3576132b36157b5565b602002602001015163ffffffff161115613310578681815181106132d9576132d96157b5565b6020908102919091010151604051631b4fdad960e11b815263ffffffff9091166004820152633b9aca006024820152604401610663565b82878281518110613323576133236157b5565b6020026020010151633b9aca0061333a9190615869565b63ffffffff16116133ab5781878281518110613358576133586157b5565b602002602001015163ffffffff1610156133ab5786818151811061337e5761337e6157b5565b602002602001015163ffffffff1691508781815181106133a0576133a06157b5565b602002602001015194505b600101613269565b5050505b8160ff166000036133de5760405163b3cea44d60e01b815260006004820152602401610663565b509392505050565b600061046b825490565b6000886133fc886133e6565b1061340e576001945061340e876139c2565b6000805b8a811015613481578a881061342657600097505b60006134328b8a613a10565b90506134418d82878a8a611de1565b80156134645750878061346457506134628a63ffffffff80841690613a1c16565b155b1561347457925060019150613481565b5060019788019701613412565b508015801561348e575085155b156134b15761349c886139c2565b6134ae8b8b8b8b8b60018b8b8b6133f0565b91505b509998505050505050505050565b600080856020015185600e8111156134d9576134d9614492565b600f81106134e9576134e96157b5565b602002015190506001600160a01b03811615613506579050610ca1565b83836040518163ffffffff1660e01b8152600401602060405180830381865afa158015613537573d6000803e3d6000fd5b505050506040513d601f19601f8201168201806040525081019061355b9190614d03565b866020015186600e81111561357257613572614492565b600f8110613582576135826157b5565b6001600160a01b039092166020928302919091015286015185600e8111156135ac576135ac614492565b600f81106135bc576135bc6157b5565b60200201519695505050505050565b606081518351146135ef5760405163586cb9e160e01b815260040160405180910390fd5b6000600884516135ff9190615886565b61360a906001614ce5565b90506000816001600160401b0381111561362657613626613f8c565b60405190808252806020026020018201604052801561364f578160200160208202803683370190505b50905060005b828110156138205760005b600881101561381757600081613677846008615095565b6136819190614ce5565b9050875181106136915750613817565b627fffff60020b8882815181106136aa576136aa6157b5565b602002602001015160030b13806136e35750627fffff1960020b8882815181106136d6576136d66157b5565b602002602001015160030b125b15613721578781815181106136fa576136fa6157b5565b602002602001015160030b604051632eb1d06960e01b815260040161066391815260200190565b878181518110613733576137336157b5565b602002602001015160030b60000361375e57604051637c946ed760e01b815260040160405180910390fd5b613769826020615095565b88828151811061377b5761377b6157b5565b602002602001015162ffffff1660001b901b84848151811061379f5761379f6157b5565b6020026020010181815117915081815250508160206137be9190615095565b6137c9906018614ce5565b8782815181106137db576137db6157b5565b602002602001015160ff1660001b901b8484815181106137fd576137fd6157b5565b602090810291909101018051909117905250600101613660565b50600101613655565b50949350505050565b63ffffffff60a01b60a09190911b166001600160a01b039091161790565b600061046b82613134565b604080516080810182526001815260006020820181905291810182905260608101613884633b9aca0063ffffffff8716565b63ffffffff1690529050600061389988611f33565b905060006138c28260600151836080015185606001516138b888610c0d565b8660e00151613a34565b509050806009815181106138d8576138d86157b5565b602090810291909101015160030b60408401526138f483613afa565b60048a01600061390d6001600160a01b038c168b6119d8565b8152602001908152602001600020600088815260200190815260200160002081905550505050505050505050565b60008181526001830160205260408120546139825750815460018181018455600084815260208082209093018490558454848252828601909352604090209190915561046b565b50600061046b565b60006350877ed64614806139a15750630235ddd046145b156139bf576040518060208160008060185afa6139ba57fe5b505190505b90565b60006139cd82611a3c565b905060005b815181101561084757613a078282815181106139f0576139f06157b5565b602002602001015184611ad590919063ffffffff16565b506001016139d2565b60006104688383613b18565b60008181526001830160205260408120541515610468565b60606000613a4360048661589a565b60408051602b8082526105808201909252919650602082016105608036833701905050915060005b8751811015613ae157613a98878281518110613a8957613a896157b5565b60200260200101518787613b42565b83898381518110613aab57613aab6157b5565b602002602001015160ff1681518110613ac657613ac66157b5565b60039290920b60209283029190910190910152600101613a6b565b50613aee83866000613b42565b90509550959350505050565b600061046b8260000151836060015184604001518560200151613bea565b6000826000018281548110613b2f57613b2f6157b5565b9060005260206000200154905092915050565b60008360030b600003613b575750600061074e565b6000633b9aca00613b6c84600388900b6158bd565b613b7691906158ed565b633b9aca00613b8f63ffffffff8716600389900b6158bd565b613b9991906158ed565b8660030b613ba7919061591b565b613bb1919061591b565b9050637fffffff811380613bc95750637fffffff1981125b1561074b576040516344dc334160e01b815260048101829052602401610663565b600084613bf8576000613bfb565b60015b60ff1660001b905060088463ffffffff1660001b901b8117905060288363ffffffff1660001b901b8117905060488260ff1660001b901b81179050949350505050565b604080516101c081018252600080825260208201819052909182019081526060602082018190526040820181905260008183018190526080830181905260a0830181905260c0830181905260e08301819052610100830181905261012083015261014082018190526101609091015290565b60408051608081018252600080825260208201819052918101829052606081019190915290565b6040805160a081018252600080825260606020830181905292820183905282820152608081019190915290565b604080516101e08101825260008082526020820181905291810182905260608082018190526080820181905260a0820183905260c0820183905260e08201839052610100820183905261012082018390526101408201839052610160820183905261018082018390526101a08201929092526101c081019190915290565b50805460008255906000526020600020908101906104999190613e13565b604051806040016040528060006001600160a01b03168152602001613dc3613e28565b905290565b828054828255906000526020600020908101928215613e03579160200282015b82811115613e03578251825591602001919060010190613de8565b50613e0f929150613e13565b5090565b5b80821115613e0f5760008155600101613e14565b604051806101e00160405280600f906020820280368337509192915050565b6001600160a01b038116811461049957600080fd5b80356128d981613e47565b60008060408385031215613e7a57600080fd5b8235613e8581613e47565b946020939093013593505050565b63ffffffff8116811461049957600080fd5b80356128d981613e93565b600060208284031215613ec257600080fd5b813561074e81613e93565b60ff8116811461049957600080fd5b80356128d981613ecd565b8035603681106128d957600080fd5b60008060408385031215613f0957600080fd5b8235613f1481613ecd565b9150613f2260208401613ee7565b90509250929050565b6020808252825182820181905260009190848201906040850190845b81811015613f6357835183529284019291840191600101613f47565b50909695505050505050565b600060208284031215613f8157600080fd5b813561074e81613e47565b634e487b7160e01b600052604160045260246000fd5b6040516101c081016001600160401b0381118282101715613fc557613fc5613f8c565b60405290565b6040516101e081016001600160401b0381118282101715613fc557613fc5613f8c565b604051601f8201601f191681016001600160401b038111828210171561401657614016613f8c565b604052919050565b803561ffff811681146128d957600080fd5b60006001600160401b0382111561404957614049613f8c565b5060051b60200190565b600082601f83011261406457600080fd5b8135602061407961407483614030565b613fee565b8083825260208201915060208460051b87010193508684111561409b57600080fd5b602086015b848110156140c05780356140b381613ecd565b83529183019183016140a0565b509695505050505050565b8060030b811461049957600080fd5b80356128d9816140cb565b600082601f8301126140f657600080fd5b8135602061410661407483614030565b8083825260208201915060208460051b87010193508684111561412857600080fd5b602086015b848110156140c0578035614140816140cb565b835291830191830161412d565b60006040828403121561415f57600080fd5b604051604081016001600160401b03828210818311171561418257614182613f8c565b81604052829350843591508082111561419a57600080fd5b6141a686838701614053565b835260208501359150808211156141bc57600080fd5b506141c9858286016140e5565b6020830152505092915050565b600082601f8301126141e757600080fd5b813560206141f761407483614030565b8083825260208201915060208460051b87010193508684111561421957600080fd5b602086015b848110156140c057803561423181613e47565b835291830191830161421e565b600082601f83011261424f57600080fd5b8135602061425f61407483614030565b8083825260208201915060208460051b87010193508684111561428157600080fd5b602086015b848110156140c057803561429981613e93565b8352918301918301614286565b6000602082840312156142b857600080fd5b81356001600160401b03808211156142cf57600080fd5b908301906101c082860312156142e457600080fd5b6142ec613fa2565b6142f583613edc565b81526143036020840161401e565b602082015261431460408401613ee7565b604082015261432560608401613ea5565b606082015260808301358281111561433c57600080fd5b6143488782860161414d565b60808301525060a08301358281111561436057600080fd5b61436c8782860161414d565b60a08301525061437e60c08401613ea5565b60c082015261438f60e084016140da565b60e08201526101006143a28185016140da565b908201526101206143b48482016140da565b908201526101406143c68482016140da565b908201526101606143d88482016140da565b9082015261018083810135838111156143f057600080fd5b6143fc888287016141d6565b8284015250506101a0808401358381111561441657600080fd5b6144228882870161423e565b918301919091525095945050505050565b60006020828403121561444557600080fd5b813561074e81613ecd565b60008060006060848603121561446557600080fd5b833561447081613e47565b925060208401359150604084013561448781613e93565b809150509250925092565b634e487b7160e01b600052602160045260246000fd5b603681106144b8576144b8614492565b9052565b60008151808452602080850194506020840160005b838110156144f057815160ff16875295820195908201906001016144d1565b509495945050505050565b60008151808452602080850194506020840160005b838110156144f057815160030b87529582019590820190600101614510565b6001600160a01b03169052565b60008151808452602080850194506020840160005b838110156144f05781516001600160a01b031687529582019590820190600101614551565b60008151808452602080850194506020840160005b838110156144f057815163ffffffff168752958201959082019060010161458b565b805161ffff16825260006101c060208301516145ce602086018260ff169052565b5060408301516145e160408601826144a8565b5060608301518160608601526145f9828601826144bc565b9150506080830151848203608086015261461382826144fb565b91505060a083015161462a60a086018260ff169052565b5060c083015161463f60c086018260ff169052565b5060e083015161465760e086018263ffffffff169052565b506101008381015160ff1690850152610120808401516146798287018261452f565b5050610140838101516001600160401b0316908501526101608084015160ff169085015261018080840151858303828701526146b5838261453c565b925050506101a080840151858303828701526146d18382614576565b9695505050505050565b60a0815260006146ee60a08301856145ad565b905082511515602083015260ff6020840151166040830152604083015160030b606083015263ffffffff60608401511660808301529392505050565b600080600080600060a0868803121561474257600080fd5b85356001600160401b038082111561475957600080fd5b61476589838a01614053565b9650602088013591508082111561477b57600080fd5b506147888882890161423e565b945050604086013561479981613ecd565b925060608601356147a981613e47565b949793965091946080013592915050565b60008151808452602080850194506020840160005b838110156144f0578151875295820195908201906001016147cf565b6020815263ffffffff82511660208201526000602083015160a0604084015261481760c08401826147ba565b90506040840151601f198085840301606086015261483583836147ba565b92506060860151608086015260808601519150808584030160a08601525061079682826147ba565b600581106144b8576144b8614492565b6020810161046b828461485d565b80356001600160401b03811681146128d957600080fd5b600080600080600080600060e0888a0312156148ad57600080fd5b87356148b881613e47565b965060206148c789820161487b565b965060408901356148d781613e93565b955060608901356148e781613e47565b94506080890135935060a08901356148fe81613ecd565b925060c08901356001600160401b038082111561491a57600080fd5b818b0191508b601f83011261492e57600080fd5b81358181111561494057614940613f8c565b614952601f8201601f19168501613fee565b91508082528c8482850101111561496857600080fd5b808484018584013760008482840101525080935050505092959891949750929550565b6020815261499e60208201835115159052565b600060208301516149b3604084018215159052565b5060408301516149c6606084018261452f565b5060608301516101e08060808501526149e361020085018361453c565b91506080850151601f19808685030160a0870152614a018483614576565b935060a08701519150614a1960c087018360030b9052565b60c08701519150614a2f60e087018360030b9052565b60e08701519150610100614a478188018460030b9052565b8701519150610120614a5d8782018460030b9052565b8701519150610140614a738782018460030b9052565b8701519150610160614a8c8782018463ffffffff169052565b8701519150610180614aa58782018463ffffffff169052565b8701516101a0878101919091528701516101c0808801919091528701518685039091018387015290506146d18382614576565b6000815180845260005b81811015614afe57602081850181015186830182015201614ae2565b506000602082860101526020601f19601f83011685010191505092915050565b6020815260006104686020830184614ad8565b6001600160a01b0391909116815260200190565b600080600060608486031215614b5a57600080fd5b614b638461401e565b92506020840135614b7381613ecd565b9150614b8160408501613ee7565b90509250925092565b600060208284031215614b9c57600080fd5b81356001600160401b0380821115614bb357600080fd5b908301906101c08286031215614bc857600080fd5b614bd0613fa2565b614bd98361401e565b8152614be760208401613edc565b6020820152614bf860408401613ee7565b6040820152606083013582811115614c0f57600080fd5b614c1b87828601614053565b606083015250608083013582811115614c3357600080fd5b614c3f878286016140e5565b608083015250614c5160a08401613edc565b60a0820152614c6260c08401613edc565b60c0820152614c7360e08401613ea5565b60e0820152610100614c86818501613edc565b90820152610120614c98848201613e5c565b90820152610140614caa84820161487b565b908201526101606143d8848201613edc565b634e487b7160e01b600052601160045260246000fd5b8181038181111561046b5761046b614cbc565b8082018082111561046b5761046b614cbc565b80516128d981613e47565b600060208284031215614d1557600080fd5b815161074e81613e47565b805160408084528151908401819052600091602091908201906060860190845b81811015614d5f57835160ff1683529284019291840191600101614d40565b50508483015186820387850152805180835290840192506000918401905b808310156140c057835160030b8252928401926001929092019190840190614d7d565b60408152614db460408201845160ff169052565b60006020840151614dcb606084018261ffff169052565b506040840151614dde60808401826144a8565b50606084015163ffffffff1660a083015260808401516101c060c08401819052614e0c610200850183614d20565b915060a0860151603f19808685030160e0870152614e2a8483614d20565b935060c08801519150610100614e478188018463ffffffff169052565b60e08901519250610120614e5f8189018560030b9052565b90890151925061014090614e778883018560030b9052565b8901519250610160614e8d8882018560030b9052565b90890151925061018090614ea58883018560030b9052565b89015192506101a0614ebb8882018560030b9052565b818a01519350828887030185890152614ed4868561453c565b9550808a01519450505080868503016101e08701525050614ef58282614576565b925050508260208301529392505050565b6000815160408452614f1b60408501826144bc565b90506020830151848203602086015261079682826144fb565b63ffffffff8316815260406020820152614f5460408201835160ff169052565b60006020830151614f6b606084018261ffff169052565b506040830151614f7e60808401826144a8565b50606083015163ffffffff1660a083015260808301516101c060c08401819052614fac610200850183614f06565b915060a0850151603f19808685030160e0870152614fca8483614f06565b935060c08701519150610100614fe78188018463ffffffff169052565b60e08801519250610120614fff8189018560030b9052565b908801519250610140906150178883018560030b9052565b880151925061016061502d8882018560030b9052565b908801519250610180906150458883018560030b9052565b88015192506101a061505b8882018560030b9052565b818901519350828887030185890152615074868561453c565b9550808901519450505080868503016101e087015250506146d18282614576565b808202811582820484141761046b5761046b614cbc565b6001600160a01b03929092168252602082015260400190565b805180151581146128d957600080fd5b600060a082840312156150e757600080fd5b60405160a081018181106001600160401b038211171561510957615109613f8c565b604052825161511781613ecd565b8152602083015161512781613ecd565b6020820152615138604084016150c5565b6040820152606083015168ffffffffffffffffff8116811461515957600080fd5b6060820152608083015161516c81613e47565b60808201529392505050565b60006020828403121561518a57600080fd5b5051919050565b60006101a06151a184845161452f565b60208301516151b3602086018261452f565b5060408301516151c6604086018261452f565b5060608301516151db606086018260ff169052565b5060808301516151f0608086018260ff169052565b5060a083015161520560a086018260ff169052565b5060c083015161521a60c086018260ff169052565b5060e083015161523260e086018263ffffffff169052565b50610100838101516001600160401b031690850152610120808401519085015261014080840151908501526101608084015190850152610180808401518186018390526146d183870182614ad8565b6040815260006152946040830185615191565b90508260208301529392505050565b600082601f8301126152b457600080fd5b815160206152c461407483614030565b8083825260208201915060208460051b8701019350868411156152e657600080fd5b602086015b848110156140c05780516152fe81613e47565b83529183019183016152eb565b80516128d981613e93565b600082601f83011261532757600080fd5b8151602061533761407483614030565b8083825260208201915060208460051b87010193508684111561535957600080fd5b602086015b848110156140c057805161537181613e93565b835291830191830161535e565b80516128d9816140cb565b60006101e0828403121561539c57600080fd5b6153a4613fcb565b90506153af826150c5565b81526153bd602083016150c5565b60208201526153ce60408301614cf8565b604082015260608201516001600160401b03808211156153ed57600080fd5b6153f9858386016152a3565b6060840152608084015191508082111561541257600080fd5b61541e85838601615316565b608084015261542f60a0850161537e565b60a084015261544060c0850161537e565b60c084015261545160e0850161537e565b60e0840152610100915061546682850161537e565b82840152610120915061547a82850161537e565b82840152610140915061548e82850161530b565b8284015261016091506154a282850161530b565b82840152610180915081840151828401526101a0915081840151828401526101c0915081840151818111156154d657600080fd5b6154e286828701615316565b8385015250505092915050565b60006020828403121561550157600080fd5b81516001600160401b0381111561551757600080fd5b610ca184828501615389565b6000806040838503121561553657600080fd5b82516001600160401b0381111561554c57600080fd5b61555885828601615389565b925050602083015161556981613ecd565b809150509250929050565b600061024060018060a01b038087511684526020808801516020860160005b600f8110156155b2578251851682529183019190830190600101615593565b5050505050806102008401526155ca81840186615191565b91505061ffff8316610220830152949350505050565b60006101406001600160401b038d16835263ffffffff8c16602084015261560a604084018c61485d565b6001600160a01b038a1660608401526080830189905260ff881660a084015260c0830187905260e0830181905261564381840187614ad8565b610100848203818601526101c061565c83895115159052565b602088015161566f602085018215159052565b506040880151615682604085018261452f565b50606088015181606085015261569a8285018261453c565b91505060808801516156b1608085018260030b9052565b5060a08801516156c660a085018260030b9052565b5060c08801516156db60c085018260030b9052565b5060e08801516156f060e085018260030b9052565b50818801516157038385018260030b9052565b5061012091508188015161571e8385018263ffffffff169052565b508784015163ffffffff81168486015250610160888101519084015261018080890151908401526101a080890151848303828601529094506157608282614576565b9550505085818601525050509b9a5050505050505050505050565b63ffffffff8316815260406020820152600061074b60408301846145ad565b6000602082840312156157ac57600080fd5b610468826150c5565b634e487b7160e01b600052603260045260246000fd5b634e487b7160e01b600052603160045260246000fd5b63ffffffff81811683821602808216919082811461580157615801614cbc565b505092915050565b63ffffffff818116838216019080821115612d2157612d21614cbc565b60006001820161583857615838614cbc565b5060010190565b634e487b7160e01b600052601260045260246000fd5b6000826158645761586461583f565b500690565b63ffffffff828116828216039080821115612d2157612d21614cbc565b6000826158955761589561583f565b500490565b600063ffffffff808416806158b1576158b161583f565b92169190910492915050565b80820260008212600160ff1b841416156158d9576158d9614cbc565b818105831482151761046b5761046b614cbc565b6000826158fc576158fc61583f565b600160ff1b82146000198414161561591657615916614cbc565b500590565b808201828112600083128015821682158216171561580157615801614cbc56fe22573091f17911fb166032a3d9e0554aa73d31b7b7ddea4a4dd2995650af84bda2646970667358221220e5993d21b43c5545bb341adafa62090e22650d56d2d810fb7f74eeaa91d4c22f64736f6c63430008170033",
  "libraries": {
    "EventLib": "0xce6c031299703B9794cF0DF103a2Df6e122da6BA",
    "StoryLib": "0x2E825E06c9AE8796c8d0718AE31F996fDB4acBC9",
    "MonsterLib": "0xd876059838Db2fFFCF4ec06227A570ED074dA3fD",
    "GOCLib": "0xe6AF014979F16F0CFaf88DB5dDF8D25780f6252f"
  },
  "devdoc": {
    "errors": {
      "InvalidInitialization()": [
        {
          "details": "The contract is already initialized."
        }
      ],
      "NotInitializing()": [
        {
          "details": "The contract is not initializing."
        }
      ]
    },
    "events": {
      "Initialized(uint64)": {
        "details": "Triggered when the contract has been initialized or reinitialized."
      }
    },
    "kind": "dev",
    "methods": {
      "action(address,uint64,uint32,address,uint256,uint8,bytes)": {
        "params": {
          "data": "Answer (1 byte) or string command (3 bytes, i.e. \"SKIP\")"
        }
      },
      "created()": {
        "returns": {
          "_0": "Creation timestamp"
        }
      },
      "createdBlock()": {
        "returns": {
          "_0": "Creation block number"
        }
      },
      "getObjectMeta(uint32)": {
        "details": "represent object registration if non zero values"
      },
      "getRandomObject(uint8[],uint32[],uint8,address,uint256)": {
        "details": "Chances in range 0-1e9"
      },
      "increaseRevision(address)": {
        "details": "Revision should be increased on each contract upgrade"
      },
      "isController(address)": {
        "details": "Return true if given address is controller"
      },
      "previousImplementation()": {
        "details": "Previous logic implementation"
      },
      "revision()": {
        "details": "Contract upgrade counter"
      }
    },
    "version": 1
  },
  "userdoc": {
    "kind": "user",
    "methods": {
      "CONTROLLABLE_VERSION()": {
        "notice": "Version of the contract"
      },
      "VERSION()": {
        "notice": "Version of the contract"
      },
      "controller()": {
        "notice": "Return controller address saved in the contract slot"
      },
      "created()": {
        "notice": "Return creation timestamp"
      },
      "createdBlock()": {
        "notice": "Return creation block number"
      },
      "isGovernance(address)": {
        "notice": "Return true if given address is setup as governance in Controller"
      }
    },
    "version": 1
  },
  "storageLayout": {
    "storage": [],
    "types": null
  }
}