{
  "address": "0x2D44cd9E82734363aaFb9c3862ec828ac05bD585",
  "abi": [
    {
      "inputs": [
        {
          "internalType": "address",
          "name": "pawnShop_",
          "type": "address"
        },
        {
          "internalType": "address",
          "name": "gameToken_",
          "type": "address"
        }
      ],
      "stateMutability": "nonpayable",
      "type": "constructor"
    },
    {
      "inputs": [
        {
          "internalType": "address",
          "name": "deployed",
          "type": "address"
        }
      ],
      "name": "AlreadyDeployed",
      "type": "error"
    },
    {
      "inputs": [],
      "name": "ZeroAddress",
      "type": "error"
    },
    {
      "anonymous": false,
      "inputs": [
        {
          "indexed": false,
          "internalType": "address",
          "name": "pawnShop",
          "type": "address"
        },
        {
          "indexed": false,
          "internalType": "address",
          "name": "gameToken",
          "type": "address"
        },
        {
          "indexed": false,
          "internalType": "address",
          "name": "routerOwner",
          "type": "address"
        },
        {
          "indexed": false,
          "internalType": "address",
          "name": "deployed",
          "type": "address"
        }
      ],
      "name": "PawnShopRouterDeployed",
      "type": "event"
    },
    {
      "inputs": [],
      "name": "VERSION",
      "outputs": [
        {
          "internalType": "string",
          "name": "",
          "type": "string"
        }
      ],
      "stateMutability": "view",
      "type": "function"
    },
    {
      "inputs": [
        {
          "internalType": "address",
          "name": "user",
          "type": "address"
        }
      ],
      "name": "deployRouter",
      "outputs": [],
      "stateMutability": "nonpayable",
      "type": "function"
    },
    {
      "inputs": [],
      "name": "gameToken",
      "outputs": [
        {
          "internalType": "address",
          "name": "",
          "type": "address"
        }
      ],
      "stateMutability": "view",
      "type": "function"
    },
    {
      "inputs": [],
      "name": "pawnShop",
      "outputs": [
        {
          "internalType": "address",
          "name": "",
          "type": "address"
        }
      ],
      "stateMutability": "view",
      "type": "function"
    },
    {
      "inputs": [
        {
          "internalType": "address",
          "name": "user",
          "type": "address"
        }
      ],
      "name": "router",
      "outputs": [
        {
          "internalType": "address",
          "name": "router",
          "type": "address"
        }
      ],
      "stateMutability": "view",
      "type": "function"
    }
  ],
  "transactionHash": "0xa1ecf7bb99106bcbcd22a480a198f2e25794cf58e1395f90fe84e72354971dae",
  "args": [
    "0xAa44d0C6bAEc36200DC2ea287aBB08E62De6C0e3",
    "0x185a1c105a0FedF0cc6e068eeE8eF01D6a399c39"
  ],
  "numDeployments": 1,
  "solcInputHash": "e9f8afd63232a401c659396b77458901",
  "bytecode": "0x60c060405234801561001057600080fd5b50604051612ce3380380612ce383398101604081905261002f9161009d565b6001600160a01b038216158061004c57506001600160a01b038116155b1561006a5760405163d92e233d60e01b815260040160405180910390fd5b6001600160a01b039182166080521660a0526100d0565b80516001600160a01b038116811461009857600080fd5b919050565b600080604083850312156100b057600080fd5b6100b983610081565b91506100c760208401610081565b90509250929050565b60805160a051612bd461010f60003960008181609e015281816101bf015261029401526000818160610152818161019e01526102720152612bd46000f3fe608060405234801561001057600080fd5b50600436106100575760003560e01c8063b784a4971461005c578063c3dfdae614610099578063e2a1bd4e146100c0578063e4b643e3146100d5578063ffa1ad74146100fe575b600080fd5b6100837f000000000000000000000000000000000000000000000000000000000000000081565b60405161009091906102d6565b60405180910390f35b6100837f000000000000000000000000000000000000000000000000000000000000000081565b6100d36100ce3660046102ea565b61012f565b005b6100836100e33660046102ea565b6000602081905290815260409020546001600160a01b031681565b610122604051806040016040528060058152602001640312e302e360dc1b81525081565b604051610090919061031a565b6001600160a01b0381166101565760405163d92e233d60e01b815260040160405180910390fd5b6001600160a01b0380821660009081526020819052604090205416801561019b57806040516329ab51bf60e01b815260040161019291906102d6565b60405180910390fd5b307f00000000000000000000000000000000000000000000000000000000000000007f0000000000000000000000000000000000000000000000000000000000000000846040516101eb906102c9565b6101f89493929190610369565b604051809103906000f080158015610214573d6000803e3d6000fd5b506001600160a01b038381166000908152602081905260409081902080546001600160a01b03191692841692909217909155519091507f38540df229fbabf3d176dfb78f1b8174d9a93eb70dcf74fd90a2c61d042520dd906102bd907f0000000000000000000000000000000000000000000000000000000000000000907f00000000000000000000000000000000000000000000000000000000000000009086908690610369565b60405180910390a15050565b61280a8061039583390190565b6001600160a01b0391909116815260200190565b6000602082840312156102fc57600080fd5b81356001600160a01b038116811461031357600080fd5b9392505050565b60006020808352835180602085015260005b818110156103485785810183015185820160400152820161032c565b506000604082860101526040601f19601f8301168501019250505092915050565b6001600160a01b0394851681529284166020840152908316604083015290911660608201526080019056fe6101006040523480156200001257600080fd5b506040516200280a3803806200280a833981016040819052620000359162000153565b6001600160a01b03841615806200005357506001600160a01b038316155b806200006657506001600160a01b038216155b806200007957506001600160a01b038116155b15620000985760405163d92e233d60e01b815260040160405180910390fd5b6001600160a01b0384811660805282811660c081905284821660a081905291831660e05260405163095ea7b360e01b81526004810192909252600160ff1b60248301529063095ea7b3906044016020604051808303816000875af115801562000105573d6000803e3d6000fd5b505050506040513d601f19601f820116820180604052508101906200012b9190620001b0565b5050505050620001db565b80516001600160a01b03811681146200014e57600080fd5b919050565b600080600080608085870312156200016a57600080fd5b620001758562000136565b9350620001856020860162000136565b9250620001956040860162000136565b9150620001a56060860162000136565b905092959194509250565b600060208284031215620001c357600080fd5b81518015158114620001d457600080fd5b9392505050565b60805160a05160c05160e05161255b620002af600039600081816101b901528181610312015281816103c001528181610469015281816106a70152818161074f015281816107ff01526108d90152600081816102a0015281816103910152818161043a0152818161067801528181610720015281816107d001526108aa01526000818161025e015281816103620152818161040b015281816104af015281816104e401528181610649015281816106f1015281816107a101528181610840015261087b015260006102c7015261255b6000f3fe608060405234801561001057600080fd5b50600436106100f65760003560e01c80637189983f116100925780637189983f14610220578063aa820e3014610233578063b7760c8f14610246578063b784a49714610259578063bbda23e414610280578063c1d7ee9214610288578063c3dfdae61461029b578063c45a0155146102c2578063ffa1ad74146102e957600080fd5b8063150b7a02146100fb5780631b8b921d146101375780631e3cd4041461014c5780632742d6441461015f578063378de45b146101725780633a58ad8d146101935780634f8632ba146101b4578063572b6c05146101e857806370bf11941461020b575b600080fd5b610119610109366004611b8f565b630a85bd0160e11b949350505050565b6040516001600160e01b031990911681526020015b60405180910390f35b61014a610145366004611bfa565b61030d565b005b61014a61015a366004611c49565b610352565b61014a61016d366004611d1d565b6103fb565b610185610180366004611d6e565b6104a7565b60405161012e929190611d87565b6101a66101a1366004611d6e565b6104dd565b60405190815260200161012e565b6101db7f000000000000000000000000000000000000000000000000000000000000000081565b60405161012e9190611da0565b6101fb6101f6366004611db4565b61050f565b604051901515815260200161012e565b6102136105ab565b60405161012e9190611e21565b61014a61022e366004611d1d565b610639565b61014a610241366004611e34565b6106e1565b61014a610254366004611f2a565b610791565b6101db7f000000000000000000000000000000000000000000000000000000000000000081565b6101a6610839565b6101a6610296366004611f4f565b610869565b6101db7f000000000000000000000000000000000000000000000000000000000000000081565b6101db7f000000000000000000000000000000000000000000000000000000000000000081565b61021360405180604001604052806005815260200164312e302e3160d81b81525081565b6103407f000000000000000000000000000000000000000000000000000000000000000061033961090a565b848461092c565b60009061034d908261200d565b505050565b61034d60405180606001604052807f00000000000000000000000000000000000000000000000000000000000000006001600160a01b031681526020017f00000000000000000000000000000000000000000000000000000000000000006001600160a01b031681526020017f00000000000000000000000000000000000000000000000000000000000000006001600160a01b03168152506103f361090a565b8585856109cb565b6104a360405180606001604052807f00000000000000000000000000000000000000000000000000000000000000006001600160a01b031681526020017f00000000000000000000000000000000000000000000000000000000000000006001600160a01b031681526020017f00000000000000000000000000000000000000000000000000000000000000006001600160a01b031681525061049c61090a565b8484610a8d565b5050565b6000806104d47f000000000000000000000000000000000000000000000000000000000000000084610c6c565b91509150915091565b60006105097f000000000000000000000000000000000000000000000000000000000000000083610d49565b92915050565b60006001600160a01b03821673d8253782c45a12053594b9deb72d8e8ab2fca54c148061055857506001600160a01b0382167352ceba41da235af367bfc0b0ccd3314cb901bb5f145b8061057f57506001600160a01b03821673102f1f556cd9c3d5f820e6920a8931657c5da21b145b8061050957506001600160a01b0382167342f1392e7e4d26047ff81079bcaba1a5d30520aa1492915050565b600080546105b890611f8b565b80601f01602080910402602001604051908101604052809291908181526020018280546105e490611f8b565b80156106315780601f1061060657610100808354040283529160200191610631565b820191906000526020600020905b81548152906001019060200180831161061457829003601f168201915b505050505081565b6104a360405180606001604052807f00000000000000000000000000000000000000000000000000000000000000006001600160a01b031681526020017f00000000000000000000000000000000000000000000000000000000000000006001600160a01b031681526020017f00000000000000000000000000000000000000000000000000000000000000006001600160a01b03168152506106da61090a565b8484610dc2565b61078b60405180606001604052807f00000000000000000000000000000000000000000000000000000000000000006001600160a01b031681526020017f00000000000000000000000000000000000000000000000000000000000000006001600160a01b031681526020017f00000000000000000000000000000000000000000000000000000000000000006001600160a01b031681525061078261090a565b868686866110c9565b50505050565b6104a360405180606001604052807f00000000000000000000000000000000000000000000000000000000000000006001600160a01b031681526020017f00000000000000000000000000000000000000000000000000000000000000006001600160a01b031681526020017f00000000000000000000000000000000000000000000000000000000000000006001600160a01b031681525061083261090a565b84846114d1565b60006108647f000000000000000000000000000000000000000000000000000000000000000061159a565b905090565b600061050960405180606001604052807f00000000000000000000000000000000000000000000000000000000000000006001600160a01b031681526020017f00000000000000000000000000000000000000000000000000000000000000006001600160a01b031681526020017f00000000000000000000000000000000000000000000000000000000000000006001600160a01b031681525083611608565b60006109153361050f565b15610927575060131936013560601c90565b503390565b60606109388486611659565b6000836001600160a01b03168360405161095291906120cc565b6000604051808303816000865af19150503d806000811461098f576040519150601f19603f3d011682016040523d82523d6000602084013e610994565b606091505b5092509050806109c2578160405163a5fa8d2b60e01b81526004016109b99190611e21565b60405180910390fd5b50949350505050565b6109d9848660400151611659565b60405163a9059cbb60e01b81526001600160a01b0384169063a9059cbb90610a079084908690600401611d87565b6020604051808303816000875af1158015610a26573d6000803e3d6000fd5b505050506040513d601f19601f82011682018060405250810190610a4a91906120f8565b507f0661ce452aa0a13f47c93bb193363973d51bb9664404a6f6e1ce817d082dea29838383604051610a7e93929190612113565b60405180910390a15050505050565b610a9b838560400151611659565b8351825160005b81811015610c2a576000836001600160a01b031663eb02c301878481518110610acd57610acd612136565b60200260200101516040518263ffffffff1660e01b8152600401610af391815260200190565b61028060405180830381865afa158015610b11573d6000803e3d6000fd5b505050506040513d601f19601f82011682018060405250810190610b3591906122a0565b9050836001600160a01b031663a126d601878481518110610b5857610b58612136565b60200260200101516040518263ffffffff1660e01b8152600401610b7e91815260200190565b600060405180830381600087803b158015610b9857600080fd5b505af1158015610bac573d6000803e3d6000fd5b5050505060e081015180516060909101516040516323b872dd60e01b81526001600160a01b03909216916323b872dd91610bec9130918a9160040161235a565b600060405180830381600087803b158015610c0657600080fd5b505af1158015610c1a573d6000803e3d6000fd5b5050505050806001019050610aa2565b507f73ebb0c261bcb022f9442dff3e06c47787cf88f7bdaf9f1d39801266e19630fc8484604051610c5c9291906123ba565b60405180910390a1505050505050565b600080836001600160a01b031663db2dbb446040518163ffffffff1660e01b8152600401602060405180830381865afa158015610cad573d6000803e3d6000fd5b505050506040513d601f19601f82011682018060405250810190610cd191906123e4565b83856001600160a01b03166398584c0f6040518163ffffffff1660e01b8152600401602060405180830381865afa158015610d10573d6000803e3d6000fd5b505050506040513d601f19601f82011682018060405250810190610d349190612401565b610d3e9190612430565b915091509250929050565b6040516302c0601960e11b81526000906001600160a01b03841690630580c03290610d7a9030908690600401611d87565b602060405180830381865afa158015610d97573d6000803e3d6000fd5b505050506040513d601f19601f82011682018060405250810190610dbb9190612401565b9392505050565b610dd0838560400151611659565b835182516000816001600160401b03811115610dee57610dee611a8f565b604051908082528060200260200182016040528015610e2757816020015b610e14611976565b815260200190600190039081610e0c5790505b5090506000805b83811015610eae57610e5989888381518110610e4c57610e4c612136565b602002602001015161168d565b838281518110610e6b57610e6b612136565b6020026020010181905250828181518110610e8857610e88612136565b602002602001015161010001516020015182610ea49190612447565b9150600101610e2e565b5087602001516001600160a01b03166323b872dd8830846040518463ffffffff1660e01b8152600401610ee39392919061235a565b6020604051808303816000875af1158015610f02573d6000803e3d6000fd5b505050506040513d601f19601f82011682018060405250810190610f2691906120f8565b5060005b8381101561108557846001600160a01b031663598647f8888381518110610f5357610f53612136565b6020026020010151858481518110610f6d57610f6d612136565b60200260200101516101000151602001516040518363ffffffff1660e01b8152600401610fa4929190918252602082015260400190565b600060405180830381600087803b158015610fbe57600080fd5b505af1158015610fd2573d6000803e3d6000fd5b50505050828181518110610fe857610fe8612136565b602002602001015160e00151600001516001600160a01b03166323b872dd308886858151811061101a5761101a612136565b602002602001015160e00151606001516040518463ffffffff1660e01b81526004016110489392919061235a565b600060405180830381600087803b15801561106257600080fd5b505af1158015611076573d6000803e3d6000fd5b50505050806001019050610f2a565b507f9ed1012aa23606a118975c1396e31aef3e82a0ae379c4cc6abbd1c403ecec7bc86866040516110b79291906123ba565b60405180910390a15050505050505050565b6110d7858760400151611659565b82518251811415806110ea575084518114155b156111085760405163586cb9e160e01b815260040160405180910390fd5b600087600001516001600160a01b03166398584c0f6040518163ffffffff1660e01b8152600401602060405180830381865afa15801561114c573d6000803e3d6000fd5b505050506040513d601f19601f820116820180604052508101906111709190612401565b9050801561127657600088600001516001600160a01b031663db2dbb446040518163ffffffff1660e01b8152600401602060405180830381865afa1580156111bc573d6000803e3d6000fd5b505050506040513d601f19601f820116820180604052508101906111e091906123e4565b90506001600160a01b0381166323b872dd89306111fd8787612430565b6040518463ffffffff1660e01b815260040161121b9392919061235a565b6020604051808303816000875af115801561123a573d6000803e3d6000fd5b505050506040513d601f19601f8201168201806040525081019061125e91906120f8565b506112748161126d8585612430565b8b516117b1565b505b6000826001600160401b0381111561129057611290611a8f565b6040519080825280602002602001820160405280156112b9578160200160208202803683370190505b50905060005b838110156114865760008882815181106112db576112db612136565b60200260200101519050806001600160a01b03166323b872dd87308b868151811061130857611308612136565b60200260200101516040518463ffffffff1660e01b815260040161132e9392919061235a565b600060405180830381600087803b15801561134857600080fd5b505af115801561135c573d6000803e3d6000fd5b5050505061136e818c6000015161189d565b8a600001516001600160a01b0316633a5edc548260008b868151811061139657611396612136565b60200260200101518f602001518c88815181106113b5576113b5612136565b602090810291909101015160405160e087901b6001600160e01b03191681526001600160a01b0395861660048201526024810194909452604484019290925290921660648201526084810191909152600060a4820181905260c4820181905260e4820152610104016020604051808303816000875af115801561143c573d6000803e3d6000fd5b505050506040513d601f19601f820116820180604052508101906114609190612401565b83838151811061147257611472612136565b6020908102919091010152506001016112bf565b507fdc0ba8e6af9d6a2318c8ee4dcc198ed3ebcfd722d7d4a37b0c24f0f48ccb201c87878787856040516114be95949392919061245a565b60405180910390a1505050505050505050565b6114df838560400151611659565b83602001516001600160a01b031663a9059cbb82846040518363ffffffff1660e01b8152600401611511929190611d87565b6020604051808303816000875af1158015611530573d6000803e3d6000fd5b505050506040513d601f19601f8201168201806040525081019061155491906120f8565b507f0661ce452aa0a13f47c93bb193363973d51bb9664404a6f6e1ce817d082dea298460200151838360405161158c93929190612113565b60405180910390a150505050565b604051624ce3d360e01b81526000906001600160a01b03831690624ce3d3906115c7903090600401611da0565b602060405180830381865afa1580156115e4573d6000803e3d6000fd5b505050506040513d601f19601f820116820180604052508101906105099190612401565b8051600090815b8181101561165157600061162f86868481518110610e4c57610e4c612136565b905080610100015160200151846116469190612447565b93505060010161160f565b505092915050565b806001600160a01b0316826001600160a01b0316146104a3578160405163f652640360e01b81526004016109b99190611da0565b611695611976565b825160405163eb02c30160e01b8152600481018490526000916001600160a01b03169063eb02c3019060240161028060405180830381865afa1580156116df573d6000803e3d6000fd5b505050506040513d601f19601f8201168201806040525081019061170391906122a0565b90508061010001516020015160000361173257604051633ad994bb60e11b8152600481018490526024016109b9565b83602001516001600160a01b0316816101000151600001516001600160a01b0316146117745760405163778f598560e01b8152600481018490526024016109b9565b60018160e00151602001516001811115611790576117906124f5565b14610dbb5760405163ed450ff160e01b8152600481018490526024016109b9565b604051636eb1769f60e11b815282906001600160a01b0385169063dd62ed3e906117e1903090869060040161250b565b602060405180830381865afa1580156117fe573d6000803e3d6000fd5b505050506040513d601f19601f820116820180604052508101906118229190612401565b101561034d5760405163095ea7b360e01b81526001600160a01b0384169063095ea7b39061185a908490600160ff1b90600401611d87565b6020604051808303816000875af1158015611879573d6000803e3d6000fd5b505050506040513d601f19601f8201168201806040525081019061078b91906120f8565b60405163e985e9c560e01b81526001600160a01b0383169063e985e9c5906118cb903090859060040161250b565b602060405180830381865afa1580156118e8573d6000803e3d6000fd5b505050506040513d601f19601f8201168201806040525081019061190c91906120f8565b6104a35760405163a22cb46560e01b81526001600160a01b0382811660048301526001602483015283169063a22cb46590604401600060405180830381600087803b15801561195a57600080fd5b505af115801561196e573d6000803e3d6000fd5b505050505050565b6040518061014001604052806000815260200160006001600160a01b0316815260200160006001600160a01b0316815260200160008152602001600015158152602001600081526020016119eb6040518060800160405280600081526020016000815260200160008152602001600081525090565b81526040805160808101825260008082526020808301829052828401829052606083018290528085019290925282518084018452818152918201529101908152602001611a62604051806080016040528060006001600160a01b031681526020016000815260200160008152602001600081525090565b905290565b6001600160a01b0381168114611a7c57600080fd5b50565b8035611a8a81611a67565b919050565b634e487b7160e01b600052604160045260246000fd5b604051608081016001600160401b0381118282101715611ac757611ac7611a8f565b60405290565b60405161014081016001600160401b0381118282101715611ac757611ac7611a8f565b604051601f8201601f191681016001600160401b0381118282101715611b1857611b18611a8f565b604052919050565b600082601f830112611b3157600080fd5b81356001600160401b03811115611b4a57611b4a611a8f565b611b5d601f8201601f1916602001611af0565b818152846020838601011115611b7257600080fd5b816020850160208301376000918101602001919091529392505050565b60008060008060808587031215611ba557600080fd5b8435611bb081611a67565b93506020850135611bc081611a67565b92506040850135915060608501356001600160401b03811115611be257600080fd5b611bee87828801611b20565b91505092959194509250565b60008060408385031215611c0d57600080fd5b8235611c1881611a67565b915060208301356001600160401b03811115611c3357600080fd5b611c3f85828601611b20565b9150509250929050565b600080600060608486031215611c5e57600080fd5b8335611c6981611a67565b9250602084013591506040840135611c8081611a67565b809150509250925092565b60006001600160401b03821115611ca457611ca4611a8f565b5060051b60200190565b600082601f830112611cbf57600080fd5b81356020611cd4611ccf83611c8b565b611af0565b8083825260208201915060208460051b870101935086841115611cf657600080fd5b602086015b84811015611d125780358352918301918301611cfb565b509695505050505050565b60008060408385031215611d3057600080fd5b82356001600160401b03811115611d4657600080fd5b611d5285828601611cae565b9250506020830135611d6381611a67565b809150509250929050565b600060208284031215611d8057600080fd5b5035919050565b6001600160a01b03929092168252602082015260400190565b6001600160a01b0391909116815260200190565b600060208284031215611dc657600080fd5b8135610dbb81611a67565b60005b83811015611dec578181015183820152602001611dd4565b50506000910152565b60008151808452611e0d816020860160208601611dd1565b601f01601f19169290920160200192915050565b602081526000610dbb6020830184611df5565b60008060008060808587031215611e4a57600080fd5b84356001600160401b0380821115611e6157600080fd5b818701915087601f830112611e7557600080fd5b81356020611e85611ccf83611c8b565b82815260059290921b8401810191818101908b841115611ea457600080fd5b948201945b83861015611ecb578535611ebc81611a67565b82529482019490820190611ea9565b98505088013592505080821115611ee157600080fd5b611eed88838901611cae565b94506040870135915080821115611f0357600080fd5b50611f1087828801611cae565b925050611f1f60608601611a7f565b905092959194509250565b60008060408385031215611f3d57600080fd5b823591506020830135611d6381611a67565b600060208284031215611f6157600080fd5b81356001600160401b03811115611f7757600080fd5b611f8384828501611cae565b949350505050565b600181811c90821680611f9f57607f821691505b602082108103611fbf57634e487b7160e01b600052602260045260246000fd5b50919050565b601f82111561034d576000816000526020600020601f850160051c81016020861015611fee5750805b601f850160051c820191505b8181101561196e57828155600101611ffa565b81516001600160401b0381111561202657612026611a8f565b61203a816120348454611f8b565b84611fc5565b602080601f83116001811461206f57600084156120575750858301515b600019600386901b1c1916600185901b17855561196e565b600085815260208120601f198616915b8281101561209e5788860151825594840194600190910190840161207f565b50858210156120bc5787850151600019600388901b60f8161c191681555b5050505050600190811b01905550565b600082516120de818460208701611dd1565b9190910192915050565b80518015158114611a8a57600080fd5b60006020828403121561210a57600080fd5b610dbb826120e8565b6001600160a01b0393841681526020810192909252909116604082015260600190565b634e487b7160e01b600052603260045260246000fd5b8051611a8a81611a67565b60006080828403121561216957600080fd5b612171611aa5565b90508151815260208201516020820152604082015160408201526060820151606082015292915050565b6000608082840312156121ad57600080fd5b6121b5611aa5565b905081516121c281611a67565b81526020820151600281106121d657600080fd5b80602083015250604082015160408201526060820151606082015292915050565b60006040828403121561220957600080fd5b604051604081018181106001600160401b038211171561222b5761222b611a8f565b8060405250809150825161223e81611a67565b8152602092830151920191909152919050565b60006080828403121561226357600080fd5b61226b611aa5565b9050815161227881611a67565b8082525060208201516020820152604082015160408201526060820151606082015292915050565b600061028082840312156122b357600080fd5b6122bb611acd565b825181526122cb6020840161214c565b60208201526122dc6040840161214c565b6040820152606083015160608201526122f7608084016120e8565b608082015260a083015160a08201526123138460c08501612157565b60c082015261232684610140850161219b565b60e0820152612339846101c085016121f7565b61010082015261234d846102008501612251565b6101208201529392505050565b6001600160a01b039384168152919092166020820152604081019190915260600190565b60008151808452602080850194506020840160005b838110156123af57815187529582019590820190600101612393565b509495945050505050565b6040815260006123cd604083018561237e565b905060018060a01b03831660208301529392505050565b6000602082840312156123f657600080fd5b8151610dbb81611a67565b60006020828403121561241357600080fd5b5051919050565b634e487b7160e01b600052601160045260246000fd5b80820281158282048414176105095761050961241a565b808201808211156105095761050961241a565b60a0808252865190820181905260009060209060c0840190828a01845b8281101561249c5781516001600160a01b031684529284019290840190600101612477565b50505083810360208501526124b1818961237e565b91505082810360408401526124c6818761237e565b6001600160a01b0386166060850152838103608085015290506124e9818561237e565b98975050505050505050565b634e487b7160e01b600052602160045260246000fd5b6001600160a01b039283168152911660208201526040019056fea2646970667358221220ab0f0bf2e10850e8633b3c184fdae494f88142fa55f47907f202efc91bf135f564736f6c63430008170033a26469706673582212206e4829717fb3e055d8e4dbe2c13899d3d82c4a12e5af4e109b1de8f4380fcbe164736f6c63430008170033",
  "devdoc": {
    "kind": "dev",
    "methods": {},
    "stateVariables": {
      "VERSION": {
        "details": "Should be incremented when contract changed"
      }
    },
    "version": 1
  },
  "userdoc": {
    "kind": "user",
    "methods": {
      "VERSION()": {
        "notice": "Version of the contract"
      },
      "deployRouter(address)": {
        "notice": "Deploy {PawnShopRouter} for the given {user}. Any user is allowed to have only one instance of deployed router. Address of the deployed router can be taken through {deployedRouter}"
      },
      "router(address)": {
        "notice": "Deployed instances of PawnShopRouter for the given users"
      }
    },
    "notice": "Factory to deploy personal instances of PawnShopRouter",
    "version": 1
  },
  "storageLayout": {
    "storage": [
      {
        "astId": 93116,
        "contract": "contracts/marketplace/PawnShopRouterFactory.sol:PawnShopRouterFactory",
        "label": "router",
        "offset": 0,
        "slot": "0",
        "type": "t_mapping(t_address,t_address)"
      }
    ],
    "types": {
      "t_address": {
        "encoding": "inplace",
        "label": "address",
        "numberOfBytes": "20"
      },
      "t_mapping(t_address,t_address)": {
        "encoding": "mapping",
        "key": "t_address",
        "label": "mapping(address => address)",
        "numberOfBytes": "32",
        "value": "t_address"
      }
    }
  }
}