{
  "address": "0x929Dd44bE92BA1397F8F74207B23660dfE46B0e2",
  "abi": [
    {
      "inputs": [
        {
          "internalType": "address",
          "name": "sender",
          "type": "address"
        }
      ],
      "name": "ErrorNotDeployer",
      "type": "error"
    },
    {
      "inputs": [],
      "name": "InvalidInitialization",
      "type": "error"
    },
    {
      "inputs": [
        {
          "internalType": "address",
          "name": "sender",
          "type": "address"
        }
      ],
      "name": "NotFutureGovernance",
      "type": "error"
    },
    {
      "inputs": [
        {
          "internalType": "address",
          "name": "sender",
          "type": "address"
        }
      ],
      "name": "NotGovernance",
      "type": "error"
    },
    {
      "inputs": [],
      "name": "NotInitializing",
      "type": "error"
    },
    {
      "inputs": [],
      "name": "ZeroAddress",
      "type": "error"
    },
    {
      "anonymous": false,
      "inputs": [
        {
          "indexed": false,
          "internalType": "address",
          "name": "token",
          "type": "address"
        },
        {
          "indexed": false,
          "internalType": "uint256",
          "name": "amount",
          "type": "uint256"
        }
      ],
      "name": "Claimed",
      "type": "event"
    },
    {
      "anonymous": false,
      "inputs": [
        {
          "indexed": false,
          "internalType": "address",
          "name": "controller",
          "type": "address"
        },
        {
          "indexed": false,
          "internalType": "uint256",
          "name": "ts",
          "type": "uint256"
        },
        {
          "indexed": false,
          "internalType": "uint256",
          "name": "block",
          "type": "uint256"
        }
      ],
      "name": "ContractInitialized",
      "type": "event"
    },
    {
      "anonymous": false,
      "inputs": [
        {
          "indexed": false,
          "internalType": "address",
          "name": "value",
          "type": "address"
        }
      ],
      "name": "DungeonFactoryChanged",
      "type": "event"
    },
    {
      "anonymous": false,
      "inputs": [
        {
          "indexed": false,
          "internalType": "address",
          "name": "value",
          "type": "address"
        }
      ],
      "name": "GameObjectControllerChanged",
      "type": "event"
    },
    {
      "anonymous": false,
      "inputs": [
        {
          "indexed": false,
          "internalType": "address",
          "name": "value",
          "type": "address"
        }
      ],
      "name": "GameTokenChanged",
      "type": "event"
    },
    {
      "anonymous": false,
      "inputs": [
        {
          "indexed": false,
          "internalType": "address",
          "name": "gov",
          "type": "address"
        }
      ],
      "name": "GovernanceAccepted",
      "type": "event"
    },
    {
      "anonymous": false,
      "inputs": [
        {
          "indexed": false,
          "internalType": "address",
          "name": "value",
          "type": "address"
        }
      ],
      "name": "GuildControllerChanged",
      "type": "event"
    },
    {
      "anonymous": false,
      "inputs": [
        {
          "indexed": false,
          "internalType": "address",
          "name": "value",
          "type": "address"
        }
      ],
      "name": "HeroControllerChanged",
      "type": "event"
    },
    {
      "anonymous": false,
      "inputs": [
        {
          "indexed": false,
          "internalType": "uint64",
          "name": "version",
          "type": "uint64"
        }
      ],
      "name": "Initialized",
      "type": "event"
    },
    {
      "anonymous": false,
      "inputs": [
        {
          "indexed": false,
          "internalType": "address",
          "name": "value",
          "type": "address"
        }
      ],
      "name": "ItemControllerChanged",
      "type": "event"
    },
    {
      "anonymous": false,
      "inputs": [
        {
          "indexed": false,
          "internalType": "address",
          "name": "newGov",
          "type": "address"
        }
      ],
      "name": "OfferGovernance",
      "type": "event"
    },
    {
      "anonymous": false,
      "inputs": [
        {
          "indexed": false,
          "internalType": "address",
          "name": "value",
          "type": "address"
        }
      ],
      "name": "OracleChanged",
      "type": "event"
    },
    {
      "anonymous": false,
      "inputs": [
        {
          "indexed": false,
          "internalType": "address",
          "name": "proxy",
          "type": "address"
        },
        {
          "indexed": false,
          "internalType": "address",
          "name": "logic",
          "type": "address"
        }
      ],
      "name": "ProxyUpdated",
      "type": "event"
    },
    {
      "anonymous": false,
      "inputs": [
        {
          "indexed": false,
          "internalType": "address",
          "name": "value",
          "type": "address"
        }
      ],
      "name": "ReinforcementControllerChanged",
      "type": "event"
    },
    {
      "anonymous": false,
      "inputs": [
        {
          "indexed": false,
          "internalType": "uint256",
          "name": "value",
          "type": "uint256"
        },
        {
          "indexed": false,
          "internalType": "address",
          "name": "oldLogic",
          "type": "address"
        }
      ],
      "name": "RevisionIncreased",
      "type": "event"
    },
    {
      "anonymous": false,
      "inputs": [
        {
          "indexed": false,
          "internalType": "address",
          "name": "value",
          "type": "address"
        }
      ],
      "name": "StatControllerChanged",
      "type": "event"
    },
    {
      "anonymous": false,
      "inputs": [
        {
          "indexed": false,
          "internalType": "address",
          "name": "value",
          "type": "address"
        }
      ],
      "name": "StoryControllerChanged",
      "type": "event"
    },
    {
      "anonymous": false,
      "inputs": [
        {
          "indexed": false,
          "internalType": "address",
          "name": "token",
          "type": "address"
        },
        {
          "indexed": false,
          "internalType": "bool",
          "name": "status",
          "type": "bool"
        }
      ],
      "name": "TokenStatusChanged",
      "type": "event"
    },
    {
      "anonymous": false,
      "inputs": [
        {
          "indexed": false,
          "internalType": "address",
          "name": "value",
          "type": "address"
        }
      ],
      "name": "TreasuryChanged",
      "type": "event"
    },
    {
      "anonymous": false,
      "inputs": [
        {
          "indexed": false,
          "internalType": "address",
          "name": "value",
          "type": "address"
        }
      ],
      "name": "UserControllerChanged",
      "type": "event"
    },
    {
      "inputs": [],
      "name": "CONTROLLABLE_VERSION",
      "outputs": [
        {
          "internalType": "string",
          "name": "",
          "type": "string"
        }
      ],
      "stateMutability": "view",
      "type": "function"
    },
    {
      "inputs": [],
      "name": "DEPLOYER_ELIGIBILITY_PERIOD",
      "outputs": [
        {
          "internalType": "uint256",
          "name": "",
          "type": "uint256"
        }
      ],
      "stateMutability": "view",
      "type": "function"
    },
    {
      "inputs": [],
      "name": "VERSION",
      "outputs": [
        {
          "internalType": "string",
          "name": "",
          "type": "string"
        }
      ],
      "stateMutability": "view",
      "type": "function"
    },
    {
      "inputs": [],
      "name": "acceptGovernance",
      "outputs": [],
      "stateMutability": "nonpayable",
      "type": "function"
    },
    {
      "inputs": [
        {
          "internalType": "address",
          "name": "eoa",
          "type": "address"
        },
        {
          "internalType": "bool",
          "name": "remove",
          "type": "bool"
        }
      ],
      "name": "changeDeployer",
      "outputs": [],
      "stateMutability": "nonpayable",
      "type": "function"
    },
    {
      "inputs": [
        {
          "internalType": "bool",
          "name": "value",
          "type": "bool"
        }
      ],
      "name": "changePause",
      "outputs": [],
      "stateMutability": "nonpayable",
      "type": "function"
    },
    {
      "inputs": [
        {
          "internalType": "address",
          "name": "token",
          "type": "address"
        },
        {
          "internalType": "bool",
          "name": "status",
          "type": "bool"
        }
      ],
      "name": "changeTreasuryTokenStatus",
      "outputs": [],
      "stateMutability": "nonpayable",
      "type": "function"
    },
    {
      "inputs": [
        {
          "internalType": "address",
          "name": "token",
          "type": "address"
        }
      ],
      "name": "claimToGovernance",
      "outputs": [],
      "stateMutability": "nonpayable",
      "type": "function"
    },
    {
      "inputs": [],
      "name": "controller",
      "outputs": [
        {
          "internalType": "address",
          "name": "",
          "type": "address"
        }
      ],
      "stateMutability": "view",
      "type": "function"
    },
    {
      "inputs": [],
      "name": "created",
      "outputs": [
        {
          "internalType": "uint256",
          "name": "",
          "type": "uint256"
        }
      ],
      "stateMutability": "view",
      "type": "function"
    },
    {
      "inputs": [],
      "name": "createdBlock",
      "outputs": [
        {
          "internalType": "uint256",
          "name": "",
          "type": "uint256"
        }
      ],
      "stateMutability": "view",
      "type": "function"
    },
    {
      "inputs": [],
      "name": "dungeonFactory",
      "outputs": [
        {
          "internalType": "address",
          "name": "",
          "type": "address"
        }
      ],
      "stateMutability": "view",
      "type": "function"
    },
    {
      "inputs": [],
      "name": "futureGovernance",
      "outputs": [
        {
          "internalType": "address",
          "name": "",
          "type": "address"
        }
      ],
      "stateMutability": "view",
      "type": "function"
    },
    {
      "inputs": [],
      "name": "gameObjectController",
      "outputs": [
        {
          "internalType": "address",
          "name": "",
          "type": "address"
        }
      ],
      "stateMutability": "view",
      "type": "function"
    },
    {
      "inputs": [],
      "name": "gameToken",
      "outputs": [
        {
          "internalType": "address",
          "name": "",
          "type": "address"
        }
      ],
      "stateMutability": "view",
      "type": "function"
    },
    {
      "inputs": [],
      "name": "governance",
      "outputs": [
        {
          "internalType": "address",
          "name": "",
          "type": "address"
        }
      ],
      "stateMutability": "view",
      "type": "function"
    },
    {
      "inputs": [],
      "name": "guildController",
      "outputs": [
        {
          "internalType": "address",
          "name": "",
          "type": "address"
        }
      ],
      "stateMutability": "view",
      "type": "function"
    },
    {
      "inputs": [],
      "name": "heroController",
      "outputs": [
        {
          "internalType": "address",
          "name": "",
          "type": "address"
        }
      ],
      "stateMutability": "view",
      "type": "function"
    },
    {
      "inputs": [
        {
          "internalType": "address",
          "name": "oldLogic",
          "type": "address"
        }
      ],
      "name": "increaseRevision",
      "outputs": [],
      "stateMutability": "nonpayable",
      "type": "function"
    },
    {
      "inputs": [
        {
          "internalType": "address",
          "name": "governance_",
          "type": "address"
        }
      ],
      "name": "init",
      "outputs": [],
      "stateMutability": "nonpayable",
      "type": "function"
    },
    {
      "inputs": [
        {
          "internalType": "address",
          "name": "value_",
          "type": "address"
        }
      ],
      "name": "isController",
      "outputs": [
        {
          "internalType": "bool",
          "name": "",
          "type": "bool"
        }
      ],
      "stateMutability": "view",
      "type": "function"
    },
    {
      "inputs": [
        {
          "internalType": "address",
          "name": "adr",
          "type": "address"
        }
      ],
      "name": "isDeployer",
      "outputs": [
        {
          "internalType": "bool",
          "name": "",
          "type": "bool"
        }
      ],
      "stateMutability": "view",
      "type": "function"
    },
    {
      "inputs": [
        {
          "internalType": "address",
          "name": "value_",
          "type": "address"
        }
      ],
      "name": "isGovernance",
      "outputs": [
        {
          "internalType": "bool",
          "name": "",
          "type": "bool"
        }
      ],
      "stateMutability": "view",
      "type": "function"
    },
    {
      "inputs": [],
      "name": "itemController",
      "outputs": [
        {
          "internalType": "address",
          "name": "",
          "type": "address"
        }
      ],
      "stateMutability": "view",
      "type": "function"
    },
    {
      "inputs": [
        {
          "internalType": "address",
          "name": "newGov",
          "type": "address"
        }
      ],
      "name": "offerGovernance",
      "outputs": [],
      "stateMutability": "nonpayable",
      "type": "function"
    },
    {
      "inputs": [],
      "name": "onPause",
      "outputs": [
        {
          "internalType": "bool",
          "name": "",
          "type": "bool"
        }
      ],
      "stateMutability": "view",
      "type": "function"
    },
    {
      "inputs": [],
      "name": "oracle",
      "outputs": [
        {
          "internalType": "address",
          "name": "",
          "type": "address"
        }
      ],
      "stateMutability": "view",
      "type": "function"
    },
    {
      "inputs": [],
      "name": "previousImplementation",
      "outputs": [
        {
          "internalType": "address",
          "name": "",
          "type": "address"
        }
      ],
      "stateMutability": "view",
      "type": "function"
    },
    {
      "inputs": [],
      "name": "reinforcementController",
      "outputs": [
        {
          "internalType": "address",
          "name": "",
          "type": "address"
        }
      ],
      "stateMutability": "view",
      "type": "function"
    },
    {
      "inputs": [],
      "name": "revision",
      "outputs": [
        {
          "internalType": "uint256",
          "name": "",
          "type": "uint256"
        }
      ],
      "stateMutability": "view",
      "type": "function"
    },
    {
      "inputs": [
        {
          "internalType": "address",
          "name": "value",
          "type": "address"
        }
      ],
      "name": "setDungeonFactory",
      "outputs": [],
      "stateMutability": "nonpayable",
      "type": "function"
    },
    {
      "inputs": [
        {
          "internalType": "address",
          "name": "value",
          "type": "address"
        }
      ],
      "name": "setGameObjectController",
      "outputs": [],
      "stateMutability": "nonpayable",
      "type": "function"
    },
    {
      "inputs": [
        {
          "internalType": "address",
          "name": "value",
          "type": "address"
        }
      ],
      "name": "setGameToken",
      "outputs": [],
      "stateMutability": "nonpayable",
      "type": "function"
    },
    {
      "inputs": [
        {
          "internalType": "address",
          "name": "value",
          "type": "address"
        }
      ],
      "name": "setGuildController",
      "outputs": [],
      "stateMutability": "nonpayable",
      "type": "function"
    },
    {
      "inputs": [
        {
          "internalType": "address",
          "name": "value",
          "type": "address"
        }
      ],
      "name": "setHeroController",
      "outputs": [],
      "stateMutability": "nonpayable",
      "type": "function"
    },
    {
      "inputs": [
        {
          "internalType": "address",
          "name": "value",
          "type": "address"
        }
      ],
      "name": "setItemController",
      "outputs": [],
      "stateMutability": "nonpayable",
      "type": "function"
    },
    {
      "inputs": [
        {
          "internalType": "address",
          "name": "value",
          "type": "address"
        }
      ],
      "name": "setOracle",
      "outputs": [],
      "stateMutability": "nonpayable",
      "type": "function"
    },
    {
      "inputs": [
        {
          "internalType": "address",
          "name": "value",
          "type": "address"
        }
      ],
      "name": "setReinforcementController",
      "outputs": [],
      "stateMutability": "nonpayable",
      "type": "function"
    },
    {
      "inputs": [
        {
          "internalType": "address",
          "name": "value",
          "type": "address"
        }
      ],
      "name": "setStatController",
      "outputs": [],
      "stateMutability": "nonpayable",
      "type": "function"
    },
    {
      "inputs": [
        {
          "internalType": "address",
          "name": "value",
          "type": "address"
        }
      ],
      "name": "setStoryController",
      "outputs": [],
      "stateMutability": "nonpayable",
      "type": "function"
    },
    {
      "inputs": [
        {
          "internalType": "address",
          "name": "value",
          "type": "address"
        }
      ],
      "name": "setTreasury",
      "outputs": [],
      "stateMutability": "nonpayable",
      "type": "function"
    },
    {
      "inputs": [
        {
          "internalType": "address",
          "name": "value",
          "type": "address"
        }
      ],
      "name": "setUserController",
      "outputs": [],
      "stateMutability": "nonpayable",
      "type": "function"
    },
    {
      "inputs": [],
      "name": "statController",
      "outputs": [
        {
          "internalType": "address",
          "name": "",
          "type": "address"
        }
      ],
      "stateMutability": "view",
      "type": "function"
    },
    {
      "inputs": [],
      "name": "storyController",
      "outputs": [
        {
          "internalType": "address",
          "name": "",
          "type": "address"
        }
      ],
      "stateMutability": "view",
      "type": "function"
    },
    {
      "inputs": [],
      "name": "treasury",
      "outputs": [
        {
          "internalType": "address",
          "name": "",
          "type": "address"
        }
      ],
      "stateMutability": "view",
      "type": "function"
    },
    {
      "inputs": [
        {
          "internalType": "address[]",
          "name": "proxies",
          "type": "address[]"
        },
        {
          "internalType": "address",
          "name": "newLogic",
          "type": "address"
        }
      ],
      "name": "updateProxies",
      "outputs": [],
      "stateMutability": "nonpayable",
      "type": "function"
    },
    {
      "inputs": [],
      "name": "userController",
      "outputs": [
        {
          "internalType": "address",
          "name": "",
          "type": "address"
        }
      ],
      "stateMutability": "view",
      "type": "function"
    },
    {
      "inputs": [
        {
          "internalType": "address",
          "name": "token",
          "type": "address"
        }
      ],
      "name": "validTreasuryTokens",
      "outputs": [
        {
          "internalType": "bool",
          "name": "",
          "type": "bool"
        }
      ],
      "stateMutability": "view",
      "type": "function"
    }
  ],
  "transactionHash": "0xbc04089464c64d3aed18e3c74caf1a3abda7a1e12cd844b25470441d9508cfa8",
  "args": [],
  "numDeployments": 23,
  "solcInputHash": "26aa46af27336d196c04997c06413167",
  "bytecode": "0x608060405234801561001057600080fd5b507ff0c57e16840df040f15088dc2f81fe391c3923bec73e23a9662efc9c229c6a00805468010000000000000000810460ff1615906001600160401b031660008115801561005b5750825b90506000826001600160401b031660011480156100775750303b155b905081158015610085575080155b156100a35760405163f92ee8a960e01b815260040160405180910390fd5b84546001600160401b031916600117855583156100d157845460ff60401b1916680100000000000000001785555b831561011757845460ff60401b19168555604051600181527fc7f505b2f371ae2175ee4913f4499e1f2633a7b5936321eed1cdaeb6115181d29060200160405180910390a15b5050505050611cde806200012c6000396000f3fe608060405234801561001057600080fd5b506004361061025f5760003560e01c8063683fedf7116101475780639d0bcca0116100be5780639d0bcca01461049e578063b429afeb146104a6578063bcb384fa146104b9578063c3dfdae6146104cc578063c81529c6146104d4578063d11d1861146104e7578063dee1f0e4146104f1578063e4ce087114610504578063f0f4426014610517578063f6914cfa1461052a578063f77c47911461053d578063ffa1ad741461054557600080fd5b8063683fedf7146103d35780637262bb2d146103db5780637405bab8146103ee5780637adbf973146104015780637c66b452146104145780637cc96380146104275780637dc0d1d01461042f5780638070c5031461043757806380d29e661461043f578063822f804c1461045257806389dd9f1314610465578063936725ec1461046d57600080fd5b8063361e4b27116101db578063361e4b27146103265780634453bd89146103395780634576dc521461034c5780634593144c1461035f578063490fb76a146103675780634fac6ccd1461036f57806350c358a414610382578063524a562f146103955780635aa6e6751461039d5780635d4fead3146103a5578063605918ae146103b857806361d027b3146103cb57600080fd5b80628e969114610264578063016dff5d1461028257806308ac0fd71461028a57806318d928311461029f57806319ab453c146102b75780631ec47600146102ca578063238efcbc146102dd57806325eb1c87146102e55780632f91ede9146102ed57806331423c26146102f5578063325a19f1146102fd578063359a7d8f14610313575b600080fd5b61026c610569565b60405161027991906119d4565b60405180910390f35b61026c610578565b61029d610298366004611a0d565b610582565b005b6102a761058e565b6040519015158152602001610279565b61029d6102c5366004611a0d565b610598565b61029d6102d8366004611a0d565b6106bb565b61029d6106c4565b61026c6106ce565b61026c6106d8565b61026c6106e2565b6103056106ec565b604051908152602001610279565b61029d610321366004611a0d565b610720565b61029d610334366004611a0d565b610729565b61029d610347366004611a0d565b610732565b61029d61035a366004611a40565b61073b565b610305610749565b61026c610779565b61029d61037d366004611a0d565b610783565b6102a7610390366004611a0d565b610895565b61026c6108a6565b61026c6108b0565b61029d6103b3366004611b25565b6108ba565b61029d6103c6366004611a0d565b6108c3565b61026c6108cc565b61026c6108d6565b61029d6103e9366004611b42565b6108e0565b61029d6103fc366004611a0d565b6108ea565b61029d61040f366004611a0d565b6108f3565b6102a7610422366004611a0d565b6108fc565b610305610907565b61026c610925565b61026c61092f565b61029d61044d366004611a0d565b610939565b61029d610460366004611a0d565b610942565b61026c61094b565b610491604051806040016040528060058152602001640312e302e360dc1b81525081565b6040516102799190611b7b565b61026c610955565b6102a76104b4366004611a0d565b610985565b61029d6104c7366004611a0d565b6109aa565b61026c6109b3565b61029d6104e2366004611a0d565b6109bd565b61030562093a8081565b6102a76104ff366004611a0d565b6109c6565b61029d610512366004611a0d565b610a4b565b61029d610525366004611a0d565b610a54565b61029d610538366004611b42565b610a5d565b61026c610a67565b61049160405180604001604052806005815260200164312e302e3360d81b81525081565b6000610573610a97565b905090565b6000610573610ab3565b61058b81610acf565b50565b6000610573610b63565b60006105a2610b79565b805490915060ff600160401b820416159067ffffffffffffffff166000811580156105ca5750825b905060008267ffffffffffffffff1660011480156105e75750303b155b9050811580156105f5575080155b156106135760405163f92ee8a960e01b815260040160405180910390fd5b845467ffffffffffffffff19166001178555831561063d57845460ff60401b1916600160401b1785555b61064630610b9d565b8561064f610bae565b80546001600160a01b0319166001600160a01b039290921691909117905583156106b357845460ff60401b19168555604051600181527fc7f505b2f371ae2175ee4913f4499e1f2633a7b5936321eed1cdaeb6115181d29060200160405180910390a15b505050505050565b61058b81610bd2565b6106cc610c34565b565b6000610573610ce4565b6000610573610d00565b6000610573610d1c565b600061057361071c60017f6f55f470bdc9cb5f04223fd822021061668e4dccb43e8727b295106dc9769c8b611be0565b5490565b61058b81610d38565b61058b81610dc6565b61058b81610e4f565b6107458282610ed8565b5050565b600061057361071c60017f812a673dfca07956350df10f8a654925f561d7a0da09bdbe79e653939a14d9f1611be0565b6000610573610fd7565b3330146107d55760405162461bcd60e51b815260206004820152601b60248201527a24b731b932b0b9b2903932bb34b9b4b7b7103337b93134b23232b760291b60448201526064015b60405180910390fd5b60006107f361071c6001600080516020611c89833981519152611be0565b6107fe906001611bf3565b90506108208161081d6001600080516020611c89833981519152611be0565b55565b61084f8261081d60017fbfaaa2fb63266ff27c2da975f5894955056f50419af651a81f6c5060581857e4611be0565b604080518281526001600160a01b03841660208201527ff27e2ef832a4eb8ed8ec553b875eecd44764cda95b1c24170e281539e0a869c891015b60405180910390a15050565b60006108a082610ff8565b92915050565b6000610573611046565b6000610573611062565b61058b8161107b565b61058b816110a1565b600061057361112a565b6000610573611146565b6107458282611162565b61058b816111cf565b61058b81611258565b60006108a0826112e1565b600061057361071c6001600080516020611c89833981519152611be0565b6000610573611310565b600061057361132c565b61058b81611348565b61058b816113d1565b600061057361145a565b600061057361071c60017fbfaaa2fb63266ff27c2da975f5894955056f50419af651a81f6c5060581857e4611be0565b600061098f610a67565b6001600160a01b0316826001600160a01b0316149050919050565b61058b81611476565b60006105736115af565b61058b816115cb565b6000816001600160a01b03166109da610a67565b6001600160a01b0316635aa6e6756040518163ffffffff1660e01b8152600401602060405180830381865afa158015610a17573d6000803e3d6000fd5b505050506040513d601f19601f82011682018060405250810190610a3b9190611c06565b6001600160a01b03161492915050565b61058b81611654565b61058b816116dd565b6107458282611766565b600061057361071c60017f5165972ef41194f06c5007493031d0b927c20741adcb74403b954009fd2c3618611be0565b6000610aa1610bae565b600201546001600160a01b0316919050565b6000610abd610bae565b600a01546001600160a01b0316919050565b610ad76117de565b6001600160a01b038116610afe5760405163d92e233d60e01b815260040160405180910390fd5b80610b07610bae565b60060180546001600160a01b0319166001600160a01b03929092169190911790556040517f5d77c617926cd1f4106de1bae23b2eb1a9d6e84911f701858a0b1d831e92816590610b589083906119d4565b60405180910390a150565b6000610b6d610bae565b600e015460ff16919050565b7ff0c57e16840df040f15088dc2f81fe391c3923bec73e23a9662efc9c229c6a0090565b610ba5611806565b61058b8161182b565b7f4d96152d518acf5697a667aeb82f27b3218b679995afa077296a84fdcb65bb0090565b610bda6117de565b80610be3610bae565b60010180546001600160a01b0319166001600160a01b03929092169190911790556040517f93a15bbe6d7cb67fff86738ed92efd14e9fe04e7d30042086570034a2f2eb3c290610b589083906119d4565b33610c3d610bae565b600101546001600160a01b031614610c6a573360405163ba18f1e160e01b81526004016107cc91906119d4565b33610c73610bae565b80546001600160a01b0319166001600160a01b0392909216919091179055610c99610bae565b60010180546001600160a01b03191690556040517fb1476cf38ac36ee528f1ad1ae81bdb46de8807d42475e16078426bce6001396190610cda9033906119d4565b60405180910390a1565b6000610cee610bae565b600f01546001600160a01b0316919050565b6000610d0a610bae565b600801546001600160a01b0316919050565b6000610d26610bae565b600901546001600160a01b0316919050565b610d406117de565b6001600160a01b038116610d675760405163d92e233d60e01b815260040160405180910390fd5b80610d70610bae565b600e0160016101000a8154816001600160a01b0302191690836001600160a01b031602179055507fd86fc86ebea7a7d81c1a9fa7e0977cdafcfccf0cc35295a095231a7b28274e4981604051610b5891906119d4565b610dce6117de565b6001600160a01b038116610df55760405163d92e233d60e01b815260040160405180910390fd5b80610dfe610bae565b60030180546001600160a01b0319166001600160a01b03929092169190911790556040517fecbc0f0d903f1b9964d257a8043a5ecdf9c55a8e3d0060fb920b40c4009a257d90610b589083906119d4565b610e576117de565b6001600160a01b038116610e7e5760405163d92e233d60e01b815260040160405180910390fd5b80610e87610bae565b600f0180546001600160a01b0319166001600160a01b03929092169190911790556040517f0d1f076dd618d44fc1ed0ae909dcb5a875262080a1fb3386f155e47003323ed790610b589083906119d4565b610ee0611948565b60005b8251811015610fd257828181518110610efe57610efe611c23565b60200260200101516001600160a01b0316630900f010836040518263ffffffff1660e01b8152600401610f3191906119d4565b600060405180830381600087803b158015610f4b57600080fd5b505af1158015610f5f573d6000803e3d6000fd5b505050507fd32d24edea94f55e932d9a008afc425a8561462d1b1f57bc6e508e9a6b9509e1838281518110610f9657610f96611c23565b602002602001015183604051610fc29291906001600160a01b0392831681529116602082015260400190565b60405180910390a1600101610ee3565b505050565b6000610fe1610bae565b600e015461010090046001600160a01b0316919050565b600080611003610bae565b6001600160a01b0384166000908152600d9190910160205260409020549050801580159061103057508042105b8061103f575061103f83611970565b9392505050565b6000611050610bae565b600301546001600160a01b0316919050565b600061106c610bae565b546001600160a01b0316919050565b611083611948565b8061108c610bae565b600e01805460ff191691151591909117905550565b6110a96117de565b6001600160a01b0381166110d05760405163d92e233d60e01b815260040160405180910390fd5b806110d9610bae565b60020180546001600160a01b0319166001600160a01b03929092169190911790556040517f573b0be2ffc8c66825968c4e3b38a0af5edb18ce20f9a516e0f8a04867d2638990610b589083906119d4565b6000611134610bae565b600501546001600160a01b0316919050565b6000611150610bae565b600601546001600160a01b0316919050565b61116a6117de565b801561119957611178610bae565b6001600160a01b0383166000908152600d9190910160205260408120555050565b6111a662093a8042611bf3565b6111ae610bae565b6001600160a01b0384166000908152600d9190910160205260409020555050565b6111d76117de565b6001600160a01b0381166111fe5760405163d92e233d60e01b815260040160405180910390fd5b80611207610bae565b60090180546001600160a01b0319166001600160a01b03929092169190911790556040517fedcd6ea89a41d21f1bafa9a7cc32e754079d18642839a1a48c938447d2a740eb90610b589083906119d4565b6112606117de565b6001600160a01b0381166112875760405163d92e233d60e01b815260040160405180910390fd5b80611290610bae565b60040180546001600160a01b0319166001600160a01b03929092169190911790556040517f0e05ae75e8b926552cf6fcd744d19f422561e3ced1e426868730852702dbe41890610b589083906119d4565b60006112eb610bae565b6001600160a01b039092166000908152600c9290920160205250604090205460ff1690565b600061131a610bae565b600401546001600160a01b0316919050565b6000611336610bae565b600101546001600160a01b0316919050565b6113506117de565b6001600160a01b0381166113775760405163d92e233d60e01b815260040160405180910390fd5b80611380610bae565b600b0180546001600160a01b0319166001600160a01b03929092169190911790556040517f035bee136adcafe288762d810fef741bc236d20bb1b469acb4c23e5357f0856790610b589083906119d4565b6113d96117de565b6001600160a01b0381166114005760405163d92e233d60e01b815260040160405180910390fd5b80611409610bae565b60070180546001600160a01b0319166001600160a01b03929092169190911790556040517ffa195fffb4bf4e5339e2e98fb090f0d634c64261640c07c1ee6ee43d5f23516190610b589083906119d4565b6000611464610bae565b600701546001600160a01b0316919050565b61147e6117de565b6040516370a0823160e01b81526000906001600160a01b038316906370a08231906114ad9030906004016119d4565b602060405180830381865afa1580156114ca573d6000803e3d6000fd5b505050506040513d601f19601f820116820180604052508101906114ee9190611c39565b9050801561074557816001600160a01b031663a9059cbb61150d610bae565b546040516001600160e01b031960e084901b16815261153a916001600160a01b0316908590600401611c52565b6020604051808303816000875af1158015611559573d6000803e3d6000fd5b505050506040513d601f19601f8201168201806040525081019061157d9190611c6b565b507fd8138f8a3f377c5259ca548e70e4c2de94f129f5a11036a15b69513cba2b426a8282604051610889929190611c52565b60006115b9610bae565b600b01546001600160a01b0316919050565b6115d36117de565b6001600160a01b0381166115fa5760405163d92e233d60e01b815260040160405180910390fd5b80611603610bae565b600a0180546001600160a01b0319166001600160a01b03929092169190911790556040517fd1e9a4ae1231531a757f1e31a2ff8a1db9d359a194436efe40bccb972cde86f090610b589083906119d4565b61165c6117de565b6001600160a01b0381166116835760405163d92e233d60e01b815260040160405180910390fd5b8061168c610bae565b60080180546001600160a01b0319166001600160a01b03929092169190911790556040517f29fdde0e067ae34f44ca706fd84ea4b9dabb69557e7e935d379c932ba023b2be90610b589083906119d4565b6116e56117de565b6001600160a01b03811661170c5760405163d92e233d60e01b815260040160405180910390fd5b80611715610bae565b60050180546001600160a01b0319166001600160a01b03929092169190911790556040517fc714d22a2f08b695f81e7c707058db484aa5b4d6b4c9fd64beb10fe85832f60890610b589083906119d4565b61176e6117de565b80611777610bae565b6001600160a01b0384166000818152600c929092016020908152604092839020805460ff1916941515949094179093558151908152831515928101929092527f0de9c5667496fd561ff9dfa59efdc1c76f7dbf3844adae3d14a3a14d563321b19101610889565b6117e733611970565b6106cc573360405163988d1f0360e01b81526004016107cc91906119d4565b61180e6119ba565b6106cc57604051631afcd79f60e31b815260040160405180910390fd5b6001600160a01b0381166118735760405162461bcd60e51b815260206004820152600f60248201526e2d32b9379031b7b73a3937b63632b960891b60448201526064016107cc565b6118a28161081d60017f5165972ef41194f06c5007493031d0b927c20741adcb74403b954009fd2c3618611be0565b6118d14261081d60017f6f55f470bdc9cb5f04223fd822021061668e4dccb43e8727b295106dc9769c8b611be0565b6119004361081d60017f812a673dfca07956350df10f8a654925f561d7a0da09bdbe79e653939a14d9f1611be0565b604080516001600160a01b038316815242602082015243918101919091527f1a2dd071001ebf6e03174e3df5b305795a4ad5d41d8fdb9ba41dbbe23671342690606001610b58565b61195133610ff8565b6106cc573360405163451cea1760e11b81526004016107cc91906119d4565b6000816001600160a01b0316306001600160a01b0316635aa6e6756040518163ffffffff1660e01b8152600401602060405180830381865afa158015610a17573d6000803e3d6000fd5b60006119c4610b79565b54600160401b900460ff16919050565b6001600160a01b0391909116815260200190565b6001600160a01b038116811461058b57600080fd5b8035611a08816119e8565b919050565b600060208284031215611a1f57600080fd5b813561103f816119e8565b634e487b7160e01b600052604160045260246000fd5b60008060408385031215611a5357600080fd5b823567ffffffffffffffff80821115611a6b57600080fd5b818501915085601f830112611a7f57600080fd5b8135602082821115611a9357611a93611a2a565b8160051b604051601f19603f83011681018181108682111715611ab857611ab8611a2a565b604052928352818301935084810182019289841115611ad657600080fd5b948201945b83861015611afb57611aec866119fd565b85529482019493820193611adb565b9650611b0a90508782016119fd565b9450505050509250929050565b801515811461058b57600080fd5b600060208284031215611b3757600080fd5b813561103f81611b17565b60008060408385031215611b5557600080fd5b8235611b60816119e8565b91506020830135611b7081611b17565b809150509250929050565b60006020808352835180602085015260005b81811015611ba957858101830151858201604001528201611b8d565b506000604082860101526040601f19601f8301168501019250505092915050565b634e487b7160e01b600052601160045260246000fd5b818103818111156108a0576108a0611bca565b808201808211156108a0576108a0611bca565b600060208284031215611c1857600080fd5b815161103f816119e8565b634e487b7160e01b600052603260045260246000fd5b600060208284031215611c4b57600080fd5b5051919050565b6001600160a01b03929092168252602082015260400190565b600060208284031215611c7d57600080fd5b815161103f81611b1756fe22573091f17911fb166032a3d9e0554aa73d31b7b7ddea4a4dd2995650af84bda2646970667358221220171f8dc84fa903c4178f7fcc7e576fe3584a273d587976e7f486032d67e8e50e64736f6c63430008170033",
  "devdoc": {
    "errors": {
      "InvalidInitialization()": [
        {
          "details": "The contract is already initialized."
        }
      ],
      "NotInitializing()": [
        {
          "details": "The contract is not initializing."
        }
      ]
    },
    "events": {
      "Initialized(uint64)": {
        "details": "Triggered when the contract has been initialized or reinitialized."
      }
    },
    "kind": "dev",
    "methods": {
      "created()": {
        "returns": {
          "_0": "Creation timestamp"
        }
      },
      "createdBlock()": {
        "returns": {
          "_0": "Creation block number"
        }
      },
      "increaseRevision(address)": {
        "details": "Revision should be increased on each contract upgrade"
      },
      "isController(address)": {
        "details": "Return true if given address is controller"
      },
      "previousImplementation()": {
        "details": "Previous logic implementation"
      },
      "revision()": {
        "details": "Contract upgrade counter"
      }
    },
    "version": 1
  },
  "userdoc": {
    "kind": "user",
    "methods": {
      "CONTROLLABLE_VERSION()": {
        "notice": "Version of the contract"
      },
      "VERSION()": {
        "notice": "Version of the contract"
      },
      "controller()": {
        "notice": "Return controller address saved in the contract slot"
      },
      "created()": {
        "notice": "Return creation timestamp"
      },
      "createdBlock()": {
        "notice": "Return creation block number"
      },
      "isGovernance(address)": {
        "notice": "Return true if given address is setup as governance in Controller"
      }
    },
    "version": 1
  },
  "storageLayout": {
    "storage": [],
    "types": null
  }
}