{
  "address": "0xB5F7F41edde7a6C543dF21566218221ACF5b30F0",
  "abi": [
    {
      "inputs": [],
      "name": "ErrorHeroNotInDungeon",
      "type": "error"
    },
    {
      "inputs": [],
      "name": "ErrorNotCompleted",
      "type": "error"
    },
    {
      "inputs": [
        {
          "internalType": "uint32",
          "name": "mana",
          "type": "uint32"
        },
        {
          "internalType": "uint256",
          "name": "requiredMana",
          "type": "uint256"
        }
      ],
      "name": "ErrorNotEnoughMana",
      "type": "error"
    },
    {
      "inputs": [
        {
          "internalType": "address",
          "name": "heroToken",
          "type": "address"
        },
        {
          "internalType": "address",
          "name": "msgSender",
          "type": "address"
        }
      ],
      "name": "ErrorNotHeroOwner",
      "type": "error"
    },
    {
      "inputs": [],
      "name": "ErrorNotObject2",
      "type": "error"
    },
    {
      "inputs": [],
      "name": "ErrorPaused",
      "type": "error"
    },
    {
      "inputs": [
        {
          "internalType": "uint256",
          "name": "balance",
          "type": "uint256"
        },
        {
          "internalType": "uint256",
          "name": "expectedBalance",
          "type": "uint256"
        }
      ],
      "name": "NotEnoughTokens",
      "type": "error"
    },
    {
      "inputs": [
        {
          "internalType": "uint256",
          "name": "index",
          "type": "uint256"
        },
        {
          "internalType": "uint256",
          "name": "length",
          "type": "uint256"
        }
      ],
      "name": "OutOfBounds",
      "type": "error"
    },
    {
      "inputs": [
        {
          "internalType": "uint256",
          "name": "value",
          "type": "uint256"
        }
      ],
      "name": "TooHighValue",
      "type": "error"
    },
    {
      "anonymous": false,
      "inputs": [
        {
          "indexed": false,
          "internalType": "uint64",
          "name": "dungId",
          "type": "uint64"
        },
        {
          "indexed": false,
          "internalType": "address",
          "name": "itemAdr",
          "type": "address"
        },
        {
          "indexed": false,
          "internalType": "uint256",
          "name": "itemId",
          "type": "uint256"
        }
      ],
      "name": "AddTreasuryItem",
      "type": "event"
    },
    {
      "anonymous": false,
      "inputs": [
        {
          "indexed": false,
          "internalType": "uint64",
          "name": "dungId",
          "type": "uint64"
        },
        {
          "indexed": false,
          "internalType": "address",
          "name": "token",
          "type": "address"
        },
        {
          "indexed": false,
          "internalType": "uint256",
          "name": "amount",
          "type": "uint256"
        }
      ],
      "name": "AddTreasuryToken",
      "type": "event"
    },
    {
      "anonymous": false,
      "inputs": [
        {
          "indexed": false,
          "internalType": "uint64",
          "name": "dungId",
          "type": "uint64"
        },
        {
          "indexed": false,
          "internalType": "address",
          "name": "token",
          "type": "address"
        },
        {
          "indexed": false,
          "internalType": "uint256",
          "name": "id",
          "type": "uint256"
        }
      ],
      "name": "ClaimItem",
      "type": "event"
    },
    {
      "anonymous": false,
      "inputs": [
        {
          "indexed": false,
          "internalType": "uint64",
          "name": "dungId",
          "type": "uint64"
        },
        {
          "indexed": false,
          "internalType": "address",
          "name": "token",
          "type": "address"
        },
        {
          "indexed": false,
          "internalType": "uint256",
          "name": "amount",
          "type": "uint256"
        }
      ],
      "name": "ClaimToken",
      "type": "event"
    },
    {
      "anonymous": false,
      "inputs": [
        {
          "indexed": false,
          "internalType": "uint16",
          "name": "dungLogicNum",
          "type": "uint16"
        },
        {
          "indexed": false,
          "internalType": "uint64",
          "name": "dungId",
          "type": "uint64"
        },
        {
          "indexed": false,
          "internalType": "address",
          "name": "hero",
          "type": "address"
        },
        {
          "indexed": false,
          "internalType": "uint256",
          "name": "heroId",
          "type": "uint256"
        }
      ],
      "name": "DungeonCompleted",
      "type": "event"
    },
    {
      "anonymous": false,
      "inputs": [
        {
          "indexed": false,
          "internalType": "uint64",
          "name": "dungId",
          "type": "uint64"
        },
        {
          "indexed": false,
          "internalType": "bool",
          "name": "claim",
          "type": "bool"
        }
      ],
      "name": "Exit",
      "type": "event"
    },
    {
      "anonymous": false,
      "inputs": [
        {
          "indexed": false,
          "internalType": "address",
          "name": "hero",
          "type": "address"
        },
        {
          "indexed": false,
          "internalType": "uint256",
          "name": "heroId",
          "type": "uint256"
        },
        {
          "indexed": false,
          "internalType": "uint64",
          "name": "dungeonId",
          "type": "uint64"
        }
      ],
      "name": "HeroCurrentDungeonChanged",
      "type": "event"
    },
    {
      "anonymous": false,
      "inputs": [
        {
          "indexed": false,
          "internalType": "uint64",
          "name": "dungId",
          "type": "uint64"
        },
        {
          "components": [
            {
              "internalType": "bool",
              "name": "kill",
              "type": "bool"
            },
            {
              "internalType": "bool",
              "name": "completed",
              "type": "bool"
            },
            {
              "internalType": "address",
              "name": "heroToken",
              "type": "address"
            },
            {
              "internalType": "address[]",
              "name": "mintItems",
              "type": "address[]"
            },
            {
              "internalType": "int32",
              "name": "heal",
              "type": "int32"
            },
            {
              "internalType": "int32",
              "name": "manaRegen",
              "type": "int32"
            },
            {
              "internalType": "int32",
              "name": "lifeChancesRecovered",
              "type": "int32"
            },
            {
              "internalType": "int32",
              "name": "damage",
              "type": "int32"
            },
            {
              "internalType": "int32",
              "name": "manaConsumed",
              "type": "int32"
            },
            {
              "internalType": "uint32",
              "name": "objectId",
              "type": "uint32"
            },
            {
              "internalType": "uint32",
              "name": "experience",
              "type": "uint32"
            },
            {
              "internalType": "uint256",
              "name": "heroTokenId",
              "type": "uint256"
            },
            {
              "internalType": "uint256",
              "name": "iteration",
              "type": "uint256"
            },
            {
              "internalType": "uint32[]",
              "name": "rewriteNextObject",
              "type": "uint32[]"
            }
          ],
          "indexed": false,
          "internalType": "struct IGOC.ActionResult",
          "name": "result",
          "type": "tuple"
        },
        {
          "indexed": false,
          "internalType": "uint256",
          "name": "currentStage",
          "type": "uint256"
        },
        {
          "indexed": false,
          "internalType": "address",
          "name": "heroToken",
          "type": "address"
        },
        {
          "indexed": false,
          "internalType": "uint256",
          "name": "heroTokenId",
          "type": "uint256"
        },
        {
          "indexed": false,
          "internalType": "uint256",
          "name": "newStage",
          "type": "uint256"
        }
      ],
      "name": "ObjectAction",
      "type": "event"
    },
    {
      "inputs": [],
      "name": "MIN_LEVEL_FOR_TREASURY_DEFAULT",
      "outputs": [
        {
          "internalType": "uint256",
          "name": "",
          "type": "uint256"
        }
      ],
      "stateMutability": "view",
      "type": "function"
    }
  ],
  "transactionHash": "0xcd1262284b7e346ea6b89e74c886c4704a39367f84153c6b5025dc39550d1718",
  "args": [],
  "numDeployments": 17,
  "solcInputHash": "ab128610a613a12ee3464e154c92869f",
  "bytecode": "0x613f4361003a600b82828239805160001a60731461002d57634e487b7160e01b600052600060045260246000fd5b30600052607381538281f3fe73000000000000000000000000000000000000000030146080604052600436106100565760003560e01c80630b5ac2981461005b57806311942d17146100765780634b0d0cd6146100c65780634e7b66d4146100e8575b600080fd5b610063600581565b6040519081526020015b60405180910390f35b81801561008257600080fd5b50610096610091366004613331565b610108565b60405161006d94939291909315158452602084019290925263ffffffff1660408301521515606082015260800190565b8180156100d257600080fd5b506100e66100e136600461341d565b6102da565b005b8180156100f457600080fd5b506100e6610103366004613460565b6103ff565b604080516101c08101825260008082526020820181905291810182905260608082018190526080820183905260a0820183905260c0820183905260e08201839052610100820183905261012082018390526101408201839052610160820183905261018082018390526101a082015281908190819060006101888861072a565b90506102c2604051806101a001604052808c6001600160a01b031681526020018f600001600b9054906101000a90046001600160a01b03166001600160a01b031681526020016101d784610791565b6001600160a01b031681526020018b81526020018f60070160009054906101000a900460ff1660ff1681526020018e60000160019054906101000a900460ff1660ff1681526020018f6001015481526020018d6001600160401b031681526020018963ffffffff1681526020018f60020160049054906101000a900460ff1660ff1681526020016000151581526020018481526020016040518060a00160405280600063ffffffff168152602001600063ffffffff168152602001600063ffffffff168152602001600063ffffffff168152602001600063ffffffff168152508152508e8e84610822565b95509550955095505050975097509750979350505050565b60006102e4610d0d565b9050600081600e016000846001600160401b03166001600160401b03168152602001908152602001600020905061039582856001600160a01b031663016dff5d6040518163ffffffff1660e01b8152600401602060405180830381865afa158015610353573d6000803e3d6000fd5b505050506040513d601f19601f8201168201806040525081019061037791906134c5565b83546001850154600160581b9091046001600160a01b031690610d31565b8054600160501b600160f81b031916600160501b178155600060018201819055604080516001600160401b038616815260208101929092527f9bc0000bc1cebc0d3d656c85c7b4b33090a7808ebf6f438c98d93e4430f5ce0a91015b60405180910390a150505050565b6000610409610d0d565b6001600160401b0385166000908152600e919091016020526040812091506104308661072a565b82546001840154919250600160581b81046001600160a01b03169190600160501b900460ff16610473576040516324b7275f60e01b815260040160405180910390fd5b876001600160a01b03166318d928316040518163ffffffff1660e01b8152600401602060405180830381865afa1580156104b1573d6000803e3d6000fd5b505050506040513d601f19601f820116820180604052508101906104d591906134f4565b156104f357604051635e1633d360e11b815260040160405180910390fd5b6040516331a9108f60e11b8152600481018290526001600160a01b038087169190841690636352211e90602401602060405180830381865afa15801561053d573d6000803e3d6000fd5b505050506040513d601f19601f8201168201806040525081019061056191906134c5565b6001600160a01b03161461059557818560405163c8e98f8960e01b815260040161058c929190613511565b60405180910390fd5b866001600160401b03166105a7610d0d565b60040160006105bf6001600160a01b03861685610db6565b81526020810191909152604001600020546001600160401b0316146105f7576040516337bcc65160e01b815260040160405180910390fd5b600061060284610e06565b90506000816001600160a01b031663a13cf106856040518263ffffffff1660e01b8152600401610632919061352b565b6040805180830381865afa15801561064e573d6000803e3d6000fd5b505050506040513d601f19601f82011682018060405250810190610672919061353f565b509050610695610680610d0d565b8754600160401b900461ffff168b8787610e9b565b87156106aa576106aa85888b89888887610f61565b6106bd6106b5610d0d565b838686610d31565b6001600160a01b0381166106db576106db828a86868a60060161130d565b604080516001600160401b038b16815289151560208201527f9bc0000bc1cebc0d3d656c85c7b4b33090a7808ebf6f438c98d93e4430f5ce0a910160405180910390a150505050505050505050565b6040805161016081018252600060208201819052918101829052606081018290526080810182905260a0810182905260c0810182905260e08101829052610100810182905261012081018290526101408101919091526001600160a01b0391909116815290565b60208101516000906001600160a01b031661081a5781600001516001600160a01b0316628e96916040518163ffffffff1660e01b8152600401602060405180830381865afa1580156107e7573d6000803e3d6000fd5b505050506040513d601f19601f8201168201806040525081019061080b91906134c5565b6001600160a01b031660208301525b506020015190565b61010084015160009081908163ffffffff821681036108545760405163230b93ef60e11b815260040160405180910390fd5b61085d8561143c565b61010089015160405163d447d4df60e01b815263ffffffff90911660048201526001600160a01b03919091169063d447d4df90602401602060405180830381865afa1580156108b0573d6000803e3d6000fd5b505050506040513d601f19601f820116820180604052508101906108d491906134f4565b15156101408901526108e58561143c565b6001600160a01b031663909aa53989600001518a60e001518b61010001518c602001518d60c001518e61012001518f606001516040518863ffffffff1660e01b815260040161093a979695949392919061356d565b6000604051808303816000875af1158015610959573d6000803e3d6000fd5b505050506040513d6000823e601f3d908101601f191682016040526109819190810190613729565b610160890152610140880151156109b6576109b661099d610d0d565b89604001518a606001518b602001518c60c001516114ce565b87604001516001600160a01b031663d4ac484889602001518a60c001516040518363ffffffff1660e01b81526004016109f0929190613881565b60a060405180830381865afa158015610a0d573d6000803e3d6000fd5b505050506040513d601f19601f82011682018060405250810190610a31919061389a565b6101808901526101608801516101000151610a4e9060030b6117da565b8861018001516060015163ffffffff161015610aab5787610180015160600151610a84896101600151610100015160030b6117da565b60405163c3054b0760e01b815263ffffffff9092166004830152602482015260440161058c565b6101608801515180610ae05750610acd88610160015160e0015160030b6117da565b8861018001516040015163ffffffff1611155b15610c2e5761016088015160019052610b0b610afa610d0d565b89602001518a60c001516000611809565b6000610b1686610e06565b60208a015160c08b01516040516387a97d3f60e01b81529293506001600160a01b038416926387a97d3f92610b4f929091600401613881565b60408051808303816000875af1158015610b6d573d6000803e3d6000fd5b505050506040513d601f19601f82011682018060405250810190610b91919061353f565b5050610b9d8888611899565b610bb7610ba8610d0d565b8a602001518b60c001516119ba565b60018961018001516080015163ffffffff1611610bef57610bea818a60e001518b602001518c60c001518c60060161130d565b610c24565b610bf989876119ea565b610c2489604001518a602001518b60c001518c6101800151604001518d610180015160600151611ae4565b6001915050610cab565b610c4b886040015189602001518a60c001518b6101600151611b91565b610c68886040015189602001518a60c001518b6101600151611caf565b610c76888689600601611d69565b8761016001516020015115610cab57610c8f88866119ea565b610ca38886898b608001518b600301611f19565b919550935091505b7f804029ca0a7a4ab694bbeb66bacea4ab2a03a2250bbb4cbcb80275189d1c08658860e001518961016001518a61012001518b602001518c60c0015188604051610cfa96959493929190613990565b60405180910390a1945094509450949050565b7fae5971282b317bbed599861775fe0712755bb3b2f655bfe8fb14280d8429f60090565b610d3e8483836000611809565b6040516387a97d3f60e01b81526001600160a01b038416906387a97d3f90610d6c9085908590600401613881565b60408051808303816000875af1158015610d8a573d6000803e3d6000fd5b505050506040513d601f19601f82011682018060405250810190610dae919061353f565b505050505050565b60006001600160401b03821115610de357604051633995b34160e01b81526004810183905260240161058c565b5067ffffffffffffffff60a01b60a09190911b166001600160a01b039091161790565b6101208101516000906001600160a01b0316610e925781600001516001600160a01b031663016dff5d6040518163ffffffff1660e01b8152600401602060405180830381865afa158015610e5e573d6000803e3d6000fd5b505050506040513d601f19601f82011682018060405250810190610e8291906134c5565b6001600160a01b03166101208301525b50610120015190565b610eac6006860161ffff86166120e4565b15610efa576001600160a01b03821660a082901b67ffffffffffffffff60a01b161760f085901b6001600160f01b0319161760009081526002860160205260409020805460ff191660011790555b6040805161ffff861681526001600160401b03851660208201526001600160a01b03841691810191909152606081018290527fd286ec1708c735de138179aa583b9b6b3ca43fc819d236a33f0487208b7d1bc1906080015b60405180910390a15050505050565b610fdb60405180610140016040528060006001600160a01b0316815260200160006001600160a01b0316815260200160006001600160a01b031681526020016060815260200160006001600160401b0316815260200160008152602001600081526020016000815260200160008152602001606081525090565b6001600160a01b03871660408201526001600160401b038616608082015261100288610e06565b6001600160a01b03166395f0d29a85856040518363ffffffff1660e01b815260040161102f929190613881565b6040805180830381865afa15801561104b573d6000803e3d6000fd5b505050506040513d601f19601f8201168201806040525081019061106f919061353f565b60a08301526001600160a01b0316815261108888612101565b815160a083015160405163c78f839d60e01b81526001600160a01b03939093169263c78f839d926110bd929091600401613881565b602060405180830381865afa1580156110da573d6000803e3d6000fd5b505050506040513d601f19601f820116820180604052508101906110fe9190613af5565b60c0820152600685015460e082015261111960038601612193565b61010082018190526001600160401b0381111561113857611138613278565b604051908082528060200260200182016040528015611161578160200160208202803683370190505b5060608201526101008101516001600160401b0381111561118457611184613278565b6040519080825280602002602001820160405280156111ad578160200160208202803683370190505b506101208201526001600160a01b038216602082015260005b816101000151811015611237576111e0600387018261219e565b836060015183815181106111f6576111f6613b0e565b60200260200101846101200151848151811061121457611214613b0e565b60209081029190910101919091526001600160a01b0390911690526001016111c6565b5060005b81610100015181101561129b5761129386600301838b8560600151858151811061126757611267613b0e565b6020026020010151866101200151868151811061128657611286613b0e565b60200260200101516121bc565b60010161123b565b5060005b8160e001518110156112f4576000806112da8860060184815481106112c6576112c6613b0e565b90600052602060002001549060a082901c90565b915091506112ea848c848461249d565b505060010161129f565b5061130360068601600061311f565b5050505050505050565b6040516349383c0160e11b81526000906001600160a01b0387169063927078029061133e9087908790600401613881565b6000604051808303816000875af115801561135d573d6000803e3d6000fd5b505050506040513d6000823e601f3d908101601f191682016040526113859190810190613b24565b805190915060005b8181101561130357838382815181106113a8576113a8613b0e565b6020908102919091018101518254600181018455600093845291832090910155835181906113f3908690859081106113e2576113e2613b0e565b60200260200101519060a082901c90565b915091507ff553c9933803294e9346a2c18a7d9adc497894ca1f03a6e885713cbb91f6d5ea89838360405161142a93929190613bb4565b60405180910390a1505060010161138d565b60c08101516000906001600160a01b03166114c65781600001516001600160a01b03166389dd9f136040518163ffffffff1660e01b8152600401602060405180830381865afa158015611493573d6000803e3d6000fd5b505050506040513d601f19601f820116820180604052508101906114b791906134c5565b6001600160a01b031660c08301525b5060c0015190565b60408051600380825260808201909252600091602082016060803683370190505090506000848060200190518101906115079190613c3d565b6060810151519091508015158061152a575060208201516001600160a01b031615155b1561179d5760008061153d8988886127b0565b9150915060005b838110156116925760008560600151828151811061156457611564613b0e565b6020026020010151905060008660800151838151811061158657611586613b0e565b60200260200101519050846000600381106115a3576115a3613b0e565b60200201516001600160a01b0316826001600160a01b03161480156115c85750835181145b156115fb576001886000815181106115e2576115e2613b0e565b602002602001019060ff16908160ff1681525050611688565b60208501516001600160a01b03838116911614801561161d5750602084015181145b15611637576001886001815181106115e2576115e2613b0e565b60408501516001600160a01b0383811691161480156116595750604084015181145b156116885760018860028151811061167357611673613b0e565b602002602001019060ff16908160ff16815250505b5050600101611544565b50815160208501516001600160a01b0390811691161480156116b8575080516040850151145b156116eb576001856000815181106116d2576116d2613b0e565b602002602001019060ff16908160ff168152505061179a565b81600160200201516001600160a01b031684602001516001600160a01b031614801561171e575060208101516040850151145b15611738576001856001815181106116d2576116d2613b0e565b81600260200201516001600160a01b031684602001516001600160a01b031614801561176b575060408082015190850151145b1561179a5760018560028151811061178557611785613b0e565b602002602001019060ff16908160ff16815250505b50505b6117a683612a1e565b600b890160006117bf6001600160a01b03891688610db6565b81526020810191909152604001600020555050505050505050565b6000808260030b12156117ef57506000919050565b60008260030b1361180257506000919050565b5060030b90565b806004850160006118236001600160a01b03871686610db6565b81526020808201929092526040908101600020805467ffffffffffffffff19166001600160401b0394851617905580516001600160a01b0387168152918201859052918316918101919091527f8ebd68fe1e3421901e2b847f98e29d93fe0fee648e48e4f410620e599a80dc31906060016103f1565b805460078301805460ff191660ff9092169190911790556118be600883016000613140565b60008160010180548060200260200160405190810160405280929190818152602001828054801561193a57602002820191906000526020600020906000905b82829054906101000a900463ffffffff1663ffffffff16815260200190600401906020826003010492830192600103820291508084116118fd5790505b5050505050905060005b81518110156119b4578360080182828151811061196357611963613b0e565b6020908102919091018101518254600181810185556000948552929093206008840401805463ffffffff92831660046007909616959095026101000a94850292909402199093161790915501611944565b50505050565b600b830160006119d36001600160a01b03851684610db6565b815260200190815260200160002060009055505050565b81610140015115611ae0576119fe81612a9d565b602083015160c084015160a08501516040516307d7942760e01b81526001600160a01b039384166004820152602481019290925260ff1660448201529116906307d7942790606401600060405180830381600087803b158015611a6057600080fd5b505af1158015611a74573d6000803e3d6000fd5b505050604080840151602085015160c08601519251630a72082d60e11b81526001600160a01b0390921693506314e4105a92611ab292600401613881565b600060405180830381600087803b158015611acc57600080fd5b505af1158015610dae573d6000803e3d6000fd5b5050565b6040805160a081018252600080825260208201526001600160a01b0387169163afb1a9ed9187918791908101611b1b600189613d15565b63ffffffff9081168252871660208201526001604091820152516001600160e01b031960e086901b168152611b5893929190600090600401613d32565b600060405180830381600087803b158015611b7257600080fd5b505af1158015611b86573d6000803e3d6000fd5b505050505050505050565b608081015160030b151580611bac575060a081015160030b15155b80611bc1575061014081015163ffffffff1615155b80611bd2575060c081015160030b15155b156119b457836001600160a01b031663afb1a9ed84846040518060a00160405280600063ffffffff16815260200186610140015163ffffffff168152602001611c21876080015160030b6117da565b63ffffffff168152602001611c3c8760a0015160030b6117da565b63ffffffff168152602001611c578760c0015160030b6117da565b63ffffffff1681525060016040518563ffffffff1660e01b8152600401611c819493929190613d32565b600060405180830381600087803b158015611c9b57600080fd5b505af1158015611303573d6000803e3d6000fd5b60e081015160030b151580611ccb575061010081015160030b15155b156119b457836001600160a01b031663afb1a9ed84846040518060a00160405280600063ffffffff168152602001600063ffffffff168152602001611d168760e0015160030b6117da565b63ffffffff168152602001611d3287610100015160030b6117da565b63ffffffff168152602001600063ffffffff1681525060006040518563ffffffff1660e01b8152600401611c819493929190613d32565b60e08301516101608401516000611d7f85612a9d565b905060005b826060015151811015611f105760006001600160a01b031683606001518281518110611db257611db2613b0e565b60200260200101516001600160a01b03160315611f08576000826001600160a01b031663ee1fe2ad85606001518481518110611df057611df0613b0e565b6020026020010151306040518363ffffffff1660e01b8152600401611e16929190613511565b6020604051808303816000875af1158015611e35573d6000803e3d6000fd5b505050506040513d601f19601f82011682018060405250810190611e599190613af5565b905085611e958286606001518581518110611e7657611e76613b0e565b60200260200101516001600160a01b0316610db690919063ffffffff16565b81546001810183556000928352602090922090910155606084015180517ff553c9933803294e9346a2c18a7d9adc497894ca1f03a6e885713cbb91f6d5ea91879185908110611ee657611ee6613b0e565b602002602001015183604051611efe93929190613bb4565b60405180910390a1505b600101611d84565b50505050505050565b6000806000808861016001516101a00151519050858961012001516001611f409190613d9c565b60ff1610158015611f4f575080155b15611f8157611f788960e00151898b61018001516000015163ffffffff168c60a0015189612b32565b600193506120d8565b6000818a61012001516001611f969190613d9c565b60ff16611fa39190613db5565b9050808710156120185760078801805460ff191660ff8316179055806001600160401b03811115611fd657611fd6613278565b604051908082528060200260200182016040528015611fff578160200160208202803683370190505b5080516120169160088b0191602090910190613165565b505b60005b828110156120bf5760008b61016001516101a00151828151811061204157612041613b0e565b60200260200101519050808a600801838e610120015160016120639190613d9c565b60ff166120709190613db5565b8154811061208057612080613b0e565b90600052602060002090600891828204019190066004026101000a81548163ffffffff021916908363ffffffff1602179055505080600101905061201b565b506101208a01516120d1906001613d9c565b60ff169350505b50955095509592505050565b600081815260018301602052604081205415155b90505b92915050565b60e08101516000906001600160a01b031661218b5781600001516001600160a01b0316632f91ede96040518163ffffffff1660e01b8152600401602060405180830381865afa158015612158573d6000803e3d6000fd5b505050506040513d601f19601f8201168201806040525081019061217c91906134c5565b6001600160a01b031660e08301525b5060e0015190565b60006120fb82612c66565b60008080806121ad8686612c71565b909450925050505b9250929050565b6121c68583612c9c565b5080156124965760208401516001600160a01b03166122a1576121e883612cb1565b6001600160a01b0316826001600160a01b03160361227257604051630852cd8d60e31b8152600481018290526001600160a01b038316906342966c68906024015b6020604051808303816000875af1158015612248573d6000803e3d6000fd5b505050506040513d601f19601f8201168201806040525081019061226c91906134f4565b50612496565b825160405163a9059cbb60e01b81526001600160a01b0384169163a9059cbb9161222991908590600401613881565b83516000906001600160a01b0316156122d55760648560c00151836122c69190613dc8565b6122d09190613ddf565b6122d8565b60005b905060006122e68284613e01565b9050801561236557604080870151905163a9059cbb60e01b81526001600160a01b0386169163a9059cbb9161232091908590600401613881565b6020604051808303816000875af115801561233f573d6000803e3d6000fd5b505050506040513d601f19601f8201168201806040525081019061236391906134f4565b505b811561245457600061237686612101565b60405163a9059cbb60e01b81529091506001600160a01b0386169063a9059cbb906123a79084908790600401613881565b6020604051808303816000875af11580156123c6573d6000803e3d6000fd5b505050506040513d601f19601f820116820180604052508101906123ea91906134f4565b50865160a08801516040516315c3a84d60e31b81526001600160a01b0384169263ae1d426892612420928a908990600401613e14565b600060405180830381600087803b15801561243a57600080fd5b505af115801561244e573d6000803e3d6000fd5b50505050505b7fa397d03deda538096e1c8388ffb4776cb6b719f9fdab8a209c93eb626d95b9748660800151858560405161248b93929190613bb4565b60405180910390a150505b5050505050565b6040516331a9108f60e11b81526004810182905230906001600160a01b03841690636352211e90602401602060405180830381865afa1580156124e4573d6000803e3d6000fd5b505050506040513d601f19601f8201168201806040525081019061250891906134c5565b6001600160a01b0316036119b45760208401516001600160a01b03166125955761253183612a9d565b6001600160a01b031663a24835d183836040518363ffffffff1660e01b815260040161255e929190613881565b600060405180830381600087803b15801561257857600080fd5b505af115801561258c573d6000803e3d6000fd5b505050506119b4565b83516000906001600160a01b03161561262e578460c001516125b685612d46565b6040516337347e0560e11b815260646004820152600060248201526001600160a01b039190911690636e68fc0a906044016020604051808303816000875af1158015612606573d6000803e3d6000fd5b505050506040513d601f19601f8201168201806040525081019061262a9190613af5565b1090505b801561271357600061263f85612101565b604051632142170760e11b81529091506001600160a01b038516906342842e0e9061267290309085908890600401613e3e565b600060405180830381600087803b15801561268c57600080fd5b505af11580156126a0573d6000803e3d6000fd5b5050875160a0890151604051636560335360e11b81526001600160a01b038616945063cac066a693506126db92919089908990600401613e14565b600060405180830381600087803b1580156126f557600080fd5b505af1158015612709573d6000803e3d6000fd5b5050505050612779565b6040808601519051632142170760e11b81526001600160a01b038516916342842e0e916127469130918790600401613e3e565b600060405180830381600087803b15801561276057600080fd5b505af1158015612774573d6000803e3d6000fd5b505050505b7f51800dde1cec04c2fd52cbb34419220aaee296e2aacbe6fe67b275ba003457ed85608001518484604051610f5293929190613bb4565b6127b8613214565b6127c0613214565b60405163fbed9ac560e01b81526001600160a01b0385811660048301526001600160401b03851660248301526000919087169063fbed9ac590604401600060405180830381865afa158015612819573d6000803e3d6000fd5b505050506040513d6000823e601f3d908101601f191682016040526128419190810190613e62565b905060005b8151811015612a1457600c60ff1682828151811061286657612866613b0e565b602002602001015160ff160361293e57612930876001600160a01b0316633bdb788b888886868151811061289c5761289c613b0e565b60209081029190910101516040516001600160e01b031960e086901b1681526001600160a01b0390931660048401526001600160401b03909116602483015260ff166044820152606401602060405180830381865afa158015612903573d6000803e3d6000fd5b505050506040513d601f19601f820116820180604052508101906129279190613af5565b9060a082901c90565b84526001600160a01b031684525b600d60ff1682828151811061295557612955613b0e565b602002602001015160ff16036129a55761298b876001600160a01b0316633bdb788b888886868151811061289c5761289c613b0e565b6020858101919091526001600160a01b0391909116908501525b600e60ff168282815181106129bc576129bc613b0e565b602002602001015160ff1603612a0c576129f2876001600160a01b0316633bdb788b888886868151811061289c5761289c613b0e565b6040858101919091526001600160a01b0391909116908501525b600101612846565b5050935093915050565b80516000906020811115612a4f57604051633d71388b60e21b8152600481018290526020602482015260440161058c565b6000805b82811015612a9557612a66816008613dc8565b858281518110612a7857612a78613b0e565b602090810291909101015160ff16901b9190911790600101612a53565b509392505050565b6101008101516000906001600160a01b0316612b295781600001516001600160a01b03166331423c266040518163ffffffff1660e01b8152600401602060405180830381865afa158015612af5573d6000803e3d6000fd5b505050506040513d601f19601f82011682018060405250810190612b1991906134c5565b6001600160a01b03166101008301525b50610100015190565b6000612b3d85612cb1565b90506000816001600160a01b031663075461726040518163ffffffff1660e01b8152600401602060405180830381865afa158015612b7f573d6000803e3d6000fd5b505050506040513d601f19601f82011682018060405250810190612ba391906134c5565b604051631cf7efcf60e31b81526001600160401b038916600482015260248101869052604481018790526001600160a01b03919091169063e7bf7e78906064016020604051808303816000875af1158015612c02573d6000803e3d6000fd5b505050506040513d601f19601f82011682018060405250810190612c269190613af5565b9050612c33828483612dd8565b7fe6af75537b8a11fb06030b59a88fccf1306148dd7d330908df86c86e9b3fe70a87838360405161248b93929190613bb4565b60006120fb82612eca565b60008080612c7f8585612ed4565b600081815260029690960160205260409095205494959350505050565b60006120f8836001600160a01b038416612ee0565b6101408101516000906001600160a01b0316612d3d5781600001516001600160a01b031663c3dfdae66040518163ffffffff1660e01b8152600401602060405180830381865afa158015612d09573d6000803e3d6000fd5b505050506040513d601f19601f82011682018060405250810190612d2d91906134c5565b6001600160a01b03166101408301525b50610140015190565b60608101516000906001600160a01b0316612dd05781600001516001600160a01b0316637dc0d1d06040518163ffffffff1660e01b8152600401602060405180830381865afa158015612d9d573d6000803e3d6000fd5b505050506040513d601f19601f82011682018060405250810190612dc191906134c5565b6001600160a01b031660608301525b506060015190565b600080612de58486612efd565b91509150811580612dff57506000612dfd8483613db5565b115b15612496576040516370a0823160e01b81526000906001600160a01b038716906370a0823190612e3390309060040161352b565b602060405180830381865afa158015612e50573d6000803e3d6000fd5b505050506040513d601f19601f82011682018060405250810190612e749190613af5565b9050612e808483613db5565b811015612eb45780612e928584613db5565b604051636584853f60e01b81526004810192909252602482015260440161058c565b611f1086612ec28685613db5565b879190612f15565b60006120fb825490565b60006120f88383612f33565b600081815260028301602052604081208190556120f88383612f5d565b60008080806121ad866001600160a01b038716612f69565b6000612f2b846001600160a01b03851684612fa3565b949350505050565b6000826000018281548110612f4a57612f4a613b0e565b9060005260206000200154905092915050565b60006120f88383612fc0565b6000818152600283016020526040812054819080612f9857612f8b85856130ba565b9250600091506121b59050565b6001925090506121b5565b60008281526002840160205260408120829055612f2b84846130c6565b600081815260018301602052604081205480156130a9576000612fe4600183613e01565b8554909150600090612ff890600190613e01565b905080821461305d57600086600001828154811061301857613018613b0e565b906000526020600020015490508087600001848154811061303b5761303b613b0e565b6000918252602080832090910192909255918252600188019052604090208390555b855486908061306e5761306e613ef7565b6001900381819060005260206000200160009055905585600101600086815260200190815260200160002060009055600193505050506120fb565b60009150506120fb565b5092915050565b60006120f883836120e4565b60008181526001830160205260408120546120f890849084908490613117575081546001818101845560008481526020808220909301849055845484825282860190935260409020919091556120fb565b5060006120fb565b508054600082559060005260206000209081019061313d9190613232565b50565b50805460008255600701600890049060005260206000209081019061313d9190613232565b828054828255906000526020600020906007016008900481019282156132045791602002820160005b838211156131d257835183826101000a81548163ffffffff021916908363ffffffff160217905550926020019260040160208160030104928301926001030261318e565b80156132025782816101000a81549063ffffffff02191690556004016020816003010492830192600103026131d2565b505b50613210929150613232565b5090565b60405180606001604052806003906020820280368337509192915050565b5b808211156132105760008155600101613233565b80356001600160401b038116811461325e57600080fd5b919050565b6001600160a01b038116811461313d57600080fd5b634e487b7160e01b600052604160045260246000fd5b6040516101c081016001600160401b03811182821017156132b1576132b1613278565b60405290565b60405160a081016001600160401b03811182821017156132b1576132b1613278565b604051601f8201601f191681016001600160401b038111828210171561330157613301613278565b604052919050565b803561325e81613263565b63ffffffff8116811461313d57600080fd5b803561325e81613314565b600080600080600080600060e0888a03121561334c57600080fd5b87359650602080890135965061336460408a01613247565b9550606089013561337481613263565b945060808901356001600160401b038082111561339057600080fd5b818b0191508b601f8301126133a457600080fd5b8135818111156133b6576133b6613278565b6133c8601f8201601f191685016132d9565b91508082528c848285010111156133de57600080fd5b808484018584013760008482840101525080955050505061340160a08901613309565b915061340f60c08901613326565b905092959891949750929550565b6000806040838503121561343057600080fd5b823561343b81613263565b915061344960208401613247565b90509250929050565b801515811461313d57600080fd5b6000806000806080858703121561347657600080fd5b843561348181613263565b935061348f60208601613247565b9250604085013561349f81613452565b915060608501356134af81613263565b939692955090935050565b805161325e81613263565b6000602082840312156134d757600080fd5b81516134e281613263565b9392505050565b805161325e81613452565b60006020828403121561350657600080fd5b81516134e281613452565b6001600160a01b0392831681529116602082015260400190565b6001600160a01b0391909116815260200190565b6000806040838503121561355257600080fd5b825161355d81613263565b6020939093015192949293505050565b600060018060a01b03808a16835260206001600160401b038a16602085015263ffffffff89166040850152818816606085015286608085015260ff861660a085015260e060c0850152845191508160e085015260005b828110156135e057858101820151858201610100015281016135c3565b5050610100600081838601015280601f19601f8401168501019250505098975050505050505050565b60006001600160401b0382111561362257613622613278565b5060051b60200190565b600082601f83011261363d57600080fd5b8151602061365261364d83613609565b6132d9565b8083825260208201915060208460051b87010193508684111561367457600080fd5b602086015b8481101561369957805161368c81613263565b8352918301918301613679565b509695505050505050565b8051600381900b811461325e57600080fd5b805161325e81613314565b600082601f8301126136d257600080fd5b815160206136e261364d83613609565b8083825260208201915060208460051b87010193508684111561370457600080fd5b602086015b8481101561369957805161371c81613314565b8352918301918301613709565b60006020828403121561373b57600080fd5b81516001600160401b038082111561375257600080fd5b908301906101c0828603121561376757600080fd5b61376f61328e565b613778836134e9565b8152613786602084016134e9565b6020820152613797604084016134ba565b60408201526060830151828111156137ae57600080fd5b6137ba8782860161362c565b6060830152506137cc608084016136a4565b60808201526137dd60a084016136a4565b60a08201526137ee60c084016136a4565b60c08201526137ff60e084016136a4565b60e08201526101006138128185016136a4565b908201526101206138248482016136b6565b908201526101406138368482016136b6565b90820152610160838101519082015261018080840151908201526101a0808401518381111561386457600080fd5b613870888287016136c1565b918301919091525095945050505050565b6001600160a01b03929092168252602082015260400190565b600060a082840312156138ac57600080fd5b6138b46132b7565b82516138bf81613314565b815260208301516138cf81613314565b602082015260408301516138e281613314565b604082015260608301516138f581613314565b6060820152608083015161390881613314565b60808201529392505050565b60008151808452602080850194506020840160005b8381101561394e5781516001600160a01b031687529582019590820190600101613929565b509495945050505050565b60008151808452602080850194506020840160005b8381101561394e57815163ffffffff168752958201959082019060010161396e565b6001600160401b038716815260c060208201526139b260c08201875115159052565b600060208701516139c760e084018215159052565b5060408701516001600160a01b031661010083015260608701516101c06101208085018290526139fb610280860184613914565b925060808a0151610140613a138188018360030b9052565b60a08c01519150610160613a2b8189018460030b9052565b60c08d01519250610180613a43818a018560030b9052565b60e08e015193506101a0613a5b818b018660030b9052565b6101008f01519450613a71878b018660030b9052565b948e015163ffffffff9081166101e08b0152928e01519092166102008901528c01516102208801528b01516102408701525089015160bf19858403016102608601529050613abf8282613959565b92505050613ad2604083018760ff169052565b6001600160a01b0385166060830152608082019390935260a00152949350505050565b600060208284031215613b0757600080fd5b5051919050565b634e487b7160e01b600052603260045260246000fd5b60006020808385031215613b3757600080fd5b82516001600160401b03811115613b4d57600080fd5b8301601f81018513613b5e57600080fd5b8051613b6c61364d82613609565b81815260059190911b82018301908381019087831115613b8b57600080fd5b928401925b82841015613ba957835182529284019290840190613b90565b979650505050505050565b6001600160401b039390931683526001600160a01b03919091166020830152604082015260600190565b600082601f830112613bef57600080fd5b81516020613bff61364d83613609565b8083825260208201915060208460051b870101935086841115613c2157600080fd5b602086015b848110156136995780518352918301918301613c26565b600060208284031215613c4f57600080fd5b81516001600160401b0380821115613c6657600080fd5b9083019060a08286031215613c7a57600080fd5b613c826132b7565b8251600b8110613c9157600080fd5b8152613c9f602084016134ba565b602082015260408301516040820152606083015182811115613cc057600080fd5b613ccc8782860161362c565b606083015250608083015182811115613ce457600080fd5b613cf087828601613bde565b60808301525095945050505050565b634e487b7160e01b600052601160045260246000fd5b63ffffffff8281168282160390808211156130b3576130b3613cff565b60006101008201905060018060a01b038616825284602083015263ffffffff8085511660408401528060208601511660608401528060408601511660808401528060608601511660a08401528060808601511660c08401525082151560e083015295945050505050565b60ff81811683821601908111156120fb576120fb613cff565b808201808211156120fb576120fb613cff565b80820281158282048414176120fb576120fb613cff565b600082613dfc57634e487b7160e01b600052601260045260246000fd5b500490565b818103818111156120fb576120fb613cff565b6001600160a01b039485168152602081019390935292166040820152606081019190915260800190565b6001600160a01b039384168152919092166020820152604081019190915260600190565b60006020808385031215613e7557600080fd5b82516001600160401b03811115613e8b57600080fd5b8301601f81018513613e9c57600080fd5b8051613eaa61364d82613609565b81815260059190911b82018301908381019087831115613ec957600080fd5b928401925b82841015613ba957835160ff81168114613ee85760008081fd5b82529284019290840190613ece565b634e487b7160e01b600052603160045260246000fdfea2646970667358221220adae035455fc4c072bd678fdaba1d73b987cc03813df4a8bce31017b8cc7f01f64736f6c63430008170033",
  "devdoc": {
    "kind": "dev",
    "methods": {
      "exitDungeon(IController,uint64,bool,address)": {
        "params": {
          "claim": "Claim treasure items and tokens"
        }
      }
    },
    "stateVariables": {
      "DUNGEON_FACTORY_STORAGE_LOCATION": {
        "details": "keccak256(abi.encode(uint256(keccak256(\"dungeon.factory.main\")) - 1)) & ~bytes32(uint256(0xff))"
      }
    },
    "version": 1
  },
  "userdoc": {
    "events": {
      "AddTreasuryItem(uint64,address,uint256)": {
        "notice": "On add the item to the dungeon"
      }
    },
    "kind": "user",
    "methods": {
      "MIN_LEVEL_FOR_TREASURY_DEFAULT()": {
        "notice": "Treasure reward is available starting from level 5. We need some initial gap as protection against bots"
      },
      "emergencyExit(IController,uint64)": {
        "notice": "Emergency exit: the governance can drop the hero from dungeon in emergency"
      },
      "exitDungeon(IController,uint64,bool,address)": {
        "notice": "Exit the dungeon"
      },
      "objectAction(IDungeonFactory.DungeonStatus storage,IDungeonFactory.DungeonAttributes storage,uint64,address,bytes,IController,uint32)": {
        "notice": "Make an action with object, update hero params according results"
      }
    },
    "version": 1
  },
  "storageLayout": {
    "storage": [],
    "types": null
  }
}