{
  "address": "0x53E2c9d230864841A20c782741B5fe5DaDCB2a2A",
  "abi": [
    {
      "inputs": [],
      "name": "EmptyObjects",
      "type": "error"
    },
    {
      "inputs": [
        {
          "internalType": "address",
          "name": "sender",
          "type": "address"
        }
      ],
      "name": "ErrorNotDeployer",
      "type": "error"
    },
    {
      "inputs": [
        {
          "internalType": "address",
          "name": "sender",
          "type": "address"
        }
      ],
      "name": "ErrorNotDungeonFactory",
      "type": "error"
    },
    {
      "inputs": [],
      "name": "FightDelay",
      "type": "error"
    },
    {
      "inputs": [
        {
          "internalType": "uint8",
          "name": "biome",
          "type": "uint8"
        }
      ],
      "name": "GenObjectIdBiomeOverflow",
      "type": "error"
    },
    {
      "inputs": [
        {
          "internalType": "uint256",
          "name": "id",
          "type": "uint256"
        }
      ],
      "name": "GenObjectIdIdOverflow",
      "type": "error"
    },
    {
      "inputs": [
        {
          "internalType": "uint256",
          "name": "subType",
          "type": "uint256"
        }
      ],
      "name": "GenObjectIdSubTypeOverflow",
      "type": "error"
    },
    {
      "inputs": [
        {
          "internalType": "int256",
          "name": "value",
          "type": "int256"
        }
      ],
      "name": "IntOutOfRange",
      "type": "error"
    },
    {
      "inputs": [],
      "name": "InvalidInitialization",
      "type": "error"
    },
    {
      "inputs": [],
      "name": "LengthsMismatch",
      "type": "error"
    },
    {
      "inputs": [],
      "name": "LengthsMismatch",
      "type": "error"
    },
    {
      "inputs": [],
      "name": "NotInitializing",
      "type": "error"
    },
    {
      "inputs": [],
      "name": "ObjectNotFound",
      "type": "error"
    },
    {
      "inputs": [
        {
          "internalType": "uint32",
          "name": "chance",
          "type": "uint32"
        }
      ],
      "name": "TooHighChance",
      "type": "error"
    },
    {
      "inputs": [
        {
          "internalType": "uint256",
          "name": "value",
          "type": "uint256"
        }
      ],
      "name": "TooHighValue",
      "type": "error"
    },
    {
      "inputs": [
        {
          "internalType": "uint8",
          "name": "objectSubType",
          "type": "uint8"
        }
      ],
      "name": "UnknownObjectTypeForSubtype",
      "type": "error"
    },
    {
      "inputs": [
        {
          "internalType": "uint8",
          "name": "objectType",
          "type": "uint8"
        }
      ],
      "name": "UnknownObjectTypeGoc1",
      "type": "error"
    },
    {
      "inputs": [
        {
          "internalType": "uint8",
          "name": "objectType",
          "type": "uint8"
        }
      ],
      "name": "UnknownObjectTypeGoc2",
      "type": "error"
    },
    {
      "inputs": [
        {
          "internalType": "uint8",
          "name": "objectType",
          "type": "uint8"
        }
      ],
      "name": "UnknownObjectTypeGocLib1",
      "type": "error"
    },
    {
      "inputs": [
        {
          "internalType": "uint8",
          "name": "objectType",
          "type": "uint8"
        }
      ],
      "name": "UnknownObjectTypeGocLib2",
      "type": "error"
    },
    {
      "inputs": [
        {
          "internalType": "uint32",
          "name": "chances",
          "type": "uint32"
        },
        {
          "internalType": "uint32",
          "name": "maxChances",
          "type": "uint32"
        }
      ],
      "name": "WrongChances",
      "type": "error"
    },
    {
      "inputs": [],
      "name": "WrongGetObjectTypeInput",
      "type": "error"
    },
    {
      "inputs": [],
      "name": "ZeroAddress",
      "type": "error"
    },
    {
      "inputs": [],
      "name": "ZeroChance",
      "type": "error"
    },
    {
      "inputs": [],
      "name": "ZeroStoryIdAction",
      "type": "error"
    },
    {
      "inputs": [],
      "name": "ZeroValue",
      "type": "error"
    },
    {
      "inputs": [],
      "name": "ZeroValueNotAllowed",
      "type": "error"
    },
    {
      "anonymous": false,
      "inputs": [
        {
          "indexed": false,
          "internalType": "address",
          "name": "controller",
          "type": "address"
        },
        {
          "indexed": false,
          "internalType": "uint256",
          "name": "ts",
          "type": "uint256"
        },
        {
          "indexed": false,
          "internalType": "uint256",
          "name": "block",
          "type": "uint256"
        }
      ],
      "name": "ContractInitialized",
      "type": "event"
    },
    {
      "anonymous": false,
      "inputs": [
        {
          "indexed": false,
          "internalType": "uint32",
          "name": "objectId",
          "type": "uint32"
        },
        {
          "components": [
            {
              "internalType": "uint8",
              "name": "biome",
              "type": "uint8"
            },
            {
              "internalType": "uint16",
              "name": "eventId",
              "type": "uint16"
            },
            {
              "internalType": "enum IGOC.ObjectSubType",
              "name": "subType",
              "type": "uint8"
            },
            {
              "internalType": "uint32",
              "name": "goodChance",
              "type": "uint32"
            },
            {
              "components": [
                {
                  "internalType": "uint8[]",
                  "name": "ids",
                  "type": "uint8[]"
                },
                {
                  "internalType": "int32[]",
                  "name": "values",
                  "type": "int32[]"
                }
              ],
              "internalType": "struct IGOC.AttributeGenerateInfo",
              "name": "goodAttributes",
              "type": "tuple"
            },
            {
              "components": [
                {
                  "internalType": "uint8[]",
                  "name": "ids",
                  "type": "uint8[]"
                },
                {
                  "internalType": "int32[]",
                  "name": "values",
                  "type": "int32[]"
                }
              ],
              "internalType": "struct IGOC.AttributeGenerateInfo",
              "name": "badAttributes",
              "type": "tuple"
            },
            {
              "internalType": "uint32",
              "name": "experience",
              "type": "uint32"
            },
            {
              "internalType": "int32",
              "name": "heal",
              "type": "int32"
            },
            {
              "internalType": "int32",
              "name": "manaRegen",
              "type": "int32"
            },
            {
              "internalType": "int32",
              "name": "lifeChancesRecovered",
              "type": "int32"
            },
            {
              "internalType": "int32",
              "name": "damage",
              "type": "int32"
            },
            {
              "internalType": "int32",
              "name": "manaConsumed",
              "type": "int32"
            },
            {
              "internalType": "address[]",
              "name": "mintItems",
              "type": "address[]"
            },
            {
              "internalType": "uint32[]",
              "name": "mintItemsChances",
              "type": "uint32[]"
            }
          ],
          "indexed": false,
          "internalType": "struct IGOC.EventRegInfo",
          "name": "eventRegInfo",
          "type": "tuple"
        }
      ],
      "name": "EventRegistered",
      "type": "event"
    },
    {
      "anonymous": false,
      "inputs": [
        {
          "indexed": false,
          "internalType": "uint64",
          "name": "version",
          "type": "uint64"
        }
      ],
      "name": "Initialized",
      "type": "event"
    },
    {
      "anonymous": false,
      "inputs": [
        {
          "indexed": false,
          "internalType": "uint32",
          "name": "objectId",
          "type": "uint32"
        },
        {
          "components": [
            {
              "internalType": "uint16",
              "name": "monsterId",
              "type": "uint16"
            },
            {
              "internalType": "uint8",
              "name": "biome",
              "type": "uint8"
            },
            {
              "internalType": "enum IGOC.ObjectSubType",
              "name": "subType",
              "type": "uint8"
            },
            {
              "internalType": "uint8[]",
              "name": "attributeIds",
              "type": "uint8[]"
            },
            {
              "internalType": "int32[]",
              "name": "attributeValues",
              "type": "int32[]"
            },
            {
              "internalType": "uint8",
              "name": "level",
              "type": "uint8"
            },
            {
              "internalType": "uint8",
              "name": "race",
              "type": "uint8"
            },
            {
              "internalType": "uint32",
              "name": "experience",
              "type": "uint32"
            },
            {
              "internalType": "uint8",
              "name": "maxDropItems",
              "type": "uint8"
            },
            {
              "internalType": "address",
              "name": "attackToken",
              "type": "address"
            },
            {
              "internalType": "uint64",
              "name": "attackTokenId",
              "type": "uint64"
            },
            {
              "internalType": "uint8",
              "name": "attackType",
              "type": "uint8"
            },
            {
              "internalType": "address[]",
              "name": "mintItems",
              "type": "address[]"
            },
            {
              "internalType": "uint32[]",
              "name": "mintItemsChances",
              "type": "uint32[]"
            }
          ],
          "indexed": false,
          "internalType": "struct IGOC.MonsterGenInfo",
          "name": "monsterGenInfo",
          "type": "tuple"
        }
      ],
      "name": "MonsterRegistered",
      "type": "event"
    },
    {
      "anonymous": false,
      "inputs": [
        {
          "indexed": false,
          "internalType": "uint32",
          "name": "objectId",
          "type": "uint32"
        }
      ],
      "name": "ObjectRemoved",
      "type": "event"
    },
    {
      "anonymous": false,
      "inputs": [
        {
          "indexed": false,
          "internalType": "uint64",
          "name": "dungeonId",
          "type": "uint64"
        },
        {
          "indexed": false,
          "internalType": "uint32",
          "name": "objectId",
          "type": "uint32"
        },
        {
          "indexed": false,
          "internalType": "enum IGOC.ObjectType",
          "name": "objectType",
          "type": "uint8"
        },
        {
          "indexed": false,
          "internalType": "address",
          "name": "hero",
          "type": "address"
        },
        {
          "indexed": false,
          "internalType": "uint256",
          "name": "heroId",
          "type": "uint256"
        },
        {
          "indexed": false,
          "internalType": "uint8",
          "name": "stageId",
          "type": "uint8"
        },
        {
          "indexed": false,
          "internalType": "uint256",
          "name": "iteration",
          "type": "uint256"
        },
        {
          "indexed": false,
          "internalType": "bytes",
          "name": "data",
          "type": "bytes"
        },
        {
          "components": [
            {
              "internalType": "bool",
              "name": "kill",
              "type": "bool"
            },
            {
              "internalType": "bool",
              "name": "completed",
              "type": "bool"
            },
            {
              "internalType": "address",
              "name": "heroToken",
              "type": "address"
            },
            {
              "internalType": "address[]",
              "name": "mintItems",
              "type": "address[]"
            },
            {
              "internalType": "int32",
              "name": "heal",
              "type": "int32"
            },
            {
              "internalType": "int32",
              "name": "manaRegen",
              "type": "int32"
            },
            {
              "internalType": "int32",
              "name": "lifeChancesRecovered",
              "type": "int32"
            },
            {
              "internalType": "int32",
              "name": "damage",
              "type": "int32"
            },
            {
              "internalType": "int32",
              "name": "manaConsumed",
              "type": "int32"
            },
            {
              "internalType": "uint32",
              "name": "objectId",
              "type": "uint32"
            },
            {
              "internalType": "uint32",
              "name": "experience",
              "type": "uint32"
            },
            {
              "internalType": "uint256",
              "name": "heroTokenId",
              "type": "uint256"
            },
            {
              "internalType": "uint256",
              "name": "iteration",
              "type": "uint256"
            },
            {
              "internalType": "uint32[]",
              "name": "rewriteNextObject",
              "type": "uint32[]"
            }
          ],
          "indexed": false,
          "internalType": "struct IGOC.ActionResult",
          "name": "result",
          "type": "tuple"
        },
        {
          "indexed": false,
          "internalType": "uint256",
          "name": "salt",
          "type": "uint256"
        }
      ],
      "name": "ObjectResultEvent",
      "type": "event"
    },
    {
      "anonymous": false,
      "inputs": [
        {
          "indexed": false,
          "internalType": "uint256",
          "name": "value",
          "type": "uint256"
        },
        {
          "indexed": false,
          "internalType": "address",
          "name": "oldLogic",
          "type": "address"
        }
      ],
      "name": "RevisionIncreased",
      "type": "event"
    },
    {
      "anonymous": false,
      "inputs": [
        {
          "indexed": false,
          "internalType": "uint32",
          "name": "objectId",
          "type": "uint32"
        },
        {
          "indexed": false,
          "internalType": "uint16",
          "name": "storyId",
          "type": "uint16"
        }
      ],
      "name": "StoryRegistered",
      "type": "event"
    },
    {
      "inputs": [],
      "name": "CONTROLLABLE_VERSION",
      "outputs": [
        {
          "internalType": "string",
          "name": "",
          "type": "string"
        }
      ],
      "stateMutability": "view",
      "type": "function"
    },
    {
      "inputs": [],
      "name": "VERSION",
      "outputs": [
        {
          "internalType": "string",
          "name": "",
          "type": "string"
        }
      ],
      "stateMutability": "view",
      "type": "function"
    },
    {
      "inputs": [
        {
          "internalType": "address",
          "name": "sender",
          "type": "address"
        },
        {
          "internalType": "uint64",
          "name": "dungeonId",
          "type": "uint64"
        },
        {
          "internalType": "uint32",
          "name": "objectId",
          "type": "uint32"
        },
        {
          "internalType": "address",
          "name": "heroToken",
          "type": "address"
        },
        {
          "internalType": "uint256",
          "name": "heroTokenId",
          "type": "uint256"
        },
        {
          "internalType": "uint8",
          "name": "stageId",
          "type": "uint8"
        },
        {
          "internalType": "bytes",
          "name": "data",
          "type": "bytes"
        }
      ],
      "name": "action",
      "outputs": [
        {
          "components": [
            {
              "internalType": "bool",
              "name": "kill",
              "type": "bool"
            },
            {
              "internalType": "bool",
              "name": "completed",
              "type": "bool"
            },
            {
              "internalType": "address",
              "name": "heroToken",
              "type": "address"
            },
            {
              "internalType": "address[]",
              "name": "mintItems",
              "type": "address[]"
            },
            {
              "internalType": "int32",
              "name": "heal",
              "type": "int32"
            },
            {
              "internalType": "int32",
              "name": "manaRegen",
              "type": "int32"
            },
            {
              "internalType": "int32",
              "name": "lifeChancesRecovered",
              "type": "int32"
            },
            {
              "internalType": "int32",
              "name": "damage",
              "type": "int32"
            },
            {
              "internalType": "int32",
              "name": "manaConsumed",
              "type": "int32"
            },
            {
              "internalType": "uint32",
              "name": "objectId",
              "type": "uint32"
            },
            {
              "internalType": "uint32",
              "name": "experience",
              "type": "uint32"
            },
            {
              "internalType": "uint256",
              "name": "heroTokenId",
              "type": "uint256"
            },
            {
              "internalType": "uint256",
              "name": "iteration",
              "type": "uint256"
            },
            {
              "internalType": "uint32[]",
              "name": "rewriteNextObject",
              "type": "uint32[]"
            }
          ],
          "internalType": "struct IGOC.ActionResult",
          "name": "",
          "type": "tuple"
        }
      ],
      "stateMutability": "nonpayable",
      "type": "function"
    },
    {
      "inputs": [],
      "name": "controller",
      "outputs": [
        {
          "internalType": "address",
          "name": "",
          "type": "address"
        }
      ],
      "stateMutability": "view",
      "type": "function"
    },
    {
      "inputs": [],
      "name": "created",
      "outputs": [
        {
          "internalType": "uint256",
          "name": "",
          "type": "uint256"
        }
      ],
      "stateMutability": "view",
      "type": "function"
    },
    {
      "inputs": [],
      "name": "createdBlock",
      "outputs": [
        {
          "internalType": "uint256",
          "name": "",
          "type": "uint256"
        }
      ],
      "stateMutability": "view",
      "type": "function"
    },
    {
      "inputs": [
        {
          "internalType": "uint32",
          "name": "objectId",
          "type": "uint32"
        }
      ],
      "name": "getEventInfo",
      "outputs": [
        {
          "components": [
            {
              "internalType": "uint32",
              "name": "goodChance",
              "type": "uint32"
            },
            {
              "internalType": "bytes32[]",
              "name": "goodAttributes",
              "type": "bytes32[]"
            },
            {
              "internalType": "bytes32[]",
              "name": "badAttributes",
              "type": "bytes32[]"
            },
            {
              "internalType": "bytes32",
              "name": "statsChange",
              "type": "bytes32"
            },
            {
              "internalType": "bytes32[]",
              "name": "mintItems",
              "type": "bytes32[]"
            }
          ],
          "internalType": "struct IGOC.EventInfo",
          "name": "",
          "type": "tuple"
        }
      ],
      "stateMutability": "view",
      "type": "function"
    },
    {
      "inputs": [],
      "name": "getFightDelay",
      "outputs": [
        {
          "internalType": "uint256",
          "name": "",
          "type": "uint256"
        }
      ],
      "stateMutability": "view",
      "type": "function"
    },
    {
      "inputs": [
        {
          "internalType": "address",
          "name": "heroToken",
          "type": "address"
        },
        {
          "internalType": "uint256",
          "name": "heroTokenId",
          "type": "uint256"
        },
        {
          "internalType": "uint32",
          "name": "objId",
          "type": "uint32"
        }
      ],
      "name": "getIteration",
      "outputs": [
        {
          "internalType": "uint256",
          "name": "",
          "type": "uint256"
        }
      ],
      "stateMutability": "view",
      "type": "function"
    },
    {
      "inputs": [
        {
          "internalType": "address",
          "name": "heroToken",
          "type": "address"
        },
        {
          "internalType": "uint256",
          "name": "heroTokenId",
          "type": "uint256"
        }
      ],
      "name": "getLastHeroFightTs",
      "outputs": [
        {
          "internalType": "uint256",
          "name": "",
          "type": "uint256"
        }
      ],
      "stateMutability": "view",
      "type": "function"
    },
    {
      "inputs": [
        {
          "internalType": "address",
          "name": "hero",
          "type": "address"
        },
        {
          "internalType": "uint256",
          "name": "heroId",
          "type": "uint256"
        },
        {
          "internalType": "uint32",
          "name": "objectId",
          "type": "uint32"
        }
      ],
      "name": "getMonsterInfo",
      "outputs": [
        {
          "components": [
            {
              "internalType": "uint16",
              "name": "monsterId",
              "type": "uint16"
            },
            {
              "internalType": "uint8",
              "name": "biome",
              "type": "uint8"
            },
            {
              "internalType": "enum IGOC.ObjectSubType",
              "name": "subType",
              "type": "uint8"
            },
            {
              "internalType": "uint8[]",
              "name": "attributeIds",
              "type": "uint8[]"
            },
            {
              "internalType": "int32[]",
              "name": "attributeValues",
              "type": "int32[]"
            },
            {
              "internalType": "uint8",
              "name": "level",
              "type": "uint8"
            },
            {
              "internalType": "uint8",
              "name": "race",
              "type": "uint8"
            },
            {
              "internalType": "uint32",
              "name": "experience",
              "type": "uint32"
            },
            {
              "internalType": "uint8",
              "name": "maxDropItems",
              "type": "uint8"
            },
            {
              "internalType": "address",
              "name": "attackToken",
              "type": "address"
            },
            {
              "internalType": "uint64",
              "name": "attackTokenId",
              "type": "uint64"
            },
            {
              "internalType": "uint8",
              "name": "attackType",
              "type": "uint8"
            },
            {
              "internalType": "address[]",
              "name": "mintItems",
              "type": "address[]"
            },
            {
              "internalType": "uint32[]",
              "name": "mintItemsChances",
              "type": "uint32[]"
            }
          ],
          "internalType": "struct IGOC.MonsterGenInfo",
          "name": "mGenInfo",
          "type": "tuple"
        },
        {
          "components": [
            {
              "internalType": "bool",
              "name": "generated",
              "type": "bool"
            },
            {
              "internalType": "uint8",
              "name": "turnCounter",
              "type": "uint8"
            },
            {
              "internalType": "int32",
              "name": "hp",
              "type": "int32"
            },
            {
              "internalType": "uint32",
              "name": "amplifier",
              "type": "uint32"
            }
          ],
          "internalType": "struct IGOC.GeneratedMonster",
          "name": "gen",
          "type": "tuple"
        }
      ],
      "stateMutability": "view",
      "type": "function"
    },
    {
      "inputs": [],
      "name": "getMonsterMultiplier",
      "outputs": [
        {
          "internalType": "int32",
          "name": "",
          "type": "int32"
        }
      ],
      "stateMutability": "view",
      "type": "function"
    },
    {
      "inputs": [
        {
          "internalType": "uint8",
          "name": "biome",
          "type": "uint8"
        },
        {
          "internalType": "enum IGOC.ObjectSubType",
          "name": "subType",
          "type": "uint8"
        }
      ],
      "name": "getObjectIds",
      "outputs": [
        {
          "internalType": "uint256[]",
          "name": "",
          "type": "uint256[]"
        }
      ],
      "stateMutability": "view",
      "type": "function"
    },
    {
      "inputs": [
        {
          "internalType": "uint32",
          "name": "objectId",
          "type": "uint32"
        }
      ],
      "name": "getObjectMeta",
      "outputs": [
        {
          "internalType": "uint8",
          "name": "biome",
          "type": "uint8"
        },
        {
          "internalType": "uint8",
          "name": "objectSubType",
          "type": "uint8"
        }
      ],
      "stateMutability": "view",
      "type": "function"
    },
    {
      "inputs": [
        {
          "internalType": "uint32",
          "name": "objectId",
          "type": "uint32"
        }
      ],
      "name": "getObjectTypeBySubType",
      "outputs": [
        {
          "internalType": "enum IGOC.ObjectType",
          "name": "",
          "type": "uint8"
        }
      ],
      "stateMutability": "view",
      "type": "function"
    },
    {
      "inputs": [
        {
          "internalType": "uint8[]",
          "name": "cTypes",
          "type": "uint8[]"
        },
        {
          "internalType": "uint32[]",
          "name": "chances",
          "type": "uint32[]"
        },
        {
          "internalType": "uint8",
          "name": "biome",
          "type": "uint8"
        },
        {
          "internalType": "address",
          "name": "heroToken",
          "type": "address"
        },
        {
          "internalType": "uint256",
          "name": "heroTokenId",
          "type": "uint256"
        }
      ],
      "name": "getRandomObject",
      "outputs": [
        {
          "internalType": "uint32",
          "name": "objectId",
          "type": "uint32"
        }
      ],
      "stateMutability": "nonpayable",
      "type": "function"
    },
    {
      "inputs": [
        {
          "internalType": "uint32",
          "name": "objectId",
          "type": "uint32"
        }
      ],
      "name": "getStoryId",
      "outputs": [
        {
          "internalType": "uint16",
          "name": "",
          "type": "uint16"
        }
      ],
      "stateMutability": "view",
      "type": "function"
    },
    {
      "inputs": [
        {
          "internalType": "address",
          "name": "oldLogic",
          "type": "address"
        }
      ],
      "name": "increaseRevision",
      "outputs": [],
      "stateMutability": "nonpayable",
      "type": "function"
    },
    {
      "inputs": [
        {
          "internalType": "address",
          "name": "controller_",
          "type": "address"
        }
      ],
      "name": "init",
      "outputs": [],
      "stateMutability": "nonpayable",
      "type": "function"
    },
    {
      "inputs": [
        {
          "internalType": "address",
          "name": "heroToken",
          "type": "address"
        },
        {
          "internalType": "uint256",
          "name": "heroTokenId",
          "type": "uint256"
        },
        {
          "internalType": "uint32",
          "name": "objId",
          "type": "uint32"
        }
      ],
      "name": "isAvailableForHero",
      "outputs": [
        {
          "internalType": "bool",
          "name": "",
          "type": "bool"
        }
      ],
      "stateMutability": "view",
      "type": "function"
    },
    {
      "inputs": [
        {
          "internalType": "uint32",
          "name": "objectId",
          "type": "uint32"
        }
      ],
      "name": "isBattleObject",
      "outputs": [
        {
          "internalType": "bool",
          "name": "",
          "type": "bool"
        }
      ],
      "stateMutability": "view",
      "type": "function"
    },
    {
      "inputs": [
        {
          "internalType": "address",
          "name": "value_",
          "type": "address"
        }
      ],
      "name": "isController",
      "outputs": [
        {
          "internalType": "bool",
          "name": "",
          "type": "bool"
        }
      ],
      "stateMutability": "view",
      "type": "function"
    },
    {
      "inputs": [
        {
          "internalType": "address",
          "name": "value_",
          "type": "address"
        }
      ],
      "name": "isGovernance",
      "outputs": [
        {
          "internalType": "bool",
          "name": "",
          "type": "bool"
        }
      ],
      "stateMutability": "view",
      "type": "function"
    },
    {
      "inputs": [
        {
          "internalType": "address",
          "name": "heroToken",
          "type": "address"
        },
        {
          "internalType": "uint256",
          "name": "heroTokenId",
          "type": "uint256"
        },
        {
          "internalType": "uint32",
          "name": "objectId",
          "type": "uint32"
        }
      ],
      "name": "open",
      "outputs": [
        {
          "internalType": "uint256",
          "name": "iteration",
          "type": "uint256"
        }
      ],
      "stateMutability": "nonpayable",
      "type": "function"
    },
    {
      "inputs": [],
      "name": "previousImplementation",
      "outputs": [
        {
          "internalType": "address",
          "name": "",
          "type": "address"
        }
      ],
      "stateMutability": "view",
      "type": "function"
    },
    {
      "inputs": [
        {
          "components": [
            {
              "internalType": "uint8",
              "name": "biome",
              "type": "uint8"
            },
            {
              "internalType": "uint16",
              "name": "eventId",
              "type": "uint16"
            },
            {
              "internalType": "enum IGOC.ObjectSubType",
              "name": "subType",
              "type": "uint8"
            },
            {
              "internalType": "uint32",
              "name": "goodChance",
              "type": "uint32"
            },
            {
              "components": [
                {
                  "internalType": "uint8[]",
                  "name": "ids",
                  "type": "uint8[]"
                },
                {
                  "internalType": "int32[]",
                  "name": "values",
                  "type": "int32[]"
                }
              ],
              "internalType": "struct IGOC.AttributeGenerateInfo",
              "name": "goodAttributes",
              "type": "tuple"
            },
            {
              "components": [
                {
                  "internalType": "uint8[]",
                  "name": "ids",
                  "type": "uint8[]"
                },
                {
                  "internalType": "int32[]",
                  "name": "values",
                  "type": "int32[]"
                }
              ],
              "internalType": "struct IGOC.AttributeGenerateInfo",
              "name": "badAttributes",
              "type": "tuple"
            },
            {
              "internalType": "uint32",
              "name": "experience",
              "type": "uint32"
            },
            {
              "internalType": "int32",
              "name": "heal",
              "type": "int32"
            },
            {
              "internalType": "int32",
              "name": "manaRegen",
              "type": "int32"
            },
            {
              "internalType": "int32",
              "name": "lifeChancesRecovered",
              "type": "int32"
            },
            {
              "internalType": "int32",
              "name": "damage",
              "type": "int32"
            },
            {
              "internalType": "int32",
              "name": "manaConsumed",
              "type": "int32"
            },
            {
              "internalType": "address[]",
              "name": "mintItems",
              "type": "address[]"
            },
            {
              "internalType": "uint32[]",
              "name": "mintItemsChances",
              "type": "uint32[]"
            }
          ],
          "internalType": "struct IGOC.EventRegInfo",
          "name": "regInfo",
          "type": "tuple"
        }
      ],
      "name": "registerEvent",
      "outputs": [],
      "stateMutability": "nonpayable",
      "type": "function"
    },
    {
      "inputs": [
        {
          "components": [
            {
              "internalType": "uint16",
              "name": "monsterId",
              "type": "uint16"
            },
            {
              "internalType": "uint8",
              "name": "biome",
              "type": "uint8"
            },
            {
              "internalType": "enum IGOC.ObjectSubType",
              "name": "subType",
              "type": "uint8"
            },
            {
              "internalType": "uint8[]",
              "name": "attributeIds",
              "type": "uint8[]"
            },
            {
              "internalType": "int32[]",
              "name": "attributeValues",
              "type": "int32[]"
            },
            {
              "internalType": "uint8",
              "name": "level",
              "type": "uint8"
            },
            {
              "internalType": "uint8",
              "name": "race",
              "type": "uint8"
            },
            {
              "internalType": "uint32",
              "name": "experience",
              "type": "uint32"
            },
            {
              "internalType": "uint8",
              "name": "maxDropItems",
              "type": "uint8"
            },
            {
              "internalType": "address",
              "name": "attackToken",
              "type": "address"
            },
            {
              "internalType": "uint64",
              "name": "attackTokenId",
              "type": "uint64"
            },
            {
              "internalType": "uint8",
              "name": "attackType",
              "type": "uint8"
            },
            {
              "internalType": "address[]",
              "name": "mintItems",
              "type": "address[]"
            },
            {
              "internalType": "uint32[]",
              "name": "mintItemsChances",
              "type": "uint32[]"
            }
          ],
          "internalType": "struct IGOC.MonsterGenInfo",
          "name": "monsterGenInfo",
          "type": "tuple"
        }
      ],
      "name": "registerMonster",
      "outputs": [],
      "stateMutability": "nonpayable",
      "type": "function"
    },
    {
      "inputs": [
        {
          "internalType": "uint16",
          "name": "storyId",
          "type": "uint16"
        },
        {
          "internalType": "uint8",
          "name": "biome",
          "type": "uint8"
        },
        {
          "internalType": "enum IGOC.ObjectSubType",
          "name": "subType",
          "type": "uint8"
        }
      ],
      "name": "registerStory",
      "outputs": [],
      "stateMutability": "nonpayable",
      "type": "function"
    },
    {
      "inputs": [
        {
          "internalType": "uint32",
          "name": "objectId",
          "type": "uint32"
        }
      ],
      "name": "removeObject",
      "outputs": [],
      "stateMutability": "nonpayable",
      "type": "function"
    },
    {
      "inputs": [],
      "name": "revision",
      "outputs": [
        {
          "internalType": "uint256",
          "name": "",
          "type": "uint256"
        }
      ],
      "stateMutability": "view",
      "type": "function"
    }
  ],
  "transactionHash": "0x5070780e93e4a8db82e4911ad29b4ebb733ceee7f783bbac56798427d7251236",
  "args": [],
  "numDeployments": 17,
  "solcInputHash": "ab128610a613a12ee3464e154c92869f",
  "bytecode": "0x60806040523480156200001157600080fd5b507ff0c57e16840df040f15088dc2f81fe391c3923bec73e23a9662efc9c229c6a00805468010000000000000000810460ff1615906001600160401b03166000811580156200005d5750825b90506000826001600160401b031660011480156200007a5750303b155b90508115801562000089575080155b15620000a85760405163f92ee8a960e01b815260040160405180910390fd5b84546001600160401b03191660011785558315620000d757845460ff60401b1916680100000000000000001785555b83156200011e57845460ff60401b19168555604051600181527fc7f505b2f371ae2175ee4913f4499e1f2633a7b5936321eed1cdaeb6115181d29060200160405180910390a15b505050505061568e80620001336000396000f3fe608060405234801561001057600080fd5b506004361061017a5760003560e01c80638154916e116100d45780638154916e146102e5578063909aa53914610305578063936725ec146103255780639d0bcca014610356578063a0e5af851461036b578063a8ca89ff14610386578063b414c55314610399578063b429afeb146103ac578063d447d4df146103bf578063d5e46dcd146103d2578063dee1f0e4146103ff578063f2c6c6fb14610412578063f3deb39114610425578063f77c479114610438578063ffa1ad741461044057600080fd5b806306efb7851461017f5780630e2ecde2146101a55780630e91f15e146101cb578063172ae49a146101eb57806319ab453c146102005780631c10968c14610213578063325a19f11461021b5780634593144c146102235780634675bfff1461022b5780634fac6ccd1461023e5780636742e2d61461025157806369c3d472146102745780636f383c0f1461029557806375a8e7da146102bd5780637cc96380146102dd575b600080fd5b61019261018d366004613d23565b610464565b6040519081526020015b60405180910390f35b6101b86101b3366004613d6c565b610479565b60405161ffff909116815260200161019c565b6101de6101d9366004613db2565b610484565b60405161019c9190613de7565b6101fe6101f9366004613d6c565b610490565b005b6101fe61020e366004613e2b565b6104a4565b61019261059e565b6101926105ad565b6101926105e1565b6101fe61023936600461413f565b610611565b6101fe61024c366004613e2b565b610622565b61026461025f3660046142cc565b610733565b604051901515815260200161019c565b6102876102823660046142cc565b610752565b60405161019c92919061454d565b6102a86102a336600461459c565b610779565b60405163ffffffff909116815260200161019c565b6102d06102cb366004613d6c565b61079c565b60405161019c919061465d565b6101926107ad565b6102f86102f3366004613d6c565b6107cb565b60405161019c91906146df565b610318610313366004614704565b6107d6565b60405161019c919061490a565b610349604051806040016040528060058152602001640312e302e360dc1b81525081565b60405161019c919061496d565b61035e610801565b60405161019c9190614980565b610373610831565b60405160039190910b815260200161019c565b6101fe610394366004614994565b610843565b6101fe6103a73660046149d9565b61085b565b6102646103ba366004613e2b565b61086c565b6102646103cd366004613d6c565b610891565b6103e56103e0366004613d6c565b61089c565b6040805160ff93841681529290911660208301520161019c565b61026461040d366004613e2b565b6108b1565b6101926104203660046142cc565b610936565b6101926104333660046142cc565b61094b565b61035e610958565b61034960405180604001604052806005815260200164312e312e3560d81b81525081565b60006104708383610988565b90505b92915050565b6000610473826109c1565b606061047083836109ee565b6104a161049b610958565b82610a2e565b50565b60006104ae610ae0565b805490915060ff600160401b82041615906001600160401b03166000811580156104d55750825b90506000826001600160401b031660011480156104f15750303b155b9050811580156104ff575080155b1561051d5760405163f92ee8a960e01b815260040160405180910390fd5b845467ffffffffffffffff19166001178555831561054757845460ff60401b1916600160401b1785555b61055086610b04565b831561059657845460ff60401b19168555604051600181527fc7f505b2f371ae2175ee4913f4499e1f2633a7b5936321eed1cdaeb6115181d29060200160405180910390a15b505050505050565b60006105a8610b15565b905090565b60006105a86105dd60017f6f55f470bdc9cb5f04223fd822021061668e4dccb43e8727b295106dc9769c8b614b21565b5490565b60006105a86105dd60017f812a673dfca07956350df10f8a654925f561d7a0da09bdbe79e653939a14d9f1614b21565b6104a161061c610958565b82610b28565b3330146106745760405162461bcd60e51b815260206004820152601b60248201527a24b731b932b0b9b2903932bb34b9b4b7b7103337b93134b23232b760291b60448201526064015b60405180910390fd5b60006106926105dd6001600080516020615639833981519152614b21565b61069d906001614b34565b90506106bf816106bc6001600080516020615639833981519152614b21565b55565b6106ee826106bc60017fbfaaa2fb63266ff27c2da975f5894955056f50419af651a81f6c5060581857e4614b21565b604080518281526001600160a01b03841660208201527ff27e2ef832a4eb8ed8ec553b875eecd44764cda95b1c24170e281539e0a869c8910160405180910390a15050565b6000610748610740610958565b858585610c1c565b90505b9392505050565b61075a613b49565b610762613bbb565b61076d858585610ca3565b91509150935093915050565b6000610790610786610958565b8787878787610d83565b90505b95945050505050565b6107a4613be2565b61047382610e10565b60006105a86105dd6001600080516020615639833981519152614b21565b600061047382610f63565b6107de613c0f565b6107f56107e9610958565b89898989898989610fb1565b98975050505050505050565b60006105a86105dd60017fbfaaa2fb63266ff27c2da975f5894955056f50419af651a81f6c5060581857e4614b21565b60006105a861083e610958565b61135c565b61085661084e610958565b84848461142d565b505050565b6104a1610866610958565b826114bc565b6000610876610958565b6001600160a01b0316826001600160a01b0316149050919050565b60006104738261159d565b6000806108a8836115e2565b91509150915091565b6000816001600160a01b03166108c5610958565b6001600160a01b0316635aa6e6756040518163ffffffff1660e01b8152600401602060405180830381865afa158015610902573d6000803e3d6000fd5b505050506040513d601f19601f820116820180604052508101906109269190614b52565b6001600160a01b03161492915050565b6000610748610943610958565b8585856115f0565b600061074884848461178c565b60006105a86105dd60017f5165972ef41194f06c5007493031d0b927c20741adcb74403b954009fd2c3618614b21565b60006109926117be565b60070160006109aa6001600160a01b038616856117e2565b815260200190815260200160002054905092915050565b60006109cb6117be565b63ffffffff909216600090815260059290920160205250604090205461ffff1690565b60606104706109fb6117be565b6001016000610a1b86866024811115610a1657610a1661430e565b611831565b8152602001908152602001600020611846565b610a3782611853565b6000610a416117be565b63ffffffff8316600090815260209190915260409020549050610a626117be565b63ffffffff831660008181526020929092526040822091909155610aa090610a886117be565b600084815260019190910160205260409020906118df565b5060405163ffffffff831681527f93afafd4d79cc89e4afba48bcd8cac7b8a35b45dfb55afe60cccae721124cd0f906020015b60405180910390a1505050565b7ff0c57e16840df040f15088dc2f81fe391c3923bec73e23a9662efc9c229c6a0090565b610b0c6118eb565b6104a181611912565b6000610b1f6117be565b60080154905090565b610b3182611853565b610b45816101800151826101a00151611a25565b6000610b5e826000015183604001518460200151611b5e565b9050732b710976fCEd1f3178A84e9F93c9FD8467f5289B6330f53b2c83610b836117be565b63ffffffff85166000908152600491820160205260409081902090516001600160e01b031960e086901b168152610bbb939201614bef565b60006040518083038186803b158015610bd357600080fd5b505af4158015610be7573d6000803e3d6000fd5b505050507f8ee0b45ff34ecba58a4014e0e0a9ebb97960cbfcae1e413072685b6b56b724fe8183604051610ad3929190614d83565b600080610c28836115e2565b915050610c99866001600160a01b031663524a562f6040518163ffffffff1660e01b8152600401602060405180830381865afa158015610c6c573d6000803e3d6000fd5b505050506040513d601f19601f82011682018060405250810190610c909190614b52565b84838888611bdf565b9695505050505050565b610cab613b49565b610cb3613bbb565b6000610cbd6117be565b6003016000610cd66001600160a01b0389168888611cfe565b8152602001908152602001600020549050610d10610cf26117be565b63ffffffff8616600090815260069190910160205260409020611d31565b9250610d78610d1d6117be565b63ffffffff8087166000908152600692909201602052604082206004019190610d53906001600160a01b038b16908a906117e216565b8152602001908152602001600020600083815260200190815260200160002054611f52565b915050935093915050565b6000610d8e87611fa0565b610e05610d996117be565b886001600160a01b031663524a562f6040518163ffffffff1660e01b8152600401602060405180830381865afa158015610dd7573d6000803e3d6000fd5b505050506040513d601f19601f82011682018060405250810190610dfb9190614b52565b8888888888612035565b979650505050505050565b610e18613be2565b610e206117be565b63ffffffff80841660009081526004929092016020908152604092839020835160a081018552815490931683526001810180548551818502810185019096528086529394919385840193830182828015610e9957602002820191906000526020600020905b815481526020019060010190808311610e85575b5050505050815260200160028201805480602002602001604051908101604052809291908181526020018280548015610ef157602002820191906000526020600020905b815481526020019060010190808311610edd575b505050505081526020016003820154815260200160048201805480602002602001604051908101604052809291908181526020018280548015610f5357602002820191906000526020600020905b815481526020019060010190808311610f3f575b5050505050815250509050919050565b600080610f91610f716117be565b63ffffffff85166000908152602091909152604090205490600882901c90565b91505061074b8160ff166024811115610fac57610fac61430e565b612168565b610fb9613c0f565b610fc289611fa0565b60408051610180810182526000918101829052606081018290526080810182905260e08101829052610120810182905261014081019190915263ffffffff871660c08201526001600160a01b03898116825286166020820152610100810185905260ff841660a0820152610160810183905261103d876115e2565b60ff90811660808401521660608201526001600160401b03881660e08201526110646117be565b600301600061107488888b61256a565b815260208101919091526040908101600020546101408301526001600160a01b038b16908201526110a3613c0f565b60006110c1836080015160ff166024811115610fac57610fac61430e565b60048111156110d2576110d261430e565b43610120850152905060001960ff82160161118e57732b710976fCEd1f3178A84e9F93c9FD8467f5289B63bd9fe9db8461110a6117be565b63ffffffff8d166000908152600491820160205260409081902090516001600160e01b031960e086901b168152611142939201614fc6565b600060405180830381865af415801561115f573d6000803e3d6000fd5b505050506040513d6000823e601f3d908101601f19168201604052611187919081019061521c565b91506112b2565b60011960ff821601611259576111a48888612580565b7369d45bb1F4237b5A6fFe12Bca3Db0EeE2d06bB2D63307800a2846111c76117be565b60060160008d63ffffffff1663ffffffff1681526020019081526020016000206040518363ffffffff1660e01b8152600401611204929190614fc6565b600060405180830381865af4158015611221573d6000803e3d6000fd5b505050506040513d6000823e601f3d908101601f191682016040526112499190810190615250565b60ff1661012085015291506112b2565b60021960ff82160161129457611187836112716117be565b63ffffffff8c166000908152600591909101602052604090205461ffff166125fd565b604051634d07af3360e01b815260ff8216600482015260240161066b565b60c083015163ffffffff166101208301526001600160a01b038816604083015261016082018790526101408301516101808301527f67af56937d4d46082b2327381733f95fd39ed3df103ec0f3761eb315b463f5648a8a60ff8416600481111561131e5761131e61430e565b8b8b8b8961014001518c8a8c61012001516040516113459a999897969594939291906152a1565b60405180910390a1509a9950505050505050505050565b600080826001600160a01b031663c3dfdae66040518163ffffffff1660e01b8152600401602060405180830381865afa15801561139d573d6000803e3d6000fd5b505050506040513d601f19601f820116820180604052508101906113c19190614b52565b6001600160a01b03166318160ddd6040518163ffffffff1660e01b8152600401602060405180830381865afa1580156113fe573d6000803e3d6000fd5b505050506040513d601f19601f820116820180604052508101906114229190615332565b905061074b816128de565b61143684611853565b6000611443838386611b5e565b90508361144e6117be565b63ffffffff831660008181526005929092016020908152604092839020805461ffff191661ffff9586161790558251918252928716928101929092527f9df2729723fcb63a4f46ffc16905a683f7eb0e8dd3ec260515e66b4d4cd8c0ad910160405180910390a15050505050565b6114c582611853565b6114d9816101800151826101a00151611a25565b60006114f2826020015183604001518460000151611b5e565b90506114fc6117be565b63ffffffff8216600090815260069190910160205260408120906115208282613c85565b600182016000905560028201600090556003820160006115409190613c85565b505061156c8261154e6117be565b63ffffffff8416600090815260069190910160205260409020612929565b7fe9039f79f66d71725ba719a022b5729bbfce163887322d74e690772fe247fa4b8183604051610ad392919061534b565b6000806115ab610f716117be565b9150600290506115c98260ff166024811115610fac57610fac61430e565b60048111156115da576115da61430e565b149392505050565b6000806108a8610f716117be565b60006115fb85611fa0565b611606848484612acd565b90506000611613836115e2565b91505060006116308260ff166024811115610fac57610fac61430e565b60048111156116415761164161430e565b905060001960ff821601156117825760011960ff821601611757576117526116676117be565b60060160008663ffffffff1663ffffffff1681526020019081526020016000208787868b6001600160a01b031663c3dfdae66040518163ffffffff1660e01b8152600401602060405180830381865afa1580156116c8573d6000803e3d6000fd5b505050506040513d601f19601f820116820180604052508101906116ec9190614b52565b6001600160a01b03166318160ddd6040518163ffffffff1660e01b8152600401602060405180830381865afa158015611729573d6000803e3d6000fd5b505050506040513d601f19601f8201168201806040525081019061174d9190615332565b612b22565b611782565b60021960ff821601156117825760405163cafe050760e01b815260ff8216600482015260240161066b565b5050949350505050565b60006117966117be565b60030160006117a686868661256a565b81526020019081526020016000205490509392505050565b7ffa9e067a92ca4a9057b7b4465a8f29d633e1758238bd3a4a8ec5d0f904f6b90090565b60006001600160401b0382111561180f57604051633995b34160e01b81526004810183905260240161066b565b50600160a01b600160e01b0360a09190911b166001600160a01b039091161790565b600060ff8316600883901b61ff001617610470565b6060600061074b83612b32565b604051631430d62960e21b81526001600160a01b038216906350c358a49061187f903390600401614980565b602060405180830381865afa15801561189c573d6000803e3d6000fd5b505050506040513d601f19601f820116820180604052508101906118c0919061536a565b6104a1573360405163451cea1760e11b815260040161066b9190614980565b60006104708383612b8e565b6118f3612c88565b61191057604051631afcd79f60e31b815260040160405180910390fd5b565b6001600160a01b03811661195a5760405162461bcd60e51b815260206004820152600f60248201526e2d32b9379031b7b73a3937b63632b960891b604482015260640161066b565b611989816106bc60017f5165972ef41194f06c5007493031d0b927c20741adcb74403b954009fd2c3618614b21565b6119b8426106bc60017f6f55f470bdc9cb5f04223fd822021061668e4dccb43e8727b295106dc9769c8b614b21565b6119e7436106bc60017f812a673dfca07956350df10f8a654925f561d7a0da09bdbe79e653939a14d9f1614b21565b7f1a2dd071001ebf6e03174e3df5b305795a4ad5d41d8fdb9ba41dbbe236713426814243604051611a1a93929190615385565b60405180910390a150565b815181518114611a485760405163586cb9e160e01b815260040160405180910390fd5b60005b81811015611b585760006001600160a01b0316848281518110611a7057611a706153a6565b60200260200101516001600160a01b031603611a9f5760405163d92e233d60e01b815260040160405180910390fd5b828181518110611ab157611ab16153a6565b602002602001015163ffffffff16600003611adf5760405163eb79f4eb60e01b815260040160405180910390fd5b633b9aca0063ffffffff16838281518110611afc57611afc6153a6565b602002602001015163ffffffff161115611b5057828181518110611b2257611b226153a6565b60200260200101516040516304470bfd60e21b815260040161066b919063ffffffff91909116815260200190565b600101611a4b565b50505050565b600080611b696117be565b9050611b8785856024811115611b8157611b8161430e565b85612ca2565b91506000611ba186866024811115610a1657610a1661430e565b63ffffffff808516600081815260208681526040808320869055858352600188019091529020929350611bd59291612d9716565b5050509392505050565b600080611bfa8560ff166024811115610fac57610fac61430e565b90506001816004811115611c1057611c1061430e565b03611c1f576001915050610793565b6002816004811115611c3357611c3361430e565b03611c42576001915050610793565b6003816004811115611c5657611c5661430e565b03611ce057604051630152f74f60e41b815263ffffffff871660048201526001600160a01b0385811660248301526044820185905288169063152f74f090606401602060405180830381865afa158015611cb4573d6000803e3d6000fd5b505050506040513d601f19601f82011682018060405250810190611cd8919061536a565b915050610793565b604051630dad26cb60e31b815260ff8616600482015260240161066b565b6001600160a01b039290921660a09190911b600160a01b600160e01b03161760e09190911b6001600160e01b0319161790565b611d39613b49565b611d41613b49565b611d9c83600001805480602002602001604051908101604052809291908181526020018280548015611d9257602002820191906000526020600020905b815481526020019060010190808311611d7e575b5050505050612da3565b606083015260808201526001830154600881901c601082901c603083901c60ff90811661010086015263ffffffff90911660e085015290811660c08401521660a08201526002830154611df660a082901c9060e083901c90565b60ff166101608401526001600160401b039081166101408401526001600160a01b039091166101208301526003840154908190811115611e3857611e38613e48565b604051908082528060200260200182016040528015611e61578160200160208202803683370190505b50610180830152806001600160401b03811115611e8057611e80613e48565b604051908082528060200260200182016040528015611ea9578160200160208202803683370190505b506101a083015260005b81811015611f4957611ee7856003018281548110611ed357611ed36153a6565b90600052602060002001549060a082901c90565b8461018001518381518110611efe57611efe6153a6565b60200260200101856101a001518481518110611f1c57611f1c6153a6565b63ffffffff909316602093840291909101909201919091526001600160a01b039091169052600101611eb3565b50909392505050565b611f5a613bbb565b506040805160808101825260ff8381166001148252604884901c166020820152602883901c60030b9181019190915263ffffffff60089290921c91909116606082015290565b336001600160a01b0316816001600160a01b031663683fedf76040518163ffffffff1660e01b8152600401602060405180830381865afa158015611fe8573d6000803e3d6000fd5b505050506040513d601f19601f8201168201806040525081019061200c9190614b52565b6001600160a01b0316146104a1573360405163cf219bef60e01b815260040161066b9190614980565b600080612045878761309461312a565b905060008960010160006120598885611831565b81526020019081526020016000209050600061207482613333565b9050806000036120975760405163296a76c760e21b815260040160405180910390fd5b6000816001146120b9576120b46120af600184614b21565b613094565b6120bc565b60005b9050600060028d018160ff60e81b60e88c901b1660ff60e01b60e089901b16600160a01b600160e01b0360a08c901b166001600160a01b038d161717178152602001908152602001600020905061211b8c8486848660008e8e8d61333d565b95508563ffffffff1660000361214457604051639cb04d5d60e01b815260040160405180910390fd5b6121578163ffffffff80891690612d9716565b505050505050979650505050505050565b6000600482602481111561217e5761217e61430e565b148061219b575060058260248111156121995761219961430e565b145b806121b7575060088260248111156121b5576121b561430e565b145b156121c457506001919050565b60018260248111156121d8576121d861430e565b14806121f5575060028260248111156121f3576121f361430e565b145b806122115750600382602481111561220f5761220f61430e565b145b8061222d5750600a82602481111561222b5761222b61430e565b145b80612249575060208260248111156122475761224761430e565b145b80612265575060218260248111156122635761226361430e565b145b806122815750602282602481111561227f5761227f61430e565b145b8061229d5750602382602481111561229b5761229b61430e565b145b156122aa57506002919050565b60068260248111156122be576122be61430e565b14806122db575060078260248111156122d9576122d961430e565b145b806122f75750600b8260248111156122f5576122f561430e565b145b806123135750600c8260248111156123115761231161430e565b145b8061232f5750600d82602481111561232d5761232d61430e565b145b8061234b5750600e8260248111156123495761234961430e565b145b806123675750600f8260248111156123655761236561430e565b145b80612383575060108260248111156123815761238161430e565b145b8061239f5750601182602481111561239d5761239d61430e565b145b806123bb575060128260248111156123b9576123b961430e565b145b806123d7575060138260248111156123d5576123d561430e565b145b806123f3575060148260248111156123f1576123f161430e565b145b8061240f5750601582602481111561240d5761240d61430e565b145b8061242b575060168260248111156124295761242961430e565b145b80612447575060178260248111156124455761244561430e565b145b80612463575060188260248111156124615761246161430e565b145b8061247f5750601982602481111561247d5761247d61430e565b145b8061249b5750601a8260248111156124995761249961430e565b145b806124b75750601b8260248111156124b5576124b561430e565b145b806124d35750601c8260248111156124d1576124d161430e565b145b806124ef5750601d8260248111156124ed576124ed61430e565b145b8061250b5750601e8260248111156125095761250961430e565b145b806125275750601f8260248111156125255761252561430e565b145b1561253457506003919050565b8160248111156125465761254661430e565b6040516302f13cad60e41b815260ff909116600482015260240161066b565b919050565b60006107486001600160a01b0385168484611cfe565b600061258a6117be565b905060006125a16001600160a01b038516846117e2565b6008830154600082815260078501602052604090205491925042916125c69190614b34565b11156125e55760405163051211b760e11b815260040160405180910390fd5b60009081526007909101602052604090204290555050565b612605613c0f565b8161ffff1660000361262a57604051635c5e6bb360e11b815260040160405180910390fd5b82604001516001600160a01b031663524a562f6040518163ffffffff1660e01b8152600401602060405180830381865afa15801561266c573d6000803e3d6000fd5b505050506040513d601f19601f820116820180604052508101906126909190614b52565b6001600160a01b0316631c1b0daa84600001518560e001518660c001518760a0015188602001518961010001518a606001518b61014001518c61016001516040518a63ffffffff1660e01b81526004016126f2999897969594939291906153bc565b6000604051808303816000875af1158015612711573d6000803e3d6000fd5b505050506040513d6000823e601f3d908101601f19168201604052612739919081019061521c565b9050806020015180612749575080515b1561047357600083604001516001600160a01b0316628e96916040518163ffffffff1660e01b8152600401602060405180830381865afa158015612791573d6000803e3d6000fd5b505050506040513d601f19601f820116820180604052508101906127b59190614b52565b905060006127c28461340c565b6020860151610100870151604051631c2aafe760e01b81529293506000926001600160a01b03861692631c2aafe7926127ff928790600401615385565b602060405180830381865afa15801561281c573d6000803e3d6000fd5b505050506040513d601f19601f820116820180604052508101906128409190615332565b9050826001600160a01b031663184f614387602001518861010001518585600161286a9190614b34565b6040516001600160e01b031960e087901b1681526001600160a01b039094166004850152602484019290925260448301526064820152608401600060405180830381600087803b1580156128bd57600080fd5b505af11580156128d1573d6000803e3d6000fd5b5050505050505092915050565b60006128f6600a6a084595161401484a00000061544b565b82101561290557506000919050565b6a084595161401484a00000061291f83633b9aca0061545f565b610473919061544b565b6060820151608083015161293c91613443565b805161294f918391602090910190613ca3565b5060a082015160c083015160e084015161010085015160ff90931660089290921b61ff00169190911760109190911b65ffffffff0000161760309190911b60ff60301b161760018201556101208201516101408301516101608401516001600160a01b0390921660a09190911b600160a01b600160e01b03161760e09190911b60ff60e01b16176002820155610180820151516000816001600160401b038111156129fc576129fc613e48565b604051908082528060200260200182016040528015612a25578160200160208202803683370190505b50905060005b82811015612ab057612a8b856101a001518281518110612a4d57612a4d6153a6565b60200260200101518661018001518381518110612a6c57612a6c6153a6565b60200260200101516001600160a01b03166136a190919063ffffffff16565b828281518110612a9d57612a9d6153a6565b6020908102919091010152600101612a2b565b508051612ac69060038501906020840190613ca3565b5050505050565b600080612ad86117be565b90506000612ae786868661256a565b6000818152600384016020526040902054909150612b06906001614b34565b6000918252600390920160205260409020819055949350505050565b612ac6858585856136bf866136ca565b606081600001805480602002602001604051908101604052809291908181526020018280548015612b8257602002820191906000526020600020905b815481526020019060010190808311612b6e575b50505050509050919050565b60008181526001830160205260408120548015612c77576000612bb2600183614b21565b8554909150600090612bc690600190614b21565b9050808214612c2b576000866000018281548110612be657612be66153a6565b9060005260206000200154905080876000018481548110612c0957612c096153a6565b6000918252602080832090910192909255918252600188019052604090208390555b8554869080612c3c57612c3c615476565b600190038181906000526020600020016000905590558560010160008681526020019081526020016000206000905560019350505050610473565b6000915050610473565b5092915050565b6000612c92610ae0565b54600160401b900460ff16919050565b600060ff84161580612cb5575060ff8316155b80612cc2575061ffff8216155b15612ce05760405163273e150360e21b815260040160405180910390fd5b60648460ff1610612d09576040516340eff0e560e01b815260ff8516600482015260240161066b565b60648360ff1610612d325760405163017c4c5960e01b815260ff8416600482015260240161066b565b6127108261ffff161115612d5f57604051637dc12d1d60e01b815261ffff8316600482015260240161066b565b61ffff8216612d7360ff851661271061548c565b612d8360ff8716620f424061548c565b612d8d91906154b4565b61074891906154b4565b600061047083836137b3565b805160609081906000612db782600861545f565b90506000816001600160401b03811115612dd357612dd3613e48565b604051908082528060200260200182016040528015612dfc578160200160208202803683370190505b5090506000826001600160401b03811115612e1957612e19613e48565b604051908082528060200260200182016040528015612e42578160200160208202803683370190505b5090506000805b85811015612f6f5760005b6008811015612f6657600081612e6b84600861545f565b612e759190614b34565b9050612e8282602061545f565b8b8481518110612e9457612e946153a6565b602002602001015160001c901c60020b868281518110612eb657612eb66153a6565b60039290920b602092830291909101820152612ed390839061545f565b612ede906018614b34565b8b8481518110612ef057612ef06153a6565b602002602001015160001c901c858281518110612f0f57612f0f6153a6565b602002602001019060ff16908160ff1681525050858181518110612f3557612f356153a6565b602002602001015160030b600003612f4d5750612f66565b83612f57816154d1565b94505050806001019050612e54565b50600101612e49565b50806001600160401b03811115612f8857612f88613e48565b604051908082528060200260200182016040528015612fb1578160200160208202803683370190505b509650806001600160401b03811115612fcc57612fcc613e48565b604051908082528060200260200182016040528015612ff5578160200160208202803683370190505b50955060005b8181101561308957838181518110613015576130156153a6565b602002602001015188828151811061302f5761302f6153a6565b602002602001019060030b908160030b81525050828181518110613055576130556153a6565b602002602001015187828151811061306f5761306f6153a6565b60ff90921660209283029190910190910152600101612ffb565b505050505050915091565b6000816000036130a657506000919050565b6130b1826001614b34565b4340414443423a5a604051602001613107979695949392919096875260609590951b6001600160601b0319166020870152603486019390935260548501919091526074840152609483015260b482015260d40190565b6040516020818303038152906040528051906020012060001c61047391906154ea565b825160009080158061313d575083518114155b1561315b5760405163360ee06360e21b815260040160405180910390fd5b806001036131855784600081518110613176576131766153a6565b60200260200101519150613304565b6000613198633b9aca0063ffffffff8616565b905060006131ab633b9aca0060016154b4565b63ffffffff16905060005b83811015613300578781815181106131d0576131d06153a6565b602002602001015160ff16600003156132f857633b9aca0063ffffffff16878281518110613200576132006153a6565b602002602001015163ffffffff16111561325d57868181518110613226576132266153a6565b6020908102919091010151604051631b4fdad960e11b815263ffffffff9091166004820152633b9aca00602482015260440161066b565b82878281518110613270576132706153a6565b6020026020010151633b9aca0061328791906154fe565b63ffffffff16116132f857818782815181106132a5576132a56153a6565b602002602001015163ffffffff1610156132f8578681815181106132cb576132cb6153a6565b602002602001015163ffffffff1691508781815181106132ed576132ed6153a6565b602002602001015194505b6001016131b6565b5050505b8160ff1660000361332b5760405163b3cea44d60e01b81526000600482015260240161066b565b509392505050565b6000610473825490565b60008861334988613333565b1061335b576001945061335b87613802565b6000805b8a8110156133ce578a881061337357600097505b600061337f8b8a613850565b905061338e8d82878a8a611bdf565b80156133b1575087806133b157506133af8a63ffffffff8084169061385c16565b155b156133c1579250600191506133ce565b506001978801970161335f565b50801580156133db575085155b156133fe576133e988613802565b6133fb8b8b8b8b8b60018b8b8b61333d565b91505b509998505050505050505050565b600061341b8261ffff16613874565b60405160200161342b919061551b565b60405160208183030381529060405261047390615549565b606081518351146134675760405163586cb9e160e01b815260040160405180910390fd5b600060088451613477919061544b565b613482906001614b34565b90506000816001600160401b0381111561349e5761349e613e48565b6040519080825280602002602001820160405280156134c7578160200160208202803683370190505b50905060005b828110156136985760005b600881101561368f576000816134ef84600861545f565b6134f99190614b34565b905087518110613509575061368f565b627fffff60020b888281518110613522576135226153a6565b602002602001015160030b138061355b5750627fffff1960020b88828151811061354e5761354e6153a6565b602002602001015160030b125b1561359957878181518110613572576135726153a6565b602002602001015160030b604051632eb1d06960e01b815260040161066b91815260200190565b8781815181106135ab576135ab6153a6565b602002602001015160030b6000036135d657604051637c946ed760e01b815260040160405180910390fd5b6135e182602061545f565b8882815181106135f3576135f36153a6565b602002602001015162ffffff1660001b901b848481518110613617576136176153a6565b602002602001018181511791508181525050816020613636919061545f565b613641906018614b34565b878281518110613653576136536153a6565b602002602001015160ff1660001b901b848481518110613675576136756153a6565b6020908102919091010180519091179052506001016134d8565b506001016134cd565b50949350505050565b63ffffffff60a01b60a09190911b166001600160a01b039091161790565b600061047382613094565b6040805160808101825260018152600060208201819052918101829052606081016136fc633b9aca0063ffffffff8716565b63ffffffff1690529050600061371188611d31565b9050600061373a826060015183608001518560600151613730886128de565b8660e0015161397c565b50905080600981518110613750576137506153a6565b602090810291909101015160030b604084015261376c83613a41565b60048a0160006137856001600160a01b038c168b6117e2565b8152602001908152602001600020600088815260200190815260200160002081905550505050505050505050565b60008181526001830160205260408120546137fa57508154600181810184556000848152602080822090930184905584548482528286019093526040902091909155610473565b506000610473565b600061380d82611846565b905060005b815181101561085657613847828281518110613830576138306153a6565b6020026020010151846118df90919063ffffffff16565b50600101613812565b60006104708383613a5f565b60008181526001830160205260408120541515610470565b60608160000361389b5750506040805180820190915260018152600360fc1b602082015290565b8160005b81156138c557806138af816154d1565b91506138be9050600a8361544b565b915061389f565b6000816001600160401b038111156138df576138df613e48565b6040519080825280601f01601f191660200182016040528015613909576020820181803683370190505b5090505b84156139745761391e600183614b21565b915061392b600a866154ea565b613936906030614b34565b60f81b81838151811061394b5761394b6153a6565b60200101906001600160f81b031916908160001a90535061396d600a8661544b565b945061390d565b949350505050565b6060600061398b600486615570565b60408051602b8082526105808201909252919650602082016105608036833701905050915060005b8751811015613a29576139e08782815181106139d1576139d16153a6565b60200260200101518787613a89565b838983815181106139f3576139f36153a6565b602002602001015160ff1681518110613a0e57613a0e6153a6565b60039290920b602092830291909101909101526001016139b3565b50613a35838686613a89565b90509550959350505050565b60006104738260000151836060015184604001518560200151613af5565b6000826000018281548110613a7657613a766153a6565b9060005260206000200154905092915050565b60008360030b600003613a9e5750600061074b565b633b9aca00613ab4600384810b9087900b615593565b613abe91906155c3565b633b9aca00613ad763ffffffff8616600388900b615593565b613ae191906155c3565b613aeb91906155f1565b6107489085615611565b600084613b03576000613b06565b60015b60ff1660001b905060088463ffffffff1660001b901b8117905060288363ffffffff1660001b901b8117905060488260ff1660001b901b81179050949350505050565b604080516101c081018252600080825260208201819052909182019081526060602082018190526040820181905260008183018190526080830181905260a0830181905260c0830181905260e08301819052610100830181905261012083015261014082018190526101609091015290565b60408051608081018252600080825260208201819052918101829052606081019190915290565b6040805160a081018252600080825260606020830181905292820183905282820152608081019190915290565b604080516101c08101825260008082526020820181905291810182905260608082018190526080820183905260a0820183905260c0820183905260e0820183905261010082018390526101208201839052610140820183905261016082018390526101808201929092526101a081019190915290565b50805460008255906000526020600020908101906104a19190613cee565b828054828255906000526020600020908101928215613cde579160200282015b82811115613cde578251825591602001919060010190613cc3565b50613cea929150613cee565b5090565b5b80821115613cea5760008155600101613cef565b6001600160a01b03811681146104a157600080fd5b803561256581613d03565b60008060408385031215613d3657600080fd5b8235613d4181613d03565b946020939093013593505050565b63ffffffff811681146104a157600080fd5b803561256581613d4f565b600060208284031215613d7e57600080fd5b813561074b81613d4f565b60ff811681146104a157600080fd5b803561256581613d89565b80356025811061256557600080fd5b60008060408385031215613dc557600080fd5b8235613dd081613d89565b9150613dde60208401613da3565b90509250929050565b6020808252825182820181905260009190848201906040850190845b81811015613e1f57835183529284019291840191600101613e03565b50909695505050505050565b600060208284031215613e3d57600080fd5b813561074b81613d03565b634e487b7160e01b600052604160045260246000fd5b6040516101c081016001600160401b0381118282101715613e8157613e81613e48565b60405290565b604051601f8201601f191681016001600160401b0381118282101715613eaf57613eaf613e48565b604052919050565b803561ffff8116811461256557600080fd5b60006001600160401b03821115613ee257613ee2613e48565b5060051b60200190565b600082601f830112613efd57600080fd5b81356020613f12613f0d83613ec9565b613e87565b8083825260208201915060208460051b870101935086841115613f3457600080fd5b602086015b84811015613f59578035613f4c81613d89565b8352918301918301613f39565b509695505050505050565b8060030b81146104a157600080fd5b803561256581613f64565b600082601f830112613f8f57600080fd5b81356020613f9f613f0d83613ec9565b8083825260208201915060208460051b870101935086841115613fc157600080fd5b602086015b84811015613f59578035613fd981613f64565b8352918301918301613fc6565b600060408284031215613ff857600080fd5b604051604081016001600160401b03828210818311171561401b5761401b613e48565b81604052829350843591508082111561403357600080fd5b61403f86838701613eec565b8352602085013591508082111561405557600080fd5b5061406285828601613f7e565b6020830152505092915050565b600082601f83011261408057600080fd5b81356020614090613f0d83613ec9565b8083825260208201915060208460051b8701019350868411156140b257600080fd5b602086015b84811015613f595780356140ca81613d03565b83529183019183016140b7565b600082601f8301126140e857600080fd5b813560206140f8613f0d83613ec9565b8083825260208201915060208460051b87010193508684111561411a57600080fd5b602086015b84811015613f5957803561413281613d4f565b835291830191830161411f565b60006020828403121561415157600080fd5b81356001600160401b038082111561416857600080fd5b908301906101c0828603121561417d57600080fd5b614185613e5e565b61418e83613d98565b815261419c60208401613eb7565b60208201526141ad60408401613da3565b60408201526141be60608401613d61565b60608201526080830135828111156141d557600080fd5b6141e187828601613fe6565b60808301525060a0830135828111156141f957600080fd5b61420587828601613fe6565b60a08301525061421760c08401613d61565b60c082015261422860e08401613f73565b60e082015261010061423b818501613f73565b9082015261012061424d848201613f73565b9082015261014061425f848201613f73565b90820152610160614271848201613f73565b90820152610180838101358381111561428957600080fd5b6142958882870161406f565b8284015250506101a080840135838111156142af57600080fd5b6142bb888287016140d7565b918301919091525095945050505050565b6000806000606084860312156142e157600080fd5b83356142ec81613d03565b925060208401359150604084013561430381613d4f565b809150509250925092565b634e487b7160e01b600052602160045260246000fd5b602581106143345761433461430e565b9052565b60008151808452602080850194506020840160005b8381101561436c57815160ff168752958201959082019060010161434d565b509495945050505050565b60008151808452602080850194506020840160005b8381101561436c57815160030b8752958201959082019060010161438c565b6001600160a01b03169052565b60008151808452602080850194506020840160005b8381101561436c5781516001600160a01b0316875295820195908201906001016143cd565b60008151808452602080850194506020840160005b8381101561436c57815163ffffffff1687529582019590820190600101614407565b805161ffff16825260006101c0602083015161444a602086018260ff169052565b50604083015161445d6040860182614324565b50606083015181606086015261447582860182614338565b9150506080830151848203608086015261448f8282614377565b91505060a08301516144a660a086018260ff169052565b5060c08301516144bb60c086018260ff169052565b5060e08301516144d360e086018263ffffffff169052565b506101008381015160ff1690850152610120808401516144f5828701826143ab565b5050610140838101516001600160401b0316908501526101608084015160ff1690850152610180808401518583038287015261453183826143b8565b925050506101a08084015185830382870152610c9983826143f2565b60a08152600061456060a0830185614429565b905082511515602083015260ff6020840151166040830152604083015160030b606083015263ffffffff60608401511660808301529392505050565b600080600080600060a086880312156145b457600080fd5b85356001600160401b03808211156145cb57600080fd5b6145d789838a01613eec565b965060208801359150808211156145ed57600080fd5b506145fa888289016140d7565b945050604086013561460b81613d89565b9250606086013561461b81613d03565b949793965091946080013592915050565b60008151808452602080850194506020840160005b8381101561436c57815187529582019590820190600101614641565b6020815263ffffffff82511660208201526000602083015160a0604084015261468960c084018261462c565b90506040840151601f19808584030160608601526146a7838361462c565b92506060860151608086015260808601519150808584030160a086015250610793828261462c565b600581106143345761433461430e565b6020810161047382846146cf565b80356001600160401b038116811461256557600080fd5b600080600080600080600060e0888a03121561471f57600080fd5b873561472a81613d03565b965060206147398982016146ed565b9650604089013561474981613d4f565b9550606089013561475981613d03565b94506080890135935060a089013561477081613d89565b925060c08901356001600160401b038082111561478c57600080fd5b818b0191508b601f8301126147a057600080fd5b8135818111156147b2576147b2613e48565b6147c4601f8201601f19168501613e87565b91508082528c848285010111156147da57600080fd5b808484018584013760008482840101525080935050505092959891949750929550565b80511515825260006101c0602083015161481b602086018215159052565b50604083015161482e60408601826143ab565b506060830151816060860152614846828601826143b8565b915050608083015161485d608086018260030b9052565b5060a083015161487260a086018260030b9052565b5060c083015161488760c086018260030b9052565b5060e083015161489c60e086018260030b9052565b50610100808401516148b28287018260030b9052565b50506101208381015163ffffffff81168683015250506101408381015163ffffffff8116868301525050610160838101519085015261018080840151908501526101a08084015185830382870152610c9983826143f2565b60208152600061047060208301846147fd565b60005b83811015614938578181015183820152602001614920565b50506000910152565b6000815180845261495981602086016020860161491d565b601f01601f19169290920160200192915050565b6020815260006104706020830184614941565b6001600160a01b0391909116815260200190565b6000806000606084860312156149a957600080fd5b6149b284613eb7565b925060208401356149c281613d89565b91506149d060408501613da3565b90509250925092565b6000602082840312156149eb57600080fd5b81356001600160401b0380821115614a0257600080fd5b908301906101c08286031215614a1757600080fd5b614a1f613e5e565b614a2883613eb7565b8152614a3660208401613d98565b6020820152614a4760408401613da3565b6040820152606083013582811115614a5e57600080fd5b614a6a87828601613eec565b606083015250608083013582811115614a8257600080fd5b614a8e87828601613f7e565b608083015250614aa060a08401613d98565b60a0820152614ab160c08401613d98565b60c0820152614ac260e08401613d61565b60e0820152610100614ad5818501613d98565b90820152610120614ae7848201613d18565b90820152610140614af98482016146ed565b90820152610160614271848201613d98565b634e487b7160e01b600052601160045260246000fd5b8181038181111561047357610473614b0b565b8082018082111561047357610473614b0b565b805161256581613d03565b600060208284031215614b6457600080fd5b815161074b81613d03565b805160408084528151908401819052600091602091908201906060860190845b81811015614bae57835160ff1683529284019291840191600101614b8f565b50508483015186820387850152805180835290840192506000918401905b80831015613f5957835160030b8252928401926001929092019190840190614bcc565b60408152614c0360408201845160ff169052565b60006020840151614c1a606084018261ffff169052565b506040840151614c2d6080840182614324565b50606084015163ffffffff1660a083015260808401516101c060c08401819052614c5b610200850183614b6f565b915060a0860151603f19808685030160e0870152614c798483614b6f565b935060c08801519150610100614c968188018463ffffffff169052565b60e08901519250610120614cae8189018560030b9052565b90890151925061014090614cc68883018560030b9052565b8901519250610160614cdc8882018560030b9052565b90890151925061018090614cf48883018560030b9052565b89015192506101a0614d0a8882018560030b9052565b818a01519350828887030185890152614d2386856143b8565b9550808a01519450505080868503016101e08701525050614d4482826143f2565b925050508260208301529392505050565b6000815160408452614d6a6040850182614338565b9050602083015184820360208601526107938282614377565b63ffffffff8316815260406020820152614da360408201835160ff169052565b60006020830151614dba606084018261ffff169052565b506040830151614dcd6080840182614324565b50606083015163ffffffff1660a083015260808301516101c060c08401819052614dfb610200850183614d55565b915060a0850151603f19808685030160e0870152614e198483614d55565b935060c08701519150610100614e368188018463ffffffff169052565b60e08801519250610120614e4e8189018560030b9052565b90880151925061014090614e668883018560030b9052565b8801519250610160614e7c8882018560030b9052565b90880151925061018090614e948883018560030b9052565b88015192506101a0614eaa8882018560030b9052565b818901519350828887030185890152614ec386856143b8565b9550808901519450505080868503016101e08701525050610c9982826143f2565b6000610180614ef48484516143ab565b6020830151614f0660208601826143ab565b506040830151614f1960408601826143ab565b506060830151614f2e606086018260ff169052565b506080830151614f43608086018260ff169052565b5060a0830151614f5860a086018260ff169052565b5060c0830151614f7060c086018263ffffffff169052565b5060e0830151614f8b60e08601826001600160401b03169052565b5061010083810151908501526101208084015190850152610140808401519085015261016080840151818601839052610c9983870182614941565b604081526000614fd96040830185614ee4565b90508260208301529392505050565b8051801515811461256557600080fd5b600082601f83011261500957600080fd5b81516020615019613f0d83613ec9565b8083825260208201915060208460051b87010193508684111561503b57600080fd5b602086015b84811015613f5957805161505381613d03565b8352918301918301615040565b805161256581613f64565b805161256581613d4f565b600082601f83011261508757600080fd5b81516020615097613f0d83613ec9565b8083825260208201915060208460051b8701019350868411156150b957600080fd5b602086015b84811015613f595780516150d181613d4f565b83529183019183016150be565b60006101c082840312156150f157600080fd5b6150f9613e5e565b905061510482614fe8565b815261511260208301614fe8565b602082015261512360408301614b47565b604082015260608201516001600160401b038082111561514257600080fd5b61514e85838601614ff8565b606084015261515f60808501615060565b608084015261517060a08501615060565b60a084015261518160c08501615060565b60c084015261519260e08501615060565b60e084015261010091506151a7828501615060565b8284015261012091506151bb82850161506b565b8284015261014091506151cf82850161506b565b8284015261016091508184015182840152610180915081840151828401526101a09150818401518181111561520357600080fd5b61520f86828701615076565b8385015250505092915050565b60006020828403121561522e57600080fd5b81516001600160401b0381111561524457600080fd5b613974848285016150de565b6000806040838503121561526357600080fd5b82516001600160401b0381111561527957600080fd5b615285858286016150de565b925050602083015161529681613d89565b809150509250929050565b60006101406001600160401b038d16835263ffffffff8c1660208401526152cb604084018c6146cf565b6001600160a01b038a1660608401526080830189905260ff881660a084015260c0830187905260e0830181905261530481840187614941565b905082810361010084015261531981866147fd565b915050826101208301529b9a5050505050505050505050565b60006020828403121561534457600080fd5b5051919050565b63ffffffff831681526040602082015260006107486040830184614429565b60006020828403121561537c57600080fd5b61047082614fe8565b6001600160a01b039390931683526020830191909152604082015260600190565b634e487b7160e01b600052603260045260246000fd5b6001600160a01b038a811682526001600160401b038a16602083015263ffffffff8916604083015260ff8881166060840152908716608083015260a08201869052841660c082015260e08101839052610120610100820181905260009061542583820185614941565b9c9b505050505050505050505050565b634e487b7160e01b600052601260045260246000fd5b60008261545a5761545a615435565b500490565b808202811582820484141761047357610473614b0b565b634e487b7160e01b600052603160045260246000fd5b63ffffffff8181168382160280821691908281146154ac576154ac614b0b565b505092915050565b63ffffffff818116838216019080821115612c8157612c81614b0b565b6000600182016154e3576154e3614b0b565b5060010190565b6000826154f9576154f9615435565b500690565b63ffffffff828116828216039080821115612c8157612c81614b0b565b6553544f52595f60d01b81526000825161553c81600685016020870161491d565b9190910160060192915050565b8051602080830151919081101561556a576000198160200360031b1b821691505b50919050565b600063ffffffff8084168061558757615587615435565b92169190910492915050565b80820260008212600160ff1b841416156155af576155af614b0b565b818105831482151761047357610473614b0b565b6000826155d2576155d2615435565b600160ff1b8214600019841416156155ec576155ec614b0b565b500590565b80820182811260008312801582168215821617156154ac576154ac614b0b565b600381810b9083900b01637fffffff8113637fffffff198212171561047357610473614b0b56fe22573091f17911fb166032a3d9e0554aa73d31b7b7ddea4a4dd2995650af84bda2646970667358221220ed6baff2689d3600f717d13f4f4f0bcadb77980715026884bf574c8be211f94964736f6c63430008170033",
  "deployedBytecode": "0x608060405234801561001057600080fd5b506004361061017a5760003560e01c80638154916e116100d45780638154916e146102e5578063909aa53914610305578063936725ec146103255780639d0bcca014610356578063a0e5af851461036b578063a8ca89ff14610386578063b414c55314610399578063b429afeb146103ac578063d447d4df146103bf578063d5e46dcd146103d2578063dee1f0e4146103ff578063f2c6c6fb14610412578063f3deb39114610425578063f77c479114610438578063ffa1ad741461044057600080fd5b806306efb7851461017f5780630e2ecde2146101a55780630e91f15e146101cb578063172ae49a146101eb57806319ab453c146102005780631c10968c14610213578063325a19f11461021b5780634593144c146102235780634675bfff1461022b5780634fac6ccd1461023e5780636742e2d61461025157806369c3d472146102745780636f383c0f1461029557806375a8e7da146102bd5780637cc96380146102dd575b600080fd5b61019261018d366004613d23565b610464565b6040519081526020015b60405180910390f35b6101b86101b3366004613d6c565b610479565b60405161ffff909116815260200161019c565b6101de6101d9366004613db2565b610484565b60405161019c9190613de7565b6101fe6101f9366004613d6c565b610490565b005b6101fe61020e366004613e2b565b6104a4565b61019261059e565b6101926105ad565b6101926105e1565b6101fe61023936600461413f565b610611565b6101fe61024c366004613e2b565b610622565b61026461025f3660046142cc565b610733565b604051901515815260200161019c565b6102876102823660046142cc565b610752565b60405161019c92919061454d565b6102a86102a336600461459c565b610779565b60405163ffffffff909116815260200161019c565b6102d06102cb366004613d6c565b61079c565b60405161019c919061465d565b6101926107ad565b6102f86102f3366004613d6c565b6107cb565b60405161019c91906146df565b610318610313366004614704565b6107d6565b60405161019c919061490a565b610349604051806040016040528060058152602001640312e302e360dc1b81525081565b60405161019c919061496d565b61035e610801565b60405161019c9190614980565b610373610831565b60405160039190910b815260200161019c565b6101fe610394366004614994565b610843565b6101fe6103a73660046149d9565b61085b565b6102646103ba366004613e2b565b61086c565b6102646103cd366004613d6c565b610891565b6103e56103e0366004613d6c565b61089c565b6040805160ff93841681529290911660208301520161019c565b61026461040d366004613e2b565b6108b1565b6101926104203660046142cc565b610936565b6101926104333660046142cc565b61094b565b61035e610958565b61034960405180604001604052806005815260200164312e312e3560d81b81525081565b60006104708383610988565b90505b92915050565b6000610473826109c1565b606061047083836109ee565b6104a161049b610958565b82610a2e565b50565b60006104ae610ae0565b805490915060ff600160401b82041615906001600160401b03166000811580156104d55750825b90506000826001600160401b031660011480156104f15750303b155b9050811580156104ff575080155b1561051d5760405163f92ee8a960e01b815260040160405180910390fd5b845467ffffffffffffffff19166001178555831561054757845460ff60401b1916600160401b1785555b61055086610b04565b831561059657845460ff60401b19168555604051600181527fc7f505b2f371ae2175ee4913f4499e1f2633a7b5936321eed1cdaeb6115181d29060200160405180910390a15b505050505050565b60006105a8610b15565b905090565b60006105a86105dd60017f6f55f470bdc9cb5f04223fd822021061668e4dccb43e8727b295106dc9769c8b614b21565b5490565b60006105a86105dd60017f812a673dfca07956350df10f8a654925f561d7a0da09bdbe79e653939a14d9f1614b21565b6104a161061c610958565b82610b28565b3330146106745760405162461bcd60e51b815260206004820152601b60248201527a24b731b932b0b9b2903932bb34b9b4b7b7103337b93134b23232b760291b60448201526064015b60405180910390fd5b60006106926105dd6001600080516020615639833981519152614b21565b61069d906001614b34565b90506106bf816106bc6001600080516020615639833981519152614b21565b55565b6106ee826106bc60017fbfaaa2fb63266ff27c2da975f5894955056f50419af651a81f6c5060581857e4614b21565b604080518281526001600160a01b03841660208201527ff27e2ef832a4eb8ed8ec553b875eecd44764cda95b1c24170e281539e0a869c8910160405180910390a15050565b6000610748610740610958565b858585610c1c565b90505b9392505050565b61075a613b49565b610762613bbb565b61076d858585610ca3565b91509150935093915050565b6000610790610786610958565b8787878787610d83565b90505b95945050505050565b6107a4613be2565b61047382610e10565b60006105a86105dd6001600080516020615639833981519152614b21565b600061047382610f63565b6107de613c0f565b6107f56107e9610958565b89898989898989610fb1565b98975050505050505050565b60006105a86105dd60017fbfaaa2fb63266ff27c2da975f5894955056f50419af651a81f6c5060581857e4614b21565b60006105a861083e610958565b61135c565b61085661084e610958565b84848461142d565b505050565b6104a1610866610958565b826114bc565b6000610876610958565b6001600160a01b0316826001600160a01b0316149050919050565b60006104738261159d565b6000806108a8836115e2565b91509150915091565b6000816001600160a01b03166108c5610958565b6001600160a01b0316635aa6e6756040518163ffffffff1660e01b8152600401602060405180830381865afa158015610902573d6000803e3d6000fd5b505050506040513d601f19601f820116820180604052508101906109269190614b52565b6001600160a01b03161492915050565b6000610748610943610958565b8585856115f0565b600061074884848461178c565b60006105a86105dd60017f5165972ef41194f06c5007493031d0b927c20741adcb74403b954009fd2c3618614b21565b60006109926117be565b60070160006109aa6001600160a01b038616856117e2565b815260200190815260200160002054905092915050565b60006109cb6117be565b63ffffffff909216600090815260059290920160205250604090205461ffff1690565b60606104706109fb6117be565b6001016000610a1b86866024811115610a1657610a1661430e565b611831565b8152602001908152602001600020611846565b610a3782611853565b6000610a416117be565b63ffffffff8316600090815260209190915260409020549050610a626117be565b63ffffffff831660008181526020929092526040822091909155610aa090610a886117be565b600084815260019190910160205260409020906118df565b5060405163ffffffff831681527f93afafd4d79cc89e4afba48bcd8cac7b8a35b45dfb55afe60cccae721124cd0f906020015b60405180910390a1505050565b7ff0c57e16840df040f15088dc2f81fe391c3923bec73e23a9662efc9c229c6a0090565b610b0c6118eb565b6104a181611912565b6000610b1f6117be565b60080154905090565b610b3182611853565b610b45816101800151826101a00151611a25565b6000610b5e826000015183604001518460200151611b5e565b905073__$a0fcfc253474aa5cdb2dbfa020c220d358$__6330f53b2c83610b836117be565b63ffffffff85166000908152600491820160205260409081902090516001600160e01b031960e086901b168152610bbb939201614bef565b60006040518083038186803b158015610bd357600080fd5b505af4158015610be7573d6000803e3d6000fd5b505050507f8ee0b45ff34ecba58a4014e0e0a9ebb97960cbfcae1e413072685b6b56b724fe8183604051610ad3929190614d83565b600080610c28836115e2565b915050610c99866001600160a01b031663524a562f6040518163ffffffff1660e01b8152600401602060405180830381865afa158015610c6c573d6000803e3d6000fd5b505050506040513d601f19601f82011682018060405250810190610c909190614b52565b84838888611bdf565b9695505050505050565b610cab613b49565b610cb3613bbb565b6000610cbd6117be565b6003016000610cd66001600160a01b0389168888611cfe565b8152602001908152602001600020549050610d10610cf26117be565b63ffffffff8616600090815260069190910160205260409020611d31565b9250610d78610d1d6117be565b63ffffffff8087166000908152600692909201602052604082206004019190610d53906001600160a01b038b16908a906117e216565b8152602001908152602001600020600083815260200190815260200160002054611f52565b915050935093915050565b6000610d8e87611fa0565b610e05610d996117be565b886001600160a01b031663524a562f6040518163ffffffff1660e01b8152600401602060405180830381865afa158015610dd7573d6000803e3d6000fd5b505050506040513d601f19601f82011682018060405250810190610dfb9190614b52565b8888888888612035565b979650505050505050565b610e18613be2565b610e206117be565b63ffffffff80841660009081526004929092016020908152604092839020835160a081018552815490931683526001810180548551818502810185019096528086529394919385840193830182828015610e9957602002820191906000526020600020905b815481526020019060010190808311610e85575b5050505050815260200160028201805480602002602001604051908101604052809291908181526020018280548015610ef157602002820191906000526020600020905b815481526020019060010190808311610edd575b505050505081526020016003820154815260200160048201805480602002602001604051908101604052809291908181526020018280548015610f5357602002820191906000526020600020905b815481526020019060010190808311610f3f575b5050505050815250509050919050565b600080610f91610f716117be565b63ffffffff85166000908152602091909152604090205490600882901c90565b91505061074b8160ff166024811115610fac57610fac61430e565b612168565b610fb9613c0f565b610fc289611fa0565b60408051610180810182526000918101829052606081018290526080810182905260e08101829052610120810182905261014081019190915263ffffffff871660c08201526001600160a01b03898116825286166020820152610100810185905260ff841660a0820152610160810183905261103d876115e2565b60ff90811660808401521660608201526001600160401b03881660e08201526110646117be565b600301600061107488888b61256a565b815260208101919091526040908101600020546101408301526001600160a01b038b16908201526110a3613c0f565b60006110c1836080015160ff166024811115610fac57610fac61430e565b60048111156110d2576110d261430e565b43610120850152905060001960ff82160161118e5773__$a0fcfc253474aa5cdb2dbfa020c220d358$__63bd9fe9db8461110a6117be565b63ffffffff8d166000908152600491820160205260409081902090516001600160e01b031960e086901b168152611142939201614fc6565b600060405180830381865af415801561115f573d6000803e3d6000fd5b505050506040513d6000823e601f3d908101601f19168201604052611187919081019061521c565b91506112b2565b60011960ff821601611259576111a48888612580565b73__$201d0d5baf5bd2c94d39dac94ac4e46c3c$__63307800a2846111c76117be565b60060160008d63ffffffff1663ffffffff1681526020019081526020016000206040518363ffffffff1660e01b8152600401611204929190614fc6565b600060405180830381865af4158015611221573d6000803e3d6000fd5b505050506040513d6000823e601f3d908101601f191682016040526112499190810190615250565b60ff1661012085015291506112b2565b60021960ff82160161129457611187836112716117be565b63ffffffff8c166000908152600591909101602052604090205461ffff166125fd565b604051634d07af3360e01b815260ff8216600482015260240161066b565b60c083015163ffffffff166101208301526001600160a01b038816604083015261016082018790526101408301516101808301527f67af56937d4d46082b2327381733f95fd39ed3df103ec0f3761eb315b463f5648a8a60ff8416600481111561131e5761131e61430e565b8b8b8b8961014001518c8a8c61012001516040516113459a999897969594939291906152a1565b60405180910390a1509a9950505050505050505050565b600080826001600160a01b031663c3dfdae66040518163ffffffff1660e01b8152600401602060405180830381865afa15801561139d573d6000803e3d6000fd5b505050506040513d601f19601f820116820180604052508101906113c19190614b52565b6001600160a01b03166318160ddd6040518163ffffffff1660e01b8152600401602060405180830381865afa1580156113fe573d6000803e3d6000fd5b505050506040513d601f19601f820116820180604052508101906114229190615332565b905061074b816128de565b61143684611853565b6000611443838386611b5e565b90508361144e6117be565b63ffffffff831660008181526005929092016020908152604092839020805461ffff191661ffff9586161790558251918252928716928101929092527f9df2729723fcb63a4f46ffc16905a683f7eb0e8dd3ec260515e66b4d4cd8c0ad910160405180910390a15050505050565b6114c582611853565b6114d9816101800151826101a00151611a25565b60006114f2826020015183604001518460000151611b5e565b90506114fc6117be565b63ffffffff8216600090815260069190910160205260408120906115208282613c85565b600182016000905560028201600090556003820160006115409190613c85565b505061156c8261154e6117be565b63ffffffff8416600090815260069190910160205260409020612929565b7fe9039f79f66d71725ba719a022b5729bbfce163887322d74e690772fe247fa4b8183604051610ad392919061534b565b6000806115ab610f716117be565b9150600290506115c98260ff166024811115610fac57610fac61430e565b60048111156115da576115da61430e565b149392505050565b6000806108a8610f716117be565b60006115fb85611fa0565b611606848484612acd565b90506000611613836115e2565b91505060006116308260ff166024811115610fac57610fac61430e565b60048111156116415761164161430e565b905060001960ff821601156117825760011960ff821601611757576117526116676117be565b60060160008663ffffffff1663ffffffff1681526020019081526020016000208787868b6001600160a01b031663c3dfdae66040518163ffffffff1660e01b8152600401602060405180830381865afa1580156116c8573d6000803e3d6000fd5b505050506040513d601f19601f820116820180604052508101906116ec9190614b52565b6001600160a01b03166318160ddd6040518163ffffffff1660e01b8152600401602060405180830381865afa158015611729573d6000803e3d6000fd5b505050506040513d601f19601f8201168201806040525081019061174d9190615332565b612b22565b611782565b60021960ff821601156117825760405163cafe050760e01b815260ff8216600482015260240161066b565b5050949350505050565b60006117966117be565b60030160006117a686868661256a565b81526020019081526020016000205490509392505050565b7ffa9e067a92ca4a9057b7b4465a8f29d633e1758238bd3a4a8ec5d0f904f6b90090565b60006001600160401b0382111561180f57604051633995b34160e01b81526004810183905260240161066b565b50600160a01b600160e01b0360a09190911b166001600160a01b039091161790565b600060ff8316600883901b61ff001617610470565b6060600061074b83612b32565b604051631430d62960e21b81526001600160a01b038216906350c358a49061187f903390600401614980565b602060405180830381865afa15801561189c573d6000803e3d6000fd5b505050506040513d601f19601f820116820180604052508101906118c0919061536a565b6104a1573360405163451cea1760e11b815260040161066b9190614980565b60006104708383612b8e565b6118f3612c88565b61191057604051631afcd79f60e31b815260040160405180910390fd5b565b6001600160a01b03811661195a5760405162461bcd60e51b815260206004820152600f60248201526e2d32b9379031b7b73a3937b63632b960891b604482015260640161066b565b611989816106bc60017f5165972ef41194f06c5007493031d0b927c20741adcb74403b954009fd2c3618614b21565b6119b8426106bc60017f6f55f470bdc9cb5f04223fd822021061668e4dccb43e8727b295106dc9769c8b614b21565b6119e7436106bc60017f812a673dfca07956350df10f8a654925f561d7a0da09bdbe79e653939a14d9f1614b21565b7f1a2dd071001ebf6e03174e3df5b305795a4ad5d41d8fdb9ba41dbbe236713426814243604051611a1a93929190615385565b60405180910390a150565b815181518114611a485760405163586cb9e160e01b815260040160405180910390fd5b60005b81811015611b585760006001600160a01b0316848281518110611a7057611a706153a6565b60200260200101516001600160a01b031603611a9f5760405163d92e233d60e01b815260040160405180910390fd5b828181518110611ab157611ab16153a6565b602002602001015163ffffffff16600003611adf5760405163eb79f4eb60e01b815260040160405180910390fd5b633b9aca0063ffffffff16838281518110611afc57611afc6153a6565b602002602001015163ffffffff161115611b5057828181518110611b2257611b226153a6565b60200260200101516040516304470bfd60e21b815260040161066b919063ffffffff91909116815260200190565b600101611a4b565b50505050565b600080611b696117be565b9050611b8785856024811115611b8157611b8161430e565b85612ca2565b91506000611ba186866024811115610a1657610a1661430e565b63ffffffff808516600081815260208681526040808320869055858352600188019091529020929350611bd59291612d9716565b5050509392505050565b600080611bfa8560ff166024811115610fac57610fac61430e565b90506001816004811115611c1057611c1061430e565b03611c1f576001915050610793565b6002816004811115611c3357611c3361430e565b03611c42576001915050610793565b6003816004811115611c5657611c5661430e565b03611ce057604051630152f74f60e41b815263ffffffff871660048201526001600160a01b0385811660248301526044820185905288169063152f74f090606401602060405180830381865afa158015611cb4573d6000803e3d6000fd5b505050506040513d601f19601f82011682018060405250810190611cd8919061536a565b915050610793565b604051630dad26cb60e31b815260ff8616600482015260240161066b565b6001600160a01b039290921660a09190911b600160a01b600160e01b03161760e09190911b6001600160e01b0319161790565b611d39613b49565b611d41613b49565b611d9c83600001805480602002602001604051908101604052809291908181526020018280548015611d9257602002820191906000526020600020905b815481526020019060010190808311611d7e575b5050505050612da3565b606083015260808201526001830154600881901c601082901c603083901c60ff90811661010086015263ffffffff90911660e085015290811660c08401521660a08201526002830154611df660a082901c9060e083901c90565b60ff166101608401526001600160401b039081166101408401526001600160a01b039091166101208301526003840154908190811115611e3857611e38613e48565b604051908082528060200260200182016040528015611e61578160200160208202803683370190505b50610180830152806001600160401b03811115611e8057611e80613e48565b604051908082528060200260200182016040528015611ea9578160200160208202803683370190505b506101a083015260005b81811015611f4957611ee7856003018281548110611ed357611ed36153a6565b90600052602060002001549060a082901c90565b8461018001518381518110611efe57611efe6153a6565b60200260200101856101a001518481518110611f1c57611f1c6153a6565b63ffffffff909316602093840291909101909201919091526001600160a01b039091169052600101611eb3565b50909392505050565b611f5a613bbb565b506040805160808101825260ff8381166001148252604884901c166020820152602883901c60030b9181019190915263ffffffff60089290921c91909116606082015290565b336001600160a01b0316816001600160a01b031663683fedf76040518163ffffffff1660e01b8152600401602060405180830381865afa158015611fe8573d6000803e3d6000fd5b505050506040513d601f19601f8201168201806040525081019061200c9190614b52565b6001600160a01b0316146104a1573360405163cf219bef60e01b815260040161066b9190614980565b600080612045878761309461312a565b905060008960010160006120598885611831565b81526020019081526020016000209050600061207482613333565b9050806000036120975760405163296a76c760e21b815260040160405180910390fd5b6000816001146120b9576120b46120af600184614b21565b613094565b6120bc565b60005b9050600060028d018160ff60e81b60e88c901b1660ff60e01b60e089901b16600160a01b600160e01b0360a08c901b166001600160a01b038d161717178152602001908152602001600020905061211b8c8486848660008e8e8d61333d565b95508563ffffffff1660000361214457604051639cb04d5d60e01b815260040160405180910390fd5b6121578163ffffffff80891690612d9716565b505050505050979650505050505050565b6000600482602481111561217e5761217e61430e565b148061219b575060058260248111156121995761219961430e565b145b806121b7575060088260248111156121b5576121b561430e565b145b156121c457506001919050565b60018260248111156121d8576121d861430e565b14806121f5575060028260248111156121f3576121f361430e565b145b806122115750600382602481111561220f5761220f61430e565b145b8061222d5750600a82602481111561222b5761222b61430e565b145b80612249575060208260248111156122475761224761430e565b145b80612265575060218260248111156122635761226361430e565b145b806122815750602282602481111561227f5761227f61430e565b145b8061229d5750602382602481111561229b5761229b61430e565b145b156122aa57506002919050565b60068260248111156122be576122be61430e565b14806122db575060078260248111156122d9576122d961430e565b145b806122f75750600b8260248111156122f5576122f561430e565b145b806123135750600c8260248111156123115761231161430e565b145b8061232f5750600d82602481111561232d5761232d61430e565b145b8061234b5750600e8260248111156123495761234961430e565b145b806123675750600f8260248111156123655761236561430e565b145b80612383575060108260248111156123815761238161430e565b145b8061239f5750601182602481111561239d5761239d61430e565b145b806123bb575060128260248111156123b9576123b961430e565b145b806123d7575060138260248111156123d5576123d561430e565b145b806123f3575060148260248111156123f1576123f161430e565b145b8061240f5750601582602481111561240d5761240d61430e565b145b8061242b575060168260248111156124295761242961430e565b145b80612447575060178260248111156124455761244561430e565b145b80612463575060188260248111156124615761246161430e565b145b8061247f5750601982602481111561247d5761247d61430e565b145b8061249b5750601a8260248111156124995761249961430e565b145b806124b75750601b8260248111156124b5576124b561430e565b145b806124d35750601c8260248111156124d1576124d161430e565b145b806124ef5750601d8260248111156124ed576124ed61430e565b145b8061250b5750601e8260248111156125095761250961430e565b145b806125275750601f8260248111156125255761252561430e565b145b1561253457506003919050565b8160248111156125465761254661430e565b6040516302f13cad60e41b815260ff909116600482015260240161066b565b919050565b60006107486001600160a01b0385168484611cfe565b600061258a6117be565b905060006125a16001600160a01b038516846117e2565b6008830154600082815260078501602052604090205491925042916125c69190614b34565b11156125e55760405163051211b760e11b815260040160405180910390fd5b60009081526007909101602052604090204290555050565b612605613c0f565b8161ffff1660000361262a57604051635c5e6bb360e11b815260040160405180910390fd5b82604001516001600160a01b031663524a562f6040518163ffffffff1660e01b8152600401602060405180830381865afa15801561266c573d6000803e3d6000fd5b505050506040513d601f19601f820116820180604052508101906126909190614b52565b6001600160a01b0316631c1b0daa84600001518560e001518660c001518760a0015188602001518961010001518a606001518b61014001518c61016001516040518a63ffffffff1660e01b81526004016126f2999897969594939291906153bc565b6000604051808303816000875af1158015612711573d6000803e3d6000fd5b505050506040513d6000823e601f3d908101601f19168201604052612739919081019061521c565b9050806020015180612749575080515b1561047357600083604001516001600160a01b0316628e96916040518163ffffffff1660e01b8152600401602060405180830381865afa158015612791573d6000803e3d6000fd5b505050506040513d601f19601f820116820180604052508101906127b59190614b52565b905060006127c28461340c565b6020860151610100870151604051631c2aafe760e01b81529293506000926001600160a01b03861692631c2aafe7926127ff928790600401615385565b602060405180830381865afa15801561281c573d6000803e3d6000fd5b505050506040513d601f19601f820116820180604052508101906128409190615332565b9050826001600160a01b031663184f614387602001518861010001518585600161286a9190614b34565b6040516001600160e01b031960e087901b1681526001600160a01b039094166004850152602484019290925260448301526064820152608401600060405180830381600087803b1580156128bd57600080fd5b505af11580156128d1573d6000803e3d6000fd5b5050505050505092915050565b60006128f6600a6a084595161401484a00000061544b565b82101561290557506000919050565b6a084595161401484a00000061291f83633b9aca0061545f565b610473919061544b565b6060820151608083015161293c91613443565b805161294f918391602090910190613ca3565b5060a082015160c083015160e084015161010085015160ff90931660089290921b61ff00169190911760109190911b65ffffffff0000161760309190911b60ff60301b161760018201556101208201516101408301516101608401516001600160a01b0390921660a09190911b600160a01b600160e01b03161760e09190911b60ff60e01b16176002820155610180820151516000816001600160401b038111156129fc576129fc613e48565b604051908082528060200260200182016040528015612a25578160200160208202803683370190505b50905060005b82811015612ab057612a8b856101a001518281518110612a4d57612a4d6153a6565b60200260200101518661018001518381518110612a6c57612a6c6153a6565b60200260200101516001600160a01b03166136a190919063ffffffff16565b828281518110612a9d57612a9d6153a6565b6020908102919091010152600101612a2b565b508051612ac69060038501906020840190613ca3565b5050505050565b600080612ad86117be565b90506000612ae786868661256a565b6000818152600384016020526040902054909150612b06906001614b34565b6000918252600390920160205260409020819055949350505050565b612ac6858585856136bf866136ca565b606081600001805480602002602001604051908101604052809291908181526020018280548015612b8257602002820191906000526020600020905b815481526020019060010190808311612b6e575b50505050509050919050565b60008181526001830160205260408120548015612c77576000612bb2600183614b21565b8554909150600090612bc690600190614b21565b9050808214612c2b576000866000018281548110612be657612be66153a6565b9060005260206000200154905080876000018481548110612c0957612c096153a6565b6000918252602080832090910192909255918252600188019052604090208390555b8554869080612c3c57612c3c615476565b600190038181906000526020600020016000905590558560010160008681526020019081526020016000206000905560019350505050610473565b6000915050610473565b5092915050565b6000612c92610ae0565b54600160401b900460ff16919050565b600060ff84161580612cb5575060ff8316155b80612cc2575061ffff8216155b15612ce05760405163273e150360e21b815260040160405180910390fd5b60648460ff1610612d09576040516340eff0e560e01b815260ff8516600482015260240161066b565b60648360ff1610612d325760405163017c4c5960e01b815260ff8416600482015260240161066b565b6127108261ffff161115612d5f57604051637dc12d1d60e01b815261ffff8316600482015260240161066b565b61ffff8216612d7360ff851661271061548c565b612d8360ff8716620f424061548c565b612d8d91906154b4565b61074891906154b4565b600061047083836137b3565b805160609081906000612db782600861545f565b90506000816001600160401b03811115612dd357612dd3613e48565b604051908082528060200260200182016040528015612dfc578160200160208202803683370190505b5090506000826001600160401b03811115612e1957612e19613e48565b604051908082528060200260200182016040528015612e42578160200160208202803683370190505b5090506000805b85811015612f6f5760005b6008811015612f6657600081612e6b84600861545f565b612e759190614b34565b9050612e8282602061545f565b8b8481518110612e9457612e946153a6565b602002602001015160001c901c60020b868281518110612eb657612eb66153a6565b60039290920b602092830291909101820152612ed390839061545f565b612ede906018614b34565b8b8481518110612ef057612ef06153a6565b602002602001015160001c901c858281518110612f0f57612f0f6153a6565b602002602001019060ff16908160ff1681525050858181518110612f3557612f356153a6565b602002602001015160030b600003612f4d5750612f66565b83612f57816154d1565b94505050806001019050612e54565b50600101612e49565b50806001600160401b03811115612f8857612f88613e48565b604051908082528060200260200182016040528015612fb1578160200160208202803683370190505b509650806001600160401b03811115612fcc57612fcc613e48565b604051908082528060200260200182016040528015612ff5578160200160208202803683370190505b50955060005b8181101561308957838181518110613015576130156153a6565b602002602001015188828151811061302f5761302f6153a6565b602002602001019060030b908160030b81525050828181518110613055576130556153a6565b602002602001015187828151811061306f5761306f6153a6565b60ff90921660209283029190910190910152600101612ffb565b505050505050915091565b6000816000036130a657506000919050565b6130b1826001614b34565b4340414443423a5a604051602001613107979695949392919096875260609590951b6001600160601b0319166020870152603486019390935260548501919091526074840152609483015260b482015260d40190565b6040516020818303038152906040528051906020012060001c61047391906154ea565b825160009080158061313d575083518114155b1561315b5760405163360ee06360e21b815260040160405180910390fd5b806001036131855784600081518110613176576131766153a6565b60200260200101519150613304565b6000613198633b9aca0063ffffffff8616565b905060006131ab633b9aca0060016154b4565b63ffffffff16905060005b83811015613300578781815181106131d0576131d06153a6565b602002602001015160ff16600003156132f857633b9aca0063ffffffff16878281518110613200576132006153a6565b602002602001015163ffffffff16111561325d57868181518110613226576132266153a6565b6020908102919091010151604051631b4fdad960e11b815263ffffffff9091166004820152633b9aca00602482015260440161066b565b82878281518110613270576132706153a6565b6020026020010151633b9aca0061328791906154fe565b63ffffffff16116132f857818782815181106132a5576132a56153a6565b602002602001015163ffffffff1610156132f8578681815181106132cb576132cb6153a6565b602002602001015163ffffffff1691508781815181106132ed576132ed6153a6565b602002602001015194505b6001016131b6565b5050505b8160ff1660000361332b5760405163b3cea44d60e01b81526000600482015260240161066b565b509392505050565b6000610473825490565b60008861334988613333565b1061335b576001945061335b87613802565b6000805b8a8110156133ce578a881061337357600097505b600061337f8b8a613850565b905061338e8d82878a8a611bdf565b80156133b1575087806133b157506133af8a63ffffffff8084169061385c16565b155b156133c1579250600191506133ce565b506001978801970161335f565b50801580156133db575085155b156133fe576133e988613802565b6133fb8b8b8b8b8b60018b8b8b61333d565b91505b509998505050505050505050565b600061341b8261ffff16613874565b60405160200161342b919061551b565b60405160208183030381529060405261047390615549565b606081518351146134675760405163586cb9e160e01b815260040160405180910390fd5b600060088451613477919061544b565b613482906001614b34565b90506000816001600160401b0381111561349e5761349e613e48565b6040519080825280602002602001820160405280156134c7578160200160208202803683370190505b50905060005b828110156136985760005b600881101561368f576000816134ef84600861545f565b6134f99190614b34565b905087518110613509575061368f565b627fffff60020b888281518110613522576135226153a6565b602002602001015160030b138061355b5750627fffff1960020b88828151811061354e5761354e6153a6565b602002602001015160030b125b1561359957878181518110613572576135726153a6565b602002602001015160030b604051632eb1d06960e01b815260040161066b91815260200190565b8781815181106135ab576135ab6153a6565b602002602001015160030b6000036135d657604051637c946ed760e01b815260040160405180910390fd5b6135e182602061545f565b8882815181106135f3576135f36153a6565b602002602001015162ffffff1660001b901b848481518110613617576136176153a6565b602002602001018181511791508181525050816020613636919061545f565b613641906018614b34565b878281518110613653576136536153a6565b602002602001015160ff1660001b901b848481518110613675576136756153a6565b6020908102919091010180519091179052506001016134d8565b506001016134cd565b50949350505050565b63ffffffff60a01b60a09190911b166001600160a01b039091161790565b600061047382613094565b6040805160808101825260018152600060208201819052918101829052606081016136fc633b9aca0063ffffffff8716565b63ffffffff1690529050600061371188611d31565b9050600061373a826060015183608001518560600151613730886128de565b8660e0015161397c565b50905080600981518110613750576137506153a6565b602090810291909101015160030b604084015261376c83613a41565b60048a0160006137856001600160a01b038c168b6117e2565b8152602001908152602001600020600088815260200190815260200160002081905550505050505050505050565b60008181526001830160205260408120546137fa57508154600181810184556000848152602080822090930184905584548482528286019093526040902091909155610473565b506000610473565b600061380d82611846565b905060005b815181101561085657613847828281518110613830576138306153a6565b6020026020010151846118df90919063ffffffff16565b50600101613812565b60006104708383613a5f565b60008181526001830160205260408120541515610470565b60608160000361389b5750506040805180820190915260018152600360fc1b602082015290565b8160005b81156138c557806138af816154d1565b91506138be9050600a8361544b565b915061389f565b6000816001600160401b038111156138df576138df613e48565b6040519080825280601f01601f191660200182016040528015613909576020820181803683370190505b5090505b84156139745761391e600183614b21565b915061392b600a866154ea565b613936906030614b34565b60f81b81838151811061394b5761394b6153a6565b60200101906001600160f81b031916908160001a90535061396d600a8661544b565b945061390d565b949350505050565b6060600061398b600486615570565b60408051602b8082526105808201909252919650602082016105608036833701905050915060005b8751811015613a29576139e08782815181106139d1576139d16153a6565b60200260200101518787613a89565b838983815181106139f3576139f36153a6565b602002602001015160ff1681518110613a0e57613a0e6153a6565b60039290920b602092830291909101909101526001016139b3565b50613a35838686613a89565b90509550959350505050565b60006104738260000151836060015184604001518560200151613af5565b6000826000018281548110613a7657613a766153a6565b9060005260206000200154905092915050565b60008360030b600003613a9e5750600061074b565b633b9aca00613ab4600384810b9087900b615593565b613abe91906155c3565b633b9aca00613ad763ffffffff8616600388900b615593565b613ae191906155c3565b613aeb91906155f1565b6107489085615611565b600084613b03576000613b06565b60015b60ff1660001b905060088463ffffffff1660001b901b8117905060288363ffffffff1660001b901b8117905060488260ff1660001b901b81179050949350505050565b604080516101c081018252600080825260208201819052909182019081526060602082018190526040820181905260008183018190526080830181905260a0830181905260c0830181905260e08301819052610100830181905261012083015261014082018190526101609091015290565b60408051608081018252600080825260208201819052918101829052606081019190915290565b6040805160a081018252600080825260606020830181905292820183905282820152608081019190915290565b604080516101c08101825260008082526020820181905291810182905260608082018190526080820183905260a0820183905260c0820183905260e0820183905261010082018390526101208201839052610140820183905261016082018390526101808201929092526101a081019190915290565b50805460008255906000526020600020908101906104a19190613cee565b828054828255906000526020600020908101928215613cde579160200282015b82811115613cde578251825591602001919060010190613cc3565b50613cea929150613cee565b5090565b5b80821115613cea5760008155600101613cef565b6001600160a01b03811681146104a157600080fd5b803561256581613d03565b60008060408385031215613d3657600080fd5b8235613d4181613d03565b946020939093013593505050565b63ffffffff811681146104a157600080fd5b803561256581613d4f565b600060208284031215613d7e57600080fd5b813561074b81613d4f565b60ff811681146104a157600080fd5b803561256581613d89565b80356025811061256557600080fd5b60008060408385031215613dc557600080fd5b8235613dd081613d89565b9150613dde60208401613da3565b90509250929050565b6020808252825182820181905260009190848201906040850190845b81811015613e1f57835183529284019291840191600101613e03565b50909695505050505050565b600060208284031215613e3d57600080fd5b813561074b81613d03565b634e487b7160e01b600052604160045260246000fd5b6040516101c081016001600160401b0381118282101715613e8157613e81613e48565b60405290565b604051601f8201601f191681016001600160401b0381118282101715613eaf57613eaf613e48565b604052919050565b803561ffff8116811461256557600080fd5b60006001600160401b03821115613ee257613ee2613e48565b5060051b60200190565b600082601f830112613efd57600080fd5b81356020613f12613f0d83613ec9565b613e87565b8083825260208201915060208460051b870101935086841115613f3457600080fd5b602086015b84811015613f59578035613f4c81613d89565b8352918301918301613f39565b509695505050505050565b8060030b81146104a157600080fd5b803561256581613f64565b600082601f830112613f8f57600080fd5b81356020613f9f613f0d83613ec9565b8083825260208201915060208460051b870101935086841115613fc157600080fd5b602086015b84811015613f59578035613fd981613f64565b8352918301918301613fc6565b600060408284031215613ff857600080fd5b604051604081016001600160401b03828210818311171561401b5761401b613e48565b81604052829350843591508082111561403357600080fd5b61403f86838701613eec565b8352602085013591508082111561405557600080fd5b5061406285828601613f7e565b6020830152505092915050565b600082601f83011261408057600080fd5b81356020614090613f0d83613ec9565b8083825260208201915060208460051b8701019350868411156140b257600080fd5b602086015b84811015613f595780356140ca81613d03565b83529183019183016140b7565b600082601f8301126140e857600080fd5b813560206140f8613f0d83613ec9565b8083825260208201915060208460051b87010193508684111561411a57600080fd5b602086015b84811015613f5957803561413281613d4f565b835291830191830161411f565b60006020828403121561415157600080fd5b81356001600160401b038082111561416857600080fd5b908301906101c0828603121561417d57600080fd5b614185613e5e565b61418e83613d98565b815261419c60208401613eb7565b60208201526141ad60408401613da3565b60408201526141be60608401613d61565b60608201526080830135828111156141d557600080fd5b6141e187828601613fe6565b60808301525060a0830135828111156141f957600080fd5b61420587828601613fe6565b60a08301525061421760c08401613d61565b60c082015261422860e08401613f73565b60e082015261010061423b818501613f73565b9082015261012061424d848201613f73565b9082015261014061425f848201613f73565b90820152610160614271848201613f73565b90820152610180838101358381111561428957600080fd5b6142958882870161406f565b8284015250506101a080840135838111156142af57600080fd5b6142bb888287016140d7565b918301919091525095945050505050565b6000806000606084860312156142e157600080fd5b83356142ec81613d03565b925060208401359150604084013561430381613d4f565b809150509250925092565b634e487b7160e01b600052602160045260246000fd5b602581106143345761433461430e565b9052565b60008151808452602080850194506020840160005b8381101561436c57815160ff168752958201959082019060010161434d565b509495945050505050565b60008151808452602080850194506020840160005b8381101561436c57815160030b8752958201959082019060010161438c565b6001600160a01b03169052565b60008151808452602080850194506020840160005b8381101561436c5781516001600160a01b0316875295820195908201906001016143cd565b60008151808452602080850194506020840160005b8381101561436c57815163ffffffff1687529582019590820190600101614407565b805161ffff16825260006101c0602083015161444a602086018260ff169052565b50604083015161445d6040860182614324565b50606083015181606086015261447582860182614338565b9150506080830151848203608086015261448f8282614377565b91505060a08301516144a660a086018260ff169052565b5060c08301516144bb60c086018260ff169052565b5060e08301516144d360e086018263ffffffff169052565b506101008381015160ff1690850152610120808401516144f5828701826143ab565b5050610140838101516001600160401b0316908501526101608084015160ff1690850152610180808401518583038287015261453183826143b8565b925050506101a08084015185830382870152610c9983826143f2565b60a08152600061456060a0830185614429565b905082511515602083015260ff6020840151166040830152604083015160030b606083015263ffffffff60608401511660808301529392505050565b600080600080600060a086880312156145b457600080fd5b85356001600160401b03808211156145cb57600080fd5b6145d789838a01613eec565b965060208801359150808211156145ed57600080fd5b506145fa888289016140d7565b945050604086013561460b81613d89565b9250606086013561461b81613d03565b949793965091946080013592915050565b60008151808452602080850194506020840160005b8381101561436c57815187529582019590820190600101614641565b6020815263ffffffff82511660208201526000602083015160a0604084015261468960c084018261462c565b90506040840151601f19808584030160608601526146a7838361462c565b92506060860151608086015260808601519150808584030160a086015250610793828261462c565b600581106143345761433461430e565b6020810161047382846146cf565b80356001600160401b038116811461256557600080fd5b600080600080600080600060e0888a03121561471f57600080fd5b873561472a81613d03565b965060206147398982016146ed565b9650604089013561474981613d4f565b9550606089013561475981613d03565b94506080890135935060a089013561477081613d89565b925060c08901356001600160401b038082111561478c57600080fd5b818b0191508b601f8301126147a057600080fd5b8135818111156147b2576147b2613e48565b6147c4601f8201601f19168501613e87565b91508082528c848285010111156147da57600080fd5b808484018584013760008482840101525080935050505092959891949750929550565b80511515825260006101c0602083015161481b602086018215159052565b50604083015161482e60408601826143ab565b506060830151816060860152614846828601826143b8565b915050608083015161485d608086018260030b9052565b5060a083015161487260a086018260030b9052565b5060c083015161488760c086018260030b9052565b5060e083015161489c60e086018260030b9052565b50610100808401516148b28287018260030b9052565b50506101208381015163ffffffff81168683015250506101408381015163ffffffff8116868301525050610160838101519085015261018080840151908501526101a08084015185830382870152610c9983826143f2565b60208152600061047060208301846147fd565b60005b83811015614938578181015183820152602001614920565b50506000910152565b6000815180845261495981602086016020860161491d565b601f01601f19169290920160200192915050565b6020815260006104706020830184614941565b6001600160a01b0391909116815260200190565b6000806000606084860312156149a957600080fd5b6149b284613eb7565b925060208401356149c281613d89565b91506149d060408501613da3565b90509250925092565b6000602082840312156149eb57600080fd5b81356001600160401b0380821115614a0257600080fd5b908301906101c08286031215614a1757600080fd5b614a1f613e5e565b614a2883613eb7565b8152614a3660208401613d98565b6020820152614a4760408401613da3565b6040820152606083013582811115614a5e57600080fd5b614a6a87828601613eec565b606083015250608083013582811115614a8257600080fd5b614a8e87828601613f7e565b608083015250614aa060a08401613d98565b60a0820152614ab160c08401613d98565b60c0820152614ac260e08401613d61565b60e0820152610100614ad5818501613d98565b90820152610120614ae7848201613d18565b90820152610140614af98482016146ed565b90820152610160614271848201613d98565b634e487b7160e01b600052601160045260246000fd5b8181038181111561047357610473614b0b565b8082018082111561047357610473614b0b565b805161256581613d03565b600060208284031215614b6457600080fd5b815161074b81613d03565b805160408084528151908401819052600091602091908201906060860190845b81811015614bae57835160ff1683529284019291840191600101614b8f565b50508483015186820387850152805180835290840192506000918401905b80831015613f5957835160030b8252928401926001929092019190840190614bcc565b60408152614c0360408201845160ff169052565b60006020840151614c1a606084018261ffff169052565b506040840151614c2d6080840182614324565b50606084015163ffffffff1660a083015260808401516101c060c08401819052614c5b610200850183614b6f565b915060a0860151603f19808685030160e0870152614c798483614b6f565b935060c08801519150610100614c968188018463ffffffff169052565b60e08901519250610120614cae8189018560030b9052565b90890151925061014090614cc68883018560030b9052565b8901519250610160614cdc8882018560030b9052565b90890151925061018090614cf48883018560030b9052565b89015192506101a0614d0a8882018560030b9052565b818a01519350828887030185890152614d2386856143b8565b9550808a01519450505080868503016101e08701525050614d4482826143f2565b925050508260208301529392505050565b6000815160408452614d6a6040850182614338565b9050602083015184820360208601526107938282614377565b63ffffffff8316815260406020820152614da360408201835160ff169052565b60006020830151614dba606084018261ffff169052565b506040830151614dcd6080840182614324565b50606083015163ffffffff1660a083015260808301516101c060c08401819052614dfb610200850183614d55565b915060a0850151603f19808685030160e0870152614e198483614d55565b935060c08701519150610100614e368188018463ffffffff169052565b60e08801519250610120614e4e8189018560030b9052565b90880151925061014090614e668883018560030b9052565b8801519250610160614e7c8882018560030b9052565b90880151925061018090614e948883018560030b9052565b88015192506101a0614eaa8882018560030b9052565b818901519350828887030185890152614ec386856143b8565b9550808901519450505080868503016101e08701525050610c9982826143f2565b6000610180614ef48484516143ab565b6020830151614f0660208601826143ab565b506040830151614f1960408601826143ab565b506060830151614f2e606086018260ff169052565b506080830151614f43608086018260ff169052565b5060a0830151614f5860a086018260ff169052565b5060c0830151614f7060c086018263ffffffff169052565b5060e0830151614f8b60e08601826001600160401b03169052565b5061010083810151908501526101208084015190850152610140808401519085015261016080840151818601839052610c9983870182614941565b604081526000614fd96040830185614ee4565b90508260208301529392505050565b8051801515811461256557600080fd5b600082601f83011261500957600080fd5b81516020615019613f0d83613ec9565b8083825260208201915060208460051b87010193508684111561503b57600080fd5b602086015b84811015613f5957805161505381613d03565b8352918301918301615040565b805161256581613f64565b805161256581613d4f565b600082601f83011261508757600080fd5b81516020615097613f0d83613ec9565b8083825260208201915060208460051b8701019350868411156150b957600080fd5b602086015b84811015613f595780516150d181613d4f565b83529183019183016150be565b60006101c082840312156150f157600080fd5b6150f9613e5e565b905061510482614fe8565b815261511260208301614fe8565b602082015261512360408301614b47565b604082015260608201516001600160401b038082111561514257600080fd5b61514e85838601614ff8565b606084015261515f60808501615060565b608084015261517060a08501615060565b60a084015261518160c08501615060565b60c084015261519260e08501615060565b60e084015261010091506151a7828501615060565b8284015261012091506151bb82850161506b565b8284015261014091506151cf82850161506b565b8284015261016091508184015182840152610180915081840151828401526101a09150818401518181111561520357600080fd5b61520f86828701615076565b8385015250505092915050565b60006020828403121561522e57600080fd5b81516001600160401b0381111561524457600080fd5b613974848285016150de565b6000806040838503121561526357600080fd5b82516001600160401b0381111561527957600080fd5b615285858286016150de565b925050602083015161529681613d89565b809150509250929050565b60006101406001600160401b038d16835263ffffffff8c1660208401526152cb604084018c6146cf565b6001600160a01b038a1660608401526080830189905260ff881660a084015260c0830187905260e0830181905261530481840187614941565b905082810361010084015261531981866147fd565b915050826101208301529b9a5050505050505050505050565b60006020828403121561534457600080fd5b5051919050565b63ffffffff831681526040602082015260006107486040830184614429565b60006020828403121561537c57600080fd5b61047082614fe8565b6001600160a01b039390931683526020830191909152604082015260600190565b634e487b7160e01b600052603260045260246000fd5b6001600160a01b038a811682526001600160401b038a16602083015263ffffffff8916604083015260ff8881166060840152908716608083015260a08201869052841660c082015260e08101839052610120610100820181905260009061542583820185614941565b9c9b505050505050505050505050565b634e487b7160e01b600052601260045260246000fd5b60008261545a5761545a615435565b500490565b808202811582820484141761047357610473614b0b565b634e487b7160e01b600052603160045260246000fd5b63ffffffff8181168382160280821691908281146154ac576154ac614b0b565b505092915050565b63ffffffff818116838216019080821115612c8157612c81614b0b565b6000600182016154e3576154e3614b0b565b5060010190565b6000826154f9576154f9615435565b500690565b63ffffffff828116828216039080821115612c8157612c81614b0b565b6553544f52595f60d01b81526000825161553c81600685016020870161491d565b9190910160060192915050565b8051602080830151919081101561556a576000198160200360031b1b821691505b50919050565b600063ffffffff8084168061558757615587615435565b92169190910492915050565b80820260008212600160ff1b841416156155af576155af614b0b565b818105831482151761047357610473614b0b565b6000826155d2576155d2615435565b600160ff1b8214600019841416156155ec576155ec614b0b565b500590565b80820182811260008312801582168215821617156154ac576154ac614b0b565b600381810b9083900b01637fffffff8113637fffffff198212171561047357610473614b0b56fe22573091f17911fb166032a3d9e0554aa73d31b7b7ddea4a4dd2995650af84bda2646970667358221220ed6baff2689d3600f717d13f4f4f0bcadb77980715026884bf574c8be211f94964736f6c63430008170033",
  "libraries": {
    "EventLib": "0x2b710976fCEd1f3178A84e9F93c9FD8467f5289B",
    "StoryLib": "0xf43ed1FcC891782f35d2Ce41ddf01074A0F428cF",
    "MonsterLib": "0x69d45bb1F4237b5A6fFe12Bca3Db0EeE2d06bB2D",
    "GOCLib": "0xFAB0E5C9DFEcE8279a852083E063cace18845A66"
  },
  "devdoc": {
    "errors": {
      "InvalidInitialization()": [
        {
          "details": "The contract is already initialized."
        }
      ],
      "NotInitializing()": [
        {
          "details": "The contract is not initializing."
        }
      ]
    },
    "events": {
      "Initialized(uint64)": {
        "details": "Triggered when the contract has been initialized or reinitialized."
      }
    },
    "kind": "dev",
    "methods": {
      "created()": {
        "returns": {
          "_0": "Creation timestamp"
        }
      },
      "createdBlock()": {
        "returns": {
          "_0": "Creation block number"
        }
      },
      "getObjectMeta(uint32)": {
        "details": "represent object registration if non zero values"
      },
      "getRandomObject(uint8[],uint32[],uint8,address,uint256)": {
        "details": "Chances in range 0-1e9"
      },
      "increaseRevision(address)": {
        "details": "Revision should be increased on each contract upgrade"
      },
      "isController(address)": {
        "details": "Return true if given address is controller"
      },
      "previousImplementation()": {
        "details": "Previous logic implementation"
      },
      "revision()": {
        "details": "Contract upgrade counter"
      }
    },
    "version": 1
  },
  "userdoc": {
    "kind": "user",
    "methods": {
      "CONTROLLABLE_VERSION()": {
        "notice": "Version of the contract"
      },
      "VERSION()": {
        "notice": "Version of the contract"
      },
      "controller()": {
        "notice": "Return controller address saved in the contract slot"
      },
      "created()": {
        "notice": "Return creation timestamp"
      },
      "createdBlock()": {
        "notice": "Return creation block number"
      },
      "isGovernance(address)": {
        "notice": "Return true if given address is setup as governance in Controller"
      }
    },
    "version": 1
  },
  "storageLayout": {
    "storage": [],
    "types": null
  }
}