{
  "address": "0x6a6A99D3E1838b39D5E766fFCd7A09461F08E279",
  "abi": [
    {
      "inputs": [],
      "name": "AlreadyGuildMember",
      "type": "error"
    },
    {
      "inputs": [],
      "name": "CannotRemoveGuildOwnerFromNotEmptyGuild",
      "type": "error"
    },
    {
      "inputs": [],
      "name": "EmptyNameNotAllowed",
      "type": "error"
    },
    {
      "inputs": [],
      "name": "ErrorOnlyEoa",
      "type": "error"
    },
    {
      "inputs": [
        {
          "internalType": "uint256",
          "name": "right",
          "type": "uint256"
        }
      ],
      "name": "GuildActionForbidden",
      "type": "error"
    },
    {
      "inputs": [
        {
          "internalType": "uint256",
          "name": "level",
          "type": "uint256"
        }
      ],
      "name": "GuildHasMaxLevel",
      "type": "error"
    },
    {
      "inputs": [
        {
          "internalType": "uint256",
          "name": "guildSize",
          "type": "uint256"
        }
      ],
      "name": "GuildHasMaxSize",
      "type": "error"
    },
    {
      "inputs": [],
      "name": "InvalidInitialization",
      "type": "error"
    },
    {
      "inputs": [
        {
          "internalType": "uint8",
          "name": "fee",
          "type": "uint8"
        }
      ],
      "name": "MaxFee",
      "type": "error"
    },
    {
      "inputs": [
        {
          "internalType": "uint8",
          "name": "fee",
          "type": "uint8"
        }
      ],
      "name": "MinFee",
      "type": "error"
    },
    {
      "inputs": [],
      "name": "NameTaken",
      "type": "error"
    },
    {
      "inputs": [
        {
          "internalType": "address",
          "name": "sender",
          "type": "address"
        }
      ],
      "name": "NotGovernance",
      "type": "error"
    },
    {
      "inputs": [],
      "name": "NotGuildMember",
      "type": "error"
    },
    {
      "inputs": [],
      "name": "NotInitializing",
      "type": "error"
    },
    {
      "inputs": [],
      "name": "SecondGuildAdminIsNotAllowed",
      "type": "error"
    },
    {
      "inputs": [],
      "name": "TooBigName",
      "type": "error"
    },
    {
      "inputs": [],
      "name": "TooLongUrl",
      "type": "error"
    },
    {
      "inputs": [],
      "name": "WrongSymbolsInTheName",
      "type": "error"
    },
    {
      "inputs": [],
      "name": "ZeroAddress",
      "type": "error"
    },
    {
      "inputs": [],
      "name": "ZeroValueNotAllowed",
      "type": "error"
    },
    {
      "anonymous": false,
      "inputs": [
        {
          "indexed": false,
          "internalType": "uint256",
          "name": "guildId",
          "type": "uint256"
        },
        {
          "indexed": false,
          "internalType": "address",
          "name": "newUser",
          "type": "address"
        }
      ],
      "name": "AddToGuild",
      "type": "event"
    },
    {
      "anonymous": false,
      "inputs": [
        {
          "indexed": false,
          "internalType": "uint256",
          "name": "guildId",
          "type": "uint256"
        },
        {
          "indexed": false,
          "internalType": "address",
          "name": "user",
          "type": "address"
        },
        {
          "indexed": false,
          "internalType": "uint256",
          "name": "rights",
          "type": "uint256"
        }
      ],
      "name": "ChangeGuildRights",
      "type": "event"
    },
    {
      "anonymous": false,
      "inputs": [
        {
          "indexed": false,
          "internalType": "address",
          "name": "controller",
          "type": "address"
        },
        {
          "indexed": false,
          "internalType": "uint256",
          "name": "ts",
          "type": "uint256"
        },
        {
          "indexed": false,
          "internalType": "uint256",
          "name": "block",
          "type": "uint256"
        }
      ],
      "name": "ContractInitialized",
      "type": "event"
    },
    {
      "anonymous": false,
      "inputs": [
        {
          "indexed": false,
          "internalType": "uint256",
          "name": "guildId",
          "type": "uint256"
        },
        {
          "indexed": false,
          "internalType": "address",
          "name": "guildBank",
          "type": "address"
        }
      ],
      "name": "GuildBankDeployed",
      "type": "event"
    },
    {
      "anonymous": false,
      "inputs": [
        {
          "indexed": false,
          "internalType": "address",
          "name": "owner",
          "type": "address"
        },
        {
          "indexed": false,
          "internalType": "uint256",
          "name": "guildId",
          "type": "uint256"
        },
        {
          "indexed": false,
          "internalType": "string",
          "name": "name",
          "type": "string"
        },
        {
          "indexed": false,
          "internalType": "string",
          "name": "urlLogo",
          "type": "string"
        }
      ],
      "name": "GuildCreated",
      "type": "event"
    },
    {
      "anonymous": false,
      "inputs": [
        {
          "indexed": false,
          "internalType": "uint256",
          "name": "guildId",
          "type": "uint256"
        }
      ],
      "name": "GuildDeleted",
      "type": "event"
    },
    {
      "anonymous": false,
      "inputs": [
        {
          "indexed": false,
          "internalType": "uint256",
          "name": "guildId",
          "type": "uint256"
        },
        {
          "indexed": false,
          "internalType": "uint8",
          "name": "newLevel",
          "type": "uint8"
        }
      ],
      "name": "GuildLevelUp",
      "type": "event"
    },
    {
      "anonymous": false,
      "inputs": [
        {
          "indexed": false,
          "internalType": "uint256",
          "name": "guildId",
          "type": "uint256"
        },
        {
          "indexed": false,
          "internalType": "string",
          "name": "newLogoUrl",
          "type": "string"
        }
      ],
      "name": "GuildLogoChanged",
      "type": "event"
    },
    {
      "anonymous": false,
      "inputs": [
        {
          "indexed": false,
          "internalType": "uint256",
          "name": "guildId",
          "type": "uint256"
        },
        {
          "indexed": false,
          "internalType": "string",
          "name": "newName",
          "type": "string"
        }
      ],
      "name": "GuildRename",
      "type": "event"
    },
    {
      "anonymous": false,
      "inputs": [
        {
          "indexed": false,
          "internalType": "uint64",
          "name": "version",
          "type": "uint64"
        }
      ],
      "name": "Initialized",
      "type": "event"
    },
    {
      "anonymous": false,
      "inputs": [
        {
          "indexed": false,
          "internalType": "uint256",
          "name": "guildId",
          "type": "uint256"
        },
        {
          "indexed": false,
          "internalType": "address",
          "name": "user",
          "type": "address"
        }
      ],
      "name": "RemoveFromGuild",
      "type": "event"
    },
    {
      "anonymous": false,
      "inputs": [
        {
          "indexed": false,
          "internalType": "uint256",
          "name": "value",
          "type": "uint256"
        },
        {
          "indexed": false,
          "internalType": "address",
          "name": "oldLogic",
          "type": "address"
        }
      ],
      "name": "RevisionIncreased",
      "type": "event"
    },
    {
      "anonymous": false,
      "inputs": [
        {
          "indexed": false,
          "internalType": "uint256",
          "name": "guildId1",
          "type": "uint256"
        },
        {
          "indexed": false,
          "internalType": "uint256",
          "name": "guildId2",
          "type": "uint256"
        },
        {
          "indexed": false,
          "internalType": "bool",
          "name": "peace",
          "type": "bool"
        }
      ],
      "name": "SetGuildRelation",
      "type": "event"
    },
    {
      "anonymous": false,
      "inputs": [
        {
          "indexed": false,
          "internalType": "address",
          "name": "user",
          "type": "address"
        },
        {
          "indexed": false,
          "internalType": "address",
          "name": "token",
          "type": "address"
        },
        {
          "indexed": false,
          "internalType": "uint256",
          "name": "amount",
          "type": "uint256"
        },
        {
          "indexed": false,
          "internalType": "address",
          "name": "recipient",
          "type": "address"
        }
      ],
      "name": "TransferFromGuildBank",
      "type": "event"
    },
    {
      "anonymous": false,
      "inputs": [
        {
          "indexed": false,
          "internalType": "address",
          "name": "user",
          "type": "address"
        },
        {
          "indexed": false,
          "internalType": "address[]",
          "name": "nfts",
          "type": "address[]"
        },
        {
          "indexed": false,
          "internalType": "uint256[]",
          "name": "tokenIds",
          "type": "uint256[]"
        },
        {
          "indexed": false,
          "internalType": "address",
          "name": "recipient",
          "type": "address"
        }
      ],
      "name": "TransferNftFromGuildBank",
      "type": "event"
    },
    {
      "inputs": [],
      "name": "CONTROLLABLE_VERSION",
      "outputs": [
        {
          "internalType": "string",
          "name": "",
          "type": "string"
        }
      ],
      "stateMutability": "view",
      "type": "function"
    },
    {
      "inputs": [],
      "name": "VERSION",
      "outputs": [
        {
          "internalType": "string",
          "name": "",
          "type": "string"
        }
      ],
      "stateMutability": "view",
      "type": "function"
    },
    {
      "inputs": [
        {
          "internalType": "address",
          "name": "newUser",
          "type": "address"
        },
        {
          "internalType": "uint256",
          "name": "maskRights",
          "type": "uint256"
        }
      ],
      "name": "addGuildMember",
      "outputs": [],
      "stateMutability": "nonpayable",
      "type": "function"
    },
    {
      "inputs": [
        {
          "internalType": "string",
          "name": "newLogoUrl",
          "type": "string"
        }
      ],
      "name": "changeLogo",
      "outputs": [],
      "stateMutability": "nonpayable",
      "type": "function"
    },
    {
      "inputs": [
        {
          "internalType": "address",
          "name": "user",
          "type": "address"
        },
        {
          "internalType": "uint256",
          "name": "maskRights",
          "type": "uint256"
        }
      ],
      "name": "changeRoles",
      "outputs": [],
      "stateMutability": "nonpayable",
      "type": "function"
    },
    {
      "inputs": [],
      "name": "controller",
      "outputs": [
        {
          "internalType": "address",
          "name": "",
          "type": "address"
        }
      ],
      "stateMutability": "view",
      "type": "function"
    },
    {
      "inputs": [],
      "name": "counterGuildIds",
      "outputs": [
        {
          "internalType": "uint256",
          "name": "",
          "type": "uint256"
        }
      ],
      "stateMutability": "view",
      "type": "function"
    },
    {
      "inputs": [
        {
          "internalType": "string",
          "name": "name",
          "type": "string"
        },
        {
          "internalType": "string",
          "name": "urlLogo",
          "type": "string"
        },
        {
          "internalType": "uint8",
          "name": "toHelperRatio",
          "type": "uint8"
        }
      ],
      "name": "createGuild",
      "outputs": [
        {
          "internalType": "uint256",
          "name": "",
          "type": "uint256"
        }
      ],
      "stateMutability": "nonpayable",
      "type": "function"
    },
    {
      "inputs": [],
      "name": "created",
      "outputs": [
        {
          "internalType": "uint256",
          "name": "",
          "type": "uint256"
        }
      ],
      "stateMutability": "view",
      "type": "function"
    },
    {
      "inputs": [],
      "name": "createdBlock",
      "outputs": [
        {
          "internalType": "uint256",
          "name": "",
          "type": "uint256"
        }
      ],
      "stateMutability": "view",
      "type": "function"
    },
    {
      "inputs": [],
      "name": "getBaseFee",
      "outputs": [
        {
          "internalType": "uint256",
          "name": "",
          "type": "uint256"
        }
      ],
      "stateMutability": "view",
      "type": "function"
    },
    {
      "inputs": [
        {
          "internalType": "uint256",
          "name": "guildId",
          "type": "uint256"
        }
      ],
      "name": "getGuildBank",
      "outputs": [
        {
          "internalType": "address",
          "name": "",
          "type": "address"
        }
      ],
      "stateMutability": "view",
      "type": "function"
    },
    {
      "inputs": [
        {
          "internalType": "string",
          "name": "name",
          "type": "string"
        }
      ],
      "name": "getGuildByName",
      "outputs": [
        {
          "internalType": "uint256",
          "name": "guildId",
          "type": "uint256"
        }
      ],
      "stateMutability": "view",
      "type": "function"
    },
    {
      "inputs": [
        {
          "internalType": "uint256",
          "name": "guildId",
          "type": "uint256"
        }
      ],
      "name": "getGuildData",
      "outputs": [
        {
          "internalType": "string",
          "name": "guildName",
          "type": "string"
        },
        {
          "internalType": "string",
          "name": "urlLogo",
          "type": "string"
        },
        {
          "internalType": "address",
          "name": "owner",
          "type": "address"
        },
        {
          "internalType": "uint8",
          "name": "guildLevel",
          "type": "uint8"
        },
        {
          "internalType": "uint64",
          "name": "pvpCounter",
          "type": "uint64"
        },
        {
          "internalType": "uint256",
          "name": "toHelperRatio",
          "type": "uint256"
        }
      ],
      "stateMutability": "view",
      "type": "function"
    },
    {
      "inputs": [
        {
          "internalType": "address",
          "name": "user",
          "type": "address"
        }
      ],
      "name": "getRights",
      "outputs": [
        {
          "internalType": "uint256",
          "name": "",
          "type": "uint256"
        }
      ],
      "stateMutability": "view",
      "type": "function"
    },
    {
      "inputs": [],
      "name": "guildLevelUp",
      "outputs": [],
      "stateMutability": "nonpayable",
      "type": "function"
    },
    {
      "inputs": [
        {
          "internalType": "uint256",
          "name": "guildId",
          "type": "uint256"
        }
      ],
      "name": "guildMembers",
      "outputs": [
        {
          "internalType": "address[]",
          "name": "",
          "type": "address[]"
        }
      ],
      "stateMutability": "view",
      "type": "function"
    },
    {
      "inputs": [
        {
          "internalType": "address",
          "name": "oldLogic",
          "type": "address"
        }
      ],
      "name": "increaseRevision",
      "outputs": [],
      "stateMutability": "nonpayable",
      "type": "function"
    },
    {
      "inputs": [
        {
          "internalType": "address",
          "name": "controller_",
          "type": "address"
        }
      ],
      "name": "init",
      "outputs": [],
      "stateMutability": "nonpayable",
      "type": "function"
    },
    {
      "inputs": [
        {
          "internalType": "address",
          "name": "value_",
          "type": "address"
        }
      ],
      "name": "isController",
      "outputs": [
        {
          "internalType": "bool",
          "name": "",
          "type": "bool"
        }
      ],
      "stateMutability": "view",
      "type": "function"
    },
    {
      "inputs": [
        {
          "internalType": "address",
          "name": "value_",
          "type": "address"
        }
      ],
      "name": "isGovernance",
      "outputs": [
        {
          "internalType": "bool",
          "name": "",
          "type": "bool"
        }
      ],
      "stateMutability": "view",
      "type": "function"
    },
    {
      "inputs": [
        {
          "internalType": "uint256",
          "name": "guildId",
          "type": "uint256"
        },
        {
          "internalType": "uint256",
          "name": "guildId2",
          "type": "uint256"
        }
      ],
      "name": "isPeacefulRelation",
      "outputs": [
        {
          "internalType": "bool",
          "name": "",
          "type": "bool"
        }
      ],
      "stateMutability": "view",
      "type": "function"
    },
    {
      "inputs": [
        {
          "internalType": "address",
          "name": "forwarder",
          "type": "address"
        }
      ],
      "name": "isTrustedForwarder",
      "outputs": [
        {
          "internalType": "bool",
          "name": "",
          "type": "bool"
        }
      ],
      "stateMutability": "view",
      "type": "function"
    },
    {
      "inputs": [
        {
          "internalType": "address",
          "name": "user",
          "type": "address"
        }
      ],
      "name": "memberOf",
      "outputs": [
        {
          "internalType": "uint256",
          "name": "guildId",
          "type": "uint256"
        }
      ],
      "stateMutability": "view",
      "type": "function"
    },
    {
      "inputs": [],
      "name": "previousImplementation",
      "outputs": [
        {
          "internalType": "address",
          "name": "",
          "type": "address"
        }
      ],
      "stateMutability": "view",
      "type": "function"
    },
    {
      "inputs": [
        {
          "internalType": "address",
          "name": "userToRemove",
          "type": "address"
        }
      ],
      "name": "removeGuildMember",
      "outputs": [],
      "stateMutability": "nonpayable",
      "type": "function"
    },
    {
      "inputs": [
        {
          "internalType": "string",
          "name": "newGuildName",
          "type": "string"
        }
      ],
      "name": "rename",
      "outputs": [],
      "stateMutability": "nonpayable",
      "type": "function"
    },
    {
      "inputs": [],
      "name": "revision",
      "outputs": [
        {
          "internalType": "uint256",
          "name": "",
          "type": "uint256"
        }
      ],
      "stateMutability": "view",
      "type": "function"
    },
    {
      "inputs": [
        {
          "internalType": "uint256",
          "name": "fee",
          "type": "uint256"
        }
      ],
      "name": "setBaseFee",
      "outputs": [],
      "stateMutability": "nonpayable",
      "type": "function"
    },
    {
      "inputs": [
        {
          "internalType": "uint256",
          "name": "otherGuildId",
          "type": "uint256"
        },
        {
          "internalType": "bool",
          "name": "peace",
          "type": "bool"
        }
      ],
      "name": "setRelation",
      "outputs": [],
      "stateMutability": "nonpayable",
      "type": "function"
    },
    {
      "inputs": [
        {
          "internalType": "uint8",
          "name": "value",
          "type": "uint8"
        }
      ],
      "name": "setToHelperRatio",
      "outputs": [],
      "stateMutability": "nonpayable",
      "type": "function"
    },
    {
      "inputs": [
        {
          "internalType": "address",
          "name": "token",
          "type": "address"
        },
        {
          "internalType": "address",
          "name": "recipient",
          "type": "address"
        },
        {
          "internalType": "uint256",
          "name": "amount",
          "type": "uint256"
        }
      ],
      "name": "transfer",
      "outputs": [],
      "stateMutability": "nonpayable",
      "type": "function"
    },
    {
      "inputs": [
        {
          "internalType": "address",
          "name": "to",
          "type": "address"
        },
        {
          "internalType": "address[]",
          "name": "nfts",
          "type": "address[]"
        },
        {
          "internalType": "uint256[]",
          "name": "tokenIds",
          "type": "uint256[]"
        }
      ],
      "name": "transferNftMulti",
      "outputs": [],
      "stateMutability": "nonpayable",
      "type": "function"
    }
  ],
  "transactionHash": "0x45578d91e059f09ed970fab08a7ec39f96ee89b9ca201fa131c6f77b287f2c65",
  "args": [],
  "numDeployments": 5,
  "solcInputHash": "26aa46af27336d196c04997c06413167",
  "bytecode": "0x60806040523480156200001157600080fd5b507ff0c57e16840df040f15088dc2f81fe391c3923bec73e23a9662efc9c229c6a00805468010000000000000000810460ff1615906001600160401b03166000811580156200005d5750825b90506000826001600160401b031660011480156200007a5750303b155b90508115801562000089575080155b15620000a85760405163f92ee8a960e01b815260040160405180910390fd5b84546001600160401b03191660011785558315620000d757845460ff60401b1916680100000000000000001785555b83156200011e57845460ff60401b19168555604051600181527fc7f505b2f371ae2175ee4913f4499e1f2633a7b5936321eed1cdaeb6115181d29060200160405180910390a15b50505050506144e080620001336000396000f3fe60806040523480156200001157600080fd5b5060043610620001e15760003560e01c806399f9e252116200010f578063cca9079411620000aa578063cca907941462000421578063d3f489791462000438578063dee1f0e4146200044f578063df1dd9761462000466578063e68a8bf01462000491578063e79f0e96146200049b578063f2e0023d14620004b2578063f77c479114620004c9578063ffa1ad74146200033157600080fd5b806399f9e25214620003655780639d0bcca0146200037c578063ad1036861462000395578063b429afeb14620003ac578063b648063f14620003c3578063beabacc814620003cd578063c3a9934214620003e4578063c6d5774314620003fb57600080fd5b806346860698116200018057806346860698146200029d5780634fac6ccd14620002b4578063572b6c0514620002cb5780635b7249a714620002e257806366605ba414620002f957806371fb4f0514620003105780637cc963801462000327578063936725ec146200033157600080fd5b806311bc2ca214620001e6578063158914ac14620001ff57806315e812ad146200022b57806319ab453c146200024457806321b741de146200025b578063325a19f114620002725780633b4c9891146200027c5780634593144c1462000293575b600080fd5b620001fd620001f7366004620031da565b620004d3565b005b620002166200021036600462003212565b620004eb565b60405190151581526020015b60405180910390f35b6200023562000502565b60405190815260200162000222565b620001fd620002553660046200324b565b62000513565b620001fd6200026c3660046200324b565b6200063d565b6200023562000652565b620002356200028d3660046200324b565b62000689565b6200023562000696565b620001fd620002ae3660046200326b565b620006c9565b620001fd620002c53660046200324b565b620006de565b62000216620002dc3660046200324b565b620007f7565b620001fd620002f336600462003285565b62000846565b620001fd6200030a366004620031da565b62000860565b6200023562000321366004620031da565b6200087f565b620002356200088c565b62000356604051806040016040528060058152602001640312e302e360dc1b81525081565b60405162000222919062003308565b620001fd620003763660046200331d565b620008ae565b62000386620008c4565b60405162000222919062003354565b620001fd620003a63660046200337f565b620008f7565b62000216620003bd3660046200324b565b6200090c565b620001fd62000933565b620001fd620003de3660046200339d565b62000953565b620001fd620003f536600462003480565b6200096f565b620004126200040c3660046200326b565b62000986565b604051620002229190620035ac565b620001fd6200043236600462003285565b62000993565b6200023562000449366004620035c1565b620009a9565b62000216620004603660046200324b565b620009de565b6200047d620004773660046200326b565b62000a68565b60405162000222969594939291906200363d565b6200023562000ab2565b62000235620004ac3660046200324b565b62000abe565b62000386620004c33660046200326b565b62000acb565b6200038662000ad8565b620004e8620004e162000b0b565b8262000b30565b50565b6000620004f9838362000bd3565b90505b92915050565b60006200050e62000c0b565b905090565b60006200051f62000c44565b805490915060ff600160401b82041615906001600160401b0316600081158015620005475750825b90506000826001600160401b03166001148015620005645750303b155b90508115801562000573575080155b15620005925760405163f92ee8a960e01b815260040160405180910390fd5b845467ffffffffffffffff191660011785558315620005bd57845460ff60401b1916600160401b1785555b620005c88662000c68565b670de0b6b3a7640000620005db62000c7d565b60026000908152602091909152604090205583156200063557845460ff60401b19168555604051600181527fc7f505b2f371ae2175ee4913f4499e1f2633a7b5936321eed1cdaeb6115181d2906020015b60405180910390a15b505050505050565b620004e86200064b62000b0b565b8262000ca1565b60006200050e6200068560017f6f55f470bdc9cb5f04223fd822021061668e4dccb43e8727b295106dc9769c8b620036cd565b5490565b6000620004fc82620010e5565b60006200050e6200068560017f812a673dfca07956350df10f8a654925f561d7a0da09bdbe79e653939a14d9f1620036cd565b620004e8620006d762000ad8565b8262001113565b333014620007315760405162461bcd60e51b815260206004820152601b60248201527a24b731b932b0b9b2903932bb34b9b4b7b7103337b93134b23232b760291b60448201526064015b60405180910390fd5b6000620007536200068560016000805160206200448b833981519152620036cd565b62000760906001620036e3565b905062000786816200078360016000805160206200448b833981519152620036cd565b55565b620007b8826200078360017fbfaaa2fb63266ff27c2da975f5894955056f50419af651a81f6c5060581857e4620036cd565b7ff27e2ef832a4eb8ed8ec553b875eecd44764cda95b1c24170e281539e0a869c88183604051620007eb929190620036f9565b60405180910390a15050565b60006001600160a01b03821673d8253782c45a12053594b9deb72d8e8ab2fca54c1480620004fc57506001600160a01b0382167352ceba41da235af367bfc0b0ccd3314cb901bb5f1492915050565b6200085c6200085462000b0b565b838362001161565b5050565b620004e86200086e62000ad8565b6200087862000b0b565b8362001420565b6000620004fc82620017f7565b60006200050e6200068560016000805160206200448b833981519152620036cd565b6200085c620008bc62000b0b565b83836200182c565b60006200050e6200068560017fbfaaa2fb63266ff27c2da975f5894955056f50419af651a81f6c5060581857e4620036cd565b620004e86200090562000b0b565b82620018c2565b60006200091862000ad8565b6001600160a01b0316826001600160a01b0316149050919050565b620009516200094162000ad8565b6200094b62000b0b565b62001920565b565b6200096a6200096162000b0b565b84848462001bb4565b505050565b6200096a6200097d62000b0b565b84848462001ca9565b6060620004fc8262001d7c565b6200085c620009a162000b0b565b838362001da4565b6000620009d6620009b9620020f9565b620009c362000ad8565b620009cd62000b0b565b87878762002114565b949350505050565b6000816001600160a01b0316620009f462000ad8565b6001600160a01b0316635aa6e6756040518163ffffffff1660e01b8152600401602060405180830381865afa15801562000a32573d6000803e3d6000fd5b505050506040513d601f19601f8201168201806040525081019062000a58919062003710565b6001600160a01b03161492915050565b606080600080600080600062000a7e88620026c8565b805160208201516040830151606084015160a0850151608090950151939d929c50909a50985091965060ff16945092505050565b60006200050e620028a6565b6000620004fc82620028bc565b6000620004fc82620028ea565b60006200050e6200068560017f5165972ef41194f06c5007493031d0b927c20741adcb74403b954009fd2c3618620036cd565b600062000b1833620007f7565b1562000b2b575060131936013560601c90565b503390565b600062000b3f83600262002913565b509050609682511062000b6557604051630595c1cb60e01b815260040160405180910390fd5b8162000b7062000c7d565b6000838152600291909101602052604090206001019062000b929082620037b8565b507f6b7abe944ce1beac4e645644ff5549a6f5280e2688588c1156e296f1b02a361f818360405162000bc692919062003884565b60405180910390a1505050565b600062000bdf62000c7d565b600701600062000bf0858562002a07565b815260208101919091526040016000205460ff169392505050565b600062000c1762000c7d565b600060025b600281111562000c305762000c30620036a1565b815260200190815260200160002054905090565b7ff0c57e16840df040f15088dc2f81fe391c3923bec73e23a9662efc9c229c6a0090565b62000c7262002a6e565b620004e88162002a96565b7f1c4340ff8478a236ed13a5ce46f8e8b8a6037975df340a04c54725978699d10090565b6000816001600160a01b0316836001600160a01b03160362000d0d5762000cc762000c7d565b6001600160a01b03841660009081526004919091016020526040812054915081900362000d0757604051632f6c853960e11b815260040160405180910390fd5b62000d45565b62000d1a83600562002913565b5090506001600160a01b03821662000d455760405163d92e233d60e01b815260040160405180910390fd5b600062000d5162000c7d565b60020160008381526020019081526020016000206040518060c001604052908160008201805462000d829062003730565b80601f016020809104026020016040519081016040528092919081815260200182805462000db09062003730565b801562000e015780601f1062000dd55761010080835404028352916020019162000e01565b820191906000526020600020905b81548152906001019060200180831162000de357829003601f168201915b5050505050815260200160018201805462000e1c9062003730565b80601f016020809104026020016040519081016040528092919081815260200182805462000e4a9062003730565b801562000e9b5780601f1062000e6f5761010080835404028352916020019162000e9b565b820191906000526020600020905b81548152906001019060200180831162000e7d57829003601f168201915b5050509183525050600291909101546001600160a01b038082166020840152600160a01b820460ff908116604080860191909152600160a81b84049091166060850152600160b01b9092046001600160401b031660809093019290925282015191925084811691160362000f5157600162000f3162000f1962000c7d565b60008581526005919091016020526040902062002bc0565b111562000f5157604051630ad25aaf60e21b815260040160405180910390fd5b62000f798362000f6062000c7d565b6000858152600591909101602052604090209062002bcb565b5062000f8462000c7d565b6001600160a01b0384166000908152600491909101602052604081205562000fab62000c7d565b6006016000846001600160a01b03166001600160a01b03168152602001908152602001600020600090557fc1a2a88b40ad3868bcda984d463d13c8a5ae7b0b3c3f56cb17ab7c34b7ad0928828460405162001008929190620036f9565b60405180910390a160006200102062000f1962000c7d565b905080600003620010de576200103562000c7d565b60030182600001516040516200104c91906200389f565b9081526020016040518091039020600090556200106862000c7d565b60008481526002919091016020526040812090620010878282620030b3565b62001097600183016000620030b3565b5060020180546001600160f01b03191690556040518381527fbdb3d45d74febd27a49d5ee308393b18fc559fcb577ecd0892ed9c2a761e8258906020015b60405180910390a15b5050505050565b6000620010f162000c7d565b6001600160a01b03909216600090815260049290920160205250604090205490565b6200111e8262002be2565b80600003620011405760405163273e150360e21b815260040160405180910390fd5b806200114b62000c7d565b6002600090815260209190915260409020555050565b60006200117084600762002913565b5090506200119b836200118262000c7d565b6000848152600591909101602052604090209062002c7d565b620011b957604051632f6c853960e11b815260040160405180910390fd5b6000620011c562000c7d565b60020160008381526020019081526020016000206040518060c0016040529081600082018054620011f69062003730565b80601f0160208091040260200160405190810160405280929190818152602001828054620012249062003730565b8015620012755780601f10620012495761010080835404028352916020019162001275565b820191906000526020600020905b8154815290600101906020018083116200125757829003601f168201915b50505050508152602001600182018054620012909062003730565b80601f0160208091040260200160405190810160405280929190818152602001828054620012be9062003730565b80156200130f5780601f10620012e3576101008083540402835291602001916200130f565b820191906000526020600020905b815481529060010190602001808311620012f157829003601f168201915b5050509183525050600291909101546001600160a01b038082166020840152600160a01b820460ff908116604080860191909152600160a81b84049091166060850152600160b01b9092046001600160401b0316608090930192909252820151919250858116911603620013935762001389600062002ca0565b83179250620013b8565b6200139f600062002ca0565b831615620013b857620013b3600062002ca0565b831892505b82620013c362000c7d565b6001600160a01b038616600081815260069290920160209081526040928390209390935581518581529283015281018490527fb0304e71a23f4e80fbe603bfffc79b824920fec23be1ef0767f676ba3b22077a90606001620010d5565b60006200142f83600162002913565b5090506200143c62000c7d565b600301826040516200144f91906200389f565b9081526020016040518091039020546000146200147f57604051639e4b268560e01b815260040160405180910390fd5b6014825110620014a2576040516370ab3a0360e11b815260040160405180910390fd5b620014ad8262002cc4565b620014cb576040516389974bd960e01b815260040160405180910390fd5b8151600003620014ee5760405163b6f63d6560e01b815260040160405180910390fd5b6000620014fa62000c7d565b6000838152600291909101602052604090208054620015199062003730565b80601f0160208091040260200160405190810160405280929190818152602001828054620015479062003730565b8015620015985780601f106200156c5761010080835404028352916020019162001598565b820191906000526020600020905b8154815290600101906020018083116200157a57829003601f168201915b50505050509050620015a962000c7d565b60030181604051620015bc91906200389f565b90815260200160405180910390206000905582620015d962000c7d565b60008481526002919091016020526040902090620015f89082620037b8565b50816200160462000c7d565b600301846040516200161791906200389f565b908152602001604051809103902081905550846001600160a01b031663490fb76a6040518163ffffffff1660e01b8152600401602060405180830381865afa15801562001668573d6000803e3d6000fd5b505050506040513d601f19601f820116820180604052508101906200168e919062003710565b6001600160a01b0316638c1717546040518163ffffffff1660e01b8152600401602060405180830381865afa158015620016cc573d6000803e3d6000fd5b505050506040513d601f19601f82011682018060405250810190620016f2919062003710565b6001600160a01b0316633c8f1bbe866001600160a01b031663c3dfdae66040518163ffffffff1660e01b8152600401602060405180830381865afa1580156200173f573d6000803e3d6000fd5b505050506040513d601f19601f8201168201806040525081019062001765919062003710565b6200176f62000c0b565b876040518463ffffffff1660e01b81526004016200179093929190620038bd565b600060405180830381600087803b158015620017ab57600080fd5b505af1158015620017c0573d6000803e3d6000fd5b505050507f957c37926a13c72eb069ef4bc862852a20cd897a1445c25acef64c285a3e3f878284604051620010d592919062003884565b60006200180362000c7d565b600301826040516200181691906200389f565b9081526020016040518091039020549050919050565b60006200183b84600962002913565b509050816200184962000c7d565b60070160006200185a848762002a07565b81526020808201929092526040908101600020805460ff19169315159390931790925581518381529081018590528315158183015290517fa38f02cb01028fc56d5a1c55764e771a6da2ec8205696148f0655ebcf322d8d6916060908290030190a150505050565b6000620018d183600b62002913565b509050620018df8262002d3e565b81620018ea62000c7d565b600092835260029081016020526040909220909101805460ff92909216600160a81b0260ff60a81b199092169190911790555050565b60006200192f82600862002913565b50905060006200193e62000c7d565b60008381526002918201602052604090200154600160a01b900460ff169050600919810162001986576040516302dc77b560e31b815260ff8216600482015260240162000728565b600062001995826001620038e0565b905080620019a262000c7d565b6000858152600291820160205260408120909101805460ff60a01b1916600160a01b60ff94851602179055908216620019da62000c0b565b620019e69190620038fc565b9050856001600160a01b031663490fb76a6040518163ffffffff1660e01b8152600401602060405180830381865afa15801562001a27573d6000803e3d6000fd5b505050506040513d601f19601f8201168201806040525081019062001a4d919062003710565b6001600160a01b0316638c1717546040518163ffffffff1660e01b8152600401602060405180830381865afa15801562001a8b573d6000803e3d6000fd5b505050506040513d601f19601f8201168201806040525081019062001ab1919062003710565b6001600160a01b0316633c8f1bbe876001600160a01b031663c3dfdae66040518163ffffffff1660e01b8152600401602060405180830381865afa15801562001afe573d6000803e3d6000fd5b505050506040513d601f19601f8201168201806040525081019062001b24919062003710565b83886040518463ffffffff1660e01b815260040162001b4693929190620038bd565b600060405180830381600087803b15801562001b6157600080fd5b505af115801562001b76573d6000803e3d6000fd5b50506040805187815260ff861660208201527ff59393d3d727f52fd7d452c581b5b52711e6e44063d1ddf9368817b75fb2c21593500190506200062c565b600062001bc385600662002913565b509050600062001bd262000c7d565b60008381526001919091016020526040908190205490516317d5759960e31b81526001600160a01b0387811660048301528681166024830152604482018690529091169150819063beabacc890606401600060405180830381600087803b15801562001c3d57600080fd5b505af115801562001c52573d6000803e3d6000fd5b5050604080516001600160a01b03808b168252808a16602083015291810187905290871660608201527f3421522a397fda51b3adedf86b5f00270b3cf25e34ae836db9e28a78b198d29f925060800190506200062c565b600062001cb885600a62002913565b509050600062001cc762000c7d565b60008381526001919091016020526040908190205490516361d4c9a160e11b81526001600160a01b039091169150819063c3a993429062001d119088908890889060040162003949565b600060405180830381600087803b15801562001d2c57600080fd5b505af115801562001d41573d6000803e3d6000fd5b505050507f510bbc3f8229fd79dd4d20101e3a636ac34562b81999bc3287c0140d5e610f37868585886040516200062c94939291906200398d565b6060620004fc62001d8c62000c7d565b60008481526005919091016020526040902062002d96565b600062001db384600462002913565b509050600062001dc262000c7d565b60020160008381526020019081526020016000206040518060c001604052908160008201805462001df39062003730565b80601f016020809104026020016040519081016040528092919081815260200182805462001e219062003730565b801562001e725780601f1062001e465761010080835404028352916020019162001e72565b820191906000526020600020905b81548152906001019060200180831162001e5457829003601f168201915b5050505050815260200160018201805462001e8d9062003730565b80601f016020809104026020016040519081016040528092919081815260200182805462001ebb9062003730565b801562001f0c5780601f1062001ee05761010080835404028352916020019162001f0c565b820191906000526020600020905b81548152906001019060200180831162001eee57829003601f168201915b5050509183525050600291909101546001600160a01b038116602083015260ff600160a01b820481166040840152600160a81b82041660608301526001600160401b03600160b01b90910416608090910152905062001f6a62000c7d565b6001600160a01b038516600090815260049190910160205260409020541562001fa657604051630653bdf560e01b815260040160405180910390fd5b6001600160a01b03841662001fce5760405163d92e233d60e01b815260040160405180910390fd5b62001fda600062002ca0565b83161562001ffb57604051630c8c5a2b60e11b815260040160405180910390fd5b60006200200b62000f1962000c7d565b90506200201c826060015162002dac565b810362002040576040516323e919eb60e21b81526004810182905260240162000728565b62002068856200204f62000c7d565b6000868152600591909101602052604090209062002dd9565b50826200207462000c7d565b6001600160a01b03871660009081526004919091016020526040902055836200209c62000c7d565b6006016000876001600160a01b03166001600160a01b03168152602001908152602001600020819055507fedf63ee99110a1075b654570237238201693bfe9ac063acb6eef59041880a7d883866040516200062c929190620036f9565b60006200210633620007f7565b806200050e57505032331490565b6000620021218762002df0565b6200212b62000c7d565b6001600160a01b03861660009081526004919091016020526040902054156200216757604051630653bdf560e01b815260040160405180910390fd5b6200217162000c7d565b600301846040516200218491906200389f565b908152602001604051809103902054600014620021b457604051639e4b268560e01b815260040160405180910390fd5b6014845110620021d7576040516370ab3a0360e11b815260040160405180910390fd5b620021e28462002cc4565b62002200576040516389974bd960e01b815260040160405180910390fd5b8351600003620022235760405163b6f63d6560e01b815260040160405180910390fd5b6200222e8262002d3e565b60968351106200225157604051630595c1cb60e01b815260040160405180910390fd5b60006200225d62002e0f565b6040805160c081018252878152602081018790526001600160a01b038916918101919091526001606082015260ff85166080820152600060a082015290915080620022a762000c7d565b60008481526002919091016020526040902081518190620022c99082620037b8565b5060208201516001820190620022e09082620037b8565b506040820151600290910180546060840151608085015160a0909501516001600160401b0316600160b01b0267ffffffffffffffff60b01b1960ff968716600160a81b021668ffffffffffffffffff60a81b1996909216600160a01b026001600160a81b03199093166001600160a01b0390951694909417919091179390931692909217179055816200237262000c7d565b600301876040516200238591906200389f565b90815260405190819003602001902055620023bd87620023a462000c7d565b6000858152600591909101602052604090209062002dd9565b5081620023c962000c7d565b6001600160a01b03891660009081526004919091016020526040812091909155620023f49062002ca0565b620023fe62000c7d565b6006016000896001600160a01b03166001600160a01b031681526020019081526020016000208190555062002498886001600160a01b03166325eb1c876040518163ffffffff1660e01b8152600401602060405180830381865afa1580156200246b573d6000803e3d6000fd5b505050506040513d601f19601f8201168201806040525081019062002491919062003710565b8362002e5b565b620024a262000c7d565b600101600084815260200190815260200160002060006101000a8154816001600160a01b0302191690836001600160a01b03160217905550876001600160a01b031663490fb76a6040518163ffffffff1660e01b8152600401602060405180830381865afa15801562002519573d6000803e3d6000fd5b505050506040513d601f19601f820116820180604052508101906200253f919062003710565b6001600160a01b0316638c1717546040518163ffffffff1660e01b8152600401602060405180830381865afa1580156200257d573d6000803e3d6000fd5b505050506040513d601f19601f82011682018060405250810190620025a3919062003710565b6001600160a01b0316633c8f1bbe896001600160a01b031663c3dfdae66040518163ffffffff1660e01b8152600401602060405180830381865afa158015620025f0573d6000803e3d6000fd5b505050506040513d601f19601f8201168201806040525081019062002616919062003710565b6200262062000c0b565b8a6040518463ffffffff1660e01b81526004016200264193929190620038bd565b600060405180830381600087803b1580156200265c57600080fd5b505af115801562002671573d6000803e3d6000fd5b5050506040808301518351602085015192517f2d1a6a0246120b48ff69503752990307de08cdefea86af0ba0e15bb6111761c29450620026b493879291620039da565b60405180910390a150979650505050505050565b6040805160c081018252606080825260208201819052600092820183905281018290526080810182905260a08101919091526200270462000c7d565b60020160008381526020019081526020016000206040518060c0016040529081600082018054620027359062003730565b80601f0160208091040260200160405190810160405280929190818152602001828054620027639062003730565b8015620027b45780601f106200278857610100808354040283529160200191620027b4565b820191906000526020600020905b8154815290600101906020018083116200279657829003601f168201915b50505050508152602001600182018054620027cf9062003730565b80601f0160208091040260200160405190810160405280929190818152602001828054620027fd9062003730565b80156200284e5780601f1062002822576101008083540402835291602001916200284e565b820191906000526020600020905b8154815290600101906020018083116200283057829003601f168201915b5050509183525050600291909101546001600160a01b038116602083015260ff600160a01b820481166040840152600160a81b82041660608301526001600160401b03600160b01b9091041660809091015292915050565b6000620028b262000c7d565b6000600162000c1c565b6000620028c862000c7d565b6001600160a01b03909216600090815260069290920160205250604090205490565b6000620028f662000c7d565b60009283526001016020525060409020546001600160a01b031690565b6000806200292062000c7d565b6001600160a01b0385166000908152600491909101602052604090205491506200294962000c7d565b6001600160a01b0385166000908152600691909101602052604081205491508290036200298957604051632f6c853960e11b815260040160405180910390fd5b620029976000600262003b1f565b8116151580620029c9575082600b811115620029b757620029b7620036a1565b620029c490600262003b1f565b811615155b62002a005782600b811115620029e357620029e3620036a1565b604051630d816ed160e01b81526004016200072891815260200190565b9250929050565b600081831062002a4157604080516020810184905290810184905260600160405160208183030381529060405280519060200120620004f9565b50604080516020808201949094528082019290925280518083038201815260609092019052805191012090565b62002a7862002ee3565b6200095157604051631afcd79f60e31b815260040160405180910390fd5b6001600160a01b03811662002ae05760405162461bcd60e51b815260206004820152600f60248201526e2d32b9379031b7b73a3937b63632b960891b604482015260640162000728565b62002b12816200078360017f5165972ef41194f06c5007493031d0b927c20741adcb74403b954009fd2c3618620036cd565b62002b44426200078360017f6f55f470bdc9cb5f04223fd822021061668e4dccb43e8727b295106dc9769c8b620036cd565b62002b76436200078360017f812a673dfca07956350df10f8a654925f561d7a0da09bdbe79e653939a14d9f1620036cd565b604080516001600160a01b0383168152426020820152438183015290517f1a2dd071001ebf6e03174e3df5b305795a4ad5d41d8fdb9ba41dbbe2367134269181900360600190a150565b6000620004fc825490565b6000620004f9836001600160a01b03841662002eff565b336001600160a01b0316816001600160a01b0316635aa6e6756040518163ffffffff1660e01b8152600401602060405180830381865afa15801562002c2b573d6000803e3d6000fd5b505050506040513d601f19601f8201168201806040525081019062002c51919062003710565b6001600160a01b031614620004e8573360405163988d1f0360e01b815260040162000728919062003354565b6001600160a01b03811660009081526001830160205260408120541515620004f9565b600081600b81111562002cb75762002cb7620036a1565b620004fc90600262003b1f565b600081815b815181101562002d3457602082828151811062002cea5762002cea62003b2d565b016020015160f81c108062002d1b5750607f82828151811062002d115762002d1162003b2d565b016020015160f81c115b1562002d2b575060009392505050565b60010162002cc9565b5060019392505050565b60328160ff16111562002d6a576040516391866ccb60e01b815260ff8216600482015260240162000728565b600a8160ff161015620004e8576040516361aa824960e01b815260ff8216600482015260240162000728565b6060600062002da58362003003565b9392505050565b6000600562002dbd60018462003b43565b60ff1662002dcc9190620038fc565b620004fc906019620036e3565b6000620004f9836001600160a01b03841662003061565b80620004e857604051636221cab960e01b815260040160405180910390fd5b600062002e1b62000c7d565b6001600081815260209290925260409091205462002e3991620036e3565b90508062002e4662000c7d565b60016000908152602091909152604090205590565b6000828260405162002e6d90620030f2565b6001600160a01b0390921682526020820152604001604051809103906000f08015801562002e9f573d6000803e3d6000fd5b5090507fd8e93ad095135e43388f8c58b0d322a6edf452a4afd51e8a512d5f9d10576f2e828260405162002ed5929190620036f9565b60405180910390a192915050565b600062002eef62000c44565b54600160401b900460ff16919050565b6000818152600183016020526040812054801562002ff857600062002f26600183620036cd565b855490915060009062002f3c90600190620036cd565b905080821462002fa857600086600001828154811062002f605762002f6062003b2d565b906000526020600020015490508087600001848154811062002f865762002f8662003b2d565b6000918252602080832090910192909255918252600188019052604090208390555b855486908062002fbc5762002fbc62003b5f565b600190038181906000526020600020016000905590558560010160008681526020019081526020016000206000905560019350505050620004fc565b6000915050620004fc565b6060816000018054806020026020016040519081016040528092919081815260200182805480156200305557602002820191906000526020600020905b81548152602001906001019080831162003040575b50505050509050919050565b6000818152600183016020526040812054620030aa57508154600181810184556000848152602080822090930184905584548482528286019093526040902091909155620004fc565b506000620004fc565b508054620030c19062003730565b6000825580601f10620030d2575050565b601f016020900490600052602060002090810190620004e8919062003100565b6109158062003b7683390190565b5b8082111562003117576000815560010162003101565b5090565b634e487b7160e01b600052604160045260246000fd5b604051601f8201601f191681016001600160401b03811182821017156200315c576200315c6200311b565b604052919050565b600082601f8301126200317657600080fd5b81356001600160401b038111156200319257620031926200311b565b620031a7601f8201601f191660200162003131565b818152846020838601011115620031bd57600080fd5b816020850160208301376000918101602001919091529392505050565b600060208284031215620031ed57600080fd5b81356001600160401b038111156200320457600080fd5b620009d68482850162003164565b600080604083850312156200322657600080fd5b50508035926020909101359150565b6001600160a01b0381168114620004e857600080fd5b6000602082840312156200325e57600080fd5b813562002da58162003235565b6000602082840312156200327e57600080fd5b5035919050565b600080604083850312156200329957600080fd5b8235620032a68162003235565b946020939093013593505050565b60005b83811015620032d1578181015183820152602001620032b7565b50506000910152565b60008151808452620032f4816020860160208601620032b4565b601f01601f19169290920160200192915050565b602081526000620004f96020830184620032da565b600080604083850312156200333157600080fd5b82359150602083013580151581146200334957600080fd5b809150509250929050565b6001600160a01b0391909116815260200190565b803560ff811681146200337a57600080fd5b919050565b6000602082840312156200339257600080fd5b620004f98262003368565b600080600060608486031215620033b357600080fd5b8335620033c08162003235565b92506020840135620033d28162003235565b929592945050506040919091013590565b60006001600160401b03821115620033ff57620033ff6200311b565b5060051b60200190565b600082601f8301126200341b57600080fd5b81356020620034346200342e83620033e3565b62003131565b8083825260208201915060208460051b8701019350868411156200345757600080fd5b602086015b848110156200347557803583529183019183016200345c565b509695505050505050565b6000806000606084860312156200349657600080fd5b8335620034a38162003235565b92506020848101356001600160401b0380821115620034c157600080fd5b818701915087601f830112620034d657600080fd5b8135620034e76200342e82620033e3565b81815260059190911b8301840190848101908a8311156200350757600080fd5b938501935b8285101562003532578435620035228162003235565b825293850193908501906200350c565b9650505060408701359250808311156200354b57600080fd5b50506200355b8682870162003409565b9150509250925092565b60008151808452602080850194506020840160005b83811015620035a15781516001600160a01b0316875295820195908201906001016200357a565b509495945050505050565b602081526000620004f9602083018462003565565b600080600060608486031215620035d757600080fd5b83356001600160401b0380821115620035ef57600080fd5b620035fd8783880162003164565b945060208601359150808211156200361457600080fd5b50620036238682870162003164565b925050620036346040850162003368565b90509250925092565b60c0815260006200365260c0830189620032da565b8281036020840152620036668189620032da565b6001600160a01b03979097166040840152505060ff9390931660608401526001600160401b0391909116608083015260a09091015292915050565b634e487b7160e01b600052602160045260246000fd5b634e487b7160e01b600052601160045260246000fd5b81810381811115620004fc57620004fc620036b7565b80820180821115620004fc57620004fc620036b7565b9182526001600160a01b0316602082015260400190565b6000602082840312156200372357600080fd5b815162002da58162003235565b600181811c908216806200374557607f821691505b6020821081036200376657634e487b7160e01b600052602260045260246000fd5b50919050565b601f8211156200096a576000816000526020600020601f850160051c81016020861015620037975750805b601f850160051c820191505b818110156200063557828155600101620037a3565b81516001600160401b03811115620037d457620037d46200311b565b620037ec81620037e5845462003730565b846200376c565b602080601f8311600181146200382457600084156200380b5750858301515b600019600386901b1c1916600185901b17855562000635565b600085815260208120601f198616915b82811015620038555788860151825594840194600190910190840162003834565b5085821015620038745787850151600019600388901b60f8161c191681555b5050505050600190811b01905550565b828152604060208201526000620009d66040830184620032da565b60008251620038b3818460208701620032b4565b9190910192915050565b6001600160a01b0393841681526020810192909252909116604082015260600190565b60ff8181168382160190811115620004fc57620004fc620036b7565b8082028115828204841417620004fc57620004fc620036b7565b60008151808452602080850194506020840160005b83811015620035a1578151875295820195908201906001016200392b565b6001600160a01b03841681526060602082018190526000906200396f9083018562003565565b828103604084015262003983818562003916565b9695505050505050565b600060018060a01b03808716835260806020840152620039b1608084018762003565565b8381036040850152620039c5818762003916565b92505080841660608401525095945050505050565b60018060a01b038516815283602082015260806040820152600062003a036080830185620032da565b828103606084015262003a178185620032da565b979650505050505050565b600181815b8085111562003a6357816000190482111562003a475762003a47620036b7565b8085161562003a5557918102915b93841c939080029062003a27565b509250929050565b60008262003a7c57506001620004fc565b8162003a8b57506000620004fc565b816001811462003aa4576002811462003aaf5762003acf565b6001915050620004fc565b60ff84111562003ac35762003ac3620036b7565b50506001821b620004fc565b5060208310610133831016604e8410600b841016171562003af4575081810a620004fc565b62003b00838362003a22565b806000190482111562003b175762003b17620036b7565b029392505050565b6000620004f9838362003a6b565b634e487b7160e01b600052603260045260246000fd5b60ff8281168282160390811115620004fc57620004fc620036b7565b634e487b7160e01b600052603160045260246000fdfe60c060405234801561001057600080fd5b5060405161091538038061091583398101604081905261002f91610045565b6001600160a01b0390911660805260a05261007f565b6000806040838503121561005857600080fd5b82516001600160a01b038116811461006f57600080fd5b6020939093015192949293505050565b60805160a05161086c6100a9600039600060d1015260008181608d0152610514015261086c6000f3fe608060405234801561001057600080fd5b50600436106100835760003560e01c806325eb1c8714610088578063990db1fc146100cc578063beabacc814610101578063c3a9934214610116578063d11eccd614610129578063d742fa751461013c578063e1f21c671461014f578063e415c88d14610172578063ffa1ad7414610185575b600080fd5b6100af7f000000000000000000000000000000000000000000000000000000000000000081565b6040516001600160a01b0390911681526020015b60405180910390f35b6100f37f000000000000000000000000000000000000000000000000000000000000000081565b6040519081526020016100c3565b61011461010f366004610583565b6101b6565b005b610114610124366004610699565b610236565b610114610137366004610583565b610313565b61011461014a366004610699565b610383565b61016261015d366004610583565b610457565b60405190151581526020016100c3565b610114610180366004610583565b6104db565b6101a9604051806040016040528060058152602001640312e302e360dc1b81525081565b6040516100c3919061076b565b6101bf33610512565b60405163a9059cbb60e01b81526001600160a01b0384169063a9059cbb906101ed90859085906004016107ba565b6020604051808303816000875af115801561020c573d6000803e3d6000fd5b505050506040513d601f19601f8201168201806040525081019061023091906107d3565b50505050565b61023f33610512565b8151815181146102625760405163586cb9e160e01b815260040160405180910390fd5b60005b8181101561030c5783818151811061027f5761027f6107fc565b60200260200101516001600160a01b03166323b872dd30878685815181106102a9576102a96107fc565b60200260200101516040518463ffffffff1660e01b81526004016102cf93929190610812565b600060405180830381600087803b1580156102e957600080fd5b505af11580156102fd573d6000803e3d6000fd5b50505050806001019050610265565b5050505050565b61031c33610512565b6040516323b872dd60e01b81526001600160a01b038316906323b872dd9061034c90309087908690600401610812565b600060405180830381600087803b15801561036657600080fd5b505af115801561037a573d6000803e3d6000fd5b50505050505050565b61038c33610512565b8151815181146103af5760405163586cb9e160e01b815260040160405180910390fd5b60005b8181101561030c578381815181106103cc576103cc6107fc565b60200260200101516001600160a01b031663095ea7b3868584815181106103f5576103f56107fc565b60200260200101516040518363ffffffff1660e01b815260040161041a9291906107ba565b600060405180830381600087803b15801561043457600080fd5b505af1158015610448573d6000803e3d6000fd5b505050508060010190506103b2565b600061046233610512565b60405163095ea7b360e01b81526001600160a01b0385169063095ea7b39061049090869086906004016107ba565b6020604051808303816000875af11580156104af573d6000803e3d6000fd5b505050506040513d601f19601f820116820180604052508101906104d391906107d3565b949350505050565b6104e433610512565b60405163095ea7b360e01b81526001600160a01b0383169063095ea7b39061034c90869085906004016107ba565b7f00000000000000000000000000000000000000000000000000000000000000006001600160a01b0316816001600160a01b03161461056457604051639d6ebf3160e01b815260040160405180910390fd5b50565b80356001600160a01b038116811461057e57600080fd5b919050565b60008060006060848603121561059857600080fd5b6105a184610567565b92506105af60208501610567565b9150604084013590509250925092565b634e487b7160e01b600052604160045260246000fd5b604051601f8201601f1916810167ffffffffffffffff811182821017156105fe576105fe6105bf565b604052919050565b600067ffffffffffffffff821115610620576106206105bf565b5060051b60200190565b600082601f83011261063b57600080fd5b8135602061065061064b83610606565b6105d5565b8083825260208201915060208460051b87010193508684111561067257600080fd5b602086015b8481101561068e5780358352918301918301610677565b509695505050505050565b6000806000606084860312156106ae57600080fd5b6106b784610567565b925060208085013567ffffffffffffffff808211156106d557600080fd5b818701915087601f8301126106e957600080fd5b81356106f761064b82610606565b81815260059190911b8301840190848101908a83111561071657600080fd5b938501935b8285101561073b5761072c85610567565b8252938501939085019061071b565b96505050604087013592508083111561075357600080fd5b50506107618682870161062a565b9150509250925092565b60006020808352835180602085015260005b818110156107995785810183015185820160400152820161077d565b506000604082860101526040601f19601f8301168501019250505092915050565b6001600160a01b03929092168252602082015260400190565b6000602082840312156107e557600080fd5b815180151581146107f557600080fd5b9392505050565b634e487b7160e01b600052603260045260246000fd5b6001600160a01b03938416815291909216602082015260408101919091526060019056fea2646970667358221220e0a97d3d66f5296aac7b3dabddebc979577acf3caadd596eeb8aba3b87c1382c64736f6c6343000817003322573091f17911fb166032a3d9e0554aa73d31b7b7ddea4a4dd2995650af84bda264697066735822122078bd8f45d4f2fc4e6ab3aa6703f3b2d045980837d453edacc9f166134085a04a64736f6c63430008170033",
  "libraries": {},
  "devdoc": {
    "errors": {
      "InvalidInitialization()": [
        {
          "details": "The contract is already initialized."
        }
      ],
      "NotInitializing()": [
        {
          "details": "The contract is not initializing."
        }
      ]
    },
    "events": {
      "Initialized(uint64)": {
        "details": "Triggered when the contract has been initialized or reinitialized."
      }
    },
    "kind": "dev",
    "methods": {
      "created()": {
        "returns": {
          "_0": "Creation timestamp"
        }
      },
      "createdBlock()": {
        "returns": {
          "_0": "Creation block number"
        }
      },
      "increaseRevision(address)": {
        "details": "Revision should be increased on each contract upgrade"
      },
      "isController(address)": {
        "details": "Return true if given address is controller"
      },
      "previousImplementation()": {
        "details": "Previous logic implementation"
      },
      "removeGuildMember(address)": {
        "details": "To delete the guild the owner should remove all members and remove himself at the end"
      },
      "revision()": {
        "details": "Contract upgrade counter"
      },
      "setBaseFee(uint256)": {
        "params": {
          "fee": "Base fee value in terms of game token"
        }
      }
    },
    "stateVariables": {
      "VERSION": {
        "details": "Should be incremented when contract changed"
      }
    },
    "version": 1
  },
  "userdoc": {
    "kind": "user",
    "methods": {
      "CONTROLLABLE_VERSION()": {
        "notice": "Version of the contract"
      },
      "VERSION()": {
        "notice": "Version of the contract"
      },
      "addGuildMember(address,uint256)": {
        "notice": "Add new member to the guild to which msgSender belongs"
      },
      "changeRoles(address,uint256)": {
        "notice": "Edit roles of the given member of the guild to which msgSender belongs"
      },
      "controller()": {
        "notice": "Return controller address saved in the contract slot"
      },
      "createGuild(string,string,uint8)": {
        "notice": "Create new guild, return ID of the new guild"
      },
      "created()": {
        "notice": "Return creation timestamp"
      },
      "createdBlock()": {
        "notice": "Return creation block number"
      },
      "guildLevelUp()": {
        "notice": "Increment level of the guild, pay BASE_FEE * new level"
      },
      "isGovernance(address)": {
        "notice": "Return true if given address is setup as governance in Controller"
      },
      "removeGuildMember(address)": {
        "notice": "Remove given member from the guild to which msgSender belongs"
      },
      "rename(string)": {
        "notice": "Rename the guild, pay BASE_FEE"
      }
    },
    "version": 1
  },
  "storageLayout": {
    "storage": [],
    "types": null
  }
}