{
  "address": "0x48D22636aB28CB4e1Ae8b8CbC90c4c213f329Fd3",
  "abi": [
    {
      "inputs": [],
      "name": "AlreadyHaveReinforcement",
      "type": "error"
    },
    {
      "inputs": [
        {
          "internalType": "address",
          "name": "heroToken",
          "type": "address"
        },
        {
          "internalType": "uint256",
          "name": "heroTokenId",
          "type": "uint256"
        }
      ],
      "name": "ErrorHeroIsDead",
      "type": "error"
    },
    {
      "inputs": [
        {
          "internalType": "address",
          "name": "heroToken",
          "type": "address"
        }
      ],
      "name": "ErrorHeroIsNotRegistered",
      "type": "error"
    },
    {
      "inputs": [],
      "name": "ErrorHeroNotInDungeon",
      "type": "error"
    },
    {
      "inputs": [
        {
          "internalType": "uint256",
          "name": "biome",
          "type": "uint256"
        }
      ],
      "name": "ErrorIncorrectBiome",
      "type": "error"
    },
    {
      "inputs": [
        {
          "internalType": "address",
          "name": "sender",
          "type": "address"
        }
      ],
      "name": "ErrorNotDeployer",
      "type": "error"
    },
    {
      "inputs": [
        {
          "internalType": "address",
          "name": "sender",
          "type": "address"
        }
      ],
      "name": "ErrorNotDungeonFactory",
      "type": "error"
    },
    {
      "inputs": [
        {
          "internalType": "address",
          "name": "heroToken",
          "type": "address"
        },
        {
          "internalType": "address",
          "name": "msgSender",
          "type": "address"
        }
      ],
      "name": "ErrorNotHeroOwner",
      "type": "error"
    },
    {
      "inputs": [],
      "name": "ErrorPaused",
      "type": "error"
    },
    {
      "inputs": [],
      "name": "HeroInDungeon",
      "type": "error"
    },
    {
      "inputs": [],
      "name": "HeroTokensVaultAlreadySet",
      "type": "error"
    },
    {
      "inputs": [],
      "name": "InvalidInitialization",
      "type": "error"
    },
    {
      "inputs": [],
      "name": "ItemEquipped",
      "type": "error"
    },
    {
      "inputs": [],
      "name": "NameTaken",
      "type": "error"
    },
    {
      "inputs": [
        {
          "internalType": "address",
          "name": "token",
          "type": "address"
        },
        {
          "internalType": "uint256",
          "name": "payTokenAmount",
          "type": "uint256"
        }
      ],
      "name": "NoPayToken",
      "type": "error"
    },
    {
      "inputs": [
        {
          "internalType": "address",
          "name": "sender",
          "type": "address"
        }
      ],
      "name": "NotEOA",
      "type": "error"
    },
    {
      "inputs": [],
      "name": "NotInitializing",
      "type": "error"
    },
    {
      "inputs": [
        {
          "internalType": "address",
          "name": "heroToken",
          "type": "address"
        },
        {
          "internalType": "uint256",
          "name": "heroId",
          "type": "uint256"
        }
      ],
      "name": "Staked",
      "type": "error"
    },
    {
      "inputs": [],
      "name": "TooBigName",
      "type": "error"
    },
    {
      "inputs": [
        {
          "internalType": "uint256",
          "name": "biome",
          "type": "uint256"
        }
      ],
      "name": "TooHighBiome",
      "type": "error"
    },
    {
      "inputs": [
        {
          "internalType": "uint256",
          "name": "value",
          "type": "uint256"
        }
      ],
      "name": "TooHighValue",
      "type": "error"
    },
    {
      "inputs": [],
      "name": "WrongSymbolsInTheName",
      "type": "error"
    },
    {
      "inputs": [],
      "name": "ZeroAddress",
      "type": "error"
    },
    {
      "anonymous": false,
      "inputs": [
        {
          "indexed": false,
          "internalType": "address",
          "name": "hero",
          "type": "address"
        },
        {
          "indexed": false,
          "internalType": "uint256",
          "name": "heroId",
          "type": "uint256"
        },
        {
          "indexed": false,
          "internalType": "uint8",
          "name": "biome",
          "type": "uint8"
        }
      ],
      "name": "BiomeChanged",
      "type": "event"
    },
    {
      "anonymous": false,
      "inputs": [
        {
          "indexed": false,
          "internalType": "address",
          "name": "controller",
          "type": "address"
        },
        {
          "indexed": false,
          "internalType": "uint256",
          "name": "ts",
          "type": "uint256"
        },
        {
          "indexed": false,
          "internalType": "uint256",
          "name": "block",
          "type": "uint256"
        }
      ],
      "name": "ContractInitialized",
      "type": "event"
    },
    {
      "anonymous": false,
      "inputs": [
        {
          "indexed": false,
          "internalType": "address",
          "name": "hero",
          "type": "address"
        },
        {
          "indexed": false,
          "internalType": "uint256",
          "name": "heroId",
          "type": "uint256"
        },
        {
          "indexed": false,
          "internalType": "string",
          "name": "name",
          "type": "string"
        },
        {
          "indexed": false,
          "internalType": "address",
          "name": "owner",
          "type": "address"
        },
        {
          "indexed": false,
          "internalType": "string",
          "name": "refCode",
          "type": "string"
        }
      ],
      "name": "HeroCreated",
      "type": "event"
    },
    {
      "anonymous": false,
      "inputs": [
        {
          "indexed": false,
          "internalType": "address",
          "name": "hero",
          "type": "address"
        },
        {
          "indexed": false,
          "internalType": "uint8",
          "name": "heroClass",
          "type": "uint8"
        },
        {
          "indexed": false,
          "internalType": "address",
          "name": "payToken",
          "type": "address"
        },
        {
          "indexed": false,
          "internalType": "uint256",
          "name": "payAmount",
          "type": "uint256"
        }
      ],
      "name": "HeroRegistered",
      "type": "event"
    },
    {
      "anonymous": false,
      "inputs": [
        {
          "indexed": false,
          "internalType": "address",
          "name": "value",
          "type": "address"
        }
      ],
      "name": "HeroTokensVaultSet",
      "type": "event"
    },
    {
      "anonymous": false,
      "inputs": [
        {
          "indexed": false,
          "internalType": "uint64",
          "name": "version",
          "type": "uint64"
        }
      ],
      "name": "Initialized",
      "type": "event"
    },
    {
      "anonymous": false,
      "inputs": [
        {
          "indexed": false,
          "internalType": "address",
          "name": "hero",
          "type": "address"
        },
        {
          "indexed": false,
          "internalType": "uint256",
          "name": "heroId",
          "type": "uint256"
        },
        {
          "indexed": false,
          "internalType": "address",
          "name": "killer",
          "type": "address"
        },
        {
          "indexed": false,
          "internalType": "bytes32[]",
          "name": "dropItems",
          "type": "bytes32[]"
        },
        {
          "indexed": false,
          "internalType": "uint256",
          "name": "dropTokenAmount",
          "type": "uint256"
        }
      ],
      "name": "Killed",
      "type": "event"
    },
    {
      "anonymous": false,
      "inputs": [
        {
          "indexed": false,
          "internalType": "address",
          "name": "hero",
          "type": "address"
        },
        {
          "indexed": false,
          "internalType": "uint256",
          "name": "heroId",
          "type": "uint256"
        },
        {
          "indexed": false,
          "internalType": "address",
          "name": "owner",
          "type": "address"
        },
        {
          "components": [
            {
              "internalType": "int32",
              "name": "strength",
              "type": "int32"
            },
            {
              "internalType": "int32",
              "name": "dexterity",
              "type": "int32"
            },
            {
              "internalType": "int32",
              "name": "vitality",
              "type": "int32"
            },
            {
              "internalType": "int32",
              "name": "energy",
              "type": "int32"
            }
          ],
          "indexed": false,
          "internalType": "struct IStatController.CoreAttributes",
          "name": "change",
          "type": "tuple"
        }
      ],
      "name": "LevelUp",
      "type": "event"
    },
    {
      "anonymous": false,
      "inputs": [
        {
          "indexed": false,
          "internalType": "address",
          "name": "hero",
          "type": "address"
        },
        {
          "indexed": false,
          "internalType": "uint256",
          "name": "heroId",
          "type": "uint256"
        },
        {
          "indexed": false,
          "internalType": "address",
          "name": "helpHeroToken",
          "type": "address"
        },
        {
          "indexed": false,
          "internalType": "uint256",
          "name": "helpHeroId",
          "type": "uint256"
        }
      ],
      "name": "ReinforcementAsked",
      "type": "event"
    },
    {
      "anonymous": false,
      "inputs": [
        {
          "indexed": false,
          "internalType": "address",
          "name": "hero",
          "type": "address"
        },
        {
          "indexed": false,
          "internalType": "uint256",
          "name": "heroId",
          "type": "uint256"
        },
        {
          "indexed": false,
          "internalType": "address",
          "name": "helperToken",
          "type": "address"
        },
        {
          "indexed": false,
          "internalType": "uint256",
          "name": "helperId",
          "type": "uint256"
        }
      ],
      "name": "ReinforcementReleased",
      "type": "event"
    },
    {
      "anonymous": false,
      "inputs": [
        {
          "indexed": false,
          "internalType": "uint256",
          "name": "value",
          "type": "uint256"
        },
        {
          "indexed": false,
          "internalType": "address",
          "name": "oldLogic",
          "type": "address"
        }
      ],
      "name": "RevisionIncreased",
      "type": "event"
    },
    {
      "inputs": [],
      "name": "CONTROLLABLE_VERSION",
      "outputs": [
        {
          "internalType": "string",
          "name": "",
          "type": "string"
        }
      ],
      "stateMutability": "view",
      "type": "function"
    },
    {
      "inputs": [],
      "name": "VERSION",
      "outputs": [
        {
          "internalType": "string",
          "name": "",
          "type": "string"
        }
      ],
      "stateMutability": "view",
      "type": "function"
    },
    {
      "inputs": [
        {
          "internalType": "address",
          "name": "hero",
          "type": "address"
        },
        {
          "internalType": "uint256",
          "name": "heroId",
          "type": "uint256"
        }
      ],
      "name": "askReinforcement",
      "outputs": [],
      "stateMutability": "nonpayable",
      "type": "function"
    },
    {
      "inputs": [],
      "name": "controller",
      "outputs": [
        {
          "internalType": "address",
          "name": "",
          "type": "address"
        }
      ],
      "stateMutability": "view",
      "type": "function"
    },
    {
      "inputs": [
        {
          "internalType": "address",
          "name": "hero",
          "type": "address"
        },
        {
          "internalType": "string",
          "name": "heroName_",
          "type": "string"
        },
        {
          "internalType": "bool",
          "name": "enter",
          "type": "bool"
        }
      ],
      "name": "create",
      "outputs": [
        {
          "internalType": "uint256",
          "name": "",
          "type": "uint256"
        }
      ],
      "stateMutability": "nonpayable",
      "type": "function"
    },
    {
      "inputs": [
        {
          "internalType": "address",
          "name": "hero",
          "type": "address"
        },
        {
          "internalType": "string",
          "name": "heroName_",
          "type": "string"
        },
        {
          "internalType": "string",
          "name": "refCode",
          "type": "string"
        },
        {
          "internalType": "bool",
          "name": "enter",
          "type": "bool"
        }
      ],
      "name": "createWithRefCode",
      "outputs": [
        {
          "internalType": "uint256",
          "name": "",
          "type": "uint256"
        }
      ],
      "stateMutability": "nonpayable",
      "type": "function"
    },
    {
      "inputs": [],
      "name": "created",
      "outputs": [
        {
          "internalType": "uint256",
          "name": "",
          "type": "uint256"
        }
      ],
      "stateMutability": "view",
      "type": "function"
    },
    {
      "inputs": [],
      "name": "createdBlock",
      "outputs": [
        {
          "internalType": "uint256",
          "name": "",
          "type": "uint256"
        }
      ],
      "stateMutability": "view",
      "type": "function"
    },
    {
      "inputs": [
        {
          "internalType": "address",
          "name": "hero",
          "type": "address"
        },
        {
          "internalType": "uint256",
          "name": "heroId",
          "type": "uint256"
        }
      ],
      "name": "heroBiome",
      "outputs": [
        {
          "internalType": "uint8",
          "name": "",
          "type": "uint8"
        }
      ],
      "stateMutability": "view",
      "type": "function"
    },
    {
      "inputs": [
        {
          "internalType": "address",
          "name": "hero",
          "type": "address"
        }
      ],
      "name": "heroClass",
      "outputs": [
        {
          "internalType": "uint8",
          "name": "",
          "type": "uint8"
        }
      ],
      "stateMutability": "view",
      "type": "function"
    },
    {
      "inputs": [
        {
          "internalType": "address",
          "name": "hero",
          "type": "address"
        },
        {
          "internalType": "uint256",
          "name": "heroId",
          "type": "uint256"
        }
      ],
      "name": "heroName",
      "outputs": [
        {
          "internalType": "string",
          "name": "",
          "type": "string"
        }
      ],
      "stateMutability": "view",
      "type": "function"
    },
    {
      "inputs": [
        {
          "internalType": "address",
          "name": "hero",
          "type": "address"
        },
        {
          "internalType": "uint256",
          "name": "heroId",
          "type": "uint256"
        }
      ],
      "name": "heroReinforcementHelp",
      "outputs": [
        {
          "internalType": "address",
          "name": "helperHeroToken",
          "type": "address"
        },
        {
          "internalType": "uint256",
          "name": "helperHeroId",
          "type": "uint256"
        }
      ],
      "stateMutability": "view",
      "type": "function"
    },
    {
      "inputs": [],
      "name": "heroTokensVault",
      "outputs": [
        {
          "internalType": "address",
          "name": "",
          "type": "address"
        }
      ],
      "stateMutability": "view",
      "type": "function"
    },
    {
      "inputs": [
        {
          "internalType": "address",
          "name": "oldLogic",
          "type": "address"
        }
      ],
      "name": "increaseRevision",
      "outputs": [],
      "stateMutability": "nonpayable",
      "type": "function"
    },
    {
      "inputs": [
        {
          "internalType": "address",
          "name": "controller_",
          "type": "address"
        }
      ],
      "name": "init",
      "outputs": [],
      "stateMutability": "nonpayable",
      "type": "function"
    },
    {
      "inputs": [
        {
          "internalType": "address",
          "name": "hero",
          "type": "address"
        },
        {
          "internalType": "uint256",
          "name": "heroId",
          "type": "uint256"
        }
      ],
      "name": "isAllowedToTransfer",
      "outputs": [
        {
          "internalType": "bool",
          "name": "",
          "type": "bool"
        }
      ],
      "stateMutability": "view",
      "type": "function"
    },
    {
      "inputs": [
        {
          "internalType": "address",
          "name": "value_",
          "type": "address"
        }
      ],
      "name": "isController",
      "outputs": [
        {
          "internalType": "bool",
          "name": "",
          "type": "bool"
        }
      ],
      "stateMutability": "view",
      "type": "function"
    },
    {
      "inputs": [
        {
          "internalType": "address",
          "name": "value_",
          "type": "address"
        }
      ],
      "name": "isGovernance",
      "outputs": [
        {
          "internalType": "bool",
          "name": "",
          "type": "bool"
        }
      ],
      "stateMutability": "view",
      "type": "function"
    },
    {
      "inputs": [
        {
          "internalType": "address",
          "name": "forwarder",
          "type": "address"
        }
      ],
      "name": "isTrustedForwarder",
      "outputs": [
        {
          "internalType": "bool",
          "name": "",
          "type": "bool"
        }
      ],
      "stateMutability": "view",
      "type": "function"
    },
    {
      "inputs": [
        {
          "internalType": "address",
          "name": "hero",
          "type": "address"
        },
        {
          "internalType": "uint256",
          "name": "heroId",
          "type": "uint256"
        }
      ],
      "name": "kill",
      "outputs": [
        {
          "internalType": "bytes32[]",
          "name": "dropItems",
          "type": "bytes32[]"
        }
      ],
      "stateMutability": "nonpayable",
      "type": "function"
    },
    {
      "inputs": [
        {
          "internalType": "address",
          "name": "hero",
          "type": "address"
        },
        {
          "internalType": "uint256",
          "name": "heroId",
          "type": "uint256"
        },
        {
          "components": [
            {
              "internalType": "int32",
              "name": "strength",
              "type": "int32"
            },
            {
              "internalType": "int32",
              "name": "dexterity",
              "type": "int32"
            },
            {
              "internalType": "int32",
              "name": "vitality",
              "type": "int32"
            },
            {
              "internalType": "int32",
              "name": "energy",
              "type": "int32"
            }
          ],
          "internalType": "struct IStatController.CoreAttributes",
          "name": "change",
          "type": "tuple"
        }
      ],
      "name": "levelUp",
      "outputs": [],
      "stateMutability": "nonpayable",
      "type": "function"
    },
    {
      "inputs": [
        {
          "internalType": "string",
          "name": "name",
          "type": "string"
        }
      ],
      "name": "nameToHero",
      "outputs": [
        {
          "internalType": "address",
          "name": "hero",
          "type": "address"
        },
        {
          "internalType": "uint256",
          "name": "heroId",
          "type": "uint256"
        }
      ],
      "stateMutability": "view",
      "type": "function"
    },
    {
      "inputs": [
        {
          "internalType": "address",
          "name": "hero",
          "type": "address"
        }
      ],
      "name": "payTokenInfo",
      "outputs": [
        {
          "internalType": "address",
          "name": "token",
          "type": "address"
        },
        {
          "internalType": "uint256",
          "name": "amount",
          "type": "uint256"
        }
      ],
      "stateMutability": "view",
      "type": "function"
    },
    {
      "inputs": [],
      "name": "previousImplementation",
      "outputs": [
        {
          "internalType": "address",
          "name": "",
          "type": "address"
        }
      ],
      "stateMutability": "view",
      "type": "function"
    },
    {
      "inputs": [
        {
          "internalType": "address",
          "name": "hero",
          "type": "address"
        },
        {
          "internalType": "uint8",
          "name": "heroClass_",
          "type": "uint8"
        },
        {
          "internalType": "address",
          "name": "payToken",
          "type": "address"
        },
        {
          "internalType": "uint256",
          "name": "payAmount",
          "type": "uint256"
        }
      ],
      "name": "registerHero",
      "outputs": [],
      "stateMutability": "nonpayable",
      "type": "function"
    },
    {
      "inputs": [
        {
          "internalType": "address",
          "name": "hero",
          "type": "address"
        },
        {
          "internalType": "uint256",
          "name": "heroId",
          "type": "uint256"
        }
      ],
      "name": "releaseReinforcement",
      "outputs": [
        {
          "internalType": "address",
          "name": "helperToken",
          "type": "address"
        },
        {
          "internalType": "uint256",
          "name": "helperId",
          "type": "uint256"
        }
      ],
      "stateMutability": "nonpayable",
      "type": "function"
    },
    {
      "inputs": [],
      "name": "revision",
      "outputs": [
        {
          "internalType": "uint256",
          "name": "",
          "type": "uint256"
        }
      ],
      "stateMutability": "view",
      "type": "function"
    },
    {
      "inputs": [
        {
          "internalType": "address",
          "name": "hero",
          "type": "address"
        },
        {
          "internalType": "uint256",
          "name": "heroId",
          "type": "uint256"
        }
      ],
      "name": "score",
      "outputs": [
        {
          "internalType": "uint256",
          "name": "",
          "type": "uint256"
        }
      ],
      "stateMutability": "view",
      "type": "function"
    },
    {
      "inputs": [
        {
          "internalType": "address",
          "name": "hero",
          "type": "address"
        },
        {
          "internalType": "uint256",
          "name": "heroId",
          "type": "uint256"
        },
        {
          "internalType": "uint8",
          "name": "biome",
          "type": "uint8"
        }
      ],
      "name": "setBiome",
      "outputs": [],
      "stateMutability": "nonpayable",
      "type": "function"
    },
    {
      "inputs": [
        {
          "internalType": "address",
          "name": "value",
          "type": "address"
        }
      ],
      "name": "setHeroTokensVault",
      "outputs": [],
      "stateMutability": "nonpayable",
      "type": "function"
    }
  ],
  "transactionHash": "0x39da32059f7c6602171f917be57c9c6b2b2a64f15f453f0de5a534fba20583d8",
  "args": [],
  "numDeployments": 16,
  "solcInputHash": "eb7375f78aa5586f984b50496c8eef6c",
  "bytecode": "0x60806040523480156200001157600080fd5b507ff0c57e16840df040f15088dc2f81fe391c3923bec73e23a9662efc9c229c6a00805468010000000000000000810460ff1615906001600160401b03166000811580156200005d5750825b90506000826001600160401b031660011480156200007a5750303b155b90508115801562000089575080155b15620000a85760405163f92ee8a960e01b815260040160405180910390fd5b84546001600160401b03191660011785558315620000d757845460ff60401b1916680100000000000000001785555b83156200011e57845460ff60401b19168555604051600181527fc7f505b2f371ae2175ee4913f4499e1f2633a7b5936321eed1cdaeb6115181d29060200160405180910390a15b505050505061455780620001336000396000f3fe608060405234801561001057600080fd5b506004361061017a5760003560e01c80637cc96380116100d45780637cc96380146102da5780637d50cdaa146102e257806387a97d3f146102f557806392707802146103085780639325fac614610328578063936725ec1461033b57806395f0d29a1461035f5780639d0bcca014610372578063a13cf1061461037a578063a7c67c861461038d578063b429afeb146103a0578063d360a9c1146103b3578063dee1f0e4146103c6578063f77c4791146103d9578063ffa1ad74146103e157600080fd5b80631789b7b11461017f57806317d5cccc146101a957806319ab453c146101be5780631cb3cd4f146101d35780631ebd2493146101e657806320b7c941146101f957806327238f121461020c578063325a19f11461022f5780633b6d15c6146102455780634593144c14610258578063498abc70146102605780634fac6ccd14610281578063542c7b4614610294578063572b6c05146102b45780637401edba146102c7575b600080fd5b61019261018d3660046138f2565b610405565b60405160ff90911681526020015b60405180910390f35b6101b1610416565b6040516101a0919061390f565b6101d16101cc3660046138f2565b610425565b005b6101d16101e1366004613978565b61051f565b6101926101f4366004613a2f565b610547565b6101d1610207366004613a6a565b61055a565b61021f61021a366004613a2f565b610574565b60405190151581526020016101a0565b610237610588565b6040519081526020016101a0565b610237610253366004613b0a565b6105bc565b610237610625565b61027361026e366004613b9e565b610655565b6040516101a0929190613c32565b6101d161028f3660046138f2565b61066a565b6102a76102a2366004613a2f565b61077b565b6040516101a09190613c9b565b61021f6102c23660046138f2565b610787565b6102376102d5366004613a2f565b6107d5565b6102376107e9565b6101d16102f0366004613a2f565b610807565b610273610303366004613a2f565b61082d565b61031b610316366004613a2f565b610856565b6040516101a09190613cea565b6101d1610336366004613cfd565b610872565b6102a7604051806040016040528060058152602001640312e302e360dc1b81525081565b61027361036d366004613a2f565b610895565b6101b16108a2565b6102736103883660046138f2565b6108d2565b6101d161039b3660046138f2565b6108de565b61021f6103ae3660046138f2565b6108f2565b6102376103c1366004613d3f565b610917565b61021f6103d43660046138f2565b61093e565b6101b16109c3565b6102a760405180604001604052806005815260200164189718171960d91b81525081565b6000610410826109f3565b92915050565b6000610420610a22565b905090565b600061042f610a3b565b805490915060ff600160401b82041615906001600160401b03166000811580156104565750825b90506000826001600160401b031660011480156104725750303b155b905081158015610480575080155b1561049e5760405163f92ee8a960e01b815260040160405180910390fd5b845467ffffffffffffffff1916600117855583156104c857845460ff60401b1916600160401b1785555b6104d186610a5f565b831561051757845460ff60401b19168555604051600181527fc7f505b2f371ae2175ee4913f4499e1f2633a7b5936321eed1cdaeb6115181d29060200160405180910390a15b505050505050565b61054261052a610a70565b6105326109c3565b61053a610a88565b868686610aaa565b505050565b60006105538383610ac0565b9392505050565b61056e6105656109c3565b85858585610afd565b50505050565b60006105536105816109c3565b8484610b19565b60006104206105b860017f6f55f470bdc9cb5f04223fd822021061668e4dccb43e8727b295106dc9769c8b613dbc565b5490565b600061061a6105c9610a70565b6105d16109c3565b6105d9610a88565b8a8a8a8a8a8080601f0160208091040260200160405190810160405280939291908181526020018383808284376000920191909152508c9250610b2e915050565b979650505050505050565b60006104206105b860017f812a673dfca07956350df10f8a654925f561d7a0da09bdbe79e653939a14d9f1613dbc565b60008061066183610b55565b91509150915091565b3330146106bc5760405162461bcd60e51b815260206004820152601b60248201527a24b731b932b0b9b2903932bb34b9b4b7b7103337b93134b23232b760291b60448201526064015b60405180910390fd5b60006106da6105b86001600080516020614502833981519152613dbc565b6106e5906001613dcf565b9050610707816107046001600080516020614502833981519152613dbc565b55565b6107368261070460017fbfaaa2fb63266ff27c2da975f5894955056f50419af651a81f6c5060581857e4613dbc565b604080518281526001600160a01b03841660208201527ff27e2ef832a4eb8ed8ec553b875eecd44764cda95b1c24170e281539e0a869c8910160405180910390a15050565b60606105538383610b8c565b60006001600160a01b03821673d8253782c45a12053594b9deb72d8e8ab2fca54c148061041057506001600160a01b0382167352ceba41da235af367bfc0b0ccd3314cb901bb5f1492915050565b60006105536107e26109c3565b8484610c4d565b60006104206105b86001600080516020614502833981519152613dbc565b610829610812610a70565b61081a6109c3565b610822610a88565b8585610da4565b5050565b60008061084a61083b6109c3565b610843610a88565b8686610db9565b915091505b9250929050565b60606105536108636109c3565b61086b610a88565b8585610dd5565b61054261087d610a70565b6108856109c3565b61088d610a88565b868686610de3565b60008061084a8484610df9565b60006104206105b860017fbfaaa2fb63266ff27c2da975f5894955056f50419af651a81f6c5060581857e4613dbc565b60008061066183610e37565b6108ef6108e96109c3565b82610e6b565b50565b60006108fc6109c3565b6001600160a01b0316826001600160a01b0316149050919050565b60006109356109246109c3565b61092c610a88565b87878787610e7d565b95945050505050565b6000816001600160a01b03166109526109c3565b6001600160a01b0316635aa6e6756040518163ffffffff1660e01b8152600401602060405180830381865afa15801561098f573d6000803e3d6000fd5b505050506040513d601f19601f820116820180604052508101906109b39190613de2565b6001600160a01b03161492915050565b60006104206105b860017f5165972ef41194f06c5007493031d0b927c20741adcb74403b954009fd2c3618613dbc565b60006109fd610e9d565b6001600160a01b03909216600090815260029290920160205250604090205460ff1690565b6000610a2c610e9d565b546001600160a01b0316919050565b7ff0c57e16840df040f15088dc2f81fe391c3923bec73e23a9662efc9c229c6a0090565b610a67610ea7565b6108ef81610ece565b6000610a7b33610787565b8061042057505032331490565b6000610a9333610787565b15610aa5575060131936013560601c90565b503390565b610ab386610ff2565b6105178585858585611012565b6000610aca610e9d565b6005016000610ae26001600160a01b038616856112de565b815260208101919091526040016000205460ff169392505050565b610b068561132e565b610b12848484846113ba565b5050505050565b6000610b2684848461147b565b949350505050565b6000610b3989610ff2565b610b48888888888888886115c5565b9998505050505050505050565b600080610661610b63610e9d565b60040184604051610b749190613dff565b9081526020016040518091039020549060a082901c90565b6060610b96610e9d565b6003016000610bae6001600160a01b038616856112de565b81526020019081526020016000208054610bc790613e1b565b80601f0160208091040260200160405190810160405280929190818152602001828054610bf390613e1b565b8015610c405780601f10610c1557610100808354040283529160200191610c40565b820191906000526020600020905b815481529060010190602001808311610c2357829003601f168201915b5050505050905092915050565b600080846001600160a01b0316628e96916040518163ffffffff1660e01b8152600401602060405180830381865afa158015610c8d573d6000803e3d6000fd5b505050506040513d601f19601f82011682018060405250810190610cb19190613de2565b9050610935816001600160a01b0316631f051fa086866040518363ffffffff1660e01b8152600401610ce4929190613c32565b600060405180830381865afa158015610d01573d6000803e3d6000fd5b505050506040513d6000823e601f3d908101601f19168201604052610d299190810190613ef0565b604051631a95890960e31b81526001600160a01b0384169063d4ac484890610d579089908990600401613c32565b60a060405180830381865afa158015610d74573d6000803e3d6000fd5b505050506040513d601f19601f82011682018060405250810190610d989190613f3d565b5163ffffffff16611b77565b610dad85610ff2565b610b1284848484611b98565b600080610dc886868686611ef0565b9150915094509492505050565b6060610935858585856121ef565b610dec86610ff2565b6105178585858585612583565b60008061084a610e07610e9d565b6006016000610e1f6001600160a01b038816876112de565b8152602001908152602001600020549060a082901c90565b600080610661610e45610e9d565b6001600160a01b038516600090815260019190910160205260409020549060a082901c90565b610e748261132e565b610829816126fc565b600061061a878787878760405180602001604052806000815250886115c5565b60006104206127ac565b610eaf6127d0565b610ecc57604051631afcd79f60e31b815260040160405180910390fd5b565b6001600160a01b038116610f165760405162461bcd60e51b815260206004820152600f60248201526e2d32b9379031b7b73a3937b63632b960891b60448201526064016106b3565b610f458161070460017f5165972ef41194f06c5007493031d0b927c20741adcb74403b954009fd2c3618613dbc565b610f744261070460017f6f55f470bdc9cb5f04223fd822021061668e4dccb43e8727b295106dc9769c8b613dbc565b610fa34361070460017f812a673dfca07956350df10f8a654925f561d7a0da09bdbe79e653939a14d9f1613dbc565b604080516001600160a01b038316815242602082015243918101919091527f1a2dd071001ebf6e03174e3df5b305795a4ad5d41d8fdb9ba41dbbe236713426906060015b60405180910390a150565b806108ef57336040516377817ac360e01b81526004016106b3919061390f565b61101e858585856127ea565b6110298584846128be565b50611096856001600160a01b031663683fedf76040518163ffffffff1660e01b8152600401602060405180830381865afa15801561106b573d6000803e3d6000fd5b505050506040513d601f19601f8201168201806040525081019061108f9190613de2565b8484612a2b565b6110a1858484612ac0565b6000856001600160a01b0316628e96916040518163ffffffff1660e01b8152600401602060405180830381865afa1580156110e0573d6000803e3d6000fd5b505050506040513d601f19601f820116820180604052508101906111049190613de2565b905060008061113a6111146127ac565b6001600160a01b038816600090815260019190910160205260409020549060a082901c90565b90925090506001600160a01b0382161580611153575080155b156111755781816040516333f7df9760e11b81526004016106b3929190613c32565b6000836001600160a01b031663af6a572288886111906127ac565b6001600160a01b038c1660009081526002919091016020526040908190205490516001600160e01b031960e086901b1681526111d693929160ff16908b90600401613ffc565b6020604051808303816000875af11580156111f5573d6000803e3d6000fd5b505050506040513d601f19601f820116820180604052508101906112199190614029565b905060006112278284614042565b90506112316127ac565b54604051631e478ddf60e11b81526001600160a01b0390911690633c8f1bbe9061126390879085908e90600401614059565b600060405180830381600087803b15801561127d57600080fd5b505af1158015611291573d6000803e3d6000fd5b505050507f670be388881e5c89a1832bbcb766dd58a782cafce815af1dbeda4188c1c34fb288888b896040516112ca949392919061407c565b60405180910390a150505050505050505050565b60006001600160401b0382111561130b57604051633995b34160e01b8152600481018390526024016106b3565b5067ffffffffffffffff60a01b60a09190911b166001600160a01b039091161790565b604051631430d62960e21b81526001600160a01b038216906350c358a49061135a90339060040161390f565b602060405180830381865afa158015611377573d6000803e3d6000fd5b505050506040513d601f19601f8201168201806040525081019061139b91906140a8565b6108ef573360405163451cea1760e11b81526004016106b3919061390f565b826113c36127ac565b6001600160a01b0386811660009081526002929092016020526040909120805460ff191660ff939093169290921790915561140090831682612bb2565b6114086127ac565b6001600160a01b038681166000818152600193909301602090815260409384902094909455825190815260ff87169381019390935284168282015260608201839052517fc0155de360d47eaeaff9d27e2fb3819908a9025a3d325cd79d229592ead8df009181900360800190a150505050565b60006114be846001600160a01b031663683fedf76040518163ffffffff1660e01b8152600401602060405180830381865afa15801561106b573d6000803e3d6000fd5b836001600160a01b0316628e96916040518163ffffffff1660e01b8152600401602060405180830381865afa1580156114fb573d6000803e3d6000fd5b505050506040513d601f19601f8201168201806040525081019061151f9190613de2565b6001600160a01b031663fbed9ac584846040518363ffffffff1660e01b815260040161154c929190613c32565b600060405180830381865afa158015611569573d6000803e3d6000fd5b505050506040513d6000823e601f3d908101601f1916820160405261159191908101906140c5565b51156115b057604051630a87219960e21b815260040160405180910390fd5b6115bb848484612ac0565b5060019392505050565b60006115cf6127ac565b6001600160a01b0387166000908152600291909101602052604081205460ff169003611610578560405163adc7fced60e01b81526004016106b3919061390f565b600061161a6127ac565b600401868660405161162d929190614153565b9081526020016040518091039020541461165a57604051639e4b268560e01b815260040160405180910390fd5b6014841061167b576040516370ab3a0360e11b815260040160405180910390fd5b6116ba85858080601f016020809104026020016040519081016040528093929190818152602001838380828437600092019190915250612bff92505050565b6116d7576040516389974bd960e01b815260040160405180910390fd5b876001600160a01b03166318d928316040518163ffffffff1660e01b8152600401602060405180830381865afa158015611715573d6000803e3d6000fd5b505050506040513d601f19601f8201168201806040525081019061173991906140a8565b1561175757604051635e1633d360e11b815260040160405180910390fd5b604051631c795e3760e21b81526001600160a01b038716906371e578dc90611783908a9060040161390f565b6020604051808303816000875af11580156117a2573d6000803e3d6000fd5b505050506040513d601f19601f820116820180604052508101906117c69190614029565b905060006117dd6001600160a01b038816836112de565b905085856117e96127ac565b600084815260039190910160205260409020916118079190836141ab565b50806118116127ac565b6004018787604051611824929190614153565b908152602001604051809103902081905550886001600160a01b0316628e96916040518163ffffffff1660e01b8152600401602060405180830381865afa158015611873573d6000803e3d6000fd5b505050506040513d601f19601f820116820180604052508101906118979190613de2565b6001600160a01b03166333237c0988846118af6127ac565b6001600160a01b038c1660009081526002919091016020526040908190205490516001600160e01b031960e086901b1681526118f393929160ff169060040161426a565b600060405180830381600087803b15801561190d57600080fd5b505af1158015611921573d6000803e3d6000fd5b505050506000806119596119336127ac565b6001600160a01b038b16600090815260019190910160205260409020549060a082901c90565b90925090506001600160a01b038216156119da576119756127ac565b54604051631e478ddf60e11b81526001600160a01b0390911690633c8f1bbe906119a790859085908f90600401614059565b600060405180830381600087803b1580156119c157600080fd5b505af11580156119d5573d6000803e3d6000fd5b505050505b7f042b6a94425dedfd9cab18f9130a3d162e75fd2a816cd7b088b733634555f17489858a8a8e8b604051611a139695949392919061428e565b60405180910390a16001611a256127ac565b600501600085815260200190815260200160002060006101000a81548160ff021916908360ff1602179055507f548528b5eab74a6b2c96d3ea6fb246d4bafc50e211c3973b47ec10ad0effe46f89856001604051611a859392919061426a565b60405180910390a18415611b69578a6001600160a01b031663683fedf76040518163ffffffff1660e01b8152600401602060405180830381865afa158015611ad1573d6000803e3d6000fd5b505050506040513d601f19601f82011682018060405250810190611af59190613de2565b6001600160a01b031663d06969c78a868d6040518463ffffffff1660e01b8152600401611b2493929190614059565b6020604051808303816000875af1158015611b43573d6000803e3d6000fd5b505050506040513d601f19601f82011682018060405250810190611b6791906142f7565b505b505050979650505050505050565b6000611b856103e883614042565b611b8e84612c65565b6105539190613dcf565b611ba4848484846127ea565b611c10846001600160a01b031663683fedf76040518163ffffffff1660e01b8152600401602060405180830381865afa158015611be5573d6000803e3d6000fd5b505050506040513d601f19601f82011682018060405250810190611c099190613de2565b83836131ee565b6000611c256001600160a01b038416836112de565b90506000611c316127ac565b6000838152600691909101602052604090205414611c6257604051631c93a6e960e31b815260040160405180910390fd5b6000856001600160a01b0316628e96916040518163ffffffff1660e01b8152600401602060405180830381865afa158015611ca1573d6000803e3d6000fd5b505050506040513d601f19601f82011682018060405250810190611cc59190613de2565b90506000866001600160a01b0316632f91ede96040518163ffffffff1660e01b8152600401602060405180830381865afa158015611d07573d6000803e3d6000fd5b505050506040513d601f19601f82011682018060405250810190611d2b9190613de2565b90506000806000836001600160a01b0316633bd0033d611d496127ac565b600089815260059190910160205260409081902054905160e083901b6001600160e01b031916815260ff90911660048201526024016000604051808303816000875af1158015611d9d573d6000803e3d6000fd5b505050506040513d6000823e601f3d908101601f19168201604052611dc59190810190614320565b6040805160a0810182526001600160a01b038d81168252602082018d905281830184905260016060830152600060808301529151634ffa2edf60e11b8152949750929550909350871691639ff45dbe91611e2191600401614379565b600060405180830381600087803b158015611e3b57600080fd5b505af1158015611e4f573d6000803e3d6000fd5b50611e67925050506001600160a01b038416836112de565b611e6f6127ac565b60008881526006919091016020526040902055611e8b81613286565b611e936127ac565b60070160008881526020019081526020016000209080519060200190611eba929190613863565b507fb03aa2b3e79085a007537123a0d347753f0349d22e18c9bd6b8d44d7bbbe2d23888885856040516112ca9493929190614408565b600080611f5e866001600160a01b031663683fedf76040518163ffffffff1660e01b8152600401602060405180830381865afa158015611f34573d6000803e3d6000fd5b505050506040513d601f19601f82011682018060405250810190611f589190613de2565b86613397565b611f666127ac565b6001600160a01b0385166000908152600291909101602052604081205460ff169003611fa7578360405163adc7fced60e01b81526004016106b3919061390f565b6000611fbc6001600160a01b038616856112de565b9050611fe5611fc96127ac565b600083815260069190910160205260409020549060a082901c90565b90935091506001600160a01b038316156121e5576000876001600160a01b0316628e96916040518163ffffffff1660e01b8152600401602060405180830381865afa158015612038573d6000803e3d6000fd5b505050506040513d601f19601f8201168201806040525081019061205c9190613de2565b905060006120de602b61206d6127ac565b60070160008681526020019081526020016000208054806020026020016040519081016040528092919081815260200182805480156120cb57602002820191906000526020600020905b8154815260200190600101908083116120b7575b50505050506133cb90919063ffffffff16565b6040805160a0810182526001600160a01b038a81168252602082018a905281830184905260006060830181905260808301529151634ffa2edf60e11b815292935090841691639ff45dbe9161213591600401614379565b600060405180830381600087803b15801561214f57600080fd5b505af1158015612163573d6000803e3d6000fd5b5050505061216f6127ac565b6000848152600691909101602052604081205561218a6127ac565b6000848152600791909101602052604081206121a5916138ae565b7fd706d04d97d13bf3638215af61921215fca49e37cf4c1d91a2a07d1c73827876878787876040516121da9493929190614408565b60405180910390a150505b5094509492505050565b606061225c856001600160a01b031663683fedf76040518163ffffffff1660e01b8152600401602060405180830381865afa158015612232573d6000803e3d6000fd5b505050506040513d601f19601f820116820180604052508101906122569190613de2565b85613397565b6122646127ac565b6001600160a01b0384166000908152600291909101602052604081205460ff1690036122a5578260405163adc7fced60e01b81526004016106b3919061390f565b6000856001600160a01b0316628e96916040518163ffffffff1660e01b8152600401602060405180830381865afa1580156122e4573d6000803e3d6000fd5b505050506040513d601f19601f820116820180604052508101906123089190613de2565b905061237a866001600160a01b03166331423c266040518163ffffffff1660e01b8152600401602060405180830381865afa15801561234b573d6000803e3d6000fd5b505050506040513d601f19601f8201168201806040525081019061236f9190613de2565b828686896001613493565b9150806001600160a01b031663afb1a9ed85856040518060a00160405280600063ffffffff168152602001600063ffffffff168152602001866001600160a01b031663d4ac48488b8b6040518363ffffffff1660e01b81526004016123e0929190613c32565b60a060405180830381865afa1580156123fd573d6000803e3d6000fd5b505050506040513d601f19601f820116820180604052508101906124219190613f3d565b60409081015163ffffffff90811683526000602080850182905260019484019490945282516001600160e01b031960e08a901b1681526001600160a01b03909716600488015260248701959095528351811660448701529183015182166064860152820151811660848501526060820151811660a48501526080909101511660c483015260e482015261010401600060405180830381600087803b1580156124c857600080fd5b505af11580156124dc573d6000803e3d6000fd5b5050604051630852cd8d60e31b8152600481018690526001600160a01b03871692506342966c689150602401600060405180830381600087803b15801561252257600080fd5b505af1158015612536573d6000803e3d6000fd5b505050507f0a5a92d625a671065fa01b9e0e054b6a6844f5a7bee65a8502d60d3a6a601d46848487856000604051612572959493929190614432565b60405180910390a150949350505050565b61258f858585856127ea565b600061259c8685856128be565b90508160ff166000036125c757604051637d34ca9360e01b815260ff831660048201526024016106b3565b604051630718609f60e11b81526000906001600160a01b03831690630e30c13e906125f89088908890600401613c32565b602060405180830381865afa158015612615573d6000803e3d6000fd5b505050506040513d601f19601f820116820180604052508101906126399190614477565b9050612646816001614494565b60ff168360ff1611156126715760405163c312099f60e01b815260ff841660048201526024016106b3565b8261267a6127ac565b60050160006126926001600160a01b038916886112de565b815260200190815260200160002060006101000a81548160ff021916908360ff1602179055507f548528b5eab74a6b2c96d3ea6fb246d4bafc50e211c3973b47ec10ad0effe46f8585856040516126eb9392919061426a565b60405180910390a150505050505050565b6001600160a01b0381166127235760405163d92e233d60e01b815260040160405180910390fd5b600061272d6127ac565b546001600160a01b0316146127555760405163b0e87a0d60e01b815260040160405180910390fd5b8061275e6127ac565b80546001600160a01b0319166001600160a01b03929092169190911790556040517fa13d381eb2868391540dacba9c58337d34fd1fade1c903f7e7f6d806f66cb68b90610fe790839061390f565b7fd333325b749986e76669f0e0c2c1aa0e0abd19e216c3678477196e408924140090565b60006127da610a3b565b54600160401b900460ff16919050565b6127f582828561370d565b6127fd6127ac565b6001600160a01b0383166000908152600291909101602052604081205460ff16900361283e578160405163adc7fced60e01b81526004016106b3919061390f565b836001600160a01b03166318d928316040518163ffffffff1660e01b8152600401602060405180830381865afa15801561287c573d6000803e3d6000fd5b505050506040513d601f19601f820116820180604052508101906128a091906140a8565b1561056e57604051635e1633d360e11b815260040160405180910390fd5b600080846001600160a01b031663683fedf76040518163ffffffff1660e01b8152600401602060405180830381865afa1580156128ff573d6000803e3d6000fd5b505050506040513d601f19601f820116820180604052508101906129239190613de2565b9050612930818585612a2b565b61293b858585612ac0565b846001600160a01b0316628e96916040518163ffffffff1660e01b8152600401602060405180830381865afa158015612978573d6000803e3d6000fd5b505050506040513d601f19601f8201168201806040525081019061299c9190613de2565b6001600160a01b031663f16a306685856040518363ffffffff1660e01b81526004016129c9929190613c32565b602060405180830381865afa1580156129e6573d6000803e3d6000fd5b505050506040513d601f19601f82011682018060405250810190612a0a91906140a8565b610b2657838360405163033aace360e41b81526004016106b3929190613c32565b604051634d320f0160e11b81526001600160a01b03841690639a641e0290612a599085908590600401613c32565b602060405180830381865afa158015612a76573d6000803e3d6000fd5b505050506040513d601f19601f82011682018060405250810190612a9a91906142f7565b6001600160401b0316156105425760405162dc1c0b60e01b815260040160405180910390fd5b826001600160a01b0316632f91ede96040518163ffffffff1660e01b8152600401602060405180830381865afa158015612afe573d6000803e3d6000fd5b505050506040513d601f19601f82011682018060405250810190612b229190613de2565b6001600160a01b0316635451da1b83836040518363ffffffff1660e01b8152600401612b4f929190613c32565b602060405180830381865afa158015612b6c573d6000803e3d6000fd5b505050506040513d601f19601f82011682018060405250810190612b9091906140a8565b15610542578181604051634f38de4760e11b81526004016106b3929190613c32565b60006001600160601b03821115612bdf57604051633995b34160e01b8152600481018390526024016106b3565b506001600160a01b031960a09190911b166001600160a01b039091161790565b600081815b81518110156115bb576020828281518110612c2157612c216144ad565b016020015160f81c1080612c4e5750607f828281518110612c4457612c446144ad565b016020015160f81c115b15612c5d575060009392505050565b600101612c04565b600080600a612ca4612c948560045b81518110612c8457612c846144ad565b602002602001015160030b6137b5565b612c9f866005612c74565b6137e4565b612cae9190614042565b6101f4612cbc856008612c74565b612cc69190614042565b600a612cd3866007612c74565b612cdd9190614042565b6003612cea876006612c74565b612cf49190614042565b6064612d01886003612c74565b612d0b9190614042565b6064612d18896002612c74565b612d229190614042565b6064612d2f8a6001612c74565b612d399190614042565b6064612d468b6000612c74565b612d509190614042565b612d5a9190613dcf565b612d649190613dcf565b612d6e9190613dcf565b612d789190613dcf565b612d829190613dcf565b612d8c9190613dcf565b612d969190613dcf565b612da09082613dcf565b90506064612daf84600d612c74565b612db99190614042565b6064612dc685600c612c74565b612dd09190614042565b6064612ddd86600b612c74565b612de79190614042565b600a612df38782612c74565b612dfd9190614042565b600a612e0a886009612c74565b612e149190614042565b612e1e9190613dcf565b612e289190613dcf565b612e329190613dcf565b612e3c9190613dcf565b612e469082613dcf565b90506014612e55846015612c74565b612e5f9190614042565b6014612e6b8582612c74565b612e759190614042565b6014612e82866013612c74565b612e8c9190614042565b6014612e99876012612c74565b612ea39190614042565b6014612eb0886011612c74565b612eba9190614042565b6014612ec7896010612c74565b612ed19190614042565b6014612ede8a600f612c74565b612ee89190614042565b6014612ef58b600e612c74565b612eff9190614042565b612f099190613dcf565b612f139190613dcf565b612f1d9190613dcf565b612f279190613dcf565b612f319190613dcf565b612f3b9190613dcf565b612f459190613dcf565b612f4f9082613dcf565b90506064612f5e846029612c74565b612f689190614042565b6064612f75856026612c74565b612f7f9190614042565b6064612f8c866025612c74565b612f969190614042565b6064612fa3876024612c74565b612fad9190614042565b6064612fba886023612c74565b612fc49190614042565b6064612fd1896022612c74565b612fdb9190614042565b612fe59190613dcf565b612fef9190613dcf565b612ff99190613dcf565b6130039190613dcf565b61300d9190613dcf565b6130179082613dcf565b905060c861302684601d612c74565b6130309190614042565b60c861303d85601c612c74565b6130479190614042565b60c861305486601b612c74565b61305e9190614042565b60c861306b87601a612c74565b6130759190614042565b6096613082886019612c74565b61308c9190614042565b61012c61309a896017612c74565b6130a49190614042565b6127106130b28a6016612c74565b6130bc9190614042565b6130c69190613dcf565b6130d09190613dcf565b6130da9190613dcf565b6130e49190613dcf565b6130ee9190613dcf565b6130f89190613dcf565b6131029082613dcf565b9050604661311184602a612c74565b61311b9190614042565b60fa613128856028612c74565b6131329190614042565b60fa61313f866027612c74565b6131499190614042565b6101f4613157876021612c74565b6131619190614042565b6103e861316f886020612c74565b6131799190614042565b6103e861318789601f612c74565b6131919190614042565b60c861319e8a601e612c74565b6131a89190614042565b6131b29190613dcf565b6131bc9190613dcf565b6131c69190613dcf565b6131d09190613dcf565b6131da9190613dcf565b6131e49190613dcf565b6105539082613dcf565b604051634d320f0160e11b81526001600160a01b03841690639a641e029061321c9085908590600401613c32565b602060405180830381865afa158015613239573d6000803e3d6000fd5b505050506040513d601f19601f8201168201806040525081019061325d91906142f7565b6001600160401b0316600003610542576040516337bcc65160e01b815260040160405180910390fd5b606060006008835161329891906144d9565b6132a3906001613dcf565b90506000816001600160401b038111156132bf576132bf613923565b6040519080825280602002602001820160405280156132e8578160200160208202803683370190505b50905060005b8281101561338f5760005b600881101561338657600081613310846008614042565b61331a9190613dcf565b90508651811061332a5750613386565b613335826020614042565b878281518110613347576133476144ad565b602002602001015163ffffffff1660001b901b84848151811061336c5761336c6144ad565b6020908102919091010180519091179052506001016132f9565b506001016132ee565b509392505050565b806001600160a01b0316826001600160a01b031614610829578060405163cf219bef60e01b81526004016106b3919061390f565b60606000826001600160401b038111156133e7576133e7613923565b604051908082528060200260200182016040528015613410578160200160208202803683370190505b50905060005b845181101561338f5760005b600881101561348a57600081613439846008614042565b6134439190613dcf565b9050858110613452575061348a565b61345c87826137ff565b84828151811061346e5761346e6144ad565b60039290920b6020928302919091019091015250600101613422565b50600101613416565b60606000866001600160a01b031663fbed9ac587876040518363ffffffff1660e01b81526004016134c5929190613c32565b600060405180830381865afa1580156134e2573d6000803e3d6000fd5b505050506040513d6000823e601f3d908101601f1916820160405261350a91908101906140c5565b8051909150806001600160401b0381111561352757613527613923565b604051908082528060200260200182016040528015613550578160200160208202803683370190505b50925060005b81811015613700576000896001600160a01b0316633bdb788b8a8a878681518110613583576135836144ad565b60209081029190910101516040516001600160e01b031960e086901b1681526001600160a01b0390931660048401526001600160401b03909116602483015260ff166044820152606401602060405180830381865afa1580156135ea573d6000803e3d6000fd5b505050506040513d601f19601f8201168201806040525081019061360e9190614029565b90506000808260a081901c915091508c6001600160a01b0316631af6585983838e8e8b8a81518110613642576136426144ad565b60209081029190910101516040516001600160e01b031960e088901b1681526001600160a01b03958616600482015260248101949094529184166044840152606483015260ff166084820152908c1660a48201528a151560c482015260e401600060405180830381600087803b1580156136bb57600080fd5b505af11580156136cf573d6000803e3d6000fd5b50505050828785815181106136e6576136e66144ad565b602002602001018181525050505050806001019050613556565b5050509695505050505050565b6040516331a9108f60e11b8152600481018390526001600160a01b038083169190851690636352211e90602401602060405180830381865afa158015613757573d6000803e3d6000fd5b505050506040513d601f19601f8201168201806040525081019061377b9190613de2565b6001600160a01b0316146105425760405163c8e98f8960e01b81526001600160a01b038085166004830152821660248201526044016106b3565b6000808260030b12156137ca57506000919050565b60008260030b136137dd57506000919050565b5060030b90565b60006137f360028484186144d9565b61055390848416613dcf565b815160009061380f6008846144d9565b1061381c57506000610410565b6138276008836144ed565b613832906020614042565b8361383e6008856144d9565b8151811061384e5761384e6144ad565b602002602001015160001c901c905092915050565b82805482825590600052602060002090810192821561389e579160200282015b8281111561389e578251825591602001919060010190613883565b506138aa9291506138c8565b5090565b50805460008255906000526020600020908101906108ef91905b5b808211156138aa57600081556001016138c9565b6001600160a01b03811681146108ef57600080fd5b60006020828403121561390457600080fd5b8135610553816138dd565b6001600160a01b0391909116815260200190565b634e487b7160e01b600052604160045260246000fd5b604051601f8201601f191681016001600160401b038111828210171561396157613961613923565b604052919050565b8060030b81146108ef57600080fd5b600080600083850360c081121561398e57600080fd5b8435613999816138dd565b9350602085013592506080603f19820112156139b457600080fd5b50604051608081018181106001600160401b03821117156139d7576139d7613923565b60409081528501356139e881613969565b815260608501356139f881613969565b60208201526080850135613a0b81613969565b604082015260a0850135613a1e81613969565b606082015292959194509192509050565b60008060408385031215613a4257600080fd5b8235613a4d816138dd565b946020939093013593505050565b60ff811681146108ef57600080fd5b60008060008060808587031215613a8057600080fd5b8435613a8b816138dd565b93506020850135613a9b81613a5b565b92506040850135613aab816138dd565b9396929550929360600135925050565b60008083601f840112613acd57600080fd5b5081356001600160401b03811115613ae457600080fd5b60208301915083602082850101111561084f57600080fd5b80151581146108ef57600080fd5b60008060008060008060808789031215613b2357600080fd5b8635613b2e816138dd565b955060208701356001600160401b0380821115613b4a57600080fd5b613b568a838b01613abb565b90975095506040890135915080821115613b6f57600080fd5b50613b7c89828a01613abb565b9094509250506060870135613b9081613afc565b809150509295509295509295565b60006020808385031215613bb157600080fd5b82356001600160401b0380821115613bc857600080fd5b818501915085601f830112613bdc57600080fd5b813581811115613bee57613bee613923565b613c00601f8201601f19168501613939565b91508082528684828501011115613c1657600080fd5b8084840185840137600090820190930192909252509392505050565b6001600160a01b03929092168252602082015260400190565b60005b83811015613c66578181015183820152602001613c4e565b50506000910152565b60008151808452613c87816020860160208601613c4b565b601f01601f19169290920160200192915050565b6020815260006105536020830184613c6f565b60008151808452602080850194506020840160005b83811015613cdf57815187529582019590820190600101613cc3565b509495945050505050565b6020815260006105536020830184613cae565b600080600060608486031215613d1257600080fd5b8335613d1d816138dd565b9250602084013591506040840135613d3481613a5b565b809150509250925092565b60008060008060608587031215613d5557600080fd5b8435613d60816138dd565b935060208501356001600160401b03811115613d7b57600080fd5b613d8787828801613abb565b9094509250506040850135613d9b81613afc565b939692955090935050565b634e487b7160e01b600052601160045260246000fd5b8181038181111561041057610410613da6565b8082018082111561041057610410613da6565b600060208284031215613df457600080fd5b8151610553816138dd565b60008251613e11818460208701613c4b565b9190910192915050565b600181811c90821680613e2f57607f821691505b602082108103613e4f57634e487b7160e01b600052602260045260246000fd5b50919050565b60006001600160401b03821115613e6e57613e6e613923565b5060051b60200190565b600082601f830112613e8957600080fd5b81516020613e9e613e9983613e55565b613939565b8083825260208201915060208460051b870101935086841115613ec057600080fd5b602086015b84811015613ee5578051613ed881613969565b8352918301918301613ec5565b509695505050505050565b600060208284031215613f0257600080fd5b81516001600160401b03811115613f1857600080fd5b610b2684828501613e78565b805163ffffffff81168114613f3857600080fd5b919050565b600060a08284031215613f4f57600080fd5b60405160a081018181106001600160401b0382111715613f7157613f71613923565b604052613f7d83613f24565b8152613f8b60208401613f24565b6020820152613f9c60408401613f24565b6040820152613fad60608401613f24565b6060820152613fbe60808401613f24565b60808201529392505050565b805160030b8252602081015160030b6020830152604081015160030b6040830152606081015160030b60608301525050565b6001600160a01b03851681526020810184905260ff8316604082015260e081016109356060830184613fca565b60006020828403121561403b57600080fd5b5051919050565b808202811582820484141761041057610410613da6565b6001600160a01b0393841681526020810192909252909116604082015260600190565b6001600160a01b038581168252602082018590528316604082015260e081016109356060830184613fca565b6000602082840312156140ba57600080fd5b815161055381613afc565b600060208083850312156140d857600080fd5b82516001600160401b038111156140ee57600080fd5b8301601f810185136140ff57600080fd5b805161410d613e9982613e55565b81815260059190911b8201830190838101908783111561412c57600080fd5b928401925b8284101561061a57835161414481613a5b565b82529284019290840190614131565b8183823760009101908152919050565b601f821115610542576000816000526020600020601f850160051c8101602086101561418c5750805b601f850160051c820191505b8181101561051757828155600101614198565b6001600160401b038311156141c2576141c2613923565b6141d6836141d08354613e1b565b83614163565b6000601f84116001811461420a57600085156141f25750838201355b600019600387901b1c1916600186901b178355610b12565b600083815260209020601f19861690835b8281101561423b578685013582556020948501946001909201910161421b565b50868210156142585760001960f88860031b161c19848701351681555b505060018560011b0183555050505050565b6001600160a01b03939093168352602083019190915260ff16604082015260600190565b600060018060a01b03808916835287602084015260a060408401528560a0840152858760c0850137600060c08785010152601f19601f8701168301818616606085015260c08482030160808501526142e960c0820186613c6f565b9a9950505050505050505050565b60006020828403121561430957600080fd5b81516001600160401b038116811461055357600080fd5b60008060006060848603121561433557600080fd5b8351614340816138dd565b6020850151604086015191945092506001600160401b0381111561436357600080fd5b61436f86828701613e78565b9150509250925092565b602080825282516001600160a01b0316828201528281015160408084019190915283015160a06060840152805160c0840181905260009291820190839060e08601905b808310156143df57835160030b82529284019260019290920191908401906143bc565b50606087015180151560808801529350608087015180151560a088015293509695505050505050565b6001600160a01b039485168152602081019390935292166040820152606081019190915260800190565b6001600160a01b038681168252602082018690528416604082015260a06060820181905260009061446590830185613cae565b90508260808301529695505050505050565b60006020828403121561448957600080fd5b815161055381613a5b565b60ff818116838216019081111561041057610410613da6565b634e487b7160e01b600052603260045260246000fd5b634e487b7160e01b600052601260045260246000fd5b6000826144e8576144e86144c3565b500490565b6000826144fc576144fc6144c3565b50069056fe22573091f17911fb166032a3d9e0554aa73d31b7b7ddea4a4dd2995650af84bda264697066735822122010197df49af3b5d0be203c5a21e897fce293e3001197fad81d34c39206bbd50c64736f6c63430008170033",
  "libraries": {
    "HeroLib": "0x9C532a1C87De69F2Dba4317e8dC1F8cF6db5f42e"
  },
  "devdoc": {
    "errors": {
      "InvalidInitialization()": [
        {
          "details": "The contract is already initialized."
        }
      ],
      "NotInitializing()": [
        {
          "details": "The contract is not initializing."
        }
      ]
    },
    "events": {
      "Initialized(uint64)": {
        "details": "Triggered when the contract has been initialized or reinitialized."
      }
    },
    "kind": "dev",
    "methods": {
      "created()": {
        "returns": {
          "_0": "Creation timestamp"
        }
      },
      "createdBlock()": {
        "returns": {
          "_0": "Creation block number"
        }
      },
      "increaseRevision(address)": {
        "details": "Revision should be increased on each contract upgrade"
      },
      "isController(address)": {
        "details": "Return true if given address is controller"
      },
      "previousImplementation()": {
        "details": "Previous logic implementation"
      },
      "revision()": {
        "details": "Contract upgrade counter"
      }
    },
    "version": 1
  },
  "userdoc": {
    "kind": "user",
    "methods": {
      "CONTROLLABLE_VERSION()": {
        "notice": "Version of the contract"
      },
      "VERSION()": {
        "notice": "Version of the contract"
      },
      "controller()": {
        "notice": "Return controller address saved in the contract slot"
      },
      "created()": {
        "notice": "Return creation timestamp"
      },
      "createdBlock()": {
        "notice": "Return creation block number"
      },
      "isGovernance(address)": {
        "notice": "Return true if given address is setup as governance in Controller"
      }
    },
    "version": 1
  },
  "storageLayout": {
    "storage": [],
    "types": null
  }
}