{
  "address": "0x2f42A5A13bFBF5BA191B9EdBbde6dd137bb446c4",
  "abi": [
    {
      "inputs": [
        {
          "internalType": "address",
          "name": "item",
          "type": "address"
        }
      ],
      "name": "Broken",
      "type": "error"
    },
    {
      "inputs": [
        {
          "internalType": "address",
          "name": "item",
          "type": "address"
        }
      ],
      "name": "Consumable",
      "type": "error"
    },
    {
      "inputs": [],
      "name": "EquipForbiddenInDungeon",
      "type": "error"
    },
    {
      "inputs": [],
      "name": "ErrorEquipForbidden",
      "type": "error"
    },
    {
      "inputs": [
        {
          "internalType": "address",
          "name": "sender",
          "type": "address"
        }
      ],
      "name": "ErrorForbidden",
      "type": "error"
    },
    {
      "inputs": [
        {
          "internalType": "address",
          "name": "heroToken",
          "type": "address"
        }
      ],
      "name": "ErrorHeroIsNotRegistered",
      "type": "error"
    },
    {
      "inputs": [
        {
          "internalType": "address",
          "name": "sender",
          "type": "address"
        }
      ],
      "name": "ErrorNotDeployer",
      "type": "error"
    },
    {
      "inputs": [
        {
          "internalType": "address",
          "name": "heroToken",
          "type": "address"
        },
        {
          "internalType": "address",
          "name": "msgSender",
          "type": "address"
        }
      ],
      "name": "ErrorNotHeroOwner",
      "type": "error"
    },
    {
      "inputs": [],
      "name": "ErrorPaused",
      "type": "error"
    },
    {
      "inputs": [
        {
          "internalType": "int32",
          "name": "min",
          "type": "int32"
        },
        {
          "internalType": "int32",
          "name": "max",
          "type": "int32"
        }
      ],
      "name": "IncorrectMinMaxAttributeRange",
      "type": "error"
    },
    {
      "inputs": [
        {
          "internalType": "int256",
          "name": "value",
          "type": "int256"
        }
      ],
      "name": "IntOutOfRange",
      "type": "error"
    },
    {
      "inputs": [],
      "name": "InvalidInitialization",
      "type": "error"
    },
    {
      "inputs": [
        {
          "internalType": "address",
          "name": "item",
          "type": "address"
        }
      ],
      "name": "ItemIsAlreadyEquipped",
      "type": "error"
    },
    {
      "inputs": [],
      "name": "ItemMetaTypeChanged",
      "type": "error"
    },
    {
      "inputs": [],
      "name": "ItemTypeChanged",
      "type": "error"
    },
    {
      "inputs": [],
      "name": "LengthsMismatch",
      "type": "error"
    },
    {
      "inputs": [],
      "name": "LengthsMismatch",
      "type": "error"
    },
    {
      "inputs": [
        {
          "internalType": "address",
          "name": "sender",
          "type": "address"
        }
      ],
      "name": "NotEOA",
      "type": "error"
    },
    {
      "inputs": [
        {
          "internalType": "address",
          "name": "item",
          "type": "address"
        }
      ],
      "name": "NotEquipped",
      "type": "error"
    },
    {
      "inputs": [],
      "name": "NotInitializing",
      "type": "error"
    },
    {
      "inputs": [
        {
          "internalType": "uint256",
          "name": "index",
          "type": "uint256"
        },
        {
          "internalType": "uint256",
          "name": "length",
          "type": "uint256"
        }
      ],
      "name": "OutOfBounds",
      "type": "error"
    },
    {
      "inputs": [],
      "name": "RequirementsToItemAttributes",
      "type": "error"
    },
    {
      "inputs": [
        {
          "internalType": "address",
          "name": "heroToken",
          "type": "address"
        },
        {
          "internalType": "uint256",
          "name": "heroId",
          "type": "uint256"
        }
      ],
      "name": "Staked",
      "type": "error"
    },
    {
      "inputs": [],
      "name": "TakeOffForbiddenInDungeon",
      "type": "error"
    },
    {
      "inputs": [
        {
          "internalType": "uint256",
          "name": "value",
          "type": "uint256"
        }
      ],
      "name": "TooHighValue",
      "type": "error"
    },
    {
      "inputs": [
        {
          "internalType": "address",
          "name": "item",
          "type": "address"
        }
      ],
      "name": "UnknownItem",
      "type": "error"
    },
    {
      "inputs": [],
      "name": "ZeroItemMetaType",
      "type": "error"
    },
    {
      "inputs": [],
      "name": "ZeroLevel",
      "type": "error"
    },
    {
      "inputs": [],
      "name": "ZeroLife",
      "type": "error"
    },
    {
      "inputs": [],
      "name": "ZeroValue",
      "type": "error"
    },
    {
      "anonymous": false,
      "inputs": [
        {
          "indexed": false,
          "internalType": "address",
          "name": "controller",
          "type": "address"
        },
        {
          "indexed": false,
          "internalType": "uint256",
          "name": "ts",
          "type": "uint256"
        },
        {
          "indexed": false,
          "internalType": "uint256",
          "name": "block",
          "type": "uint256"
        }
      ],
      "name": "ContractInitialized",
      "type": "event"
    },
    {
      "anonymous": false,
      "inputs": [
        {
          "indexed": false,
          "internalType": "address",
          "name": "item",
          "type": "address"
        },
        {
          "indexed": false,
          "internalType": "uint256",
          "name": "itemId",
          "type": "uint256"
        },
        {
          "indexed": false,
          "internalType": "address",
          "name": "heroToken",
          "type": "address"
        },
        {
          "indexed": false,
          "internalType": "uint256",
          "name": "heroTokenId",
          "type": "uint256"
        },
        {
          "indexed": false,
          "internalType": "uint8",
          "name": "itemSlot",
          "type": "uint8"
        }
      ],
      "name": "Equipped",
      "type": "event"
    },
    {
      "anonymous": false,
      "inputs": [
        {
          "indexed": false,
          "internalType": "uint64",
          "name": "version",
          "type": "uint64"
        }
      ],
      "name": "Initialized",
      "type": "event"
    },
    {
      "anonymous": false,
      "inputs": [
        {
          "indexed": false,
          "internalType": "address",
          "name": "item",
          "type": "address"
        },
        {
          "components": [
            {
              "components": [
                {
                  "internalType": "uint8",
                  "name": "itemMetaType",
                  "type": "uint8"
                },
                {
                  "internalType": "uint8",
                  "name": "itemLevel",
                  "type": "uint8"
                },
                {
                  "internalType": "enum IItemController.ItemType",
                  "name": "itemType",
                  "type": "uint8"
                },
                {
                  "internalType": "uint16",
                  "name": "baseDurability",
                  "type": "uint16"
                },
                {
                  "internalType": "uint8",
                  "name": "defaultRarity",
                  "type": "uint8"
                },
                {
                  "internalType": "uint32",
                  "name": "manaCost",
                  "type": "uint32"
                },
                {
                  "internalType": "uint8",
                  "name": "minRandomAttributes",
                  "type": "uint8"
                },
                {
                  "internalType": "uint8",
                  "name": "maxRandomAttributes",
                  "type": "uint8"
                },
                {
                  "components": [
                    {
                      "internalType": "int32",
                      "name": "strength",
                      "type": "int32"
                    },
                    {
                      "internalType": "int32",
                      "name": "dexterity",
                      "type": "int32"
                    },
                    {
                      "internalType": "int32",
                      "name": "vitality",
                      "type": "int32"
                    },
                    {
                      "internalType": "int32",
                      "name": "energy",
                      "type": "int32"
                    }
                  ],
                  "internalType": "struct IStatController.CoreAttributes",
                  "name": "requirements",
                  "type": "tuple"
                }
              ],
              "internalType": "struct IItemController.ItemMeta",
              "name": "itemMeta",
              "type": "tuple"
            },
            {
              "internalType": "address",
              "name": "augmentToken",
              "type": "address"
            },
            {
              "internalType": "uint256",
              "name": "augmentAmount",
              "type": "uint256"
            },
            {
              "components": [
                {
                  "internalType": "uint8[]",
                  "name": "ids",
                  "type": "uint8[]"
                },
                {
                  "internalType": "int32[]",
                  "name": "mins",
                  "type": "int32[]"
                },
                {
                  "internalType": "int32[]",
                  "name": "maxs",
                  "type": "int32[]"
                },
                {
                  "internalType": "uint32[]",
                  "name": "chances",
                  "type": "uint32[]"
                }
              ],
              "internalType": "struct IItemController.ItemGenerateInfo",
              "name": "commonAttributes",
              "type": "tuple"
            },
            {
              "components": [
                {
                  "internalType": "uint8[]",
                  "name": "ids",
                  "type": "uint8[]"
                },
                {
                  "internalType": "int32[]",
                  "name": "values",
                  "type": "int32[]"
                }
              ],
              "internalType": "struct IGOC.AttributeGenerateInfo",
              "name": "consumableAttributes",
              "type": "tuple"
            },
            {
              "components": [
                {
                  "internalType": "uint32",
                  "name": "level",
                  "type": "uint32"
                },
                {
                  "internalType": "uint32",
                  "name": "experience",
                  "type": "uint32"
                },
                {
                  "internalType": "uint32",
                  "name": "life",
                  "type": "uint32"
                },
                {
                  "internalType": "uint32",
                  "name": "mana",
                  "type": "uint32"
                },
                {
                  "internalType": "uint32",
                  "name": "lifeChances",
                  "type": "uint32"
                }
              ],
              "internalType": "struct IStatController.ChangeableStats",
              "name": "consumableStats",
              "type": "tuple"
            },
            {
              "components": [
                {
                  "internalType": "uint8[]",
                  "name": "ids",
                  "type": "uint8[]"
                },
                {
                  "internalType": "int32[]",
                  "name": "mins",
                  "type": "int32[]"
                },
                {
                  "internalType": "int32[]",
                  "name": "maxs",
                  "type": "int32[]"
                },
                {
                  "internalType": "uint32[]",
                  "name": "chances",
                  "type": "uint32[]"
                }
              ],
              "internalType": "struct IItemController.ItemGenerateInfo",
              "name": "casterAttributes",
              "type": "tuple"
            },
            {
              "components": [
                {
                  "internalType": "uint8[]",
                  "name": "ids",
                  "type": "uint8[]"
                },
                {
                  "internalType": "int32[]",
                  "name": "mins",
                  "type": "int32[]"
                },
                {
                  "internalType": "int32[]",
                  "name": "maxs",
                  "type": "int32[]"
                },
                {
                  "internalType": "uint32[]",
                  "name": "chances",
                  "type": "uint32[]"
                }
              ],
              "internalType": "struct IItemController.ItemGenerateInfo",
              "name": "targetAttributes",
              "type": "tuple"
            },
            {
              "components": [
                {
                  "internalType": "enum IItemController.AttackType",
                  "name": "aType",
                  "type": "uint8"
                },
                {
                  "internalType": "int32",
                  "name": "min",
                  "type": "int32"
                },
                {
                  "internalType": "int32",
                  "name": "max",
                  "type": "int32"
                },
                {
                  "components": [
                    {
                      "internalType": "int32",
                      "name": "strength",
                      "type": "int32"
                    },
                    {
                      "internalType": "int32",
                      "name": "dexterity",
                      "type": "int32"
                    },
                    {
                      "internalType": "int32",
                      "name": "vitality",
                      "type": "int32"
                    },
                    {
                      "internalType": "int32",
                      "name": "energy",
                      "type": "int32"
                    }
                  ],
                  "internalType": "struct IStatController.CoreAttributes",
                  "name": "attributeFactors",
                  "type": "tuple"
                }
              ],
              "internalType": "struct IItemController.AttackInfo",
              "name": "genAttackInfo",
              "type": "tuple"
            }
          ],
          "indexed": false,
          "internalType": "struct IItemController.RegisterItemParams",
          "name": "info",
          "type": "tuple"
        }
      ],
      "name": "ItemRegistered",
      "type": "event"
    },
    {
      "anonymous": false,
      "inputs": [
        {
          "indexed": false,
          "internalType": "address",
          "name": "item",
          "type": "address"
        }
      ],
      "name": "ItemRemoved",
      "type": "event"
    },
    {
      "anonymous": false,
      "inputs": [
        {
          "indexed": false,
          "internalType": "uint256",
          "name": "value",
          "type": "uint256"
        },
        {
          "indexed": false,
          "internalType": "address",
          "name": "oldLogic",
          "type": "address"
        }
      ],
      "name": "RevisionIncreased",
      "type": "event"
    },
    {
      "anonymous": false,
      "inputs": [
        {
          "indexed": false,
          "internalType": "address",
          "name": "item",
          "type": "address"
        },
        {
          "indexed": false,
          "internalType": "uint256",
          "name": "itemId",
          "type": "uint256"
        },
        {
          "indexed": false,
          "internalType": "address",
          "name": "heroToken",
          "type": "address"
        },
        {
          "indexed": false,
          "internalType": "uint256",
          "name": "heroTokenId",
          "type": "uint256"
        },
        {
          "indexed": false,
          "internalType": "uint8",
          "name": "itemSlot",
          "type": "uint8"
        },
        {
          "indexed": false,
          "internalType": "address",
          "name": "destination",
          "type": "address"
        }
      ],
      "name": "TakenOff",
      "type": "event"
    },
    {
      "inputs": [],
      "name": "CONTROLLABLE_VERSION",
      "outputs": [
        {
          "internalType": "string",
          "name": "",
          "type": "string"
        }
      ],
      "stateMutability": "view",
      "type": "function"
    },
    {
      "inputs": [],
      "name": "VERSION",
      "outputs": [
        {
          "internalType": "string",
          "name": "",
          "type": "string"
        }
      ],
      "stateMutability": "view",
      "type": "function"
    },
    {
      "inputs": [
        {
          "internalType": "address",
          "name": "item",
          "type": "address"
        },
        {
          "internalType": "uint256",
          "name": "itemId",
          "type": "uint256"
        },
        {
          "internalType": "uint256",
          "name": "consumedItemId",
          "type": "uint256"
        }
      ],
      "name": "augment",
      "outputs": [],
      "stateMutability": "nonpayable",
      "type": "function"
    },
    {
      "inputs": [
        {
          "internalType": "address",
          "name": "item",
          "type": "address"
        }
      ],
      "name": "augmentInfo",
      "outputs": [
        {
          "internalType": "address",
          "name": "token",
          "type": "address"
        },
        {
          "internalType": "uint256",
          "name": "amount",
          "type": "uint256"
        }
      ],
      "stateMutability": "view",
      "type": "function"
    },
    {
      "inputs": [
        {
          "internalType": "address",
          "name": "item",
          "type": "address"
        },
        {
          "internalType": "uint256",
          "name": "itemId",
          "type": "uint256"
        }
      ],
      "name": "casterAttributes",
      "outputs": [
        {
          "internalType": "int32[]",
          "name": "values",
          "type": "int32[]"
        },
        {
          "internalType": "uint8[]",
          "name": "ids",
          "type": "uint8[]"
        }
      ],
      "stateMutability": "view",
      "type": "function"
    },
    {
      "inputs": [
        {
          "internalType": "address",
          "name": "item",
          "type": "address"
        }
      ],
      "name": "consumableAttributes",
      "outputs": [
        {
          "internalType": "int32[]",
          "name": "values",
          "type": "int32[]"
        },
        {
          "internalType": "uint8[]",
          "name": "ids",
          "type": "uint8[]"
        }
      ],
      "stateMutability": "view",
      "type": "function"
    },
    {
      "inputs": [
        {
          "internalType": "address",
          "name": "item",
          "type": "address"
        }
      ],
      "name": "consumableStats",
      "outputs": [
        {
          "components": [
            {
              "internalType": "uint32",
              "name": "level",
              "type": "uint32"
            },
            {
              "internalType": "uint32",
              "name": "experience",
              "type": "uint32"
            },
            {
              "internalType": "uint32",
              "name": "life",
              "type": "uint32"
            },
            {
              "internalType": "uint32",
              "name": "mana",
              "type": "uint32"
            },
            {
              "internalType": "uint32",
              "name": "lifeChances",
              "type": "uint32"
            }
          ],
          "internalType": "struct IStatController.ChangeableStats",
          "name": "stats",
          "type": "tuple"
        }
      ],
      "stateMutability": "view",
      "type": "function"
    },
    {
      "inputs": [],
      "name": "controller",
      "outputs": [
        {
          "internalType": "address",
          "name": "",
          "type": "address"
        }
      ],
      "stateMutability": "view",
      "type": "function"
    },
    {
      "inputs": [],
      "name": "created",
      "outputs": [
        {
          "internalType": "uint256",
          "name": "",
          "type": "uint256"
        }
      ],
      "stateMutability": "view",
      "type": "function"
    },
    {
      "inputs": [],
      "name": "createdBlock",
      "outputs": [
        {
          "internalType": "uint256",
          "name": "",
          "type": "uint256"
        }
      ],
      "stateMutability": "view",
      "type": "function"
    },
    {
      "inputs": [
        {
          "internalType": "address",
          "name": "item",
          "type": "address"
        },
        {
          "internalType": "uint256",
          "name": "itemId",
          "type": "uint256"
        }
      ],
      "name": "destroy",
      "outputs": [],
      "stateMutability": "nonpayable",
      "type": "function"
    },
    {
      "inputs": [
        {
          "internalType": "address",
          "name": "heroToken",
          "type": "address"
        },
        {
          "internalType": "uint256",
          "name": "heroTokenId",
          "type": "uint256"
        },
        {
          "internalType": "address[]",
          "name": "items",
          "type": "address[]"
        },
        {
          "internalType": "uint256[]",
          "name": "tokenIds",
          "type": "uint256[]"
        },
        {
          "internalType": "uint8[]",
          "name": "itemSlots",
          "type": "uint8[]"
        }
      ],
      "name": "equip",
      "outputs": [],
      "stateMutability": "nonpayable",
      "type": "function"
    },
    {
      "inputs": [
        {
          "internalType": "address",
          "name": "item",
          "type": "address"
        },
        {
          "internalType": "uint256",
          "name": "itemId",
          "type": "uint256"
        }
      ],
      "name": "equippedOn",
      "outputs": [
        {
          "internalType": "address",
          "name": "hero",
          "type": "address"
        },
        {
          "internalType": "uint256",
          "name": "heroId",
          "type": "uint256"
        }
      ],
      "stateMutability": "view",
      "type": "function"
    },
    {
      "inputs": [
        {
          "internalType": "address",
          "name": "item",
          "type": "address"
        }
      ],
      "name": "genAttackInfo",
      "outputs": [
        {
          "components": [
            {
              "internalType": "enum IItemController.AttackType",
              "name": "aType",
              "type": "uint8"
            },
            {
              "internalType": "int32",
              "name": "min",
              "type": "int32"
            },
            {
              "internalType": "int32",
              "name": "max",
              "type": "int32"
            },
            {
              "components": [
                {
                  "internalType": "int32",
                  "name": "strength",
                  "type": "int32"
                },
                {
                  "internalType": "int32",
                  "name": "dexterity",
                  "type": "int32"
                },
                {
                  "internalType": "int32",
                  "name": "vitality",
                  "type": "int32"
                },
                {
                  "internalType": "int32",
                  "name": "energy",
                  "type": "int32"
                }
              ],
              "internalType": "struct IStatController.CoreAttributes",
              "name": "attributeFactors",
              "type": "tuple"
            }
          ],
          "internalType": "struct IItemController.AttackInfo",
          "name": "info",
          "type": "tuple"
        }
      ],
      "stateMutability": "view",
      "type": "function"
    },
    {
      "inputs": [
        {
          "internalType": "address",
          "name": "item",
          "type": "address"
        }
      ],
      "name": "genAttributeInfo",
      "outputs": [
        {
          "components": [
            {
              "internalType": "uint8[]",
              "name": "ids",
              "type": "uint8[]"
            },
            {
              "internalType": "int32[]",
              "name": "mins",
              "type": "int32[]"
            },
            {
              "internalType": "int32[]",
              "name": "maxs",
              "type": "int32[]"
            },
            {
              "internalType": "uint32[]",
              "name": "chances",
              "type": "uint32[]"
            }
          ],
          "internalType": "struct IItemController.ItemGenerateInfo",
          "name": "info",
          "type": "tuple"
        }
      ],
      "stateMutability": "view",
      "type": "function"
    },
    {
      "inputs": [
        {
          "internalType": "address",
          "name": "item",
          "type": "address"
        }
      ],
      "name": "genCasterAttributeInfo",
      "outputs": [
        {
          "components": [
            {
              "internalType": "uint8[]",
              "name": "ids",
              "type": "uint8[]"
            },
            {
              "internalType": "int32[]",
              "name": "mins",
              "type": "int32[]"
            },
            {
              "internalType": "int32[]",
              "name": "maxs",
              "type": "int32[]"
            },
            {
              "internalType": "uint32[]",
              "name": "chances",
              "type": "uint32[]"
            }
          ],
          "internalType": "struct IItemController.ItemGenerateInfo",
          "name": "info",
          "type": "tuple"
        }
      ],
      "stateMutability": "view",
      "type": "function"
    },
    {
      "inputs": [
        {
          "internalType": "address",
          "name": "item",
          "type": "address"
        }
      ],
      "name": "genTargetAttributeInfo",
      "outputs": [
        {
          "components": [
            {
              "internalType": "uint8[]",
              "name": "ids",
              "type": "uint8[]"
            },
            {
              "internalType": "int32[]",
              "name": "mins",
              "type": "int32[]"
            },
            {
              "internalType": "int32[]",
              "name": "maxs",
              "type": "int32[]"
            },
            {
              "internalType": "uint32[]",
              "name": "chances",
              "type": "uint32[]"
            }
          ],
          "internalType": "struct IItemController.ItemGenerateInfo",
          "name": "info",
          "type": "tuple"
        }
      ],
      "stateMutability": "view",
      "type": "function"
    },
    {
      "inputs": [
        {
          "internalType": "address",
          "name": "oldLogic",
          "type": "address"
        }
      ],
      "name": "increaseRevision",
      "outputs": [],
      "stateMutability": "nonpayable",
      "type": "function"
    },
    {
      "inputs": [
        {
          "internalType": "address",
          "name": "controller_",
          "type": "address"
        }
      ],
      "name": "init",
      "outputs": [],
      "stateMutability": "nonpayable",
      "type": "function"
    },
    {
      "inputs": [
        {
          "internalType": "address",
          "name": "item",
          "type": "address"
        },
        {
          "internalType": "uint256",
          "name": "itemId",
          "type": "uint256"
        }
      ],
      "name": "isAllowedToTransfer",
      "outputs": [
        {
          "internalType": "bool",
          "name": "",
          "type": "bool"
        }
      ],
      "stateMutability": "view",
      "type": "function"
    },
    {
      "inputs": [
        {
          "internalType": "address",
          "name": "value_",
          "type": "address"
        }
      ],
      "name": "isController",
      "outputs": [
        {
          "internalType": "bool",
          "name": "",
          "type": "bool"
        }
      ],
      "stateMutability": "view",
      "type": "function"
    },
    {
      "inputs": [
        {
          "internalType": "address",
          "name": "value_",
          "type": "address"
        }
      ],
      "name": "isGovernance",
      "outputs": [
        {
          "internalType": "bool",
          "name": "",
          "type": "bool"
        }
      ],
      "stateMutability": "view",
      "type": "function"
    },
    {
      "inputs": [
        {
          "internalType": "address",
          "name": "forwarder",
          "type": "address"
        }
      ],
      "name": "isTrustedForwarder",
      "outputs": [
        {
          "internalType": "bool",
          "name": "",
          "type": "bool"
        }
      ],
      "stateMutability": "view",
      "type": "function"
    },
    {
      "inputs": [
        {
          "internalType": "address",
          "name": "item",
          "type": "address"
        },
        {
          "internalType": "uint256",
          "name": "itemId",
          "type": "uint256"
        }
      ],
      "name": "itemAttackInfo",
      "outputs": [
        {
          "components": [
            {
              "internalType": "enum IItemController.AttackType",
              "name": "aType",
              "type": "uint8"
            },
            {
              "internalType": "int32",
              "name": "min",
              "type": "int32"
            },
            {
              "internalType": "int32",
              "name": "max",
              "type": "int32"
            },
            {
              "components": [
                {
                  "internalType": "int32",
                  "name": "strength",
                  "type": "int32"
                },
                {
                  "internalType": "int32",
                  "name": "dexterity",
                  "type": "int32"
                },
                {
                  "internalType": "int32",
                  "name": "vitality",
                  "type": "int32"
                },
                {
                  "internalType": "int32",
                  "name": "energy",
                  "type": "int32"
                }
              ],
              "internalType": "struct IStatController.CoreAttributes",
              "name": "attributeFactors",
              "type": "tuple"
            }
          ],
          "internalType": "struct IItemController.AttackInfo",
          "name": "info",
          "type": "tuple"
        }
      ],
      "stateMutability": "view",
      "type": "function"
    },
    {
      "inputs": [
        {
          "internalType": "address",
          "name": "item",
          "type": "address"
        },
        {
          "internalType": "uint256",
          "name": "itemId",
          "type": "uint256"
        }
      ],
      "name": "itemAttributes",
      "outputs": [
        {
          "internalType": "int32[]",
          "name": "values",
          "type": "int32[]"
        },
        {
          "internalType": "uint8[]",
          "name": "ids",
          "type": "uint8[]"
        }
      ],
      "stateMutability": "view",
      "type": "function"
    },
    {
      "inputs": [
        {
          "internalType": "uint256",
          "name": "idx",
          "type": "uint256"
        }
      ],
      "name": "itemByIndex",
      "outputs": [
        {
          "internalType": "address",
          "name": "",
          "type": "address"
        }
      ],
      "stateMutability": "view",
      "type": "function"
    },
    {
      "inputs": [
        {
          "internalType": "address",
          "name": "item",
          "type": "address"
        },
        {
          "internalType": "uint256",
          "name": "itemId",
          "type": "uint256"
        }
      ],
      "name": "itemInfo",
      "outputs": [
        {
          "components": [
            {
              "internalType": "enum IItemController.ItemRarity",
              "name": "rarity",
              "type": "uint8"
            },
            {
              "internalType": "uint8",
              "name": "augmentationLevel",
              "type": "uint8"
            },
            {
              "internalType": "uint16",
              "name": "durability",
              "type": "uint16"
            }
          ],
          "internalType": "struct IItemController.ItemInfo",
          "name": "info",
          "type": "tuple"
        }
      ],
      "stateMutability": "view",
      "type": "function"
    },
    {
      "inputs": [
        {
          "internalType": "address",
          "name": "item",
          "type": "address"
        }
      ],
      "name": "itemMeta",
      "outputs": [
        {
          "components": [
            {
              "internalType": "uint8",
              "name": "itemMetaType",
              "type": "uint8"
            },
            {
              "internalType": "uint8",
              "name": "itemLevel",
              "type": "uint8"
            },
            {
              "internalType": "enum IItemController.ItemType",
              "name": "itemType",
              "type": "uint8"
            },
            {
              "internalType": "uint16",
              "name": "baseDurability",
              "type": "uint16"
            },
            {
              "internalType": "uint8",
              "name": "defaultRarity",
              "type": "uint8"
            },
            {
              "internalType": "uint32",
              "name": "manaCost",
              "type": "uint32"
            },
            {
              "internalType": "uint8",
              "name": "minRandomAttributes",
              "type": "uint8"
            },
            {
              "internalType": "uint8",
              "name": "maxRandomAttributes",
              "type": "uint8"
            },
            {
              "components": [
                {
                  "internalType": "int32",
                  "name": "strength",
                  "type": "int32"
                },
                {
                  "internalType": "int32",
                  "name": "dexterity",
                  "type": "int32"
                },
                {
                  "internalType": "int32",
                  "name": "vitality",
                  "type": "int32"
                },
                {
                  "internalType": "int32",
                  "name": "energy",
                  "type": "int32"
                }
              ],
              "internalType": "struct IStatController.CoreAttributes",
              "name": "requirements",
              "type": "tuple"
            }
          ],
          "internalType": "struct IItemController.ItemMeta",
          "name": "meta",
          "type": "tuple"
        }
      ],
      "stateMutability": "view",
      "type": "function"
    },
    {
      "inputs": [],
      "name": "itemsLength",
      "outputs": [
        {
          "internalType": "uint256",
          "name": "",
          "type": "uint256"
        }
      ],
      "stateMutability": "view",
      "type": "function"
    },
    {
      "inputs": [
        {
          "internalType": "address",
          "name": "item",
          "type": "address"
        },
        {
          "internalType": "address",
          "name": "recipient",
          "type": "address"
        }
      ],
      "name": "mint",
      "outputs": [
        {
          "internalType": "uint256",
          "name": "itemId",
          "type": "uint256"
        }
      ],
      "stateMutability": "nonpayable",
      "type": "function"
    },
    {
      "inputs": [],
      "name": "previousImplementation",
      "outputs": [
        {
          "internalType": "address",
          "name": "",
          "type": "address"
        }
      ],
      "stateMutability": "view",
      "type": "function"
    },
    {
      "inputs": [
        {
          "internalType": "address",
          "name": "hero",
          "type": "address"
        },
        {
          "internalType": "uint256",
          "name": "heroId",
          "type": "uint256"
        },
        {
          "internalType": "uint8",
          "name": "biome",
          "type": "uint8"
        }
      ],
      "name": "reduceDurability",
      "outputs": [],
      "stateMutability": "nonpayable",
      "type": "function"
    },
    {
      "inputs": [
        {
          "internalType": "address",
          "name": "item",
          "type": "address"
        },
        {
          "components": [
            {
              "components": [
                {
                  "internalType": "uint8",
                  "name": "itemMetaType",
                  "type": "uint8"
                },
                {
                  "internalType": "uint8",
                  "name": "itemLevel",
                  "type": "uint8"
                },
                {
                  "internalType": "enum IItemController.ItemType",
                  "name": "itemType",
                  "type": "uint8"
                },
                {
                  "internalType": "uint16",
                  "name": "baseDurability",
                  "type": "uint16"
                },
                {
                  "internalType": "uint8",
                  "name": "defaultRarity",
                  "type": "uint8"
                },
                {
                  "internalType": "uint32",
                  "name": "manaCost",
                  "type": "uint32"
                },
                {
                  "internalType": "uint8",
                  "name": "minRandomAttributes",
                  "type": "uint8"
                },
                {
                  "internalType": "uint8",
                  "name": "maxRandomAttributes",
                  "type": "uint8"
                },
                {
                  "components": [
                    {
                      "internalType": "int32",
                      "name": "strength",
                      "type": "int32"
                    },
                    {
                      "internalType": "int32",
                      "name": "dexterity",
                      "type": "int32"
                    },
                    {
                      "internalType": "int32",
                      "name": "vitality",
                      "type": "int32"
                    },
                    {
                      "internalType": "int32",
                      "name": "energy",
                      "type": "int32"
                    }
                  ],
                  "internalType": "struct IStatController.CoreAttributes",
                  "name": "requirements",
                  "type": "tuple"
                }
              ],
              "internalType": "struct IItemController.ItemMeta",
              "name": "itemMeta",
              "type": "tuple"
            },
            {
              "internalType": "address",
              "name": "augmentToken",
              "type": "address"
            },
            {
              "internalType": "uint256",
              "name": "augmentAmount",
              "type": "uint256"
            },
            {
              "components": [
                {
                  "internalType": "uint8[]",
                  "name": "ids",
                  "type": "uint8[]"
                },
                {
                  "internalType": "int32[]",
                  "name": "mins",
                  "type": "int32[]"
                },
                {
                  "internalType": "int32[]",
                  "name": "maxs",
                  "type": "int32[]"
                },
                {
                  "internalType": "uint32[]",
                  "name": "chances",
                  "type": "uint32[]"
                }
              ],
              "internalType": "struct IItemController.ItemGenerateInfo",
              "name": "commonAttributes",
              "type": "tuple"
            },
            {
              "components": [
                {
                  "internalType": "uint8[]",
                  "name": "ids",
                  "type": "uint8[]"
                },
                {
                  "internalType": "int32[]",
                  "name": "values",
                  "type": "int32[]"
                }
              ],
              "internalType": "struct IGOC.AttributeGenerateInfo",
              "name": "consumableAttributes",
              "type": "tuple"
            },
            {
              "components": [
                {
                  "internalType": "uint32",
                  "name": "level",
                  "type": "uint32"
                },
                {
                  "internalType": "uint32",
                  "name": "experience",
                  "type": "uint32"
                },
                {
                  "internalType": "uint32",
                  "name": "life",
                  "type": "uint32"
                },
                {
                  "internalType": "uint32",
                  "name": "mana",
                  "type": "uint32"
                },
                {
                  "internalType": "uint32",
                  "name": "lifeChances",
                  "type": "uint32"
                }
              ],
              "internalType": "struct IStatController.ChangeableStats",
              "name": "consumableStats",
              "type": "tuple"
            },
            {
              "components": [
                {
                  "internalType": "uint8[]",
                  "name": "ids",
                  "type": "uint8[]"
                },
                {
                  "internalType": "int32[]",
                  "name": "mins",
                  "type": "int32[]"
                },
                {
                  "internalType": "int32[]",
                  "name": "maxs",
                  "type": "int32[]"
                },
                {
                  "internalType": "uint32[]",
                  "name": "chances",
                  "type": "uint32[]"
                }
              ],
              "internalType": "struct IItemController.ItemGenerateInfo",
              "name": "casterAttributes",
              "type": "tuple"
            },
            {
              "components": [
                {
                  "internalType": "uint8[]",
                  "name": "ids",
                  "type": "uint8[]"
                },
                {
                  "internalType": "int32[]",
                  "name": "mins",
                  "type": "int32[]"
                },
                {
                  "internalType": "int32[]",
                  "name": "maxs",
                  "type": "int32[]"
                },
                {
                  "internalType": "uint32[]",
                  "name": "chances",
                  "type": "uint32[]"
                }
              ],
              "internalType": "struct IItemController.ItemGenerateInfo",
              "name": "targetAttributes",
              "type": "tuple"
            },
            {
              "components": [
                {
                  "internalType": "enum IItemController.AttackType",
                  "name": "aType",
                  "type": "uint8"
                },
                {
                  "internalType": "int32",
                  "name": "min",
                  "type": "int32"
                },
                {
                  "internalType": "int32",
                  "name": "max",
                  "type": "int32"
                },
                {
                  "components": [
                    {
                      "internalType": "int32",
                      "name": "strength",
                      "type": "int32"
                    },
                    {
                      "internalType": "int32",
                      "name": "dexterity",
                      "type": "int32"
                    },
                    {
                      "internalType": "int32",
                      "name": "vitality",
                      "type": "int32"
                    },
                    {
                      "internalType": "int32",
                      "name": "energy",
                      "type": "int32"
                    }
                  ],
                  "internalType": "struct IStatController.CoreAttributes",
                  "name": "attributeFactors",
                  "type": "tuple"
                }
              ],
              "internalType": "struct IItemController.AttackInfo",
              "name": "genAttackInfo",
              "type": "tuple"
            }
          ],
          "internalType": "struct IItemController.RegisterItemParams",
          "name": "info",
          "type": "tuple"
        }
      ],
      "name": "registerItem",
      "outputs": [],
      "stateMutability": "nonpayable",
      "type": "function"
    },
    {
      "inputs": [
        {
          "internalType": "address",
          "name": "item",
          "type": "address"
        }
      ],
      "name": "removeItem",
      "outputs": [],
      "stateMutability": "nonpayable",
      "type": "function"
    },
    {
      "inputs": [
        {
          "internalType": "address",
          "name": "item",
          "type": "address"
        },
        {
          "internalType": "uint256",
          "name": "itemId",
          "type": "uint256"
        },
        {
          "internalType": "uint256",
          "name": "consumedItemId",
          "type": "uint256"
        }
      ],
      "name": "repairDurability",
      "outputs": [],
      "stateMutability": "nonpayable",
      "type": "function"
    },
    {
      "inputs": [],
      "name": "revision",
      "outputs": [
        {
          "internalType": "uint256",
          "name": "",
          "type": "uint256"
        }
      ],
      "stateMutability": "view",
      "type": "function"
    },
    {
      "inputs": [
        {
          "internalType": "address",
          "name": "item",
          "type": "address"
        },
        {
          "internalType": "uint256",
          "name": "itemId",
          "type": "uint256"
        }
      ],
      "name": "score",
      "outputs": [
        {
          "internalType": "uint256",
          "name": "",
          "type": "uint256"
        }
      ],
      "stateMutability": "view",
      "type": "function"
    },
    {
      "inputs": [
        {
          "internalType": "address",
          "name": "heroToken",
          "type": "address"
        },
        {
          "internalType": "uint256",
          "name": "heroTokenId",
          "type": "uint256"
        },
        {
          "internalType": "address[]",
          "name": "items",
          "type": "address[]"
        },
        {
          "internalType": "uint256[]",
          "name": "tokenIds",
          "type": "uint256[]"
        },
        {
          "internalType": "uint8[]",
          "name": "itemSlots",
          "type": "uint8[]"
        }
      ],
      "name": "takeOff",
      "outputs": [],
      "stateMutability": "nonpayable",
      "type": "function"
    },
    {
      "inputs": [
        {
          "internalType": "address",
          "name": "item",
          "type": "address"
        },
        {
          "internalType": "uint256",
          "name": "itemId",
          "type": "uint256"
        },
        {
          "internalType": "address",
          "name": "hero",
          "type": "address"
        },
        {
          "internalType": "uint256",
          "name": "heroId",
          "type": "uint256"
        },
        {
          "internalType": "uint8",
          "name": "itemSlot",
          "type": "uint8"
        },
        {
          "internalType": "address",
          "name": "destination",
          "type": "address"
        },
        {
          "internalType": "bool",
          "name": "broken",
          "type": "bool"
        }
      ],
      "name": "takeOffDirectly",
      "outputs": [],
      "stateMutability": "nonpayable",
      "type": "function"
    },
    {
      "inputs": [
        {
          "internalType": "address",
          "name": "item",
          "type": "address"
        },
        {
          "internalType": "uint256",
          "name": "itemId",
          "type": "uint256"
        }
      ],
      "name": "targetAttributes",
      "outputs": [
        {
          "internalType": "int32[]",
          "name": "values",
          "type": "int32[]"
        },
        {
          "internalType": "uint8[]",
          "name": "ids",
          "type": "uint8[]"
        }
      ],
      "stateMutability": "view",
      "type": "function"
    },
    {
      "inputs": [
        {
          "internalType": "address",
          "name": "item",
          "type": "address"
        },
        {
          "internalType": "uint256",
          "name": "tokenId",
          "type": "uint256"
        },
        {
          "internalType": "address",
          "name": "heroToken",
          "type": "address"
        },
        {
          "internalType": "uint256",
          "name": "heroTokenId",
          "type": "uint256"
        }
      ],
      "name": "use",
      "outputs": [],
      "stateMutability": "nonpayable",
      "type": "function"
    }
  ],
  "transactionHash": "0xd9938a943fa5f47eeef34006121ffa8d114f16f42082869d216a751307f68b44",
  "args": [],
  "numDeployments": 19,
  "solcInputHash": "ab128610a613a12ee3464e154c92869f",
  "bytecode": "0x60806040523480156200001157600080fd5b507ff0c57e16840df040f15088dc2f81fe391c3923bec73e23a9662efc9c229c6a00805468010000000000000000810460ff1615906001600160401b03166000811580156200005d5750825b90506000826001600160401b031660011480156200007a5750303b155b90508115801562000089575080155b15620000a85760405163f92ee8a960e01b815260040160405180910390fd5b84546001600160401b03191660011785558315620000d757845460ff60401b1916680100000000000000001785555b83156200011e57845460ff60401b19168555604051600181527fc7f505b2f371ae2175ee4913f4499e1f2633a7b5936321eed1cdaeb6115181d29060200160405180910390a15b5050505050615c6680620001336000396000f3fe608060405234801561001057600080fd5b50600436106102135760003560e01c8063975fdfea11610126578063d87b687d116100b3578063d87b687d146104ca578063d9f72d80146104dd578063dd21b9291461053c578063dee1f0e41461054f578063dfcb87e514610562578063e3dacdb614610575578063ee1fe2ad14610588578063f77c47911461059b578063f863208d146105a3578063fafc4bfd146105ab578063ffa1ad74146105be57600080fd5b8063975fdfea146103fc5780639b92d4c51461040f5780639d0bcca014610422578063a24835d11461042a578063aef874fa1461043d578063b429afeb1461045e578063bc78570114610471578063bf105a0014610484578063cad181b914610497578063ce11a209146104b757600080fd5b8063399fa840116101a4578063399fa840146103295780634593144c1461033c5780634fac6ccd146103445780635040f95214610357578063572b6c051461036a57806370435ed11461037d5780637401edba146103905780637cc96380146103a357806382b538de146103ab578063936725ec146103cb57600080fd5b8063010759751461021857806307d79427146102425780630bcfdc1414610257578063173cc5221461027757806319ab453c146102975780631af65859146102aa5780631cdaab67146102bd57806324e44dfc146102dd57806327238f12146102f0578063325a19f114610313575b600080fd5b61022b610226366004614755565b6105e2565b6040516102399291906147c0565b60405180910390f35b610255610250366004614835565b6105fb565b005b61026a610265366004614877565b6106a2565b60405161023991906148c8565b61028a610285366004614971565b6106b9565b604051610239919061498a565b6102556102a5366004614877565b6106c4565b6102556102b83660046149ac565b6107be565b6102d06102cb366004614755565b6107d5565b6040516102399190614a46565b61022b6102eb366004614755565b6107ee565b6103036102fe366004614755565b6107fb565b6040519015158152602001610239565b61031b610807565b604051908152602001610239565b610255610337366004614877565b610840565b61031b61085c565b610255610352366004614877565b61088c565b61026a610365366004614877565b61099d565b610303610378366004614877565b6109ae565b61025561038b366004614ac6565b6109fc565b61031b61039e366004614755565b610a2e565b61031b610aab565b6103be6103b9366004614877565b610ac9565b6040516102399190614bc1565b6103ef604051806040016040528060058152602001640312e302e360dc1b81525081565b6040516102399190614c79565b61025561040a366004614cc8565b610ada565b61025561041d366004614ac6565b610af8565b61028a610b20565b610255610438366004614755565b610b50565b61045061044b366004614755565b610be4565b604051610239929190614d1f565b61030361046c366004614877565b610bf1565b61025561047f366004614d38565b610c16565b610255610492366004614d80565b610cc7565b6104aa6104a5366004614877565b610d49565b6040516102399190614dc5565b6104aa6104c5366004614755565b610d5a565b6102556104d8366004614d80565b610d6c565b6104f06104eb366004614877565b610d8e565b6040516102399190815163ffffffff9081168252602080840151821690830152604080840151821690830152606080840151821690830152608092830151169181019190915260a00190565b61026a61054a366004614877565b610d9f565b61030361055d366004614877565b610db0565b610450610570366004614877565b610e35565b61022b610583366004614877565b610e4a565b61031b610596366004614e04565b610e56565b61028a610e6b565b61031b610e9b565b61022b6105b9366004614755565b610ea5565b6103ef60405180604001604052806005815260200164312e302e3160d81b81525081565b6060806105ef8484610eb2565b915091505b9250929050565b73a28536629916fb8fa55c297a5DfB4F2bBA13Bf2463c4be6cb461061d610e6b565b610625610f31565b6040516001600160e01b031960e085901b1681526001600160a01b039283166004820152908216602482015290861660448201526064810185905260ff8416608482015260a4015b60006040518083038186803b15801561068557600080fd5b505af4158015610699573d6000803e3d6000fd5b50505050505050565b6106aa614599565b6106b382610f53565b92915050565b60006106b382610fd2565b60006106ce610fe6565b805490915060ff600160401b82041615906001600160401b03166000811580156106f55750825b90506000826001600160401b031660011480156107115750303b155b90508115801561071f575080155b1561073d5760405163f92ee8a960e01b815260040160405180910390fd5b845467ffffffffffffffff19166001178555831561076757845460ff60401b1916600160401b1785555b6107708661100a565b83156107b657845460ff60401b19168555604051600181527fc7f505b2f371ae2175ee4913f4499e1f2633a7b5936321eed1cdaeb6115181d29060200160405180910390a15b505050505050565b6106996107c9610e6b565b8888888888888861101b565b6107dd6145c1565b6107e783836111a9565b9392505050565b6060806105ef84846111df565b60006107e783836111fc565b600061083b61083760017f6f55f470bdc9cb5f04223fd822021061668e4dccb43e8727b295106dc9769c8b614e48565b5490565b905090565b61085961084b610e6b565b610853610f31565b83611237565b50565b600061083b61083760017f812a673dfca07956350df10f8a654925f561d7a0da09bdbe79e653939a14d9f1614e48565b3330146108de5760405162461bcd60e51b815260206004820152601b60248201527a24b731b932b0b9b2903932bb34b9b4b7b7103337b93134b23232b760291b60448201526064015b60405180910390fd5b60006108fc6108376001600080516020615c11833981519152614e48565b610907906001614e5b565b9050610929816109266001600080516020615c11833981519152614e48565b55565b6109588261092660017fbfaaa2fb63266ff27c2da975f5894955056f50419af651a81f6c5060581857e4614e48565b604080518281526001600160a01b03841660208201527ff27e2ef832a4eb8ed8ec553b875eecd44764cda95b1c24170e281539e0a869c8910160405180910390a15050565b6109a5614599565b6106b382611389565b60006001600160a01b03821673d8253782c45a12053594b9deb72d8e8ab2fca54c14806106b357506001600160a01b0382167352ceba41da235af367bfc0b0ccd3314cb901bb5f1492915050565b610a24610a07611406565b610a0f610e6b565b610a17610f31565b8b8b8b8b8b8b8b8b61141e565b5050505050505050565b604051633a00f6dd60e11b815260009073a28536629916fb8fa55c297a5DfB4F2bBA13Bf2490637401edba90610a6a9086908690600401614d1f565b602060405180830381865af4158015610a87573d6000803e3d6000fd5b505050506040513d601f19601f820116820180604052508101906107e79190614e6e565b600061083b6108376001600080516020615c11833981519152614e48565b610ad16145e3565b6106b3826117de565b610af4610ae5610e6b565b610aed610f31565b8484611813565b5050565b610a24610b03611406565b610b0b610e6b565b610b13610f31565b8b8b8b8b8b8b8b8b611c2b565b600061083b61083760017fbfaaa2fb63266ff27c2da975f5894955056f50419af651a81f6c5060581857e4614e48565b73a28536629916fb8fa55c297a5DfB4F2bBA13Bf2463c1336c97610b72610e6b565b610b7a610f31565b6040516001600160e01b031960e085901b1681526001600160a01b039283166004820152908216602482015290851660448201526064810184905260840160006040518083038186803b158015610bd057600080fd5b505af41580156107b6573d6000803e3d6000fd5b6000806105ef8484611eaa565b6000610bfb610e6b565b6001600160a01b0316826001600160a01b0316149050919050565b73a28536629916fb8fa55c297a5DfB4F2bBA13Bf24630244c7ef610c38611406565b610c40610e6b565b610c48610f31565b6040516001600160e01b031960e086901b16815292151560048401526001600160a01b03918216602484015281166044830152808816606483015260848201879052851660a482015260c4810184905260e40160006040518083038186803b158015610cb357600080fd5b505af4158015610a24573d6000803e3d6000fd5b73a28536629916fb8fa55c297a5DfB4F2bBA13Bf2463dfd41dfb610ce9611406565b610cf1610e6b565b610cf9610f31565b6040516001600160e01b031960e086901b16815292151560048401526001600160a01b03918216602484015281166044830152861660648201526084810185905260a4810184905260c40161066d565b610d51614634565b6106b382611ee8565b610d62614634565b6107e78383611f1d565b73a28536629916fb8fa55c297a5DfB4F2bBA13Bf246334d9da65610ce9611406565b610d9661465d565b6106b382611f53565b610da7614599565b6106b382611f88565b6000816001600160a01b0316610dc4610e6b565b6001600160a01b0316635aa6e6756040518163ffffffff1660e01b8152600401602060405180830381865afa158015610e01573d6000803e3d6000fd5b505050506040513d601f19601f82011682018060405250810190610e259190614e87565b6001600160a01b03161492915050565b600080610e4183612005565b91509150915091565b606080610e4183612039565b60006107e7610e63610e6b565b3385856120b1565b600061083b61083760017f5165972ef41194f06c5007493031d0b927c20741adcb74403b954009fd2c3618614e48565b600061083b612165565b6060806105ef8484612177565b6060806105ef610ec0612194565b600d016000610ecf87876121b8565b8152602001908152602001600020805480602002602001604051908101604052809291908181526020018280548015610f2757602002820191906000526020600020905b815481526020019060010190808311610f13575b5050505050612208565b6000610f3c336109ae565b15610f4e575060131936013560601c90565b503390565b610f5b614599565b6106b3610f66612194565b6001600160a01b0384166000908152600891909101602090815260409182902080548351818402810184019094528084529091830182828015610fc857602002820191906000526020600020905b815481526020019060010190808311610fb4575b50505050506124f9565b60006106b382610fe0612194565b90612710565b7ff0c57e16840df040f15088dc2f81fe391c3923bec73e23a9662efc9c229c6a0090565b61101261271c565b61085981612743565b336001600160a01b0316886001600160a01b031663524a562f6040518163ffffffff1660e01b8152600401602060405180830381865afa158015611063573d6000803e3d6000fd5b505050506040513d601f19601f820116820180604052508101906110879190614e87565b6001600160a01b0316141580156111115750336001600160a01b0316886001600160a01b031663016dff5d6040518163ffffffff1660e01b8152600401602060405180830381865afa1580156110e1573d6000803e3d6000fd5b505050506040513d601f19601f820116820180604052508101906111059190614e87565b6001600160a01b031614155b15611131573360405163f652640360e01b81526004016108d5919061498a565b610a2461113c612194565b896001600160a01b0316628e96916040518163ffffffff1660e01b8152600401602060405180830381865afa158015611179573d6000803e3d6000fd5b505050506040513d601f19601f8201168201806040525081019061119d9190614e87565b89898989898989612862565b6111b16145c1565b6107e76111bc612194565b600a0160006111cb86866121b8565b815260200190815260200160002054612b9d565b6060806105ef6111ed612194565b600e016000610ecf87876121b8565b600080611207612194565b600b01600061121f6001600160a01b038716866121b8565b81526020019081526020016000205414905092915050565b6000611241612194565b905061124d8484612c06565b6112578183612c92565b506001600160a01b038216600090815260028201602090815260408083208390556003840182528083208390556004840190915281206112969161468b565b6001600160a01b038216600090815260058201602052604081206112b99161468b565b6001600160a01b038216600090815260068201602090815260408083208390556007840190915281206112eb9161468b565b6001600160a01b0382166000908152600882016020526040812061130e9161468b565b6001600160a01b03821660008181526009830160205260408120819055600f83019161133a90826121b8565b8152602001908152602001600020600090557ff4bab09e0bfc491adb818cac1805d51def9f0ec39825ffb0e42aeaa46494efce8260405161137b919061498a565b60405180910390a150505050565b611391614599565b6106b361139c612194565b6001600160a01b0384166000908152600791909101602090815260409182902080548351818402810184019094528084529091830182828015610fc85760200282019190600052602060002090815481526020019060010190808311610fb45750505050506124f9565b6000611411336109ae565b8061083b57505032331490565b6114278b612ca7565b6000611431612194565b905085841415806114425750858214155b156114605760405163586cb9e160e01b815260040160405180910390fd5b6040805160c081018252600080825260208201819052918101829052606081018290526080810182905260a08101919091528b6001600160a01b0316628e96916040518163ffffffff1660e01b8152600401602060405180830381865afa1580156114cf573d6000803e3d6000fd5b505050506040513d601f19601f820116820180604052508101906114f39190614e87565b6001600160a01b0390811682526040805163683fedf760e01b81529051918e169163683fedf7916004808201926020929091908290030181865afa15801561153f573d6000803e3d6000fd5b505050506040513d601f19601f820116820180604052508101906115639190614e87565b81602001906001600160a01b031690816001600160a01b0316815250508b6001600160a01b031663016dff5d6040518163ffffffff1660e01b8152600401602060405180830381865afa1580156115be573d6000803e3d6000fd5b505050506040513d601f19601f820116820180604052508101906115e29190614e87565b6001600160a01b031660408083018290525163509e788360e11b815263a13cf10690611612908d9060040161498a565b6040805180830381865afa15801561162e573d6000803e3d6000fd5b505050506040513d601f19601f820116820180604052508101906116529190614ea4565b506001600160a01b03908116606083015260a082018a90528a1660808201526040810151611684908d908d8d8d612cc7565b80602001516001600160a01b0316639a641e028b8b6040518363ffffffff1660e01b81526004016116b6929190614d1f565b602060405180830381865afa1580156116d3573d6000803e3d6000fd5b505050506040513d601f19601f820116820180604052508101906116f79190614ed2565b6001600160401b03161561171e576040516332811e7b60e21b815260040160405180910390fd5b60608101516001600160a01b031661174957604051630e8e75df60e21b815260040160405180910390fd5b60005b878110156117ce576117c683838e8c8c8681811061176c5761176c614efb565b90506020020160208101906117819190614877565b8b8b8781811061179357611793614efb565b905060200201358a8a888181106117ac576117ac614efb565b90506020020160208101906117c19190614f11565b612edd565b60010161174c565b5050505050505050505050505050565b6117e66145e3565b6106b36117f1612194565b6001600160a01b0384166000908152600291909101602052604090205461338a565b61181d8484612c06565b6000611827612194565b90506118366020830183614f11565b60ff166000036118585760405162a2622f60e41b815260040160405180910390fd5b6118686040830160208401614f11565b60ff1660000361188b57604051631e1c984560e31b815260040160405180910390fd5b611895818461339b565b61194c576001600160a01b03831660009081526002820160205260408120546118bd9061338a565b90506118cf6060840160408501614f3d565b600c8111156118e0576118e0614a30565b8160400151600c8111156118f6576118f6614a30565b1461191457604051632d5a77ad60e11b815260040160405180910390fd5b6119216020840184614f11565b60ff16816000015160ff161461194a5760405163d300ee6760e01b815260040160405180910390fd5b505b61196361195e368490038401846150b1565b6133b0565b6001600160a01b038416600090815260028301602052604090205561199e6119936101a084016101808501614877565b836101a001356134b6565b6001600160a01b03841660009081526003830160205260409020556119dd836119cb6101c0850185615168565b6119d4906152e8565b83600401613503565b60046119ec6020840184614f11565b60ff1603611afe57611a97611a056101e084018461539e565b611a0f90806153b4565b80806020026020016040519081016040528093929190818152602001838360200280828437600092019190915250611a4f925050506101e085018561539e565b611a5d9060208101906153b4565b8080602002602001604051908101604052809392919081815260200183836020028082843760009201919091525092939250506136ad9050565b6001600160a01b038416600090815260058301602090815260409091208251611ac693919291909101906146a9565b50611ae2611add36849003840161020085016153fd565b61390b565b6001600160a01b03841660009081526006830160205260409020555b6003611b0d6020840184614f11565b60ff1603611b5d57611b3983611b276102a0850185615168565b611b30906152e8565b83600701613503565b611b5d83611b4b6102c0850185615168565b611b54906152e8565b83600801613503565b6002611b6c6020840184614f11565b60ff1603611beb57611b8f611b8a3684900384016102e08501615486565b613a34565b6001600160a01b0384166000908152600983016020526040902055611bc0611b8a3684900384016102e08501615486565b600f82016000611bd96001600160a01b038716826121b8565b81526020810191909152604001600020555b7fc95b7ce18e68e0cd72d853f72c56778d20af395933e5707fabe05f07cdd8bce48383604051611c1c9291906158b3565b60405180910390a15050505050565b611c348b612ca7565b60006040518061012001604052806000151581526020018c6001600160a01b031681526020018b6001600160a01b031681526020018a6001600160a01b031681526020018b6001600160a01b031681526020018c6001600160a01b031663016dff5d6040518163ffffffff1660e01b8152600401602060405180830381865afa158015611cc5573d6000803e3d6000fd5b505050506040513d601f19601f82011682018060405250810190611ce99190614e87565b6001600160a01b031681526020018c6001600160a01b031663683fedf76040518163ffffffff1660e01b8152600401602060405180830381865afa158015611d35573d6000803e3d6000fd5b505050506040513d601f19601f82011682018060405250810190611d599190614e87565b6001600160a01b031681526020018c6001600160a01b0316628e96916040518163ffffffff1660e01b8152600401602060405180830381865afa158015611da4573d6000803e3d6000fd5b505050506040513d601f19601f82011682018060405250810190611dc89190614e87565b6001600160a01b0316815260200189905290506000611de5612194565b9050868581141580611df75750808414155b15611e155760405163586cb9e160e01b815260040160405180910390fd5b60005b81811015611e9957611e9183858c8c85818110611e3757611e37614efb565b9050602002016020810190611e4c9190614877565b8b8b86818110611e5e57611e5e614efb565b905060200201358a8a87818110611e7757611e77614efb565b9050602002016020810190611e8c9190614f11565b613ac6565b600101611e18565b505050505050505050505050505050565b6000806105ef611eb8612194565b600b016000611ed06001600160a01b038816876121b8565b8152602001908152602001600020549060a082901c90565b611ef0614634565b6106b3611efb612194565b6001600160a01b03841660009081526009919091016020526040902054613c1e565b611f25614634565b6107e7611f30612194565b600f016000611f3f86866121b8565b815260200190815260200160002054613c1e565b611f5b61465d565b6106b3611f66612194565b6001600160a01b03841660009081526006919091016020526040902054613cca565b611f90614599565b6106b3611f9b612194565b6001600160a01b0384166000908152600491909101602090815260409182902080548351818402810184019094528084529091830182828015610fc85760200282019190600052602060002090815481526020019060010190808311610fb45750505050506124f9565b600080610e41612013612194565b6001600160a01b038516600090815260039190910160205260409020549060a082901c90565b606080610e41612047612194565b6001600160a01b0385166000908152600591909101602090815260409182902080548351818402810184019094528084529091830182828015610f275760200282019190600052602060002090815481526020019060010190808311610f13575050505050612208565b600073c21C7836466cEE25a7dBe31EaE735d1C9B117F8063245b1a236120d5612194565b6040516001600160e01b031960e084901b16815260048101919091526001600160a01b038089166024830152808816604483015280871660648301528516608482015260a401602060405180830381865af4158015612138573d6000803e3d6000fd5b505050506040513d601f19601f8201168201806040525081019061215c9190614e6e565b95945050505050565b600061083b612172612194565b613dae565b6060806105ef612185612194565b600c016000610ecf87876121b8565b7fe78a2879cd91c3f7b62ea14e72546fed47c40919bca4daada532a5fa05ac670090565b60006001600160401b038211156121e557604051633995b34160e01b8152600481018390526024016108d5565b5067ffffffffffffffff60a01b60a09190911b166001600160a01b039091161790565b80516060908190600061221c8260086159d6565b90506000816001600160401b0381111561223857612238614f58565b604051908082528060200260200182016040528015612261578160200160208202803683370190505b5090506000826001600160401b0381111561227e5761227e614f58565b6040519080825280602002602001820160405280156122a7578160200160208202803683370190505b5090506000805b858110156123d45760005b60088110156123cb576000816122d08460086159d6565b6122da9190614e5b565b90506122e78260206159d6565b8b84815181106122f9576122f9614efb565b602002602001015160001c901c60020b86828151811061231b5761231b614efb565b60039290920b6020928302919091018201526123389083906159d6565b612343906018614e5b565b8b848151811061235557612355614efb565b602002602001015160001c901c85828151811061237457612374614efb565b602002602001019060ff16908160ff168152505085818151811061239a5761239a614efb565b602002602001015160030b6000036123b257506123cb565b836123bc816159ed565b945050508060010190506122b9565b506001016122ae565b50806001600160401b038111156123ed576123ed614f58565b604051908082528060200260200182016040528015612416578160200160208202803683370190505b509650806001600160401b0381111561243157612431614f58565b60405190808252806020026020018201604052801561245a578160200160208202803683370190505b50955060005b818110156124ee5783818151811061247a5761247a614efb565b602002602001015188828151811061249457612494614efb565b602002602001019060030b908160030b815250508281815181106124ba576124ba614efb565b60200260200101518782815181106124d4576124d4614efb565b60ff90921660209283029190910190910152600101612460565b505050505050915091565b612501614599565b81516000816001600160401b0381111561251d5761251d614f58565b604051908082528060200260200182016040528015612546578160200160208202803683370190505b5090506000826001600160401b0381111561256357612563614f58565b60405190808252806020026020018201604052801561258c578160200160208202803683370190505b5090506000836001600160401b038111156125a9576125a9614f58565b6040519080825280602002602001820160405280156125d2578160200160208202803683370190505b5090506000846001600160401b038111156125ef576125ef614f58565b604051908082528060200260200182016040528015612618578160200160208202803683370190505b50905060005b858110156126ea5761265888828151811061263b5761263b614efb565b602002602001015190600882901c90602883901c90604884901c90565b88858151811061266a5761266a614efb565b6020026020010188868151811061268357612683614efb565b6020026020010188878151811061269c5761269c614efb565b602002602001018888815181106126b5576126b5614efb565b63ffffffff90951660209586029190910190940193909352600393840b9092529290910b905260ff909116905260010161261e565b506040805160808101825294855260208501939093529183015260608201529392505050565b60006107e78383613db8565b612724613de2565b61274157604051631afcd79f60e31b815260040160405180910390fd5b565b6001600160a01b03811661278b5760405162461bcd60e51b815260206004820152600f60248201526e2d32b9379031b7b73a3937b63632b960891b60448201526064016108d5565b6127ba8161092660017f5165972ef41194f06c5007493031d0b927c20741adcb74403b954009fd2c3618614e48565b6127e94261092660017f6f55f470bdc9cb5f04223fd822021061668e4dccb43e8727b295106dc9769c8b614e48565b6128184361092660017f812a673dfca07956350df10f8a654925f561d7a0da09bdbe79e653939a14d9f1614e48565b604080516001600160a01b0383168152426020820152438183015290517f1a2dd071001ebf6e03174e3df5b305795a4ad5d41d8fdb9ba41dbbe2367134269181900360600190a150565b60006128776001600160a01b038916886121b8565b6001600160a01b038916600090815260028c0160205260408120549192509061289f9061338a565b6000838152600a8d016020526040812054919250906128bd90612b9d565b90508160400151600c8111156128d5576128d5614a30565b6000036128f757896040516327f46c4f60e01b81526004016108d5919061498a565b8a6001600160a01b031663906f0ced89898560400151600c81111561291e5761291e614a30565b8a8f8f60006040518863ffffffff1660e01b81526004016129459796959493929190615a06565b600060405180830381600087803b15801561295f57600080fd5b505af1158015612973573d6000803e3d6000fd5b50505050831561299f576000604082015261298d81613dfc565b6000848152600a8e0160205260409020555b6000838152600c8d0160209081526040808320805482518185028101850190935280835291929091908301828280156129f757602002820191906000526020600020905b8154815260200190600101908083116129e3575b505050505090508051600014612aa2578b6001600160a01b0316639ff45dbe6040518060a001604052808c6001600160a01b031681526020018b8152602001612a3f85613e42565b8152600060208201819052604091820152516001600160e01b031960e084901b168152612a6f9190600401615a55565b600060405180830381600087803b158015612a8957600080fd5b505af1158015612a9d573d6000803e3d6000fd5b505050505b6000848152600b8e0160205260408082209190915551630ee8df4560e31b81526001600160a01b038c1690637746fa2890612ae5908c908a908f90600401615ab1565b600060405180830381600087803b158015612aff57600080fd5b505af1158015612b13573d6000803e3d6000fd5b505050507fd26bc924e2dd5a06c95c625446278e313e22ec09b4f606842d4a603b9dcb795e8b8b8b8b8b8b604051612b86969594939291906001600160a01b03968716815260208101959095529285166040850152606084019190915260ff16608083015290911660a082015260c00190565b60405180910390a150505050505050505050505050565b612ba56145c1565b61ffff601083901c16604082015260ff600883901c81166020830152829081166006811115612bd657612bd6614a30565b82906006811115612be957612be9614a30565b90816006811115612bfc57612bfc614a30565b8152505050919050565b604051631430d62960e21b81526001600160a01b038316906350c358a490612c3290849060040161498a565b602060405180830381865afa158015612c4f573d6000803e3d6000fd5b505050506040513d601f19601f82011682018060405250810190612c739190615ad5565b610af4578060405163451cea1760e11b81526004016108d5919061498a565b60006107e7836001600160a01b038416613e66565b8061085957336040516377817ac360e01b81526004016108d5919061498a565b612cd2828285613f60565b846001600160a01b0316632f91ede96040518163ffffffff1660e01b8152600401602060405180830381865afa158015612d10573d6000803e3d6000fd5b505050506040513d601f19601f82011682018060405250810190612d349190614e87565b6001600160a01b0316635451da1b83836040518363ffffffff1660e01b8152600401612d61929190614d1f565b602060405180830381865afa158015612d7e573d6000803e3d6000fd5b505050506040513d601f19601f82011682018060405250810190612da29190615ad5565b15612dc4578181604051634f38de4760e11b81526004016108d5929190614d1f565b846001600160a01b03166318d928316040518163ffffffff1660e01b8152600401602060405180830381865afa158015612e02573d6000803e3d6000fd5b505050506040513d601f19601f82011682018060405250810190612e269190615ad5565b15612e4457604051635e1633d360e11b815260040160405180910390fd5b604051631789b7b160e01b81526001600160a01b03851690631789b7b190612e7090859060040161498a565b602060405180830381865afa158015612e8d573d6000803e3d6000fd5b505050506040513d601f19601f82011682018060405250810190612eb19190615af2565b60ff16600003612ed6578160405163adc7fced60e01b81526004016108d5919061498a565b5050505050565b612ee8838386613f60565b6001600160a01b0383166000908152600287016020526040812054612f0c9061338a565b90506000612f2b600a8901826111cb6001600160a01b038916886121b8565b825190915060ff16600003612f5557846040516308057f8b60e11b81526004016108d5919061498a565b612f6088868661400d565b15612f805784604051633c9a6ba160e21b81526004016108d5919061498a565b8160400151600c811115612f9657612f96614a30565b600003612fb857846040516327f46c4f60e01b81526004016108d5919061498a565b606082015161ffff1615801590612fd55750604081015161ffff16155b15612ff557846040516318b5fb5360e11b81526004016108d5919061498a565b613012876000015188608001518960a00151856101000151614042565b86600001516001600160a01b031663906f0ced88608001518960a001518560400151600c81111561304557613045614a30565b878a8a60016040518863ffffffff1660e01b815260040161306c9796959493929190615a06565b600060405180830381600087803b15801561308657600080fd5b505af115801561309a573d6000803e3d6000fd5b50600092505050600c8901816130b96001600160a01b038916886121b8565b815260200190815260200160002080548060200260200160405190810160405280929190818152602001828054801561311157602002820191906000526020600020905b8154815260200190600101908083116130fd575b5050505050905080516000146132695787600001516001600160a01b0316639ff45dbe6040518060a001604052808b608001516001600160a01b031681526020018b60a00151815260200161316585613e42565b8152600160208201526000604091820152516001600160e01b031960e084901b1681526131959190600401615a55565b600060405180830381600087803b1580156131af57600080fd5b505af11580156131c3573d6000803e3d6000fd5b5050895160808b015160a08c0151604051631a95890960e31b81526001600160a01b03909316945063d4ac484893506131fe92600401614d1f565b60a060405180830381865afa15801561321b573d6000803e3d6000fd5b505050506040513d601f19601f8201168201806040525081019061323f9190615b0f565b6040015163ffffffff1660000361326957604051630915eecf60e21b815260040160405180910390fd5b6080880151604051630ee8df4560e31b81526001600160a01b03881691637746fa289161329c918b918a90600401615ab1565b600060405180830381600087803b1580156132b657600080fd5b505af11580156132ca573d6000803e3d6000fd5b50505060a089015160808a01516132eb92506001600160a01b0316906121b8565b600b8a0160006133046001600160a01b038a16896121b8565b81526020808201929092526040908101600020929092556080808b015160a0808d015185516001600160a01b03808e1682529581018c90529490921694840194909452606083015260ff8716908201527feb2eb074eb15472636bebc93010969043d430b4a120914dd775a8240cf6d54ff910160405180910390a1505050505050505050565b6133926145e3565b6106b38261412d565b60006107e7836001600160a01b03841661422b565b60006106b3826000015183602001518460400151600c8111156133d5576133d5614a30565b856060015186608001518760c001518860e001518960a001518a61010001518051602082015160408381015160609485015160c01b601b0b60a09190911b60170b60809390931b60130b9390941b600f0b63ffffffff60401b9590911b9490941660ff60381b60389690961b9590951660ff60301b60309790971b9690961660ff60281b60289890981b9790971664ffff00000060189990991b9890981662ff000060109a909a1b9990991661ff0060089b909b1b9a909a1660ff909b169a909a179890981796909617949094179290921717171791909117919091171790565b60006001600160601b038211156134e357604051633995b34160e01b8152600481018390526024016108d5565b506001600160a01b031960a09190911b166001600160a01b039091161790565b60005b825151811015613672578260200151818151811061352657613526614efb565b602002602001015160030b6000148061355f57508260400151818151811061355057613550614efb565b602002602001015160030b6000145b806135a957508260400151818151811061357b5761357b614efb565b602002602001015160030b8360200151828151811061359c5761359c614efb565b602002602001015160030b135b806135ff57506000836020015182815181106135c7576135c7614efb565b602002602001015160030b1280156135ff57506000836040015182815181106135f2576135f2614efb565b602002602001015160030b135b1561366a578260200151818151811061361a5761361a614efb565b60200260200101518360400151828151811061363857613638614efb565b602002602001015160405163afeec43960e01b81526004016108d5929190600392830b8152910b602082015260400190565b600101613506565b5061367c8261427a565b6001600160a01b03841660009081526020838152604090912082516136a793919291909101906146a9565b50505050565b606081518351146136d15760405163586cb9e160e01b815260040160405180910390fd5b6000600884516136e19190615b7d565b6136ec906001614e5b565b90506000816001600160401b0381111561370857613708614f58565b604051908082528060200260200182016040528015613731578160200160208202803683370190505b50905060005b828110156139025760005b60088110156138f9576000816137598460086159d6565b6137639190614e5b565b90508751811061377357506138f9565b627fffff60020b88828151811061378c5761378c614efb565b602002602001015160030b13806137c55750627fffff1960020b8882815181106137b8576137b8614efb565b602002602001015160030b125b15613803578781815181106137dc576137dc614efb565b602002602001015160030b604051632eb1d06960e01b81526004016108d591815260200190565b87818151811061381557613815614efb565b602002602001015160030b60000361384057604051637c946ed760e01b815260040160405180910390fd5b61384b8260206159d6565b88828151811061385d5761385d614efb565b602002602001015162ffffff1660001b901b84848151811061388157613881614efb565b6020026020010181815117915081815250508160206138a091906159d6565b6138ab906018614e5b565b8782815181106138bd576138bd614efb565b602002602001015160ff1660001b901b8484815181106138df576138df614efb565b602090810291909101018051909117905250600101613742565b50600101613737565b50949350505050565b60408051600580825260c082019092526000918291906020820160a08036833701905050905082600001518160008151811061394957613949614efb565b602002602001019063ffffffff16908163ffffffff168152505082602001518160018151811061397b5761397b614efb565b602002602001019063ffffffff16908163ffffffff16815250508260400151816002815181106139ad576139ad614efb565b602002602001019063ffffffff16908163ffffffff16815250508260600151816003815181106139df576139df614efb565b602002602001019063ffffffff16908163ffffffff1681525050826080015181600481518110613a1157613a11614efb565b602002602001019063ffffffff16908163ffffffff16815250506107e7816143fb565b60006106b382600001516005811115613a4f57613a4f614a30565b6020848101516040808701516060808901518051958101519381015191015160ff9690961660089490941b64ffffffff00169390931760289190911b63ffffffff60281b161760489390931b600c0b9290921760689290921b60100b9190911760889190911b60140b1760a89190911b60180b1790565b613ae884602001518560a0015186604001518760600151886101000151612cc7565b8360c001516001600160a01b0316639a641e0285606001518661010001516040518363ffffffff1660e01b8152600401613b23929190614d1f565b602060405180830381865afa158015613b40573d6000803e3d6000fd5b505050506040513d601f19601f82011682018060405250810190613b649190614ed2565b6001600160401b031615613b8b5760405163899454e360e01b815260040160405180910390fd5b613bb084610100015185606001516001600160a01b03166121b890919063ffffffff16565b600b86016000613bc96001600160a01b038716866121b8565b81526020019081526020016000205414613bf85782604051632cab491d60e21b81526004016108d5919061498a565b612ed6858560e0015185858860600151896101000151878b608001518c60000151612862565b613c26614634565b613c2e6146f4565b60a883901c600390810b6060830152608884901c810b604080840191909152606885901c820b602080850191909152604886901c830b8452602886901c830b91850191909152600885901c90910b908301528260ff81166005811115613c9657613c96614a30565b83906005811115613ca957613ca9614a30565b90816005811115613cbc57613cbc614a30565b905250506060820152919050565b613cd261465d565b6000613cdd8361447d565b90506040518060a0016040528082600081518110613cfd57613cfd614efb565b602002602001015163ffffffff16815260200182600181518110613d2357613d23614efb565b602002602001015163ffffffff16815260200182600281518110613d4957613d49614efb565b602002602001015163ffffffff16815260200182600381518110613d6f57613d6f614efb565b602002602001015163ffffffff16815260200182600481518110613d9557613d95614efb565b602002602001015163ffffffff16815250915050919050565b60006106b3825490565b6000826000018281548110613dcf57613dcf614efb565b9060005260206000200154905092915050565b6000613dec610fe6565b54600160401b900460ff16919050565b60006106b382600001516006811115613e1757613e17614a30565b6020840151604085015160ff9290921660089190911b61ff00161760109190911b63ffff0000161790565b6060600080613e5084612208565b91509150613e5e82826144f2565b949350505050565b60008181526001830160205260408120548015613f4f576000613e8a600183614e48565b8554909150600090613e9e90600190614e48565b9050808214613f03576000866000018281548110613ebe57613ebe614efb565b9060005260206000200154905080876000018481548110613ee157613ee1614efb565b6000918252602080832090910192909255918252600188019052604090208390555b8554869080613f1457613f14615b9f565b6001900381819060005260206000200160009055905585600101600086815260200190815260200160002060009055600193505050506106b3565b60009150506106b3565b5092915050565b6040516331a9108f60e11b8152600481018390526001600160a01b038083169190851690636352211e90602401602060405180830381865afa158015613faa573d6000803e3d6000fd5b505050506040513d601f19601f82011682018060405250810190613fce9190614e87565b6001600160a01b0316146140085760405163c8e98f8960e01b81526001600160a01b038085166004830152821660248201526044016108d5565b505050565b600080600b8501816140286001600160a01b038716866121b8565b815260200190815260200160002054141590509392505050565b604051630fba6a5960e11b81526000906001600160a01b03861690631f74d4b2906140739087908790600401614d1f565b608060405180830381865afa158015614090573d6000803e3d6000fd5b505050506040513d601f19601f820116820180604052508101906140b49190615bb5565b9050806000015160030b826000015160030b13806140df5750806020015160030b826020015160030b135b806140f75750806040015160030b826040015160030b135b8061410f5750806060015160030b826060015160030b135b15612ed657604051637e2b537360e11b815260040160405180910390fd5b6141356145e3565b61413d6145e3565b60ff8084168252600884901c81166020830152601084901c16600c81111561416757614167614a30565b8160400190600c81111561417d5761417d614a30565b9081600c81111561419057614190614a30565b905250601883901c61ffff16606082810191909152602884901c60ff908116608080850191909152603086901c821660c080860191909152603887901c90921660e0850152604086811c63ffffffff1660a0808701919091526101008601805189871c600390810b9091528151948a901c810b6020959095019490945280519189901c840b9190920152519590911c900b9301929092525090565b6000818152600183016020526040812054614272575081546001818101845560008481526020808220909301849055845484825282860190935260409020919091556106b3565b5060006106b3565b805151602082015151606091908114158061429a57508260400151518114155b806142aa57508260600151518114155b156142c85760405163586cb9e160e01b815260040160405180910390fd5b806001600160401b038111156142e0576142e0614f58565b604051908082528060200260200182016040528015614309578160200160208202803683370190505b50915060005b818110156143f4576143cf8460000151828151811061433057614330614efb565b60200260200101518560200151838151811061434e5761434e614efb565b60200260200101518660400151848151811061436c5761436c614efb565b60200260200101518760600151858151811061438a5761438a614efb565b602090810291909101015160ff9390931660089290921b64ffffffff00169190911760289190911b63ffffffff60281b161760489190911b63ffffffff60481b161790565b8382815181106143e1576143e1614efb565b602090810291909101015260010161430f565b5050919050565b8051600090600881111561442c57604051633d71388b60e21b815260048101829052600860248201526044016108d5565b6000805b82811015614475576144438160206159d6565b85828151811061445557614455614efb565b602090810291909101015163ffffffff16901b9190911790600101614430565b509392505050565b604080516008808252610120820190925260609160009190602082016101008036833701905050905060005b6008811015613f59576144bd8160206159d6565b8460001c901c8282815181106144d5576144d5614efb565b63ffffffff909216602092830291909101909101526001016144a9565b60408051602b8082526105808201909252606091602082016105608036833701905050905060005b8351811015613f5957600084828151811061453757614537614efb565b602002602001015190508060030b60001461459057808385848151811061456057614560614efb565b602002602001015160ff168151811061457b5761457b614efb565b602002602001019060030b908160030b815250505b5060010161451a565b6040518060800160405280606081526020016060815260200160608152602001606081525090565b6040805160608101909152806000815260006020820181905260409091015290565b60408051610120810182526000808252602082018190529091820190815260006020820181905260408201819052606082018190526080820181905260a082015260c00161462f6146f4565b905290565b60408051608081019091528060008152600060208201819052604082015260600161462f6146f4565b6040805160a08101825260008082526020820181905291810182905260608101829052608081019190915290565b5080546000825590600052602060002090810190610859919061471b565b8280548282559060005260206000209081019282156146e4579160200282015b828111156146e45782518255916020019190600101906146c9565b506146f092915061471b565b5090565b60408051608081018252600080825260208201819052918101829052606081019190915290565b5b808211156146f0576000815560010161471c565b6001600160a01b038116811461085957600080fd5b803561475081614730565b919050565b6000806040838503121561476857600080fd5b823561477381614730565b946020939093013593505050565b60008151808452602080850194506020840160005b838110156147b557815160ff1687529582019590820190600101614796565b509495945050505050565b604080825283519082018190526000906020906060840190828701845b828110156147fc57815160030b845292840192908401906001016147dd565b50505083810360208501526148118186614781565b9695505050505050565b60ff8116811461085957600080fd5b80356147508161481b565b60008060006060848603121561484a57600080fd5b833561485581614730565b925060208401359150604084013561486c8161481b565b809150509250925092565b60006020828403121561488957600080fd5b81356107e781614730565b60008151808452602080850194506020840160005b838110156147b557815160030b875295820195908201906001016148a9565b6000602080835283516080828501526148e460a0850182614781565b905081850151601f19808684030160408701526149018383614894565b9250604087015191508086840301606087015261491e8383614894565b6060880151878203909201608088015281518082529185019350600092508401905b8083101561496657835163ffffffff168252928401926001929092019190840190614940565b509695505050505050565b60006020828403121561498357600080fd5b5035919050565b6001600160a01b0391909116815260200190565b801515811461085957600080fd5b600080600080600080600060e0888a0312156149c757600080fd5b87356149d281614730565b96506020880135955060408801356149e981614730565b9450606088013593506080880135614a008161481b565b925060a0880135614a1081614730565b915060c0880135614a208161499e565b8091505092959891949750929550565b634e487b7160e01b600052602160045260246000fd5b8151606082019060078110614a5d57614a5d614a30565b8083525060ff602084015116602083015261ffff604084015116604083015292915050565b60008083601f840112614a9457600080fd5b5081356001600160401b03811115614aab57600080fd5b6020830191508360208260051b85010111156105f457600080fd5b60008060008060008060008060a0898b031215614ae257600080fd5b8835614aed81614730565b97506020890135965060408901356001600160401b0380821115614b1057600080fd5b614b1c8c838d01614a82565b909850965060608b0135915080821115614b3557600080fd5b614b418c838d01614a82565b909650945060808b0135915080821115614b5a57600080fd5b50614b678b828c01614a82565b999c989b5096995094979396929594505050565b600d8110614b8b57614b8b614a30565b9052565b805160030b8252602081015160030b6020830152604081015160030b6040830152606081015160030b60608301525050565b60006101808201905060ff835116825260ff60208401511660208301526040830151614bf06040840182614b7b565b506060830151614c06606084018261ffff169052565b506080830151614c1b608084018260ff169052565b5060a0830151614c3360a084018263ffffffff169052565b5060c0830151614c4860c084018260ff169052565b5060e0830151614c5d60e084018260ff169052565b5061010080840151614c7182850182614b8f565b505092915050565b60006020808352835180602085015260005b81811015614ca757858101830151858201604001528201614c8b565b506000604082860101526040601f19601f8301168501019250505092915050565b60008060408385031215614cdb57600080fd5b8235614ce681614730565b915060208301356001600160401b03811115614d0157600080fd5b83016103c08186031215614d1457600080fd5b809150509250929050565b6001600160a01b03929092168252602082015260400190565b60008060008060808587031215614d4e57600080fd5b8435614d5981614730565b9350602085013592506040850135614d7081614730565b9396929550929360600135925050565b600080600060608486031215614d9557600080fd5b8335614da081614730565b95602085013595506040909401359392505050565b60068110614b8b57614b8b614a30565b600060e082019050614dd8828451614db5565b602083015160030b6020830152604083015160030b60408301526060830151613f596060840182614b8f565b60008060408385031215614e1757600080fd5b8235614e2281614730565b91506020830135614d1481614730565b634e487b7160e01b600052601160045260246000fd5b818103818111156106b3576106b3614e32565b808201808211156106b3576106b3614e32565b600060208284031215614e8057600080fd5b5051919050565b600060208284031215614e9957600080fd5b81516107e781614730565b60008060408385031215614eb757600080fd5b8251614ec281614730565b6020939093015192949293505050565b600060208284031215614ee457600080fd5b81516001600160401b03811681146107e757600080fd5b634e487b7160e01b600052603260045260246000fd5b600060208284031215614f2357600080fd5b81356107e78161481b565b8035600d811061475057600080fd5b600060208284031215614f4f57600080fd5b6107e782614f2e565b634e487b7160e01b600052604160045260246000fd5b604051608081016001600160401b0381118282101715614f9057614f90614f58565b60405290565b60405161012081016001600160401b0381118282101715614f9057614f90614f58565b60405160a081016001600160401b0381118282101715614f9057614f90614f58565b604051601f8201601f191681016001600160401b038111828210171561500357615003614f58565b604052919050565b803561ffff8116811461475057600080fd5b63ffffffff8116811461085957600080fd5b80356147508161501d565b8060030b811461085957600080fd5b60006080828403121561505b57600080fd5b615063614f6e565b905081356150708161503a565b815260208201356150808161503a565b602082015260408201356150938161503a565b604082015260608201356150a68161503a565b606082015292915050565b600061018082840312156150c457600080fd5b6150cc614f96565b6150d58361482a565b81526150e36020840161482a565b60208201526150f460408401614f2e565b60408201526151056060840161500b565b60608201526151166080840161482a565b608082015261512760a0840161502f565b60a082015261513860c0840161482a565b60c082015261514960e0840161482a565b60e082015261010061515d85828601615049565b908201529392505050565b60008235607e1983360301811261517e57600080fd5b9190910192915050565b60006001600160401b038211156151a1576151a1614f58565b5060051b60200190565b600082601f8301126151bc57600080fd5b813560206151d16151cc83615188565b614fdb565b8083825260208201915060208460051b8701019350868411156151f357600080fd5b602086015b8481101561496657803561520b8161481b565b83529183019183016151f8565b600082601f83011261522957600080fd5b813560206152396151cc83615188565b8083825260208201915060208460051b87010193508684111561525b57600080fd5b602086015b848110156149665780356152738161503a565b8352918301918301615260565b600082601f83011261529157600080fd5b813560206152a16151cc83615188565b8083825260208201915060208460051b8701019350868411156152c357600080fd5b602086015b848110156149665780356152db8161501d565b83529183019183016152c8565b6000608082360312156152fa57600080fd5b615302614f6e565b82356001600160401b038082111561531957600080fd5b615325368387016151ab565b8352602085013591508082111561533b57600080fd5b61534736838701615218565b6020840152604085013591508082111561536057600080fd5b61536c36838701615218565b6040840152606085013591508082111561538557600080fd5b5061539236828601615280565b60608301525092915050565b60008235603e1983360301811261517e57600080fd5b6000808335601e198436030181126153cb57600080fd5b8301803591506001600160401b038211156153e557600080fd5b6020019150600581901b36038213156105f457600080fd5b600060a0828403121561540f57600080fd5b615417614fb9565b82356154228161501d565b815260208301356154328161501d565b602082015260408301356154458161501d565b604082015260608301356154588161501d565b6060820152608083013561546b8161501d565b60808201529392505050565b80356006811061475057600080fd5b600060e0828403121561549857600080fd5b6154a0614f6e565b6154a983615477565b815260208301356154b98161503a565b602082015260408301356154cc8161503a565b60408201526154de8460608501615049565b60608201529392505050565b80356154f58161503a565b60030b825260208101356155088161503a565b60030b6020830152604081013561551e8161503a565b60030b604083015260608101356155348161503a565b8060030b6060840152505050565b803561554d8161481b565b60ff16825260208101356155608161481b565b60ff16602083015261557460408201614f2e565b6155816040840182614b7b565b5061558e6060820161500b565b61ffff1660608301526155a36080820161482a565b60ff1660808301526155b760a0820161502f565b63ffffffff1660a08301526155ce60c0820161482a565b60ff1660c08301526155e260e0820161482a565b60ff1660e08301526101006140088184018383016154ea565b60008235607e1983360301811261561157600080fd5b90910192915050565b6000808335601e1984360301811261563157600080fd5b83016020810192503590506001600160401b0381111561565057600080fd5b8060051b36038213156105f457600080fd5b8183526000602080850194508260005b858110156147b55781356156858161481b565b60ff1687529582019590820190600101615672565b8183526000602080850194508260005b858110156147b55781356156bd8161503a565b60030b875295820195908201906001016156aa565b60006156de828361561a565b608085526156f0608086018284615662565b9150506020615702602085018561561a565b868403602088015261571584828461569a565b93505050615726604085018561561a565b868403604088015261573984828461569a565b9350505061574a606085018561561a565b86840360608801528084529092600091906020015b8183101561578c5784356157728161501d565b63ffffffff1681529383019360019290920191830161575f565b979650505050505050565b60008235603e1983360301811261561157600080fd5b60006157b9828361561a565b604085526157cb604086018284615662565b9150506157db602084018461561a565b858303602087015261481183828461569a565b80356157f98161501d565b63ffffffff90811683526020820135906158128261501d565b90811660208401526040820135906158298261501d565b90811660408401526060820135906158408261501d565b90811660608401526080820135906158578261501d565b808216608085015250505050565b6158778261587283615477565b614db5565b60208101356158858161503a565b60030b6020830152604081013561589b8161503a565b60030b6040830152610af460608084019083016154ea565b6001600160a01b03831681526040602082018190526158d490820183615542565b60006158e36101808401614745565b6101c06158fa818501836001600160a01b03169052565b6101e091506101a085013582850152615915818601866155fb565b90506102006103c08186015261592f6104008601836156d2565b915061593d83870187615797565b9250603f19808684030161022087015261595783856157ad565b935061596961024087018389016157ee565b6159776102a08801886155fb565b92506102e0915080868503018287015261599184846156d2565b93506159a16102c08801886155fb565b92508086850301610300870152506159b983836156d2565b92506159cb6103208601828801615865565b509095945050505050565b80820281158282048414176106b3576106b3614e32565b6000600182016159ff576159ff614e32565b5060010190565b6001600160a01b0397881681526001600160401b03969096166020870152604086019490945260ff929092166060850152909316608083015260a082019290925290151560c082015260e00190565b6020815260018060a01b038251166020820152602082015160408201526000604083015160a06060840152615a8d60c0840182614894565b90506060840151151560808401526080840151151560a08401528091505092915050565b6001600160a01b039384168152919092166020820152604081019190915260600190565b600060208284031215615ae757600080fd5b81516107e78161499e565b600060208284031215615b0457600080fd5b81516107e78161481b565b600060a08284031215615b2157600080fd5b615b29614fb9565b8251615b348161501d565b81526020830151615b448161501d565b60208201526040830151615b578161501d565b60408201526060830151615b6a8161501d565b6060820152608083015161546b8161501d565b600082615b9a57634e487b7160e01b600052601260045260246000fd5b500490565b634e487b7160e01b600052603160045260246000fd5b600060808284031215615bc757600080fd5b615bcf614f6e565b8251615bda8161503a565b81526020830151615bea8161503a565b60208201526040830151615bfd8161503a565b604082015260608301516154de8161503a56fe22573091f17911fb166032a3d9e0554aa73d31b7b7ddea4a4dd2995650af84bda264697066735822122059ad3be19ac5d76c44943ec960417c9f6a7bae4acb05ff1509dcb1680636dec564736f6c63430008170033",
  "deployedBytecode": "0x608060405234801561001057600080fd5b50600436106102135760003560e01c8063975fdfea11610126578063d87b687d116100b3578063d87b687d146104ca578063d9f72d80146104dd578063dd21b9291461053c578063dee1f0e41461054f578063dfcb87e514610562578063e3dacdb614610575578063ee1fe2ad14610588578063f77c47911461059b578063f863208d146105a3578063fafc4bfd146105ab578063ffa1ad74146105be57600080fd5b8063975fdfea146103fc5780639b92d4c51461040f5780639d0bcca014610422578063a24835d11461042a578063aef874fa1461043d578063b429afeb1461045e578063bc78570114610471578063bf105a0014610484578063cad181b914610497578063ce11a209146104b757600080fd5b8063399fa840116101a4578063399fa840146103295780634593144c1461033c5780634fac6ccd146103445780635040f95214610357578063572b6c051461036a57806370435ed11461037d5780637401edba146103905780637cc96380146103a357806382b538de146103ab578063936725ec146103cb57600080fd5b8063010759751461021857806307d79427146102425780630bcfdc1414610257578063173cc5221461027757806319ab453c146102975780631af65859146102aa5780631cdaab67146102bd57806324e44dfc146102dd57806327238f12146102f0578063325a19f114610313575b600080fd5b61022b610226366004614755565b6105e2565b6040516102399291906147c0565b60405180910390f35b610255610250366004614835565b6105fb565b005b61026a610265366004614877565b6106a2565b60405161023991906148c8565b61028a610285366004614971565b6106b9565b604051610239919061498a565b6102556102a5366004614877565b6106c4565b6102556102b83660046149ac565b6107be565b6102d06102cb366004614755565b6107d5565b6040516102399190614a46565b61022b6102eb366004614755565b6107ee565b6103036102fe366004614755565b6107fb565b6040519015158152602001610239565b61031b610807565b604051908152602001610239565b610255610337366004614877565b610840565b61031b61085c565b610255610352366004614877565b61088c565b61026a610365366004614877565b61099d565b610303610378366004614877565b6109ae565b61025561038b366004614ac6565b6109fc565b61031b61039e366004614755565b610a2e565b61031b610aab565b6103be6103b9366004614877565b610ac9565b6040516102399190614bc1565b6103ef604051806040016040528060058152602001640312e302e360dc1b81525081565b6040516102399190614c79565b61025561040a366004614cc8565b610ada565b61025561041d366004614ac6565b610af8565b61028a610b20565b610255610438366004614755565b610b50565b61045061044b366004614755565b610be4565b604051610239929190614d1f565b61030361046c366004614877565b610bf1565b61025561047f366004614d38565b610c16565b610255610492366004614d80565b610cc7565b6104aa6104a5366004614877565b610d49565b6040516102399190614dc5565b6104aa6104c5366004614755565b610d5a565b6102556104d8366004614d80565b610d6c565b6104f06104eb366004614877565b610d8e565b6040516102399190815163ffffffff9081168252602080840151821690830152604080840151821690830152606080840151821690830152608092830151169181019190915260a00190565b61026a61054a366004614877565b610d9f565b61030361055d366004614877565b610db0565b610450610570366004614877565b610e35565b61022b610583366004614877565b610e4a565b61031b610596366004614e04565b610e56565b61028a610e6b565b61031b610e9b565b61022b6105b9366004614755565b610ea5565b6103ef60405180604001604052806005815260200164312e302e3160d81b81525081565b6060806105ef8484610eb2565b915091505b9250929050565b73__$e606fdba99c76896c5b0fb8e6ab34e72a7$__63c4be6cb461061d610e6b565b610625610f31565b6040516001600160e01b031960e085901b1681526001600160a01b039283166004820152908216602482015290861660448201526064810185905260ff8416608482015260a4015b60006040518083038186803b15801561068557600080fd5b505af4158015610699573d6000803e3d6000fd5b50505050505050565b6106aa614599565b6106b382610f53565b92915050565b60006106b382610fd2565b60006106ce610fe6565b805490915060ff600160401b82041615906001600160401b03166000811580156106f55750825b90506000826001600160401b031660011480156107115750303b155b90508115801561071f575080155b1561073d5760405163f92ee8a960e01b815260040160405180910390fd5b845467ffffffffffffffff19166001178555831561076757845460ff60401b1916600160401b1785555b6107708661100a565b83156107b657845460ff60401b19168555604051600181527fc7f505b2f371ae2175ee4913f4499e1f2633a7b5936321eed1cdaeb6115181d29060200160405180910390a15b505050505050565b6106996107c9610e6b565b8888888888888861101b565b6107dd6145c1565b6107e783836111a9565b9392505050565b6060806105ef84846111df565b60006107e783836111fc565b600061083b61083760017f6f55f470bdc9cb5f04223fd822021061668e4dccb43e8727b295106dc9769c8b614e48565b5490565b905090565b61085961084b610e6b565b610853610f31565b83611237565b50565b600061083b61083760017f812a673dfca07956350df10f8a654925f561d7a0da09bdbe79e653939a14d9f1614e48565b3330146108de5760405162461bcd60e51b815260206004820152601b60248201527a24b731b932b0b9b2903932bb34b9b4b7b7103337b93134b23232b760291b60448201526064015b60405180910390fd5b60006108fc6108376001600080516020615c11833981519152614e48565b610907906001614e5b565b9050610929816109266001600080516020615c11833981519152614e48565b55565b6109588261092660017fbfaaa2fb63266ff27c2da975f5894955056f50419af651a81f6c5060581857e4614e48565b604080518281526001600160a01b03841660208201527ff27e2ef832a4eb8ed8ec553b875eecd44764cda95b1c24170e281539e0a869c8910160405180910390a15050565b6109a5614599565b6106b382611389565b60006001600160a01b03821673d8253782c45a12053594b9deb72d8e8ab2fca54c14806106b357506001600160a01b0382167352ceba41da235af367bfc0b0ccd3314cb901bb5f1492915050565b610a24610a07611406565b610a0f610e6b565b610a17610f31565b8b8b8b8b8b8b8b8b61141e565b5050505050505050565b604051633a00f6dd60e11b815260009073__$e606fdba99c76896c5b0fb8e6ab34e72a7$__90637401edba90610a6a9086908690600401614d1f565b602060405180830381865af4158015610a87573d6000803e3d6000fd5b505050506040513d601f19601f820116820180604052508101906107e79190614e6e565b600061083b6108376001600080516020615c11833981519152614e48565b610ad16145e3565b6106b3826117de565b610af4610ae5610e6b565b610aed610f31565b8484611813565b5050565b610a24610b03611406565b610b0b610e6b565b610b13610f31565b8b8b8b8b8b8b8b8b611c2b565b600061083b61083760017fbfaaa2fb63266ff27c2da975f5894955056f50419af651a81f6c5060581857e4614e48565b73__$e606fdba99c76896c5b0fb8e6ab34e72a7$__63c1336c97610b72610e6b565b610b7a610f31565b6040516001600160e01b031960e085901b1681526001600160a01b039283166004820152908216602482015290851660448201526064810184905260840160006040518083038186803b158015610bd057600080fd5b505af41580156107b6573d6000803e3d6000fd5b6000806105ef8484611eaa565b6000610bfb610e6b565b6001600160a01b0316826001600160a01b0316149050919050565b73__$e606fdba99c76896c5b0fb8e6ab34e72a7$__630244c7ef610c38611406565b610c40610e6b565b610c48610f31565b6040516001600160e01b031960e086901b16815292151560048401526001600160a01b03918216602484015281166044830152808816606483015260848201879052851660a482015260c4810184905260e40160006040518083038186803b158015610cb357600080fd5b505af4158015610a24573d6000803e3d6000fd5b73__$e606fdba99c76896c5b0fb8e6ab34e72a7$__63dfd41dfb610ce9611406565b610cf1610e6b565b610cf9610f31565b6040516001600160e01b031960e086901b16815292151560048401526001600160a01b03918216602484015281166044830152861660648201526084810185905260a4810184905260c40161066d565b610d51614634565b6106b382611ee8565b610d62614634565b6107e78383611f1d565b73__$e606fdba99c76896c5b0fb8e6ab34e72a7$__6334d9da65610ce9611406565b610d9661465d565b6106b382611f53565b610da7614599565b6106b382611f88565b6000816001600160a01b0316610dc4610e6b565b6001600160a01b0316635aa6e6756040518163ffffffff1660e01b8152600401602060405180830381865afa158015610e01573d6000803e3d6000fd5b505050506040513d601f19601f82011682018060405250810190610e259190614e87565b6001600160a01b03161492915050565b600080610e4183612005565b91509150915091565b606080610e4183612039565b60006107e7610e63610e6b565b3385856120b1565b600061083b61083760017f5165972ef41194f06c5007493031d0b927c20741adcb74403b954009fd2c3618614e48565b600061083b612165565b6060806105ef8484612177565b6060806105ef610ec0612194565b600d016000610ecf87876121b8565b8152602001908152602001600020805480602002602001604051908101604052809291908181526020018280548015610f2757602002820191906000526020600020905b815481526020019060010190808311610f13575b5050505050612208565b6000610f3c336109ae565b15610f4e575060131936013560601c90565b503390565b610f5b614599565b6106b3610f66612194565b6001600160a01b0384166000908152600891909101602090815260409182902080548351818402810184019094528084529091830182828015610fc857602002820191906000526020600020905b815481526020019060010190808311610fb4575b50505050506124f9565b60006106b382610fe0612194565b90612710565b7ff0c57e16840df040f15088dc2f81fe391c3923bec73e23a9662efc9c229c6a0090565b61101261271c565b61085981612743565b336001600160a01b0316886001600160a01b031663524a562f6040518163ffffffff1660e01b8152600401602060405180830381865afa158015611063573d6000803e3d6000fd5b505050506040513d601f19601f820116820180604052508101906110879190614e87565b6001600160a01b0316141580156111115750336001600160a01b0316886001600160a01b031663016dff5d6040518163ffffffff1660e01b8152600401602060405180830381865afa1580156110e1573d6000803e3d6000fd5b505050506040513d601f19601f820116820180604052508101906111059190614e87565b6001600160a01b031614155b15611131573360405163f652640360e01b81526004016108d5919061498a565b610a2461113c612194565b896001600160a01b0316628e96916040518163ffffffff1660e01b8152600401602060405180830381865afa158015611179573d6000803e3d6000fd5b505050506040513d601f19601f8201168201806040525081019061119d9190614e87565b89898989898989612862565b6111b16145c1565b6107e76111bc612194565b600a0160006111cb86866121b8565b815260200190815260200160002054612b9d565b6060806105ef6111ed612194565b600e016000610ecf87876121b8565b600080611207612194565b600b01600061121f6001600160a01b038716866121b8565b81526020019081526020016000205414905092915050565b6000611241612194565b905061124d8484612c06565b6112578183612c92565b506001600160a01b038216600090815260028201602090815260408083208390556003840182528083208390556004840190915281206112969161468b565b6001600160a01b038216600090815260058201602052604081206112b99161468b565b6001600160a01b038216600090815260068201602090815260408083208390556007840190915281206112eb9161468b565b6001600160a01b0382166000908152600882016020526040812061130e9161468b565b6001600160a01b03821660008181526009830160205260408120819055600f83019161133a90826121b8565b8152602001908152602001600020600090557ff4bab09e0bfc491adb818cac1805d51def9f0ec39825ffb0e42aeaa46494efce8260405161137b919061498a565b60405180910390a150505050565b611391614599565b6106b361139c612194565b6001600160a01b0384166000908152600791909101602090815260409182902080548351818402810184019094528084529091830182828015610fc85760200282019190600052602060002090815481526020019060010190808311610fb45750505050506124f9565b6000611411336109ae565b8061083b57505032331490565b6114278b612ca7565b6000611431612194565b905085841415806114425750858214155b156114605760405163586cb9e160e01b815260040160405180910390fd5b6040805160c081018252600080825260208201819052918101829052606081018290526080810182905260a08101919091528b6001600160a01b0316628e96916040518163ffffffff1660e01b8152600401602060405180830381865afa1580156114cf573d6000803e3d6000fd5b505050506040513d601f19601f820116820180604052508101906114f39190614e87565b6001600160a01b0390811682526040805163683fedf760e01b81529051918e169163683fedf7916004808201926020929091908290030181865afa15801561153f573d6000803e3d6000fd5b505050506040513d601f19601f820116820180604052508101906115639190614e87565b81602001906001600160a01b031690816001600160a01b0316815250508b6001600160a01b031663016dff5d6040518163ffffffff1660e01b8152600401602060405180830381865afa1580156115be573d6000803e3d6000fd5b505050506040513d601f19601f820116820180604052508101906115e29190614e87565b6001600160a01b031660408083018290525163509e788360e11b815263a13cf10690611612908d9060040161498a565b6040805180830381865afa15801561162e573d6000803e3d6000fd5b505050506040513d601f19601f820116820180604052508101906116529190614ea4565b506001600160a01b03908116606083015260a082018a90528a1660808201526040810151611684908d908d8d8d612cc7565b80602001516001600160a01b0316639a641e028b8b6040518363ffffffff1660e01b81526004016116b6929190614d1f565b602060405180830381865afa1580156116d3573d6000803e3d6000fd5b505050506040513d601f19601f820116820180604052508101906116f79190614ed2565b6001600160401b03161561171e576040516332811e7b60e21b815260040160405180910390fd5b60608101516001600160a01b031661174957604051630e8e75df60e21b815260040160405180910390fd5b60005b878110156117ce576117c683838e8c8c8681811061176c5761176c614efb565b90506020020160208101906117819190614877565b8b8b8781811061179357611793614efb565b905060200201358a8a888181106117ac576117ac614efb565b90506020020160208101906117c19190614f11565b612edd565b60010161174c565b5050505050505050505050505050565b6117e66145e3565b6106b36117f1612194565b6001600160a01b0384166000908152600291909101602052604090205461338a565b61181d8484612c06565b6000611827612194565b90506118366020830183614f11565b60ff166000036118585760405162a2622f60e41b815260040160405180910390fd5b6118686040830160208401614f11565b60ff1660000361188b57604051631e1c984560e31b815260040160405180910390fd5b611895818461339b565b61194c576001600160a01b03831660009081526002820160205260408120546118bd9061338a565b90506118cf6060840160408501614f3d565b600c8111156118e0576118e0614a30565b8160400151600c8111156118f6576118f6614a30565b1461191457604051632d5a77ad60e11b815260040160405180910390fd5b6119216020840184614f11565b60ff16816000015160ff161461194a5760405163d300ee6760e01b815260040160405180910390fd5b505b61196361195e368490038401846150b1565b6133b0565b6001600160a01b038416600090815260028301602052604090205561199e6119936101a084016101808501614877565b836101a001356134b6565b6001600160a01b03841660009081526003830160205260409020556119dd836119cb6101c0850185615168565b6119d4906152e8565b83600401613503565b60046119ec6020840184614f11565b60ff1603611afe57611a97611a056101e084018461539e565b611a0f90806153b4565b80806020026020016040519081016040528093929190818152602001838360200280828437600092019190915250611a4f925050506101e085018561539e565b611a5d9060208101906153b4565b8080602002602001604051908101604052809392919081815260200183836020028082843760009201919091525092939250506136ad9050565b6001600160a01b038416600090815260058301602090815260409091208251611ac693919291909101906146a9565b50611ae2611add36849003840161020085016153fd565b61390b565b6001600160a01b03841660009081526006830160205260409020555b6003611b0d6020840184614f11565b60ff1603611b5d57611b3983611b276102a0850185615168565b611b30906152e8565b83600701613503565b611b5d83611b4b6102c0850185615168565b611b54906152e8565b83600801613503565b6002611b6c6020840184614f11565b60ff1603611beb57611b8f611b8a3684900384016102e08501615486565b613a34565b6001600160a01b0384166000908152600983016020526040902055611bc0611b8a3684900384016102e08501615486565b600f82016000611bd96001600160a01b038716826121b8565b81526020810191909152604001600020555b7fc95b7ce18e68e0cd72d853f72c56778d20af395933e5707fabe05f07cdd8bce48383604051611c1c9291906158b3565b60405180910390a15050505050565b611c348b612ca7565b60006040518061012001604052806000151581526020018c6001600160a01b031681526020018b6001600160a01b031681526020018a6001600160a01b031681526020018b6001600160a01b031681526020018c6001600160a01b031663016dff5d6040518163ffffffff1660e01b8152600401602060405180830381865afa158015611cc5573d6000803e3d6000fd5b505050506040513d601f19601f82011682018060405250810190611ce99190614e87565b6001600160a01b031681526020018c6001600160a01b031663683fedf76040518163ffffffff1660e01b8152600401602060405180830381865afa158015611d35573d6000803e3d6000fd5b505050506040513d601f19601f82011682018060405250810190611d599190614e87565b6001600160a01b031681526020018c6001600160a01b0316628e96916040518163ffffffff1660e01b8152600401602060405180830381865afa158015611da4573d6000803e3d6000fd5b505050506040513d601f19601f82011682018060405250810190611dc89190614e87565b6001600160a01b0316815260200189905290506000611de5612194565b9050868581141580611df75750808414155b15611e155760405163586cb9e160e01b815260040160405180910390fd5b60005b81811015611e9957611e9183858c8c85818110611e3757611e37614efb565b9050602002016020810190611e4c9190614877565b8b8b86818110611e5e57611e5e614efb565b905060200201358a8a87818110611e7757611e77614efb565b9050602002016020810190611e8c9190614f11565b613ac6565b600101611e18565b505050505050505050505050505050565b6000806105ef611eb8612194565b600b016000611ed06001600160a01b038816876121b8565b8152602001908152602001600020549060a082901c90565b611ef0614634565b6106b3611efb612194565b6001600160a01b03841660009081526009919091016020526040902054613c1e565b611f25614634565b6107e7611f30612194565b600f016000611f3f86866121b8565b815260200190815260200160002054613c1e565b611f5b61465d565b6106b3611f66612194565b6001600160a01b03841660009081526006919091016020526040902054613cca565b611f90614599565b6106b3611f9b612194565b6001600160a01b0384166000908152600491909101602090815260409182902080548351818402810184019094528084529091830182828015610fc85760200282019190600052602060002090815481526020019060010190808311610fb45750505050506124f9565b600080610e41612013612194565b6001600160a01b038516600090815260039190910160205260409020549060a082901c90565b606080610e41612047612194565b6001600160a01b0385166000908152600591909101602090815260409182902080548351818402810184019094528084529091830182828015610f275760200282019190600052602060002090815481526020019060010190808311610f13575050505050612208565b600073__$5d7d7fdc526783c3dd309d9389950d9fea$__63245b1a236120d5612194565b6040516001600160e01b031960e084901b16815260048101919091526001600160a01b038089166024830152808816604483015280871660648301528516608482015260a401602060405180830381865af4158015612138573d6000803e3d6000fd5b505050506040513d601f19601f8201168201806040525081019061215c9190614e6e565b95945050505050565b600061083b612172612194565b613dae565b6060806105ef612185612194565b600c016000610ecf87876121b8565b7fe78a2879cd91c3f7b62ea14e72546fed47c40919bca4daada532a5fa05ac670090565b60006001600160401b038211156121e557604051633995b34160e01b8152600481018390526024016108d5565b5067ffffffffffffffff60a01b60a09190911b166001600160a01b039091161790565b80516060908190600061221c8260086159d6565b90506000816001600160401b0381111561223857612238614f58565b604051908082528060200260200182016040528015612261578160200160208202803683370190505b5090506000826001600160401b0381111561227e5761227e614f58565b6040519080825280602002602001820160405280156122a7578160200160208202803683370190505b5090506000805b858110156123d45760005b60088110156123cb576000816122d08460086159d6565b6122da9190614e5b565b90506122e78260206159d6565b8b84815181106122f9576122f9614efb565b602002602001015160001c901c60020b86828151811061231b5761231b614efb565b60039290920b6020928302919091018201526123389083906159d6565b612343906018614e5b565b8b848151811061235557612355614efb565b602002602001015160001c901c85828151811061237457612374614efb565b602002602001019060ff16908160ff168152505085818151811061239a5761239a614efb565b602002602001015160030b6000036123b257506123cb565b836123bc816159ed565b945050508060010190506122b9565b506001016122ae565b50806001600160401b038111156123ed576123ed614f58565b604051908082528060200260200182016040528015612416578160200160208202803683370190505b509650806001600160401b0381111561243157612431614f58565b60405190808252806020026020018201604052801561245a578160200160208202803683370190505b50955060005b818110156124ee5783818151811061247a5761247a614efb565b602002602001015188828151811061249457612494614efb565b602002602001019060030b908160030b815250508281815181106124ba576124ba614efb565b60200260200101518782815181106124d4576124d4614efb565b60ff90921660209283029190910190910152600101612460565b505050505050915091565b612501614599565b81516000816001600160401b0381111561251d5761251d614f58565b604051908082528060200260200182016040528015612546578160200160208202803683370190505b5090506000826001600160401b0381111561256357612563614f58565b60405190808252806020026020018201604052801561258c578160200160208202803683370190505b5090506000836001600160401b038111156125a9576125a9614f58565b6040519080825280602002602001820160405280156125d2578160200160208202803683370190505b5090506000846001600160401b038111156125ef576125ef614f58565b604051908082528060200260200182016040528015612618578160200160208202803683370190505b50905060005b858110156126ea5761265888828151811061263b5761263b614efb565b602002602001015190600882901c90602883901c90604884901c90565b88858151811061266a5761266a614efb565b6020026020010188868151811061268357612683614efb565b6020026020010188878151811061269c5761269c614efb565b602002602001018888815181106126b5576126b5614efb565b63ffffffff90951660209586029190910190940193909352600393840b9092529290910b905260ff909116905260010161261e565b506040805160808101825294855260208501939093529183015260608201529392505050565b60006107e78383613db8565b612724613de2565b61274157604051631afcd79f60e31b815260040160405180910390fd5b565b6001600160a01b03811661278b5760405162461bcd60e51b815260206004820152600f60248201526e2d32b9379031b7b73a3937b63632b960891b60448201526064016108d5565b6127ba8161092660017f5165972ef41194f06c5007493031d0b927c20741adcb74403b954009fd2c3618614e48565b6127e94261092660017f6f55f470bdc9cb5f04223fd822021061668e4dccb43e8727b295106dc9769c8b614e48565b6128184361092660017f812a673dfca07956350df10f8a654925f561d7a0da09bdbe79e653939a14d9f1614e48565b604080516001600160a01b0383168152426020820152438183015290517f1a2dd071001ebf6e03174e3df5b305795a4ad5d41d8fdb9ba41dbbe2367134269181900360600190a150565b60006128776001600160a01b038916886121b8565b6001600160a01b038916600090815260028c0160205260408120549192509061289f9061338a565b6000838152600a8d016020526040812054919250906128bd90612b9d565b90508160400151600c8111156128d5576128d5614a30565b6000036128f757896040516327f46c4f60e01b81526004016108d5919061498a565b8a6001600160a01b031663906f0ced89898560400151600c81111561291e5761291e614a30565b8a8f8f60006040518863ffffffff1660e01b81526004016129459796959493929190615a06565b600060405180830381600087803b15801561295f57600080fd5b505af1158015612973573d6000803e3d6000fd5b50505050831561299f576000604082015261298d81613dfc565b6000848152600a8e0160205260409020555b6000838152600c8d0160209081526040808320805482518185028101850190935280835291929091908301828280156129f757602002820191906000526020600020905b8154815260200190600101908083116129e3575b505050505090508051600014612aa2578b6001600160a01b0316639ff45dbe6040518060a001604052808c6001600160a01b031681526020018b8152602001612a3f85613e42565b8152600060208201819052604091820152516001600160e01b031960e084901b168152612a6f9190600401615a55565b600060405180830381600087803b158015612a8957600080fd5b505af1158015612a9d573d6000803e3d6000fd5b505050505b6000848152600b8e0160205260408082209190915551630ee8df4560e31b81526001600160a01b038c1690637746fa2890612ae5908c908a908f90600401615ab1565b600060405180830381600087803b158015612aff57600080fd5b505af1158015612b13573d6000803e3d6000fd5b505050507fd26bc924e2dd5a06c95c625446278e313e22ec09b4f606842d4a603b9dcb795e8b8b8b8b8b8b604051612b86969594939291906001600160a01b03968716815260208101959095529285166040850152606084019190915260ff16608083015290911660a082015260c00190565b60405180910390a150505050505050505050505050565b612ba56145c1565b61ffff601083901c16604082015260ff600883901c81166020830152829081166006811115612bd657612bd6614a30565b82906006811115612be957612be9614a30565b90816006811115612bfc57612bfc614a30565b8152505050919050565b604051631430d62960e21b81526001600160a01b038316906350c358a490612c3290849060040161498a565b602060405180830381865afa158015612c4f573d6000803e3d6000fd5b505050506040513d601f19601f82011682018060405250810190612c739190615ad5565b610af4578060405163451cea1760e11b81526004016108d5919061498a565b60006107e7836001600160a01b038416613e66565b8061085957336040516377817ac360e01b81526004016108d5919061498a565b612cd2828285613f60565b846001600160a01b0316632f91ede96040518163ffffffff1660e01b8152600401602060405180830381865afa158015612d10573d6000803e3d6000fd5b505050506040513d601f19601f82011682018060405250810190612d349190614e87565b6001600160a01b0316635451da1b83836040518363ffffffff1660e01b8152600401612d61929190614d1f565b602060405180830381865afa158015612d7e573d6000803e3d6000fd5b505050506040513d601f19601f82011682018060405250810190612da29190615ad5565b15612dc4578181604051634f38de4760e11b81526004016108d5929190614d1f565b846001600160a01b03166318d928316040518163ffffffff1660e01b8152600401602060405180830381865afa158015612e02573d6000803e3d6000fd5b505050506040513d601f19601f82011682018060405250810190612e269190615ad5565b15612e4457604051635e1633d360e11b815260040160405180910390fd5b604051631789b7b160e01b81526001600160a01b03851690631789b7b190612e7090859060040161498a565b602060405180830381865afa158015612e8d573d6000803e3d6000fd5b505050506040513d601f19601f82011682018060405250810190612eb19190615af2565b60ff16600003612ed6578160405163adc7fced60e01b81526004016108d5919061498a565b5050505050565b612ee8838386613f60565b6001600160a01b0383166000908152600287016020526040812054612f0c9061338a565b90506000612f2b600a8901826111cb6001600160a01b038916886121b8565b825190915060ff16600003612f5557846040516308057f8b60e11b81526004016108d5919061498a565b612f6088868661400d565b15612f805784604051633c9a6ba160e21b81526004016108d5919061498a565b8160400151600c811115612f9657612f96614a30565b600003612fb857846040516327f46c4f60e01b81526004016108d5919061498a565b606082015161ffff1615801590612fd55750604081015161ffff16155b15612ff557846040516318b5fb5360e11b81526004016108d5919061498a565b613012876000015188608001518960a00151856101000151614042565b86600001516001600160a01b031663906f0ced88608001518960a001518560400151600c81111561304557613045614a30565b878a8a60016040518863ffffffff1660e01b815260040161306c9796959493929190615a06565b600060405180830381600087803b15801561308657600080fd5b505af115801561309a573d6000803e3d6000fd5b50600092505050600c8901816130b96001600160a01b038916886121b8565b815260200190815260200160002080548060200260200160405190810160405280929190818152602001828054801561311157602002820191906000526020600020905b8154815260200190600101908083116130fd575b5050505050905080516000146132695787600001516001600160a01b0316639ff45dbe6040518060a001604052808b608001516001600160a01b031681526020018b60a00151815260200161316585613e42565b8152600160208201526000604091820152516001600160e01b031960e084901b1681526131959190600401615a55565b600060405180830381600087803b1580156131af57600080fd5b505af11580156131c3573d6000803e3d6000fd5b5050895160808b015160a08c0151604051631a95890960e31b81526001600160a01b03909316945063d4ac484893506131fe92600401614d1f565b60a060405180830381865afa15801561321b573d6000803e3d6000fd5b505050506040513d601f19601f8201168201806040525081019061323f9190615b0f565b6040015163ffffffff1660000361326957604051630915eecf60e21b815260040160405180910390fd5b6080880151604051630ee8df4560e31b81526001600160a01b03881691637746fa289161329c918b918a90600401615ab1565b600060405180830381600087803b1580156132b657600080fd5b505af11580156132ca573d6000803e3d6000fd5b50505060a089015160808a01516132eb92506001600160a01b0316906121b8565b600b8a0160006133046001600160a01b038a16896121b8565b81526020808201929092526040908101600020929092556080808b015160a0808d015185516001600160a01b03808e1682529581018c90529490921694840194909452606083015260ff8716908201527feb2eb074eb15472636bebc93010969043d430b4a120914dd775a8240cf6d54ff910160405180910390a1505050505050505050565b6133926145e3565b6106b38261412d565b60006107e7836001600160a01b03841661422b565b60006106b3826000015183602001518460400151600c8111156133d5576133d5614a30565b856060015186608001518760c001518860e001518960a001518a61010001518051602082015160408381015160609485015160c01b601b0b60a09190911b60170b60809390931b60130b9390941b600f0b63ffffffff60401b9590911b9490941660ff60381b60389690961b9590951660ff60301b60309790971b9690961660ff60281b60289890981b9790971664ffff00000060189990991b9890981662ff000060109a909a1b9990991661ff0060089b909b1b9a909a1660ff909b169a909a179890981796909617949094179290921717171791909117919091171790565b60006001600160601b038211156134e357604051633995b34160e01b8152600481018390526024016108d5565b506001600160a01b031960a09190911b166001600160a01b039091161790565b60005b825151811015613672578260200151818151811061352657613526614efb565b602002602001015160030b6000148061355f57508260400151818151811061355057613550614efb565b602002602001015160030b6000145b806135a957508260400151818151811061357b5761357b614efb565b602002602001015160030b8360200151828151811061359c5761359c614efb565b602002602001015160030b135b806135ff57506000836020015182815181106135c7576135c7614efb565b602002602001015160030b1280156135ff57506000836040015182815181106135f2576135f2614efb565b602002602001015160030b135b1561366a578260200151818151811061361a5761361a614efb565b60200260200101518360400151828151811061363857613638614efb565b602002602001015160405163afeec43960e01b81526004016108d5929190600392830b8152910b602082015260400190565b600101613506565b5061367c8261427a565b6001600160a01b03841660009081526020838152604090912082516136a793919291909101906146a9565b50505050565b606081518351146136d15760405163586cb9e160e01b815260040160405180910390fd5b6000600884516136e19190615b7d565b6136ec906001614e5b565b90506000816001600160401b0381111561370857613708614f58565b604051908082528060200260200182016040528015613731578160200160208202803683370190505b50905060005b828110156139025760005b60088110156138f9576000816137598460086159d6565b6137639190614e5b565b90508751811061377357506138f9565b627fffff60020b88828151811061378c5761378c614efb565b602002602001015160030b13806137c55750627fffff1960020b8882815181106137b8576137b8614efb565b602002602001015160030b125b15613803578781815181106137dc576137dc614efb565b602002602001015160030b604051632eb1d06960e01b81526004016108d591815260200190565b87818151811061381557613815614efb565b602002602001015160030b60000361384057604051637c946ed760e01b815260040160405180910390fd5b61384b8260206159d6565b88828151811061385d5761385d614efb565b602002602001015162ffffff1660001b901b84848151811061388157613881614efb565b6020026020010181815117915081815250508160206138a091906159d6565b6138ab906018614e5b565b8782815181106138bd576138bd614efb565b602002602001015160ff1660001b901b8484815181106138df576138df614efb565b602090810291909101018051909117905250600101613742565b50600101613737565b50949350505050565b60408051600580825260c082019092526000918291906020820160a08036833701905050905082600001518160008151811061394957613949614efb565b602002602001019063ffffffff16908163ffffffff168152505082602001518160018151811061397b5761397b614efb565b602002602001019063ffffffff16908163ffffffff16815250508260400151816002815181106139ad576139ad614efb565b602002602001019063ffffffff16908163ffffffff16815250508260600151816003815181106139df576139df614efb565b602002602001019063ffffffff16908163ffffffff1681525050826080015181600481518110613a1157613a11614efb565b602002602001019063ffffffff16908163ffffffff16815250506107e7816143fb565b60006106b382600001516005811115613a4f57613a4f614a30565b6020848101516040808701516060808901518051958101519381015191015160ff9690961660089490941b64ffffffff00169390931760289190911b63ffffffff60281b161760489390931b600c0b9290921760689290921b60100b9190911760889190911b60140b1760a89190911b60180b1790565b613ae884602001518560a0015186604001518760600151886101000151612cc7565b8360c001516001600160a01b0316639a641e0285606001518661010001516040518363ffffffff1660e01b8152600401613b23929190614d1f565b602060405180830381865afa158015613b40573d6000803e3d6000fd5b505050506040513d601f19601f82011682018060405250810190613b649190614ed2565b6001600160401b031615613b8b5760405163899454e360e01b815260040160405180910390fd5b613bb084610100015185606001516001600160a01b03166121b890919063ffffffff16565b600b86016000613bc96001600160a01b038716866121b8565b81526020019081526020016000205414613bf85782604051632cab491d60e21b81526004016108d5919061498a565b612ed6858560e0015185858860600151896101000151878b608001518c60000151612862565b613c26614634565b613c2e6146f4565b60a883901c600390810b6060830152608884901c810b604080840191909152606885901c820b602080850191909152604886901c830b8452602886901c830b91850191909152600885901c90910b908301528260ff81166005811115613c9657613c96614a30565b83906005811115613ca957613ca9614a30565b90816005811115613cbc57613cbc614a30565b905250506060820152919050565b613cd261465d565b6000613cdd8361447d565b90506040518060a0016040528082600081518110613cfd57613cfd614efb565b602002602001015163ffffffff16815260200182600181518110613d2357613d23614efb565b602002602001015163ffffffff16815260200182600281518110613d4957613d49614efb565b602002602001015163ffffffff16815260200182600381518110613d6f57613d6f614efb565b602002602001015163ffffffff16815260200182600481518110613d9557613d95614efb565b602002602001015163ffffffff16815250915050919050565b60006106b3825490565b6000826000018281548110613dcf57613dcf614efb565b9060005260206000200154905092915050565b6000613dec610fe6565b54600160401b900460ff16919050565b60006106b382600001516006811115613e1757613e17614a30565b6020840151604085015160ff9290921660089190911b61ff00161760109190911b63ffff0000161790565b6060600080613e5084612208565b91509150613e5e82826144f2565b949350505050565b60008181526001830160205260408120548015613f4f576000613e8a600183614e48565b8554909150600090613e9e90600190614e48565b9050808214613f03576000866000018281548110613ebe57613ebe614efb565b9060005260206000200154905080876000018481548110613ee157613ee1614efb565b6000918252602080832090910192909255918252600188019052604090208390555b8554869080613f1457613f14615b9f565b6001900381819060005260206000200160009055905585600101600086815260200190815260200160002060009055600193505050506106b3565b60009150506106b3565b5092915050565b6040516331a9108f60e11b8152600481018390526001600160a01b038083169190851690636352211e90602401602060405180830381865afa158015613faa573d6000803e3d6000fd5b505050506040513d601f19601f82011682018060405250810190613fce9190614e87565b6001600160a01b0316146140085760405163c8e98f8960e01b81526001600160a01b038085166004830152821660248201526044016108d5565b505050565b600080600b8501816140286001600160a01b038716866121b8565b815260200190815260200160002054141590509392505050565b604051630fba6a5960e11b81526000906001600160a01b03861690631f74d4b2906140739087908790600401614d1f565b608060405180830381865afa158015614090573d6000803e3d6000fd5b505050506040513d601f19601f820116820180604052508101906140b49190615bb5565b9050806000015160030b826000015160030b13806140df5750806020015160030b826020015160030b135b806140f75750806040015160030b826040015160030b135b8061410f5750806060015160030b826060015160030b135b15612ed657604051637e2b537360e11b815260040160405180910390fd5b6141356145e3565b61413d6145e3565b60ff8084168252600884901c81166020830152601084901c16600c81111561416757614167614a30565b8160400190600c81111561417d5761417d614a30565b9081600c81111561419057614190614a30565b905250601883901c61ffff16606082810191909152602884901c60ff908116608080850191909152603086901c821660c080860191909152603887901c90921660e0850152604086811c63ffffffff1660a0808701919091526101008601805189871c600390810b9091528151948a901c810b6020959095019490945280519189901c840b9190920152519590911c900b9301929092525090565b6000818152600183016020526040812054614272575081546001818101845560008481526020808220909301849055845484825282860190935260409020919091556106b3565b5060006106b3565b805151602082015151606091908114158061429a57508260400151518114155b806142aa57508260600151518114155b156142c85760405163586cb9e160e01b815260040160405180910390fd5b806001600160401b038111156142e0576142e0614f58565b604051908082528060200260200182016040528015614309578160200160208202803683370190505b50915060005b818110156143f4576143cf8460000151828151811061433057614330614efb565b60200260200101518560200151838151811061434e5761434e614efb565b60200260200101518660400151848151811061436c5761436c614efb565b60200260200101518760600151858151811061438a5761438a614efb565b602090810291909101015160ff9390931660089290921b64ffffffff00169190911760289190911b63ffffffff60281b161760489190911b63ffffffff60481b161790565b8382815181106143e1576143e1614efb565b602090810291909101015260010161430f565b5050919050565b8051600090600881111561442c57604051633d71388b60e21b815260048101829052600860248201526044016108d5565b6000805b82811015614475576144438160206159d6565b85828151811061445557614455614efb565b602090810291909101015163ffffffff16901b9190911790600101614430565b509392505050565b604080516008808252610120820190925260609160009190602082016101008036833701905050905060005b6008811015613f59576144bd8160206159d6565b8460001c901c8282815181106144d5576144d5614efb565b63ffffffff909216602092830291909101909101526001016144a9565b60408051602b8082526105808201909252606091602082016105608036833701905050905060005b8351811015613f5957600084828151811061453757614537614efb565b602002602001015190508060030b60001461459057808385848151811061456057614560614efb565b602002602001015160ff168151811061457b5761457b614efb565b602002602001019060030b908160030b815250505b5060010161451a565b6040518060800160405280606081526020016060815260200160608152602001606081525090565b6040805160608101909152806000815260006020820181905260409091015290565b60408051610120810182526000808252602082018190529091820190815260006020820181905260408201819052606082018190526080820181905260a082015260c00161462f6146f4565b905290565b60408051608081019091528060008152600060208201819052604082015260600161462f6146f4565b6040805160a08101825260008082526020820181905291810182905260608101829052608081019190915290565b5080546000825590600052602060002090810190610859919061471b565b8280548282559060005260206000209081019282156146e4579160200282015b828111156146e45782518255916020019190600101906146c9565b506146f092915061471b565b5090565b60408051608081018252600080825260208201819052918101829052606081019190915290565b5b808211156146f0576000815560010161471c565b6001600160a01b038116811461085957600080fd5b803561475081614730565b919050565b6000806040838503121561476857600080fd5b823561477381614730565b946020939093013593505050565b60008151808452602080850194506020840160005b838110156147b557815160ff1687529582019590820190600101614796565b509495945050505050565b604080825283519082018190526000906020906060840190828701845b828110156147fc57815160030b845292840192908401906001016147dd565b50505083810360208501526148118186614781565b9695505050505050565b60ff8116811461085957600080fd5b80356147508161481b565b60008060006060848603121561484a57600080fd5b833561485581614730565b925060208401359150604084013561486c8161481b565b809150509250925092565b60006020828403121561488957600080fd5b81356107e781614730565b60008151808452602080850194506020840160005b838110156147b557815160030b875295820195908201906001016148a9565b6000602080835283516080828501526148e460a0850182614781565b905081850151601f19808684030160408701526149018383614894565b9250604087015191508086840301606087015261491e8383614894565b6060880151878203909201608088015281518082529185019350600092508401905b8083101561496657835163ffffffff168252928401926001929092019190840190614940565b509695505050505050565b60006020828403121561498357600080fd5b5035919050565b6001600160a01b0391909116815260200190565b801515811461085957600080fd5b600080600080600080600060e0888a0312156149c757600080fd5b87356149d281614730565b96506020880135955060408801356149e981614730565b9450606088013593506080880135614a008161481b565b925060a0880135614a1081614730565b915060c0880135614a208161499e565b8091505092959891949750929550565b634e487b7160e01b600052602160045260246000fd5b8151606082019060078110614a5d57614a5d614a30565b8083525060ff602084015116602083015261ffff604084015116604083015292915050565b60008083601f840112614a9457600080fd5b5081356001600160401b03811115614aab57600080fd5b6020830191508360208260051b85010111156105f457600080fd5b60008060008060008060008060a0898b031215614ae257600080fd5b8835614aed81614730565b97506020890135965060408901356001600160401b0380821115614b1057600080fd5b614b1c8c838d01614a82565b909850965060608b0135915080821115614b3557600080fd5b614b418c838d01614a82565b909650945060808b0135915080821115614b5a57600080fd5b50614b678b828c01614a82565b999c989b5096995094979396929594505050565b600d8110614b8b57614b8b614a30565b9052565b805160030b8252602081015160030b6020830152604081015160030b6040830152606081015160030b60608301525050565b60006101808201905060ff835116825260ff60208401511660208301526040830151614bf06040840182614b7b565b506060830151614c06606084018261ffff169052565b506080830151614c1b608084018260ff169052565b5060a0830151614c3360a084018263ffffffff169052565b5060c0830151614c4860c084018260ff169052565b5060e0830151614c5d60e084018260ff169052565b5061010080840151614c7182850182614b8f565b505092915050565b60006020808352835180602085015260005b81811015614ca757858101830151858201604001528201614c8b565b506000604082860101526040601f19601f8301168501019250505092915050565b60008060408385031215614cdb57600080fd5b8235614ce681614730565b915060208301356001600160401b03811115614d0157600080fd5b83016103c08186031215614d1457600080fd5b809150509250929050565b6001600160a01b03929092168252602082015260400190565b60008060008060808587031215614d4e57600080fd5b8435614d5981614730565b9350602085013592506040850135614d7081614730565b9396929550929360600135925050565b600080600060608486031215614d9557600080fd5b8335614da081614730565b95602085013595506040909401359392505050565b60068110614b8b57614b8b614a30565b600060e082019050614dd8828451614db5565b602083015160030b6020830152604083015160030b60408301526060830151613f596060840182614b8f565b60008060408385031215614e1757600080fd5b8235614e2281614730565b91506020830135614d1481614730565b634e487b7160e01b600052601160045260246000fd5b818103818111156106b3576106b3614e32565b808201808211156106b3576106b3614e32565b600060208284031215614e8057600080fd5b5051919050565b600060208284031215614e9957600080fd5b81516107e781614730565b60008060408385031215614eb757600080fd5b8251614ec281614730565b6020939093015192949293505050565b600060208284031215614ee457600080fd5b81516001600160401b03811681146107e757600080fd5b634e487b7160e01b600052603260045260246000fd5b600060208284031215614f2357600080fd5b81356107e78161481b565b8035600d811061475057600080fd5b600060208284031215614f4f57600080fd5b6107e782614f2e565b634e487b7160e01b600052604160045260246000fd5b604051608081016001600160401b0381118282101715614f9057614f90614f58565b60405290565b60405161012081016001600160401b0381118282101715614f9057614f90614f58565b60405160a081016001600160401b0381118282101715614f9057614f90614f58565b604051601f8201601f191681016001600160401b038111828210171561500357615003614f58565b604052919050565b803561ffff8116811461475057600080fd5b63ffffffff8116811461085957600080fd5b80356147508161501d565b8060030b811461085957600080fd5b60006080828403121561505b57600080fd5b615063614f6e565b905081356150708161503a565b815260208201356150808161503a565b602082015260408201356150938161503a565b604082015260608201356150a68161503a565b606082015292915050565b600061018082840312156150c457600080fd5b6150cc614f96565b6150d58361482a565b81526150e36020840161482a565b60208201526150f460408401614f2e565b60408201526151056060840161500b565b60608201526151166080840161482a565b608082015261512760a0840161502f565b60a082015261513860c0840161482a565b60c082015261514960e0840161482a565b60e082015261010061515d85828601615049565b908201529392505050565b60008235607e1983360301811261517e57600080fd5b9190910192915050565b60006001600160401b038211156151a1576151a1614f58565b5060051b60200190565b600082601f8301126151bc57600080fd5b813560206151d16151cc83615188565b614fdb565b8083825260208201915060208460051b8701019350868411156151f357600080fd5b602086015b8481101561496657803561520b8161481b565b83529183019183016151f8565b600082601f83011261522957600080fd5b813560206152396151cc83615188565b8083825260208201915060208460051b87010193508684111561525b57600080fd5b602086015b848110156149665780356152738161503a565b8352918301918301615260565b600082601f83011261529157600080fd5b813560206152a16151cc83615188565b8083825260208201915060208460051b8701019350868411156152c357600080fd5b602086015b848110156149665780356152db8161501d565b83529183019183016152c8565b6000608082360312156152fa57600080fd5b615302614f6e565b82356001600160401b038082111561531957600080fd5b615325368387016151ab565b8352602085013591508082111561533b57600080fd5b61534736838701615218565b6020840152604085013591508082111561536057600080fd5b61536c36838701615218565b6040840152606085013591508082111561538557600080fd5b5061539236828601615280565b60608301525092915050565b60008235603e1983360301811261517e57600080fd5b6000808335601e198436030181126153cb57600080fd5b8301803591506001600160401b038211156153e557600080fd5b6020019150600581901b36038213156105f457600080fd5b600060a0828403121561540f57600080fd5b615417614fb9565b82356154228161501d565b815260208301356154328161501d565b602082015260408301356154458161501d565b604082015260608301356154588161501d565b6060820152608083013561546b8161501d565b60808201529392505050565b80356006811061475057600080fd5b600060e0828403121561549857600080fd5b6154a0614f6e565b6154a983615477565b815260208301356154b98161503a565b602082015260408301356154cc8161503a565b60408201526154de8460608501615049565b60608201529392505050565b80356154f58161503a565b60030b825260208101356155088161503a565b60030b6020830152604081013561551e8161503a565b60030b604083015260608101356155348161503a565b8060030b6060840152505050565b803561554d8161481b565b60ff16825260208101356155608161481b565b60ff16602083015261557460408201614f2e565b6155816040840182614b7b565b5061558e6060820161500b565b61ffff1660608301526155a36080820161482a565b60ff1660808301526155b760a0820161502f565b63ffffffff1660a08301526155ce60c0820161482a565b60ff1660c08301526155e260e0820161482a565b60ff1660e08301526101006140088184018383016154ea565b60008235607e1983360301811261561157600080fd5b90910192915050565b6000808335601e1984360301811261563157600080fd5b83016020810192503590506001600160401b0381111561565057600080fd5b8060051b36038213156105f457600080fd5b8183526000602080850194508260005b858110156147b55781356156858161481b565b60ff1687529582019590820190600101615672565b8183526000602080850194508260005b858110156147b55781356156bd8161503a565b60030b875295820195908201906001016156aa565b60006156de828361561a565b608085526156f0608086018284615662565b9150506020615702602085018561561a565b868403602088015261571584828461569a565b93505050615726604085018561561a565b868403604088015261573984828461569a565b9350505061574a606085018561561a565b86840360608801528084529092600091906020015b8183101561578c5784356157728161501d565b63ffffffff1681529383019360019290920191830161575f565b979650505050505050565b60008235603e1983360301811261561157600080fd5b60006157b9828361561a565b604085526157cb604086018284615662565b9150506157db602084018461561a565b858303602087015261481183828461569a565b80356157f98161501d565b63ffffffff90811683526020820135906158128261501d565b90811660208401526040820135906158298261501d565b90811660408401526060820135906158408261501d565b90811660608401526080820135906158578261501d565b808216608085015250505050565b6158778261587283615477565b614db5565b60208101356158858161503a565b60030b6020830152604081013561589b8161503a565b60030b6040830152610af460608084019083016154ea565b6001600160a01b03831681526040602082018190526158d490820183615542565b60006158e36101808401614745565b6101c06158fa818501836001600160a01b03169052565b6101e091506101a085013582850152615915818601866155fb565b90506102006103c08186015261592f6104008601836156d2565b915061593d83870187615797565b9250603f19808684030161022087015261595783856157ad565b935061596961024087018389016157ee565b6159776102a08801886155fb565b92506102e0915080868503018287015261599184846156d2565b93506159a16102c08801886155fb565b92508086850301610300870152506159b983836156d2565b92506159cb6103208601828801615865565b509095945050505050565b80820281158282048414176106b3576106b3614e32565b6000600182016159ff576159ff614e32565b5060010190565b6001600160a01b0397881681526001600160401b03969096166020870152604086019490945260ff929092166060850152909316608083015260a082019290925290151560c082015260e00190565b6020815260018060a01b038251166020820152602082015160408201526000604083015160a06060840152615a8d60c0840182614894565b90506060840151151560808401526080840151151560a08401528091505092915050565b6001600160a01b039384168152919092166020820152604081019190915260600190565b600060208284031215615ae757600080fd5b81516107e78161499e565b600060208284031215615b0457600080fd5b81516107e78161481b565b600060a08284031215615b2157600080fd5b615b29614fb9565b8251615b348161501d565b81526020830151615b448161501d565b60208201526040830151615b578161501d565b60408201526060830151615b6a8161501d565b6060820152608083015161546b8161501d565b600082615b9a57634e487b7160e01b600052601260045260246000fd5b500490565b634e487b7160e01b600052603160045260246000fd5b600060808284031215615bc757600080fd5b615bcf614f6e565b8251615bda8161503a565b81526020830151615bea8161503a565b60208201526040830151615bfd8161503a565b604082015260608301516154de8161503a56fe22573091f17911fb166032a3d9e0554aa73d31b7b7ddea4a4dd2995650af84bda264697066735822122059ad3be19ac5d76c44943ec960417c9f6a7bae4acb05ff1509dcb1680636dec564736f6c63430008170033",
  "libraries": {
    "ItemLib": "0xc21C7836466cEE25a7dBe31EaE735d1C9B117F80",
    "ItemStatsLib": "0xa28536629916fb8fa55c297a5DfB4F2bBA13Bf24"
  },
  "devdoc": {
    "errors": {
      "InvalidInitialization()": [
        {
          "details": "The contract is already initialized."
        }
      ],
      "NotInitializing()": [
        {
          "details": "The contract is not initializing."
        }
      ]
    },
    "events": {
      "Initialized(uint64)": {
        "details": "Triggered when the contract has been initialized or reinitialized."
      }
    },
    "kind": "dev",
    "methods": {
      "created()": {
        "returns": {
          "_0": "Creation timestamp"
        }
      },
      "createdBlock()": {
        "returns": {
          "_0": "Creation block number"
        }
      },
      "destroy(address,uint256)": {
        "details": "Some stories can destroy items"
      },
      "increaseRevision(address)": {
        "details": "Revision should be increased on each contract upgrade"
      },
      "isController(address)": {
        "details": "Return true if given address is controller"
      },
      "previousImplementation()": {
        "details": "Previous logic implementation"
      },
      "registerItem(address,((uint8,uint8,uint8,uint16,uint8,uint32,uint8,uint8,(int32,int32,int32,int32)),address,uint256,(uint8[],int32[],int32[],uint32[]),(uint8[],int32[]),(uint32,uint32,uint32,uint32,uint32),(uint8[],int32[],int32[],uint32[]),(uint8[],int32[],int32[],uint32[]),(uint8,int32,int32,(int32,int32,int32,int32))))": {
        "details": "It's possible to reduce size of the contract on 1kb by replacing calldata=>memory (+2k gas)"
      },
      "repairDurability(address,uint256,uint256)": {
        "details": "Repair durability."
      },
      "revision()": {
        "details": "Contract upgrade counter"
      },
      "takeOffDirectly(address,uint256,address,uint256,uint8,address,bool)": {
        "details": "Some stories can manipulate items"
      }
    },
    "version": 1
  },
  "userdoc": {
    "kind": "user",
    "methods": {
      "CONTROLLABLE_VERSION()": {
        "notice": "Version of the contract"
      },
      "VERSION()": {
        "notice": "Version of the contract"
      },
      "controller()": {
        "notice": "Return controller address saved in the contract slot"
      },
      "created()": {
        "notice": "Return creation timestamp"
      },
      "createdBlock()": {
        "notice": "Return creation block number"
      },
      "isGovernance(address)": {
        "notice": "Return true if given address is setup as governance in Controller"
      }
    },
    "version": 1
  },
  "storageLayout": {
    "storage": [],
    "types": null
  }
}