{
  "address": "0x13Be90b91a784b18c295Bc0Ff8D65830c4F74E1c",
  "abi": [
    {
      "inputs": [],
      "name": "InvalidInitialization",
      "type": "error"
    },
    {
      "inputs": [],
      "name": "NotInitializing",
      "type": "error"
    },
    {
      "inputs": [],
      "name": "OracleWrongInput",
      "type": "error"
    },
    {
      "anonymous": false,
      "inputs": [
        {
          "indexed": false,
          "internalType": "address",
          "name": "controller",
          "type": "address"
        },
        {
          "indexed": false,
          "internalType": "uint256",
          "name": "ts",
          "type": "uint256"
        },
        {
          "indexed": false,
          "internalType": "uint256",
          "name": "block",
          "type": "uint256"
        }
      ],
      "name": "ContractInitialized",
      "type": "event"
    },
    {
      "anonymous": false,
      "inputs": [
        {
          "indexed": false,
          "internalType": "uint64",
          "name": "version",
          "type": "uint64"
        }
      ],
      "name": "Initialized",
      "type": "event"
    },
    {
      "anonymous": false,
      "inputs": [
        {
          "indexed": false,
          "internalType": "uint256",
          "name": "number",
          "type": "uint256"
        },
        {
          "indexed": false,
          "internalType": "uint256",
          "name": "max",
          "type": "uint256"
        }
      ],
      "name": "Random",
      "type": "event"
    },
    {
      "anonymous": false,
      "inputs": [
        {
          "indexed": false,
          "internalType": "uint256",
          "name": "value",
          "type": "uint256"
        },
        {
          "indexed": false,
          "internalType": "address",
          "name": "oldLogic",
          "type": "address"
        }
      ],
      "name": "RevisionIncreased",
      "type": "event"
    },
    {
      "inputs": [],
      "name": "CONTROLLABLE_VERSION",
      "outputs": [
        {
          "internalType": "string",
          "name": "",
          "type": "string"
        }
      ],
      "stateMutability": "view",
      "type": "function"
    },
    {
      "inputs": [],
      "name": "VERSION",
      "outputs": [
        {
          "internalType": "string",
          "name": "",
          "type": "string"
        }
      ],
      "stateMutability": "view",
      "type": "function"
    },
    {
      "inputs": [],
      "name": "controller",
      "outputs": [
        {
          "internalType": "address",
          "name": "",
          "type": "address"
        }
      ],
      "stateMutability": "view",
      "type": "function"
    },
    {
      "inputs": [],
      "name": "created",
      "outputs": [
        {
          "internalType": "uint256",
          "name": "",
          "type": "uint256"
        }
      ],
      "stateMutability": "view",
      "type": "function"
    },
    {
      "inputs": [],
      "name": "createdBlock",
      "outputs": [
        {
          "internalType": "uint256",
          "name": "",
          "type": "uint256"
        }
      ],
      "stateMutability": "view",
      "type": "function"
    },
    {
      "inputs": [
        {
          "internalType": "uint256",
          "name": "max",
          "type": "uint256"
        },
        {
          "internalType": "uint256",
          "name": "seed",
          "type": "uint256"
        }
      ],
      "name": "getRandomNumber",
      "outputs": [
        {
          "internalType": "uint256",
          "name": "",
          "type": "uint256"
        }
      ],
      "stateMutability": "nonpayable",
      "type": "function"
    },
    {
      "inputs": [
        {
          "internalType": "uint256",
          "name": "min",
          "type": "uint256"
        },
        {
          "internalType": "uint256",
          "name": "max",
          "type": "uint256"
        },
        {
          "internalType": "uint256",
          "name": "seed",
          "type": "uint256"
        }
      ],
      "name": "getRandomNumberInRange",
      "outputs": [
        {
          "internalType": "uint256",
          "name": "",
          "type": "uint256"
        }
      ],
      "stateMutability": "nonpayable",
      "type": "function"
    },
    {
      "inputs": [
        {
          "internalType": "address",
          "name": "oldLogic",
          "type": "address"
        }
      ],
      "name": "increaseRevision",
      "outputs": [],
      "stateMutability": "nonpayable",
      "type": "function"
    },
    {
      "inputs": [
        {
          "internalType": "address",
          "name": "controller_",
          "type": "address"
        }
      ],
      "name": "init",
      "outputs": [],
      "stateMutability": "nonpayable",
      "type": "function"
    },
    {
      "inputs": [
        {
          "internalType": "address",
          "name": "value_",
          "type": "address"
        }
      ],
      "name": "isController",
      "outputs": [
        {
          "internalType": "bool",
          "name": "",
          "type": "bool"
        }
      ],
      "stateMutability": "view",
      "type": "function"
    },
    {
      "inputs": [
        {
          "internalType": "address",
          "name": "value_",
          "type": "address"
        }
      ],
      "name": "isGovernance",
      "outputs": [
        {
          "internalType": "bool",
          "name": "",
          "type": "bool"
        }
      ],
      "stateMutability": "view",
      "type": "function"
    },
    {
      "inputs": [],
      "name": "previousImplementation",
      "outputs": [
        {
          "internalType": "address",
          "name": "",
          "type": "address"
        }
      ],
      "stateMutability": "view",
      "type": "function"
    },
    {
      "inputs": [],
      "name": "revision",
      "outputs": [
        {
          "internalType": "uint256",
          "name": "",
          "type": "uint256"
        }
      ],
      "stateMutability": "view",
      "type": "function"
    }
  ],
  "transactionHash": "0x336a74505e037dbbbef432fafc2fba71b060bddb07f1ae788a52eda2020e8e1d",
  "args": [],
  "numDeployments": 22,
  "solcInputHash": "26aa46af27336d196c04997c06413167",
  "bytecode": "0x608060405234801561001057600080fd5b507ff0c57e16840df040f15088dc2f81fe391c3923bec73e23a9662efc9c229c6a00805468010000000000000000810460ff1615906001600160401b031660008115801561005b5750825b90506000826001600160401b031660011480156100775750303b155b905081158015610085575080155b156100a35760405163f92ee8a960e01b815260040160405180910390fd5b84546001600160401b031916600117855583156100d157845460ff60401b1916680100000000000000001785555b831561011757845460ff60401b19168555604051600181527fc7f505b2f371ae2175ee4913f4499e1f2633a7b5936321eed1cdaeb6115181d29060200160405180910390a15b5050505050610a138061012b6000396000f3fe608060405234801561001057600080fd5b50600436106100af5760003560e01c80630632256c146100b457806319ab453c146100da578063325a19f1146100ef5780634593144c146100f75780634fac6ccd146100ff5780636e68fc0a146101125780637cc9638014610125578063936725ec1461012d5780639d0bcca01461015e578063b429afeb1461017e578063dee1f0e4146101a1578063f77c4791146101b4578063ffa1ad74146101bc575b600080fd5b6100c76100c2366004610873565b6101e0565b6040519081526020015b60405180910390f35b6100ed6100e83660046108b4565b61021c565b005b6100c7610318565b6100c7610351565b6100ed61010d3660046108b4565b610381565b6100c76101203660046108d1565b610492565b6100c76104a7565b610151604051806040016040528060058152602001640312e302e360dc1b81525081565b6040516100d191906108f3565b6101666104c5565b6040516001600160a01b0390911681526020016100d1565b61019161018c3660046108b4565b6104f5565b60405190151581526020016100d1565b6101916101af3660046108b4565b61051a565b61016661059f565b61015160405180604001604052806005815260200164312e302e3160d81b81525081565b60008284106101f0575081610215565b60006102056101ff8686610958565b846105cf565b9050610211818661096b565b9150505b9392505050565b60006102266106db565b805490915060ff600160401b820416159067ffffffffffffffff1660008115801561024e5750825b905060008267ffffffffffffffff16600114801561026b5750303b155b905081158015610279575080155b156102975760405163f92ee8a960e01b815260040160405180910390fd5b845467ffffffffffffffff1916600117855583156102c157845460ff60401b1916600160401b1785555b6102ca866106ff565b831561031057845460ff60401b19168555604051600181527fc7f505b2f371ae2175ee4913f4499e1f2633a7b5936321eed1cdaeb6115181d29060200160405180910390a15b505050505050565b600061034c61034860017f6f55f470bdc9cb5f04223fd822021061668e4dccb43e8727b295106dc9769c8b610958565b5490565b905090565b600061034c61034860017f812a673dfca07956350df10f8a654925f561d7a0da09bdbe79e653939a14d9f1610958565b3330146103d35760405162461bcd60e51b815260206004820152601b60248201527a24b731b932b0b9b2903932bb34b9b4b7b7103337b93134b23232b760291b60448201526064015b60405180910390fd5b60006103f161034860016000805160206109be833981519152610958565b6103fc90600161096b565b905061041e8161041b60016000805160206109be833981519152610958565b55565b61044d8261041b60017fbfaaa2fb63266ff27c2da975f5894955056f50419af651a81f6c5060581857e4610958565b604080518281526001600160a01b03841660208201527ff27e2ef832a4eb8ed8ec553b875eecd44764cda95b1c24170e281539e0a869c8910160405180910390a15050565b600061049e83836105cf565b90505b92915050565b600061034c61034860016000805160206109be833981519152610958565b600061034c61034860017fbfaaa2fb63266ff27c2da975f5894955056f50419af651a81f6c5060581857e4610958565b60006104ff61059f565b6001600160a01b0316826001600160a01b0316149050919050565b6000816001600160a01b031661052e61059f565b6001600160a01b0316635aa6e6756040518163ffffffff1660e01b8152600401602060405180830381865afa15801561056b573d6000803e3d6000fd5b505050506040513d601f19601f8201168201806040525081019061058f919061097e565b6001600160a01b03161492915050565b600061034c61034860017f5165972ef41194f06c5007493031d0b927c20741adcb74403b954009fd2c3618610958565b6000826000036105f257604051630596f97f60e21b815260040160405180910390fd5b600080434041444342333a5a6040805160208101999099526001600160601b0319606098891b8116918a019190915260548901969096526074880194909452609487019290925290931b90911660b484015260c883019190915260e88201526101088101839052610128810185905261014801604051602081830303815290604052805190602001209050600085600161068c919061096b565b610696908361099b565b60408051828152602081018990529192507f6b9d73f4b9bc1e28dca810eb156dbc48c55fa66b93342bf3929633247d2aee5c910160405180910390a195945050505050565b7ff0c57e16840df040f15088dc2f81fe391c3923bec73e23a9662efc9c229c6a0090565b610707610713565b6107108161073a565b50565b61071b610859565b61073857604051631afcd79f60e31b815260040160405180910390fd5b565b6001600160a01b0381166107825760405162461bcd60e51b815260206004820152600f60248201526e2d32b9379031b7b73a3937b63632b960891b60448201526064016103ca565b6107b18161041b60017f5165972ef41194f06c5007493031d0b927c20741adcb74403b954009fd2c3618610958565b6107e04261041b60017f6f55f470bdc9cb5f04223fd822021061668e4dccb43e8727b295106dc9769c8b610958565b61080f4361041b60017f812a673dfca07956350df10f8a654925f561d7a0da09bdbe79e653939a14d9f1610958565b604080516001600160a01b0383168152426020820152438183015290517f1a2dd071001ebf6e03174e3df5b305795a4ad5d41d8fdb9ba41dbbe2367134269181900360600190a150565b60006108636106db565b54600160401b900460ff16919050565b60008060006060848603121561088857600080fd5b505081359360208301359350604090920135919050565b6001600160a01b038116811461071057600080fd5b6000602082840312156108c657600080fd5b81356102158161089f565b600080604083850312156108e457600080fd5b50508035926020909101359150565b60006020808352835180602085015260005b8181101561092157858101830151858201604001528201610905565b506000604082860101526040601f19601f8301168501019250505092915050565b634e487b7160e01b600052601160045260246000fd5b818103818111156104a1576104a1610942565b808201808211156104a1576104a1610942565b60006020828403121561099057600080fd5b81516102158161089f565b6000826109b857634e487b7160e01b600052601260045260246000fd5b50069056fe22573091f17911fb166032a3d9e0554aa73d31b7b7ddea4a4dd2995650af84bda2646970667358221220446201378439c913112937a06741ad8061476d10f59b2ce5f2629feff0e1c16e64736f6c63430008170033",
  "devdoc": {
    "errors": {
      "InvalidInitialization()": [
        {
          "details": "The contract is already initialized."
        }
      ],
      "NotInitializing()": [
        {
          "details": "The contract is not initializing."
        }
      ]
    },
    "events": {
      "Initialized(uint64)": {
        "details": "Triggered when the contract has been initialized or reinitialized."
      }
    },
    "kind": "dev",
    "methods": {
      "created()": {
        "returns": {
          "_0": "Creation timestamp"
        }
      },
      "createdBlock()": {
        "returns": {
          "_0": "Creation block number"
        }
      },
      "increaseRevision(address)": {
        "details": "Revision should be increased on each contract upgrade"
      },
      "isController(address)": {
        "details": "Return true if given address is controller"
      },
      "previousImplementation()": {
        "details": "Previous logic implementation"
      },
      "revision()": {
        "details": "Contract upgrade counter"
      }
    },
    "stateVariables": {
      "VERSION": {
        "details": "Should be incremented when contract changed"
      }
    },
    "version": 1
  },
  "userdoc": {
    "kind": "user",
    "methods": {
      "CONTROLLABLE_VERSION()": {
        "notice": "Version of the contract"
      },
      "VERSION()": {
        "notice": "Version of the contract"
      },
      "controller()": {
        "notice": "Return controller address saved in the contract slot"
      },
      "created()": {
        "notice": "Return creation timestamp"
      },
      "createdBlock()": {
        "notice": "Return creation block number"
      },
      "isGovernance(address)": {
        "notice": "Return true if given address is setup as governance in Controller"
      }
    },
    "version": 1
  },
  "storageLayout": {
    "storage": [],
    "types": null
  }
}