{
  "address": "0xeb45d0F972A5970493a531F6957117F316215D45",
  "abi": [
    {
      "inputs": [],
      "name": "AlreadyStaked",
      "type": "error"
    },
    {
      "inputs": [
        {
          "internalType": "address",
          "name": "heroToken",
          "type": "address"
        },
        {
          "internalType": "uint256",
          "name": "heroTokenId",
          "type": "uint256"
        }
      ],
      "name": "ErrorHeroIsDead",
      "type": "error"
    },
    {
      "inputs": [
        {
          "internalType": "address",
          "name": "heroToken",
          "type": "address"
        }
      ],
      "name": "ErrorHeroIsNotRegistered",
      "type": "error"
    },
    {
      "inputs": [
        {
          "internalType": "address",
          "name": "sender",
          "type": "address"
        }
      ],
      "name": "ErrorNotDungeonFactory",
      "type": "error"
    },
    {
      "inputs": [
        {
          "internalType": "address",
          "name": "heroToken",
          "type": "address"
        },
        {
          "internalType": "address",
          "name": "msgSender",
          "type": "address"
        }
      ],
      "name": "ErrorNotHeroOwner",
      "type": "error"
    },
    {
      "inputs": [],
      "name": "ErrorOnlyEoa",
      "type": "error"
    },
    {
      "inputs": [],
      "name": "ErrorPaused",
      "type": "error"
    },
    {
      "inputs": [],
      "name": "ErrorReinforcementRequiresThreeSkills",
      "type": "error"
    },
    {
      "inputs": [],
      "name": "HeroInDungeon",
      "type": "error"
    },
    {
      "inputs": [],
      "name": "InvalidInitialization",
      "type": "error"
    },
    {
      "inputs": [
        {
          "internalType": "uint8",
          "name": "fee",
          "type": "uint8"
        }
      ],
      "name": "MaxFee",
      "type": "error"
    },
    {
      "inputs": [
        {
          "internalType": "uint8",
          "name": "fee",
          "type": "uint8"
        }
      ],
      "name": "MinFee",
      "type": "error"
    },
    {
      "inputs": [],
      "name": "NoStakedHeroes",
      "type": "error"
    },
    {
      "inputs": [
        {
          "internalType": "address",
          "name": "sender",
          "type": "address"
        }
      ],
      "name": "NotGovernance",
      "type": "error"
    },
    {
      "inputs": [],
      "name": "NotInitializing",
      "type": "error"
    },
    {
      "inputs": [],
      "name": "NotStaked",
      "type": "error"
    },
    {
      "inputs": [],
      "name": "StakeHeroNotStats",
      "type": "error"
    },
    {
      "inputs": [
        {
          "internalType": "uint256",
          "name": "value",
          "type": "uint256"
        }
      ],
      "name": "TooHighValue",
      "type": "error"
    },
    {
      "anonymous": false,
      "inputs": [
        {
          "indexed": false,
          "internalType": "address",
          "name": "heroToken",
          "type": "address"
        },
        {
          "indexed": false,
          "internalType": "uint256",
          "name": "heroId",
          "type": "uint256"
        },
        {
          "indexed": false,
          "internalType": "address",
          "name": "item",
          "type": "address"
        },
        {
          "indexed": false,
          "internalType": "uint256",
          "name": "itemId",
          "type": "uint256"
        },
        {
          "indexed": false,
          "internalType": "address",
          "name": "recipient",
          "type": "address"
        }
      ],
      "name": "ClaimedItem",
      "type": "event"
    },
    {
      "anonymous": false,
      "inputs": [
        {
          "indexed": false,
          "internalType": "address",
          "name": "heroToken",
          "type": "address"
        },
        {
          "indexed": false,
          "internalType": "uint256",
          "name": "heroId",
          "type": "uint256"
        },
        {
          "indexed": false,
          "internalType": "address",
          "name": "token",
          "type": "address"
        },
        {
          "indexed": false,
          "internalType": "uint256",
          "name": "amount",
          "type": "uint256"
        },
        {
          "indexed": false,
          "internalType": "address",
          "name": "recipient",
          "type": "address"
        }
      ],
      "name": "ClaimedToken",
      "type": "event"
    },
    {
      "anonymous": false,
      "inputs": [
        {
          "indexed": false,
          "internalType": "address",
          "name": "controller",
          "type": "address"
        },
        {
          "indexed": false,
          "internalType": "uint256",
          "name": "ts",
          "type": "uint256"
        },
        {
          "indexed": false,
          "internalType": "uint256",
          "name": "block",
          "type": "uint256"
        }
      ],
      "name": "ContractInitialized",
      "type": "event"
    },
    {
      "anonymous": false,
      "inputs": [
        {
          "indexed": false,
          "internalType": "address",
          "name": "heroToken",
          "type": "address"
        },
        {
          "indexed": false,
          "internalType": "uint256",
          "name": "heroId",
          "type": "uint256"
        }
      ],
      "name": "HeroAsk",
      "type": "event"
    },
    {
      "anonymous": false,
      "inputs": [
        {
          "indexed": false,
          "internalType": "address",
          "name": "heroToken",
          "type": "address"
        },
        {
          "indexed": false,
          "internalType": "uint256",
          "name": "heroId",
          "type": "uint256"
        },
        {
          "indexed": false,
          "internalType": "uint256",
          "name": "biome",
          "type": "uint256"
        },
        {
          "indexed": false,
          "internalType": "uint256",
          "name": "score",
          "type": "uint256"
        }
      ],
      "name": "HeroStaked",
      "type": "event"
    },
    {
      "anonymous": false,
      "inputs": [
        {
          "indexed": false,
          "internalType": "address",
          "name": "heroToken",
          "type": "address"
        },
        {
          "indexed": false,
          "internalType": "uint256",
          "name": "heroId",
          "type": "uint256"
        }
      ],
      "name": "HeroWithdraw",
      "type": "event"
    },
    {
      "anonymous": false,
      "inputs": [
        {
          "indexed": false,
          "internalType": "uint64",
          "name": "version",
          "type": "uint64"
        }
      ],
      "name": "Initialized",
      "type": "event"
    },
    {
      "anonymous": false,
      "inputs": [
        {
          "indexed": false,
          "internalType": "uint8",
          "name": "value",
          "type": "uint8"
        }
      ],
      "name": "MinLevelChanged",
      "type": "event"
    },
    {
      "anonymous": false,
      "inputs": [
        {
          "indexed": false,
          "internalType": "uint256",
          "name": "value",
          "type": "uint256"
        }
      ],
      "name": "MinLifeChancesChanged",
      "type": "event"
    },
    {
      "anonymous": false,
      "inputs": [
        {
          "indexed": false,
          "internalType": "address",
          "name": "heroToken",
          "type": "address"
        },
        {
          "indexed": false,
          "internalType": "uint256",
          "name": "heroId",
          "type": "uint256"
        },
        {
          "indexed": false,
          "internalType": "address",
          "name": "token",
          "type": "address"
        },
        {
          "indexed": false,
          "internalType": "uint256",
          "name": "id",
          "type": "uint256"
        }
      ],
      "name": "NftRewardRegistered",
      "type": "event"
    },
    {
      "anonymous": false,
      "inputs": [
        {
          "indexed": false,
          "internalType": "uint256",
          "name": "value",
          "type": "uint256"
        },
        {
          "indexed": false,
          "internalType": "address",
          "name": "oldLogic",
          "type": "address"
        }
      ],
      "name": "RevisionIncreased",
      "type": "event"
    },
    {
      "anonymous": false,
      "inputs": [
        {
          "indexed": false,
          "internalType": "address",
          "name": "heroToken",
          "type": "address"
        },
        {
          "indexed": false,
          "internalType": "uint256",
          "name": "heroId",
          "type": "uint256"
        },
        {
          "indexed": false,
          "internalType": "address",
          "name": "token",
          "type": "address"
        },
        {
          "indexed": false,
          "internalType": "uint256",
          "name": "amountAdded",
          "type": "uint256"
        },
        {
          "indexed": false,
          "internalType": "uint256",
          "name": "totalAmount",
          "type": "uint256"
        }
      ],
      "name": "TokenRewardRegistered",
      "type": "event"
    },
    {
      "inputs": [],
      "name": "CONTROLLABLE_VERSION",
      "outputs": [
        {
          "internalType": "string",
          "name": "",
          "type": "string"
        }
      ],
      "stateMutability": "view",
      "type": "function"
    },
    {
      "inputs": [],
      "name": "VERSION",
      "outputs": [
        {
          "internalType": "string",
          "name": "",
          "type": "string"
        }
      ],
      "stateMutability": "view",
      "type": "function"
    },
    {
      "inputs": [
        {
          "internalType": "uint256",
          "name": "biome",
          "type": "uint256"
        }
      ],
      "name": "askHero",
      "outputs": [
        {
          "internalType": "address",
          "name": "heroToken",
          "type": "address"
        },
        {
          "internalType": "uint256",
          "name": "heroId",
          "type": "uint256"
        },
        {
          "internalType": "int32[]",
          "name": "attributes",
          "type": "int32[]"
        }
      ],
      "stateMutability": "nonpayable",
      "type": "function"
    },
    {
      "inputs": [
        {
          "internalType": "address",
          "name": "heroToken",
          "type": "address"
        },
        {
          "internalType": "uint256",
          "name": "heroId",
          "type": "uint256"
        }
      ],
      "name": "claimAll",
      "outputs": [],
      "stateMutability": "nonpayable",
      "type": "function"
    },
    {
      "inputs": [
        {
          "internalType": "address",
          "name": "heroToken",
          "type": "address"
        },
        {
          "internalType": "uint256",
          "name": "heroId",
          "type": "uint256"
        },
        {
          "internalType": "uint256",
          "name": "countNft",
          "type": "uint256"
        }
      ],
      "name": "claimNft",
      "outputs": [],
      "stateMutability": "nonpayable",
      "type": "function"
    },
    {
      "inputs": [],
      "name": "controller",
      "outputs": [
        {
          "internalType": "address",
          "name": "",
          "type": "address"
        }
      ],
      "stateMutability": "view",
      "type": "function"
    },
    {
      "inputs": [],
      "name": "created",
      "outputs": [
        {
          "internalType": "uint256",
          "name": "",
          "type": "uint256"
        }
      ],
      "stateMutability": "view",
      "type": "function"
    },
    {
      "inputs": [],
      "name": "createdBlock",
      "outputs": [
        {
          "internalType": "uint256",
          "name": "",
          "type": "uint256"
        }
      ],
      "stateMutability": "view",
      "type": "function"
    },
    {
      "inputs": [
        {
          "internalType": "address",
          "name": "heroToken",
          "type": "address"
        },
        {
          "internalType": "uint256",
          "name": "heroId",
          "type": "uint256"
        }
      ],
      "name": "earned",
      "outputs": [
        {
          "internalType": "address[]",
          "name": "tokens",
          "type": "address[]"
        },
        {
          "internalType": "uint256[]",
          "name": "amounts",
          "type": "uint256[]"
        },
        {
          "internalType": "address[]",
          "name": "nfts",
          "type": "address[]"
        },
        {
          "internalType": "uint256[]",
          "name": "ids",
          "type": "uint256[]"
        }
      ],
      "stateMutability": "view",
      "type": "function"
    },
    {
      "inputs": [
        {
          "internalType": "address",
          "name": "heroToken",
          "type": "address"
        },
        {
          "internalType": "uint256",
          "name": "heroId",
          "type": "uint256"
        }
      ],
      "name": "heroInfo",
      "outputs": [
        {
          "components": [
            {
              "internalType": "uint8",
              "name": "biome",
              "type": "uint8"
            },
            {
              "internalType": "uint256",
              "name": "score",
              "type": "uint256"
            },
            {
              "internalType": "uint8",
              "name": "fee",
              "type": "uint8"
            },
            {
              "internalType": "uint64",
              "name": "stakeTs",
              "type": "uint64"
            }
          ],
          "internalType": "struct IReinforcementController.HeroInfo",
          "name": "",
          "type": "tuple"
        }
      ],
      "stateMutability": "view",
      "type": "function"
    },
    {
      "inputs": [
        {
          "internalType": "address",
          "name": "heroToken",
          "type": "address"
        },
        {
          "internalType": "uint256",
          "name": "heroId",
          "type": "uint256"
        }
      ],
      "name": "heroScoreAdjusted",
      "outputs": [
        {
          "internalType": "uint256",
          "name": "",
          "type": "uint256"
        }
      ],
      "stateMutability": "view",
      "type": "function"
    },
    {
      "inputs": [
        {
          "internalType": "address",
          "name": "oldLogic",
          "type": "address"
        }
      ],
      "name": "increaseRevision",
      "outputs": [],
      "stateMutability": "nonpayable",
      "type": "function"
    },
    {
      "inputs": [
        {
          "internalType": "address",
          "name": "controller_",
          "type": "address"
        }
      ],
      "name": "init",
      "outputs": [],
      "stateMutability": "nonpayable",
      "type": "function"
    },
    {
      "inputs": [
        {
          "internalType": "address",
          "name": "value_",
          "type": "address"
        }
      ],
      "name": "isController",
      "outputs": [
        {
          "internalType": "bool",
          "name": "",
          "type": "bool"
        }
      ],
      "stateMutability": "view",
      "type": "function"
    },
    {
      "inputs": [
        {
          "internalType": "address",
          "name": "value_",
          "type": "address"
        }
      ],
      "name": "isGovernance",
      "outputs": [
        {
          "internalType": "bool",
          "name": "",
          "type": "bool"
        }
      ],
      "stateMutability": "view",
      "type": "function"
    },
    {
      "inputs": [
        {
          "internalType": "address",
          "name": "heroToken",
          "type": "address"
        },
        {
          "internalType": "uint256",
          "name": "heroId",
          "type": "uint256"
        }
      ],
      "name": "isStaked",
      "outputs": [
        {
          "internalType": "bool",
          "name": "",
          "type": "bool"
        }
      ],
      "stateMutability": "view",
      "type": "function"
    },
    {
      "inputs": [
        {
          "internalType": "address",
          "name": "forwarder",
          "type": "address"
        }
      ],
      "name": "isTrustedForwarder",
      "outputs": [
        {
          "internalType": "bool",
          "name": "",
          "type": "bool"
        }
      ],
      "stateMutability": "view",
      "type": "function"
    },
    {
      "inputs": [
        {
          "internalType": "uint256",
          "name": "biome",
          "type": "uint256"
        }
      ],
      "name": "maxScore",
      "outputs": [
        {
          "internalType": "uint256",
          "name": "",
          "type": "uint256"
        }
      ],
      "stateMutability": "view",
      "type": "function"
    },
    {
      "inputs": [],
      "name": "minLevel",
      "outputs": [
        {
          "internalType": "uint8",
          "name": "_minLevel",
          "type": "uint8"
        }
      ],
      "stateMutability": "view",
      "type": "function"
    },
    {
      "inputs": [],
      "name": "minLifeChances",
      "outputs": [
        {
          "internalType": "uint8",
          "name": "_minLifeChances",
          "type": "uint8"
        }
      ],
      "stateMutability": "view",
      "type": "function"
    },
    {
      "inputs": [
        {
          "internalType": "address",
          "name": "",
          "type": "address"
        },
        {
          "internalType": "address",
          "name": "",
          "type": "address"
        },
        {
          "internalType": "uint256",
          "name": "",
          "type": "uint256"
        },
        {
          "internalType": "bytes",
          "name": "",
          "type": "bytes"
        }
      ],
      "name": "onERC721Received",
      "outputs": [
        {
          "internalType": "bytes4",
          "name": "",
          "type": "bytes4"
        }
      ],
      "stateMutability": "nonpayable",
      "type": "function"
    },
    {
      "inputs": [],
      "name": "previousImplementation",
      "outputs": [
        {
          "internalType": "address",
          "name": "",
          "type": "address"
        }
      ],
      "stateMutability": "view",
      "type": "function"
    },
    {
      "inputs": [
        {
          "internalType": "address",
          "name": "heroToken",
          "type": "address"
        },
        {
          "internalType": "uint256",
          "name": "heroId",
          "type": "uint256"
        },
        {
          "internalType": "address",
          "name": "token",
          "type": "address"
        },
        {
          "internalType": "uint256",
          "name": "tokenId",
          "type": "uint256"
        }
      ],
      "name": "registerNftReward",
      "outputs": [],
      "stateMutability": "nonpayable",
      "type": "function"
    },
    {
      "inputs": [
        {
          "internalType": "address",
          "name": "heroToken",
          "type": "address"
        },
        {
          "internalType": "uint256",
          "name": "heroId",
          "type": "uint256"
        },
        {
          "internalType": "address",
          "name": "token",
          "type": "address"
        },
        {
          "internalType": "uint256",
          "name": "amount",
          "type": "uint256"
        }
      ],
      "name": "registerTokenReward",
      "outputs": [],
      "stateMutability": "nonpayable",
      "type": "function"
    },
    {
      "inputs": [],
      "name": "revision",
      "outputs": [
        {
          "internalType": "uint256",
          "name": "",
          "type": "uint256"
        }
      ],
      "stateMutability": "view",
      "type": "function"
    },
    {
      "inputs": [
        {
          "internalType": "uint8",
          "name": "value",
          "type": "uint8"
        }
      ],
      "name": "setMinLevel",
      "outputs": [],
      "stateMutability": "nonpayable",
      "type": "function"
    },
    {
      "inputs": [
        {
          "internalType": "uint8",
          "name": "value",
          "type": "uint8"
        }
      ],
      "name": "setMinLifeChances",
      "outputs": [],
      "stateMutability": "nonpayable",
      "type": "function"
    },
    {
      "inputs": [
        {
          "internalType": "address",
          "name": "heroToken",
          "type": "address"
        },
        {
          "internalType": "uint256",
          "name": "heroId",
          "type": "uint256"
        },
        {
          "internalType": "uint8",
          "name": "fee",
          "type": "uint8"
        }
      ],
      "name": "stakeHero",
      "outputs": [],
      "stateMutability": "nonpayable",
      "type": "function"
    },
    {
      "inputs": [
        {
          "internalType": "address",
          "name": "heroToken",
          "type": "address"
        },
        {
          "internalType": "uint256",
          "name": "heroId",
          "type": "uint256"
        }
      ],
      "name": "toHelperRatio",
      "outputs": [
        {
          "internalType": "uint256",
          "name": "",
          "type": "uint256"
        }
      ],
      "stateMutability": "view",
      "type": "function"
    },
    {
      "inputs": [
        {
          "internalType": "address",
          "name": "heroToken",
          "type": "address"
        },
        {
          "internalType": "uint256",
          "name": "heroId",
          "type": "uint256"
        }
      ],
      "name": "withdrawHero",
      "outputs": [],
      "stateMutability": "nonpayable",
      "type": "function"
    }
  ],
  "transactionHash": "0x732a32e2d7a5453609ffaa595405d553e2b59f32c02c11dd696a0a77ab3ea911",
  "args": [],
  "numDeployments": 29,
  "solcInputHash": "26aa46af27336d196c04997c06413167",
  "bytecode": "0x60806040523480156200001157600080fd5b507ff0c57e16840df040f15088dc2f81fe391c3923bec73e23a9662efc9c229c6a00805468010000000000000000810460ff1615906001600160401b03166000811580156200005d5750825b90506000826001600160401b031660011480156200007a5750303b155b90508115801562000089575080155b15620000a85760405163f92ee8a960e01b815260040160405180910390fd5b84546001600160401b03191660011785558315620000d757845460ff60401b1916680100000000000000001785555b83156200011e57845460ff60401b19168555604051600181527fc7f505b2f371ae2175ee4913f4499e1f2633a7b5936321eed1cdaeb6115181d29060200160405180910390a15b5050505050613d5b80620001336000396000f3fe608060405234801561001057600080fd5b506004361061017a5760003560e01c80637cc96380116100d45780637cc963801461033c578063807e831b14610344578063902535da14610357578063936725ec1461036a57806396fe42881461039b5780639d0bcca0146103a3578063ae1d4268146103b8578063b429afeb146103cb578063c78f839d146103de578063cac066a6146103f1578063ce1da0cb14610404578063dee1f0e414610417578063e3dcab851461042a578063f77c47911461043d578063ffa1ad741461044557600080fd5b8063150b7a021461017f57806319ab453c146101bb5780632e322a9c146101d0578063325a19f11461022a5780633571da2d146102405780633bd0033d146102535780633e491d47146102755780634593144c146102985780634e0b6e08146102a05780634fac6ccd146102b35780635451da1b146102c6578063572b6c05146102e95780635cf20c7b146102fc5780635d7496d01461030f5780635f74949214610322575b600080fd5b61019d61018d36600461346a565b630a85bd0160e11b949350505050565b6040516001600160e01b031990911681526020015b60405180910390f35b6101ce6101c936600461352d565b610469565b005b6101e36101de366004613551565b610563565b6040516101b29190600060808201905060ff83511682526020830151602083015260ff60408401511660408301526001600160401b03606084015116606083015292915050565b61023261057e565b6040519081526020016101b2565b6101ce61024e36600461357d565b6105b7565b6102666102613660046135b2565b6105df565b6040516101b2939291906135cb565b610288610283366004613551565b610602565b6040516101b294939291906136a1565b610232610622565b6102326102ae366004613551565b610652565b6101ce6102c136600461352d565b61065e565b6102d96102d4366004613551565b61076f565b60405190151581526020016101b2565b6102d96102f736600461352d565b61077b565b6101ce61030a366004613551565b6107c9565b6101ce61031d366004613708565b6107ef565b61032a610804565b60405160ff90911681526020016101b2565b61023261080e565b6101ce610352366004613725565b61082c565b6102326103653660046135b2565b61084f565b61038e604051806040016040528060058152602001640312e302e360dc1b81525081565b6040516101b29190613767565b61032a61085a565b6103ab610864565b6040516101b291906137b6565b6101ce6103c63660046137ca565b610894565b6102d96103d936600461352d565b6108ae565b6102326103ec366004613551565b6108d3565b6101ce6103ff3660046137ca565b6108df565b6101ce610412366004613551565b6108f3565b6102d961042536600461352d565b610915565b6101ce610438366004613708565b61099a565b6103ab6109ac565b61038e60405180604001604052806005815260200164322e302e3360d81b81525081565b60006104736109dc565b805490915060ff600160401b82041615906001600160401b031660008115801561049a5750825b90506000826001600160401b031660011480156104b65750303b155b9050811580156104c4575080155b156104e25760405163f92ee8a960e01b815260040160405180910390fd5b845467ffffffffffffffff19166001178555831561050c57845460ff60401b1916600160401b1785555b61051586610a00565b831561055b57845460ff60401b19168555604051600181527fc7f505b2f371ae2175ee4913f4499e1f2633a7b5936321eed1cdaeb6115181d29060200160405180910390a15b505050505050565b61056b6133b6565b6105758383610a11565b90505b92915050565b60006105b26105ae60017f6f55f470bdc9cb5f04223fd822021061668e4dccb43e8727b295106dc9769c8b613828565b5490565b905090565b6105da6105c2610a50565b6105ca6109ac565b6105d2610a68565b868686610a8a565b505050565b60008060606105f56105ef6109ac565b85610bcd565b9250925092509193909250565b60608060608061061286866113f4565b9299919850965090945092505050565b60006105b26105ae60017f812a673dfca07956350df10f8a654925f561d7a0da09bdbe79e653939a14d9f1613828565b60006105758383611674565b3330146106b05760405162461bcd60e51b815260206004820152601b60248201527a24b731b932b0b9b2903932bb34b9b4b7b7103337b93134b23232b760291b60448201526064015b60405180910390fd5b60006106ce6105ae6001600080516020613d06833981519152613828565b6106d990600161383b565b90506106fb816106f86001600080516020613d06833981519152613828565b55565b61072a826106f860017fbfaaa2fb63266ff27c2da975f5894955056f50419af651a81f6c5060581857e4613828565b604080518281526001600160a01b03841660208201527ff27e2ef832a4eb8ed8ec553b875eecd44764cda95b1c24170e281539e0a869c8910160405180910390a15050565b6000610575838361176c565b60006001600160a01b03821673d8253782c45a12053594b9deb72d8e8ab2fca54c148061057857506001600160a01b0382167352ceba41da235af367bfc0b0ccd3314cb901bb5f1492915050565b6107eb6107d4610a50565b6107dc6109ac565b6107e4610a68565b8585611785565b5050565b6108016107fb33610915565b826118d9565b50565b60006105b2611962565b60006105b26105ae6001600080516020613d06833981519152613828565b6105da610837610a50565b61083f6109ac565b610847610a68565b86868661196f565b6000610578826121cb565b60006105b26121e9565b60006105b26105ae60017fbfaaa2fb63266ff27c2da975f5894955056f50419af651a81f6c5060581857e4613828565b6108a861089f6109ac565b858585856121fc565b50505050565b60006108b86109ac565b6001600160a01b0316826001600160a01b0316149050919050565b60006105758383612368565b6108a86108ea6109ac565b85858585612382565b6107eb6108fe610a50565b6109066109ac565b61090e610a68565b85856124c6565b6000816001600160a01b03166109296109ac565b6001600160a01b0316635aa6e6756040518163ffffffff1660e01b8152600401602060405180830381865afa158015610966573d6000803e3d6000fd5b505050506040513d601f19601f8201168201806040525081019061098a919061384e565b6001600160a01b03161492915050565b6108016109a633610915565b826127ce565b60006105b26105ae60017f5165972ef41194f06c5007493031d0b927c20741adcb74403b954009fd2c3618613828565b7ff0c57e16840df040f15088dc2f81fe391c3923bec73e23a9662efc9c229c6a0090565b610a08612844565b6108018161286b565b610a196133b6565b610575610a2461297e565b6001016000610a3c6001600160a01b038716866129a2565b8152602001908152602001600020546129f2565b6000610a5b3361077b565b806105b257505032331490565b6000610a733361077b565b15610a85575060131936013560601c90565b503390565b6040516331a9108f60e11b8152600481018390526001600160a01b038086169190851690636352211e90602401602060405180830381865afa158015610ad4573d6000803e3d6000fd5b505050506040513d601f19601f82011682018060405250810190610af8919061384e565b6001600160a01b031614610b2357828460405163c8e98f8960e01b81526004016106a792919061386b565b846001600160a01b03166318d928316040518163ffffffff1660e01b8152600401602060405180830381865afa158015610b61573d6000803e3d6000fd5b505050506040513d601f19601f82011682018060405250810190610b859190613885565b15610ba357604051635e1633d360e11b815260040160405180910390fd5b85610bc157604051636221cab960e01b815260040160405180910390fd5b61055b83838684612a36565b6000806060610c2360405180610100016040528060006001600160a01b03168152602001600081526020016000815260200160008152602001600081526020016000815260200160008152602001600081525090565b6000866001600160a01b0316637dc0d1d06040518163ffffffff1660e01b8152600401602060405180830381865afa158015610c63573d6000803e3d6000fd5b505050506040513d601f19601f82011682018060405250810190610c87919061384e565b90506000610c9361297e565b6000888152600291909101602052604090209050610cb081612be8565b60408401819052600003610cd75760405163dbdfd61160e01b815260040160405180910390fd5b8260400151600114610d7157816001600160a01b0316636e68fc0a60018560400151610d039190613828565b6040516001600160e01b031960e084901b1681526004810191909152600060248201526044016020604051808303816000875af1158015610d48573d6000803e3d6000fd5b505050506040513d601f19601f82011682018060405250810190610d6c91906138a7565b610d74565b60005b60a08401526040830151610d8a90606490612bf2565b60c084018190526000906001600160401b03811115610dab57610dab613424565b604051908082528060200260200182016040528015610dd4578160200160208202803683370190505b50905060008460c001516001600160401b03811115610df557610df5613424565b604051908082528060200260200182016040528015610e1e578160200160208202803683370190505b50905060008560c001516001600160401b03811115610e3f57610e3f613424565b604051908082528060200260200182016040528015610e68578160200160208202803683370190505b50905060005b8660c001518760e001511015610fbf5786604001518760a0015110610e9557600060a08801525b610eb8610eaf8860a0015187612c0890919063ffffffff16565b9060a082901c90565b602089018190526001600160a01b03909116808952600091610eda9190611674565b90508760000151858960e0015181518110610ef757610ef76138c0565b60200260200101906001600160a01b031690816001600160a01b0316815250508760200151848960e0015181518110610f3257610f326138c0565b6020908102919091010152610f486003826139b2565b838960e0015181518110610f5e57610f5e6138c0565b602002602001018181525050828860e0015181518110610f8057610f806138c0565b602002602001015182610f93919061383b565b60a089018051919350610fa5826139c1565b9052505060e087018051610fb8906139c1565b9052610e6e565b6040516337347e0560e11b8152670de0b6b3a76400006004820152600060248201526001600160a01b03871690636e68fc0a906044016020604051808303816000875af1158015611014573d6000803e3d6000fd5b505050506040513d601f19601f8201168201806040525081019061103891906138a7565b606088018190526110559082906110509082906139f0565b612bf2565b6080880152600060e08801525b8660c001518760e00151101561113d57818760e0015181518110611088576110886138c0565b6020026020010151876080015110156110f557838760e00151815181106110b1576110b16138c0565b60209081029190910101516001600160a01b0316875260e0870151835184919081106110df576110df6138c0565b602002602001015187602001818152505061113d565b818760e001518151811061110b5761110b6138c0565b6020026020010151876080018181516111249190613828565b9052508660e0018051611136906139c1565b9052611062565b86516001600160a01b0316158061115657506020870151155b156111745760405163dbdfd61160e01b815260040160405180910390fd5b5050505050506000866001600160a01b0316628e96916040518163ffffffff1660e01b8152600401602060405180830381865afa1580156111b9573d6000803e3d6000fd5b505050506040513d601f19601f820116820180604052508101906111dd919061384e565b60408051600c8082526101a0820190925291925060009190602082016101808036833701905050905060008160008151811061121b5761121b6138c0565b602090810291909101015260018160018151811061123b5761123b6138c0565b602090810291909101015260028160028151811061125b5761125b6138c0565b602090810291909101015260038160038151811061127b5761127b6138c0565b602090810291909101015260048160048151811061129b5761129b6138c0565b60209081029190910101526005816005815181106112bb576112bb6138c0565b60209081029190910101526006816006815181106112db576112db6138c0565b60209081029190910101526007816007815181106112fb576112fb6138c0565b602090810291909101015260088160088151811061131b5761131b6138c0565b6020908102919091010152600b8160098151811061133b5761133b6138c0565b6020908102919091010152600c81600a8151811061135b5761135b6138c0565b6020908102919091010152600d81600b8151811061137b5761137b6138c0565b60200260200101818152505061139b828285600001518660200151612c14565b935050507f4f59e46e6b2215437a0dbd556dc3596d574d47f64110018c6ce9752eb7da73e0816000015182602001516040516113d8929190613a04565b60405180910390a1805160209091015190935091509250925092565b606080606080600061140461297e565b600501600061141c6001600160a01b038a16896129a2565b81526020019081526020016000209050600061143782612d40565b9050806001600160401b0381111561145157611451613424565b60405190808252806020026020018201604052801561147a578160200160208202803683370190505b509550806001600160401b0381111561149557611495613424565b6040519080825280602002602001820160405280156114be578160200160208202803683370190505b50945060005b81811015611524576114d68382612d4b565b8883815181106114e8576114e86138c0565b60200260200101888481518110611501576115016138c0565b60209081029190910101919091526001600160a01b0390911690526001016114c4565b50600061152f61297e565b60040160006115476001600160a01b038c168b6129a2565b81526020810191909152604001600020805492509050816001600160401b0381111561157557611575613424565b60405190808252806020026020018201604052801561159e578160200160208202803683370190505b509450816001600160401b038111156115b9576115b9613424565b6040519080825280602002602001820160405280156115e2578160200160208202803683370190505b50935060005b8281101561166757611619828281548110611605576116056138c0565b90600052602060002001549060a082901c90565b87838151811061162b5761162b6138c0565b60200260200101878481518110611644576116446138c0565b60209081029190910101919091526001600160a01b0390911690526001016115e8565b5050505092959194509250565b60008061169a61168261297e565b6001016000610a3c6001600160a01b038816876129a2565b90504281606001516001600160401b031611156116bb576000915050610578565b600081606001516001600160401b0316426116d69190613828565b905062093a808111156116f7576116f062093a8082613828565b9050611703565b50602001519050610578565b611711600262093a80613a1d565b81111561172357600092505050610578565b611731600262093a80613a1d565b81611740600262093a80613a1d565b61174a9190613828565b83602001516117599190613a1d565b6117639190613a34565b95945050505050565b60006117788383610a11565b5160ff1615159392505050565b6040516331a9108f60e11b8152600481018290526001600160a01b038085169190841690636352211e90602401602060405180830381865afa1580156117cf573d6000803e3d6000fd5b505050506040513d601f19601f820116820180604052508101906117f3919061384e565b6001600160a01b03161461181e57818360405163c8e98f8960e01b81526004016106a792919061386b565b836001600160a01b03166318d928316040518163ffffffff1660e01b8152600401602060405180830381865afa15801561185c573d6000803e3d6000fd5b505050506040513d601f19601f820116820180604052508101906118809190613885565b1561189e57604051635e1633d360e11b815260040160405180910390fd5b846118bc57604051636221cab960e01b815260040160405180910390fd5b6118c7828285612d69565b6118d2828285612f32565b5050505050565b816118f9573360405163988d1f0360e01b81526004016106a791906137b6565b600061191061190661297e565b5490600882901c90565b91505061191d8282613078565b61192561297e565b5560405160ff831681527f074aef0a3a7a9a88c0af1ad5b2e19417886b720a6942876ed914a782c907094c906020015b60405180910390a1505050565b600061057861190661297e565b600061197961297e565b90508661199957604051636221cab960e01b815260040160405180910390fd5b856001600160a01b03166318d928316040518163ffffffff1660e01b8152600401602060405180830381865afa1580156119d7573d6000803e3d6000fd5b505050506040513d601f19601f820116820180604052508101906119fb9190613885565b15611a1957604051635e1633d360e11b815260040160405180910390fd5b6040516331a9108f60e11b8152600481018490526001600160a01b038087169190861690636352211e90602401602060405180830381865afa158015611a63573d6000803e3d6000fd5b505050506040513d601f19601f82011682018060405250810190611a87919061384e565b6001600160a01b031614611ab257838560405163c8e98f8960e01b81526004016106a792919061386b565b6000866001600160a01b031663016dff5d6040518163ffffffff1660e01b8152600401602060405180830381865afa158015611af2573d6000803e3d6000fd5b505050506040513d601f19601f82011682018060405250810190611b16919061384e565b604051631789b7b160e01b81529091506001600160a01b03821690631789b7b190611b459088906004016137b6565b602060405180830381865afa158015611b62573d6000803e3d6000fd5b505050506040513d601f19601f82011682018060405250810190611b869190613a48565b60ff16600003611bab578460405163adc7fced60e01b81526004016106a791906137b6565b866001600160a01b031663683fedf76040518163ffffffff1660e01b8152600401602060405180830381865afa158015611be9573d6000803e3d6000fd5b505050506040513d601f19601f82011682018060405250810190611c0d919061384e565b6001600160a01b0316639a641e0286866040518363ffffffff1660e01b8152600401611c3a929190613a04565b602060405180830381865afa158015611c57573d6000803e3d6000fd5b505050506040513d601f19601f82011682018060405250810190611c7b9190613a65565b6001600160401b031615611ca15760405162dc1c0b60e01b815260040160405180910390fd5b611cab858561176c565b15611cc957604051630ae3514d60e01b815260040160405180910390fd5b60328360ff161115611cf3576040516391866ccb60e01b815260ff841660048201526024016106a7565b600a8360ff161015611d1d576040516361aa824960e01b815260ff841660048201526024016106a7565b6000876001600160a01b0316628e96916040518163ffffffff1660e01b8152600401602060405180830381865afa158015611d5c573d6000803e3d6000fd5b505050506040513d601f19601f82011682018060405250810190611d80919061384e565b90506000816001600160a01b031663d4ac484888886040518363ffffffff1660e01b8152600401611db2929190613a04565b60a060405180830381865afa158015611dcf573d6000803e3d6000fd5b505050506040513d601f19601f82011682018060405250810190611df39190613aa7565b8454815191925090600882901c9060ff831663ffffffff9091161080611e2557508060ff16836080015163ffffffff16105b15611e43576040516312bbf80d60e11b815260040160405180910390fd5b826080015163ffffffff16600003611e7257888860405163033aace360e41b81526004016106a7929190613a04565b505060405163fbed9ac560e01b8152600091506001600160a01b0383169063fbed9ac590611ea6908a908a90600401613a04565b600060405180830381865afa158015611ec3573d6000803e3d6000fd5b505050506040513d6000823e601f3d908101601f19168201604052611eeb9190810190613b34565b905060006003825110611f985760005b8251811015611f9657600c60ff16838281518110611f1b57611f1b6138c0565b602002602001015160ff161480611f515750600d60ff16838281518110611f4457611f446138c0565b602002602001015160ff16145b80611f7b5750600e60ff16838281518110611f6e57611f6e6138c0565b602002602001015160ff16145b15611f8e5781611f8a816139c1565b9250505b600101611efb565b505b6003811015611fba5760405163226d2c6360e11b815260040160405180910390fd5b5050604051631ebd249360e01b81526000906001600160a01b03841690631ebd249390611fed908a908a90600401613a04565b602060405180830381865afa15801561200a573d6000803e3d6000fd5b505050506040513d601f19601f8201168201806040525081019061202e9190613a48565b90506000836001600160a01b0316637401edba89896040518363ffffffff1660e01b8152600401612060929190613a04565b602060405180830381865afa15801561207d573d6000803e3d6000fd5b505050506040513d601f19601f820116820180604052508101906120a191906138a7565b9050600a6120b360ff88166032613828565b6120bd9083613a1d565b6120c79190613a34565b6120d1908261383b565b60ff8316600090815260028701602052604090209091506121056120fe6001600160a01b038b168a6129a2565b829061308d565b5061213e60405180608001604052808560ff1681526020018481526020018960ff168152602001426001600160401b0316815250613099565b6001870160006121576001600160a01b038d168c6129a2565b815260208082019290925260409081016000209290925581516001600160a01b038c1681529081018a905260ff8516818301526060810184905290517ffce5deda61527ec63851f29a83ee759c594075760e0f570a8a8cabe4e4641d2d9181900360800190a1505050505050505050505050565b60006121d561297e565b600092835260030160205250604090205490565b60006121f661190661297e565b50919050565b336001600160a01b0316856001600160a01b031663683fedf76040518163ffffffff1660e01b8152600401602060405180830381865afa158015612244573d6000803e3d6000fd5b505050506040513d601f19601f82011682018060405250810190612268919061384e565b6001600160a01b031614612291573360405163cf219bef60e01b81526004016106a791906137b6565b600061229b61297e565b60050160006122b36001600160a01b038816876129a2565b8152602001908152602001600020905060006122d884836130ea90919063ffffffff16565b91506122f29050846122ea858461383b565b849190613102565b507f489180b84bf13edb925b7af708ef969b23c416ae7162f37699365c9c199155f986868686612322818761383b565b604080516001600160a01b039687168152602081019590955292909416918301919091526060820152608081019190915260a0015b60405180910390a150505050505050565b60006123748383610a11565b6040015160ff169392505050565b336001600160a01b0316856001600160a01b031663683fedf76040518163ffffffff1660e01b8152600401602060405180830381865afa1580156123ca573d6000803e3d6000fd5b505050506040513d601f19601f820116820180604052508101906123ee919061384e565b6001600160a01b031614612417573360405163cf219bef60e01b81526004016106a791906137b6565b61241f61297e565b60040160006124376001600160a01b038716866129a2565b8152602081019190915260400160002061245a6001600160a01b038416836129a2565b815460018101835560009283526020928390200155604080516001600160a01b0387811682529281018690529184168282015260608201839052517f919406f90d972565a1723b92e77ce09436e08a13d98dcc138b0ebac4ccc793619181900360800190a15050505050565b60006124d061297e565b9050856124f057604051636221cab960e01b815260040160405180910390fd5b846001600160a01b03166318d928316040518163ffffffff1660e01b8152600401602060405180830381865afa15801561252e573d6000803e3d6000fd5b505050506040513d601f19601f820116820180604052508101906125529190613885565b1561257057604051635e1633d360e11b815260040160405180910390fd5b6040516331a9108f60e11b8152600481018390526001600160a01b038086169190851690636352211e90602401602060405180830381865afa1580156125ba573d6000803e3d6000fd5b505050506040513d601f19601f820116820180604052508101906125de919061384e565b6001600160a01b03161461260957828460405163c8e98f8960e01b81526004016106a792919061386b565b846001600160a01b031663016dff5d6040518163ffffffff1660e01b8152600401602060405180830381865afa158015612647573d6000803e3d6000fd5b505050506040513d601f19601f8201168201806040525081019061266b919061384e565b6001600160a01b0316631789b7b1846040518263ffffffff1660e01b815260040161269691906137b6565b602060405180830381865afa1580156126b3573d6000803e3d6000fd5b505050506040513d601f19601f820116820180604052508101906126d79190613a48565b60ff166000036126fc578260405163adc7fced60e01b81526004016106a791906137b6565b60006127196001830182610a3c6001600160a01b038816876129a2565b805190915060ff16600003612740576040516273e5c360e31b815260040160405180910390fd5b6127716127566001600160a01b038616856129a2565b825160ff166000908152600285016020526040902090613120565b5060018201600061278b6001600160a01b038716866129a2565b8152602001908152602001600020600090557f20eeb4de14666113d3c1af96b5380282a9d983b562f22d95af267f1603f8a7408484604051612357929190613a04565b816127ee573360405163988d1f0360e01b81526004016106a791906137b6565b60006127fb61190661297e565b5090506128088183613078565b61281061297e565b5560405160ff831681527f8c10825a4006de6d1a1941d18bf26c91a710f73a9ed52b1b4c32aa5d7dc641c390602001611955565b61284c61312c565b61286957604051631afcd79f60e31b815260040160405180910390fd5b565b6001600160a01b0381166128b35760405162461bcd60e51b815260206004820152600f60248201526e2d32b9379031b7b73a3937b63632b960891b60448201526064016106a7565b6128e2816106f860017f5165972ef41194f06c5007493031d0b927c20741adcb74403b954009fd2c3618613828565b612911426106f860017f6f55f470bdc9cb5f04223fd822021061668e4dccb43e8727b295106dc9769c8b613828565b612940436106f860017f812a673dfca07956350df10f8a654925f561d7a0da09bdbe79e653939a14d9f1613828565b7f1a2dd071001ebf6e03174e3df5b305795a4ad5d41d8fdb9ba41dbbe23671342681424360405161297393929190613be5565b60405180910390a150565b7f5a053c541e08c6bd7dfc3042a100e83af246544a23ecda1a47bf22b441b00c0090565b60006001600160401b038211156129cf57604051633995b34160e01b8152600481018390526024016106a7565b5067ffffffffffffffff60a01b60a09190911b166001600160a01b039091161790565b6129fa6133b6565b6001600160401b03609083901c16606082015260ff608883901c811660408301526001600160801b03600884901c166020830152909116815290565b6000612a4061297e565b6004016000612a586001600160a01b038816876129a2565b81526020810191909152604001600090812080549092509081841015612a8757612a828483613828565b612a8a565b60005b90505b808214612b9d57600080612ab685612aa6600187613828565b81548110611605576116056138c0565b604051632142170760e11b815291935091506001600160a01b038316906342842e0e90612aeb9030908b908690600401613c06565b600060405180830381600087803b158015612b0557600080fd5b505af1158015612b19573d6000803e3d6000fd5b505050507fff05befd582c4ae0b942a67d42cde1aa0fbd2c4cebd9e347e376be674e44df87898984848b604051612b54959493929190613c2a565b60405180910390a183612b6681613c5a565b9450508215612b965784805480612b7f57612b7f613c71565b600190038181906000526020600020016000905590555b5050612a8d565b81600003612bdf57612bad61297e565b6004016000612bc56001600160a01b038a16896129a2565b81526020019081526020016000206000612bdf91906133dd565b50505050505050565b6000610578825490565b6000818310612c015781610575565b5090919050565b60006105758383613146565b60408051602b8082526105808201909252606091602082016105608036833701905050905060005b8451811015612d3757612cf160646014886001600160a01b03166320a7d29988888b8881518110612c6f57612c6f6138c0565b60200260200101516040518463ffffffff1660e01b8152600401612c9593929190613be5565b602060405180830381865afa158015612cb2573d6000803e3d6000fd5b505050506040513d601f19601f82011682018060405250810190612cd69190613c87565b612ce09190613caa565b612cea9190613cca565b6001613170565b82868381518110612d0457612d046138c0565b602002602001015181518110612d1c57612d1c6138c0565b60039290920b60209283029190910190910152600101612c3c565b50949350505050565b600061057882613186565b6000808080612d5a8686613191565b909450925050505b9250929050565b6000612d7361297e565b6005016000612d8b6001600160a01b038716866129a2565b815260200190815260200160002090506000612da682612d40565b90506000816001600160401b03811115612dc257612dc2613424565b604051908082528060200260200182016040528015612deb578160200160208202803683370190505b50905060005b82811015612ef157600080612e068684612d4b565b60405163a9059cbb60e01b815291935091506001600160a01b0383169063a9059cbb90612e39908a908590600401613a04565b6020604051808303816000875af1158015612e58573d6000803e3d6000fd5b505050506040513d601f19601f82011682018060405250810190612e7c9190613885565b507f846e45ae5b621ebf9a92358abaccb933a344b2d44654dfbd9993c99c6add12c3898984848b604051612eb4959493929190613c2a565b60405180910390a181848481518110612ecf57612ecf6138c0565b6001600160a01b03909216602092830291909101909101525050600101612df1565b5060005b82811015612bdf57612f29828281518110612f1257612f126138c0565b6020026020010151856131bc90919063ffffffff16565b50600101612ef5565b6000612f3c61297e565b6004016000612f546001600160a01b038716866129a2565b8152602081019190915260400160009081208054909250905b8181101561303d57600080612f8d858481548110611605576116056138c0565b604051632142170760e11b815291935091506001600160a01b038316906342842e0e90612fc29030908a908690600401613c06565b600060405180830381600087803b158015612fdc57600080fd5b505af1158015612ff0573d6000803e3d6000fd5b505050507fff05befd582c4ae0b942a67d42cde1aa0fbd2c4cebd9e347e376be674e44df87888884848a60405161302b959493929190613c2a565b60405180910390a15050600101612f6d565b5061304661297e565b600401600061305e6001600160a01b038816876129a2565b815260200190815260200160002060006118d291906133dd565b600060ff8316600883901b61ff001617610575565b600061057583836131d1565b805160208201516040830151606084015160009360ff1660089390931b610100600160881b03169290921760889190911b60ff60881b161760909190911b67ffffffffffffffff60901b1617610578565b6000808080612d5a866001600160a01b038716613220565b6000613118846001600160a01b03851684613262565b949350505050565b6000610575838361327f565b60006131366109dc565b54600160401b900460ff16919050565b600082600001828154811061315d5761315d6138c0565b9060005260206000200154905092915050565b60008160030b8360030b1215612c015781610575565b600061057882612be8565b6000808061319f8585612c08565b600081815260029690960160205260409095205494959350505050565b6000610575836001600160a01b038416613379565b600081815260018301602052604081205461321857508154600181810184556000848152602080822090930184905584548482528286019093526040902091909155610578565b506000610578565b600081815260028301602052604081205481908061324f576132428585613396565b925060009150612d629050565b600192509050612d62565b509250929050565b60008281526002840160205260408120829055613118848461308d565b600081815260018301602052604081205480156133685760006132a3600183613828565b85549091506000906132b790600190613828565b905080821461331c5760008660000182815481106132d7576132d76138c0565b90600052602060002001549050808760000184815481106132fa576132fa6138c0565b6000918252602080832090910192909255918252600188019052604090208390555b855486908061332d5761332d613c71565b600190038181906000526020600020016000905590558560010160008681526020019081526020016000206000905560019350505050610578565b6000915050610578565b5092915050565b600081815260028301602052604081208190556105758383613120565b600081815260018301602052604081205461057590849084908490151584565b60408051608081018252600080825260208201819052918101829052606081019190915290565b508054600082559060005260206000209081019061080191905b8082111561340b57600081556001016133f7565b5090565b6001600160a01b038116811461080157600080fd5b634e487b7160e01b600052604160045260246000fd5b604051601f8201601f191681016001600160401b038111828210171561346257613462613424565b604052919050565b6000806000806080858703121561348057600080fd5b843561348b8161340f565b935060208581013561349c8161340f565b93506040860135925060608601356001600160401b03808211156134bf57600080fd5b818801915088601f8301126134d357600080fd5b8135818111156134e5576134e5613424565b6134f7601f8201601f1916850161343a565b9150808252898482850101111561350d57600080fd5b808484018584013760008482840101525080935050505092959194509250565b60006020828403121561353f57600080fd5b813561354a8161340f565b9392505050565b6000806040838503121561356457600080fd5b823561356f8161340f565b946020939093013593505050565b60008060006060848603121561359257600080fd5b833561359d8161340f565b95602085013595506040909401359392505050565b6000602082840312156135c457600080fd5b5035919050565b6001600160a01b038416815260208082018490526060604083018190528351908301819052600091848101916080850190845b8181101561361d57845160030b835293830193918301916001016135fe565b509098975050505050505050565b60008151808452602080850194506020840160005b838110156136655781516001600160a01b031687529582019590820190600101613640565b509495945050505050565b60008151808452602080850194506020840160005b8381101561366557815187529582019590820190600101613685565b6080815260006136b4608083018761362b565b82810360208401526136c68187613670565b905082810360408401526136da818661362b565b905082810360608401526136ee8185613670565b979650505050505050565b60ff8116811461080157600080fd5b60006020828403121561371a57600080fd5b813561354a816136f9565b60008060006060848603121561373a57600080fd5b83356137458161340f565b925060208401359150604084013561375c816136f9565b809150509250925092565b60006020808352835180602085015260005b8181101561379557858101830151858201604001528201613779565b506000604082860101526040601f19601f8301168501019250505092915050565b6001600160a01b0391909116815260200190565b600080600080608085870312156137e057600080fd5b84356137eb8161340f565b93506020850135925060408501356138028161340f565b9396929550929360600135925050565b634e487b7160e01b600052601160045260246000fd5b8181038181111561057857610578613812565b8082018082111561057857610578613812565b60006020828403121561386057600080fd5b815161354a8161340f565b6001600160a01b0392831681529116602082015260400190565b60006020828403121561389757600080fd5b8151801515811461354a57600080fd5b6000602082840312156138b957600080fd5b5051919050565b634e487b7160e01b600052603260045260246000fd5b600181815b8085111561325a5781600019048211156138f7576138f7613812565b8085161561390457918102915b93841c93908002906138db565b60008261392057506001610578565b8161392d57506000610578565b8160018114613943576002811461394d57613969565b6001915050610578565b60ff84111561395e5761395e613812565b50506001821b610578565b5060208310610133831016604e8410600b841016171561398c575081810a610578565b61399683836138d6565b80600019048211156139aa576139aa613812565b029392505050565b600061057560ff841683613911565b6000600182016139d3576139d3613812565b5060010190565b634e487b7160e01b600052601260045260246000fd5b6000826139ff576139ff6139da565b500690565b6001600160a01b03929092168252602082015260400190565b808202811582820484141761057857610578613812565b600082613a4357613a436139da565b500490565b600060208284031215613a5a57600080fd5b815161354a816136f9565b600060208284031215613a7757600080fd5b81516001600160401b038116811461354a57600080fd5b805163ffffffff81168114613aa257600080fd5b919050565b600060a08284031215613ab957600080fd5b60405160a081018181106001600160401b0382111715613adb57613adb613424565b604052613ae783613a8e565b8152613af560208401613a8e565b6020820152613b0660408401613a8e565b6040820152613b1760608401613a8e565b6060820152613b2860808401613a8e565b60808201529392505050565b60006020808385031215613b4757600080fd5b82516001600160401b0380821115613b5e57600080fd5b818501915085601f830112613b7257600080fd5b815181811115613b8457613b84613424565b8060051b9150613b9584830161343a565b8181529183018401918481019088841115613baf57600080fd5b938501935b83851015613bd95784519250613bc9836136f9565b8282529385019390850190613bb4565b98975050505050505050565b6001600160a01b039390931683526020830191909152604082015260600190565b6001600160a01b039384168152919092166020820152604081019190915260600190565b6001600160a01b039586168152602081019490945291841660408401526060830152909116608082015260a00190565b600081613c6957613c69613812565b506000190190565b634e487b7160e01b600052603160045260246000fd5b600060208284031215613c9957600080fd5b81518060030b811461354a57600080fd5b60008260030b8260030b028060030b915080821461337257613372613812565b60008160030b8360030b80613ce157613ce16139da565b637fffffff19821460001982141615613cfc57613cfc613812565b9005939250505056fe22573091f17911fb166032a3d9e0554aa73d31b7b7ddea4a4dd2995650af84bda26469706673582212207fc0052f2e6e8f15d6a2c65d65ece13d2360f4fe0f221d370b40c8541de7eec264736f6c63430008170033",
  "devdoc": {
    "errors": {
      "InvalidInitialization()": [
        {
          "details": "The contract is already initialized."
        }
      ],
      "NotInitializing()": [
        {
          "details": "The contract is not initializing."
        }
      ]
    },
    "events": {
      "Initialized(uint64)": {
        "details": "Triggered when the contract has been initialized or reinitialized."
      }
    },
    "kind": "dev",
    "methods": {
      "askHero(uint256)": {
        "details": "It's view like function but we need to touch slots in oracle function."
      },
      "created()": {
        "returns": {
          "_0": "Creation timestamp"
        }
      },
      "createdBlock()": {
        "returns": {
          "_0": "Creation block number"
        }
      },
      "increaseRevision(address)": {
        "details": "Revision should be increased on each contract upgrade"
      },
      "isController(address)": {
        "details": "Return true if given address is controller"
      },
      "onERC721Received(address,address,uint256,bytes)": {
        "details": "See {IERC721Receiver-onERC721Received}. Always returns `IERC721Receiver.onERC721Received.selector`."
      },
      "previousImplementation()": {
        "details": "Previous logic implementation"
      },
      "registerNftReward(address,uint256,address,uint256)": {
        "details": "Only for dungeon. Assume the NFT already sent to this contract."
      },
      "registerTokenReward(address,uint256,address,uint256)": {
        "details": "Only for dungeon. Assume the tokens already sent to this contract."
      },
      "revision()": {
        "details": "Contract upgrade counter"
      }
    },
    "version": 1
  },
  "userdoc": {
    "errors": {
      "ErrorReinforcementRequiresThreeSkills()": [
        {
          "notice": "SIP-001 - Reinforcement requires 3 skills"
        }
      ]
    },
    "kind": "user",
    "methods": {
      "CONTROLLABLE_VERSION()": {
        "notice": "Version of the contract"
      },
      "VERSION()": {
        "notice": "Version of the contract"
      },
      "claimNft(address,uint256,uint256)": {
        "notice": "Claim {countNft} last NFT"
      },
      "controller()": {
        "notice": "Return controller address saved in the contract slot"
      },
      "created()": {
        "notice": "Return creation timestamp"
      },
      "createdBlock()": {
        "notice": "Return creation block number"
      },
      "isGovernance(address)": {
        "notice": "Return true if given address is setup as governance in Controller"
      }
    },
    "version": 1
  },
  "storageLayout": {
    "storage": [],
    "types": null
  }
}