{
  "address": "0x998d30114CeAde8934AF17A3D87d5AbDEc75F1FD",
  "abi": [
    {
      "inputs": [],
      "name": "ErrorCannotRemoveItemFromMap",
      "type": "error"
    },
    {
      "inputs": [
        {
          "internalType": "address",
          "name": "item",
          "type": "address"
        }
      ],
      "name": "ErrorConsumableItemIsUsed",
      "type": "error"
    },
    {
      "inputs": [],
      "name": "ErrorExperienceMustNotDecrease",
      "type": "error"
    },
    {
      "inputs": [
        {
          "internalType": "address",
          "name": "sender",
          "type": "address"
        }
      ],
      "name": "ErrorForbidden",
      "type": "error"
    },
    {
      "inputs": [
        {
          "internalType": "uint256",
          "name": "itemType",
          "type": "uint256"
        },
        {
          "internalType": "uint8",
          "name": "itemSlot",
          "type": "uint8"
        }
      ],
      "name": "ErrorItemNotEligibleForTheSlot",
      "type": "error"
    },
    {
      "inputs": [],
      "name": "ErrorItemNotInSlot",
      "type": "error"
    },
    {
      "inputs": [],
      "name": "ErrorItemSlotBusy",
      "type": "error"
    },
    {
      "inputs": [
        {
          "internalType": "uint8",
          "name": "slot",
          "type": "uint8"
        }
      ],
      "name": "ErrorItemSlotBusyHand",
      "type": "error"
    },
    {
      "inputs": [],
      "name": "ErrorMaxLevel",
      "type": "error"
    },
    {
      "inputs": [],
      "name": "ErrorNotEnoughExperience",
      "type": "error"
    },
    {
      "inputs": [
        {
          "internalType": "address",
          "name": "sender",
          "type": "address"
        }
      ],
      "name": "ErrorNotHeroController",
      "type": "error"
    },
    {
      "inputs": [
        {
          "internalType": "address",
          "name": "sender",
          "type": "address"
        }
      ],
      "name": "ErrorNotItemController",
      "type": "error"
    },
    {
      "inputs": [],
      "name": "ErrorWrongLevelUpSum",
      "type": "error"
    },
    {
      "inputs": [],
      "name": "ErrorZeroKarmaNotAllowed",
      "type": "error"
    },
    {
      "inputs": [],
      "name": "InvalidInitialization",
      "type": "error"
    },
    {
      "inputs": [],
      "name": "NotInitializing",
      "type": "error"
    },
    {
      "inputs": [
        {
          "internalType": "uint256",
          "name": "index",
          "type": "uint256"
        },
        {
          "internalType": "uint256",
          "name": "length",
          "type": "uint256"
        }
      ],
      "name": "OutOfBounds",
      "type": "error"
    },
    {
      "inputs": [
        {
          "internalType": "uint256",
          "name": "value",
          "type": "uint256"
        }
      ],
      "name": "TooHighValue",
      "type": "error"
    },
    {
      "inputs": [
        {
          "internalType": "uint256",
          "name": "x",
          "type": "uint256"
        }
      ],
      "name": "TooLowX",
      "type": "error"
    },
    {
      "inputs": [
        {
          "internalType": "uint256",
          "name": "expected",
          "type": "uint256"
        },
        {
          "internalType": "uint256",
          "name": "actual",
          "type": "uint256"
        }
      ],
      "name": "UnexpectedValue",
      "type": "error"
    },
    {
      "inputs": [
        {
          "internalType": "uint256",
          "name": "heroClass",
          "type": "uint256"
        }
      ],
      "name": "UnknownHeroClass",
      "type": "error"
    },
    {
      "anonymous": false,
      "inputs": [
        {
          "indexed": false,
          "internalType": "address",
          "name": "heroToken",
          "type": "address"
        },
        {
          "indexed": false,
          "internalType": "uint256",
          "name": "heroTokenId",
          "type": "uint256"
        },
        {
          "indexed": false,
          "internalType": "bool",
          "name": "add",
          "type": "bool"
        },
        {
          "indexed": false,
          "internalType": "bool",
          "name": "temporally",
          "type": "bool"
        },
        {
          "indexed": false,
          "internalType": "address",
          "name": "caller",
          "type": "address"
        }
      ],
      "name": "BonusAttributesChanged",
      "type": "event"
    },
    {
      "anonymous": false,
      "inputs": [
        {
          "indexed": false,
          "internalType": "address",
          "name": "heroToken",
          "type": "address"
        },
        {
          "indexed": false,
          "internalType": "uint256",
          "name": "heroTokenId",
          "type": "uint256"
        },
        {
          "indexed": false,
          "internalType": "address",
          "name": "item",
          "type": "address"
        }
      ],
      "name": "ConsumableUsed",
      "type": "event"
    },
    {
      "anonymous": false,
      "inputs": [
        {
          "indexed": false,
          "internalType": "address",
          "name": "controller",
          "type": "address"
        },
        {
          "indexed": false,
          "internalType": "uint256",
          "name": "ts",
          "type": "uint256"
        },
        {
          "indexed": false,
          "internalType": "uint256",
          "name": "block",
          "type": "uint256"
        }
      ],
      "name": "ContractInitialized",
      "type": "event"
    },
    {
      "anonymous": false,
      "inputs": [
        {
          "indexed": false,
          "internalType": "address",
          "name": "heroToken",
          "type": "address"
        },
        {
          "indexed": false,
          "internalType": "uint256",
          "name": "heroTokenId",
          "type": "uint256"
        },
        {
          "components": [
            {
              "internalType": "uint32",
              "name": "level",
              "type": "uint32"
            },
            {
              "internalType": "uint32",
              "name": "experience",
              "type": "uint32"
            },
            {
              "internalType": "uint32",
              "name": "life",
              "type": "uint32"
            },
            {
              "internalType": "uint32",
              "name": "mana",
              "type": "uint32"
            },
            {
              "internalType": "uint32",
              "name": "lifeChances",
              "type": "uint32"
            }
          ],
          "indexed": false,
          "internalType": "struct IStatController.ChangeableStats",
          "name": "change",
          "type": "tuple"
        },
        {
          "indexed": false,
          "internalType": "bool",
          "name": "increase",
          "type": "bool"
        },
        {
          "indexed": false,
          "internalType": "address",
          "name": "caller",
          "type": "address"
        }
      ],
      "name": "CurrentStatsChanged",
      "type": "event"
    },
    {
      "anonymous": false,
      "inputs": [
        {
          "indexed": false,
          "internalType": "bytes32",
          "name": "index",
          "type": "bytes32"
        },
        {
          "indexed": false,
          "internalType": "uint256",
          "name": "value",
          "type": "uint256"
        }
      ],
      "name": "GlobalCustomDataChanged",
      "type": "event"
    },
    {
      "anonymous": false,
      "inputs": [
        {
          "indexed": false,
          "internalType": "address",
          "name": "token",
          "type": "address"
        },
        {
          "indexed": false,
          "internalType": "uint256",
          "name": "tokenId",
          "type": "uint256"
        },
        {
          "indexed": false,
          "internalType": "bytes32",
          "name": "index",
          "type": "bytes32"
        },
        {
          "indexed": false,
          "internalType": "uint256",
          "name": "value",
          "type": "uint256"
        }
      ],
      "name": "HeroCustomDataChanged",
      "type": "event"
    },
    {
      "anonymous": false,
      "inputs": [
        {
          "indexed": false,
          "internalType": "address",
          "name": "heroToken",
          "type": "address"
        },
        {
          "indexed": false,
          "internalType": "uint256",
          "name": "heroTokenId",
          "type": "uint256"
        },
        {
          "indexed": false,
          "internalType": "uint256",
          "name": "itemType",
          "type": "uint256"
        },
        {
          "indexed": false,
          "internalType": "uint256",
          "name": "itemSlot",
          "type": "uint256"
        },
        {
          "indexed": false,
          "internalType": "address",
          "name": "itemToken",
          "type": "address"
        },
        {
          "indexed": false,
          "internalType": "uint256",
          "name": "itemTokenId",
          "type": "uint256"
        },
        {
          "indexed": false,
          "internalType": "bool",
          "name": "equip",
          "type": "bool"
        },
        {
          "indexed": false,
          "internalType": "address",
          "name": "caller",
          "type": "address"
        }
      ],
      "name": "HeroItemSlotChanged",
      "type": "event"
    },
    {
      "anonymous": false,
      "inputs": [
        {
          "indexed": false,
          "internalType": "uint64",
          "name": "version",
          "type": "uint64"
        }
      ],
      "name": "Initialized",
      "type": "event"
    },
    {
      "anonymous": false,
      "inputs": [
        {
          "indexed": false,
          "internalType": "address",
          "name": "heroToken",
          "type": "address"
        },
        {
          "indexed": false,
          "internalType": "uint256",
          "name": "heroTokenId",
          "type": "uint256"
        },
        {
          "indexed": false,
          "internalType": "uint256",
          "name": "heroClass",
          "type": "uint256"
        },
        {
          "components": [
            {
              "internalType": "int32",
              "name": "strength",
              "type": "int32"
            },
            {
              "internalType": "int32",
              "name": "dexterity",
              "type": "int32"
            },
            {
              "internalType": "int32",
              "name": "vitality",
              "type": "int32"
            },
            {
              "internalType": "int32",
              "name": "energy",
              "type": "int32"
            }
          ],
          "indexed": false,
          "internalType": "struct IStatController.CoreAttributes",
          "name": "change",
          "type": "tuple"
        }
      ],
      "name": "LevelUp",
      "type": "event"
    },
    {
      "anonymous": false,
      "inputs": [
        {
          "indexed": false,
          "internalType": "address",
          "name": "heroToken",
          "type": "address"
        },
        {
          "indexed": false,
          "internalType": "uint256",
          "name": "heroTokenId",
          "type": "uint256"
        },
        {
          "components": [
            {
              "internalType": "uint32",
              "name": "level",
              "type": "uint32"
            },
            {
              "internalType": "uint32",
              "name": "experience",
              "type": "uint32"
            },
            {
              "internalType": "uint32",
              "name": "life",
              "type": "uint32"
            },
            {
              "internalType": "uint32",
              "name": "mana",
              "type": "uint32"
            },
            {
              "internalType": "uint32",
              "name": "lifeChances",
              "type": "uint32"
            }
          ],
          "indexed": false,
          "internalType": "struct IStatController.ChangeableStats",
          "name": "stats",
          "type": "tuple"
        }
      ],
      "name": "NewHeroInited",
      "type": "event"
    },
    {
      "anonymous": false,
      "inputs": [
        {
          "indexed": false,
          "internalType": "address",
          "name": "heroToken",
          "type": "address"
        },
        {
          "indexed": false,
          "internalType": "uint256",
          "name": "heroTokenId",
          "type": "uint256"
        },
        {
          "indexed": false,
          "internalType": "address",
          "name": "item",
          "type": "address"
        }
      ],
      "name": "RemoveConsumableUsage",
      "type": "event"
    },
    {
      "anonymous": false,
      "inputs": [
        {
          "indexed": false,
          "internalType": "uint256",
          "name": "value",
          "type": "uint256"
        },
        {
          "indexed": false,
          "internalType": "address",
          "name": "oldLogic",
          "type": "address"
        }
      ],
      "name": "RevisionIncreased",
      "type": "event"
    },
    {
      "anonymous": false,
      "inputs": [
        {
          "indexed": false,
          "internalType": "address",
          "name": "heroToken",
          "type": "address"
        },
        {
          "indexed": false,
          "internalType": "uint256",
          "name": "heroTokenId",
          "type": "uint256"
        },
        {
          "indexed": false,
          "internalType": "address",
          "name": "caller",
          "type": "address"
        }
      ],
      "name": "TemporallyAttributesCleared",
      "type": "event"
    },
    {
      "inputs": [],
      "name": "CONTROLLABLE_VERSION",
      "outputs": [
        {
          "internalType": "string",
          "name": "",
          "type": "string"
        }
      ],
      "stateMutability": "view",
      "type": "function"
    },
    {
      "inputs": [],
      "name": "VERSION",
      "outputs": [
        {
          "internalType": "string",
          "name": "",
          "type": "string"
        }
      ],
      "stateMutability": "view",
      "type": "function"
    },
    {
      "inputs": [
        {
          "components": [
            {
              "internalType": "address",
              "name": "heroToken",
              "type": "address"
            },
            {
              "internalType": "uint256",
              "name": "heroTokenId",
              "type": "uint256"
            },
            {
              "internalType": "uint32",
              "name": "heroLevel",
              "type": "uint32"
            },
            {
              "internalType": "address[]",
              "name": "buffTokens",
              "type": "address[]"
            },
            {
              "internalType": "uint256[]",
              "name": "buffTokenIds",
              "type": "uint256[]"
            }
          ],
          "internalType": "struct IStatController.BuffInfo",
          "name": "info",
          "type": "tuple"
        }
      ],
      "name": "buffHero",
      "outputs": [
        {
          "internalType": "int32[]",
          "name": "",
          "type": "int32[]"
        },
        {
          "internalType": "int32",
          "name": "",
          "type": "int32"
        }
      ],
      "stateMutability": "view",
      "type": "function"
    },
    {
      "inputs": [
        {
          "components": [
            {
              "internalType": "address",
              "name": "heroToken",
              "type": "address"
            },
            {
              "internalType": "uint256",
              "name": "heroTokenId",
              "type": "uint256"
            },
            {
              "internalType": "int32[]",
              "name": "changeAttributes",
              "type": "int32[]"
            },
            {
              "internalType": "bool",
              "name": "add",
              "type": "bool"
            },
            {
              "internalType": "bool",
              "name": "temporally",
              "type": "bool"
            }
          ],
          "internalType": "struct IStatController.ChangeAttributesInfo",
          "name": "info",
          "type": "tuple"
        }
      ],
      "name": "changeBonusAttributes",
      "outputs": [],
      "stateMutability": "nonpayable",
      "type": "function"
    },
    {
      "inputs": [
        {
          "internalType": "address",
          "name": "heroToken",
          "type": "address"
        },
        {
          "internalType": "uint256",
          "name": "heroTokenId",
          "type": "uint256"
        },
        {
          "components": [
            {
              "internalType": "uint32",
              "name": "level",
              "type": "uint32"
            },
            {
              "internalType": "uint32",
              "name": "experience",
              "type": "uint32"
            },
            {
              "internalType": "uint32",
              "name": "life",
              "type": "uint32"
            },
            {
              "internalType": "uint32",
              "name": "mana",
              "type": "uint32"
            },
            {
              "internalType": "uint32",
              "name": "lifeChances",
              "type": "uint32"
            }
          ],
          "internalType": "struct IStatController.ChangeableStats",
          "name": "change",
          "type": "tuple"
        },
        {
          "internalType": "bool",
          "name": "increase",
          "type": "bool"
        }
      ],
      "name": "changeCurrentStats",
      "outputs": [],
      "stateMutability": "nonpayable",
      "type": "function"
    },
    {
      "inputs": [
        {
          "internalType": "address",
          "name": "heroToken",
          "type": "address"
        },
        {
          "internalType": "uint64",
          "name": "heroTokenId",
          "type": "uint64"
        },
        {
          "internalType": "uint256",
          "name": "itemType",
          "type": "uint256"
        },
        {
          "internalType": "uint8",
          "name": "itemSlot",
          "type": "uint8"
        },
        {
          "internalType": "address",
          "name": "itemToken",
          "type": "address"
        },
        {
          "internalType": "uint256",
          "name": "itemTokenId",
          "type": "uint256"
        },
        {
          "internalType": "bool",
          "name": "equip",
          "type": "bool"
        }
      ],
      "name": "changeHeroItemSlot",
      "outputs": [],
      "stateMutability": "nonpayable",
      "type": "function"
    },
    {
      "inputs": [
        {
          "internalType": "address",
          "name": "heroToken",
          "type": "address"
        },
        {
          "internalType": "uint256",
          "name": "heroTokenId",
          "type": "uint256"
        }
      ],
      "name": "clearTemporallyAttributes",
      "outputs": [],
      "stateMutability": "nonpayable",
      "type": "function"
    },
    {
      "inputs": [
        {
          "internalType": "address",
          "name": "heroToken",
          "type": "address"
        },
        {
          "internalType": "uint256",
          "name": "heroTokenId",
          "type": "uint256"
        }
      ],
      "name": "clearUsedConsumables",
      "outputs": [],
      "stateMutability": "nonpayable",
      "type": "function"
    },
    {
      "inputs": [],
      "name": "controller",
      "outputs": [
        {
          "internalType": "address",
          "name": "",
          "type": "address"
        }
      ],
      "stateMutability": "view",
      "type": "function"
    },
    {
      "inputs": [],
      "name": "created",
      "outputs": [
        {
          "internalType": "uint256",
          "name": "",
          "type": "uint256"
        }
      ],
      "stateMutability": "view",
      "type": "function"
    },
    {
      "inputs": [],
      "name": "createdBlock",
      "outputs": [
        {
          "internalType": "uint256",
          "name": "",
          "type": "uint256"
        }
      ],
      "stateMutability": "view",
      "type": "function"
    },
    {
      "inputs": [
        {
          "internalType": "bytes32",
          "name": "index",
          "type": "bytes32"
        }
      ],
      "name": "globalCustomData",
      "outputs": [
        {
          "internalType": "uint256",
          "name": "",
          "type": "uint256"
        }
      ],
      "stateMutability": "view",
      "type": "function"
    },
    {
      "inputs": [
        {
          "internalType": "address",
          "name": "token",
          "type": "address"
        },
        {
          "internalType": "uint256",
          "name": "tokenId",
          "type": "uint256"
        },
        {
          "internalType": "uint256",
          "name": "index",
          "type": "uint256"
        }
      ],
      "name": "heroAttribute",
      "outputs": [
        {
          "internalType": "int32",
          "name": "",
          "type": "int32"
        }
      ],
      "stateMutability": "view",
      "type": "function"
    },
    {
      "inputs": [
        {
          "internalType": "address",
          "name": "token",
          "type": "address"
        },
        {
          "internalType": "uint256",
          "name": "tokenId",
          "type": "uint256"
        }
      ],
      "name": "heroAttributes",
      "outputs": [
        {
          "internalType": "int32[]",
          "name": "",
          "type": "int32[]"
        }
      ],
      "stateMutability": "view",
      "type": "function"
    },
    {
      "inputs": [
        {
          "internalType": "address",
          "name": "token",
          "type": "address"
        },
        {
          "internalType": "uint256",
          "name": "tokenId",
          "type": "uint256"
        }
      ],
      "name": "heroAttributesLength",
      "outputs": [
        {
          "internalType": "uint256",
          "name": "",
          "type": "uint256"
        }
      ],
      "stateMutability": "pure",
      "type": "function"
    },
    {
      "inputs": [
        {
          "internalType": "address",
          "name": "token",
          "type": "address"
        },
        {
          "internalType": "uint256",
          "name": "tokenId",
          "type": "uint256"
        }
      ],
      "name": "heroBaseAttributes",
      "outputs": [
        {
          "components": [
            {
              "internalType": "int32",
              "name": "strength",
              "type": "int32"
            },
            {
              "internalType": "int32",
              "name": "dexterity",
              "type": "int32"
            },
            {
              "internalType": "int32",
              "name": "vitality",
              "type": "int32"
            },
            {
              "internalType": "int32",
              "name": "energy",
              "type": "int32"
            }
          ],
          "internalType": "struct IStatController.CoreAttributes",
          "name": "core",
          "type": "tuple"
        }
      ],
      "stateMutability": "view",
      "type": "function"
    },
    {
      "inputs": [
        {
          "internalType": "address",
          "name": "token",
          "type": "address"
        },
        {
          "internalType": "uint256",
          "name": "tokenId",
          "type": "uint256"
        }
      ],
      "name": "heroBonusAttributes",
      "outputs": [
        {
          "internalType": "int32[]",
          "name": "",
          "type": "int32[]"
        }
      ],
      "stateMutability": "view",
      "type": "function"
    },
    {
      "inputs": [
        {
          "internalType": "address",
          "name": "token",
          "type": "address"
        },
        {
          "internalType": "uint256",
          "name": "tokenId",
          "type": "uint256"
        },
        {
          "internalType": "bytes32",
          "name": "index",
          "type": "bytes32"
        }
      ],
      "name": "heroCustomData",
      "outputs": [
        {
          "internalType": "uint256",
          "name": "",
          "type": "uint256"
        }
      ],
      "stateMutability": "view",
      "type": "function"
    },
    {
      "inputs": [
        {
          "internalType": "uint256",
          "name": "heroClass",
          "type": "uint256"
        }
      ],
      "name": "heroInitialAttributes",
      "outputs": [
        {
          "components": [
            {
              "components": [
                {
                  "internalType": "int32",
                  "name": "strength",
                  "type": "int32"
                },
                {
                  "internalType": "int32",
                  "name": "dexterity",
                  "type": "int32"
                },
                {
                  "internalType": "int32",
                  "name": "vitality",
                  "type": "int32"
                },
                {
                  "internalType": "int32",
                  "name": "energy",
                  "type": "int32"
                }
              ],
              "internalType": "struct IStatController.CoreAttributes",
              "name": "core",
              "type": "tuple"
            },
            {
              "components": [
                {
                  "internalType": "uint256",
                  "name": "minDamage",
                  "type": "uint256"
                },
                {
                  "internalType": "uint256",
                  "name": "maxDamage",
                  "type": "uint256"
                },
                {
                  "internalType": "uint256",
                  "name": "attackRating",
                  "type": "uint256"
                },
                {
                  "internalType": "uint256",
                  "name": "defense",
                  "type": "uint256"
                },
                {
                  "internalType": "uint256",
                  "name": "blockRating",
                  "type": "uint256"
                },
                {
                  "internalType": "uint256",
                  "name": "life",
                  "type": "uint256"
                },
                {
                  "internalType": "uint256",
                  "name": "mana",
                  "type": "uint256"
                }
              ],
              "internalType": "struct StatLib.BaseMultiplier",
              "name": "multiplier",
              "type": "tuple"
            },
            {
              "components": [
                {
                  "internalType": "uint256",
                  "name": "life",
                  "type": "uint256"
                },
                {
                  "internalType": "uint256",
                  "name": "mana",
                  "type": "uint256"
                }
              ],
              "internalType": "struct StatLib.LevelUp",
              "name": "levelUp",
              "type": "tuple"
            },
            {
              "internalType": "int32",
              "name": "baseLifeChances",
              "type": "int32"
            }
          ],
          "internalType": "struct StatLib.InitialHero",
          "name": "",
          "type": "tuple"
        }
      ],
      "stateMutability": "pure",
      "type": "function"
    },
    {
      "inputs": [
        {
          "internalType": "address",
          "name": "heroToken",
          "type": "address"
        },
        {
          "internalType": "uint64",
          "name": "heroTokenId",
          "type": "uint64"
        },
        {
          "internalType": "uint8",
          "name": "itemSlot",
          "type": "uint8"
        }
      ],
      "name": "heroItemSlot",
      "outputs": [
        {
          "internalType": "bytes32",
          "name": "nftPacked",
          "type": "bytes32"
        }
      ],
      "stateMutability": "view",
      "type": "function"
    },
    {
      "inputs": [
        {
          "internalType": "address",
          "name": "heroToken",
          "type": "address"
        },
        {
          "internalType": "uint256",
          "name": "heroTokenId",
          "type": "uint256"
        }
      ],
      "name": "heroItemSlots",
      "outputs": [
        {
          "internalType": "uint8[]",
          "name": "",
          "type": "uint8[]"
        }
      ],
      "stateMutability": "view",
      "type": "function"
    },
    {
      "inputs": [
        {
          "internalType": "address",
          "name": "token",
          "type": "address"
        },
        {
          "internalType": "uint256",
          "name": "tokenId",
          "type": "uint256"
        }
      ],
      "name": "heroStats",
      "outputs": [
        {
          "components": [
            {
              "internalType": "uint32",
              "name": "level",
              "type": "uint32"
            },
            {
              "internalType": "uint32",
              "name": "experience",
              "type": "uint32"
            },
            {
              "internalType": "uint32",
              "name": "life",
              "type": "uint32"
            },
            {
              "internalType": "uint32",
              "name": "mana",
              "type": "uint32"
            },
            {
              "internalType": "uint32",
              "name": "lifeChances",
              "type": "uint32"
            }
          ],
          "internalType": "struct IStatController.ChangeableStats",
          "name": "result",
          "type": "tuple"
        }
      ],
      "stateMutability": "view",
      "type": "function"
    },
    {
      "inputs": [
        {
          "internalType": "address",
          "name": "token",
          "type": "address"
        },
        {
          "internalType": "uint256",
          "name": "tokenId",
          "type": "uint256"
        }
      ],
      "name": "heroTemporallyAttributes",
      "outputs": [
        {
          "internalType": "int32[]",
          "name": "",
          "type": "int32[]"
        }
      ],
      "stateMutability": "view",
      "type": "function"
    },
    {
      "inputs": [
        {
          "internalType": "address",
          "name": "oldLogic",
          "type": "address"
        }
      ],
      "name": "increaseRevision",
      "outputs": [],
      "stateMutability": "nonpayable",
      "type": "function"
    },
    {
      "inputs": [
        {
          "internalType": "address",
          "name": "controller_",
          "type": "address"
        }
      ],
      "name": "init",
      "outputs": [],
      "stateMutability": "nonpayable",
      "type": "function"
    },
    {
      "inputs": [
        {
          "internalType": "address",
          "name": "heroToken",
          "type": "address"
        },
        {
          "internalType": "uint256",
          "name": "heroTokenId",
          "type": "uint256"
        },
        {
          "internalType": "uint256",
          "name": "heroClass",
          "type": "uint256"
        }
      ],
      "name": "initNewHero",
      "outputs": [],
      "stateMutability": "nonpayable",
      "type": "function"
    },
    {
      "inputs": [
        {
          "internalType": "address",
          "name": "heroToken",
          "type": "address"
        },
        {
          "internalType": "uint256",
          "name": "heroTokenId",
          "type": "uint256"
        },
        {
          "internalType": "address",
          "name": "item",
          "type": "address"
        }
      ],
      "name": "isConsumableUsed",
      "outputs": [
        {
          "internalType": "bool",
          "name": "",
          "type": "bool"
        }
      ],
      "stateMutability": "view",
      "type": "function"
    },
    {
      "inputs": [
        {
          "internalType": "address",
          "name": "value_",
          "type": "address"
        }
      ],
      "name": "isController",
      "outputs": [
        {
          "internalType": "bool",
          "name": "",
          "type": "bool"
        }
      ],
      "stateMutability": "view",
      "type": "function"
    },
    {
      "inputs": [
        {
          "internalType": "address",
          "name": "value_",
          "type": "address"
        }
      ],
      "name": "isGovernance",
      "outputs": [
        {
          "internalType": "bool",
          "name": "",
          "type": "bool"
        }
      ],
      "stateMutability": "view",
      "type": "function"
    },
    {
      "inputs": [
        {
          "internalType": "address",
          "name": "heroToken",
          "type": "address"
        },
        {
          "internalType": "uint256",
          "name": "heroTokenId",
          "type": "uint256"
        }
      ],
      "name": "isHeroAlive",
      "outputs": [
        {
          "internalType": "bool",
          "name": "",
          "type": "bool"
        }
      ],
      "stateMutability": "view",
      "type": "function"
    },
    {
      "inputs": [
        {
          "internalType": "uint32",
          "name": "level",
          "type": "uint32"
        }
      ],
      "name": "levelExperience",
      "outputs": [
        {
          "internalType": "uint256",
          "name": "",
          "type": "uint256"
        }
      ],
      "stateMutability": "pure",
      "type": "function"
    },
    {
      "inputs": [
        {
          "internalType": "address",
          "name": "heroToken",
          "type": "address"
        },
        {
          "internalType": "uint256",
          "name": "heroTokenId",
          "type": "uint256"
        },
        {
          "internalType": "uint256",
          "name": "heroClass",
          "type": "uint256"
        },
        {
          "components": [
            {
              "internalType": "int32",
              "name": "strength",
              "type": "int32"
            },
            {
              "internalType": "int32",
              "name": "dexterity",
              "type": "int32"
            },
            {
              "internalType": "int32",
              "name": "vitality",
              "type": "int32"
            },
            {
              "internalType": "int32",
              "name": "energy",
              "type": "int32"
            }
          ],
          "internalType": "struct IStatController.CoreAttributes",
          "name": "change",
          "type": "tuple"
        }
      ],
      "name": "levelUp",
      "outputs": [
        {
          "internalType": "uint256",
          "name": "newLvl",
          "type": "uint256"
        }
      ],
      "stateMutability": "nonpayable",
      "type": "function"
    },
    {
      "inputs": [
        {
          "internalType": "uint32",
          "name": "level",
          "type": "uint32"
        }
      ],
      "name": "levelUpExperienceRequired",
      "outputs": [
        {
          "internalType": "uint256",
          "name": "",
          "type": "uint256"
        }
      ],
      "stateMutability": "pure",
      "type": "function"
    },
    {
      "inputs": [],
      "name": "previousImplementation",
      "outputs": [
        {
          "internalType": "address",
          "name": "",
          "type": "address"
        }
      ],
      "stateMutability": "view",
      "type": "function"
    },
    {
      "inputs": [
        {
          "internalType": "address",
          "name": "heroToken",
          "type": "address"
        },
        {
          "internalType": "uint256",
          "name": "heroTokenId",
          "type": "uint256"
        },
        {
          "internalType": "address",
          "name": "item",
          "type": "address"
        }
      ],
      "name": "registerConsumableUsage",
      "outputs": [],
      "stateMutability": "nonpayable",
      "type": "function"
    },
    {
      "inputs": [
        {
          "internalType": "address",
          "name": "heroToken",
          "type": "address"
        },
        {
          "internalType": "uint256",
          "name": "heroTokenId",
          "type": "uint256"
        },
        {
          "internalType": "int32[]",
          "name": "prevAttributes",
          "type": "int32[]"
        }
      ],
      "name": "restoreLifeAndMana",
      "outputs": [],
      "stateMutability": "nonpayable",
      "type": "function"
    },
    {
      "inputs": [],
      "name": "revision",
      "outputs": [
        {
          "internalType": "uint256",
          "name": "",
          "type": "uint256"
        }
      ],
      "stateMutability": "view",
      "type": "function"
    },
    {
      "inputs": [
        {
          "internalType": "bytes32",
          "name": "index",
          "type": "bytes32"
        },
        {
          "internalType": "uint256",
          "name": "value",
          "type": "uint256"
        }
      ],
      "name": "setGlobalCustomData",
      "outputs": [],
      "stateMutability": "nonpayable",
      "type": "function"
    },
    {
      "inputs": [
        {
          "internalType": "address",
          "name": "token",
          "type": "address"
        },
        {
          "internalType": "uint256",
          "name": "tokenId",
          "type": "uint256"
        },
        {
          "internalType": "bytes32",
          "name": "index",
          "type": "bytes32"
        },
        {
          "internalType": "uint256",
          "name": "value",
          "type": "uint256"
        }
      ],
      "name": "setHeroCustomData",
      "outputs": [],
      "stateMutability": "nonpayable",
      "type": "function"
    }
  ],
  "transactionHash": "0xfa3ae71a7e5906dd5eecae96506c61f4d74ae934e98174310accfdee3964226a",
  "args": [],
  "numDeployments": 27,
  "solcInputHash": "26aa46af27336d196c04997c06413167",
  "bytecode": "0x60806040523480156200001157600080fd5b507ff0c57e16840df040f15088dc2f81fe391c3923bec73e23a9662efc9c229c6a00805468010000000000000000810460ff1615906001600160401b03166000811580156200005d5750825b90506000826001600160401b031660011480156200007a5750303b155b90508115801562000089575080155b15620000a85760405163f92ee8a960e01b815260040160405180910390fd5b84546001600160401b03191660011785558315620000d757845460ff60401b1916680100000000000000001785555b83156200011e57845460ff60401b19168555604051600181527fc7f505b2f371ae2175ee4913f4499e1f2633a7b5936321eed1cdaeb6115181d29060200160405180910390a15b5050505050615ea780620001336000396000f3fe608060405234801561001057600080fd5b50600436106101fd5760003560e01c80635d015a9a1161011b578063af6a5722116100a8578063af6a572214610495578063afb1a9ed146104a8578063b429afeb146104bb578063cf536690146104ce578063d4ac4848146104e1578063dee1f0e414610501578063f16a306614610514578063f77c479114610527578063fbed9ac51461052f578063ffa1ad741461054f57600080fd5b80635d015a9a146103c25780636bad2ebd146103d55780637527a8c0146103e85780637ac46f97146103fb5780637cc963801461040e578063906f0ced14610416578063936725ec1461042957806395e34c341461045a5780639d0bcca01461046d5780639ff45dbe1461048257600080fd5b8063236715f011610199578063236715f0146102ef578063271d229e1461030f578063325a19f11461032257806333237c091461032a5780633a6589511461033d5780633bdb788b146103605780633e4d93f6146103735780634593144c146103865780634fac6ccd1461038e57806357e9ee7b146103a157600080fd5b80630a82c861146102025780630f82ecaf1461022857806314e4105a1461023d578063184f61431461025057806319ab453c146102635780631c2aafe7146102765780631f051fa0146102895780631f74d4b2146102a957806320a7d299146102c9575b600080fd5b610215610210366004614ea6565b610573565b6040519081526020015b60405180910390f35b61023b610236366004614ebf565b61059c565b005b61023b61024b366004614ef6565b6105ba565b61023b61025e366004614f22565b6105d4565b61023b610271366004614f5d565b6105f6565b610215610284366004614f7a565b6106f1565b61029c610297366004614ef6565b61070e565b60405161021f9190614fee565b6102bc6102b7366004614ef6565b610729565b60405161021f9190615033565b6102dc6102d7366004614f7a565b610743565b60405160039190910b815260200161021f565b6103026102fd366004614ea6565b610758565b60405161021f9190615041565b61023b61031d3660046150d4565b610769565b610215610789565b61023b610338366004614f7a565b6107c2565b61035061034b3660046150d4565b6107dd565b604051901515815260200161021f565b61021561036e36600461513c565b6107f2565b61021561038136600461518c565b610807565b61021561081e565b61023b61039c366004614f5d565b61084e565b6103b46103af366004615356565b61095f565b60405161021f929190615416565b61023b6103d03660046154b2565b610985565b6102156103e3366004614ef6565b6109a0565b6102156103f636600461518c565b6109ac565b61023b610409366004614ef6565b6109b7565b6102156109d1565b61023b61042436600461551a565b6109ef565b61044d604051806040016040528060058152602001640312e302e360dc1b81525081565b60405161021f9190615598565b61029c610468366004614ef6565b610a17565b610475610a2b565b60405161021f91906155e7565b61023b6104903660046155fb565b610a5b565b6102156104a33660046156a6565b610a77565b61023b6104b6366004615747565b610a9e565b6103506104c9366004614f5d565b610aba565b61029c6104dc366004614ef6565b610adf565b6104f46104ef366004614ef6565b610af3565b60405161021f9190615843565b61035061050f366004614f5d565b610b0d565b610350610522366004614ef6565b610b92565b610475610ba6565b61054261053d366004614ef6565b610bd6565b60405161021f9190615851565b61044d60405180604001604052806005815260200164191718971960d91b81525081565b6000610596610580610bea565b6000848152600991909101602052604090205490565b92915050565b6105b66105a7610bea565b6105af610ba6565b8484610c0e565b5050565b6105b66105c5610bea565b6105cd610ba6565b8484610c6a565b6105f06105df610bea565b6105e7610ba6565b86868686610e74565b50505050565b6000610600610f07565b805490915060ff600160401b82041615906001600160401b03166000811580156106275750825b90506000826001600160401b031660011480156106435750303b155b905081158015610651575080155b1561066f5760405163f92ee8a960e01b815260040160405180910390fd5b845467ffffffffffffffff19166001178555831561069957845460ff60401b1916600160401b1785555b6106a286610f2b565b83156106e957845460ff60401b19168555604051600181527fc7f505b2f371ae2175ee4913f4499e1f2633a7b5936321eed1cdaeb6115181d2906020015b60405180910390a15b505050505050565b60006107066106fe610bea565b858585610f3c565b949350505050565b606061072261071b610bea565b8484610f78565b9392505050565b610731614d98565b61072261073c610bea565b8484610ff5565b6000610706610750610bea565b8585856110c7565b610760614dbf565b610596826110ec565b610784610774610bea565b61077c610ba6565b858585611175565b505050565b60006107bd6107b960017f6f55f470bdc9cb5f04223fd822021061668e4dccb43e8727b295106dc9769c8b6158ae565b5490565b905090565b6107846107cd610bea565b6107d5610ba6565b85858561120e565b60006107066107ea610bea565b858585611416565b60006107066107ff610bea565b858585611448565b600061081282611474565b63ffffffff1692915050565b60006107bd6107b960017f812a673dfca07956350df10f8a654925f561d7a0da09bdbe79e653939a14d9f16158ae565b3330146108a05760405162461bcd60e51b815260206004820152601b60248201527a24b731b932b0b9b2903932bb34b9b4b7b7103337b93134b23232b760291b60448201526064015b60405180910390fd5b60006108be6107b96001600080516020615e328339815191526158ae565b6108c99060016158c1565b90506108eb816108e86001600080516020615e328339815191526158ae565b55565b61091a826108e860017fbfaaa2fb63266ff27c2da975f5894955056f50419af651a81f6c5060581857e46158ae565b604080518281526001600160a01b03841660208201527ff27e2ef832a4eb8ed8ec553b875eecd44764cda95b1c24170e281539e0a869c8910160405180910390a15050565b6060600061097c61096e610bea565b610976610ba6565b85611515565b91509150915091565b610784610990610bea565b610998610ba6565b8585856119b3565b60006107228383611a93565b600061059682611a9c565b6105b66109c2610bea565b6109ca610ba6565b8484611b07565b60006107bd6107b96001600080516020615e328339815191526158ae565b610a0e6109fa610bea565b610a02610ba6565b89898989898989611bc3565b50505050505050565b6060610722610a24610bea565b8484611e83565b60006107bd6107b960017fbfaaa2fb63266ff27c2da975f5894955056f50419af651a81f6c5060581857e46158ae565b610a74610a66610bea565b610a6e610ba6565b83611e98565b50565b6000610a95610a84610bea565b610a8c610ba6565b878787876120e9565b95945050505050565b6105f0610aa9610bea565b610ab1610ba6565b86868686612485565b6000610ac4610ba6565b6001600160a01b0316826001600160a01b0316149050919050565b6060610722610aec610bea565b84846126ac565b610afb614e46565b610722610b06610bea565b84846126c1565b6000816001600160a01b0316610b21610ba6565b6001600160a01b0316635aa6e6756040518163ffffffff1660e01b8152600401602060405180830381865afa158015610b5e573d6000803e3d6000fd5b505050506040513d601f19601f82011682018060405250810190610b8291906158d4565b6001600160a01b03161492915050565b6000610722610b9f610bea565b84846127c5565b60006107bd6107b960017f5165972ef41194f06c5007493031d0b927c20741adcb74403b954009fd2c36186158ae565b6060610722610be3610bea565b84846127e6565b7fca9e8235a410bd2656fc43f888ab589425034944963c2881072ee821e700e60090565b610c1783612973565b600082815260098501602090815260409182902083905581518481529081018390527feacbaeebfddf6fe98883b2aebd3ab60c079050480c8e910625719e1f1c949fb2910160405180910390a150505050565b610c7383612973565b6000610c7f8383612c0b565b6000818152600387016020908152604080832080548251818502810185019093528083529495509293909291830182828015610cda57602002820191906000526020600020905b815481526020019060010190808311610cc6575b505050505090506000610cee8786866126c1565b600084815260028901602090815260408083208b83528184208251602b80825261058082019094529596509094909392909190820161056080368337505060408051602b80825261058082019092529293506000929150602082016105608036833701905050905060005b602b811015610de5576000610d6e8883612c5b565b9050600381900b15610ddc57610d8f82610d8783615907565b879190612cbf565b50848381518110610da257610da261592a565b602002602001018160030b60030b8152505080838381518110610dc757610dc761592a565b602002602001019060030b908160030b815250505b50600101610d59565b50600087815260038c0160205260408120610dff91614e74565b600087815260038c0160205260409020610e1f8b8587848a8f8989612d11565b610e2b8c898689612d7f565b7fe4463ace42a449d7bf063bb8fa11b72c776ab039ad1e72d287d73e47c8de0d218a8a33604051610e5e93929190615940565b60405180910390a1505050505050505050505050565b610e7d85612973565b644b41524d4160d81b82148015610e92575080155b15610eb057604051633757c0e960e21b815260040160405180910390fd5b80866008016000610ec18787612c0b565b8152602001908152602001600020600084815260200190815260200160002081905550600080516020615e52833981519152848484846040516106e09493929190615963565b7ff0c57e16840df040f15088dc2f81fe391c3923bec73e23a9662efc9c229c6a0090565b610f33612e37565b610a7481612e5e565b6000846008016000610f4e8686612c0b565b81526020019081526020016000206000838152602001908152602001600020549050949350505050565b6060610706846000610f8a8686612c0b565b8152602001908152602001600020805480602002602001604051908101604052809291908181526020018280548015610fe257602002820191906000526020600020905b815481526020019060010190808311610fce575b50602b9350610ff092505050565b612f7d565b610ffd614d98565b60006110268560010160006110128787612c0b565b81526020019081526020016000205461304d565b90506040518060800160405280826000815181106110465761104661592a565b602002602001015160030b8152602001826001815181106110695761106961592a565b602002602001015160030b81526020018260028151811061108c5761108c61592a565b602002602001015160030b8152602001826003815181106110af576110af61592a565b602002602001015160030b8152509150509392505050565b6000610a9585826110d88787612c0b565b8152602001908152602001600020836130c7565b6110f4614dbf565b816001036111045761059661312b565b816002036111145761059661321b565b816003036111245761059661330b565b81600403611134576105966133fb565b81600503611144576105966134eb565b81600603611154576105966135db565b604051635613365f60e11b815260048101839052602401610897565b919050565b61117e84612973565b6111ae818660070160006111928787612c0b565b81526020019081526020016000206136cb90919063ffffffff16565b6111cc578060405162f5d9b360e21b815260040161089791906155e7565b7fc6a0e07638c51d1c81ce988c90724173ebe207b85cd9b4563e34460940623e3d8383836040516111ff93929190615940565b60405180910390a15050505050565b611217846136e0565b60006112238484612c0b565b9050611230868284613775565b6000818152602087905260408120906112558285600161124f826110ec565b5161387c565b9050611262888483613a3e565b7f04bfc2c521fc80553ed48f0c6811371ee4c7f94f912eba0835d44c6e07b06f8586866040518060a00160405280600163ffffffff168152602001600063ffffffff168152602001856000815181106112bd576112bd61592a565b602002602001015163ffffffff168152602001856001815181106112e3576112e361592a565b602002602001015163ffffffff168152602001856002815181106113095761130961592a565b602002602001015163ffffffff1681525060405161132993929190615989565b60405180910390a160008381526008890160209081526040808320644b41524d4160d81b80855292819052928190206103e8908190559051600080516020615e5283398151915292611380928b928b929190615963565b60405180910390a1694845524f5f434c41535360b01b6000818152602083905260409081902087905551600080516020615e52833981519152916113c9918a918a918a90615963565b60405180910390a1600080516020615e5283398151915287876a111150551217d0d3d5539560aa1b60006040516114039493929190615963565b60405180910390a1505050505050505050565b6000610a958286600701600061142c8888612c0b565b8152602001908152602001600020613a9d90919063ffffffff16565b600084600501600061145b868686613abf565b8152602001908152602001600020549050949350505050565b600063ffffffff821615806114905750606363ffffffff831610155b1561149d57506000919050565b670de0b6b3a76400006114dc6114b48460636159ad565b6114bf9060026159ca565b6114d79063ffffffff16670de0b6b3a76400006159e7565b613af4565b6114ee90675cfb2e807b1e00006158ae565b611501620186a063ffffffff86166159e7565b61150b91906159e7565b6105969190615a14565b60608181015151600090808203611545576115398685600001518660200151610f78565b600092509250506119ab565b6000856001600160a01b03166331423c266040518163ffffffff1660e01b8152600401602060405180830381865afa158015611585573d6000803e3d6000fd5b505050506040513d601f19601f820116820180604052508101906115a991906158d4565b60408051602b80825261058082019092529192506000919060208201610560803683370190505090506000836001600160401b038111156115ec576115ec6151a9565b604051908082528060200260200182016040528015611615578160200160208202803683370190505b50905060005b8481101561186f576000805b8281101561168f57896060015183815181106116455761164561592a565b60200260200101516001600160a01b03168482815181106116685761166861592a565b60200260200101516001600160a01b031603611687576001915061168f565b600101611627565b50801561169c5750611867565b846001600160a01b03166382b538de8a6060015184815181106116c1576116c161592a565b60200260200101516040518263ffffffff1660e01b81526004016116e591906155e7565b61018060405180830381865afa158015611703573d6000803e3d6000fd5b505050506040513d601f19601f820116820180604052508101906117279190615ac7565b60a001516117359088615b7e565b9650600080866001600160a01b031663010759758c60600151868151811061175f5761175f61592a565b60200260200101518d60800151878151811061177d5761177d61592a565b60200260200101516040518363ffffffff1660e01b81526004016117b69291906001600160a01b03929092168252602082015260400190565b600060405180830381865afa1580156117d3573d6000803e3d6000fd5b505050506040513d6000823e601f3d908101601f191682016040526117fb9190810190615c0d565b915091506118128661180d8484613bd5565b613c7c565b508a6060015184815181106118295761182961592a565b60200260200101518585815181106118435761184361592a565b60200260200101906001600160a01b031690816001600160a01b0316815250505050505b60010161161b565b50600061188e6118888b8a600001518b60200151610f78565b84613c7c565b90506118a78361180d8c8b600001518c602001516126ac565b506118bf8361180d8c8b600001518c60200151611e83565b506119a381848b6001600160a01b031663016dff5d6040518163ffffffff1660e01b8152600401602060405180830381865afa158015611903573d6000803e3d6000fd5b505050506040513d601f19601f8201168201806040525081019061192791906158d4565b8b51604051631789b7b160e01b81526001600160a01b039290921691631789b7b191611955916004016155e7565b602060405180830381865afa158015611972573d6000803e3d6000fd5b505050506040513d601f19601f820116820180604052508101906119969190615cd1565b60ff168b60400151613cda565b965050505050505b935093915050565b6119bc846136e0565b60006119c98685856126c1565b905060006119d78585612c0b565b6000818152602089905260409020909150611a196119f860095b83906130c7565b8560095b81518110611a0c57611a0c61592a565b6020026020010151613ffd565b83604001818151611a2a91906159ca565b63ffffffff16905250611a48611a40600a6119f1565b85600a6119fc565b83606001818151611a5991906159ca565b63ffffffff1690525082516020840151604085015160608601516080870151611a89948d94889491939092614027565b5050505050505050565b6000602b610722565b600063ffffffff82161580611ab85750606363ffffffff831610155b15611ac557506000919050565b63ffffffff8216600114611afe57611ae6611ae16001846159ad565b611474565b611aef83611474565b611af991906159ad565b610812565b61081282611474565b611b1083612973565b6000846007016000611b228585612c0b565b815260200190815260200160002090506000611b3d8261417a565b905060005b81811015610a0e576000611b568482614184565b9050611b628482614190565b611b7f57604051630cd274c160e41b815260040160405180910390fd5b7f990d1d901983cf7739aa5466bcf829c3a1266cd06d92c460cc8bea285cddc800868683604051611bb293929190615940565b60405180910390a150600101611b42565b611bcc886141a5565b611bd9858560ff1661423a565b611c02576040516329c8542d60e11b81526004810186905260ff85166024820152604401610897565b600b8460ff1603611c59576000611c1c8a89896009611448565b141580611c3657506000611c338a8989600a611448565b14155b15611c595760405163160400f960e01b815260ff85166004820152602401610897565b60098460ff161480611c6e5750600a8460ff16145b15611ca5576000611c828a8989600b611448565b14611ca55760405163160400f960e01b815260ff85166004820152602401610897565b6000611cba88886001600160401b0316612c0b565b9050600080611cd7611cce8d8c8c8b611448565b9060a082901c90565b915091508315611d72576001600160a01b03821615611d0957604051637101e8f760e11b815260040160405180910390fd5b611d138686612c0b565b8c6005016000611d248d8d8c613abf565b815260200190815260200160002081905550611d5c8c6006016000858152602001908152602001600020548860ff16600160006142e4565b600084815260068e016020526040902055611e0c565b856001600160a01b0316826001600160a01b0316141580611d935750848114155b15611db157604051631d0507df60e21b815260040160405180910390fd5b8b6005016000611dc28c8c8b613abf565b815260200190815260200160002060009055611dfa8c6006016000858152602001908152602001600020548860ff16600060016142e4565b600084815260068e0160205260409020555b604080516001600160a01b03808d1682526001600160401b038c1660208301529181018a905260ff89166060820152908716608082015260a0810186905284151560c08201523360e08201527fc6cb8c2a2f03a3e6a43771211e58b1343cb739d7404d4130a938138f0fe24f149061010001610e5e565b6060610706846003016000610f8a8686612c0b565b611ea182612973565b6000611eb582600001518360200151612c0b565b90506000611ecc85846000015185602001516126c1565b60008381526020879052604081206080860151929350918190611f0b576000858152600289016020908152604080832060038c01909252909120611f29565b6000858152600389016020908152604080832060028c019092529091205b9150915060008660400151516001600160401b03811115611f4c57611f4c6151a9565b604051908082528060200260200182016040528015611f75578160200160208202803683370190505b50905060005b87604001515181101561205857600088604001518281518110611fa057611fa061592a565b602002602001015190508060030b60001461204f576000896060015115611feb57611fcc868484612cbf565b50829050611fda88856130c7565b611fe49190615b7e565b905061201b565b61200083611ff884615907565b889190612cbf565b5082905061200e88856130c7565b6120189190615cee565b90505b612026878483614397565b808484815181106120395761203961592a565b602002602001019060030b908160030b81525050505b50600101611f7b565b5061207188858585898c60000151878e60400151612d11565b61207d89878688612d7f565b86516020808901516060808b01516080808d0151604080516001600160a01b03909816885295870194909452901515938501939093529015159083015233908201527ffce07ece8fe77b8dd7f25ce471bb0c4b9bc4a78340b4bfa97827af2307b142409060a001611403565b60006120f4866136e0565b60006121008686612c0b565b60608401516040850151602086015186519394506005936121219190615b7e565b61212b9190615b7e565b6121359190615b7e565b60030b14612156576040516342fa645360e11b815260040160405180910390fd5b60006121638988886126c1565b9050606363ffffffff16816000015163ffffffff16106121965760405163094b8de560e31b815260040160405180910390fd5b806020015163ffffffff166121b4826000015163ffffffff16611474565b63ffffffff1611156121d9576040516311c7bf1f60e31b815260040160405180910390fd5b8051816121e582615d15565b63ffffffff16905250600082815260018a0160205260408120546122089061304d565b90508460000151816000815181106122225761222261592a565b602002602001018181516122369190615b7e565b60030b90525060208501518151829060019081106122565761225661592a565b6020026020010181815161226a9190615b7e565b60030b905250604085015181518290600290811061228a5761228a61592a565b6020026020010181815161229e9190615b7e565b600390810b9091526060870151835190925083919081106122c1576122c161592a565b602002602001018181516122d59190615b7e565b60030b9052506122e48161446e565b8a600101600085815260200190815260200160002081905550506000896000016000848152602001908152602001600020905060008a6002016000858152602001908152602001600020905060008b6003016000868152602001908152602001600020905061236f8b848484888f8d600001516000602b81111561236a5761236a6158f1565b6144e8565b6123908b848484888f8d602001516001602b81111561236a5761236a6158f1565b6123b18b848484888f8d604001516002602b81111561236a5761236a6158f1565b6123d28b848484888f8d606001516003602b81111561236a5761236a6158f1565b506123ea90506123e260096119f1565b60030b61451e565b63ffffffff1660408301526124026123e2600a6119f1565b63ffffffff16606083018190528251602084015160408501516080860151612434948f94899490939092909190614027565b7f084f827316fe91358fc5d55a0d078803e03592c8f0be5630e6b51b5feb08d7f0888888886040516124699493929190615d38565b60405180910390a1505163ffffffff1698975050505050505050565b61248e85612973565b600061249a8585612c0b565b905060006124a98887876126c1565b6040810151606082015160808301519293509091851561259257600085815260208c905260408120906124dc60096119f1565b905060006124eb83600a6130c7565b905060006124fc60165b85906130c7565b90508a602001518860200181815161251491906159ca565b63ffffffff1690525061254761252d600385900b61451e565b60408d015161253c908a6159ca565b63ffffffff1661454d565b96506125676125588360030b61451e565b60608d015161253c90896159ca565b95506125876125788260030b61451e565b60808d015161253c90886159ca565b945050505050612649565b602087015163ffffffff16156125bb5760405163ca9cdbef60e01b815260040160405180910390fd5b866040015163ffffffff168363ffffffff16116125d95760006125e8565b60408701516125e890846159ad565b9250866080015163ffffffff168163ffffffff1611612608576000612617565b608087015161261790826159ad565b9050866060015163ffffffff168263ffffffff1611612637576000612646565b606087015161264690836159ad565b91505b6126608b8686600001518760200151878787614027565b7ff92789f80d24dd48838ae6569cf1fe54ca007b75af463e061bd4732677002b2b8989898933604051612697959493929190615d63565b60405180910390a15050505050505050505050565b6060610706846002016000610f8a8686612c0b565b6126c9614e46565b60006126f28560040160006126de8787612c0b565b815260200190815260200160002054614563565b90506040518060a00160405280826000815181106127125761271261592a565b602002602001015163ffffffff168152602001826001815181106127385761273861592a565b602002602001015163ffffffff1681526020018260028151811061275e5761275e61592a565b602002602001015163ffffffff168152602001826003815181106127845761278461592a565b602002602001015163ffffffff168152602001826004815181106127aa576127aa61592a565b602002602001015163ffffffff168152509150509392505050565b60006127d28484846126c1565b6080015163ffffffff161515949350505050565b606060006128118560060160006127fd8787612c0b565b8152602001908152602001600020546145d8565b9050600081516001600160401b0381111561282e5761282e6151a9565b604051908082528060200260200182016040528015612857578160200160208202803683370190505b5090506000805b835160ff168160ff1610156128cf57838160ff16815181106128825761288261592a565b602002602001015160ff166000146128c757808383815181106128a7576128a761592a565b60ff90921660209283029190910190910152816128c381615da6565b9250505b60010161285e565b506000816001600160401b038111156128ea576128ea6151a9565b604051908082528060200260200182016040528015612913578160200160208202803683370190505b50905060005b82811015612967578381815181106129335761293361592a565b602002602001015182828151811061294d5761294d61592a565b60ff90921660209283029190910190910152600101612919565b50979650505050505050565b6000339050806001600160a01b0316826001600160a01b031663016dff5d6040518163ffffffff1660e01b8152600401602060405180830381865afa1580156129c0573d6000803e3d6000fd5b505050506040513d601f19601f820116820180604052508101906129e491906158d4565b6001600160a01b031614158015612a6e5750806001600160a01b0316826001600160a01b03166331423c266040518163ffffffff1660e01b8152600401602060405180830381865afa158015612a3e573d6000803e3d6000fd5b505050506040513d601f19601f82011682018060405250810190612a6291906158d4565b6001600160a01b031614155b8015612aed5750806001600160a01b0316826001600160a01b031663683fedf76040518163ffffffff1660e01b8152600401602060405180830381865afa158015612abd573d6000803e3d6000fd5b505050506040513d601f19601f82011682018060405250810190612ae191906158d4565b6001600160a01b031614155b8015612b6c5750806001600160a01b0316826001600160a01b031663524a562f6040518163ffffffff1660e01b8152600401602060405180830381865afa158015612b3c573d6000803e3d6000fd5b505050506040513d601f19601f82011682018060405250810190612b6091906158d4565b6001600160a01b031614155b8015612beb5750806001600160a01b0316826001600160a01b03166389dd9f136040518163ffffffff1660e01b8152600401602060405180830381865afa158015612bbb573d6000803e3d6000fd5b505050506040513d601f19601f82011682018060405250810190612bdf91906158d4565b6001600160a01b031614155b156105b6578060405163f652640360e01b815260040161089791906155e7565b60006001600160401b03821115612c3857604051633995b34160e01b815260048101839052602401610897565b5067ffffffffffffffff60a01b60a09190911b166001600160a01b039091161790565b8151600090612c6b600884615a14565b10612c7857506000610596565b612c83600883615dbf565b612c8e9060206159e7565b83612c9a600885615a14565b81518110612caa57612caa61592a565b602002602001015160001c901c905092915050565b6000806000612cce86866130c7565b60030b905060008460030b8260030b612ce79190615dd3565b9350839050612cfa600383900b82615dfb565b9250612d07878786614397565b5050935093915050565b805160005b81811015612d7357828181518110612d3057612d3061592a565b602002602001015160030b600014612d6b57612d6b8a8a8a8a8a868b8b8981518110612d5e57612d5e61592a565b6020026020010151614649565b600101612d16565b50505050505050505050565b6000612d8e6123e260096124f5565b90506000612da06123e285600a6130c7565b90506000836040015163ffffffff16831015612dd957612dca83856040015163ffffffff1661454d565b63ffffffff1660408501525060015b836060015163ffffffff16821015612e0e57612dff82856060015163ffffffff1661454d565b63ffffffff1660608501525060015b8015610a0e57610a0e878786600001518760200151886040015189606001518a60800151614027565b612e3f614861565b612e5c57604051631afcd79f60e31b815260040160405180910390fd5b565b6001600160a01b038116612ea65760405162461bcd60e51b815260206004820152600f60248201526e2d32b9379031b7b73a3937b63632b960891b6044820152606401610897565b612ed5816108e860017f5165972ef41194f06c5007493031d0b927c20741adcb74403b954009fd2c36186158ae565b612f04426108e860017f6f55f470bdc9cb5f04223fd822021061668e4dccb43e8727b295106dc9769c8b6158ae565b612f33436108e860017f812a673dfca07956350df10f8a654925f561d7a0da09bdbe79e653939a14d9f16158ae565b604080516001600160a01b0383168152426020820152438183015290517f1a2dd071001ebf6e03174e3df5b305795a4ad5d41d8fdb9ba41dbbe2367134269181900360600190a150565b60606000826001600160401b03811115612f9957612f996151a9565b604051908082528060200260200182016040528015612fc2578160200160208202803683370190505b50905060005b84518110156130455760005b600881101561303c57600081612feb8460086159e7565b612ff591906158c1565b9050858110613004575061303c565b61300e8782612c5b565b8482815181106130205761302061592a565b60039290920b6020928302919091019091015250600101612fd4565b50600101612fc8565b509392505050565b604080516008808252610120820190925260609160009190602082016101008036833701905050905060005b60088110156130c05761308d8160206159e7565b8460001c901c8282815181106130a5576130a561592a565b60039290920b60209283029190910190910152600101613079565b5092915050565b81546000906130d7600884615a14565b106130e457506000610596565b6130ef600883615dbf565b6130fa9060206159e7565b83613106600885615a14565b815481106131165761311661592a565b600091825260209091200154901c9392505050565b613133614dbf565b60405180608001604052806040518060800160405280600f60030b8152602001600f60030b8152602001601e60030b8152602001600a60030b81525081526020016040518060e0016040528067016345785d8a000081526020016702c68af0bb1400008152602001671bc16d674ec800008152602001671bc16d674ec80000815260200167016345785d8a000081526020016714d1120d7b16000081526020016706f05b59d3b2000081525081526020016040518060400160405280671bc16d674ec800008152602001670de0b6b3a76400008152508152602001600560030b815250905090565b613223614dbf565b60405180608001604052806040518060800160405280601e60030b8152602001600560030b8152602001601960030b8152602001600a60030b81525081526020016040518060e00160405280670214e8348c4f000081526020016703782dace9d900008152602001671bc16d674ec800008152602001670de0b6b3a7640000815260200167011c37937e080000815260200167120a871cc002000081526020016706f05b59d3b20000815250815260200160405180604001604052806718fae27693b400008152602001670de0b6b3a76400008152508152602001600560030b815250905090565b613313614dbf565b60405180608001604052806040518060800160405280600a60030b8152602001600f60030b8152602001601460030b8152602001601960030b81525081526020016040518060e0016040528067016345785d8a000081526020016702c68af0bb1400008152602001671bc16d674ec800008152602001670de0b6b3a7640000815260200167016345785d8a00008152602001670de0b6b3a76400008152602001671bc16d674ec800008152508152602001604051806040016040528067120a871cc00200008152602001671bc16d674ec800008152508152602001600560030b815250905090565b613403614dbf565b60405180608001604052806040518060800160405280600f60030b8152602001601960030b8152602001600f60030b8152602001600f60030b81525081526020016040518060e0016040528067016345785d8a000081526020016702c68af0bb1400008152602001673782dace9d90000081526020016729a2241af62c000081526020016702c68af0bb14000081526020016710a741a4627800008152602001670de0b6b3a7640000815250815260200160405180604001604052806717979cfe362a000081526020016714d1120d7b1600008152508152602001600560030b815250905090565b6134f3614dbf565b60405180608001604052806040518060800160405280601460030b8152602001601460030b8152602001601460030b8152602001600a60030b81525081526020016040518060e00160405280670214e8348c4f000081526020016703782dace9d9000081526020016729a2241af62c000081526020016722b1c8c1227a00008152602001670214e8348c4f000081526020016714d1120d7b16000081526020016714d1120d7b160000815250815260200160405180604001604052806714d1120d7b16000081526020016714d1120d7b1600008152508152602001600160030b815250905090565b6135e3614dbf565b60405180608001604052806040518060800160405280603260030b8152602001601e60030b8152602001603260030b8152602001600f60030b81525081526020016040518060e001604052806702c68af0bb1400008152602001670429d069189e00008152602001674563918244f4000081526020016729a2241af62c00008152602001670214e8348c4f00008152602001671bc16d674ec800008152602001671bc16d674ec80000815250815260200160405180604001604052806717979cfe362a000081526020016714d1120d7b1600008152508152602001600160030b815250905090565b6000610722836001600160a01b03841661487b565b336001600160a01b0316816001600160a01b031663016dff5d6040518163ffffffff1660e01b8152600401602060405180830381865afa158015613728573d6000803e3d6000fd5b505050506040513d601f19601f8201168201806040525081019061374c91906158d4565b6001600160a01b031614610a7457336040516303f2374960e01b815260040161089791906155e7565b6000613780826110ec565b5160408051600480825260a0820190925291925060009190602082016080803683370190505090508160000151816000815181106137c0576137c061592a565b602002602001019060030b908160030b815250508160200151816001815181106137ec576137ec61592a565b602002602001019060030b908160030b815250508160400151816002815181106138185761381861592a565b602002602001019060030b908160030b815250508160600151816003815181106138445761384461592a565b602002602001019060030b908160030b815250506138618161446e565b60009485526001909501602052505060409091209190915550565b606061388d60008351879190614397565b61389f60016020840151879190614397565b6138b160026040840151879190614397565b6138c360036060840151879190614397565b6138dc600483516138d490876148ca565b879190614397565b6138ed600583516138d49087614904565b61390060066138d484602001518761492c565b61391360076138d4846020015187614954565b61392660086138d484602001518761497c565b61393a60096138d4846040015187876149c2565b61394e600a6138d484606001518787614a39565b61395d60166138d48686614a95565b6040805160038082526080820190925290602082016060803683370190505090506139906123e2836040015186866149c2565b816000815181106139a3576139a361592a565b602002602001019063ffffffff16908163ffffffff16815250506139cf6123e283606001518686614a39565b816001815181106139e2576139e261592a565b602002602001019063ffffffff16908163ffffffff1681525050613a096123e28585614a95565b81600281518110613a1c57613a1c61592a565b602002602001019063ffffffff16908163ffffffff1681525050949350505050565b61078483836001600085600081518110613a5a57613a5a61592a565b602002602001015186600181518110613a7557613a7561592a565b602002602001015187600281518110613a9057613a9061592a565b6020026020010151614027565b6001600160a01b03811660009081526001830160205260408120541515610722565b60609290921b6001600160601b03191660209190911b6bffffffffffffffff00000000161760189190911b63ff000000161790565b6000670de0b6b3a7640000821015613b2257604051637046c4a960e01b815260048101839052602401610897565b6000613b3e613b39670de0b6b3a764000085615a14565b614aab565b90506000613b5482670de0b6b3a76400006159e7565b905083821c670de0b6b3a7640000819003613b7157509392505050565b6706f05b59d3b200005b8015613bcb57670de0b6b3a7640000613b9483806159e7565b613b9e9190615a14565b9150671bc16d674ec800008210613bc357613bb981846158c1565b9250600182901c91505b60011c613b7b565b5090949350505050565b60408051602b8082526105808201909252606091602082016105608036833701905050905060005b83518110156130c0576000848281518110613c1a57613c1a61592a565b602002602001015190508060030b600014613c73578083858481518110613c4357613c4361592a565b602002602001015160ff1681518110613c5e57613c5e61592a565b602002602001019060030b908160030b815250505b50600101613bfd565b606060005b8351811015613cd257828181518110613c9c57613c9c61592a565b6020026020010151848281518110613cb657613cb661592a565b60209081029190910101805190910160030b9052600101613c81565b509192915050565b60606000858181518110613cf057613cf061592a565b602002602001015190506000866001602b811115613d1057613d106158f1565b81518110613d2057613d2061592a565b602002602001015190506000876002602b811115613d4057613d406158f1565b81518110613d5057613d5061592a565b602002602001015190506000886003602b811115613d7057613d706158f1565b81518110613d8057613d8061592a565b60200260200101519050876004602b811115613d9e57613d9e6158f1565b81518110613dae57613dae61592a565b6020026020010151613dc085896148ca565b613dca9190615b7e565b89600481518110613ddd57613ddd61592a565b60039290920b6020928302919091019091015287600581518110613e0357613e0361592a565b6020026020010151613e158589614904565b613e1f9190615b7e565b89600581518110613e3257613e3261592a565b60039290920b6020928302919091019091015287600681518110613e5857613e5861592a565b6020026020010151613e6a848961492c565b613e749190615b7e565b89600681518110613e8757613e8761592a565b60039290920b6020928302919091019091015287600781518110613ead57613ead61592a565b6020026020010151613ebf8489614954565b613ec99190615b7e565b89600781518110613edc57613edc61592a565b60039290920b6020928302919091019091015287600881518110613f0257613f0261592a565b6020026020010151613f14848961497c565b613f1e9190615b7e565b89600881518110613f3157613f3161592a565b60039290920b6020928302919091019091015287600981518110613f5757613f5761592a565b6020026020010151613f6a8389896149c2565b613f749190615b7e565b89600981518110613f8757613f8761592a565b60039290920b6020928302919091019091015287600a81518110613fad57613fad61592a565b6020026020010151613fc0828989614a39565b613fca9190615b7e565b89600a81518110613fdd57613fdd61592a565b60039290920b602092830291909101909101525096979650505050505050565b60008160030b8360030b1261401e576140168284615cee565b60030b610722565b50600092915050565b63ffffffff811615801590614040575063ffffffff8316155b1561404a57600192505b60408051600580825260c082019092526000916020820160a08036833701905050905085816000815181106140815761408161592a565b602002602001019063ffffffff16908163ffffffff168152505084816001815181106140af576140af61592a565b602002602001019063ffffffff16908163ffffffff168152505083816002815181106140dd576140dd61592a565b602002602001019063ffffffff16908163ffffffff1681525050828160038151811061410b5761410b61592a565b602002602001019063ffffffff16908163ffffffff168152505081816004815181106141395761413961592a565b602002602001019063ffffffff16908163ffffffff168152505061415c81614b8a565b60009788526004909801602052505060409094209490945550505050565b6000610596825490565b60006107228383614c04565b6000610722836001600160a01b038416614c2e565b336001600160a01b0316816001600160a01b03166331423c266040518163ffffffff1660e01b8152600401602060405180830381865afa1580156141ed573d6000803e3d6000fd5b505050506040513d601f19601f8201168201806040525081019061421191906158d4565b6001600160a01b031614610a74573360405163f6b9c4d960e01b815260040161089791906155e7565b6000821580614247575081155b1561425457506000610596565b600583116142655750808214610596565b6006830361428457600782148061427d575060085b82145b9050610596565b6008830361429357600661427a565b600983036142a257600961427a565b600783036142b157600a61427a565b600a83036142c057600b61427a565b600b830361401e57600c8214806142d75750600d82145b8061427d5750600e61427a565b6000806142f0866145d8565b90508260ff168186815181106143085761430861592a565b602002602001015160ff161461435d578260ff1681868151811061432e5761432e61592a565b602002602001015160ff1660405163c230690360e01b8152600401610897929190918252602082015260400190565b838186815181106143705761437061592a565b602002602001019060ff16908160ff168152505061438d81614d21565b9695505050505050565b60006143a4600884615a14565b905060006143b3600885615dbf565b6143be9060206159e7565b855490915080831061440a57855460018101875560008781526020812090910155805b838110156144085786546001818101895560008981526020812090920191909155016143e1565b505b818463ffffffff1663ffffffff16901b8263ffffffff901b198785815481106144355761443561592a565b906000526020600020015460001c161760001b86848154811061445a5761445a61592a565b600091825260209091200155505050505050565b8051600090600881111561449f57604051633d71388b60e21b81526004810182905260086024820152604401610897565b6000805b82811015613045576144b68160206159e7565b8582815181106144c8576144c861592a565b602090810291909101015163ffffffff16901b91909117906001016144a3565b8160030b600014611a89576000614500888385612cbf565b5090506145138989898989878a88614649565b505050505050505050565b6000808260030b121561453357506000919050565b60008260030b1361454657506000919050565b5060030b90565b600081831061455c5781610722565b5090919050565b604080516008808252610120820190925260609160009190602082016101008036833701905050905060005b60088110156130c0576145a38160206159e7565b8460001c901c8282815181106145bb576145bb61592a565b63ffffffff9092166020928302919091019091015260010161458f565b6040805160208082526104208201909252606091600091908082016104008036833701905050905060005b60208110156130c0576146178160086159e7565b8460001c901c82828151811061462f5761462f61592a565b60ff90921660209283029190910190910152600101614603565b6000886001600160a01b031663016dff5d6040518163ffffffff1660e01b8152600401602060405180830381865afa158015614689573d6000803e3d6000fd5b505050506040513d601f19601f820116820180604052508101906146ad91906158d4565b6001600160a01b0316631789b7b1846040518263ffffffff1660e01b81526004016146d891906155e7565b602060405180830381865afa1580156146f5573d6000803e3d6000fd5b505050506040513d601f19601f820116820180604052508101906147199190615cd1565b60ff1690508361479057614768600461473560045b89906130c7565b61474260045b8b906130c7565b61474c86866148ca565b6147569190615b7e565b6147609190615b7e565b8a9190614397565b61478b6005614777600561472e565b614781600561473b565b61474c8686614904565b614513565b60018403614801576147bb60066147a7600661472e565b6147b1600661473b565b61474c868661492c565b6147de60076147ca600761472e565b6147d4600761473b565b61474c8686614954565b61478b60086147ed600861472e565b6147f7600861473b565b61474c868661497c565b600284036148315761478b6009614818600961472e565b614822600961473b565b61474c86868b600001516149c2565b6003840361451357614513600a614848600a61472e565b614852600a61473b565b61474c86868b60000151614a39565b600061486b610f07565b54600160401b900460ff16919050565b60008181526001830160205260408120546148c257508154600181810184556000848152602080822090930184905584548482528286019093526040902091909155610596565b506000610596565b6000670de0b6b3a76400006148de836110ec565b60200151516148f0600386900b61451e565b6148fa91906159e7565b6107229190615a14565b6000670de0b6b3a7640000614918836110ec565b60200151602001516148f08560030b61451e565b6000670de0b6b3a7640000614940836110ec565b60200151604001516148f08560030b61451e565b6000670de0b6b3a7640000614968836110ec565b60200151606001516148f08560030b61451e565b6000610722670de0b6b3a7640000614993846110ec565b60200151608001516149a78660030b61451e565b6149b191906159e7565b6149bb9190615a14565b604b61454d565b6000670de0b6b3a76400006149d6846110ec565b60400151516149eb9063ffffffff85166159e7565b6149f59190615a14565b670de0b6b3a7640000614a07856110ec565b6020015160a00151614a1b8760030b61451e565b614a2591906159e7565b614a2f9190615a14565b61070691906158c1565b6000670de0b6b3a7640000614a4d846110ec565b6040015160200151614a659063ffffffff85166159e7565b614a6f9190615a14565b670de0b6b3a7640000614a81856110ec565b6020015160c00151614a1b8760030b61451e565b6000614aa0836110ec565b606001519392505050565b6000600160801b8210614acb57608091821c91614ac890826158c1565b90505b600160401b8210614ae957604091821c91614ae690826158c1565b90505b6401000000008210614b0857602091821c91614b0590826158c1565b90505b620100008210614b2557601091821c91614b2290826158c1565b90505b6101008210614b4157600891821c91614b3e90826158c1565b90505b60108210614b5c57600491821c91614b5990826158c1565b90505b60048210614b7757600291821c91614b7490826158c1565b90505b60028210611170576105966001826158c1565b80516000906008811115614bbb57604051633d71388b60e21b81526004810182905260086024820152604401610897565b6000805b8281101561304557614bd28160206159e7565b858281518110614be457614be461592a565b602090810291909101015163ffffffff16901b9190911790600101614bbf565b6000826000018281548110614c1b57614c1b61592a565b9060005260206000200154905092915050565b60008181526001830160205260408120548015614d17576000614c526001836158ae565b8554909150600090614c66906001906158ae565b9050808214614ccb576000866000018281548110614c8657614c8661592a565b9060005260206000200154905080876000018481548110614ca957614ca961592a565b6000918252602080832090910192909255918252600188019052604090208390555b8554869080614cdc57614cdc615e1b565b600190038181906000526020600020016000905590558560010160008681526020019081526020016000206000905560019350505050610596565b6000915050610596565b80516000906020811115614d5257604051633d71388b60e21b81526004810182905260206024820152604401610897565b6000805b8281101561304557614d698160086159e7565b858281518110614d7b57614d7b61592a565b602090810291909101015160ff16901b9190911790600101614d56565b60408051608081018252600080825260208201819052918101829052606081019190915290565b6040518060800160405280614dd2614d98565b8152602001614e176040518060e00160405280600081526020016000815260200160008152602001600081526020016000815260200160008152602001600081525090565b8152602001614e39604051806040016040528060008152602001600081525090565b8152600060209091015290565b6040805160a08101825260008082526020820181905291810182905260608101829052608081019190915290565b5080546000825590600052602060002090810190610a7491905b80821115614ea25760008155600101614e8e565b5090565b600060208284031215614eb857600080fd5b5035919050565b60008060408385031215614ed257600080fd5b50508035926020909101359150565b6001600160a01b0381168114610a7457600080fd5b60008060408385031215614f0957600080fd5b8235614f1481614ee1565b946020939093013593505050565b60008060008060808587031215614f3857600080fd5b8435614f4381614ee1565b966020860135965060408601359560600135945092505050565b600060208284031215614f6f57600080fd5b813561072281614ee1565b600080600060608486031215614f8f57600080fd5b8335614f9a81614ee1565b95602085013595506040909401359392505050565b60008151808452602080850194506020840160005b83811015614fe357815160030b87529582019590820190600101614fc4565b509495945050505050565b6020815260006107226020830184614faf565b805160030b8252602081015160030b6020830152604081015160030b6040830152606081015160030b60608301525050565b608081016105968284615001565b60006101c082019050615055828451615001565b602083015180516080840152602081015160a0840152604081015160c0840152606081015160e0840152608081015161010084015260a081015161012084015260c08101516101408401525060408301516150be61016084018280518252602090810151910152565b5060608301516130c06101a084018260030b9052565b6000806000606084860312156150e957600080fd5b83356150f481614ee1565b925060208401359150604084013561510b81614ee1565b809150509250925092565b80356001600160401b038116811461117057600080fd5b60ff81168114610a7457600080fd5b60008060006060848603121561515157600080fd5b833561515c81614ee1565b925061516a60208501615116565b9150604084013561510b8161512d565b63ffffffff81168114610a7457600080fd5b60006020828403121561519e57600080fd5b81356107228161517a565b634e487b7160e01b600052604160045260246000fd5b60405160a081016001600160401b03811182821017156151e1576151e16151a9565b60405290565b604051608081016001600160401b03811182821017156151e1576151e16151a9565b60405161012081016001600160401b03811182821017156151e1576151e16151a9565b604051601f8201601f191681016001600160401b0381118282101715615254576152546151a9565b604052919050565b60006001600160401b03821115615275576152756151a9565b5060051b60200190565b600082601f83011261529057600080fd5b813560206152a56152a08361525c565b61522c565b8083825260208201915060208460051b8701019350868411156152c757600080fd5b602086015b848110156152ec5780356152df81614ee1565b83529183019183016152cc565b509695505050505050565b600082601f83011261530857600080fd5b813560206153186152a08361525c565b8083825260208201915060208460051b87010193508684111561533a57600080fd5b602086015b848110156152ec578035835291830191830161533f565b60006020828403121561536857600080fd5b81356001600160401b038082111561537f57600080fd5b9083019060a0828603121561539357600080fd5b61539b6151bf565b82356153a681614ee1565b81526020838101359082015260408301356153c08161517a565b60408201526060830135828111156153d757600080fd5b6153e38782860161527f565b6060830152506080830135828111156153fb57600080fd5b615407878286016152f7565b60808301525095945050505050565b6040815260006154296040830185614faf565b90508260030b60208301529392505050565b8060030b8114610a7457600080fd5b600082601f83011261545b57600080fd5b8135602061546b6152a08361525c565b8083825260208201915060208460051b87010193508684111561548d57600080fd5b602086015b848110156152ec5780356154a58161543b565b8352918301918301615492565b6000806000606084860312156154c757600080fd5b83356154d281614ee1565b92506020840135915060408401356001600160401b038111156154f457600080fd5b6155008682870161544a565b9150509250925092565b8035801515811461117057600080fd5b600080600080600080600060e0888a03121561553557600080fd5b873561554081614ee1565b965061554e60208901615116565b95506040880135945060608801356155658161512d565b9350608088013561557581614ee1565b925060a0880135915061558a60c0890161550a565b905092959891949750929550565b60006020808352835180602085015260005b818110156155c6578581018301518582016040015282016155aa565b506000604082860101526040601f19601f8301168501019250505092915050565b6001600160a01b0391909116815260200190565b60006020828403121561560d57600080fd5b81356001600160401b038082111561562457600080fd5b9083019060a0828603121561563857600080fd5b6156406151bf565b823561564b81614ee1565b81526020838101359082015260408301358281111561566957600080fd5b6156758782860161544a565b6040830152506156876060840161550a565b60608201526156986080840161550a565b608082015295945050505050565b60008060008084860360e08112156156bd57600080fd5b85356156c881614ee1565b945060208601359350604086013592506080605f19820112156156ea57600080fd5b506156f36151e7565b60608601356157018161543b565b815260808601356157118161543b565b602082015260a08601356157248161543b565b604082015260c08601356157378161543b565b6060820152939692955090935050565b60008060008084860361010081121561575f57600080fd5b853561576a81614ee1565b94506020860135935060a0603f198201121561578557600080fd5b5061578e6151bf565b604086013561579c8161517a565b815260608601356157ac8161517a565b602082015260808601356157bf8161517a565b604082015260a08601356157d28161517a565b606082015260c08601356157e58161517a565b608082015291506157f860e0860161550a565b905092959194509250565b63ffffffff808251168352806020830151166020840152806040830151166040840152806060830151166060840152806080830151166080840152505050565b60a081016105968284615803565b6020808252825182820181905260009190848201906040850190845b8181101561588c57835160ff168352928401929184019160010161586d565b50909695505050505050565b634e487b7160e01b600052601160045260246000fd5b8181038181111561059657610596615898565b8082018082111561059657610596615898565b6000602082840312156158e657600080fd5b815161072281614ee1565b634e487b7160e01b600052602160045260246000fd5b60008160030b637fffffff19810361592157615921615898565b60000392915050565b634e487b7160e01b600052603260045260246000fd5b6001600160a01b0393841681526020810192909252909116604082015260600190565b6001600160a01b0394909416845260208401929092526040830152606082015260800190565b6001600160a01b03841681526020810183905260e081016107066040830184615803565b63ffffffff8281168282160390808211156130c0576130c0615898565b63ffffffff8181168382160190808211156130c0576130c0615898565b808202811582820484141761059657610596615898565b634e487b7160e01b600052601260045260246000fd5b600082615a2357615a236159fe565b500490565b80516111708161512d565b8051600d811061117057600080fd5b805161ffff8116811461117057600080fd5b80516111708161517a565b600060808284031215615a7157600080fd5b615a796151e7565b90508151615a868161543b565b81526020820151615a968161543b565b60208201526040820151615aa98161543b565b60408201526060820151615abc8161543b565b606082015292915050565b60006101808284031215615ada57600080fd5b615ae2615209565b615aeb83615a28565b8152615af960208401615a28565b6020820152615b0a60408401615a33565b6040820152615b1b60608401615a42565b6060820152615b2c60808401615a28565b6080820152615b3d60a08401615a54565b60a0820152615b4e60c08401615a28565b60c0820152615b5f60e08401615a28565b60e0820152610100615b7385828601615a5f565b908201529392505050565b600381810b9083900b01637fffffff8113637fffffff198212171561059657610596615898565b600082601f830112615bb657600080fd5b81516020615bc66152a08361525c565b8083825260208201915060208460051b870101935086841115615be857600080fd5b602086015b848110156152ec578051615c008161512d565b8352918301918301615bed565b60008060408385031215615c2057600080fd5b82516001600160401b0380821115615c3757600080fd5b818501915085601f830112615c4b57600080fd5b81516020615c5b6152a08361525c565b82815260059290921b84018101918181019089841115615c7a57600080fd5b948201945b83861015615ca1578551615c928161543b565b82529482019490820190615c7f565b91880151919650909350505080821115615cba57600080fd5b50615cc785828601615ba5565b9150509250929050565b600060208284031215615ce357600080fd5b81516107228161512d565b600382810b9082900b03637fffffff198112637fffffff8213171561059657610596615898565b600063ffffffff808316818103615d2e57615d2e615898565b6001019392505050565b6001600160a01b0385168152602081018490526040810183905260e08101610a956060830184615001565b6001600160a01b03868116825260208201869052610120820190615d8a6040840187615803565b84151560e0840152808416610100840152509695505050505050565b600060018201615db857615db8615898565b5060010190565b600082615dce57615dce6159fe565b500690565b8082018281126000831280158216821582161715615df357615df3615898565b505092915050565b81810360008312801583831316838312821617156130c0576130c0615898565b634e487b7160e01b600052603160045260246000fdfe22573091f17911fb166032a3d9e0554aa73d31b7b7ddea4a4dd2995650af84bd944a3dd1d62bdf01982b7f6a998d66608c06e34399f68c67a575156ad74142bba26469706673582212203a3a95522303c1ba8f7e3a89b3a2df5ba500600257f23864cc5a03cb91b6d8b364736f6c63430008170033",
  "devdoc": {
    "errors": {
      "InvalidInitialization()": [
        {
          "details": "The contract is already initialized."
        }
      ],
      "NotInitializing()": [
        {
          "details": "The contract is not initializing."
        }
      ]
    },
    "events": {
      "Initialized(uint64)": {
        "details": "Triggered when the contract has been initialized or reinitialized."
      }
    },
    "kind": "dev",
    "methods": {
      "created()": {
        "returns": {
          "_0": "Creation timestamp"
        }
      },
      "createdBlock()": {
        "returns": {
          "_0": "Creation block number"
        }
      },
      "increaseRevision(address)": {
        "details": "Revision should be increased on each contract upgrade"
      },
      "isController(address)": {
        "details": "Return true if given address is controller"
      },
      "previousImplementation()": {
        "details": "Previous logic implementation"
      },
      "restoreLifeAndMana(address,uint256,int32[])": {
        "params": {
          "prevAttributes": "Hero attributes before reinforcement"
        }
      },
      "revision()": {
        "details": "Contract upgrade counter"
      }
    },
    "stateVariables": {
      "VERSION": {
        "details": "Should be incremented when contract changed"
      }
    },
    "version": 1
  },
  "userdoc": {
    "kind": "user",
    "methods": {
      "CONTROLLABLE_VERSION()": {
        "notice": "Version of the contract"
      },
      "VERSION()": {
        "notice": "Version of the contract"
      },
      "controller()": {
        "notice": "Return controller address saved in the contract slot"
      },
      "created()": {
        "notice": "Return creation timestamp"
      },
      "createdBlock()": {
        "notice": "Return creation block number"
      },
      "isGovernance(address)": {
        "notice": "Return true if given address is setup as governance in Controller"
      },
      "restoreLifeAndMana(address,uint256,int32[])": {
        "notice": "Restore life and mana during reinforcement"
      }
    },
    "version": 1
  },
  "storageLayout": {
    "storage": [],
    "types": null
  }
}