{
  "address": "0x2B6Ed7F935961AA4e1E1b7fD2A4042a407Ce8786",
  "abi": [
    {
      "inputs": [],
      "name": "ErrorCannotRemoveItemFromMap",
      "type": "error"
    },
    {
      "inputs": [
        {
          "internalType": "address",
          "name": "item",
          "type": "address"
        }
      ],
      "name": "ErrorConsumableItemIsUsed",
      "type": "error"
    },
    {
      "inputs": [],
      "name": "ErrorExperienceMustNotDecrease",
      "type": "error"
    },
    {
      "inputs": [
        {
          "internalType": "address",
          "name": "sender",
          "type": "address"
        }
      ],
      "name": "ErrorForbidden",
      "type": "error"
    },
    {
      "inputs": [
        {
          "internalType": "uint256",
          "name": "itemType",
          "type": "uint256"
        },
        {
          "internalType": "uint8",
          "name": "itemSlot",
          "type": "uint8"
        }
      ],
      "name": "ErrorItemNotEligibleForTheSlot",
      "type": "error"
    },
    {
      "inputs": [],
      "name": "ErrorItemNotInSlot",
      "type": "error"
    },
    {
      "inputs": [],
      "name": "ErrorItemSlotBusy",
      "type": "error"
    },
    {
      "inputs": [
        {
          "internalType": "uint8",
          "name": "slot",
          "type": "uint8"
        }
      ],
      "name": "ErrorItemSlotBusyHand",
      "type": "error"
    },
    {
      "inputs": [],
      "name": "ErrorMaxLevel",
      "type": "error"
    },
    {
      "inputs": [],
      "name": "ErrorNotEnoughExperience",
      "type": "error"
    },
    {
      "inputs": [
        {
          "internalType": "address",
          "name": "sender",
          "type": "address"
        }
      ],
      "name": "ErrorNotHeroController",
      "type": "error"
    },
    {
      "inputs": [
        {
          "internalType": "address",
          "name": "sender",
          "type": "address"
        }
      ],
      "name": "ErrorNotItemController",
      "type": "error"
    },
    {
      "inputs": [],
      "name": "ErrorWrongLevelUpSum",
      "type": "error"
    },
    {
      "inputs": [],
      "name": "ErrorZeroKarmaNotAllowed",
      "type": "error"
    },
    {
      "inputs": [],
      "name": "InvalidInitialization",
      "type": "error"
    },
    {
      "inputs": [],
      "name": "NotInitializing",
      "type": "error"
    },
    {
      "inputs": [
        {
          "internalType": "uint256",
          "name": "index",
          "type": "uint256"
        },
        {
          "internalType": "uint256",
          "name": "length",
          "type": "uint256"
        }
      ],
      "name": "OutOfBounds",
      "type": "error"
    },
    {
      "inputs": [
        {
          "internalType": "uint256",
          "name": "value",
          "type": "uint256"
        }
      ],
      "name": "TooHighValue",
      "type": "error"
    },
    {
      "inputs": [
        {
          "internalType": "uint256",
          "name": "x",
          "type": "uint256"
        }
      ],
      "name": "TooLowX",
      "type": "error"
    },
    {
      "inputs": [
        {
          "internalType": "uint256",
          "name": "expected",
          "type": "uint256"
        },
        {
          "internalType": "uint256",
          "name": "actual",
          "type": "uint256"
        }
      ],
      "name": "UnexpectedValue",
      "type": "error"
    },
    {
      "inputs": [
        {
          "internalType": "uint256",
          "name": "heroClass",
          "type": "uint256"
        }
      ],
      "name": "UnknownHeroClass",
      "type": "error"
    },
    {
      "anonymous": false,
      "inputs": [
        {
          "indexed": false,
          "internalType": "address",
          "name": "heroToken",
          "type": "address"
        },
        {
          "indexed": false,
          "internalType": "uint256",
          "name": "heroTokenId",
          "type": "uint256"
        },
        {
          "indexed": false,
          "internalType": "bool",
          "name": "add",
          "type": "bool"
        },
        {
          "indexed": false,
          "internalType": "bool",
          "name": "temporally",
          "type": "bool"
        },
        {
          "indexed": false,
          "internalType": "address",
          "name": "caller",
          "type": "address"
        }
      ],
      "name": "BonusAttributesChanged",
      "type": "event"
    },
    {
      "anonymous": false,
      "inputs": [
        {
          "indexed": false,
          "internalType": "address",
          "name": "heroToken",
          "type": "address"
        },
        {
          "indexed": false,
          "internalType": "uint256",
          "name": "heroTokenId",
          "type": "uint256"
        },
        {
          "indexed": false,
          "internalType": "address",
          "name": "item",
          "type": "address"
        }
      ],
      "name": "ConsumableUsed",
      "type": "event"
    },
    {
      "anonymous": false,
      "inputs": [
        {
          "indexed": false,
          "internalType": "address",
          "name": "controller",
          "type": "address"
        },
        {
          "indexed": false,
          "internalType": "uint256",
          "name": "ts",
          "type": "uint256"
        },
        {
          "indexed": false,
          "internalType": "uint256",
          "name": "block",
          "type": "uint256"
        }
      ],
      "name": "ContractInitialized",
      "type": "event"
    },
    {
      "anonymous": false,
      "inputs": [
        {
          "indexed": false,
          "internalType": "address",
          "name": "heroToken",
          "type": "address"
        },
        {
          "indexed": false,
          "internalType": "uint256",
          "name": "heroTokenId",
          "type": "uint256"
        },
        {
          "components": [
            {
              "internalType": "uint32",
              "name": "level",
              "type": "uint32"
            },
            {
              "internalType": "uint32",
              "name": "experience",
              "type": "uint32"
            },
            {
              "internalType": "uint32",
              "name": "life",
              "type": "uint32"
            },
            {
              "internalType": "uint32",
              "name": "mana",
              "type": "uint32"
            },
            {
              "internalType": "uint32",
              "name": "lifeChances",
              "type": "uint32"
            }
          ],
          "indexed": false,
          "internalType": "struct IStatController.ChangeableStats",
          "name": "change",
          "type": "tuple"
        },
        {
          "indexed": false,
          "internalType": "bool",
          "name": "increase",
          "type": "bool"
        },
        {
          "indexed": false,
          "internalType": "address",
          "name": "caller",
          "type": "address"
        }
      ],
      "name": "CurrentStatsChanged",
      "type": "event"
    },
    {
      "anonymous": false,
      "inputs": [
        {
          "indexed": false,
          "internalType": "bytes32",
          "name": "index",
          "type": "bytes32"
        },
        {
          "indexed": false,
          "internalType": "uint256",
          "name": "value",
          "type": "uint256"
        }
      ],
      "name": "GlobalCustomDataChanged",
      "type": "event"
    },
    {
      "anonymous": false,
      "inputs": [
        {
          "indexed": false,
          "internalType": "address",
          "name": "token",
          "type": "address"
        },
        {
          "indexed": false,
          "internalType": "uint256",
          "name": "tokenId",
          "type": "uint256"
        },
        {
          "indexed": false,
          "internalType": "bytes32",
          "name": "index",
          "type": "bytes32"
        },
        {
          "indexed": false,
          "internalType": "uint256",
          "name": "value",
          "type": "uint256"
        }
      ],
      "name": "HeroCustomDataChanged",
      "type": "event"
    },
    {
      "anonymous": false,
      "inputs": [
        {
          "indexed": false,
          "internalType": "address",
          "name": "heroToken",
          "type": "address"
        },
        {
          "indexed": false,
          "internalType": "uint256",
          "name": "heroTokenId",
          "type": "uint256"
        },
        {
          "indexed": false,
          "internalType": "uint256",
          "name": "itemType",
          "type": "uint256"
        },
        {
          "indexed": false,
          "internalType": "uint256",
          "name": "itemSlot",
          "type": "uint256"
        },
        {
          "indexed": false,
          "internalType": "address",
          "name": "itemToken",
          "type": "address"
        },
        {
          "indexed": false,
          "internalType": "uint256",
          "name": "itemTokenId",
          "type": "uint256"
        },
        {
          "indexed": false,
          "internalType": "bool",
          "name": "equip",
          "type": "bool"
        },
        {
          "indexed": false,
          "internalType": "address",
          "name": "caller",
          "type": "address"
        }
      ],
      "name": "HeroItemSlotChanged",
      "type": "event"
    },
    {
      "anonymous": false,
      "inputs": [
        {
          "indexed": false,
          "internalType": "uint64",
          "name": "version",
          "type": "uint64"
        }
      ],
      "name": "Initialized",
      "type": "event"
    },
    {
      "anonymous": false,
      "inputs": [
        {
          "indexed": false,
          "internalType": "address",
          "name": "heroToken",
          "type": "address"
        },
        {
          "indexed": false,
          "internalType": "uint256",
          "name": "heroTokenId",
          "type": "uint256"
        },
        {
          "indexed": false,
          "internalType": "uint256",
          "name": "heroClass",
          "type": "uint256"
        },
        {
          "components": [
            {
              "internalType": "int32",
              "name": "strength",
              "type": "int32"
            },
            {
              "internalType": "int32",
              "name": "dexterity",
              "type": "int32"
            },
            {
              "internalType": "int32",
              "name": "vitality",
              "type": "int32"
            },
            {
              "internalType": "int32",
              "name": "energy",
              "type": "int32"
            }
          ],
          "indexed": false,
          "internalType": "struct IStatController.CoreAttributes",
          "name": "change",
          "type": "tuple"
        }
      ],
      "name": "LevelUp",
      "type": "event"
    },
    {
      "anonymous": false,
      "inputs": [
        {
          "indexed": false,
          "internalType": "address",
          "name": "heroToken",
          "type": "address"
        },
        {
          "indexed": false,
          "internalType": "uint256",
          "name": "heroTokenId",
          "type": "uint256"
        },
        {
          "components": [
            {
              "internalType": "uint32",
              "name": "level",
              "type": "uint32"
            },
            {
              "internalType": "uint32",
              "name": "experience",
              "type": "uint32"
            },
            {
              "internalType": "uint32",
              "name": "life",
              "type": "uint32"
            },
            {
              "internalType": "uint32",
              "name": "mana",
              "type": "uint32"
            },
            {
              "internalType": "uint32",
              "name": "lifeChances",
              "type": "uint32"
            }
          ],
          "indexed": false,
          "internalType": "struct IStatController.ChangeableStats",
          "name": "stats",
          "type": "tuple"
        }
      ],
      "name": "NewHeroInited",
      "type": "event"
    },
    {
      "anonymous": false,
      "inputs": [
        {
          "indexed": false,
          "internalType": "address",
          "name": "heroToken",
          "type": "address"
        },
        {
          "indexed": false,
          "internalType": "uint256",
          "name": "heroTokenId",
          "type": "uint256"
        },
        {
          "indexed": false,
          "internalType": "address",
          "name": "item",
          "type": "address"
        }
      ],
      "name": "RemoveConsumableUsage",
      "type": "event"
    },
    {
      "anonymous": false,
      "inputs": [
        {
          "indexed": false,
          "internalType": "uint256",
          "name": "value",
          "type": "uint256"
        },
        {
          "indexed": false,
          "internalType": "address",
          "name": "oldLogic",
          "type": "address"
        }
      ],
      "name": "RevisionIncreased",
      "type": "event"
    },
    {
      "anonymous": false,
      "inputs": [
        {
          "indexed": false,
          "internalType": "address",
          "name": "heroToken",
          "type": "address"
        },
        {
          "indexed": false,
          "internalType": "uint256",
          "name": "heroTokenId",
          "type": "uint256"
        },
        {
          "indexed": false,
          "internalType": "address",
          "name": "caller",
          "type": "address"
        }
      ],
      "name": "TemporallyAttributesCleared",
      "type": "event"
    },
    {
      "inputs": [],
      "name": "CONTROLLABLE_VERSION",
      "outputs": [
        {
          "internalType": "string",
          "name": "",
          "type": "string"
        }
      ],
      "stateMutability": "view",
      "type": "function"
    },
    {
      "inputs": [],
      "name": "VERSION",
      "outputs": [
        {
          "internalType": "string",
          "name": "",
          "type": "string"
        }
      ],
      "stateMutability": "view",
      "type": "function"
    },
    {
      "inputs": [
        {
          "components": [
            {
              "internalType": "address",
              "name": "heroToken",
              "type": "address"
            },
            {
              "internalType": "uint256",
              "name": "heroTokenId",
              "type": "uint256"
            },
            {
              "internalType": "uint32",
              "name": "heroLevel",
              "type": "uint32"
            },
            {
              "internalType": "address[]",
              "name": "buffTokens",
              "type": "address[]"
            },
            {
              "internalType": "uint256[]",
              "name": "buffTokenIds",
              "type": "uint256[]"
            }
          ],
          "internalType": "struct IStatController.BuffInfo",
          "name": "info",
          "type": "tuple"
        }
      ],
      "name": "buffHero",
      "outputs": [
        {
          "internalType": "int32[]",
          "name": "",
          "type": "int32[]"
        },
        {
          "internalType": "int32",
          "name": "",
          "type": "int32"
        }
      ],
      "stateMutability": "view",
      "type": "function"
    },
    {
      "inputs": [
        {
          "components": [
            {
              "internalType": "address",
              "name": "heroToken",
              "type": "address"
            },
            {
              "internalType": "uint256",
              "name": "heroTokenId",
              "type": "uint256"
            },
            {
              "internalType": "int32[]",
              "name": "changeAttributes",
              "type": "int32[]"
            },
            {
              "internalType": "bool",
              "name": "add",
              "type": "bool"
            },
            {
              "internalType": "bool",
              "name": "temporally",
              "type": "bool"
            }
          ],
          "internalType": "struct IStatController.ChangeAttributesInfo",
          "name": "info",
          "type": "tuple"
        }
      ],
      "name": "changeBonusAttributes",
      "outputs": [],
      "stateMutability": "nonpayable",
      "type": "function"
    },
    {
      "inputs": [
        {
          "internalType": "address",
          "name": "heroToken",
          "type": "address"
        },
        {
          "internalType": "uint256",
          "name": "heroTokenId",
          "type": "uint256"
        },
        {
          "components": [
            {
              "internalType": "uint32",
              "name": "level",
              "type": "uint32"
            },
            {
              "internalType": "uint32",
              "name": "experience",
              "type": "uint32"
            },
            {
              "internalType": "uint32",
              "name": "life",
              "type": "uint32"
            },
            {
              "internalType": "uint32",
              "name": "mana",
              "type": "uint32"
            },
            {
              "internalType": "uint32",
              "name": "lifeChances",
              "type": "uint32"
            }
          ],
          "internalType": "struct IStatController.ChangeableStats",
          "name": "change",
          "type": "tuple"
        },
        {
          "internalType": "bool",
          "name": "increase",
          "type": "bool"
        }
      ],
      "name": "changeCurrentStats",
      "outputs": [],
      "stateMutability": "nonpayable",
      "type": "function"
    },
    {
      "inputs": [
        {
          "internalType": "address",
          "name": "heroToken",
          "type": "address"
        },
        {
          "internalType": "uint64",
          "name": "heroTokenId",
          "type": "uint64"
        },
        {
          "internalType": "uint256",
          "name": "itemType",
          "type": "uint256"
        },
        {
          "internalType": "uint8",
          "name": "itemSlot",
          "type": "uint8"
        },
        {
          "internalType": "address",
          "name": "itemToken",
          "type": "address"
        },
        {
          "internalType": "uint256",
          "name": "itemTokenId",
          "type": "uint256"
        },
        {
          "internalType": "bool",
          "name": "equip",
          "type": "bool"
        }
      ],
      "name": "changeHeroItemSlot",
      "outputs": [],
      "stateMutability": "nonpayable",
      "type": "function"
    },
    {
      "inputs": [
        {
          "internalType": "address",
          "name": "heroToken",
          "type": "address"
        },
        {
          "internalType": "uint256",
          "name": "heroTokenId",
          "type": "uint256"
        }
      ],
      "name": "clearTemporallyAttributes",
      "outputs": [],
      "stateMutability": "nonpayable",
      "type": "function"
    },
    {
      "inputs": [
        {
          "internalType": "address",
          "name": "heroToken",
          "type": "address"
        },
        {
          "internalType": "uint256",
          "name": "heroTokenId",
          "type": "uint256"
        }
      ],
      "name": "clearUsedConsumables",
      "outputs": [],
      "stateMutability": "nonpayable",
      "type": "function"
    },
    {
      "inputs": [],
      "name": "controller",
      "outputs": [
        {
          "internalType": "address",
          "name": "",
          "type": "address"
        }
      ],
      "stateMutability": "view",
      "type": "function"
    },
    {
      "inputs": [],
      "name": "created",
      "outputs": [
        {
          "internalType": "uint256",
          "name": "",
          "type": "uint256"
        }
      ],
      "stateMutability": "view",
      "type": "function"
    },
    {
      "inputs": [],
      "name": "createdBlock",
      "outputs": [
        {
          "internalType": "uint256",
          "name": "",
          "type": "uint256"
        }
      ],
      "stateMutability": "view",
      "type": "function"
    },
    {
      "inputs": [
        {
          "internalType": "bytes32",
          "name": "index",
          "type": "bytes32"
        }
      ],
      "name": "globalCustomData",
      "outputs": [
        {
          "internalType": "uint256",
          "name": "",
          "type": "uint256"
        }
      ],
      "stateMutability": "view",
      "type": "function"
    },
    {
      "inputs": [
        {
          "internalType": "address",
          "name": "token",
          "type": "address"
        },
        {
          "internalType": "uint256",
          "name": "tokenId",
          "type": "uint256"
        },
        {
          "internalType": "uint256",
          "name": "index",
          "type": "uint256"
        }
      ],
      "name": "heroAttribute",
      "outputs": [
        {
          "internalType": "int32",
          "name": "",
          "type": "int32"
        }
      ],
      "stateMutability": "view",
      "type": "function"
    },
    {
      "inputs": [
        {
          "internalType": "address",
          "name": "token",
          "type": "address"
        },
        {
          "internalType": "uint256",
          "name": "tokenId",
          "type": "uint256"
        }
      ],
      "name": "heroAttributes",
      "outputs": [
        {
          "internalType": "int32[]",
          "name": "",
          "type": "int32[]"
        }
      ],
      "stateMutability": "view",
      "type": "function"
    },
    {
      "inputs": [
        {
          "internalType": "address",
          "name": "token",
          "type": "address"
        },
        {
          "internalType": "uint256",
          "name": "tokenId",
          "type": "uint256"
        }
      ],
      "name": "heroAttributesLength",
      "outputs": [
        {
          "internalType": "uint256",
          "name": "",
          "type": "uint256"
        }
      ],
      "stateMutability": "pure",
      "type": "function"
    },
    {
      "inputs": [
        {
          "internalType": "address",
          "name": "token",
          "type": "address"
        },
        {
          "internalType": "uint256",
          "name": "tokenId",
          "type": "uint256"
        }
      ],
      "name": "heroBaseAttributes",
      "outputs": [
        {
          "components": [
            {
              "internalType": "int32",
              "name": "strength",
              "type": "int32"
            },
            {
              "internalType": "int32",
              "name": "dexterity",
              "type": "int32"
            },
            {
              "internalType": "int32",
              "name": "vitality",
              "type": "int32"
            },
            {
              "internalType": "int32",
              "name": "energy",
              "type": "int32"
            }
          ],
          "internalType": "struct IStatController.CoreAttributes",
          "name": "core",
          "type": "tuple"
        }
      ],
      "stateMutability": "view",
      "type": "function"
    },
    {
      "inputs": [
        {
          "internalType": "address",
          "name": "token",
          "type": "address"
        },
        {
          "internalType": "uint256",
          "name": "tokenId",
          "type": "uint256"
        }
      ],
      "name": "heroBonusAttributes",
      "outputs": [
        {
          "internalType": "int32[]",
          "name": "",
          "type": "int32[]"
        }
      ],
      "stateMutability": "view",
      "type": "function"
    },
    {
      "inputs": [
        {
          "internalType": "address",
          "name": "token",
          "type": "address"
        },
        {
          "internalType": "uint256",
          "name": "tokenId",
          "type": "uint256"
        },
        {
          "internalType": "bytes32",
          "name": "index",
          "type": "bytes32"
        }
      ],
      "name": "heroCustomData",
      "outputs": [
        {
          "internalType": "uint256",
          "name": "",
          "type": "uint256"
        }
      ],
      "stateMutability": "view",
      "type": "function"
    },
    {
      "inputs": [
        {
          "internalType": "uint256",
          "name": "heroClass",
          "type": "uint256"
        }
      ],
      "name": "heroInitialAttributes",
      "outputs": [
        {
          "components": [
            {
              "components": [
                {
                  "internalType": "int32",
                  "name": "strength",
                  "type": "int32"
                },
                {
                  "internalType": "int32",
                  "name": "dexterity",
                  "type": "int32"
                },
                {
                  "internalType": "int32",
                  "name": "vitality",
                  "type": "int32"
                },
                {
                  "internalType": "int32",
                  "name": "energy",
                  "type": "int32"
                }
              ],
              "internalType": "struct IStatController.CoreAttributes",
              "name": "core",
              "type": "tuple"
            },
            {
              "components": [
                {
                  "internalType": "uint256",
                  "name": "minDamage",
                  "type": "uint256"
                },
                {
                  "internalType": "uint256",
                  "name": "maxDamage",
                  "type": "uint256"
                },
                {
                  "internalType": "uint256",
                  "name": "attackRating",
                  "type": "uint256"
                },
                {
                  "internalType": "uint256",
                  "name": "defense",
                  "type": "uint256"
                },
                {
                  "internalType": "uint256",
                  "name": "blockRating",
                  "type": "uint256"
                },
                {
                  "internalType": "uint256",
                  "name": "life",
                  "type": "uint256"
                },
                {
                  "internalType": "uint256",
                  "name": "mana",
                  "type": "uint256"
                }
              ],
              "internalType": "struct StatLib.BaseMultiplier",
              "name": "multiplier",
              "type": "tuple"
            },
            {
              "components": [
                {
                  "internalType": "uint256",
                  "name": "life",
                  "type": "uint256"
                },
                {
                  "internalType": "uint256",
                  "name": "mana",
                  "type": "uint256"
                }
              ],
              "internalType": "struct StatLib.LevelUp",
              "name": "levelUp",
              "type": "tuple"
            },
            {
              "internalType": "int32",
              "name": "baseLifeChances",
              "type": "int32"
            }
          ],
          "internalType": "struct StatLib.InitialHero",
          "name": "",
          "type": "tuple"
        }
      ],
      "stateMutability": "pure",
      "type": "function"
    },
    {
      "inputs": [
        {
          "internalType": "address",
          "name": "heroToken",
          "type": "address"
        },
        {
          "internalType": "uint64",
          "name": "heroTokenId",
          "type": "uint64"
        },
        {
          "internalType": "uint8",
          "name": "itemSlot",
          "type": "uint8"
        }
      ],
      "name": "heroItemSlot",
      "outputs": [
        {
          "internalType": "bytes32",
          "name": "nftPacked",
          "type": "bytes32"
        }
      ],
      "stateMutability": "view",
      "type": "function"
    },
    {
      "inputs": [
        {
          "internalType": "address",
          "name": "heroToken",
          "type": "address"
        },
        {
          "internalType": "uint256",
          "name": "heroTokenId",
          "type": "uint256"
        }
      ],
      "name": "heroItemSlots",
      "outputs": [
        {
          "internalType": "uint8[]",
          "name": "",
          "type": "uint8[]"
        }
      ],
      "stateMutability": "view",
      "type": "function"
    },
    {
      "inputs": [
        {
          "internalType": "address",
          "name": "token",
          "type": "address"
        },
        {
          "internalType": "uint256",
          "name": "tokenId",
          "type": "uint256"
        }
      ],
      "name": "heroStats",
      "outputs": [
        {
          "components": [
            {
              "internalType": "uint32",
              "name": "level",
              "type": "uint32"
            },
            {
              "internalType": "uint32",
              "name": "experience",
              "type": "uint32"
            },
            {
              "internalType": "uint32",
              "name": "life",
              "type": "uint32"
            },
            {
              "internalType": "uint32",
              "name": "mana",
              "type": "uint32"
            },
            {
              "internalType": "uint32",
              "name": "lifeChances",
              "type": "uint32"
            }
          ],
          "internalType": "struct IStatController.ChangeableStats",
          "name": "result",
          "type": "tuple"
        }
      ],
      "stateMutability": "view",
      "type": "function"
    },
    {
      "inputs": [
        {
          "internalType": "address",
          "name": "token",
          "type": "address"
        },
        {
          "internalType": "uint256",
          "name": "tokenId",
          "type": "uint256"
        }
      ],
      "name": "heroTemporallyAttributes",
      "outputs": [
        {
          "internalType": "int32[]",
          "name": "",
          "type": "int32[]"
        }
      ],
      "stateMutability": "view",
      "type": "function"
    },
    {
      "inputs": [
        {
          "internalType": "address",
          "name": "oldLogic",
          "type": "address"
        }
      ],
      "name": "increaseRevision",
      "outputs": [],
      "stateMutability": "nonpayable",
      "type": "function"
    },
    {
      "inputs": [
        {
          "internalType": "address",
          "name": "controller_",
          "type": "address"
        }
      ],
      "name": "init",
      "outputs": [],
      "stateMutability": "nonpayable",
      "type": "function"
    },
    {
      "inputs": [
        {
          "internalType": "address",
          "name": "heroToken",
          "type": "address"
        },
        {
          "internalType": "uint256",
          "name": "heroTokenId",
          "type": "uint256"
        },
        {
          "internalType": "uint256",
          "name": "heroClass",
          "type": "uint256"
        }
      ],
      "name": "initNewHero",
      "outputs": [],
      "stateMutability": "nonpayable",
      "type": "function"
    },
    {
      "inputs": [
        {
          "internalType": "address",
          "name": "heroToken",
          "type": "address"
        },
        {
          "internalType": "uint256",
          "name": "heroTokenId",
          "type": "uint256"
        },
        {
          "internalType": "address",
          "name": "item",
          "type": "address"
        }
      ],
      "name": "isConsumableUsed",
      "outputs": [
        {
          "internalType": "bool",
          "name": "",
          "type": "bool"
        }
      ],
      "stateMutability": "view",
      "type": "function"
    },
    {
      "inputs": [
        {
          "internalType": "address",
          "name": "value_",
          "type": "address"
        }
      ],
      "name": "isController",
      "outputs": [
        {
          "internalType": "bool",
          "name": "",
          "type": "bool"
        }
      ],
      "stateMutability": "view",
      "type": "function"
    },
    {
      "inputs": [
        {
          "internalType": "address",
          "name": "value_",
          "type": "address"
        }
      ],
      "name": "isGovernance",
      "outputs": [
        {
          "internalType": "bool",
          "name": "",
          "type": "bool"
        }
      ],
      "stateMutability": "view",
      "type": "function"
    },
    {
      "inputs": [
        {
          "internalType": "address",
          "name": "heroToken",
          "type": "address"
        },
        {
          "internalType": "uint256",
          "name": "heroTokenId",
          "type": "uint256"
        }
      ],
      "name": "isHeroAlive",
      "outputs": [
        {
          "internalType": "bool",
          "name": "",
          "type": "bool"
        }
      ],
      "stateMutability": "view",
      "type": "function"
    },
    {
      "inputs": [
        {
          "internalType": "uint32",
          "name": "level",
          "type": "uint32"
        }
      ],
      "name": "levelExperience",
      "outputs": [
        {
          "internalType": "uint256",
          "name": "",
          "type": "uint256"
        }
      ],
      "stateMutability": "pure",
      "type": "function"
    },
    {
      "inputs": [
        {
          "internalType": "address",
          "name": "heroToken",
          "type": "address"
        },
        {
          "internalType": "uint256",
          "name": "heroTokenId",
          "type": "uint256"
        },
        {
          "internalType": "uint256",
          "name": "heroClass",
          "type": "uint256"
        },
        {
          "components": [
            {
              "internalType": "int32",
              "name": "strength",
              "type": "int32"
            },
            {
              "internalType": "int32",
              "name": "dexterity",
              "type": "int32"
            },
            {
              "internalType": "int32",
              "name": "vitality",
              "type": "int32"
            },
            {
              "internalType": "int32",
              "name": "energy",
              "type": "int32"
            }
          ],
          "internalType": "struct IStatController.CoreAttributes",
          "name": "change",
          "type": "tuple"
        }
      ],
      "name": "levelUp",
      "outputs": [
        {
          "internalType": "uint256",
          "name": "newLvl",
          "type": "uint256"
        }
      ],
      "stateMutability": "nonpayable",
      "type": "function"
    },
    {
      "inputs": [
        {
          "internalType": "uint32",
          "name": "level",
          "type": "uint32"
        }
      ],
      "name": "levelUpExperienceRequired",
      "outputs": [
        {
          "internalType": "uint256",
          "name": "",
          "type": "uint256"
        }
      ],
      "stateMutability": "pure",
      "type": "function"
    },
    {
      "inputs": [],
      "name": "previousImplementation",
      "outputs": [
        {
          "internalType": "address",
          "name": "",
          "type": "address"
        }
      ],
      "stateMutability": "view",
      "type": "function"
    },
    {
      "inputs": [
        {
          "internalType": "address",
          "name": "heroToken",
          "type": "address"
        },
        {
          "internalType": "uint256",
          "name": "heroTokenId",
          "type": "uint256"
        },
        {
          "internalType": "address",
          "name": "item",
          "type": "address"
        }
      ],
      "name": "registerConsumableUsage",
      "outputs": [],
      "stateMutability": "nonpayable",
      "type": "function"
    },
    {
      "inputs": [],
      "name": "revision",
      "outputs": [
        {
          "internalType": "uint256",
          "name": "",
          "type": "uint256"
        }
      ],
      "stateMutability": "view",
      "type": "function"
    },
    {
      "inputs": [
        {
          "internalType": "bytes32",
          "name": "index",
          "type": "bytes32"
        },
        {
          "internalType": "uint256",
          "name": "value",
          "type": "uint256"
        }
      ],
      "name": "setGlobalCustomData",
      "outputs": [],
      "stateMutability": "nonpayable",
      "type": "function"
    },
    {
      "inputs": [
        {
          "internalType": "address",
          "name": "token",
          "type": "address"
        },
        {
          "internalType": "uint256",
          "name": "tokenId",
          "type": "uint256"
        },
        {
          "internalType": "bytes32",
          "name": "index",
          "type": "bytes32"
        },
        {
          "internalType": "uint256",
          "name": "value",
          "type": "uint256"
        }
      ],
      "name": "setHeroCustomData",
      "outputs": [],
      "stateMutability": "nonpayable",
      "type": "function"
    }
  ],
  "transactionHash": "0x5641a1873a6245bad5d7167f992626e42eed01b3718953d9a88ca7e849a7ba3a",
  "args": [],
  "numDeployments": 16,
  "solcInputHash": "ab128610a613a12ee3464e154c92869f",
  "bytecode": "0x60806040523480156200001157600080fd5b507ff0c57e16840df040f15088dc2f81fe391c3923bec73e23a9662efc9c229c6a00805468010000000000000000810460ff1615906001600160401b03166000811580156200005d5750825b90506000826001600160401b031660011480156200007a5750303b155b90508115801562000089575080155b15620000a85760405163f92ee8a960e01b815260040160405180910390fd5b84546001600160401b03191660011785558315620000d757845460ff60401b1916680100000000000000001785555b83156200011e57845460ff60401b19168555604051600181527fc7f505b2f371ae2175ee4913f4499e1f2633a7b5936321eed1cdaeb6115181d29060200160405180910390a15b5050505050615cd480620001336000396000f3fe608060405234801561001057600080fd5b50600436106101f25760003560e01c80636bad2ebd11610110578063af6a5722116100a8578063af6a572214610477578063afb1a9ed1461048a578063b429afeb1461049d578063cf536690146104b0578063d4ac4848146104c3578063dee1f0e4146104e3578063f16a3066146104f6578063f77c479114610509578063fbed9ac514610511578063ffa1ad741461053157600080fd5b80636bad2ebd146103b75780637527a8c0146103ca5780637ac46f97146103dd5780637cc96380146103f0578063906f0ced146103f8578063936725ec1461040b57806395e34c341461043c5780639d0bcca01461044f5780639ff45dbe1461046457600080fd5b8063236715f01161018e578063236715f0146102e4578063271d229e14610304578063325a19f11461031757806333237c091461031f5780633a658951146103325780633bdb788b146103555780633e4d93f6146103685780634593144c1461037b5780634fac6ccd1461038357806357e9ee7b1461039657600080fd5b80630a82c861146101f75780630f82ecaf1461021d57806314e4105a14610232578063184f61431461024557806319ab453c146102585780631c2aafe71461026b5780631f051fa01461027e5780631f74d4b21461029e57806320a7d299146102be575b600080fd5b61020a610205366004614d36565b610555565b6040519081526020015b60405180910390f35b61023061022b366004614d4f565b61057e565b005b610230610240366004614d86565b61059c565b610230610253366004614db2565b6105b6565b610230610266366004614ded565b6105d8565b61020a610279366004614e0a565b6106d3565b61029161028c366004614d86565b6106f0565b6040516102149190614e7e565b6102b16102ac366004614d86565b61070b565b6040516102149190614ec3565b6102d16102cc366004614e0a565b610725565b60405160039190910b8152602001610214565b6102f76102f2366004614d36565b61073a565b6040516102149190614ed1565b610230610312366004614f64565b61074b565b61020a61076b565b61023061032d366004614e0a565b6107a4565b610345610340366004614f64565b6107bf565b6040519015158152602001610214565b61020a610363366004614fcc565b6107d4565b61020a61037636600461501c565b6107e9565b61020a610800565b610230610391366004614ded565b610830565b6103a96103a43660046151e6565b610941565b6040516102149291906152a6565b61020a6103c5366004614d86565b610967565b61020a6103d836600461501c565b610973565b6102306103eb366004614d86565b61097e565b61020a610998565b6102306104063660046152db565b6109b6565b61042f604051806040016040528060058152602001640312e302e360dc1b81525081565b6040516102149190615359565b61029161044a366004614d86565b6109de565b6104576109f2565b60405161021491906153a8565b6102306104723660046153cb565b610a22565b61020a6104853660046154d3565b610a3e565b610230610498366004615574565b610a65565b6103456104ab366004614ded565b610a81565b6102916104be366004614d86565b610aa6565b6104d66104d1366004614d86565b610aba565b6040516102149190615670565b6103456104f1366004614ded565b610ad4565b610345610504366004614d86565b610b59565b610457610b6d565b61052461051f366004614d86565b610b9d565b604051610214919061567e565b61042f60405180604001604052806005815260200164322e312e3160d81b81525081565b6000610578610562610bb1565b6000848152600991909101602052604090205490565b92915050565b610598610589610bb1565b610591610b6d565b8484610bd5565b5050565b6105986105a7610bb1565b6105af610b6d565b8484610c31565b6105d26105c1610bb1565b6105c9610b6d565b86868686610e3b565b50505050565b60006105e2610ece565b805490915060ff600160401b82041615906001600160401b03166000811580156106095750825b90506000826001600160401b031660011480156106255750303b155b905081158015610633575080155b156106515760405163f92ee8a960e01b815260040160405180910390fd5b845467ffffffffffffffff19166001178555831561067b57845460ff60401b1916600160401b1785555b61068486610ef2565b83156106cb57845460ff60401b19168555604051600181527fc7f505b2f371ae2175ee4913f4499e1f2633a7b5936321eed1cdaeb6115181d2906020015b60405180910390a15b505050505050565b60006106e86106e0610bb1565b858585610f03565b949350505050565b60606107046106fd610bb1565b8484610f3f565b9392505050565b610713614c28565b61070461071e610bb1565b8484610fbc565b60006106e8610732610bb1565b85858561108e565b610742614c4f565b610578826110b3565b610766610756610bb1565b61075e610b6d565b85858561113c565b505050565b600061079f61079b60017f6f55f470bdc9cb5f04223fd822021061668e4dccb43e8727b295106dc9769c8b6156db565b5490565b905090565b6107666107af610bb1565b6107b7610b6d565b8585856111d5565b60006106e86107cc610bb1565b8585856113a3565b60006106e86107e1610bb1565b8585856113d5565b60006107f482611401565b63ffffffff1692915050565b600061079f61079b60017f812a673dfca07956350df10f8a654925f561d7a0da09bdbe79e653939a14d9f16156db565b3330146108825760405162461bcd60e51b815260206004820152601b60248201527a24b731b932b0b9b2903932bb34b9b4b7b7103337b93134b23232b760291b60448201526064015b60405180910390fd5b60006108a061079b6001600080516020615c5f8339815191526156db565b6108ab9060016156ee565b90506108cd816108ca6001600080516020615c5f8339815191526156db565b55565b6108fc826108ca60017fbfaaa2fb63266ff27c2da975f5894955056f50419af651a81f6c5060581857e46156db565b604080518281526001600160a01b03841660208201527ff27e2ef832a4eb8ed8ec553b875eecd44764cda95b1c24170e281539e0a869c8910160405180910390a15050565b6060600061095e610950610bb1565b610958610b6d565b856114a2565b91509150915091565b60006107048383611940565b600061057882611949565b610598610989610bb1565b610991610b6d565b84846119b4565b600061079f61079b6001600080516020615c5f8339815191526156db565b6109d56109c1610bb1565b6109c9610b6d565b89898989898989611a70565b50505050505050565b60606107046109eb610bb1565b8484611d30565b600061079f61079b60017fbfaaa2fb63266ff27c2da975f5894955056f50419af651a81f6c5060581857e46156db565b610a3b610a2d610bb1565b610a35610b6d565b83611d45565b50565b6000610a5c610a4b610bb1565b610a53610b6d565b87878787611f96565b95945050505050565b6105d2610a70610bb1565b610a78610b6d565b86868686612335565b6000610a8b610b6d565b6001600160a01b0316826001600160a01b0316149050919050565b6060610704610ab3610bb1565b848461255c565b610ac2614cd6565b610704610acd610bb1565b8484612571565b6000816001600160a01b0316610ae8610b6d565b6001600160a01b0316635aa6e6756040518163ffffffff1660e01b8152600401602060405180830381865afa158015610b25573d6000803e3d6000fd5b505050506040513d601f19601f82011682018060405250810190610b499190615701565b6001600160a01b03161492915050565b6000610704610b66610bb1565b8484612675565b600061079f61079b60017f5165972ef41194f06c5007493031d0b927c20741adcb74403b954009fd2c36186156db565b6060610704610baa610bb1565b8484612696565b7fca9e8235a410bd2656fc43f888ab589425034944963c2881072ee821e700e60090565b610bde83612823565b600082815260098501602090815260409182902083905581518481529081018390527feacbaeebfddf6fe98883b2aebd3ab60c079050480c8e910625719e1f1c949fb2910160405180910390a150505050565b610c3a83612823565b6000610c468383612abb565b6000818152600387016020908152604080832080548251818502810185019093528083529495509293909291830182828015610ca157602002820191906000526020600020905b815481526020019060010190808311610c8d575b505050505090506000610cb5878686612571565b600084815260028901602090815260408083208b83528184208251602b80825261058082019094529596509094909392909190820161056080368337505060408051602b80825261058082019092529293506000929150602082016105608036833701905050905060005b602b811015610dac576000610d358883612b0b565b9050600381900b15610da357610d5682610d4e83615734565b879190612b6f565b50848381518110610d6957610d69615757565b602002602001018160030b60030b8152505080838381518110610d8e57610d8e615757565b602002602001019060030b908160030b815250505b50600101610d20565b50600087815260038c0160205260408120610dc691614d04565b600087815260038c0160205260409020610de68b8587848a8f8989612bc1565b610df28c898689612c2f565b7fe4463ace42a449d7bf063bb8fa11b72c776ab039ad1e72d287d73e47c8de0d218a8a33604051610e259392919061576d565b60405180910390a1505050505050505050505050565b610e4485612823565b644b41524d4160d81b82148015610e59575080155b15610e7757604051633757c0e960e21b815260040160405180910390fd5b80866008016000610e888787612abb565b8152602001908152602001600020600084815260200190815260200160002081905550600080516020615c7f833981519152848484846040516106c29493929190615790565b7ff0c57e16840df040f15088dc2f81fe391c3923bec73e23a9662efc9c229c6a0090565b610efa612ce7565b610a3b81612d0e565b6000846008016000610f158686612abb565b81526020019081526020016000206000838152602001908152602001600020549050949350505050565b60606106e8846000610f518686612abb565b8152602001908152602001600020805480602002602001604051908101604052809291908181526020018280548015610fa957602002820191906000526020600020905b815481526020019060010190808311610f95575b50602b9350610fb792505050565b612e2d565b610fc4614c28565b6000610fed856001016000610fd98787612abb565b815260200190815260200160002054612efd565b905060405180608001604052808260008151811061100d5761100d615757565b602002602001015160030b81526020018260018151811061103057611030615757565b602002602001015160030b81526020018260028151811061105357611053615757565b602002602001015160030b81526020018260038151811061107657611076615757565b602002602001015160030b8152509150509392505050565b6000610a5c858261109f8787612abb565b815260200190815260200160002083612f77565b6110bb614c4f565b816001036110cb57610578612fdb565b816002036110db576105786130cb565b816003036110eb576105786131bb565b816004036110fb576105786132ab565b8160050361110b5761057861339b565b8160060361111b5761057861348b565b604051635613365f60e11b815260048101839052602401610879565b919050565b61114584612823565b611175818660070160006111598787612abb565b815260200190815260200160002061357b90919063ffffffff16565b611193578060405162f5d9b360e21b815260040161087991906153a8565b7fc6a0e07638c51d1c81ce988c90724173ebe207b85cd9b4563e34460940623e3d8383836040516111c69392919061576d565b60405180910390a15050505050565b6111de84613590565b60006111ea8484612abb565b90506111f7868284613625565b60008181526020879052604081209061121c82856001611216826110b3565b5161372c565b90506112298884836138ee565b7f04bfc2c521fc80553ed48f0c6811371ee4c7f94f912eba0835d44c6e07b06f8586866040518060a00160405280600163ffffffff168152602001600063ffffffff1681526020018560008151811061128457611284615757565b602002602001015163ffffffff168152602001856001815181106112aa576112aa615757565b602002602001015163ffffffff168152602001856002815181106112d0576112d0615757565b602002602001015163ffffffff168152506040516112f0939291906157b6565b60405180910390a160008381526008890160209081526040808320644b41524d4160d81b80855292819052928190206103e8908190559051600080516020615c7f83398151915292611347928b928b929190615790565b60405180910390a1694845524f5f434c41535360b01b6000818152602083905260409081902087905551600080516020615c7f83398151915291611390918a918a918a90615790565b60405180910390a1505050505050505050565b6000610a5c828660070160006113b98888612abb565b815260200190815260200160002061394d90919063ffffffff16565b60008460050160006113e886868661396f565b8152602001908152602001600020549050949350505050565b600063ffffffff8216158061141d5750606363ffffffff831610155b1561142a57506000919050565b670de0b6b3a76400006114696114418460636157da565b61144c9060026157f7565b6114649063ffffffff16670de0b6b3a7640000615814565b6139a4565b61147b90675cfb2e807b1e00006156db565b61148e620186a063ffffffff8616615814565b6114989190615814565b6105789190615841565b606081810151516000908082036114d2576114c68685600001518660200151610f3f565b60009250925050611938565b6000856001600160a01b03166331423c266040518163ffffffff1660e01b8152600401602060405180830381865afa158015611512573d6000803e3d6000fd5b505050506040513d601f19601f820116820180604052508101906115369190615701565b60408051602b80825261058082019092529192506000919060208201610560803683370190505090506000836001600160401b0381111561157957611579615039565b6040519080825280602002602001820160405280156115a2578160200160208202803683370190505b50905060005b848110156117fc576000805b8281101561161c57896060015183815181106115d2576115d2615757565b60200260200101516001600160a01b03168482815181106115f5576115f5615757565b60200260200101516001600160a01b031603611614576001915061161c565b6001016115b4565b50801561162957506117f4565b846001600160a01b03166382b538de8a60600151848151811061164e5761164e615757565b60200260200101516040518263ffffffff1660e01b815260040161167291906153a8565b61018060405180830381865afa158015611690573d6000803e3d6000fd5b505050506040513d601f19601f820116820180604052508101906116b491906158f4565b60a001516116c290886159ab565b9650600080866001600160a01b031663010759758c6060015186815181106116ec576116ec615757565b60200260200101518d60800151878151811061170a5761170a615757565b60200260200101516040518363ffffffff1660e01b81526004016117439291906001600160a01b03929092168252602082015260400190565b600060405180830381865afa158015611760573d6000803e3d6000fd5b505050506040513d6000823e601f3d908101601f191682016040526117889190810190615a3a565b9150915061179f8661179a8484613a85565b613b2c565b508a6060015184815181106117b6576117b6615757565b60200260200101518585815181106117d0576117d0615757565b60200260200101906001600160a01b031690816001600160a01b0316815250505050505b6001016115a8565b50600061181b6118158b8a600001518b60200151610f3f565b84613b2c565b90506118348361179a8c8b600001518c6020015161255c565b5061184c8361179a8c8b600001518c60200151611d30565b5061193081848b6001600160a01b031663016dff5d6040518163ffffffff1660e01b8152600401602060405180830381865afa158015611890573d6000803e3d6000fd5b505050506040513d601f19601f820116820180604052508101906118b49190615701565b8b51604051631789b7b160e01b81526001600160a01b039290921691631789b7b1916118e2916004016153a8565b602060405180830381865afa1580156118ff573d6000803e3d6000fd5b505050506040513d601f19601f820116820180604052508101906119239190615afe565b60ff168b60400151613b8a565b965050505050505b935093915050565b6000602b610704565b600063ffffffff821615806119655750606363ffffffff831610155b1561197257506000919050565b63ffffffff82166001146119ab5761199361198e6001846157da565b611401565b61199c83611401565b6119a691906157da565b6107f4565b6107f482611401565b6119bd83612823565b60008460070160006119cf8585612abb565b8152602001908152602001600020905060006119ea82613ead565b905060005b818110156109d5576000611a038482613eb7565b9050611a0f8482613ec3565b611a2c57604051630cd274c160e41b815260040160405180910390fd5b7f990d1d901983cf7739aa5466bcf829c3a1266cd06d92c460cc8bea285cddc800868683604051611a5f9392919061576d565b60405180910390a1506001016119ef565b611a7988613ed8565b611a86858560ff16613f6d565b611aaf576040516329c8542d60e11b81526004810186905260ff85166024820152604401610879565b600b8460ff1603611b06576000611ac98a898960096113d5565b141580611ae357506000611ae08a8989600a6113d5565b14155b15611b065760405163160400f960e01b815260ff85166004820152602401610879565b60098460ff161480611b1b5750600a8460ff16145b15611b52576000611b2f8a8989600b6113d5565b14611b525760405163160400f960e01b815260ff85166004820152602401610879565b6000611b6788886001600160401b0316612abb565b9050600080611b84611b7b8d8c8c8b6113d5565b9060a082901c90565b915091508315611c1f576001600160a01b03821615611bb657604051637101e8f760e11b815260040160405180910390fd5b611bc08686612abb565b8c6005016000611bd18d8d8c61396f565b815260200190815260200160002081905550611c098c6006016000858152602001908152602001600020548860ff1660016000614020565b600084815260068e016020526040902055611cb9565b856001600160a01b0316826001600160a01b0316141580611c405750848114155b15611c5e57604051631d0507df60e21b815260040160405180910390fd5b8b6005016000611c6f8c8c8b61396f565b815260200190815260200160002060009055611ca78c6006016000858152602001908152602001600020548860ff1660006001614020565b600084815260068e0160205260409020555b604080516001600160a01b03808d1682526001600160401b038c1660208301529181018a905260ff89166060820152908716608082015260a0810186905284151560c08201523360e08201527fc6cb8c2a2f03a3e6a43771211e58b1343cb739d7404d4130a938138f0fe24f149061010001610e25565b60606106e8846003016000610f518686612abb565b611d4e82612823565b6000611d6282600001518360200151612abb565b90506000611d798584600001518560200151612571565b60008381526020879052604081206080860151929350918190611db8576000858152600289016020908152604080832060038c01909252909120611dd6565b6000858152600389016020908152604080832060028c019092529091205b9150915060008660400151516001600160401b03811115611df957611df9615039565b604051908082528060200260200182016040528015611e22578160200160208202803683370190505b50905060005b876040015151811015611f0557600088604001518281518110611e4d57611e4d615757565b602002602001015190508060030b600014611efc576000896060015115611e9857611e79868484612b6f565b50829050611e878885612f77565b611e9191906159ab565b9050611ec8565b611ead83611ea584615734565b889190612b6f565b50829050611ebb8885612f77565b611ec59190615b1b565b90505b611ed38784836140d3565b80848481518110611ee657611ee6615757565b602002602001019060030b908160030b81525050505b50600101611e28565b50611f1e88858585898c60000151878e60400151612bc1565b611f2a89878688612c2f565b86516020808901516060808b01516080808d0151604080516001600160a01b03909816885295870194909452901515938501939093529015159083015233908201527ffce07ece8fe77b8dd7f25ce471bb0c4b9bc4a78340b4bfa97827af2307b142409060a001611390565b6000611fa186613590565b6000611fad8686612abb565b6060840151604085015160208601518651939450600593611fce91906159ab565b611fd891906159ab565b611fe291906159ab565b60030b14612003576040516342fa645360e11b815260040160405180910390fd5b6000612010898888612571565b9050606363ffffffff16816000015163ffffffff16106120435760405163094b8de560e31b815260040160405180910390fd5b806020015163ffffffff16612061826000015163ffffffff16611401565b63ffffffff161115612086576040516311c7bf1f60e31b815260040160405180910390fd5b80518161209282615b42565b63ffffffff16905250600082815260018a0160205260408120546120b590612efd565b90508460000151816000815181106120cf576120cf615757565b602002602001018181516120e391906159ab565b60030b905250602085015181518290600190811061210357612103615757565b6020026020010181815161211791906159ab565b60030b905250604085015181518290600290811061213757612137615757565b6020026020010181815161214b91906159ab565b600390810b90915260608701518351909250839190811061216e5761216e615757565b6020026020010181815161218291906159ab565b60030b905250612191816141aa565b8a600101600085815260200190815260200160002081905550506000896000016000848152602001908152602001600020905060008a6002016000858152602001908152602001600020905060008b6003016000868152602001908152602001600020905061221c8b848484888f8d600001516000602b8111156122175761221761571e565b614224565b61223d8b848484888f8d602001516001602b8111156122175761221761571e565b61225e8b848484888f8d604001516002602b8111156122175761221761571e565b61227f8b848484888f8d606001516003602b8111156122175761221761571e565b5061229a905061229260095b8390612f77565b60030b61425b565b63ffffffff1660408301526122b2612292600a61228b565b63ffffffff166060830181905282516020840151604085015160808601516122e4948f9489949093909290919061428a565b7f084f827316fe91358fc5d55a0d078803e03592c8f0be5630e6b51b5feb08d7f0888888886040516123199493929190615b65565b60405180910390a1505163ffffffff1698975050505050505050565b61233e85612823565b600061234a8585612abb565b90506000612359888787612571565b6040810151606082015160808301519293509091851561244257600085815260208c9052604081209061238c600961228b565b9050600061239b83600a612f77565b905060006123ac60165b8590612f77565b90508a60200151886020018181516123c491906157f7565b63ffffffff169052506123f76123dd600385900b61425b565b60408d01516123ec908a6157f7565b63ffffffff166143dd565b96506124176124088360030b61425b565b60608d01516123ec90896157f7565b95506124376124288260030b61425b565b60808d01516123ec90886157f7565b9450505050506124f9565b602087015163ffffffff161561246b5760405163ca9cdbef60e01b815260040160405180910390fd5b866040015163ffffffff168363ffffffff1611612489576000612498565b604087015161249890846157da565b9250866080015163ffffffff168163ffffffff16116124b85760006124c7565b60808701516124c790826157da565b9050866060015163ffffffff168263ffffffff16116124e75760006124f6565b60608701516124f690836157da565b91505b6125108b868660000151876020015187878761428a565b7ff92789f80d24dd48838ae6569cf1fe54ca007b75af463e061bd4732677002b2b8989898933604051612547959493929190615b90565b60405180910390a15050505050505050505050565b60606106e8846002016000610f518686612abb565b612579614cd6565b60006125a285600401600061258e8787612abb565b8152602001908152602001600020546143f3565b90506040518060a00160405280826000815181106125c2576125c2615757565b602002602001015163ffffffff168152602001826001815181106125e8576125e8615757565b602002602001015163ffffffff1681526020018260028151811061260e5761260e615757565b602002602001015163ffffffff1681526020018260038151811061263457612634615757565b602002602001015163ffffffff1681526020018260048151811061265a5761265a615757565b602002602001015163ffffffff168152509150509392505050565b6000612682848484612571565b6080015163ffffffff161515949350505050565b606060006126c18560060160006126ad8787612abb565b815260200190815260200160002054614468565b9050600081516001600160401b038111156126de576126de615039565b604051908082528060200260200182016040528015612707578160200160208202803683370190505b5090506000805b835160ff168160ff16101561277f57838160ff168151811061273257612732615757565b602002602001015160ff16600014612777578083838151811061275757612757615757565b60ff909216602092830291909101909101528161277381615bd3565b9250505b60010161270e565b506000816001600160401b0381111561279a5761279a615039565b6040519080825280602002602001820160405280156127c3578160200160208202803683370190505b50905060005b82811015612817578381815181106127e3576127e3615757565b60200260200101518282815181106127fd576127fd615757565b60ff909216602092830291909101909101526001016127c9565b50979650505050505050565b6000339050806001600160a01b0316826001600160a01b031663016dff5d6040518163ffffffff1660e01b8152600401602060405180830381865afa158015612870573d6000803e3d6000fd5b505050506040513d601f19601f820116820180604052508101906128949190615701565b6001600160a01b03161415801561291e5750806001600160a01b0316826001600160a01b03166331423c266040518163ffffffff1660e01b8152600401602060405180830381865afa1580156128ee573d6000803e3d6000fd5b505050506040513d601f19601f820116820180604052508101906129129190615701565b6001600160a01b031614155b801561299d5750806001600160a01b0316826001600160a01b031663683fedf76040518163ffffffff1660e01b8152600401602060405180830381865afa15801561296d573d6000803e3d6000fd5b505050506040513d601f19601f820116820180604052508101906129919190615701565b6001600160a01b031614155b8015612a1c5750806001600160a01b0316826001600160a01b031663524a562f6040518163ffffffff1660e01b8152600401602060405180830381865afa1580156129ec573d6000803e3d6000fd5b505050506040513d601f19601f82011682018060405250810190612a109190615701565b6001600160a01b031614155b8015612a9b5750806001600160a01b0316826001600160a01b03166389dd9f136040518163ffffffff1660e01b8152600401602060405180830381865afa158015612a6b573d6000803e3d6000fd5b505050506040513d601f19601f82011682018060405250810190612a8f9190615701565b6001600160a01b031614155b15610598578060405163f652640360e01b815260040161087991906153a8565b60006001600160401b03821115612ae857604051633995b34160e01b815260048101839052602401610879565b5067ffffffffffffffff60a01b60a09190911b166001600160a01b039091161790565b8151600090612b1b600884615841565b10612b2857506000610578565b612b33600883615bec565b612b3e906020615814565b83612b4a600885615841565b81518110612b5a57612b5a615757565b602002602001015160001c901c905092915050565b6000806000612b7e8686612f77565b60030b905060008460030b8260030b612b979190615c00565b9350839050612baa600383900b82615c28565b9250612bb78787866140d3565b5050935093915050565b805160005b81811015612c2357828181518110612be057612be0615757565b602002602001015160030b600014612c1b57612c1b8a8a8a8a8a868b8b8981518110612c0e57612c0e615757565b60200260200101516144d9565b600101612bc6565b50505050505050505050565b6000612c3e61229260096123a5565b90506000612c5061229285600a612f77565b90506000836040015163ffffffff16831015612c8957612c7a83856040015163ffffffff166143dd565b63ffffffff1660408501525060015b836060015163ffffffff16821015612cbe57612caf82856060015163ffffffff166143dd565b63ffffffff1660608501525060015b80156109d5576109d5878786600001518760200151886040015189606001518a6080015161428a565b612cef6146f1565b612d0c57604051631afcd79f60e31b815260040160405180910390fd5b565b6001600160a01b038116612d565760405162461bcd60e51b815260206004820152600f60248201526e2d32b9379031b7b73a3937b63632b960891b6044820152606401610879565b612d85816108ca60017f5165972ef41194f06c5007493031d0b927c20741adcb74403b954009fd2c36186156db565b612db4426108ca60017f6f55f470bdc9cb5f04223fd822021061668e4dccb43e8727b295106dc9769c8b6156db565b612de3436108ca60017f812a673dfca07956350df10f8a654925f561d7a0da09bdbe79e653939a14d9f16156db565b604080516001600160a01b0383168152426020820152438183015290517f1a2dd071001ebf6e03174e3df5b305795a4ad5d41d8fdb9ba41dbbe2367134269181900360600190a150565b60606000826001600160401b03811115612e4957612e49615039565b604051908082528060200260200182016040528015612e72578160200160208202803683370190505b50905060005b8451811015612ef55760005b6008811015612eec57600081612e9b846008615814565b612ea591906156ee565b9050858110612eb45750612eec565b612ebe8782612b0b565b848281518110612ed057612ed0615757565b60039290920b6020928302919091019091015250600101612e84565b50600101612e78565b509392505050565b604080516008808252610120820190925260609160009190602082016101008036833701905050905060005b6008811015612f7057612f3d816020615814565b8460001c901c828281518110612f5557612f55615757565b60039290920b60209283029190910190910152600101612f29565b5092915050565b8154600090612f87600884615841565b10612f9457506000610578565b612f9f600883615bec565b612faa906020615814565b83612fb6600885615841565b81548110612fc657612fc6615757565b600091825260209091200154901c9392505050565b612fe3614c4f565b60405180608001604052806040518060800160405280600f60030b8152602001600f60030b8152602001601e60030b8152602001600a60030b81525081526020016040518060e0016040528067016345785d8a000081526020016702c68af0bb1400008152602001671bc16d674ec800008152602001671bc16d674ec80000815260200167016345785d8a000081526020016714d1120d7b16000081526020016706f05b59d3b2000081525081526020016040518060400160405280671bc16d674ec800008152602001670de0b6b3a76400008152508152602001600560030b815250905090565b6130d3614c4f565b60405180608001604052806040518060800160405280601e60030b8152602001600560030b8152602001601960030b8152602001600a60030b81525081526020016040518060e00160405280670214e8348c4f000081526020016703782dace9d900008152602001671bc16d674ec800008152602001670de0b6b3a7640000815260200167011c37937e080000815260200167120a871cc002000081526020016706f05b59d3b20000815250815260200160405180604001604052806718fae27693b400008152602001670de0b6b3a76400008152508152602001600560030b815250905090565b6131c3614c4f565b60405180608001604052806040518060800160405280600a60030b8152602001600f60030b8152602001601460030b8152602001601960030b81525081526020016040518060e0016040528067016345785d8a000081526020016702c68af0bb1400008152602001671bc16d674ec800008152602001670de0b6b3a7640000815260200167016345785d8a00008152602001670de0b6b3a76400008152602001671bc16d674ec800008152508152602001604051806040016040528067120a871cc00200008152602001671bc16d674ec800008152508152602001600560030b815250905090565b6132b3614c4f565b60405180608001604052806040518060800160405280600f60030b8152602001601960030b8152602001600f60030b8152602001600f60030b81525081526020016040518060e0016040528067016345785d8a000081526020016702c68af0bb1400008152602001673782dace9d90000081526020016729a2241af62c000081526020016702c68af0bb14000081526020016710a741a4627800008152602001670de0b6b3a7640000815250815260200160405180604001604052806717979cfe362a000081526020016714d1120d7b1600008152508152602001600560030b815250905090565b6133a3614c4f565b60405180608001604052806040518060800160405280601460030b8152602001601460030b8152602001601460030b8152602001600a60030b81525081526020016040518060e00160405280670214e8348c4f000081526020016703782dace9d9000081526020016729a2241af62c000081526020016722b1c8c1227a00008152602001670214e8348c4f000081526020016714d1120d7b16000081526020016714d1120d7b160000815250815260200160405180604001604052806714d1120d7b16000081526020016714d1120d7b1600008152508152602001600160030b815250905090565b613493614c4f565b60405180608001604052806040518060800160405280603260030b8152602001601e60030b8152602001603260030b8152602001600f60030b81525081526020016040518060e001604052806702c68af0bb1400008152602001670429d069189e00008152602001674563918244f4000081526020016729a2241af62c00008152602001670214e8348c4f00008152602001671bc16d674ec800008152602001671bc16d674ec80000815250815260200160405180604001604052806717979cfe362a000081526020016714d1120d7b1600008152508152602001600160030b815250905090565b6000610704836001600160a01b03841661470b565b336001600160a01b0316816001600160a01b031663016dff5d6040518163ffffffff1660e01b8152600401602060405180830381865afa1580156135d8573d6000803e3d6000fd5b505050506040513d601f19601f820116820180604052508101906135fc9190615701565b6001600160a01b031614610a3b57336040516303f2374960e01b815260040161087991906153a8565b6000613630826110b3565b5160408051600480825260a08201909252919250600091906020820160808036833701905050905081600001518160008151811061367057613670615757565b602002602001019060030b908160030b8152505081602001518160018151811061369c5761369c615757565b602002602001019060030b908160030b815250508160400151816002815181106136c8576136c8615757565b602002602001019060030b908160030b815250508160600151816003815181106136f4576136f4615757565b602002602001019060030b908160030b81525050613711816141aa565b60009485526001909501602052505060409091209190915550565b606061373d600083518791906140d3565b61374f600160208401518791906140d3565b613761600260408401518791906140d3565b613773600360608401518791906140d3565b61378c60048351613784908761475a565b8791906140d3565b61379d600583516137849087614794565b6137b060066137848460200151876147bc565b6137c360076137848460200151876147e4565b6137d6600861378484602001518761480c565b6137ea600961378484604001518787614852565b6137fe600a613784846060015187876148c9565b61380d60166137848686614925565b60408051600380825260808201909252906020820160608036833701905050905061384061229283604001518686614852565b8160008151811061385357613853615757565b602002602001019063ffffffff16908163ffffffff168152505061387f612292836060015186866148c9565b8160018151811061389257613892615757565b602002602001019063ffffffff16908163ffffffff16815250506138b96122928585614925565b816002815181106138cc576138cc615757565b602002602001019063ffffffff16908163ffffffff1681525050949350505050565b6107668383600160008560008151811061390a5761390a615757565b60200260200101518660018151811061392557613925615757565b60200260200101518760028151811061394057613940615757565b602002602001015161428a565b6001600160a01b03811660009081526001830160205260408120541515610704565b60609290921b6001600160601b03191660209190911b6bffffffffffffffff00000000161760189190911b63ff000000161790565b6000670de0b6b3a76400008210156139d257604051637046c4a960e01b815260048101839052602401610879565b60006139ee6139e9670de0b6b3a764000085615841565b61493b565b90506000613a0482670de0b6b3a7640000615814565b905083821c670de0b6b3a7640000819003613a2157509392505050565b6706f05b59d3b200005b8015613a7b57670de0b6b3a7640000613a448380615814565b613a4e9190615841565b9150671bc16d674ec800008210613a7357613a6981846156ee565b9250600182901c91505b60011c613a2b565b5090949350505050565b60408051602b8082526105808201909252606091602082016105608036833701905050905060005b8351811015612f70576000848281518110613aca57613aca615757565b602002602001015190508060030b600014613b23578083858481518110613af357613af3615757565b602002602001015160ff1681518110613b0e57613b0e615757565b602002602001019060030b908160030b815250505b50600101613aad565b606060005b8351811015613b8257828181518110613b4c57613b4c615757565b6020026020010151848281518110613b6657613b66615757565b60209081029190910101805190910160030b9052600101613b31565b509192915050565b60606000858181518110613ba057613ba0615757565b602002602001015190506000866001602b811115613bc057613bc061571e565b81518110613bd057613bd0615757565b602002602001015190506000876002602b811115613bf057613bf061571e565b81518110613c0057613c00615757565b602002602001015190506000886003602b811115613c2057613c2061571e565b81518110613c3057613c30615757565b60200260200101519050876004602b811115613c4e57613c4e61571e565b81518110613c5e57613c5e615757565b6020026020010151613c70858961475a565b613c7a91906159ab565b89600481518110613c8d57613c8d615757565b60039290920b6020928302919091019091015287600581518110613cb357613cb3615757565b6020026020010151613cc58589614794565b613ccf91906159ab565b89600581518110613ce257613ce2615757565b60039290920b6020928302919091019091015287600681518110613d0857613d08615757565b6020026020010151613d1a84896147bc565b613d2491906159ab565b89600681518110613d3757613d37615757565b60039290920b6020928302919091019091015287600781518110613d5d57613d5d615757565b6020026020010151613d6f84896147e4565b613d7991906159ab565b89600781518110613d8c57613d8c615757565b60039290920b6020928302919091019091015287600881518110613db257613db2615757565b6020026020010151613dc4848961480c565b613dce91906159ab565b89600881518110613de157613de1615757565b60039290920b6020928302919091019091015287600981518110613e0757613e07615757565b6020026020010151613e1a838989614852565b613e2491906159ab565b89600981518110613e3757613e37615757565b60039290920b6020928302919091019091015287600a81518110613e5d57613e5d615757565b6020026020010151613e708289896148c9565b613e7a91906159ab565b89600a81518110613e8d57613e8d615757565b60039290920b602092830291909101909101525096979650505050505050565b6000610578825490565b60006107048383614a1a565b6000610704836001600160a01b038416614a44565b336001600160a01b0316816001600160a01b03166331423c266040518163ffffffff1660e01b8152600401602060405180830381865afa158015613f20573d6000803e3d6000fd5b505050506040513d601f19601f82011682018060405250810190613f449190615701565b6001600160a01b031614610a3b573360405163f6b9c4d960e01b815260040161087991906153a8565b6000821580613f7a575081155b15613f8757506000610578565b60058311613f985750808214610578565b60068303613fb7576007821480613fb0575060085b82145b9050610578565b60088303613fc6576006613fad565b60098303613fd5576009613fad565b60078303613fe457600a613fad565b600a8303613ff357600b613fad565b600b830361401757600c82148061400a5750600d82145b80613fb05750600e613fad565b50600092915050565b60008061402c86614468565b90508260ff1681868151811061404457614044615757565b602002602001015160ff1614614099578260ff1681868151811061406a5761406a615757565b602002602001015160ff1660405163c230690360e01b8152600401610879929190918252602082015260400190565b838186815181106140ac576140ac615757565b602002602001019060ff16908160ff16815250506140c981614b37565b9695505050505050565b60006140e0600884615841565b905060006140ef600885615bec565b6140fa906020615814565b855490915080831061414657855460018101875560008781526020812090910155805b8381101561414457865460018181018955600089815260208120909201919091550161411d565b505b818463ffffffff1663ffffffff16901b8263ffffffff901b1987858154811061417157614171615757565b906000526020600020015460001c161760001b86848154811061419657614196615757565b600091825260209091200155505050505050565b805160009060088111156141db57604051633d71388b60e21b81526004810182905260086024820152604401610879565b6000805b82811015612ef5576141f2816020615814565b85828151811061420457614204615757565b602090810291909101015163ffffffff16901b91909117906001016141df565b8160030b60001461425157600061423c888385612b6f565b50905061424f8989898989878a886144d9565b505b5050505050505050565b6000808260030b121561427057506000919050565b60008260030b1361428357506000919050565b5060030b90565b63ffffffff8116158015906142a3575063ffffffff8316155b156142ad57600192505b60408051600580825260c082019092526000916020820160a08036833701905050905085816000815181106142e4576142e4615757565b602002602001019063ffffffff16908163ffffffff1681525050848160018151811061431257614312615757565b602002602001019063ffffffff16908163ffffffff1681525050838160028151811061434057614340615757565b602002602001019063ffffffff16908163ffffffff1681525050828160038151811061436e5761436e615757565b602002602001019063ffffffff16908163ffffffff1681525050818160048151811061439c5761439c615757565b602002602001019063ffffffff16908163ffffffff16815250506143bf81614bae565b60009788526004909801602052505060409094209490945550505050565b60008183106143ec5781610704565b5090919050565b604080516008808252610120820190925260609160009190602082016101008036833701905050905060005b6008811015612f7057614433816020615814565b8460001c901c82828151811061444b5761444b615757565b63ffffffff9092166020928302919091019091015260010161441f565b6040805160208082526104208201909252606091600091908082016104008036833701905050905060005b6020811015612f70576144a7816008615814565b8460001c901c8282815181106144bf576144bf615757565b60ff90921660209283029190910190910152600101614493565b6000886001600160a01b031663016dff5d6040518163ffffffff1660e01b8152600401602060405180830381865afa158015614519573d6000803e3d6000fd5b505050506040513d601f19601f8201168201806040525081019061453d9190615701565b6001600160a01b0316631789b7b1846040518263ffffffff1660e01b815260040161456891906153a8565b602060405180830381865afa158015614585573d6000803e3d6000fd5b505050506040513d601f19601f820116820180604052508101906145a99190615afe565b60ff16905083614620576145f860046145c560045b8990612f77565b6145d260045b8b90612f77565b6145dc868661475a565b6145e691906159ab565b6145f091906159ab565b8a91906140d3565b61461b600561460760056145be565b61461160056145cb565b6145dc8686614794565b61424f565b600184036146915761464b600661463760066145be565b61464160066145cb565b6145dc86866147bc565b61466e600761465a60076145be565b61466460076145cb565b6145dc86866147e4565b61461b600861467d60086145be565b61468760086145cb565b6145dc868661480c565b600284036146c15761461b60096146a860096145be565b6146b260096145cb565b6145dc86868b60000151614852565b6003840361424f5761424f600a6146d8600a6145be565b6146e2600a6145cb565b6145dc86868b600001516148c9565b60006146fb610ece565b54600160401b900460ff16919050565b600081815260018301602052604081205461475257508154600181810184556000848152602080822090930184905584548482528286019093526040902091909155610578565b506000610578565b6000670de0b6b3a764000061476e836110b3565b6020015151614780600386900b61425b565b61478a9190615814565b6107049190615841565b6000670de0b6b3a76400006147a8836110b3565b60200151602001516147808560030b61425b565b6000670de0b6b3a76400006147d0836110b3565b60200151604001516147808560030b61425b565b6000670de0b6b3a76400006147f8836110b3565b60200151606001516147808560030b61425b565b6000610704670de0b6b3a7640000614823846110b3565b60200151608001516148378660030b61425b565b6148419190615814565b61484b9190615841565b604b6143dd565b6000670de0b6b3a7640000614866846110b3565b604001515161487b9063ffffffff8516615814565b6148859190615841565b670de0b6b3a7640000614897856110b3565b6020015160a001516148ab8760030b61425b565b6148b59190615814565b6148bf9190615841565b6106e891906156ee565b6000670de0b6b3a76400006148dd846110b3565b60400151602001516148f59063ffffffff8516615814565b6148ff9190615841565b670de0b6b3a7640000614911856110b3565b6020015160c001516148ab8760030b61425b565b6000614930836110b3565b606001519392505050565b6000600160801b821061495b57608091821c9161495890826156ee565b90505b600160401b821061497957604091821c9161497690826156ee565b90505b640100000000821061499857602091821c9161499590826156ee565b90505b6201000082106149b557601091821c916149b290826156ee565b90505b61010082106149d157600891821c916149ce90826156ee565b90505b601082106149ec57600491821c916149e990826156ee565b90505b60048210614a0757600291821c91614a0490826156ee565b90505b60028210611137576105786001826156ee565b6000826000018281548110614a3157614a31615757565b9060005260206000200154905092915050565b60008181526001830160205260408120548015614b2d576000614a686001836156db565b8554909150600090614a7c906001906156db565b9050808214614ae1576000866000018281548110614a9c57614a9c615757565b9060005260206000200154905080876000018481548110614abf57614abf615757565b6000918252602080832090910192909255918252600188019052604090208390555b8554869080614af257614af2615c48565b600190038181906000526020600020016000905590558560010160008681526020019081526020016000206000905560019350505050610578565b6000915050610578565b80516000906020811115614b6857604051633d71388b60e21b81526004810182905260206024820152604401610879565b6000805b82811015612ef557614b7f816008615814565b858281518110614b9157614b91615757565b602090810291909101015160ff16901b9190911790600101614b6c565b80516000906008811115614bdf57604051633d71388b60e21b81526004810182905260086024820152604401610879565b6000805b82811015612ef557614bf6816020615814565b858281518110614c0857614c08615757565b602090810291909101015163ffffffff16901b9190911790600101614be3565b60408051608081018252600080825260208201819052918101829052606081019190915290565b6040518060800160405280614c62614c28565b8152602001614ca76040518060e00160405280600081526020016000815260200160008152602001600081526020016000815260200160008152602001600081525090565b8152602001614cc9604051806040016040528060008152602001600081525090565b8152600060209091015290565b6040805160a08101825260008082526020820181905291810182905260608101829052608081019190915290565b5080546000825590600052602060002090810190610a3b91905b80821115614d325760008155600101614d1e565b5090565b600060208284031215614d4857600080fd5b5035919050565b60008060408385031215614d6257600080fd5b50508035926020909101359150565b6001600160a01b0381168114610a3b57600080fd5b60008060408385031215614d9957600080fd5b8235614da481614d71565b946020939093013593505050565b60008060008060808587031215614dc857600080fd5b8435614dd381614d71565b966020860135965060408601359560600135945092505050565b600060208284031215614dff57600080fd5b813561070481614d71565b600080600060608486031215614e1f57600080fd5b8335614e2a81614d71565b95602085013595506040909401359392505050565b60008151808452602080850194506020840160005b83811015614e7357815160030b87529582019590820190600101614e54565b509495945050505050565b6020815260006107046020830184614e3f565b805160030b8252602081015160030b6020830152604081015160030b6040830152606081015160030b60608301525050565b608081016105788284614e91565b60006101c082019050614ee5828451614e91565b602083015180516080840152602081015160a0840152604081015160c0840152606081015160e0840152608081015161010084015260a081015161012084015260c0810151610140840152506040830151614f4e61016084018280518252602090810151910152565b506060830151612f706101a084018260030b9052565b600080600060608486031215614f7957600080fd5b8335614f8481614d71565b9250602084013591506040840135614f9b81614d71565b809150509250925092565b80356001600160401b038116811461113757600080fd5b60ff81168114610a3b57600080fd5b600080600060608486031215614fe157600080fd5b8335614fec81614d71565b9250614ffa60208501614fa6565b91506040840135614f9b81614fbd565b63ffffffff81168114610a3b57600080fd5b60006020828403121561502e57600080fd5b81356107048161500a565b634e487b7160e01b600052604160045260246000fd5b60405160a081016001600160401b038111828210171561507157615071615039565b60405290565b604051608081016001600160401b038111828210171561507157615071615039565b60405161012081016001600160401b038111828210171561507157615071615039565b604051601f8201601f191681016001600160401b03811182821017156150e4576150e4615039565b604052919050565b60006001600160401b0382111561510557615105615039565b5060051b60200190565b600082601f83011261512057600080fd5b81356020615135615130836150ec565b6150bc565b8083825260208201915060208460051b87010193508684111561515757600080fd5b602086015b8481101561517c57803561516f81614d71565b835291830191830161515c565b509695505050505050565b600082601f83011261519857600080fd5b813560206151a8615130836150ec565b8083825260208201915060208460051b8701019350868411156151ca57600080fd5b602086015b8481101561517c57803583529183019183016151cf565b6000602082840312156151f857600080fd5b81356001600160401b038082111561520f57600080fd5b9083019060a0828603121561522357600080fd5b61522b61504f565b823561523681614d71565b81526020838101359082015260408301356152508161500a565b604082015260608301358281111561526757600080fd5b6152738782860161510f565b60608301525060808301358281111561528b57600080fd5b61529787828601615187565b60808301525095945050505050565b6040815260006152b96040830185614e3f565b90508260030b60208301529392505050565b8035801515811461113757600080fd5b600080600080600080600060e0888a0312156152f657600080fd5b873561530181614d71565b965061530f60208901614fa6565b955060408801359450606088013561532681614fbd565b9350608088013561533681614d71565b925060a0880135915061534b60c089016152cb565b905092959891949750929550565b60006020808352835180602085015260005b818110156153875785810183015185820160400152820161536b565b506000604082860101526040601f19601f8301168501019250505092915050565b6001600160a01b0391909116815260200190565b8060030b8114610a3b57600080fd5b600060208083850312156153de57600080fd5b82356001600160401b03808211156153f557600080fd5b9084019060a0828703121561540957600080fd5b61541161504f565b823561541c81614d71565b8152828401358482015260408301358281111561543857600080fd5b83019150601f8201871361544b57600080fd5b8135615459615130826150ec565b81815260059190911b8301850190858101908983111561547857600080fd5b938601935b8285101561549f578435615490816153bc565b8252938601939086019061547d565b6040840152506154b39050606084016152cb565b60608201526154c4608084016152cb565b60808201529695505050505050565b60008060008084860360e08112156154ea57600080fd5b85356154f581614d71565b945060208601359350604086013592506080605f198201121561551757600080fd5b50615520615077565b606086013561552e816153bc565b8152608086013561553e816153bc565b602082015260a0860135615551816153bc565b604082015260c0860135615564816153bc565b6060820152939692955090935050565b60008060008084860361010081121561558c57600080fd5b853561559781614d71565b94506020860135935060a0603f19820112156155b257600080fd5b506155bb61504f565b60408601356155c98161500a565b815260608601356155d98161500a565b602082015260808601356155ec8161500a565b604082015260a08601356155ff8161500a565b606082015260c08601356156128161500a565b6080820152915061562560e086016152cb565b905092959194509250565b63ffffffff808251168352806020830151166020840152806040830151166040840152806060830151166060840152806080830151166080840152505050565b60a081016105788284615630565b6020808252825182820181905260009190848201906040850190845b818110156156b957835160ff168352928401929184019160010161569a565b50909695505050505050565b634e487b7160e01b600052601160045260246000fd5b81810381811115610578576105786156c5565b80820180821115610578576105786156c5565b60006020828403121561571357600080fd5b815161070481614d71565b634e487b7160e01b600052602160045260246000fd5b60008160030b637fffffff19810361574e5761574e6156c5565b60000392915050565b634e487b7160e01b600052603260045260246000fd5b6001600160a01b0393841681526020810192909252909116604082015260600190565b6001600160a01b0394909416845260208401929092526040830152606082015260800190565b6001600160a01b03841681526020810183905260e081016106e86040830184615630565b63ffffffff828116828216039080821115612f7057612f706156c5565b63ffffffff818116838216019080821115612f7057612f706156c5565b8082028115828204841417610578576105786156c5565b634e487b7160e01b600052601260045260246000fd5b6000826158505761585061582b565b500490565b805161113781614fbd565b8051600d811061113757600080fd5b805161ffff8116811461113757600080fd5b80516111378161500a565b60006080828403121561589e57600080fd5b6158a6615077565b905081516158b3816153bc565b815260208201516158c3816153bc565b602082015260408201516158d6816153bc565b604082015260608201516158e9816153bc565b606082015292915050565b6000610180828403121561590757600080fd5b61590f615099565b61591883615855565b815261592660208401615855565b602082015261593760408401615860565b60408201526159486060840161586f565b606082015261595960808401615855565b608082015261596a60a08401615881565b60a082015261597b60c08401615855565b60c082015261598c60e08401615855565b60e08201526101006159a08582860161588c565b908201529392505050565b600381810b9083900b01637fffffff8113637fffffff1982121715610578576105786156c5565b600082601f8301126159e357600080fd5b815160206159f3615130836150ec565b8083825260208201915060208460051b870101935086841115615a1557600080fd5b602086015b8481101561517c578051615a2d81614fbd565b8352918301918301615a1a565b60008060408385031215615a4d57600080fd5b82516001600160401b0380821115615a6457600080fd5b818501915085601f830112615a7857600080fd5b81516020615a88615130836150ec565b82815260059290921b84018101918181019089841115615aa757600080fd5b948201945b83861015615ace578551615abf816153bc565b82529482019490820190615aac565b91880151919650909350505080821115615ae757600080fd5b50615af4858286016159d2565b9150509250929050565b600060208284031215615b1057600080fd5b815161070481614fbd565b600382810b9082900b03637fffffff198112637fffffff82131715610578576105786156c5565b600063ffffffff808316818103615b5b57615b5b6156c5565b6001019392505050565b6001600160a01b0385168152602081018490526040810183905260e08101610a5c6060830184614e91565b6001600160a01b03868116825260208201869052610120820190615bb76040840187615630565b84151560e0840152808416610100840152509695505050505050565b600060018201615be557615be56156c5565b5060010190565b600082615bfb57615bfb61582b565b500690565b8082018281126000831280158216821582161715615c2057615c206156c5565b505092915050565b8181036000831280158383131683831282161715612f7057612f706156c5565b634e487b7160e01b600052603160045260246000fdfe22573091f17911fb166032a3d9e0554aa73d31b7b7ddea4a4dd2995650af84bd944a3dd1d62bdf01982b7f6a998d66608c06e34399f68c67a575156ad74142bba26469706673582212200fee4955093e8a0231ba0f57f35a345011b784597b5fe52656a89b22f21e867964736f6c63430008170033",
  "devdoc": {
    "errors": {
      "InvalidInitialization()": [
        {
          "details": "The contract is already initialized."
        }
      ],
      "NotInitializing()": [
        {
          "details": "The contract is not initializing."
        }
      ]
    },
    "events": {
      "Initialized(uint64)": {
        "details": "Triggered when the contract has been initialized or reinitialized."
      }
    },
    "kind": "dev",
    "methods": {
      "created()": {
        "returns": {
          "_0": "Creation timestamp"
        }
      },
      "createdBlock()": {
        "returns": {
          "_0": "Creation block number"
        }
      },
      "increaseRevision(address)": {
        "details": "Revision should be increased on each contract upgrade"
      },
      "isController(address)": {
        "details": "Return true if given address is controller"
      },
      "previousImplementation()": {
        "details": "Previous logic implementation"
      },
      "revision()": {
        "details": "Contract upgrade counter"
      }
    },
    "stateVariables": {
      "VERSION": {
        "details": "Should be incremented when contract changed"
      }
    },
    "version": 1
  },
  "userdoc": {
    "kind": "user",
    "methods": {
      "CONTROLLABLE_VERSION()": {
        "notice": "Version of the contract"
      },
      "VERSION()": {
        "notice": "Version of the contract"
      },
      "controller()": {
        "notice": "Return controller address saved in the contract slot"
      },
      "created()": {
        "notice": "Return creation timestamp"
      },
      "createdBlock()": {
        "notice": "Return creation block number"
      },
      "isGovernance(address)": {
        "notice": "Return true if given address is setup as governance in Controller"
      }
    },
    "version": 1
  },
  "storageLayout": {
    "storage": [],
    "types": null
  }
}