{
  "address": "0x7d76163177bC47D9F630EdD74CD1e064E306ED4B",
  "abi": [
    {
      "inputs": [
        {
          "internalType": "address",
          "name": "sender",
          "type": "address"
        }
      ],
      "name": "ErrorNotDungeonFactory",
      "type": "error"
    },
    {
      "inputs": [],
      "name": "InvalidInitialization",
      "type": "error"
    },
    {
      "inputs": [],
      "name": "NotEnoughBalance",
      "type": "error"
    },
    {
      "inputs": [],
      "name": "NotInitializing",
      "type": "error"
    },
    {
      "anonymous": false,
      "inputs": [
        {
          "indexed": false,
          "internalType": "address",
          "name": "dungeon",
          "type": "address"
        },
        {
          "indexed": false,
          "internalType": "address",
          "name": "token",
          "type": "address"
        },
        {
          "indexed": false,
          "internalType": "uint256",
          "name": "amount",
          "type": "uint256"
        }
      ],
      "name": "AssetsSentToDungeon",
      "type": "event"
    },
    {
      "anonymous": false,
      "inputs": [
        {
          "indexed": false,
          "internalType": "address",
          "name": "controller",
          "type": "address"
        },
        {
          "indexed": false,
          "internalType": "uint256",
          "name": "ts",
          "type": "uint256"
        },
        {
          "indexed": false,
          "internalType": "uint256",
          "name": "block",
          "type": "uint256"
        }
      ],
      "name": "ContractInitialized",
      "type": "event"
    },
    {
      "anonymous": false,
      "inputs": [
        {
          "indexed": false,
          "internalType": "uint64",
          "name": "version",
          "type": "uint64"
        }
      ],
      "name": "Initialized",
      "type": "event"
    },
    {
      "anonymous": false,
      "inputs": [
        {
          "indexed": false,
          "internalType": "uint256",
          "name": "value",
          "type": "uint256"
        },
        {
          "indexed": false,
          "internalType": "address",
          "name": "oldLogic",
          "type": "address"
        }
      ],
      "name": "RevisionIncreased",
      "type": "event"
    },
    {
      "inputs": [],
      "name": "AUGMENT_GOV_FEE",
      "outputs": [
        {
          "internalType": "uint256",
          "name": "",
          "type": "uint256"
        }
      ],
      "stateMutability": "view",
      "type": "function"
    },
    {
      "inputs": [],
      "name": "CONTROLLABLE_VERSION",
      "outputs": [
        {
          "internalType": "string",
          "name": "",
          "type": "string"
        }
      ],
      "stateMutability": "view",
      "type": "function"
    },
    {
      "inputs": [],
      "name": "REPAIR_GOV_FEE",
      "outputs": [
        {
          "internalType": "uint256",
          "name": "",
          "type": "uint256"
        }
      ],
      "stateMutability": "view",
      "type": "function"
    },
    {
      "inputs": [],
      "name": "VERSION",
      "outputs": [
        {
          "internalType": "string",
          "name": "",
          "type": "string"
        }
      ],
      "stateMutability": "view",
      "type": "function"
    },
    {
      "inputs": [
        {
          "internalType": "address",
          "name": "token",
          "type": "address"
        }
      ],
      "name": "balanceOfToken",
      "outputs": [
        {
          "internalType": "uint256",
          "name": "",
          "type": "uint256"
        }
      ],
      "stateMutability": "view",
      "type": "function"
    },
    {
      "inputs": [],
      "name": "controller",
      "outputs": [
        {
          "internalType": "address",
          "name": "",
          "type": "address"
        }
      ],
      "stateMutability": "view",
      "type": "function"
    },
    {
      "inputs": [],
      "name": "created",
      "outputs": [
        {
          "internalType": "uint256",
          "name": "",
          "type": "uint256"
        }
      ],
      "stateMutability": "view",
      "type": "function"
    },
    {
      "inputs": [],
      "name": "createdBlock",
      "outputs": [
        {
          "internalType": "uint256",
          "name": "",
          "type": "uint256"
        }
      ],
      "stateMutability": "view",
      "type": "function"
    },
    {
      "inputs": [
        {
          "internalType": "address",
          "name": "oldLogic",
          "type": "address"
        }
      ],
      "name": "increaseRevision",
      "outputs": [],
      "stateMutability": "nonpayable",
      "type": "function"
    },
    {
      "inputs": [
        {
          "internalType": "address",
          "name": "controller_",
          "type": "address"
        }
      ],
      "name": "init",
      "outputs": [],
      "stateMutability": "nonpayable",
      "type": "function"
    },
    {
      "inputs": [
        {
          "internalType": "address",
          "name": "value_",
          "type": "address"
        }
      ],
      "name": "isController",
      "outputs": [
        {
          "internalType": "bool",
          "name": "",
          "type": "bool"
        }
      ],
      "stateMutability": "view",
      "type": "function"
    },
    {
      "inputs": [
        {
          "internalType": "address",
          "name": "value_",
          "type": "address"
        }
      ],
      "name": "isGovernance",
      "outputs": [
        {
          "internalType": "bool",
          "name": "",
          "type": "bool"
        }
      ],
      "stateMutability": "view",
      "type": "function"
    },
    {
      "inputs": [],
      "name": "previousImplementation",
      "outputs": [
        {
          "internalType": "address",
          "name": "",
          "type": "address"
        }
      ],
      "stateMutability": "view",
      "type": "function"
    },
    {
      "inputs": [],
      "name": "revision",
      "outputs": [
        {
          "internalType": "uint256",
          "name": "",
          "type": "uint256"
        }
      ],
      "stateMutability": "view",
      "type": "function"
    },
    {
      "inputs": [
        {
          "internalType": "address",
          "name": "token",
          "type": "address"
        },
        {
          "internalType": "uint256",
          "name": "amount",
          "type": "uint256"
        },
        {
          "internalType": "enum IItemController.FeeType",
          "name": "feeType",
          "type": "uint8"
        }
      ],
      "name": "sendFee",
      "outputs": [],
      "stateMutability": "nonpayable",
      "type": "function"
    },
    {
      "inputs": [
        {
          "internalType": "address",
          "name": "dungeon",
          "type": "address"
        },
        {
          "internalType": "address",
          "name": "token",
          "type": "address"
        },
        {
          "internalType": "uint256",
          "name": "amount",
          "type": "uint256"
        }
      ],
      "name": "sendToDungeon",
      "outputs": [],
      "stateMutability": "nonpayable",
      "type": "function"
    }
  ],
  "transactionHash": "0x9ed5a1026c64d6087dc40809006432b28186ee8106e331a1913beed501962843",
  "args": [],
  "numDeployments": 12,
  "solcInputHash": "dd0028765b2814afd8a9e1513b6f3a43",
  "bytecode": "0x608060405234801561001057600080fd5b507ff0c57e16840df040f15088dc2f81fe391c3923bec73e23a9662efc9c229c6a00805468010000000000000000810460ff1615906001600160401b031660008115801561005b5750825b90506000826001600160401b031660011480156100775750303b155b905081158015610085575080155b156100a35760405163f92ee8a960e01b815260040160405180910390fd5b84546001600160401b031916600117855583156100d157845460ff60401b1916680100000000000000001785555b831561011757845460ff60401b19168555604051600181527fc7f505b2f371ae2175ee4913f4499e1f2633a7b5936321eed1cdaeb6115181d29060200160405180910390a15b5050505050610f408061012b6000396000f3fe608060405234801561001057600080fd5b50600436106100e05760003560e01c8063936725ec11610087578063936725ec146101665780639d0bcca014610197578063b429afeb146101ac578063b99152d0146101cf578063c7942f0314610115578063dee1f0e4146101e2578063f77c4791146101f5578063ffa1ad74146101fd57600080fd5b806319ab453c146100e5578063325a19f1146100fa578063454bf5dd146101155780634593144c1461011d5780634fac6ccd1461012557806352e540441461013857806363bf32461461014b5780637cc963801461015e575b600080fd5b6100f86100f3366004610cd5565b610221565b005b61010261031d565b6040519081526020015b60405180910390f35b610102603281565b610102610356565b6100f8610133366004610cd5565b610386565b6100f8610146366004610cf9565b610497565b6100f8610159366004610d3a565b6104af565b6101026104c2565b61018a604051806040016040528060058152602001640312e302e360dc1b81525081565b60405161010c9190610d80565b61019f6104e0565b60405161010c9190610dcf565b6101bf6101ba366004610cd5565b610510565b604051901515815260200161010c565b6101026101dd366004610cd5565b610535565b6101bf6101f0366004610cd5565b610546565b61019f6105cb565b61018a60405180604001604052806005815260200164312e302e3360d81b81525081565b600061022b6105fb565b805490915060ff600160401b820416159067ffffffffffffffff166000811580156102535750825b905060008267ffffffffffffffff1660011480156102705750303b155b90508115801561027e575080155b1561029c5760405163f92ee8a960e01b815260040160405180910390fd5b845467ffffffffffffffff1916600117855583156102c657845460ff60401b1916600160401b1785555b6102cf8661061f565b831561031557845460ff60401b19168555604051600181527fc7f505b2f371ae2175ee4913f4499e1f2633a7b5936321eed1cdaeb6115181d29060200160405180910390a15b505050505050565b600061035161034d60017f6f55f470bdc9cb5f04223fd822021061668e4dccb43e8727b295106dc9769c8b610df9565b5490565b905090565b600061035161034d60017f812a673dfca07956350df10f8a654925f561d7a0da09bdbe79e653939a14d9f1610df9565b3330146103d85760405162461bcd60e51b815260206004820152601b60248201527a24b731b932b0b9b2903932bb34b9b4b7b7103337b93134b23232b760291b60448201526064015b60405180910390fd5b60006103f661034d6001600080516020610eeb833981519152610df9565b610401906001610e0c565b9050610423816104206001600080516020610eeb833981519152610df9565b55565b6104528261042060017fbfaaa2fb63266ff27c2da975f5894955056f50419af651a81f6c5060581857e4610df9565b604080518281526001600160a01b03841660208201527ff27e2ef832a4eb8ed8ec553b875eecd44764cda95b1c24170e281539e0a869c8910160405180910390a15050565b6104aa6104a26105cb565b848484610633565b505050565b6104aa6104ba6105cb565b84848461078e565b600061035161034d6001600080516020610eeb833981519152610df9565b600061035161034d60017fbfaaa2fb63266ff27c2da975f5894955056f50419af651a81f6c5060581857e4610df9565b600061051a6105cb565b6001600160a01b0316826001600160a01b0316149050919050565b600061054082610a5b565b92915050565b6000816001600160a01b031661055a6105cb565b6001600160a01b0316635aa6e6756040518163ffffffff1660e01b8152600401602060405180830381865afa158015610597573d6000803e3d6000fd5b505050506040513d601f19601f820116820180604052508101906105bb9190610e1f565b6001600160a01b03161492915050565b600061035161034d60017f5165972ef41194f06c5007493031d0b927c20741adcb74403b954009fd2c3618610df9565b7ff0c57e16840df040f15088dc2f81fe391c3923bec73e23a9662efc9c229c6a0090565b610627610acb565b61063081610af2565b50565b61063c84610c11565b6040516370a0823160e01b81526000906001600160a01b038416906370a082319061066b903090600401610dcf565b602060405180830381865afa158015610688573d6000803e3d6000fd5b505050506040513d601f19601f820116820180604052508101906106ac9190610e3c565b90508015806106ba57508082115b156106d85760405163569d45cf60e11b815260040160405180910390fd5b60405163a9059cbb60e01b81526001600160a01b0385811660048301526024820184905284169063a9059cbb906044016020604051808303816000875af1158015610727573d6000803e3d6000fd5b505050506040513d601f19601f8201168201806040525081019061074b9190610e55565b507f19db20e8b14cd9bf93cc4c470366811fa0ddd60942567107f6f707ea217659bc84848460405161077f93929190610e77565b60405180910390a15050505050565b606460018260048111156107a4576107a4610e9b565b036107b1575060326107ce565b60028260048111156107c5576107c5610e9b565b036107ce575060325b600060646107dc8386610eb1565b6107e69190610ec8565b905060006107f48286610df9565b905080156109d7576000876001600160a01b031663c3dfdae66040518163ffffffff1660e01b8152600401602060405180830381865afa15801561083c573d6000803e3d6000fd5b505050506040513d601f19601f820116820180604052508101906108609190610e1f565b9050866001600160a01b0316816001600160a01b031603610960576040516323b872dd60e01b81526001600160a01b038816906323b872dd906108ab90339030908790600401610e77565b6020604051808303816000875af11580156108ca573d6000803e3d6000fd5b505050506040513d601f19601f820116820180604052508101906108ee9190610e55565b50604051630852cd8d60e31b8152600481018390526001600160a01b038216906342966c68906024016020604051808303816000875af1158015610936573d6000803e3d6000fd5b505050506040513d601f19601f8201168201806040525081019061095a9190610e55565b506109d5565b6040516323b872dd60e01b81526001600160a01b038816906323b872dd9061099090339030908790600401610e77565b6020604051808303816000875af11580156109af573d6000803e3d6000fd5b505050506040513d601f19601f820116820180604052508101906109d39190610e55565b505b505b8115610a52576040516323b872dd60e01b81526001600160a01b038716906323b872dd90610a0d9033908b908790600401610e77565b6020604051808303816000875af1158015610a2c573d6000803e3d6000fd5b505050506040513d601f19601f82011682018060405250810190610a509190610e55565b505b50505050505050565b6040516370a0823160e01b81526000906001600160a01b038316906370a0823190610a8a903090600401610dcf565b602060405180830381865afa158015610aa7573d6000803e3d6000fd5b505050506040513d601f19601f820116820180604052508101906105409190610e3c565b610ad3610ca6565b610af057604051631afcd79f60e31b815260040160405180910390fd5b565b6001600160a01b038116610b3a5760405162461bcd60e51b815260206004820152600f60248201526e2d32b9379031b7b73a3937b63632b960891b60448201526064016103cf565b610b698161042060017f5165972ef41194f06c5007493031d0b927c20741adcb74403b954009fd2c3618610df9565b610b984261042060017f6f55f470bdc9cb5f04223fd822021061668e4dccb43e8727b295106dc9769c8b610df9565b610bc74361042060017f812a673dfca07956350df10f8a654925f561d7a0da09bdbe79e653939a14d9f1610df9565b604080516001600160a01b0383168152426020820152438183015290517f1a2dd071001ebf6e03174e3df5b305795a4ad5d41d8fdb9ba41dbbe2367134269181900360600190a150565b336001600160a01b0316816001600160a01b031663683fedf76040518163ffffffff1660e01b8152600401602060405180830381865afa158015610c59573d6000803e3d6000fd5b505050506040513d601f19601f82011682018060405250810190610c7d9190610e1f565b6001600160a01b031614610630573360405163cf219bef60e01b81526004016103cf9190610dcf565b6000610cb06105fb565b54600160401b900460ff16919050565b6001600160a01b038116811461063057600080fd5b600060208284031215610ce757600080fd5b8135610cf281610cc0565b9392505050565b600080600060608486031215610d0e57600080fd5b8335610d1981610cc0565b92506020840135610d2981610cc0565b929592945050506040919091013590565b600080600060608486031215610d4f57600080fd5b8335610d5a81610cc0565b925060208401359150604084013560058110610d7557600080fd5b809150509250925092565b60006020808352835180602085015260005b81811015610dae57858101830151858201604001528201610d92565b506000604082860101526040601f19601f8301168501019250505092915050565b6001600160a01b0391909116815260200190565b634e487b7160e01b600052601160045260246000fd5b8181038181111561054057610540610de3565b8082018082111561054057610540610de3565b600060208284031215610e3157600080fd5b8151610cf281610cc0565b600060208284031215610e4e57600080fd5b5051919050565b600060208284031215610e6757600080fd5b81518015158114610cf257600080fd5b6001600160a01b039384168152919092166020820152604081019190915260600190565b634e487b7160e01b600052602160045260246000fd5b808202811582820484141761054057610540610de3565b600082610ee557634e487b7160e01b600052601260045260246000fd5b50049056fe22573091f17911fb166032a3d9e0554aa73d31b7b7ddea4a4dd2995650af84bda26469706673582212206d0d6329f86bf570dac78aaac157992f8870caf3de655e7f0fbad02c0618599664736f6c63430008170033",
  "devdoc": {
    "errors": {
      "InvalidInitialization()": [
        {
          "details": "The contract is already initialized."
        }
      ],
      "NotInitializing()": [
        {
          "details": "The contract is not initializing."
        }
      ]
    },
    "events": {
      "Initialized(uint64)": {
        "details": "Triggered when the contract has been initialized or reinitialized."
      }
    },
    "kind": "dev",
    "methods": {
      "created()": {
        "returns": {
          "_0": "Creation timestamp"
        }
      },
      "createdBlock()": {
        "returns": {
          "_0": "Creation block number"
        }
      },
      "increaseRevision(address)": {
        "details": "Revision should be increased on each contract upgrade"
      },
      "isController(address)": {
        "details": "Return true if given address is controller"
      },
      "previousImplementation()": {
        "details": "Previous logic implementation"
      },
      "revision()": {
        "details": "Contract upgrade counter"
      },
      "sendFee(address,uint256,uint8)": {
        "details": "Assume approve. Move fee to treasury and governance from msg.sender.      Anyone can call"
      }
    },
    "stateVariables": {
      "VERSION": {
        "details": "Should be incremented when contract changed"
      }
    },
    "version": 1
  },
  "userdoc": {
    "kind": "user",
    "methods": {
      "CONTROLLABLE_VERSION()": {
        "notice": "Version of the contract"
      },
      "VERSION()": {
        "notice": "Version of the contract"
      },
      "controller()": {
        "notice": "Return controller address saved in the contract slot"
      },
      "created()": {
        "notice": "Return creation timestamp"
      },
      "createdBlock()": {
        "notice": "Return creation block number"
      },
      "isGovernance(address)": {
        "notice": "Return true if given address is setup as governance in Controller"
      }
    },
    "version": 1
  },
  "storageLayout": {
    "storage": [],
    "types": null
  }
}