{
  "address": "0xFE84AAA96BDdc77cD5e8DA3983dc2Bd8E3Ffc7D9",
  "abi": [
    {
      "inputs": [
        {
          "internalType": "address",
          "name": "controller_",
          "type": "address"
        }
      ],
      "stateMutability": "nonpayable",
      "type": "constructor"
    },
    {
      "inputs": [],
      "name": "ErrorNotAllowedSender",
      "type": "error"
    },
    {
      "anonymous": false,
      "inputs": [
        {
          "indexed": false,
          "internalType": "address",
          "name": "token",
          "type": "address"
        },
        {
          "indexed": false,
          "internalType": "uint256",
          "name": "amount",
          "type": "uint256"
        },
        {
          "indexed": false,
          "internalType": "address",
          "name": "from",
          "type": "address"
        },
        {
          "indexed": false,
          "internalType": "uint256",
          "name": "toBurn",
          "type": "uint256"
        },
        {
          "indexed": false,
          "internalType": "uint256",
          "name": "toTreasury",
          "type": "uint256"
        },
        {
          "indexed": false,
          "internalType": "uint256",
          "name": "toGov",
          "type": "uint256"
        }
      ],
      "name": "Process",
      "type": "event"
    },
    {
      "inputs": [],
      "name": "VERSION",
      "outputs": [
        {
          "internalType": "string",
          "name": "",
          "type": "string"
        }
      ],
      "stateMutability": "view",
      "type": "function"
    },
    {
      "inputs": [],
      "name": "controller",
      "outputs": [
        {
          "internalType": "contract IController",
          "name": "",
          "type": "address"
        }
      ],
      "stateMutability": "view",
      "type": "function"
    },
    {
      "inputs": [
        {
          "internalType": "uint256",
          "name": "totalSupply",
          "type": "uint256"
        }
      ],
      "name": "percentToBurn",
      "outputs": [
        {
          "internalType": "uint256",
          "name": "",
          "type": "uint256"
        }
      ],
      "stateMutability": "pure",
      "type": "function"
    },
    {
      "inputs": [
        {
          "internalType": "address",
          "name": "token",
          "type": "address"
        },
        {
          "internalType": "uint256",
          "name": "amount",
          "type": "uint256"
        },
        {
          "internalType": "address",
          "name": "from",
          "type": "address"
        }
      ],
      "name": "process",
      "outputs": [],
      "stateMutability": "nonpayable",
      "type": "function"
    }
  ],
  "transactionHash": "0x7463cc16d82f8c8041d6bf5c489e309cc97a50d20450cd77f364788985036340",
  "args": [
    "0x01B3e21F1e997d87Af6c5Ae415B08B125729f40c"
  ],
  "numDeployments": 1,
  "solcInputHash": "26aa46af27336d196c04997c06413167",
  "bytecode": "0x60a060405234801561001057600080fd5b5060405161088538038061088583398101604081905261002f91610040565b6001600160a01b0316608052610070565b60006020828403121561005257600080fd5b81516001600160a01b038116811461006957600080fd5b9392505050565b6080516107f4610091600039600081816091015261011201526107f46000f3fe608060405234801561001057600080fd5b506004361061004c5760003560e01c806311b0aebe146100515780633c8f1bbe14610077578063f77c47911461008c578063ffa1ad74146100cb575b600080fd5b61006461005f36600461062c565b6100fc565b6040519081526020015b60405180910390f35b61008a61008536600461065a565b61010d565b005b6100b37f000000000000000000000000000000000000000000000000000000000000000081565b6040516001600160a01b03909116815260200161006e565b6100ef604051806040016040528060058152602001640312e302e360dc1b81525081565b60405161006e919061069c565b60006101078261013e565b92915050565b6101397f000000000000000000000000000000000000000000000000000000000000000084848461017b565b505050565b60006101076a084595161401484a00000061016268056bc75e2d6310000085610701565b61016c9190610718565b68056bc75e2d63100000610196565b610184846101ae565b610190848484846102c5565b50505050565b60008183106101a557816101a7565b825b9392505050565b336001600160a01b0316816001600160a01b031663490fb76a6040518163ffffffff1660e01b8152600401602060405180830381865afa1580156101f6573d6000803e3d6000fd5b505050506040513d601f19601f8201168201806040525081019061021a919061073a565b6001600160a01b0316141580156102a45750336001600160a01b0316816001600160a01b03166325eb1c876040518163ffffffff1660e01b8152600401602060405180830381865afa158015610274573d6000803e3d6000fd5b505050506040513d601f19601f82011682018060405250810190610298919061073a565b6001600160a01b031614155b156102c25760405163f20e063760e01b815260040160405180910390fd5b50565b6040516323b872dd60e01b81526001600160a01b038281166004830152306024830152604482018490528416906323b872dd906064016020604051808303816000875af115801561031a573d6000803e3d6000fd5b505050506040513d601f19601f8201168201806040525081019061033e9190610757565b50600068056bc75e2d631000006103b5856001600160a01b03166318160ddd6040518163ffffffff1660e01b8152600401602060405180830381865afa15801561038c573d6000803e3d6000fd5b505050506040513d601f19601f820116820180604052508101906103b09190610779565b61013e565b6103bf9085610701565b6103c99190610718565b9050600060026103d98386610792565b6103e39190610718565b90506000816103f28487610792565b6103fc9190610792565b905081156104d857856001600160a01b031663a9059cbb886001600160a01b03166361d027b36040518163ffffffff1660e01b8152600401602060405180830381865afa158015610451573d6000803e3d6000fd5b505050506040513d601f19601f82011682018060405250810190610475919061073a565b846040518363ffffffff1660e01b81526004016104939291906107a5565b6020604051808303816000875af11580156104b2573d6000803e3d6000fd5b505050506040513d601f19601f820116820180604052508101906104d69190610757565b505b80156105515760405163a9059cbb60e01b81526001600160a01b0387169063a9059cbb9061050c908a9085906004016107a5565b6020604051808303816000875af115801561052b573d6000803e3d6000fd5b505050506040513d601f19601f8201168201806040525081019061054f9190610757565b505b82156105c457604051630852cd8d60e31b8152600481018490526001600160a01b038716906342966c68906024016020604051808303816000875af115801561059e573d6000803e3d6000fd5b505050506040513d601f19601f820116820180604052508101906105c29190610757565b505b604080516001600160a01b03888116825260208201889052861681830152606081018590526080810184905260a0810183905290517f1fd334c200f7b34cefbcb9762981e99dea5bdff9c149c5e4a279a1f55e8c97729181900360c00190a150505050505050565b60006020828403121561063e57600080fd5b5035919050565b6001600160a01b03811681146102c257600080fd5b60008060006060848603121561066f57600080fd5b833561067a81610645565b925060208401359150604084013561069181610645565b809150509250925092565b60006020808352835180602085015260005b818110156106ca578581018301518582016040015282016106ae565b506000604082860101526040601f19601f8301168501019250505092915050565b634e487b7160e01b600052601160045260246000fd5b8082028115828204841417610107576101076106eb565b60008261073557634e487b7160e01b600052601260045260246000fd5b500490565b60006020828403121561074c57600080fd5b81516101a781610645565b60006020828403121561076957600080fd5b815180151581146101a757600080fd5b60006020828403121561078b57600080fd5b5051919050565b81810381811115610107576101076106eb565b6001600160a01b0392909216825260208201526040019056fea2646970667358221220ce73b7c96612b03b43ac00fe744fe554644be6afad0e1a5e12c2a1b3bb3e349864736f6c63430008170033",
  "devdoc": {
    "kind": "dev",
    "methods": {},
    "version": 1
  },
  "userdoc": {
    "kind": "user",
    "methods": {
      "VERSION()": {
        "notice": "Version of the contract"
      }
    },
    "version": 1
  },
  "storageLayout": {
    "storage": [],
    "types": null
  }
}