{
  "address": "0xe113E656730dAabB11232A4B52CF364669a76745",
  "abi": [
    {
      "inputs": [],
      "name": "EmptyNameNotAllowed",
      "type": "error"
    },
    {
      "inputs": [
        {
          "internalType": "address",
          "name": "sender",
          "type": "address"
        }
      ],
      "name": "ErrorNotDeployer",
      "type": "error"
    },
    {
      "inputs": [
        {
          "internalType": "address",
          "name": "sender",
          "type": "address"
        }
      ],
      "name": "ErrorNotDungeonFactory",
      "type": "error"
    },
    {
      "inputs": [],
      "name": "ErrorOnlyEoa",
      "type": "error"
    },
    {
      "inputs": [],
      "name": "InvalidInitialization",
      "type": "error"
    },
    {
      "inputs": [],
      "name": "NameTaken",
      "type": "error"
    },
    {
      "inputs": [
        {
          "internalType": "address",
          "name": "msgSender",
          "type": "address"
        },
        {
          "internalType": "uint256",
          "name": "lootBoxKind",
          "type": "uint256"
        }
      ],
      "name": "NoAvailableLootBox",
      "type": "error"
    },
    {
      "inputs": [
        {
          "internalType": "address",
          "name": "sender",
          "type": "address"
        }
      ],
      "name": "NotGovernance",
      "type": "error"
    },
    {
      "inputs": [],
      "name": "NotInitializing",
      "type": "error"
    },
    {
      "inputs": [],
      "name": "TooBigName",
      "type": "error"
    },
    {
      "inputs": [
        {
          "internalType": "uint32",
          "name": "chance",
          "type": "uint32"
        }
      ],
      "name": "TooHighChance",
      "type": "error"
    },
    {
      "inputs": [],
      "name": "UserTokensVaultAlreadySet",
      "type": "error"
    },
    {
      "inputs": [],
      "name": "WrongSymbolsInTheName",
      "type": "error"
    },
    {
      "inputs": [],
      "name": "ZeroAddress",
      "type": "error"
    },
    {
      "anonymous": false,
      "inputs": [
        {
          "indexed": false,
          "internalType": "address",
          "name": "user",
          "type": "address"
        },
        {
          "indexed": false,
          "internalType": "bool",
          "name": "daily",
          "type": "bool"
        },
        {
          "indexed": false,
          "internalType": "bool",
          "name": "weekly",
          "type": "bool"
        }
      ],
      "name": "ActivityCompleted",
      "type": "event"
    },
    {
      "anonymous": false,
      "inputs": [
        {
          "indexed": false,
          "internalType": "address",
          "name": "controller",
          "type": "address"
        },
        {
          "indexed": false,
          "internalType": "uint256",
          "name": "ts",
          "type": "uint256"
        },
        {
          "indexed": false,
          "internalType": "uint256",
          "name": "block",
          "type": "uint256"
        }
      ],
      "name": "ContractInitialized",
      "type": "event"
    },
    {
      "anonymous": false,
      "inputs": [
        {
          "indexed": false,
          "internalType": "uint64",
          "name": "version",
          "type": "uint64"
        }
      ],
      "name": "Initialized",
      "type": "event"
    },
    {
      "anonymous": false,
      "inputs": [
        {
          "indexed": false,
          "internalType": "uint256",
          "name": "lootBoxKind",
          "type": "uint256"
        },
        {
          "indexed": false,
          "internalType": "address[]",
          "name": "mintItems",
          "type": "address[]"
        },
        {
          "indexed": false,
          "internalType": "uint32[]",
          "name": "mintItemsChances",
          "type": "uint32[]"
        },
        {
          "indexed": false,
          "internalType": "uint256",
          "name": "maxDropItems",
          "type": "uint256"
        }
      ],
      "name": "LootBoxConfigChanged",
      "type": "event"
    },
    {
      "anonymous": false,
      "inputs": [
        {
          "indexed": false,
          "internalType": "address",
          "name": "user",
          "type": "address"
        },
        {
          "indexed": false,
          "internalType": "uint256",
          "name": "lootBoxKind",
          "type": "uint256"
        },
        {
          "indexed": false,
          "internalType": "address[]",
          "name": "itemTokens",
          "type": "address[]"
        },
        {
          "indexed": false,
          "internalType": "uint256[]",
          "name": "itemTokenIds",
          "type": "uint256[]"
        }
      ],
      "name": "LootBoxOpened",
      "type": "event"
    },
    {
      "anonymous": false,
      "inputs": [
        {
          "indexed": false,
          "internalType": "uint256",
          "name": "value",
          "type": "uint256"
        },
        {
          "indexed": false,
          "internalType": "address",
          "name": "oldLogic",
          "type": "address"
        }
      ],
      "name": "RevisionIncreased",
      "type": "event"
    },
    {
      "anonymous": false,
      "inputs": [
        {
          "indexed": false,
          "internalType": "uint256",
          "name": "feeRenaming",
          "type": "uint256"
        }
      ],
      "name": "SetFeeRenaming",
      "type": "event"
    },
    {
      "anonymous": false,
      "inputs": [
        {
          "indexed": false,
          "internalType": "address",
          "name": "user",
          "type": "address"
        },
        {
          "indexed": false,
          "internalType": "string",
          "name": "name",
          "type": "string"
        }
      ],
      "name": "SetUserName",
      "type": "event"
    },
    {
      "anonymous": false,
      "inputs": [
        {
          "indexed": false,
          "internalType": "address",
          "name": "value",
          "type": "address"
        }
      ],
      "name": "UserTokensVaultSet",
      "type": "event"
    },
    {
      "inputs": [],
      "name": "CONTROLLABLE_VERSION",
      "outputs": [
        {
          "internalType": "string",
          "name": "",
          "type": "string"
        }
      ],
      "stateMutability": "view",
      "type": "function"
    },
    {
      "inputs": [],
      "name": "VERSION",
      "outputs": [
        {
          "internalType": "string",
          "name": "",
          "type": "string"
        }
      ],
      "stateMutability": "view",
      "type": "function"
    },
    {
      "inputs": [],
      "name": "controller",
      "outputs": [
        {
          "internalType": "address",
          "name": "",
          "type": "address"
        }
      ],
      "stateMutability": "view",
      "type": "function"
    },
    {
      "inputs": [
        {
          "internalType": "address",
          "name": "user",
          "type": "address"
        }
      ],
      "name": "counterLootBoxes",
      "outputs": [
        {
          "internalType": "uint32",
          "name": "dailyCounter",
          "type": "uint32"
        },
        {
          "internalType": "uint32",
          "name": "weeklyCounter",
          "type": "uint32"
        }
      ],
      "stateMutability": "view",
      "type": "function"
    },
    {
      "inputs": [],
      "name": "created",
      "outputs": [
        {
          "internalType": "uint256",
          "name": "",
          "type": "uint256"
        }
      ],
      "stateMutability": "view",
      "type": "function"
    },
    {
      "inputs": [],
      "name": "createdBlock",
      "outputs": [
        {
          "internalType": "uint256",
          "name": "",
          "type": "uint256"
        }
      ],
      "stateMutability": "view",
      "type": "function"
    },
    {
      "inputs": [],
      "name": "feeRenaming",
      "outputs": [
        {
          "internalType": "uint256",
          "name": "",
          "type": "uint256"
        }
      ],
      "stateMutability": "view",
      "type": "function"
    },
    {
      "inputs": [
        {
          "internalType": "address",
          "name": "oldLogic",
          "type": "address"
        }
      ],
      "name": "increaseRevision",
      "outputs": [],
      "stateMutability": "nonpayable",
      "type": "function"
    },
    {
      "inputs": [
        {
          "internalType": "address",
          "name": "controller_",
          "type": "address"
        }
      ],
      "name": "init",
      "outputs": [],
      "stateMutability": "nonpayable",
      "type": "function"
    },
    {
      "inputs": [
        {
          "internalType": "address",
          "name": "value_",
          "type": "address"
        }
      ],
      "name": "isController",
      "outputs": [
        {
          "internalType": "bool",
          "name": "",
          "type": "bool"
        }
      ],
      "stateMutability": "view",
      "type": "function"
    },
    {
      "inputs": [
        {
          "internalType": "address",
          "name": "value_",
          "type": "address"
        }
      ],
      "name": "isGovernance",
      "outputs": [
        {
          "internalType": "bool",
          "name": "",
          "type": "bool"
        }
      ],
      "stateMutability": "view",
      "type": "function"
    },
    {
      "inputs": [
        {
          "internalType": "address",
          "name": "forwarder",
          "type": "address"
        }
      ],
      "name": "isTrustedForwarder",
      "outputs": [
        {
          "internalType": "bool",
          "name": "",
          "type": "bool"
        }
      ],
      "stateMutability": "view",
      "type": "function"
    },
    {
      "inputs": [
        {
          "internalType": "uint256",
          "name": "lootBoxKind",
          "type": "uint256"
        }
      ],
      "name": "lootBoxConfig",
      "outputs": [
        {
          "internalType": "address[]",
          "name": "mintItems",
          "type": "address[]"
        },
        {
          "internalType": "uint32[]",
          "name": "mintItemsChances",
          "type": "uint32[]"
        },
        {
          "internalType": "uint256",
          "name": "maxDropItems",
          "type": "uint256"
        }
      ],
      "stateMutability": "view",
      "type": "function"
    },
    {
      "inputs": [
        {
          "internalType": "string",
          "name": "name",
          "type": "string"
        }
      ],
      "name": "nameToUserAccount",
      "outputs": [
        {
          "internalType": "address",
          "name": "",
          "type": "address"
        }
      ],
      "stateMutability": "view",
      "type": "function"
    },
    {
      "inputs": [
        {
          "internalType": "uint256",
          "name": "lootBoxKind",
          "type": "uint256"
        }
      ],
      "name": "openLootBox",
      "outputs": [],
      "stateMutability": "nonpayable",
      "type": "function"
    },
    {
      "inputs": [],
      "name": "previousImplementation",
      "outputs": [
        {
          "internalType": "address",
          "name": "",
          "type": "address"
        }
      ],
      "stateMutability": "view",
      "type": "function"
    },
    {
      "inputs": [
        {
          "internalType": "address",
          "name": "user",
          "type": "address"
        }
      ],
      "name": "registerPassedDungeon",
      "outputs": [],
      "stateMutability": "nonpayable",
      "type": "function"
    },
    {
      "inputs": [
        {
          "internalType": "address",
          "name": "user",
          "type": "address"
        },
        {
          "internalType": "bool",
          "name": "isWinner",
          "type": "bool"
        }
      ],
      "name": "registerPvP",
      "outputs": [],
      "stateMutability": "nonpayable",
      "type": "function"
    },
    {
      "inputs": [],
      "name": "revision",
      "outputs": [
        {
          "internalType": "uint256",
          "name": "",
          "type": "uint256"
        }
      ],
      "stateMutability": "view",
      "type": "function"
    },
    {
      "inputs": [
        {
          "internalType": "uint256",
          "name": "amount",
          "type": "uint256"
        }
      ],
      "name": "setFeeRenaming",
      "outputs": [],
      "stateMutability": "nonpayable",
      "type": "function"
    },
    {
      "inputs": [
        {
          "internalType": "uint256",
          "name": "lootBoxKind",
          "type": "uint256"
        },
        {
          "components": [
            {
              "internalType": "address[]",
              "name": "mintItems",
              "type": "address[]"
            },
            {
              "internalType": "uint32[]",
              "name": "mintItemsChances",
              "type": "uint32[]"
            },
            {
              "internalType": "uint256",
              "name": "maxDropItems",
              "type": "uint256"
            }
          ],
          "internalType": "struct IUserController.LootBoxConfig",
          "name": "config",
          "type": "tuple"
        }
      ],
      "name": "setLootBoxConfig",
      "outputs": [],
      "stateMutability": "nonpayable",
      "type": "function"
    },
    {
      "inputs": [
        {
          "internalType": "string",
          "name": "name",
          "type": "string"
        }
      ],
      "name": "setUserName",
      "outputs": [],
      "stateMutability": "nonpayable",
      "type": "function"
    },
    {
      "inputs": [
        {
          "internalType": "address",
          "name": "value",
          "type": "address"
        }
      ],
      "name": "setUserTokensVault",
      "outputs": [],
      "stateMutability": "nonpayable",
      "type": "function"
    },
    {
      "inputs": [
        {
          "internalType": "address",
          "name": "userAccount",
          "type": "address"
        }
      ],
      "name": "userAccountName",
      "outputs": [
        {
          "internalType": "string",
          "name": "",
          "type": "string"
        }
      ],
      "stateMutability": "view",
      "type": "function"
    },
    {
      "inputs": [
        {
          "internalType": "address",
          "name": "user",
          "type": "address"
        }
      ],
      "name": "userActivity",
      "outputs": [
        {
          "components": [
            {
              "internalType": "uint32",
              "name": "epochDay",
              "type": "uint32"
            },
            {
              "internalType": "uint32",
              "name": "epochWeek",
              "type": "uint32"
            },
            {
              "internalType": "uint32",
              "name": "counterPassedDungeons",
              "type": "uint32"
            },
            {
              "internalType": "uint32",
              "name": "counterPvp",
              "type": "uint32"
            },
            {
              "internalType": "uint16",
              "name": "dailyActivities",
              "type": "uint16"
            },
            {
              "internalType": "bool",
              "name": "dailyLootBoxReceived",
              "type": "bool"
            },
            {
              "internalType": "bool",
              "name": "weeklyLootBoxReceived",
              "type": "bool"
            }
          ],
          "internalType": "struct IUserController.UserActivity",
          "name": "",
          "type": "tuple"
        }
      ],
      "stateMutability": "view",
      "type": "function"
    },
    {
      "inputs": [],
      "name": "userTokensVault",
      "outputs": [
        {
          "internalType": "address",
          "name": "",
          "type": "address"
        }
      ],
      "stateMutability": "view",
      "type": "function"
    }
  ],
  "transactionHash": "0x329b922a3963330e5013ebb55eda3d27179e869018f354efa852a49217ac8435",
  "args": [],
  "numDeployments": 5,
  "solcInputHash": "26aa46af27336d196c04997c06413167",
  "bytecode": "0x60806040523480156200001157600080fd5b507ff0c57e16840df040f15088dc2f81fe391c3923bec73e23a9662efc9c229c6a00805468010000000000000000810460ff1615906001600160401b03166000811580156200005d5750825b90506000826001600160401b031660011480156200007a5750303b155b90508115801562000089575080155b15620000a85760405163f92ee8a960e01b815260040160405180910390fd5b84546001600160401b03191660011785558315620000d757845460ff60401b1916680100000000000000001785555b83156200011e57845460ff60401b19168555604051600181527fc7f505b2f371ae2175ee4913f4499e1f2633a7b5936321eed1cdaeb6115181d29060200160405180910390a15b5050505050612f1080620001336000396000f3fe608060405234801561001057600080fd5b506004361061014e5760003560e01c80638c171754116100be5780638c17175414610278578063936725ec1461028d57806399e6da34146102b15780639d0bcca014610330578063a2fcce0514610338578063a3da7c131461034b578063aa4bbdd61461036d578063b429afeb14610375578063b875fb1614610388578063c8e2c2791461039b578063dee1f0e4146103ae578063f77c4791146103c1578063ffa1ad74146103c957600080fd5b806319ab453c14610153578063234c23c0146101685780632b5914fe1461019d578063325a19f1146101b05780634593144c146101c657806348b3bbec146101ce5780634fac6ccd146101ee57806355a02c2d14610201578063572b6c05146102145780636cd48ca114610237578063743033981461024a578063769000ba1461025d5780637cc9638014610270575b600080fd5b6101666101613660046126dd565b6103ed565b005b61017b6101763660046126dd565b6104fa565b6040805163ffffffff9384168152929091166020830152015b60405180910390f35b6101666101ab366004612768565b61050f565b6101b8610533565b604051908152602001610194565b6101b861056c565b6101e16101dc3660046126dd565b61059c565b604051610194919061284c565b6101666101fc3660046126dd565b6105ad565b61016661020f36600461285f565b6106be565b6102276102223660046126dd565b6106ee565b6040519015158152602001610194565b6101666102453660046126dd565b61073c565b610166610258366004612886565b61075a565b61016661026b36600461285f565b610771565b6101b861078a565b6102806107a8565b60405161019491906128bf565b6101e1604051806040016040528060058152602001640312e302e360dc1b81525081565b6102c46102bf3660046126dd565b6107b2565b6040516101949190600060e08201905063ffffffff8084511683528060208501511660208401528060408501511660408401528060608501511660608401525061ffff608084015116608083015260a0830151151560a083015260c0830151151560c083015292915050565b6102806107c3565b6101666103463660046126dd565b6107f3565b61035e61035936600461285f565b6107fc565b6040516101949392919061294f565b6101b8610817565b6102276103833660046126dd565b610821565b610280610396366004612768565b610846565b6101666103a9366004612a2a565b610851565b6102276103bc3660046126dd565b61086b565b6102806108f0565b6101e160405180604001604052806005815260200164312e302e3160d81b81525081565b60006103f7610920565b805490915060ff600160401b82041615906001600160401b031660008115801561041e5750825b90506000826001600160401b0316600114801561043a5750303b155b905081158015610448575080155b156104665760405163f92ee8a960e01b815260040160405180910390fd5b845467ffffffffffffffff19166001178555831561049057845460ff60401b1916600160401b1785555b61049986610944565b683635c9adc5dea000006104ab610955565b5583156104f257845460ff60401b19168555604051600181527fc7f505b2f371ae2175ee4913f4499e1f2633a7b5936321eed1cdaeb6115181d29060200160405180910390a15b505050505050565b60008061050683610979565b91509150915091565b61053061051a6109d2565b6105226108f0565b61052a6109ea565b84610a0c565b50565b600061056761056360017f6f55f470bdc9cb5f04223fd822021061668e4dccb43e8727b295106dc9769c8b612b41565b5490565b905090565b600061056761056360017f812a673dfca07956350df10f8a654925f561d7a0da09bdbe79e653939a14d9f1612b41565b60606105a782610d6e565b92915050565b3330146105ff5760405162461bcd60e51b815260206004820152601b60248201527a24b731b932b0b9b2903932bb34b9b4b7b7103337b93134b23232b760291b60448201526064015b60405180910390fd5b600061061d6105636001600080516020612ebb833981519152612b41565b610628906001612b54565b905061064a816106476001600080516020612ebb833981519152612b41565b55565b6106798261064760017fbfaaa2fb63266ff27c2da975f5894955056f50419af651a81f6c5060581857e4612b41565b604080518281526001600160a01b03841660208201527ff27e2ef832a4eb8ed8ec553b875eecd44764cda95b1c24170e281539e0a869c8910160405180910390a15050565b6105306106c96108f0565b6106d16109ea565b8360028111156106e3576106e3612b67565b610e24610e406112c7565b60006001600160a01b03821673d8253782c45a12053594b9deb72d8e8ab2fca54c14806105a757506001600160a01b0382167352ceba41da235af367bfc0b0ccd3314cb901bb5f1492915050565b6105306107476108f0565b61074f6109ea565b834260036007611860565b61076d6107656108f0565b61076d6109ea565b5050565b61053061077c6108f0565b6107846109ea565b83611ca7565b60006105676105636001600080516020612ebb833981519152612b41565b6000610567611cf3565b6107ba61256c565b6105a782611d0f565b600061056761056360017fbfaaa2fb63266ff27c2da975f5894955056f50419af651a81f6c5060581857e4612b41565b61053081611dbb565b606080600061080a84611e7c565b9250925092509193909250565b6000610567611fe7565b600061082b6108f0565b6001600160a01b0316826001600160a01b0316149050919050565b60006105a782611ff7565b61076d61085c6108f0565b6108646109ea565b8484612031565b6000816001600160a01b031661087f6108f0565b6001600160a01b0316635aa6e6756040518163ffffffff1660e01b8152600401602060405180830381865afa1580156108bc573d6000803e3d6000fd5b505050506040513d601f19601f820116820180604052508101906108e09190612b7d565b6001600160a01b03161492915050565b600061056761056360017f5165972ef41194f06c5007493031d0b927c20741adcb74403b954009fd2c3618612b41565b7ff0c57e16840df040f15088dc2f81fe391c3923bec73e23a9662efc9c229c6a0090565b61094c612119565b61053081612140565b7fb1ab856820591f650019ba94531c31db134c614288dc690130c9f2a4ef55480090565b6000806000610986610955565b6001600160a01b039094166000908152600494909401602090815260409485902085518087019096525463ffffffff808216808852600160201b90920416959091018590529492505050565b60006109dd336106ee565b8061056757505032331490565b60006109f5336106ee565b15610a07575060131936013560601c90565b503390565b610a158461225d565b6000610a1f610955565b60020182604051610a309190612b9a565b908152604051908190036020019020546001600160a01b031614610a6757604051639e4b268560e01b815260040160405180910390fd5b6014815110610a89576040516370ab3a0360e11b815260040160405180910390fd5b610a928161227b565b610aaf576040516389974bd960e01b815260040160405180910390fd5b8051600003610ad15760405163b6f63d6560e01b815260040160405180910390fd5b6000610adb610955565b6001600160a01b0384166000908152600191909101602052604090208054610b0290612bb6565b80601f0160208091040260200160405190810160405280929190818152602001828054610b2e90612bb6565b8015610b7b5780601f10610b5057610100808354040283529160200191610b7b565b820191906000526020600020905b815481529060010190602001808311610b5e57829003601f168201915b505050505090508051600014610cb5576000610b95610955565b5490508015610c7d576000856001600160a01b031663c3dfdae66040518163ffffffff1660e01b8152600401602060405180830381865afa158015610bde573d6000803e3d6000fd5b505050506040513d601f19601f82011682018060405250810190610c029190612b7d565b9050610c0c610955565b60060154604051631e478ddf60e11b81526001600160a01b03838116600483015260248201859052878116604483015290911690633c8f1bbe90606401600060405180830381600087803b158015610c6357600080fd5b505af1158015610c77573d6000803e3d6000fd5b50505050505b610c85610955565b60020182604051610c969190612b9a565b90815260405190819003602001902080546001600160a01b0319169055505b81610cbe610955565b6001600160a01b03851660009081526001919091016020526040902090610ce59082612c3d565b5082610cef610955565b60020183604051610d009190612b9a565b90815260405190819003602001812080546001600160a01b03939093166001600160a01b0319909316929092179091557f18a9dce8ee97a89f83790cde290c8fba79f6ab76dc2ab1e3dd1db62e3f19f5ea90610d5f9085908590612cfc565b60405180910390a15050505050565b6060610d78610955565b6001600160a01b0383166000908152600191909101602052604090208054610d9f90612bb6565b80601f0160208091040260200160405190810160405280929190818152602001828054610dcb90612bb6565b8015610e185780601f10610ded57610100808354040283529160200191610e18565b820191906000526020600020905b815481529060010190602001808311610dfb57829003601f168201915b50505050509050919050565b60208220808352600090610e39908390612d3e565b9392505050565b60408083015151815160208082019384905285015160e08601516337347e0560e11b909452633b9aca00602483015260448201939093526060926000919081906001600160a01b0316636e68fc0a606483016020604051808303816000875af1158015610eb1573d6000803e3d6000fd5b505050506040513d601f19601f82011682018060405250810190610ed59190612d52565b905290506000826001600160401b03811115610ef357610ef36126fa565b604051908082528060200260200182016040528015610f1c578160200160208202803683370190505b50905060015b83811015610f505780828281518110610f3d57610f3d612d6b565b6020908102919091010152600101610f22565b50610f5b82826122eb565b6000836001600160401b03811115610f7557610f756126fa565b604051908082528060200260200182016040528015610f9e578160200160208202803683370190505b509050600080610fb6896080015160030b606461236d565b905060005b868110156111d657633b9aca0063ffffffff168a60a00151868381518110610fe557610fe5612d6b565b602002602001015181518110610ffd57610ffd612d6b565b602002602001015163ffffffff16111561106e578960a0015185828151811061102857611028612d6b565b60200260200101518151811061104057611040612d6b565b60200260200101516040516304470bfd60e21b81526004016105f6919063ffffffff91909116815260200190565b60008a60a0015186838151811061108757611087612d6b565b60200260200101518151811061109f5761109f612d6b565b602002602001015163ffffffff169050670de0b6b3a76400008b60c001518202816110cc576110cc612d28565b04810190508a61010001516000146110f6578a610100015181816110f2576110f2612d28565b0490505b60648b6060015160030b82028161110f5761110f612d28565b04016064838202049003600061112d88633b9aca0063ffffffff8e16565b9050811580159061114b5750633b9aca008210158061114b57508181105b156111cc578b5160ff168510156111cc578b6040015187848151811061117357611173612d6b565b60200260200101518151811061118b5761118b612d6b565b60200260200101518684815181106111a5576111a5612d6b565b60200260200101906001600160a01b031690816001600160a01b0316815250508460010194505b5050600101610fbb565b506000826001600160401b038111156111f1576111f16126fa565b60405190808252806020026020018201604052801561121a578160200160208202803683370190505b5090506000805b888110156112b75760006001600160a01b031686828151811061124657611246612d6b565b60200260200101516001600160a01b0316146112af5785818151811061126e5761126e612d6b565b602002602001015183838151811061128857611288612d6b565b60200260200101906001600160a01b031690816001600160a01b0316815250508160010191505b600101611221565b50909a9950505050505050505050565b60006112d1610955565b6001600160a01b0386166000908152600491909101602090815260409182902082518084019093525463ffffffff8082168452600160201b90910416908201529050600184600281111561132757611327612b67565b14801561133c5750602081015163ffffffff16155b806113685750600084600281111561135657611356612b67565b1480156113685750805163ffffffff16155b806113855750600284600281111561138257611382612b67565b10155b156113c7578484600281111561139d5761139d612b67565b6040516317b49b4160e31b81526001600160a01b03909216600483015260248201526044016105f6565b60006113d1610955565b60050160008660028111156113e8576113e8612b67565b60028111156113f9576113f9612b67565b81526020019081526020016000206040518060600160405290816000820180548060200260200160405190810160405280929190818152602001828054801561146b57602002820191906000526020600020905b81546001600160a01b0316815260019091019060200180831161144d575b50505050508152602001600182018054806020026020016040519081016040528092919081815260200182805480156114ef57602002820191906000526020600020906000905b82829054906101000a900463ffffffff1663ffffffff16815260200190600401906020826003010492830192600103820291508084116114b25790505b50505050508152602001600282015481525050905060006115d7604051806101200160405280846040015160ff1681526020018a6001600160a01b0316637dc0d1d06040518163ffffffff1660e01b8152600401602060405180830381865afa158015611560573d6000803e3d6000fd5b505050506040513d601f19601f820116820180604052508101906115849190612b7d565b6001600160a01b0316815260200184600001518152602001600060030b8152602001600060030b81526020018460200151815260200160008152602001600081526020016000815250868663ffffffff16565b805190915060609080156117615760008a6001600160a01b03166331423c266040518163ffffffff1660e01b8152600401602060405180830381865afa158015611625573d6000803e3d6000fd5b505050506040513d601f19601f820116820180604052508101906116499190612b7d565b9050816001600160401b03811115611663576116636126fa565b60405190808252806020026020018201604052801561168c578160200160208202803683370190505b50925060005b8281101561175e57816001600160a01b031663ee1fe2ad8683815181106116bb576116bb612d6b565b60200260200101518d6040518363ffffffff1660e01b81526004016116f69291906001600160a01b0392831681529116602082015260400190565b6020604051808303816000875af1158015611715573d6000803e3d6000fd5b505050506040513d601f19601f820116820180604052508101906117399190612d52565b84828151811061174b5761174b612d6b565b6020908102919091010152600101611692565b50505b600188600281111561177557611775612b67565b03611798576020850180519061178a82612d81565b63ffffffff169052506117ae565b8451856117a482612d81565b63ffffffff169052505b846117b7610955565b6001600160a01b038b1660009081526004919091016020908152604090912082518154939092015163ffffffff908116600160201b0267ffffffffffffffff199094169216919091179190911790557fe27b53ebf1a20d889e4f0ed669a58c8e30801cf8adcedbd1cf293d01bda71e188989600281111561183a5761183a612b67565b858560405161184c9493929190612da1565b60405180910390a150505050505050505050565b61186a8686612383565b6000611874610955565b6001600160a01b038616600090815260039190910160209081526040808320815160e081018352905463ffffffff8082168352600160201b8204811694830194909452600160401b8104841692820192909252600160601b8204909216606083015261ffff600160801b820416608083015260ff600160901b82048116151560a0840152600160981b90910416151560c082015291506119176201518086612e0d565b9050816000015163ffffffff168163ffffffff161461194f5763ffffffff811682526000604083018190526060830181905260a08301525b60006119608263ffffffff16612418565b9050826020015163ffffffff168163ffffffff161461198f57600060c084018190526080840181905260208401525b8260a00151611b6b576001836040018181516119ab9190612e21565b63ffffffff9081169091526040850151168690039050611b6b5760006119cf610955565b6001600160a01b0389166000908152600491909101602090815260409182902082518084019093525463ffffffff808216808552600160201b90920416918301919091529091506001908290611a26908390612e21565b63ffffffff908116909152600160a087015260208601518116908416039050611aab57600184608001818151611a5c9190612e45565b61ffff908116909152608086015116861490508015611a7d57508360c00151155b15611aa657600160c08501819052602082018051611a9c908390612e21565b63ffffffff169052505b611ac6565b6001608085015263ffffffff82166020850152600060c08501525b80611acf610955565b6001600160a01b038a1660008181526004929092016020908152604092839020845181549583015163ffffffff908116600160201b0267ffffffffffffffff199097169116179490941790935560a087015160c0880151835192835290151593820193909352911515908201527f5f25ce8c1e71434ecac489aa2348b229579daa9554f1ba4800dddb335615432d9060600160405180910390a1505b82611b74610955565b6003016000896001600160a01b03166001600160a01b0316815260200190815260200160002060008201518160000160006101000a81548163ffffffff021916908363ffffffff16021790555060208201518160000160046101000a81548163ffffffff021916908363ffffffff16021790555060408201518160000160086101000a81548163ffffffff021916908363ffffffff160217905550606082015181600001600c6101000a81548163ffffffff021916908363ffffffff16021790555060808201518160000160106101000a81548161ffff021916908361ffff16021790555060a08201518160000160126101000a81548160ff02191690831515021790555060c08201518160000160136101000a81548160ff021916908315150217905550905050505050505050505050565b611cb18383612431565b80611cba610955565b556040518181527f2588659e00a7fbdb77c55e648801820a38c83b94785588b4963677243f20541c9060200160405180910390a1505050565b6000611cfd610955565b600601546001600160a01b0316919050565b611d1761256c565b611d1f610955565b6001600160a01b0390921660009081526003929092016020908152604092839020835160e081018552905463ffffffff8082168352600160201b8204811693830193909352600160401b8104831694820194909452600160601b8404909116606082015261ffff600160801b840416608082015260ff600160901b84048116151560a0830152600160981b909304909216151560c08301525090565b6001600160a01b038116611de25760405163d92e233d60e01b815260040160405180910390fd5b6000611dec610955565b600601546001600160a01b031614611e1757604051630f9eed8760e41b815260040160405180910390fd5b80611e20610955565b60060180546001600160a01b0319166001600160a01b03929092169190911790556040517f5ac68da66eafd51af686de86f8ecab89fd8d0ed8085c8e5c801649620bd2153990611e719083906128bf565b60405180910390a150565b606080600080611e8a610955565b6005016000866002811115611ea157611ea1612b67565b6002811115611eb257611eb2612b67565b6002811115611ec357611ec3612b67565b815260200190815260200160002060405180606001604052908160008201805480602002602001604051908101604052809291908181526020018280548015611f3557602002820191906000526020600020905b81546001600160a01b03168152600190910190602001808311611f17575b5050505050815260200160018201805480602002602001604051908101604052809291908181526020018280548015611fb957602002820191906000526020600020906000905b82829054906101000a900463ffffffff1663ffffffff1681526020019060040190602082600301049283019260010382029150808411611f7c5790505b5050509183525050600291909101546020918201528151908201516040909201519097919650945092505050565b6000611ff1610955565b54919050565b6000612001610955565b600201826040516120129190612b9a565b908152604051908190036020019020546001600160a01b031692915050565b61203b84846124c6565b80612044610955565b600501600084600281111561205b5761205b612b67565b600281111561206c5761206c612b67565b600281111561207d5761207d612b67565b81526020808201929092526040016000208251805191926120a3928492909101906125a8565b5060208281015180516120bc926001850192019061260d565b50604082015181600201559050507fbe653149cd17ff0e18389f00dc982329cea9f2a2d7274325a883a003cdb95f128282600001518360200151846040015160405161210b9493929190612e60565b60405180910390a150505050565b612121612552565b61213e57604051631afcd79f60e31b815260040160405180910390fd5b565b6001600160a01b0381166121885760405162461bcd60e51b815260206004820152600f60248201526e2d32b9379031b7b73a3937b63632b960891b60448201526064016105f6565b6121b78161064760017f5165972ef41194f06c5007493031d0b927c20741adcb74403b954009fd2c3618612b41565b6121e64261064760017f6f55f470bdc9cb5f04223fd822021061668e4dccb43e8727b295106dc9769c8b612b41565b6122154361064760017f812a673dfca07956350df10f8a654925f561d7a0da09bdbe79e653939a14d9f1612b41565b604080516001600160a01b038316815242602082015243918101919091527f1a2dd071001ebf6e03174e3df5b305795a4ad5d41d8fdb9ba41dbbe23671342690606001611e71565b8061053057604051636221cab960e01b815260040160405180910390fd5b600081815b81518110156122e157602082828151811061229d5761229d612d6b565b016020015160f81c10806122ca5750607f8282815181106122c0576122c0612d6b565b016020015160f81c115b156122d9575060009392505050565b600101612280565b5060019392505050565b80516000196001600160801b038215612366576020840193505b6020852080865282840193608082901c0660051b850184612327575050612366565b600585811b8701805183519091529091528385019482841606901b850184612350575050612366565b600585901b860180518251909152905250612305565b5050505050565b600081831061237c5781610e39565b5090919050565b806001600160a01b0316826001600160a01b031663683fedf76040518163ffffffff1660e01b8152600401602060405180830381865afa1580156123cb573d6000803e3d6000fd5b505050506040513d601f19601f820116820180604052508101906123ef9190612b7d565b6001600160a01b03161461076d578060405163cf219bef60e01b81526004016105f691906128bf565b60006007612427836003612b54565b6105a79190612e0d565b806001600160a01b0316826001600160a01b0316635aa6e6756040518163ffffffff1660e01b8152600401602060405180830381865afa158015612479573d6000803e3d6000fd5b505050506040513d601f19601f8201168201806040525081019061249d9190612b7d565b6001600160a01b03161461076d578060405163988d1f0360e01b81526004016105f691906128bf565b604051631430d62960e21b81526001600160a01b038316906350c358a4906124f29084906004016128bf565b602060405180830381865afa15801561250f573d6000803e3d6000fd5b505050506040513d601f19601f820116820180604052508101906125339190612e9d565b61076d578060405163451cea1760e11b81526004016105f691906128bf565b600061255c610920565b54600160401b900460ff16919050565b6040805160e081018252600080825260208201819052918101829052606081018290526080810182905260a0810182905260c081019190915290565b8280548282559060005260206000209081019282156125fd579160200282015b828111156125fd57825182546001600160a01b0319166001600160a01b039091161782556020909201916001909101906125c8565b506126099291506126b3565b5090565b828054828255906000526020600020906007016008900481019282156125fd5791602002820160005b8382111561267a57835183826101000a81548163ffffffff021916908363ffffffff1602179055509260200192600401602081600301049283019260010302612636565b80156126aa5782816101000a81549063ffffffff021916905560040160208160030104928301926001030261267a565b50506126099291505b5b8082111561260957600081556001016126b4565b6001600160a01b038116811461053057600080fd5b6000602082840312156126ef57600080fd5b8135610e39816126c8565b634e487b7160e01b600052604160045260246000fd5b604051606081016001600160401b0381118282101715612732576127326126fa565b60405290565b604051601f8201601f191681016001600160401b0381118282101715612760576127606126fa565b604052919050565b6000602080838503121561277b57600080fd5b82356001600160401b038082111561279257600080fd5b818501915085601f8301126127a657600080fd5b8135818111156127b8576127b86126fa565b6127ca601f8201601f19168501612738565b915080825286848285010111156127e057600080fd5b8084840185840137600090820190930192909252509392505050565b60005b838110156128175781810151838201526020016127ff565b50506000910152565b600081518084526128388160208601602086016127fc565b601f01601f19169290920160200192915050565b602081526000610e396020830184612820565b60006020828403121561287157600080fd5b5035919050565b801515811461053057600080fd5b6000806040838503121561289957600080fd5b82356128a4816126c8565b915060208301356128b481612878565b809150509250929050565b6001600160a01b0391909116815260200190565b60008151808452602080850194506020840160005b8381101561290d5781516001600160a01b0316875295820195908201906001016128e8565b509495945050505050565b60008151808452602080850194506020840160005b8381101561290d57815163ffffffff168752958201959082019060010161292d565b60608152600061296260608301866128d3565b82810360208401526129748186612918565b915050826040830152949350505050565b60006001600160401b0382111561299e5761299e6126fa565b5060051b60200190565b600082601f8301126129b957600080fd5b813560206129ce6129c983612985565b612738565b8083825260208201915060208460051b8701019350868411156129f057600080fd5b602086015b84811015612a1f57803563ffffffff81168114612a125760008081fd5b83529183019183016129f5565b509695505050505050565b60008060408385031215612a3d57600080fd5b823591506020808401356001600160401b0380821115612a5c57600080fd5b9085019060608288031215612a7057600080fd5b612a78612710565b823582811115612a8757600080fd5b8301601f81018913612a9857600080fd5b8035612aa66129c982612985565b81815260059190911b8201860190868101908b831115612ac557600080fd5b928701925b82841015612aec578335612add816126c8565b82529287019290870190612aca565b84525050508284013582811115612b0257600080fd5b612b0e898286016129a8565b858301525060408301356040820152809450505050509250929050565b634e487b7160e01b600052601160045260246000fd5b818103818111156105a7576105a7612b2b565b808201808211156105a7576105a7612b2b565b634e487b7160e01b600052602160045260246000fd5b600060208284031215612b8f57600080fd5b8151610e39816126c8565b60008251612bac8184602087016127fc565b9190910192915050565b600181811c90821680612bca57607f821691505b602082108103612bea57634e487b7160e01b600052602260045260246000fd5b50919050565b601f821115612c38576000816000526020600020601f850160051c81016020861015612c195750805b601f850160051c820191505b818110156104f257828155600101612c25565b505050565b81516001600160401b03811115612c5657612c566126fa565b612c6a81612c648454612bb6565b84612bf0565b602080601f831160018114612c9f5760008415612c875750858301515b600019600386901b1c1916600185901b1785556104f2565b600085815260208120601f198616915b82811015612cce57888601518255948401946001909101908401612caf565b5085821015612cec5787850151600019600388901b60f8161c191681555b5050505050600190811b01905550565b6001600160a01b0383168152604060208201819052600090612d2090830184612820565b949350505050565b634e487b7160e01b600052601260045260246000fd5b600082612d4d57612d4d612d28565b500690565b600060208284031215612d6457600080fd5b5051919050565b634e487b7160e01b600052603260045260246000fd5b600063ffffffff821680612d9757612d97612b2b565b6000190192915050565b60018060a01b03851681526000602085602084015260806040840152612dca60808401866128d3565b83810360608501528451808252602080870192019060005b81811015612dfe57835183529284019291840191600101612de2565b50909998505050505050505050565b600082612e1c57612e1c612d28565b500490565b63ffffffff818116838216019080821115612e3e57612e3e612b2b565b5092915050565b61ffff818116838216019080821115612e3e57612e3e612b2b565b848152608060208201526000612e7960808301866128d3565b8281036040840152612e8b8186612918565b91505082606083015295945050505050565b600060208284031215612eaf57600080fd5b8151610e398161287856fe22573091f17911fb166032a3d9e0554aa73d31b7b7ddea4a4dd2995650af84bda26469706673582212208ab1aaf714ec5dcfe3424d3ede5e5abdef57cb611e7376eeadf30fa932ddf73064736f6c63430008170033",
  "libraries": {},
  "devdoc": {
    "errors": {
      "InvalidInitialization()": [
        {
          "details": "The contract is already initialized."
        }
      ],
      "NotInitializing()": [
        {
          "details": "The contract is not initializing."
        }
      ]
    },
    "events": {
      "Initialized(uint64)": {
        "details": "Triggered when the contract has been initialized or reinitialized."
      }
    },
    "kind": "dev",
    "methods": {
      "created()": {
        "returns": {
          "_0": "Creation timestamp"
        }
      },
      "createdBlock()": {
        "returns": {
          "_0": "Creation block number"
        }
      },
      "increaseRevision(address)": {
        "details": "Revision should be increased on each contract upgrade"
      },
      "isController(address)": {
        "details": "Return true if given address is controller"
      },
      "previousImplementation()": {
        "details": "Previous logic implementation"
      },
      "registerPassedDungeon(address)": {
        "params": {
          "user": "Owner of the hero who has passed the dungeon"
        }
      },
      "registerPvP(address,bool)": {
        "params": {
          "user": "Owner of the hero who has taken participation in the PvP"
        }
      },
      "revision()": {
        "details": "Contract upgrade counter"
      }
    },
    "stateVariables": {
      "VERSION": {
        "details": "Should be incremented when contract changed"
      }
    },
    "version": 1
  },
  "userdoc": {
    "kind": "user",
    "methods": {
      "CONTROLLABLE_VERSION()": {
        "notice": "Version of the contract"
      },
      "VERSION()": {
        "notice": "Version of the contract"
      },
      "controller()": {
        "notice": "Return controller address saved in the contract slot"
      },
      "created()": {
        "notice": "Return creation timestamp"
      },
      "createdBlock()": {
        "notice": "Return creation block number"
      },
      "isGovernance(address)": {
        "notice": "Return true if given address is setup as governance in Controller"
      },
      "registerPassedDungeon(address)": {
        "notice": "Register daily activity - a dungeon was passed"
      },
      "registerPvP(address,bool)": {
        "notice": "Register daily activity - PvP was made"
      }
    },
    "version": 1
  },
  "storageLayout": {
    "storage": [],
    "types": null
  }
}