{
  "address": "0xDD6EC7dA015A8469273d31cB996372A0c851C5e3",
  "abi": [
    {
      "inputs": [
        {
          "internalType": "uint16",
          "name": "dungNum",
          "type": "uint16"
        }
      ],
      "name": "DungeonAlreadySpecific",
      "type": "error"
    },
    {
      "inputs": [
        {
          "internalType": "uint16",
          "name": "dungNum",
          "type": "uint16"
        }
      ],
      "name": "DungeonAlreadySpecific2",
      "type": "error"
    },
    {
      "inputs": [],
      "name": "ErrorDungeonCompleted",
      "type": "error"
    },
    {
      "inputs": [],
      "name": "ErrorDungeonIsFreeAlready",
      "type": "error"
    },
    {
      "inputs": [
        {
          "internalType": "address",
          "name": "heroToken",
          "type": "address"
        },
        {
          "internalType": "uint256",
          "name": "heroTokenId",
          "type": "uint256"
        }
      ],
      "name": "ErrorHeroIsDead",
      "type": "error"
    },
    {
      "inputs": [
        {
          "internalType": "address",
          "name": "heroToken",
          "type": "address"
        }
      ],
      "name": "ErrorHeroIsNotRegistered",
      "type": "error"
    },
    {
      "inputs": [],
      "name": "ErrorHeroLevelStartFrom1",
      "type": "error"
    },
    {
      "inputs": [],
      "name": "ErrorHeroNotInDungeon",
      "type": "error"
    },
    {
      "inputs": [
        {
          "internalType": "uint256",
          "name": "biome",
          "type": "uint256"
        }
      ],
      "name": "ErrorIncorrectBiome",
      "type": "error"
    },
    {
      "inputs": [
        {
          "internalType": "uint256",
          "name": "heroLevel",
          "type": "uint256"
        }
      ],
      "name": "ErrorLevelTooLow",
      "type": "error"
    },
    {
      "inputs": [
        {
          "internalType": "uint8",
          "name": "heroBiome",
          "type": "uint8"
        }
      ],
      "name": "ErrorNoDungeonsForBiome",
      "type": "error"
    },
    {
      "inputs": [],
      "name": "ErrorNoEligibleDungeons",
      "type": "error"
    },
    {
      "inputs": [],
      "name": "ErrorNotChances",
      "type": "error"
    },
    {
      "inputs": [
        {
          "internalType": "address",
          "name": "sender",
          "type": "address"
        }
      ],
      "name": "ErrorNotDeployer",
      "type": "error"
    },
    {
      "inputs": [],
      "name": "ErrorNotObject1",
      "type": "error"
    },
    {
      "inputs": [
        {
          "internalType": "address",
          "name": "token",
          "type": "address"
        },
        {
          "internalType": "uint256",
          "name": "tokenId",
          "type": "uint256"
        }
      ],
      "name": "ErrorNotOwner",
      "type": "error"
    },
    {
      "inputs": [],
      "name": "ErrorNotReady",
      "type": "error"
    },
    {
      "inputs": [],
      "name": "ErrorNotStages",
      "type": "error"
    },
    {
      "inputs": [],
      "name": "ErrorOnlyEoa",
      "type": "error"
    },
    {
      "inputs": [],
      "name": "ErrorPaused",
      "type": "error"
    },
    {
      "inputs": [
        {
          "internalType": "uint256",
          "name": "heroLevel",
          "type": "uint256"
        }
      ],
      "name": "ErrorWrongLevel",
      "type": "error"
    },
    {
      "inputs": [
        {
          "internalType": "uint256",
          "name": "multiplier",
          "type": "uint256"
        }
      ],
      "name": "ErrorWrongMultiplier",
      "type": "error"
    },
    {
      "inputs": [
        {
          "internalType": "uint256",
          "name": "stage",
          "type": "uint256"
        }
      ],
      "name": "ErrorWrongStage",
      "type": "error"
    },
    {
      "inputs": [],
      "name": "InvalidInitialization",
      "type": "error"
    },
    {
      "inputs": [],
      "name": "NotInitializing",
      "type": "error"
    },
    {
      "inputs": [
        {
          "internalType": "uint256",
          "name": "index",
          "type": "uint256"
        },
        {
          "internalType": "uint256",
          "name": "length",
          "type": "uint256"
        }
      ],
      "name": "OutOfBounds",
      "type": "error"
    },
    {
      "inputs": [
        {
          "internalType": "uint256",
          "name": "value",
          "type": "uint256"
        }
      ],
      "name": "TooHighValue",
      "type": "error"
    },
    {
      "inputs": [
        {
          "internalType": "uint256",
          "name": "x",
          "type": "uint256"
        }
      ],
      "name": "TooLowX",
      "type": "error"
    },
    {
      "inputs": [],
      "name": "WrongSpecificDungeon",
      "type": "error"
    },
    {
      "anonymous": false,
      "inputs": [
        {
          "indexed": false,
          "internalType": "uint64",
          "name": "dungId",
          "type": "uint64"
        }
      ],
      "name": "Clear",
      "type": "event"
    },
    {
      "anonymous": false,
      "inputs": [
        {
          "indexed": false,
          "internalType": "address",
          "name": "controller",
          "type": "address"
        },
        {
          "indexed": false,
          "internalType": "uint256",
          "name": "ts",
          "type": "uint256"
        },
        {
          "indexed": false,
          "internalType": "uint256",
          "name": "block",
          "type": "uint256"
        }
      ],
      "name": "ContractInitialized",
      "type": "event"
    },
    {
      "anonymous": false,
      "inputs": [
        {
          "indexed": false,
          "internalType": "uint16",
          "name": "dungLogicId",
          "type": "uint16"
        },
        {
          "components": [
            {
              "internalType": "uint8[][]",
              "name": "objTypesByStages",
              "type": "uint8[][]"
            },
            {
              "internalType": "uint32[][]",
              "name": "objChancesByStages",
              "type": "uint32[][]"
            },
            {
              "internalType": "uint32[]",
              "name": "uniqObjects",
              "type": "uint32[]"
            },
            {
              "internalType": "uint8",
              "name": "minLevel",
              "type": "uint8"
            },
            {
              "internalType": "uint8",
              "name": "maxLevel",
              "type": "uint8"
            },
            {
              "internalType": "bytes32[]",
              "name": "requiredCustomDataIndex",
              "type": "bytes32[]"
            },
            {
              "internalType": "uint64[]",
              "name": "requiredCustomDataMinValue",
              "type": "uint64[]"
            },
            {
              "internalType": "uint64[]",
              "name": "requiredCustomDataMaxValue",
              "type": "uint64[]"
            },
            {
              "internalType": "bool[]",
              "name": "requiredCustomDataIsHero",
              "type": "bool[]"
            }
          ],
          "indexed": false,
          "internalType": "struct IDungeonFactory.DungeonGenerateInfo",
          "name": "info",
          "type": "tuple"
        }
      ],
      "name": "DungeonLogicRegistered",
      "type": "event"
    },
    {
      "anonymous": false,
      "inputs": [
        {
          "indexed": false,
          "internalType": "uint16",
          "name": "dungLogicId",
          "type": "uint16"
        }
      ],
      "name": "DungeonLogicRemoved",
      "type": "event"
    },
    {
      "anonymous": false,
      "inputs": [
        {
          "indexed": false,
          "internalType": "uint16",
          "name": "dungLogicId",
          "type": "uint16"
        },
        {
          "indexed": false,
          "internalType": "uint256",
          "name": "biome",
          "type": "uint256"
        },
        {
          "indexed": false,
          "internalType": "uint256",
          "name": "heroCls",
          "type": "uint256"
        }
      ],
      "name": "DungeonSpecificLogicRegistered",
      "type": "event"
    },
    {
      "anonymous": false,
      "inputs": [
        {
          "indexed": false,
          "internalType": "uint16",
          "name": "dungLogicId",
          "type": "uint16"
        },
        {
          "indexed": false,
          "internalType": "uint256",
          "name": "heroLvl",
          "type": "uint256"
        },
        {
          "indexed": false,
          "internalType": "uint256",
          "name": "heroCls",
          "type": "uint256"
        }
      ],
      "name": "DungeonSpecificLogicRemoved",
      "type": "event"
    },
    {
      "anonymous": false,
      "inputs": [
        {
          "indexed": false,
          "internalType": "uint8",
          "name": "biome",
          "type": "uint8"
        },
        {
          "indexed": false,
          "internalType": "uint64",
          "name": "dungeonId",
          "type": "uint64"
        }
      ],
      "name": "FreeDungeonAdded",
      "type": "event"
    },
    {
      "anonymous": false,
      "inputs": [
        {
          "indexed": false,
          "internalType": "uint64",
          "name": "version",
          "type": "uint64"
        }
      ],
      "name": "Initialized",
      "type": "event"
    },
    {
      "anonymous": false,
      "inputs": [
        {
          "indexed": false,
          "internalType": "address",
          "name": "token",
          "type": "address"
        },
        {
          "indexed": false,
          "internalType": "uint256",
          "name": "level",
          "type": "uint256"
        }
      ],
      "name": "MinLevelForTreasuryChanged",
      "type": "event"
    },
    {
      "anonymous": false,
      "inputs": [
        {
          "indexed": false,
          "internalType": "uint64",
          "name": "dungId",
          "type": "uint64"
        },
        {
          "indexed": false,
          "internalType": "address",
          "name": "hero",
          "type": "address"
        },
        {
          "indexed": false,
          "internalType": "uint256",
          "name": "id",
          "type": "uint256"
        },
        {
          "indexed": false,
          "internalType": "uint32",
          "name": "objId",
          "type": "uint32"
        },
        {
          "indexed": false,
          "internalType": "uint256",
          "name": "iteration",
          "type": "uint256"
        },
        {
          "indexed": false,
          "internalType": "uint256",
          "name": "currentStage",
          "type": "uint256"
        }
      ],
      "name": "ObjectOpened",
      "type": "event"
    },
    {
      "anonymous": false,
      "inputs": [
        {
          "indexed": false,
          "internalType": "uint256",
          "name": "value",
          "type": "uint256"
        },
        {
          "indexed": false,
          "internalType": "address",
          "name": "oldLogic",
          "type": "address"
        }
      ],
      "name": "RevisionIncreased",
      "type": "event"
    },
    {
      "inputs": [],
      "name": "CONTROLLABLE_VERSION",
      "outputs": [
        {
          "internalType": "string",
          "name": "",
          "type": "string"
        }
      ],
      "stateMutability": "view",
      "type": "function"
    },
    {
      "inputs": [],
      "name": "VERSION",
      "outputs": [
        {
          "internalType": "string",
          "name": "",
          "type": "string"
        }
      ],
      "stateMutability": "view",
      "type": "function"
    },
    {
      "inputs": [],
      "name": "controller",
      "outputs": [
        {
          "internalType": "address",
          "name": "",
          "type": "address"
        }
      ],
      "stateMutability": "view",
      "type": "function"
    },
    {
      "inputs": [],
      "name": "created",
      "outputs": [
        {
          "internalType": "uint256",
          "name": "",
          "type": "uint256"
        }
      ],
      "stateMutability": "view",
      "type": "function"
    },
    {
      "inputs": [],
      "name": "createdBlock",
      "outputs": [
        {
          "internalType": "uint256",
          "name": "",
          "type": "uint256"
        }
      ],
      "stateMutability": "view",
      "type": "function"
    },
    {
      "inputs": [
        {
          "internalType": "address",
          "name": "heroToken",
          "type": "address"
        },
        {
          "internalType": "uint256",
          "name": "heroTokenId",
          "type": "uint256"
        }
      ],
      "name": "currentDungeon",
      "outputs": [
        {
          "internalType": "uint64",
          "name": "",
          "type": "uint64"
        }
      ],
      "stateMutability": "view",
      "type": "function"
    },
    {
      "inputs": [
        {
          "internalType": "uint16",
          "name": "dungLogicNum",
          "type": "uint16"
        }
      ],
      "name": "dungeonAttributes",
      "outputs": [
        {
          "components": [
            {
              "internalType": "uint8",
              "name": "stages",
              "type": "uint8"
            },
            {
              "internalType": "uint8",
              "name": "biome",
              "type": "uint8"
            },
            {
              "internalType": "uint32[]",
              "name": "uniqObjects",
              "type": "uint32[]"
            },
            {
              "internalType": "bytes32",
              "name": "minMaxLevel",
              "type": "bytes32"
            },
            {
              "internalType": "bytes32[]",
              "name": "requiredCustomDataIndex",
              "type": "bytes32[]"
            },
            {
              "internalType": "bytes32[]",
              "name": "requiredCustomDataValue",
              "type": "bytes32[]"
            },
            {
              "components": [
                {
                  "internalType": "bytes32[]",
                  "name": "objTypesByStages",
                  "type": "bytes32[]"
                },
                {
                  "internalType": "uint32[][]",
                  "name": "objChancesByStages",
                  "type": "uint32[][]"
                }
              ],
              "internalType": "struct IDungeonFactory.ObjectGenerateInfo",
              "name": "info",
              "type": "tuple"
            }
          ],
          "internalType": "struct IDungeonFactory.DungeonAttributes",
          "name": "",
          "type": "tuple"
        }
      ],
      "stateMutability": "view",
      "type": "function"
    },
    {
      "inputs": [],
      "name": "dungeonCounter",
      "outputs": [
        {
          "internalType": "uint64",
          "name": "",
          "type": "uint64"
        }
      ],
      "stateMutability": "view",
      "type": "function"
    },
    {
      "inputs": [
        {
          "internalType": "uint64",
          "name": "dungeonId",
          "type": "uint64"
        }
      ],
      "name": "dungeonNgLevel",
      "outputs": [
        {
          "internalType": "uint256",
          "name": "",
          "type": "uint256"
        }
      ],
      "stateMutability": "view",
      "type": "function"
    },
    {
      "inputs": [
        {
          "internalType": "uint64",
          "name": "dungeonId",
          "type": "uint64"
        }
      ],
      "name": "dungeonStatus",
      "outputs": [
        {
          "internalType": "uint16",
          "name": "dungNum",
          "type": "uint16"
        },
        {
          "internalType": "bool",
          "name": "isCompleted",
          "type": "bool"
        },
        {
          "internalType": "address",
          "name": "heroToken",
          "type": "address"
        },
        {
          "internalType": "uint256",
          "name": "heroTokenId",
          "type": "uint256"
        },
        {
          "internalType": "uint32",
          "name": "currentObject",
          "type": "uint32"
        },
        {
          "internalType": "uint8",
          "name": "currentObjIndex",
          "type": "uint8"
        },
        {
          "internalType": "address[]",
          "name": "treasuryTokens",
          "type": "address[]"
        },
        {
          "internalType": "uint256[]",
          "name": "treasuryTokensAmounts",
          "type": "uint256[]"
        },
        {
          "internalType": "bytes32[]",
          "name": "treasuryItems",
          "type": "bytes32[]"
        },
        {
          "internalType": "uint8",
          "name": "stages",
          "type": "uint8"
        },
        {
          "internalType": "uint32[]",
          "name": "uniqObjects",
          "type": "uint32[]"
        }
      ],
      "stateMutability": "view",
      "type": "function"
    },
    {
      "inputs": [
        {
          "internalType": "address",
          "name": "token",
          "type": "address"
        },
        {
          "internalType": "uint256",
          "name": "maxAvailableBiome_",
          "type": "uint256"
        },
        {
          "internalType": "uint256",
          "name": "treasuryBalance",
          "type": "uint256"
        },
        {
          "internalType": "uint8",
          "name": "heroLevel",
          "type": "uint8"
        },
        {
          "internalType": "uint8",
          "name": "dungeonBiome",
          "type": "uint8"
        },
        {
          "internalType": "uint8",
          "name": "maxOpenedNgLevel",
          "type": "uint8"
        },
        {
          "internalType": "uint8",
          "name": "heroNgLevel",
          "type": "uint8"
        }
      ],
      "name": "dungeonTreasuryReward",
      "outputs": [
        {
          "internalType": "uint256",
          "name": "",
          "type": "uint256"
        }
      ],
      "stateMutability": "view",
      "type": "function"
    },
    {
      "inputs": [
        {
          "internalType": "uint64",
          "name": "dungId",
          "type": "uint64"
        }
      ],
      "name": "emergencyExit",
      "outputs": [],
      "stateMutability": "nonpayable",
      "type": "function"
    },
    {
      "inputs": [
        {
          "internalType": "uint64",
          "name": "dungId",
          "type": "uint64"
        },
        {
          "internalType": "address",
          "name": "heroToken_",
          "type": "address"
        },
        {
          "internalType": "uint256",
          "name": "heroTokenId_",
          "type": "uint256"
        }
      ],
      "name": "enter",
      "outputs": [],
      "stateMutability": "nonpayable",
      "type": "function"
    },
    {
      "inputs": [
        {
          "internalType": "uint64",
          "name": "dungId",
          "type": "uint64"
        },
        {
          "internalType": "bool",
          "name": "claim",
          "type": "bool"
        }
      ],
      "name": "exit",
      "outputs": [],
      "stateMutability": "nonpayable",
      "type": "function"
    },
    {
      "inputs": [
        {
          "internalType": "address",
          "name": "hero",
          "type": "address"
        },
        {
          "internalType": "uint256",
          "name": "heroId",
          "type": "uint256"
        },
        {
          "internalType": "address",
          "name": "msgSender",
          "type": "address"
        }
      ],
      "name": "exitForcibly",
      "outputs": [],
      "stateMutability": "nonpayable",
      "type": "function"
    },
    {
      "inputs": [
        {
          "internalType": "address",
          "name": "hero",
          "type": "address"
        },
        {
          "internalType": "uint256",
          "name": "heroId",
          "type": "uint256"
        }
      ],
      "name": "exitSuicide",
      "outputs": [],
      "stateMutability": "nonpayable",
      "type": "function"
    },
    {
      "inputs": [
        {
          "internalType": "uint256",
          "name": "id",
          "type": "uint256"
        },
        {
          "internalType": "uint256",
          "name": "biome",
          "type": "uint256"
        }
      ],
      "name": "freeDungeonsByLevel",
      "outputs": [
        {
          "internalType": "uint64",
          "name": "",
          "type": "uint64"
        }
      ],
      "stateMutability": "view",
      "type": "function"
    },
    {
      "inputs": [
        {
          "internalType": "uint256",
          "name": "biome",
          "type": "uint256"
        }
      ],
      "name": "freeDungeonsByLevelLength",
      "outputs": [
        {
          "internalType": "uint256",
          "name": "",
          "type": "uint256"
        }
      ],
      "stateMutability": "view",
      "type": "function"
    },
    {
      "inputs": [
        {
          "internalType": "contract IController",
          "name": "controller_",
          "type": "address"
        },
        {
          "internalType": "uint8",
          "name": "heroLevel",
          "type": "uint8"
        },
        {
          "internalType": "address",
          "name": "heroToken",
          "type": "address"
        },
        {
          "internalType": "uint256",
          "name": "heroTokenId",
          "type": "uint256"
        },
        {
          "internalType": "uint256",
          "name": "random",
          "type": "uint256"
        }
      ],
      "name": "getDungeonLogic",
      "outputs": [
        {
          "internalType": "uint16",
          "name": "",
          "type": "uint16"
        }
      ],
      "stateMutability": "view",
      "type": "function"
    },
    {
      "inputs": [
        {
          "internalType": "address",
          "name": "token",
          "type": "address"
        },
        {
          "internalType": "uint256",
          "name": "heroLevel",
          "type": "uint256"
        },
        {
          "internalType": "uint256",
          "name": "biome",
          "type": "uint256"
        },
        {
          "internalType": "uint256",
          "name": "heroNgLevel",
          "type": "uint256"
        }
      ],
      "name": "getDungeonTreasuryAmount",
      "outputs": [
        {
          "internalType": "uint256",
          "name": "totalAmount",
          "type": "uint256"
        },
        {
          "internalType": "uint256",
          "name": "amountForDungeon",
          "type": "uint256"
        },
        {
          "internalType": "uint256",
          "name": "mintAmount",
          "type": "uint256"
        }
      ],
      "stateMutability": "view",
      "type": "function"
    },
    {
      "inputs": [
        {
          "internalType": "address",
          "name": "oldLogic",
          "type": "address"
        }
      ],
      "name": "increaseRevision",
      "outputs": [],
      "stateMutability": "nonpayable",
      "type": "function"
    },
    {
      "inputs": [
        {
          "internalType": "address",
          "name": "controller_",
          "type": "address"
        }
      ],
      "name": "init",
      "outputs": [],
      "stateMutability": "nonpayable",
      "type": "function"
    },
    {
      "inputs": [
        {
          "internalType": "address",
          "name": "heroToken",
          "type": "address"
        },
        {
          "internalType": "uint256",
          "name": "heroTokenId",
          "type": "uint256"
        }
      ],
      "name": "isBiomeBoss",
      "outputs": [
        {
          "internalType": "bool",
          "name": "",
          "type": "bool"
        }
      ],
      "stateMutability": "view",
      "type": "function"
    },
    {
      "inputs": [
        {
          "internalType": "address",
          "name": "value_",
          "type": "address"
        }
      ],
      "name": "isController",
      "outputs": [
        {
          "internalType": "bool",
          "name": "",
          "type": "bool"
        }
      ],
      "stateMutability": "view",
      "type": "function"
    },
    {
      "inputs": [
        {
          "internalType": "uint16",
          "name": "dungeonLogic",
          "type": "uint16"
        },
        {
          "internalType": "uint8",
          "name": "heroLevel",
          "type": "uint8"
        },
        {
          "internalType": "address",
          "name": "heroToken",
          "type": "address"
        },
        {
          "internalType": "uint256",
          "name": "heroTokenId",
          "type": "uint256"
        }
      ],
      "name": "isDungeonEligibleForHero",
      "outputs": [
        {
          "internalType": "bool",
          "name": "",
          "type": "bool"
        }
      ],
      "stateMutability": "view",
      "type": "function"
    },
    {
      "inputs": [
        {
          "internalType": "address",
          "name": "value_",
          "type": "address"
        }
      ],
      "name": "isGovernance",
      "outputs": [
        {
          "internalType": "bool",
          "name": "",
          "type": "bool"
        }
      ],
      "stateMutability": "view",
      "type": "function"
    },
    {
      "inputs": [
        {
          "internalType": "address",
          "name": "forwarder",
          "type": "address"
        }
      ],
      "name": "isTrustedForwarder",
      "outputs": [
        {
          "internalType": "bool",
          "name": "",
          "type": "bool"
        }
      ],
      "stateMutability": "view",
      "type": "function"
    },
    {
      "inputs": [
        {
          "internalType": "address",
          "name": "heroToken",
          "type": "address"
        },
        {
          "internalType": "uint256",
          "name": "heroTokenId",
          "type": "uint256"
        },
        {
          "internalType": "address",
          "name": "treasuryToken",
          "type": "address"
        }
      ],
      "name": "launch",
      "outputs": [
        {
          "internalType": "uint64",
          "name": "dungeonId",
          "type": "uint64"
        }
      ],
      "stateMutability": "nonpayable",
      "type": "function"
    },
    {
      "inputs": [
        {
          "internalType": "address",
          "name": "heroToken",
          "type": "address"
        },
        {
          "internalType": "uint256",
          "name": "heroTokenId",
          "type": "uint256"
        },
        {
          "internalType": "address",
          "name": "owner",
          "type": "address"
        }
      ],
      "name": "launchForNewHero",
      "outputs": [
        {
          "internalType": "uint64",
          "name": "dungeonId",
          "type": "uint64"
        }
      ],
      "stateMutability": "nonpayable",
      "type": "function"
    },
    {
      "inputs": [],
      "name": "maxAvailableBiome",
      "outputs": [
        {
          "internalType": "uint8",
          "name": "",
          "type": "uint8"
        }
      ],
      "stateMutability": "view",
      "type": "function"
    },
    {
      "inputs": [
        {
          "internalType": "address",
          "name": "heroToken",
          "type": "address"
        },
        {
          "internalType": "uint256",
          "name": "heroTokenId",
          "type": "uint256"
        }
      ],
      "name": "maxBiomeCompleted",
      "outputs": [
        {
          "internalType": "uint8",
          "name": "",
          "type": "uint8"
        }
      ],
      "stateMutability": "view",
      "type": "function"
    },
    {
      "inputs": [
        {
          "internalType": "address",
          "name": "token",
          "type": "address"
        }
      ],
      "name": "minLevelForTreasury",
      "outputs": [
        {
          "internalType": "uint256",
          "name": "",
          "type": "uint256"
        }
      ],
      "stateMutability": "view",
      "type": "function"
    },
    {
      "inputs": [
        {
          "internalType": "uint64",
          "name": "dungId",
          "type": "uint64"
        },
        {
          "internalType": "bytes",
          "name": "data",
          "type": "bytes"
        }
      ],
      "name": "objectAction",
      "outputs": [],
      "stateMutability": "nonpayable",
      "type": "function"
    },
    {
      "inputs": [
        {
          "internalType": "address",
          "name": "",
          "type": "address"
        },
        {
          "internalType": "address",
          "name": "",
          "type": "address"
        },
        {
          "internalType": "uint256",
          "name": "",
          "type": "uint256"
        },
        {
          "internalType": "bytes",
          "name": "",
          "type": "bytes"
        }
      ],
      "name": "onERC721Received",
      "outputs": [
        {
          "internalType": "bytes4",
          "name": "",
          "type": "bytes4"
        }
      ],
      "stateMutability": "nonpayable",
      "type": "function"
    },
    {
      "inputs": [
        {
          "internalType": "uint64",
          "name": "dungId",
          "type": "uint64"
        }
      ],
      "name": "openObject",
      "outputs": [],
      "stateMutability": "nonpayable",
      "type": "function"
    },
    {
      "inputs": [],
      "name": "previousImplementation",
      "outputs": [
        {
          "internalType": "address",
          "name": "",
          "type": "address"
        }
      ],
      "stateMutability": "view",
      "type": "function"
    },
    {
      "inputs": [
        {
          "internalType": "address",
          "name": "heroToken",
          "type": "address"
        },
        {
          "internalType": "uint256",
          "name": "heroTokenId",
          "type": "uint256"
        }
      ],
      "name": "reborn",
      "outputs": [],
      "stateMutability": "nonpayable",
      "type": "function"
    },
    {
      "inputs": [
        {
          "internalType": "uint16",
          "name": "dungLogicId",
          "type": "uint16"
        },
        {
          "internalType": "uint8",
          "name": "biome",
          "type": "uint8"
        },
        {
          "components": [
            {
              "internalType": "uint8[][]",
              "name": "objTypesByStages",
              "type": "uint8[][]"
            },
            {
              "internalType": "uint32[][]",
              "name": "objChancesByStages",
              "type": "uint32[][]"
            },
            {
              "internalType": "uint32[]",
              "name": "uniqObjects",
              "type": "uint32[]"
            },
            {
              "internalType": "uint8",
              "name": "minLevel",
              "type": "uint8"
            },
            {
              "internalType": "uint8",
              "name": "maxLevel",
              "type": "uint8"
            },
            {
              "internalType": "bytes32[]",
              "name": "requiredCustomDataIndex",
              "type": "bytes32[]"
            },
            {
              "internalType": "uint64[]",
              "name": "requiredCustomDataMinValue",
              "type": "uint64[]"
            },
            {
              "internalType": "uint64[]",
              "name": "requiredCustomDataMaxValue",
              "type": "uint64[]"
            },
            {
              "internalType": "bool[]",
              "name": "requiredCustomDataIsHero",
              "type": "bool[]"
            }
          ],
          "internalType": "struct IDungeonFactory.DungeonGenerateInfo",
          "name": "genInfo",
          "type": "tuple"
        },
        {
          "internalType": "uint8",
          "name": "specReqBiome",
          "type": "uint8"
        },
        {
          "internalType": "uint8",
          "name": "specReqHeroClass",
          "type": "uint8"
        },
        {
          "internalType": "bool",
          "name": "isSpecific",
          "type": "bool"
        }
      ],
      "name": "registerDungeonLogic",
      "outputs": [],
      "stateMutability": "nonpayable",
      "type": "function"
    },
    {
      "inputs": [
        {
          "internalType": "uint16",
          "name": "dungLogicId",
          "type": "uint16"
        },
        {
          "internalType": "uint8",
          "name": "specReqBiome",
          "type": "uint8"
        },
        {
          "internalType": "uint8",
          "name": "specReqHeroClass",
          "type": "uint8"
        }
      ],
      "name": "removeDungeonLogic",
      "outputs": [],
      "stateMutability": "nonpayable",
      "type": "function"
    },
    {
      "inputs": [],
      "name": "revision",
      "outputs": [
        {
          "internalType": "uint256",
          "name": "",
          "type": "uint256"
        }
      ],
      "stateMutability": "view",
      "type": "function"
    },
    {
      "inputs": [
        {
          "internalType": "uint32",
          "name": "objectId",
          "type": "uint32"
        },
        {
          "internalType": "address",
          "name": "heroToken",
          "type": "address"
        },
        {
          "internalType": "uint256",
          "name": "heroTokenId",
          "type": "uint256"
        },
        {
          "internalType": "uint8",
          "name": "heroBiome",
          "type": "uint8"
        }
      ],
      "name": "setBossCompleted",
      "outputs": [],
      "stateMutability": "nonpayable",
      "type": "function"
    },
    {
      "inputs": [
        {
          "internalType": "address",
          "name": "token",
          "type": "address"
        },
        {
          "internalType": "uint256",
          "name": "heroLevel",
          "type": "uint256"
        }
      ],
      "name": "setMinLevelForTreasury",
      "outputs": [],
      "stateMutability": "nonpayable",
      "type": "function"
    },
    {
      "inputs": [
        {
          "internalType": "address",
          "name": "heroToken",
          "type": "address"
        },
        {
          "internalType": "uint256",
          "name": "heroTokenId",
          "type": "uint256"
        }
      ],
      "name": "skillSlotsForDurabilityReduction",
      "outputs": [
        {
          "internalType": "uint8[]",
          "name": "result",
          "type": "uint8[]"
        }
      ],
      "stateMutability": "view",
      "type": "function"
    }
  ],
  "transactionHash": "0x9d88087e6f3a4f295322c40ef82c1956ff18156f741a4ec5462fcb75fbaf82ab",
  "args": [],
  "numDeployments": 9,
  "solcInputHash": "333f21fe162cfd135427ffa9c09d7987",
  "bytecode": "0x60806040523480156200001157600080fd5b507ff0c57e16840df040f15088dc2f81fe391c3923bec73e23a9662efc9c229c6a00805468010000000000000000810460ff1615906001600160401b03166000811580156200005d5750825b90506000826001600160401b031660011480156200007a5750303b155b90508115801562000089575080155b15620000a85760405163f92ee8a960e01b815260040160405180910390fd5b84546001600160401b03191660011785558315620000d757845460ff60401b1916680100000000000000001785555b83156200011e57845460ff60401b19168555604051600181527fc7f505b2f371ae2175ee4913f4499e1f2633a7b5936321eed1cdaeb6115181d29060200160405180910390a15b505050505061580180620001336000396000f3fe608060405234801561001057600080fd5b50600436106102295760003560e01c80639a641e0211610131578063b5a44d04116100b3578063b5a44d0414610509578063b6d2fe6c1461051c578063b701c1aa1461054a578063bd410d641461056a578063be2e0ad81461057d578063d06969c71461059d578063dee1f0e4146105b0578063e76bd825146105c3578063f77c4791146105d6578063fee27cbe146105de578063ffa1ad74146105f157600080fd5b80639a641e02146104355780639d0bcca0146104485780639f3cfa7a1461045d578063a433af6f14610465578063a46374b314610478578063a4efd309146104a2578063a7540ee5146104b5578063ac257b3a146104c8578063ad8c5755146104db578063b2192fdd146104ee578063b429afeb146104f657600080fd5b80634fac6ccd116101ba5780634fac6ccd14610326578063572b6c051461033957806357bd05b01461034c5780635a67eb481461035f5780636a8a5e8c146103725780636bb4b459146103855780637442adbc146103b05780637be89369146103c35780637c00116c146103e95780637cc96380146103fc578063936725ec1461040457600080fd5b80630e30c13e1461022e578063150b7a021461025857806319ab453c1461028457806327dd892f146102995780632fcd5deb146102ac578063325a19f1146102cf57806338430cce146102e55780634593144c146102f857806348b371bf146103005780634d52532c14610313575b600080fd5b61024161023c3660046142f7565b610615565b60405160ff90911681526020015b60405180910390f35b61026b610266366004614401565b61062a565b6040516001600160e01b0319909116815260200161024f565b61029761029236600461446c565b61063b565b005b6102976102a73660046144be565b610735565b6102bf6102ba366004614523565b61075b565b604051901515815260200161024f565b6102d76107e2565b60405190815260200161024f565b6102976102f3366004614572565b61081b565b6102d761083d565b61029761030e3660046145c1565b61086d565b6102d76103213660046145c1565b610881565b61029761033436600461446c565b61088c565b6102bf61034736600461446c565b61099e565b61029761035a3660046145f0565b610a13565b61029761036d3660046142f7565b610ab6565b610297610380366004614643565b610ac8565b610398610393366004614643565b610b44565b6040516001600160401b03909116815260200161024f565b6102d76103be366004614685565b610c06565b6103d66103d136600461469e565b610c11565b60405161ffff909116815260200161024f565b6103986103f73660046146f9565b610c3f565b6102d7610c4b565b610428604051806040016040528060058152602001640312e302e360dc1b81525081565b60405161024f9190614761565b6103986104433660046142f7565b610c69565b610450610c75565b60405161024f9190614774565b610398610ca5565b6102976104733660046142f7565b610caf565b61048b6104863660046145c1565b610d34565b60405161024f9b9a99989796959493929190614835565b6102976104b03660046148e0565b610d74565b6102d76104c336600461446c565b610d8c565b6102d76104d636600461491e565b610d97565b6102bf6104e93660046142f7565b610dc0565b610241610dd4565b6102bf61050436600461446c565b610dde565b6102976105173660046149a2565b610e03565b61052f61052a3660046149e3565b610e8d565b6040805193845260208401929092529082015260600161024f565b61055d610558366004614a1e565b610f49565b60405161024f9190614ac1565b6102976105783660046142f7565b610f5a565b61059061058b3660046142f7565b610fa8565b60405161024f9190614b97565b6103986105ab366004614643565b610fb4565b6102bf6105be36600461446c565b61101b565b6102976105d1366004614ed2565b6110a0565b6104506110b6565b6102976105ec3660046145c1565b6110e6565b61042860405180604001604052806005815260200164322e312e3160d81b81525081565b60006106218383611107565b90505b92915050565b630a85bd0160e11b5b949350505050565b6000610645611144565b805490915060ff600160401b82041615906001600160401b031660008115801561066c5750825b90506000826001600160401b031660011480156106885750303b155b905081158015610696575080155b156106b45760405163f92ee8a960e01b815260040160405180910390fd5b845467ffffffffffffffff1916600117855583156106de57845460ff60401b1916600160401b1785555b6106e786611168565b831561072d57845460ff60401b19168555604051600181527fc7f505b2f371ae2175ee4913f4499e1f2633a7b5936321eed1cdaeb6115181d29060200160405180910390a15b505050505050565b610757610740611179565b6107486110b6565b610750611191565b85856111b3565b5050565b60006107d961076861124d565b6107706110b6565b6001600160a01b0316628e96916040518163ffffffff1660e01b8152600401602060405180830381865afa1580156107ac573d6000803e3d6000fd5b505050506040513d601f19601f820116820180604052508101906107d09190615091565b87878787611271565b95945050505050565b600061081661081260017f6f55f470bdc9cb5f04223fd822021061668e4dccb43e8727b295106dc9769c8b6150c4565b5490565b905090565b610757610826611179565b61082e6110b6565b610836611191565b858561152a565b600061081661081260017f812a673dfca07956350df10f8a654925f561d7a0da09bdbe79e653939a14d9f16150c4565b61087e6108786110b6565b82611768565b50565b6000610624826117c0565b3330146108de5760405162461bcd60e51b815260206004820152601b60248201527a24b731b932b0b9b2903932bb34b9b4b7b7103337b93134b23232b760291b60448201526064015b60405180910390fd5b60006108fc61081260016000805160206157ac8339815191526150c4565b6109079060016150d7565b90506109298161092660016000805160206157ac8339815191526150c4565b55565b6109588261092660017fbfaaa2fb63266ff27c2da975f5894955056f50419af651a81f6c5060581857e46150c4565b604080518281526001600160a01b03841660208201527ff27e2ef832a4eb8ed8ec553b875eecd44764cda95b1c24170e281539e0a869c891015b60405180910390a15050565b60006001600160a01b03821673d8253782c45a12053594b9deb72d8e8ab2fca54c14806109e757506001600160a01b0382167352ceba41da235af367bfc0b0ccd3314cb901bb5f145b8061062457506001600160a01b03821673102f1f556cd9c3d5f820e6920a8931657c5da21b1492915050565b7386f401Bf57df5eB366290DBdcbc2695b4319b689637c1ecb8e610a356110b6565b6040516001600160e01b031960e084901b1681526001600160a01b03918216600482015263ffffffff8816602482015290861660448201526064810185905260ff8416608482015260a40160006040518083038186803b158015610a9857600080fd5b505af4158015610aac573d6000803e3d6000fd5b5050505050505050565b610757610ac16110b6565b83836117ec565b7386f401Bf57df5eB366290DBdcbc2695b4319b689632ca22aeb610aea6110b6565b85858560016040518663ffffffff1660e01b8152600401610b0f959493929190615100565b60006040518083038186803b158015610b2757600080fd5b505af4158015610b3b573d6000803e3d6000fd5b50505050505050565b60007386f401Bf57df5eB366290DBdcbc2695b4319b68963987707f9610b68611179565b610b706110b6565b610b78611191565b6040516001600160e01b031960e086901b16815292151560048401526001600160a01b03918216602484015281166044830152808816606483015260848201879052851660a482015260c4015b602060405180830381865af4158015610be2573d6000803e3d6000fd5b505050506040513d601f19601f820116820180604052508101906106339190615155565b60006106248261188b565b600080610c1d876118ac565b9050610c34610c2a61124d565b82888888886118c4565b979650505050505050565b60006106218383611bf1565b600061081661081260016000805160206157ac8339815191526150c4565b60006106218383611c14565b600061081661081260017fbfaaa2fb63266ff27c2da975f5894955056f50419af651a81f6c5060581857e46150c4565b6000610816611c57565b7386f401Bf57df5eB366290DBdcbc2695b4319b68963dc01b901610cd16110b6565b6040516001600160e01b031960e084901b1681526001600160a01b0391821660048201529085166024820152604481018490526064015b60006040518083038186803b158015610d2057600080fd5b505af415801561072d573d6000803e3d6000fd5b600080600080600080606080606060006060610d4f8c611c73565b9a509a509a509a509a509a509a509a509a509a509a5091939597999b90929496989a50565b610d87610d7f6110b6565b848484611f1c565b505050565b60006106248261210a565b6000610db48888888860ff168860ff168860ff168860ff16612136565b98975050505050505050565b6000610621610dcd6110b6565b84846122d5565b60006108166123e8565b6000610de86110b6565b6001600160a01b0316826001600160a01b0316149050919050565b7386f401Bf57df5eB366290DBdcbc2695b4319b68963efa20d9b610e25611179565b610e2d6110b6565b610e35611191565b6040516001600160e01b031960e086901b16815292151560048401526001600160a01b039182166024840152811660448301526001600160401b03871660648301528516608482015260a4810184905260c401610b0f565b60008060007386f401Bf57df5eB366290DBdcbc2695b4319b689633e457e4f610eb46110b6565b6040516001600160e01b031960e084901b1681526001600160a01b039182166004820152908a16602482015260448101899052606481018890526084810187905260a401606060405180830381865af4158015610f15573d6000803e3d6000fd5b505050506040513d601f19601f82011682018060405250810190610f399190615172565b9250925092509450945094915050565b610f516140c3565b610624826123fe565b7386f401Bf57df5eB366290DBdcbc2695b4319b689632ca22aeb610f7c6110b6565b8484610f86611191565b60026040518663ffffffff1660e01b8152600401610d08959493929190615100565b606061062183836126b4565b60007386f401Bf57df5eB366290DBdcbc2695b4319b68963c77d56a2610fd86110b6565b6040516001600160e01b031960e084901b1681526001600160a01b0391821660048201528186166024820152908716604482015260648101869052608401610bc5565b6000816001600160a01b031661102f6110b6565b6001600160a01b0316635aa6e6756040518163ffffffff1660e01b8152600401602060405180830381865afa15801561106c573d6000803e3d6000fd5b505050506040513d601f19601f820116820180604052508101906110909190615091565b6001600160a01b03161492915050565b61072d6110ab6110b6565b8787878787876126ed565b600061081661081260017f5165972ef41194f06c5007493031d0b927c20741adcb74403b954009fd2c36186150c4565b61087e6110f1611179565b6110f96110b6565b611101611191565b84612af4565b6000611111612b1c565b60030160006111296001600160a01b03861685612b26565b815260208101919091526040016000205460ff169392505050565b7ff0c57e16840df040f15088dc2f81fe391c3923bec73e23a9662efc9c229c6a0090565b611170612b76565b61087e81612b9d565b60006111843361099e565b8061081657505032331490565b600061119c3361099e565b156111ae575060131936013560601c90565b503390565b6111bc85612cb0565b60405163139ed9b560e21b81526001600160a01b0380861660048301526001600160401b038416602483015282151560448301528416606482015273889677E6d07D22a53dac907d204ecBB08E38B52990634e7b66d49060840160006040518083038186803b15801561122e57600080fd5b505af4158015611242573d6000803e3d6000fd5b505050505050505050565b7fae5971282b317bbed599861775fe0712755bb3b2f655bfe8fb14280d8429f60090565b61ffff84166000908152600d870160205260408120600281015460ff8082169160081c81169087168211806112a85750808760ff16115b156112b95760009350505050611520565b505060008160030180548060200260200160405190810160405280929190818152602001828054801561130b57602002820191906000526020600020905b8154815260200190600101908083116112f7575b5050505050905060008260040180548060200260200160405190810160405280929190818152602001828054801561136257602002820191906000526020600020905b81548152602001906001019080831161134e575b505085519394506000925050505b8181101561151657600084828151811061138c5761138c6151a0565b602002602001015190506000801b81036113a6575061150e565b60008060006113dd8786815181106113c0576113c06151a0565b602002602001015190604082901c90608083901c60ff1660011490565b92509250925060008161145e578f6001600160a01b0316630a82c861866040518263ffffffff1660e01b815260040161141891815260200190565b602060405180830381865afa158015611435573d6000803e3d6000fd5b505050506040513d601f19601f8201168201806040525081019061145991906151b6565b6114cf565b8f6001600160a01b0316631c2aafe78e8e886040518463ffffffff1660e01b815260040161148e939291906151cf565b602060405180830381865afa1580156114ab573d6000803e3d6000fd5b505050506040513d601f19601f820116820180604052508101906114cf91906151b6565b9050836001600160401b03168110806114f05750826001600160401b031681115b156115085760009a5050505050505050505050611520565b50505050505b600101611370565b5060019450505050505b9695505050505050565b6000611534612b1c565b90506000611541866118ac565b6040805160a0810182526000808252602080830182905282840182905260608301829052608083018290526001600160401b0389168252600e870181528382208054600160401b900461ffff168352600d8801909152929020929350916115a78a612cb0565b6115b2828986612cce565b50508160020160009054906101000a900463ffffffff16836040019063ffffffff16908163ffffffff168152505073889677E6d07D22a53dac907d204ecBB08E38B5296311942d1783838a8c8b8f8a604001516040518863ffffffff1660e01b815260040161162797969594939291906151f0565b608060405180830381865af4158015611644573d6000803e3d6000fd5b505050506040513d601f19601f82011682018060405250810190611668919061524d565b1515602087015263ffffffff1660608601526080850152158015845261169a57815460ff60501b1916600160501b1782555b6080830151156116cb57608083015160028301805460ff909216600160201b0264ff00000000199092169190911790555b826040015163ffffffff16836060015163ffffffff161461170757606083015160028301805463ffffffff191663ffffffff9092169190911790555b826020015115611727578054611727908390610100900460ff1689612df6565b825115801561173e5750600282015463ffffffff16155b801561174c57508260200151155b1561175c5761175c848989612e61565b50505050505050505050565b611771826130d0565b604051632586866b60e11b81526001600160a01b03831660048201526001600160401b038216602482015273889677E6d07D22a53dac907d204ecBB08E38B52990634b0d0cd690604401610d08565b60006117ca612b1c565b6001600160401b039092166000908152600f9290920160205250604090205490565b6117f5836130d0565b600581101561181a57604051634bebee7f60e01b8152600481018290526024016108d5565b80611823612b1c565b600a016000846001600160a01b03166001600160a01b03168152602001908152602001600020819055507f996f9d801b1a05cd3c7b555e5b6f61db994ea8ef57125b5b5d3b07b9dad4e2cf828260405161187e929190615297565b60405180910390a1505050565b6000610624611898612b1c565b60008481526020919091526040902061315c565b6118b4614123565b6001600160a01b03909116815290565b60008460ff166000036118ea5760405163a8473eab60e01b815260040160405180910390fd5b6000806118f688613166565b604051631ebd249360e01b81529091506001600160a01b03821690631ebd2493906119279089908990600401615297565b602060405180830381865afa158015611944573d6000803e3d6000fd5b505050506040513d601f19601f8201168201806040525081019061196891906152b0565b915060008960050160006119ff60058b61198291906152e3565b61198d906001615305565b604051631789b7b160e01b81526001600160a01b03871690631789b7b1906119b9908e90600401614774565b602060405180830381865afa1580156119d6573d6000803e3d6000fd5b505050506040513d601f19601f820116820180604052508101906119fa91906152b0565b613186565b8152602081019190915260400160009081205461ffff169150819003611a5f57896005016000611a4760058b611a3591906152e3565b611a40906001615305565b6000613186565b815260208101919091526040016000205461ffff1690505b8061ffff16600003611a9457896005016000611a7c600080613186565b815260208101919091526040016000205461ffff1690505b61ffff811615611b1a576001600160a01b03871660a087901b67ffffffffffffffff60a01b161760f082901b6001600160f01b03191617600090815260028b01602052604090205460ff16158015611b0b575061ffff81166000908152600d8b01602052604090205460ff84811661010090920416145b15611b1a579250611520915050565b505060ff81166000908152600889016020526040812090611b3a8261315c565b905080600003611b61576040516283533360e01b815260ff841660048201526024016108d5565b6000611b6c8a61319b565b9050600080611b7b848961531e565b905060005b84811015611bd757611b9286836131ba565b9250611ba28e85858f8f8f611271565b15611bb65782975050505050505050611520565b81611bc081615332565b925050848210611bcf57600091505b600101611b80565b5060405163b940612960e01b815260040160405180910390fd5b600061062183611bff612b1c565b600085815260209190915260409020906131ba565b6000611c1e612b1c565b6004016000611c366001600160a01b03861685612b26565b81526020810191909152604001600020546001600160401b03169392505050565b6000611c61612b1c565b600c01546001600160401b0316919050565b6000806000806000806060806060600060606000611c8f612b1c565b600e0160008e6001600160401b03166001600160401b0316815260200190815260200160002090508060000160089054906101000a900461ffff169b5080600001600a9054906101000a900460ff169a5080600001600b9054906101000a90046001600160a01b03169950806001015498508060020160009054906101000a900463ffffffff1697508060020160049054906101000a900460ff16965080600601805480602002602001604051908101604052809291908181526020018280548015611d7a57602002820191906000526020600020905b815481526020019060010190808311611d66575b505050600784015460088501805460408051602080840282018101909252828152969a5060ff90931698509093509150830182828015611e0557602002820191906000526020600020906000905b82829054906101000a900463ffffffff1663ffffffff1681526020019060040190602082600301049283019260010382029150808411611dc85790505b505050505091506000611e1a826003016131c6565b9050806001600160401b03811115611e3457611e34614323565b604051908082528060200260200182016040528015611e5d578160200160208202803683370190505b509650806001600160401b03811115611e7857611e78614323565b604051908082528060200260200182016040528015611ea1578160200160208202803683370190505b50955060005b81811015611f0a57611ebc60038401826131d1565b898381518110611ece57611ece6151a0565b60200260200101898481518110611ee757611ee76151a0565b60209081029190910101919091526001600160a01b039091169052600101611ea7565b50505091939597999b90929496989a50565b611f25846130d0565b6000611f2f612b1c565b61ffff85166000908152600d820160205260408120805461ffff198116825592935061010090920460ff169190611f696001830182614146565b6002820160009055600382016000611f81919061416b565b611f8f60048301600061416b565b600582016000611f9f828261416b565b611fad600183016000614189565b50505060ff821660009081526008840160205260409020611fd3915061ffff87166131ed565b156120335760ff811660009081526008830160205260409020611ffa9061ffff8716613205565b5060405161ffff861681527f6ee9dd6501e6ec9a0a3e60e773ac5fd9d48414213bc6a16588c88bda44f492899060200160405180910390a15b6120446006830161ffff87166131ed565b1561072d5760006120558585613186565b600081815260058501602052604090205490915061ffff87811691161461208f5760405163066a129160e31b815260040160405180910390fd5b60008181526005840160205260409020805461ffff191690556120b96006840161ffff8816613205565b506040805161ffff8816815260ff878116602083015286168183015290517f9c5c01904f703f1392e848da84f3f506975241d8d8d0f67550729c5f5080c94e9181900360600190a150505050505050565b6000612114612b1c565b6001600160a01b039092166000908152600a9290920160205250604090205490565b60008684108061214557508282105b1561215257506000610c34565b600061215c61124d565b6001600160a01b038a166000908152600a9190910160205260409020549050801580159061218957508086105b15612198576000915050610c34565b60638611156121bd57604051633505ce1b60e11b8152600481018790526024016108d5565b60138511156121e257604051637d34ca9360e01b8152600481018690526024016108d5565b60006121ef60058761534b565b9050675c33b801024d7e4a6000606461222e61220c8560636150c4565b6122179060016150d7565b61222990670de0b6b3a764000061534b565b613211565b61223890846150c4565b6122429190615362565b9050670de0b6b3a7640000811061226f57604051630dd7f01960e01b8152600481018290526024016108d5565b6000670de0b6b3a7640000612284838d61534b565b61228e9190615362565b9050898410156122c5576122a2848b6150c4565b6122ad90600a6150d7565b6122b890600261545a565b6122c29082615362565b90505b9c9b505050505050505050505050565b600080846001600160a01b031663016dff5d6040518163ffffffff1660e01b8152600401602060405180830381865afa158015612316573d6000803e3d6000fd5b505050506040513d601f19601f8201168201806040525081019061233a9190615091565b6001600160a01b0316631ebd249385856040518363ffffffff1660e01b8152600401612367929190615297565b602060405180830381865afa158015612384573d6000803e3d6000fd5b505050506040513d601f19601f820116820180604052508101906123a891906152b0565b90506123b2612b1c565b60010160006123cb6001600160a01b03871686856132f2565b815260208101919091526040016000205460ff1695945050505050565b60006123f2612b1c565b6009015460ff16919050565b6124066140c3565b61240e612b1c565b61ffff83166000908152600d919091016020908152604091829020825160e081018452815460ff80821683526101009091041681840152600182018054855181860281018601875281815292959394938601938301828280156124bc57602002820191906000526020600020906000905b82829054906101000a900463ffffffff1663ffffffff168152602001906004019060208260030104928301926001038202915080841161247f5790505b50505050508152602001600282015481526020016003820180548060200260200160405190810160405280929190818152602001828054801561251e57602002820191906000526020600020905b81548152602001906001019080831161250a575b505050505081526020016004820180548060200260200160405190810160405280929190818152602001828054801561257657602002820191906000526020600020905b815481526020019060010190808311612562575b5050505050815260200160058201604051806040016040529081600082018054806020026020016040519081016040528092919081815260200182805480156125de57602002820191906000526020600020905b8154815260200190600101908083116125ca575b5050505050815260200160018201805480602002602001604051908101604052809291908181526020016000905b828210156126a45760008481526020908190208301805460408051828502810185019091528181529283018282801561269057602002820191906000526020600020906000905b82829054906101000a900463ffffffff1663ffffffff16815260200190600401906020826003010492830192600103820291508084116126535790505b50505050508152602001906001019061260c565b5050509152505090525092915050565b60606106216126c1612b1c565b600b0160006126d96001600160a01b03871686612b26565b815260200190815260200160002054613327565b6126f6876130d0565b6000612700612b1c565b602086015151865151919250908114158061272057508560400151518114155b1561273e5760405163c81acf3360e01b815260040160405180910390fd5b60005b818110156127ab57865180518290811061275d5761275d6151a0565b6020026020010151518760200151828151811061277c5761277c6151a0565b602002602001015151146127a35760405163f001029b60e01b815260040160405180910390fd5b600101612741565b5061ffff88166000908152600d830160205260409020600983015460ff90811690891611156127e65760098301805460ff191660ff8a161790555b805460ff8981166101000261ffff19909216908416171781556040870151805161281a9160018401916020909101906141a7565b5061282d87606001518860800151613186565b600282015560a0870151805161284d916003840191602090910190614256565b506004810160005b8860c00151518110156128e157816128c68a60c00151838151811061287c5761287c6151a0565b60200260200101518b60e00151848151811061289a5761289a6151a0565b60200260200101518c610100015185815181106128b9576128b96151a0565b602002602001015161339f565b81546001818101845560009384526020909320015501612855565b5060005b8381101561298257885180516005850191612917918490811061290a5761290a6151a0565b60200260200101516133da565b815460018101835560009283526020928390200155890151805160068501919083908110612947576129476151a0565b6020908102919091018101518254600181018455600093845292829020815161297994919091019291909101906141a7565b506001016128e5565b508415612a845760006129958888613186565b600081815260058701602052604090205490915061ffff16156129d1576040516366e6550f60e01b815261ffff8c1660048201526024016108d5565b60008181526005860160205260409020805461ffff191661ffff8d16908117909155612a019060068701906131ed565b15612a255760405163ce9c78df60e01b815261ffff8c1660048201526024016108d5565b612a366006860161ffff8d16613459565b506040805161ffff8d16815260ff8a8116602083015289168183015290517fc27376e37bec2cd9acd6957a46ca5cba20a88a21fd0eff1b02cf8536462304769181900360600190a150612aae565b8154610100900460ff1660009081526008850160205260409020612aac9061ffff8c16613459565b505b7fa8932b9bd78638467b3e5c0f0ffa9c72761db9f7f605b8df2f7a899770d064ae8a89604051612adf929190615520565b60405180910390a15050505050505050505050565b612afd84612cb0565b6000612b08846118ac565b9050612b15818484612e61565b5050505050565b600061081661124d565b60006001600160401b03821115612b5357604051633995b34160e01b8152600481018390526024016108d5565b5067ffffffffffffffff60a01b60a09190911b166001600160a01b039091161790565b612b7e613465565b612b9b57604051631afcd79f60e31b815260040160405180910390fd5b565b6001600160a01b038116612be55760405162461bcd60e51b815260206004820152600f60248201526e2d32b9379031b7b73a3937b63632b960891b60448201526064016108d5565b612c148161092660017f5165972ef41194f06c5007493031d0b927c20741adcb74403b954009fd2c36186150c4565b612c434261092660017f6f55f470bdc9cb5f04223fd822021061668e4dccb43e8727b295106dc9769c8b6150c4565b612c724361092660017f812a673dfca07956350df10f8a654925f561d7a0da09bdbe79e653939a14d9f16150c4565b7f1a2dd071001ebf6e03174e3df5b305795a4ad5d41d8fdb9ba41dbbe236713426814243604051612ca5939291906151cf565b60405180910390a150565b8061087e57604051636221cab960e01b815260040160405180910390fd5b82546001840154600160581b82046001600160a01b031691600160501b900460ff1615612d0e57604051636927c40b60e11b815260040160405180910390fd5b612d1a8282868661347f565b612d238361319b565b6001600160a01b031663f16a306683836040518363ffffffff1660e01b8152600401612d50929190615297565b602060405180830381865afa158015612d6d573d6000803e3d6000fd5b505050506040513d601f19601f82011682018060405250810190612d91919061561f565b612db257818160405163033aace360e41b81526004016108d5929190615297565b84546001600160401b0316612dc78383611c14565b6001600160401b031614612dee576040516337bcc65160e01b815260040160405180910390fd5b935093915050565b8254600160581b600160f81b03191683556000600184015560028301805464ffffffffff19169055612e28828261363c565b6040516001600160401b03821681527f883aa0807cbcd64d238a9795b0433f37884de37e569aff04d512cb1df62c6e019060200161187e565b6000612e6b612b1c565b6001600160401b0383166000908152600e8201602090815260408083208054600160401b900461ffff168452600d85018352818420825160a081018452858152938401859052918301849052606083018490526080830193909352929350909190612ed5876136c8565b6001600160a01b03166040820152600283015463ffffffff1615612f0c5760405163282404cd60e01b815260040160405180910390fd5b612f17838789612cce565b602083018190526001600160a01b03909116808352600285015460ff600160201b90910416606084018190526040840151612f6093869388939291612f5b8e61319b565b6136e8565b63ffffffff1660808201819052600003612f8d57604051638a874ec160e01b815260040160405180910390fd5b608081015160028401805463ffffffff191663ffffffff909216918217905560408083015183516020850151925163f2c6c6fb60e01b81526001600160a01b03918216600482015260248101939093526044830193909352600092169063f2c6c6fb906064016020604051808303816000875af1158015613012573d6000803e3d6000fd5b505050506040513d601f19601f8201168201806040525081019061303691906151b6565b90507f7a40f4421a71ae931ce048b2171197c34a78510813f1d3f4202935dd9f105b1a868360000151846020015185608001518587606001516040516130be969594939291906001600160401b039690961686526001600160a01b03949094166020860152604085019290925263ffffffff166060840152608083015260a082015260c00190565b60405180910390a15050505050505050565b604051631430d62960e21b81526001600160a01b038216906350c358a4906130fc903390600401614774565b602060405180830381865afa158015613119573d6000803e3d6000fd5b505050506040513d601f19601f8201168201806040525081019061313d919061561f565b61087e573360405163451cea1760e11b81526004016108d59190614774565b6000610624825490565b600061062482600884600001516001600160a01b031663016dff5d613ae3565b600060ff8316600883901b61ff001617610621565b600061062482600084600001516001600160a01b0316628e9691613ae3565b60006106218383613bef565b600061062482613c19565b60008080806131e08686613c24565b9097909650945050505050565b60008181526001830160205260408120541515610621565b60006106218383613c4f565b6000670de0b6b3a764000082101561323f57604051637046c4a960e01b8152600481018390526024016108d5565b600061325b613256670de0b6b3a764000085615362565b613d42565b9050600061327182670de0b6b3a764000061534b565b905083821c670de0b6b3a764000081900361328e57509392505050565b6706f05b59d3b200005b80156132e857670de0b6b3a76400006132b1838061534b565b6132bb9190615362565b9150671bc16d674ec8000082106132e0576132d681846150d7565b9250600182901c91505b60011c613298565b5090949350505050565b60609290921b6001600160601b03191660209190911b6bffffffffffffffff00000000161760189190911b63ff000000161790565b6040805160208082526104208201909252606091600091908082016104008036833701905050905060005b60208110156133985761336681600861534b565b8460001c901c82828151811061337e5761337e6151a0565b60ff90921660209283029190910190910152600101613352565b5092915050565b67ffffffffffffffff60401b604083901b166001600160401b038416176080826133ca5760006133cd565b60015b60ff16901b179392505050565b8051600090602081111561340b57604051633d71388b60e21b815260048101829052602060248201526044016108d5565b6000805b828110156134515761342281600861534b565b858281518110613434576134346151a0565b602090810291909101015160ff16901b919091179060010161340f565b509392505050565b60006106218383613e25565b600061346f611144565b54600160401b900460ff16919050565b6040516331a9108f60e11b8152600481018490526001600160a01b038084169190861690636352211e90602401602060405180830381865afa1580156134c9573d6000803e3d6000fd5b505050506040513d601f19601f820116820180604052508101906134ed9190615091565b6001600160a01b03161461351857838360405163547208b960e11b81526004016108d5929190615297565b61352181613166565b6001600160a01b0316631789b7b1856040518263ffffffff1660e01b815260040161354c9190614774565b602060405180830381865afa158015613569573d6000803e3d6000fd5b505050506040513d601f19601f8201168201806040525081019061358d91906152b0565b60ff166000036135b2578360405163adc7fced60e01b81526004016108d59190614774565b80600001516001600160a01b03166318d928316040518163ffffffff1660e01b8152600401602060405180830381865afa1580156135f4573d6000803e3d6000fd5b505050506040513d601f19601f82011682018060405250810190613618919061561f565b1561363657604051635e1633d360e11b815260040160405180910390fd5b50505050565b61366a816001600160401b0316613651612b1c565b60ff851660009081526020919091526040902090613459565b613687576040516313e5d5f160e11b815260040160405180910390fd5b6040805160ff841681526001600160401b03831660208201527f3e9a7af2aeebce9d24ef707bdb61adf2708293e374a19f8e9c31f905c68b43c19101610992565b600061062482600584600001516001600160a01b03166389dd9f13613ae3565b600786015460009060ff168610613715576040516315f7ec4560e21b8152600481018790526024016108d5565b86600801868154811061372a5761372a6151a0565b60009182526020822060088204015460079091166004026101000a900463ffffffff169150819003610c3457604051631a95890960e31b81526000906001600160a01b0384169063d4ac4848906137879088908890600401615297565b60a060405180830381865afa1580156137a4573d6000803e3d6000fd5b505050506040513d601f19601f820116820180604052508101906137c8919061563c565b602081015181518b549293506137f29263ffffffff9283169290911690610100900460ff16613e74565b158015906138435750613803612b1c565b89546001919091019060009061382d906001600160a01b038916908890610100900460ff166132f2565b815260208101919091526040016000205460ff16155b80156138705750885461385f90610100900460ff1660056156d3565b60ff16816000015163ffffffff1610155b156138e9578854610100900460ff166001036138925762138884915050610c34565b8854610100900460ff166002036138af576222f238915050610c34565b8854610100900460ff166003036138cc57623234dc915050610c34565b8854610100900460ff166004036138e95762417780915050610c34565b6040805160058b0180546060602082028401810185529383018181526000948492849184018282801561393b57602002820191906000526020600020905b815481526020019060010190808311613927575b5050505050815260200160018201805480602002602001604051908101604052809291908181526020016000905b82821015613a01576000848152602090819020830180546040805182850281018501909152818152928301828280156139ed57602002820191906000526020600020906000905b82829054906101000a900463ffffffff1663ffffffff16815260200190600401906020826003010492830192600103820291508084116139b05790505b505050505081526020019060010190613969565b50505050815250509050866001600160a01b0316636f383c0f613a4083600001518b81518110613a3357613a336151a0565b6020026020010151613eca565b83602001518b81518110613a5657613a566151a0565b60200260200101518d60000160019054906101000a900460ff168a8a6040518663ffffffff1660e01b8152600401613a929594939291906156ef565b6020604051808303816000875af1158015613ab1573d6000803e3d6000fd5b505050506040513d601f19601f82011682018060405250810190613ad5919061573e565b9a9950505050505050505050565b600080856020015185600e811115613afd57613afd6150ea565b600f8110613b0d57613b0d6151a0565b602002015190506001600160a01b03811615613b2a579050610633565b83836040518163ffffffff1660e01b8152600401602060405180830381865afa158015613b5b573d6000803e3d6000fd5b505050506040513d601f19601f82011682018060405250810190613b7f9190615091565b866020015186600e811115613b9657613b966150ea565b600f8110613ba657613ba66151a0565b6001600160a01b039092166020928302919091015286015185600e811115613bd057613bd06150ea565b600f8110613be057613be06151a0565b60200201519695505050505050565b6000826000018281548110613c0657613c066151a0565b9060005260206000200154905092915050565b60006106248261315c565b60008080613c3285856131ba565b600081815260029690960160205260409095205494959350505050565b60008181526001830160205260408120548015613d38576000613c736001836150c4565b8554909150600090613c87906001906150c4565b9050808214613cec576000866000018281548110613ca757613ca76151a0565b9060005260206000200154905080876000018481548110613cca57613cca6151a0565b6000918252602080832090910192909255918252600188019052604090208390555b8554869080613cfd57613cfd61575b565b600190038181906000526020600020016000905590558560010160008681526020019081526020016000206000905560019350505050610624565b6000915050610624565b6000600160801b8210613d6257608091821c91613d5f90826150d7565b90505b600160401b8210613d8057604091821c91613d7d90826150d7565b90505b600160201b8210613d9e57602091821c91613d9b90826150d7565b90505b620100008210613dbb57601091821c91613db890826150d7565b90505b6101008210613dd757600891821c91613dd490826150d7565b90505b60108210613df257600491821c91613def90826150d7565b90505b60048210613e0d57600291821c91613e0a90826150d7565b90505b60028210613e20576106246001826150d7565b919050565b6000818152600183016020526040812054613e6c57508154600181810184556000848152602080822090930184905584548482528286019093526040902091909155610624565b506000610624565b6000806005613e8586866001613fbe565b613e8f9190615362565b613e9a9060016150d7565b9050828111613eaa5760006107d9565b613eb483826150c4565b613ebf90600a6150d7565b6107d990600261545a565b60606000613ed783613327565b90506000805b8251811015613f2057828181518110613ef857613ef86151a0565b602002602001015160ff1660000315613f205781613f1581615332565b925050600101613edd565b50806001600160401b03811115613f3957613f39614323565b604051908082528060200260200182016040528015613f62578160200160208202803683370190505b50925060005b81811015613fb657828181518110613f8257613f826151a0565b6020026020010151848281518110613f9c57613f9c6151a0565b60ff90921660209283029190910190910152600101613f68565b505050919050565b600080613fcb8585613ff4565b9050828015613fe457506002613fe28260016150d7565b115b15610633576107d96002826150c4565b805b60638110156106245761400a8360016150d7565b61401382614027565b63ffffffff16101561062457600101613ff6565b600063ffffffff821615806140435750606363ffffffff831610155b1561405057506000919050565b670de0b6b3a764000061408a614067846063615771565b61407290600261578e565b6122299063ffffffff16670de0b6b3a764000061534b565b61409c90675cfb2e807b1e00006150c4565b6140af620186a063ffffffff861661534b565b6140b9919061534b565b6106249190615362565b6040518060e00160405280600060ff168152602001600060ff1681526020016060815260200160008019168152602001606081526020016060815260200161411e604051806040016040528060608152602001606081525090565b905290565b604051806040016040528060006001600160a01b0316815260200161411e614291565b50805460008255600701600890049060005260206000209081019061087e91906142b0565b508054600082559060005260206000209081019061087e91906142b0565b508054600082559060005260206000209081019061087e91906142c5565b828054828255906000526020600020906007016008900481019282156142465791602002820160005b8382111561421457835183826101000a81548163ffffffff021916908363ffffffff16021790555092602001926004016020816003010492830192600103026141d0565b80156142445782816101000a81549063ffffffff0219169055600401602081600301049283019260010302614214565b505b506142529291506142b0565b5090565b828054828255906000526020600020908101928215614246579160200282015b82811115614246578251825591602001919060010190614276565b604051806101e00160405280600f906020820280368337509192915050565b5b8082111561425257600081556001016142b1565b808211156142525760006142d98282614146565b506001016142c5565b6001600160a01b038116811461087e57600080fd5b6000806040838503121561430a57600080fd5b8235614315816142e2565b946020939093013593505050565b634e487b7160e01b600052604160045260246000fd5b60405161012081016001600160401b038111828210171561435c5761435c614323565b60405290565b604051601f8201601f191681016001600160401b038111828210171561438a5761438a614323565b604052919050565b600082601f8301126143a357600080fd5b81356001600160401b038111156143bc576143bc614323565b6143cf601f8201601f1916602001614362565b8181528460208386010111156143e457600080fd5b816020850160208301376000918101602001919091529392505050565b6000806000806080858703121561441757600080fd5b8435614422816142e2565b93506020850135614432816142e2565b92506040850135915060608501356001600160401b0381111561445457600080fd5b61446087828801614392565b91505092959194509250565b60006020828403121561447e57600080fd5b8135614489816142e2565b9392505050565b6001600160401b038116811461087e57600080fd5b801515811461087e57600080fd5b8035613e20816144a5565b600080604083850312156144d157600080fd5b82356144dc81614490565b915060208301356144ec816144a5565b809150509250929050565b803561ffff81168114613e2057600080fd5b60ff8116811461087e57600080fd5b8035613e2081614509565b6000806000806080858703121561453957600080fd5b614542856144f7565b9350602085013561455281614509565b92506040850135614562816142e2565b9396929550929360600135925050565b6000806040838503121561458557600080fd5b823561459081614490565b915060208301356001600160401b038111156145ab57600080fd5b6145b785828601614392565b9150509250929050565b6000602082840312156145d357600080fd5b813561448981614490565b63ffffffff8116811461087e57600080fd5b6000806000806080858703121561460657600080fd5b8435614611816145de565b93506020850135614621816142e2565b925060408501359150606085013561463881614509565b939692955090935050565b60008060006060848603121561465857600080fd5b8335614663816142e2565b925060208401359150604084013561467a816142e2565b809150509250925092565b60006020828403121561469757600080fd5b5035919050565b600080600080600060a086880312156146b657600080fd5b85356146c1816142e2565b945060208601356146d181614509565b935060408601356146e1816142e2565b94979396509394606081013594506080013592915050565b6000806040838503121561470c57600080fd5b50508035926020909101359150565b6000815180845260005b8181101561474157602081850181015186830182015201614725565b506000602082860101526020601f19601f83011685010191505092915050565b602081526000610621602083018461471b565b6001600160a01b0391909116815260200190565b60008151808452602080850194506020840160005b838110156147c25781516001600160a01b03168752958201959082019060010161479d565b509495945050505050565b60008151808452602080850194506020840160005b838110156147c2578151875295820195908201906001016147e2565b60008151808452602080850194506020840160005b838110156147c257815163ffffffff1687529582019590820190600101614813565b61ffff8c1681528a151560208201526001600160a01b038a1660408201526060810189905263ffffffff88166080820152600061016060ff891660a08401528060c084015261488681840189614788565b905082810360e084015261489a81886147cd565b90508281036101008401526148af81876147cd565b60ff861661012085015290508281036101408401526148ce81856147fe565b9e9d5050505050505050505050505050565b6000806000606084860312156148f557600080fd5b6148fe846144f7565b9250602084013561490e81614509565b9150604084013561467a81614509565b600080600080600080600060e0888a03121561493957600080fd5b8735614944816142e2565b96506020880135955060408801359450606088013561496281614509565b9350608088013561497281614509565b925060a088013561498281614509565b915060c088013561499281614509565b8091505092959891949750929550565b6000806000606084860312156149b757600080fd5b83356149c281614490565b925060208401356149d2816142e2565b929592945050506040919091013590565b600080600080608085870312156149f957600080fd5b8435614a04816142e2565b966020860135965060408601359560600135945092505050565b600060208284031215614a3057600080fd5b610621826144f7565b60008282518085526020808601955060208260051b8401016020860160005b84811015614a8657601f19868403018952614a748383516147fe565b98840198925090830190600101614a58565b5090979650505050505050565b6000815160408452614aa860408501826147cd565b9050602083015184820360208601526107d98282614a39565b6020815260ff825116602082015260006020830151614ae5604084018260ff169052565b50604083015160e06060840152614b006101008401826147fe565b9050606084015160808401526080840151601f19808584030160a0860152614b2883836147cd565b925060a08601519150808584030160c0860152614b4583836147cd565b925060c08601519150808584030160e0860152506107d98282614a93565b60008151808452602080850194506020840160005b838110156147c257815160ff1687529582019590820190600101614b78565b6020815260006106216020830184614b63565b60006001600160401b03821115614bc357614bc3614323565b5060051b60200190565b600082601f830112614bde57600080fd5b81356020614bf3614bee83614baa565b614362565b828152600592831b8501820192828201919087851115614c1257600080fd5b8387015b85811015614a865780356001600160401b03811115614c355760008081fd5b8801603f81018a13614c475760008081fd5b858101356040614c59614bee83614baa565b82815291851b8301810191888101908d841115614c765760008081fd5b938201935b83851015614ca05784359250614c9083614509565b8282529389019390890190614c7b565b885250505093850193508401614c16565b600082601f830112614cc257600080fd5b81356020614cd2614bee83614baa565b8083825260208201915060208460051b870101935086841115614cf457600080fd5b602086015b84811015614d19578035614d0c816145de565b8352918301918301614cf9565b509695505050505050565b600082601f830112614d3557600080fd5b81356020614d45614bee83614baa565b82815260059290921b84018101918181019086841115614d6457600080fd5b8286015b84811015614d195780356001600160401b03811115614d875760008081fd5b614d958986838b0101614cb1565b845250918301918301614d68565b600082601f830112614db457600080fd5b81356020614dc4614bee83614baa565b8083825260208201915060208460051b870101935086841115614de657600080fd5b602086015b84811015614d195780358352918301918301614deb565b600082601f830112614e1357600080fd5b81356020614e23614bee83614baa565b8083825260208201915060208460051b870101935086841115614e4557600080fd5b602086015b84811015614d19578035614e5d81614490565b8352918301918301614e4a565b600082601f830112614e7b57600080fd5b81356020614e8b614bee83614baa565b8083825260208201915060208460051b870101935086841115614ead57600080fd5b602086015b84811015614d19578035614ec5816144a5565b8352918301918301614eb2565b60008060008060008060c08789031215614eeb57600080fd5b614ef4876144f7565b95506020870135614f0481614509565b945060408701356001600160401b0380821115614f2057600080fd5b90880190610120828b031215614f3557600080fd5b614f3d614339565b823582811115614f4c57600080fd5b614f588c828601614bcd565b825250602083013582811115614f6d57600080fd5b614f798c828601614d24565b602083015250604083013582811115614f9157600080fd5b614f9d8c828601614cb1565b604083015250614faf60608401614518565b6060820152614fc060808401614518565b608082015260a083013582811115614fd757600080fd5b614fe38c828601614da3565b60a08301525060c083013582811115614ffb57600080fd5b6150078c828601614e02565b60c08301525060e08301358281111561501f57600080fd5b61502b8c828601614e02565b60e083015250610100808401358381111561504557600080fd5b6150518d828701614e6a565b82840152505080965050505061506960608801614518565b925061507760808801614518565b915061508560a088016144b3565b90509295509295509295565b6000602082840312156150a357600080fd5b8151614489816142e2565b634e487b7160e01b600052601160045260246000fd5b81810381811115610624576106246150ae565b80820180821115610624576106246150ae565b634e487b7160e01b600052602160045260246000fd5b6001600160a01b0386811682528581166020830152604082018590528316606082015260a081016003831061514557634e487b7160e01b600052602160045260246000fd5b8260808301529695505050505050565b60006020828403121561516757600080fd5b815161448981614490565b60008060006060848603121561518757600080fd5b8351925060208401519150604084015190509250925092565b634e487b7160e01b600052603260045260246000fd5b6000602082840312156151c857600080fd5b5051919050565b6001600160a01b039390931683526020830191909152604082015260600190565b8781528660208201526001600160401b0386166040820152600060018060a01b03808716606084015260e0608084015261522d60e084018761471b565b941660a08301525063ffffffff9190911660c09091015295945050505050565b6000806000806080858703121561526357600080fd5b845161526e816144a5565b602086015160408701519195509350615286816145de565b6060860151909250614638816144a5565b6001600160a01b03929092168252602082015260400190565b6000602082840312156152c257600080fd5b815161448981614509565b634e487b7160e01b600052601260045260246000fd5b600060ff8316806152f6576152f66152cd565b8060ff84160491505092915050565b60ff8181168382160190811115610624576106246150ae565b60008261532d5761532d6152cd565b500690565b600060018201615344576153446150ae565b5060010190565b8082028115828204841417610624576106246150ae565b600082615371576153716152cd565b500490565b600181815b808511156153b1578160001904821115615397576153976150ae565b808516156153a457918102915b93841c939080029061537b565b509250929050565b6000826153c857506001610624565b816153d557506000610624565b81600181146153eb57600281146153f557615411565b6001915050610624565b60ff841115615406576154066150ae565b50506001821b610624565b5060208310610133831016604e8410600b8410161715615434575081810a610624565b61543e8383615376565b8060001904821115615452576154526150ae565b029392505050565b600061062183836153b9565b60008282518085526020808601955060208260051b8401016020860160005b84811015614a8657601f198684030189526154a1838351614b63565b98840198925090830190600101615485565b60008151808452602080850194506020840160005b838110156147c25781516001600160401b0316875295820195908201906001016154c8565b60008151808452602080850194506020840160005b838110156147c2578151151587529582019590820190600101615502565b61ffff831681526040602082015260008251610120806040850152615549610160850183615466565b91506020850151603f19808685030160608701526155678483614a39565b9350604087015191508086850301608087015261558484836147fe565b93506060870151915061559c60a087018360ff169052565b608087015160ff1660c087015260a0870151868503820160e088015291506155c484836147cd565b935060c087015191506101008187860301818801526155e385846154b3565b945060e088015192508187860301848801526155ff85846154b3565b9450808801519350508086850301610140870152505061152082826154ed565b60006020828403121561563157600080fd5b8151614489816144a5565b600060a0828403121561564e57600080fd5b60405160a081018181106001600160401b038211171561567057615670614323565b604052825161567e816145de565b8152602083015161568e816145de565b602082015260408301516156a1816145de565b604082015260608301516156b4816145de565b606082015260808301516156c7816145de565b60808201529392505050565b60ff8181168382160290811690818114613398576133986150ae565b60a08152600061570260a0830188614b63565b828103602084015261571481886147fe565b60ff96909616604084015250506001600160a01b0392909216606083015260809091015292915050565b60006020828403121561575057600080fd5b8151614489816145de565b634e487b7160e01b600052603160045260246000fd5b63ffffffff828116828216039080821115613398576133986150ae565b63ffffffff818116838216019080821115613398576133986150ae56fe22573091f17911fb166032a3d9e0554aa73d31b7b7ddea4a4dd2995650af84bda26469706673582212206b896f2d6425df42492f844f1f7010fbe12c488d2d5b89bb4701f6600a9baf1664736f6c63430008170033",
  "deployedBytecode": "0x608060405234801561001057600080fd5b50600436106102295760003560e01c80639a641e0211610131578063b5a44d04116100b3578063b5a44d0414610509578063b6d2fe6c1461051c578063b701c1aa1461054a578063bd410d641461056a578063be2e0ad81461057d578063d06969c71461059d578063dee1f0e4146105b0578063e76bd825146105c3578063f77c4791146105d6578063fee27cbe146105de578063ffa1ad74146105f157600080fd5b80639a641e02146104355780639d0bcca0146104485780639f3cfa7a1461045d578063a433af6f14610465578063a46374b314610478578063a4efd309146104a2578063a7540ee5146104b5578063ac257b3a146104c8578063ad8c5755146104db578063b2192fdd146104ee578063b429afeb146104f657600080fd5b80634fac6ccd116101ba5780634fac6ccd14610326578063572b6c051461033957806357bd05b01461034c5780635a67eb481461035f5780636a8a5e8c146103725780636bb4b459146103855780637442adbc146103b05780637be89369146103c35780637c00116c146103e95780637cc96380146103fc578063936725ec1461040457600080fd5b80630e30c13e1461022e578063150b7a021461025857806319ab453c1461028457806327dd892f146102995780632fcd5deb146102ac578063325a19f1146102cf57806338430cce146102e55780634593144c146102f857806348b371bf146103005780634d52532c14610313575b600080fd5b61024161023c3660046142f7565b610615565b60405160ff90911681526020015b60405180910390f35b61026b610266366004614401565b61062a565b6040516001600160e01b0319909116815260200161024f565b61029761029236600461446c565b61063b565b005b6102976102a73660046144be565b610735565b6102bf6102ba366004614523565b61075b565b604051901515815260200161024f565b6102d76107e2565b60405190815260200161024f565b6102976102f3366004614572565b61081b565b6102d761083d565b61029761030e3660046145c1565b61086d565b6102d76103213660046145c1565b610881565b61029761033436600461446c565b61088c565b6102bf61034736600461446c565b61099e565b61029761035a3660046145f0565b610a13565b61029761036d3660046142f7565b610ab6565b610297610380366004614643565b610ac8565b610398610393366004614643565b610b44565b6040516001600160401b03909116815260200161024f565b6102d76103be366004614685565b610c06565b6103d66103d136600461469e565b610c11565b60405161ffff909116815260200161024f565b6103986103f73660046146f9565b610c3f565b6102d7610c4b565b610428604051806040016040528060058152602001640312e302e360dc1b81525081565b60405161024f9190614761565b6103986104433660046142f7565b610c69565b610450610c75565b60405161024f9190614774565b610398610ca5565b6102976104733660046142f7565b610caf565b61048b6104863660046145c1565b610d34565b60405161024f9b9a99989796959493929190614835565b6102976104b03660046148e0565b610d74565b6102d76104c336600461446c565b610d8c565b6102d76104d636600461491e565b610d97565b6102bf6104e93660046142f7565b610dc0565b610241610dd4565b6102bf61050436600461446c565b610dde565b6102976105173660046149a2565b610e03565b61052f61052a3660046149e3565b610e8d565b6040805193845260208401929092529082015260600161024f565b61055d610558366004614a1e565b610f49565b60405161024f9190614ac1565b6102976105783660046142f7565b610f5a565b61059061058b3660046142f7565b610fa8565b60405161024f9190614b97565b6103986105ab366004614643565b610fb4565b6102bf6105be36600461446c565b61101b565b6102976105d1366004614ed2565b6110a0565b6104506110b6565b6102976105ec3660046145c1565b6110e6565b61042860405180604001604052806005815260200164322e312e3160d81b81525081565b60006106218383611107565b90505b92915050565b630a85bd0160e11b5b949350505050565b6000610645611144565b805490915060ff600160401b82041615906001600160401b031660008115801561066c5750825b90506000826001600160401b031660011480156106885750303b155b905081158015610696575080155b156106b45760405163f92ee8a960e01b815260040160405180910390fd5b845467ffffffffffffffff1916600117855583156106de57845460ff60401b1916600160401b1785555b6106e786611168565b831561072d57845460ff60401b19168555604051600181527fc7f505b2f371ae2175ee4913f4499e1f2633a7b5936321eed1cdaeb6115181d29060200160405180910390a15b505050505050565b610757610740611179565b6107486110b6565b610750611191565b85856111b3565b5050565b60006107d961076861124d565b6107706110b6565b6001600160a01b0316628e96916040518163ffffffff1660e01b8152600401602060405180830381865afa1580156107ac573d6000803e3d6000fd5b505050506040513d601f19601f820116820180604052508101906107d09190615091565b87878787611271565b95945050505050565b600061081661081260017f6f55f470bdc9cb5f04223fd822021061668e4dccb43e8727b295106dc9769c8b6150c4565b5490565b905090565b610757610826611179565b61082e6110b6565b610836611191565b858561152a565b600061081661081260017f812a673dfca07956350df10f8a654925f561d7a0da09bdbe79e653939a14d9f16150c4565b61087e6108786110b6565b82611768565b50565b6000610624826117c0565b3330146108de5760405162461bcd60e51b815260206004820152601b60248201527a24b731b932b0b9b2903932bb34b9b4b7b7103337b93134b23232b760291b60448201526064015b60405180910390fd5b60006108fc61081260016000805160206157ac8339815191526150c4565b6109079060016150d7565b90506109298161092660016000805160206157ac8339815191526150c4565b55565b6109588261092660017fbfaaa2fb63266ff27c2da975f5894955056f50419af651a81f6c5060581857e46150c4565b604080518281526001600160a01b03841660208201527ff27e2ef832a4eb8ed8ec553b875eecd44764cda95b1c24170e281539e0a869c891015b60405180910390a15050565b60006001600160a01b03821673d8253782c45a12053594b9deb72d8e8ab2fca54c14806109e757506001600160a01b0382167352ceba41da235af367bfc0b0ccd3314cb901bb5f145b8061062457506001600160a01b03821673102f1f556cd9c3d5f820e6920a8931657c5da21b1492915050565b73__$ab645b4c934bd909f08d0d9ba5d19f570d$__637c1ecb8e610a356110b6565b6040516001600160e01b031960e084901b1681526001600160a01b03918216600482015263ffffffff8816602482015290861660448201526064810185905260ff8416608482015260a40160006040518083038186803b158015610a9857600080fd5b505af4158015610aac573d6000803e3d6000fd5b5050505050505050565b610757610ac16110b6565b83836117ec565b73__$ab645b4c934bd909f08d0d9ba5d19f570d$__632ca22aeb610aea6110b6565b85858560016040518663ffffffff1660e01b8152600401610b0f959493929190615100565b60006040518083038186803b158015610b2757600080fd5b505af4158015610b3b573d6000803e3d6000fd5b50505050505050565b600073__$ab645b4c934bd909f08d0d9ba5d19f570d$__63987707f9610b68611179565b610b706110b6565b610b78611191565b6040516001600160e01b031960e086901b16815292151560048401526001600160a01b03918216602484015281166044830152808816606483015260848201879052851660a482015260c4015b602060405180830381865af4158015610be2573d6000803e3d6000fd5b505050506040513d601f19601f820116820180604052508101906106339190615155565b60006106248261188b565b600080610c1d876118ac565b9050610c34610c2a61124d565b82888888886118c4565b979650505050505050565b60006106218383611bf1565b600061081661081260016000805160206157ac8339815191526150c4565b60006106218383611c14565b600061081661081260017fbfaaa2fb63266ff27c2da975f5894955056f50419af651a81f6c5060581857e46150c4565b6000610816611c57565b73__$ab645b4c934bd909f08d0d9ba5d19f570d$__63dc01b901610cd16110b6565b6040516001600160e01b031960e084901b1681526001600160a01b0391821660048201529085166024820152604481018490526064015b60006040518083038186803b158015610d2057600080fd5b505af415801561072d573d6000803e3d6000fd5b600080600080600080606080606060006060610d4f8c611c73565b9a509a509a509a509a509a509a509a509a509a509a5091939597999b90929496989a50565b610d87610d7f6110b6565b848484611f1c565b505050565b60006106248261210a565b6000610db48888888860ff168860ff168860ff168860ff16612136565b98975050505050505050565b6000610621610dcd6110b6565b84846122d5565b60006108166123e8565b6000610de86110b6565b6001600160a01b0316826001600160a01b0316149050919050565b73__$ab645b4c934bd909f08d0d9ba5d19f570d$__63efa20d9b610e25611179565b610e2d6110b6565b610e35611191565b6040516001600160e01b031960e086901b16815292151560048401526001600160a01b039182166024840152811660448301526001600160401b03871660648301528516608482015260a4810184905260c401610b0f565b600080600073__$ab645b4c934bd909f08d0d9ba5d19f570d$__633e457e4f610eb46110b6565b6040516001600160e01b031960e084901b1681526001600160a01b039182166004820152908a16602482015260448101899052606481018890526084810187905260a401606060405180830381865af4158015610f15573d6000803e3d6000fd5b505050506040513d601f19601f82011682018060405250810190610f399190615172565b9250925092509450945094915050565b610f516140c3565b610624826123fe565b73__$ab645b4c934bd909f08d0d9ba5d19f570d$__632ca22aeb610f7c6110b6565b8484610f86611191565b60026040518663ffffffff1660e01b8152600401610d08959493929190615100565b606061062183836126b4565b600073__$ab645b4c934bd909f08d0d9ba5d19f570d$__63c77d56a2610fd86110b6565b6040516001600160e01b031960e084901b1681526001600160a01b0391821660048201528186166024820152908716604482015260648101869052608401610bc5565b6000816001600160a01b031661102f6110b6565b6001600160a01b0316635aa6e6756040518163ffffffff1660e01b8152600401602060405180830381865afa15801561106c573d6000803e3d6000fd5b505050506040513d601f19601f820116820180604052508101906110909190615091565b6001600160a01b03161492915050565b61072d6110ab6110b6565b8787878787876126ed565b600061081661081260017f5165972ef41194f06c5007493031d0b927c20741adcb74403b954009fd2c36186150c4565b61087e6110f1611179565b6110f96110b6565b611101611191565b84612af4565b6000611111612b1c565b60030160006111296001600160a01b03861685612b26565b815260208101919091526040016000205460ff169392505050565b7ff0c57e16840df040f15088dc2f81fe391c3923bec73e23a9662efc9c229c6a0090565b611170612b76565b61087e81612b9d565b60006111843361099e565b8061081657505032331490565b600061119c3361099e565b156111ae575060131936013560601c90565b503390565b6111bc85612cb0565b60405163139ed9b560e21b81526001600160a01b0380861660048301526001600160401b038416602483015282151560448301528416606482015273__$1523437c96ee4244b41dcb81ce9bb69efd$__90634e7b66d49060840160006040518083038186803b15801561122e57600080fd5b505af4158015611242573d6000803e3d6000fd5b505050505050505050565b7fae5971282b317bbed599861775fe0712755bb3b2f655bfe8fb14280d8429f60090565b61ffff84166000908152600d870160205260408120600281015460ff8082169160081c81169087168211806112a85750808760ff16115b156112b95760009350505050611520565b505060008160030180548060200260200160405190810160405280929190818152602001828054801561130b57602002820191906000526020600020905b8154815260200190600101908083116112f7575b5050505050905060008260040180548060200260200160405190810160405280929190818152602001828054801561136257602002820191906000526020600020905b81548152602001906001019080831161134e575b505085519394506000925050505b8181101561151657600084828151811061138c5761138c6151a0565b602002602001015190506000801b81036113a6575061150e565b60008060006113dd8786815181106113c0576113c06151a0565b602002602001015190604082901c90608083901c60ff1660011490565b92509250925060008161145e578f6001600160a01b0316630a82c861866040518263ffffffff1660e01b815260040161141891815260200190565b602060405180830381865afa158015611435573d6000803e3d6000fd5b505050506040513d601f19601f8201168201806040525081019061145991906151b6565b6114cf565b8f6001600160a01b0316631c2aafe78e8e886040518463ffffffff1660e01b815260040161148e939291906151cf565b602060405180830381865afa1580156114ab573d6000803e3d6000fd5b505050506040513d601f19601f820116820180604052508101906114cf91906151b6565b9050836001600160401b03168110806114f05750826001600160401b031681115b156115085760009a5050505050505050505050611520565b50505050505b600101611370565b5060019450505050505b9695505050505050565b6000611534612b1c565b90506000611541866118ac565b6040805160a0810182526000808252602080830182905282840182905260608301829052608083018290526001600160401b0389168252600e870181528382208054600160401b900461ffff168352600d8801909152929020929350916115a78a612cb0565b6115b2828986612cce565b50508160020160009054906101000a900463ffffffff16836040019063ffffffff16908163ffffffff168152505073__$1523437c96ee4244b41dcb81ce9bb69efd$__6311942d1783838a8c8b8f8a604001516040518863ffffffff1660e01b815260040161162797969594939291906151f0565b608060405180830381865af4158015611644573d6000803e3d6000fd5b505050506040513d601f19601f82011682018060405250810190611668919061524d565b1515602087015263ffffffff1660608601526080850152158015845261169a57815460ff60501b1916600160501b1782555b6080830151156116cb57608083015160028301805460ff909216600160201b0264ff00000000199092169190911790555b826040015163ffffffff16836060015163ffffffff161461170757606083015160028301805463ffffffff191663ffffffff9092169190911790555b826020015115611727578054611727908390610100900460ff1689612df6565b825115801561173e5750600282015463ffffffff16155b801561174c57508260200151155b1561175c5761175c848989612e61565b50505050505050505050565b611771826130d0565b604051632586866b60e11b81526001600160a01b03831660048201526001600160401b038216602482015273__$1523437c96ee4244b41dcb81ce9bb69efd$__90634b0d0cd690604401610d08565b60006117ca612b1c565b6001600160401b039092166000908152600f9290920160205250604090205490565b6117f5836130d0565b600581101561181a57604051634bebee7f60e01b8152600481018290526024016108d5565b80611823612b1c565b600a016000846001600160a01b03166001600160a01b03168152602001908152602001600020819055507f996f9d801b1a05cd3c7b555e5b6f61db994ea8ef57125b5b5d3b07b9dad4e2cf828260405161187e929190615297565b60405180910390a1505050565b6000610624611898612b1c565b60008481526020919091526040902061315c565b6118b4614123565b6001600160a01b03909116815290565b60008460ff166000036118ea5760405163a8473eab60e01b815260040160405180910390fd5b6000806118f688613166565b604051631ebd249360e01b81529091506001600160a01b03821690631ebd2493906119279089908990600401615297565b602060405180830381865afa158015611944573d6000803e3d6000fd5b505050506040513d601f19601f8201168201806040525081019061196891906152b0565b915060008960050160006119ff60058b61198291906152e3565b61198d906001615305565b604051631789b7b160e01b81526001600160a01b03871690631789b7b1906119b9908e90600401614774565b602060405180830381865afa1580156119d6573d6000803e3d6000fd5b505050506040513d601f19601f820116820180604052508101906119fa91906152b0565b613186565b8152602081019190915260400160009081205461ffff169150819003611a5f57896005016000611a4760058b611a3591906152e3565b611a40906001615305565b6000613186565b815260208101919091526040016000205461ffff1690505b8061ffff16600003611a9457896005016000611a7c600080613186565b815260208101919091526040016000205461ffff1690505b61ffff811615611b1a576001600160a01b03871660a087901b67ffffffffffffffff60a01b161760f082901b6001600160f01b03191617600090815260028b01602052604090205460ff16158015611b0b575061ffff81166000908152600d8b01602052604090205460ff84811661010090920416145b15611b1a579250611520915050565b505060ff81166000908152600889016020526040812090611b3a8261315c565b905080600003611b61576040516283533360e01b815260ff841660048201526024016108d5565b6000611b6c8a61319b565b9050600080611b7b848961531e565b905060005b84811015611bd757611b9286836131ba565b9250611ba28e85858f8f8f611271565b15611bb65782975050505050505050611520565b81611bc081615332565b925050848210611bcf57600091505b600101611b80565b5060405163b940612960e01b815260040160405180910390fd5b600061062183611bff612b1c565b600085815260209190915260409020906131ba565b6000611c1e612b1c565b6004016000611c366001600160a01b03861685612b26565b81526020810191909152604001600020546001600160401b03169392505050565b6000611c61612b1c565b600c01546001600160401b0316919050565b6000806000806000806060806060600060606000611c8f612b1c565b600e0160008e6001600160401b03166001600160401b0316815260200190815260200160002090508060000160089054906101000a900461ffff169b5080600001600a9054906101000a900460ff169a5080600001600b9054906101000a90046001600160a01b03169950806001015498508060020160009054906101000a900463ffffffff1697508060020160049054906101000a900460ff16965080600601805480602002602001604051908101604052809291908181526020018280548015611d7a57602002820191906000526020600020905b815481526020019060010190808311611d66575b505050600784015460088501805460408051602080840282018101909252828152969a5060ff90931698509093509150830182828015611e0557602002820191906000526020600020906000905b82829054906101000a900463ffffffff1663ffffffff1681526020019060040190602082600301049283019260010382029150808411611dc85790505b505050505091506000611e1a826003016131c6565b9050806001600160401b03811115611e3457611e34614323565b604051908082528060200260200182016040528015611e5d578160200160208202803683370190505b509650806001600160401b03811115611e7857611e78614323565b604051908082528060200260200182016040528015611ea1578160200160208202803683370190505b50955060005b81811015611f0a57611ebc60038401826131d1565b898381518110611ece57611ece6151a0565b60200260200101898481518110611ee757611ee76151a0565b60209081029190910101919091526001600160a01b039091169052600101611ea7565b50505091939597999b90929496989a50565b611f25846130d0565b6000611f2f612b1c565b61ffff85166000908152600d820160205260408120805461ffff198116825592935061010090920460ff169190611f696001830182614146565b6002820160009055600382016000611f81919061416b565b611f8f60048301600061416b565b600582016000611f9f828261416b565b611fad600183016000614189565b50505060ff821660009081526008840160205260409020611fd3915061ffff87166131ed565b156120335760ff811660009081526008830160205260409020611ffa9061ffff8716613205565b5060405161ffff861681527f6ee9dd6501e6ec9a0a3e60e773ac5fd9d48414213bc6a16588c88bda44f492899060200160405180910390a15b6120446006830161ffff87166131ed565b1561072d5760006120558585613186565b600081815260058501602052604090205490915061ffff87811691161461208f5760405163066a129160e31b815260040160405180910390fd5b60008181526005840160205260409020805461ffff191690556120b96006840161ffff8816613205565b506040805161ffff8816815260ff878116602083015286168183015290517f9c5c01904f703f1392e848da84f3f506975241d8d8d0f67550729c5f5080c94e9181900360600190a150505050505050565b6000612114612b1c565b6001600160a01b039092166000908152600a9290920160205250604090205490565b60008684108061214557508282105b1561215257506000610c34565b600061215c61124d565b6001600160a01b038a166000908152600a9190910160205260409020549050801580159061218957508086105b15612198576000915050610c34565b60638611156121bd57604051633505ce1b60e11b8152600481018790526024016108d5565b60138511156121e257604051637d34ca9360e01b8152600481018690526024016108d5565b60006121ef60058761534b565b9050675c33b801024d7e4a6000606461222e61220c8560636150c4565b6122179060016150d7565b61222990670de0b6b3a764000061534b565b613211565b61223890846150c4565b6122429190615362565b9050670de0b6b3a7640000811061226f57604051630dd7f01960e01b8152600481018290526024016108d5565b6000670de0b6b3a7640000612284838d61534b565b61228e9190615362565b9050898410156122c5576122a2848b6150c4565b6122ad90600a6150d7565b6122b890600261545a565b6122c29082615362565b90505b9c9b505050505050505050505050565b600080846001600160a01b031663016dff5d6040518163ffffffff1660e01b8152600401602060405180830381865afa158015612316573d6000803e3d6000fd5b505050506040513d601f19601f8201168201806040525081019061233a9190615091565b6001600160a01b0316631ebd249385856040518363ffffffff1660e01b8152600401612367929190615297565b602060405180830381865afa158015612384573d6000803e3d6000fd5b505050506040513d601f19601f820116820180604052508101906123a891906152b0565b90506123b2612b1c565b60010160006123cb6001600160a01b03871686856132f2565b815260208101919091526040016000205460ff1695945050505050565b60006123f2612b1c565b6009015460ff16919050565b6124066140c3565b61240e612b1c565b61ffff83166000908152600d919091016020908152604091829020825160e081018452815460ff80821683526101009091041681840152600182018054855181860281018601875281815292959394938601938301828280156124bc57602002820191906000526020600020906000905b82829054906101000a900463ffffffff1663ffffffff168152602001906004019060208260030104928301926001038202915080841161247f5790505b50505050508152602001600282015481526020016003820180548060200260200160405190810160405280929190818152602001828054801561251e57602002820191906000526020600020905b81548152602001906001019080831161250a575b505050505081526020016004820180548060200260200160405190810160405280929190818152602001828054801561257657602002820191906000526020600020905b815481526020019060010190808311612562575b5050505050815260200160058201604051806040016040529081600082018054806020026020016040519081016040528092919081815260200182805480156125de57602002820191906000526020600020905b8154815260200190600101908083116125ca575b5050505050815260200160018201805480602002602001604051908101604052809291908181526020016000905b828210156126a45760008481526020908190208301805460408051828502810185019091528181529283018282801561269057602002820191906000526020600020906000905b82829054906101000a900463ffffffff1663ffffffff16815260200190600401906020826003010492830192600103820291508084116126535790505b50505050508152602001906001019061260c565b5050509152505090525092915050565b60606106216126c1612b1c565b600b0160006126d96001600160a01b03871686612b26565b815260200190815260200160002054613327565b6126f6876130d0565b6000612700612b1c565b602086015151865151919250908114158061272057508560400151518114155b1561273e5760405163c81acf3360e01b815260040160405180910390fd5b60005b818110156127ab57865180518290811061275d5761275d6151a0565b6020026020010151518760200151828151811061277c5761277c6151a0565b602002602001015151146127a35760405163f001029b60e01b815260040160405180910390fd5b600101612741565b5061ffff88166000908152600d830160205260409020600983015460ff90811690891611156127e65760098301805460ff191660ff8a161790555b805460ff8981166101000261ffff19909216908416171781556040870151805161281a9160018401916020909101906141a7565b5061282d87606001518860800151613186565b600282015560a0870151805161284d916003840191602090910190614256565b506004810160005b8860c00151518110156128e157816128c68a60c00151838151811061287c5761287c6151a0565b60200260200101518b60e00151848151811061289a5761289a6151a0565b60200260200101518c610100015185815181106128b9576128b96151a0565b602002602001015161339f565b81546001818101845560009384526020909320015501612855565b5060005b8381101561298257885180516005850191612917918490811061290a5761290a6151a0565b60200260200101516133da565b815460018101835560009283526020928390200155890151805160068501919083908110612947576129476151a0565b6020908102919091018101518254600181018455600093845292829020815161297994919091019291909101906141a7565b506001016128e5565b508415612a845760006129958888613186565b600081815260058701602052604090205490915061ffff16156129d1576040516366e6550f60e01b815261ffff8c1660048201526024016108d5565b60008181526005860160205260409020805461ffff191661ffff8d16908117909155612a019060068701906131ed565b15612a255760405163ce9c78df60e01b815261ffff8c1660048201526024016108d5565b612a366006860161ffff8d16613459565b506040805161ffff8d16815260ff8a8116602083015289168183015290517fc27376e37bec2cd9acd6957a46ca5cba20a88a21fd0eff1b02cf8536462304769181900360600190a150612aae565b8154610100900460ff1660009081526008850160205260409020612aac9061ffff8c16613459565b505b7fa8932b9bd78638467b3e5c0f0ffa9c72761db9f7f605b8df2f7a899770d064ae8a89604051612adf929190615520565b60405180910390a15050505050505050505050565b612afd84612cb0565b6000612b08846118ac565b9050612b15818484612e61565b5050505050565b600061081661124d565b60006001600160401b03821115612b5357604051633995b34160e01b8152600481018390526024016108d5565b5067ffffffffffffffff60a01b60a09190911b166001600160a01b039091161790565b612b7e613465565b612b9b57604051631afcd79f60e31b815260040160405180910390fd5b565b6001600160a01b038116612be55760405162461bcd60e51b815260206004820152600f60248201526e2d32b9379031b7b73a3937b63632b960891b60448201526064016108d5565b612c148161092660017f5165972ef41194f06c5007493031d0b927c20741adcb74403b954009fd2c36186150c4565b612c434261092660017f6f55f470bdc9cb5f04223fd822021061668e4dccb43e8727b295106dc9769c8b6150c4565b612c724361092660017f812a673dfca07956350df10f8a654925f561d7a0da09bdbe79e653939a14d9f16150c4565b7f1a2dd071001ebf6e03174e3df5b305795a4ad5d41d8fdb9ba41dbbe236713426814243604051612ca5939291906151cf565b60405180910390a150565b8061087e57604051636221cab960e01b815260040160405180910390fd5b82546001840154600160581b82046001600160a01b031691600160501b900460ff1615612d0e57604051636927c40b60e11b815260040160405180910390fd5b612d1a8282868661347f565b612d238361319b565b6001600160a01b031663f16a306683836040518363ffffffff1660e01b8152600401612d50929190615297565b602060405180830381865afa158015612d6d573d6000803e3d6000fd5b505050506040513d601f19601f82011682018060405250810190612d91919061561f565b612db257818160405163033aace360e41b81526004016108d5929190615297565b84546001600160401b0316612dc78383611c14565b6001600160401b031614612dee576040516337bcc65160e01b815260040160405180910390fd5b935093915050565b8254600160581b600160f81b03191683556000600184015560028301805464ffffffffff19169055612e28828261363c565b6040516001600160401b03821681527f883aa0807cbcd64d238a9795b0433f37884de37e569aff04d512cb1df62c6e019060200161187e565b6000612e6b612b1c565b6001600160401b0383166000908152600e8201602090815260408083208054600160401b900461ffff168452600d85018352818420825160a081018452858152938401859052918301849052606083018490526080830193909352929350909190612ed5876136c8565b6001600160a01b03166040820152600283015463ffffffff1615612f0c5760405163282404cd60e01b815260040160405180910390fd5b612f17838789612cce565b602083018190526001600160a01b03909116808352600285015460ff600160201b90910416606084018190526040840151612f6093869388939291612f5b8e61319b565b6136e8565b63ffffffff1660808201819052600003612f8d57604051638a874ec160e01b815260040160405180910390fd5b608081015160028401805463ffffffff191663ffffffff909216918217905560408083015183516020850151925163f2c6c6fb60e01b81526001600160a01b03918216600482015260248101939093526044830193909352600092169063f2c6c6fb906064016020604051808303816000875af1158015613012573d6000803e3d6000fd5b505050506040513d601f19601f8201168201806040525081019061303691906151b6565b90507f7a40f4421a71ae931ce048b2171197c34a78510813f1d3f4202935dd9f105b1a868360000151846020015185608001518587606001516040516130be969594939291906001600160401b039690961686526001600160a01b03949094166020860152604085019290925263ffffffff166060840152608083015260a082015260c00190565b60405180910390a15050505050505050565b604051631430d62960e21b81526001600160a01b038216906350c358a4906130fc903390600401614774565b602060405180830381865afa158015613119573d6000803e3d6000fd5b505050506040513d601f19601f8201168201806040525081019061313d919061561f565b61087e573360405163451cea1760e11b81526004016108d59190614774565b6000610624825490565b600061062482600884600001516001600160a01b031663016dff5d613ae3565b600060ff8316600883901b61ff001617610621565b600061062482600084600001516001600160a01b0316628e9691613ae3565b60006106218383613bef565b600061062482613c19565b60008080806131e08686613c24565b9097909650945050505050565b60008181526001830160205260408120541515610621565b60006106218383613c4f565b6000670de0b6b3a764000082101561323f57604051637046c4a960e01b8152600481018390526024016108d5565b600061325b613256670de0b6b3a764000085615362565b613d42565b9050600061327182670de0b6b3a764000061534b565b905083821c670de0b6b3a764000081900361328e57509392505050565b6706f05b59d3b200005b80156132e857670de0b6b3a76400006132b1838061534b565b6132bb9190615362565b9150671bc16d674ec8000082106132e0576132d681846150d7565b9250600182901c91505b60011c613298565b5090949350505050565b60609290921b6001600160601b03191660209190911b6bffffffffffffffff00000000161760189190911b63ff000000161790565b6040805160208082526104208201909252606091600091908082016104008036833701905050905060005b60208110156133985761336681600861534b565b8460001c901c82828151811061337e5761337e6151a0565b60ff90921660209283029190910190910152600101613352565b5092915050565b67ffffffffffffffff60401b604083901b166001600160401b038416176080826133ca5760006133cd565b60015b60ff16901b179392505050565b8051600090602081111561340b57604051633d71388b60e21b815260048101829052602060248201526044016108d5565b6000805b828110156134515761342281600861534b565b858281518110613434576134346151a0565b602090810291909101015160ff16901b919091179060010161340f565b509392505050565b60006106218383613e25565b600061346f611144565b54600160401b900460ff16919050565b6040516331a9108f60e11b8152600481018490526001600160a01b038084169190861690636352211e90602401602060405180830381865afa1580156134c9573d6000803e3d6000fd5b505050506040513d601f19601f820116820180604052508101906134ed9190615091565b6001600160a01b03161461351857838360405163547208b960e11b81526004016108d5929190615297565b61352181613166565b6001600160a01b0316631789b7b1856040518263ffffffff1660e01b815260040161354c9190614774565b602060405180830381865afa158015613569573d6000803e3d6000fd5b505050506040513d601f19601f8201168201806040525081019061358d91906152b0565b60ff166000036135b2578360405163adc7fced60e01b81526004016108d59190614774565b80600001516001600160a01b03166318d928316040518163ffffffff1660e01b8152600401602060405180830381865afa1580156135f4573d6000803e3d6000fd5b505050506040513d601f19601f82011682018060405250810190613618919061561f565b1561363657604051635e1633d360e11b815260040160405180910390fd5b50505050565b61366a816001600160401b0316613651612b1c565b60ff851660009081526020919091526040902090613459565b613687576040516313e5d5f160e11b815260040160405180910390fd5b6040805160ff841681526001600160401b03831660208201527f3e9a7af2aeebce9d24ef707bdb61adf2708293e374a19f8e9c31f905c68b43c19101610992565b600061062482600584600001516001600160a01b03166389dd9f13613ae3565b600786015460009060ff168610613715576040516315f7ec4560e21b8152600481018790526024016108d5565b86600801868154811061372a5761372a6151a0565b60009182526020822060088204015460079091166004026101000a900463ffffffff169150819003610c3457604051631a95890960e31b81526000906001600160a01b0384169063d4ac4848906137879088908890600401615297565b60a060405180830381865afa1580156137a4573d6000803e3d6000fd5b505050506040513d601f19601f820116820180604052508101906137c8919061563c565b602081015181518b549293506137f29263ffffffff9283169290911690610100900460ff16613e74565b158015906138435750613803612b1c565b89546001919091019060009061382d906001600160a01b038916908890610100900460ff166132f2565b815260208101919091526040016000205460ff16155b80156138705750885461385f90610100900460ff1660056156d3565b60ff16816000015163ffffffff1610155b156138e9578854610100900460ff166001036138925762138884915050610c34565b8854610100900460ff166002036138af576222f238915050610c34565b8854610100900460ff166003036138cc57623234dc915050610c34565b8854610100900460ff166004036138e95762417780915050610c34565b6040805160058b0180546060602082028401810185529383018181526000948492849184018282801561393b57602002820191906000526020600020905b815481526020019060010190808311613927575b5050505050815260200160018201805480602002602001604051908101604052809291908181526020016000905b82821015613a01576000848152602090819020830180546040805182850281018501909152818152928301828280156139ed57602002820191906000526020600020906000905b82829054906101000a900463ffffffff1663ffffffff16815260200190600401906020826003010492830192600103820291508084116139b05790505b505050505081526020019060010190613969565b50505050815250509050866001600160a01b0316636f383c0f613a4083600001518b81518110613a3357613a336151a0565b6020026020010151613eca565b83602001518b81518110613a5657613a566151a0565b60200260200101518d60000160019054906101000a900460ff168a8a6040518663ffffffff1660e01b8152600401613a929594939291906156ef565b6020604051808303816000875af1158015613ab1573d6000803e3d6000fd5b505050506040513d601f19601f82011682018060405250810190613ad5919061573e565b9a9950505050505050505050565b600080856020015185600e811115613afd57613afd6150ea565b600f8110613b0d57613b0d6151a0565b602002015190506001600160a01b03811615613b2a579050610633565b83836040518163ffffffff1660e01b8152600401602060405180830381865afa158015613b5b573d6000803e3d6000fd5b505050506040513d601f19601f82011682018060405250810190613b7f9190615091565b866020015186600e811115613b9657613b966150ea565b600f8110613ba657613ba66151a0565b6001600160a01b039092166020928302919091015286015185600e811115613bd057613bd06150ea565b600f8110613be057613be06151a0565b60200201519695505050505050565b6000826000018281548110613c0657613c066151a0565b9060005260206000200154905092915050565b60006106248261315c565b60008080613c3285856131ba565b600081815260029690960160205260409095205494959350505050565b60008181526001830160205260408120548015613d38576000613c736001836150c4565b8554909150600090613c87906001906150c4565b9050808214613cec576000866000018281548110613ca757613ca76151a0565b9060005260206000200154905080876000018481548110613cca57613cca6151a0565b6000918252602080832090910192909255918252600188019052604090208390555b8554869080613cfd57613cfd61575b565b600190038181906000526020600020016000905590558560010160008681526020019081526020016000206000905560019350505050610624565b6000915050610624565b6000600160801b8210613d6257608091821c91613d5f90826150d7565b90505b600160401b8210613d8057604091821c91613d7d90826150d7565b90505b600160201b8210613d9e57602091821c91613d9b90826150d7565b90505b620100008210613dbb57601091821c91613db890826150d7565b90505b6101008210613dd757600891821c91613dd490826150d7565b90505b60108210613df257600491821c91613def90826150d7565b90505b60048210613e0d57600291821c91613e0a90826150d7565b90505b60028210613e20576106246001826150d7565b919050565b6000818152600183016020526040812054613e6c57508154600181810184556000848152602080822090930184905584548482528286019093526040902091909155610624565b506000610624565b6000806005613e8586866001613fbe565b613e8f9190615362565b613e9a9060016150d7565b9050828111613eaa5760006107d9565b613eb483826150c4565b613ebf90600a6150d7565b6107d990600261545a565b60606000613ed783613327565b90506000805b8251811015613f2057828181518110613ef857613ef86151a0565b602002602001015160ff1660000315613f205781613f1581615332565b925050600101613edd565b50806001600160401b03811115613f3957613f39614323565b604051908082528060200260200182016040528015613f62578160200160208202803683370190505b50925060005b81811015613fb657828181518110613f8257613f826151a0565b6020026020010151848281518110613f9c57613f9c6151a0565b60ff90921660209283029190910190910152600101613f68565b505050919050565b600080613fcb8585613ff4565b9050828015613fe457506002613fe28260016150d7565b115b15610633576107d96002826150c4565b805b60638110156106245761400a8360016150d7565b61401382614027565b63ffffffff16101561062457600101613ff6565b600063ffffffff821615806140435750606363ffffffff831610155b1561405057506000919050565b670de0b6b3a764000061408a614067846063615771565b61407290600261578e565b6122299063ffffffff16670de0b6b3a764000061534b565b61409c90675cfb2e807b1e00006150c4565b6140af620186a063ffffffff861661534b565b6140b9919061534b565b6106249190615362565b6040518060e00160405280600060ff168152602001600060ff1681526020016060815260200160008019168152602001606081526020016060815260200161411e604051806040016040528060608152602001606081525090565b905290565b604051806040016040528060006001600160a01b0316815260200161411e614291565b50805460008255600701600890049060005260206000209081019061087e91906142b0565b508054600082559060005260206000209081019061087e91906142b0565b508054600082559060005260206000209081019061087e91906142c5565b828054828255906000526020600020906007016008900481019282156142465791602002820160005b8382111561421457835183826101000a81548163ffffffff021916908363ffffffff16021790555092602001926004016020816003010492830192600103026141d0565b80156142445782816101000a81549063ffffffff0219169055600401602081600301049283019260010302614214565b505b506142529291506142b0565b5090565b828054828255906000526020600020908101928215614246579160200282015b82811115614246578251825591602001919060010190614276565b604051806101e00160405280600f906020820280368337509192915050565b5b8082111561425257600081556001016142b1565b808211156142525760006142d98282614146565b506001016142c5565b6001600160a01b038116811461087e57600080fd5b6000806040838503121561430a57600080fd5b8235614315816142e2565b946020939093013593505050565b634e487b7160e01b600052604160045260246000fd5b60405161012081016001600160401b038111828210171561435c5761435c614323565b60405290565b604051601f8201601f191681016001600160401b038111828210171561438a5761438a614323565b604052919050565b600082601f8301126143a357600080fd5b81356001600160401b038111156143bc576143bc614323565b6143cf601f8201601f1916602001614362565b8181528460208386010111156143e457600080fd5b816020850160208301376000918101602001919091529392505050565b6000806000806080858703121561441757600080fd5b8435614422816142e2565b93506020850135614432816142e2565b92506040850135915060608501356001600160401b0381111561445457600080fd5b61446087828801614392565b91505092959194509250565b60006020828403121561447e57600080fd5b8135614489816142e2565b9392505050565b6001600160401b038116811461087e57600080fd5b801515811461087e57600080fd5b8035613e20816144a5565b600080604083850312156144d157600080fd5b82356144dc81614490565b915060208301356144ec816144a5565b809150509250929050565b803561ffff81168114613e2057600080fd5b60ff8116811461087e57600080fd5b8035613e2081614509565b6000806000806080858703121561453957600080fd5b614542856144f7565b9350602085013561455281614509565b92506040850135614562816142e2565b9396929550929360600135925050565b6000806040838503121561458557600080fd5b823561459081614490565b915060208301356001600160401b038111156145ab57600080fd5b6145b785828601614392565b9150509250929050565b6000602082840312156145d357600080fd5b813561448981614490565b63ffffffff8116811461087e57600080fd5b6000806000806080858703121561460657600080fd5b8435614611816145de565b93506020850135614621816142e2565b925060408501359150606085013561463881614509565b939692955090935050565b60008060006060848603121561465857600080fd5b8335614663816142e2565b925060208401359150604084013561467a816142e2565b809150509250925092565b60006020828403121561469757600080fd5b5035919050565b600080600080600060a086880312156146b657600080fd5b85356146c1816142e2565b945060208601356146d181614509565b935060408601356146e1816142e2565b94979396509394606081013594506080013592915050565b6000806040838503121561470c57600080fd5b50508035926020909101359150565b6000815180845260005b8181101561474157602081850181015186830182015201614725565b506000602082860101526020601f19601f83011685010191505092915050565b602081526000610621602083018461471b565b6001600160a01b0391909116815260200190565b60008151808452602080850194506020840160005b838110156147c25781516001600160a01b03168752958201959082019060010161479d565b509495945050505050565b60008151808452602080850194506020840160005b838110156147c2578151875295820195908201906001016147e2565b60008151808452602080850194506020840160005b838110156147c257815163ffffffff1687529582019590820190600101614813565b61ffff8c1681528a151560208201526001600160a01b038a1660408201526060810189905263ffffffff88166080820152600061016060ff891660a08401528060c084015261488681840189614788565b905082810360e084015261489a81886147cd565b90508281036101008401526148af81876147cd565b60ff861661012085015290508281036101408401526148ce81856147fe565b9e9d5050505050505050505050505050565b6000806000606084860312156148f557600080fd5b6148fe846144f7565b9250602084013561490e81614509565b9150604084013561467a81614509565b600080600080600080600060e0888a03121561493957600080fd5b8735614944816142e2565b96506020880135955060408801359450606088013561496281614509565b9350608088013561497281614509565b925060a088013561498281614509565b915060c088013561499281614509565b8091505092959891949750929550565b6000806000606084860312156149b757600080fd5b83356149c281614490565b925060208401356149d2816142e2565b929592945050506040919091013590565b600080600080608085870312156149f957600080fd5b8435614a04816142e2565b966020860135965060408601359560600135945092505050565b600060208284031215614a3057600080fd5b610621826144f7565b60008282518085526020808601955060208260051b8401016020860160005b84811015614a8657601f19868403018952614a748383516147fe565b98840198925090830190600101614a58565b5090979650505050505050565b6000815160408452614aa860408501826147cd565b9050602083015184820360208601526107d98282614a39565b6020815260ff825116602082015260006020830151614ae5604084018260ff169052565b50604083015160e06060840152614b006101008401826147fe565b9050606084015160808401526080840151601f19808584030160a0860152614b2883836147cd565b925060a08601519150808584030160c0860152614b4583836147cd565b925060c08601519150808584030160e0860152506107d98282614a93565b60008151808452602080850194506020840160005b838110156147c257815160ff1687529582019590820190600101614b78565b6020815260006106216020830184614b63565b60006001600160401b03821115614bc357614bc3614323565b5060051b60200190565b600082601f830112614bde57600080fd5b81356020614bf3614bee83614baa565b614362565b828152600592831b8501820192828201919087851115614c1257600080fd5b8387015b85811015614a865780356001600160401b03811115614c355760008081fd5b8801603f81018a13614c475760008081fd5b858101356040614c59614bee83614baa565b82815291851b8301810191888101908d841115614c765760008081fd5b938201935b83851015614ca05784359250614c9083614509565b8282529389019390890190614c7b565b885250505093850193508401614c16565b600082601f830112614cc257600080fd5b81356020614cd2614bee83614baa565b8083825260208201915060208460051b870101935086841115614cf457600080fd5b602086015b84811015614d19578035614d0c816145de565b8352918301918301614cf9565b509695505050505050565b600082601f830112614d3557600080fd5b81356020614d45614bee83614baa565b82815260059290921b84018101918181019086841115614d6457600080fd5b8286015b84811015614d195780356001600160401b03811115614d875760008081fd5b614d958986838b0101614cb1565b845250918301918301614d68565b600082601f830112614db457600080fd5b81356020614dc4614bee83614baa565b8083825260208201915060208460051b870101935086841115614de657600080fd5b602086015b84811015614d195780358352918301918301614deb565b600082601f830112614e1357600080fd5b81356020614e23614bee83614baa565b8083825260208201915060208460051b870101935086841115614e4557600080fd5b602086015b84811015614d19578035614e5d81614490565b8352918301918301614e4a565b600082601f830112614e7b57600080fd5b81356020614e8b614bee83614baa565b8083825260208201915060208460051b870101935086841115614ead57600080fd5b602086015b84811015614d19578035614ec5816144a5565b8352918301918301614eb2565b60008060008060008060c08789031215614eeb57600080fd5b614ef4876144f7565b95506020870135614f0481614509565b945060408701356001600160401b0380821115614f2057600080fd5b90880190610120828b031215614f3557600080fd5b614f3d614339565b823582811115614f4c57600080fd5b614f588c828601614bcd565b825250602083013582811115614f6d57600080fd5b614f798c828601614d24565b602083015250604083013582811115614f9157600080fd5b614f9d8c828601614cb1565b604083015250614faf60608401614518565b6060820152614fc060808401614518565b608082015260a083013582811115614fd757600080fd5b614fe38c828601614da3565b60a08301525060c083013582811115614ffb57600080fd5b6150078c828601614e02565b60c08301525060e08301358281111561501f57600080fd5b61502b8c828601614e02565b60e083015250610100808401358381111561504557600080fd5b6150518d828701614e6a565b82840152505080965050505061506960608801614518565b925061507760808801614518565b915061508560a088016144b3565b90509295509295509295565b6000602082840312156150a357600080fd5b8151614489816142e2565b634e487b7160e01b600052601160045260246000fd5b81810381811115610624576106246150ae565b80820180821115610624576106246150ae565b634e487b7160e01b600052602160045260246000fd5b6001600160a01b0386811682528581166020830152604082018590528316606082015260a081016003831061514557634e487b7160e01b600052602160045260246000fd5b8260808301529695505050505050565b60006020828403121561516757600080fd5b815161448981614490565b60008060006060848603121561518757600080fd5b8351925060208401519150604084015190509250925092565b634e487b7160e01b600052603260045260246000fd5b6000602082840312156151c857600080fd5b5051919050565b6001600160a01b039390931683526020830191909152604082015260600190565b8781528660208201526001600160401b0386166040820152600060018060a01b03808716606084015260e0608084015261522d60e084018761471b565b941660a08301525063ffffffff9190911660c09091015295945050505050565b6000806000806080858703121561526357600080fd5b845161526e816144a5565b602086015160408701519195509350615286816145de565b6060860151909250614638816144a5565b6001600160a01b03929092168252602082015260400190565b6000602082840312156152c257600080fd5b815161448981614509565b634e487b7160e01b600052601260045260246000fd5b600060ff8316806152f6576152f66152cd565b8060ff84160491505092915050565b60ff8181168382160190811115610624576106246150ae565b60008261532d5761532d6152cd565b500690565b600060018201615344576153446150ae565b5060010190565b8082028115828204841417610624576106246150ae565b600082615371576153716152cd565b500490565b600181815b808511156153b1578160001904821115615397576153976150ae565b808516156153a457918102915b93841c939080029061537b565b509250929050565b6000826153c857506001610624565b816153d557506000610624565b81600181146153eb57600281146153f557615411565b6001915050610624565b60ff841115615406576154066150ae565b50506001821b610624565b5060208310610133831016604e8410600b8410161715615434575081810a610624565b61543e8383615376565b8060001904821115615452576154526150ae565b029392505050565b600061062183836153b9565b60008282518085526020808601955060208260051b8401016020860160005b84811015614a8657601f198684030189526154a1838351614b63565b98840198925090830190600101615485565b60008151808452602080850194506020840160005b838110156147c25781516001600160401b0316875295820195908201906001016154c8565b60008151808452602080850194506020840160005b838110156147c2578151151587529582019590820190600101615502565b61ffff831681526040602082015260008251610120806040850152615549610160850183615466565b91506020850151603f19808685030160608701526155678483614a39565b9350604087015191508086850301608087015261558484836147fe565b93506060870151915061559c60a087018360ff169052565b608087015160ff1660c087015260a0870151868503820160e088015291506155c484836147cd565b935060c087015191506101008187860301818801526155e385846154b3565b945060e088015192508187860301848801526155ff85846154b3565b9450808801519350508086850301610140870152505061152082826154ed565b60006020828403121561563157600080fd5b8151614489816144a5565b600060a0828403121561564e57600080fd5b60405160a081018181106001600160401b038211171561567057615670614323565b604052825161567e816145de565b8152602083015161568e816145de565b602082015260408301516156a1816145de565b604082015260608301516156b4816145de565b606082015260808301516156c7816145de565b60808201529392505050565b60ff8181168382160290811690818114613398576133986150ae565b60a08152600061570260a0830188614b63565b828103602084015261571481886147fe565b60ff96909616604084015250506001600160a01b0392909216606083015260809091015292915050565b60006020828403121561575057600080fd5b8151614489816145de565b634e487b7160e01b600052603160045260246000fd5b63ffffffff828116828216039080821115613398576133986150ae565b63ffffffff818116838216019080821115613398576133986150ae56fe22573091f17911fb166032a3d9e0554aa73d31b7b7ddea4a4dd2995650af84bda26469706673582212206b896f2d6425df42492f844f1f7010fbe12c488d2d5b89bb4701f6600a9baf1664736f6c63430008170033",
  "libraries": {
    "DungeonLib": "0x889677E6d07D22a53dac907d204ecBB08E38B529",
    "DungeonFactoryLib": "0x86f401Bf57df5eB366290DBdcbc2695b4319b689"
  },
  "devdoc": {
    "errors": {
      "InvalidInitialization()": [
        {
          "details": "The contract is already initialized."
        }
      ],
      "NotInitializing()": [
        {
          "details": "The contract is not initializing."
        }
      ]
    },
    "events": {
      "Initialized(uint64)": {
        "details": "Triggered when the contract has been initialized or reinitialized."
      }
    },
    "kind": "dev",
    "methods": {
      "created()": {
        "returns": {
          "_0": "Creation timestamp"
        }
      },
      "createdBlock()": {
        "returns": {
          "_0": "Creation block number"
        }
      },
      "emergencyExit(uint64)": {
        "details": "Governance can drop hero from dungeon in emergency case"
      },
      "exitForcibly(address,uint256,address)": {
        "details": "Implement logic of special consumable that allows a hero to exit current dungeon using the shelter"
      },
      "increaseRevision(address)": {
        "details": "Revision should be increased on each contract upgrade"
      },
      "isBiomeBoss(address,uint256)": {
        "details": "Easily get info should given hero fight with boss in the current biome or not."
      },
      "isController(address)": {
        "details": "Return true if given address is controller"
      },
      "onERC721Received(address,address,uint256,bytes)": {
        "details": "See {IERC721Receiver-onERC721Received}. Always returns `IERC721Receiver.onERC721Received.selector`."
      },
      "previousImplementation()": {
        "details": "Previous logic implementation"
      },
      "registerDungeonLogic(uint16,uint8,(uint8[][],uint32[][],uint32[],uint8,uint8,bytes32[],uint64[],uint64[],bool[]),uint8,uint8,bool)": {
        "params": {
          "biome": "Assume biome > 0",
          "isSpecific": "The dungeon is specific, so it shouldn't be registered in dungeonsLogicByBiome",
          "specReqBiome": "required biome",
          "specReqHeroClass": "required hero class"
        }
      },
      "revision()": {
        "details": "Contract upgrade counter"
      },
      "setMinLevelForTreasury(address,uint256)": {
        "details": "Set eligible hero level for treasury tokens"
      }
    },
    "version": 1
  },
  "userdoc": {
    "kind": "user",
    "methods": {
      "CONTROLLABLE_VERSION()": {
        "notice": "Version of the contract"
      },
      "VERSION()": {
        "notice": "Version of the contract"
      },
      "controller()": {
        "notice": "Return controller address saved in the contract slot"
      },
      "created()": {
        "notice": "Return creation timestamp"
      },
      "createdBlock()": {
        "notice": "Return creation block number"
      },
      "exitForcibly(address,uint256,address)": {
        "notice": "Hero exists current dungeon forcibly same as when dying but without loosing life chance"
      },
      "exitSuicide(address,uint256)": {
        "notice": "Hero exists current dungeon forcibly. Life chance is reduced, life and mana are restored to default, items are kept untouched. It's not allowed to call this function for heroes with last life chance"
      },
      "isGovernance(address)": {
        "notice": "Return true if given address is setup as governance in Controller"
      },
      "registerDungeonLogic(uint16,uint8,(uint8[][],uint32[][],uint32[],uint8,uint8,bytes32[],uint64[],uint64[],bool[]),uint8,uint8,bool)": {
        "notice": "Register ordinal or specific dungeon"
      }
    },
    "version": 1
  },
  "storageLayout": {
    "storage": [],
    "types": null
  }
}