{
  "address": "0x7AD5935EA295c4E743e4f2f5B4CDA951f41223c2",
  "abi": [
    {
      "inputs": [],
      "stateMutability": "nonpayable",
      "type": "constructor"
    },
    {
      "inputs": [],
      "name": "ApproveToZeroAddress",
      "type": "error"
    },
    {
      "inputs": [],
      "name": "BurnAmountExceedsBalance",
      "type": "error"
    },
    {
      "inputs": [],
      "name": "ErrorPaused",
      "type": "error"
    },
    {
      "inputs": [],
      "name": "InsufficientAllowance",
      "type": "error"
    },
    {
      "inputs": [],
      "name": "MintToZeroAddress",
      "type": "error"
    },
    {
      "inputs": [
        {
          "internalType": "address",
          "name": "sender",
          "type": "address"
        }
      ],
      "name": "NotMinter",
      "type": "error"
    },
    {
      "inputs": [
        {
          "internalType": "uint256",
          "name": "balance",
          "type": "uint256"
        },
        {
          "internalType": "uint256",
          "name": "value",
          "type": "uint256"
        }
      ],
      "name": "TransferAmountExceedsBalance",
      "type": "error"
    },
    {
      "inputs": [],
      "name": "TransferToZeroAddress",
      "type": "error"
    },
    {
      "anonymous": false,
      "inputs": [
        {
          "indexed": true,
          "internalType": "address",
          "name": "owner",
          "type": "address"
        },
        {
          "indexed": true,
          "internalType": "address",
          "name": "spender",
          "type": "address"
        },
        {
          "indexed": false,
          "internalType": "uint256",
          "name": "value",
          "type": "uint256"
        }
      ],
      "name": "Approval",
      "type": "event"
    },
    {
      "anonymous": false,
      "inputs": [
        {
          "indexed": false,
          "internalType": "bool",
          "name": "value",
          "type": "bool"
        }
      ],
      "name": "ChangePauseStatus",
      "type": "event"
    },
    {
      "anonymous": false,
      "inputs": [
        {
          "indexed": false,
          "internalType": "address",
          "name": "value",
          "type": "address"
        }
      ],
      "name": "MinterChanged",
      "type": "event"
    },
    {
      "anonymous": false,
      "inputs": [
        {
          "indexed": true,
          "internalType": "address",
          "name": "from",
          "type": "address"
        },
        {
          "indexed": true,
          "internalType": "address",
          "name": "to",
          "type": "address"
        },
        {
          "indexed": false,
          "internalType": "uint256",
          "name": "value",
          "type": "uint256"
        }
      ],
      "name": "Transfer",
      "type": "event"
    },
    {
      "inputs": [
        {
          "internalType": "address",
          "name": "",
          "type": "address"
        },
        {
          "internalType": "address",
          "name": "",
          "type": "address"
        }
      ],
      "name": "allowance",
      "outputs": [
        {
          "internalType": "uint256",
          "name": "",
          "type": "uint256"
        }
      ],
      "stateMutability": "view",
      "type": "function"
    },
    {
      "inputs": [
        {
          "internalType": "address",
          "name": "spender_",
          "type": "address"
        },
        {
          "internalType": "uint256",
          "name": "value_",
          "type": "uint256"
        }
      ],
      "name": "approve",
      "outputs": [
        {
          "internalType": "bool",
          "name": "",
          "type": "bool"
        }
      ],
      "stateMutability": "nonpayable",
      "type": "function"
    },
    {
      "inputs": [
        {
          "internalType": "address",
          "name": "",
          "type": "address"
        }
      ],
      "name": "balanceOf",
      "outputs": [
        {
          "internalType": "uint256",
          "name": "",
          "type": "uint256"
        }
      ],
      "stateMutability": "view",
      "type": "function"
    },
    {
      "inputs": [
        {
          "internalType": "uint256",
          "name": "amount",
          "type": "uint256"
        }
      ],
      "name": "burn",
      "outputs": [
        {
          "internalType": "bool",
          "name": "",
          "type": "bool"
        }
      ],
      "stateMutability": "nonpayable",
      "type": "function"
    },
    {
      "inputs": [],
      "name": "decimals",
      "outputs": [
        {
          "internalType": "uint8",
          "name": "",
          "type": "uint8"
        }
      ],
      "stateMutability": "view",
      "type": "function"
    },
    {
      "inputs": [
        {
          "internalType": "address",
          "name": "forwarder",
          "type": "address"
        }
      ],
      "name": "isTrustedForwarder",
      "outputs": [
        {
          "internalType": "bool",
          "name": "",
          "type": "bool"
        }
      ],
      "stateMutability": "view",
      "type": "function"
    },
    {
      "inputs": [
        {
          "internalType": "address",
          "name": "account",
          "type": "address"
        },
        {
          "internalType": "uint256",
          "name": "amount",
          "type": "uint256"
        }
      ],
      "name": "mint",
      "outputs": [
        {
          "internalType": "bool",
          "name": "",
          "type": "bool"
        }
      ],
      "stateMutability": "nonpayable",
      "type": "function"
    },
    {
      "inputs": [],
      "name": "minter",
      "outputs": [
        {
          "internalType": "address",
          "name": "",
          "type": "address"
        }
      ],
      "stateMutability": "view",
      "type": "function"
    },
    {
      "inputs": [],
      "name": "name",
      "outputs": [
        {
          "internalType": "string",
          "name": "",
          "type": "string"
        }
      ],
      "stateMutability": "view",
      "type": "function"
    },
    {
      "inputs": [
        {
          "internalType": "bool",
          "name": "value",
          "type": "bool"
        }
      ],
      "name": "pause",
      "outputs": [],
      "stateMutability": "nonpayable",
      "type": "function"
    },
    {
      "inputs": [],
      "name": "paused",
      "outputs": [
        {
          "internalType": "bool",
          "name": "",
          "type": "bool"
        }
      ],
      "stateMutability": "view",
      "type": "function"
    },
    {
      "inputs": [
        {
          "internalType": "address",
          "name": "minter_",
          "type": "address"
        }
      ],
      "name": "setMinter",
      "outputs": [],
      "stateMutability": "nonpayable",
      "type": "function"
    },
    {
      "inputs": [],
      "name": "symbol",
      "outputs": [
        {
          "internalType": "string",
          "name": "",
          "type": "string"
        }
      ],
      "stateMutability": "view",
      "type": "function"
    },
    {
      "inputs": [],
      "name": "totalSupply",
      "outputs": [
        {
          "internalType": "uint256",
          "name": "",
          "type": "uint256"
        }
      ],
      "stateMutability": "view",
      "type": "function"
    },
    {
      "inputs": [
        {
          "internalType": "address",
          "name": "to_",
          "type": "address"
        },
        {
          "internalType": "uint256",
          "name": "value_",
          "type": "uint256"
        }
      ],
      "name": "transfer",
      "outputs": [
        {
          "internalType": "bool",
          "name": "",
          "type": "bool"
        }
      ],
      "stateMutability": "nonpayable",
      "type": "function"
    },
    {
      "inputs": [
        {
          "internalType": "address",
          "name": "from_",
          "type": "address"
        },
        {
          "internalType": "address",
          "name": "to_",
          "type": "address"
        },
        {
          "internalType": "uint256",
          "name": "value_",
          "type": "uint256"
        }
      ],
      "name": "transferFrom",
      "outputs": [
        {
          "internalType": "bool",
          "name": "",
          "type": "bool"
        }
      ],
      "stateMutability": "nonpayable",
      "type": "function"
    }
  ],
  "transactionHash": "0x8351a5f56c81ef4a34e6591b29ae0fcca27c305708aabc9ed61bb2245c0af32a",
  "args": [],
  "numDeployments": 1,
  "solcInputHash": "71a6f7ab792fce8d029150838ca650fb",
  "bytecode": "0x60806040526000805534801561001457600080fd5b5061001d610055565b600480546001600160a01b0319166001600160a01b039290921691909117905561004f610048610055565b6000610077565b506101de565b60006100603361016f565b15610072575060131936013560601c90565b503390565b60006001600160a01b03831661009f57604051622e076360e81b815260040160405180910390fd5b60015460ff16156100df5760405162461bcd60e51b815260206004820152600660248201526514185d5cd95960d21b604482015260640160405180910390fd5b6001600160a01b038316600090815260026020526040812080548492906101079084906101bd565b925050819055508160008082825461011f91906101bd565b90915550506040518281526001600160a01b038416906000907fddf252ad1be2c89b69c2b068fc378daa952ba7f163c4a11628f55a4df523b3ef9060200160405180910390a35060015b92915050565b60006001600160a01b03821673d8253782c45a12053594b9deb72d8e8ab2fca54c148061016957506001600160a01b0382167352ceba41da235af367bfc0b0ccd3314cb901bb5f1492915050565b8082018082111561016957634e487b7160e01b600052601160045260246000fd5b610a5c806101ed6000396000f3fe608060405234801561001057600080fd5b50600436106100e05760003560e01c806342966c681161008757806342966c68146101d4578063572b6c05146101e75780635c975abb146101fa57806370a082311461020757806395d89b4114610227578063a9059cbb1461024b578063dd62ed3e1461025e578063fca3b5aa1461028957600080fd5b806302329a29146100e557806306fdde03146100fa578063075461721461013a578063095ea7b31461015a57806318160ddd1461017d57806323b872dd14610194578063313ce567146101a757806340c10f19146101c1575b600080fd5b6100f86100f3366004610877565b61029c565b005b6101246040518060400160405280600b81526020016a29b0b1b930903a37b5b2b760a91b81525081565b6040516101319190610899565b60405180910390f35b60045461014d906001600160a01b031681565b60405161013191906108e8565b61016d610168366004610918565b61031a565b6040519015158152602001610131565b61018660005481565b604051908152602001610131565b61016d6101a2366004610942565b6103d4565b6101af601281565b60405160ff9091168152602001610131565b61016d6101cf366004610918565b6104ad565b61016d6101e236600461097e565b6104f1565b61016d6101f5366004610997565b61058a565b60015461016d9060ff1681565b610186610215366004610997565b60026020526000908152604090205481565b61012460405180604001604052806005815260200164534143524160d81b81525081565b61016d610259366004610918565b6105d8565b61018661026c3660046109b2565b600360209081526000928352604080842090915290825290205481565b6100f8610297366004610997565b6105f3565b6004546001600160a01b031633146102d25733604051631b0e18f960e11b81526004016102c991906108e8565b60405180910390fd5b6001805460ff19168215159081179091556040519081527f58bacb7f0dd4d609de27cc5c3f458b9a9bdcf5d148bca9f186b33ad75d2c23b4906020015b60405180910390a150565b60006001600160a01b0383166103435760405163076e33c360e31b815260040160405180910390fd5b816003600061035061066b565b6001600160a01b039081168252602080830193909352604091820160009081209188168082529190935291209190915561038861066b565b6001600160a01b03167f8c5be1e5ebec7d5bd14f71427d1e84f3dd0314c0f7b2291e5b200ac8c7c3b925846040516103c291815260200190565b60405180910390a35060015b92915050565b6000806103df61066b565b6001600160a01b0380871660009081526003602090815260408083209385168352929052205490915060001981146104985783811015610432576040516313be252b60e01b815260040160405180910390fd5b6001600160a01b03868116600081815260036020908152604080832094871680845294825291829020888603908190559151828152919392917f8c5be1e5ebec7d5bd14f71427d1e84f3dd0314c0f7b2291e5b200ac8c7c3b925910160405180910390a3505b6104a386868661068d565b9695505050505050565b6004546000906001600160a01b031633146104dd5733604051631b0e18f960e11b81526004016102c991906108e8565b6104e783836107a2565b5060019392505050565b6000806104fc61066b565b6001600160a01b0381166000908152600260205260409020549091508381101561053957604051630bba337f60e11b815260040160405180910390fd5b6001600160a01b038216600081815260026020908152604080832088860390558254889003835551878152919291600080516020610a07833981519152910160405180910390a35060019392505050565b60006001600160a01b03821673d8253782c45a12053594b9deb72d8e8ab2fca54c14806103ce57506001600160a01b0382167352ceba41da235af367bfc0b0ccd3314cb901bb5f1492915050565b60006105ec6105e561066b565b848461068d565b9392505050565b6004546001600160a01b031633146106205733604051631b0e18f960e11b81526004016102c991906108e8565b600480546001600160a01b0319166001600160a01b0383161790556040517fb6b8f1859c5c352e5ffad07d0f77e384ac725512c015bd3a3ffc885831c8a4259061030f9083906108e8565b60006106763361058a565b15610688575060131936013560601c90565b503390565b60006001600160a01b0383166106b657604051633a954ecd60e21b815260040160405180910390fd5b60015460ff16156106da57604051635e1633d360e11b815260040160405180910390fd5b6001600160a01b0384166000908152600260205260409020548281101561071e576040516350d2479d60e11b815260048101829052602481018490526044016102c9565b6001600160a01b038086166000908152600260205260408082208685039055918616815290812080548592906107559084906109e5565b92505081905550836001600160a01b0316856001600160a01b0316600080516020610a078339815191528560405161078f91815260200190565b60405180910390a3506001949350505050565b60006001600160a01b0383166107ca57604051622e076360e81b815260040160405180910390fd5b60015460ff16156108065760405162461bcd60e51b815260206004820152600660248201526514185d5cd95960d21b60448201526064016102c9565b6001600160a01b0383166000908152600260205260408120805484929061082e9084906109e5565b925050819055508160008082825461084691906109e5565b90915550506040518281526001600160a01b03841690600090600080516020610a07833981519152906020016103c2565b60006020828403121561088957600080fd5b813580151581146105ec57600080fd5b60006020808352835180602085015260005b818110156108c7578581018301518582016040015282016108ab565b506000604082860101526040601f19601f8301168501019250505092915050565b6001600160a01b0391909116815260200190565b80356001600160a01b038116811461091357600080fd5b919050565b6000806040838503121561092b57600080fd5b610934836108fc565b946020939093013593505050565b60008060006060848603121561095757600080fd5b610960846108fc565b925061096e602085016108fc565b9150604084013590509250925092565b60006020828403121561099057600080fd5b5035919050565b6000602082840312156109a957600080fd5b6105ec826108fc565b600080604083850312156109c557600080fd5b6109ce836108fc565b91506109dc602084016108fc565b90509250929050565b808201808211156103ce57634e487b7160e01b600052601160045260246000fdfeddf252ad1be2c89b69c2b068fc378daa952ba7f163c4a11628f55a4df523b3efa2646970667358221220fb54231f3f9e84932fbfd14320a93d6f8ad6c540d36c93015fc2406336f7a47764736f6c63430008170033",
  "devdoc": {
    "events": {
      "Approval(address,address,uint256)": {
        "details": "Emitted when the allowance of a `spender` for an `owner` is set by a call to {approve}. `value` is the new allowance."
      },
      "Transfer(address,address,uint256)": {
        "details": "Emitted when `value` tokens are moved from one account (`from`) to another (`to`). Note that `value` may be zero."
      }
    },
    "kind": "dev",
    "methods": {},
    "stateVariables": {
      "allowance": {
        "details": "Returns the remaining number of tokens that `spender` will be allowed to spend on behalf of `owner` through {transferFrom}. This is zero by default. This value changes when {approve} or {transferFrom} are called."
      },
      "balanceOf": {
        "details": "Returns the amount of tokens owned by `account`."
      },
      "totalSupply": {
        "details": "Returns the amount of tokens in existence."
      }
    },
    "version": 1
  },
  "userdoc": {
    "kind": "user",
    "methods": {},
    "version": 1
  },
  "storageLayout": {
    "storage": [
      {
        "astId": 120106,
        "contract": "contracts/token/GameToken.sol:GameToken",
        "label": "totalSupply",
        "offset": 0,
        "slot": "0",
        "type": "t_uint256"
      },
      {
        "astId": 120108,
        "contract": "contracts/token/GameToken.sol:GameToken",
        "label": "paused",
        "offset": 0,
        "slot": "1",
        "type": "t_bool"
      },
      {
        "astId": 120113,
        "contract": "contracts/token/GameToken.sol:GameToken",
        "label": "balanceOf",
        "offset": 0,
        "slot": "2",
        "type": "t_mapping(t_address,t_uint256)"
      },
      {
        "astId": 120120,
        "contract": "contracts/token/GameToken.sol:GameToken",
        "label": "allowance",
        "offset": 0,
        "slot": "3",
        "type": "t_mapping(t_address,t_mapping(t_address,t_uint256))"
      },
      {
        "astId": 120123,
        "contract": "contracts/token/GameToken.sol:GameToken",
        "label": "minter",
        "offset": 0,
        "slot": "4",
        "type": "t_address"
      }
    ],
    "types": {
      "t_address": {
        "encoding": "inplace",
        "label": "address",
        "numberOfBytes": "20"
      },
      "t_bool": {
        "encoding": "inplace",
        "label": "bool",
        "numberOfBytes": "1"
      },
      "t_mapping(t_address,t_mapping(t_address,t_uint256))": {
        "encoding": "mapping",
        "key": "t_address",
        "label": "mapping(address => mapping(address => uint256))",
        "numberOfBytes": "32",
        "value": "t_mapping(t_address,t_uint256)"
      },
      "t_mapping(t_address,t_uint256)": {
        "encoding": "mapping",
        "key": "t_address",
        "label": "mapping(address => uint256)",
        "numberOfBytes": "32",
        "value": "t_uint256"
      },
      "t_uint256": {
        "encoding": "inplace",
        "label": "uint256",
        "numberOfBytes": "32"
      }
    }
  }
}