{
  "address": "0x4ff0CC9a65C3EC8057d9e4e414feBBD86d79B4bB",
  "abi": [
    {
      "inputs": [],
      "name": "ERC721EnumerableForbiddenBatchMint",
      "type": "error"
    },
    {
      "inputs": [
        {
          "internalType": "address",
          "name": "sender",
          "type": "address"
        },
        {
          "internalType": "uint256",
          "name": "tokenId",
          "type": "uint256"
        },
        {
          "internalType": "address",
          "name": "owner",
          "type": "address"
        }
      ],
      "name": "ERC721IncorrectOwner",
      "type": "error"
    },
    {
      "inputs": [
        {
          "internalType": "address",
          "name": "operator",
          "type": "address"
        },
        {
          "internalType": "uint256",
          "name": "tokenId",
          "type": "uint256"
        }
      ],
      "name": "ERC721InsufficientApproval",
      "type": "error"
    },
    {
      "inputs": [
        {
          "internalType": "address",
          "name": "approver",
          "type": "address"
        }
      ],
      "name": "ERC721InvalidApprover",
      "type": "error"
    },
    {
      "inputs": [
        {
          "internalType": "address",
          "name": "operator",
          "type": "address"
        }
      ],
      "name": "ERC721InvalidOperator",
      "type": "error"
    },
    {
      "inputs": [
        {
          "internalType": "address",
          "name": "owner",
          "type": "address"
        }
      ],
      "name": "ERC721InvalidOwner",
      "type": "error"
    },
    {
      "inputs": [
        {
          "internalType": "address",
          "name": "receiver",
          "type": "address"
        }
      ],
      "name": "ERC721InvalidReceiver",
      "type": "error"
    },
    {
      "inputs": [
        {
          "internalType": "address",
          "name": "sender",
          "type": "address"
        }
      ],
      "name": "ERC721InvalidSender",
      "type": "error"
    },
    {
      "inputs": [
        {
          "internalType": "uint256",
          "name": "tokenId",
          "type": "uint256"
        }
      ],
      "name": "ERC721NonexistentToken",
      "type": "error"
    },
    {
      "inputs": [
        {
          "internalType": "address",
          "name": "owner",
          "type": "address"
        },
        {
          "internalType": "uint256",
          "name": "index",
          "type": "uint256"
        }
      ],
      "name": "ERC721OutOfBoundsIndex",
      "type": "error"
    },
    {
      "inputs": [
        {
          "internalType": "address",
          "name": "sender",
          "type": "address"
        }
      ],
      "name": "ErrorNotDeployer",
      "type": "error"
    },
    {
      "inputs": [
        {
          "internalType": "address",
          "name": "sender",
          "type": "address"
        }
      ],
      "name": "ErrorNotHeroController",
      "type": "error"
    },
    {
      "inputs": [
        {
          "internalType": "uint256",
          "name": "id",
          "type": "uint256"
        }
      ],
      "name": "IdOverflow",
      "type": "error"
    },
    {
      "inputs": [],
      "name": "InvalidInitialization",
      "type": "error"
    },
    {
      "inputs": [
        {
          "internalType": "uint256",
          "name": "tokenId",
          "type": "uint256"
        }
      ],
      "name": "NotExistToken",
      "type": "error"
    },
    {
      "inputs": [],
      "name": "NotInitializing",
      "type": "error"
    },
    {
      "inputs": [],
      "name": "TokenTransferNotAllowed",
      "type": "error"
    },
    {
      "anonymous": false,
      "inputs": [
        {
          "indexed": true,
          "internalType": "address",
          "name": "owner",
          "type": "address"
        },
        {
          "indexed": true,
          "internalType": "address",
          "name": "approved",
          "type": "address"
        },
        {
          "indexed": true,
          "internalType": "uint256",
          "name": "tokenId",
          "type": "uint256"
        }
      ],
      "name": "Approval",
      "type": "event"
    },
    {
      "anonymous": false,
      "inputs": [
        {
          "indexed": true,
          "internalType": "address",
          "name": "owner",
          "type": "address"
        },
        {
          "indexed": true,
          "internalType": "address",
          "name": "operator",
          "type": "address"
        },
        {
          "indexed": false,
          "internalType": "bool",
          "name": "approved",
          "type": "bool"
        }
      ],
      "name": "ApprovalForAll",
      "type": "event"
    },
    {
      "anonymous": false,
      "inputs": [
        {
          "indexed": false,
          "internalType": "string",
          "name": "uri",
          "type": "string"
        }
      ],
      "name": "BaseUriChanged",
      "type": "event"
    },
    {
      "anonymous": false,
      "inputs": [
        {
          "indexed": false,
          "internalType": "address",
          "name": "controller",
          "type": "address"
        },
        {
          "indexed": false,
          "internalType": "uint256",
          "name": "ts",
          "type": "uint256"
        },
        {
          "indexed": false,
          "internalType": "uint256",
          "name": "block",
          "type": "uint256"
        }
      ],
      "name": "ContractInitialized",
      "type": "event"
    },
    {
      "anonymous": false,
      "inputs": [
        {
          "indexed": false,
          "internalType": "uint256",
          "name": "heroId",
          "type": "uint256"
        }
      ],
      "name": "HeroBurned",
      "type": "event"
    },
    {
      "anonymous": false,
      "inputs": [
        {
          "indexed": false,
          "internalType": "uint256",
          "name": "heroId",
          "type": "uint256"
        }
      ],
      "name": "HeroMinted",
      "type": "event"
    },
    {
      "anonymous": false,
      "inputs": [
        {
          "indexed": false,
          "internalType": "string",
          "name": "uri",
          "type": "string"
        },
        {
          "indexed": false,
          "internalType": "uint256",
          "name": "statusLvl",
          "type": "uint256"
        }
      ],
      "name": "HeroUriByStatusChanged",
      "type": "event"
    },
    {
      "anonymous": false,
      "inputs": [
        {
          "indexed": false,
          "internalType": "uint64",
          "name": "version",
          "type": "uint64"
        }
      ],
      "name": "Initialized",
      "type": "event"
    },
    {
      "anonymous": false,
      "inputs": [
        {
          "indexed": false,
          "internalType": "uint256",
          "name": "value",
          "type": "uint256"
        },
        {
          "indexed": false,
          "internalType": "address",
          "name": "oldLogic",
          "type": "address"
        }
      ],
      "name": "RevisionIncreased",
      "type": "event"
    },
    {
      "anonymous": false,
      "inputs": [
        {
          "indexed": true,
          "internalType": "address",
          "name": "from",
          "type": "address"
        },
        {
          "indexed": true,
          "internalType": "address",
          "name": "to",
          "type": "address"
        },
        {
          "indexed": true,
          "internalType": "uint256",
          "name": "tokenId",
          "type": "uint256"
        }
      ],
      "name": "Transfer",
      "type": "event"
    },
    {
      "anonymous": false,
      "inputs": [
        {
          "indexed": false,
          "internalType": "uint256",
          "name": "id",
          "type": "uint256"
        },
        {
          "indexed": false,
          "internalType": "string",
          "name": "uri",
          "type": "string"
        }
      ],
      "name": "UniqueUriChanged",
      "type": "event"
    },
    {
      "inputs": [],
      "name": "CONTROLLABLE_VERSION",
      "outputs": [
        {
          "internalType": "string",
          "name": "",
          "type": "string"
        }
      ],
      "stateMutability": "view",
      "type": "function"
    },
    {
      "inputs": [],
      "name": "KILL_PENALTY",
      "outputs": [
        {
          "internalType": "uint256",
          "name": "",
          "type": "uint256"
        }
      ],
      "stateMutability": "view",
      "type": "function"
    },
    {
      "inputs": [],
      "name": "VERSION",
      "outputs": [
        {
          "internalType": "string",
          "name": "",
          "type": "string"
        }
      ],
      "stateMutability": "view",
      "type": "function"
    },
    {
      "inputs": [
        {
          "internalType": "address",
          "name": "to",
          "type": "address"
        },
        {
          "internalType": "uint256",
          "name": "tokenId",
          "type": "uint256"
        }
      ],
      "name": "approve",
      "outputs": [],
      "stateMutability": "nonpayable",
      "type": "function"
    },
    {
      "inputs": [
        {
          "internalType": "address",
          "name": "owner",
          "type": "address"
        }
      ],
      "name": "balanceOf",
      "outputs": [
        {
          "internalType": "uint256",
          "name": "",
          "type": "uint256"
        }
      ],
      "stateMutability": "view",
      "type": "function"
    },
    {
      "inputs": [],
      "name": "baseURI",
      "outputs": [
        {
          "internalType": "string",
          "name": "",
          "type": "string"
        }
      ],
      "stateMutability": "view",
      "type": "function"
    },
    {
      "inputs": [
        {
          "internalType": "uint256",
          "name": "heroId",
          "type": "uint256"
        }
      ],
      "name": "burn",
      "outputs": [],
      "stateMutability": "nonpayable",
      "type": "function"
    },
    {
      "inputs": [],
      "name": "controller",
      "outputs": [
        {
          "internalType": "address",
          "name": "",
          "type": "address"
        }
      ],
      "stateMutability": "view",
      "type": "function"
    },
    {
      "inputs": [],
      "name": "created",
      "outputs": [
        {
          "internalType": "uint256",
          "name": "",
          "type": "uint256"
        }
      ],
      "stateMutability": "view",
      "type": "function"
    },
    {
      "inputs": [],
      "name": "createdBlock",
      "outputs": [
        {
          "internalType": "uint256",
          "name": "",
          "type": "uint256"
        }
      ],
      "stateMutability": "view",
      "type": "function"
    },
    {
      "inputs": [
        {
          "internalType": "uint256",
          "name": "tokenId",
          "type": "uint256"
        }
      ],
      "name": "exists",
      "outputs": [
        {
          "internalType": "bool",
          "name": "",
          "type": "bool"
        }
      ],
      "stateMutability": "view",
      "type": "function"
    },
    {
      "inputs": [
        {
          "internalType": "uint256",
          "name": "tokenId",
          "type": "uint256"
        }
      ],
      "name": "getApproved",
      "outputs": [
        {
          "internalType": "address",
          "name": "",
          "type": "address"
        }
      ],
      "stateMutability": "view",
      "type": "function"
    },
    {
      "inputs": [
        {
          "internalType": "address",
          "name": "oldLogic",
          "type": "address"
        }
      ],
      "name": "increaseRevision",
      "outputs": [],
      "stateMutability": "nonpayable",
      "type": "function"
    },
    {
      "inputs": [
        {
          "internalType": "string",
          "name": "name_",
          "type": "string"
        },
        {
          "internalType": "string",
          "name": "symbol_",
          "type": "string"
        },
        {
          "internalType": "address",
          "name": "controller_",
          "type": "address"
        },
        {
          "internalType": "string",
          "name": "uri",
          "type": "string"
        }
      ],
      "name": "init",
      "outputs": [],
      "stateMutability": "nonpayable",
      "type": "function"
    },
    {
      "inputs": [
        {
          "internalType": "address",
          "name": "owner",
          "type": "address"
        },
        {
          "internalType": "address",
          "name": "operator",
          "type": "address"
        }
      ],
      "name": "isApprovedForAll",
      "outputs": [
        {
          "internalType": "bool",
          "name": "",
          "type": "bool"
        }
      ],
      "stateMutability": "view",
      "type": "function"
    },
    {
      "inputs": [
        {
          "internalType": "address",
          "name": "value_",
          "type": "address"
        }
      ],
      "name": "isController",
      "outputs": [
        {
          "internalType": "bool",
          "name": "",
          "type": "bool"
        }
      ],
      "stateMutability": "view",
      "type": "function"
    },
    {
      "inputs": [
        {
          "internalType": "address",
          "name": "value_",
          "type": "address"
        }
      ],
      "name": "isGovernance",
      "outputs": [
        {
          "internalType": "bool",
          "name": "",
          "type": "bool"
        }
      ],
      "stateMutability": "view",
      "type": "function"
    },
    {
      "inputs": [],
      "name": "isHero",
      "outputs": [
        {
          "internalType": "bool",
          "name": "",
          "type": "bool"
        }
      ],
      "stateMutability": "pure",
      "type": "function"
    },
    {
      "inputs": [
        {
          "internalType": "address",
          "name": "forwarder",
          "type": "address"
        }
      ],
      "name": "isTrustedForwarder",
      "outputs": [
        {
          "internalType": "bool",
          "name": "",
          "type": "bool"
        }
      ],
      "stateMutability": "view",
      "type": "function"
    },
    {
      "inputs": [
        {
          "internalType": "address",
          "name": "recipient",
          "type": "address"
        }
      ],
      "name": "mintFor",
      "outputs": [
        {
          "internalType": "uint256",
          "name": "heroId",
          "type": "uint256"
        }
      ],
      "stateMutability": "nonpayable",
      "type": "function"
    },
    {
      "inputs": [],
      "name": "name",
      "outputs": [
        {
          "internalType": "string",
          "name": "",
          "type": "string"
        }
      ],
      "stateMutability": "view",
      "type": "function"
    },
    {
      "inputs": [
        {
          "internalType": "address",
          "name": "",
          "type": "address"
        },
        {
          "internalType": "address",
          "name": "",
          "type": "address"
        },
        {
          "internalType": "uint256",
          "name": "",
          "type": "uint256"
        },
        {
          "internalType": "bytes",
          "name": "",
          "type": "bytes"
        }
      ],
      "name": "onERC721Received",
      "outputs": [
        {
          "internalType": "bytes4",
          "name": "",
          "type": "bytes4"
        }
      ],
      "stateMutability": "nonpayable",
      "type": "function"
    },
    {
      "inputs": [
        {
          "internalType": "uint256",
          "name": "tokenId",
          "type": "uint256"
        }
      ],
      "name": "ownerOf",
      "outputs": [
        {
          "internalType": "address",
          "name": "",
          "type": "address"
        }
      ],
      "stateMutability": "view",
      "type": "function"
    },
    {
      "inputs": [],
      "name": "previousImplementation",
      "outputs": [
        {
          "internalType": "address",
          "name": "",
          "type": "address"
        }
      ],
      "stateMutability": "view",
      "type": "function"
    },
    {
      "inputs": [],
      "name": "revision",
      "outputs": [
        {
          "internalType": "uint256",
          "name": "",
          "type": "uint256"
        }
      ],
      "stateMutability": "view",
      "type": "function"
    },
    {
      "inputs": [
        {
          "internalType": "address",
          "name": "from",
          "type": "address"
        },
        {
          "internalType": "address",
          "name": "to",
          "type": "address"
        },
        {
          "internalType": "uint256",
          "name": "tokenId",
          "type": "uint256"
        }
      ],
      "name": "safeTransferFrom",
      "outputs": [],
      "stateMutability": "nonpayable",
      "type": "function"
    },
    {
      "inputs": [
        {
          "internalType": "address",
          "name": "from",
          "type": "address"
        },
        {
          "internalType": "address",
          "name": "to",
          "type": "address"
        },
        {
          "internalType": "uint256",
          "name": "tokenId",
          "type": "uint256"
        },
        {
          "internalType": "bytes",
          "name": "data",
          "type": "bytes"
        }
      ],
      "name": "safeTransferFrom",
      "outputs": [],
      "stateMutability": "nonpayable",
      "type": "function"
    },
    {
      "inputs": [
        {
          "internalType": "address",
          "name": "operator",
          "type": "address"
        },
        {
          "internalType": "bool",
          "name": "approved",
          "type": "bool"
        }
      ],
      "name": "setApprovalForAll",
      "outputs": [],
      "stateMutability": "nonpayable",
      "type": "function"
    },
    {
      "inputs": [
        {
          "internalType": "string",
          "name": "value",
          "type": "string"
        }
      ],
      "name": "setBaseUri",
      "outputs": [],
      "stateMutability": "nonpayable",
      "type": "function"
    },
    {
      "inputs": [
        {
          "internalType": "string",
          "name": "uri",
          "type": "string"
        },
        {
          "internalType": "uint256",
          "name": "statusLvl",
          "type": "uint256"
        }
      ],
      "name": "setHeroUriByStatus",
      "outputs": [],
      "stateMutability": "nonpayable",
      "type": "function"
    },
    {
      "inputs": [
        {
          "internalType": "uint256",
          "name": "tokenId",
          "type": "uint256"
        },
        {
          "internalType": "string",
          "name": "uri",
          "type": "string"
        }
      ],
      "name": "setUniqueUri",
      "outputs": [],
      "stateMutability": "nonpayable",
      "type": "function"
    },
    {
      "inputs": [
        {
          "internalType": "bytes4",
          "name": "interfaceId",
          "type": "bytes4"
        }
      ],
      "name": "supportsInterface",
      "outputs": [
        {
          "internalType": "bool",
          "name": "",
          "type": "bool"
        }
      ],
      "stateMutability": "view",
      "type": "function"
    },
    {
      "inputs": [],
      "name": "symbol",
      "outputs": [
        {
          "internalType": "string",
          "name": "",
          "type": "string"
        }
      ],
      "stateMutability": "view",
      "type": "function"
    },
    {
      "inputs": [
        {
          "internalType": "uint256",
          "name": "index",
          "type": "uint256"
        }
      ],
      "name": "tokenByIndex",
      "outputs": [
        {
          "internalType": "uint256",
          "name": "",
          "type": "uint256"
        }
      ],
      "stateMutability": "view",
      "type": "function"
    },
    {
      "inputs": [
        {
          "internalType": "address",
          "name": "owner",
          "type": "address"
        },
        {
          "internalType": "uint256",
          "name": "index",
          "type": "uint256"
        }
      ],
      "name": "tokenOfOwnerByIndex",
      "outputs": [
        {
          "internalType": "uint256",
          "name": "",
          "type": "uint256"
        }
      ],
      "stateMutability": "view",
      "type": "function"
    },
    {
      "inputs": [
        {
          "internalType": "uint256",
          "name": "tokenId",
          "type": "uint256"
        }
      ],
      "name": "tokenURI",
      "outputs": [
        {
          "internalType": "string",
          "name": "",
          "type": "string"
        }
      ],
      "stateMutability": "view",
      "type": "function"
    },
    {
      "inputs": [],
      "name": "totalSupply",
      "outputs": [
        {
          "internalType": "uint256",
          "name": "",
          "type": "uint256"
        }
      ],
      "stateMutability": "view",
      "type": "function"
    },
    {
      "inputs": [
        {
          "internalType": "address",
          "name": "from",
          "type": "address"
        },
        {
          "internalType": "address",
          "name": "to",
          "type": "address"
        },
        {
          "internalType": "uint256",
          "name": "tokenId",
          "type": "uint256"
        }
      ],
      "name": "transferFrom",
      "outputs": [],
      "stateMutability": "nonpayable",
      "type": "function"
    }
  ],
  "transactionHash": "0x7154815c2f7a39a861942e27be2466b75aa36569142eb3de2633161e3967560d",
  "args": [],
  "numDeployments": 8,
  "solcInputHash": "469f89b788f48678cfe1a8f9b5f43301",
  "bytecode": "0x60806040523480156200001157600080fd5b507ff0c57e16840df040f15088dc2f81fe391c3923bec73e23a9662efc9c229c6a00805468010000000000000000810460ff1615906001600160401b03166000811580156200005d5750825b90506000826001600160401b031660011480156200007a5750303b155b90508115801562000089575080155b15620000a85760405163f92ee8a960e01b815260040160405180910390fd5b84546001600160401b03191660011785558315620000d757845460ff60401b1916680100000000000000001785555b83156200011e57845460ff60401b19168555604051600181527fc7f505b2f371ae2175ee4913f4499e1f2633a7b5936321eed1cdaeb6115181d29060200160405180910390a15b505050505061286080620001336000396000f3fe608060405234801561001057600080fd5b50600436106101f25760003560e01c806370a0823111610110578063a60138a7116100a8578063a60138a71461041b578063b429afeb1461042e578063b88d4fde14610441578063c87b56dd14610454578063d910437514610467578063d9f20a7f1461047a578063dee1f0e414610482578063e985e9c514610495578063f77c4791146104a8578063ffa1ad74146104b057600080fd5b806370a082311461038c57806371e578dc1461039f57806379e7d945146103b25780637cc96380146103b9578063936725ec146103c157806395d89b41146103e55780639d0bcca0146103ed578063a0bcfc7f146103f5578063a22cb4651461040857600080fd5b806342842e0e1161018e57806342842e0e146102e457806342966c68146102f75780634593144c1461030a5780634f558e79146103125780634f6ccce7146103255780634fac6ccd146103385780635002254c1461034b578063572b6c051461035e5780636352211e146103715780636c0360eb1461038457600080fd5b806301ffc9a7146101f757806306fdde031461021f578063081812fc14610234578063095ea7b314610254578063150b7a021461026957806318160ddd146102a057806323b872dd146102b65780632f745c59146102c9578063325a19f1146102dc575b600080fd5b61020a610205366004612073565b6104d4565b60405190151581526020015b60405180910390f35b6102276104ff565b60405161021691906120dd565b6102476102423660046120f0565b6105a0565b6040516102169190612109565b610267610262366004612132565b6105b5565b005b6102876102773660046121e9565b630a85bd0160e11b949350505050565b6040516001600160e01b03199091168152602001610216565b6102a86105cb565b604051908152602001610216565b6102676102c4366004612268565b6105e0565b6102a86102d7366004612132565b61067b565b6102a86106dd565b6102676102f2366004612268565b610716565b6102676103053660046120f0565b610736565b6102a8610809565b61020a6103203660046120f0565b610839565b6102a86103333660046120f0565b610856565b6102676103463660046122a9565b6108b7565b6102676103593660046122e6565b6109c4565b61020a61036c3660046122a9565b610ac4565b61024761037f3660046120f0565b610b12565b610227610b1d565b6102a861039a3660046122a9565b610b27565b6102a86103ad3660046122a9565b610b7f565b600161020a565b6102a8610c60565b610227604051806040016040528060058152602001640312e302e360dc1b81525081565b610227610c7e565b610247610c9b565b610267610403366004612376565b610ccb565b6102676104163660046123b8565b610d1a565b6102676104293660046123f1565b610d2c565b61020a61043c3660046122a9565b610d8c565b61026761044f3660046121e9565b610db1565b6102276104623660046120f0565b610dc8565b610267610475366004612437565b610ed9565b6102a8604681565b61020a6104903660046122a9565b610f36565b61020a6104a336600461247b565b610fbb565b610247610ffa565b61022760405180604001604052806005815260200164322e302e3160d81b81525081565b60006001600160e01b0319821663780e9d6360e01b14806104f957506104f98261102a565b92915050565b6060600061050b61107a565b905080600001805461051c906124a9565b80601f0160208091040260200160405190810160405280929190818152602001828054610548906124a9565b80156105955780601f1061056a57610100808354040283529160200191610595565b820191906000526020600020905b81548152906001019060200180831161057857829003601f168201915b505050505091505090565b60006105ab8261109e565b506104f9826110d6565b6105c782826105c26110ff565b611121565b5050565b6000806105d661112e565b6002015492915050565b6001600160a01b038216610613576000604051633250574960e11b815260040161060a9190612109565b60405180910390fd5b600061062783836106226110ff565b611152565b9050836001600160a01b0316816001600160a01b031614610675576040516364283d7b60e01b81526001600160a01b038086166004830152602482018490528216604482015260640161060a565b50505050565b60008061068661112e565b905061069184610b27565b83106106b457838360405163295f44f760e21b815260040161060a9291906124e3565b6001600160a01b0384166000908152602091825260408082208583529092522054905092915050565b600061071161070d60017f6f55f470bdc9cb5f04223fd822021061668e4dccb43e8727b295106dc9769c8b612512565b5490565b905090565b61073183838360405180602001604052806000815250610db1565b505050565b3361073f610ffa565b6001600160a01b031663016dff5d6040518163ffffffff1660e01b8152600401602060405180830381865afa15801561077c573d6000803e3d6000fd5b505050506040513d601f19601f820116820180604052508101906107a09190612525565b6001600160a01b0316146107c957336040516303f2374960e01b815260040161060a9190612109565b6107d281611168565b6040518181527f76126f33d318abe88f8b82c5136b7e5a52091ab897679a40f612d7590adfc997906020015b60405180910390a150565b600061071161070d60017f812a673dfca07956350df10f8a654925f561d7a0da09bdbe79e653939a14d9f1612512565b600080610845836111a3565b6001600160a01b0316141592915050565b60008061086161112e565b905061086b6105cb565b831061088f5760008360405163295f44f760e21b815260040161060a9291906124e3565b8060020183815481106108a4576108a4612542565b9060005260206000200154915050919050565b3330146109045760405162461bcd60e51b815260206004820152601b60248201527a24b731b932b0b9b2903932bb34b9b4b7b7103337b93134b23232b760291b604482015260640161060a565b600061092261070d600160008051602061280b833981519152612512565b61092d906001612558565b905061094f8161094c600160008051602061280b833981519152612512565b55565b61097e8261094c60017fbfaaa2fb63266ff27c2da975f5894955056f50419af651a81f6c5060581857e4612512565b604080518281526001600160a01b03841660208201527ff27e2ef832a4eb8ed8ec553b875eecd44764cda95b1c24170e281539e0a869c891015b60405180910390a15050565b60006109ce6111cc565b805490915060ff600160401b82041615906001600160401b03166000811580156109f55750825b90506000826001600160401b03166001148015610a115750303b155b905081158015610a1f575080155b15610a3d5760405163f92ee8a960e01b815260040160405180910390fd5b845467ffffffffffffffff191660011785558315610a6757845460ff60401b1916600160401b1785555b610a73898989896111f0565b8315610ab957845460ff60401b19168555604051600181527fc7f505b2f371ae2175ee4913f4499e1f2633a7b5936321eed1cdaeb6115181d29060200160405180910390a15b505050505050505050565b60006001600160a01b03821673d8253782c45a12053594b9deb72d8e8ab2fca54c14806104f957506001600160a01b0382167352ceba41da235af367bfc0b0ccd3314cb901bb5f1492915050565b60006104f98261109e565b6060610711611204565b600080610b3261107a565b90506001600160a01b038316610b5e5760006040516322718ad960e21b815260040161060a9190612109565b6001600160a01b039092166000908152600390920160205250604090205490565b600033610b8a610ffa565b6001600160a01b031663016dff5d6040518163ffffffff1660e01b8152600401602060405180830381865afa158015610bc7573d6000803e3d6000fd5b505050506040513d601f19601f82011682018060405250810190610beb9190612525565b6001600160a01b031614610c1457336040516303f2374960e01b815260040161060a9190612109565b610c1c61129f565b9050610c2882826112fa565b6040518181527f137a90ac9032bb52a13f83c0ac1598bbf4eb39c8cacd438d83089f198173dbc09060200160405180910390a1919050565b600061071161070d600160008051602061280b833981519152612512565b60606000610c8a61107a565b905080600101805461051c906124a9565b600061071161070d60017fbfaaa2fb63266ff27c2da975f5894955056f50419af651a81f6c5060581857e4612512565b610cd3611314565b80610cdc6113a9565b60010190610cea90826125bb565b507f87cdeaffd8e70903d6ce7cc983fac3b09ca79e83818124c98e47a1d70f8027d6816040516107fe91906120dd565b6105c7610d256110ff565b83836113cd565b610d34611314565b80610d3d6113a9565b60008481526002919091016020526040902090610d5a90826125bb565b507ff32b5bcd021361ac825fde09ff2121b0e5783f9f993196194fab9471799e54dd82826040516109b892919061267a565b6000610d96610ffa565b6001600160a01b0316826001600160a01b0316149050919050565b610dbc8484846105e0565b61067584848484611472565b6060610dd26113a9565b54821115610df657604051636438665560e11b81526004810183905260240161060a565b6000610e006113a9565b6000848152600291909101602052604090208054610e1d906124a9565b80601f0160208091040260200160405190810160405280929190818152602001828054610e49906124a9565b8015610e965780601f10610e6b57610100808354040283529160200191610e96565b820191906000526020600020905b815481529060010190602001808311610e7957829003601f168201915b505050505090508051600014610eac5792915050565b6000610eb784611590565b90508051600014610ec9579392505050565b610ed1611204565b949350505050565b610ee1611314565b81610eea61174f565b60008381526020919091526040902090610f0490826125bb565b507fc937f64a4fbd422a84dca96e2027e7213484be732acbb0811271e547bc62e4b582826040516109b8929190612693565b6000816001600160a01b0316610f4a610ffa565b6001600160a01b0316635aa6e6756040518163ffffffff1660e01b8152600401602060405180830381865afa158015610f87573d6000803e3d6000fd5b505050506040513d601f19601f82011682018060405250810190610fab9190612525565b6001600160a01b03161492915050565b600080610fc661107a565b6001600160a01b03948516600090815260059190910160209081526040808320959096168252939093525050205460ff1690565b600061071161070d60017f5165972ef41194f06c5007493031d0b927c20741adcb74403b954009fd2c3618612512565b60006001600160e01b031982166380ac58cd60e01b148061105b57506001600160e01b03198216635b5e139f60e01b145b806104f957506301ffc9a760e01b6001600160e01b03198316146104f9565b7f80bb2b638cc20bc4d0a60d66940f3ab4a00c1d7b313497ca82fb0b4ab007930090565b6000806110aa836111a3565b90506001600160a01b0381166104f957604051637e27328960e01b81526004810184905260240161060a565b6000806110e161107a565b6000938452600401602052505060409020546001600160a01b031690565b600061110a33610ac4565b1561111c575060131936013560601c90565b503390565b6107318383836001611773565b7f645e039705490088daad89bae25049a34f4a9072d398537b1ab2425f24cbed0090565b600061115d8361187d565b610ed1848484611976565b60006111776000836000611152565b90506001600160a01b0381166105c757604051637e27328960e01b81526004810183905260240161060a565b6000806111ae61107a565b6000938452600201602052505060409020546001600160a01b031690565b7ff0c57e16840df040f15088dc2f81fe391c3923bec73e23a9662efc9c229c6a0090565b6111f8611a04565b61067584848484611a29565b606061120e6113a9565b600101805461121c906124a9565b80601f0160208091040260200160405190810160405280929190818152602001828054611248906124a9565b80156112955780601f1061126a57610100808354040283529160200191611295565b820191906000526020600020905b81548152906001019060200180831161127857829003601f168201915b5050505050905090565b6000806112aa6113a9565b5490506001600160401b036112c0826001612558565b106112e1576040516308278bff60e41b81526004810182905260240161060a565b6112ec816001612558565b6112f46113a9565b55919050565b6105c7828260405180602001604052806000815250611a9c565b61131c610ffa565b6001600160a01b03166350c358a4336040518263ffffffff1660e01b81526004016113479190612109565b602060405180830381865afa158015611364573d6000803e3d6000fd5b505050506040513d601f19601f8201168201806040525081019061138891906126b5565b6113a7573360405163451cea1760e11b815260040161060a9190612109565b565b7fda2932ada77a3c8131d8c171a8679090714572b6a41aff2e2186c297ac0f550090565b60006113d761107a565b90506001600160a01b0383166114025782604051630b61174360e31b815260040161060a9190612109565b6001600160a01b038481166000818152600584016020908152604080832094881680845294825291829020805460ff191687151590811790915591519182527f17307eab39ab6107e8899845ad3d59bd9653f200f220920489ca2b5937696c31910160405180910390a350505050565b6001600160a01b0383163b1561067557826001600160a01b031663150b7a026114996110ff565b8685856040518563ffffffff1660e01b81526004016114bb94939291906126d2565b6020604051808303816000875af19250505080156114f6575060408051601f3d908101601f191682019092526114f39181019061270f565b60015b611556573d808015611524576040519150601f19603f3d011682016040523d82523d6000602084013e611529565b606091505b50805160000361154e5783604051633250574960e11b815260040161060a9190612109565b805181602001fd5b6001600160e01b03198116630a85bd0160e11b146115895783604051633250574960e11b815260040161060a9190612109565b5050505050565b6060600061159c610ffa565b6001600160a01b0316628e96916040518163ffffffff1660e01b8152600401602060405180830381865afa1580156115d8573d6000803e3d6000fd5b505050506040513d601f19601f820116820180604052508101906115fc9190612525565b6001600160a01b031663d4ac484830856040518363ffffffff1660e01b81526004016116299291906124e3565b60a060405180830381865afa158015611646573d6000803e3d6000fd5b505050506040513d601f19601f8201168201806040525081019061166a9190612745565b5163ffffffff16905061167e600a826127d2565b60000361169b575050604080516020810190915260008152919050565b6116a361174f565b60006116b0600a846127d2565b815260200190815260200160002080546116c9906124a9565b80601f01602080910402602001604051908101604052809291908181526020018280546116f5906124a9565b80156117425780601f1061171757610100808354040283529160200191611742565b820191906000526020600020905b81548152906001019060200180831161172557829003601f168201915b5050505050915050919050565b7fc546abf9ed7c8d4a6ded82a0edfd8f66c8300256eba0932933c3d559a091ea0090565b600061177d61107a565b9050818061179357506001600160a01b03831615155b1561184c5760006117a38561109e565b90506001600160a01b038416158015906117cf5750836001600160a01b0316816001600160a01b031614155b80156117e257506117e08185610fbb565b155b15611802578360405163a9fbf51f60e01b815260040161060a9190612109565b821561184a5784866001600160a01b0316826001600160a01b03167f8c5be1e5ebec7d5bd14f71427d1e84f3dd0314c0f7b2291e5b200ac8c7c3b92560405160405180910390a45b505b600093845260040160205250506040902080546001600160a01b0319166001600160a01b0392909216919091179055565b611885610ffa565b6001600160a01b031663016dff5d6040518163ffffffff1660e01b8152600401602060405180830381865afa1580156118c2573d6000803e3d6000fd5b505050506040513d601f19601f820116820180604052508101906118e69190612525565b6001600160a01b031663649dab3930836040518363ffffffff1660e01b81526004016119139291906124e3565b6020604051808303816000875af1158015611932573d6000803e3d6000fd5b505050506040513d601f19601f8201168201806040525081019061195691906126b5565b6119735760405163ca7cbc7760e01b815260040160405180910390fd5b50565b600080611984858585611ab3565b90506001600160a01b0381166119a25761199d84611bba565b6119c5565b846001600160a01b0316816001600160a01b0316146119c5576119c58185611bf3565b6001600160a01b0385166119e1576119dc84611c94565b610ed1565b846001600160a01b0316816001600160a01b031614610ed157610ed18585611d5d565b611a0c611db5565b6113a757604051631afcd79f60e31b815260040160405180910390fd5b611a338484611dcf565b611a3c82611de1565b6001611a466113a9565b5580611a506113a9565b60010190611a5e90826125bb565b507f87cdeaffd8e70903d6ce7cc983fac3b09ca79e83818124c98e47a1d70f8027d681604051611a8e91906120dd565b60405180910390a150505050565b611aa68383611df2565b6107316000848484611472565b600080611abe61107a565b90506000611acb856111a3565b90506001600160a01b03841615611ae757611ae7818587611e57565b6001600160a01b03811615611b2757611b04600086600080611773565b6001600160a01b0381166000908152600383016020526040902080546000190190555b6001600160a01b03861615611b58576001600160a01b03861660009081526003830160205260409020805460010190555b600085815260028301602052604080822080546001600160a01b0319166001600160a01b038a811691821790925591518893918516917fddf252ad1be2c89b69c2b068fc378daa952ba7f163c4a11628f55a4df523b3ef91a495945050505050565b6000611bc461112e565b600281018054600085815260039093016020908152604084208290556001820183559183529120019190915550565b6000611bfd61112e565b90506000611c0a84610b27565b6000848152600184016020526040902054909150808214611c5f576001600160a01b03851660009081526020848152604080832085845282528083205484845281842081905583526001860190915290208190555b50600092835260018201602090815260408085208590556001600160a01b039095168452918252838320908352905290812055565b6000611c9e61112e565b6002810154909150600090611cb590600190612512565b6000848152600384016020526040812054600285018054939450909284908110611ce157611ce1612542565b9060005260206000200154905080846002018381548110611d0457611d04612542565b600091825260208083209091019290925582815260038601909152604080822084905586825281205560028401805480611d4057611d406127f4565b600190038181906000526020600020016000905590555050505050565b6000611d6761112e565b905060006001611d7685610b27565b611d809190612512565b6001600160a01b0390941660009081526020838152604080832087845282528083208690559482526001909301909252502055565b6000611dbf6111cc565b54600160401b900460ff16919050565b611dd7611a04565b6105c78282611ead565b611de9611a04565b61197381611edb565b6001600160a01b038216611e1c576000604051633250574960e11b815260040161060a9190612109565b6000611e2a83836000611152565b90506001600160a01b038116156107315760006040516339e3563760e11b815260040161060a9190612109565b611e62838383611ff8565b610731576001600160a01b038316611e9057604051637e27328960e01b81526004810182905260240161060a565b818160405163177e802f60e01b815260040161060a9291906124e3565b611eb5611a04565b6000611ebf61107a565b905080611ecc84826125bb565b506001810161067583826125bb565b6001600160a01b038116611f235760405162461bcd60e51b815260206004820152600f60248201526e2d32b9379031b7b73a3937b63632b960891b604482015260640161060a565b611f528161094c60017f5165972ef41194f06c5007493031d0b927c20741adcb74403b954009fd2c3618612512565b611f814261094c60017f6f55f470bdc9cb5f04223fd822021061668e4dccb43e8727b295106dc9769c8b612512565b611fb04361094c60017f812a673dfca07956350df10f8a654925f561d7a0da09bdbe79e653939a14d9f1612512565b604080516001600160a01b038316815242602082015243918101919091527f1a2dd071001ebf6e03174e3df5b305795a4ad5d41d8fdb9ba41dbbe236713426906060016107fe565b60006001600160a01b03831615801590610ed15750826001600160a01b0316846001600160a01b0316148061203257506120328484610fbb565b80610ed15750826001600160a01b031661204b836110d6565b6001600160a01b031614949350505050565b6001600160e01b03198116811461197357600080fd5b60006020828403121561208557600080fd5b81356120908161205d565b9392505050565b6000815180845260005b818110156120bd576020818501810151868301820152016120a1565b506000602082860101526020601f19601f83011685010191505092915050565b6020815260006120906020830184612097565b60006020828403121561210257600080fd5b5035919050565b6001600160a01b0391909116815260200190565b6001600160a01b038116811461197357600080fd5b6000806040838503121561214557600080fd5b82356121508161211d565b946020939093013593505050565b634e487b7160e01b600052604160045260246000fd5b60006001600160401b038084111561218e5761218e61215e565b604051601f8501601f19908116603f011681019082821181831017156121b6576121b661215e565b816040528093508581528686860111156121cf57600080fd5b858560208301376000602087830101525050509392505050565b600080600080608085870312156121ff57600080fd5b843561220a8161211d565b9350602085013561221a8161211d565b92506040850135915060608501356001600160401b0381111561223c57600080fd5b8501601f8101871361224d57600080fd5b61225c87823560208401612174565b91505092959194509250565b60008060006060848603121561227d57600080fd5b83356122888161211d565b925060208401356122988161211d565b929592945050506040919091013590565b6000602082840312156122bb57600080fd5b81356120908161211d565b600082601f8301126122d757600080fd5b61209083833560208501612174565b600080600080608085870312156122fc57600080fd5b84356001600160401b038082111561231357600080fd5b61231f888389016122c6565b9550602087013591508082111561233557600080fd5b612341888389016122c6565b9450604087013591506123538261211d565b9092506060860135908082111561236957600080fd5b5061225c878288016122c6565b60006020828403121561238857600080fd5b81356001600160401b0381111561239e57600080fd5b610ed1848285016122c6565b801515811461197357600080fd5b600080604083850312156123cb57600080fd5b82356123d68161211d565b915060208301356123e6816123aa565b809150509250929050565b6000806040838503121561240457600080fd5b8235915060208301356001600160401b0381111561242157600080fd5b61242d858286016122c6565b9150509250929050565b6000806040838503121561244a57600080fd5b82356001600160401b0381111561246057600080fd5b61246c858286016122c6565b95602094909401359450505050565b6000806040838503121561248e57600080fd5b82356124998161211d565b915060208301356123e68161211d565b600181811c908216806124bd57607f821691505b6020821081036124dd57634e487b7160e01b600052602260045260246000fd5b50919050565b6001600160a01b03929092168252602082015260400190565b634e487b7160e01b600052601160045260246000fd5b818103818111156104f9576104f96124fc565b60006020828403121561253757600080fd5b81516120908161211d565b634e487b7160e01b600052603260045260246000fd5b808201808211156104f9576104f96124fc565b601f821115610731576000816000526020600020601f850160051c810160208610156125945750805b601f850160051c820191505b818110156125b3578281556001016125a0565b505050505050565b81516001600160401b038111156125d4576125d461215e565b6125e8816125e284546124a9565b8461256b565b602080601f83116001811461261d57600084156126055750858301515b600019600386901b1c1916600185901b1785556125b3565b600085815260208120601f198616915b8281101561264c5788860151825594840194600190910190840161262d565b508582101561266a5787850151600019600388901b60f8161c191681555b5050505050600190811b01905550565b828152604060208201526000610ed16040830184612097565b6040815260006126a66040830185612097565b90508260208301529392505050565b6000602082840312156126c757600080fd5b8151612090816123aa565b6001600160a01b038581168252841660208201526040810183905260806060820181905260009061270590830184612097565b9695505050505050565b60006020828403121561272157600080fd5b81516120908161205d565b805163ffffffff8116811461274057600080fd5b919050565b600060a0828403121561275757600080fd5b60405160a081018181106001600160401b03821117156127795761277961215e565b6040526127858361272c565b81526127936020840161272c565b60208201526127a46040840161272c565b60408201526127b56060840161272c565b60608201526127c66080840161272c565b60808201529392505050565b6000826127ef57634e487b7160e01b600052601260045260246000fd5b500490565b634e487b7160e01b600052603160045260246000fdfe22573091f17911fb166032a3d9e0554aa73d31b7b7ddea4a4dd2995650af84bda2646970667358221220dde170ca7efd399dff107d94d7d9f84e58458c2d008894756dbab03e2ea3781864736f6c63430008170033",
  "devdoc": {
    "errors": {
      "ERC721EnumerableForbiddenBatchMint()": [
        {
          "details": "Batch mint is not allowed."
        }
      ],
      "ERC721IncorrectOwner(address,uint256,address)": [
        {
          "details": "Indicates an error related to the ownership over a particular token. Used in transfers.",
          "params": {
            "owner": "Address of the current owner of a token.",
            "sender": "Address whose tokens are being transferred.",
            "tokenId": "Identifier number of a token."
          }
        }
      ],
      "ERC721InsufficientApproval(address,uint256)": [
        {
          "details": "Indicates a failure with the `operator`s approval. Used in transfers.",
          "params": {
            "operator": "Address that may be allowed to operate on tokens without being their owner.",
            "tokenId": "Identifier number of a token."
          }
        }
      ],
      "ERC721InvalidApprover(address)": [
        {
          "details": "Indicates a failure with the `approver` of a token to be approved. Used in approvals.",
          "params": {
            "approver": "Address initiating an approval operation."
          }
        }
      ],
      "ERC721InvalidOperator(address)": [
        {
          "details": "Indicates a failure with the `operator` to be approved. Used in approvals.",
          "params": {
            "operator": "Address that may be allowed to operate on tokens without being their owner."
          }
        }
      ],
      "ERC721InvalidOwner(address)": [
        {
          "details": "Indicates that an address can't be an owner. For example, `address(0)` is a forbidden owner in ERC-20. Used in balance queries.",
          "params": {
            "owner": "Address of the current owner of a token."
          }
        }
      ],
      "ERC721InvalidReceiver(address)": [
        {
          "details": "Indicates a failure with the token `receiver`. Used in transfers.",
          "params": {
            "receiver": "Address to which tokens are being transferred."
          }
        }
      ],
      "ERC721InvalidSender(address)": [
        {
          "details": "Indicates a failure with the token `sender`. Used in transfers.",
          "params": {
            "sender": "Address whose tokens are being transferred."
          }
        }
      ],
      "ERC721NonexistentToken(uint256)": [
        {
          "details": "Indicates a `tokenId` whose `owner` is the zero address.",
          "params": {
            "tokenId": "Identifier number of a token."
          }
        }
      ],
      "ERC721OutOfBoundsIndex(address,uint256)": [
        {
          "details": "An `owner`'s token query was out of bounds for `index`. NOTE: The owner being `address(0)` indicates a global out of bounds index."
        }
      ],
      "InvalidInitialization()": [
        {
          "details": "The contract is already initialized."
        }
      ],
      "NotInitializing()": [
        {
          "details": "The contract is not initializing."
        }
      ]
    },
    "events": {
      "Approval(address,address,uint256)": {
        "details": "Emitted when `owner` enables `approved` to manage the `tokenId` token."
      },
      "ApprovalForAll(address,address,bool)": {
        "details": "Emitted when `owner` enables or disables (`approved`) `operator` to manage all of its assets."
      },
      "Initialized(uint64)": {
        "details": "Triggered when the contract has been initialized or reinitialized."
      },
      "Transfer(address,address,uint256)": {
        "details": "Emitted when `tokenId` token is transferred from `from` to `to`."
      }
    },
    "kind": "dev",
    "methods": {
      "approve(address,uint256)": {
        "details": "See {IERC721-approve}."
      },
      "balanceOf(address)": {
        "details": "See {IERC721-balanceOf}."
      },
      "created()": {
        "returns": {
          "_0": "Creation timestamp"
        }
      },
      "createdBlock()": {
        "returns": {
          "_0": "Creation block number"
        }
      },
      "getApproved(uint256)": {
        "details": "See {IERC721-getApproved}."
      },
      "increaseRevision(address)": {
        "details": "Revision should be increased on each contract upgrade"
      },
      "isApprovedForAll(address,address)": {
        "details": "See {IERC721-isApprovedForAll}."
      },
      "isController(address)": {
        "details": "Return true if given address is controller"
      },
      "name()": {
        "details": "See {IERC721Metadata-name}."
      },
      "onERC721Received(address,address,uint256,bytes)": {
        "details": "See {IERC721Receiver-onERC721Received}. Always returns `IERC721Receiver.onERC721Received.selector`."
      },
      "ownerOf(uint256)": {
        "details": "See {IERC721-ownerOf}."
      },
      "previousImplementation()": {
        "details": "Previous logic implementation"
      },
      "revision()": {
        "details": "Contract upgrade counter"
      },
      "safeTransferFrom(address,address,uint256)": {
        "details": "See {IERC721-safeTransferFrom}."
      },
      "safeTransferFrom(address,address,uint256,bytes)": {
        "details": "See {IERC721-safeTransferFrom}."
      },
      "setApprovalForAll(address,bool)": {
        "details": "See {IERC721-setApprovalForAll}."
      },
      "setHeroUriByStatus(string,uint256)": {
        "details": "Every 10 levels we can show uniq img"
      },
      "supportsInterface(bytes4)": {
        "details": "See {IERC165-supportsInterface}."
      },
      "symbol()": {
        "details": "See {IERC721Metadata-symbol}."
      },
      "tokenByIndex(uint256)": {
        "details": "See {IERC721Enumerable-tokenByIndex}."
      },
      "tokenOfOwnerByIndex(address,uint256)": {
        "details": "See {IERC721Enumerable-tokenOfOwnerByIndex}."
      },
      "tokenURI(uint256)": {
        "details": "See {IERC721Metadata-tokenURI}."
      },
      "totalSupply()": {
        "details": "See {IERC721Enumerable-totalSupply}."
      },
      "transferFrom(address,address,uint256)": {
        "details": "See {IERC721-transferFrom}."
      }
    },
    "stateVariables": {
      "VERSION": {
        "details": "Should be incremented when contract changed"
      }
    },
    "version": 1
  },
  "userdoc": {
    "kind": "user",
    "methods": {
      "CONTROLLABLE_VERSION()": {
        "notice": "Version of the contract"
      },
      "VERSION()": {
        "notice": "Version of the contract"
      },
      "controller()": {
        "notice": "Return controller address saved in the contract slot"
      },
      "created()": {
        "notice": "Return creation timestamp"
      },
      "createdBlock()": {
        "notice": "Return creation block number"
      },
      "isGovernance(address)": {
        "notice": "Return true if given address is setup as governance in Controller"
      }
    },
    "version": 1
  },
  "storageLayout": {
    "storage": [],
    "types": null
  }
}