{
  "address": "0x45aE6b66E91E2824f1C349870Db63ac88e1cd386",
  "abi": [
    {
      "inputs": [],
      "name": "AlreadyHaveReinforcement",
      "type": "error"
    },
    {
      "inputs": [],
      "name": "EquippedItemsExist",
      "type": "error"
    },
    {
      "inputs": [
        {
          "internalType": "address",
          "name": "sender",
          "type": "address"
        }
      ],
      "name": "ErrorForbidden",
      "type": "error"
    },
    {
      "inputs": [
        {
          "internalType": "address",
          "name": "heroToken",
          "type": "address"
        },
        {
          "internalType": "uint256",
          "name": "heroTokenId",
          "type": "uint256"
        }
      ],
      "name": "ErrorHeroIsDead",
      "type": "error"
    },
    {
      "inputs": [
        {
          "internalType": "address",
          "name": "heroToken",
          "type": "address"
        }
      ],
      "name": "ErrorHeroIsNotRegistered",
      "type": "error"
    },
    {
      "inputs": [],
      "name": "ErrorHeroNotInDungeon",
      "type": "error"
    },
    {
      "inputs": [
        {
          "internalType": "uint256",
          "name": "biome",
          "type": "uint256"
        }
      ],
      "name": "ErrorIncorrectBiome",
      "type": "error"
    },
    {
      "inputs": [],
      "name": "ErrorNotAllowedSender",
      "type": "error"
    },
    {
      "inputs": [
        {
          "internalType": "address",
          "name": "sender",
          "type": "address"
        }
      ],
      "name": "ErrorNotDeployer",
      "type": "error"
    },
    {
      "inputs": [
        {
          "internalType": "address",
          "name": "sender",
          "type": "address"
        }
      ],
      "name": "ErrorNotDungeonFactory",
      "type": "error"
    },
    {
      "inputs": [
        {
          "internalType": "address",
          "name": "sender",
          "type": "address"
        }
      ],
      "name": "ErrorNotItemController",
      "type": "error"
    },
    {
      "inputs": [
        {
          "internalType": "address",
          "name": "token",
          "type": "address"
        },
        {
          "internalType": "uint256",
          "name": "tokenId",
          "type": "uint256"
        }
      ],
      "name": "ErrorNotOwner",
      "type": "error"
    },
    {
      "inputs": [],
      "name": "ErrorPaused",
      "type": "error"
    },
    {
      "inputs": [],
      "name": "HeroInDungeon",
      "type": "error"
    },
    {
      "inputs": [],
      "name": "InvalidInitialization",
      "type": "error"
    },
    {
      "inputs": [],
      "name": "LengthsMismatch",
      "type": "error"
    },
    {
      "inputs": [
        {
          "internalType": "address",
          "name": "token",
          "type": "address"
        },
        {
          "internalType": "uint256",
          "name": "payTokenAmount",
          "type": "uint256"
        }
      ],
      "name": "NoPayToken",
      "type": "error"
    },
    {
      "inputs": [
        {
          "internalType": "address",
          "name": "sender",
          "type": "address"
        }
      ],
      "name": "NotEOA",
      "type": "error"
    },
    {
      "inputs": [],
      "name": "NotInitializing",
      "type": "error"
    },
    {
      "inputs": [],
      "name": "PvpStaked",
      "type": "error"
    },
    {
      "inputs": [],
      "name": "SandboxModeNotAllowed",
      "type": "error"
    },
    {
      "inputs": [],
      "name": "SandboxModeRequired",
      "type": "error"
    },
    {
      "inputs": [
        {
          "internalType": "address",
          "name": "heroToken",
          "type": "address"
        },
        {
          "internalType": "uint256",
          "name": "heroId",
          "type": "uint256"
        }
      ],
      "name": "Staked",
      "type": "error"
    },
    {
      "inputs": [
        {
          "internalType": "uint256",
          "name": "biome",
          "type": "uint256"
        }
      ],
      "name": "TooHighBiome",
      "type": "error"
    },
    {
      "inputs": [
        {
          "internalType": "uint256",
          "name": "value",
          "type": "uint256"
        }
      ],
      "name": "TooHighValue",
      "type": "error"
    },
    {
      "inputs": [
        {
          "internalType": "uint256",
          "name": "tier",
          "type": "uint256"
        }
      ],
      "name": "WrongTier",
      "type": "error"
    },
    {
      "inputs": [],
      "name": "ZeroToken",
      "type": "error"
    },
    {
      "anonymous": false,
      "inputs": [
        {
          "indexed": false,
          "internalType": "address",
          "name": "hero",
          "type": "address"
        },
        {
          "indexed": false,
          "internalType": "uint256",
          "name": "heroId",
          "type": "uint256"
        },
        {
          "indexed": false,
          "internalType": "uint8",
          "name": "biome",
          "type": "uint8"
        }
      ],
      "name": "BiomeChanged",
      "type": "event"
    },
    {
      "anonymous": false,
      "inputs": [
        {
          "indexed": false,
          "internalType": "address",
          "name": "controller",
          "type": "address"
        },
        {
          "indexed": false,
          "internalType": "uint256",
          "name": "ts",
          "type": "uint256"
        },
        {
          "indexed": false,
          "internalType": "uint256",
          "name": "block",
          "type": "uint256"
        }
      ],
      "name": "ContractInitialized",
      "type": "event"
    },
    {
      "anonymous": false,
      "inputs": [
        {
          "indexed": false,
          "internalType": "address",
          "name": "hero",
          "type": "address"
        },
        {
          "indexed": false,
          "internalType": "uint256",
          "name": "heroId",
          "type": "uint256"
        },
        {
          "indexed": false,
          "internalType": "address",
          "name": "helpHeroToken",
          "type": "address"
        },
        {
          "indexed": false,
          "internalType": "uint256",
          "name": "helpHeroId",
          "type": "uint256"
        }
      ],
      "name": "GuildReinforcementAsked",
      "type": "event"
    },
    {
      "anonymous": false,
      "inputs": [
        {
          "indexed": false,
          "internalType": "address",
          "name": "hero",
          "type": "address"
        },
        {
          "indexed": false,
          "internalType": "uint256",
          "name": "heroId",
          "type": "uint256"
        },
        {
          "indexed": false,
          "internalType": "address",
          "name": "helperToken",
          "type": "address"
        },
        {
          "indexed": false,
          "internalType": "uint256",
          "name": "helperId",
          "type": "uint256"
        }
      ],
      "name": "GuildReinforcementReleased",
      "type": "event"
    },
    {
      "anonymous": false,
      "inputs": [
        {
          "indexed": false,
          "internalType": "address",
          "name": "hero",
          "type": "address"
        },
        {
          "indexed": false,
          "internalType": "uint8",
          "name": "heroClass",
          "type": "uint8"
        },
        {
          "indexed": false,
          "internalType": "address",
          "name": "payToken",
          "type": "address"
        },
        {
          "indexed": false,
          "internalType": "uint256",
          "name": "payAmount",
          "type": "uint256"
        }
      ],
      "name": "HeroRegistered",
      "type": "event"
    },
    {
      "anonymous": false,
      "inputs": [
        {
          "indexed": false,
          "internalType": "uint64",
          "name": "version",
          "type": "uint64"
        }
      ],
      "name": "Initialized",
      "type": "event"
    },
    {
      "anonymous": false,
      "inputs": [
        {
          "indexed": false,
          "internalType": "address",
          "name": "hero",
          "type": "address"
        },
        {
          "indexed": false,
          "internalType": "uint256",
          "name": "heroId",
          "type": "uint256"
        },
        {
          "indexed": false,
          "internalType": "address",
          "name": "killer",
          "type": "address"
        },
        {
          "indexed": false,
          "internalType": "bytes32[]",
          "name": "dropItems",
          "type": "bytes32[]"
        },
        {
          "indexed": false,
          "internalType": "uint256",
          "name": "dropTokenAmount",
          "type": "uint256"
        }
      ],
      "name": "Killed",
      "type": "event"
    },
    {
      "anonymous": false,
      "inputs": [
        {
          "indexed": false,
          "internalType": "address",
          "name": "hero",
          "type": "address"
        },
        {
          "indexed": false,
          "internalType": "uint256",
          "name": "heroId",
          "type": "uint256"
        },
        {
          "indexed": false,
          "internalType": "address",
          "name": "owner",
          "type": "address"
        },
        {
          "components": [
            {
              "internalType": "int32",
              "name": "strength",
              "type": "int32"
            },
            {
              "internalType": "int32",
              "name": "dexterity",
              "type": "int32"
            },
            {
              "internalType": "int32",
              "name": "vitality",
              "type": "int32"
            },
            {
              "internalType": "int32",
              "name": "energy",
              "type": "int32"
            }
          ],
          "indexed": false,
          "internalType": "struct IStatController.CoreAttributes",
          "name": "change",
          "type": "tuple"
        }
      ],
      "name": "LevelUp",
      "type": "event"
    },
    {
      "anonymous": false,
      "inputs": [
        {
          "indexed": false,
          "internalType": "address",
          "name": "hero",
          "type": "address"
        },
        {
          "indexed": false,
          "internalType": "uint256",
          "name": "heroId",
          "type": "uint256"
        },
        {
          "indexed": false,
          "internalType": "address",
          "name": "helpHeroToken",
          "type": "address"
        },
        {
          "indexed": false,
          "internalType": "uint256",
          "name": "helpHeroId",
          "type": "uint256"
        }
      ],
      "name": "ReinforcementAsked",
      "type": "event"
    },
    {
      "anonymous": false,
      "inputs": [
        {
          "indexed": false,
          "internalType": "address",
          "name": "hero",
          "type": "address"
        },
        {
          "indexed": false,
          "internalType": "uint256",
          "name": "heroId",
          "type": "uint256"
        },
        {
          "indexed": false,
          "internalType": "address",
          "name": "helperToken",
          "type": "address"
        },
        {
          "indexed": false,
          "internalType": "uint256",
          "name": "helperId",
          "type": "uint256"
        }
      ],
      "name": "ReinforcementReleased",
      "type": "event"
    },
    {
      "anonymous": false,
      "inputs": [
        {
          "indexed": false,
          "internalType": "uint256",
          "name": "value",
          "type": "uint256"
        },
        {
          "indexed": false,
          "internalType": "address",
          "name": "oldLogic",
          "type": "address"
        }
      ],
      "name": "RevisionIncreased",
      "type": "event"
    },
    {
      "anonymous": false,
      "inputs": [
        {
          "indexed": false,
          "internalType": "uint8",
          "name": "tier",
          "type": "uint8"
        },
        {
          "indexed": false,
          "internalType": "address",
          "name": "hero",
          "type": "address"
        },
        {
          "indexed": false,
          "internalType": "uint72",
          "name": "payAmount",
          "type": "uint72"
        },
        {
          "indexed": false,
          "internalType": "uint8[]",
          "name": "slots",
          "type": "uint8[]"
        },
        {
          "indexed": false,
          "internalType": "address[][]",
          "name": "items",
          "type": "address[][]"
        }
      ],
      "name": "TierSetup",
      "type": "event"
    },
    {
      "inputs": [],
      "name": "CONTROLLABLE_VERSION",
      "outputs": [
        {
          "internalType": "string",
          "name": "",
          "type": "string"
        }
      ],
      "stateMutability": "view",
      "type": "function"
    },
    {
      "inputs": [],
      "name": "VERSION",
      "outputs": [
        {
          "internalType": "string",
          "name": "",
          "type": "string"
        }
      ],
      "stateMutability": "view",
      "type": "function"
    },
    {
      "inputs": [
        {
          "internalType": "address",
          "name": "hero",
          "type": "address"
        },
        {
          "internalType": "uint256",
          "name": "heroId",
          "type": "uint256"
        },
        {
          "internalType": "address",
          "name": "helper",
          "type": "address"
        },
        {
          "internalType": "uint256",
          "name": "helperId",
          "type": "uint256"
        }
      ],
      "name": "askGuildReinforcement",
      "outputs": [],
      "stateMutability": "nonpayable",
      "type": "function"
    },
    {
      "inputs": [
        {
          "internalType": "address",
          "name": "hero",
          "type": "address"
        },
        {
          "internalType": "uint256",
          "name": "heroId",
          "type": "uint256"
        },
        {
          "internalType": "address",
          "name": "helper",
          "type": "address"
        },
        {
          "internalType": "uint256",
          "name": "helperId",
          "type": "uint256"
        }
      ],
      "name": "askReinforcement",
      "outputs": [],
      "stateMutability": "nonpayable",
      "type": "function"
    },
    {
      "inputs": [
        {
          "internalType": "address",
          "name": "hero",
          "type": "address"
        },
        {
          "internalType": "uint256",
          "name": "heroId",
          "type": "uint256"
        }
      ],
      "name": "beforeTokenTransfer",
      "outputs": [
        {
          "internalType": "bool",
          "name": "isAllowedToTransferOut",
          "type": "bool"
        }
      ],
      "stateMutability": "nonpayable",
      "type": "function"
    },
    {
      "inputs": [],
      "name": "controller",
      "outputs": [
        {
          "internalType": "address",
          "name": "",
          "type": "address"
        }
      ],
      "stateMutability": "view",
      "type": "function"
    },
    {
      "inputs": [
        {
          "internalType": "address",
          "name": "hero",
          "type": "address"
        },
        {
          "internalType": "uint256",
          "name": "heroId",
          "type": "uint256"
        }
      ],
      "name": "countHeroTransfers",
      "outputs": [
        {
          "internalType": "uint256",
          "name": "",
          "type": "uint256"
        }
      ],
      "stateMutability": "view",
      "type": "function"
    },
    {
      "inputs": [
        {
          "internalType": "address",
          "name": "hero",
          "type": "address"
        },
        {
          "internalType": "string",
          "name": "heroName_",
          "type": "string"
        },
        {
          "internalType": "bool",
          "name": "enter",
          "type": "bool"
        }
      ],
      "name": "create",
      "outputs": [
        {
          "internalType": "uint256",
          "name": "",
          "type": "uint256"
        }
      ],
      "stateMutability": "nonpayable",
      "type": "function"
    },
    {
      "inputs": [
        {
          "internalType": "address",
          "name": "hero",
          "type": "address"
        },
        {
          "components": [
            {
              "internalType": "uint8",
              "name": "ngLevel",
              "type": "uint8"
            },
            {
              "internalType": "uint8",
              "name": "tier",
              "type": "uint8"
            },
            {
              "internalType": "bool",
              "name": "enter",
              "type": "bool"
            },
            {
              "internalType": "string",
              "name": "heroName",
              "type": "string"
            },
            {
              "internalType": "address",
              "name": "targetUserAccount",
              "type": "address"
            },
            {
              "internalType": "string",
              "name": "refCode",
              "type": "string"
            },
            {
              "internalType": "bool",
              "name": "sandboxMode",
              "type": "bool"
            }
          ],
          "internalType": "struct IHeroController.HeroCreationData",
          "name": "data",
          "type": "tuple"
        }
      ],
      "name": "createHero",
      "outputs": [
        {
          "internalType": "uint256",
          "name": "",
          "type": "uint256"
        }
      ],
      "stateMutability": "nonpayable",
      "type": "function"
    },
    {
      "inputs": [
        {
          "internalType": "address",
          "name": "hero",
          "type": "address"
        },
        {
          "internalType": "string",
          "name": "heroName_",
          "type": "string"
        },
        {
          "internalType": "string",
          "name": "refCode",
          "type": "string"
        },
        {
          "internalType": "bool",
          "name": "enter",
          "type": "bool"
        }
      ],
      "name": "createWithRefCode",
      "outputs": [
        {
          "internalType": "uint256",
          "name": "",
          "type": "uint256"
        }
      ],
      "stateMutability": "nonpayable",
      "type": "function"
    },
    {
      "inputs": [],
      "name": "created",
      "outputs": [
        {
          "internalType": "uint256",
          "name": "",
          "type": "uint256"
        }
      ],
      "stateMutability": "view",
      "type": "function"
    },
    {
      "inputs": [],
      "name": "createdBlock",
      "outputs": [
        {
          "internalType": "uint256",
          "name": "",
          "type": "uint256"
        }
      ],
      "stateMutability": "view",
      "type": "function"
    },
    {
      "inputs": [
        {
          "internalType": "address",
          "name": "hero",
          "type": "address"
        },
        {
          "internalType": "uint256",
          "name": "heroId",
          "type": "uint256"
        }
      ],
      "name": "getHeroInfo",
      "outputs": [
        {
          "components": [
            {
              "internalType": "uint8",
              "name": "tier",
              "type": "uint8"
            },
            {
              "internalType": "uint8",
              "name": "ngLevel",
              "type": "uint8"
            },
            {
              "internalType": "bool",
              "name": "rebornAllowed",
              "type": "bool"
            },
            {
              "internalType": "uint72",
              "name": "paidAmount",
              "type": "uint72"
            },
            {
              "internalType": "address",
              "name": "paidToken",
              "type": "address"
            }
          ],
          "internalType": "struct IHeroController.HeroInfo",
          "name": "data",
          "type": "tuple"
        }
      ],
      "stateMutability": "view",
      "type": "function"
    },
    {
      "inputs": [
        {
          "internalType": "uint8",
          "name": "tier",
          "type": "uint8"
        },
        {
          "internalType": "address",
          "name": "hero",
          "type": "address"
        }
      ],
      "name": "getTier",
      "outputs": [
        {
          "internalType": "uint256",
          "name": "payAmount",
          "type": "uint256"
        },
        {
          "internalType": "uint8[]",
          "name": "slots",
          "type": "uint8[]"
        },
        {
          "internalType": "address[][]",
          "name": "items",
          "type": "address[][]"
        }
      ],
      "stateMutability": "view",
      "type": "function"
    },
    {
      "inputs": [
        {
          "internalType": "address",
          "name": "hero",
          "type": "address"
        },
        {
          "internalType": "uint256",
          "name": "heroId",
          "type": "uint256"
        }
      ],
      "name": "helperSkills",
      "outputs": [
        {
          "internalType": "address[]",
          "name": "items",
          "type": "address[]"
        },
        {
          "internalType": "uint256[]",
          "name": "itemIds",
          "type": "uint256[]"
        },
        {
          "internalType": "uint256[]",
          "name": "slots",
          "type": "uint256[]"
        }
      ],
      "stateMutability": "view",
      "type": "function"
    },
    {
      "inputs": [
        {
          "internalType": "address",
          "name": "hero",
          "type": "address"
        },
        {
          "internalType": "uint256",
          "name": "heroId",
          "type": "uint256"
        }
      ],
      "name": "heroBiome",
      "outputs": [
        {
          "internalType": "uint8",
          "name": "",
          "type": "uint8"
        }
      ],
      "stateMutability": "view",
      "type": "function"
    },
    {
      "inputs": [
        {
          "internalType": "address",
          "name": "hero",
          "type": "address"
        }
      ],
      "name": "heroClass",
      "outputs": [
        {
          "internalType": "uint8",
          "name": "",
          "type": "uint8"
        }
      ],
      "stateMutability": "view",
      "type": "function"
    },
    {
      "inputs": [
        {
          "internalType": "address",
          "name": "hero",
          "type": "address"
        },
        {
          "internalType": "uint256",
          "name": "heroId",
          "type": "uint256"
        }
      ],
      "name": "heroName",
      "outputs": [
        {
          "internalType": "string",
          "name": "",
          "type": "string"
        }
      ],
      "stateMutability": "view",
      "type": "function"
    },
    {
      "inputs": [
        {
          "internalType": "address",
          "name": "hero",
          "type": "address"
        },
        {
          "internalType": "uint256",
          "name": "heroId",
          "type": "uint256"
        }
      ],
      "name": "heroReinforcementHelp",
      "outputs": [
        {
          "internalType": "address",
          "name": "helperHeroToken",
          "type": "address"
        },
        {
          "internalType": "uint256",
          "name": "helperHeroId",
          "type": "uint256"
        }
      ],
      "stateMutability": "view",
      "type": "function"
    },
    {
      "inputs": [
        {
          "internalType": "address",
          "name": "oldLogic",
          "type": "address"
        }
      ],
      "name": "increaseRevision",
      "outputs": [],
      "stateMutability": "nonpayable",
      "type": "function"
    },
    {
      "inputs": [
        {
          "internalType": "address",
          "name": "controller_",
          "type": "address"
        }
      ],
      "name": "init",
      "outputs": [],
      "stateMutability": "nonpayable",
      "type": "function"
    },
    {
      "inputs": [
        {
          "internalType": "address",
          "name": "hero",
          "type": "address"
        },
        {
          "internalType": "uint256",
          "name": "heroId",
          "type": "uint256"
        }
      ],
      "name": "isAllowedToTransfer",
      "outputs": [
        {
          "internalType": "bool",
          "name": "",
          "type": "bool"
        }
      ],
      "stateMutability": "view",
      "type": "function"
    },
    {
      "inputs": [
        {
          "internalType": "address",
          "name": "value_",
          "type": "address"
        }
      ],
      "name": "isController",
      "outputs": [
        {
          "internalType": "bool",
          "name": "",
          "type": "bool"
        }
      ],
      "stateMutability": "view",
      "type": "function"
    },
    {
      "inputs": [
        {
          "internalType": "address",
          "name": "value_",
          "type": "address"
        }
      ],
      "name": "isGovernance",
      "outputs": [
        {
          "internalType": "bool",
          "name": "",
          "type": "bool"
        }
      ],
      "stateMutability": "view",
      "type": "function"
    },
    {
      "inputs": [
        {
          "internalType": "address",
          "name": "forwarder",
          "type": "address"
        }
      ],
      "name": "isTrustedForwarder",
      "outputs": [
        {
          "internalType": "bool",
          "name": "",
          "type": "bool"
        }
      ],
      "stateMutability": "view",
      "type": "function"
    },
    {
      "inputs": [
        {
          "internalType": "address",
          "name": "hero",
          "type": "address"
        },
        {
          "internalType": "uint256",
          "name": "heroId",
          "type": "uint256"
        }
      ],
      "name": "kill",
      "outputs": [
        {
          "internalType": "bytes32[]",
          "name": "dropItems",
          "type": "bytes32[]"
        }
      ],
      "stateMutability": "nonpayable",
      "type": "function"
    },
    {
      "inputs": [
        {
          "internalType": "address",
          "name": "hero",
          "type": "address"
        },
        {
          "internalType": "uint256",
          "name": "heroId",
          "type": "uint256"
        },
        {
          "internalType": "uint8",
          "name": "biome",
          "type": "uint8"
        },
        {
          "internalType": "uint8",
          "name": "ngLevel",
          "type": "uint8"
        }
      ],
      "name": "killedBosses",
      "outputs": [
        {
          "internalType": "uint256",
          "name": "",
          "type": "uint256"
        }
      ],
      "stateMutability": "view",
      "type": "function"
    },
    {
      "inputs": [
        {
          "internalType": "address",
          "name": "hero",
          "type": "address"
        },
        {
          "internalType": "uint256",
          "name": "heroId",
          "type": "uint256"
        },
        {
          "components": [
            {
              "internalType": "int32",
              "name": "strength",
              "type": "int32"
            },
            {
              "internalType": "int32",
              "name": "dexterity",
              "type": "int32"
            },
            {
              "internalType": "int32",
              "name": "vitality",
              "type": "int32"
            },
            {
              "internalType": "int32",
              "name": "energy",
              "type": "int32"
            }
          ],
          "internalType": "struct IStatController.CoreAttributes",
          "name": "change",
          "type": "tuple"
        }
      ],
      "name": "levelUp",
      "outputs": [],
      "stateMutability": "nonpayable",
      "type": "function"
    },
    {
      "inputs": [],
      "name": "maxOpenedNgLevel",
      "outputs": [
        {
          "internalType": "uint256",
          "name": "",
          "type": "uint256"
        }
      ],
      "stateMutability": "view",
      "type": "function"
    },
    {
      "inputs": [
        {
          "internalType": "address",
          "name": "user",
          "type": "address"
        }
      ],
      "name": "maxUserNgLevel",
      "outputs": [
        {
          "internalType": "uint256",
          "name": "",
          "type": "uint256"
        }
      ],
      "stateMutability": "view",
      "type": "function"
    },
    {
      "inputs": [
        {
          "internalType": "string",
          "name": "name",
          "type": "string"
        }
      ],
      "name": "nameToHero",
      "outputs": [
        {
          "internalType": "address",
          "name": "hero",
          "type": "address"
        },
        {
          "internalType": "uint256",
          "name": "heroId",
          "type": "uint256"
        }
      ],
      "stateMutability": "view",
      "type": "function"
    },
    {
      "inputs": [
        {
          "internalType": "address",
          "name": "hero",
          "type": "address"
        }
      ],
      "name": "payTokenInfo",
      "outputs": [
        {
          "internalType": "address",
          "name": "token",
          "type": "address"
        },
        {
          "internalType": "uint256",
          "name": "amount",
          "type": "uint256"
        }
      ],
      "stateMutability": "view",
      "type": "function"
    },
    {
      "inputs": [],
      "name": "previousImplementation",
      "outputs": [
        {
          "internalType": "address",
          "name": "",
          "type": "address"
        }
      ],
      "stateMutability": "view",
      "type": "function"
    },
    {
      "inputs": [
        {
          "internalType": "address",
          "name": "hero",
          "type": "address"
        },
        {
          "internalType": "uint256",
          "name": "heroId",
          "type": "uint256"
        }
      ],
      "name": "reborn",
      "outputs": [],
      "stateMutability": "nonpayable",
      "type": "function"
    },
    {
      "inputs": [
        {
          "internalType": "address",
          "name": "hero",
          "type": "address"
        },
        {
          "internalType": "uint8",
          "name": "heroClass_",
          "type": "uint8"
        },
        {
          "internalType": "address",
          "name": "payToken",
          "type": "address"
        },
        {
          "internalType": "uint256",
          "name": "payAmount",
          "type": "uint256"
        }
      ],
      "name": "registerHero",
      "outputs": [],
      "stateMutability": "nonpayable",
      "type": "function"
    },
    {
      "inputs": [
        {
          "internalType": "address",
          "name": "hero",
          "type": "address"
        },
        {
          "internalType": "uint256",
          "name": "heroId",
          "type": "uint256"
        },
        {
          "internalType": "uint32",
          "name": "bossObjectId",
          "type": "uint32"
        }
      ],
      "name": "registerKilledBoss",
      "outputs": [],
      "stateMutability": "nonpayable",
      "type": "function"
    },
    {
      "inputs": [
        {
          "internalType": "address",
          "name": "hero",
          "type": "address"
        },
        {
          "internalType": "uint256",
          "name": "heroId",
          "type": "uint256"
        }
      ],
      "name": "releaseReinforcement",
      "outputs": [
        {
          "internalType": "address",
          "name": "helperToken",
          "type": "address"
        },
        {
          "internalType": "uint256",
          "name": "helperId",
          "type": "uint256"
        }
      ],
      "stateMutability": "nonpayable",
      "type": "function"
    },
    {
      "inputs": [
        {
          "internalType": "address",
          "name": "hero",
          "type": "address"
        },
        {
          "internalType": "uint256",
          "name": "heroId",
          "type": "uint256"
        }
      ],
      "name": "resetLifeAndMana",
      "outputs": [],
      "stateMutability": "nonpayable",
      "type": "function"
    },
    {
      "inputs": [],
      "name": "revision",
      "outputs": [
        {
          "internalType": "uint256",
          "name": "",
          "type": "uint256"
        }
      ],
      "stateMutability": "view",
      "type": "function"
    },
    {
      "inputs": [
        {
          "internalType": "address",
          "name": "hero",
          "type": "address"
        },
        {
          "internalType": "uint256",
          "name": "heroId",
          "type": "uint256"
        }
      ],
      "name": "sandboxMode",
      "outputs": [
        {
          "internalType": "uint8",
          "name": "",
          "type": "uint8"
        }
      ],
      "stateMutability": "view",
      "type": "function"
    },
    {
      "inputs": [
        {
          "internalType": "address",
          "name": "hero",
          "type": "address"
        },
        {
          "internalType": "uint256",
          "name": "heroId",
          "type": "uint256"
        }
      ],
      "name": "score",
      "outputs": [
        {
          "internalType": "uint256",
          "name": "",
          "type": "uint256"
        }
      ],
      "stateMutability": "view",
      "type": "function"
    },
    {
      "inputs": [
        {
          "internalType": "address",
          "name": "hero",
          "type": "address"
        },
        {
          "internalType": "uint256",
          "name": "heroId",
          "type": "uint256"
        },
        {
          "internalType": "uint8",
          "name": "biome",
          "type": "uint8"
        }
      ],
      "name": "setBiome",
      "outputs": [],
      "stateMutability": "nonpayable",
      "type": "function"
    },
    {
      "inputs": [
        {
          "internalType": "uint8",
          "name": "tier",
          "type": "uint8"
        },
        {
          "internalType": "address",
          "name": "hero",
          "type": "address"
        },
        {
          "internalType": "uint72",
          "name": "payAmount",
          "type": "uint72"
        },
        {
          "internalType": "uint8[]",
          "name": "slots",
          "type": "uint8[]"
        },
        {
          "internalType": "address[][]",
          "name": "items",
          "type": "address[][]"
        }
      ],
      "name": "setTier",
      "outputs": [],
      "stateMutability": "nonpayable",
      "type": "function"
    },
    {
      "inputs": [
        {
          "internalType": "address",
          "name": "hero",
          "type": "address"
        },
        {
          "internalType": "uint256",
          "name": "heroId",
          "type": "uint256"
        }
      ],
      "name": "upgradeSandboxHero",
      "outputs": [],
      "stateMutability": "nonpayable",
      "type": "function"
    }
  ],
  "transactionHash": "0x23ae570c61279bd36e421544dd357015cdf9dbe95788e3d8a578038a1a1895bc",
  "args": [],
  "numDeployments": 8,
  "solcInputHash": "333f21fe162cfd135427ffa9c09d7987",
  "bytecode": "0x60806040523480156200001157600080fd5b507ff0c57e16840df040f15088dc2f81fe391c3923bec73e23a9662efc9c229c6a00805468010000000000000000810460ff1615906001600160401b03166000811580156200005d5750825b90506000826001600160401b031660011480156200007a5750303b155b90508115801562000089575080155b15620000a85760405163f92ee8a960e01b815260040160405180910390fd5b84546001600160401b03191660011785558315620000d757845460ff60401b1916680100000000000000001785555b83156200011e57845460ff60401b19168555604051600181527fc7f505b2f371ae2175ee4913f4499e1f2633a7b5936321eed1cdaeb6115181d29060200160405180910390a15b50505050506159b080620001336000396000f3fe608060405234801561001057600080fd5b50600436106102345760003560e01c80637e57699811610131578063b429afeb116100b3578063b429afeb1461050c578063bcd418b01461051f578063d18e37241461058b578063d360a9c1146105ad578063daa579c9146105c0578063dec38e77146105d3578063dee1f0e4146105e6578063df13f489146105f9578063ec5316b514610601578063f77c479114610614578063ffa1ad741461061c57600080fd5b80637e5769981461041b578063865969881461042e57806387a97d3f1461044157806392707802146104545780639325fac614610474578063936725ec1461048757806395f0d29a146104ab5780639d0bcca0146104be578063a13cf106146104d3578063a2959fbe146104e6578063a433af6f146104f957600080fd5b80634593144c116101ba5780634593144c14610345578063498abc701461034d5780634fac6ccd1461036e578063542c7b4614610381578063572b6c05146103a1578063602b419c146103b4578063608fa40d146103c757806362a62a9d146103da578063649dab39146103ed5780637401edba146104005780637cc963801461041357600080fd5b80631789b7b11461023957806319ab453c146102635780631cb3cd4f146102785780631dca7e301461028b5780631e78fd71146102ad5780631ebd2493146102c057806320b7c941146102d357806327238f12146102e657806329dcfc1814610309578063325a19f11461032a5780633b6d15c614610332575b600080fd5b61024c61024736600461476c565b610640565b60405160ff90911681526020015b60405180910390f35b61027661027136600461476c565b610651565b005b610276610286366004614806565b61074b565b61029e6102993660046148d7565b610773565b60405161025a939291906149d7565b6102766102bb366004614a0c565b610790565b61024c6102ce366004614a0c565b6107ae565b6102766102e1366004614a38565b6107c1565b6102f96102f4366004614a0c565b6107db565b604051901515815260200161025a565b61031c610317366004614b11565b6107ef565b60405190815260200161025a565b61031c61087d565b61031c610340366004614c4c565b6108b6565b61031c610960565b61036061035b366004614ce0565b610990565b60405161025a929190614d14565b61027661037c36600461476c565b6109a5565b61039461038f366004614a0c565b610ab6565b60405161025a9190614d7d565b6102f96103af36600461476c565b610ac2565b6102766103c2366004614d90565b610b37565b6102766103d5366004614d90565b610b5b565b61031c6103e836600461476c565b610b6f565b6102f96103fb366004614a0c565b610b7a565b61031c61040e366004614a0c565b610b96565b61031c610baa565b61031c610429366004614dc8565b610bc8565b61027661043c366004614e2d565b610bdf565b61036061044f366004614a0c565b610c88565b610467610462366004614a0c565b610cb1565b60405161025a9190614ea0565b610276610482366004614eb3565b610ccd565b610394604051806040016040528060058152602001640312e302e360dc1b81525081565b6103606104b9366004614a0c565b610cf0565b6104c6610cfd565b60405161025a9190614eea565b6103606104e136600461476c565b610d2d565b6102766104f4366004615012565b610d39565b610276610507366004614a0c565b610d55565b6102f961051a36600461476c565b610de9565b61053261052d366004614a0c565b610e0e565b60405161025a9190815160ff9081168252602080840151909116908201526040808301511515908201526060808301516001600160481b0316908201526080918201516001600160a01b03169181019190915260a00190565b61059e610599366004614a0c565b610e20565b60405161025a93929190615119565b61031c6105bb366004615185565b610e2f565b6102766105ce366004614a0c565b610ec1565b61024c6105e1366004614a0c565b610ee3565b6102f96105f436600461476c565b610f00565b61031c610f85565b61031c61060f366004614a0c565b610f8f565b6104c6610f9b565b61039460405180604001604052806005815260200164312e302e3360d81b81525081565b600061064b82610fcb565b92915050565b600061065b610ffa565b805490915060ff600160401b82041615906001600160401b03166000811580156106825750825b90506000826001600160401b0316600114801561069e5750303b155b9050811580156106ac575080155b156106ca5760405163f92ee8a960e01b815260040160405180910390fd5b845467ffffffffffffffff1916600117855583156106f457845460ff60401b1916600160401b1785555b6106fd8661101e565b831561074357845460ff60401b19168555604051600181527fc7f505b2f371ae2175ee4913f4499e1f2633a7b5936321eed1cdaeb6115181d29060200160405180910390a15b505050505050565b61076e610756611032565b61075e610f9b565b61076661104a565b86868661106c565b505050565b6000606080610782858561131a565b9250925092505b9250925092565b6107aa61079b610f9b565b6107a361104a565b848461151e565b5050565b60006107ba8383611547565b9392505050565b6107d56107cc610f9b565b85858585611584565b50505050565b60006107ba6107e8610f9b565b8484611676565b6000730326d6cb0Cd09E57CFFcfDA36E67C0736CE5d3176376e3ae2c610813610f9b565b61081b61104a565b86866040518563ffffffff1660e01b815260040161083c94939291906151e1565b602060405180830381865af4158015610859573d6000803e3d6000fd5b505050506040513d601f19601f820116820180604052508101906107ba919061529f565b60006108b16108ad60017f6f55f470bdc9cb5f04223fd822021061668e4dccb43e8727b295106dc9769c8b6152ce565b5490565b905090565b6000730326d6cb0Cd09E57CFFcfDA36E67C0736CE5d317635758ba7c6108da611032565b6108e2610f9b565b6108ea61104a565b8b8b8b8b8b8b6040518a63ffffffff1660e01b81526004016109149998979695949392919061530a565b602060405180830381865af4158015610931573d6000803e3d6000fd5b505050506040513d601f19601f82011682018060405250810190610955919061529f565b979650505050505050565b60006108b16108ad60017f812a673dfca07956350df10f8a654925f561d7a0da09bdbe79e653939a14d9f16152ce565b60008061099c8361168b565b91509150915091565b3330146109f75760405162461bcd60e51b815260206004820152601b60248201527a24b731b932b0b9b2903932bb34b9b4b7b7103337b93134b23232b760291b60448201526064015b60405180910390fd5b6000610a156108ad600160008051602061595b8339815191526152ce565b610a20906001615373565b9050610a4281610a3f600160008051602061595b8339815191526152ce565b55565b610a7182610a3f60017fbfaaa2fb63266ff27c2da975f5894955056f50419af651a81f6c5060581857e46152ce565b604080518281526001600160a01b03841660208201527ff27e2ef832a4eb8ed8ec553b875eecd44764cda95b1c24170e281539e0a869c8910160405180910390a15050565b60606107ba83836116c2565b60006001600160a01b03821673d8253782c45a12053594b9deb72d8e8ab2fca54c1480610b0b57506001600160a01b0382167352ceba41da235af367bfc0b0ccd3314cb901bb5f145b8061064b57506001600160a01b03821673102f1f556cd9c3d5f820e6920a8931657c5da21b1492915050565b6107d5610b42611032565b610b4a610f9b565b610b5261104a565b87878787611783565b6107d5610b66610f9b565b858585856117a6565b600061064b826117be565b60006107ba610b87610f9b565b610b8f61104a565b85856117ed565b60006107ba610ba3610f9b565b848461190a565b60006108b16108ad600160008051602061595b8339815191526152ce565b6000610bd685858585611a09565b95945050505050565b730326d6cb0Cd09E57CFFcfDA36E67C0736CE5d31763607b2a50610c01610f9b565b610c0961104a565b6040516001600160e01b031960e085901b1681526001600160a01b039283166004820152908216602482015290861660448201526064810185905263ffffffff8416608482015260a40160006040518083038186803b158015610c6b57600080fd5b505af4158015610c7f573d6000803e3d6000fd5b50505050505050565b600080610ca5610c96610f9b565b610c9e61104a565b8686611a5c565b915091505b9250929050565b60606107ba610cbe610f9b565b610cc661104a565b8585611dba565b61076e610cd8611032565b610ce0610f9b565b610ce861104a565b868686611ea7565b600080610ca584846120ac565b60006108b16108ad60017fbfaaa2fb63266ff27c2da975f5894955056f50419af651a81f6c5060581857e46152ce565b60008061099c836120ea565b610d4e610d44610f9b565b868686868661211e565b5050505050565b730326d6cb0Cd09E57CFFcfDA36E67C0736CE5d31763460e635b610d77610f9b565b610d7f61104a565b6040516001600160e01b031960e085901b1681526001600160a01b039283166004820152908216602482015290851660448201526064810184905260840160006040518083038186803b158015610dd557600080fd5b505af4158015610743573d6000803e3d6000fd5b6000610df3610f9b565b6001600160a01b0316826001600160a01b0316149050919050565b610e16614646565b6107ba8383612305565b6060806060610782858561239a565b6000730326d6cb0Cd09E57CFFcfDA36E67C0736CE5d31763d789d548610e53610f9b565b610e5b61104a565b888888886040518763ffffffff1660e01b8152600401610e8096959493929190615386565b602060405180830381865af4158015610e9d573d6000803e3d6000fd5b505050506040513d601f19601f82011682018060405250810190610bd6919061529f565b730326d6cb0Cd09E57CFFcfDA36E67C0736CE5d31763c36f1d31610d77610f9b565b6000610eef83836125aa565b60028111156107ba576107ba6153d0565b6000816001600160a01b0316610f14610f9b565b6001600160a01b0316635aa6e6756040518163ffffffff1660e01b8152600401602060405180830381865afa158015610f51573d6000803e3d6000fd5b505050506040513d601f19601f82011682018060405250810190610f7591906153e6565b6001600160a01b03161492915050565b60006108b16125c3565b60006107ba83836125d6565b60006108b16108ad60017f5165972ef41194f06c5007493031d0b927c20741adcb74403b954009fd2c36186152ce565b6000610fd5612606565b6001600160a01b03909216600090815260029290920160205250604090205460ff1690565b7ff0c57e16840df040f15088dc2f81fe391c3923bec73e23a9662efc9c229c6a0090565b611026612610565b61102f81612637565b50565b600061103d33610ac2565b806108b157505032331490565b600061105533610ac2565b15611067575060131936013560601c90565b503390565b61107586612756565b611080838386612776565b61108a858461280f565b611095858484612898565b505060006110a38484612305565b905060006110b08761298b565b90506000816001600160a01b031663af6a572287876110cd6129ee565b6001600160a01b038b1660009081526002919091016020526040908190205490516001600160e01b031960e086901b16815261111393929160ff16908a90600401615435565b6020604051808303816000875af1158015611132573d6000803e3d6000fd5b505050506040513d601f19601f82011682018060405250810190611156919061529f565b835190915060ff166112d2576000886001600160a01b031663c3dfdae66040518163ffffffff1660e01b8152600401602060405180830381865afa1580156111a2573d6000803e3d6000fd5b505050506040513d601f19601f820116820180604052508101906111c691906153e6565b90506000806111fc6111d66129ee565b6001600160a01b038b16600090815260019190910160205260409020549060a082901c90565b90925090506001600160a01b03821661122c5781816040516333f7df9760e11b81526004016109ee929190614d14565b826001600160a01b0316826001600160a01b0316146112535750819050678ac7230489e800005b600061125f8583615462565b604051631e478ddf60e11b81526001600160a01b038581166004830152602482018390528d81166044830152919250908d1690633c8f1bbe90606401600060405180830381600087803b1580156112b557600080fd5b505af11580156112c9573d6000803e3d6000fd5b50505050505050505b7f670be388881e5c89a1832bbcb766dd58a782cafce815af1dbeda4188c1c34fb2868689876040516113079493929190615479565b60405180910390a1505050505050505050565b600060608060001960ff86160161133857611334846120ea565b9350505b60ff85166002148061134d575060ff85166003145b1561078957600061135c612606565b600901600061136b8888612a12565b8152602001908152602001600020905080600001549350600061139082600101612a2b565b9050806001600160401b038111156113aa576113aa614789565b6040519080825280602002602001820160405280156113d3578160200160208202803683370190505b509350806001600160401b038111156113ee576113ee614789565b60405190808252806020026020018201604052801561142157816020015b606081526020019060019003908161140c5790505b50925060005b818110156115145761143c6001840182612a35565b85828151811061144e5761144e6154a5565b602002602001019060ff16908160ff168152505082600301600086838151811061147a5761147a6154a5565b602002602001015160ff1660ff1681526020019081526020016000208054806020026020016040519081016040528092919081815260200182805480156114ea57602002820191906000526020600020905b81546001600160a01b031681526001909101906020018083116114cc575b5050505050848281518110611501576115016154a5565b6020908102919091010152600101611427565b5050509250925092565b61153061152a85612a41565b84612a81565b6107d561153c8561298b565b838360006001612ab5565b6000611551612606565b60050160006115696001600160a01b03861685612c4e565b815260208101919091526040016000205460ff169392505050565b61158d85612c9e565b6001600160a01b0382166115b45760405163ad1991f560e01b815260040160405180910390fd5b826115bd6129ee565b6001600160a01b0386811660009081526002929092016020526040909120805460ff191660ff93909316929092179091556115fa90831682612d2a565b6116026129ee565b6001600160a01b038681166000818152600193909301602090815260409384902094909455825190815260ff87169381019390935284168282015260608201839052517fc0155de360d47eaeaff9d27e2fb3819908a9025a3d325cd79d229592ead8df009181900360800190a15050505050565b6000611683848484612d77565b949350505050565b60008061099c611699612606565b600401846040516116aa91906154bb565b9081526020016040518091039020549060a082901c90565b60606116cc612606565b60030160006116e46001600160a01b03861685612c4e565b815260200190815260200160002080546116fd906154d7565b80601f0160208091040260200160405190810160405280929190818152602001828054611729906154d7565b80156117765780601f1061174b57610100808354040283529160200191611776565b820191906000526020600020905b81548152906001019060200180831161175957829003601f168201915b5050505050905092915050565b61178c87612756565b611797848487612776565b610c7f86858560008686612eec565b6117af8561330b565b610d4e85858560018686612eec565b60006117c86129ee565b6001600160a01b039092166000908152600b9290920160205250604090205460ff1690565b6000826001600160a01b0316846001600160a01b031614611823578360405163f652640360e01b81526004016109ee9190614eea565b61182c8361333e565b60006118388484612c4e565b90506118438661298b565b6001600160a01b031663f16a306685856040518363ffffffff1660e01b8152600401611870929190614d14565b602060405180830381865afa15801561188d573d6000803e3d6000fd5b505050506040513d601f19601f820116820180604052508101906118b19190615511565b156118c1576118c1816000613387565b6118cc868585612d77565b915060016118d8612606565b600801600083815260200190815260200160002060008282546118fb9190615373565b90915550919695505050505050565b6000806119168561298b565b9050610bd6816001600160a01b0316631f051fa086866040518363ffffffff1660e01b8152600401611949929190614d14565b600060405180830381865afa158015611966573d6000803e3d6000fd5b505050506040513d6000823e601f3d908101601f1916820160405261198e919081019061552e565b604051631a95890960e31b81526001600160a01b0384169063d4ac4848906119bc9089908990600401614d14565b60a060405180830381865afa1580156119d9573d6000803e3d6000fd5b505050506040513d601f19601f820116820180604052508101906119fd91906155bc565b5163ffffffff166133fe565b6000611a136129ee565b600c016000611a228787612c4e565b8152602081019190915260400160009081209060ff8516600885901b61ff0016178152602001908152602001600020549050949350505050565b600080611a71611a6b87612a41565b86612a81565b611a7a8461333e565b6000611a8f6001600160a01b03861685612c4e565b9050611ab8611a9c6129ee565b600083815260069190910160205260409020549060a082901c90565b90935091506001600160a01b03831615611db0576000611ad78861298b565b90506000611b59602b611ae86129ee565b6007016000868152602001908152602001600020805480602002602001604051908101604052809291908181526020018280548015611b4657602002820191906000526020600020905b815481526020019060010190808311611b32575b505050505061342190919063ffffffff16565b6040805160a0810182526001600160a01b038a81168252602082018a905281830184905260006060830181905260808301529151634ffa2edf60e11b815292935090841691639ff45dbe91611bb091600401615687565b600060405180830381600087803b158015611bca57600080fd5b505af1158015611bde573d6000803e3d6000fd5b50505050611bea6129ee565b6000848152600f9190910160205260408120611c0591614674565b611c0d6129ee565b60008481526006919091016020526040812055611c286129ee565b600084815260079190910160205260408120611c4391614674565b6000611c4e8a6134f1565b90506000816001600160a01b03166332aa45c888886040518363ffffffff1660e01b8152600401611c80929190614d14565b602060405180830381865afa158015611c9d573d6000803e3d6000fd5b505050506040513d601f19601f82011682018060405250810190611cc1919061529f565b905080600003611d0d577fd706d04d97d13bf3638215af61921215fca49e37cf4c1d91a2a07d1c7382787689898989604051611d0094939291906156e3565b60405180910390a1611dab565b604051630c1b5d1360e41b81526001600160a01b0383169063c1b5d13090611d3b908a908a90600401614d14565b600060405180830381600087803b158015611d5557600080fd5b505af1158015611d69573d6000803e3d6000fd5b505050507fe2a65884b136f54e31ab4bf0d7c084a299e4b5a0bebacd4492b264748ec9a2fb89898989604051611da294939291906156e3565b60405180910390a15b505050505b5094509492505050565b6060611dc68585613531565b611dcf8361333e565b6000611dda8661298b565b9050611df3611de887613593565b8286868960016135d3565b9150611e0481858560016000612ab5565b604051630852cd8d60e31b8152600481018490526001600160a01b038516906342966c6890602401600060405180830381600087803b158015611e4657600080fd5b505af1158015611e5a573d6000803e3d6000fd5b505050507f0a5a92d625a671065fa01b9e0e054b6a6844f5a7bee65a8502d60d3a6a601d46848487856000604051611e9695949392919061570d565b60405180910390a150949350505050565b611eb086612756565b611ebb838386612776565b611ec5858461280f565b6000611ed2868585612898565b50905060ff82161580611f4b5750806001600160a01b031663b2192fdd6040518163ffffffff1660e01b8152600401602060405180830381865afa158015611f1e573d6000803e3d6000fd5b505050506040513d601f19601f82011682018060405250810190611f429190615752565b60ff168260ff16115b15611f6e57604051637d34ca9360e01b815260ff831660048201526024016109ee565b604051630718609f60e11b81526000906001600160a01b03831690630e30c13e90611f9f9088908890600401614d14565b602060405180830381865afa158015611fbc573d6000803e3d6000fd5b505050506040513d601f19601f82011682018060405250810190611fe09190615752565b9050611fed81600161576f565b60ff168360ff1611156120185760405163c312099f60e01b815260ff841660048201526024016109ee565b826120216129ee565b60050160006120396001600160a01b03891688612c4e565b81526020808201929092526040908101600020805460ff191660ff94851617905580516001600160a01b03891681529182018790529185168183015290517f548528b5eab74a6b2c96d3ea6fb246d4bafc50e211c3973b47ec10ad0effe46f916060908290030190a15050505050505050565b600080610ca56120ba612606565b60060160006120d26001600160a01b03881687612c4e565b8152602001908152602001600020549060a082901c90565b60008061099c6120f8612606565b6001600160a01b038516600090815260019190910160205260409020549060a082901c90565b61212786612c9e565b60ff851660021480159061213f575060ff8516600314155b156121625760405163021610a960e61b815260ff861660048201526024016109ee565b600061216c612606565b600901600061217b8888612a12565b81526020019081526020016000209050600061219982600101612a2b565b905080156121f65760005b818110156121f45760006121bb6001850182612a35565b90506121cd6001850160ff8316613829565b5060ff8116600090815260038501602052604081206121eb91614674565b506001016121a4565b505b8351835181146122195760405163586cb9e160e01b815260040160405180910390fd5b6001600160481b038616835560005b818110156122cd57612262868281518110612245576122456154a5565b602002602001015160ff168560010161383590919063ffffffff16565b50848181518110612275576122756154a5565b6020026020010151846003016000888481518110612295576122956154a5565b602002602001015160ff1660ff16815260200190815260200160002090805190602001906122c4929190614692565b50600101612228565b507f175a187d26dec8ccd1362d67962fabe3a584231ec4f929b3516ef6e3389a30198888888888604051611307959493929190615788565b61230d614646565b6123156129ee565b600a0160006123248585612c4e565b81526020808201929092526040908101600020815160a081018352905460ff80821683526101008204811694830194909452620100008104909316151591810191909152630100000082046001600160481b03166060820152600160601b9091046001600160a01b031660808201529392505050565b606080606060006123a96129ee565b600f0160006123b88888612c4e565b815260200190815260200160002080548060200260200160405190810160405280929190818152602001828054801561241057602002820191906000526020600020905b8154815260200190600101908083116123fc575b5050835193945050821591506125a1905057806001600160401b0381111561243a5761243a614789565b604051908082528060200260200182016040528015612463578160200160208202803683370190505b509450806001600160401b0381111561247e5761247e614789565b6040519080825280602002602001820160405280156124a7578160200160208202803683370190505b509350806001600160401b038111156124c2576124c2614789565b6040519080825280602002602001820160405280156124eb578160200160208202803683370190505b50925060005b818110156115145761252e83828151811061250e5761250e6154a5565b6020026020010151906001600160401b0360a083901c169060e083901c90565b8063ffffffff169050888481518110612549576125496154a5565b60200260200101888581518110612562576125626154a5565b6020026020010188868151811061257b5761257b6154a5565b60209081029190910101929092529190526001600160a01b0390911690526001016124f1565b50509250925092565b60006125b4612606565b600e0160006115698585612c4e565b60006125cd6129ee565b600d0154905090565b60006125e0612606565b60080160006125ef8585612c4e565b815260200190815260200160002054905092915050565b60006108b16129ee565b612618613841565b61263557604051631afcd79f60e31b815260040160405180910390fd5b565b6001600160a01b03811661267f5760405162461bcd60e51b815260206004820152600f60248201526e2d32b9379031b7b73a3937b63632b960891b60448201526064016109ee565b6126ae81610a3f60017f5165972ef41194f06c5007493031d0b927c20741adcb74403b954009fd2c36186152ce565b6126dd42610a3f60017f6f55f470bdc9cb5f04223fd822021061668e4dccb43e8727b295106dc9769c8b6152ce565b61270c43610a3f60017f812a673dfca07956350df10f8a654925f561d7a0da09bdbe79e653939a14d9f16152ce565b604080516001600160a01b0383168152426020820152438183015290517f1a2dd071001ebf6e03174e3df5b305795a4ad5d41d8fdb9ba41dbbe2367134269181900360600190a150565b8061102f57336040516377817ac360e01b81526004016109ee9190614eea565b6040516331a9108f60e11b8152600481018390526001600160a01b038083169190851690636352211e90602401602060405180830381865afa1580156127c0573d6000803e3d6000fd5b505050506040513d601f19601f820116820180604052508101906127e491906153e6565b6001600160a01b03161461076e57828260405163547208b960e11b81526004016109ee929190614d14565b6128188161333e565b816001600160a01b03166318d928316040518163ffffffff1660e01b8152600401602060405180830381865afa158015612856573d6000803e3d6000fd5b505050506040513d601f19601f8201168201806040525081019061287a9190615511565b156107aa57604051635e1633d360e11b815260040160405180910390fd5b600080846001600160a01b031663683fedf76040518163ffffffff1660e01b8152600401602060405180830381865afa1580156128d9573d6000803e3d6000fd5b505050506040513d601f19601f820116820180604052508101906128fd91906153e6565b9150846001600160a01b0316628e96916040518163ffffffff1660e01b8152600401602060405180830381865afa15801561293c573d6000803e3d6000fd5b505050506040513d601f19601f8201168201806040525081019061296091906153e6565b905061296d82858561385b565b6129788585856138f0565b612983818585613a36565b935093915050565b6000816001600160a01b0316628e96916040518163ffffffff1660e01b8152600401602060405180830381865afa1580156129ca573d6000803e3d6000fd5b505050506040513d601f19601f8201168201806040525081019061064b91906153e6565b7fd333325b749986e76669f0e0c2c1aa0e0abd19e216c3678477196e408924140090565b610100600160a81b0360089190911b1660ff9091161790565b600061064b825490565b60006107ba8383613ac6565b6000816001600160a01b031663683fedf76040518163ffffffff1660e01b8152600401602060405180830381865afa1580156129ca573d6000803e3d6000fd5b806001600160a01b0316826001600160a01b0316146107aa578060405163cf219bef60e01b81526004016109ee9190614eea565b604051631a95890960e31b81526000906001600160a01b0387169063d4ac484890612ae69088908890600401614d14565b60a060405180830381865afa158015612b03573d6000803e3d6000fd5b505050506040513d601f19601f82011682018060405250810190612b2791906155bc565b9050856001600160a01b031663afb1a9ed86866040518060a00160405280600063ffffffff168152602001600063ffffffff168152602001866040015163ffffffff16815260200187612b7b576000612b81565b86606001515b63ffffffff16815260200188612b98576000612b9b565b60015b60ff1690526040805160e086901b6001600160e01b03191681526001600160a01b0390941660048501526024840192909252805163ffffffff908116604485015260208201518116606485015291810151821660848401526060810151821660a4840152608001511660c4820152600060e482015261010401600060405180830381600087803b158015612c2e57600080fd5b505af1158015612c42573d6000803e3d6000fd5b50505050505050505050565b60006001600160401b03821115612c7b57604051633995b34160e01b8152600481018390526024016109ee565b5067ffffffffffffffff60a01b60a09190911b166001600160a01b039091161790565b604051631430d62960e21b81526001600160a01b038216906350c358a490612cca903390600401614eea565b602060405180830381865afa158015612ce7573d6000803e3d6000fd5b505050506040513d601f19601f82011682018060405250810190612d0b9190615511565b61102f573360405163451cea1760e11b81526004016109ee9190614eea565b60006001600160601b03821115612d5757604051633995b34160e01b8152600481018390526024016109ee565b506001600160a01b031960a09190911b166001600160a01b039091161790565b6000612de5846001600160a01b031663683fedf76040518163ffffffff1660e01b8152600401602060405180830381865afa158015612dba573d6000803e3d6000fd5b505050506040513d601f19601f82011682018060405250810190612dde91906153e6565b848461385b565b836001600160a01b0316628e96916040518163ffffffff1660e01b8152600401602060405180830381865afa158015612e22573d6000803e3d6000fd5b505050506040513d601f19601f82011682018060405250810190612e4691906153e6565b6001600160a01b031663fbed9ac584846040518363ffffffff1660e01b8152600401612e73929190614d14565b600060405180830381865afa158015612e90573d6000803e3d6000fd5b505050506040513d6000823e601f3d908101601f19168201604052612eb891908101906157e2565b5115612ed7576040516303a684c160e51b815260040160405180910390fd5b612ee28484846138f0565b5060019392505050565b612ef6868661280f565b612f09612f0287612a41565b8686613af0565b6000612f1e6001600160a01b03871686612c4e565b90506000612f2a6129ee565b6000838152600691909101602052604090205414612f5b57604051631c93a6e960e31b815260040160405180910390fd5b6000612f668861298b565b90506000612f73896134f1565b9050612f80828686613b88565b612f886129ee565b600f0160008581526020019081526020016000209080519060200190612faf9291906146f7565b50606086613035576040516334622f6560e11b81526001600160a01b038316906368c45eca90612fe9908c908c908b908b906004016156e3565b6000604051808303816000875af1158015613008573d6000803e3d6000fd5b505050506040513d6000823e601f3d908101601f19168201604052613030919081019061552e565b6130ae565b60405163600c667360e01b81526001600160a01b0383169063600c667390613067908c908c908b908b906004016156e3565b6000604051808303816000875af1158015613086573d6000803e3d6000fd5b505050506040513d6000823e601f3d908101601f191682016040526130ae919081019061552e565b90506000836001600160a01b0316631f051fa08b8b6040518363ffffffff1660e01b81526004016130e0929190614d14565b600060405180830381865afa1580156130fd573d6000803e3d6000fd5b505050506040513d6000823e601f3d908101601f19168201604052613125919081019061552e565b6040805160a0810182526001600160a01b038d81168252602082018d905281830186905260016060830152600060808301529151634ffa2edf60e11b815292935090861691639ff45dbe9161317c91600401615687565b600060405180830381600087803b15801561319657600080fd5b505af11580156131aa573d6000803e3d6000fd5b506131c2925050506001600160a01b03881687612c4e565b6131ca6129ee565b600087815260069190910160205260409020556131e682613d2f565b6131ee6129ee565b600701600087815260200190815260200160002090805190602001906132159291906146f7565b50604051632e80ad4d60e11b81526001600160a01b03851690635d015a9a90613246908d908d908690600401615870565b600060405180830381600087803b15801561326057600080fd5b505af1158015613274573d6000803e3d6000fd5b5050505087156132c0577f6f8146918e4a56c3c0afd937ecf5aed94c8c1b4310cdc01a6b8950aed083f3458a8a89896040516132b394939291906156e3565b60405180910390a16132fe565b7fb03aa2b3e79085a007537123a0d347753f0349d22e18c9bd6b8d44d7bbbe2d238a8a89896040516132f594939291906156e3565b60405180910390a15b5050505050505050505050565b3361331582613593565b6001600160a01b03161461102f573360405163f6b9c4d960e01b81526004016109ee9190614eea565b6133466129ee565b6001600160a01b0382166000908152600291909101602052604081205460ff16900361102f578060405163adc7fced60e01b81526004016109ee9190614eea565b600060016133936129ee565b6000858152600e91909101602052604090205460ff1660028111156133ba576133ba6153d0565b149050811515811461076e5781156133e55760405163eb28d20b60e01b815260040160405180910390fd5b604051631ed7101960e21b815260040160405180910390fd5b600061340c6103e883615462565b613417846001613e38565b6107ba9190615373565b60606000826001600160401b0381111561343d5761343d614789565b604051908082528060200260200182016040528015613466578160200160208202803683370190505b50905060005b84518110156134e95760005b60088110156134e05760008161348f846008615462565b6134999190615373565b90508581106134a857506134e0565b6134b287826143c8565b8482815181106134c4576134c46154a5565b60039290920b6020928302919091019091015250600101613478565b5060010161346c565b509392505050565b6000816001600160a01b0316632f91ede96040518163ffffffff1660e01b8152600401602060405180830381865afa1580156129ca573d6000803e3d6000fd5b806001600160a01b031661354483612a41565b6001600160a01b0316141580156135755750806001600160a01b03166135698361442c565b6001600160a01b031614155b156107aa5760405163f20e063760e01b815260040160405180910390fd5b6000816001600160a01b03166331423c266040518163ffffffff1660e01b8152600401602060405180830381865afa1580156129ca573d6000803e3d6000fd5b60606000866001600160a01b031663fbed9ac587876040518363ffffffff1660e01b8152600401613605929190614d14565b600060405180830381865afa158015613622573d6000803e3d6000fd5b505050506040513d6000823e601f3d908101601f1916820160405261364a91908101906157e2565b8051909150806001600160401b0381111561366757613667614789565b604051908082528060200260200182016040528015613690578160200160208202803683370190505b50925060005b8181101561381c576000896001600160a01b0316633bdb788b8a8a8786815181106136c3576136c36154a5565b60200260200101516040518463ffffffff1660e01b81526004016136e993929190615897565b602060405180830381865afa158015613706573d6000803e3d6000fd5b505050506040513d601f19601f8201168201806040525081019061372a919061529f565b90506000808260a081901c915091508c6001600160a01b0316631af6585983838e8e8b8a8151811061375e5761375e6154a5565b60209081029190910101516040516001600160e01b031960e088901b1681526001600160a01b03958616600482015260248101949094529184166044840152606483015260ff166084820152908c1660a48201528a151560c482015260e401600060405180830381600087803b1580156137d757600080fd5b505af11580156137eb573d6000803e3d6000fd5b5050505082878581518110613802576138026154a5565b602002602001018181525050505050806001019050613696565b5050509695505050505050565b60006107ba838361446c565b60006107ba838361455f565b600061384b610ffa565b54600160401b900460ff16919050565b604051634d320f0160e11b81526001600160a01b03841690639a641e02906138899085908590600401614d14565b602060405180830381865afa1580156138a6573d6000803e3d6000fd5b505050506040513d601f19601f820116820180604052508101906138ca91906158c4565b6001600160401b03161561076e5760405162dc1c0b60e01b815260040160405180910390fd5b6138f9836134f1565b6001600160a01b0316635451da1b83836040518363ffffffff1660e01b8152600401613926929190614d14565b602060405180830381865afa158015613943573d6000803e3d6000fd5b505050506040513d601f19601f820116820180604052508101906139679190615511565b15613989578181604051634f38de4760e11b81526004016109ee929190614d14565b60006139948461442c565b90506001600160a01b03811615801590613a18575060405163ce4a79a960e01b81526001600160a01b0382169063ce4a79a9906139d79086908690600401614d14565b602060405180830381865afa1580156139f4573d6000803e3d6000fd5b505050506040513d601f19601f82011682018060405250810190613a189190615511565b156107d55760405163cba088b360e01b815260040160405180910390fd5b6040516378b5183360e11b81526001600160a01b0384169063f16a306690613a649085908590600401614d14565b602060405180830381865afa158015613a81573d6000803e3d6000fd5b505050506040513d601f19601f82011682018060405250810190613aa59190615511565b61076e57818160405163033aace360e41b81526004016109ee929190614d14565b6000826000018281548110613add57613add6154a5565b9060005260206000200154905092915050565b604051634d320f0160e11b81526001600160a01b03841690639a641e0290613b1e9085908590600401614d14565b602060405180830381865afa158015613b3b573d6000803e3d6000fd5b505050506040513d601f19601f82011682018060405250810190613b5f91906158c4565b6001600160401b031660000361076e576040516337bcc65160e01b815260040160405180910390fd5b60408051600380825260808201909252606091600091906020820184803683370190505090506000805b60038160ff161015613c965760006001600160a01b038816633bdb788b8888613bdc86600c61576f565b6040518463ffffffff1660e01b8152600401613bfa93929190615897565b602060405180830381865afa158015613c17573d6000803e3d6000fd5b505050506040513d601f19601f82011682018060405250810190613c3b919061529f565b90508015613c8d578060a081901c613c618282613c5987600c61576f565b60ff166145ae565b8686613c6c816158ed565b975081518110613c7e57613c7e6154a5565b60200260200101818152505050505b50600101613bb2565b50806001600160401b03811115613caf57613caf614789565b604051908082528060200260200182016040528015613cd8578160200160208202803683370190505b50925060005b81811015613d2557828181518110613cf857613cf86154a5565b6020026020010151848281518110613d1257613d126154a5565b6020908102919091010152600101613cde565b5050509392505050565b6060600060088351613d41919061591c565b613d4c906001615373565b90506000816001600160401b03811115613d6857613d68614789565b604051908082528060200260200182016040528015613d91578160200160208202803683370190505b50905060005b828110156134e95760005b6008811015613e2f57600081613db9846008615462565b613dc39190615373565b905086518110613dd35750613e2f565b613dde826020615462565b878281518110613df057613df06154a5565b602002602001015163ffffffff1660001b901b848481518110613e1557613e156154a5565b602090810291909101018051909117905250600101613da2565b50600101613d97565b600080600a613e77613e678660045b81518110613e5757613e576154a5565b602002602001015160030b614610565b613e72876005613e47565b61462b565b613e819190615462565b6101f4613e8f866008613e47565b613e999190615462565b600a613ea6876007613e47565b613eb09190615462565b6003613ebd886006613e47565b613ec79190615462565b6064613ed4896003613e47565b613ede9190615462565b6064613eeb8a6002613e47565b613ef59190615462565b6064613f028b6001613e47565b613f0c9190615462565b6064613f198c6000613e47565b613f239190615462565b613f2d9190615373565b613f379190615373565b613f419190615373565b613f4b9190615373565b613f559190615373565b613f5f9190615373565b613f699190615373565b613f739082615373565b90506064613f8285600d613e47565b613f8c9190615462565b6064613f9986600c613e47565b613fa39190615462565b6064613fb087600b613e47565b613fba9190615462565b613fc49190615373565b613fce9190615373565b613fd89082615373565b9050826107ba57600a613feb8582613e47565b613ff59190615462565b600a614002866009613e47565b61400c9190615462565b6140169190615373565b6140209082615373565b9050601461402f856015613e47565b6140399190615462565b60146140458682613e47565b61404f9190615462565b601461405c876013613e47565b6140669190615462565b6014614073886012613e47565b61407d9190615462565b601461408a896011613e47565b6140949190615462565b60146140a18a6010613e47565b6140ab9190615462565b60146140b88b600f613e47565b6140c29190615462565b60146140cf8c600e613e47565b6140d99190615462565b6140e39190615373565b6140ed9190615373565b6140f79190615373565b6141019190615373565b61410b9190615373565b6141159190615373565b61411f9190615373565b6141299082615373565b90506064614138856029613e47565b6141429190615462565b606461414f866026613e47565b6141599190615462565b6064614166876025613e47565b6141709190615462565b606461417d886024613e47565b6141879190615462565b6064614194896023613e47565b61419e9190615462565b60646141ab8a6022613e47565b6141b59190615462565b6141bf9190615373565b6141c99190615373565b6141d39190615373565b6141dd9190615373565b6141e79190615373565b6141f19082615373565b905060c861420085601d613e47565b61420a9190615462565b60c861421786601c613e47565b6142219190615462565b60c861422e87601b613e47565b6142389190615462565b60c861424588601a613e47565b61424f9190615462565b609661425c896019613e47565b6142669190615462565b61012c6142748a6017613e47565b61427e9190615462565b61271061428c8b6016613e47565b6142969190615462565b6142a09190615373565b6142aa9190615373565b6142b49190615373565b6142be9190615373565b6142c89190615373565b6142d29190615373565b6142dc9082615373565b905060466142eb85602a613e47565b6142f59190615462565b60fa614302866028613e47565b61430c9190615462565b60fa614319876027613e47565b6143239190615462565b6101f4614331886021613e47565b61433b9190615462565b6103e8614349896020613e47565b6143539190615462565b6103e86143618a601f613e47565b61436b9190615462565b60c86143788b601e613e47565b6143829190615462565b61438c9190615373565b6143969190615373565b6143a09190615373565b6143aa9190615373565b6143b49190615373565b6143be9190615373565b6116839082615373565b81516000906143d860088461591c565b106143e55750600061064b565b6143f0600883615930565b6143fb906020615462565b8361440760088561591c565b81518110614417576144176154a5565b602002602001015160001c901c905092915050565b6000816001600160a01b031663a27218ac6040518163ffffffff1660e01b8152600401602060405180830381865afa1580156129ca573d6000803e3d6000fd5b600081815260018301602052604081205480156145555760006144906001836152ce565b85549091506000906144a4906001906152ce565b90508082146145095760008660000182815481106144c4576144c46154a5565b90600052602060002001549050808760000184815481106144e7576144e76154a5565b6000918252602080832090910192909255918252600188019052604090208390555b855486908061451a5761451a615944565b60019003818190600052602060002001600090559055856001016000868152602001908152602001600020600090556001935050505061064b565b600091505061064b565b60008181526001830160205260408120546145a65750815460018181018455600084815260208082209093018490558454848252828601909352604090209190915561064b565b50600061064b565b60006001600160401b038311156145db57604051633995b34160e01b8152600481018490526024016109ee565b506001600160a01b039290921660a09190911b67ffffffffffffffff60a01b161760e09190911b6001600160e01b0319161790565b6000808260030b1361462457506000919050565b5060030b90565b600061463a600284841861591c565b6107ba90848416615373565b6040805160a08101825260008082526020820181905291810182905260608101829052608081019190915290565b508054600082559060005260206000209081019061102f9190614732565b8280548282559060005260206000209081019282156146e7579160200282015b828111156146e757825182546001600160a01b0319166001600160a01b039091161782556020909201916001909101906146b2565b506146f3929150614732565b5090565b8280548282559060005260206000209081019282156146e7579160200282015b828111156146e7578251825591602001919060010190614717565b5b808211156146f35760008155600101614733565b6001600160a01b038116811461102f57600080fd5b803561476781614747565b919050565b60006020828403121561477e57600080fd5b81356107ba81614747565b634e487b7160e01b600052604160045260246000fd5b60405160e081016001600160401b03811182821017156147c1576147c1614789565b60405290565b604051601f8201601f191681016001600160401b03811182821017156147ef576147ef614789565b604052919050565b8060030b811461102f57600080fd5b600080600083850360c081121561481c57600080fd5b843561482781614747565b9350602085013592506080603f198201121561484257600080fd5b50604051608081018181106001600160401b038211171561486557614865614789565b6040908152850135614876816147f7565b81526060850135614886816147f7565b60208201526080850135614899816147f7565b604082015260a08501356148ac816147f7565b606082015292959194509192509050565b60ff8116811461102f57600080fd5b8035614767816148bd565b600080604083850312156148ea57600080fd5b82356148f5816148bd565b9150602083013561490581614747565b809150509250929050565b60008151808452602080850194506020840160005b8381101561494457815160ff1687529582019590820190600101614925565b509495945050505050565b600082825180855260208086019550808260051b8401018186016000805b858110156149c957868403601f19018a52825180518086529086019086860190845b818110156149b45783516001600160a01b03168352928801929188019160010161498f565b50509a86019a9450509184019160010161496d565b509198975050505050505050565b8381526060602082015260006149f06060830185614910565b8281036040840152614a02818561494f565b9695505050505050565b60008060408385031215614a1f57600080fd5b8235614a2a81614747565b946020939093013593505050565b60008060008060808587031215614a4e57600080fd5b8435614a5981614747565b93506020850135614a69816148bd565b92506040850135614a7981614747565b9396929550929360600135925050565b801515811461102f57600080fd5b803561476781614a89565b600082601f830112614ab357600080fd5b81356001600160401b03811115614acc57614acc614789565b614adf601f8201601f19166020016147c7565b818152846020838601011115614af457600080fd5b816020850160208301376000918101602001919091529392505050565b60008060408385031215614b2457600080fd5b8235614b2f81614747565b915060208301356001600160401b0380821115614b4b57600080fd5b9084019060e08287031215614b5f57600080fd5b614b6761479f565b614b70836148cc565b8152614b7e602084016148cc565b6020820152614b8f60408401614a97565b6040820152606083013582811115614ba657600080fd5b614bb288828601614aa2565b606083015250614bc46080840161475c565b608082015260a083013582811115614bdb57600080fd5b614be788828601614aa2565b60a083015250614bf960c08401614a97565b60c08201528093505050509250929050565b60008083601f840112614c1d57600080fd5b5081356001600160401b03811115614c3457600080fd5b602083019150836020828501011115610caa57600080fd5b60008060008060008060808789031215614c6557600080fd5b8635614c7081614747565b955060208701356001600160401b0380821115614c8c57600080fd5b614c988a838b01614c0b565b90975095506040890135915080821115614cb157600080fd5b50614cbe89828a01614c0b565b9094509250506060870135614cd281614a89565b809150509295509295509295565b600060208284031215614cf257600080fd5b81356001600160401b03811115614d0857600080fd5b61168384828501614aa2565b6001600160a01b03929092168252602082015260400190565b60005b83811015614d48578181015183820152602001614d30565b50506000910152565b60008151808452614d69816020860160208601614d2d565b601f01601f19169290920160200192915050565b6020815260006107ba6020830184614d51565b60008060008060808587031215614da657600080fd5b8435614db181614747565b9350602085013592506040850135614a7981614747565b60008060008060808587031215614dde57600080fd5b8435614de981614747565b9350602085013592506040850135614e00816148bd565b91506060850135614e10816148bd565b939692955090935050565b63ffffffff8116811461102f57600080fd5b600080600060608486031215614e4257600080fd5b8335614e4d81614747565b9250602084013591506040840135614e6481614e1b565b809150509250925092565b60008151808452602080850194506020840160005b8381101561494457815187529582019590820190600101614e84565b6020815260006107ba6020830184614e6f565b600080600060608486031215614ec857600080fd5b8335614ed381614747565b9250602084013591506040840135614e64816148bd565b6001600160a01b0391909116815260200190565b60006001600160401b03821115614f1757614f17614789565b5060051b60200190565b600082601f830112614f3257600080fd5b81356020614f47614f4283614efe565b6147c7565b828152600592831b8501820192828201919087851115614f6657600080fd5b8387015b858110156150055780356001600160401b03811115614f895760008081fd5b8801603f81018a13614f9b5760008081fd5b858101356040614fad614f4283614efe565b82815291851b8301810191888101908d841115614fca5760008081fd5b938201935b83851015614ff45784359250614fe483614747565b8282529389019390890190614fcf565b885250505093850193508401614f6a565b5090979650505050505050565b600080600080600060a0868803121561502a57600080fd5b8535615035816148bd565b945060208681013561504681614747565b945060408701356001600160481b038116811461506257600080fd5b935060608701356001600160401b038082111561507e57600080fd5b818901915089601f83011261509257600080fd5b81356150a0614f4282614efe565b81815260059190911b8301840190848101908c8311156150bf57600080fd5b938501935b828510156150e65784356150d7816148bd565b825293850193908501906150c4565b9650505060808901359250808311156150fe57600080fd5b505061510c88828901614f21565b9150509295509295909350565b606080825284519082018190526000906020906080840190828801845b8281101561515b5781516001600160a01b031684529284019290840190600101615136565b50505083810360208501526151708187614e6f565b9150508281036040840152614a028185614e6f565b6000806000806060858703121561519b57600080fd5b84356151a681614747565b935060208501356001600160401b038111156151c157600080fd5b6151cd87828801614c0b565b9094509250506040850135614e1081614a89565b600060018060a01b03808716835280861660208401528085166040840152506080606083015260ff835116608083015260ff60208401511660a08301526040830151151560c0830152606083015160e080840152615243610160840182614d51565b905060808401516152606101008501826001600160a01b03169052565b5060a0840151838203607f190161012085015261527d8282614d51565b91505060c084015161529461014085018215159052565b509695505050505050565b6000602082840312156152b157600080fd5b5051919050565b634e487b7160e01b600052601160045260246000fd5b8181038181111561064b5761064b6152b8565b81835281816020850137506000828201602090810191909152601f909101601f19169091010190565b89151581526001600160a01b03898116602083015288811660408301528716606082015260e06080820181905260009061534790830187896152e1565b82810360a084015261535a8186886152e1565b91505082151560c08301529a9950505050505050505050565b8082018082111561064b5761064b6152b8565b6001600160a01b03878116825286811660208301528516604082015260a0606082018190526000906153bb90830185876152e1565b90508215156080830152979650505050505050565b634e487b7160e01b600052602160045260246000fd5b6000602082840312156153f857600080fd5b81516107ba81614747565b805160030b8252602081015160030b6020830152604081015160030b6040830152606081015160030b60608301525050565b6001600160a01b03851681526020810184905260ff8316604082015260e08101610bd66060830184615403565b808202811582820484141761064b5761064b6152b8565b6001600160a01b038581168252602082018590528316604082015260e08101610bd66060830184615403565b634e487b7160e01b600052603260045260246000fd5b600082516154cd818460208701614d2d565b9190910192915050565b600181811c908216806154eb57607f821691505b60208210810361550b57634e487b7160e01b600052602260045260246000fd5b50919050565b60006020828403121561552357600080fd5b81516107ba81614a89565b6000602080838503121561554157600080fd5b82516001600160401b0381111561555757600080fd5b8301601f8101851361556857600080fd5b8051615576614f4282614efe565b81815260059190911b8201830190838101908783111561559557600080fd5b928401925b828410156109555783516155ad816147f7565b8252928401929084019061559a565b600060a082840312156155ce57600080fd5b60405160a081018181106001600160401b03821117156155f0576155f0614789565b60405282516155fe81614e1b565b8152602083015161560e81614e1b565b6020820152604083015161562181614e1b565b6040820152606083015161563481614e1b565b6060820152608083015161564781614e1b565b60808201529392505050565b60008151808452602080850194506020840160005b8381101561494457815160030b87529582019590820190600101615668565b6020815260018060a01b038251166020820152602082015160408201526000604083015160a060608401526156bf60c0840182615653565b90506060840151151560808401526080840151151560a08401528091505092915050565b6001600160a01b039485168152602081019390935292166040820152606081019190915260800190565b6001600160a01b038681168252602082018690528416604082015260a06060820181905260009061574090830185614e6f565b90508260808301529695505050505050565b60006020828403121561576457600080fd5b81516107ba816148bd565b60ff818116838216019081111561064b5761064b6152b8565b60ff861681526001600160a01b03851660208201526001600160481b038416604082015260a0606082018190526000906157c490830185614910565b82810360808401526157d6818561494f565b98975050505050505050565b600060208083850312156157f557600080fd5b82516001600160401b0381111561580b57600080fd5b8301601f8101851361581c57600080fd5b805161582a614f4282614efe565b81815260059190911b8201830190838101908783111561584957600080fd5b928401925b82841015610955578351615861816148bd565b8252928401929084019061584e565b60018060a01b0384168152826020820152606060408201526000610bd66060830184615653565b6001600160a01b039390931683526001600160401b0391909116602083015260ff16604082015260600190565b6000602082840312156158d657600080fd5b81516001600160401b03811681146107ba57600080fd5b6000600182016158ff576158ff6152b8565b5060010190565b634e487b7160e01b600052601260045260246000fd5b60008261592b5761592b615906565b500490565b60008261593f5761593f615906565b500690565b634e487b7160e01b600052603160045260246000fdfe22573091f17911fb166032a3d9e0554aa73d31b7b7ddea4a4dd2995650af84bda2646970667358221220bb55161e205d94ab613690df7efd38ea4bfa8b898d0ce00d8bbeef176121ba0c64736f6c63430008170033",
  "deployedBytecode": "0x608060405234801561001057600080fd5b50600436106102345760003560e01c80637e57699811610131578063b429afeb116100b3578063b429afeb1461050c578063bcd418b01461051f578063d18e37241461058b578063d360a9c1146105ad578063daa579c9146105c0578063dec38e77146105d3578063dee1f0e4146105e6578063df13f489146105f9578063ec5316b514610601578063f77c479114610614578063ffa1ad741461061c57600080fd5b80637e5769981461041b578063865969881461042e57806387a97d3f1461044157806392707802146104545780639325fac614610474578063936725ec1461048757806395f0d29a146104ab5780639d0bcca0146104be578063a13cf106146104d3578063a2959fbe146104e6578063a433af6f146104f957600080fd5b80634593144c116101ba5780634593144c14610345578063498abc701461034d5780634fac6ccd1461036e578063542c7b4614610381578063572b6c05146103a1578063602b419c146103b4578063608fa40d146103c757806362a62a9d146103da578063649dab39146103ed5780637401edba146104005780637cc963801461041357600080fd5b80631789b7b11461023957806319ab453c146102635780631cb3cd4f146102785780631dca7e301461028b5780631e78fd71146102ad5780631ebd2493146102c057806320b7c941146102d357806327238f12146102e657806329dcfc1814610309578063325a19f11461032a5780633b6d15c614610332575b600080fd5b61024c61024736600461476c565b610640565b60405160ff90911681526020015b60405180910390f35b61027661027136600461476c565b610651565b005b610276610286366004614806565b61074b565b61029e6102993660046148d7565b610773565b60405161025a939291906149d7565b6102766102bb366004614a0c565b610790565b61024c6102ce366004614a0c565b6107ae565b6102766102e1366004614a38565b6107c1565b6102f96102f4366004614a0c565b6107db565b604051901515815260200161025a565b61031c610317366004614b11565b6107ef565b60405190815260200161025a565b61031c61087d565b61031c610340366004614c4c565b6108b6565b61031c610960565b61036061035b366004614ce0565b610990565b60405161025a929190614d14565b61027661037c36600461476c565b6109a5565b61039461038f366004614a0c565b610ab6565b60405161025a9190614d7d565b6102f96103af36600461476c565b610ac2565b6102766103c2366004614d90565b610b37565b6102766103d5366004614d90565b610b5b565b61031c6103e836600461476c565b610b6f565b6102f96103fb366004614a0c565b610b7a565b61031c61040e366004614a0c565b610b96565b61031c610baa565b61031c610429366004614dc8565b610bc8565b61027661043c366004614e2d565b610bdf565b61036061044f366004614a0c565b610c88565b610467610462366004614a0c565b610cb1565b60405161025a9190614ea0565b610276610482366004614eb3565b610ccd565b610394604051806040016040528060058152602001640312e302e360dc1b81525081565b6103606104b9366004614a0c565b610cf0565b6104c6610cfd565b60405161025a9190614eea565b6103606104e136600461476c565b610d2d565b6102766104f4366004615012565b610d39565b610276610507366004614a0c565b610d55565b6102f961051a36600461476c565b610de9565b61053261052d366004614a0c565b610e0e565b60405161025a9190815160ff9081168252602080840151909116908201526040808301511515908201526060808301516001600160481b0316908201526080918201516001600160a01b03169181019190915260a00190565b61059e610599366004614a0c565b610e20565b60405161025a93929190615119565b61031c6105bb366004615185565b610e2f565b6102766105ce366004614a0c565b610ec1565b61024c6105e1366004614a0c565b610ee3565b6102f96105f436600461476c565b610f00565b61031c610f85565b61031c61060f366004614a0c565b610f8f565b6104c6610f9b565b61039460405180604001604052806005815260200164312e302e3360d81b81525081565b600061064b82610fcb565b92915050565b600061065b610ffa565b805490915060ff600160401b82041615906001600160401b03166000811580156106825750825b90506000826001600160401b0316600114801561069e5750303b155b9050811580156106ac575080155b156106ca5760405163f92ee8a960e01b815260040160405180910390fd5b845467ffffffffffffffff1916600117855583156106f457845460ff60401b1916600160401b1785555b6106fd8661101e565b831561074357845460ff60401b19168555604051600181527fc7f505b2f371ae2175ee4913f4499e1f2633a7b5936321eed1cdaeb6115181d29060200160405180910390a15b505050505050565b61076e610756611032565b61075e610f9b565b61076661104a565b86868661106c565b505050565b6000606080610782858561131a565b9250925092505b9250925092565b6107aa61079b610f9b565b6107a361104a565b848461151e565b5050565b60006107ba8383611547565b9392505050565b6107d56107cc610f9b565b85858585611584565b50505050565b60006107ba6107e8610f9b565b8484611676565b600073__$4dd4e34d4146e87275b31ad86b20f00477$__6376e3ae2c610813610f9b565b61081b61104a565b86866040518563ffffffff1660e01b815260040161083c94939291906151e1565b602060405180830381865af4158015610859573d6000803e3d6000fd5b505050506040513d601f19601f820116820180604052508101906107ba919061529f565b60006108b16108ad60017f6f55f470bdc9cb5f04223fd822021061668e4dccb43e8727b295106dc9769c8b6152ce565b5490565b905090565b600073__$4dd4e34d4146e87275b31ad86b20f00477$__635758ba7c6108da611032565b6108e2610f9b565b6108ea61104a565b8b8b8b8b8b8b6040518a63ffffffff1660e01b81526004016109149998979695949392919061530a565b602060405180830381865af4158015610931573d6000803e3d6000fd5b505050506040513d601f19601f82011682018060405250810190610955919061529f565b979650505050505050565b60006108b16108ad60017f812a673dfca07956350df10f8a654925f561d7a0da09bdbe79e653939a14d9f16152ce565b60008061099c8361168b565b91509150915091565b3330146109f75760405162461bcd60e51b815260206004820152601b60248201527a24b731b932b0b9b2903932bb34b9b4b7b7103337b93134b23232b760291b60448201526064015b60405180910390fd5b6000610a156108ad600160008051602061595b8339815191526152ce565b610a20906001615373565b9050610a4281610a3f600160008051602061595b8339815191526152ce565b55565b610a7182610a3f60017fbfaaa2fb63266ff27c2da975f5894955056f50419af651a81f6c5060581857e46152ce565b604080518281526001600160a01b03841660208201527ff27e2ef832a4eb8ed8ec553b875eecd44764cda95b1c24170e281539e0a869c8910160405180910390a15050565b60606107ba83836116c2565b60006001600160a01b03821673d8253782c45a12053594b9deb72d8e8ab2fca54c1480610b0b57506001600160a01b0382167352ceba41da235af367bfc0b0ccd3314cb901bb5f145b8061064b57506001600160a01b03821673102f1f556cd9c3d5f820e6920a8931657c5da21b1492915050565b6107d5610b42611032565b610b4a610f9b565b610b5261104a565b87878787611783565b6107d5610b66610f9b565b858585856117a6565b600061064b826117be565b60006107ba610b87610f9b565b610b8f61104a565b85856117ed565b60006107ba610ba3610f9b565b848461190a565b60006108b16108ad600160008051602061595b8339815191526152ce565b6000610bd685858585611a09565b95945050505050565b73__$4dd4e34d4146e87275b31ad86b20f00477$__63607b2a50610c01610f9b565b610c0961104a565b6040516001600160e01b031960e085901b1681526001600160a01b039283166004820152908216602482015290861660448201526064810185905263ffffffff8416608482015260a40160006040518083038186803b158015610c6b57600080fd5b505af4158015610c7f573d6000803e3d6000fd5b50505050505050565b600080610ca5610c96610f9b565b610c9e61104a565b8686611a5c565b915091505b9250929050565b60606107ba610cbe610f9b565b610cc661104a565b8585611dba565b61076e610cd8611032565b610ce0610f9b565b610ce861104a565b868686611ea7565b600080610ca584846120ac565b60006108b16108ad60017fbfaaa2fb63266ff27c2da975f5894955056f50419af651a81f6c5060581857e46152ce565b60008061099c836120ea565b610d4e610d44610f9b565b868686868661211e565b5050505050565b73__$4dd4e34d4146e87275b31ad86b20f00477$__63460e635b610d77610f9b565b610d7f61104a565b6040516001600160e01b031960e085901b1681526001600160a01b039283166004820152908216602482015290851660448201526064810184905260840160006040518083038186803b158015610dd557600080fd5b505af4158015610743573d6000803e3d6000fd5b6000610df3610f9b565b6001600160a01b0316826001600160a01b0316149050919050565b610e16614646565b6107ba8383612305565b6060806060610782858561239a565b600073__$4dd4e34d4146e87275b31ad86b20f00477$__63d789d548610e53610f9b565b610e5b61104a565b888888886040518763ffffffff1660e01b8152600401610e8096959493929190615386565b602060405180830381865af4158015610e9d573d6000803e3d6000fd5b505050506040513d601f19601f82011682018060405250810190610bd6919061529f565b73__$4dd4e34d4146e87275b31ad86b20f00477$__63c36f1d31610d77610f9b565b6000610eef83836125aa565b60028111156107ba576107ba6153d0565b6000816001600160a01b0316610f14610f9b565b6001600160a01b0316635aa6e6756040518163ffffffff1660e01b8152600401602060405180830381865afa158015610f51573d6000803e3d6000fd5b505050506040513d601f19601f82011682018060405250810190610f7591906153e6565b6001600160a01b03161492915050565b60006108b16125c3565b60006107ba83836125d6565b60006108b16108ad60017f5165972ef41194f06c5007493031d0b927c20741adcb74403b954009fd2c36186152ce565b6000610fd5612606565b6001600160a01b03909216600090815260029290920160205250604090205460ff1690565b7ff0c57e16840df040f15088dc2f81fe391c3923bec73e23a9662efc9c229c6a0090565b611026612610565b61102f81612637565b50565b600061103d33610ac2565b806108b157505032331490565b600061105533610ac2565b15611067575060131936013560601c90565b503390565b61107586612756565b611080838386612776565b61108a858461280f565b611095858484612898565b505060006110a38484612305565b905060006110b08761298b565b90506000816001600160a01b031663af6a572287876110cd6129ee565b6001600160a01b038b1660009081526002919091016020526040908190205490516001600160e01b031960e086901b16815261111393929160ff16908a90600401615435565b6020604051808303816000875af1158015611132573d6000803e3d6000fd5b505050506040513d601f19601f82011682018060405250810190611156919061529f565b835190915060ff166112d2576000886001600160a01b031663c3dfdae66040518163ffffffff1660e01b8152600401602060405180830381865afa1580156111a2573d6000803e3d6000fd5b505050506040513d601f19601f820116820180604052508101906111c691906153e6565b90506000806111fc6111d66129ee565b6001600160a01b038b16600090815260019190910160205260409020549060a082901c90565b90925090506001600160a01b03821661122c5781816040516333f7df9760e11b81526004016109ee929190614d14565b826001600160a01b0316826001600160a01b0316146112535750819050678ac7230489e800005b600061125f8583615462565b604051631e478ddf60e11b81526001600160a01b038581166004830152602482018390528d81166044830152919250908d1690633c8f1bbe90606401600060405180830381600087803b1580156112b557600080fd5b505af11580156112c9573d6000803e3d6000fd5b50505050505050505b7f670be388881e5c89a1832bbcb766dd58a782cafce815af1dbeda4188c1c34fb2868689876040516113079493929190615479565b60405180910390a1505050505050505050565b600060608060001960ff86160161133857611334846120ea565b9350505b60ff85166002148061134d575060ff85166003145b1561078957600061135c612606565b600901600061136b8888612a12565b8152602001908152602001600020905080600001549350600061139082600101612a2b565b9050806001600160401b038111156113aa576113aa614789565b6040519080825280602002602001820160405280156113d3578160200160208202803683370190505b509350806001600160401b038111156113ee576113ee614789565b60405190808252806020026020018201604052801561142157816020015b606081526020019060019003908161140c5790505b50925060005b818110156115145761143c6001840182612a35565b85828151811061144e5761144e6154a5565b602002602001019060ff16908160ff168152505082600301600086838151811061147a5761147a6154a5565b602002602001015160ff1660ff1681526020019081526020016000208054806020026020016040519081016040528092919081815260200182805480156114ea57602002820191906000526020600020905b81546001600160a01b031681526001909101906020018083116114cc575b5050505050848281518110611501576115016154a5565b6020908102919091010152600101611427565b5050509250925092565b61153061152a85612a41565b84612a81565b6107d561153c8561298b565b838360006001612ab5565b6000611551612606565b60050160006115696001600160a01b03861685612c4e565b815260208101919091526040016000205460ff169392505050565b61158d85612c9e565b6001600160a01b0382166115b45760405163ad1991f560e01b815260040160405180910390fd5b826115bd6129ee565b6001600160a01b0386811660009081526002929092016020526040909120805460ff191660ff93909316929092179091556115fa90831682612d2a565b6116026129ee565b6001600160a01b038681166000818152600193909301602090815260409384902094909455825190815260ff87169381019390935284168282015260608201839052517fc0155de360d47eaeaff9d27e2fb3819908a9025a3d325cd79d229592ead8df009181900360800190a15050505050565b6000611683848484612d77565b949350505050565b60008061099c611699612606565b600401846040516116aa91906154bb565b9081526020016040518091039020549060a082901c90565b60606116cc612606565b60030160006116e46001600160a01b03861685612c4e565b815260200190815260200160002080546116fd906154d7565b80601f0160208091040260200160405190810160405280929190818152602001828054611729906154d7565b80156117765780601f1061174b57610100808354040283529160200191611776565b820191906000526020600020905b81548152906001019060200180831161175957829003601f168201915b5050505050905092915050565b61178c87612756565b611797848487612776565b610c7f86858560008686612eec565b6117af8561330b565b610d4e85858560018686612eec565b60006117c86129ee565b6001600160a01b039092166000908152600b9290920160205250604090205460ff1690565b6000826001600160a01b0316846001600160a01b031614611823578360405163f652640360e01b81526004016109ee9190614eea565b61182c8361333e565b60006118388484612c4e565b90506118438661298b565b6001600160a01b031663f16a306685856040518363ffffffff1660e01b8152600401611870929190614d14565b602060405180830381865afa15801561188d573d6000803e3d6000fd5b505050506040513d601f19601f820116820180604052508101906118b19190615511565b156118c1576118c1816000613387565b6118cc868585612d77565b915060016118d8612606565b600801600083815260200190815260200160002060008282546118fb9190615373565b90915550919695505050505050565b6000806119168561298b565b9050610bd6816001600160a01b0316631f051fa086866040518363ffffffff1660e01b8152600401611949929190614d14565b600060405180830381865afa158015611966573d6000803e3d6000fd5b505050506040513d6000823e601f3d908101601f1916820160405261198e919081019061552e565b604051631a95890960e31b81526001600160a01b0384169063d4ac4848906119bc9089908990600401614d14565b60a060405180830381865afa1580156119d9573d6000803e3d6000fd5b505050506040513d601f19601f820116820180604052508101906119fd91906155bc565b5163ffffffff166133fe565b6000611a136129ee565b600c016000611a228787612c4e565b8152602081019190915260400160009081209060ff8516600885901b61ff0016178152602001908152602001600020549050949350505050565b600080611a71611a6b87612a41565b86612a81565b611a7a8461333e565b6000611a8f6001600160a01b03861685612c4e565b9050611ab8611a9c6129ee565b600083815260069190910160205260409020549060a082901c90565b90935091506001600160a01b03831615611db0576000611ad78861298b565b90506000611b59602b611ae86129ee565b6007016000868152602001908152602001600020805480602002602001604051908101604052809291908181526020018280548015611b4657602002820191906000526020600020905b815481526020019060010190808311611b32575b505050505061342190919063ffffffff16565b6040805160a0810182526001600160a01b038a81168252602082018a905281830184905260006060830181905260808301529151634ffa2edf60e11b815292935090841691639ff45dbe91611bb091600401615687565b600060405180830381600087803b158015611bca57600080fd5b505af1158015611bde573d6000803e3d6000fd5b50505050611bea6129ee565b6000848152600f9190910160205260408120611c0591614674565b611c0d6129ee565b60008481526006919091016020526040812055611c286129ee565b600084815260079190910160205260408120611c4391614674565b6000611c4e8a6134f1565b90506000816001600160a01b03166332aa45c888886040518363ffffffff1660e01b8152600401611c80929190614d14565b602060405180830381865afa158015611c9d573d6000803e3d6000fd5b505050506040513d601f19601f82011682018060405250810190611cc1919061529f565b905080600003611d0d577fd706d04d97d13bf3638215af61921215fca49e37cf4c1d91a2a07d1c7382787689898989604051611d0094939291906156e3565b60405180910390a1611dab565b604051630c1b5d1360e41b81526001600160a01b0383169063c1b5d13090611d3b908a908a90600401614d14565b600060405180830381600087803b158015611d5557600080fd5b505af1158015611d69573d6000803e3d6000fd5b505050507fe2a65884b136f54e31ab4bf0d7c084a299e4b5a0bebacd4492b264748ec9a2fb89898989604051611da294939291906156e3565b60405180910390a15b505050505b5094509492505050565b6060611dc68585613531565b611dcf8361333e565b6000611dda8661298b565b9050611df3611de887613593565b8286868960016135d3565b9150611e0481858560016000612ab5565b604051630852cd8d60e31b8152600481018490526001600160a01b038516906342966c6890602401600060405180830381600087803b158015611e4657600080fd5b505af1158015611e5a573d6000803e3d6000fd5b505050507f0a5a92d625a671065fa01b9e0e054b6a6844f5a7bee65a8502d60d3a6a601d46848487856000604051611e9695949392919061570d565b60405180910390a150949350505050565b611eb086612756565b611ebb838386612776565b611ec5858461280f565b6000611ed2868585612898565b50905060ff82161580611f4b5750806001600160a01b031663b2192fdd6040518163ffffffff1660e01b8152600401602060405180830381865afa158015611f1e573d6000803e3d6000fd5b505050506040513d601f19601f82011682018060405250810190611f429190615752565b60ff168260ff16115b15611f6e57604051637d34ca9360e01b815260ff831660048201526024016109ee565b604051630718609f60e11b81526000906001600160a01b03831690630e30c13e90611f9f9088908890600401614d14565b602060405180830381865afa158015611fbc573d6000803e3d6000fd5b505050506040513d601f19601f82011682018060405250810190611fe09190615752565b9050611fed81600161576f565b60ff168360ff1611156120185760405163c312099f60e01b815260ff841660048201526024016109ee565b826120216129ee565b60050160006120396001600160a01b03891688612c4e565b81526020808201929092526040908101600020805460ff191660ff94851617905580516001600160a01b03891681529182018790529185168183015290517f548528b5eab74a6b2c96d3ea6fb246d4bafc50e211c3973b47ec10ad0effe46f916060908290030190a15050505050505050565b600080610ca56120ba612606565b60060160006120d26001600160a01b03881687612c4e565b8152602001908152602001600020549060a082901c90565b60008061099c6120f8612606565b6001600160a01b038516600090815260019190910160205260409020549060a082901c90565b61212786612c9e565b60ff851660021480159061213f575060ff8516600314155b156121625760405163021610a960e61b815260ff861660048201526024016109ee565b600061216c612606565b600901600061217b8888612a12565b81526020019081526020016000209050600061219982600101612a2b565b905080156121f65760005b818110156121f45760006121bb6001850182612a35565b90506121cd6001850160ff8316613829565b5060ff8116600090815260038501602052604081206121eb91614674565b506001016121a4565b505b8351835181146122195760405163586cb9e160e01b815260040160405180910390fd5b6001600160481b038616835560005b818110156122cd57612262868281518110612245576122456154a5565b602002602001015160ff168560010161383590919063ffffffff16565b50848181518110612275576122756154a5565b6020026020010151846003016000888481518110612295576122956154a5565b602002602001015160ff1660ff16815260200190815260200160002090805190602001906122c4929190614692565b50600101612228565b507f175a187d26dec8ccd1362d67962fabe3a584231ec4f929b3516ef6e3389a30198888888888604051611307959493929190615788565b61230d614646565b6123156129ee565b600a0160006123248585612c4e565b81526020808201929092526040908101600020815160a081018352905460ff80821683526101008204811694830194909452620100008104909316151591810191909152630100000082046001600160481b03166060820152600160601b9091046001600160a01b031660808201529392505050565b606080606060006123a96129ee565b600f0160006123b88888612c4e565b815260200190815260200160002080548060200260200160405190810160405280929190818152602001828054801561241057602002820191906000526020600020905b8154815260200190600101908083116123fc575b5050835193945050821591506125a1905057806001600160401b0381111561243a5761243a614789565b604051908082528060200260200182016040528015612463578160200160208202803683370190505b509450806001600160401b0381111561247e5761247e614789565b6040519080825280602002602001820160405280156124a7578160200160208202803683370190505b509350806001600160401b038111156124c2576124c2614789565b6040519080825280602002602001820160405280156124eb578160200160208202803683370190505b50925060005b818110156115145761252e83828151811061250e5761250e6154a5565b6020026020010151906001600160401b0360a083901c169060e083901c90565b8063ffffffff169050888481518110612549576125496154a5565b60200260200101888581518110612562576125626154a5565b6020026020010188868151811061257b5761257b6154a5565b60209081029190910101929092529190526001600160a01b0390911690526001016124f1565b50509250925092565b60006125b4612606565b600e0160006115698585612c4e565b60006125cd6129ee565b600d0154905090565b60006125e0612606565b60080160006125ef8585612c4e565b815260200190815260200160002054905092915050565b60006108b16129ee565b612618613841565b61263557604051631afcd79f60e31b815260040160405180910390fd5b565b6001600160a01b03811661267f5760405162461bcd60e51b815260206004820152600f60248201526e2d32b9379031b7b73a3937b63632b960891b60448201526064016109ee565b6126ae81610a3f60017f5165972ef41194f06c5007493031d0b927c20741adcb74403b954009fd2c36186152ce565b6126dd42610a3f60017f6f55f470bdc9cb5f04223fd822021061668e4dccb43e8727b295106dc9769c8b6152ce565b61270c43610a3f60017f812a673dfca07956350df10f8a654925f561d7a0da09bdbe79e653939a14d9f16152ce565b604080516001600160a01b0383168152426020820152438183015290517f1a2dd071001ebf6e03174e3df5b305795a4ad5d41d8fdb9ba41dbbe2367134269181900360600190a150565b8061102f57336040516377817ac360e01b81526004016109ee9190614eea565b6040516331a9108f60e11b8152600481018390526001600160a01b038083169190851690636352211e90602401602060405180830381865afa1580156127c0573d6000803e3d6000fd5b505050506040513d601f19601f820116820180604052508101906127e491906153e6565b6001600160a01b03161461076e57828260405163547208b960e11b81526004016109ee929190614d14565b6128188161333e565b816001600160a01b03166318d928316040518163ffffffff1660e01b8152600401602060405180830381865afa158015612856573d6000803e3d6000fd5b505050506040513d601f19601f8201168201806040525081019061287a9190615511565b156107aa57604051635e1633d360e11b815260040160405180910390fd5b600080846001600160a01b031663683fedf76040518163ffffffff1660e01b8152600401602060405180830381865afa1580156128d9573d6000803e3d6000fd5b505050506040513d601f19601f820116820180604052508101906128fd91906153e6565b9150846001600160a01b0316628e96916040518163ffffffff1660e01b8152600401602060405180830381865afa15801561293c573d6000803e3d6000fd5b505050506040513d601f19601f8201168201806040525081019061296091906153e6565b905061296d82858561385b565b6129788585856138f0565b612983818585613a36565b935093915050565b6000816001600160a01b0316628e96916040518163ffffffff1660e01b8152600401602060405180830381865afa1580156129ca573d6000803e3d6000fd5b505050506040513d601f19601f8201168201806040525081019061064b91906153e6565b7fd333325b749986e76669f0e0c2c1aa0e0abd19e216c3678477196e408924140090565b610100600160a81b0360089190911b1660ff9091161790565b600061064b825490565b60006107ba8383613ac6565b6000816001600160a01b031663683fedf76040518163ffffffff1660e01b8152600401602060405180830381865afa1580156129ca573d6000803e3d6000fd5b806001600160a01b0316826001600160a01b0316146107aa578060405163cf219bef60e01b81526004016109ee9190614eea565b604051631a95890960e31b81526000906001600160a01b0387169063d4ac484890612ae69088908890600401614d14565b60a060405180830381865afa158015612b03573d6000803e3d6000fd5b505050506040513d601f19601f82011682018060405250810190612b2791906155bc565b9050856001600160a01b031663afb1a9ed86866040518060a00160405280600063ffffffff168152602001600063ffffffff168152602001866040015163ffffffff16815260200187612b7b576000612b81565b86606001515b63ffffffff16815260200188612b98576000612b9b565b60015b60ff1690526040805160e086901b6001600160e01b03191681526001600160a01b0390941660048501526024840192909252805163ffffffff908116604485015260208201518116606485015291810151821660848401526060810151821660a4840152608001511660c4820152600060e482015261010401600060405180830381600087803b158015612c2e57600080fd5b505af1158015612c42573d6000803e3d6000fd5b50505050505050505050565b60006001600160401b03821115612c7b57604051633995b34160e01b8152600481018390526024016109ee565b5067ffffffffffffffff60a01b60a09190911b166001600160a01b039091161790565b604051631430d62960e21b81526001600160a01b038216906350c358a490612cca903390600401614eea565b602060405180830381865afa158015612ce7573d6000803e3d6000fd5b505050506040513d601f19601f82011682018060405250810190612d0b9190615511565b61102f573360405163451cea1760e11b81526004016109ee9190614eea565b60006001600160601b03821115612d5757604051633995b34160e01b8152600481018390526024016109ee565b506001600160a01b031960a09190911b166001600160a01b039091161790565b6000612de5846001600160a01b031663683fedf76040518163ffffffff1660e01b8152600401602060405180830381865afa158015612dba573d6000803e3d6000fd5b505050506040513d601f19601f82011682018060405250810190612dde91906153e6565b848461385b565b836001600160a01b0316628e96916040518163ffffffff1660e01b8152600401602060405180830381865afa158015612e22573d6000803e3d6000fd5b505050506040513d601f19601f82011682018060405250810190612e4691906153e6565b6001600160a01b031663fbed9ac584846040518363ffffffff1660e01b8152600401612e73929190614d14565b600060405180830381865afa158015612e90573d6000803e3d6000fd5b505050506040513d6000823e601f3d908101601f19168201604052612eb891908101906157e2565b5115612ed7576040516303a684c160e51b815260040160405180910390fd5b612ee28484846138f0565b5060019392505050565b612ef6868661280f565b612f09612f0287612a41565b8686613af0565b6000612f1e6001600160a01b03871686612c4e565b90506000612f2a6129ee565b6000838152600691909101602052604090205414612f5b57604051631c93a6e960e31b815260040160405180910390fd5b6000612f668861298b565b90506000612f73896134f1565b9050612f80828686613b88565b612f886129ee565b600f0160008581526020019081526020016000209080519060200190612faf9291906146f7565b50606086613035576040516334622f6560e11b81526001600160a01b038316906368c45eca90612fe9908c908c908b908b906004016156e3565b6000604051808303816000875af1158015613008573d6000803e3d6000fd5b505050506040513d6000823e601f3d908101601f19168201604052613030919081019061552e565b6130ae565b60405163600c667360e01b81526001600160a01b0383169063600c667390613067908c908c908b908b906004016156e3565b6000604051808303816000875af1158015613086573d6000803e3d6000fd5b505050506040513d6000823e601f3d908101601f191682016040526130ae919081019061552e565b90506000836001600160a01b0316631f051fa08b8b6040518363ffffffff1660e01b81526004016130e0929190614d14565b600060405180830381865afa1580156130fd573d6000803e3d6000fd5b505050506040513d6000823e601f3d908101601f19168201604052613125919081019061552e565b6040805160a0810182526001600160a01b038d81168252602082018d905281830186905260016060830152600060808301529151634ffa2edf60e11b815292935090861691639ff45dbe9161317c91600401615687565b600060405180830381600087803b15801561319657600080fd5b505af11580156131aa573d6000803e3d6000fd5b506131c2925050506001600160a01b03881687612c4e565b6131ca6129ee565b600087815260069190910160205260409020556131e682613d2f565b6131ee6129ee565b600701600087815260200190815260200160002090805190602001906132159291906146f7565b50604051632e80ad4d60e11b81526001600160a01b03851690635d015a9a90613246908d908d908690600401615870565b600060405180830381600087803b15801561326057600080fd5b505af1158015613274573d6000803e3d6000fd5b5050505087156132c0577f6f8146918e4a56c3c0afd937ecf5aed94c8c1b4310cdc01a6b8950aed083f3458a8a89896040516132b394939291906156e3565b60405180910390a16132fe565b7fb03aa2b3e79085a007537123a0d347753f0349d22e18c9bd6b8d44d7bbbe2d238a8a89896040516132f594939291906156e3565b60405180910390a15b5050505050505050505050565b3361331582613593565b6001600160a01b03161461102f573360405163f6b9c4d960e01b81526004016109ee9190614eea565b6133466129ee565b6001600160a01b0382166000908152600291909101602052604081205460ff16900361102f578060405163adc7fced60e01b81526004016109ee9190614eea565b600060016133936129ee565b6000858152600e91909101602052604090205460ff1660028111156133ba576133ba6153d0565b149050811515811461076e5781156133e55760405163eb28d20b60e01b815260040160405180910390fd5b604051631ed7101960e21b815260040160405180910390fd5b600061340c6103e883615462565b613417846001613e38565b6107ba9190615373565b60606000826001600160401b0381111561343d5761343d614789565b604051908082528060200260200182016040528015613466578160200160208202803683370190505b50905060005b84518110156134e95760005b60088110156134e05760008161348f846008615462565b6134999190615373565b90508581106134a857506134e0565b6134b287826143c8565b8482815181106134c4576134c46154a5565b60039290920b6020928302919091019091015250600101613478565b5060010161346c565b509392505050565b6000816001600160a01b0316632f91ede96040518163ffffffff1660e01b8152600401602060405180830381865afa1580156129ca573d6000803e3d6000fd5b806001600160a01b031661354483612a41565b6001600160a01b0316141580156135755750806001600160a01b03166135698361442c565b6001600160a01b031614155b156107aa5760405163f20e063760e01b815260040160405180910390fd5b6000816001600160a01b03166331423c266040518163ffffffff1660e01b8152600401602060405180830381865afa1580156129ca573d6000803e3d6000fd5b60606000866001600160a01b031663fbed9ac587876040518363ffffffff1660e01b8152600401613605929190614d14565b600060405180830381865afa158015613622573d6000803e3d6000fd5b505050506040513d6000823e601f3d908101601f1916820160405261364a91908101906157e2565b8051909150806001600160401b0381111561366757613667614789565b604051908082528060200260200182016040528015613690578160200160208202803683370190505b50925060005b8181101561381c576000896001600160a01b0316633bdb788b8a8a8786815181106136c3576136c36154a5565b60200260200101516040518463ffffffff1660e01b81526004016136e993929190615897565b602060405180830381865afa158015613706573d6000803e3d6000fd5b505050506040513d601f19601f8201168201806040525081019061372a919061529f565b90506000808260a081901c915091508c6001600160a01b0316631af6585983838e8e8b8a8151811061375e5761375e6154a5565b60209081029190910101516040516001600160e01b031960e088901b1681526001600160a01b03958616600482015260248101949094529184166044840152606483015260ff166084820152908c1660a48201528a151560c482015260e401600060405180830381600087803b1580156137d757600080fd5b505af11580156137eb573d6000803e3d6000fd5b5050505082878581518110613802576138026154a5565b602002602001018181525050505050806001019050613696565b5050509695505050505050565b60006107ba838361446c565b60006107ba838361455f565b600061384b610ffa565b54600160401b900460ff16919050565b604051634d320f0160e11b81526001600160a01b03841690639a641e02906138899085908590600401614d14565b602060405180830381865afa1580156138a6573d6000803e3d6000fd5b505050506040513d601f19601f820116820180604052508101906138ca91906158c4565b6001600160401b03161561076e5760405162dc1c0b60e01b815260040160405180910390fd5b6138f9836134f1565b6001600160a01b0316635451da1b83836040518363ffffffff1660e01b8152600401613926929190614d14565b602060405180830381865afa158015613943573d6000803e3d6000fd5b505050506040513d601f19601f820116820180604052508101906139679190615511565b15613989578181604051634f38de4760e11b81526004016109ee929190614d14565b60006139948461442c565b90506001600160a01b03811615801590613a18575060405163ce4a79a960e01b81526001600160a01b0382169063ce4a79a9906139d79086908690600401614d14565b602060405180830381865afa1580156139f4573d6000803e3d6000fd5b505050506040513d601f19601f82011682018060405250810190613a189190615511565b156107d55760405163cba088b360e01b815260040160405180910390fd5b6040516378b5183360e11b81526001600160a01b0384169063f16a306690613a649085908590600401614d14565b602060405180830381865afa158015613a81573d6000803e3d6000fd5b505050506040513d601f19601f82011682018060405250810190613aa59190615511565b61076e57818160405163033aace360e41b81526004016109ee929190614d14565b6000826000018281548110613add57613add6154a5565b9060005260206000200154905092915050565b604051634d320f0160e11b81526001600160a01b03841690639a641e0290613b1e9085908590600401614d14565b602060405180830381865afa158015613b3b573d6000803e3d6000fd5b505050506040513d601f19601f82011682018060405250810190613b5f91906158c4565b6001600160401b031660000361076e576040516337bcc65160e01b815260040160405180910390fd5b60408051600380825260808201909252606091600091906020820184803683370190505090506000805b60038160ff161015613c965760006001600160a01b038816633bdb788b8888613bdc86600c61576f565b6040518463ffffffff1660e01b8152600401613bfa93929190615897565b602060405180830381865afa158015613c17573d6000803e3d6000fd5b505050506040513d601f19601f82011682018060405250810190613c3b919061529f565b90508015613c8d578060a081901c613c618282613c5987600c61576f565b60ff166145ae565b8686613c6c816158ed565b975081518110613c7e57613c7e6154a5565b60200260200101818152505050505b50600101613bb2565b50806001600160401b03811115613caf57613caf614789565b604051908082528060200260200182016040528015613cd8578160200160208202803683370190505b50925060005b81811015613d2557828181518110613cf857613cf86154a5565b6020026020010151848281518110613d1257613d126154a5565b6020908102919091010152600101613cde565b5050509392505050565b6060600060088351613d41919061591c565b613d4c906001615373565b90506000816001600160401b03811115613d6857613d68614789565b604051908082528060200260200182016040528015613d91578160200160208202803683370190505b50905060005b828110156134e95760005b6008811015613e2f57600081613db9846008615462565b613dc39190615373565b905086518110613dd35750613e2f565b613dde826020615462565b878281518110613df057613df06154a5565b602002602001015163ffffffff1660001b901b848481518110613e1557613e156154a5565b602090810291909101018051909117905250600101613da2565b50600101613d97565b600080600a613e77613e678660045b81518110613e5757613e576154a5565b602002602001015160030b614610565b613e72876005613e47565b61462b565b613e819190615462565b6101f4613e8f866008613e47565b613e999190615462565b600a613ea6876007613e47565b613eb09190615462565b6003613ebd886006613e47565b613ec79190615462565b6064613ed4896003613e47565b613ede9190615462565b6064613eeb8a6002613e47565b613ef59190615462565b6064613f028b6001613e47565b613f0c9190615462565b6064613f198c6000613e47565b613f239190615462565b613f2d9190615373565b613f379190615373565b613f419190615373565b613f4b9190615373565b613f559190615373565b613f5f9190615373565b613f699190615373565b613f739082615373565b90506064613f8285600d613e47565b613f8c9190615462565b6064613f9986600c613e47565b613fa39190615462565b6064613fb087600b613e47565b613fba9190615462565b613fc49190615373565b613fce9190615373565b613fd89082615373565b9050826107ba57600a613feb8582613e47565b613ff59190615462565b600a614002866009613e47565b61400c9190615462565b6140169190615373565b6140209082615373565b9050601461402f856015613e47565b6140399190615462565b60146140458682613e47565b61404f9190615462565b601461405c876013613e47565b6140669190615462565b6014614073886012613e47565b61407d9190615462565b601461408a896011613e47565b6140949190615462565b60146140a18a6010613e47565b6140ab9190615462565b60146140b88b600f613e47565b6140c29190615462565b60146140cf8c600e613e47565b6140d99190615462565b6140e39190615373565b6140ed9190615373565b6140f79190615373565b6141019190615373565b61410b9190615373565b6141159190615373565b61411f9190615373565b6141299082615373565b90506064614138856029613e47565b6141429190615462565b606461414f866026613e47565b6141599190615462565b6064614166876025613e47565b6141709190615462565b606461417d886024613e47565b6141879190615462565b6064614194896023613e47565b61419e9190615462565b60646141ab8a6022613e47565b6141b59190615462565b6141bf9190615373565b6141c99190615373565b6141d39190615373565b6141dd9190615373565b6141e79190615373565b6141f19082615373565b905060c861420085601d613e47565b61420a9190615462565b60c861421786601c613e47565b6142219190615462565b60c861422e87601b613e47565b6142389190615462565b60c861424588601a613e47565b61424f9190615462565b609661425c896019613e47565b6142669190615462565b61012c6142748a6017613e47565b61427e9190615462565b61271061428c8b6016613e47565b6142969190615462565b6142a09190615373565b6142aa9190615373565b6142b49190615373565b6142be9190615373565b6142c89190615373565b6142d29190615373565b6142dc9082615373565b905060466142eb85602a613e47565b6142f59190615462565b60fa614302866028613e47565b61430c9190615462565b60fa614319876027613e47565b6143239190615462565b6101f4614331886021613e47565b61433b9190615462565b6103e8614349896020613e47565b6143539190615462565b6103e86143618a601f613e47565b61436b9190615462565b60c86143788b601e613e47565b6143829190615462565b61438c9190615373565b6143969190615373565b6143a09190615373565b6143aa9190615373565b6143b49190615373565b6143be9190615373565b6116839082615373565b81516000906143d860088461591c565b106143e55750600061064b565b6143f0600883615930565b6143fb906020615462565b8361440760088561591c565b81518110614417576144176154a5565b602002602001015160001c901c905092915050565b6000816001600160a01b031663a27218ac6040518163ffffffff1660e01b8152600401602060405180830381865afa1580156129ca573d6000803e3d6000fd5b600081815260018301602052604081205480156145555760006144906001836152ce565b85549091506000906144a4906001906152ce565b90508082146145095760008660000182815481106144c4576144c46154a5565b90600052602060002001549050808760000184815481106144e7576144e76154a5565b6000918252602080832090910192909255918252600188019052604090208390555b855486908061451a5761451a615944565b60019003818190600052602060002001600090559055856001016000868152602001908152602001600020600090556001935050505061064b565b600091505061064b565b60008181526001830160205260408120546145a65750815460018181018455600084815260208082209093018490558454848252828601909352604090209190915561064b565b50600061064b565b60006001600160401b038311156145db57604051633995b34160e01b8152600481018490526024016109ee565b506001600160a01b039290921660a09190911b67ffffffffffffffff60a01b161760e09190911b6001600160e01b0319161790565b6000808260030b1361462457506000919050565b5060030b90565b600061463a600284841861591c565b6107ba90848416615373565b6040805160a08101825260008082526020820181905291810182905260608101829052608081019190915290565b508054600082559060005260206000209081019061102f9190614732565b8280548282559060005260206000209081019282156146e7579160200282015b828111156146e757825182546001600160a01b0319166001600160a01b039091161782556020909201916001909101906146b2565b506146f3929150614732565b5090565b8280548282559060005260206000209081019282156146e7579160200282015b828111156146e7578251825591602001919060010190614717565b5b808211156146f35760008155600101614733565b6001600160a01b038116811461102f57600080fd5b803561476781614747565b919050565b60006020828403121561477e57600080fd5b81356107ba81614747565b634e487b7160e01b600052604160045260246000fd5b60405160e081016001600160401b03811182821017156147c1576147c1614789565b60405290565b604051601f8201601f191681016001600160401b03811182821017156147ef576147ef614789565b604052919050565b8060030b811461102f57600080fd5b600080600083850360c081121561481c57600080fd5b843561482781614747565b9350602085013592506080603f198201121561484257600080fd5b50604051608081018181106001600160401b038211171561486557614865614789565b6040908152850135614876816147f7565b81526060850135614886816147f7565b60208201526080850135614899816147f7565b604082015260a08501356148ac816147f7565b606082015292959194509192509050565b60ff8116811461102f57600080fd5b8035614767816148bd565b600080604083850312156148ea57600080fd5b82356148f5816148bd565b9150602083013561490581614747565b809150509250929050565b60008151808452602080850194506020840160005b8381101561494457815160ff1687529582019590820190600101614925565b509495945050505050565b600082825180855260208086019550808260051b8401018186016000805b858110156149c957868403601f19018a52825180518086529086019086860190845b818110156149b45783516001600160a01b03168352928801929188019160010161498f565b50509a86019a9450509184019160010161496d565b509198975050505050505050565b8381526060602082015260006149f06060830185614910565b8281036040840152614a02818561494f565b9695505050505050565b60008060408385031215614a1f57600080fd5b8235614a2a81614747565b946020939093013593505050565b60008060008060808587031215614a4e57600080fd5b8435614a5981614747565b93506020850135614a69816148bd565b92506040850135614a7981614747565b9396929550929360600135925050565b801515811461102f57600080fd5b803561476781614a89565b600082601f830112614ab357600080fd5b81356001600160401b03811115614acc57614acc614789565b614adf601f8201601f19166020016147c7565b818152846020838601011115614af457600080fd5b816020850160208301376000918101602001919091529392505050565b60008060408385031215614b2457600080fd5b8235614b2f81614747565b915060208301356001600160401b0380821115614b4b57600080fd5b9084019060e08287031215614b5f57600080fd5b614b6761479f565b614b70836148cc565b8152614b7e602084016148cc565b6020820152614b8f60408401614a97565b6040820152606083013582811115614ba657600080fd5b614bb288828601614aa2565b606083015250614bc46080840161475c565b608082015260a083013582811115614bdb57600080fd5b614be788828601614aa2565b60a083015250614bf960c08401614a97565b60c08201528093505050509250929050565b60008083601f840112614c1d57600080fd5b5081356001600160401b03811115614c3457600080fd5b602083019150836020828501011115610caa57600080fd5b60008060008060008060808789031215614c6557600080fd5b8635614c7081614747565b955060208701356001600160401b0380821115614c8c57600080fd5b614c988a838b01614c0b565b90975095506040890135915080821115614cb157600080fd5b50614cbe89828a01614c0b565b9094509250506060870135614cd281614a89565b809150509295509295509295565b600060208284031215614cf257600080fd5b81356001600160401b03811115614d0857600080fd5b61168384828501614aa2565b6001600160a01b03929092168252602082015260400190565b60005b83811015614d48578181015183820152602001614d30565b50506000910152565b60008151808452614d69816020860160208601614d2d565b601f01601f19169290920160200192915050565b6020815260006107ba6020830184614d51565b60008060008060808587031215614da657600080fd5b8435614db181614747565b9350602085013592506040850135614a7981614747565b60008060008060808587031215614dde57600080fd5b8435614de981614747565b9350602085013592506040850135614e00816148bd565b91506060850135614e10816148bd565b939692955090935050565b63ffffffff8116811461102f57600080fd5b600080600060608486031215614e4257600080fd5b8335614e4d81614747565b9250602084013591506040840135614e6481614e1b565b809150509250925092565b60008151808452602080850194506020840160005b8381101561494457815187529582019590820190600101614e84565b6020815260006107ba6020830184614e6f565b600080600060608486031215614ec857600080fd5b8335614ed381614747565b9250602084013591506040840135614e64816148bd565b6001600160a01b0391909116815260200190565b60006001600160401b03821115614f1757614f17614789565b5060051b60200190565b600082601f830112614f3257600080fd5b81356020614f47614f4283614efe565b6147c7565b828152600592831b8501820192828201919087851115614f6657600080fd5b8387015b858110156150055780356001600160401b03811115614f895760008081fd5b8801603f81018a13614f9b5760008081fd5b858101356040614fad614f4283614efe565b82815291851b8301810191888101908d841115614fca5760008081fd5b938201935b83851015614ff45784359250614fe483614747565b8282529389019390890190614fcf565b885250505093850193508401614f6a565b5090979650505050505050565b600080600080600060a0868803121561502a57600080fd5b8535615035816148bd565b945060208681013561504681614747565b945060408701356001600160481b038116811461506257600080fd5b935060608701356001600160401b038082111561507e57600080fd5b818901915089601f83011261509257600080fd5b81356150a0614f4282614efe565b81815260059190911b8301840190848101908c8311156150bf57600080fd5b938501935b828510156150e65784356150d7816148bd565b825293850193908501906150c4565b9650505060808901359250808311156150fe57600080fd5b505061510c88828901614f21565b9150509295509295909350565b606080825284519082018190526000906020906080840190828801845b8281101561515b5781516001600160a01b031684529284019290840190600101615136565b50505083810360208501526151708187614e6f565b9150508281036040840152614a028185614e6f565b6000806000806060858703121561519b57600080fd5b84356151a681614747565b935060208501356001600160401b038111156151c157600080fd5b6151cd87828801614c0b565b9094509250506040850135614e1081614a89565b600060018060a01b03808716835280861660208401528085166040840152506080606083015260ff835116608083015260ff60208401511660a08301526040830151151560c0830152606083015160e080840152615243610160840182614d51565b905060808401516152606101008501826001600160a01b03169052565b5060a0840151838203607f190161012085015261527d8282614d51565b91505060c084015161529461014085018215159052565b509695505050505050565b6000602082840312156152b157600080fd5b5051919050565b634e487b7160e01b600052601160045260246000fd5b8181038181111561064b5761064b6152b8565b81835281816020850137506000828201602090810191909152601f909101601f19169091010190565b89151581526001600160a01b03898116602083015288811660408301528716606082015260e06080820181905260009061534790830187896152e1565b82810360a084015261535a8186886152e1565b91505082151560c08301529a9950505050505050505050565b8082018082111561064b5761064b6152b8565b6001600160a01b03878116825286811660208301528516604082015260a0606082018190526000906153bb90830185876152e1565b90508215156080830152979650505050505050565b634e487b7160e01b600052602160045260246000fd5b6000602082840312156153f857600080fd5b81516107ba81614747565b805160030b8252602081015160030b6020830152604081015160030b6040830152606081015160030b60608301525050565b6001600160a01b03851681526020810184905260ff8316604082015260e08101610bd66060830184615403565b808202811582820484141761064b5761064b6152b8565b6001600160a01b038581168252602082018590528316604082015260e08101610bd66060830184615403565b634e487b7160e01b600052603260045260246000fd5b600082516154cd818460208701614d2d565b9190910192915050565b600181811c908216806154eb57607f821691505b60208210810361550b57634e487b7160e01b600052602260045260246000fd5b50919050565b60006020828403121561552357600080fd5b81516107ba81614a89565b6000602080838503121561554157600080fd5b82516001600160401b0381111561555757600080fd5b8301601f8101851361556857600080fd5b8051615576614f4282614efe565b81815260059190911b8201830190838101908783111561559557600080fd5b928401925b828410156109555783516155ad816147f7565b8252928401929084019061559a565b600060a082840312156155ce57600080fd5b60405160a081018181106001600160401b03821117156155f0576155f0614789565b60405282516155fe81614e1b565b8152602083015161560e81614e1b565b6020820152604083015161562181614e1b565b6040820152606083015161563481614e1b565b6060820152608083015161564781614e1b565b60808201529392505050565b60008151808452602080850194506020840160005b8381101561494457815160030b87529582019590820190600101615668565b6020815260018060a01b038251166020820152602082015160408201526000604083015160a060608401526156bf60c0840182615653565b90506060840151151560808401526080840151151560a08401528091505092915050565b6001600160a01b039485168152602081019390935292166040820152606081019190915260800190565b6001600160a01b038681168252602082018690528416604082015260a06060820181905260009061574090830185614e6f565b90508260808301529695505050505050565b60006020828403121561576457600080fd5b81516107ba816148bd565b60ff818116838216019081111561064b5761064b6152b8565b60ff861681526001600160a01b03851660208201526001600160481b038416604082015260a0606082018190526000906157c490830185614910565b82810360808401526157d6818561494f565b98975050505050505050565b600060208083850312156157f557600080fd5b82516001600160401b0381111561580b57600080fd5b8301601f8101851361581c57600080fd5b805161582a614f4282614efe565b81815260059190911b8201830190838101908783111561584957600080fd5b928401925b82841015610955578351615861816148bd565b8252928401929084019061584e565b60018060a01b0384168152826020820152606060408201526000610bd66060830184615653565b6001600160a01b039390931683526001600160401b0391909116602083015260ff16604082015260600190565b6000602082840312156158d657600080fd5b81516001600160401b03811681146107ba57600080fd5b6000600182016158ff576158ff6152b8565b5060010190565b634e487b7160e01b600052601260045260246000fd5b60008261592b5761592b615906565b500490565b60008261593f5761593f615906565b500690565b634e487b7160e01b600052603160045260246000fdfe22573091f17911fb166032a3d9e0554aa73d31b7b7ddea4a4dd2995650af84bda2646970667358221220bb55161e205d94ab613690df7efd38ea4bfa8b898d0ce00d8bbeef176121ba0c64736f6c63430008170033",
  "libraries": {
    "HeroLib": "0x5f07046067186C01f8ABce58d06D25ad6DC7F2Fb",
    "HeroControllerLib": "0x0326d6cb0Cd09E57CFFcfDA36E67C0736CE5d317"
  },
  "devdoc": {
    "errors": {
      "InvalidInitialization()": [
        {
          "details": "The contract is already initialized."
        }
      ],
      "NotInitializing()": [
        {
          "details": "The contract is not initializing."
        }
      ]
    },
    "events": {
      "Initialized(uint64)": {
        "details": "Triggered when the contract has been initialized or reinitialized."
      }
    },
    "kind": "dev",
    "methods": {
      "created()": {
        "returns": {
          "_0": "Creation timestamp"
        }
      },
      "createdBlock()": {
        "returns": {
          "_0": "Creation block number"
        }
      },
      "increaseRevision(address)": {
        "details": "Revision should be increased on each contract upgrade"
      },
      "isController(address)": {
        "details": "Return true if given address is controller"
      },
      "killedBosses(address,uint256,uint8,uint8)": {
        "returns": {
          "_0": "time stamp of the moment when the boss of the given biome at the given NG_LEVEL was killed by the hero"
        }
      },
      "previousImplementation()": {
        "details": "Previous logic implementation"
      },
      "reborn(address,uint256)": {
        "details": "Approve to controller is required if the hero is post-paid and upgrade to pre-paid is available. The hero is upgraded to tier=1 always"
      },
      "revision()": {
        "details": "Contract upgrade counter"
      },
      "sandboxMode(address,uint256)": {
        "returns": {
          "_0": "Return current status of the sandbox mode for the given hero 0: The hero is created in normal (not sandbox) mode 1: The hero was created in sandbox mode and wasn't upgraded. 2: The hero has been created in sandbox mode and has been upgraded to the normal mode"
        }
      },
      "setTier(uint8,address,uint72,uint8[],address[][])": {
        "params": {
          "payAmount": "Limited by uint72, see remarks to IHeroController.HeroInfo"
        }
      }
    },
    "version": 1
  },
  "userdoc": {
    "kind": "user",
    "methods": {
      "CONTROLLABLE_VERSION()": {
        "notice": "Version of the contract"
      },
      "VERSION()": {
        "notice": "Version of the contract"
      },
      "askGuildReinforcement(address,uint256,address,uint256)": {
        "notice": "Ask guild-hero for reinforcement"
      },
      "beforeTokenTransfer(address,uint256)": {
        "notice": "Check if transfer is allowed and increment counter of transfers for the hero"
      },
      "controller()": {
        "notice": "Return controller address saved in the contract slot"
      },
      "create(address,string,bool)": {
        "notice": "Create a hero in tier 1. Deprecated, use {createHero} instead"
      },
      "createWithRefCode(address,string,string,bool)": {
        "notice": "Create a hero in tier 1 with given {refCode}. Deprecated, use {createHero} instead"
      },
      "created()": {
        "notice": "Return creation timestamp"
      },
      "createdBlock()": {
        "notice": "Return creation block number"
      },
      "helperSkills(address,uint256)": {
        "notice": "Get list of items equipped to the hero's helper at the moment of asking help by the helper"
      },
      "isGovernance(address)": {
        "notice": "Return true if given address is setup as governance in Controller"
      },
      "maxOpenedNgLevel()": {
        "notice": "Max value of NG_LEVEL opened by any heroes"
      },
      "resetLifeAndMana(address,uint256)": {
        "notice": "Life => 1, mana => 0"
      },
      "upgradeSandboxHero(address,uint256)": {
        "notice": "Upgrade sandbox hero to the ordinal pre-paid hero. The hero is upgraded to tier=1 always Approve to controller for {payTokenInfo.amount} in {payTokenInfo.token} is required"
      }
    },
    "version": 1
  },
  "storageLayout": {
    "storage": [],
    "types": null
  }
}