{
  "address": "0xE2ADB0227a6EAa6BF2985e3919C4C288A162F2ba",
  "abi": [
    {
      "inputs": [
        {
          "internalType": "address",
          "name": "item",
          "type": "address"
        }
      ],
      "name": "Broken",
      "type": "error"
    },
    {
      "inputs": [
        {
          "internalType": "address",
          "name": "item",
          "type": "address"
        }
      ],
      "name": "Consumable",
      "type": "error"
    },
    {
      "inputs": [
        {
          "internalType": "uint256",
          "name": "itemIndex",
          "type": "uint256"
        },
        {
          "internalType": "address[]",
          "name": "items",
          "type": "address[]"
        }
      ],
      "name": "DoubleItemUsageForbidden",
      "type": "error"
    },
    {
      "inputs": [],
      "name": "EquipForbiddenInDungeon",
      "type": "error"
    },
    {
      "inputs": [],
      "name": "ErrorEquipForbidden",
      "type": "error"
    },
    {
      "inputs": [
        {
          "internalType": "address",
          "name": "sender",
          "type": "address"
        }
      ],
      "name": "ErrorForbidden",
      "type": "error"
    },
    {
      "inputs": [
        {
          "internalType": "address",
          "name": "heroToken",
          "type": "address"
        }
      ],
      "name": "ErrorHeroIsNotRegistered",
      "type": "error"
    },
    {
      "inputs": [
        {
          "internalType": "address",
          "name": "token",
          "type": "address"
        },
        {
          "internalType": "uint256",
          "name": "tokenId",
          "type": "uint256"
        }
      ],
      "name": "ErrorNotOwner",
      "type": "error"
    },
    {
      "inputs": [],
      "name": "ErrorPaused",
      "type": "error"
    },
    {
      "inputs": [
        {
          "internalType": "int256",
          "name": "value",
          "type": "int256"
        }
      ],
      "name": "IntOutOfRange",
      "type": "error"
    },
    {
      "inputs": [
        {
          "internalType": "address",
          "name": "item",
          "type": "address"
        },
        {
          "internalType": "uint8",
          "name": "equippedSlot",
          "type": "uint8"
        }
      ],
      "name": "ItemAlreadyUsedInSlot",
      "type": "error"
    },
    {
      "inputs": [
        {
          "internalType": "address",
          "name": "item",
          "type": "address"
        },
        {
          "internalType": "uint256",
          "name": "itemId",
          "type": "uint256"
        }
      ],
      "name": "ItemEquipped",
      "type": "error"
    },
    {
      "inputs": [],
      "name": "LengthsMismatch",
      "type": "error"
    },
    {
      "inputs": [
        {
          "internalType": "address",
          "name": "item",
          "type": "address"
        }
      ],
      "name": "NotConsumable",
      "type": "error"
    },
    {
      "inputs": [
        {
          "internalType": "address",
          "name": "sender",
          "type": "address"
        }
      ],
      "name": "NotEOA",
      "type": "error"
    },
    {
      "inputs": [
        {
          "internalType": "address",
          "name": "item",
          "type": "address"
        }
      ],
      "name": "NotEquipped",
      "type": "error"
    },
    {
      "inputs": [],
      "name": "RequirementsToItemAttributes",
      "type": "error"
    },
    {
      "inputs": [],
      "name": "SameIdsNotAllowed",
      "type": "error"
    },
    {
      "inputs": [
        {
          "internalType": "address",
          "name": "heroToken",
          "type": "address"
        },
        {
          "internalType": "uint256",
          "name": "heroId",
          "type": "uint256"
        }
      ],
      "name": "Staked",
      "type": "error"
    },
    {
      "inputs": [],
      "name": "TakeOffForbiddenInDungeon",
      "type": "error"
    },
    {
      "inputs": [
        {
          "internalType": "uint8",
          "name": "augmentationLevel",
          "type": "uint8"
        }
      ],
      "name": "TooHighAgLevel",
      "type": "error"
    },
    {
      "inputs": [
        {
          "internalType": "uint256",
          "name": "value",
          "type": "uint256"
        }
      ],
      "name": "TooHighValue",
      "type": "error"
    },
    {
      "inputs": [
        {
          "internalType": "address",
          "name": "item",
          "type": "address"
        }
      ],
      "name": "UnknownItem",
      "type": "error"
    },
    {
      "inputs": [],
      "name": "UseForbiddenZeroPayToken",
      "type": "error"
    },
    {
      "inputs": [],
      "name": "ZeroAugmentation",
      "type": "error"
    },
    {
      "inputs": [],
      "name": "ZeroDurability",
      "type": "error"
    },
    {
      "inputs": [],
      "name": "ZeroLife",
      "type": "error"
    },
    {
      "inputs": [],
      "name": "ZeroValue",
      "type": "error"
    },
    {
      "anonymous": false,
      "inputs": [
        {
          "indexed": false,
          "internalType": "address",
          "name": "item",
          "type": "address"
        },
        {
          "indexed": false,
          "internalType": "uint256",
          "name": "itemId",
          "type": "uint256"
        },
        {
          "indexed": false,
          "internalType": "uint256",
          "name": "consumedItemId",
          "type": "uint256"
        },
        {
          "indexed": false,
          "internalType": "uint8",
          "name": "augLevel",
          "type": "uint8"
        },
        {
          "components": [
            {
              "internalType": "uint8[]",
              "name": "attributesIds",
              "type": "uint8[]"
            },
            {
              "internalType": "int32[]",
              "name": "attributesValues",
              "type": "int32[]"
            },
            {
              "components": [
                {
                  "internalType": "enum IItemController.AttackType",
                  "name": "aType",
                  "type": "uint8"
                },
                {
                  "internalType": "int32",
                  "name": "min",
                  "type": "int32"
                },
                {
                  "internalType": "int32",
                  "name": "max",
                  "type": "int32"
                },
                {
                  "components": [
                    {
                      "internalType": "int32",
                      "name": "strength",
                      "type": "int32"
                    },
                    {
                      "internalType": "int32",
                      "name": "dexterity",
                      "type": "int32"
                    },
                    {
                      "internalType": "int32",
                      "name": "vitality",
                      "type": "int32"
                    },
                    {
                      "internalType": "int32",
                      "name": "energy",
                      "type": "int32"
                    }
                  ],
                  "internalType": "struct IStatController.CoreAttributes",
                  "name": "attributeFactors",
                  "type": "tuple"
                }
              ],
              "internalType": "struct IItemController.AttackInfo",
              "name": "attackInfo",
              "type": "tuple"
            },
            {
              "internalType": "uint8[]",
              "name": "casterIds",
              "type": "uint8[]"
            },
            {
              "internalType": "int32[]",
              "name": "casterValues",
              "type": "int32[]"
            },
            {
              "internalType": "uint8[]",
              "name": "targetIds",
              "type": "uint8[]"
            },
            {
              "internalType": "int32[]",
              "name": "targetValues",
              "type": "int32[]"
            }
          ],
          "indexed": false,
          "internalType": "struct IItemController.AugmentInfo",
          "name": "info",
          "type": "tuple"
        }
      ],
      "name": "Augmented",
      "type": "event"
    },
    {
      "anonymous": false,
      "inputs": [
        {
          "indexed": false,
          "internalType": "address",
          "name": "item",
          "type": "address"
        },
        {
          "indexed": false,
          "internalType": "uint256",
          "name": "itemId",
          "type": "uint256"
        }
      ],
      "name": "Destroyed",
      "type": "event"
    },
    {
      "anonymous": false,
      "inputs": [
        {
          "indexed": false,
          "internalType": "address",
          "name": "item",
          "type": "address"
        },
        {
          "indexed": false,
          "internalType": "uint256",
          "name": "itemId",
          "type": "uint256"
        },
        {
          "indexed": false,
          "internalType": "address",
          "name": "heroToken",
          "type": "address"
        },
        {
          "indexed": false,
          "internalType": "uint256",
          "name": "heroTokenId",
          "type": "uint256"
        },
        {
          "indexed": false,
          "internalType": "uint8",
          "name": "itemSlot",
          "type": "uint8"
        }
      ],
      "name": "Equipped",
      "type": "event"
    },
    {
      "anonymous": false,
      "inputs": [
        {
          "indexed": false,
          "internalType": "address",
          "name": "item",
          "type": "address"
        },
        {
          "indexed": false,
          "internalType": "uint256",
          "name": "itemId",
          "type": "uint256"
        },
        {
          "indexed": false,
          "internalType": "uint256",
          "name": "consumedItemId",
          "type": "uint256"
        },
        {
          "indexed": false,
          "internalType": "uint16",
          "name": "itemDurability",
          "type": "uint16"
        }
      ],
      "name": "FailedToRepairItem",
      "type": "event"
    },
    {
      "anonymous": false,
      "inputs": [
        {
          "indexed": false,
          "internalType": "address",
          "name": "item",
          "type": "address"
        },
        {
          "indexed": false,
          "internalType": "uint256",
          "name": "itemId",
          "type": "uint256"
        },
        {
          "indexed": false,
          "internalType": "uint256",
          "name": "consumedItemId",
          "type": "uint256"
        },
        {
          "indexed": false,
          "internalType": "uint16",
          "name": "baseDurability",
          "type": "uint16"
        }
      ],
      "name": "ItemRepaired",
      "type": "event"
    },
    {
      "anonymous": false,
      "inputs": [
        {
          "indexed": false,
          "internalType": "address",
          "name": "item",
          "type": "address"
        },
        {
          "indexed": false,
          "internalType": "uint256",
          "name": "itemId",
          "type": "uint256"
        },
        {
          "indexed": false,
          "internalType": "uint256",
          "name": "consumedItemId",
          "type": "uint256"
        },
        {
          "indexed": false,
          "internalType": "uint8",
          "name": "augLevel",
          "type": "uint8"
        }
      ],
      "name": "NotAugmented",
      "type": "event"
    },
    {
      "anonymous": false,
      "inputs": [
        {
          "indexed": false,
          "internalType": "address",
          "name": "item",
          "type": "address"
        },
        {
          "indexed": false,
          "internalType": "uint256",
          "name": "itemId",
          "type": "uint256"
        },
        {
          "indexed": false,
          "internalType": "uint256",
          "name": "newDurability",
          "type": "uint256"
        }
      ],
      "name": "ReduceDurability",
      "type": "event"
    },
    {
      "anonymous": false,
      "inputs": [
        {
          "indexed": false,
          "internalType": "address",
          "name": "item",
          "type": "address"
        },
        {
          "indexed": false,
          "internalType": "uint256",
          "name": "itemId",
          "type": "uint256"
        },
        {
          "indexed": false,
          "internalType": "address",
          "name": "heroToken",
          "type": "address"
        },
        {
          "indexed": false,
          "internalType": "uint256",
          "name": "heroTokenId",
          "type": "uint256"
        },
        {
          "indexed": false,
          "internalType": "uint8",
          "name": "itemSlot",
          "type": "uint8"
        },
        {
          "indexed": false,
          "internalType": "address",
          "name": "destination",
          "type": "address"
        }
      ],
      "name": "TakenOff",
      "type": "event"
    },
    {
      "anonymous": false,
      "inputs": [
        {
          "indexed": false,
          "internalType": "address",
          "name": "item",
          "type": "address"
        },
        {
          "indexed": false,
          "internalType": "uint256",
          "name": "tokenId",
          "type": "uint256"
        },
        {
          "indexed": false,
          "internalType": "address",
          "name": "heroToken",
          "type": "address"
        },
        {
          "indexed": false,
          "internalType": "uint256",
          "name": "heroTokenId",
          "type": "uint256"
        }
      ],
      "name": "Used",
      "type": "event"
    },
    {
      "inputs": [
        {
          "internalType": "address",
          "name": "item",
          "type": "address"
        },
        {
          "internalType": "uint256",
          "name": "itemId",
          "type": "uint256"
        }
      ],
      "name": "score",
      "outputs": [
        {
          "internalType": "uint256",
          "name": "",
          "type": "uint256"
        }
      ],
      "stateMutability": "view",
      "type": "function"
    }
  ],
  "transactionHash": "0xdadd3db33e53988353009a3bb096b2ec49b270702d763ecc395683f86d3a25c6",
  "args": [],
  "numDeployments": 8,
  "solcInputHash": "469f89b788f48678cfe1a8f9b5f43301",
  "bytecode": "0x6157fb6200003b600b82828239805160001a60731461002e57634e487b7160e01b600052600060045260246000fd5b30600052607381538281f3fe730000000000000000000000000000000000000000301460806040526004361061008d5760003560e01c80630b9266a81461009257806334d9da65146100b45780636a7e31d5146100d45780637401edba146100f4578063778caf73146101195780638d3bde0114610139578063c1336c9714610159578063dda8fe6e14610179578063dfd41dfb14610199575b600080fd5b81801561009e57600080fd5b506100b26100ad366004614b5c565b6101b9565b005b8180156100c057600080fd5b506100b26100cf366004614c48565b610438565b8180156100e057600080fd5b506100b26100ef366004614b5c565b610964565b610107610102366004614cb6565b61110a565b60405190815260200160405180910390f35b81801561012557600080fd5b506100b2610134366004614cf1565b6111ca565b81801561014557600080fd5b50610107610154366004614d88565b611362565b81801561016557600080fd5b506100b2610174366004614e1f565b6117f6565b81801561018557600080fd5b506100b2610194366004614e70565b6119a7565b8180156101a557600080fd5b506100b26101b4366004614c48565b611e27565b6101c28b611e40565b60006040518061012001604052806000151581526020018c6001600160a01b031681526020018b6001600160a01b031681526020018a6001600160a01b031681526020018b6001600160a01b031681526020018c6001600160a01b031663016dff5d6040518163ffffffff1660e01b8152600401602060405180830381865afa158015610253573d6000803e3d6000fd5b505050506040513d601f19601f820116820180604052508101906102779190614ed8565b6001600160a01b031681526020018c6001600160a01b031663683fedf76040518163ffffffff1660e01b8152600401602060405180830381865afa1580156102c3573d6000803e3d6000fd5b505050506040513d601f19601f820116820180604052508101906102e79190614ed8565b6001600160a01b031681526020018c6001600160a01b0316628e96916040518163ffffffff1660e01b8152600401602060405180830381865afa158015610332573d6000803e3d6000fd5b505050506040513d601f19601f820116820180604052508101906103569190614ed8565b6001600160a01b0316815260200189905290506000610373611e63565b90508685811415806103855750808414155b156103a35760405163586cb9e160e01b815260040160405180910390fd5b60005b818110156104275761041f83858c8c858181106103c5576103c5614ef5565b90506020020160208101906103da9190614f0b565b8b8b868181106103ec576103ec614ef5565b905060200201358a8a8781811061040557610405614ef5565b905060200201602081019061041a9190614f28565b611e87565b6001016103a6565b505050505050505050505050505050565b6000610442611e63565b9050600080610455898989898989611ff9565b9150915061046382876120a6565b6014816020015160ff161061049b576020810151604051630b1a2ddd60e31b815260ff90911660048201526024015b60405180910390fd5b6104a586856120f0565b60006104b3848a898b612187565b90506001600160a01b0381166104dc57604051637eb9811b60e01b815260040160405180910390fd5b6709b6e64a8ec60000896001600160a01b0316637dc0d1d06040518163ffffffff1660e01b8152600401602060405180830381865afa158015610523573d6000803e3d6000fd5b505050506040513d601f19601f820116820180604052508101906105479190614ed8565b6040516337347e0560e11b8152670de0b6b3a76400006004820152600060248201526001600160a01b039190911690636e68fc0a906044016020604051808303816000875af115801561059e573d6000803e3d6000fd5b505050506040513d601f19601f820116820180604052508101906105c29190614f45565b10156108f7576105d0614976565b60006105e56001600160a01b038a168961221f565b6000818152600c88016020908152604091829020805483518184028101840190945280845293945061064e93909183018282801561064257602002820191906000526020600020905b81548152602001906001019080831161062e575b5050505050600161226f565b808452602084018290526106629190612368565b6000828152600c880160209081526040909120825161068793919291909101906149b9565b50845160ff1660011901610721576000818152600f870160205260409020546106af906125c6565b60408301819052602001516106c390612672565b82604001516020019060030b908160030b815250506106e9826040015160400151612672565b82604001516040019060030b908160030b8152505061070b82604001516126e6565b6000828152600f88016020526040902055610873565b845160ff1660021901610873576000818152600d8701602090815260409182902080548351818402810184019094528084526107919392830182828015610642576020028201919060005260206000209081548152602001906001019080831161062e575050505050600161226f565b60608401819052608084018290526107a99190612368565b6000828152600d88016020908152604090912082516107ce93919291909101906149b9565b506000818152600e870160209081526040918290208054835181840281018401909452808452610834939283018282801561082857602002820191906000526020600020905b815481526020019060010190808311610814575b5050505050600061226f565b60a0840181905260c0840182905261084c9190612368565b6000828152600e880160209081526040909120825161087193919291909101906149b9565b505b6020840151610883906001614f8a565b60ff16602085015261089484612778565b86600a016000838152602001908152602001600020819055507f1db56059595d20d4bf27bb8520ad32deabe14f9503a113eea7e75391137d2e798989898760200151866040516108e8959493929190615083565b60405180910390a15050610958565b61090187876120f0565b602080830151604080516001600160a01b038b168152928301899052820187905260ff1660608201527faab8f05ee857b52318d8925d90dcc8cafae83a1cb25512d8511ac4c76a3e779a9060800160405180910390a15b50505050505050505050565b604080516101008101825260008082526020820181905291810182905260608082018390526080820183905260a0820183905260c082015260e08101919091528a6001600160a01b031663016dff5d6040518163ffffffff1660e01b8152600401602060405180830381865afa1580156109e2573d6000803e3d6000fd5b505050506040513d601f19601f82011682018060405250810190610a069190614ed8565b6001600160a01b0390811660408301819052908b1614610a2957610a298c611e40565b6000610a33611e63565b90508685141580610a445750868314155b15610a625760405163586cb9e160e01b815260040160405180910390fd5b8b6001600160a01b0316628e96916040518163ffffffff1660e01b8152600401602060405180830381865afa158015610a9f573d6000803e3d6000fd5b505050506040513d601f19601f82011682018060405250810190610ac39190614ed8565b6001600160a01b0390811683526040805163683fedf760e01b81529051918e169163683fedf7916004808201926020929091908290030181865afa158015610b0f573d6000803e3d6000fd5b505050506040513d601f19601f82011682018060405250810190610b339190614ed8565b6001600160a01b039081166020840152604080840151905163509e788360e11b815291169063a13cf10690610b6c908d9060040161517c565b6040805180830381865afa158015610b88573d6000803e3d6000fd5b505050506040513d601f19601f82011682018060405250810190610bac9190615190565b506001600160a01b03908116606084015260e083018a90528a8116608084015260408301518116908c1614610be657610be68a8a8d6127be565b610bf68c83604001518c8c61285c565b81602001516001600160a01b0316639a641e028b8b6040518363ffffffff1660e01b8152600401610c289291906151be565b602060405180830381865afa158015610c45573d6000803e3d6000fd5b505050506040513d601f19601f82011682018060405250810190610c6991906151d7565b6001600160401b031615610c90576040516332811e7b60e21b815260040160405180910390fd5b60608201516001600160a01b0316610cbb57604051630e8e75df60e21b815260040160405180910390fd5b60005b878110156110fa576000858583818110610cda57610cda614ef5565b9050602002016020810190610cef9190614f28565b60ff16600f811115610d0357610d03614f5e565b9050600781600f811115610d1957610d19614f5e565b03610d9c57610d97848b8b80806020026020016040519081016040528093929190818152602001838360200280828437600092019190915250506040805180820190915287925090508060085b600f811115610d7757610d77614f5e565b815260200160005b600f811115610d9057610d90614f5e565b9052612a60565b610f50565b600881600f811115610db057610db0614f5e565b03610e0157610d97848b8b8080602002602001604051908101604052809392919081815260200183836020028082843760009201919091525050604080518082019091528792509050806007610d66565b600c81600f811115610e1557610e15614f5e565b03610e7f57610d97848b8b808060200260200160405190810160405280939291908181526020018383602002808284376000920191909152505060408051808201909152879250905080600d5b600f811115610e7357610e73614f5e565b8152602001600e610d7f565b600d81600f811115610e9357610e93614f5e565b03610ee457610d97848b8b808060200260200160405190810160405280939291908181526020018383602002808284376000920191909152505060408051808201909152879250905080600c610e62565b600e81600f811115610ef857610ef8614f5e565b03610f5057610f50848b8b808060200260200160405190810160405280939291908181526020018383602002808284376000920191909152505060408051808201909152879250905080600c8152602001600d610d7f565b8c6001600160a01b031684604001516001600160a01b03161461102d57610fb68a8a84818110610f8257610f82614ef5565b9050602002016020810190610f979190614f0b565b898985818110610fa957610fa9614ef5565b905060200201358f6127be565b61102883858f8d8d87818110610fce57610fce614ef5565b9050602002016020810190610fe39190614f0b565b8c8c88818110610ff557610ff5614ef5565b905060200201358b8b8981811061100e5761100e614ef5565b90506020020160208101906110239190614f28565b612cf9565b6110f1565b6110f183858c8c8681811061104457611044614ef5565b90506020020160208101906110599190614f0b565b6001600160a01b0316636352211e8c8c8881811061107957611079614ef5565b905060200201356040518263ffffffff1660e01b815260040161109e91815260200190565b602060405180830381865afa1580156110bb573d6000803e3d6000fd5b505050506040513d601f19601f820116820180604052508101906110df9190614ed8565b8d8d87818110610fce57610fce614ef5565b50600101610cbe565b5050505050505050505050505050565b60006111c161118b61111a611e63565b600c016000611129878761221f565b815260200190815260200160002080548060200260200160405190810160405280929190818152602001828054801561118157602002820191906000526020600020905b81548152602001906001019080831161116d575b505050505061315c565b6111b8611196611e63565b6001600160a01b03871660009081526002919091016020526040902054613180565b60600151613191565b90505b92915050565b336001600160a01b0316886001600160a01b031663524a562f6040518163ffffffff1660e01b8152600401602060405180830381865afa158015611212573d6000803e3d6000fd5b505050506040513d601f19601f820116820180604052508101906112369190614ed8565b6001600160a01b0316141580156112c05750336001600160a01b0316886001600160a01b031663016dff5d6040518163ffffffff1660e01b8152600401602060405180830381865afa158015611290573d6000803e3d6000fd5b505050506040513d601f19601f820116820180604052508101906112b49190614ed8565b6001600160a01b031614155b156112e0573360405163f652640360e01b8152600401610492919061517c565b6113586112eb611e63565b896001600160a01b0316628e96916040518163ffffffff1660e01b8152600401602060405180830381865afa158015611328573d6000803e3d6000fd5b505050506040513d601f19601f8201168201806040525081019061134c9190614ed8565b898989898989896131b7565b5050505050505050565b600061136d89611e40565b6113788585886127be565b6000611382611e63565b90506000896001600160a01b031663016dff5d6040518163ffffffff1660e01b8152600401602060405180830381865afa1580156113c4573d6000803e3d6000fd5b505050506040513d601f19601f820116820180604052508101906113e89190614ed8565b90506000816001600160a01b031663a13cf106876040518263ffffffff1660e01b8152600401611418919061517c565b6040805180830381865afa158015611434573d6000803e3d6000fd5b505050506040513d601f19601f820116820180604052508101906114589190615190565b5090506001600160a01b038116611482576040516325ff1f5f60e21b815260040160405180910390fd5b61148d86868b6127be565b6114998b83888861285c565b6001600160a01b03881660009081526002840160205260408120546114bd90613180565b90508060400151600d8111156114d5576114d5614f5e565b60ff16156114f8578860405163171d4bb560e01b8152600401610492919061517c565b6115098b88888461010001516134c4565b6001600160a01b038916600090815260068501602052604081205461152d906135af565b9050806020015163ffffffff1660001480156115515750608081015163ffffffff16155b156115b95760405163138e914f60e11b81526001600160a01b038d169063271d229e90611586908b908b908f90600401615200565b600060405180830381600087803b1580156115a057600080fd5b505af11580156115b4573d6000803e3d6000fd5b505050505b6040805163afb1a9ed60e01b81526001600160a01b038a81166004830152602482018a9052835163ffffffff908116604484015260208501518116606484015292840151831660848301526060840151831660a4830152608084015190921660c4820152600160e4820152908d169063afb1a9ed9061010401600060405180830381600087803b15801561164c57600080fd5b505af1158015611660573d6000803e3d6000fd5b5050506001600160a01b038b1660009081526005870160209081526040808320805482518185028101850190935280835293965090945092508301828280156116c857602002820191906000526020600020905b8154815260200190600101908083116116b4575b50505050509050805160001461176e5760006116e38261315c565b6040805160a0810182526001600160a01b038b81168252602082018b905281830184905260016060830181905260808301529151634ffa2edf60e11b8152929350908e1691639ff45dbe9161173a91600401615223565b600060405180830381600087803b15801561175457600080fd5b505af1158015611768573d6000803e3d6000fd5b50505050505b506001600160a01b0388166000908152601084016020526040902054935061179688886120f0565b604080516001600160a01b038a81168252602082018a90528816818301526060810187905290517ff1f1eb1e7ff49bd9762762b9f568220c821456dbf31ce29687137cb19c4cd3569181900360800190a150505098975050505050505050565b826001600160a01b0316846001600160a01b03166389dd9f136040518163ffffffff1660e01b8152600401602060405180830381865afa15801561183e573d6000803e3d6000fd5b505050506040513d601f19601f820116820180604052508101906118629190614ed8565b6001600160a01b0316141580156118ec5750826001600160a01b0316846001600160a01b031663524a562f6040518163ffffffff1660e01b8152600401602060405180830381865afa1580156118bc573d6000803e3d6000fd5b505050506040513d601f19601f820116820180604052508101906118e09190614ed8565b6001600160a01b031614155b801561196d57506040516331a9108f60e11b8152600481018290526001600160a01b038085169190841690636352211e90602401602060405180830381865afa15801561193d573d6000803e3d6000fd5b505050506040513d601f19601f820116820180604052508101906119619190614ed8565b6001600160a01b031614155b1561198d578260405163f652640360e01b8152600401610492919061517c565b61199782826136b4565b6119a182826120f0565b50505050565b6040805160e081018252606080825260208201819052600092820183905281018290526080810182905260a0810182905260c08101919091526119e9866136e8565b6001600160a01b031660608201526000611a01611e63565b905082611a825781606001516001600160a01b031663be2e0ad887876040518363ffffffff1660e01b8152600401611a3a9291906151be565b600060405180830381865afa158015611a57573d6000803e3d6000fd5b505050506040513d6000823e601f3d908101601f19168201604052611a7f91908101906152c5565b82525b866001600160a01b0316628e96916040518163ffffffff1660e01b8152600401602060405180830381865afa158015611abf573d6000803e3d6000fd5b505050506040513d601f19601f82011682018060405250810190611ae39190614ed8565b6001600160a01b031660408084018290525163fbed9ac560e01b815263fbed9ac590611b1590899089906004016151be565b600060405180830381865afa158015611b32573d6000803e3d6000fd5b505050506040513d6000823e601f3d908101601f19168201604052611b5a91908101906152c5565b602083015260005b8260200151518110156113585783611c7957600c60ff1683602001518281518110611b8f57611b8f614ef5565b602002602001015160ff16148015611bc4575082518051600090611bb557611bb5614ef5565b602002602001015160ff166000145b80611c1c5750600d60ff1683602001518281518110611be557611be5614ef5565b602002602001015160ff16148015611c1c5750825180516001908110611c0d57611c0d614ef5565b602002602001015160ff166000145b80611c745750600e60ff1683602001518281518110611c3d57611c3d614ef5565b602002602001015160ff16148015611c745750825180516002908110611c6557611c65614ef5565b602002602001015160ff166000145b611e1f575b611d3b83604001516001600160a01b0316633bdb788b898987602001518681518110611ca757611ca7614ef5565b60209081029190910101516040516001600160e01b031960e086901b1681526001600160a01b0390931660048401526001600160401b03909116602483015260ff166044820152606401602060405180830381865afa158015611d0e573d6000803e3d6000fd5b505050506040513d601f19601f82011682018060405250810190611d329190614f45565b9060a082901c90565b60c085018190526001600160a01b0390911660808501819052611d649184919060ff89166137fa565b61ffff1660a08401819052600003611e1f57611e1f82846040015185608001518660c001518b8b89602001518881518110611da157611da1614ef5565b60200260200101518e6001600160a01b0316636352211e8f6040518263ffffffff1660e01b8152600401611dd791815260200190565b602060405180830381865afa158015611df4573d6000803e3d6000fd5b505050506040513d601f19601f82011682018060405250810190611e189190614ed8565b60006131b7565b600101611b62565b611e388686868686866138f56139a5565b505050505050565b80611e6057336040516377817ac360e01b8152600401610492919061517c565b50565b7fe78a2879cd91c3f7b62ea14e72546fed47c40919bca4daada532a5fa05ac670090565b611e9f846060015185610100015186604001516127be565b611ebc84602001518560a00151866060015187610100015161285c565b8360c001516001600160a01b0316639a641e0285606001518661010001516040518363ffffffff1660e01b8152600401611ef79291906151be565b602060405180830381865afa158015611f14573d6000803e3d6000fd5b505050506040513d601f19601f82011682018060405250810190611f3891906151d7565b6001600160401b031615611f5f5760405163899454e360e01b815260040160405180910390fd5b611f8484610100015185606001516001600160a01b031661221f90919063ffffffff16565b600b86016000611f9d6001600160a01b0387168661221f565b81526020019081526020016000205414611fcc5782604051632cab491d60e21b8152600401610492919061517c565b611ff2858560e0015185858860600151896101000151878b608001518c600001516131b7565b5050505050565b612001614a04565b612009614a55565b6120168888888888613b59565b6120218584886127be565b8284036120415760405163501056cd60e01b815260040160405180910390fd5b61204c611196611e63565b9150612085612059611e63565b600a0160006120716001600160a01b0389168861221f565b815260200190815260200160002054613bed565b905061209185856136b4565b61209b85846136b4565b965096945050505050565b8160400151600d8111156120bc576120bc614f5e565b15806120cc5750815160ff166004145b156120ec57806040516327f46c4f60e01b8152600401610492919061517c565b5050565b604051630852cd8d60e31b8152600481018290526001600160a01b038316906342966c6890602401600060405180830381600087803b15801561213257600080fd5b505af1158015612146573d6000803e3d6000fd5b505050507f789ec66f21698ed1b990c0a8a8be99cf6f5fb8eb3826ee4ee9384870e8db25b1828260405161217b9291906151be565b60405180910390a15050565b6001600160a01b038281166000908152600386016020526040812054909160a082901c9082161561221557604051631e478ddf60e11b81526001600160a01b03871690633c8f1bbe906121e290859085908990600401615200565b600060405180830381600087803b1580156121fc57600080fd5b505af1158015612210573d6000803e3d6000fd5b505050505b5095945050505050565b60006001600160401b0382111561224c57604051633995b34160e01b815260048101839052602401610492565b5067ffffffffffffffff60a01b60a09190911b166001600160a01b039091161790565b60608061227b84613c56565b909250905060005b82518110156123605760188282815181106122a0576122a0614ef5565b602002602001015160ff160315612358578380156122da575060008382815181106122cd576122cd614ef5565b602002602001015160030b135b8061230a57508315801561230a575060008382815181106122fd576122fd614ef5565b602002602001015160030b125b156123585761233183828151811061232457612324614ef5565b6020026020010151612672565b83828151811061234357612343614ef5565b602002602001019060030b908160030b815250505b600101612283565b509250929050565b6060815183511461238c5760405163586cb9e160e01b815260040160405180910390fd5b60006008845161239c919061538c565b6123a79060016153a0565b90506000816001600160401b038111156123c3576123c361527f565b6040519080825280602002602001820160405280156123ec578160200160208202803683370190505b50905060005b828110156125bd5760005b60088110156125b4576000816124148460086153b3565b61241e91906153a0565b90508751811061242e57506125b4565b627fffff60020b88828151811061244757612447614ef5565b602002602001015160030b13806124805750627fffff1960020b88828151811061247357612473614ef5565b602002602001015160030b125b156124be5787818151811061249757612497614ef5565b602002602001015160030b604051632eb1d06960e01b815260040161049291815260200190565b8781815181106124d0576124d0614ef5565b602002602001015160030b6000036124fb57604051637c946ed760e01b815260040160405180910390fd5b6125068260206153b3565b88828151811061251857612518614ef5565b602002602001015162ffffff1660001b901b84848151811061253c5761253c614ef5565b60200260200101818151179150818152505081602061255b91906153b3565b6125669060186153a0565b87828151811061257857612578614ef5565b602002602001015160ff1660001b901b84848151811061259a5761259a614ef5565b6020908102919091010180519091179052506001016123fd565b506001016123f2565b50949350505050565b6125ce614a77565b6125d6614a9c565b60a883901c600390810b6060830152608884901c810b604080840191909152606885901c820b602080850191909152604886901c830b8452602886901c830b91850191909152600885901c90910b908301528260ff8116600581111561263e5761263e614f5e565b8390600581111561265157612651614f5e565b9081600581111561266457612664614f5e565b905250506060820152919050565b60008160030b60000361268757506000919050565b60008260030b13156126bd576126b36126ac6126a58460030b613f47565b6005613f76565b6001613fbb565b6111c490836153ca565b6126d76126ac6126a56126cf856153f1565b60030b613f47565b6111c49083615414565b919050565b60006111c48260000151600581111561270157612701614f5e565b6020848101516040808701516060808901518051958101519381015191015160ff9690961660089490941b64ffffffff00169390931760289190911b63ffffffff60281b161760489390931b600c0b9290921760689290921b60100b9190911760889190911b60140b1760a89190911b60180b1790565b60006111c48260000151600681111561279357612793614f5e565b6020840151604085015160ff9290921660089190911b61ff00161760109190911b63ffff0000161790565b6040516331a9108f60e11b8152600481018390526001600160a01b038083169190851690636352211e90602401602060405180830381865afa158015612808573d6000803e3d6000fd5b505050506040513d601f19601f8201168201806040525081019061282c9190614ed8565b6001600160a01b03161461285757828260405163547208b960e11b81526004016104929291906151be565b505050565b836001600160a01b0316632f91ede96040518163ffffffff1660e01b8152600401602060405180830381865afa15801561289a573d6000803e3d6000fd5b505050506040513d601f19601f820116820180604052508101906128be9190614ed8565b6001600160a01b0316635451da1b83836040518363ffffffff1660e01b81526004016128eb9291906151be565b602060405180830381865afa158015612908573d6000803e3d6000fd5b505050506040513d601f19601f8201168201806040525081019061292c919061543b565b1561294e578181604051634f38de4760e11b81526004016104929291906151be565b836001600160a01b03166318d928316040518163ffffffff1660e01b8152600401602060405180830381865afa15801561298c573d6000803e3d6000fd5b505050506040513d601f19601f820116820180604052508101906129b0919061543b565b156129ce57604051635e1633d360e11b815260040160405180910390fd5b604051631789b7b160e01b81526001600160a01b03841690631789b7b1906129fa90859060040161517c565b602060405180830381865afa158015612a17573d6000803e3d6000fd5b505050506040513d601f19601f82011682018060405250810190612a3b9190615458565b60ff166000036119a1578160405163adc7fced60e01b8152600401610492919061517c565b8360a00151612af4578351608085015160e086015160405163fbed9ac560e01b81526001600160a01b039093169263fbed9ac592612aa29290916004016151be565b600060405180830381865afa158015612abf573d6000803e3d6000fd5b505050506040513d6000823e601f3d908101601f19168201604052612ae791908101906152c5565b60c0850152600160a08501525b825160005b81811015612b7857808414612b7057848481518110612b1a57612b1a614ef5565b60200260200101516001600160a01b0316858281518110612b3d57612b3d614ef5565b60200260200101516001600160a01b031603612b7057838560405163589dc38360e01b8152600401610492929190615475565b600101612af9565b505060c08401515160005b81811015611e38578560c001518181518110612ba157612ba1614ef5565b602002602001015160ff1683600060028110612bbf57612bbf614ef5565b6020020151600f811115612bd557612bd5614f5e565b60ff161480612c2e57508560c001518181518110612bf557612bf5614ef5565b602002602001015160ff1683600160028110612c1357612c13614ef5565b6020020151600f811115612c2957612c29614f5e565b60ff16145b15612cf1576000612c6b87600001516001600160a01b0316633bdb788b89608001518a60e001518b60c001518781518110611ca757611ca7614ef5565b509050858581518110612c8057612c80614ef5565b60200260200101516001600160a01b0316816001600160a01b031603612cef57808760c001518381518110612cb757612cb7614ef5565b60209081029190910101516040516313bc713d60e21b81526001600160a01b03909216600483015260ff166024820152604401610492565b505b600101612b83565b6001600160a01b0383166000908152600287016020526040812054612d1d90613180565b90506000612d3c600a8901826120716001600160a01b0389168861221f565b825190915060ff16600003612d6657846040516308057f8b60e11b8152600401610492919061517c565b612d7085856136b4565b612d7a82866120a6565b606082015161ffff1615801590612d975750604081015161ffff16155b15612db757846040516318b5fb5360e11b8152600401610492919061517c565b612dd4876000015188608001518960e001518561010001516134c4565b86600001516001600160a01b031663906f0ced88608001518960e001518560400151600d811115612e0757612e07614f5e565b878a8a60016040518863ffffffff1660e01b8152600401612e2e97969594939291906154ce565b600060405180830381600087803b158015612e4857600080fd5b505af1158015612e5c573d6000803e3d6000fd5b50600092505050600c890181612e7b6001600160a01b0389168861221f565b8152602001908152602001600020805480602002602001604051908101604052809291908181526020018280548015612ed357602002820191906000526020600020905b815481526020019060010190808311612ebf575b50505050509050805160001461302b5787600001516001600160a01b0316639ff45dbe6040518060a001604052808b608001516001600160a01b031681526020018b60e001518152602001612f278561315c565b8152600160208201526000604091820152516001600160e01b031960e084901b168152612f579190600401615223565b600060405180830381600087803b158015612f7157600080fd5b505af1158015612f85573d6000803e3d6000fd5b5050895160808b015160e08c0151604051631a95890960e31b81526001600160a01b03909316945063d4ac48489350612fc0926004016151be565b60a060405180830381865afa158015612fdd573d6000803e3d6000fd5b505050506040513d601f19601f820116820180604052508101906130019190615531565b6040015163ffffffff1660000361302b57604051630915eecf60e21b815260040160405180910390fd5b6080880151604051630ee8df4560e31b81526001600160a01b03881691637746fa289161305e918b918a906004016155be565b600060405180830381600087803b15801561307857600080fd5b505af115801561308c573d6000803e3d6000fd5b50505060e089015160808a01516130ad92506001600160a01b03169061221f565b600b8a0160006130c66001600160a01b038a168961221f565b8152602001908152602001600020819055507feb2eb074eb15472636bebc93010969043d430b4a120914dd775a8240cf6d54ff86868a608001518b60e00151886040516131499594939291906001600160a01b0395861681526020810194909452919093166040830152606082019290925260ff91909116608082015260a00190565b60405180910390a1505050505050505050565b606060008061316a84613c56565b915091506131788282613fd1565b949350505050565b613188614a04565b6111c48261407f565b60006131a2600161ffff84166153b3565b6131ad84600061417d565b6111c191906153a0565b60006131cc6001600160a01b0389168861221f565b6001600160a01b038916600090815260028c016020526040812054919250906131f490613180565b6000838152600a8d0160205260408120549192509061321290613bed565b905061321e828b6120a6565b8a6001600160a01b031663906f0ced89898560400151600d81111561324557613245614f5e565b8a8f8f60006040518863ffffffff1660e01b815260040161326c97969594939291906154ce565b600060405180830381600087803b15801561328657600080fd5b505af115801561329a573d6000803e3d6000fd5b5050505083156132c657600060408201526132b481612778565b6000848152600a8e0160205260409020555b6000838152600c8d01602090815260408083208054825181850281018501909352808352919290919083018282801561331e57602002820191906000526020600020905b81548152602001906001019080831161330a575b5050505050905080516000146133c9578b6001600160a01b0316639ff45dbe6040518060a001604052808c6001600160a01b031681526020018b81526020016133668561315c565b8152600060208201819052604091820152516001600160e01b031960e084901b1681526133969190600401615223565b600060405180830381600087803b1580156133b057600080fd5b505af11580156133c4573d6000803e3d6000fd5b505050505b6000848152600b8e0160205260408082209190915551630ee8df4560e31b81526001600160a01b038c1690637746fa289061340c908c908a908f906004016155be565b600060405180830381600087803b15801561342657600080fd5b505af115801561343a573d6000803e3d6000fd5b505050507fd26bc924e2dd5a06c95c625446278e313e22ec09b4f606842d4a603b9dcb795e8b8b8b8b8b8b6040516134ad969594939291906001600160a01b03968716815260208101959095529285166040850152606084019190915260ff16608083015290911660a082015260c00190565b60405180910390a150505050505050505050505050565b604051630fba6a5960e11b81526000906001600160a01b03861690631f74d4b2906134f590879087906004016151be565b608060405180830381865afa158015613512573d6000803e3d6000fd5b505050506040513d601f19601f8201168201806040525081019061353691906155f4565b9050806000015160030b826000015160030b13806135615750806020015160030b826020015160030b135b806135795750806040015160030b826040015160030b135b806135915750806060015160030b826060015160030b135b15611ff257604051637e2b537360e11b815260040160405180910390fd5b6040805160a0810182526000808252602082018190529181018290526060810182905260808101829052906135e38361470d565b90506040518060a001604052808260008151811061360357613603614ef5565b602002602001015163ffffffff1681526020018260018151811061362957613629614ef5565b602002602001015163ffffffff1681526020018260028151811061364f5761364f614ef5565b602002602001015163ffffffff1681526020018260038151811061367557613675614ef5565b602002602001015163ffffffff1681526020018260048151811061369b5761369b614ef5565b602002602001015163ffffffff16815250915050919050565b6136c66136bf611e63565b8383614782565b156120ec57818160405163b713373360e01b81526004016104929291906151be565b6000816001600160a01b031663683fedf76040518163ffffffff1660e01b8152600401602060405180830381865afa158015613728573d6000803e3d6000fd5b505050506040513d601f19601f8201168201806040525081019061374c9190614ed8565b9050336001600160a01b038216148015906137da5750816001600160a01b0316632f91ede96040518163ffffffff1660e01b8152600401602060405180830381865afa1580156137a0573d6000803e3d6000fd5b505050506040513d601f19601f820116820180604052508101906137c49190614ed8565b6001600160a01b0316336001600160a01b031614155b156126e1573360405163f652640360e01b8152600401610492919061517c565b6001600160a01b0383166000908152600285016020526040812054819061382090613180565b9050600061383f600a8801826120716001600160a01b038a168961221f565b905061385d84826040015161ffff16846020015185604001516147b7565b61ffff81166040830152925061387281612778565b600a8801600061388b6001600160a01b038a168961221f565b815260208082019290925260409081016000209290925581516001600160a01b038916815290810187905261ffff85168183015290517fc908941e7b4ba5cafc0301345d054e70cacd43a6dae9abfbf2a4157259c686939181900360600190a15050949350505050565b60008160000361390757506000919050565b6000613911614857565b905061391e8360016153a0565b4340414443423a5a8860405160200161397b98979695949392919097885260609690961b6001600160601b0319166020880152603487019490945260548601929092526074850152609484015260b483015260d482015260f40190565b6040516020818303038152906040528051906020012060001c61399e9190615670565b9392505050565b60006139af611e63565b90506000806139c28a8a8a8a8a8a611ff9565b91509150816060015161ffff166000036139ef576040516331bbe31b60e11b815260040160405180910390fd5b6139f987866120f0565b613a05838a898b612187565b506000613a12888861488f565b90506000811580613a3b575081613a39613a306001620186a0615684565b8863ffffffff16565b115b90506000600f613a4f60648963ffffffff16565b10905081613a61578360400151613a67565b84606001515b61ffff166040850152613a928a8a848015613a7f5750835b613a8a5760006148c8565b6103e86148c8565b613a9b84612778565b600a87016000613ab46001600160a01b038e168d61221f565b81526020810191909152604001600020558115613b11577fde16350403f256cc67aeea6a71567d525e5f2856e1faf79c8de707ed6d4f4e268a8a8a8860600151604051613b049493929190615697565b60405180910390a1613b4a565b7f7d7fd076d42f4e9ea5daa926fa152e8b1e43557eb5f671c41a4529f4f7e75af68a8a8a87604001516040516134ad9493929190615697565b50505050505050505050505050565b613b6285611e40565b836001600160a01b03166318d928316040518163ffffffff1660e01b8152600401602060405180830381865afa158015613ba0573d6000803e3d6000fd5b505050506040513d601f19601f82011682018060405250810190613bc4919061543b565b15613be257604051635e1633d360e11b815260040160405180910390fd5b611ff28282856127be565b613bf5614a55565b61ffff601083901c16604082015260ff600883901c81166020830152829081166006811115613c2657613c26614f5e565b82906006811115613c3957613c39614f5e565b90816006811115613c4c57613c4c614f5e565b8152505050919050565b805160609081906000613c6a8260086153b3565b90506000816001600160401b03811115613c8657613c8661527f565b604051908082528060200260200182016040528015613caf578160200160208202803683370190505b5090506000826001600160401b03811115613ccc57613ccc61527f565b604051908082528060200260200182016040528015613cf5578160200160208202803683370190505b5090506000805b85811015613e225760005b6008811015613e1957600081613d1e8460086153b3565b613d2891906153a0565b9050613d358260206153b3565b8b8481518110613d4757613d47614ef5565b602002602001015160001c901c60020b868281518110613d6957613d69614ef5565b60039290920b602092830291909101820152613d869083906153b3565b613d919060186153a0565b8b8481518110613da357613da3614ef5565b602002602001015160001c901c858281518110613dc257613dc2614ef5565b602002602001019060ff16908160ff1681525050858181518110613de857613de8614ef5565b602002602001015160030b600003613e005750613e19565b83613e0a816156c1565b94505050806001019050613d07565b50600101613cfc565b50806001600160401b03811115613e3b57613e3b61527f565b604051908082528060200260200182016040528015613e64578160200160208202803683370190505b509650806001600160401b03811115613e7f57613e7f61527f565b604051908082528060200260200182016040528015613ea8578160200160208202803683370190505b50955060005b81811015613f3c57838181518110613ec857613ec8614ef5565b6020026020010151888281518110613ee257613ee2614ef5565b602002602001019060030b908160030b81525050828181518110613f0857613f08614ef5565b6020026020010151878281518110613f2257613f22614ef5565b60ff90921660209283029190910190910152600101613eae565b505050505050915091565b6000808260030b1215613f5c57506000919050565b60008260030b13613f6f57506000919050565b5060030b90565b600081600003613f9157613f8a828461538c565b90506111c4565b8215613fb257816001840381613fa957613fa9615376565b046001016111c1565b50600092915050565b6000818311613fca57816111c1565b5090919050565b60408051602b8082526105808201909252606091602082016105608036833701905050905060005b835181101561407857600084828151811061401657614016614ef5565b602002602001015190508060030b60001461406f57808385848151811061403f5761403f614ef5565b602002602001015160ff168151811061405a5761405a614ef5565b602002602001019060030b908160030b815250505b50600101613ff9565b5092915050565b614087614a04565b61408f614a04565b60ff8084168252600884901c81166020830152601084901c16600d8111156140b9576140b9614f5e565b8160400190600d8111156140cf576140cf614f5e565b9081600d8111156140e2576140e2614f5e565b905250601883901c61ffff16606082810191909152602884901c60ff908116608080850191909152603086901c821660c080860191909152603887901c90921660e0850152604086811c63ffffffff1660a0808701919091526101008601805189871c600390810b9091528151948a901c810b6020959095019490945280519189901c840b9190920152519590911c900b9301929092525090565b600080600a6141bc6141ac8660045b8151811061419c5761419c614ef5565b602002602001015160030b613f47565b6141b787600561418c565b61495b565b6141c691906153b3565b6101f46141d486600861418c565b6141de91906153b3565b600a6141eb87600761418c565b6141f591906153b3565b600361420288600661418c565b61420c91906153b3565b606461421989600361418c565b61422391906153b3565b60646142308a600261418c565b61423a91906153b3565b60646142478b600161418c565b61425191906153b3565b606461425e8c600061418c565b61426891906153b3565b61427291906153a0565b61427c91906153a0565b61428691906153a0565b61429091906153a0565b61429a91906153a0565b6142a491906153a0565b6142ae91906153a0565b6142b890826153a0565b905060646142c785600d61418c565b6142d191906153b3565b60646142de86600c61418c565b6142e891906153b3565b60646142f587600b61418c565b6142ff91906153b3565b61430991906153a0565b61431391906153a0565b61431d90826153a0565b9050826111c157600a614330858261418c565b61433a91906153b3565b600a61434786600961418c565b61435191906153b3565b61435b91906153a0565b61436590826153a0565b9050601461437485601561418c565b61437e91906153b3565b601461438a868261418c565b61439491906153b3565b60146143a187601361418c565b6143ab91906153b3565b60146143b888601261418c565b6143c291906153b3565b60146143cf89601161418c565b6143d991906153b3565b60146143e68a601061418c565b6143f091906153b3565b60146143fd8b600f61418c565b61440791906153b3565b60146144148c600e61418c565b61441e91906153b3565b61442891906153a0565b61443291906153a0565b61443c91906153a0565b61444691906153a0565b61445091906153a0565b61445a91906153a0565b61446491906153a0565b61446e90826153a0565b9050606461447d85602961418c565b61448791906153b3565b606461449486602661418c565b61449e91906153b3565b60646144ab87602561418c565b6144b591906153b3565b60646144c288602461418c565b6144cc91906153b3565b60646144d989602361418c565b6144e391906153b3565b60646144f08a602261418c565b6144fa91906153b3565b61450491906153a0565b61450e91906153a0565b61451891906153a0565b61452291906153a0565b61452c91906153a0565b61453690826153a0565b905060c861454585601d61418c565b61454f91906153b3565b60c861455c86601c61418c565b61456691906153b3565b60c861457387601b61418c565b61457d91906153b3565b60c861458a88601a61418c565b61459491906153b3565b60966145a189601961418c565b6145ab91906153b3565b61012c6145b98a601761418c565b6145c391906153b3565b6127106145d18b601661418c565b6145db91906153b3565b6145e591906153a0565b6145ef91906153a0565b6145f991906153a0565b61460391906153a0565b61460d91906153a0565b61461791906153a0565b61462190826153a0565b9050604661463085602a61418c565b61463a91906153b3565b60fa61464786602861418c565b61465191906153b3565b60fa61465e87602761418c565b61466891906153b3565b6101f461467688602161418c565b61468091906153b3565b6103e861468e89602061418c565b61469891906153b3565b6103e86146a68a601f61418c565b6146b091906153b3565b60c86146bd8b601e61418c565b6146c791906153b3565b6146d191906153a0565b6146db91906153a0565b6146e591906153a0565b6146ef91906153a0565b6146f991906153a0565b61470391906153a0565b61317890826153a0565b604080516008808252610120820190925260609160009190602082016101008036833701905050905060005b60088110156140785761474d8160206153b3565b8460001c901c82828151811061476557614765614ef5565b63ffffffff90921660209283029190910190910152600101614739565b600080600b85018161479d6001600160a01b0387168661221f565b815260200190815260200160002054141590509392505050565b60006003600b83600d8111156147cf576147cf614f5e565b146148355760006147e4600560ff871661538c565b6147ef9060016153a0565b90508681101561483357600280614806838a615684565b6148119060016153a0565b61481b91906157b6565b614825919061538c565b6148309060036153b3565b91505b505b80851161484357600061484d565b61484d8186615684565b9695505050505050565b60006350877ed646148061486e5750630235ddd046145b1561488c576040518060208160008060185afa61488757fe5b505190505b90565b6000614899611e63565b60110160006148b16001600160a01b0386168561221f565b815260200190815260200160002054905092915050565b60006148d2611e63565b60110160006148ea6001600160a01b0387168661221f565b8152602001908152602001600020549050620186a0828261490b91906153a0565b1161491f5761491a82826153a0565b614924565b620186a05b61492c611e63565b60110160006149446001600160a01b0388168761221f565b815260208101919091526040016000205550505050565b600061496a600284841861538c565b6111c1908484166153a0565b6040518060e001604052806060815260200160608152602001614997614a77565b8152602001606081526020016060815260200160608152602001606081525090565b8280548282559060005260206000209081019282156149f4579160200282015b828111156149f45782518255916020019190600101906149d9565b50614a00929150614ac3565b5090565b60408051610120810182526000808252602082018190529091820190815260006020820181905260408201819052606082018190526080820181905260a082015260c001614a50614a9c565b905290565b6040805160608101909152806000815260006020820181905260409091015290565b604080516080810190915280600081526000602082018190526040820152606001614a505b60408051608081018252600080825260208201819052918101829052606081019190915290565b5b80821115614a005760008155600101614ac4565b8015158114611e6057600080fd5b80356126e181614ad8565b6001600160a01b0381168114611e6057600080fd5b80356126e181614af1565b60008083601f840112614b2357600080fd5b5081356001600160401b03811115614b3a57600080fd5b6020830191508360208260051b8501011115614b5557600080fd5b9250929050565b60008060008060008060008060008060006101008c8e031215614b7e57600080fd5b614b878c614ae6565b9a50614b9560208d01614b06565b9950614ba360408d01614b06565b9850614bb160608d01614b06565b975060808c013596506001600160401b038060a08e01351115614bd357600080fd5b614be38e60a08f01358f01614b11565b909750955060c08d0135811015614bf957600080fd5b614c098e60c08f01358f01614b11565b909550935060e08d0135811015614c1f57600080fd5b50614c308d60e08e01358e01614b11565b81935080925050509295989b509295989b9093969950565b60008060008060008060c08789031215614c6157600080fd5b8635614c6c81614ad8565b95506020870135614c7c81614af1565b94506040870135614c8c81614af1565b93506060870135614c9c81614af1565b9598949750929560808101359460a0909101359350915050565b60008060408385031215614cc957600080fd5b8235614cd481614af1565b946020939093013593505050565b60ff81168114611e6057600080fd5b600080600080600080600080610100898b031215614d0e57600080fd5b8835614d1981614af1565b97506020890135614d2981614af1565b9650604089013595506060890135614d4081614af1565b94506080890135935060a0890135614d5781614ce2565b925060c0890135614d6781614af1565b915060e0890135614d7781614ad8565b809150509295985092959890939650565b600080600080600080600080610100898b031215614da557600080fd5b8835614db081614ad8565b97506020890135614dc081614af1565b96506040890135614dd081614af1565b95506060890135614de081614af1565b94506080890135614df081614af1565b935060a0890135925060c0890135614e0781614af1565b8092505060e089013590509295985092959890939650565b60008060008060808587031215614e3557600080fd5b8435614e4081614af1565b93506020850135614e5081614af1565b92506040850135614e6081614af1565b9396929550929360600135925050565b600080600080600060a08688031215614e8857600080fd5b8535614e9381614af1565b94506020860135614ea381614af1565b9350604086013592506060860135614eba81614ce2565b91506080860135614eca81614ad8565b809150509295509295909350565b600060208284031215614eea57600080fd5b81516111c181614af1565b634e487b7160e01b600052603260045260246000fd5b600060208284031215614f1d57600080fd5b81356111c181614af1565b600060208284031215614f3a57600080fd5b81356111c181614ce2565b600060208284031215614f5757600080fd5b5051919050565b634e487b7160e01b600052602160045260246000fd5b634e487b7160e01b600052601160045260246000fd5b60ff81811683821601908111156111c4576111c4614f74565b60008151808452602080850194506020840160005b83811015614fd757815160ff1687529582019590820190600101614fb8565b509495945050505050565b60008151808452602080850194506020840160005b83811015614fd757815160030b87529582019590820190600101614ff7565b80516006811061503657634e487b7160e01b600052602160045260246000fd5b8252602081810151600390810b82850152604080840151820b818601526060938401518051830b8587015292830151820b6080860152820151810b60a0850152910151900b60c090910152565b60018060a01b038616815284602082015283604082015260ff8316606082015260a06080820152600082516101a060a08401526150c4610240840182614fa3565b90506020840151609f19808584030160c08601526150e28383614fe2565b9250604086015191506150f860e0860183615016565b6060860151915080858403016101c08601526151148383614fa3565b92506080860151915080858403016101e08601526151328383614fe2565b925060a0860151915080858403016102008601526151508383614fa3565b925060c0860151915080858403016102208601525061516f8282614fe2565b9998505050505050505050565b6001600160a01b0391909116815260200190565b600080604083850312156151a357600080fd5b82516151ae81614af1565b6020939093015192949293505050565b6001600160a01b03929092168252602082015260400190565b6000602082840312156151e957600080fd5b81516001600160401b03811681146111c157600080fd5b6001600160a01b0393841681526020810192909252909116604082015260600190565b6020815260018060a01b038251166020820152602082015160408201526000604083015160a0606084015261525b60c0840182614fe2565b90506060840151151560808401526080840151151560a08401528091505092915050565b634e487b7160e01b600052604160045260246000fd5b604051601f8201601f191681016001600160401b03811182821017156152bd576152bd61527f565b604052919050565b600060208083850312156152d857600080fd5b82516001600160401b03808211156152ef57600080fd5b818501915085601f83011261530357600080fd5b8151818111156153155761531561527f565b8060051b9150615326848301615295565b818152918301840191848101908884111561534057600080fd5b938501935b8385101561536a578451925061535a83614ce2565b8282529385019390850190615345565b98975050505050505050565b634e487b7160e01b600052601260045260246000fd5b60008261539b5761539b615376565b500490565b808201808211156111c4576111c4614f74565b80820281158282048414176111c4576111c4614f74565b600381810b9083900b01637fffffff8113637fffffff19821217156111c4576111c4614f74565b60008160030b637fffffff19810361540b5761540b614f74565b60000392915050565b600382810b9082900b03637fffffff198112637fffffff821317156111c4576111c4614f74565b60006020828403121561544d57600080fd5b81516111c181614ad8565b60006020828403121561546a57600080fd5b81516111c181614ce2565b60006040820184835260206040602085015281855180845260608601915060208701935060005b818110156154c15784516001600160a01b03168352938301939183019160010161549c565b5090979650505050505050565b6001600160a01b0397881681526001600160401b03969096166020870152604086019490945260ff929092166060850152909316608083015260a082019290925290151560c082015260e00190565b805163ffffffff811681146126e157600080fd5b600060a0828403121561554357600080fd5b60405160a081018181106001600160401b03821117156155655761556561527f565b6040526155718361551d565b815261557f6020840161551d565b60208201526155906040840161551d565b60408201526155a16060840161551d565b60608201526155b26080840161551d565b60808201529392505050565b6001600160a01b039384168152919092166020820152604081019190915260600190565b8051600381900b81146126e157600080fd5b60006080828403121561560657600080fd5b604051608081018181106001600160401b03821117156156285761562861527f565b604052615634836155e2565b8152615642602084016155e2565b6020820152615653604084016155e2565b6040820152615664606084016155e2565b60608201529392505050565b60008261567f5761567f615376565b500690565b818103818111156111c4576111c4614f74565b6001600160a01b039490941684526020840192909252604083015261ffff16606082015260800190565b6000600182016156d3576156d3614f74565b5060010190565b600181815b808511156123605781600019048211156156fb576156fb614f74565b8085161561570857918102915b93841c93908002906156df565b600082615724575060016111c4565b81615731575060006111c4565b816001811461574757600281146157515761576d565b60019150506111c4565b60ff84111561576257615762614f74565b50506001821b6111c4565b5060208310610133831016604e8410600b8410161715615790575081810a6111c4565b61579a83836156da565b80600019048211156157ae576157ae614f74565b029392505050565b60006111c160ff84168361571556fea26469706673582212201bd5c4a4ee1072f2690727641b737849df96ed2b56179aee930522be1a16b27a64736f6c63430008170033",
  "libraries": {},
  "devdoc": {
    "kind": "dev",
    "methods": {
      "takeOffDirectly(IController,address,uint256,address,uint256,uint8,address,bool)": {
        "details": "Some stories can manipulate items"
      }
    },
    "stateVariables": {
      "AUGMENT_FACTOR": {
        "details": "should be 20%"
      },
      "MAIN_STORAGE_LOCATION": {
        "details": "keccak256(abi.encode(uint256(keccak256(\"item.controller.main\")) - 1)) & ~bytes32(uint256(0xff))"
      }
    },
    "version": 1
  },
  "userdoc": {
    "kind": "user",
    "methods": {
      "augment(bool,IController,address,address,uint256,uint256)": {
        "notice": "Destroy {consumed item} to augment given {item}. There is a chance of 30% that the item will be destroyed instead of augmentation."
      },
      "reduceEquippedItemsDurability(IController,address,uint256,uint8,bool)": {
        "notice": "Reduce durability of all equipped items except not-used items of SKILL-type. Used skills are stored in skillSlotsForDurabilityReduction"
      },
      "repairDurability(bool,IController,address,address,uint256,uint256)": {
        "notice": "Destroy {consumed item} to repair durability of the {item} There is a chance ~ item fragility that the item won't be repaired."
      },
      "use(bool,IController,IStatController,address,address,uint256,address,uint256)": {
        "notice": "Use consumable"
      }
    },
    "version": 1
  },
  "storageLayout": {
    "storage": [],
    "types": null
  }
}