{
  "address": "0xDE0A2F282bde4AD543e911f1a95bD93aA24a355A",
  "abi": [
    {
      "inputs": [],
      "name": "AlreadyInitialized",
      "type": "error"
    },
    {
      "inputs": [
        {
          "internalType": "address",
          "name": "sender",
          "type": "address"
        }
      ],
      "name": "ErrorNotDeployer",
      "type": "error"
    },
    {
      "inputs": [],
      "name": "ErrorNotStoryController",
      "type": "error"
    },
    {
      "inputs": [],
      "name": "ErrorPaused",
      "type": "error"
    },
    {
      "inputs": [
        {
          "internalType": "int32",
          "name": "min",
          "type": "int32"
        },
        {
          "internalType": "int32",
          "name": "max",
          "type": "int32"
        }
      ],
      "name": "IncorrectMinMaxAttributeRange",
      "type": "error"
    },
    {
      "inputs": [
        {
          "internalType": "uint8",
          "name": "kind",
          "type": "uint8"
        }
      ],
      "name": "IncorrectOtherItemTypeKind",
      "type": "error"
    },
    {
      "inputs": [
        {
          "internalType": "int256",
          "name": "value",
          "type": "int256"
        }
      ],
      "name": "IntOutOfRange",
      "type": "error"
    },
    {
      "inputs": [],
      "name": "InvalidInitialization",
      "type": "error"
    },
    {
      "inputs": [],
      "name": "ItemMetaTypeChanged",
      "type": "error"
    },
    {
      "inputs": [],
      "name": "ItemTypeChanged",
      "type": "error"
    },
    {
      "inputs": [],
      "name": "LengthsMismatch",
      "type": "error"
    },
    {
      "inputs": [
        {
          "internalType": "address",
          "name": "sender",
          "type": "address"
        }
      ],
      "name": "NotEOA",
      "type": "error"
    },
    {
      "inputs": [],
      "name": "NotExist",
      "type": "error"
    },
    {
      "inputs": [],
      "name": "NotInitialized",
      "type": "error"
    },
    {
      "inputs": [],
      "name": "NotInitializing",
      "type": "error"
    },
    {
      "inputs": [],
      "name": "NotZeroOtherItemMetaType",
      "type": "error"
    },
    {
      "inputs": [
        {
          "internalType": "uint256",
          "name": "index",
          "type": "uint256"
        },
        {
          "internalType": "uint256",
          "name": "length",
          "type": "uint256"
        }
      ],
      "name": "OutOfBounds",
      "type": "error"
    },
    {
      "inputs": [
        {
          "internalType": "uint256",
          "name": "value",
          "type": "uint256"
        }
      ],
      "name": "TooHighValue",
      "type": "error"
    },
    {
      "inputs": [],
      "name": "WrongWayToRegisterItem",
      "type": "error"
    },
    {
      "inputs": [],
      "name": "ZeroItemMetaType",
      "type": "error"
    },
    {
      "inputs": [],
      "name": "ZeroLevel",
      "type": "error"
    },
    {
      "inputs": [],
      "name": "ZeroValue",
      "type": "error"
    },
    {
      "anonymous": false,
      "inputs": [
        {
          "indexed": false,
          "internalType": "address",
          "name": "msgSender",
          "type": "address"
        },
        {
          "indexed": false,
          "internalType": "uint256",
          "name": "configId",
          "type": "uint256"
        },
        {
          "indexed": false,
          "internalType": "address[]",
          "name": "items",
          "type": "address[]"
        },
        {
          "indexed": false,
          "internalType": "uint256[][]",
          "name": "itemIds",
          "type": "uint256[][]"
        },
        {
          "indexed": false,
          "internalType": "address",
          "name": "mintedItem",
          "type": "address"
        },
        {
          "indexed": false,
          "internalType": "uint256",
          "name": "mintedItemId",
          "type": "uint256"
        }
      ],
      "name": "CombineItems",
      "type": "event"
    },
    {
      "anonymous": false,
      "inputs": [
        {
          "indexed": false,
          "internalType": "address",
          "name": "controller",
          "type": "address"
        },
        {
          "indexed": false,
          "internalType": "uint256",
          "name": "ts",
          "type": "uint256"
        },
        {
          "indexed": false,
          "internalType": "uint256",
          "name": "block",
          "type": "uint256"
        }
      ],
      "name": "ContractInitialized",
      "type": "event"
    },
    {
      "anonymous": false,
      "inputs": [
        {
          "indexed": false,
          "internalType": "address",
          "name": "item",
          "type": "address"
        },
        {
          "indexed": false,
          "internalType": "uint256",
          "name": "itemId",
          "type": "uint256"
        }
      ],
      "name": "Destroyed",
      "type": "event"
    },
    {
      "anonymous": false,
      "inputs": [
        {
          "indexed": false,
          "internalType": "uint64",
          "name": "version",
          "type": "uint64"
        }
      ],
      "name": "Initialized",
      "type": "event"
    },
    {
      "anonymous": false,
      "inputs": [
        {
          "indexed": false,
          "internalType": "address",
          "name": "helper",
          "type": "address"
        }
      ],
      "name": "ItemControllerHelper",
      "type": "event"
    },
    {
      "anonymous": false,
      "inputs": [
        {
          "indexed": false,
          "internalType": "address",
          "name": "item",
          "type": "address"
        },
        {
          "components": [
            {
              "components": [
                {
                  "internalType": "uint8",
                  "name": "itemMetaType",
                  "type": "uint8"
                },
                {
                  "internalType": "uint8",
                  "name": "itemLevel",
                  "type": "uint8"
                },
                {
                  "internalType": "enum IItemController.ItemType",
                  "name": "itemType",
                  "type": "uint8"
                },
                {
                  "internalType": "uint16",
                  "name": "baseDurability",
                  "type": "uint16"
                },
                {
                  "internalType": "uint8",
                  "name": "defaultRarity",
                  "type": "uint8"
                },
                {
                  "internalType": "uint32",
                  "name": "manaCost",
                  "type": "uint32"
                },
                {
                  "internalType": "uint8",
                  "name": "minRandomAttributes",
                  "type": "uint8"
                },
                {
                  "internalType": "uint8",
                  "name": "maxRandomAttributes",
                  "type": "uint8"
                },
                {
                  "components": [
                    {
                      "internalType": "int32",
                      "name": "strength",
                      "type": "int32"
                    },
                    {
                      "internalType": "int32",
                      "name": "dexterity",
                      "type": "int32"
                    },
                    {
                      "internalType": "int32",
                      "name": "vitality",
                      "type": "int32"
                    },
                    {
                      "internalType": "int32",
                      "name": "energy",
                      "type": "int32"
                    }
                  ],
                  "internalType": "struct IStatController.CoreAttributes",
                  "name": "requirements",
                  "type": "tuple"
                }
              ],
              "internalType": "struct IItemController.ItemMeta",
              "name": "itemMeta",
              "type": "tuple"
            },
            {
              "internalType": "address",
              "name": "augmentToken",
              "type": "address"
            },
            {
              "internalType": "uint256",
              "name": "augmentAmount",
              "type": "uint256"
            },
            {
              "components": [
                {
                  "internalType": "uint8[]",
                  "name": "ids",
                  "type": "uint8[]"
                },
                {
                  "internalType": "int32[]",
                  "name": "mins",
                  "type": "int32[]"
                },
                {
                  "internalType": "int32[]",
                  "name": "maxs",
                  "type": "int32[]"
                },
                {
                  "internalType": "uint32[]",
                  "name": "chances",
                  "type": "uint32[]"
                }
              ],
              "internalType": "struct IItemController.ItemGenerateInfo",
              "name": "commonAttributes",
              "type": "tuple"
            },
            {
              "components": [
                {
                  "internalType": "uint8[]",
                  "name": "ids",
                  "type": "uint8[]"
                },
                {
                  "internalType": "int32[]",
                  "name": "values",
                  "type": "int32[]"
                }
              ],
              "internalType": "struct IGOC.AttributeGenerateInfo",
              "name": "consumableAttributes",
              "type": "tuple"
            },
            {
              "components": [
                {
                  "internalType": "uint32",
                  "name": "level",
                  "type": "uint32"
                },
                {
                  "internalType": "uint32",
                  "name": "experience",
                  "type": "uint32"
                },
                {
                  "internalType": "uint32",
                  "name": "life",
                  "type": "uint32"
                },
                {
                  "internalType": "uint32",
                  "name": "mana",
                  "type": "uint32"
                },
                {
                  "internalType": "uint32",
                  "name": "lifeChances",
                  "type": "uint32"
                }
              ],
              "internalType": "struct IStatController.ChangeableStats",
              "name": "consumableStats",
              "type": "tuple"
            },
            {
              "components": [
                {
                  "internalType": "uint8[]",
                  "name": "ids",
                  "type": "uint8[]"
                },
                {
                  "internalType": "int32[]",
                  "name": "mins",
                  "type": "int32[]"
                },
                {
                  "internalType": "int32[]",
                  "name": "maxs",
                  "type": "int32[]"
                },
                {
                  "internalType": "uint32[]",
                  "name": "chances",
                  "type": "uint32[]"
                }
              ],
              "internalType": "struct IItemController.ItemGenerateInfo",
              "name": "casterAttributes",
              "type": "tuple"
            },
            {
              "components": [
                {
                  "internalType": "uint8[]",
                  "name": "ids",
                  "type": "uint8[]"
                },
                {
                  "internalType": "int32[]",
                  "name": "mins",
                  "type": "int32[]"
                },
                {
                  "internalType": "int32[]",
                  "name": "maxs",
                  "type": "int32[]"
                },
                {
                  "internalType": "uint32[]",
                  "name": "chances",
                  "type": "uint32[]"
                }
              ],
              "internalType": "struct IItemController.ItemGenerateInfo",
              "name": "targetAttributes",
              "type": "tuple"
            },
            {
              "components": [
                {
                  "internalType": "enum IItemController.AttackType",
                  "name": "aType",
                  "type": "uint8"
                },
                {
                  "internalType": "int32",
                  "name": "min",
                  "type": "int32"
                },
                {
                  "internalType": "int32",
                  "name": "max",
                  "type": "int32"
                },
                {
                  "components": [
                    {
                      "internalType": "int32",
                      "name": "strength",
                      "type": "int32"
                    },
                    {
                      "internalType": "int32",
                      "name": "dexterity",
                      "type": "int32"
                    },
                    {
                      "internalType": "int32",
                      "name": "vitality",
                      "type": "int32"
                    },
                    {
                      "internalType": "int32",
                      "name": "energy",
                      "type": "int32"
                    }
                  ],
                  "internalType": "struct IStatController.CoreAttributes",
                  "name": "attributeFactors",
                  "type": "tuple"
                }
              ],
              "internalType": "struct IItemController.AttackInfo",
              "name": "genAttackInfo",
              "type": "tuple"
            },
            {
              "internalType": "uint256",
              "name": "consumableActionMask",
              "type": "uint256"
            }
          ],
          "indexed": false,
          "internalType": "struct IItemController.RegisterItemParams",
          "name": "info",
          "type": "tuple"
        }
      ],
      "name": "ItemRegistered",
      "type": "event"
    },
    {
      "anonymous": false,
      "inputs": [
        {
          "indexed": false,
          "internalType": "address",
          "name": "item",
          "type": "address"
        }
      ],
      "name": "ItemRemoved",
      "type": "event"
    },
    {
      "anonymous": false,
      "inputs": [
        {
          "indexed": false,
          "internalType": "address",
          "name": "item",
          "type": "address"
        },
        {
          "components": [
            {
              "internalType": "uint8",
              "name": "itemMetaType",
              "type": "uint8"
            },
            {
              "internalType": "uint8",
              "name": "itemLevel",
              "type": "uint8"
            },
            {
              "internalType": "enum IItemController.ItemType",
              "name": "itemType",
              "type": "uint8"
            },
            {
              "internalType": "uint16",
              "name": "baseDurability",
              "type": "uint16"
            },
            {
              "internalType": "uint8",
              "name": "defaultRarity",
              "type": "uint8"
            },
            {
              "internalType": "uint32",
              "name": "manaCost",
              "type": "uint32"
            },
            {
              "internalType": "uint8",
              "name": "minRandomAttributes",
              "type": "uint8"
            },
            {
              "internalType": "uint8",
              "name": "maxRandomAttributes",
              "type": "uint8"
            },
            {
              "components": [
                {
                  "internalType": "int32",
                  "name": "strength",
                  "type": "int32"
                },
                {
                  "internalType": "int32",
                  "name": "dexterity",
                  "type": "int32"
                },
                {
                  "internalType": "int32",
                  "name": "vitality",
                  "type": "int32"
                },
                {
                  "internalType": "int32",
                  "name": "energy",
                  "type": "int32"
                }
              ],
              "internalType": "struct IStatController.CoreAttributes",
              "name": "requirements",
              "type": "tuple"
            }
          ],
          "indexed": false,
          "internalType": "struct IItemController.ItemMeta",
          "name": "meta",
          "type": "tuple"
        },
        {
          "indexed": false,
          "internalType": "bytes",
          "name": "packedItemMetaData",
          "type": "bytes"
        }
      ],
      "name": "OtherItemRegistered",
      "type": "event"
    },
    {
      "anonymous": false,
      "inputs": [
        {
          "indexed": false,
          "internalType": "address",
          "name": "item",
          "type": "address"
        }
      ],
      "name": "OtherItemRemoved",
      "type": "event"
    },
    {
      "anonymous": false,
      "inputs": [
        {
          "indexed": false,
          "internalType": "uint256",
          "name": "value",
          "type": "uint256"
        },
        {
          "indexed": false,
          "internalType": "address",
          "name": "oldLogic",
          "type": "address"
        }
      ],
      "name": "RevisionIncreased",
      "type": "event"
    },
    {
      "inputs": [],
      "name": "CONTROLLABLE_VERSION",
      "outputs": [
        {
          "internalType": "string",
          "name": "",
          "type": "string"
        }
      ],
      "stateMutability": "view",
      "type": "function"
    },
    {
      "inputs": [],
      "name": "VERSION",
      "outputs": [
        {
          "internalType": "string",
          "name": "",
          "type": "string"
        }
      ],
      "stateMutability": "view",
      "type": "function"
    },
    {
      "inputs": [
        {
          "internalType": "address",
          "name": "item",
          "type": "address"
        },
        {
          "internalType": "uint256",
          "name": "itemId",
          "type": "uint256"
        },
        {
          "internalType": "uint256",
          "name": "consumedItemId",
          "type": "uint256"
        },
        {
          "components": [
            {
              "internalType": "address",
              "name": "protectiveItem",
              "type": "address"
            },
            {
              "internalType": "uint256",
              "name": "protectiveItemId",
              "type": "uint256"
            }
          ],
          "internalType": "struct IItemController.AugmentOptParams",
          "name": "opt",
          "type": "tuple"
        }
      ],
      "name": "augment",
      "outputs": [],
      "stateMutability": "nonpayable",
      "type": "function"
    },
    {
      "inputs": [
        {
          "internalType": "address",
          "name": "item",
          "type": "address"
        }
      ],
      "name": "augmentInfo",
      "outputs": [
        {
          "internalType": "address",
          "name": "token",
          "type": "address"
        },
        {
          "internalType": "uint256",
          "name": "amount",
          "type": "uint256"
        }
      ],
      "stateMutability": "view",
      "type": "function"
    },
    {
      "inputs": [
        {
          "internalType": "address",
          "name": "item",
          "type": "address"
        },
        {
          "internalType": "uint256",
          "name": "itemId",
          "type": "uint256"
        }
      ],
      "name": "casterAttributes",
      "outputs": [
        {
          "internalType": "int32[]",
          "name": "values",
          "type": "int32[]"
        },
        {
          "internalType": "uint8[]",
          "name": "ids",
          "type": "uint8[]"
        }
      ],
      "stateMutability": "view",
      "type": "function"
    },
    {
      "inputs": [
        {
          "internalType": "uint256",
          "name": "configId",
          "type": "uint256"
        },
        {
          "internalType": "address[]",
          "name": "items",
          "type": "address[]"
        },
        {
          "internalType": "uint256[][]",
          "name": "itemIds",
          "type": "uint256[][]"
        }
      ],
      "name": "combineItems",
      "outputs": [
        {
          "internalType": "uint256",
          "name": "itemId",
          "type": "uint256"
        }
      ],
      "stateMutability": "nonpayable",
      "type": "function"
    },
    {
      "inputs": [
        {
          "internalType": "address",
          "name": "item",
          "type": "address"
        }
      ],
      "name": "consumableActionMask",
      "outputs": [
        {
          "internalType": "uint256",
          "name": "",
          "type": "uint256"
        }
      ],
      "stateMutability": "view",
      "type": "function"
    },
    {
      "inputs": [
        {
          "internalType": "address",
          "name": "item",
          "type": "address"
        }
      ],
      "name": "consumableAttributes",
      "outputs": [
        {
          "internalType": "int32[]",
          "name": "values",
          "type": "int32[]"
        },
        {
          "internalType": "uint8[]",
          "name": "ids",
          "type": "uint8[]"
        }
      ],
      "stateMutability": "view",
      "type": "function"
    },
    {
      "inputs": [
        {
          "internalType": "address",
          "name": "item",
          "type": "address"
        }
      ],
      "name": "consumableStats",
      "outputs": [
        {
          "components": [
            {
              "internalType": "uint32",
              "name": "level",
              "type": "uint32"
            },
            {
              "internalType": "uint32",
              "name": "experience",
              "type": "uint32"
            },
            {
              "internalType": "uint32",
              "name": "life",
              "type": "uint32"
            },
            {
              "internalType": "uint32",
              "name": "mana",
              "type": "uint32"
            },
            {
              "internalType": "uint32",
              "name": "lifeChances",
              "type": "uint32"
            }
          ],
          "internalType": "struct IStatController.ChangeableStats",
          "name": "stats",
          "type": "tuple"
        }
      ],
      "stateMutability": "view",
      "type": "function"
    },
    {
      "inputs": [],
      "name": "controller",
      "outputs": [
        {
          "internalType": "address",
          "name": "",
          "type": "address"
        }
      ],
      "stateMutability": "view",
      "type": "function"
    },
    {
      "inputs": [],
      "name": "created",
      "outputs": [
        {
          "internalType": "uint256",
          "name": "",
          "type": "uint256"
        }
      ],
      "stateMutability": "view",
      "type": "function"
    },
    {
      "inputs": [],
      "name": "createdBlock",
      "outputs": [
        {
          "internalType": "uint256",
          "name": "",
          "type": "uint256"
        }
      ],
      "stateMutability": "view",
      "type": "function"
    },
    {
      "inputs": [
        {
          "internalType": "address",
          "name": "item",
          "type": "address"
        },
        {
          "internalType": "uint256",
          "name": "itemId",
          "type": "uint256"
        }
      ],
      "name": "destroy",
      "outputs": [],
      "stateMutability": "nonpayable",
      "type": "function"
    },
    {
      "inputs": [
        {
          "internalType": "address",
          "name": "hero",
          "type": "address"
        },
        {
          "internalType": "uint256",
          "name": "heroId",
          "type": "uint256"
        },
        {
          "internalType": "address[]",
          "name": "items",
          "type": "address[]"
        },
        {
          "internalType": "uint256[]",
          "name": "itemIds",
          "type": "uint256[]"
        },
        {
          "internalType": "uint8[]",
          "name": "itemSlots",
          "type": "uint8[]"
        }
      ],
      "name": "equip",
      "outputs": [],
      "stateMutability": "nonpayable",
      "type": "function"
    },
    {
      "inputs": [
        {
          "internalType": "address",
          "name": "item",
          "type": "address"
        },
        {
          "internalType": "uint256",
          "name": "itemId",
          "type": "uint256"
        }
      ],
      "name": "equippedOn",
      "outputs": [
        {
          "internalType": "address",
          "name": "hero",
          "type": "address"
        },
        {
          "internalType": "uint256",
          "name": "heroId",
          "type": "uint256"
        }
      ],
      "stateMutability": "view",
      "type": "function"
    },
    {
      "inputs": [
        {
          "internalType": "address",
          "name": "item",
          "type": "address"
        }
      ],
      "name": "genAttackInfo",
      "outputs": [
        {
          "components": [
            {
              "internalType": "enum IItemController.AttackType",
              "name": "aType",
              "type": "uint8"
            },
            {
              "internalType": "int32",
              "name": "min",
              "type": "int32"
            },
            {
              "internalType": "int32",
              "name": "max",
              "type": "int32"
            },
            {
              "components": [
                {
                  "internalType": "int32",
                  "name": "strength",
                  "type": "int32"
                },
                {
                  "internalType": "int32",
                  "name": "dexterity",
                  "type": "int32"
                },
                {
                  "internalType": "int32",
                  "name": "vitality",
                  "type": "int32"
                },
                {
                  "internalType": "int32",
                  "name": "energy",
                  "type": "int32"
                }
              ],
              "internalType": "struct IStatController.CoreAttributes",
              "name": "attributeFactors",
              "type": "tuple"
            }
          ],
          "internalType": "struct IItemController.AttackInfo",
          "name": "info",
          "type": "tuple"
        }
      ],
      "stateMutability": "view",
      "type": "function"
    },
    {
      "inputs": [
        {
          "internalType": "address",
          "name": "item",
          "type": "address"
        }
      ],
      "name": "genAttributeInfo",
      "outputs": [
        {
          "components": [
            {
              "internalType": "uint8[]",
              "name": "ids",
              "type": "uint8[]"
            },
            {
              "internalType": "int32[]",
              "name": "mins",
              "type": "int32[]"
            },
            {
              "internalType": "int32[]",
              "name": "maxs",
              "type": "int32[]"
            },
            {
              "internalType": "uint32[]",
              "name": "chances",
              "type": "uint32[]"
            }
          ],
          "internalType": "struct IItemController.ItemGenerateInfo",
          "name": "info",
          "type": "tuple"
        }
      ],
      "stateMutability": "view",
      "type": "function"
    },
    {
      "inputs": [
        {
          "internalType": "address",
          "name": "item",
          "type": "address"
        }
      ],
      "name": "genCasterAttributeInfo",
      "outputs": [
        {
          "components": [
            {
              "internalType": "uint8[]",
              "name": "ids",
              "type": "uint8[]"
            },
            {
              "internalType": "int32[]",
              "name": "mins",
              "type": "int32[]"
            },
            {
              "internalType": "int32[]",
              "name": "maxs",
              "type": "int32[]"
            },
            {
              "internalType": "uint32[]",
              "name": "chances",
              "type": "uint32[]"
            }
          ],
          "internalType": "struct IItemController.ItemGenerateInfo",
          "name": "info",
          "type": "tuple"
        }
      ],
      "stateMutability": "view",
      "type": "function"
    },
    {
      "inputs": [
        {
          "internalType": "address",
          "name": "item",
          "type": "address"
        }
      ],
      "name": "genTargetAttributeInfo",
      "outputs": [
        {
          "components": [
            {
              "internalType": "uint8[]",
              "name": "ids",
              "type": "uint8[]"
            },
            {
              "internalType": "int32[]",
              "name": "mins",
              "type": "int32[]"
            },
            {
              "internalType": "int32[]",
              "name": "maxs",
              "type": "int32[]"
            },
            {
              "internalType": "uint32[]",
              "name": "chances",
              "type": "uint32[]"
            }
          ],
          "internalType": "struct IItemController.ItemGenerateInfo",
          "name": "info",
          "type": "tuple"
        }
      ],
      "stateMutability": "view",
      "type": "function"
    },
    {
      "inputs": [
        {
          "internalType": "address",
          "name": "item",
          "type": "address"
        },
        {
          "internalType": "uint256",
          "name": "itemId",
          "type": "uint256"
        }
      ],
      "name": "incBrokenItemFragility",
      "outputs": [],
      "stateMutability": "nonpayable",
      "type": "function"
    },
    {
      "inputs": [
        {
          "internalType": "address",
          "name": "oldLogic",
          "type": "address"
        }
      ],
      "name": "increaseRevision",
      "outputs": [],
      "stateMutability": "nonpayable",
      "type": "function"
    },
    {
      "inputs": [
        {
          "internalType": "address",
          "name": "controller_",
          "type": "address"
        }
      ],
      "name": "init",
      "outputs": [],
      "stateMutability": "nonpayable",
      "type": "function"
    },
    {
      "inputs": [
        {
          "internalType": "address",
          "name": "item",
          "type": "address"
        },
        {
          "internalType": "uint256",
          "name": "itemId",
          "type": "uint256"
        }
      ],
      "name": "isAllowedToTransfer",
      "outputs": [
        {
          "internalType": "bool",
          "name": "",
          "type": "bool"
        }
      ],
      "stateMutability": "view",
      "type": "function"
    },
    {
      "inputs": [
        {
          "internalType": "address",
          "name": "value_",
          "type": "address"
        }
      ],
      "name": "isController",
      "outputs": [
        {
          "internalType": "bool",
          "name": "",
          "type": "bool"
        }
      ],
      "stateMutability": "view",
      "type": "function"
    },
    {
      "inputs": [
        {
          "internalType": "address",
          "name": "value_",
          "type": "address"
        }
      ],
      "name": "isGovernance",
      "outputs": [
        {
          "internalType": "bool",
          "name": "",
          "type": "bool"
        }
      ],
      "stateMutability": "view",
      "type": "function"
    },
    {
      "inputs": [
        {
          "internalType": "address",
          "name": "forwarder",
          "type": "address"
        }
      ],
      "name": "isTrustedForwarder",
      "outputs": [
        {
          "internalType": "bool",
          "name": "",
          "type": "bool"
        }
      ],
      "stateMutability": "view",
      "type": "function"
    },
    {
      "inputs": [
        {
          "internalType": "address",
          "name": "item",
          "type": "address"
        },
        {
          "internalType": "uint256",
          "name": "itemId",
          "type": "uint256"
        }
      ],
      "name": "itemAttackInfo",
      "outputs": [
        {
          "components": [
            {
              "internalType": "enum IItemController.AttackType",
              "name": "aType",
              "type": "uint8"
            },
            {
              "internalType": "int32",
              "name": "min",
              "type": "int32"
            },
            {
              "internalType": "int32",
              "name": "max",
              "type": "int32"
            },
            {
              "components": [
                {
                  "internalType": "int32",
                  "name": "strength",
                  "type": "int32"
                },
                {
                  "internalType": "int32",
                  "name": "dexterity",
                  "type": "int32"
                },
                {
                  "internalType": "int32",
                  "name": "vitality",
                  "type": "int32"
                },
                {
                  "internalType": "int32",
                  "name": "energy",
                  "type": "int32"
                }
              ],
              "internalType": "struct IStatController.CoreAttributes",
              "name": "attributeFactors",
              "type": "tuple"
            }
          ],
          "internalType": "struct IItemController.AttackInfo",
          "name": "info",
          "type": "tuple"
        }
      ],
      "stateMutability": "view",
      "type": "function"
    },
    {
      "inputs": [
        {
          "internalType": "address",
          "name": "item",
          "type": "address"
        },
        {
          "internalType": "uint256",
          "name": "itemId",
          "type": "uint256"
        }
      ],
      "name": "itemAttributes",
      "outputs": [
        {
          "internalType": "int32[]",
          "name": "values",
          "type": "int32[]"
        },
        {
          "internalType": "uint8[]",
          "name": "ids",
          "type": "uint8[]"
        }
      ],
      "stateMutability": "view",
      "type": "function"
    },
    {
      "inputs": [
        {
          "internalType": "uint256",
          "name": "idx",
          "type": "uint256"
        }
      ],
      "name": "itemByIndex",
      "outputs": [
        {
          "internalType": "address",
          "name": "",
          "type": "address"
        }
      ],
      "stateMutability": "view",
      "type": "function"
    },
    {
      "inputs": [],
      "name": "itemControllerHelper",
      "outputs": [
        {
          "internalType": "address",
          "name": "",
          "type": "address"
        }
      ],
      "stateMutability": "view",
      "type": "function"
    },
    {
      "inputs": [
        {
          "internalType": "address",
          "name": "item",
          "type": "address"
        },
        {
          "internalType": "uint256",
          "name": "itemId",
          "type": "uint256"
        }
      ],
      "name": "itemFragility",
      "outputs": [
        {
          "internalType": "uint256",
          "name": "",
          "type": "uint256"
        }
      ],
      "stateMutability": "view",
      "type": "function"
    },
    {
      "inputs": [
        {
          "internalType": "address",
          "name": "item",
          "type": "address"
        },
        {
          "internalType": "uint256",
          "name": "itemId",
          "type": "uint256"
        }
      ],
      "name": "itemInfo",
      "outputs": [
        {
          "components": [
            {
              "internalType": "enum IItemController.ItemRarity",
              "name": "rarity",
              "type": "uint8"
            },
            {
              "internalType": "uint8",
              "name": "augmentationLevel",
              "type": "uint8"
            },
            {
              "internalType": "uint16",
              "name": "durability",
              "type": "uint16"
            }
          ],
          "internalType": "struct IItemController.ItemInfo",
          "name": "info",
          "type": "tuple"
        }
      ],
      "stateMutability": "view",
      "type": "function"
    },
    {
      "inputs": [
        {
          "internalType": "address",
          "name": "item",
          "type": "address"
        }
      ],
      "name": "itemMeta",
      "outputs": [
        {
          "components": [
            {
              "internalType": "uint8",
              "name": "itemMetaType",
              "type": "uint8"
            },
            {
              "internalType": "uint8",
              "name": "itemLevel",
              "type": "uint8"
            },
            {
              "internalType": "enum IItemController.ItemType",
              "name": "itemType",
              "type": "uint8"
            },
            {
              "internalType": "uint16",
              "name": "baseDurability",
              "type": "uint16"
            },
            {
              "internalType": "uint8",
              "name": "defaultRarity",
              "type": "uint8"
            },
            {
              "internalType": "uint32",
              "name": "manaCost",
              "type": "uint32"
            },
            {
              "internalType": "uint8",
              "name": "minRandomAttributes",
              "type": "uint8"
            },
            {
              "internalType": "uint8",
              "name": "maxRandomAttributes",
              "type": "uint8"
            },
            {
              "components": [
                {
                  "internalType": "int32",
                  "name": "strength",
                  "type": "int32"
                },
                {
                  "internalType": "int32",
                  "name": "dexterity",
                  "type": "int32"
                },
                {
                  "internalType": "int32",
                  "name": "vitality",
                  "type": "int32"
                },
                {
                  "internalType": "int32",
                  "name": "energy",
                  "type": "int32"
                }
              ],
              "internalType": "struct IStatController.CoreAttributes",
              "name": "requirements",
              "type": "tuple"
            }
          ],
          "internalType": "struct IItemController.ItemMeta",
          "name": "meta",
          "type": "tuple"
        }
      ],
      "stateMutability": "view",
      "type": "function"
    },
    {
      "inputs": [],
      "name": "itemsLength",
      "outputs": [
        {
          "internalType": "uint256",
          "name": "",
          "type": "uint256"
        }
      ],
      "stateMutability": "view",
      "type": "function"
    },
    {
      "inputs": [
        {
          "internalType": "address",
          "name": "item",
          "type": "address"
        },
        {
          "internalType": "address",
          "name": "recipient",
          "type": "address"
        }
      ],
      "name": "mint",
      "outputs": [
        {
          "internalType": "uint256",
          "name": "itemId",
          "type": "uint256"
        }
      ],
      "stateMutability": "nonpayable",
      "type": "function"
    },
    {
      "inputs": [
        {
          "internalType": "address",
          "name": "item",
          "type": "address"
        }
      ],
      "name": "packedItemMetaData",
      "outputs": [
        {
          "internalType": "bytes",
          "name": "",
          "type": "bytes"
        }
      ],
      "stateMutability": "view",
      "type": "function"
    },
    {
      "inputs": [],
      "name": "previousImplementation",
      "outputs": [
        {
          "internalType": "address",
          "name": "",
          "type": "address"
        }
      ],
      "stateMutability": "view",
      "type": "function"
    },
    {
      "inputs": [
        {
          "internalType": "address",
          "name": "hero",
          "type": "address"
        },
        {
          "internalType": "uint256",
          "name": "heroId",
          "type": "uint256"
        },
        {
          "internalType": "uint8",
          "name": "biome",
          "type": "uint8"
        },
        {
          "internalType": "bool",
          "name": "reduceDurabilityAllSkills",
          "type": "bool"
        }
      ],
      "name": "reduceDurability",
      "outputs": [],
      "stateMutability": "nonpayable",
      "type": "function"
    },
    {
      "inputs": [
        {
          "internalType": "address",
          "name": "item",
          "type": "address"
        },
        {
          "components": [
            {
              "components": [
                {
                  "internalType": "uint8",
                  "name": "itemMetaType",
                  "type": "uint8"
                },
                {
                  "internalType": "uint8",
                  "name": "itemLevel",
                  "type": "uint8"
                },
                {
                  "internalType": "enum IItemController.ItemType",
                  "name": "itemType",
                  "type": "uint8"
                },
                {
                  "internalType": "uint16",
                  "name": "baseDurability",
                  "type": "uint16"
                },
                {
                  "internalType": "uint8",
                  "name": "defaultRarity",
                  "type": "uint8"
                },
                {
                  "internalType": "uint32",
                  "name": "manaCost",
                  "type": "uint32"
                },
                {
                  "internalType": "uint8",
                  "name": "minRandomAttributes",
                  "type": "uint8"
                },
                {
                  "internalType": "uint8",
                  "name": "maxRandomAttributes",
                  "type": "uint8"
                },
                {
                  "components": [
                    {
                      "internalType": "int32",
                      "name": "strength",
                      "type": "int32"
                    },
                    {
                      "internalType": "int32",
                      "name": "dexterity",
                      "type": "int32"
                    },
                    {
                      "internalType": "int32",
                      "name": "vitality",
                      "type": "int32"
                    },
                    {
                      "internalType": "int32",
                      "name": "energy",
                      "type": "int32"
                    }
                  ],
                  "internalType": "struct IStatController.CoreAttributes",
                  "name": "requirements",
                  "type": "tuple"
                }
              ],
              "internalType": "struct IItemController.ItemMeta",
              "name": "itemMeta",
              "type": "tuple"
            },
            {
              "internalType": "address",
              "name": "augmentToken",
              "type": "address"
            },
            {
              "internalType": "uint256",
              "name": "augmentAmount",
              "type": "uint256"
            },
            {
              "components": [
                {
                  "internalType": "uint8[]",
                  "name": "ids",
                  "type": "uint8[]"
                },
                {
                  "internalType": "int32[]",
                  "name": "mins",
                  "type": "int32[]"
                },
                {
                  "internalType": "int32[]",
                  "name": "maxs",
                  "type": "int32[]"
                },
                {
                  "internalType": "uint32[]",
                  "name": "chances",
                  "type": "uint32[]"
                }
              ],
              "internalType": "struct IItemController.ItemGenerateInfo",
              "name": "commonAttributes",
              "type": "tuple"
            },
            {
              "components": [
                {
                  "internalType": "uint8[]",
                  "name": "ids",
                  "type": "uint8[]"
                },
                {
                  "internalType": "int32[]",
                  "name": "values",
                  "type": "int32[]"
                }
              ],
              "internalType": "struct IGOC.AttributeGenerateInfo",
              "name": "consumableAttributes",
              "type": "tuple"
            },
            {
              "components": [
                {
                  "internalType": "uint32",
                  "name": "level",
                  "type": "uint32"
                },
                {
                  "internalType": "uint32",
                  "name": "experience",
                  "type": "uint32"
                },
                {
                  "internalType": "uint32",
                  "name": "life",
                  "type": "uint32"
                },
                {
                  "internalType": "uint32",
                  "name": "mana",
                  "type": "uint32"
                },
                {
                  "internalType": "uint32",
                  "name": "lifeChances",
                  "type": "uint32"
                }
              ],
              "internalType": "struct IStatController.ChangeableStats",
              "name": "consumableStats",
              "type": "tuple"
            },
            {
              "components": [
                {
                  "internalType": "uint8[]",
                  "name": "ids",
                  "type": "uint8[]"
                },
                {
                  "internalType": "int32[]",
                  "name": "mins",
                  "type": "int32[]"
                },
                {
                  "internalType": "int32[]",
                  "name": "maxs",
                  "type": "int32[]"
                },
                {
                  "internalType": "uint32[]",
                  "name": "chances",
                  "type": "uint32[]"
                }
              ],
              "internalType": "struct IItemController.ItemGenerateInfo",
              "name": "casterAttributes",
              "type": "tuple"
            },
            {
              "components": [
                {
                  "internalType": "uint8[]",
                  "name": "ids",
                  "type": "uint8[]"
                },
                {
                  "internalType": "int32[]",
                  "name": "mins",
                  "type": "int32[]"
                },
                {
                  "internalType": "int32[]",
                  "name": "maxs",
                  "type": "int32[]"
                },
                {
                  "internalType": "uint32[]",
                  "name": "chances",
                  "type": "uint32[]"
                }
              ],
              "internalType": "struct IItemController.ItemGenerateInfo",
              "name": "targetAttributes",
              "type": "tuple"
            },
            {
              "components": [
                {
                  "internalType": "enum IItemController.AttackType",
                  "name": "aType",
                  "type": "uint8"
                },
                {
                  "internalType": "int32",
                  "name": "min",
                  "type": "int32"
                },
                {
                  "internalType": "int32",
                  "name": "max",
                  "type": "int32"
                },
                {
                  "components": [
                    {
                      "internalType": "int32",
                      "name": "strength",
                      "type": "int32"
                    },
                    {
                      "internalType": "int32",
                      "name": "dexterity",
                      "type": "int32"
                    },
                    {
                      "internalType": "int32",
                      "name": "vitality",
                      "type": "int32"
                    },
                    {
                      "internalType": "int32",
                      "name": "energy",
                      "type": "int32"
                    }
                  ],
                  "internalType": "struct IStatController.CoreAttributes",
                  "name": "attributeFactors",
                  "type": "tuple"
                }
              ],
              "internalType": "struct IItemController.AttackInfo",
              "name": "genAttackInfo",
              "type": "tuple"
            },
            {
              "internalType": "uint256",
              "name": "consumableActionMask",
              "type": "uint256"
            }
          ],
          "internalType": "struct IItemController.RegisterItemParams",
          "name": "info",
          "type": "tuple"
        }
      ],
      "name": "registerItem",
      "outputs": [],
      "stateMutability": "nonpayable",
      "type": "function"
    },
    {
      "inputs": [
        {
          "internalType": "address",
          "name": "item",
          "type": "address"
        },
        {
          "components": [
            {
              "internalType": "uint8",
              "name": "itemMetaType",
              "type": "uint8"
            },
            {
              "internalType": "uint8",
              "name": "itemLevel",
              "type": "uint8"
            },
            {
              "internalType": "enum IItemController.ItemType",
              "name": "itemType",
              "type": "uint8"
            },
            {
              "internalType": "uint16",
              "name": "baseDurability",
              "type": "uint16"
            },
            {
              "internalType": "uint8",
              "name": "defaultRarity",
              "type": "uint8"
            },
            {
              "internalType": "uint32",
              "name": "manaCost",
              "type": "uint32"
            },
            {
              "internalType": "uint8",
              "name": "minRandomAttributes",
              "type": "uint8"
            },
            {
              "internalType": "uint8",
              "name": "maxRandomAttributes",
              "type": "uint8"
            },
            {
              "components": [
                {
                  "internalType": "int32",
                  "name": "strength",
                  "type": "int32"
                },
                {
                  "internalType": "int32",
                  "name": "dexterity",
                  "type": "int32"
                },
                {
                  "internalType": "int32",
                  "name": "vitality",
                  "type": "int32"
                },
                {
                  "internalType": "int32",
                  "name": "energy",
                  "type": "int32"
                }
              ],
              "internalType": "struct IStatController.CoreAttributes",
              "name": "requirements",
              "type": "tuple"
            }
          ],
          "internalType": "struct IItemController.ItemMeta",
          "name": "meta_",
          "type": "tuple"
        },
        {
          "internalType": "bytes",
          "name": "packedItemMetaData_",
          "type": "bytes"
        }
      ],
      "name": "registerOtherItem",
      "outputs": [],
      "stateMutability": "nonpayable",
      "type": "function"
    },
    {
      "inputs": [
        {
          "internalType": "address",
          "name": "item",
          "type": "address"
        }
      ],
      "name": "removeItem",
      "outputs": [],
      "stateMutability": "nonpayable",
      "type": "function"
    },
    {
      "inputs": [
        {
          "internalType": "address",
          "name": "item",
          "type": "address"
        },
        {
          "internalType": "uint256",
          "name": "itemId",
          "type": "uint256"
        },
        {
          "internalType": "uint256",
          "name": "consumedItemId",
          "type": "uint256"
        }
      ],
      "name": "repairDurability",
      "outputs": [],
      "stateMutability": "nonpayable",
      "type": "function"
    },
    {
      "inputs": [
        {
          "internalType": "address",
          "name": "item",
          "type": "address"
        },
        {
          "internalType": "uint256",
          "name": "itemId",
          "type": "uint256"
        },
        {
          "internalType": "address",
          "name": "consumedItem",
          "type": "address"
        },
        {
          "internalType": "uint256",
          "name": "consumedItemId",
          "type": "uint256"
        }
      ],
      "name": "repairFragility",
      "outputs": [],
      "stateMutability": "nonpayable",
      "type": "function"
    },
    {
      "inputs": [],
      "name": "revision",
      "outputs": [
        {
          "internalType": "uint256",
          "name": "",
          "type": "uint256"
        }
      ],
      "stateMutability": "view",
      "type": "function"
    },
    {
      "inputs": [
        {
          "internalType": "address",
          "name": "item",
          "type": "address"
        },
        {
          "internalType": "uint256",
          "name": "itemId",
          "type": "uint256"
        }
      ],
      "name": "score",
      "outputs": [
        {
          "internalType": "uint256",
          "name": "",
          "type": "uint256"
        }
      ],
      "stateMutability": "view",
      "type": "function"
    },
    {
      "inputs": [
        {
          "internalType": "address",
          "name": "helper",
          "type": "address"
        }
      ],
      "name": "setItemControllerHelper",
      "outputs": [],
      "stateMutability": "nonpayable",
      "type": "function"
    },
    {
      "inputs": [
        {
          "internalType": "address",
          "name": "hero",
          "type": "address"
        },
        {
          "internalType": "uint256",
          "name": "heroId",
          "type": "uint256"
        },
        {
          "internalType": "address[]",
          "name": "items",
          "type": "address[]"
        },
        {
          "internalType": "uint256[]",
          "name": "tokenIds",
          "type": "uint256[]"
        },
        {
          "internalType": "uint8[]",
          "name": "itemSlots",
          "type": "uint8[]"
        }
      ],
      "name": "takeOff",
      "outputs": [],
      "stateMutability": "nonpayable",
      "type": "function"
    },
    {
      "inputs": [
        {
          "internalType": "address",
          "name": "item",
          "type": "address"
        },
        {
          "internalType": "uint256",
          "name": "itemId",
          "type": "uint256"
        },
        {
          "internalType": "address",
          "name": "hero",
          "type": "address"
        },
        {
          "internalType": "uint256",
          "name": "heroId",
          "type": "uint256"
        },
        {
          "internalType": "uint8",
          "name": "itemSlot",
          "type": "uint8"
        },
        {
          "internalType": "address",
          "name": "destination",
          "type": "address"
        },
        {
          "internalType": "bool",
          "name": "broken",
          "type": "bool"
        }
      ],
      "name": "takeOffDirectly",
      "outputs": [],
      "stateMutability": "nonpayable",
      "type": "function"
    },
    {
      "inputs": [
        {
          "internalType": "address",
          "name": "item",
          "type": "address"
        },
        {
          "internalType": "uint256",
          "name": "itemId",
          "type": "uint256"
        }
      ],
      "name": "targetAttributes",
      "outputs": [
        {
          "internalType": "int32[]",
          "name": "values",
          "type": "int32[]"
        },
        {
          "internalType": "uint8[]",
          "name": "ids",
          "type": "uint8[]"
        }
      ],
      "stateMutability": "view",
      "type": "function"
    },
    {
      "inputs": [
        {
          "internalType": "address",
          "name": "item",
          "type": "address"
        },
        {
          "internalType": "uint256",
          "name": "itemId",
          "type": "uint256"
        }
      ],
      "name": "tsFirstAugmentation",
      "outputs": [
        {
          "internalType": "uint256",
          "name": "",
          "type": "uint256"
        }
      ],
      "stateMutability": "view",
      "type": "function"
    },
    {
      "inputs": [
        {
          "internalType": "address",
          "name": "item",
          "type": "address"
        },
        {
          "internalType": "uint256",
          "name": "itemId",
          "type": "uint256"
        },
        {
          "internalType": "address",
          "name": "heroToken",
          "type": "address"
        },
        {
          "internalType": "uint256",
          "name": "heroTokenId",
          "type": "uint256"
        }
      ],
      "name": "use",
      "outputs": [],
      "stateMutability": "nonpayable",
      "type": "function"
    },
    {
      "inputs": [
        {
          "internalType": "address",
          "name": "item",
          "type": "address"
        },
        {
          "internalType": "uint256",
          "name": "itemId",
          "type": "uint256"
        },
        {
          "internalType": "bytes",
          "name": "data",
          "type": "bytes"
        }
      ],
      "name": "useOtherItem",
      "outputs": [],
      "stateMutability": "nonpayable",
      "type": "function"
    }
  ],
  "transactionHash": "0x501971296adee9544187cee3da1844b93643ea282a458e6469b482b523fab9c7",
  "args": [],
  "numDeployments": 9,
  "solcInputHash": "333f21fe162cfd135427ffa9c09d7987",
  "bytecode": "0x60806040523480156200001157600080fd5b507ff0c57e16840df040f15088dc2f81fe391c3923bec73e23a9662efc9c229c6a00805468010000000000000000810460ff1615906001600160401b03166000811580156200005d5750825b90506000826001600160401b031660011480156200007a5750303b155b90508115801562000089575080155b15620000a85760405163f92ee8a960e01b815260040160405180910390fd5b84546001600160401b03191660011785558315620000d757845460ff60401b1916680100000000000000001785555b83156200011e57845460ff60401b19168555604051600181527fc7f505b2f371ae2175ee4913f4499e1f2633a7b5936321eed1cdaeb6115181d29060200160405180910390a15b5050505050615df280620001336000396000f3fe608060405234801561001057600080fd5b506004361061028c5760003560e01c80639bbb0c461161015d578063d9f72d80116100c9578063d9f72d80146105e3578063dd21b92914610642578063dee1f0e414610655578063dfcb87e514610668578063e3dacdb61461067b578063ee1fe2ad1461068e578063f77c4791146106a1578063f863208d146106a9578063f8ddd626146106b1578063fa33b2df146106c4578063fafc4bfd146106d7578063ff686615146106ea578063ffa1ad74146106fd57600080fd5b80639bbb0c46146104dc5780639d0bcca0146104ef578063a24835d1146104f7578063a4d21fc21461050a578063aef874fa1461051d578063b429afeb1461053e578063bc78570114610551578063bf105a0014610564578063c857a66014610577578063cad181b91461058a578063ce11a209146105aa578063d56654a3146105bd578063d9c52c3c146105d057600080fd5b8063399fa840116101fc578063399fa840146103db5780634593144c146103ee5780634fac6ccd146103f65780635040f95214610409578063572b6c051461041c578063667050c61461042f57806370435ed1146104375780637401edba1461044a5780637cc963801461045d57806382b538de146104655780638d99b71414610485578063936725ec146104a55780639b92d4c5146104c957600080fd5b8063010759751461029157806306db8693146102bb5780630bcfdc14146102dc578063173cc522146102fc57806319ab453c1461031c5780631af65859146103315780631cdaab67146103445780631d8a35851461036457806323d486881461037757806324e44dfc1461038a57806327238f121461039d578063325a19f1146103c057806339725001146103c8575b600080fd5b6102a461029f3660046141ac565b610721565b6040516102b2929190614217565b60405180910390f35b6102ce6102c9366004614272565b61073a565b6040519081526020016102b2565b6102ef6102ea366004614272565b61074b565b6040516102b291906142c3565b61030f61030a36600461436c565b61075c565b6040516102b29190614385565b61032f61032a366004614272565b610767565b005b61032f61033f3660046143b8565b610862565b6103576103523660046141ac565b6108e7565b6040516102b29190614460565b6102ce6103723660046141ac565b610900565b61032f610385366004614272565b61090c565b6102a46103983660046141ac565b610920565b6103b06103ab3660046141ac565b61092d565b60405190151581526020016102b2565b6102ce610939565b61032f6103d6366004614495565b610972565b61032f6103e9366004614272565b6109ef565b6102ce610a10565b61032f610404366004614272565b610a40565b6102ef610417366004614272565b610b52565b6103b061042a366004614272565b610b63565b61030f610bd8565b61032f61044536600461452a565b610be2565b6102ce6104583660046141ac565b610c73565b6102ce610cf0565b610478610473366004614272565b610d0e565b6040516102b291906146c4565b610498610493366004614272565b610d1f565b6040516102b29190614719565b610498604051806040016040528060058152602001640312e302e360dc1b81525081565b61032f6104d736600461452a565b610d2a565b6102ce6104ea3660046141ac565b610d4c565b61030f610d58565b61032f6105053660046141ac565b610d88565b61032f6105183660046147bd565b610e1c565b61053061052b3660046141ac565b610e74565b6040516102b292919061484d565b6103b061054c366004614272565b610e81565b61032f61055f366004614866565b610ea6565b61032f6105723660046148ae565b610ede565b6102ce6105853660046149eb565b610f60565b61059d610598366004614272565b610f85565b6040516102b29190614ac7565b61059d6105b83660046141ac565b610f96565b61032f6105cb366004614cd4565b610fa8565b61032f6105de366004614866565b610fd0565b6105f66105f1366004614272565b610fec565b6040516102b29190815163ffffffff9081168252602080840151821690830152604080840151821690830152606080840151821690830152608092830151169181019190915260a00190565b6102ef610650366004614272565b610ffd565b6103b0610663366004614272565b61100e565b610530610676366004614272565b611093565b6102a4610689366004614272565b6110a8565b6102ce61069c366004614d2c565b6110b4565b61030f6110c9565b6102ce6110f9565b61032f6106bf366004614d65565b611103565b61032f6106d23660046141ac565b611129565b6102a46106e53660046141ac565b61113b565b61032f6106f8366004614db1565b611148565b610498604051806040016040528060058152602001640c4b8c0b8d60da1b81525081565b60608061072e8484611165565b915091505b9250929050565b6000610745826111e4565b92915050565b610753613f74565b61074582611210565b60006107458261128f565b60006107716112a3565b805490915060ff600160401b82041615906001600160401b03166000811580156107985750825b90506000826001600160401b031660011480156107b45750303b155b9050811580156107c2575080155b156107e05760405163f92ee8a960e01b815260040160405180910390fd5b845467ffffffffffffffff19166001178555831561080a57845460ff60401b1916600160401b1785555b610813866112c7565b831561085a57845460ff60401b19168555604051600181527fc7f505b2f371ae2175ee4913f4499e1f2633a7b5936321eed1cdaeb6115181d2906020015b60405180910390a15b505050505050565b7342F25e627D6E548dDb26d5E164E5a04E419547C66355e36a7d6108846112d8565b898989898989896040518963ffffffff1660e01b81526004016108ae989796959493929190614e2d565b60006040518083038186803b1580156108c657600080fd5b505af41580156108da573d6000803e3d6000fd5b5050505050505050505050565b6108ef613f9c565b6108f983836112f0565b9392505050565b60006108f98383611326565b61091d6109176110c9565b82611360565b50565b60608061072e84846113f4565b60006108f98383611411565b600061096d61096960017f6f55f470bdc9cb5f04223fd822021061668e4dccb43e8727b295106dc9769c8b614ea5565b5490565b905090565b7342F25e627D6E548dDb26d5E164E5a04E419547C6633612fdc76109946112d8565b868686866040518663ffffffff1660e01b81526004016109b8959493929190614eb8565b60006040518083038186803b1580156109d057600080fd5b505af41580156109e4573d6000803e3d6000fd5b505050505b50505050565b61091d6109fa61144c565b610a026110c9565b610a0a611470565b84611492565b600061096d61096960017f812a673dfca07956350df10f8a654925f561d7a0da09bdbe79e653939a14d9f1614ea5565b333014610a925760405162461bcd60e51b815260206004820152601b60248201527a24b731b932b0b9b2903932bb34b9b4b7b7103337b93134b23232b760291b60448201526064015b60405180910390fd5b6000610ab06109696001600080516020615d9d833981519152614ea5565b610abb906001614efc565b9050610add81610ada6001600080516020615d9d833981519152614ea5565b55565b610b0c82610ada60017fbfaaa2fb63266ff27c2da975f5894955056f50419af651a81f6c5060581857e4614ea5565b604080518281526001600160a01b03841660208201527ff27e2ef832a4eb8ed8ec553b875eecd44764cda95b1c24170e281539e0a869c891015b60405180910390a15050565b610b5a613f74565b610745826116dd565b60006001600160a01b03821673d8253782c45a12053594b9deb72d8e8ab2fca54c1480610bac57506001600160a01b0382167352ceba41da235af367bfc0b0ccd3314cb901bb5f145b8061074557506001600160a01b03821673102f1f556cd9c3d5f820e6920a8931657c5da21b1492915050565b600061096d61175a565b7342F25e627D6E548dDb26d5E164E5a04E419547C663551c0c38610c0461177f565b610c0c6112d8565b8b8b8b8b8b8b8b8b6040518b63ffffffff1660e01b8152600401610c399a99989796959493929190614f91565b60006040518083038186803b158015610c5157600080fd5b505af4158015610c65573d6000803e3d6000fd5b505050505050505050505050565b604051633a00f6dd60e11b81526000907342F25e627D6E548dDb26d5E164E5a04E419547C690637401edba90610caf908690869060040161484d565b602060405180830381865af4158015610ccc573d6000803e3d6000fd5b505050506040513d601f19601f820116820180604052508101906108f99190615048565b600061096d6109696001600080516020615d9d833981519152614ea5565b610d16613fbe565b610745826117c5565b6060610745826117fa565b7342F25e627D6E548dDb26d5E164E5a04E419547C66328fc75ed610c0461177f565b60006108f983836118b0565b600061096d61096960017fbfaaa2fb63266ff27c2da975f5894955056f50419af651a81f6c5060581857e4614ea5565b7361f80AA66D88dc4D763042E67cA0D729E552f94463c1336c97610daa6110c9565b610db2611470565b6040516001600160e01b031960e085901b1681526001600160a01b039283166004820152908216602482015290851660448201526064810184905260840160006040518083038186803b158015610e0857600080fd5b505af415801561085a573d6000803e3d6000fd5b7361f80AA66D88dc4D763042E67cA0D729E552f94463bc02a318610e3e61177f565b610e466110c9565b87878787610e5261175a565b6040518863ffffffff1660e01b81526004016109b89796959493929190615079565b60008061072e84846118e9565b6000610e8b6110c9565b6001600160a01b0316826001600160a01b0316149050919050565b6109e9610eb161177f565b610eb96112d8565b6040518060400160405280886001600160a01b03168152602001878152508585611927565b7342F25e627D6E548dDb26d5E164E5a04E419547C663d85604a8610f0061177f565b610f086112d8565b8686866040518663ffffffff1660e01b8152600401610f2b9594939291906150d1565b60006040518083038186803b158015610f4357600080fd5b505af4158015610f57573d6000803e3d6000fd5b50505050505050565b6000610f7d610f6d61177f565b610f756112d8565b868686611a4b565b949350505050565b610f8d61400f565b61074582611c69565b610f9e61400f565b6108f98383611c9e565b610fcb610fb361144c565b610fbb6110c9565b610fc3611470565b868686611cd4565b505050565b6109e9610fdb61177f565b610fe36112d8565b86868686611da4565b610ff4614038565b61074582611dd4565b611005613f74565b61074582611e09565b6000816001600160a01b03166110226110c9565b6001600160a01b0316635aa6e6756040518163ffffffff1660e01b8152600401602060405180830381865afa15801561105f573d6000803e3d6000fd5b505050506040513d601f19601f820116820180604052508101906110839190615115565b6001600160a01b03161492915050565b60008061109f83611e86565b91509150915091565b60608061109f83611eba565b60006108f96110c16110c9565b338585611f32565b600061096d61096960017f5165972ef41194f06c5007493031d0b927c20741adcb74403b954009fd2c3618614ea5565b600061096d611fbc565b61112561110e61144c565b6111166110c9565b61111e611470565b8585611fce565b5050565b6111256111346110c9565b8383612322565b60608061072e8484612338565b610fcb61115361177f565b61115b6112d8565b8585856000612355565b60608061072e61117361144c565b600d016000611182878761241d565b81526020019081526020016000208054806020026020016040519081016040528092919081815260200182805480156111da57602002820191906000526020600020905b8154815260200190600101908083116111c6575b505050505061246d565b60006111ee61144c565b6001600160a01b03909216600090815260109290920160205250604090205490565b611218613f74565b61074561122361144c565b6001600160a01b038416600090815260089190910160209081526040918290208054835181840281018401909452808452909183018282801561128557602002820191906000526020600020905b815481526020019060010190808311611271575b505050505061275e565b60006107458261129d61144c565b90612975565b7ff0c57e16840df040f15088dc2f81fe391c3923bec73e23a9662efc9c229c6a0090565b6112cf612981565b61091d816129a8565b6112e0614066565b61096d6112eb6110c9565b612ac7565b6112f8613f9c565b6108f961130361144c565b600a016000611312868661241d565b815260200190815260200160002054612adf565b600061133061144c565b60140160006113486001600160a01b0386168561241d565b81526020810191909152604001600020549392505050565b61136a8233612b48565b600061137461175a565b6001600160a01b03161461139a5760405162dc149f60e41b815260040160405180910390fd5b806001600160a01b03166113ac61144c565b601201600060018152602001908152602001600020819055507f779c4000402376f0940de741d7a073932441ae45ea274e2e3c49c20a347e466c81604051610b469190614385565b60608061072e61140261144c565b600e016000611182878761241d565b60008061141c61144c565b600b0160006114346001600160a01b0387168661241d565b81526020019081526020016000205414905092915050565b7fe78a2879cd91c3f7b62ea14e72546fed47c40919bca4daada532a5fa05ac670090565b600061147b33610b63565b1561148d575060131936013560601c90565b503390565b61149c8383612b48565b6001600160a01b03811660009081526002850160205260408120546114c090612bd4565b90506114cc8583612be5565b6114e95760405163ad5679e160e01b815260040160405180910390fd5b6114f38583612c07565b506001600160a01b0382166000908152600286016020526040812055600c8160400151600d8111156115275761152761443a565b0361158b576001600160a01b0382166000908152601386016020526040812061154f91614089565b7fdd0142e38cca2beb5cf6e6de5ab21d05d75c6f9734f8bf6d4c7e2bba1ed1952c8260405161157e9190614385565b60405180910390a16116d6565b6001600160a01b038216600090815260038601602090815260408083208390556004880190915281206115bd916140c3565b6001600160a01b038216600090815260058601602052604081206115e0916140c3565b6001600160a01b03821660009081526006860160209081526040808320839055600788019091528120611612916140c3565b6001600160a01b03821660009081526008860160205260408120611635916140c3565b6001600160a01b03821660008181526009870160205260408120819055600f870191611661908261241d565b815260200190815260200160002060009055846010016000836001600160a01b03166001600160a01b03168152602001908152602001600020600090557ff4bab09e0bfc491adb818cac1805d51def9f0ec39825ffb0e42aeaa46494efce826040516116cd9190614385565b60405180910390a15b5050505050565b6116e5613f74565b6107456116f061144c565b6001600160a01b0384166000908152600791909101602090815260409182902080548351818402810184019094528084529091830182828015611285576020028201919060005260206000209081548152602001906001019080831161127157505050505061275e565b600061176461144c565b60120160006001815260200190815260200160002054905090565b604080518082019091526000808252602082015260405180604001604052806117a6611470565b6001600160a01b031681526020016117bc612c1c565b15159052919050565b6117cd613fbe565b6107456117d861144c565b6001600160a01b03841660009081526002919091016020526040902054612bd4565b606061180461144c565b6001600160a01b038316600090815260139190910160205260409020805461182b90615132565b80601f016020809104026020016040519081016040528092919081815260200182805461185790615132565b80156118a45780601f10611879576101008083540402835291602001916118a4565b820191906000526020600020905b81548152906001019060200180831161188757829003601f168201915b50505050509050919050565b60006118ba61144c565b60110160006118d26001600160a01b0386168561241d565b815260200190815260200160002054905092915050565b60008061072e6118f761144c565b600b01600061190f6001600160a01b0388168761241d565b8152602001908152602001600020549060a082901c90565b6040516313aa4c4b60e11b81526000907342F25e627D6E548dDb26d5E164E5a04E419547C690632754989690611969908990899089908990899060040161516c565b602060405180830381865af4158015611986573d6000803e3d6000fd5b505050506040513d601f19601f820116820180604052508101906119aa9190615048565b9050801561085a577361f80AA66D88dc4D763042E67cA0D729E552f944631d38f2e4826119d688612c34565b6040516001600160e01b031960e085901b16815260048101929092526001600160a01b039081166024830152861660448201526064810185905260840160006040518083038186803b158015611a2b57600080fd5b505af4158015611a3f573d6000803e3d6000fd5b50505050505050505050565b6000611a5a8660200151612c53565b6000611a6461175a565b90506001600160a01b038116611a8d576040516321c4e35760e21b815260040160405180910390fd5b8651604051631e989e6760e31b81526000916001600160a01b0384169163f4c4f33891611ac2918a908a908a9060040161526d565b602060405180830381865afa158015611adf573d6000803e3d6000fd5b505050506040513d601f19601f82011682018060405250810190611b039190615115565b855190915060005b81811015611b97576000868281518110611b2757611b276152b1565b6020026020010151905060008151905060005b81811015611b8957611b818c8b8681518110611b5857611b586152b1565b6020026020010151858481518110611b7257611b726152b1565b60200260200101516000612c73565b600101611b3a565b505050806001019050611b0b565b508751895160405163d2f5219f60e01b81527361f80AA66D88dc4D763042E67cA0D729E552f9449263d2f5219f92611bd592309188916004016152c7565b602060405180830381865af4158015611bf2573d6000803e3d6000fd5b505050506040513d601f19601f82011682018060405250810190611c169190615048565b93507f3c5fa252a5124726730463dfe8fc3e10b29548b5f3f3a31c53b07aec731706dd89600001518888888689604051611c55969594939291906152f2565b60405180910390a150505095945050505050565b611c7161400f565b610745611c7c61144c565b6001600160a01b03841660009081526009919091016020526040902054612d80565b611ca661400f565b6108f9611cb161144c565b600f016000611cc0868661241d565b815260200190815260200160002054612d80565b611cde8585612b48565b600c8260400151600d811115611cf657611cf661443a565b14611d1457604051635542eeb760e01b815260040160405180910390fd5b815160ff1615611d37576040516325c9833f60e11b815260040160405180910390fd5b611d42868385612e2c565b611d4b81612f2a565b506001600160a01b03831660009081526013870160205260409020611d70828261538b565b507f25b0489bea47365dfede6d28e8a2db637428822b861356ad5aeb93ef7ed8058b8383836040516108519392919061544a565b61085a868684848888604051602001611dbe92919061484d565b6040516020818303038152906040526001612355565b611ddc614038565b610745611de761144c565b6001600160a01b03841660009081526006919091016020526040902054612f7f565b611e11613f74565b610745611e1c61144c565b6001600160a01b0384166000908152600491909101602090815260409182902080548351818402810184019094528084529091830182828015611285576020028201919060005260206000209081548152602001906001019080831161127157505050505061275e565b60008061109f611e9461144c565b6001600160a01b038516600090815260039190910160205260409020549060a082901c90565b60608061109f611ec861144c565b6001600160a01b03851660009081526005919091016020908152604091829020805483518184028101840190945280845290918301828280156111da57602002820191906000526020600020908154815260200190600101908083116111c657505050505061246d565b60405163d2f5219f60e01b81526000907361f80AA66D88dc4D763042E67cA0D729E552f9449063d2f5219f90611f729088908890889088906004016152c7565b602060405180830381865af4158015611f8f573d6000803e3d6000fd5b505050506040513d601f19601f82011682018060405250810190611fb39190615048565b95945050505050565b600061096d611fc961144c565b613063565b611fd88484612b48565b611fe5602082018261547b565b60ff166000036120075760405162a2622f60e41b815260040160405180910390fd5b600c6120196060830160408401615496565b600d81111561202a5761202a61443a565b0361204857604051635542eeb760e01b815260040160405180910390fd5b6120618561205b368490038401846154b1565b84612e2c565b6120816120766101a083016101808401614272565b826101a0013561306d565b6001600160a01b03831660009081526003870160205260409020556120c0826120ae6101c08401846154ce565b6120b790615620565b876004016130ba565b60046120cf602083018361547b565b60ff16036121e15761217a6120e86101e08301836156d6565b6120f290806156ec565b80806020026020016040519081016040528093929190818152602001838360200280828437600092019190915250612132925050506101e08401846156d6565b6121409060208101906156ec565b80806020026020016040519081016040528093929190818152602001838360200280828437600092019190915250929392505061325e9050565b6001600160a01b0383166000908152600587016020908152604090912082516121a993919291909101906140e1565b506121c56121c03683900383016102008401615735565b6134bc565b6001600160a01b03831660009081526006870160205260409020555b60036121f0602083018361547b565b60ff16036122405761221c8261220a6102a08401846154ce565b61221390615620565b876007016130ba565b6122408261222e6102c08401846154ce565b61223790615620565b876008016130ba565b600261224f602083018361547b565b60ff16036122ce5761227261226d3683900383016102e084016157d1565b6135e5565b6001600160a01b03831660009081526009870160205260409020556122a361226d3683900383016102e084016157d1565b600f860160006122bc6001600160a01b0386168261241d565b81526020810191909152604001600020555b6001600160a01b0382166000908152601086016020526040908190206103c08301359055517f1d81d20f6fdfede8241992b5f81e672c3a6811fc8ff0a8e4bc8165b2a4020514906116cd9084908490615b8d565b61232b83613677565b610fcb82826103e861370a565b60608061072e61234661144c565b600c016000611182878761241d565b61236386866000015161379d565b60007336EAce176E2B060D2bC106b172ff8703892Bb47B6395b8a1a861238761144c565b88518a516040805180820182526001600160a01b038c168152602081018b905290516001600160e01b031960e087901b1681526123ce94939291908a908a90600401615cbe565b602060405180830381865af41580156123eb573d6000803e3d6000fd5b505050506040513d601f19601f8201168201806040525081019061240f9190615d17565b9050610f5786868684612c73565b60006001600160401b0382111561244a57604051633995b34160e01b815260048101839052602401610a89565b5067ffffffffffffffff60a01b60a09190911b166001600160a01b039091161790565b805160609081906000612481826008615d34565b90506000816001600160401b0381111561249d5761249d61472c565b6040519080825280602002602001820160405280156124c6578160200160208202803683370190505b5090506000826001600160401b038111156124e3576124e361472c565b60405190808252806020026020018201604052801561250c578160200160208202803683370190505b5090506000805b858110156126395760005b600881101561263057600081612535846008615d34565b61253f9190614efc565b905061254c826020615d34565b8b848151811061255e5761255e6152b1565b602002602001015160001c901c60020b868281518110612580576125806152b1565b60039290920b60209283029190910182015261259d908390615d34565b6125a8906018614efc565b8b84815181106125ba576125ba6152b1565b602002602001015160001c901c8582815181106125d9576125d96152b1565b602002602001019060ff16908160ff16815250508581815181106125ff576125ff6152b1565b602002602001015160030b6000036126175750612630565b8361262181615d4b565b9450505080600101905061251e565b50600101612513565b50806001600160401b038111156126525761265261472c565b60405190808252806020026020018201604052801561267b578160200160208202803683370190505b509650806001600160401b038111156126965761269661472c565b6040519080825280602002602001820160405280156126bf578160200160208202803683370190505b50955060005b81811015612753578381815181106126df576126df6152b1565b60200260200101518882815181106126f9576126f96152b1565b602002602001019060030b908160030b8152505082818151811061271f5761271f6152b1565b6020026020010151878281518110612739576127396152b1565b60ff909216602092830291909101909101526001016126c5565b505050505050915091565b612766613f74565b81516000816001600160401b038111156127825761278261472c565b6040519080825280602002602001820160405280156127ab578160200160208202803683370190505b5090506000826001600160401b038111156127c8576127c861472c565b6040519080825280602002602001820160405280156127f1578160200160208202803683370190505b5090506000836001600160401b0381111561280e5761280e61472c565b604051908082528060200260200182016040528015612837578160200160208202803683370190505b5090506000846001600160401b038111156128545761285461472c565b60405190808252806020026020018201604052801561287d578160200160208202803683370190505b50905060005b8581101561294f576128bd8882815181106128a0576128a06152b1565b602002602001015190600882901c90602883901c90604884901c90565b8885815181106128cf576128cf6152b1565b602002602001018886815181106128e8576128e86152b1565b60200260200101888781518110612901576129016152b1565b6020026020010188888151811061291a5761291a6152b1565b63ffffffff90951660209586029190910190940193909352600393840b9092529290910b905260ff9091169052600101612883565b506040805160808101825294855260208501939093529183015260608201529392505050565b60006108f9838361382a565b612989613854565b6129a657604051631afcd79f60e31b815260040160405180910390fd5b565b6001600160a01b0381166129f05760405162461bcd60e51b815260206004820152600f60248201526e2d32b9379031b7b73a3937b63632b960891b6044820152606401610a89565b612a1f81610ada60017f5165972ef41194f06c5007493031d0b927c20741adcb74403b954009fd2c3618614ea5565b612a4e42610ada60017f6f55f470bdc9cb5f04223fd822021061668e4dccb43e8727b295106dc9769c8b614ea5565b612a7d43610ada60017f812a673dfca07956350df10f8a654925f561d7a0da09bdbe79e653939a14d9f1614ea5565b604080516001600160a01b0383168152426020820152438183015290517f1a2dd071001ebf6e03174e3df5b305795a4ad5d41d8fdb9ba41dbbe2367134269181900360600190a150565b612acf614066565b6001600160a01b03909116815290565b612ae7613f9c565b61ffff601083901c16604082015260ff600883901c81166020830152829081166006811115612b1857612b1861443a565b82906006811115612b2b57612b2b61443a565b90816006811115612b3e57612b3e61443a565b8152505050919050565b604051631430d62960e21b81526001600160a01b038316906350c358a490612b74908490600401614385565b602060405180830381865afa158015612b91573d6000803e3d6000fd5b505050506040513d601f19601f82011682018060405250810190612bb59190615d17565b611125578060405163451cea1760e11b8152600401610a899190614385565b612bdc613fbe565b6107458261386e565b6001600160a01b038116600090815260018301602052604081205415156108f9565b60006108f9836001600160a01b03841661396c565b6000612c2733610b63565b8061096d57505032331490565b600061074582600084600001516001600160a01b0316628e9691613a66565b8061091d57336040516377817ac360e01b8152600401610a899190614385565b8015612ce657612c8284613b72565b6001600160a01b0316638d85758c84846040518363ffffffff1660e01b8152600401612caf92919061484d565b600060405180830381600087803b158015612cc957600080fd5b505af1158015612cdd573d6000803e3d6000fd5b50505050612d41565b604051630852cd8d60e31b8152600481018390526001600160a01b038416906342966c6890602401600060405180830381600087803b158015612d2857600080fd5b505af1158015612d3c573d6000803e3d6000fd5b505050505b7f789ec66f21698ed1b990c0a8a8be99cf6f5fb8eb3826ee4ee9384870e8db25b18383604051612d7292919061484d565b60405180910390a150505050565b612d8861400f565b612d9061412c565b60a883901c600390810b6060830152608884901c810b604080840191909152606885901c820b602080850191909152604886901c830b8452602886901c830b91850191909152600885901c90910b908301528260ff81166005811115612df857612df861443a565b83906005811115612e0b57612e0b61443a565b90816005811115612e1e57612e1e61443a565b905250506060820152919050565b816020015160ff16600003612e5457604051631e1c984560e31b815260040160405180910390fd5b612e5e8382613b92565b612efd576001600160a01b0381166000908152600284016020526040812054612e8690612bd4565b90508260400151600d811115612e9e57612e9e61443a565b8160400151600d811115612eb457612eb461443a565b14612ed257604051632d5a77ad60e11b815260040160405180910390fd5b8251815160ff908116911614612efb5760405163d300ee6760e01b815260040160405180910390fd5b505b612f0682613ba7565b6001600160a01b039091166000908152600290930160205260409092209190915550565b60208101516000908060ff81161580612f475750600660ff821610155b15612f6a57604051637d2f2ac960e01b815260ff82166004820152602401610a89565b8060ff166006811115610f7d57610f7d61443a565b612f87614038565b6000612f9283613cad565b90506040518060a0016040528082600081518110612fb257612fb26152b1565b602002602001015163ffffffff16815260200182600181518110612fd857612fd86152b1565b602002602001015163ffffffff16815260200182600281518110612ffe57612ffe6152b1565b602002602001015163ffffffff16815260200182600381518110613024576130246152b1565b602002602001015163ffffffff1681526020018260048151811061304a5761304a6152b1565b602002602001015163ffffffff16815250915050919050565b6000610745825490565b60006001600160601b0382111561309a57604051633995b34160e01b815260048101839052602401610a89565b506001600160a01b031960a09190911b166001600160a01b039091161790565b60005b82515181101561322957826020015181815181106130dd576130dd6152b1565b602002602001015160030b60001480613116575082604001518181518110613107576131076152b1565b602002602001015160030b6000145b80613160575082604001518181518110613132576131326152b1565b602002602001015160030b83602001518281518110613153576131536152b1565b602002602001015160030b135b806131b6575060008360200151828151811061317e5761317e6152b1565b602002602001015160030b1280156131b657506000836040015182815181106131a9576131a96152b1565b602002602001015160030b135b1561322157826020015181815181106131d1576131d16152b1565b6020026020010151836040015182815181106131ef576131ef6152b1565b602002602001015160405163afeec43960e01b8152600401610a89929190600392830b8152910b602082015260400190565b6001016130bd565b5061323382613d22565b6001600160a01b03841660009081526020838152604090912082516109e993919291909101906140e1565b606081518351146132825760405163586cb9e160e01b815260040160405180910390fd5b6000600884516132929190615d64565b61329d906001614efc565b90506000816001600160401b038111156132b9576132b961472c565b6040519080825280602002602001820160405280156132e2578160200160208202803683370190505b50905060005b828110156134b35760005b60088110156134aa5760008161330a846008615d34565b6133149190614efc565b90508751811061332457506134aa565b627fffff60020b88828151811061333d5761333d6152b1565b602002602001015160030b13806133765750627fffff1960020b888281518110613369576133696152b1565b602002602001015160030b125b156133b45787818151811061338d5761338d6152b1565b602002602001015160030b604051632eb1d06960e01b8152600401610a8991815260200190565b8781815181106133c6576133c66152b1565b602002602001015160030b6000036133f157604051637c946ed760e01b815260040160405180910390fd5b6133fc826020615d34565b88828151811061340e5761340e6152b1565b602002602001015162ffffff1660001b901b848481518110613432576134326152b1565b6020026020010181815117915081815250508160206134519190615d34565b61345c906018614efc565b87828151811061346e5761346e6152b1565b602002602001015160ff1660001b901b848481518110613490576134906152b1565b6020908102919091010180519091179052506001016132f3565b506001016132e8565b50949350505050565b60408051600580825260c082019092526000918291906020820160a0803683370190505090508260000151816000815181106134fa576134fa6152b1565b602002602001019063ffffffff16908163ffffffff168152505082602001518160018151811061352c5761352c6152b1565b602002602001019063ffffffff16908163ffffffff168152505082604001518160028151811061355e5761355e6152b1565b602002602001019063ffffffff16908163ffffffff1681525050826060015181600381518110613590576135906152b1565b602002602001019063ffffffff16908163ffffffff16815250508260800151816004815181106135c2576135c26152b1565b602002602001019063ffffffff16908163ffffffff16815250506108f981613ea3565b6000610745826000015160058111156136005761360061443a565b6020848101516040808701516060808901518051958101519381015191015160ff9690961660089490941b64ffffffff00169390931760289190911b63ffffffff60281b161760489390931b600c0b9290921760689290921b60100b9190911760889190911b60140b1760a89190911b60180b1790565b806001600160a01b031663524a562f6040518163ffffffff1660e01b8152600401602060405180830381865afa1580156136b5573d6000803e3d6000fd5b505050506040513d601f19601f820116820180604052508101906136d99190615115565b6001600160a01b0316336001600160a01b03161461091d576040516317398d4d60e11b815260040160405180910390fd5b600061371461144c565b601101600061372c6001600160a01b0387168661241d565b8152602001908152602001600020549050620186a0828261374d9190614efc565b116137615761375c8282614efc565b613766565b620186a05b61376e61144c565b60110160006137866001600160a01b0388168761241d565b815260208101919091526040016000205550505050565b6137aa8260200151612c53565b806001600160a01b03166318d928316040518163ffffffff1660e01b8152600401602060405180830381865afa1580156137e8573d6000803e3d6000fd5b505050506040513d601f19601f8201168201806040525081019061380c9190615d17565b1561112557604051635e1633d360e11b815260040160405180910390fd5b6000826000018281548110613841576138416152b1565b9060005260206000200154905092915050565b600061385e6112a3565b54600160401b900460ff16919050565b613876613fbe565b61387e613fbe565b60ff8084168252600884901c81166020830152601084901c16600d8111156138a8576138a861443a565b8160400190600d8111156138be576138be61443a565b9081600d8111156138d1576138d161443a565b905250601883901c61ffff16606082810191909152602884901c60ff908116608080850191909152603086901c821660c080860191909152603887901c90921660e0850152604086811c63ffffffff1660a0808701919091526101008601805189871c600390810b9091528151948a901c810b6020959095019490945280519189901c840b9190920152519590911c900b9301929092525090565b60008181526001830160205260408120548015613a55576000613990600183614ea5565b85549091506000906139a490600190614ea5565b9050808214613a095760008660000182815481106139c4576139c46152b1565b90600052602060002001549050808760000184815481106139e7576139e76152b1565b6000918252602080832090910192909255918252600188019052604090208390555b8554869080613a1a57613a1a615d86565b600190038181906000526020600020016000905590558560010160008681526020019081526020016000206000905560019350505050610745565b6000915050610745565b5092915050565b600080856020015185600e811115613a8057613a8061443a565b600f8110613a9057613a906152b1565b602002015190506001600160a01b03811615613aad579050610f7d565b83836040518163ffffffff1660e01b8152600401602060405180830381865afa158015613ade573d6000803e3d6000fd5b505050506040513d601f19601f82011682018060405250810190613b029190615115565b866020015186600e811115613b1957613b1961443a565b600f8110613b2957613b296152b1565b6001600160a01b039092166020928302919091015286015185600e811115613b5357613b5361443a565b600f8110613b6357613b636152b1565b60200201519695505050505050565b600061074582600e84600001516001600160a01b0316630139009f613a66565b60006108f9836001600160a01b038416613f25565b6000610745826000015183602001518460400151600d811115613bcc57613bcc61443a565b856060015186608001518760c001518860e001518960a001518a61010001518051602082015160408381015160609485015160c01b601b0b60a09190911b60170b60809390931b60130b9390941b600f0b63ffffffff60401b9590911b9490941660ff60381b60389690961b9590951660ff60301b60309790971b9690961660ff60281b60289890981b9790971664ffff00000060189990991b9890981662ff000060109a909a1b9990991661ff0060089b909b1b9a909a1660ff909b169a909a179890981796909617949094179290921717171791909117919091171790565b604080516008808252610120820190925260609160009190602082016101008036833701905050905060005b6008811015613a5f57613ced816020615d34565b8460001c901c828281518110613d0557613d056152b1565b63ffffffff90921660209283029190910190910152600101613cd9565b8051516020820151516060919081141580613d4257508260400151518114155b80613d5257508260600151518114155b15613d705760405163586cb9e160e01b815260040160405180910390fd5b806001600160401b03811115613d8857613d8861472c565b604051908082528060200260200182016040528015613db1578160200160208202803683370190505b50915060005b81811015613e9c57613e7784600001518281518110613dd857613dd86152b1565b602002602001015185602001518381518110613df657613df66152b1565b602002602001015186604001518481518110613e1457613e146152b1565b602002602001015187606001518581518110613e3257613e326152b1565b602090810291909101015160ff9390931660089290921b64ffffffff00169190911760289190911b63ffffffff60281b161760489190911b63ffffffff60481b161790565b838281518110613e8957613e896152b1565b6020908102919091010152600101613db7565b5050919050565b80516000906008811115613ed457604051633d71388b60e21b81526004810182905260086024820152604401610a89565b6000805b82811015613f1d57613eeb816020615d34565b858281518110613efd57613efd6152b1565b602090810291909101015163ffffffff16901b9190911790600101613ed8565b509392505050565b6000818152600183016020526040812054613f6c57508154600181810184556000848152602080822090930184905584548482528286019093526040902091909155610745565b506000610745565b6040518060800160405280606081526020016060815260200160608152602001606081525090565b6040805160608101909152806000815260006020820181905260409091015290565b60408051610120810182526000808252602082018190529091820190815260006020820181905260408201819052606082018190526080820181905260a082015260c00161400a61412c565b905290565b60408051608081019091528060008152600060208201819052604082015260600161400a61412c565b6040805160a08101825260008082526020820181905291810182905260608101829052608081019190915290565b604051806040016040528060006001600160a01b0316815260200161400a614153565b50805461409590615132565b6000825580601f106140a5575050565b601f01602090049060005260206000209081019061091d9190614172565b508054600082559060005260206000209081019061091d9190614172565b82805482825590600052602060002090810192821561411c579160200282015b8281111561411c578251825591602001919060010190614101565b50614128929150614172565b5090565b60408051608081018252600080825260208201819052918101829052606081019190915290565b604051806101e00160405280600f906020820280368337509192915050565b5b808211156141285760008155600101614173565b6001600160a01b038116811461091d57600080fd5b80356141a781614187565b919050565b600080604083850312156141bf57600080fd5b82356141ca81614187565b946020939093013593505050565b60008151808452602080850194506020840160005b8381101561420c57815160ff16875295820195908201906001016141ed565b509495945050505050565b604080825283519082018190526000906020906060840190828701845b8281101561425357815160030b84529284019290840190600101614234565b505050838103602085015261426881866141d8565b9695505050505050565b60006020828403121561428457600080fd5b81356108f981614187565b60008151808452602080850194506020840160005b8381101561420c57815160030b875295820195908201906001016142a4565b6000602080835283516080828501526142df60a08501826141d8565b905081850151601f19808684030160408701526142fc838361428f565b92506040870151915080868403016060870152614319838361428f565b6060880151878203909201608088015281518082529185019350600092508401905b8083101561436157835163ffffffff16825292840192600192909201919084019061433b565b509695505050505050565b60006020828403121561437e57600080fd5b5035919050565b6001600160a01b0391909116815260200190565b803560ff811681146141a757600080fd5b801515811461091d57600080fd5b600080600080600080600060e0888a0312156143d357600080fd5b87356143de81614187565b96506020880135955060408801356143f581614187565b94506060880135935061440a60808901614399565b925060a088013561441a81614187565b915060c088013561442a816143aa565b8091505092959891949750929550565b634e487b7160e01b600052602160045260246000fd5b6007811061091d5761091d61443a565b8151606082019061447081614450565b8083525060ff602084015116602083015261ffff604084015116604083015292915050565b600080600080608085870312156144ab57600080fd5b84356144b681614187565b9350602085013592506144cb60408601614399565b915060608501356144db816143aa565b939692955090935050565b60008083601f8401126144f857600080fd5b5081356001600160401b0381111561450f57600080fd5b6020830191508360208260051b850101111561073357600080fd5b60008060008060008060008060a0898b03121561454657600080fd5b883561455181614187565b97506020890135965060408901356001600160401b038082111561457457600080fd5b6145808c838d016144e6565b909850965060608b013591508082111561459957600080fd5b6145a58c838d016144e6565b909650945060808b01359150808211156145be57600080fd5b506145cb8b828c016144e6565b999c989b5096995094979396929594505050565b600e81106145ef576145ef61443a565b9052565b805160030b8252602081015160030b6020830152604081015160030b6040830152606081015160030b60608301525050565b60ff815116825260ff6020820151166020830152604081015161464b60408401826145df565b5061ffff6060820151166060830152608081015161466e608084018260ff169052565b5060a081015161468660a084018263ffffffff169052565b5060c081015161469b60c084018260ff169052565b5060e08101516146b060e084018260ff169052565b50610100808201516109e9828501826145f3565b61018081016107458284614625565b6000815180845260005b818110156146f9576020818501810151868301820152016146dd565b506000602082860101526020601f19601f83011685010191505092915050565b6020815260006108f960208301846146d3565b634e487b7160e01b600052604160045260246000fd5b604051608081016001600160401b03811182821017156147645761476461472c565b60405290565b60405161012081016001600160401b03811182821017156147645761476461472c565b604051601f8201601f191681016001600160401b03811182821017156147b5576147b561472c565b604052919050565b60008060008084860360a08112156147d457600080fd5b85356147df81614187565b9450602086013593506040808701359350605f198201121561480057600080fd5b50604051604081018181106001600160401b03821117156148235761482361472c565b604052606086013561483481614187565b8152608095909501356020860152509194909350909190565b6001600160a01b03929092168252602082015260400190565b6000806000806080858703121561487c57600080fd5b843561488781614187565b935060208501359250604085013561489e81614187565b9396929550929360600135925050565b6000806000606084860312156148c357600080fd5b83356148ce81614187565b95602085013595506040909401359392505050565b60006001600160401b038211156148fc576148fc61472c565b5060051b60200190565b600082601f83011261491757600080fd5b8135602061492c614927836148e3565b61478d565b828152600592831b850182019282820191908785111561494b57600080fd5b8387015b858110156149de5780356001600160401b0381111561496e5760008081fd5b8801603f81018a136149805760008081fd5b858101356040614992614927836148e3565b82815291851b8301810191888101908d8411156149af5760008081fd5b938201935b838510156149cd578435825293890193908901906149b4565b88525050509385019350840161494f565b5090979650505050505050565b600080600060608486031215614a0057600080fd5b833592506020808501356001600160401b0380821115614a1f57600080fd5b818701915087601f830112614a3357600080fd5b8135614a41614927826148e3565b81815260059190911b8301840190848101908a831115614a6057600080fd5b938501935b82851015614a87578435614a7881614187565b82529385019390850190614a65565b965050506040870135925080831115614a9f57600080fd5b5050614aad86828701614906565b9150509250925092565b600681106145ef576145ef61443a565b600060e082019050614ada828451614ab7565b602083015160030b6020830152604083015160030b60408301526060830151613a5f60608401826145f3565b8035600e81106141a757600080fd5b803561ffff811681146141a757600080fd5b803563ffffffff811681146141a757600080fd5b8035600381900b81146141a757600080fd5b600060808284031215614b5f57600080fd5b614b67614742565b9050614b7282614b3b565b8152614b8060208301614b3b565b6020820152614b9160408301614b3b565b6040820152614ba260608301614b3b565b606082015292915050565b60006101808284031215614bc057600080fd5b614bc861476a565b9050614bd382614399565b8152614be160208301614399565b6020820152614bf260408301614b06565b6040820152614c0360608301614b15565b6060820152614c1460808301614399565b6080820152614c2560a08301614b27565b60a0820152614c3660c08301614399565b60c0820152614c4760e08301614399565b60e0820152610100614c5b84828501614b4d565b9082015292915050565b600082601f830112614c7657600080fd5b81356001600160401b03811115614c8f57614c8f61472c565b614ca2601f8201601f191660200161478d565b818152846020838601011115614cb757600080fd5b816020850160208301376000918101602001919091529392505050565b60008060006101c08486031215614cea57600080fd5b8335614cf581614187565b9250614d048560208601614bad565b91506101a08401356001600160401b03811115614d2057600080fd5b614aad86828701614c65565b60008060408385031215614d3f57600080fd5b8235614d4a81614187565b91506020830135614d5a81614187565b809150509250929050565b60008060408385031215614d7857600080fd5b8235614d8381614187565b915060208301356001600160401b03811115614d9e57600080fd5b83016103e08186031215614d5a57600080fd5b600080600060608486031215614dc657600080fd5b8335614dd181614187565b92506020840135915060408401356001600160401b03811115614d2057600080fd5b80516001600160a01b03908116835260208083015181850160005b600f811015610f57578251851682529183019190830190600101614e0e565b6102e08101614e3c828b614df3565b6001600160a01b0398891661020083015261022082019790975294871661024086015261026085019390935260ff919091166102808401529093166102a08201529115156102c090920191909152919050565b634e487b7160e01b600052601160045260246000fd5b8181038181111561074557610745614e8f565b6102808101614ec78288614df3565b6001600160a01b039590951661020082015261022081019390935260ff91909116610240830152151561026090910152919050565b8082018082111561074557610745614e8f565b80516001600160a01b031682526020908101511515910152565b81835260006001600160fb1b03831115614f4257600080fd5b8260051b80836020870137939093016020019392505050565b8183526000602080850194508260005b8581101561420c5760ff614f7e83614399565b1687529582019590820190600101614f6b565b60006102e0808301614fa3848f614f0f565b614fb0604085018e614df3565b6001600160a01b038c811661024086015261026085018c9052610280850192909252889052610300830190899060005b8a81101561500a578235614ff381614187565b821684526020938401939290920191600101614fe0565b5050508281036102a0840152615021818789614f29565b90508281036102c0840152615037818587614f5b565b9d9c50505050505050505050505050565b60006020828403121561505a57600080fd5b5051919050565b80516001600160a01b03168252602090810151910152565b6101208101615088828a614f0f565b6001600160a01b03888116604084015287811660608401526080830187905260a083018690526150bb60c0840186615061565b8084166101008401525098975050505050505050565b6102a081016150e08288614f0f565b6150ed6040830187614df3565b6001600160a01b03949094166102408201526102608101929092526102809091015292915050565b60006020828403121561512757600080fd5b81516108f981614187565b600181811c9082168061514657607f821691505b60208210810361516657634e487b7160e01b600052602260045260246000fd5b50919050565b6102c0810161517b8288614f0f565b6151886040830187614df3565b615196610240830186615061565b6001600160a01b03939093166102808201526102a001529392505050565b60008151808452602080850194506020840160005b8381101561420c5781516001600160a01b0316875295820195908201906001016151c9565b600082825180855260208086019550808260051b8401018186016000805b8581101561525f57868403601f19018a52825180518086529086019086860190845b8181101561524a5783518352928801929188019160010161522e565b50509a86019a9450509184019160010161520c565b509198975050505050505050565b60018060a01b038516815283602082015260806040820152600061529460808301856151b4565b82810360608401526152a681856151ee565b979650505050505050565b634e487b7160e01b600052603260045260246000fd5b6001600160a01b03948516815292841660208401529083166040830152909116606082015260800190565b600060018060a01b03808916835287602084015260c0604084015261531a60c08401886151b4565b838103606085015261532c81886151ee565b959091166080840152505060a00152949350505050565b601f821115610fcb576000816000526020600020601f850160051c8101602086101561536c5750805b601f850160051c820191505b8181101561085a57828155600101615378565b81516001600160401b038111156153a4576153a461472c565b6153b8816153b28454615132565b84615343565b602080601f8311600181146153ed57600084156153d55750858301515b600019600386901b1c1916600185901b17855561085a565b600085815260208120601f198616915b8281101561541c578886015182559484019460019091019084016153fd565b508582101561543a5787850151600019600388901b60f8161c191681555b5050505050600190811b01905550565b6001600160a01b038416815260006101c06154686020840186614625565b806101a0840152614268818401856146d3565b60006020828403121561548d57600080fd5b6108f982614399565b6000602082840312156154a857600080fd5b6108f982614b06565b600061018082840312156154c457600080fd5b6108f98383614bad565b60008235607e198336030181126154e457600080fd5b9190910192915050565b600082601f8301126154ff57600080fd5b8135602061550f614927836148e3565b8083825260208201915060208460051b87010193508684111561553157600080fd5b602086015b848110156143615761554781614399565b8352918301918301615536565b600082601f83011261556557600080fd5b81356020615575614927836148e3565b8083825260208201915060208460051b87010193508684111561559757600080fd5b602086015b84811015614361576155ad81614b3b565b835291830191830161559c565b600082601f8301126155cb57600080fd5b813560206155db614927836148e3565b8083825260208201915060208460051b8701019350868411156155fd57600080fd5b602086015b848110156143615761561381614b27565b8352918301918301615602565b60006080823603121561563257600080fd5b61563a614742565b82356001600160401b038082111561565157600080fd5b61565d368387016154ee565b8352602085013591508082111561567357600080fd5b61567f36838701615554565b6020840152604085013591508082111561569857600080fd5b6156a436838701615554565b604084015260608501359150808211156156bd57600080fd5b506156ca368286016155ba565b60608301525092915050565b60008235603e198336030181126154e457600080fd5b6000808335601e1984360301811261570357600080fd5b8301803591506001600160401b0382111561571d57600080fd5b6020019150600581901b360382131561073357600080fd5b600060a0828403121561574757600080fd5b60405160a081018181106001600160401b03821117156157695761576961472c565b60405261577583614b27565b815261578360208401614b27565b602082015261579460408401614b27565b60408201526157a560608401614b27565b60608201526157b660808401614b27565b60808201529392505050565b8035600681106141a757600080fd5b600060e082840312156157e357600080fd5b6157eb614742565b6157f4836157c2565b815261580260208401614b3b565b602082015261581360408401614b3b565b60408201526158258460608501614b4d565b60608201529392505050565b61583a81614b3b565b60030b825261584b60208201614b3b565b60030b602083015261585f60408201614b3b565b60030b604083015261587360608201614b3b565b60030b60608301525050565b60ff61588a82614399565b16825260ff61589b60208301614399565b1660208301526158ad60408201614b06565b6158ba60408401826145df565b5061ffff6158ca60608301614b15565b1660608301526158dc60808201614399565b60ff1660808301526158f060a08201614b27565b63ffffffff1660a083015261590760c08201614399565b60ff1660c083015261591b60e08201614399565b60ff1660e0830152610100610fcb818401838301615831565b60008235607e1983360301811261594a57600080fd5b90910192915050565b6000808335601e1984360301811261596a57600080fd5b83016020810192503590506001600160401b0381111561598957600080fd5b8060051b360382131561073357600080fd5b8183526000602080850194508260005b8581101561420c576159bc82614b3b565b60030b875295820195908201906001016159ab565b60006159dd8283615953565b608085526159ef608086018284614f5b565b9150506020615a016020850185615953565b8684036020880152615a1484828461599b565b93505050615a256040850185615953565b8684036040880152615a3884828461599b565b93505050615a496060850185615953565b86840360608801528084529092600091906020015b818310156152a65763ffffffff615a7486614b27565b16815293830193600192909201918301615a5e565b60008235603e1983360301811261594a57600080fd5b6000615aab8283615953565b60408552615abd604086018284614f5b565b915050615acd6020840184615953565b858303602087015261426883828461599b565b63ffffffff80615aef83614b27565b16835280615aff60208401614b27565b16602084015280615b1260408401614b27565b16604084015280615b2560608401614b27565b16606084015280615b3860808401614b27565b166080840152505050565b615b5582615b50836157c2565b614ab7565b615b6160208201614b3b565b60030b6020830152615b7560408201614b3b565b60030b60408301526111256060830160608301615831565b6001600160a01b0383168152604060208201819052615bae9082018361587f565b6000615bbd610180840161419c565b6101c0615bd4818501836001600160a01b03169052565b6101e091506101a085013582850152615bef81860186615934565b90506102006103e081860152615c096104208601836159d1565b9150615c1783870187615a89565b9250603f198086840301610220870152615c318385615a9f565b9350615c436102408701838901615ae0565b615c516102a0880188615934565b92506102e09150808685030182870152615c6b84846159d1565b9350615c7b6102c0880188615934565b9250808685030161030087015250615c9383836159d1565b9250615ca56103208601828801615b43565b50506103c0840135610400840152809150509392505050565b8681526001600160a01b038681166020830152851660408201526000615ce76060830186615061565b60e060a0830152615cfb60e08301856146d3565b9050615d0683614450565b8260c0830152979650505050505050565b600060208284031215615d2957600080fd5b81516108f9816143aa565b808202811582820484141761074557610745614e8f565b600060018201615d5d57615d5d614e8f565b5060010190565b600082615d8157634e487b7160e01b600052601260045260246000fd5b500490565b634e487b7160e01b600052603160045260246000fdfe22573091f17911fb166032a3d9e0554aa73d31b7b7ddea4a4dd2995650af84bda2646970667358221220a300ea95c3c6c01e0d932b78b75d70c60e04a7444dbab6a9fbf30f01673b265b64736f6c63430008170033",
  "deployedBytecode": "0x608060405234801561001057600080fd5b506004361061028c5760003560e01c80639bbb0c461161015d578063d9f72d80116100c9578063d9f72d80146105e3578063dd21b92914610642578063dee1f0e414610655578063dfcb87e514610668578063e3dacdb61461067b578063ee1fe2ad1461068e578063f77c4791146106a1578063f863208d146106a9578063f8ddd626146106b1578063fa33b2df146106c4578063fafc4bfd146106d7578063ff686615146106ea578063ffa1ad74146106fd57600080fd5b80639bbb0c46146104dc5780639d0bcca0146104ef578063a24835d1146104f7578063a4d21fc21461050a578063aef874fa1461051d578063b429afeb1461053e578063bc78570114610551578063bf105a0014610564578063c857a66014610577578063cad181b91461058a578063ce11a209146105aa578063d56654a3146105bd578063d9c52c3c146105d057600080fd5b8063399fa840116101fc578063399fa840146103db5780634593144c146103ee5780634fac6ccd146103f65780635040f95214610409578063572b6c051461041c578063667050c61461042f57806370435ed1146104375780637401edba1461044a5780637cc963801461045d57806382b538de146104655780638d99b71414610485578063936725ec146104a55780639b92d4c5146104c957600080fd5b8063010759751461029157806306db8693146102bb5780630bcfdc14146102dc578063173cc522146102fc57806319ab453c1461031c5780631af65859146103315780631cdaab67146103445780631d8a35851461036457806323d486881461037757806324e44dfc1461038a57806327238f121461039d578063325a19f1146103c057806339725001146103c8575b600080fd5b6102a461029f3660046141ac565b610721565b6040516102b2929190614217565b60405180910390f35b6102ce6102c9366004614272565b61073a565b6040519081526020016102b2565b6102ef6102ea366004614272565b61074b565b6040516102b291906142c3565b61030f61030a36600461436c565b61075c565b6040516102b29190614385565b61032f61032a366004614272565b610767565b005b61032f61033f3660046143b8565b610862565b6103576103523660046141ac565b6108e7565b6040516102b29190614460565b6102ce6103723660046141ac565b610900565b61032f610385366004614272565b61090c565b6102a46103983660046141ac565b610920565b6103b06103ab3660046141ac565b61092d565b60405190151581526020016102b2565b6102ce610939565b61032f6103d6366004614495565b610972565b61032f6103e9366004614272565b6109ef565b6102ce610a10565b61032f610404366004614272565b610a40565b6102ef610417366004614272565b610b52565b6103b061042a366004614272565b610b63565b61030f610bd8565b61032f61044536600461452a565b610be2565b6102ce6104583660046141ac565b610c73565b6102ce610cf0565b610478610473366004614272565b610d0e565b6040516102b291906146c4565b610498610493366004614272565b610d1f565b6040516102b29190614719565b610498604051806040016040528060058152602001640312e302e360dc1b81525081565b61032f6104d736600461452a565b610d2a565b6102ce6104ea3660046141ac565b610d4c565b61030f610d58565b61032f6105053660046141ac565b610d88565b61032f6105183660046147bd565b610e1c565b61053061052b3660046141ac565b610e74565b6040516102b292919061484d565b6103b061054c366004614272565b610e81565b61032f61055f366004614866565b610ea6565b61032f6105723660046148ae565b610ede565b6102ce6105853660046149eb565b610f60565b61059d610598366004614272565b610f85565b6040516102b29190614ac7565b61059d6105b83660046141ac565b610f96565b61032f6105cb366004614cd4565b610fa8565b61032f6105de366004614866565b610fd0565b6105f66105f1366004614272565b610fec565b6040516102b29190815163ffffffff9081168252602080840151821690830152604080840151821690830152606080840151821690830152608092830151169181019190915260a00190565b6102ef610650366004614272565b610ffd565b6103b0610663366004614272565b61100e565b610530610676366004614272565b611093565b6102a4610689366004614272565b6110a8565b6102ce61069c366004614d2c565b6110b4565b61030f6110c9565b6102ce6110f9565b61032f6106bf366004614d65565b611103565b61032f6106d23660046141ac565b611129565b6102a46106e53660046141ac565b61113b565b61032f6106f8366004614db1565b611148565b610498604051806040016040528060058152602001640c4b8c0b8d60da1b81525081565b60608061072e8484611165565b915091505b9250929050565b6000610745826111e4565b92915050565b610753613f74565b61074582611210565b60006107458261128f565b60006107716112a3565b805490915060ff600160401b82041615906001600160401b03166000811580156107985750825b90506000826001600160401b031660011480156107b45750303b155b9050811580156107c2575080155b156107e05760405163f92ee8a960e01b815260040160405180910390fd5b845467ffffffffffffffff19166001178555831561080a57845460ff60401b1916600160401b1785555b610813866112c7565b831561085a57845460ff60401b19168555604051600181527fc7f505b2f371ae2175ee4913f4499e1f2633a7b5936321eed1cdaeb6115181d2906020015b60405180910390a15b505050505050565b73__$e606fdba99c76896c5b0fb8e6ab34e72a7$__6355e36a7d6108846112d8565b898989898989896040518963ffffffff1660e01b81526004016108ae989796959493929190614e2d565b60006040518083038186803b1580156108c657600080fd5b505af41580156108da573d6000803e3d6000fd5b5050505050505050505050565b6108ef613f9c565b6108f983836112f0565b9392505050565b60006108f98383611326565b61091d6109176110c9565b82611360565b50565b60608061072e84846113f4565b60006108f98383611411565b600061096d61096960017f6f55f470bdc9cb5f04223fd822021061668e4dccb43e8727b295106dc9769c8b614ea5565b5490565b905090565b73__$e606fdba99c76896c5b0fb8e6ab34e72a7$__633612fdc76109946112d8565b868686866040518663ffffffff1660e01b81526004016109b8959493929190614eb8565b60006040518083038186803b1580156109d057600080fd5b505af41580156109e4573d6000803e3d6000fd5b505050505b50505050565b61091d6109fa61144c565b610a026110c9565b610a0a611470565b84611492565b600061096d61096960017f812a673dfca07956350df10f8a654925f561d7a0da09bdbe79e653939a14d9f1614ea5565b333014610a925760405162461bcd60e51b815260206004820152601b60248201527a24b731b932b0b9b2903932bb34b9b4b7b7103337b93134b23232b760291b60448201526064015b60405180910390fd5b6000610ab06109696001600080516020615d9d833981519152614ea5565b610abb906001614efc565b9050610add81610ada6001600080516020615d9d833981519152614ea5565b55565b610b0c82610ada60017fbfaaa2fb63266ff27c2da975f5894955056f50419af651a81f6c5060581857e4614ea5565b604080518281526001600160a01b03841660208201527ff27e2ef832a4eb8ed8ec553b875eecd44764cda95b1c24170e281539e0a869c891015b60405180910390a15050565b610b5a613f74565b610745826116dd565b60006001600160a01b03821673d8253782c45a12053594b9deb72d8e8ab2fca54c1480610bac57506001600160a01b0382167352ceba41da235af367bfc0b0ccd3314cb901bb5f145b8061074557506001600160a01b03821673102f1f556cd9c3d5f820e6920a8931657c5da21b1492915050565b600061096d61175a565b73__$e606fdba99c76896c5b0fb8e6ab34e72a7$__63551c0c38610c0461177f565b610c0c6112d8565b8b8b8b8b8b8b8b8b6040518b63ffffffff1660e01b8152600401610c399a99989796959493929190614f91565b60006040518083038186803b158015610c5157600080fd5b505af4158015610c65573d6000803e3d6000fd5b505050505050505050505050565b604051633a00f6dd60e11b815260009073__$e606fdba99c76896c5b0fb8e6ab34e72a7$__90637401edba90610caf908690869060040161484d565b602060405180830381865af4158015610ccc573d6000803e3d6000fd5b505050506040513d601f19601f820116820180604052508101906108f99190615048565b600061096d6109696001600080516020615d9d833981519152614ea5565b610d16613fbe565b610745826117c5565b6060610745826117fa565b73__$e606fdba99c76896c5b0fb8e6ab34e72a7$__6328fc75ed610c0461177f565b60006108f983836118b0565b600061096d61096960017fbfaaa2fb63266ff27c2da975f5894955056f50419af651a81f6c5060581857e4614ea5565b73__$5d7d7fdc526783c3dd309d9389950d9fea$__63c1336c97610daa6110c9565b610db2611470565b6040516001600160e01b031960e085901b1681526001600160a01b039283166004820152908216602482015290851660448201526064810184905260840160006040518083038186803b158015610e0857600080fd5b505af415801561085a573d6000803e3d6000fd5b73__$5d7d7fdc526783c3dd309d9389950d9fea$__63bc02a318610e3e61177f565b610e466110c9565b87878787610e5261175a565b6040518863ffffffff1660e01b81526004016109b89796959493929190615079565b60008061072e84846118e9565b6000610e8b6110c9565b6001600160a01b0316826001600160a01b0316149050919050565b6109e9610eb161177f565b610eb96112d8565b6040518060400160405280886001600160a01b03168152602001878152508585611927565b73__$e606fdba99c76896c5b0fb8e6ab34e72a7$__63d85604a8610f0061177f565b610f086112d8565b8686866040518663ffffffff1660e01b8152600401610f2b9594939291906150d1565b60006040518083038186803b158015610f4357600080fd5b505af4158015610f57573d6000803e3d6000fd5b50505050505050565b6000610f7d610f6d61177f565b610f756112d8565b868686611a4b565b949350505050565b610f8d61400f565b61074582611c69565b610f9e61400f565b6108f98383611c9e565b610fcb610fb361144c565b610fbb6110c9565b610fc3611470565b868686611cd4565b505050565b6109e9610fdb61177f565b610fe36112d8565b86868686611da4565b610ff4614038565b61074582611dd4565b611005613f74565b61074582611e09565b6000816001600160a01b03166110226110c9565b6001600160a01b0316635aa6e6756040518163ffffffff1660e01b8152600401602060405180830381865afa15801561105f573d6000803e3d6000fd5b505050506040513d601f19601f820116820180604052508101906110839190615115565b6001600160a01b03161492915050565b60008061109f83611e86565b91509150915091565b60608061109f83611eba565b60006108f96110c16110c9565b338585611f32565b600061096d61096960017f5165972ef41194f06c5007493031d0b927c20741adcb74403b954009fd2c3618614ea5565b600061096d611fbc565b61112561110e61144c565b6111166110c9565b61111e611470565b8585611fce565b5050565b6111256111346110c9565b8383612322565b60608061072e8484612338565b610fcb61115361177f565b61115b6112d8565b8585856000612355565b60608061072e61117361144c565b600d016000611182878761241d565b81526020019081526020016000208054806020026020016040519081016040528092919081815260200182805480156111da57602002820191906000526020600020905b8154815260200190600101908083116111c6575b505050505061246d565b60006111ee61144c565b6001600160a01b03909216600090815260109290920160205250604090205490565b611218613f74565b61074561122361144c565b6001600160a01b038416600090815260089190910160209081526040918290208054835181840281018401909452808452909183018282801561128557602002820191906000526020600020905b815481526020019060010190808311611271575b505050505061275e565b60006107458261129d61144c565b90612975565b7ff0c57e16840df040f15088dc2f81fe391c3923bec73e23a9662efc9c229c6a0090565b6112cf612981565b61091d816129a8565b6112e0614066565b61096d6112eb6110c9565b612ac7565b6112f8613f9c565b6108f961130361144c565b600a016000611312868661241d565b815260200190815260200160002054612adf565b600061133061144c565b60140160006113486001600160a01b0386168561241d565b81526020810191909152604001600020549392505050565b61136a8233612b48565b600061137461175a565b6001600160a01b03161461139a5760405162dc149f60e41b815260040160405180910390fd5b806001600160a01b03166113ac61144c565b601201600060018152602001908152602001600020819055507f779c4000402376f0940de741d7a073932441ae45ea274e2e3c49c20a347e466c81604051610b469190614385565b60608061072e61140261144c565b600e016000611182878761241d565b60008061141c61144c565b600b0160006114346001600160a01b0387168661241d565b81526020019081526020016000205414905092915050565b7fe78a2879cd91c3f7b62ea14e72546fed47c40919bca4daada532a5fa05ac670090565b600061147b33610b63565b1561148d575060131936013560601c90565b503390565b61149c8383612b48565b6001600160a01b03811660009081526002850160205260408120546114c090612bd4565b90506114cc8583612be5565b6114e95760405163ad5679e160e01b815260040160405180910390fd5b6114f38583612c07565b506001600160a01b0382166000908152600286016020526040812055600c8160400151600d8111156115275761152761443a565b0361158b576001600160a01b0382166000908152601386016020526040812061154f91614089565b7fdd0142e38cca2beb5cf6e6de5ab21d05d75c6f9734f8bf6d4c7e2bba1ed1952c8260405161157e9190614385565b60405180910390a16116d6565b6001600160a01b038216600090815260038601602090815260408083208390556004880190915281206115bd916140c3565b6001600160a01b038216600090815260058601602052604081206115e0916140c3565b6001600160a01b03821660009081526006860160209081526040808320839055600788019091528120611612916140c3565b6001600160a01b03821660009081526008860160205260408120611635916140c3565b6001600160a01b03821660008181526009870160205260408120819055600f870191611661908261241d565b815260200190815260200160002060009055846010016000836001600160a01b03166001600160a01b03168152602001908152602001600020600090557ff4bab09e0bfc491adb818cac1805d51def9f0ec39825ffb0e42aeaa46494efce826040516116cd9190614385565b60405180910390a15b5050505050565b6116e5613f74565b6107456116f061144c565b6001600160a01b0384166000908152600791909101602090815260409182902080548351818402810184019094528084529091830182828015611285576020028201919060005260206000209081548152602001906001019080831161127157505050505061275e565b600061176461144c565b60120160006001815260200190815260200160002054905090565b604080518082019091526000808252602082015260405180604001604052806117a6611470565b6001600160a01b031681526020016117bc612c1c565b15159052919050565b6117cd613fbe565b6107456117d861144c565b6001600160a01b03841660009081526002919091016020526040902054612bd4565b606061180461144c565b6001600160a01b038316600090815260139190910160205260409020805461182b90615132565b80601f016020809104026020016040519081016040528092919081815260200182805461185790615132565b80156118a45780601f10611879576101008083540402835291602001916118a4565b820191906000526020600020905b81548152906001019060200180831161188757829003601f168201915b50505050509050919050565b60006118ba61144c565b60110160006118d26001600160a01b0386168561241d565b815260200190815260200160002054905092915050565b60008061072e6118f761144c565b600b01600061190f6001600160a01b0388168761241d565b8152602001908152602001600020549060a082901c90565b6040516313aa4c4b60e11b815260009073__$e606fdba99c76896c5b0fb8e6ab34e72a7$__90632754989690611969908990899089908990899060040161516c565b602060405180830381865af4158015611986573d6000803e3d6000fd5b505050506040513d601f19601f820116820180604052508101906119aa9190615048565b9050801561085a5773__$5d7d7fdc526783c3dd309d9389950d9fea$__631d38f2e4826119d688612c34565b6040516001600160e01b031960e085901b16815260048101929092526001600160a01b039081166024830152861660448201526064810185905260840160006040518083038186803b158015611a2b57600080fd5b505af4158015611a3f573d6000803e3d6000fd5b50505050505050505050565b6000611a5a8660200151612c53565b6000611a6461175a565b90506001600160a01b038116611a8d576040516321c4e35760e21b815260040160405180910390fd5b8651604051631e989e6760e31b81526000916001600160a01b0384169163f4c4f33891611ac2918a908a908a9060040161526d565b602060405180830381865afa158015611adf573d6000803e3d6000fd5b505050506040513d601f19601f82011682018060405250810190611b039190615115565b855190915060005b81811015611b97576000868281518110611b2757611b276152b1565b6020026020010151905060008151905060005b81811015611b8957611b818c8b8681518110611b5857611b586152b1565b6020026020010151858481518110611b7257611b726152b1565b60200260200101516000612c73565b600101611b3a565b505050806001019050611b0b565b508751895160405163d2f5219f60e01b815273__$5d7d7fdc526783c3dd309d9389950d9fea$__9263d2f5219f92611bd592309188916004016152c7565b602060405180830381865af4158015611bf2573d6000803e3d6000fd5b505050506040513d601f19601f82011682018060405250810190611c169190615048565b93507f3c5fa252a5124726730463dfe8fc3e10b29548b5f3f3a31c53b07aec731706dd89600001518888888689604051611c55969594939291906152f2565b60405180910390a150505095945050505050565b611c7161400f565b610745611c7c61144c565b6001600160a01b03841660009081526009919091016020526040902054612d80565b611ca661400f565b6108f9611cb161144c565b600f016000611cc0868661241d565b815260200190815260200160002054612d80565b611cde8585612b48565b600c8260400151600d811115611cf657611cf661443a565b14611d1457604051635542eeb760e01b815260040160405180910390fd5b815160ff1615611d37576040516325c9833f60e11b815260040160405180910390fd5b611d42868385612e2c565b611d4b81612f2a565b506001600160a01b03831660009081526013870160205260409020611d70828261538b565b507f25b0489bea47365dfede6d28e8a2db637428822b861356ad5aeb93ef7ed8058b8383836040516108519392919061544a565b61085a868684848888604051602001611dbe92919061484d565b6040516020818303038152906040526001612355565b611ddc614038565b610745611de761144c565b6001600160a01b03841660009081526006919091016020526040902054612f7f565b611e11613f74565b610745611e1c61144c565b6001600160a01b0384166000908152600491909101602090815260409182902080548351818402810184019094528084529091830182828015611285576020028201919060005260206000209081548152602001906001019080831161127157505050505061275e565b60008061109f611e9461144c565b6001600160a01b038516600090815260039190910160205260409020549060a082901c90565b60608061109f611ec861144c565b6001600160a01b03851660009081526005919091016020908152604091829020805483518184028101840190945280845290918301828280156111da57602002820191906000526020600020908154815260200190600101908083116111c657505050505061246d565b60405163d2f5219f60e01b815260009073__$5d7d7fdc526783c3dd309d9389950d9fea$__9063d2f5219f90611f729088908890889088906004016152c7565b602060405180830381865af4158015611f8f573d6000803e3d6000fd5b505050506040513d601f19601f82011682018060405250810190611fb39190615048565b95945050505050565b600061096d611fc961144c565b613063565b611fd88484612b48565b611fe5602082018261547b565b60ff166000036120075760405162a2622f60e41b815260040160405180910390fd5b600c6120196060830160408401615496565b600d81111561202a5761202a61443a565b0361204857604051635542eeb760e01b815260040160405180910390fd5b6120618561205b368490038401846154b1565b84612e2c565b6120816120766101a083016101808401614272565b826101a0013561306d565b6001600160a01b03831660009081526003870160205260409020556120c0826120ae6101c08401846154ce565b6120b790615620565b876004016130ba565b60046120cf602083018361547b565b60ff16036121e15761217a6120e86101e08301836156d6565b6120f290806156ec565b80806020026020016040519081016040528093929190818152602001838360200280828437600092019190915250612132925050506101e08401846156d6565b6121409060208101906156ec565b80806020026020016040519081016040528093929190818152602001838360200280828437600092019190915250929392505061325e9050565b6001600160a01b0383166000908152600587016020908152604090912082516121a993919291909101906140e1565b506121c56121c03683900383016102008401615735565b6134bc565b6001600160a01b03831660009081526006870160205260409020555b60036121f0602083018361547b565b60ff16036122405761221c8261220a6102a08401846154ce565b61221390615620565b876007016130ba565b6122408261222e6102c08401846154ce565b61223790615620565b876008016130ba565b600261224f602083018361547b565b60ff16036122ce5761227261226d3683900383016102e084016157d1565b6135e5565b6001600160a01b03831660009081526009870160205260409020556122a361226d3683900383016102e084016157d1565b600f860160006122bc6001600160a01b0386168261241d565b81526020810191909152604001600020555b6001600160a01b0382166000908152601086016020526040908190206103c08301359055517f1d81d20f6fdfede8241992b5f81e672c3a6811fc8ff0a8e4bc8165b2a4020514906116cd9084908490615b8d565b61232b83613677565b610fcb82826103e861370a565b60608061072e61234661144c565b600c016000611182878761241d565b61236386866000015161379d565b600073__$17b4ec7554f19047a645b9cd29ce74d816$__6395b8a1a861238761144c565b88518a516040805180820182526001600160a01b038c168152602081018b905290516001600160e01b031960e087901b1681526123ce94939291908a908a90600401615cbe565b602060405180830381865af41580156123eb573d6000803e3d6000fd5b505050506040513d601f19601f8201168201806040525081019061240f9190615d17565b9050610f5786868684612c73565b60006001600160401b0382111561244a57604051633995b34160e01b815260048101839052602401610a89565b5067ffffffffffffffff60a01b60a09190911b166001600160a01b039091161790565b805160609081906000612481826008615d34565b90506000816001600160401b0381111561249d5761249d61472c565b6040519080825280602002602001820160405280156124c6578160200160208202803683370190505b5090506000826001600160401b038111156124e3576124e361472c565b60405190808252806020026020018201604052801561250c578160200160208202803683370190505b5090506000805b858110156126395760005b600881101561263057600081612535846008615d34565b61253f9190614efc565b905061254c826020615d34565b8b848151811061255e5761255e6152b1565b602002602001015160001c901c60020b868281518110612580576125806152b1565b60039290920b60209283029190910182015261259d908390615d34565b6125a8906018614efc565b8b84815181106125ba576125ba6152b1565b602002602001015160001c901c8582815181106125d9576125d96152b1565b602002602001019060ff16908160ff16815250508581815181106125ff576125ff6152b1565b602002602001015160030b6000036126175750612630565b8361262181615d4b565b9450505080600101905061251e565b50600101612513565b50806001600160401b038111156126525761265261472c565b60405190808252806020026020018201604052801561267b578160200160208202803683370190505b509650806001600160401b038111156126965761269661472c565b6040519080825280602002602001820160405280156126bf578160200160208202803683370190505b50955060005b81811015612753578381815181106126df576126df6152b1565b60200260200101518882815181106126f9576126f96152b1565b602002602001019060030b908160030b8152505082818151811061271f5761271f6152b1565b6020026020010151878281518110612739576127396152b1565b60ff909216602092830291909101909101526001016126c5565b505050505050915091565b612766613f74565b81516000816001600160401b038111156127825761278261472c565b6040519080825280602002602001820160405280156127ab578160200160208202803683370190505b5090506000826001600160401b038111156127c8576127c861472c565b6040519080825280602002602001820160405280156127f1578160200160208202803683370190505b5090506000836001600160401b0381111561280e5761280e61472c565b604051908082528060200260200182016040528015612837578160200160208202803683370190505b5090506000846001600160401b038111156128545761285461472c565b60405190808252806020026020018201604052801561287d578160200160208202803683370190505b50905060005b8581101561294f576128bd8882815181106128a0576128a06152b1565b602002602001015190600882901c90602883901c90604884901c90565b8885815181106128cf576128cf6152b1565b602002602001018886815181106128e8576128e86152b1565b60200260200101888781518110612901576129016152b1565b6020026020010188888151811061291a5761291a6152b1565b63ffffffff90951660209586029190910190940193909352600393840b9092529290910b905260ff9091169052600101612883565b506040805160808101825294855260208501939093529183015260608201529392505050565b60006108f9838361382a565b612989613854565b6129a657604051631afcd79f60e31b815260040160405180910390fd5b565b6001600160a01b0381166129f05760405162461bcd60e51b815260206004820152600f60248201526e2d32b9379031b7b73a3937b63632b960891b6044820152606401610a89565b612a1f81610ada60017f5165972ef41194f06c5007493031d0b927c20741adcb74403b954009fd2c3618614ea5565b612a4e42610ada60017f6f55f470bdc9cb5f04223fd822021061668e4dccb43e8727b295106dc9769c8b614ea5565b612a7d43610ada60017f812a673dfca07956350df10f8a654925f561d7a0da09bdbe79e653939a14d9f1614ea5565b604080516001600160a01b0383168152426020820152438183015290517f1a2dd071001ebf6e03174e3df5b305795a4ad5d41d8fdb9ba41dbbe2367134269181900360600190a150565b612acf614066565b6001600160a01b03909116815290565b612ae7613f9c565b61ffff601083901c16604082015260ff600883901c81166020830152829081166006811115612b1857612b1861443a565b82906006811115612b2b57612b2b61443a565b90816006811115612b3e57612b3e61443a565b8152505050919050565b604051631430d62960e21b81526001600160a01b038316906350c358a490612b74908490600401614385565b602060405180830381865afa158015612b91573d6000803e3d6000fd5b505050506040513d601f19601f82011682018060405250810190612bb59190615d17565b611125578060405163451cea1760e11b8152600401610a899190614385565b612bdc613fbe565b6107458261386e565b6001600160a01b038116600090815260018301602052604081205415156108f9565b60006108f9836001600160a01b03841661396c565b6000612c2733610b63565b8061096d57505032331490565b600061074582600084600001516001600160a01b0316628e9691613a66565b8061091d57336040516377817ac360e01b8152600401610a899190614385565b8015612ce657612c8284613b72565b6001600160a01b0316638d85758c84846040518363ffffffff1660e01b8152600401612caf92919061484d565b600060405180830381600087803b158015612cc957600080fd5b505af1158015612cdd573d6000803e3d6000fd5b50505050612d41565b604051630852cd8d60e31b8152600481018390526001600160a01b038416906342966c6890602401600060405180830381600087803b158015612d2857600080fd5b505af1158015612d3c573d6000803e3d6000fd5b505050505b7f789ec66f21698ed1b990c0a8a8be99cf6f5fb8eb3826ee4ee9384870e8db25b18383604051612d7292919061484d565b60405180910390a150505050565b612d8861400f565b612d9061412c565b60a883901c600390810b6060830152608884901c810b604080840191909152606885901c820b602080850191909152604886901c830b8452602886901c830b91850191909152600885901c90910b908301528260ff81166005811115612df857612df861443a565b83906005811115612e0b57612e0b61443a565b90816005811115612e1e57612e1e61443a565b905250506060820152919050565b816020015160ff16600003612e5457604051631e1c984560e31b815260040160405180910390fd5b612e5e8382613b92565b612efd576001600160a01b0381166000908152600284016020526040812054612e8690612bd4565b90508260400151600d811115612e9e57612e9e61443a565b8160400151600d811115612eb457612eb461443a565b14612ed257604051632d5a77ad60e11b815260040160405180910390fd5b8251815160ff908116911614612efb5760405163d300ee6760e01b815260040160405180910390fd5b505b612f0682613ba7565b6001600160a01b039091166000908152600290930160205260409092209190915550565b60208101516000908060ff81161580612f475750600660ff821610155b15612f6a57604051637d2f2ac960e01b815260ff82166004820152602401610a89565b8060ff166006811115610f7d57610f7d61443a565b612f87614038565b6000612f9283613cad565b90506040518060a0016040528082600081518110612fb257612fb26152b1565b602002602001015163ffffffff16815260200182600181518110612fd857612fd86152b1565b602002602001015163ffffffff16815260200182600281518110612ffe57612ffe6152b1565b602002602001015163ffffffff16815260200182600381518110613024576130246152b1565b602002602001015163ffffffff1681526020018260048151811061304a5761304a6152b1565b602002602001015163ffffffff16815250915050919050565b6000610745825490565b60006001600160601b0382111561309a57604051633995b34160e01b815260048101839052602401610a89565b506001600160a01b031960a09190911b166001600160a01b039091161790565b60005b82515181101561322957826020015181815181106130dd576130dd6152b1565b602002602001015160030b60001480613116575082604001518181518110613107576131076152b1565b602002602001015160030b6000145b80613160575082604001518181518110613132576131326152b1565b602002602001015160030b83602001518281518110613153576131536152b1565b602002602001015160030b135b806131b6575060008360200151828151811061317e5761317e6152b1565b602002602001015160030b1280156131b657506000836040015182815181106131a9576131a96152b1565b602002602001015160030b135b1561322157826020015181815181106131d1576131d16152b1565b6020026020010151836040015182815181106131ef576131ef6152b1565b602002602001015160405163afeec43960e01b8152600401610a89929190600392830b8152910b602082015260400190565b6001016130bd565b5061323382613d22565b6001600160a01b03841660009081526020838152604090912082516109e993919291909101906140e1565b606081518351146132825760405163586cb9e160e01b815260040160405180910390fd5b6000600884516132929190615d64565b61329d906001614efc565b90506000816001600160401b038111156132b9576132b961472c565b6040519080825280602002602001820160405280156132e2578160200160208202803683370190505b50905060005b828110156134b35760005b60088110156134aa5760008161330a846008615d34565b6133149190614efc565b90508751811061332457506134aa565b627fffff60020b88828151811061333d5761333d6152b1565b602002602001015160030b13806133765750627fffff1960020b888281518110613369576133696152b1565b602002602001015160030b125b156133b45787818151811061338d5761338d6152b1565b602002602001015160030b604051632eb1d06960e01b8152600401610a8991815260200190565b8781815181106133c6576133c66152b1565b602002602001015160030b6000036133f157604051637c946ed760e01b815260040160405180910390fd5b6133fc826020615d34565b88828151811061340e5761340e6152b1565b602002602001015162ffffff1660001b901b848481518110613432576134326152b1565b6020026020010181815117915081815250508160206134519190615d34565b61345c906018614efc565b87828151811061346e5761346e6152b1565b602002602001015160ff1660001b901b848481518110613490576134906152b1565b6020908102919091010180519091179052506001016132f3565b506001016132e8565b50949350505050565b60408051600580825260c082019092526000918291906020820160a0803683370190505090508260000151816000815181106134fa576134fa6152b1565b602002602001019063ffffffff16908163ffffffff168152505082602001518160018151811061352c5761352c6152b1565b602002602001019063ffffffff16908163ffffffff168152505082604001518160028151811061355e5761355e6152b1565b602002602001019063ffffffff16908163ffffffff1681525050826060015181600381518110613590576135906152b1565b602002602001019063ffffffff16908163ffffffff16815250508260800151816004815181106135c2576135c26152b1565b602002602001019063ffffffff16908163ffffffff16815250506108f981613ea3565b6000610745826000015160058111156136005761360061443a565b6020848101516040808701516060808901518051958101519381015191015160ff9690961660089490941b64ffffffff00169390931760289190911b63ffffffff60281b161760489390931b600c0b9290921760689290921b60100b9190911760889190911b60140b1760a89190911b60180b1790565b806001600160a01b031663524a562f6040518163ffffffff1660e01b8152600401602060405180830381865afa1580156136b5573d6000803e3d6000fd5b505050506040513d601f19601f820116820180604052508101906136d99190615115565b6001600160a01b0316336001600160a01b03161461091d576040516317398d4d60e11b815260040160405180910390fd5b600061371461144c565b601101600061372c6001600160a01b0387168661241d565b8152602001908152602001600020549050620186a0828261374d9190614efc565b116137615761375c8282614efc565b613766565b620186a05b61376e61144c565b60110160006137866001600160a01b0388168761241d565b815260208101919091526040016000205550505050565b6137aa8260200151612c53565b806001600160a01b03166318d928316040518163ffffffff1660e01b8152600401602060405180830381865afa1580156137e8573d6000803e3d6000fd5b505050506040513d601f19601f8201168201806040525081019061380c9190615d17565b1561112557604051635e1633d360e11b815260040160405180910390fd5b6000826000018281548110613841576138416152b1565b9060005260206000200154905092915050565b600061385e6112a3565b54600160401b900460ff16919050565b613876613fbe565b61387e613fbe565b60ff8084168252600884901c81166020830152601084901c16600d8111156138a8576138a861443a565b8160400190600d8111156138be576138be61443a565b9081600d8111156138d1576138d161443a565b905250601883901c61ffff16606082810191909152602884901c60ff908116608080850191909152603086901c821660c080860191909152603887901c90921660e0850152604086811c63ffffffff1660a0808701919091526101008601805189871c600390810b9091528151948a901c810b6020959095019490945280519189901c840b9190920152519590911c900b9301929092525090565b60008181526001830160205260408120548015613a55576000613990600183614ea5565b85549091506000906139a490600190614ea5565b9050808214613a095760008660000182815481106139c4576139c46152b1565b90600052602060002001549050808760000184815481106139e7576139e76152b1565b6000918252602080832090910192909255918252600188019052604090208390555b8554869080613a1a57613a1a615d86565b600190038181906000526020600020016000905590558560010160008681526020019081526020016000206000905560019350505050610745565b6000915050610745565b5092915050565b600080856020015185600e811115613a8057613a8061443a565b600f8110613a9057613a906152b1565b602002015190506001600160a01b03811615613aad579050610f7d565b83836040518163ffffffff1660e01b8152600401602060405180830381865afa158015613ade573d6000803e3d6000fd5b505050506040513d601f19601f82011682018060405250810190613b029190615115565b866020015186600e811115613b1957613b1961443a565b600f8110613b2957613b296152b1565b6001600160a01b039092166020928302919091015286015185600e811115613b5357613b5361443a565b600f8110613b6357613b636152b1565b60200201519695505050505050565b600061074582600e84600001516001600160a01b0316630139009f613a66565b60006108f9836001600160a01b038416613f25565b6000610745826000015183602001518460400151600d811115613bcc57613bcc61443a565b856060015186608001518760c001518860e001518960a001518a61010001518051602082015160408381015160609485015160c01b601b0b60a09190911b60170b60809390931b60130b9390941b600f0b63ffffffff60401b9590911b9490941660ff60381b60389690961b9590951660ff60301b60309790971b9690961660ff60281b60289890981b9790971664ffff00000060189990991b9890981662ff000060109a909a1b9990991661ff0060089b909b1b9a909a1660ff909b169a909a179890981796909617949094179290921717171791909117919091171790565b604080516008808252610120820190925260609160009190602082016101008036833701905050905060005b6008811015613a5f57613ced816020615d34565b8460001c901c828281518110613d0557613d056152b1565b63ffffffff90921660209283029190910190910152600101613cd9565b8051516020820151516060919081141580613d4257508260400151518114155b80613d5257508260600151518114155b15613d705760405163586cb9e160e01b815260040160405180910390fd5b806001600160401b03811115613d8857613d8861472c565b604051908082528060200260200182016040528015613db1578160200160208202803683370190505b50915060005b81811015613e9c57613e7784600001518281518110613dd857613dd86152b1565b602002602001015185602001518381518110613df657613df66152b1565b602002602001015186604001518481518110613e1457613e146152b1565b602002602001015187606001518581518110613e3257613e326152b1565b602090810291909101015160ff9390931660089290921b64ffffffff00169190911760289190911b63ffffffff60281b161760489190911b63ffffffff60481b161790565b838281518110613e8957613e896152b1565b6020908102919091010152600101613db7565b5050919050565b80516000906008811115613ed457604051633d71388b60e21b81526004810182905260086024820152604401610a89565b6000805b82811015613f1d57613eeb816020615d34565b858281518110613efd57613efd6152b1565b602090810291909101015163ffffffff16901b9190911790600101613ed8565b509392505050565b6000818152600183016020526040812054613f6c57508154600181810184556000848152602080822090930184905584548482528286019093526040902091909155610745565b506000610745565b6040518060800160405280606081526020016060815260200160608152602001606081525090565b6040805160608101909152806000815260006020820181905260409091015290565b60408051610120810182526000808252602082018190529091820190815260006020820181905260408201819052606082018190526080820181905260a082015260c00161400a61412c565b905290565b60408051608081019091528060008152600060208201819052604082015260600161400a61412c565b6040805160a08101825260008082526020820181905291810182905260608101829052608081019190915290565b604051806040016040528060006001600160a01b0316815260200161400a614153565b50805461409590615132565b6000825580601f106140a5575050565b601f01602090049060005260206000209081019061091d9190614172565b508054600082559060005260206000209081019061091d9190614172565b82805482825590600052602060002090810192821561411c579160200282015b8281111561411c578251825591602001919060010190614101565b50614128929150614172565b5090565b60408051608081018252600080825260208201819052918101829052606081019190915290565b604051806101e00160405280600f906020820280368337509192915050565b5b808211156141285760008155600101614173565b6001600160a01b038116811461091d57600080fd5b80356141a781614187565b919050565b600080604083850312156141bf57600080fd5b82356141ca81614187565b946020939093013593505050565b60008151808452602080850194506020840160005b8381101561420c57815160ff16875295820195908201906001016141ed565b509495945050505050565b604080825283519082018190526000906020906060840190828701845b8281101561425357815160030b84529284019290840190600101614234565b505050838103602085015261426881866141d8565b9695505050505050565b60006020828403121561428457600080fd5b81356108f981614187565b60008151808452602080850194506020840160005b8381101561420c57815160030b875295820195908201906001016142a4565b6000602080835283516080828501526142df60a08501826141d8565b905081850151601f19808684030160408701526142fc838361428f565b92506040870151915080868403016060870152614319838361428f565b6060880151878203909201608088015281518082529185019350600092508401905b8083101561436157835163ffffffff16825292840192600192909201919084019061433b565b509695505050505050565b60006020828403121561437e57600080fd5b5035919050565b6001600160a01b0391909116815260200190565b803560ff811681146141a757600080fd5b801515811461091d57600080fd5b600080600080600080600060e0888a0312156143d357600080fd5b87356143de81614187565b96506020880135955060408801356143f581614187565b94506060880135935061440a60808901614399565b925060a088013561441a81614187565b915060c088013561442a816143aa565b8091505092959891949750929550565b634e487b7160e01b600052602160045260246000fd5b6007811061091d5761091d61443a565b8151606082019061447081614450565b8083525060ff602084015116602083015261ffff604084015116604083015292915050565b600080600080608085870312156144ab57600080fd5b84356144b681614187565b9350602085013592506144cb60408601614399565b915060608501356144db816143aa565b939692955090935050565b60008083601f8401126144f857600080fd5b5081356001600160401b0381111561450f57600080fd5b6020830191508360208260051b850101111561073357600080fd5b60008060008060008060008060a0898b03121561454657600080fd5b883561455181614187565b97506020890135965060408901356001600160401b038082111561457457600080fd5b6145808c838d016144e6565b909850965060608b013591508082111561459957600080fd5b6145a58c838d016144e6565b909650945060808b01359150808211156145be57600080fd5b506145cb8b828c016144e6565b999c989b5096995094979396929594505050565b600e81106145ef576145ef61443a565b9052565b805160030b8252602081015160030b6020830152604081015160030b6040830152606081015160030b60608301525050565b60ff815116825260ff6020820151166020830152604081015161464b60408401826145df565b5061ffff6060820151166060830152608081015161466e608084018260ff169052565b5060a081015161468660a084018263ffffffff169052565b5060c081015161469b60c084018260ff169052565b5060e08101516146b060e084018260ff169052565b50610100808201516109e9828501826145f3565b61018081016107458284614625565b6000815180845260005b818110156146f9576020818501810151868301820152016146dd565b506000602082860101526020601f19601f83011685010191505092915050565b6020815260006108f960208301846146d3565b634e487b7160e01b600052604160045260246000fd5b604051608081016001600160401b03811182821017156147645761476461472c565b60405290565b60405161012081016001600160401b03811182821017156147645761476461472c565b604051601f8201601f191681016001600160401b03811182821017156147b5576147b561472c565b604052919050565b60008060008084860360a08112156147d457600080fd5b85356147df81614187565b9450602086013593506040808701359350605f198201121561480057600080fd5b50604051604081018181106001600160401b03821117156148235761482361472c565b604052606086013561483481614187565b8152608095909501356020860152509194909350909190565b6001600160a01b03929092168252602082015260400190565b6000806000806080858703121561487c57600080fd5b843561488781614187565b935060208501359250604085013561489e81614187565b9396929550929360600135925050565b6000806000606084860312156148c357600080fd5b83356148ce81614187565b95602085013595506040909401359392505050565b60006001600160401b038211156148fc576148fc61472c565b5060051b60200190565b600082601f83011261491757600080fd5b8135602061492c614927836148e3565b61478d565b828152600592831b850182019282820191908785111561494b57600080fd5b8387015b858110156149de5780356001600160401b0381111561496e5760008081fd5b8801603f81018a136149805760008081fd5b858101356040614992614927836148e3565b82815291851b8301810191888101908d8411156149af5760008081fd5b938201935b838510156149cd578435825293890193908901906149b4565b88525050509385019350840161494f565b5090979650505050505050565b600080600060608486031215614a0057600080fd5b833592506020808501356001600160401b0380821115614a1f57600080fd5b818701915087601f830112614a3357600080fd5b8135614a41614927826148e3565b81815260059190911b8301840190848101908a831115614a6057600080fd5b938501935b82851015614a87578435614a7881614187565b82529385019390850190614a65565b965050506040870135925080831115614a9f57600080fd5b5050614aad86828701614906565b9150509250925092565b600681106145ef576145ef61443a565b600060e082019050614ada828451614ab7565b602083015160030b6020830152604083015160030b60408301526060830151613a5f60608401826145f3565b8035600e81106141a757600080fd5b803561ffff811681146141a757600080fd5b803563ffffffff811681146141a757600080fd5b8035600381900b81146141a757600080fd5b600060808284031215614b5f57600080fd5b614b67614742565b9050614b7282614b3b565b8152614b8060208301614b3b565b6020820152614b9160408301614b3b565b6040820152614ba260608301614b3b565b606082015292915050565b60006101808284031215614bc057600080fd5b614bc861476a565b9050614bd382614399565b8152614be160208301614399565b6020820152614bf260408301614b06565b6040820152614c0360608301614b15565b6060820152614c1460808301614399565b6080820152614c2560a08301614b27565b60a0820152614c3660c08301614399565b60c0820152614c4760e08301614399565b60e0820152610100614c5b84828501614b4d565b9082015292915050565b600082601f830112614c7657600080fd5b81356001600160401b03811115614c8f57614c8f61472c565b614ca2601f8201601f191660200161478d565b818152846020838601011115614cb757600080fd5b816020850160208301376000918101602001919091529392505050565b60008060006101c08486031215614cea57600080fd5b8335614cf581614187565b9250614d048560208601614bad565b91506101a08401356001600160401b03811115614d2057600080fd5b614aad86828701614c65565b60008060408385031215614d3f57600080fd5b8235614d4a81614187565b91506020830135614d5a81614187565b809150509250929050565b60008060408385031215614d7857600080fd5b8235614d8381614187565b915060208301356001600160401b03811115614d9e57600080fd5b83016103e08186031215614d5a57600080fd5b600080600060608486031215614dc657600080fd5b8335614dd181614187565b92506020840135915060408401356001600160401b03811115614d2057600080fd5b80516001600160a01b03908116835260208083015181850160005b600f811015610f57578251851682529183019190830190600101614e0e565b6102e08101614e3c828b614df3565b6001600160a01b0398891661020083015261022082019790975294871661024086015261026085019390935260ff919091166102808401529093166102a08201529115156102c090920191909152919050565b634e487b7160e01b600052601160045260246000fd5b8181038181111561074557610745614e8f565b6102808101614ec78288614df3565b6001600160a01b039590951661020082015261022081019390935260ff91909116610240830152151561026090910152919050565b8082018082111561074557610745614e8f565b80516001600160a01b031682526020908101511515910152565b81835260006001600160fb1b03831115614f4257600080fd5b8260051b80836020870137939093016020019392505050565b8183526000602080850194508260005b8581101561420c5760ff614f7e83614399565b1687529582019590820190600101614f6b565b60006102e0808301614fa3848f614f0f565b614fb0604085018e614df3565b6001600160a01b038c811661024086015261026085018c9052610280850192909252889052610300830190899060005b8a81101561500a578235614ff381614187565b821684526020938401939290920191600101614fe0565b5050508281036102a0840152615021818789614f29565b90508281036102c0840152615037818587614f5b565b9d9c50505050505050505050505050565b60006020828403121561505a57600080fd5b5051919050565b80516001600160a01b03168252602090810151910152565b6101208101615088828a614f0f565b6001600160a01b03888116604084015287811660608401526080830187905260a083018690526150bb60c0840186615061565b8084166101008401525098975050505050505050565b6102a081016150e08288614f0f565b6150ed6040830187614df3565b6001600160a01b03949094166102408201526102608101929092526102809091015292915050565b60006020828403121561512757600080fd5b81516108f981614187565b600181811c9082168061514657607f821691505b60208210810361516657634e487b7160e01b600052602260045260246000fd5b50919050565b6102c0810161517b8288614f0f565b6151886040830187614df3565b615196610240830186615061565b6001600160a01b03939093166102808201526102a001529392505050565b60008151808452602080850194506020840160005b8381101561420c5781516001600160a01b0316875295820195908201906001016151c9565b600082825180855260208086019550808260051b8401018186016000805b8581101561525f57868403601f19018a52825180518086529086019086860190845b8181101561524a5783518352928801929188019160010161522e565b50509a86019a9450509184019160010161520c565b509198975050505050505050565b60018060a01b038516815283602082015260806040820152600061529460808301856151b4565b82810360608401526152a681856151ee565b979650505050505050565b634e487b7160e01b600052603260045260246000fd5b6001600160a01b03948516815292841660208401529083166040830152909116606082015260800190565b600060018060a01b03808916835287602084015260c0604084015261531a60c08401886151b4565b838103606085015261532c81886151ee565b959091166080840152505060a00152949350505050565b601f821115610fcb576000816000526020600020601f850160051c8101602086101561536c5750805b601f850160051c820191505b8181101561085a57828155600101615378565b81516001600160401b038111156153a4576153a461472c565b6153b8816153b28454615132565b84615343565b602080601f8311600181146153ed57600084156153d55750858301515b600019600386901b1c1916600185901b17855561085a565b600085815260208120601f198616915b8281101561541c578886015182559484019460019091019084016153fd565b508582101561543a5787850151600019600388901b60f8161c191681555b5050505050600190811b01905550565b6001600160a01b038416815260006101c06154686020840186614625565b806101a0840152614268818401856146d3565b60006020828403121561548d57600080fd5b6108f982614399565b6000602082840312156154a857600080fd5b6108f982614b06565b600061018082840312156154c457600080fd5b6108f98383614bad565b60008235607e198336030181126154e457600080fd5b9190910192915050565b600082601f8301126154ff57600080fd5b8135602061550f614927836148e3565b8083825260208201915060208460051b87010193508684111561553157600080fd5b602086015b848110156143615761554781614399565b8352918301918301615536565b600082601f83011261556557600080fd5b81356020615575614927836148e3565b8083825260208201915060208460051b87010193508684111561559757600080fd5b602086015b84811015614361576155ad81614b3b565b835291830191830161559c565b600082601f8301126155cb57600080fd5b813560206155db614927836148e3565b8083825260208201915060208460051b8701019350868411156155fd57600080fd5b602086015b848110156143615761561381614b27565b8352918301918301615602565b60006080823603121561563257600080fd5b61563a614742565b82356001600160401b038082111561565157600080fd5b61565d368387016154ee565b8352602085013591508082111561567357600080fd5b61567f36838701615554565b6020840152604085013591508082111561569857600080fd5b6156a436838701615554565b604084015260608501359150808211156156bd57600080fd5b506156ca368286016155ba565b60608301525092915050565b60008235603e198336030181126154e457600080fd5b6000808335601e1984360301811261570357600080fd5b8301803591506001600160401b0382111561571d57600080fd5b6020019150600581901b360382131561073357600080fd5b600060a0828403121561574757600080fd5b60405160a081018181106001600160401b03821117156157695761576961472c565b60405261577583614b27565b815261578360208401614b27565b602082015261579460408401614b27565b60408201526157a560608401614b27565b60608201526157b660808401614b27565b60808201529392505050565b8035600681106141a757600080fd5b600060e082840312156157e357600080fd5b6157eb614742565b6157f4836157c2565b815261580260208401614b3b565b602082015261581360408401614b3b565b60408201526158258460608501614b4d565b60608201529392505050565b61583a81614b3b565b60030b825261584b60208201614b3b565b60030b602083015261585f60408201614b3b565b60030b604083015261587360608201614b3b565b60030b60608301525050565b60ff61588a82614399565b16825260ff61589b60208301614399565b1660208301526158ad60408201614b06565b6158ba60408401826145df565b5061ffff6158ca60608301614b15565b1660608301526158dc60808201614399565b60ff1660808301526158f060a08201614b27565b63ffffffff1660a083015261590760c08201614399565b60ff1660c083015261591b60e08201614399565b60ff1660e0830152610100610fcb818401838301615831565b60008235607e1983360301811261594a57600080fd5b90910192915050565b6000808335601e1984360301811261596a57600080fd5b83016020810192503590506001600160401b0381111561598957600080fd5b8060051b360382131561073357600080fd5b8183526000602080850194508260005b8581101561420c576159bc82614b3b565b60030b875295820195908201906001016159ab565b60006159dd8283615953565b608085526159ef608086018284614f5b565b9150506020615a016020850185615953565b8684036020880152615a1484828461599b565b93505050615a256040850185615953565b8684036040880152615a3884828461599b565b93505050615a496060850185615953565b86840360608801528084529092600091906020015b818310156152a65763ffffffff615a7486614b27565b16815293830193600192909201918301615a5e565b60008235603e1983360301811261594a57600080fd5b6000615aab8283615953565b60408552615abd604086018284614f5b565b915050615acd6020840184615953565b858303602087015261426883828461599b565b63ffffffff80615aef83614b27565b16835280615aff60208401614b27565b16602084015280615b1260408401614b27565b16604084015280615b2560608401614b27565b16606084015280615b3860808401614b27565b166080840152505050565b615b5582615b50836157c2565b614ab7565b615b6160208201614b3b565b60030b6020830152615b7560408201614b3b565b60030b60408301526111256060830160608301615831565b6001600160a01b0383168152604060208201819052615bae9082018361587f565b6000615bbd610180840161419c565b6101c0615bd4818501836001600160a01b03169052565b6101e091506101a085013582850152615bef81860186615934565b90506102006103e081860152615c096104208601836159d1565b9150615c1783870187615a89565b9250603f198086840301610220870152615c318385615a9f565b9350615c436102408701838901615ae0565b615c516102a0880188615934565b92506102e09150808685030182870152615c6b84846159d1565b9350615c7b6102c0880188615934565b9250808685030161030087015250615c9383836159d1565b9250615ca56103208601828801615b43565b50506103c0840135610400840152809150509392505050565b8681526001600160a01b038681166020830152851660408201526000615ce76060830186615061565b60e060a0830152615cfb60e08301856146d3565b9050615d0683614450565b8260c0830152979650505050505050565b600060208284031215615d2957600080fd5b81516108f9816143aa565b808202811582820484141761074557610745614e8f565b600060018201615d5d57615d5d614e8f565b5060010190565b600082615d8157634e487b7160e01b600052601260045260246000fd5b500490565b634e487b7160e01b600052603160045260246000fdfe22573091f17911fb166032a3d9e0554aa73d31b7b7ddea4a4dd2995650af84bda2646970667358221220a300ea95c3c6c01e0d932b78b75d70c60e04a7444dbab6a9fbf30f01673b265b64736f6c63430008170033",
  "libraries": {
    "ItemLib": "0x61f80AA66D88dc4D763042E67cA0D729E552f944",
    "ItemStatsLib": "0x42F25e627D6E548dDb26d5E164E5a04E419547C6",
    "OtherItemLib": "0x36EAce176E2B060D2bC106b172ff8703892Bb47B"
  },
  "devdoc": {
    "errors": {
      "InvalidInitialization()": [
        {
          "details": "The contract is already initialized."
        }
      ],
      "NotInitializing()": [
        {
          "details": "The contract is not initializing."
        }
      ]
    },
    "events": {
      "Initialized(uint64)": {
        "details": "Triggered when the contract has been initialized or reinitialized."
      }
    },
    "kind": "dev",
    "methods": {
      "augment(address,uint256,uint256,(address,uint256))": {
        "params": {
          "consumedItemId": "Item required to augmentation, it will be destroyed",
          "item": "Item to augment",
          "opt": "Optional parameters"
        }
      },
      "created()": {
        "returns": {
          "_0": "Creation timestamp"
        }
      },
      "createdBlock()": {
        "returns": {
          "_0": "Creation block number"
        }
      },
      "destroy(address,uint256)": {
        "details": "Some stories can destroy items"
      },
      "increaseRevision(address)": {
        "details": "Revision should be increased on each contract upgrade"
      },
      "isController(address)": {
        "details": "Return true if given address is controller"
      },
      "itemFragility(address,uint256)": {
        "details": "[0...100%], decimals 3, so the value is in the range [0...10_000]"
      },
      "previousImplementation()": {
        "details": "Previous logic implementation"
      },
      "registerItem(address,((uint8,uint8,uint8,uint16,uint8,uint32,uint8,uint8,(int32,int32,int32,int32)),address,uint256,(uint8[],int32[],int32[],uint32[]),(uint8[],int32[]),(uint32,uint32,uint32,uint32,uint32),(uint8[],int32[],int32[],uint32[]),(uint8[],int32[],int32[],uint32[]),(uint8,int32,int32,(int32,int32,int32,int32)),uint256))": {
        "details": "It's possible to reduce size of the contract on 1kb by replacing calldata=>memory (+2k gas)"
      },
      "repairDurability(address,uint256,uint256)": {
        "details": "Repair durability of the item with {itemId} by destroying {consumedItemId}"
      },
      "repairFragility(address,uint256,address,uint256)": {
        "details": "If you have no space in this contract you can remove this function and use useOtherItem instead",
        "params": {
          "consumedItem": "Item of type \"Other\" subtype \"REDUCE_FRAGILITY_1\"",
          "item": "Fragility of this item will be reduced. Initial fragility must be > 0"
        }
      },
      "revision()": {
        "details": "Contract upgrade counter"
      },
      "takeOffDirectly(address,uint256,address,uint256,uint8,address,bool)": {
        "details": "Some stories can manipulate items"
      },
      "useOtherItem(address,uint256,bytes)": {
        "params": {
          "data": "Data required by other item, encoded by abi.encode Format of the data depends on the other-item-subtype: REDUCE_FRAGILITY_1: (address item, uint itemId)     item - the item which fragility should be reduced USE_GUILD_REINFORCEMENT_2: (address hero, uint heroId, address helper, uint helperId)     hero - the hero that asks the guild reinforcement     helper - the hero staked in guild reinforcement which help is desired EXIT_FROM_DUNGEON_3: (address hero, uint heroId)     hero - the hero that is going to exit from the dungeon REST_IN_SHELTER_4: (address hero, uint heroId)     hero - the hero that is going to have a rest in the shelter of the guild to which the hero's owner belongs",
          "item": "Item of \"Other\" type"
        }
      }
    },
    "version": 1
  },
  "userdoc": {
    "kind": "user",
    "methods": {
      "CONTROLLABLE_VERSION()": {
        "notice": "Version of the contract"
      },
      "VERSION()": {
        "notice": "Version of the contract"
      },
      "combineItems(uint256,address[],uint256[][])": {
        "notice": "Combine multiple {items} to single item according to the given union-config"
      },
      "controller()": {
        "notice": "Return controller address saved in the contract slot"
      },
      "created()": {
        "notice": "Return creation timestamp"
      },
      "createdBlock()": {
        "notice": "Return creation block number"
      },
      "incBrokenItemFragility(address,uint256)": {
        "notice": "SIP-003: The quest mechanic that previously burned the item will increase its fragility by 1%"
      },
      "isGovernance(address)": {
        "notice": "Return true if given address is setup as governance in Controller"
      },
      "itemFragility(address,uint256)": {
        "notice": "SIP-003: item fragility counter that displays the chance of an unsuccessful repair."
      },
      "reduceDurability(address,uint256,uint8,bool)": {
        "notice": "Reduce durability of all equipped items except not-used items of SKILL-type"
      },
      "repairFragility(address,uint256,address,uint256)": {
        "notice": "Reduce fragility of the {item} on the value taken from metadata of the {consumedItem}. Destroy the consumed item. New fragility = initial fragility - value from metadata."
      },
      "tsFirstAugmentation(address,uint256)": {
        "notice": "SCR_1263: Timestamp of first augmentation moment. 0 - if either the item was not yet augmented OR it was augmented before implementation of SCR_1263. Augmentation cannot use protective item in second case."
      },
      "use(address,uint256,address,uint256)": {
        "notice": "Use consumable"
      },
      "useOtherItem(address,uint256,bytes)": {
        "notice": "Apply given other item"
      }
    },
    "version": 1
  },
  "storageLayout": {
    "storage": [],
    "types": null
  }
}