{
  "address": "0x810C400D99DEFA3E738CD0FBC10340e45BEf5ab0",
  "abi": [
    {
      "inputs": [],
      "name": "AuctionBidClosed",
      "type": "error"
    },
    {
      "inputs": [],
      "name": "AuctionBidNotFound",
      "type": "error"
    },
    {
      "inputs": [
        {
          "internalType": "uint256",
          "name": "positionId",
          "type": "uint256"
        }
      ],
      "name": "AuctionBidOpened",
      "type": "error"
    },
    {
      "inputs": [],
      "name": "AuctionBuyerOnly",
      "type": "error"
    },
    {
      "inputs": [],
      "name": "AuctionEnded",
      "type": "error"
    },
    {
      "inputs": [],
      "name": "AuctionGuildWithShelterCannotBid",
      "type": "error"
    },
    {
      "inputs": [],
      "name": "AuctionNotEnded",
      "type": "error"
    },
    {
      "inputs": [],
      "name": "AuctionPositionClosed",
      "type": "error"
    },
    {
      "inputs": [
        {
          "internalType": "uint256",
          "name": "positionId",
          "type": "uint256"
        }
      ],
      "name": "AuctionPositionOpened",
      "type": "error"
    },
    {
      "inputs": [],
      "name": "AuctionSellerCannotBid",
      "type": "error"
    },
    {
      "inputs": [],
      "name": "AuctionSellerOnly",
      "type": "error"
    },
    {
      "inputs": [],
      "name": "CannotApplyNotLastBid",
      "type": "error"
    },
    {
      "inputs": [],
      "name": "CannotCloseLastBid",
      "type": "error"
    },
    {
      "inputs": [],
      "name": "ErrorNotAllowedSender",
      "type": "error"
    },
    {
      "inputs": [
        {
          "internalType": "address",
          "name": "sender",
          "type": "address"
        }
      ],
      "name": "ErrorNotDeployer",
      "type": "error"
    },
    {
      "inputs": [],
      "name": "ErrorPaused",
      "type": "error"
    },
    {
      "inputs": [
        {
          "internalType": "uint256",
          "name": "right",
          "type": "uint256"
        }
      ],
      "name": "GuildActionForbidden",
      "type": "error"
    },
    {
      "inputs": [],
      "name": "InvalidInitialization",
      "type": "error"
    },
    {
      "inputs": [],
      "name": "NotGuildMember",
      "type": "error"
    },
    {
      "inputs": [],
      "name": "NotInitializing",
      "type": "error"
    },
    {
      "inputs": [],
      "name": "ShelterIsNotOwnedByTheGuild",
      "type": "error"
    },
    {
      "inputs": [
        {
          "internalType": "uint256",
          "name": "value",
          "type": "uint256"
        }
      ],
      "name": "TooHighValue",
      "type": "error"
    },
    {
      "inputs": [],
      "name": "TooLowAmountForNewBid",
      "type": "error"
    },
    {
      "inputs": [],
      "name": "TooLowAmountToBid",
      "type": "error"
    },
    {
      "inputs": [],
      "name": "WrongAuctionPosition",
      "type": "error"
    },
    {
      "inputs": [],
      "name": "ZeroValueNotAllowed",
      "type": "error"
    },
    {
      "anonymous": false,
      "inputs": [
        {
          "indexed": false,
          "internalType": "uint256",
          "name": "bidId",
          "type": "uint256"
        },
        {
          "indexed": false,
          "internalType": "uint256",
          "name": "positionId",
          "type": "uint256"
        },
        {
          "indexed": false,
          "internalType": "uint256",
          "name": "amount",
          "type": "uint256"
        },
        {
          "indexed": false,
          "internalType": "address",
          "name": "msgSender",
          "type": "address"
        }
      ],
      "name": "AuctionBidOpened",
      "type": "event"
    },
    {
      "anonymous": false,
      "inputs": [
        {
          "indexed": false,
          "internalType": "uint256",
          "name": "positionId",
          "type": "uint256"
        },
        {
          "indexed": false,
          "internalType": "address",
          "name": "msgSender",
          "type": "address"
        }
      ],
      "name": "AuctionPositionClosed",
      "type": "event"
    },
    {
      "anonymous": false,
      "inputs": [
        {
          "indexed": false,
          "internalType": "uint256",
          "name": "positionId",
          "type": "uint256"
        },
        {
          "indexed": false,
          "internalType": "uint256",
          "name": "shelterId",
          "type": "uint256"
        },
        {
          "indexed": false,
          "internalType": "uint256",
          "name": "sellerGuildId",
          "type": "uint256"
        },
        {
          "indexed": false,
          "internalType": "address",
          "name": "msgSender",
          "type": "address"
        },
        {
          "indexed": false,
          "internalType": "uint256",
          "name": "minAuctionPrice",
          "type": "uint256"
        }
      ],
      "name": "AuctionPositionOpened",
      "type": "event"
    },
    {
      "anonymous": false,
      "inputs": [
        {
          "indexed": false,
          "internalType": "address",
          "name": "controller",
          "type": "address"
        },
        {
          "indexed": false,
          "internalType": "uint256",
          "name": "ts",
          "type": "uint256"
        },
        {
          "indexed": false,
          "internalType": "uint256",
          "name": "block",
          "type": "uint256"
        }
      ],
      "name": "ContractInitialized",
      "type": "event"
    },
    {
      "anonymous": false,
      "inputs": [
        {
          "indexed": false,
          "internalType": "uint64",
          "name": "version",
          "type": "uint64"
        }
      ],
      "name": "Initialized",
      "type": "event"
    },
    {
      "anonymous": false,
      "inputs": [
        {
          "indexed": false,
          "internalType": "uint256",
          "name": "value",
          "type": "uint256"
        },
        {
          "indexed": false,
          "internalType": "address",
          "name": "oldLogic",
          "type": "address"
        }
      ],
      "name": "RevisionIncreased",
      "type": "event"
    },
    {
      "inputs": [],
      "name": "CONTROLLABLE_VERSION",
      "outputs": [
        {
          "internalType": "string",
          "name": "",
          "type": "string"
        }
      ],
      "stateMutability": "view",
      "type": "function"
    },
    {
      "inputs": [],
      "name": "VERSION",
      "outputs": [
        {
          "internalType": "string",
          "name": "",
          "type": "string"
        }
      ],
      "stateMutability": "view",
      "type": "function"
    },
    {
      "inputs": [
        {
          "internalType": "uint256",
          "name": "bidId",
          "type": "uint256"
        }
      ],
      "name": "applyAuctionBid",
      "outputs": [],
      "stateMutability": "nonpayable",
      "type": "function"
    },
    {
      "inputs": [
        {
          "internalType": "uint256",
          "name": "positionId",
          "type": "uint256"
        }
      ],
      "name": "auctionEndTs",
      "outputs": [
        {
          "internalType": "uint256",
          "name": "timestamp",
          "type": "uint256"
        }
      ],
      "stateMutability": "view",
      "type": "function"
    },
    {
      "inputs": [
        {
          "internalType": "uint256",
          "name": "positionId",
          "type": "uint256"
        },
        {
          "internalType": "uint256",
          "name": "amount",
          "type": "uint256"
        }
      ],
      "name": "bid",
      "outputs": [],
      "stateMutability": "nonpayable",
      "type": "function"
    },
    {
      "inputs": [],
      "name": "bidCounter",
      "outputs": [
        {
          "internalType": "uint256",
          "name": "",
          "type": "uint256"
        }
      ],
      "stateMutability": "view",
      "type": "function"
    },
    {
      "inputs": [
        {
          "internalType": "uint256",
          "name": "bidId",
          "type": "uint256"
        }
      ],
      "name": "closeAuctionBid",
      "outputs": [],
      "stateMutability": "nonpayable",
      "type": "function"
    },
    {
      "inputs": [
        {
          "internalType": "uint256",
          "name": "positionId",
          "type": "uint256"
        }
      ],
      "name": "closePosition",
      "outputs": [],
      "stateMutability": "nonpayable",
      "type": "function"
    },
    {
      "inputs": [],
      "name": "controller",
      "outputs": [
        {
          "internalType": "address",
          "name": "",
          "type": "address"
        }
      ],
      "stateMutability": "view",
      "type": "function"
    },
    {
      "inputs": [],
      "name": "created",
      "outputs": [
        {
          "internalType": "uint256",
          "name": "",
          "type": "uint256"
        }
      ],
      "stateMutability": "view",
      "type": "function"
    },
    {
      "inputs": [],
      "name": "createdBlock",
      "outputs": [
        {
          "internalType": "uint256",
          "name": "",
          "type": "uint256"
        }
      ],
      "stateMutability": "view",
      "type": "function"
    },
    {
      "inputs": [],
      "name": "fee",
      "outputs": [
        {
          "internalType": "uint256",
          "name": "",
          "type": "uint256"
        }
      ],
      "stateMutability": "view",
      "type": "function"
    },
    {
      "inputs": [
        {
          "internalType": "uint256",
          "name": "bidId_",
          "type": "uint256"
        }
      ],
      "name": "getBid",
      "outputs": [
        {
          "components": [
            {
              "internalType": "bool",
              "name": "open",
              "type": "bool"
            },
            {
              "internalType": "address",
              "name": "buyer",
              "type": "address"
            },
            {
              "internalType": "uint128",
              "name": "bidId",
              "type": "uint128"
            },
            {
              "internalType": "uint128",
              "name": "positionId",
              "type": "uint128"
            },
            {
              "internalType": "uint128",
              "name": "amount",
              "type": "uint128"
            },
            {
              "internalType": "uint128",
              "name": "buyerGuildId",
              "type": "uint128"
            }
          ],
          "internalType": "struct IShelterAuction.AuctionBid",
          "name": "",
          "type": "tuple"
        }
      ],
      "stateMutability": "view",
      "type": "function"
    },
    {
      "inputs": [
        {
          "internalType": "uint256",
          "name": "positionId_",
          "type": "uint256"
        }
      ],
      "name": "getPosition",
      "outputs": [
        {
          "components": [
            {
              "internalType": "bool",
              "name": "open",
              "type": "bool"
            },
            {
              "internalType": "address",
              "name": "seller",
              "type": "address"
            },
            {
              "internalType": "uint64",
              "name": "shelterId",
              "type": "uint64"
            },
            {
              "internalType": "uint128",
              "name": "positionId",
              "type": "uint128"
            },
            {
              "internalType": "uint128",
              "name": "minAuctionPrice",
              "type": "uint128"
            },
            {
              "internalType": "uint128",
              "name": "sellerGuildId",
              "type": "uint128"
            }
          ],
          "internalType": "struct IShelterAuction.Position",
          "name": "",
          "type": "tuple"
        }
      ],
      "stateMutability": "view",
      "type": "function"
    },
    {
      "inputs": [
        {
          "internalType": "address",
          "name": "oldLogic",
          "type": "address"
        }
      ],
      "name": "increaseRevision",
      "outputs": [],
      "stateMutability": "nonpayable",
      "type": "function"
    },
    {
      "inputs": [
        {
          "internalType": "address",
          "name": "controller_",
          "type": "address"
        }
      ],
      "name": "init",
      "outputs": [],
      "stateMutability": "nonpayable",
      "type": "function"
    },
    {
      "inputs": [
        {
          "internalType": "address",
          "name": "value_",
          "type": "address"
        }
      ],
      "name": "isController",
      "outputs": [
        {
          "internalType": "bool",
          "name": "",
          "type": "bool"
        }
      ],
      "stateMutability": "view",
      "type": "function"
    },
    {
      "inputs": [
        {
          "internalType": "address",
          "name": "value_",
          "type": "address"
        }
      ],
      "name": "isGovernance",
      "outputs": [
        {
          "internalType": "bool",
          "name": "",
          "type": "bool"
        }
      ],
      "stateMutability": "view",
      "type": "function"
    },
    {
      "inputs": [
        {
          "internalType": "address",
          "name": "forwarder",
          "type": "address"
        }
      ],
      "name": "isTrustedForwarder",
      "outputs": [
        {
          "internalType": "bool",
          "name": "",
          "type": "bool"
        }
      ],
      "stateMutability": "view",
      "type": "function"
    },
    {
      "inputs": [
        {
          "internalType": "uint256",
          "name": "positionId",
          "type": "uint256"
        }
      ],
      "name": "lastAuctionBidTs",
      "outputs": [
        {
          "internalType": "uint256",
          "name": "timestamp",
          "type": "uint256"
        }
      ],
      "stateMutability": "view",
      "type": "function"
    },
    {
      "inputs": [
        {
          "internalType": "uint256",
          "name": "positionId",
          "type": "uint256"
        }
      ],
      "name": "nextAmount",
      "outputs": [
        {
          "internalType": "uint256",
          "name": "",
          "type": "uint256"
        }
      ],
      "stateMutability": "view",
      "type": "function"
    },
    {
      "inputs": [
        {
          "internalType": "uint256",
          "name": "shelterId",
          "type": "uint256"
        },
        {
          "internalType": "uint256",
          "name": "minAuctionPrice",
          "type": "uint256"
        }
      ],
      "name": "openPosition",
      "outputs": [
        {
          "internalType": "uint256",
          "name": "",
          "type": "uint256"
        }
      ],
      "stateMutability": "nonpayable",
      "type": "function"
    },
    {
      "inputs": [
        {
          "internalType": "uint256",
          "name": "index",
          "type": "uint256"
        }
      ],
      "name": "openPositionByIndex",
      "outputs": [
        {
          "internalType": "uint256",
          "name": "positionId",
          "type": "uint256"
        }
      ],
      "stateMutability": "view",
      "type": "function"
    },
    {
      "inputs": [],
      "name": "openPositionsLength",
      "outputs": [
        {
          "internalType": "uint256",
          "name": "",
          "type": "uint256"
        }
      ],
      "stateMutability": "view",
      "type": "function"
    },
    {
      "inputs": [
        {
          "internalType": "uint256",
          "name": "shelterId_",
          "type": "uint256"
        }
      ],
      "name": "posByShelter",
      "outputs": [
        {
          "internalType": "uint256",
          "name": "positionId",
          "type": "uint256"
        }
      ],
      "stateMutability": "view",
      "type": "function"
    },
    {
      "inputs": [
        {
          "internalType": "uint256",
          "name": "positionId",
          "type": "uint256"
        },
        {
          "internalType": "uint256",
          "name": "bidIndex",
          "type": "uint256"
        }
      ],
      "name": "positionBidByIndex",
      "outputs": [
        {
          "internalType": "uint256",
          "name": "",
          "type": "uint256"
        }
      ],
      "stateMutability": "view",
      "type": "function"
    },
    {
      "inputs": [
        {
          "internalType": "uint256",
          "name": "positionId",
          "type": "uint256"
        }
      ],
      "name": "positionBidsLength",
      "outputs": [
        {
          "internalType": "uint256",
          "name": "",
          "type": "uint256"
        }
      ],
      "stateMutability": "view",
      "type": "function"
    },
    {
      "inputs": [
        {
          "internalType": "uint256",
          "name": "buyerGuildId",
          "type": "uint256"
        }
      ],
      "name": "positionByBuyer",
      "outputs": [
        {
          "internalType": "uint256",
          "name": "positionId",
          "type": "uint256"
        },
        {
          "internalType": "uint256",
          "name": "bidIndex",
          "type": "uint256"
        }
      ],
      "stateMutability": "view",
      "type": "function"
    },
    {
      "inputs": [
        {
          "internalType": "uint256",
          "name": "sellerGuildId_",
          "type": "uint256"
        }
      ],
      "name": "positionBySeller",
      "outputs": [
        {
          "internalType": "uint256",
          "name": "positionId",
          "type": "uint256"
        }
      ],
      "stateMutability": "view",
      "type": "function"
    },
    {
      "inputs": [],
      "name": "positionCounter",
      "outputs": [
        {
          "internalType": "uint256",
          "name": "",
          "type": "uint256"
        }
      ],
      "stateMutability": "view",
      "type": "function"
    },
    {
      "inputs": [],
      "name": "previousImplementation",
      "outputs": [
        {
          "internalType": "address",
          "name": "",
          "type": "address"
        }
      ],
      "stateMutability": "view",
      "type": "function"
    },
    {
      "inputs": [],
      "name": "revision",
      "outputs": [
        {
          "internalType": "uint256",
          "name": "",
          "type": "uint256"
        }
      ],
      "stateMutability": "view",
      "type": "function"
    },
    {
      "inputs": [
        {
          "internalType": "uint256",
          "name": "fee_",
          "type": "uint256"
        }
      ],
      "name": "setFee",
      "outputs": [],
      "stateMutability": "nonpayable",
      "type": "function"
    }
  ],
  "transactionHash": "0x6c0650a17d29f02b986f7a97e81ea46fd5aa5da79e2e3033be3a8f25caab2500",
  "args": [],
  "numDeployments": 8,
  "solcInputHash": "469f89b788f48678cfe1a8f9b5f43301",
  "bytecode": "0x60806040523480156200001157600080fd5b507ff0c57e16840df040f15088dc2f81fe391c3923bec73e23a9662efc9c229c6a00805468010000000000000000810460ff1615906001600160401b03166000811580156200005d5750825b90506000826001600160401b031660011480156200007a5750303b155b90508115801562000089575080155b15620000a85760405163f92ee8a960e01b815260040160405180910390fd5b84546001600160401b03191660011785558315620000d757845460ff60401b1916680100000000000000001785555b83156200011e57845460ff60401b19168555604051600181527fc7f505b2f371ae2175ee4913f4499e1f2633a7b5936321eed1cdaeb6115181d29060200160405180910390a15b5050505050612deb80620001336000396000f3fe608060405234801561001057600080fd5b50600436106101bb5760003560e01c806369908303116100fa578063b17583e71161009d578063b17583e714610403578063b429afeb14610416578063b6dcc98314610429578063ddca3f431461043c578063dee1f0e414610444578063eb02c30114610457578063ec82a664146104d6578063f77c4791146104e9578063ffa1ad74146103aa57600080fd5b8063699083031461034157806369fe0e2d146103545780637cc963801461036757806381165ec61461036f578063905c1e9314610382578063936725ec146103aa5780639d0bcca0146103db578063a126d601146103f057600080fd5b80633c889e6f116101625780633c889e6f146102575780633f678f05146102cd5780634593144c146102e05780634fac6ccd146102e8578063572b6c05146102fb578063598647f81461031e57806363d5ab8d14610331578063689d84ca1461033957600080fd5b806303f69354146101c0578063106f7635146101db57806319ab453c146101f057806320bc4b501461020357806320e763b8146102165780633012b05c14610229578063325a19f11461023c578063366e300014610244575b600080fd5b6101c86104f1565b6040519081526020015b60405180910390f35b6101ee6101e9366004612a8f565b610500565b005b6101ee6101fe366004612abd565b61051c565b6101c8610211366004612ae1565b610632565b6101c8610224366004612a8f565b610647565b6101c8610237366004612ae1565b610656565b6101c8610672565b6101c8610252366004612a8f565b6106a6565b61026a610265366004612a8f565b6106b1565b604080518251151581526020808401516001600160a01b031690820152828201516001600160801b039081169282019290925260608084015183169082015260808084015183169082015260a0928301519091169181019190915260c0016101d2565b6101ee6102db366004612a8f565b6106c2565b6101c86106e0565b6101ee6102f6366004612abd565b610710565b61030e610309366004612abd565b610819565b60405190151581526020016101d2565b6101ee61032c366004612ae1565b610867565b6101c861088a565b6101c8610894565b6101c861034f366004612a8f565b61089e565b6101ee610362366004612a8f565b6108a9565b6101c86108ba565b6101c861037d366004612a8f565b6108d8565b610395610390366004612a8f565b6108e3565b604080519283526020830191909152016101d2565b6103ce604051806040016040528060058152602001640312e302e360dc1b81525081565b6040516101d29190612b03565b6103e361090f565b6040516101d29190612b52565b6101ee6103fe366004612a8f565b61093f565b6101c8610411366004612a8f565b61095d565b61030e610424366004612abd565b610970565b6101c8610437366004612a8f565b610995565b6101c86109a0565b61030e610452366004612abd565b6109aa565b61046a610465366004612a8f565b610a2f565b6040516101d291908151151581526020808301516001600160a01b0316908201526040808301516001600160401b0316908201526060808301516001600160801b039081169183019190915260808084015182169083015260a092830151169181019190915260c00190565b6101c86104e4366004612a8f565b610a40565b6103e3610a4b565b60006104fb610a7b565b905090565b61051961050b610a4b565b610513610aaf565b83610ad1565b50565b6000610526610e1b565b805490915060ff600160401b82041615906001600160401b031660008115801561054d5750825b90506000826001600160401b031660011480156105695750303b155b905081158015610577575080155b156105955760405163f92ee8a960e01b815260040160405180910390fd5b845467ffffffffffffffff1916600117855583156105bf57845460ff60401b1916600160401b1785555b6105c886610e3f565b60646105d2610e50565b600360009081526020919091526040902055831561062a57845460ff60401b19168555604051600181527fc7f505b2f371ae2175ee4913f4499e1f2633a7b5936321eed1cdaeb6115181d29060200160405180910390a15b505050505050565b600061063e8383610e74565b90505b92915050565b60006106418262015180610eb6565b600061063e610663610a4b565b61066b610aaf565b8585610ef6565b60006104fb6106a260017f6f55f470bdc9cb5f04223fd822021061668e4dccb43e8727b295106dc9769c8b612b92565b5490565b600061064182611250565b6106b9612a5a565b61064182611328565b6105196106cd610a4b565b6106d5610aaf565b8362015180426113b6565b60006104fb6106a260017f812a673dfca07956350df10f8a654925f561d7a0da09bdbe79e653939a14d9f1612b92565b3330146107625760405162461bcd60e51b815260206004820152601b60248201527a24b731b932b0b9b2903932bb34b9b4b7b7103337b93134b23232b760291b60448201526064015b60405180910390fd5b60006107806106a26001600080516020612d96833981519152612b92565b61078b906001612ba5565b90506107ad816107aa6001600080516020612d96833981519152612b92565b55565b6107dc826107aa60017fbfaaa2fb63266ff27c2da975f5894955056f50419af651a81f6c5060581857e4612b92565b7ff27e2ef832a4eb8ed8ec553b875eecd44764cda95b1c24170e281539e0a869c8818360405161080d929190612bb8565b60405180910390a15050565b60006001600160a01b03821673d8253782c45a12053594b9deb72d8e8ab2fca54c148061064157506001600160a01b0382167352ceba41da235af367bfc0b0ccd3314cb901bb5f1492915050565b610886610872610a4b565b61087a610aaf565b84846201518042611931565b5050565b60006104fb611f38565b60006104fb611f4b565b600061064182611f60565b6105196108b4610a4b565b82611f7e565b60006104fb6106a26001600080516020612d96833981519152612b92565b600061064182611fcc565b60008060006108f184611fea565b80516020909101516001600160801b03918216969116945092505050565b60006104fb6106a260017fbfaaa2fb63266ff27c2da975f5894955056f50419af651a81f6c5060581857e4612b92565b61051961094a610a4b565b610952610aaf565b836201518042612040565b600061064161096a610a4b565b83612224565b600061097a610a4b565b6001600160a01b0316826001600160a01b0316149050919050565b600061064182612382565b60006104fb6123a0565b6000816001600160a01b03166109be610a4b565b6001600160a01b0316635aa6e6756040518163ffffffff1660e01b8152600401602060405180830381865afa1580156109fb573d6000803e3d6000fd5b505050506040513d601f19601f82011682018060405250810190610a1f9190612bcf565b6001600160a01b03161492915050565b610a37612a5a565b610641826123b3565b60006106418261244c565b60006104fb6106a260017f5165972ef41194f06c5007493031d0b927c20741adcb74403b954009fd2c3618612b92565b6000610a85610e50565b600060025b6003811115610a9b57610a9b612b66565b815260200190815260200160002054905090565b6000610aba33610819565b15610acc575060131936013560601c90565b503390565b610ada83612463565b6000836001600160a01b03166325eb1c876040518163ffffffff1660e01b8152600401602060405180830381865afa158015610b1a573d6000803e3d6000fd5b505050506040513d601f19601f82011682018060405250810190610b3e9190612bcf565b90506000610b4e848360036124e3565b5090506000610b5b610e50565b6000858152600291909101602052604081206001810154909250600160801b90046001600160801b031690819003610ba657604051633efb857360e11b815260040160405180910390fd5b6002820154600160801b90046001600160801b03168314610bda57604051634da94fcf60e11b815260040160405180910390fd5b815460ff16610bfc57604051637905976d60e11b815260040160405180910390fd5b6000610c06610e50565b600083815260079190910160205260408120805490925087908390610c2d90600190612b92565b81548110610c3d57610c3d612bec565b90600052602060002001541490506000610c55610e50565b6000858152600191909101602052604090209050818015610c775750805460ff165b15610c9557604051634b8cbdab60e11b815260040160405180910390fd5b845460ff19168555610ca5610e50565b600087815260069190910160205260408082208290555163f2e0023d60e01b8152600481018890526001600160a01b0389169063f2e0023d90602401602060405180830381865afa158015610cfe573d6000803e3d6000fd5b505050506040513d601f19601f82011682018060405250810190610d229190612bcf565b905060008b6001600160a01b031663c3dfdae66040518163ffffffff1660e01b8152600401602060405180830381865afa158015610d64573d6000803e3d6000fd5b505050506040513d601f19601f82011682018060405250810190610d889190612bcf565b600288015460405163a9059cbb60e01b81526001600160a01b0385811660048301526001600160801b03909216602482015291925082169063a9059cbb906044016020604051808303816000875af1158015610de8573d6000803e3d6000fd5b505050506040513d601f19601f82011682018060405250810190610e0c9190612c02565b50505050505050505050505050565b7ff0c57e16840df040f15088dc2f81fe391c3923bec73e23a9662efc9c229c6a0090565b610e47612657565b6105198161267e565b7f597e4e55fd306bfc6bfaaa6b3e10d80a4b0fe770b166ac704f10504e76e97c0090565b6000610e7e610e50565b60070160008481526020019081526020016000208281548110610ea357610ea3612bec565b9060005260206000200154905092915050565b600080610ec1610e50565b6000858152600891909101602052604090205490508015610eeb57610ee68382612ba5565b610eee565b60005b949350505050565b6000610f0185612463565b81600003610f225760405163273e150360e21b815260040160405180910390fd5b6000856001600160a01b03166325eb1c876040518163ffffffff1660e01b8152600401602060405180830381865afa158015610f62573d6000803e3d6000fd5b505050506040513d601f19601f82011682018060405250810190610f869190612bcf565b90506000610f96868360036124e3565b5090506000610fa3610e50565b6000838152600591909101602052604090205490508015610fda5760405163cc0a2fff60e01b815260048101829052602401610759565b604051635f1c54df60e01b81526004810183905286906001600160a01b03851690635f1c54df90602401602060405180830381865afa158015611021573d6000803e3d6000fd5b505050506040513d601f19601f820116820180604052508101906110459190612c24565b1461106357604051631ca073bd60e31b815260040160405180910390fd5b856000036110845760405163273e150360e21b815260040160405180910390fd5b6000611090600161279d565b90506110a78161109e610e50565b6003019061282d565b506040518060c00160405280600115158152602001896001600160a01b03168152602001886001600160401b03168152602001826001600160801b03168152602001876001600160801b03168152602001846001600160801b031681525061110d610e50565b6000838152600191820160209081526040918290208451815492860151938601516001600160a81b0319909316901515610100600160a81b031916176101006001600160a01b03909416939093029290921767ffffffffffffffff60a81b1916600160a81b6001600160401b0390921691909102178155606083015160808401516001600160801b03918216600160801b91831691909102179282019290925560a090920151600290920180546001600160801b03191692909116919091179055806111d7610e50565b6000858152600591909101602090815260409182902092909255805183815291820189905281018490526001600160a01b0389166060820152608081018790527fa44f8017b814948f1b74137948e0765373df974f6f93314e7eae177beefdfe979060a00160405180910390a198975050505050505050565b60008061125b610e50565b6000848152600791909101602052604081208054909250908190036112af57611282610e50565b60009485526001908101602052604090942090930154600160801b90046001600160801b03169392505050565b60006112b9610e50565b6002016000846112ca600186612b92565b815481106112da576112da612bec565b600091825260208083209091015483528201929092526040019020600281015490915060649061131590606e906001600160801b0316612c3d565b61131f9190612c54565b95945050505050565b611330612a5a565b611338610e50565b600092835260029081016020908152604093849020845160c081018652815460ff81161515825261010090046001600160a01b03169281019290925260018101546001600160801b0380821696840196909652600160801b908190048616606084015292015480851660808301529190910490921660a08301525090565b6113bf85612463565b6000856001600160a01b03166325eb1c876040518163ffffffff1660e01b8152600401602060405180830381865afa1580156113ff573d6000803e3d6000fd5b505050506040513d601f19601f820116820180604052508101906114239190612bcf565b90506000611433868360036124e3565b5090506000611440610e50565b6000878152600291909101602052604081206001810154909250600160801b90046001600160801b03169081900361148b57604051633efb857360e11b815260040160405180910390fd5b815460ff166114ad57604051637905976d60e11b815260040160405180910390fd5b60006114b7610e50565b600083815260019190910160205260409020805490915060ff166114ee576040516311d0812360e01b815260040160405180910390fd5b85876114f8610e50565b600085815260089190910160205260409020546115159190612ba5565b1061153357604051636463738960e01b815260040160405180910390fd5b600061153d610e50565b60008481526007919091016020526040902080549091508990829061156490600190612b92565b8154811061157457611574612bec565b90600052602060002001541461159d57604051631c42dc1f60e21b815260040160405180910390fd5b50600280820154908401546001600160801b0391821691600160801b909104168582148015906115cd5750808614155b156115eb5760405163f20e063760e01b815260040160405180910390fd5b825460ff199081168455855416855561160f84611606610e50565b60030190612839565b50611618610e50565b60008381526005919091016020526040812055611633610e50565b6000828152600691909101602090815260408083208390558051632d4f2d5160e11b815290516001600160a01b038b1692635a9e5aa292600480820193918290030181865afa15801561168a573d6000803e3d6000fd5b505050506040513d601f19601f820116820180604052508101906116ae9190612bcf565b8454604051635f623c8b60e01b8152600160a81b9091046001600160401b03166004820152602481018490529091506001600160a01b03821690635f623c8b90604401600060405180830381600087803b15801561170b57600080fd5b505af115801561171f573d6000803e3d6000fd5b50505050505060008b6001600160a01b031663c3dfdae66040518163ffffffff1660e01b8152600401602060405180830381865afa158015611765573d6000803e3d6000fd5b505050506040513d601f19601f820116820180604052508101906117899190612bcf565b60028601549091506001600160801b03166000620186a06117a86123a0565b6117b29084612c3d565b6117bc9190612c54565b9050801561183757826001600160a01b031663a9059cbb8f836040518363ffffffff1660e01b81526004016117f2929190612c76565b6020604051808303816000875af1158015611811573d6000803e3d6000fd5b505050506040513d601f19601f820116820180604052508101906118359190612c02565b505b60405163f2e0023d60e01b8152600481018590526000906001600160a01b038b169063f2e0023d90602401602060405180830381865afa15801561187f573d6000803e3d6000fd5b505050506040513d601f19601f820116820180604052508101906118a39190612bcf565b90506001600160a01b03841663a9059cbb826118bf8587612b92565b6040518363ffffffff1660e01b81526004016118dc929190612c76565b6020604051808303816000875af11580156118fb573d6000803e3d6000fd5b505050506040513d601f19601f8201168201806040525081019061191f9190612c02565b50505050505050505050505050505050565b61193a86612463565b6000866001600160a01b03166325eb1c876040518163ffffffff1660e01b8152600401602060405180830381865afa15801561197a573d6000803e3d6000fd5b505050506040513d601f19601f8201168201806040525081019061199e9190612bcf565b905060006119ae878360036124e3565b50905060006119bb610e50565b6000888152600191820160205260409020908101549091506001600160801b031687146119fb57604051638f948d0760e01b815260040160405180910390fd5b805460ff16611a1d576040516311d0812360e01b815260040160405180910390fd5b60028101546001600160801b0316829003611a4b5760405163b918ff0360e01b815260040160405180910390fd5b6000611a55610e50565b60008481526006919091016020526040902080549091506001600160801b031615611aa1578054604051636a34a9f760e01b81526001600160801b039091166004820152602401610759565b6000611aab610e50565b60070160008a81526020019081526020016000209050846001600160a01b0316635a9e5aa26040518163ffffffff1660e01b8152600401602060405180830381865afa158015611aff573d6000803e3d6000fd5b505050506040513d601f19601f82011682018060405250810190611b239190612bcf565b6001600160a01b0316635f1c54df856040518263ffffffff1660e01b8152600401611b5091815260200190565b602060405180830381865afa158015611b6d573d6000803e3d6000fd5b505050506040513d601f19601f82011682018060405250810190611b919190612c24565b15611baf57604051630a340f6960e11b815260040160405180910390fd5b80546000819003611bf4576001840154600160801b90046001600160801b0316891015611bef5760405163578b090f60e11b815260040160405180910390fd5b611ccd565b8688611bfe610e50565b60008d81526008919091016020526040902054611c1b9190612ba5565b1015611c3a5760405163283a4a6160e21b815260040160405180910390fd5b6000611c44610e50565b600201600084611c55600186612b92565b81548110611c6557611c65612bec565b60009182526020808320909101548352820192909252604001902060028101549091508a90606490611ca290606e906001600160801b0316612c3d565b611cac9190612c54565b1115611ccb5760405163b0738bcb60e01b815260040160405180910390fd5b505b6040805160c081018252600181526001600160a01b038d1660208201526000918101611cf9600261279d565b6001600160801b0390811682528d81166020808401919091528d82166040808501919091528a83166060909401939093529183015186546001810188556000888152939093209116910155905080611d4f610e50565b6040808401516001600160801b039081166000908152600293840160209081529083902085518154878401516001600160a01b031661010002610100600160a81b0319921515929092166001600160a81b0319909116171781558584015160608701518416600160801b908102918516919091176001830155608087015160a09097015184160295831695909517949093019390935580518082019091528d8316815291841690820152611e01610e50565b600088815260069190910160209081526040909120825192909101516001600160801b03908116600160801b02921691909117905587611e3f610e50565b60008d815260089190910160205260409081902091909155818101519051630a8b446b60e41b815260048101889052602481018c90526001600160801b0390911660448201526001600160a01b0388169063a8b446b090606401600060405180830381600087803b158015611eb357600080fd5b505af1158015611ec7573d6000803e3d6000fd5b50505060408083015181516001600160801b039091168152602081018e90529081018c90526001600160a01b038e1660608201527f212de920a843943385be4d0be6f5375802a6c0eb13258959f94184f8599aa1f1915060800160405180910390a150505050505050505050505050565b6000611f42610e50565b60006001610a8a565b60006104fb611f58610e50565b600301612845565b6000611f6a610e50565b600092835260070160205250604090205490565b611f878261284f565b61c350811115611fad57604051633995b34160e01b815260048101829052602401610759565b80611fb6610e50565b6003600090815260209190915260409020555050565b6000611fd6610e50565b600092835260080160205250604090205490565b6040805180820190915260008082526020820152612006610e50565b600092835260060160209081526040928390208351808501909452546001600160801b038082168552600160801b90910416908301525090565b61204985612463565b6000856001600160a01b03166325eb1c876040518163ffffffff1660e01b8152600401602060405180830381865afa158015612089573d6000803e3d6000fd5b505050506040513d601f19601f820116820180604052508101906120ad9190612bcf565b905060006120bd868360036124e3565b50905060006120ca610e50565b6000878152600191820160205260409020908101549091506001600160801b0316861461210a57604051638f948d0760e01b815260040160405180910390fd5b60028101546001600160801b03168214612137576040516303cdc39d60e01b815260040160405180910390fd5b805460ff16612159576040516311d0812360e01b815260040160405180910390fd5b6000612163610e50565b600088815260089190910160205260409020549050801580159061218f57508461218d8783612ba5565b105b156121ad5760405163283a4a6160e21b815260040160405180910390fd5b6121b987611606610e50565b506121c2610e50565b6000848152600591909101602052604080822091909155825460ff19168355517fda6994de7462b880631ad7c521a8208d0ddddecdac70aeb1b3abeaa408a2cd6e906122119089908b90612bb8565b60405180910390a1505050505050505050565b600080836001600160a01b03166325eb1c876040518163ffffffff1660e01b8152600401602060405180830381865afa158015612265573d6000803e3d6000fd5b505050506040513d601f19601f820116820180604052508101906122899190612bcf565b90506000816001600160a01b0316635a9e5aa26040518163ffffffff1660e01b8152600401602060405180830381865afa1580156122cb573d6000803e3d6000fd5b505050506040513d601f19601f820116820180604052508101906122ef9190612bcf565b90506001600160a01b0381161561237757604051630cf9202b60e11b815260048101859052612372906001600160a01b038316906319f2405690602401602060405180830381865afa158015612349573d6000803e3d6000fd5b505050506040513d601f19601f8201168201806040525081019061236d9190612c24565b612382565b61131f565b600095945050505050565b600061238c610e50565b600092835260050160205250604090205490565b60006123aa610e50565b60006003610a8a565b6123bb612a5a565b6123c3610e50565b600092835260019081016020908152604093849020845160c081018652815460ff81161515825261010081046001600160a01b031693820193909352600160a81b9092046001600160401b031694820194909452908301546001600160801b038082166060840152600160801b9091048116608083015260029093015490921660a08301525090565b60006106418261245a610e50565b600301906128db565b806001600160a01b03166318d928316040518163ffffffff1660e01b8152600401602060405180830381865afa1580156124a1573d6000803e3d6000fd5b505050506040513d601f19601f820116820180604052508101906124c59190612c02565b1561051957604051635e1633d360e11b815260040160405180910390fd5b600080836001600160a01b0316633b4c9891866040518263ffffffff1660e01b81526004016125129190612b52565b602060405180830381865afa15801561252f573d6000803e3d6000fd5b505050506040513d601f19601f820116820180604052508101906125539190612c24565b91508160000361257657604051632f6c853960e11b815260040160405180910390fd5b6040516373cf874b60e11b81526001600160a01b0385169063e79f0e96906125a2908890600401612b52565b602060405180830381865afa1580156125bf573d6000803e3d6000fd5b505050506040513d601f19601f820116820180604052508101906125e39190612c24565b90506125f160006002612d73565b811615158061261d575082600c81111561260d5761260d612b66565b612618906002612d73565b811615155b61264f5782600c81111561263357612633612b66565b604051630d816ed160e01b815260040161075991815260200190565b935093915050565b61265f6128e7565b61267c57604051631afcd79f60e31b815260040160405180910390fd5b565b6001600160a01b0381166126c65760405162461bcd60e51b815260206004820152600f60248201526e2d32b9379031b7b73a3937b63632b960891b6044820152606401610759565b6126f5816107aa60017f5165972ef41194f06c5007493031d0b927c20741adcb74403b954009fd2c3618612b92565b612724426107aa60017f6f55f470bdc9cb5f04223fd822021061668e4dccb43e8727b295106dc9769c8b612b92565b612753436107aa60017f812a673dfca07956350df10f8a654925f561d7a0da09bdbe79e653939a14d9f1612b92565b604080516001600160a01b0383168152426020820152438183015290517f1a2dd071001ebf6e03174e3df5b305795a4ad5d41d8fdb9ba41dbbe2367134269181900360600190a150565b60006127a7610e50565b60008360038111156127bb576127bb612b66565b60038111156127cc576127cc612b66565b81526020019081526020016000205460016127e79190612ba5565b9050806127f2610e50565b600084600381111561280657612806612b66565b600381111561281757612817612b66565b8152602081019190915260400160002055919050565b600061063e8383612901565b600061063e8383612950565b6000610641825490565b604051631430d62960e21b81526001600160a01b038216906350c358a49061287b903390600401612b52565b602060405180830381865afa158015612898573d6000803e3d6000fd5b505050506040513d601f19601f820116820180604052508101906128bc9190612c02565b610519573360405163451cea1760e11b81526004016107599190612b52565b600061063e8383612a43565b60006128f1610e1b565b54600160401b900460ff16919050565b600081815260018301602052604081205461294857508154600181810184556000848152602080822090930184905584548482528286019093526040902091909155610641565b506000610641565b60008181526001830160205260408120548015612a39576000612974600183612b92565b855490915060009061298890600190612b92565b90508082146129ed5760008660000182815481106129a8576129a8612bec565b90600052602060002001549050808760000184815481106129cb576129cb612bec565b6000918252602080832090910192909255918252600188019052604090208390555b85548690806129fe576129fe612d7f565b600190038181906000526020600020016000905590558560010160008681526020019081526020016000206000905560019350505050610641565b6000915050610641565b6000826000018281548110610ea357610ea3612bec565b6040805160c081018252600080825260208201819052918101829052606081018290526080810182905260a081019190915290565b600060208284031215612aa157600080fd5b5035919050565b6001600160a01b038116811461051957600080fd5b600060208284031215612acf57600080fd5b8135612ada81612aa8565b9392505050565b60008060408385031215612af457600080fd5b50508035926020909101359150565b60006020808352835180602085015260005b81811015612b3157858101830151858201604001528201612b15565b506000604082860101526040601f19601f8301168501019250505092915050565b6001600160a01b0391909116815260200190565b634e487b7160e01b600052602160045260246000fd5b634e487b7160e01b600052601160045260246000fd5b8181038181111561064157610641612b7c565b8082018082111561064157610641612b7c565b9182526001600160a01b0316602082015260400190565b600060208284031215612be157600080fd5b8151612ada81612aa8565b634e487b7160e01b600052603260045260246000fd5b600060208284031215612c1457600080fd5b81518015158114612ada57600080fd5b600060208284031215612c3657600080fd5b5051919050565b808202811582820484141761064157610641612b7c565b600082612c7157634e487b7160e01b600052601260045260246000fd5b500490565b6001600160a01b03929092168252602082015260400190565b600181815b80851115612cca578160001904821115612cb057612cb0612b7c565b80851615612cbd57918102915b93841c9390800290612c94565b509250929050565b600082612ce157506001610641565b81612cee57506000610641565b8160018114612d045760028114612d0e57612d2a565b6001915050610641565b60ff841115612d1f57612d1f612b7c565b50506001821b610641565b5060208310610133831016604e8410600b8410161715612d4d575081810a610641565b612d578383612c8f565b8060001904821115612d6b57612d6b612b7c565b029392505050565b600061063e8383612cd2565b634e487b7160e01b600052603160045260246000fdfe22573091f17911fb166032a3d9e0554aa73d31b7b7ddea4a4dd2995650af84bda264697066735822122078276b5ec8f37e577aa829e90cb74cac08cdbc10aa66e31a86b9ad217b17f18764736f6c63430008170033",
  "libraries": {},
  "devdoc": {
    "errors": {
      "InvalidInitialization()": [
        {
          "details": "The contract is already initialized."
        }
      ],
      "NotInitializing()": [
        {
          "details": "The contract is not initializing."
        }
      ]
    },
    "events": {
      "Initialized(uint64)": {
        "details": "Triggered when the contract has been initialized or reinitialized."
      }
    },
    "kind": "dev",
    "methods": {
      "bid(uint256,uint256)": {
        "params": {
          "amount": "Amount of the bid in terms of the game token. Use {nextAmount} to know min valid value"
        }
      },
      "created()": {
        "returns": {
          "_0": "Creation timestamp"
        }
      },
      "createdBlock()": {
        "returns": {
          "_0": "Creation block number"
        }
      },
      "increaseRevision(address)": {
        "details": "Revision should be increased on each contract upgrade"
      },
      "isController(address)": {
        "details": "Return true if given address is controller"
      },
      "openPosition(uint256,uint256)": {
        "params": {
          "minAuctionPrice": "Min allowed initial price, 0 is not allowed",
          "shelterId": "Shelter to be sold. Assume, that message sender belongs to the guild that owns the shelter."
        },
        "returns": {
          "_0": "id of newly crated position. You can get this ID also by using {positionBySeller}"
        }
      },
      "positionByBuyer(uint256)": {
        "returns": {
          "bidIndex": "0-based index of the opened bid in {positionToBidIds}",
          "positionId": "ID of the position that the buyer is going to purchase"
        }
      },
      "previousImplementation()": {
        "details": "Previous logic implementation"
      },
      "revision()": {
        "details": "Contract upgrade counter"
      }
    },
    "version": 1
  },
  "userdoc": {
    "kind": "user",
    "methods": {
      "CONTROLLABLE_VERSION()": {
        "notice": "Version of the contract"
      },
      "VERSION()": {
        "notice": "Version of the contract"
      },
      "applyAuctionBid(uint256)": {
        "notice": "Apply winner-bid by seller or by buyer. Assume that auction ended. Transfer winner-bid-amount to the seller. Transfer shelter from seller to the buyer. CLose the position."
      },
      "auctionEndTs(uint256)": {
        "notice": "Deadline of auction ending. The deadline is changed on each creation of new bid for the given position."
      },
      "bid(uint256,uint256)": {
        "notice": "Buyer action. Create new bid with amount higher than the amount of previously registered bid. The amount is taken from guild bank to balance of this contract and returned if the bid is closed."
      },
      "closeAuctionBid(uint256)": {
        "notice": "Buyer action. Allow to close NOT last bid only. Close auction bid and transfer bid-amount back to the buyer."
      },
      "closePosition(uint256)": {
        "notice": "Seller action. Close not executed position."
      },
      "controller()": {
        "notice": "Return controller address saved in the contract slot"
      },
      "created()": {
        "notice": "Return creation timestamp"
      },
      "createdBlock()": {
        "notice": "Return creation block number"
      },
      "fee()": {
        "notice": "Percent of fee (100% = 100_000) that is taken in behalf of the governance from each sold shelter."
      },
      "isGovernance(address)": {
        "notice": "Return true if given address is setup as governance in Controller"
      },
      "lastAuctionBidTs(uint256)": {
        "notice": "Timestamp (in seconds) of last created bid for the given position"
      },
      "nextAmount(uint256)": {
        "notice": "Min amount that is valid to be passed to {bid} for the given position. Initial amount is specified by seller in openPosition, than amount is increased with rate {NEXT_AMOUNT_RATIO} on creation of each new bid"
      },
      "openPosition(uint256,uint256)": {
        "notice": "Seller action. Open new position, setup min allowed auction price."
      },
      "openPositionsLength()": {
        "notice": "Total number of currently opened positions"
      },
      "posByShelter(uint256)": {
        "notice": "Get position currently opened for the given shelter or 0"
      },
      "positionBidsLength(uint256)": {
        "notice": "Total number of currently opened bids for the given position"
      },
      "positionByBuyer(uint256)": {
        "notice": "Get info about bid opened by the given guild. Only one bid can be opened at any time."
      },
      "positionBySeller(uint256)": {
        "notice": "Get position currently opened by the given guild. Only one position can be opened at any time."
      }
    },
    "version": 1
  },
  "storageLayout": {
    "storage": [],
    "types": null
  }
}