{
  "address": "0xdA65a445e9499D6272cb8ea0F5f3080efF69f375",
  "abi": [
    {
      "inputs": [
        {
          "internalType": "address",
          "name": "controller_",
          "type": "address"
        }
      ],
      "stateMutability": "nonpayable",
      "type": "constructor"
    },
    {
      "inputs": [],
      "name": "AlreadyRegistered",
      "type": "error"
    },
    {
      "inputs": [
        {
          "internalType": "address",
          "name": "sender",
          "type": "address"
        }
      ],
      "name": "ErrorForbidden",
      "type": "error"
    },
    {
      "inputs": [],
      "name": "InvalidHeroClass",
      "type": "error"
    },
    {
      "inputs": [],
      "name": "InvalidProof",
      "type": "error"
    },
    {
      "inputs": [],
      "name": "NoHeroesAvailable",
      "type": "error"
    },
    {
      "inputs": [
        {
          "internalType": "address",
          "name": "sender",
          "type": "address"
        }
      ],
      "name": "NotEOA",
      "type": "error"
    },
    {
      "inputs": [
        {
          "internalType": "address",
          "name": "sender",
          "type": "address"
        }
      ],
      "name": "NotGovernance",
      "type": "error"
    },
    {
      "inputs": [],
      "name": "ZeroAmount",
      "type": "error"
    },
    {
      "anonymous": false,
      "inputs": [
        {
          "indexed": false,
          "internalType": "address",
          "name": "msgSender",
          "type": "address"
        },
        {
          "indexed": false,
          "internalType": "address",
          "name": "heroAddress",
          "type": "address"
        },
        {
          "indexed": false,
          "internalType": "uint256",
          "name": "heroId",
          "type": "uint256"
        },
        {
          "indexed": false,
          "internalType": "string",
          "name": "heroName",
          "type": "string"
        }
      ],
      "name": "SponsoredHeroCreated",
      "type": "event"
    },
    {
      "inputs": [
        {
          "internalType": "bytes32",
          "name": "root_",
          "type": "bytes32"
        },
        {
          "internalType": "uint256",
          "name": "amount",
          "type": "uint256"
        }
      ],
      "name": "addTree",
      "outputs": [],
      "stateMutability": "nonpayable",
      "type": "function"
    },
    {
      "inputs": [
        {
          "internalType": "bytes32",
          "name": "merkleRoot",
          "type": "bytes32"
        },
        {
          "internalType": "address",
          "name": "user",
          "type": "address"
        }
      ],
      "name": "claimStarted",
      "outputs": [
        {
          "internalType": "bool",
          "name": "isClaimStarted",
          "type": "bool"
        }
      ],
      "stateMutability": "view",
      "type": "function"
    },
    {
      "inputs": [],
      "name": "controller",
      "outputs": [
        {
          "internalType": "contract IController",
          "name": "",
          "type": "address"
        }
      ],
      "stateMutability": "view",
      "type": "function"
    },
    {
      "inputs": [
        {
          "internalType": "bytes32[]",
          "name": "proof",
          "type": "bytes32[]"
        },
        {
          "internalType": "uint256",
          "name": "airdroppedAmount",
          "type": "uint256"
        },
        {
          "internalType": "uint256",
          "name": "indexTree",
          "type": "uint256"
        },
        {
          "internalType": "address",
          "name": "heroAddress",
          "type": "address"
        },
        {
          "internalType": "string",
          "name": "heroName_",
          "type": "string"
        },
        {
          "internalType": "bool",
          "name": "enter",
          "type": "bool"
        }
      ],
      "name": "create",
      "outputs": [],
      "stateMutability": "nonpayable",
      "type": "function"
    },
    {
      "inputs": [],
      "name": "gameToken",
      "outputs": [
        {
          "internalType": "contract IERC20",
          "name": "",
          "type": "address"
        }
      ],
      "stateMutability": "view",
      "type": "function"
    },
    {
      "inputs": [],
      "name": "heroController",
      "outputs": [
        {
          "internalType": "contract IHeroController",
          "name": "",
          "type": "address"
        }
      ],
      "stateMutability": "view",
      "type": "function"
    },
    {
      "inputs": [
        {
          "internalType": "bytes32",
          "name": "merkleRoot",
          "type": "bytes32"
        },
        {
          "internalType": "address",
          "name": "user",
          "type": "address"
        }
      ],
      "name": "heroesAvailable",
      "outputs": [
        {
          "internalType": "uint256",
          "name": "heroesAvailable",
          "type": "uint256"
        }
      ],
      "stateMutability": "view",
      "type": "function"
    },
    {
      "inputs": [
        {
          "internalType": "address",
          "name": "forwarder",
          "type": "address"
        }
      ],
      "name": "isTrustedForwarder",
      "outputs": [
        {
          "internalType": "bool",
          "name": "",
          "type": "bool"
        }
      ],
      "stateMutability": "view",
      "type": "function"
    },
    {
      "inputs": [
        {
          "internalType": "uint256",
          "name": "",
          "type": "uint256"
        }
      ],
      "name": "merkleRoots",
      "outputs": [
        {
          "internalType": "bytes32",
          "name": "",
          "type": "bytes32"
        }
      ],
      "stateMutability": "view",
      "type": "function"
    },
    {
      "inputs": [],
      "name": "merkleRootsLength",
      "outputs": [
        {
          "internalType": "uint256",
          "name": "",
          "type": "uint256"
        }
      ],
      "stateMutability": "view",
      "type": "function"
    },
    {
      "inputs": [
        {
          "internalType": "address",
          "name": "",
          "type": "address"
        },
        {
          "internalType": "address",
          "name": "",
          "type": "address"
        },
        {
          "internalType": "uint256",
          "name": "",
          "type": "uint256"
        },
        {
          "internalType": "bytes",
          "name": "",
          "type": "bytes"
        }
      ],
      "name": "onERC721Received",
      "outputs": [
        {
          "internalType": "bytes4",
          "name": "",
          "type": "bytes4"
        }
      ],
      "stateMutability": "nonpayable",
      "type": "function"
    },
    {
      "inputs": [
        {
          "internalType": "address",
          "name": "receiver_",
          "type": "address"
        },
        {
          "internalType": "address",
          "name": "token_",
          "type": "address"
        },
        {
          "internalType": "uint256",
          "name": "amount_",
          "type": "uint256"
        }
      ],
      "name": "salvage",
      "outputs": [],
      "stateMutability": "nonpayable",
      "type": "function"
    },
    {
      "inputs": [
        {
          "internalType": "address",
          "name": "user",
          "type": "address"
        }
      ],
      "name": "userInfo",
      "outputs": [
        {
          "internalType": "bool[]",
          "name": "claimStartedOut",
          "type": "bool[]"
        },
        {
          "internalType": "uint256[]",
          "name": "heroesAvailableOut",
          "type": "uint256[]"
        }
      ],
      "stateMutability": "view",
      "type": "function"
    },
    {
      "inputs": [
        {
          "internalType": "bytes32[]",
          "name": "proof",
          "type": "bytes32[]"
        },
        {
          "internalType": "address",
          "name": "addr",
          "type": "address"
        },
        {
          "internalType": "uint256",
          "name": "amount",
          "type": "uint256"
        },
        {
          "internalType": "uint256",
          "name": "indexTree",
          "type": "uint256"
        }
      ],
      "name": "verify",
      "outputs": [
        {
          "internalType": "bool",
          "name": "",
          "type": "bool"
        }
      ],
      "stateMutability": "view",
      "type": "function"
    }
  ],
  "transactionHash": "0xbc1849b8a507290b5d83c1d76e427dc92f2f4adb6e5374800e1197cecc07ce7c",
  "args": [
    "0x498a2f15c16C9e9819A5207649Bf90ffc8474702"
  ],
  "numDeployments": 1,
  "solcInputHash": "d2c49af31f67d4488cc2948f7f5d03ad",
  "bytecode": "0x60e06040523480156200001157600080fd5b50604051620014cf380380620014cf8339810160408190526200003491620001c2565b806001600160a01b031660c0816001600160a01b0316815250506000816001600160a01b031663c3dfdae66040518163ffffffff1660e01b8152600401602060405180830381865afa1580156200008f573d6000803e3d6000fd5b505050506040513d601f19601f82011682018060405250810190620000b59190620001c2565b9050806001600160a01b031660a0816001600160a01b0316815250506000826001600160a01b031663016dff5d6040518163ffffffff1660e01b8152600401602060405180830381865afa15801562000112573d6000803e3d6000fd5b505050506040513d601f19601f82011682018060405250810190620001389190620001c2565b6001600160a01b0381811660805260405163095ea7b360e01b81528582166004820152600019602482015291925083169063095ea7b3906044016020604051808303816000875af115801562000192573d6000803e3d6000fd5b505050506040513d601f19601f82011682018060405250810190620001b89190620001f4565b5050505062000218565b600060208284031215620001d557600080fd5b81516001600160a01b0381168114620001ed57600080fd5b9392505050565b6000602082840312156200020757600080fd5b81518015158114620001ed57600080fd5b60805160a05160c0516112656200026a600039600081816102440152818161029d015261057401526000818161021d015261065501526000818160c4015281816108130152610a5101526112656000f3fe608060405234801561001057600080fd5b50600436106100ba5760003560e01c8063016dff5d146100bf5780631113ef52146100fc578063150b7a02146101115780631959a002146101485780634e60f55714610169578063572b6c051461017b578063590327051461019e57806371c5ecb1146101b157806385d4773c146101c4578063919c1fcd146101d7578063b368787114610205578063c3dfdae614610218578063f77c47911461023f578063fa0a923314610266575b600080fd5b6100e67f000000000000000000000000000000000000000000000000000000000000000081565b6040516100f39190610c6b565b60405180910390f35b61010f61010a366004610c97565b610291565b005b61012f61011f366004610d75565b630a85bd0160e11b949350505050565b6040516001600160e01b031990911681526020016100f3565b61015b610156366004610df4565b6103c6565b6040516100f3929190610e11565b6000545b6040519081526020016100f3565b61018e610189366004610df4565b610519565b60405190151581526020016100f3565b61010f6101ac366004610e8e565b610568565b61016d6101bf366004610eb0565b61075d565b61018e6101d2366004610f48565b61077e565b61018e6101e5366004610fa6565b600160209081526000928352604080842090915290825290205460ff1681565b61010f610213366004610fe4565b6107fb565b6100e67f000000000000000000000000000000000000000000000000000000000000000081565b6100e67f000000000000000000000000000000000000000000000000000000000000000081565b61016d610274366004610fa6565b600260209081526000928352604080842090915290825290205481565b336001600160a01b03167f00000000000000000000000000000000000000000000000000000000000000006001600160a01b0316635aa6e6756040518163ffffffff1660e01b8152600401602060405180830381865afa1580156102f9573d6000803e3d6000fd5b505050506040513d601f19601f8201168201806040525081019061031d9190611096565b6001600160a01b03161461034f573360405163f652640360e01b81526004016103469190610c6b565b60405180910390fd5b60405163a9059cbb60e01b81526001600160a01b0383169063a9059cbb9061037d90869085906004016110b3565b6020604051808303816000875af115801561039c573d6000803e3d6000fd5b505050506040513d601f19601f820116820180604052508101906103c091906110cc565b50505050565b6000546060908190806001600160401b038111156103e6576103e6610cd8565b60405190808252806020026020018201604052801561040f578160200160208202803683370190505b509250806001600160401b0381111561042a5761042a610cd8565b604051908082528060200260200182016040528015610453578160200160208202803683370190505b50915060005b81811015610512576000808281548110610475576104756110e9565b60009182526020808320909101548083526001825260408084206001600160a01b038b168552909252912054865191925060ff16908690849081106104bc576104bc6110e9565b91151560209283029190910182015260008281526002825260408082206001600160a01b038a168352909252205484518590849081106104fe576104fe6110e9565b602090810291909101015250600101610459565b5050915091565b60006001600160a01b03821673d8253782c45a12053594b9deb72d8e8ab2fca54c148061056257506001600160a01b0382167352ceba41da235af367bfc0b0ccd3314cb901bb5f145b92915050565b336001600160a01b03167f00000000000000000000000000000000000000000000000000000000000000006001600160a01b0316635aa6e6756040518163ffffffff1660e01b8152600401602060405180830381865afa1580156105d0573d6000803e3d6000fd5b505050506040513d601f19601f820116820180604052508101906105f49190611096565b6001600160a01b03161461061d573360405163988d1f0360e01b81526004016103469190610c6b565b8060000361063e57604051631f2a200560e01b815260040160405180910390fd5b6040516323b872dd60e01b81526001600160a01b037f000000000000000000000000000000000000000000000000000000000000000016906323b872dd9061068e903390309086906004016110ff565b6020604051808303816000875af11580156106ad573d6000803e3d6000fd5b505050506040513d601f19601f820116820180604052508101906106d191906110cc565b5060008054905b818110156107255783600082815481106106f4576106f46110e9565b90600052602060002001540361071d57604051630ea075bf60e21b815260040160405180910390fd5b6001016106d8565b5050600080546001810182559080527f290decd9548b62a8d60345a988386fc84ba6bc95484008f6362f93160ef3e563019190915550565b6000818154811061076d57600080fd5b600091825260209091200154905081565b60008084846040516020016107949291906110b3565b60408051601f19818403018152828252805160209182012090830152016040516020818303038152906040528051906020012090506107f186600085815481106107e0576107e06110e9565b906000526020600020015483610b7b565b9695505050505050565b610803610b91565b600061080d610bba565b905060007f00000000000000000000000000000000000000000000000000000000000000006001600160a01b0316631789b7b1866040518263ffffffff1660e01b815260040161085d9190610c6b565b602060405180830381865afa15801561087a573d6000803e3d6000fd5b505050506040513d601f19601f8201168201806040525081019061089e9190611123565b60ff1690508015806108b1575060058110155b156108cf57604051630d086d5560e41b815260040160405180910390fd5b60008087815481106108e3576108e36110e9565b60009182526020808320909101548083526001825260408084206001600160a01b038816855290925291205490915060ff16156109925760008181526002602090815260408083206001600160a01b03871684529091528120549081900361095e57604051630a600db160e01b815260040160405180910390fd5b610969600182611146565b60008381526002602090815260408083206001600160a01b038916845290915290205550610a37565b876000036109b357604051631f2a200560e01b815260040160405180910390fd5b6109bf89848a8a61077e565b6109dc576040516309bde33960e01b815260040160405180910390fd5b60008181526001602081815260408084206001600160a01b0388168552909152909120805460ff191682179055610a139089611146565b60008281526002602090815260408083206001600160a01b03881684529091529020555b60405163d360a9c160e01b81526000906001600160a01b037f0000000000000000000000000000000000000000000000000000000000000000169063d360a9c190610a8a908a908a908a906004016111ad565b6020604051808303816000875af1158015610aa9573d6000803e3d6000fd5b505050506040513d601f19601f82011682018060405250810190610acd91906111e3565b604051632142170760e11b81529091506001600160a01b038816906342842e0e90610b00903090889086906004016110ff565b600060405180830381600087803b158015610b1a57600080fd5b505af1158015610b2e573d6000803e3d6000fd5b505050507f8a1ce4f498bea44f8a3ef06ce5decbeaac361da0712cdc5bfb7b7029f4ee219f84888389604051610b6794939291906111fc565b60405180910390a150505050505050505050565b600082610b888584610bdc565b14949350505050565b610b99610c1f565b610bb857336040516377817ac360e01b81526004016103469190610c6b565b565b6000610bc533610519565b15610bd7575060131936013560601c90565b503390565b600081815b8451811015610c1757610c0d82868381518110610c0057610c006110e9565b6020026020010151610c39565b9150600101610be1565b509392505050565b6000610c2a33610519565b80610c3457503332145b905090565b6000818310610c55576000828152602084905260409020610c64565b60008381526020839052604090205b9392505050565b6001600160a01b0391909116815260200190565b6001600160a01b0381168114610c9457600080fd5b50565b600080600060608486031215610cac57600080fd5b8335610cb781610c7f565b92506020840135610cc781610c7f565b929592945050506040919091013590565b634e487b7160e01b600052604160045260246000fd5b604051601f8201601f191681016001600160401b0381118282101715610d1657610d16610cd8565b604052919050565b60006001600160401b03831115610d3757610d37610cd8565b610d4a601f8401601f1916602001610cee565b9050828152838383011115610d5e57600080fd5b828260208301376000602084830101529392505050565b60008060008060808587031215610d8b57600080fd5b8435610d9681610c7f565b93506020850135610da681610c7f565b92506040850135915060608501356001600160401b03811115610dc857600080fd5b8501601f81018713610dd957600080fd5b610de887823560208401610d1e565b91505092959194509250565b600060208284031215610e0657600080fd5b8135610c6481610c7f565b604080825283519082018190526000906020906060840190828701845b82811015610e4c578151151584529284019290840190600101610e2e565b5050508381038285015284518082528583019183019060005b81811015610e8157835183529284019291840191600101610e65565b5090979650505050505050565b60008060408385031215610ea157600080fd5b50508035926020909101359150565b600060208284031215610ec257600080fd5b5035919050565b600082601f830112610eda57600080fd5b813560206001600160401b03821115610ef557610ef5610cd8565b8160051b610f04828201610cee565b9283528481018201928281019087851115610f1e57600080fd5b83870192505b84831015610f3d57823582529183019190830190610f24565b979650505050505050565b60008060008060808587031215610f5e57600080fd5b84356001600160401b03811115610f7457600080fd5b610f8087828801610ec9565b9450506020850135610f9181610c7f565b93969395505050506040820135916060013590565b60008060408385031215610fb957600080fd5b823591506020830135610fcb81610c7f565b809150509250929050565b8015158114610c9457600080fd5b60008060008060008060c08789031215610ffd57600080fd5b86356001600160401b038082111561101457600080fd5b6110208a838b01610ec9565b975060208901359650604089013595506060890135915061104082610c7f565b9093506080880135908082111561105657600080fd5b508701601f8101891361106857600080fd5b61107789823560208401610d1e565b92505060a087013561108881610fd6565b809150509295509295509295565b6000602082840312156110a857600080fd5b8151610c6481610c7f565b6001600160a01b03929092168252602082015260400190565b6000602082840312156110de57600080fd5b8151610c6481610fd6565b634e487b7160e01b600052603260045260246000fd5b6001600160a01b039384168152919092166020820152604081019190915260600190565b60006020828403121561113557600080fd5b815160ff81168114610c6457600080fd5b8181038181111561056257634e487b7160e01b600052601160045260246000fd5b6000815180845260005b8181101561118d57602081850181015186830182015201611171565b506000602082860101526020601f19601f83011685010191505092915050565b6001600160a01b03841681526060602082018190526000906111d190830185611167565b90508215156040830152949350505050565b6000602082840312156111f557600080fd5b5051919050565b6001600160a01b03858116825284166020820152604081018390526080606082018190526000906107f19083018461116756fea264697066735822122039e214204c07db22d23bb0e44a569107fc929f9bd5ab0662e1b0240767a0148e64736f6c63430008170033",
  "devdoc": {
    "kind": "dev",
    "methods": {
      "addTree(bytes32,uint256)": {
        "params": {
          "amount": "Total fee required to create all heroes from the tree. The given amount of {gameToken} will be transferred from the signer to the balance. Pass 0 to skip transferring."
        }
      },
      "constructor": {
        "details": "Use {addTree} to registry first tree"
      },
      "create(bytes32[],uint256,uint256,address,string,bool)": {
        "params": {
          "indexTree": "Index of the required tree in {merkleRoots}. The merkle tree is selected by signer off-chain according to data received through {userInfo}."
        }
      },
      "onERC721Received(address,address,uint256,bytes)": {
        "details": "See {IERC721Receiver-onERC721Received}. Always returns `IERC721Receiver.onERC721Received.selector`."
      },
      "userInfo(address)": {
        "returns": {
          "claimStartedOut": "Values of is-claim-started for each registered merkle tree",
          "heroesAvailableOut": "Count of heroes available for each registered merkle tree. If claiming for the given tree is not started heroesAvailable is 0 because the value is initialized at the first call of create()."
        }
      }
    },
    "stateVariables": {
      "heroesAvailable": {
        "details": "lazy initialization of first create"
      },
      "merkleRoots": {
        "details": "First tree is registered in constructor. Other trees can be added later using {addTree}"
      }
    },
    "version": 1
  },
  "userdoc": {
    "kind": "user",
    "methods": {
      "addTree(bytes32,uint256)": {
        "notice": "Register a merkle tree"
      },
      "claimStarted(bytes32,address)": {
        "notice": "merkleRoot => claimant => started claim marker"
      },
      "create(bytes32[],uint256,uint256,address,string,bool)": {
        "notice": "Create new hero using. Verification is made using merkle tree with the given {indexTree}.Signer should put enough game token on balance of the contract before the call. Simplest way to do it is to approve {heroCreationFee} amount and call {sendHeroCreationFee}"
      },
      "heroesAvailable(bytes32,address)": {
        "notice": "merkleRoot => claimant => remain available heroes (or 0 if the claim is not started)"
      },
      "merkleRoots(uint256)": {
        "notice": "List of roots of registered merkle trees"
      },
      "merkleRootsLength()": {
        "notice": "Total count of registered merkle trees >= 1"
      },
      "verify(bytes32[],address,uint256,uint256)": {
        "notice": "Try to verify using the merkle tree with the given {indexTree}"
      }
    },
    "version": 1
  },
  "storageLayout": {
    "storage": [
      {
        "astId": 134654,
        "contract": "contracts/tools/SponsoredHero.sol:SponsoredHero",
        "label": "merkleRoots",
        "offset": 0,
        "slot": "0",
        "type": "t_array(t_bytes32)dyn_storage"
      },
      {
        "astId": 134661,
        "contract": "contracts/tools/SponsoredHero.sol:SponsoredHero",
        "label": "claimStarted",
        "offset": 0,
        "slot": "1",
        "type": "t_mapping(t_bytes32,t_mapping(t_address,t_bool))"
      },
      {
        "astId": 134668,
        "contract": "contracts/tools/SponsoredHero.sol:SponsoredHero",
        "label": "heroesAvailable",
        "offset": 0,
        "slot": "2",
        "type": "t_mapping(t_bytes32,t_mapping(t_address,t_uint256))"
      }
    ],
    "types": {
      "t_address": {
        "encoding": "inplace",
        "label": "address",
        "numberOfBytes": "20"
      },
      "t_array(t_bytes32)dyn_storage": {
        "base": "t_bytes32",
        "encoding": "dynamic_array",
        "label": "bytes32[]",
        "numberOfBytes": "32"
      },
      "t_bool": {
        "encoding": "inplace",
        "label": "bool",
        "numberOfBytes": "1"
      },
      "t_bytes32": {
        "encoding": "inplace",
        "label": "bytes32",
        "numberOfBytes": "32"
      },
      "t_mapping(t_address,t_bool)": {
        "encoding": "mapping",
        "key": "t_address",
        "label": "mapping(address => bool)",
        "numberOfBytes": "32",
        "value": "t_bool"
      },
      "t_mapping(t_address,t_uint256)": {
        "encoding": "mapping",
        "key": "t_address",
        "label": "mapping(address => uint256)",
        "numberOfBytes": "32",
        "value": "t_uint256"
      },
      "t_mapping(t_bytes32,t_mapping(t_address,t_bool))": {
        "encoding": "mapping",
        "key": "t_bytes32",
        "label": "mapping(bytes32 => mapping(address => bool))",
        "numberOfBytes": "32",
        "value": "t_mapping(t_address,t_bool)"
      },
      "t_mapping(t_bytes32,t_mapping(t_address,t_uint256))": {
        "encoding": "mapping",
        "key": "t_bytes32",
        "label": "mapping(bytes32 => mapping(address => uint256))",
        "numberOfBytes": "32",
        "value": "t_mapping(t_address,t_uint256)"
      },
      "t_uint256": {
        "encoding": "inplace",
        "label": "uint256",
        "numberOfBytes": "32"
      }
    }
  }
}