{
  "address": "0xA3b0746E467e709C99baA6635D4Df0a1CFdfFEE8",
  "abi": [
    {
      "inputs": [
        {
          "internalType": "uint256",
          "name": "x",
          "type": "uint256"
        }
      ],
      "name": "TooLowX",
      "type": "error"
    },
    {
      "inputs": [
        {
          "internalType": "uint256",
          "name": "heroClass",
          "type": "uint256"
        }
      ],
      "name": "UnknownHeroClass",
      "type": "error"
    },
    {
      "inputs": [
        {
          "internalType": "uint256",
          "name": "heroClass",
          "type": "uint256"
        }
      ],
      "name": "baseLifeChances",
      "outputs": [
        {
          "internalType": "int32",
          "name": "",
          "type": "int32"
        }
      ],
      "stateMutability": "view",
      "type": "function"
    },
    {
      "inputs": [
        {
          "internalType": "int32",
          "name": "attackersAttackRating",
          "type": "int32"
        },
        {
          "internalType": "int32",
          "name": "defendersDefenceRating",
          "type": "int32"
        },
        {
          "internalType": "int32",
          "name": "attackersLevel",
          "type": "int32"
        },
        {
          "internalType": "int32",
          "name": "defendersLevel",
          "type": "int32"
        },
        {
          "internalType": "int32",
          "name": "arFactor",
          "type": "int32"
        }
      ],
      "name": "chanceToHit",
      "outputs": [
        {
          "internalType": "uint256",
          "name": "",
          "type": "uint256"
        }
      ],
      "stateMutability": "pure",
      "type": "function"
    },
    {
      "inputs": [
        {
          "internalType": "uint256",
          "name": "exp",
          "type": "uint256"
        },
        {
          "internalType": "uint256",
          "name": "startFromLevel",
          "type": "uint256"
        }
      ],
      "name": "experienceToLvl",
      "outputs": [
        {
          "internalType": "uint256",
          "name": "",
          "type": "uint256"
        }
      ],
      "stateMutability": "pure",
      "type": "function"
    },
    {
      "inputs": [
        {
          "internalType": "uint32",
          "name": "level",
          "type": "uint32"
        }
      ],
      "name": "levelExperience",
      "outputs": [
        {
          "internalType": "uint256",
          "name": "",
          "type": "uint256"
        }
      ],
      "stateMutability": "pure",
      "type": "function"
    },
    {
      "inputs": [
        {
          "internalType": "int32",
          "name": "strength",
          "type": "int32"
        },
        {
          "internalType": "uint256",
          "name": "heroClass",
          "type": "uint256"
        }
      ],
      "name": "minDamage",
      "outputs": [
        {
          "internalType": "int32",
          "name": "",
          "type": "int32"
        }
      ],
      "stateMutability": "view",
      "type": "function"
    },
    {
      "inputs": [
        {
          "internalType": "uint256",
          "name": "heroClass",
          "type": "uint256"
        }
      ],
      "name": "startHeroAttributes",
      "outputs": [
        {
          "components": [
            {
              "internalType": "int32",
              "name": "strength",
              "type": "int32"
            },
            {
              "internalType": "int32",
              "name": "dexterity",
              "type": "int32"
            },
            {
              "internalType": "int32",
              "name": "vitality",
              "type": "int32"
            },
            {
              "internalType": "int32",
              "name": "energy",
              "type": "int32"
            }
          ],
          "internalType": "struct IStatController.CoreAttributes",
          "name": "",
          "type": "tuple"
        },
        {
          "components": [
            {
              "internalType": "uint256",
              "name": "minDamage",
              "type": "uint256"
            },
            {
              "internalType": "uint256",
              "name": "maxDamage",
              "type": "uint256"
            },
            {
              "internalType": "uint256",
              "name": "attackRating",
              "type": "uint256"
            },
            {
              "internalType": "uint256",
              "name": "defense",
              "type": "uint256"
            },
            {
              "internalType": "uint256",
              "name": "blockRating",
              "type": "uint256"
            },
            {
              "internalType": "uint256",
              "name": "life",
              "type": "uint256"
            },
            {
              "internalType": "uint256",
              "name": "mana",
              "type": "uint256"
            }
          ],
          "internalType": "struct StatLib.BaseMultiplier",
          "name": "",
          "type": "tuple"
        },
        {
          "components": [
            {
              "internalType": "uint256",
              "name": "life",
              "type": "uint256"
            },
            {
              "internalType": "uint256",
              "name": "mana",
              "type": "uint256"
            }
          ],
          "internalType": "struct StatLib.LevelUp",
          "name": "",
          "type": "tuple"
        }
      ],
      "stateMutability": "view",
      "type": "function"
    }
  ],
  "transactionHash": "0xf92f6bb30be3786b1e197a25c681f371110c337e286551c31c34b13053eb4f9c",
  "args": [],
  "numDeployments": 5,
  "solcInputHash": "469f89b788f48678cfe1a8f9b5f43301",
  "bytecode": "0x608060405234801561001057600080fd5b50610fe4806100206000396000f3fe608060405234801561001057600080fd5b50600436106100625760003560e01c806338ce43c91461006757806339f596731461008d5780633e4d93f6146100a05780636b8b3d83146100b357806395d43349146100d9578063aa19afa8146100ec575b600080fd5b61007a610075366004610d52565b61010e565b6040519081526020015b60405180910390f35b61007a61009b366004610d86565b610123565b61007a6100ae366004610deb565b610173565b6100c66100c1366004610e18565b61018a565b60405160039190910b8152602001610084565b6100c66100e7366004610e31565b61019f565b6100ff6100fa366004610e18565b6101ab565b60405161008493929190610e5b565b600061011a83836101f4565b90505b92915050565b60006101696101348760030b610227565b6101408760030b610227565b61014c8760030b610227565b6101588760030b610227565b6101648760030b610227565b610256565b9695505050505050565b600061017e8261035d565b63ffffffff1692915050565b6000610195826103fe565b6060015192915050565b600061011a838361048c565b6101b3610c9f565b6101bb610cc6565b604080518082019091526000808252602082015260006101da856103fe565b805160208201516040909201519097919650945092505050565b805b606381101561011d5761020a836001610f0e565b6102138261035d565b63ffffffff16101561011d576001016101f6565b6000808260030b121561023c57506000919050565b60008260030b1361024f57506000919050565b5060030b90565b600060646102648388610f21565b61026e9190610f38565b6102789087610f0e565b955060006102878760016104c6565b9050600061029f610298888a610f0e565b60016104c6565b90508560006102af600288610f38565b90506000836102c686670de0b6b3a7640000610f21565b6102d09190610f38565b905060006102de838b610f0e565b6102f085670de0b6b3a7640000610f21565b6102fa9190610f38565b90506000670de0b6b3a764000082610313856002610f21565b61031d9190610f21565b6103279190610f38565b905061034c61033e82670d2f13f7789f00006104dc565b6702c68af0bb1400006104c6565b9d9c50505050505050505050505050565b600063ffffffff821615806103795750606363ffffffff831610155b1561038657506000919050565b670de0b6b3a76400006103c561039d846063610f5a565b6103a8906002610f7e565b6103c09063ffffffff16670de0b6b3a7640000610f21565b6104eb565b6103d790675cfb2e807b1e0000610f9b565b6103ea620186a063ffffffff8616610f21565b6103f49190610f21565b61011d9190610f38565b610406610d03565b816001036104165761011d6105cc565b816002036104265761011d6106bc565b816003036104365761011d6107e8565b816004036104465761011d6108d8565b816005036104565761011d6109c8565b816006036104665761011d610ab8565b604051635613365f60e11b8152600481018390526024015b60405180910390fd5b919050565b6000670de0b6b3a76400006104a0836103fe565b60200151516104b2600386900b610227565b6104bc9190610f21565b61011a9190610f38565b60008183116104d5578161011a565b5090919050565b60008183106104d5578161011a565b6000670de0b6b3a764000082101561051957604051637046c4a960e01b81526004810183905260240161047e565b6000610535610530670de0b6b3a764000085610f38565b610ba8565b9050600061054b82670de0b6b3a7640000610f21565b905083821c670de0b6b3a764000081900361056857509392505050565b6706f05b59d3b200005b80156105c257670de0b6b3a764000061058b8380610f21565b6105959190610f38565b9150671bc16d674ec8000082106105ba576105b08184610f0e565b9250600182901c91505b60011c610572565b5090949350505050565b6105d4610d03565b60405180608001604052806040518060800160405280600f60030b8152602001600f60030b8152602001601e60030b8152602001600a60030b81525081526020016040518060e0016040528067016345785d8a000081526020016702c68af0bb1400008152602001671bc16d674ec800008152602001671bc16d674ec80000815260200167016345785d8a000081526020016714d1120d7b16000081526020016706f05b59d3b2000081525081526020016040518060400160405280671bc16d674ec800008152602001670de0b6b3a76400008152508152602001600560030b815250905090565b6106c4610d03565b60006106ce610c87565b6040805161010081018252601e60808201908152600560a0830152601960c0830152600a60e0808401919091529082528251908101909252670214e8348c4f0000825291925060208083019190810184610730576706f05b59d3b2000061073a565b6703782dace9d900005b67ffffffffffffffff1681526020018461075c576729a2241af62c0000610766565b671bc16d674ec800005b67ffffffffffffffff168152602001670de0b6b3a7640000815260200167011c37937e080000815260200167120a871cc002000081526020016706f05b59d3b20000815250815260200160405180604001604052806718fae27693b400008152602001670de0b6b3a76400008152508152602001600560030b81525091505090565b6107f0610d03565b60405180608001604052806040518060800160405280600a60030b8152602001600f60030b8152602001601460030b8152602001601960030b81525081526020016040518060e0016040528067016345785d8a000081526020016702c68af0bb1400008152602001671bc16d674ec800008152602001670de0b6b3a7640000815260200167016345785d8a00008152602001670de0b6b3a76400008152602001671bc16d674ec800008152508152602001604051806040016040528067120a871cc00200008152602001671bc16d674ec800008152508152602001600560030b815250905090565b6108e0610d03565b60405180608001604052806040518060800160405280600f60030b8152602001601960030b8152602001600f60030b8152602001600f60030b81525081526020016040518060e0016040528067016345785d8a000081526020016702c68af0bb1400008152602001673782dace9d90000081526020016729a2241af62c000081526020016702c68af0bb14000081526020016710a741a4627800008152602001670de0b6b3a7640000815250815260200160405180604001604052806717979cfe362a000081526020016714d1120d7b1600008152508152602001600560030b815250905090565b6109d0610d03565b60405180608001604052806040518060800160405280601460030b8152602001601460030b8152602001601460030b8152602001600a60030b81525081526020016040518060e00160405280670214e8348c4f000081526020016703782dace9d9000081526020016729a2241af62c000081526020016722b1c8c1227a00008152602001670214e8348c4f000081526020016714d1120d7b16000081526020016714d1120d7b160000815250815260200160405180604001604052806714d1120d7b16000081526020016714d1120d7b1600008152508152602001600160030b815250905090565b610ac0610d03565b60405180608001604052806040518060800160405280603260030b8152602001601e60030b8152602001603260030b8152602001600f60030b81525081526020016040518060e001604052806702c68af0bb1400008152602001670429d069189e00008152602001674563918244f4000081526020016729a2241af62c00008152602001670214e8348c4f00008152602001671bc16d674ec800008152602001671bc16d674ec80000815250815260200160405180604001604052806717979cfe362a000081526020016714d1120d7b1600008152508152602001600160030b815250905090565b6000600160801b8210610bc857608091821c91610bc59082610f0e565b90505b600160401b8210610be657604091821c91610be39082610f0e565b90505b6401000000008210610c0557602091821c91610c029082610f0e565b90505b620100008210610c2257601091821c91610c1f9082610f0e565b90505b6101008210610c3e57600891821c91610c3b9082610f0e565b90505b60108210610c5957600491821c91610c569082610f0e565b90505b60048210610c7457600291821c91610c719082610f0e565b90505b600282106104875761011d600182610f0e565b60006201b254461480610c9a575060fa46145b905090565b60408051608081018252600080825260208201819052918101829052606081019190915290565b6040518060e00160405280600081526020016000815260200160008152602001600081526020016000815260200160008152602001600081525090565b6040518060800160405280610d16610c9f565b8152602001610d23610cc6565b8152602001610d45604051806040016040528060008152602001600081525090565b8152600060209091015290565b60008060408385031215610d6557600080fd5b50508035926020909101359150565b8035600381900b811461048757600080fd5b600080600080600060a08688031215610d9e57600080fd5b610da786610d74565b9450610db560208701610d74565b9350610dc360408701610d74565b9250610dd160608701610d74565b9150610ddf60808701610d74565b90509295509295909350565b600060208284031215610dfd57600080fd5b813563ffffffff81168114610e1157600080fd5b9392505050565b600060208284031215610e2a57600080fd5b5035919050565b60008060408385031215610e4457600080fd5b610e4d83610d74565b946020939093013593505050565b60006101a082019050845160030b8252602085015160030b6020830152604085015160030b6040830152606085015160030b606083015283516080830152602084015160a0830152604084015160c0830152606084015160e0830152608084015161010083015260a084015161012083015260c0840151610140830152610ef061016083018480518252602090810151910152565b949350505050565b634e487b7160e01b600052601160045260246000fd5b8082018082111561011d5761011d610ef8565b808202811582820484141761011d5761011d610ef8565b600082610f5557634e487b7160e01b600052601260045260246000fd5b500490565b63ffffffff828116828216039080821115610f7757610f77610ef8565b5092915050565b63ffffffff818116838216019080821115610f7757610f77610ef8565b8181038181111561011d5761011d610ef856fea2646970667358221220d9474e0171d65ca8856340594d17ad040e729b329d519fa903e2657d7345d7f464736f6c63430008170033",
  "devdoc": {
    "kind": "dev",
    "methods": {},
    "version": 1
  },
  "userdoc": {
    "kind": "user",
    "methods": {},
    "version": 1
  },
  "storageLayout": {
    "storage": [],
    "types": null
  }
}