{
  "address": "0xf163d9DDAF07aA67197C7ea986f4D143BD2c9229",
  "abi": [
    {
      "inputs": [
        {
          "internalType": "uint16",
          "name": "pageId",
          "type": "uint16"
        },
        {
          "internalType": "uint16",
          "name": "pageIdFromAnswerHash",
          "type": "uint16"
        }
      ],
      "name": "AnswerPageIdMismatch",
      "type": "error"
    },
    {
      "inputs": [
        {
          "internalType": "uint16",
          "name": "storyId",
          "type": "uint16"
        },
        {
          "internalType": "uint16",
          "name": "storyIdFromAnswerHash",
          "type": "uint16"
        }
      ],
      "name": "AnswerStoryIdMismatch",
      "type": "error"
    },
    {
      "inputs": [
        {
          "internalType": "address",
          "name": "sender",
          "type": "address"
        }
      ],
      "name": "ErrorNotDeployer",
      "type": "error"
    },
    {
      "inputs": [
        {
          "internalType": "address",
          "name": "sender",
          "type": "address"
        }
      ],
      "name": "ErrorNotObjectController",
      "type": "error"
    },
    {
      "inputs": [],
      "name": "InvalidInitialization",
      "type": "error"
    },
    {
      "inputs": [],
      "name": "NotAnswer",
      "type": "error"
    },
    {
      "inputs": [
        {
          "internalType": "address",
          "name": "sender",
          "type": "address"
        }
      ],
      "name": "NotGovernance",
      "type": "error"
    },
    {
      "inputs": [],
      "name": "NotInitializing",
      "type": "error"
    },
    {
      "inputs": [],
      "name": "ZeroStoryIdStoryAction",
      "type": "error"
    },
    {
      "anonymous": false,
      "inputs": [
        {
          "indexed": false,
          "internalType": "address",
          "name": "controller",
          "type": "address"
        },
        {
          "indexed": false,
          "internalType": "uint256",
          "name": "ts",
          "type": "uint256"
        },
        {
          "indexed": false,
          "internalType": "uint256",
          "name": "block",
          "type": "uint256"
        }
      ],
      "name": "ContractInitialized",
      "type": "event"
    },
    {
      "anonymous": false,
      "inputs": [
        {
          "indexed": false,
          "internalType": "uint64",
          "name": "version",
          "type": "uint64"
        }
      ],
      "name": "Initialized",
      "type": "event"
    },
    {
      "anonymous": false,
      "inputs": [
        {
          "indexed": false,
          "internalType": "address",
          "name": "heroToken",
          "type": "address"
        },
        {
          "indexed": false,
          "internalType": "uint256",
          "name": "heroTokenId",
          "type": "uint256"
        },
        {
          "indexed": false,
          "internalType": "uint64",
          "name": "dungeonId",
          "type": "uint64"
        },
        {
          "indexed": false,
          "internalType": "uint256",
          "name": "objectId",
          "type": "uint256"
        },
        {
          "indexed": false,
          "internalType": "address",
          "name": "nftToken",
          "type": "address"
        },
        {
          "indexed": false,
          "internalType": "uint256",
          "name": "nftId",
          "type": "uint256"
        },
        {
          "indexed": false,
          "internalType": "uint256",
          "name": "stageId",
          "type": "uint256"
        },
        {
          "indexed": false,
          "internalType": "uint256",
          "name": "iteration",
          "type": "uint256"
        }
      ],
      "name": "ItemBroken",
      "type": "event"
    },
    {
      "anonymous": false,
      "inputs": [
        {
          "indexed": false,
          "internalType": "uint256",
          "name": "value",
          "type": "uint256"
        },
        {
          "indexed": false,
          "internalType": "address",
          "name": "oldLogic",
          "type": "address"
        }
      ],
      "name": "RevisionIncreased",
      "type": "event"
    },
    {
      "inputs": [],
      "name": "CONTROLLABLE_VERSION",
      "outputs": [
        {
          "internalType": "string",
          "name": "",
          "type": "string"
        }
      ],
      "stateMutability": "view",
      "type": "function"
    },
    {
      "inputs": [],
      "name": "VERSION",
      "outputs": [
        {
          "internalType": "string",
          "name": "",
          "type": "string"
        }
      ],
      "stateMutability": "view",
      "type": "function"
    },
    {
      "inputs": [
        {
          "internalType": "uint256",
          "name": "amount",
          "type": "uint256"
        }
      ],
      "name": "adjustTokenAmountToGameToken",
      "outputs": [
        {
          "internalType": "uint256",
          "name": "",
          "type": "uint256"
        }
      ],
      "stateMutability": "view",
      "type": "function"
    },
    {
      "inputs": [
        {
          "internalType": "uint16",
          "name": "storyId",
          "type": "uint16"
        },
        {
          "internalType": "uint256",
          "name": "index",
          "type": "uint256"
        }
      ],
      "name": "allStoryAnswers",
      "outputs": [
        {
          "internalType": "bytes32",
          "name": "",
          "type": "bytes32"
        }
      ],
      "stateMutability": "view",
      "type": "function"
    },
    {
      "inputs": [
        {
          "internalType": "uint16",
          "name": "storyId",
          "type": "uint16"
        }
      ],
      "name": "allStoryAnswersLength",
      "outputs": [
        {
          "internalType": "uint256",
          "name": "",
          "type": "uint256"
        }
      ],
      "stateMutability": "view",
      "type": "function"
    },
    {
      "inputs": [
        {
          "internalType": "uint16",
          "name": "storyId",
          "type": "uint16"
        },
        {
          "internalType": "uint256",
          "name": "index",
          "type": "uint256"
        }
      ],
      "name": "allStoryPages",
      "outputs": [
        {
          "internalType": "uint256",
          "name": "",
          "type": "uint256"
        }
      ],
      "stateMutability": "view",
      "type": "function"
    },
    {
      "inputs": [
        {
          "internalType": "uint16",
          "name": "storyId",
          "type": "uint16"
        }
      ],
      "name": "allStoryPagesLength",
      "outputs": [
        {
          "internalType": "uint256",
          "name": "",
          "type": "uint256"
        }
      ],
      "stateMutability": "view",
      "type": "function"
    },
    {
      "inputs": [],
      "name": "controller",
      "outputs": [
        {
          "internalType": "address",
          "name": "",
          "type": "address"
        }
      ],
      "stateMutability": "view",
      "type": "function"
    },
    {
      "inputs": [],
      "name": "created",
      "outputs": [
        {
          "internalType": "uint256",
          "name": "",
          "type": "uint256"
        }
      ],
      "stateMutability": "view",
      "type": "function"
    },
    {
      "inputs": [],
      "name": "createdBlock",
      "outputs": [
        {
          "internalType": "uint256",
          "name": "",
          "type": "uint256"
        }
      ],
      "stateMutability": "view",
      "type": "function"
    },
    {
      "inputs": [
        {
          "internalType": "uint16",
          "name": "storyId",
          "type": "uint16"
        },
        {
          "internalType": "address",
          "name": "hero",
          "type": "address"
        },
        {
          "internalType": "uint80",
          "name": "heroId",
          "type": "uint80"
        }
      ],
      "name": "currentHeroAnswers",
      "outputs": [
        {
          "internalType": "bytes32[]",
          "name": "",
          "type": "bytes32[]"
        }
      ],
      "stateMutability": "view",
      "type": "function"
    },
    {
      "inputs": [
        {
          "internalType": "uint16",
          "name": "storyId",
          "type": "uint16"
        },
        {
          "internalType": "uint32",
          "name": "objectId",
          "type": "uint32"
        },
        {
          "internalType": "uint256",
          "name": "buildHash",
          "type": "uint256"
        }
      ],
      "name": "finalizeStoryRegistration",
      "outputs": [],
      "stateMutability": "nonpayable",
      "type": "function"
    },
    {
      "inputs": [
        {
          "internalType": "address",
          "name": "hero",
          "type": "address"
        },
        {
          "internalType": "uint80",
          "name": "heroId",
          "type": "uint80"
        },
        {
          "internalType": "uint16",
          "name": "storyId",
          "type": "uint16"
        }
      ],
      "name": "heroPage",
      "outputs": [
        {
          "internalType": "uint16",
          "name": "pageId",
          "type": "uint16"
        }
      ],
      "stateMutability": "view",
      "type": "function"
    },
    {
      "inputs": [
        {
          "internalType": "uint16",
          "name": "storyId",
          "type": "uint16"
        }
      ],
      "name": "idToStory",
      "outputs": [
        {
          "internalType": "uint32",
          "name": "",
          "type": "uint32"
        }
      ],
      "stateMutability": "view",
      "type": "function"
    },
    {
      "inputs": [
        {
          "internalType": "address",
          "name": "oldLogic",
          "type": "address"
        }
      ],
      "name": "increaseRevision",
      "outputs": [],
      "stateMutability": "nonpayable",
      "type": "function"
    },
    {
      "inputs": [
        {
          "internalType": "address",
          "name": "controller_",
          "type": "address"
        }
      ],
      "name": "init",
      "outputs": [],
      "stateMutability": "nonpayable",
      "type": "function"
    },
    {
      "inputs": [
        {
          "internalType": "address",
          "name": "value_",
          "type": "address"
        }
      ],
      "name": "isController",
      "outputs": [
        {
          "internalType": "bool",
          "name": "",
          "type": "bool"
        }
      ],
      "stateMutability": "view",
      "type": "function"
    },
    {
      "inputs": [
        {
          "internalType": "address",
          "name": "value_",
          "type": "address"
        }
      ],
      "name": "isGovernance",
      "outputs": [
        {
          "internalType": "bool",
          "name": "",
          "type": "bool"
        }
      ],
      "stateMutability": "view",
      "type": "function"
    },
    {
      "inputs": [
        {
          "internalType": "uint32",
          "name": "objectId",
          "type": "uint32"
        },
        {
          "internalType": "address",
          "name": "heroToken",
          "type": "address"
        },
        {
          "internalType": "uint256",
          "name": "heroTokenId",
          "type": "uint256"
        }
      ],
      "name": "isStoryAvailableForHero",
      "outputs": [
        {
          "internalType": "bool",
          "name": "",
          "type": "bool"
        }
      ],
      "stateMutability": "view",
      "type": "function"
    },
    {
      "inputs": [
        {
          "internalType": "address",
          "name": "",
          "type": "address"
        },
        {
          "internalType": "address",
          "name": "",
          "type": "address"
        },
        {
          "internalType": "uint256",
          "name": "",
          "type": "uint256"
        },
        {
          "internalType": "bytes",
          "name": "",
          "type": "bytes"
        }
      ],
      "name": "onERC721Received",
      "outputs": [
        {
          "internalType": "bytes4",
          "name": "",
          "type": "bytes4"
        }
      ],
      "stateMutability": "nonpayable",
      "type": "function"
    },
    {
      "inputs": [],
      "name": "previousImplementation",
      "outputs": [
        {
          "internalType": "address",
          "name": "",
          "type": "address"
        }
      ],
      "stateMutability": "view",
      "type": "function"
    },
    {
      "inputs": [
        {
          "internalType": "uint32",
          "name": "objectId",
          "type": "uint32"
        }
      ],
      "name": "registeredStories",
      "outputs": [
        {
          "internalType": "bool",
          "name": "",
          "type": "bool"
        }
      ],
      "stateMutability": "view",
      "type": "function"
    },
    {
      "inputs": [
        {
          "internalType": "uint32",
          "name": "objectId",
          "type": "uint32"
        }
      ],
      "name": "removeStory",
      "outputs": [],
      "stateMutability": "nonpayable",
      "type": "function"
    },
    {
      "inputs": [
        {
          "internalType": "uint16",
          "name": "storyId",
          "type": "uint16"
        },
        {
          "internalType": "uint256",
          "name": "maxIterations",
          "type": "uint256"
        }
      ],
      "name": "removeStoryAnswersMeta",
      "outputs": [],
      "stateMutability": "nonpayable",
      "type": "function"
    },
    {
      "inputs": [
        {
          "internalType": "uint16",
          "name": "storyId",
          "type": "uint16"
        },
        {
          "internalType": "uint256",
          "name": "maxIterations",
          "type": "uint256"
        }
      ],
      "name": "removeStoryPagesMeta",
      "outputs": [],
      "stateMutability": "nonpayable",
      "type": "function"
    },
    {
      "inputs": [],
      "name": "revision",
      "outputs": [
        {
          "internalType": "uint256",
          "name": "",
          "type": "uint256"
        }
      ],
      "stateMutability": "view",
      "type": "function"
    },
    {
      "inputs": [
        {
          "internalType": "address",
          "name": "item",
          "type": "address"
        },
        {
          "internalType": "uint256",
          "name": "itemId",
          "type": "uint256"
        },
        {
          "internalType": "address",
          "name": "destination",
          "type": "address"
        }
      ],
      "name": "salvage",
      "outputs": [],
      "stateMutability": "nonpayable",
      "type": "function"
    },
    {
      "inputs": [
        {
          "components": [
            {
              "internalType": "uint16",
              "name": "storyId",
              "type": "uint16"
            },
            {
              "internalType": "bytes32[]",
              "name": "requiredCustomDataIndex",
              "type": "bytes32[]"
            },
            {
              "internalType": "uint64[]",
              "name": "requiredCustomDataMinValue",
              "type": "uint64[]"
            },
            {
              "internalType": "uint64[]",
              "name": "requiredCustomDataMaxValue",
              "type": "uint64[]"
            },
            {
              "internalType": "bool[]",
              "name": "requiredCustomDataIsHero",
              "type": "bool[]"
            },
            {
              "internalType": "uint256",
              "name": "minLevel",
              "type": "uint256"
            },
            {
              "components": [
                {
                  "internalType": "uint16[]",
                  "name": "answerPageIds",
                  "type": "uint16[]"
                },
                {
                  "internalType": "uint8[]",
                  "name": "answerHeroClasses",
                  "type": "uint8[]"
                },
                {
                  "internalType": "uint16[]",
                  "name": "answerIds",
                  "type": "uint16[]"
                }
              ],
              "internalType": "struct IStoryController.AnswersMeta",
              "name": "answersMeta",
              "type": "tuple"
            },
            {
              "components": [
                {
                  "internalType": "uint16[]",
                  "name": "pageId",
                  "type": "uint16[]"
                },
                {
                  "internalType": "uint8[]",
                  "name": "heroClass",
                  "type": "uint8[]"
                },
                {
                  "internalType": "uint16[]",
                  "name": "answerId",
                  "type": "uint16[]"
                },
                {
                  "internalType": "uint8[]",
                  "name": "answerResultIds",
                  "type": "uint8[]"
                },
                {
                  "internalType": "uint16[][]",
                  "name": "answerNextPageIds",
                  "type": "uint16[][]"
                }
              ],
              "internalType": "struct IStoryController.AnswerNextPageMeta",
              "name": "answerNextPage",
              "type": "tuple"
            },
            {
              "components": [
                {
                  "internalType": "uint16[]",
                  "name": "pageId",
                  "type": "uint16[]"
                },
                {
                  "internalType": "uint8[]",
                  "name": "heroClass",
                  "type": "uint8[]"
                },
                {
                  "internalType": "uint16[]",
                  "name": "answerId",
                  "type": "uint16[]"
                },
                {
                  "internalType": "bool[][]",
                  "name": "cores",
                  "type": "bool[][]"
                },
                {
                  "internalType": "uint8[][]",
                  "name": "ids",
                  "type": "uint8[][]"
                },
                {
                  "internalType": "int32[][]",
                  "name": "values",
                  "type": "int32[][]"
                }
              ],
              "internalType": "struct IStoryController.AnswerAttributeRequirementsMeta",
              "name": "answerAttributeRequirements",
              "type": "tuple"
            },
            {
              "components": [
                {
                  "internalType": "uint16[]",
                  "name": "pageId",
                  "type": "uint16[]"
                },
                {
                  "internalType": "uint8[]",
                  "name": "heroClass",
                  "type": "uint8[]"
                },
                {
                  "internalType": "uint16[]",
                  "name": "answerId",
                  "type": "uint16[]"
                },
                {
                  "internalType": "address[][]",
                  "name": "requireItems",
                  "type": "address[][]"
                },
                {
                  "internalType": "bool[][]",
                  "name": "requireItemBurn",
                  "type": "bool[][]"
                },
                {
                  "internalType": "bool[][]",
                  "name": "requireItemEquipped",
                  "type": "bool[][]"
                }
              ],
              "internalType": "struct IStoryController.AnswerItemRequirementsMeta",
              "name": "answerItemRequirements",
              "type": "tuple"
            },
            {
              "components": [
                {
                  "internalType": "uint16[]",
                  "name": "pageId",
                  "type": "uint16[]"
                },
                {
                  "internalType": "uint8[]",
                  "name": "heroClass",
                  "type": "uint8[]"
                },
                {
                  "internalType": "uint16[]",
                  "name": "answerId",
                  "type": "uint16[]"
                },
                {
                  "internalType": "address[][]",
                  "name": "requireToken",
                  "type": "address[][]"
                },
                {
                  "internalType": "uint88[][]",
                  "name": "requireAmount",
                  "type": "uint88[][]"
                },
                {
                  "internalType": "bool[][]",
                  "name": "requireTransfer",
                  "type": "bool[][]"
                }
              ],
              "internalType": "struct IStoryController.AnswerTokenRequirementsMeta",
              "name": "answerTokenRequirements",
              "type": "tuple"
            },
            {
              "components": [
                {
                  "internalType": "uint16[]",
                  "name": "pageId",
                  "type": "uint16[]"
                },
                {
                  "internalType": "uint8[]",
                  "name": "heroClass",
                  "type": "uint8[]"
                },
                {
                  "internalType": "uint16[]",
                  "name": "answerId",
                  "type": "uint16[]"
                },
                {
                  "internalType": "uint32[]",
                  "name": "randomRequirements",
                  "type": "uint32[]"
                },
                {
                  "internalType": "uint32[]",
                  "name": "delayRequirements",
                  "type": "uint32[]"
                },
                {
                  "internalType": "bool[]",
                  "name": "isFinalAnswer",
                  "type": "bool[]"
                }
              ],
              "internalType": "struct IStoryController.AnswerAttributesMeta",
              "name": "answerAttributes",
              "type": "tuple"
            },
            {
              "components": [
                {
                  "internalType": "uint16[]",
                  "name": "pageId",
                  "type": "uint16[]"
                },
                {
                  "internalType": "uint8[]",
                  "name": "heroClass",
                  "type": "uint8[]"
                },
                {
                  "internalType": "uint16[]",
                  "name": "answerId",
                  "type": "uint16[]"
                },
                {
                  "internalType": "bytes32[][]",
                  "name": "dataIndexes",
                  "type": "bytes32[][]"
                },
                {
                  "internalType": "bool[][]",
                  "name": "mandatory",
                  "type": "bool[][]"
                },
                {
                  "internalType": "uint64[][]",
                  "name": "dataValuesMin",
                  "type": "uint64[][]"
                },
                {
                  "internalType": "uint64[][]",
                  "name": "dataValuesMax",
                  "type": "uint64[][]"
                }
              ],
              "internalType": "struct IStoryController.AnswerCustomDataMeta",
              "name": "answerHeroCustomDataRequirement",
              "type": "tuple"
            },
            {
              "components": [
                {
                  "internalType": "uint16[]",
                  "name": "pageId",
                  "type": "uint16[]"
                },
                {
                  "internalType": "uint8[]",
                  "name": "heroClass",
                  "type": "uint8[]"
                },
                {
                  "internalType": "uint16[]",
                  "name": "answerId",
                  "type": "uint16[]"
                },
                {
                  "internalType": "bytes32[][]",
                  "name": "dataIndexes",
                  "type": "bytes32[][]"
                },
                {
                  "internalType": "bool[][]",
                  "name": "mandatory",
                  "type": "bool[][]"
                },
                {
                  "internalType": "uint64[][]",
                  "name": "dataValuesMin",
                  "type": "uint64[][]"
                },
                {
                  "internalType": "uint64[][]",
                  "name": "dataValuesMax",
                  "type": "uint64[][]"
                }
              ],
              "internalType": "struct IStoryController.AnswerCustomDataMeta",
              "name": "answerGlobalCustomDataRequirement",
              "type": "tuple"
            },
            {
              "components": [
                {
                  "internalType": "uint16[]",
                  "name": "pageId",
                  "type": "uint16[]"
                },
                {
                  "internalType": "uint8[]",
                  "name": "heroClass",
                  "type": "uint8[]"
                },
                {
                  "internalType": "uint16[]",
                  "name": "answerId",
                  "type": "uint16[]"
                },
                {
                  "internalType": "uint8[][]",
                  "name": "slots",
                  "type": "uint8[][]"
                },
                {
                  "internalType": "uint64[][]",
                  "name": "chances",
                  "type": "uint64[][]"
                },
                {
                  "internalType": "bool[][]",
                  "name": "isStopIfBurnt",
                  "type": "bool[][]"
                }
              ],
              "internalType": "struct IStoryController.AnswerBurnRandomItemMeta",
              "name": "answerBurnRandomItemMeta",
              "type": "tuple"
            },
            {
              "components": [
                {
                  "internalType": "uint16[]",
                  "name": "nextObjPageIds",
                  "type": "uint16[]"
                },
                {
                  "internalType": "uint8[]",
                  "name": "nextObjHeroClasses",
                  "type": "uint8[]"
                },
                {
                  "internalType": "uint32[][]",
                  "name": "nextObjIds",
                  "type": "uint32[][]"
                }
              ],
              "internalType": "struct IStoryController.NextObjRewriteMeta",
              "name": "nextObjRewriteMeta",
              "type": "tuple"
            },
            {
              "components": [
                {
                  "internalType": "uint16[]",
                  "name": "pageId",
                  "type": "uint16[]"
                },
                {
                  "internalType": "uint8[]",
                  "name": "heroClass",
                  "type": "uint8[]"
                },
                {
                  "internalType": "uint16[]",
                  "name": "answerId",
                  "type": "uint16[]"
                },
                {
                  "internalType": "uint8[][]",
                  "name": "attributeIds",
                  "type": "uint8[][]"
                },
                {
                  "internalType": "int32[][]",
                  "name": "attributeValues",
                  "type": "int32[][]"
                },
                {
                  "internalType": "uint32[]",
                  "name": "experience",
                  "type": "uint32[]"
                },
                {
                  "internalType": "int32[]",
                  "name": "heal",
                  "type": "int32[]"
                },
                {
                  "internalType": "int32[]",
                  "name": "manaRegen",
                  "type": "int32[]"
                },
                {
                  "internalType": "int32[]",
                  "name": "lifeChancesRecovered",
                  "type": "int32[]"
                },
                {
                  "internalType": "int32[]",
                  "name": "damage",
                  "type": "int32[]"
                },
                {
                  "internalType": "int32[]",
                  "name": "manaConsumed",
                  "type": "int32[]"
                },
                {
                  "internalType": "address[][]",
                  "name": "mintItems",
                  "type": "address[][]"
                },
                {
                  "internalType": "uint32[][]",
                  "name": "mintItemsChances",
                  "type": "uint32[][]"
                }
              ],
              "internalType": "struct IStoryController.AnswerResultMeta",
              "name": "successInfo",
              "type": "tuple"
            },
            {
              "components": [
                {
                  "internalType": "uint16[]",
                  "name": "pageId",
                  "type": "uint16[]"
                },
                {
                  "internalType": "uint8[]",
                  "name": "heroClass",
                  "type": "uint8[]"
                },
                {
                  "internalType": "uint16[]",
                  "name": "answerId",
                  "type": "uint16[]"
                },
                {
                  "internalType": "uint8[][]",
                  "name": "attributeIds",
                  "type": "uint8[][]"
                },
                {
                  "internalType": "int32[][]",
                  "name": "attributeValues",
                  "type": "int32[][]"
                },
                {
                  "internalType": "uint32[]",
                  "name": "experience",
                  "type": "uint32[]"
                },
                {
                  "internalType": "int32[]",
                  "name": "heal",
                  "type": "int32[]"
                },
                {
                  "internalType": "int32[]",
                  "name": "manaRegen",
                  "type": "int32[]"
                },
                {
                  "internalType": "int32[]",
                  "name": "lifeChancesRecovered",
                  "type": "int32[]"
                },
                {
                  "internalType": "int32[]",
                  "name": "damage",
                  "type": "int32[]"
                },
                {
                  "internalType": "int32[]",
                  "name": "manaConsumed",
                  "type": "int32[]"
                },
                {
                  "internalType": "address[][]",
                  "name": "mintItems",
                  "type": "address[][]"
                },
                {
                  "internalType": "uint32[][]",
                  "name": "mintItemsChances",
                  "type": "uint32[][]"
                }
              ],
              "internalType": "struct IStoryController.AnswerResultMeta",
              "name": "failInfo",
              "type": "tuple"
            },
            {
              "components": [
                {
                  "internalType": "uint16[]",
                  "name": "pageId",
                  "type": "uint16[]"
                },
                {
                  "internalType": "uint8[]",
                  "name": "heroClass",
                  "type": "uint8[]"
                },
                {
                  "internalType": "uint16[]",
                  "name": "answerId",
                  "type": "uint16[]"
                },
                {
                  "internalType": "bytes32[][]",
                  "name": "dataIndexes",
                  "type": "bytes32[][]"
                },
                {
                  "internalType": "int16[][]",
                  "name": "dataValues",
                  "type": "int16[][]"
                }
              ],
              "internalType": "struct IStoryController.AnswerCustomDataResultMeta",
              "name": "successHeroCustomData",
              "type": "tuple"
            },
            {
              "components": [
                {
                  "internalType": "uint16[]",
                  "name": "pageId",
                  "type": "uint16[]"
                },
                {
                  "internalType": "uint8[]",
                  "name": "heroClass",
                  "type": "uint8[]"
                },
                {
                  "internalType": "uint16[]",
                  "name": "answerId",
                  "type": "uint16[]"
                },
                {
                  "internalType": "bytes32[][]",
                  "name": "dataIndexes",
                  "type": "bytes32[][]"
                },
                {
                  "internalType": "int16[][]",
                  "name": "dataValues",
                  "type": "int16[][]"
                }
              ],
              "internalType": "struct IStoryController.AnswerCustomDataResultMeta",
              "name": "failHeroCustomData",
              "type": "tuple"
            },
            {
              "components": [
                {
                  "internalType": "uint16[]",
                  "name": "pageId",
                  "type": "uint16[]"
                },
                {
                  "internalType": "uint8[]",
                  "name": "heroClass",
                  "type": "uint8[]"
                },
                {
                  "internalType": "uint16[]",
                  "name": "answerId",
                  "type": "uint16[]"
                },
                {
                  "internalType": "bytes32[][]",
                  "name": "dataIndexes",
                  "type": "bytes32[][]"
                },
                {
                  "internalType": "int16[][]",
                  "name": "dataValues",
                  "type": "int16[][]"
                }
              ],
              "internalType": "struct IStoryController.AnswerCustomDataResultMeta",
              "name": "successGlobalCustomData",
              "type": "tuple"
            },
            {
              "components": [
                {
                  "internalType": "uint16[]",
                  "name": "pageId",
                  "type": "uint16[]"
                },
                {
                  "internalType": "uint8[]",
                  "name": "heroClass",
                  "type": "uint8[]"
                },
                {
                  "internalType": "uint16[]",
                  "name": "answerId",
                  "type": "uint16[]"
                },
                {
                  "internalType": "bytes32[][]",
                  "name": "dataIndexes",
                  "type": "bytes32[][]"
                },
                {
                  "internalType": "int16[][]",
                  "name": "dataValues",
                  "type": "int16[][]"
                }
              ],
              "internalType": "struct IStoryController.AnswerCustomDataResultMeta",
              "name": "failGlobalCustomData",
              "type": "tuple"
            }
          ],
          "internalType": "struct IStoryController.StoryMetaInfo",
          "name": "meta",
          "type": "tuple"
        }
      ],
      "name": "setAllStoryFields",
      "outputs": [],
      "stateMutability": "nonpayable",
      "type": "function"
    },
    {
      "inputs": [
        {
          "internalType": "uint16",
          "name": "storyId",
          "type": "uint16"
        },
        {
          "components": [
            {
              "internalType": "uint16[]",
              "name": "pageId",
              "type": "uint16[]"
            },
            {
              "internalType": "uint8[]",
              "name": "heroClass",
              "type": "uint8[]"
            },
            {
              "internalType": "uint16[]",
              "name": "answerId",
              "type": "uint16[]"
            },
            {
              "internalType": "bool[][]",
              "name": "cores",
              "type": "bool[][]"
            },
            {
              "internalType": "uint8[][]",
              "name": "ids",
              "type": "uint8[][]"
            },
            {
              "internalType": "int32[][]",
              "name": "values",
              "type": "int32[][]"
            }
          ],
          "internalType": "struct IStoryController.AnswerAttributeRequirementsMeta",
          "name": "meta",
          "type": "tuple"
        }
      ],
      "name": "setAnswerAttributeRequirements",
      "outputs": [],
      "stateMutability": "nonpayable",
      "type": "function"
    },
    {
      "inputs": [
        {
          "internalType": "uint16",
          "name": "storyId",
          "type": "uint16"
        },
        {
          "components": [
            {
              "internalType": "uint16[]",
              "name": "pageId",
              "type": "uint16[]"
            },
            {
              "internalType": "uint8[]",
              "name": "heroClass",
              "type": "uint8[]"
            },
            {
              "internalType": "uint16[]",
              "name": "answerId",
              "type": "uint16[]"
            },
            {
              "internalType": "uint32[]",
              "name": "randomRequirements",
              "type": "uint32[]"
            },
            {
              "internalType": "uint32[]",
              "name": "delayRequirements",
              "type": "uint32[]"
            },
            {
              "internalType": "bool[]",
              "name": "isFinalAnswer",
              "type": "bool[]"
            }
          ],
          "internalType": "struct IStoryController.AnswerAttributesMeta",
          "name": "meta",
          "type": "tuple"
        }
      ],
      "name": "setAnswerAttributes",
      "outputs": [],
      "stateMutability": "nonpayable",
      "type": "function"
    },
    {
      "inputs": [
        {
          "internalType": "uint16",
          "name": "storyId",
          "type": "uint16"
        },
        {
          "components": [
            {
              "internalType": "uint16[]",
              "name": "pageId",
              "type": "uint16[]"
            },
            {
              "internalType": "uint8[]",
              "name": "heroClass",
              "type": "uint8[]"
            },
            {
              "internalType": "uint16[]",
              "name": "answerId",
              "type": "uint16[]"
            },
            {
              "internalType": "bytes32[][]",
              "name": "dataIndexes",
              "type": "bytes32[][]"
            },
            {
              "internalType": "bool[][]",
              "name": "mandatory",
              "type": "bool[][]"
            },
            {
              "internalType": "uint64[][]",
              "name": "dataValuesMin",
              "type": "uint64[][]"
            },
            {
              "internalType": "uint64[][]",
              "name": "dataValuesMax",
              "type": "uint64[][]"
            }
          ],
          "internalType": "struct IStoryController.AnswerCustomDataMeta",
          "name": "meta",
          "type": "tuple"
        }
      ],
      "name": "setAnswerGlobalCustomDataRequirementMeta",
      "outputs": [],
      "stateMutability": "nonpayable",
      "type": "function"
    },
    {
      "inputs": [
        {
          "internalType": "uint16",
          "name": "storyId",
          "type": "uint16"
        },
        {
          "components": [
            {
              "internalType": "uint16[]",
              "name": "pageId",
              "type": "uint16[]"
            },
            {
              "internalType": "uint8[]",
              "name": "heroClass",
              "type": "uint8[]"
            },
            {
              "internalType": "uint16[]",
              "name": "answerId",
              "type": "uint16[]"
            },
            {
              "internalType": "bytes32[][]",
              "name": "dataIndexes",
              "type": "bytes32[][]"
            },
            {
              "internalType": "bool[][]",
              "name": "mandatory",
              "type": "bool[][]"
            },
            {
              "internalType": "uint64[][]",
              "name": "dataValuesMin",
              "type": "uint64[][]"
            },
            {
              "internalType": "uint64[][]",
              "name": "dataValuesMax",
              "type": "uint64[][]"
            }
          ],
          "internalType": "struct IStoryController.AnswerCustomDataMeta",
          "name": "meta",
          "type": "tuple"
        }
      ],
      "name": "setAnswerHeroCustomDataRequirementMeta",
      "outputs": [],
      "stateMutability": "nonpayable",
      "type": "function"
    },
    {
      "inputs": [
        {
          "internalType": "uint16",
          "name": "storyId",
          "type": "uint16"
        },
        {
          "components": [
            {
              "internalType": "uint16[]",
              "name": "pageId",
              "type": "uint16[]"
            },
            {
              "internalType": "uint8[]",
              "name": "heroClass",
              "type": "uint8[]"
            },
            {
              "internalType": "uint16[]",
              "name": "answerId",
              "type": "uint16[]"
            },
            {
              "internalType": "address[][]",
              "name": "requireItems",
              "type": "address[][]"
            },
            {
              "internalType": "bool[][]",
              "name": "requireItemBurn",
              "type": "bool[][]"
            },
            {
              "internalType": "bool[][]",
              "name": "requireItemEquipped",
              "type": "bool[][]"
            }
          ],
          "internalType": "struct IStoryController.AnswerItemRequirementsMeta",
          "name": "meta",
          "type": "tuple"
        }
      ],
      "name": "setAnswerItemRequirements",
      "outputs": [],
      "stateMutability": "nonpayable",
      "type": "function"
    },
    {
      "inputs": [
        {
          "internalType": "uint16",
          "name": "storyId",
          "type": "uint16"
        },
        {
          "components": [
            {
              "internalType": "uint16[]",
              "name": "pageId",
              "type": "uint16[]"
            },
            {
              "internalType": "uint8[]",
              "name": "heroClass",
              "type": "uint8[]"
            },
            {
              "internalType": "uint16[]",
              "name": "answerId",
              "type": "uint16[]"
            },
            {
              "internalType": "uint8[]",
              "name": "answerResultIds",
              "type": "uint8[]"
            },
            {
              "internalType": "uint16[][]",
              "name": "answerNextPageIds",
              "type": "uint16[][]"
            }
          ],
          "internalType": "struct IStoryController.AnswerNextPageMeta",
          "name": "meta",
          "type": "tuple"
        }
      ],
      "name": "setAnswerNextPageMeta",
      "outputs": [],
      "stateMutability": "nonpayable",
      "type": "function"
    },
    {
      "inputs": [
        {
          "internalType": "uint16",
          "name": "storyId",
          "type": "uint16"
        },
        {
          "components": [
            {
              "internalType": "uint16[]",
              "name": "pageId",
              "type": "uint16[]"
            },
            {
              "internalType": "uint8[]",
              "name": "heroClass",
              "type": "uint8[]"
            },
            {
              "internalType": "uint16[]",
              "name": "answerId",
              "type": "uint16[]"
            },
            {
              "internalType": "address[][]",
              "name": "requireToken",
              "type": "address[][]"
            },
            {
              "internalType": "uint88[][]",
              "name": "requireAmount",
              "type": "uint88[][]"
            },
            {
              "internalType": "bool[][]",
              "name": "requireTransfer",
              "type": "bool[][]"
            }
          ],
          "internalType": "struct IStoryController.AnswerTokenRequirementsMeta",
          "name": "meta",
          "type": "tuple"
        }
      ],
      "name": "setAnswerTokenRequirementsMeta",
      "outputs": [],
      "stateMutability": "nonpayable",
      "type": "function"
    },
    {
      "inputs": [
        {
          "internalType": "uint16",
          "name": "storyId",
          "type": "uint16"
        },
        {
          "internalType": "uint16[]",
          "name": "answerPageIds",
          "type": "uint16[]"
        },
        {
          "internalType": "uint8[]",
          "name": "answerHeroClasses",
          "type": "uint8[]"
        },
        {
          "internalType": "uint16[]",
          "name": "answerIds",
          "type": "uint16[]"
        }
      ],
      "name": "setAnswersMeta",
      "outputs": [],
      "stateMutability": "nonpayable",
      "type": "function"
    },
    {
      "inputs": [
        {
          "internalType": "uint16",
          "name": "storyId",
          "type": "uint16"
        },
        {
          "components": [
            {
              "internalType": "uint16[]",
              "name": "pageId",
              "type": "uint16[]"
            },
            {
              "internalType": "uint8[]",
              "name": "heroClass",
              "type": "uint8[]"
            },
            {
              "internalType": "uint16[]",
              "name": "answerId",
              "type": "uint16[]"
            },
            {
              "internalType": "uint8[][]",
              "name": "slots",
              "type": "uint8[][]"
            },
            {
              "internalType": "uint64[][]",
              "name": "chances",
              "type": "uint64[][]"
            },
            {
              "internalType": "bool[][]",
              "name": "isStopIfBurnt",
              "type": "bool[][]"
            }
          ],
          "internalType": "struct IStoryController.AnswerBurnRandomItemMeta",
          "name": "meta",
          "type": "tuple"
        }
      ],
      "name": "setBurnItemsMeta",
      "outputs": [],
      "stateMutability": "nonpayable",
      "type": "function"
    },
    {
      "inputs": [
        {
          "internalType": "uint16",
          "name": "storyId",
          "type": "uint16"
        },
        {
          "components": [
            {
              "internalType": "uint16[]",
              "name": "pageId",
              "type": "uint16[]"
            },
            {
              "internalType": "uint8[]",
              "name": "heroClass",
              "type": "uint8[]"
            },
            {
              "internalType": "uint16[]",
              "name": "answerId",
              "type": "uint16[]"
            },
            {
              "internalType": "bytes32[][]",
              "name": "dataIndexes",
              "type": "bytes32[][]"
            },
            {
              "internalType": "int16[][]",
              "name": "dataValues",
              "type": "int16[][]"
            }
          ],
          "internalType": "struct IStoryController.AnswerCustomDataResultMeta",
          "name": "meta",
          "type": "tuple"
        },
        {
          "internalType": "enum IStoryController.CustomDataResult",
          "name": "type_",
          "type": "uint8"
        }
      ],
      "name": "setCustomDataResult",
      "outputs": [],
      "stateMutability": "nonpayable",
      "type": "function"
    },
    {
      "inputs": [
        {
          "internalType": "uint16",
          "name": "storyId",
          "type": "uint16"
        },
        {
          "components": [
            {
              "internalType": "uint16[]",
              "name": "pageId",
              "type": "uint16[]"
            },
            {
              "internalType": "uint8[]",
              "name": "heroClass",
              "type": "uint8[]"
            },
            {
              "internalType": "uint16[]",
              "name": "answerId",
              "type": "uint16[]"
            },
            {
              "internalType": "uint8[][]",
              "name": "attributeIds",
              "type": "uint8[][]"
            },
            {
              "internalType": "int32[][]",
              "name": "attributeValues",
              "type": "int32[][]"
            },
            {
              "internalType": "uint32[]",
              "name": "experience",
              "type": "uint32[]"
            },
            {
              "internalType": "int32[]",
              "name": "heal",
              "type": "int32[]"
            },
            {
              "internalType": "int32[]",
              "name": "manaRegen",
              "type": "int32[]"
            },
            {
              "internalType": "int32[]",
              "name": "lifeChancesRecovered",
              "type": "int32[]"
            },
            {
              "internalType": "int32[]",
              "name": "damage",
              "type": "int32[]"
            },
            {
              "internalType": "int32[]",
              "name": "manaConsumed",
              "type": "int32[]"
            },
            {
              "internalType": "address[][]",
              "name": "mintItems",
              "type": "address[][]"
            },
            {
              "internalType": "uint32[][]",
              "name": "mintItemsChances",
              "type": "uint32[][]"
            }
          ],
          "internalType": "struct IStoryController.AnswerResultMeta",
          "name": "meta",
          "type": "tuple"
        }
      ],
      "name": "setFailInfo",
      "outputs": [],
      "stateMutability": "nonpayable",
      "type": "function"
    },
    {
      "inputs": [
        {
          "internalType": "uint16",
          "name": "storyId",
          "type": "uint16"
        },
        {
          "components": [
            {
              "internalType": "uint16[]",
              "name": "nextObjPageIds",
              "type": "uint16[]"
            },
            {
              "internalType": "uint8[]",
              "name": "nextObjHeroClasses",
              "type": "uint8[]"
            },
            {
              "internalType": "uint32[][]",
              "name": "nextObjIds",
              "type": "uint32[][]"
            }
          ],
          "internalType": "struct IStoryController.NextObjRewriteMeta",
          "name": "meta",
          "type": "tuple"
        }
      ],
      "name": "setNextObjRewriteMeta",
      "outputs": [],
      "stateMutability": "nonpayable",
      "type": "function"
    },
    {
      "inputs": [
        {
          "internalType": "uint16",
          "name": "storyId",
          "type": "uint16"
        },
        {
          "internalType": "bytes32[]",
          "name": "requiredCustomDataIndex",
          "type": "bytes32[]"
        },
        {
          "internalType": "uint64[]",
          "name": "requiredCustomDataMinValue",
          "type": "uint64[]"
        },
        {
          "internalType": "uint64[]",
          "name": "requiredCustomDataMaxValue",
          "type": "uint64[]"
        },
        {
          "internalType": "bool[]",
          "name": "requiredCustomDataIsHero",
          "type": "bool[]"
        },
        {
          "internalType": "uint256",
          "name": "minLevel",
          "type": "uint256"
        }
      ],
      "name": "setStoryCustomDataRequirements",
      "outputs": [],
      "stateMutability": "nonpayable",
      "type": "function"
    },
    {
      "inputs": [
        {
          "internalType": "uint16",
          "name": "storyId",
          "type": "uint16"
        },
        {
          "components": [
            {
              "internalType": "uint16[]",
              "name": "pageId",
              "type": "uint16[]"
            },
            {
              "internalType": "uint8[]",
              "name": "heroClass",
              "type": "uint8[]"
            },
            {
              "internalType": "uint16[]",
              "name": "answerId",
              "type": "uint16[]"
            },
            {
              "internalType": "uint8[][]",
              "name": "attributeIds",
              "type": "uint8[][]"
            },
            {
              "internalType": "int32[][]",
              "name": "attributeValues",
              "type": "int32[][]"
            },
            {
              "internalType": "uint32[]",
              "name": "experience",
              "type": "uint32[]"
            },
            {
              "internalType": "int32[]",
              "name": "heal",
              "type": "int32[]"
            },
            {
              "internalType": "int32[]",
              "name": "manaRegen",
              "type": "int32[]"
            },
            {
              "internalType": "int32[]",
              "name": "lifeChancesRecovered",
              "type": "int32[]"
            },
            {
              "internalType": "int32[]",
              "name": "damage",
              "type": "int32[]"
            },
            {
              "internalType": "int32[]",
              "name": "manaConsumed",
              "type": "int32[]"
            },
            {
              "internalType": "address[][]",
              "name": "mintItems",
              "type": "address[][]"
            },
            {
              "internalType": "uint32[][]",
              "name": "mintItemsChances",
              "type": "uint32[][]"
            }
          ],
          "internalType": "struct IStoryController.AnswerResultMeta",
          "name": "meta",
          "type": "tuple"
        }
      ],
      "name": "setSuccessInfo",
      "outputs": [],
      "stateMutability": "nonpayable",
      "type": "function"
    },
    {
      "inputs": [
        {
          "internalType": "address",
          "name": "sender",
          "type": "address"
        },
        {
          "internalType": "uint64",
          "name": "dungeonId",
          "type": "uint64"
        },
        {
          "internalType": "uint32",
          "name": "objectId",
          "type": "uint32"
        },
        {
          "internalType": "uint256",
          "name": "stageId",
          "type": "uint256"
        },
        {
          "internalType": "address",
          "name": "heroToken",
          "type": "address"
        },
        {
          "internalType": "uint256",
          "name": "heroTokenId",
          "type": "uint256"
        },
        {
          "internalType": "uint8",
          "name": "biome",
          "type": "uint8"
        },
        {
          "internalType": "uint256",
          "name": "iteration",
          "type": "uint256"
        },
        {
          "internalType": "bytes",
          "name": "data",
          "type": "bytes"
        }
      ],
      "name": "storyAction",
      "outputs": [
        {
          "components": [
            {
              "internalType": "bool",
              "name": "kill",
              "type": "bool"
            },
            {
              "internalType": "bool",
              "name": "completed",
              "type": "bool"
            },
            {
              "internalType": "address",
              "name": "heroToken",
              "type": "address"
            },
            {
              "internalType": "address[]",
              "name": "mintItems",
              "type": "address[]"
            },
            {
              "internalType": "int32",
              "name": "heal",
              "type": "int32"
            },
            {
              "internalType": "int32",
              "name": "manaRegen",
              "type": "int32"
            },
            {
              "internalType": "int32",
              "name": "lifeChancesRecovered",
              "type": "int32"
            },
            {
              "internalType": "int32",
              "name": "damage",
              "type": "int32"
            },
            {
              "internalType": "int32",
              "name": "manaConsumed",
              "type": "int32"
            },
            {
              "internalType": "uint32",
              "name": "objectId",
              "type": "uint32"
            },
            {
              "internalType": "uint32",
              "name": "experience",
              "type": "uint32"
            },
            {
              "internalType": "uint256",
              "name": "heroTokenId",
              "type": "uint256"
            },
            {
              "internalType": "uint256",
              "name": "iteration",
              "type": "uint256"
            },
            {
              "internalType": "uint32[]",
              "name": "rewriteNextObject",
              "type": "uint32[]"
            }
          ],
          "internalType": "struct IGOC.ActionResult",
          "name": "result",
          "type": "tuple"
        }
      ],
      "stateMutability": "nonpayable",
      "type": "function"
    },
    {
      "inputs": [
        {
          "internalType": "uint16",
          "name": "storyId",
          "type": "uint16"
        }
      ],
      "name": "storyBuildHash",
      "outputs": [
        {
          "internalType": "uint256",
          "name": "",
          "type": "uint256"
        }
      ],
      "stateMutability": "view",
      "type": "function"
    },
    {
      "inputs": [
        {
          "internalType": "uint32",
          "name": "objectId",
          "type": "uint32"
        }
      ],
      "name": "storyIds",
      "outputs": [
        {
          "internalType": "uint16",
          "name": "",
          "type": "uint16"
        }
      ],
      "stateMutability": "view",
      "type": "function"
    }
  ],
  "transactionHash": "0x1c6000def85ea2c9241e35738b73223abc10aa777284a4cae8839a5aeaaad140",
  "args": [],
  "numDeployments": 8,
  "solcInputHash": "469f89b788f48678cfe1a8f9b5f43301",
  "bytecode": "0x60806040523480156200001157600080fd5b507ff0c57e16840df040f15088dc2f81fe391c3923bec73e23a9662efc9c229c6a00805468010000000000000000810460ff1615906001600160401b03166000811580156200005d5750825b90506000826001600160401b031660011480156200007a5750303b155b90508115801562000089575080155b15620000a85760405163f92ee8a960e01b815260040160405180910390fd5b84546001600160401b03191660011785558315620000d757845460ff60401b1916680100000000000000001785555b83156200011e57845460ff60401b19168555604051600181527fc7f505b2f371ae2175ee4913f4499e1f2633a7b5936321eed1cdaeb6115181d29060200160405180910390a15b505050505061592880620001336000396000f3fe608060405234801561001057600080fd5b506004361061023f5760003560e01c80637cc963801161013c578063cb90acc0116100be578063cb90acc014610529578063d02a74a41461053c578063d6dd32731461054f578063dce9127214610562578063dee1f0e414610575578063e08868ae14610588578063e89356471461059b578063ef767961146105bb578063f660b274146105ce578063f77c4791146105e1578063ff12f389146105e9578063ffa1ad74146105fc57600080fd5b80637cc96380146104435780637f9e78a21461044b57806384ff97d41461045e578063889700641461047157806392b6c5cf14610484578063936725ec146104975780639d0bcca0146104c8578063aa1293d9146104dd578063ac62e9f9146104f0578063b429afeb14610503578063bc982d2b1461051657600080fd5b80631e3cd404116101c55780631e3cd40414610360578063325a19f1146103735780633ed2f89a1461037b5780634593144c1461038e57806349a8ccd5146103965780634fac6ccd146103bc578063509a093f146103cf578063656218ff146103f75780636eee5afe1461040a57806373aeb3921461041d578063788a2d2e1461043057600080fd5b806305f92239146102445780630c0e97dd146102595780630cac0c1f1461026c57806312a554ec1461027f578063150b7a02146102a5578063152f74f0146102d157806318daea98146102f457806319ab453c146103075780631a94214a1461031a5780631aab826a1461032d5780631c1b0daa14610340575b600080fd5b610257610252366004613129565b610620565b005b61025761026736600461317e565b610634565b61025761027a366004613218565b61064a565b61029261028d3660046132f8565b610670565b6040519081526020015b60405180910390f35b6102b86102b3366004613408565b610681565b6040516001600160e01b0319909116815260200161029c565b6102e46102df366004613473565b610692565b604051901515815260200161029c565b6102926103023660046132f8565b6106a7565b6102576103153660046134b4565b6106b2565b6102576103283660046134d1565b6107ac565b61025761033b3660046134fd565b6107be565b61035361034e366004613579565b6107d0565b60405161029c91906136b7565b61025761036e3660046137ec565b6107ff565b610292610908565b6102e4610389366004613129565b610941565b61029261094c565b6103a96103a4366004613129565b61097c565b60405161ffff909116815260200161029c565b6102576103ca3660046134b4565b610987565b6103e26103dd3660046132f8565b610a93565b60405163ffffffff909116815260200161029c565b61025761040536600461317e565b610a9e565b6102926104183660046132f8565b610ab0565b61025761042b366004613840565b610abb565b61029261043e3660046134d1565b610ad3565b610292610ae6565b61025761045936600461389c565b610b04565b61025761046c3660046138e8565b610b16565b61025761047f3660046134d1565b610b2d565b6103a96104923660046139ab565b610b3f565b6104bb604051806040016040528060058152602001640312e302e360dc1b81525081565b60405161029c91906139e9565b6104d0610b4c565b60405161029c9190613a38565b6102576104eb366004613a4c565b610b7c565b6102576104fe366004613a97565b610b8e565b6102e46105113660046134b4565b610ba0565b61025761052436600461317e565b610bc5565b610257610537366004613adc565b610bd7565b61025761054a36600461317e565b610bea565b61025761055d366004613b0c565b610bfc565b6102576105703660046134fd565b610c0d565b6102e46105833660046134b4565b610c1f565b6102926105963660046134d1565b610ca4565b6105ae6105a9366004613b47565b610cb0565b60405161029c9190613b8e565b6102576105c936600461317e565b610cc5565b6102576105dc36600461389c565b610cd7565b6104d0610ce9565b6102926105f7366004613bd2565b610d19565b6104bb60405180604001604052806005815260200164322e312e3160d81b81525081565b61063161062b610ce9565b82610d2c565b50565b61064661063f610ce9565b8383610daf565b5050565b610664610655610ce9565b8b8b8b8b8b8b8b8b8b8b610e26565b50505050505050505050565b600061067b82610ebe565b92915050565b630a85bd0160e11b5b949350505050565b600061068a61069f610ce9565b858585610ee7565b600061067b82610f8e565b60006106bc610fb7565b805490915060ff600160401b82041615906001600160401b03166000811580156106e35750825b90506000826001600160401b031660011480156106ff5750303b155b90508115801561070d575080155b1561072b5760405163f92ee8a960e01b815260040160405180910390fd5b845467ffffffffffffffff19166001178555831561075557845460ff60401b1916600160401b1785555b61075e86610fdb565b83156107a457845460ff60401b19168555604051600181527fc7f505b2f371ae2175ee4913f4499e1f2633a7b5936321eed1cdaeb6115181d29060200160405180910390a15b505050505050565b6106466107b7610ce9565b8383610fec565b6106466107c9610ce9565b838361104c565b6107d8613083565b6107f16107e3610ce9565b8b8b8b8b8b8b8b8b8b611097565b9a9950505050505050505050565b610807610ce9565b6001600160a01b03166350c358a4336040518263ffffffff1660e01b81526004016108329190613a38565b602060405180830381865afa15801561084f573d6000803e3d6000fd5b505050506040513d601f19601f820116820180604052508101906108739190613c04565b61089b573360405163988d1f0360e01b81526004016108929190613a38565b60405180910390fd5b6040516323b872dd60e01b81523060048201526001600160a01b038281166024830152604482018490528416906323b872dd90606401600060405180830381600087803b1580156108eb57600080fd5b505af11580156108ff573d6000803e3d6000fd5b50505050505050565b600061093c61093860017f6f55f470bdc9cb5f04223fd822021061668e4dccb43e8727b295106dc9769c8b613c37565b5490565b905090565b600061067b82611601565b600061093c61093860017f812a673dfca07956350df10f8a654925f561d7a0da09bdbe79e653939a14d9f1613c37565b600061067b8261162d565b3330146109d45760405162461bcd60e51b815260206004820152601b60248201527a24b731b932b0b9b2903932bb34b9b4b7b7103337b93134b23232b760291b6044820152606401610892565b60006109f261093860016000805160206158d3833981519152613c37565b6109fd906001613c4a565b9050610a1f81610a1c60016000805160206158d3833981519152613c37565b55565b610a4e82610a1c60017fbfaaa2fb63266ff27c2da975f5894955056f50419af651a81f6c5060581857e4613c37565b604080518281526001600160a01b03841660208201527ff27e2ef832a4eb8ed8ec553b875eecd44764cda95b1c24170e281539e0a869c8910160405180910390a15050565b600061067b82611657565b610646610aa9610ce9565b8383611684565b600061067b826116cf565b610ace610ac6610ce9565b8484846116f6565b505050565b6000610adf8383611779565b9392505050565b600061093c61093860016000805160206158d3833981519152613c37565b610646610b0f610ce9565b83836117a4565b6108ff610b21610ce9565b888888888888886117ef565b610646610b38610ce9565b838361187e565b600061068a8484846118a9565b600061093c61093860017fbfaaa2fb63266ff27c2da975f5894955056f50419af651a81f6c5060581857e4613c37565b610646610b87610ce9565b83836118d8565b610646610b99610ce9565b8383611923565b6000610baa610ce9565b6001600160a01b0316826001600160a01b0316149050919050565b610646610bd0610ce9565b838361196e565b610ace610be2610ce9565b8484846119b9565b610646610bf5610ce9565b8383611a25565b610631610c07610ce9565b82611a70565b610646610c18610ce9565b8383611ab9565b6000816001600160a01b0316610c33610ce9565b6001600160a01b0316635aa6e6756040518163ffffffff1660e01b8152600401602060405180830381865afa158015610c70573d6000803e3d6000fd5b505050506040513d601f19601f82011682018060405250810190610c949190613c68565b6001600160a01b03161492915050565b6000610adf8383611ae4565b606061068a610cbd610ce9565b858585611b0f565b610646610cd0610ce9565b8383611dce565b610646610ce2610ce9565b8383611e19565b600061093c61093860017f5165972ef41194f06c5007493031d0b927c20741adcb74403b954009fd2c3618613c37565b600061067b82610d27610ce9565b611e44565b610d3582611ec5565b73682f4eeE28bA5B4Ee508Fe847f2f1E290db7e04d63a913674b610d57611f51565b6040516001600160e01b031960e084901b168152600481019190915263ffffffff841660248201526044015b60006040518083038186803b158015610d9b57600080fd5b505af41580156107a4573d6000803e3d6000fd5b610db883611ec5565b73682f4eeE28bA5B4Ee508Fe847f2f1E290db7e04d63a84d660c610dda611f51565b84846040518463ffffffff1660e01b8152600401610dfa93929190613f96565b60006040518083038186803b158015610e1257600080fd5b505af41580156108ff573d6000803e3d6000fd5b610e2f8b611ec5565b73682f4eeE28bA5B4Ee508Fe847f2f1E290db7e04d63ca473936610e51611f51565b8c8c8c8c8c8c8c8c8c8c6040518c63ffffffff1660e01b8152600401610e819b9a99989796959493929190614027565b60006040518083038186803b158015610e9957600080fd5b505af4158015610ead573d6000803e3d6000fd5b505050505050505050505050505050565b600061067b610ecb611f51565b61ffff8416600090815260049190910160205260409020611f75565b6000610f85610ef4611f51565b610efc611f51565b63ffffffff871660009081526020918252604090819020548151628e969160e01b8152915161ffff90911692889288926001600160a01b038d1692628e969192600480820193918290030181865afa158015610f5c573d6000803e3d6000fd5b505050506040513d601f19601f82011682018060405250810190610f809190613c68565b611f7f565b95945050505050565b600061067b610f9b611f51565b61ffff8416600090815260059190910160205260409020611f75565b7ff0c57e16840df040f15088dc2f81fe391c3923bec73e23a9662efc9c229c6a0090565b610fe3612202565b61063181612229565b610ff583611ec5565b73682f4eeE28bA5B4Ee508Fe847f2f1E290db7e04d633e8dd868611017611f51565b6040516001600160e01b031960e084901b168152600481019190915261ffff8516602482015260448101849052606401610dfa565b61105583611ec5565b73682f4eeE28bA5B4Ee508Fe847f2f1E290db7e04d6301c7664c611077611f51565b84846040518463ffffffff1660e01b8152600401610dfa9392919061423e565b61109f613083565b336001600160a01b03168b6001600160a01b03166389dd9f136040518163ffffffff1660e01b8152600401602060405180830381865afa1580156110e7573d6000803e3d6000fd5b505050506040513d601f19601f8201168201806040525081019061110b9190613c68565b6001600160a01b03161461113457336040516309f23ad160e41b81526004016108929190613a38565b60008b6001600160a01b0316628e96916040518163ffffffff1660e01b8152600401602060405180830381865afa158015611173573d6000803e3d6000fd5b505050506040513d601f19601f820116820180604052508101906111979190613c68565b905060006040518061030001604052808a81526020018681526020016111bc8661233c565b81526020016000801b81526020018d6001600160a01b03168152602001896001600160a01b031681526020018e6001600160a01b03168152602001836001600160a01b031681526020018e6001600160a01b031663016dff5d6040518163ffffffff1660e01b8152600401602060405180830381865afa158015611244573d6000803e3d6000fd5b505050506040513d601f19601f820116820180604052508101906112689190613c68565b6001600160a01b031681526020018e6001600160a01b0316637dc0d1d06040518163ffffffff1660e01b8152600401602060405180830381865afa1580156112b4573d6000803e3d6000fd5b505050506040513d601f19601f820116820180604052508101906112d89190613c68565b6001600160a01b031681526020018e6001600160a01b03166331423c266040518163ffffffff1660e01b8152600401602060405180830381865afa158015611324573d6000803e3d6000fd5b505050506040513d601f19601f820116820180604052508101906113489190613c68565b6001600160a01b03168152600060208201819052604082015260ff88166060820152608001611375611f51565b63ffffffff8d166000818152602092835260408082205461ffff168552928401819052838301819052606084018190526080840181905260a08401919091526001600160401b038f1660c084015260e08301526001600160501b038a1661010083015251631a95890960e31b8152610120909101906001600160a01b0385169063d4ac48489061140b908d908d90600401614261565b60a060405180830381865afa158015611428573d6000803e3d6000fd5b505050506040513d601f19601f8201168201806040525081019061144c9190614285565b8152509050806101c0015161ffff1660000361147b576040516326358d7f60e21b815260040160405180910390fd5b8061010001516001600160a01b0316631789b7b1896040518263ffffffff1660e01b81526004016114ac9190613a38565b602060405180830381865afa1580156114c9573d6000803e3d6000fd5b505050506040513d601f19601f820116820180604052508101906114ed919061431c565b60ff166101608201526114fe611f51565b60408083015160009081526009929092016020529020546060820152611565611525611f51565b601901600061154d8a856101c001518d6001600160a01b03166123529092919063ffffffff16565b81526020019081526020016000205490601082901c90565b64ffffffffff166102a083015261ffff166102408201526040810151601081901c602082901c602883901c846101e0018561020001866101800187610220018461ffff1661ffff168152508460ff1660ff168152508461ffff1661ffff168152508461ffff1661ffff16815250505050506115f0816115eb8f846101c001518c8c611b0f565b612385565b9d9c50505050505050505050505050565b600061160b611f51565b63ffffffff909216600090815260039290920160205250604090205460ff1690565b6000611637611f51565b63ffffffff909216600090815260209290925250604090205461ffff1690565b6000611661611f51565b61ffff909216600090815260019290920160205250604090205463ffffffff1690565b61168d83611ec5565b73682f4eeE28bA5B4Ee508Fe847f2f1E290db7e04d63568141906116af611f51565b84846040518463ffffffff1660e01b8152600401610dfa9392919061451b565b60006116d9611f51565b61ffff9092166000908152601a9290920160205250604090205490565b6116ff84611ec5565b73682f4eeE28bA5B4Ee508Fe847f2f1E290db7e04d630324a18c611721611f51565b8585856040518563ffffffff1660e01b8152600401611743949392919061467e565b60006040518083038186803b15801561175b57600080fd5b505af415801561176f573d6000803e3d6000fd5b5050505050505050565b6000610adf82611787611f51565b61ffff86166000908152600491909101602052604090209061264c565b6117ad83611ec5565b73682f4eeE28bA5B4Ee508Fe847f2f1E290db7e04d63b5083ab96117cf611f51565b84846040518463ffffffff1660e01b8152600401610dfa93929190614929565b6117f888611ec5565b73682f4eeE28bA5B4Ee508Fe847f2f1E290db7e04d6301c3192f61181a611f51565b898989898989896040518963ffffffff1660e01b8152600401611844989796959493929190614985565b60006040518083038186803b15801561185c57600080fd5b505af4158015611870573d6000803e3d6000fd5b505050505050505050505050565b61188783611ec5565b73682f4eeE28bA5B4Ee508Fe847f2f1E290db7e04d63b5287c91611017611f51565b60006118cf6118b6611f51565b601901600061154d6001600160a01b0388168787612352565b50949350505050565b6118e183611ec5565b73682f4eeE28bA5B4Ee508Fe847f2f1E290db7e04d63d335b7f3611903611f51565b84846040518463ffffffff1660e01b8152600401610dfa93929190614a5f565b61192c83611ec5565b73682f4eeE28bA5B4Ee508Fe847f2f1E290db7e04d638cd5642c61194e611f51565b84846040518463ffffffff1660e01b8152600401610dfa93929190614b71565b61197783611ec5565b73682f4eeE28bA5B4Ee508Fe847f2f1E290db7e04d63679dde4c611999611f51565b84846040518463ffffffff1660e01b8152600401610dfa93929190614c65565b6119c284611ec5565b73682f4eeE28bA5B4Ee508Fe847f2f1E290db7e04d631c9a90086119e4611f51565b6040516001600160e01b031960e084901b168152600481019190915261ffff8616602482015263ffffffff8516604482015260648101849052608401611743565b611a2e83611ec5565b73682f4eeE28bA5B4Ee508Fe847f2f1E290db7e04d636b6cc9f8611a50611f51565b84846040518463ffffffff1660e01b8152600401610dfa93929190614d59565b611a7982611ec5565b73682f4eeE28bA5B4Ee508Fe847f2f1E290db7e04d639c9dc579611a9b611f51565b836040518363ffffffff1660e01b8152600401610d83929190614f06565b611ac283611ec5565b73682f4eeE28bA5B4Ee508Fe847f2f1E290db7e04d63cbbefc28611077611f51565b6000610adf82611af2611f51565b61ffff86166000908152600591909101602052604090209061264c565b60606000856001600160a01b031663016dff5d6040518163ffffffff1660e01b8152600401602060405180830381865afa158015611b51573d6000803e3d6000fd5b505050506040513d601f19601f82011682018060405250810190611b759190613c68565b90506000611b9d611b84611f51565b601901600061154d6001600160a01b038916888b612352565b5090506000611baa611f51565b6006016000611c2c84866001600160a01b0316631789b7b18b6040518263ffffffff1660e01b8152600401611bdf9190613a38565b602060405180830381865afa158015611bfc573d6000803e3d6000fd5b505050506040513d601f19601f82011682018060405250810190611c20919061431c565b61ffff8c169190612658565b8152602001908152602001600020805480602002602001604051908101604052809291908181526020018280548015611c8457602002820191906000526020600020905b815481526020019060010190808311611c70575b505050505090508051600003611d1057611c9c611f51565b6006016000611cb061ffff8a168583612658565b8152602001908152602001600020805480602002602001604051908101604052809291908181526020018280548015611d0857602002820191906000526020600020905b815481526020019060010190808311611cf4575b505050505090505b805115611dc35760005b60018251611d289190613c37565b811015611dc1576000611d488260018551611d439190613c37565b61267d565b9050828281518110611d5c57611d5c615248565b6020026020010151838281518110611d7657611d76615248565b6020026020010151848381518110611d9057611d90615248565b60200260200101858581518110611da957611da9615248565b60209081029190910101919091525250600101611d1a565b505b979650505050505050565b611dd783611ec5565b73682f4eeE28bA5B4Ee508Fe847f2f1E290db7e04d63c5828ff1611df9611f51565b84846040518463ffffffff1660e01b8152600401610dfa9392919061525e565b611e2283611ec5565b73682f4eeE28bA5B4Ee508Fe847f2f1E290db7e04d63751dda436117cf611f51565b6000670de0b6b3a7640000826001600160a01b031663b1bc41956040518163ffffffff1660e01b8152600401602060405180830381865afa158015611e8d573d6000803e3d6000fd5b505050506040513d601f19601f82011682018060405250810190611eb19190615281565b611ebb908561529a565b610adf91906152c7565b604051631430d62960e21b81526001600160a01b038216906350c358a490611ef1903390600401613a38565b602060405180830381865afa158015611f0e573d6000803e3d6000fd5b505050506040513d601f19601f82011682018060405250810190611f329190613c04565b610631573360405163451cea1760e11b81526004016108929190613a38565b7f1fbca2ab9841348cca3f2687c48325e9989a76ad929b9970d1c11e233677cf0090565b600061067b825490565b61ffff8416600090815260188601602052604081205480158015906120195750604051631a95890960e31b815281906001600160a01b0385169063d4ac484890611fcf9089908990600401614261565b60a060405180830381865afa158015611fec573d6000803e3d6000fd5b505050506040513d601f19601f820116820180604052508101906120109190614285565b5163ffffffff16105b15612028576000915050610f85565b61ffff861660009081526017880160205260408120805490915b818110156121f257600083828154811061205e5761205e615248565b600091825260209182902060408051808201909152600290920201805480835260019091015492820192909252915061209757506121ea565b60008060006120b9846020015190604082901c90608083901c60ff1660011490565b925092509250600081612137578451604051630a82c86160e01b815260048101919091526001600160a01b038c1690630a82c86190602401602060405180830381865afa15801561210e573d6000803e3d6000fd5b505050506040513d601f19601f820116820180604052508101906121329190615281565b6121ac565b8a6001600160a01b0316631c2aafe78e8e88600001516040518463ffffffff1660e01b815260040161216b939291906152db565b602060405180830381865afa158015612188573d6000803e3d6000fd5b505050506040513d601f19601f820116820180604052508101906121ac9190615281565b9050836001600160401b03168110806121cd5750826001600160401b031681115b156121e45760009950505050505050505050610f85565b50505050505b600101612042565b5060019998505050505050505050565b61220a6126ad565b61222757604051631afcd79f60e31b815260040160405180910390fd5b565b6001600160a01b0381166122715760405162461bcd60e51b815260206004820152600f60248201526e2d32b9379031b7b73a3937b63632b960891b6044820152606401610892565b6122a081610a1c60017f5165972ef41194f06c5007493031d0b927c20741adcb74403b954009fd2c3618613c37565b6122cf42610a1c60017f6f55f470bdc9cb5f04223fd822021061668e4dccb43e8727b295106dc9769c8b613c37565b6122fe43610a1c60017f812a673dfca07956350df10f8a654925f561d7a0da09bdbe79e653939a14d9f1613c37565b7f1a2dd071001ebf6e03174e3df5b305795a4ad5d41d8fdb9ba41dbbe236713426814243604051612331939291906152db565b60405180910390a150565b60008180602001905181019061067b9190615281565b6001600160a01b039290921660a09190911b600160a01b600160f01b03161760f09190911b6001600160f01b0319161790565b61238d613083565b6000612397611f51565b905082516000036123e85761026084015163ffffffff166101208301526102c08401516001600160501b031661016083015260a08401516001600160a01b031660408301526001602083015261262a565b836101e0015161ffff16846101c0015161ffff1614612434576101c08401516101e0850151604051636df9cb0960e11b815261ffff928316600482015291166024820152604401610892565b83610200015161ffff1684610240015161ffff1614612480576102408401516102008501516040516364f16ac560e01b815261ffff928316600482015291166024820152604401610892565b61248e8385604001516126c7565b60608401516040805163be03c0c360e01b815291901c60ff166001149060009073eaa7Aa2b8D3Bfc9e0a06bd677e5B101ed87cB8959063be03c0c3906124da90899087906004016154b9565b602060405180830381865af41580156124f7573d6000803e3d6000fd5b505050506040513d601f19601f8201168201806040525081019061251b91906154d6565b9050612527868461271c565b6000606073eaa7Aa2b8D3Bfc9e0a06bd677e5B101ed87cB89563341bebc884878b6040518463ffffffff1660e01b8152600401612566939291906154f7565b600060405180830381865af4158015612583573d6000803e3d6000fd5b505050506040513d6000823e601f3d908101601f191682016040526125ab91908101906156a3565b9197509250905083806125bd57508051155b156125ce5760016020870152612625565b4260101b66ffffffffff00001661ffff8316178560190160006126138b6102c001518c6101c001518d60a001516001600160a01b03166123529092919063ffffffff16565b81526020810191909152604001600020555b505050505b8160200151156126455761263e8482612a7d565b6101a08301525b5092915050565b6000610adf8383612b7e565b61ffff9290921660109190911b63ffff0000161760209190911b64ff00000000161790565b600081831061268d57508061067b565b60006126a161269c8585613c37565b612ba8565b905061068a8185613c4a565b60006126b7610fb7565b54600160401b900460ff16919050565b815160005b8181101561270257828482815181106126e7576126e7615248565b6020026020010151036126fa5750505050565b6001016126cc565b5060405163e378efef60e01b815260040160405180910390fd5b604080830151600090815260168301602052908120805490915b81811015612a7657600080600061277886858154811061275857612758615248565b906000526020600020015490600882901c90604883901c60ff1660011490565b925092509250600061278f848a6101200151612c51565b6020810151815191925060009160ff9081169116146127af5760026127b2565b60015b60ff16905060005b81811015612a65576001600160401b0385161580159061286457506101208b015160405163018c895b60e21b815260006004820181905260646024830181905260448301919091526001600160401b038816926001600160a01b031691630632256c91016020604051808303816000875af115801561283d573d6000803e3d6000fd5b505050506040513d601f19601f820116820180604052508101906128619190615281565b11155b15612a5d5760e08b015160a08c01516102c08d015160405163fbed9ac560e01b81526000936001600160a01b03169263fbed9ac5926128c2926004016001600160a01b039290921682526001600160501b0316602082015260400190565b600060405180830381865afa1580156128df573d6000803e3d6000fd5b505050506040513d6000823e601f3d908101601f191682016040526129079190810190615830565b80519091508015612a5a576000808960ff166000036129ba576101208f01516001600160a01b0316630632256c6000612941600187613c37565b6040516001600160e01b031960e085901b16815260048101929092526024820152600060448201526064016020604051808303816000875af115801561298b573d6000803e3d6000fd5b505050506040513d601f19601f820116820180604052508101906129af9190615281565b915060019050612a17565b60005b83811015612a15578786600281106129d7576129d7615248565b602002015160ff168582815181106129f1576129f1615248565b602002602001015160ff1603612a0d5780925060019150612a15565b6001016129bd565b505b8015612a5757612a408f858481518110612a3357612a33615248565b6020026020010151612e49565b8715612a5757505050505050505050505050505050565b50505b50505b6001016127ba565b505050505050806001019050612736565b5050505050565b6060816019016000612ab1856102c00151866101c001518760a001516001600160a01b03166123529092919063ffffffff16565b815260200190815260200160002060009055816008016000612aed8561024001516000876101c0015161ffff166126589092919063ffffffff16565b8152602001908152602001600020805480602002602001604051908101604052809291908181526020018280548015612b7157602002820191906000526020600020906000905b82829054906101000a900463ffffffff1663ffffffff1681526020019060040190602082600301049283019260010382029150808411612b345790505b5050505050905092915050565b6000826000018281548110612b9557612b95615248565b9060005260206000200154905092915050565b600081600003612bba57506000919050565b6000612bc461304b565b9050612bd1836001613c4a565b4340414443423a5a88604051602001612c2e98979695949392919097885260609690961b6001600160601b0319166020880152603487019490945260548601929092526074850152609484015260b483015260d482015260f40190565b6040516020818303038152906040528051906020012060001c610adf91906158be565b612c596130f9565b60ff831660091480612c6e575060ff8316600b145b15612c8e57506040805180820190915260098152600b602082015261067b565b60ff831660071480612ca3575060ff83166008145b15612d4c576040516337347e0560e11b815260016004820152600060248201819052906001600160a01b03841690636e68fc0a906044016020604051808303816000875af1158015612cf9573d6000803e3d6000fd5b505050506040513d601f19601f82011682018060405250810190612d1d9190615281565b15612d29576008612d2c565b60075b6040805180820190915260ff9091168082526020820152915061067b9050565b60ff8316600c1480612d61575060ff8316600d145b80612d6f575060ff8316600e145b15612e2d576040516337347e0560e11b815260026004820152600060248201819052906001600160a01b03841690636e68fc0a906044016020604051808303816000875af1158015612dc5573d6000803e3d6000fd5b505050506040513d601f19601f82011682018060405250810190612de99190615281565b905060008115612e095781600114612e0257600e612e0c565b600d612e0c565b600c5b6040805180820190915260ff9091168082526020820152925061067b915050565b506040805180820190915260ff8316808252602082015261067b565b60e082015160a08301516102c0840151604051633bdb788b60e01b81526001600160a01b0392831660048201526001600160401b03909116602482015260ff841660448201526000928392612eee92911690633bdb788b90606401602060405180830381865afa158015612ec1573d6000803e3d6000fd5b505050506040513d601f19601f82011682018060405250810190612ee59190615281565b9060a082901c90565b61014086015160a08701516102c08801516080890151604051631af6585960e01b81526001600160a01b0380881660048301526024820187905293841660448201526001600160501b03909216606483015260ff89166084830152821660a4820152600160c48201529395509193501690631af658599060e401600060405180830381600087803b158015612f8257600080fd5b505af1158015612f96573d6000803e3d6000fd5b5050505060a0848101516102c086015161028087015161026088015188516020808b0151604080516001600160a01b0398891681526001600160501b03909716928701929092526001600160401b039094169085015263ffffffff9091166060840152928616608083015292810184905260c081019190915260e08101919091527f90f8faed63ed58ae65dfe64762a7be332106a65c6c330964bb08797f5ee6c9a4906101000160405180910390a150505050565b60006350877ed64614806130625750630235ddd046145b15613080576040518060208160008060185afa61307b57fe5b505190505b90565b604080516101c08101825260008082526020820181905291810182905260608082018190526080820183905260a0820183905260c0820183905260e0820183905261010082018390526101208201839052610140820183905261016082018390526101808201929092526101a081019190915290565b60405180604001604052806002906020820280368337509192915050565b63ffffffff8116811461063157600080fd5b60006020828403121561313b57600080fd5b8135610adf81613117565b61ffff8116811461063157600080fd5b803561316181613146565b919050565b600060c0828403121561317857600080fd5b50919050565b6000806040838503121561319157600080fd5b823561319c81613146565b915060208301356001600160401b038111156131b757600080fd5b6131c385828601613166565b9150509250929050565b60008083601f8401126131df57600080fd5b5081356001600160401b038111156131f657600080fd5b6020830191508360208260051b850101111561321157600080fd5b9250929050565b60008060008060008060008060008060c08b8d03121561323757600080fd5b6132408b613156565b995060208b01356001600160401b038082111561325c57600080fd5b6132688e838f016131cd565b909b50995060408d013591508082111561328157600080fd5b61328d8e838f016131cd565b909950975060608d01359150808211156132a657600080fd5b6132b28e838f016131cd565b909750955060808d01359150808211156132cb57600080fd5b506132d88d828e016131cd565b9150809450508092505060a08b013590509295989b9194979a5092959850565b60006020828403121561330a57600080fd5b8135610adf81613146565b6001600160a01b038116811461063157600080fd5b634e487b7160e01b600052604160045260246000fd5b6040516101c081016001600160401b03811182821017156133635761336361332a565b60405290565b604051601f8201601f191681016001600160401b03811182821017156133915761339161332a565b604052919050565b600082601f8301126133aa57600080fd5b81356001600160401b038111156133c3576133c361332a565b6133d6601f8201601f1916602001613369565b8181528460208386010111156133eb57600080fd5b816020850160208301376000918101602001919091529392505050565b6000806000806080858703121561341e57600080fd5b843561342981613315565b9350602085013561343981613315565b92506040850135915060608501356001600160401b0381111561345b57600080fd5b61346787828801613399565b91505092959194509250565b60008060006060848603121561348857600080fd5b833561349381613117565b925060208401356134a381613315565b929592945050506040919091013590565b6000602082840312156134c657600080fd5b8135610adf81613315565b600080604083850312156134e457600080fd5b82356134ef81613146565b946020939093013593505050565b6000806040838503121561351057600080fd5b823561351b81613146565b915060208301356001600160401b0381111561353657600080fd5b830160e0818603121561354857600080fd5b809150509250929050565b80356001600160401b038116811461316157600080fd5b60ff8116811461063157600080fd5b60008060008060008060008060006101208a8c03121561359857600080fd5b89356135a381613315565b98506135b160208b01613553565b975060408a01356135c181613117565b965060608a0135955060808a01356135d881613315565b945060a08a0135935060c08a01356135ef8161356a565b925060e08a013591506101008a01356001600160401b0381111561361257600080fd5b61361e8c828d01613399565b9150509295985092959850929598565b6001600160a01b03169052565b60008151808452602080850194506020840160005b838110156136755781516001600160a01b031687529582019590820190600101613650565b509495945050505050565b60008151808452602080850194506020840160005b8381101561367557815163ffffffff1687529582019590820190600101613695565b602081526136ca60208201835115159052565b600060208301516136df604084018215159052565b5060408301516136f2606084018261362e565b5060608301516101c080608085015261370f6101e085018361363b565b9150608085015161372560a086018260030b9052565b5060a085015161373a60c086018260030b9052565b5060c085015161374f60e086018260030b9052565b5060e08501516101006137668187018360030b9052565b860151905061012061377c8682018360030b9052565b86015190506101406137958682018363ffffffff169052565b86015190506101606137ae8682018363ffffffff169052565b860151610180868101919091528601516101a080870191909152860151858403601f19018387015290506137e28382613680565b9695505050505050565b60008060006060848603121561380157600080fd5b833561380c81613315565b925060208401359150604084013561382381613315565b809150509250925092565b600060a0828403121561317857600080fd5b60008060006060848603121561385557600080fd5b833561386081613146565b925060208401356001600160401b0381111561387b57600080fd5b6138878682870161382e565b92505060408401356006811061382357600080fd5b600080604083850312156138af57600080fd5b82356138ba81613146565b915060208301356001600160401b038111156138d557600080fd5b83016101a0818603121561354857600080fd5b60008060008060008060006080888a03121561390357600080fd5b873561390e81613146565b965060208801356001600160401b038082111561392a57600080fd5b6139368b838c016131cd565b909850965060408a013591508082111561394f57600080fd5b61395b8b838c016131cd565b909650945060608a013591508082111561397457600080fd5b506139818a828b016131cd565b989b979a50959850939692959293505050565b80356001600160501b038116811461316157600080fd5b6000806000606084860312156139c057600080fd5b83356139cb81613315565b92506139d960208501613994565b9150604084013561382381613146565b60006020808352835180602085015260005b81811015613a17578581018301518582016040015282016139fb565b506000604082860101526040601f19601f8301168501019250505092915050565b6001600160a01b0391909116815260200190565b60008060408385031215613a5f57600080fd5b8235613a6a81613146565b915060208301356001600160401b03811115613a8557600080fd5b83016060818603121561354857600080fd5b60008060408385031215613aaa57600080fd5b8235613ab581613146565b915060208301356001600160401b03811115613ad057600080fd5b6131c38582860161382e565b600080600060608486031215613af157600080fd5b8335613afc81613146565b925060208401356134a381613117565b600060208284031215613b1e57600080fd5b81356001600160401b03811115613b3457600080fd5b82016102c08185031215610adf57600080fd5b600080600060608486031215613b5c57600080fd5b8335613b6781613146565b92506020840135613b7781613315565b9150613b8560408501613994565b90509250925092565b6020808252825182820181905260009190848201906040850190845b81811015613bc657835183529284019291840191600101613baa565b50909695505050505050565b600060208284031215613be457600080fd5b5035919050565b801515811461063157600080fd5b805161316181613beb565b600060208284031215613c1657600080fd5b8151610adf81613beb565b634e487b7160e01b600052601160045260246000fd5b8181038181111561067b5761067b613c21565b8082018082111561067b5761067b613c21565b805161316181613315565b600060208284031215613c7a57600080fd5b8151610adf81613315565b6000808335601e19843603018112613c9c57600080fd5b83016020810192503590506001600160401b03811115613cbb57600080fd5b8060051b360382131561321157600080fd5b8183526000602080850194508260005b85811015613675578135613cf081613146565b61ffff1687529582019590820190600101613cdd565b8183526000602080850194508260005b85811015613675578135613d298161356a565b60ff1687529582019590820190600101613d16565b8183526000602080850194508260005b85811015613675578135613d6181613beb565b151587529582019590820190600101613d4e565b6000838385526020808601955060208560051b8301018460005b87811015613dc957848303601f19018952613daa8288613c85565b613db5858284613d3e565b9a86019a9450505090830190600101613d8f565b5090979650505050505050565b6000838385526020808601955060208560051b8301018460005b87811015613dc957848303601f19018952613e0b8288613c85565b613e16858284613d06565b9a86019a9450505090830190600101613df0565b8060030b811461063157600080fd5b8183526000602080850194508260005b85811015613675578135613e5c81613e2a565b60030b87529582019590820190600101613e49565b6000838385526020808601955060208560051b8301018460005b87811015613dc957848303601f19018952613ea68288613c85565b613eb1858284613e39565b9a86019a9450505090830190600101613e8b565b6000613ed18283613c85565b60c08552613ee360c086018284613ccd565b915050613ef36020840184613c85565b8583036020870152613f06838284613d06565b92505050613f176040840184613c85565b8583036040870152613f2a838284613ccd565b92505050613f3b6060840184613c85565b8583036060870152613f4e838284613d75565b92505050613f5f6080840184613c85565b8583036080870152613f72838284613dd6565b92505050613f8360a0840184613c85565b85830360a08701526137e2838284613e71565b83815261ffff83166020820152606060408201526000610f856060830184613ec5565b81835260006001600160fb1b03831115613fd257600080fd5b8260051b80836020870137939093016020019392505050565b8183526000602080850194508260005b85811015613675576001600160401b0361401483613553565b1687529582019590820190600101613ffb565b8b815261ffff8b16602082015260e06040820152600061404b60e083018b8d613fb9565b828103606084015261405e818a8c613feb565b9050828103608084015261407381888a613feb565b905082810360a0840152614088818688613d3e565b9150508260c08301529c9b505050505050505050505050565b6000838385526020808601955060208560051b8301018460005b87811015613dc957848303601f190189526140d68288613c85565b6140e1858284613fb9565b9a86019a94505050908301906001016140bb565b6000838385526020808601955060208560051b8301018460005b87811015613dc957848303601f1901895261412a8288613c85565b614135858284613feb565b9a86019a945050509083019060010161410f565b60006141558283613c85565b60e0855261416760e086018284613ccd565b9150506141776020840184613c85565b858303602087015261418a838284613d06565b9250505061419b6040840184613c85565b85830360408701526141ae838284613ccd565b925050506141bf6060840184613c85565b85830360608701526141d28382846140a1565b925050506141e36080840184613c85565b85830360808701526141f6838284613d75565b9250505061420760a0840184613c85565b85830360a087015261421a8382846140f5565b9250505061422b60c0840184613c85565b85830360c08701526137e28382846140f5565b83815261ffff83166020820152606060408201526000610f856060830184614149565b6001600160a01b03929092168252602082015260400190565b805161316181613117565b600060a0828403121561429757600080fd5b60405160a081018181106001600160401b03821117156142b9576142b961332a565b60405282516142c781613117565b815260208301516142d781613117565b602082015260408301516142ea81613117565b604082015260608301516142fd81613117565b6060820152608083015161431081613117565b60808201529392505050565b60006020828403121561432e57600080fd5b8151610adf8161356a565b60008383855260208086019550808560051b830101846000805b888110156143b957858403601f19018a5261436e8389613c85565b808652868601845b828110156143a457833561438981613315565b6001600160a01b031682529288019290880190600101614376565b509b87019b9550505091840191600101614353565b509198975050505050505050565b60006143d38283613c85565b60c085526143e560c086018284613ccd565b91505060206143f681850185613c85565b86840383880152614408848284613d06565b935050506144196040850185613c85565b868403604088015261442c848284613ccd565b9350505061443d6060850185613c85565b8684036060880152614450848284614339565b935050506144616080850185613c85565b8684036080880152808452828401600582901b850184018360005b848110156144e857878303601f190184526144978287613c85565b80855288850160005b828110156144d35783356001600160581b0381168082146144c057600080fd5b835250928a0192908a01906001016144a0565b5095890195945050509086019060010161447c565b50506144f760a0890189613c85565b9650945088810360a08a015261450e818787613d75565b9998505050505050505050565b83815261ffff83166020820152606060408201526000610f8560608301846143c7565b600061454a8283613c85565b60a0855261455c60a086018284613ccd565b915050602061456d81850185613c85565b8684038388015261457f848284613d06565b935050506145906040850185613c85565b86840360408801526145a3848284613ccd565b935050506145b46060850185613c85565b86840360608801526145c78482846140a1565b935050506145d86080850185613c85565b8684036080880152808452828401600582901b850184018360005b8481101561465957878303601f1901845261460e8287613c85565b80855288850160005b828110156146445783358060010b80821461463157600080fd5b835250928a0192908a0190600101614617565b509589019594505050908601906001016145f3565b50909998505050505050505050565b634e487b7160e01b600052602160045260246000fd5b84815261ffff841660208201526080604082015260006146a1608083018561453e565b9050600683106146b3576146b3614668565b82606083015295945050505050565b8183526000602080850194508260005b858110156136755781356146e581613117565b63ffffffff16875295820195908201906001016146d2565b6000838385526020808601955060208560051b8301018460005b87811015613dc957848303601f190189526147328288613c85565b61473d8582846146c2565b9a86019a9450505090830190600101614717565b60006101a06147608384613c85565b8286526147708387018284613ccd565b925050506147816020840184613c85565b8583036020870152614794838284613d06565b925050506147a56040840184613c85565b85830360408701526147b8838284613ccd565b925050506147c96060840184613c85565b85830360608701526147dc838284613dd6565b925050506147ed6080840184613c85565b8583036080870152614800838284613e71565b9250505061481160a0840184613c85565b85830360a08701526148248382846146c2565b9250505061483560c0840184613c85565b85830360c0870152614848838284613e39565b9250505061485960e0840184613c85565b85830360e087015261486c838284613e39565b9250505061010061487f81850185613c85565b86840383880152614891848284613e39565b93505050506101206148a581850185613c85565b868403838801526148b7848284613e39565b93505050506101406148cb81850185613c85565b868403838801526148dd848284613e39565b93505050506101606148f181850185613c85565b86840383880152614903848284614339565b935050505061018061491781850185613c85565b86840383880152611dc38482846146fd565b83815261ffff83166020820152606060408201526000610f856060830184614751565b8183526000602080850194508260005b8581101561367557813561496f81613146565b61ffff168752958201959082019060010161495c565b8881526000602061ffff8a16602084015260a060408401526149ab60a08401898b61494c565b8381036060850152868152879060200160005b888110156149e65782356149d18161356a565b60ff16825291830191908301906001016149be565b5084810360808601526115f081878961494c565b6000614a068283613c85565b60608552614a18606086018284613ccd565b915050614a286020840184613c85565b8583036020870152614a3b838284613d06565b92505050614a4c6040840184613c85565b85830360408701526137e28382846146fd565b83815261ffff83166020820152606060408201526000610f8560608301846149fa565b6000614a8e8283613c85565b60a08552614aa060a086018284613ccd565b9150506020614ab181850185613c85565b86840383880152614ac3848284613d06565b93505050614ad46040850185613c85565b8684036040880152614ae7848284613ccd565b93505050614af86060850185613c85565b8684036060880152614b0b848284613d06565b93505050614b1c6080850185613c85565b8684036080880152808452828401600582901b850184018360005b8481101561465957878303601f19018452614b528287613c85565b614b5d858284613ccd565b958901959450505090860190600101614b37565b83815261ffff83166020820152606060408201526000610f856060830184614a82565b6000614ba08283613c85565b60c08552614bb260c086018284613ccd565b915050614bc26020840184613c85565b8583036020870152614bd5838284613d06565b92505050614be66040840184613c85565b8583036040870152614bf9838284613ccd565b92505050614c0a6060840184613c85565b8583036060870152614c1d838284614339565b92505050614c2e6080840184613c85565b8583036080870152614c41838284613d75565b92505050614c5260a0840184613c85565b85830360a08701526137e2838284613d75565b83815261ffff83166020820152606060408201526000610f856060830184614b94565b6000614c948283613c85565b60c08552614ca660c086018284613ccd565b915050614cb66020840184613c85565b8583036020870152614cc9838284613d06565b92505050614cda6040840184613c85565b8583036040870152614ced838284613ccd565b92505050614cfe6060840184613c85565b8583036060870152614d118382846146c2565b92505050614d226080840184613c85565b8583036080870152614d358382846146c2565b92505050614d4660a0840184613c85565b85830360a08701526137e2838284613d3e565b83815261ffff83166020820152606060408201526000610f856060830184614c88565b60008235605e19833603018112614d9257600080fd5b90910192915050565b6000614da78283613c85565b60608552614db9606086018284613ccd565b915050614dc96020840184613c85565b8583036020870152614ddc838284613d06565b92505050614ded6040840184613c85565b85830360408701526137e2838284613ccd565b60008235609e19833603018112614d9257600080fd5b6000823560be19833603018112614d9257600080fd5b6000823560de19833603018112614d9257600080fd5b6000614e4e8283613c85565b60c08552614e6060c086018284613ccd565b915050614e706020840184613c85565b8583036020870152614e83838284613d06565b92505050614e946040840184613c85565b8583036040870152614ea7838284613ccd565b92505050614eb86060840184613c85565b8583036060870152614ecb838284613dd6565b92505050614edc6080840184613c85565b8583036080870152614c418382846140f5565b6000823561019e19833603018112614d9257600080fd5b82815260406020820152614f2860408201614f2084613156565b61ffff169052565b6000614f376020840184613c85565b6102c0806060860152614f4f61030086018385613fb9565b9250614f5e6040870187613c85565b9250603f1980878603016080880152614f78858584613feb565b9450614f876060890189613c85565b94509150808786030160a0880152614fa0858584613feb565b9450614faf6080890189613c85565b94509150808786030160c0880152614fc8858584613d3e565b945060a088013560e0880152614fe160c0890189614d7c565b93506101009150808786030182880152614ffb8585614d9b565b945061500a60e0890189614e00565b93506101208188870301818901526150228686614a82565b9550615030838a018a614e16565b9450610140925081888703018389015261504a8686613ec5565b9550615058818a018a614e16565b9450506101608188870301818901526150718686614b94565b955061507f838a018a614e16565b9450610180925081888703018389015261509986866143c7565b95506150a7818a018a614e16565b9450506101a08188870301818901526150c08686614c88565b95506150ce838a018a614e2c565b94506101c092508188870301838901526150e88686614149565b95506150f6818a018a614e2c565b9450506101e081888703018189015261510f8686614149565b955061511d838a018a614e16565b945061020092508188870301838901526151378686614e42565b9550615145818a018a614d7c565b94505061022081888703018189015261515e86866149fa565b955061516c838a018a614eef565b945061024092508188870301838901526151868686614751565b9550615194818a018a614eef565b9450506102608188870301818901526151ad8686614751565b95506151bb838a018a614e00565b945061028092508188870301838901526151d5868661453e565b95506151e3818a018a614e00565b9450506102a08188870301818901526151fc868661453e565b955061520a838a018a614e00565b945081888703018489015261521f868661453e565b955061522d818a018a614e00565b94505080878603016102e08801525050506137e2828261453e565b634e487b7160e01b600052603260045260246000fd5b83815261ffff83166020820152606060408201526000610f856060830184614e42565b60006020828403121561529357600080fd5b5051919050565b808202811582820484141761067b5761067b613c21565b634e487b7160e01b600052601260045260246000fd5b6000826152d6576152d66152b1565b500490565b6001600160a01b039390931683526020830191909152604082015260600190565b805182526020810151602083015260408101516040830152606081015160608301526080810151615330608084018261362e565b5060a081015161534360a084018261362e565b5060c081015161535660c084018261362e565b5060e081015161536960e084018261362e565b506101008082015161537d8285018261362e565b5050610120808201516153928285018261362e565b5050610140808201516153a78285018261362e565b50506101608181015160ff90811691840191909152610180808301518216908401526101a080830151909116908301526101c08082015161ffff908116918401919091526101e080830151821690840152610200808301518216908401526102208083015182169084015261024080830151909116908301526102608082015163ffffffff90811691840191909152610280808301516001600160401b0316908401526102a08083015164ffffffffff16908401526102c0808301516001600160501b0316908401526102e09182015180518216928401929092526020820151811661030084015260408201518116610320840152606082015181166103408401526080909101511661036090910152565b6103a081016154c882856152fc565b826103808301529392505050565b6000602082840312156154e857600080fd5b815160088110610adf57600080fd5b6103c081016008851061550c5761550c614668565b84825283602083015261068a60408301846152fc565b60006001600160401b0382111561553b5761553b61332a565b5060051b60200190565b600082601f83011261555657600080fd5b8151602061556b61556683615522565b613369565b8083825260208201915060208460051b87010193508684111561558d57600080fd5b602086015b848110156155b25780516155a581613315565b8352918301918301615592565b509695505050505050565b805161316181613e2a565b600082601f8301126155d957600080fd5b815160206155e961556683615522565b8083825260208201915060208460051b87010193508684111561560b57600080fd5b602086015b848110156155b257805161562381613117565b8352918301918301615610565b805161316181613146565b600082601f83011261564c57600080fd5b8151602061565c61556683615522565b8083825260208201915060208460051b87010193508684111561567e57600080fd5b602086015b848110156155b257805161569681613146565b8352918301918301615683565b6000806000606084860312156156b857600080fd5b83516001600160401b03808211156156cf57600080fd5b908501906101c082880312156156e457600080fd5b6156ec613340565b6156f583613bf9565b815261570360208401613bf9565b602082015261571460408401613c5d565b604082015260608301518281111561572b57600080fd5b61573789828601615545565b606083015250615749608084016155bd565b608082015261575a60a084016155bd565b60a082015261576b60c084016155bd565b60c082015261577c60e084016155bd565b60e082015261010061578f8185016155bd565b908201526101206157a184820161427a565b908201526101406157b384820161427a565b90820152610160838101519082015261018080840151908201526101a080840151838111156157e157600080fd5b6157ed8a8287016155c8565b8284015250508095505061580360208701615630565b9350604086015191508082111561581957600080fd5b506158268682870161563b565b9150509250925092565b6000602080838503121561584357600080fd5b82516001600160401b0381111561585957600080fd5b8301601f8101851361586a57600080fd5b805161587861556682615522565b81815260059190911b8201830190838101908783111561589757600080fd5b928401925b82841015611dc35783516158af8161356a565b8252928401929084019061589c565b6000826158cd576158cd6152b1565b50069056fe22573091f17911fb166032a3d9e0554aa73d31b7b7ddea4a4dd2995650af84bda2646970667358221220ace54fcb786285e664cc0ee74e9e5bdf223568136b8189f48c08ce380f77574264736f6c63430008170033",
  "deployedBytecode": "0x608060405234801561001057600080fd5b506004361061023f5760003560e01c80637cc963801161013c578063cb90acc0116100be578063cb90acc014610529578063d02a74a41461053c578063d6dd32731461054f578063dce9127214610562578063dee1f0e414610575578063e08868ae14610588578063e89356471461059b578063ef767961146105bb578063f660b274146105ce578063f77c4791146105e1578063ff12f389146105e9578063ffa1ad74146105fc57600080fd5b80637cc96380146104435780637f9e78a21461044b57806384ff97d41461045e578063889700641461047157806392b6c5cf14610484578063936725ec146104975780639d0bcca0146104c8578063aa1293d9146104dd578063ac62e9f9146104f0578063b429afeb14610503578063bc982d2b1461051657600080fd5b80631e3cd404116101c55780631e3cd40414610360578063325a19f1146103735780633ed2f89a1461037b5780634593144c1461038e57806349a8ccd5146103965780634fac6ccd146103bc578063509a093f146103cf578063656218ff146103f75780636eee5afe1461040a57806373aeb3921461041d578063788a2d2e1461043057600080fd5b806305f92239146102445780630c0e97dd146102595780630cac0c1f1461026c57806312a554ec1461027f578063150b7a02146102a5578063152f74f0146102d157806318daea98146102f457806319ab453c146103075780631a94214a1461031a5780631aab826a1461032d5780631c1b0daa14610340575b600080fd5b610257610252366004613129565b610620565b005b61025761026736600461317e565b610634565b61025761027a366004613218565b61064a565b61029261028d3660046132f8565b610670565b6040519081526020015b60405180910390f35b6102b86102b3366004613408565b610681565b6040516001600160e01b0319909116815260200161029c565b6102e46102df366004613473565b610692565b604051901515815260200161029c565b6102926103023660046132f8565b6106a7565b6102576103153660046134b4565b6106b2565b6102576103283660046134d1565b6107ac565b61025761033b3660046134fd565b6107be565b61035361034e366004613579565b6107d0565b60405161029c91906136b7565b61025761036e3660046137ec565b6107ff565b610292610908565b6102e4610389366004613129565b610941565b61029261094c565b6103a96103a4366004613129565b61097c565b60405161ffff909116815260200161029c565b6102576103ca3660046134b4565b610987565b6103e26103dd3660046132f8565b610a93565b60405163ffffffff909116815260200161029c565b61025761040536600461317e565b610a9e565b6102926104183660046132f8565b610ab0565b61025761042b366004613840565b610abb565b61029261043e3660046134d1565b610ad3565b610292610ae6565b61025761045936600461389c565b610b04565b61025761046c3660046138e8565b610b16565b61025761047f3660046134d1565b610b2d565b6103a96104923660046139ab565b610b3f565b6104bb604051806040016040528060058152602001640312e302e360dc1b81525081565b60405161029c91906139e9565b6104d0610b4c565b60405161029c9190613a38565b6102576104eb366004613a4c565b610b7c565b6102576104fe366004613a97565b610b8e565b6102e46105113660046134b4565b610ba0565b61025761052436600461317e565b610bc5565b610257610537366004613adc565b610bd7565b61025761054a36600461317e565b610bea565b61025761055d366004613b0c565b610bfc565b6102576105703660046134fd565b610c0d565b6102e46105833660046134b4565b610c1f565b6102926105963660046134d1565b610ca4565b6105ae6105a9366004613b47565b610cb0565b60405161029c9190613b8e565b6102576105c936600461317e565b610cc5565b6102576105dc36600461389c565b610cd7565b6104d0610ce9565b6102926105f7366004613bd2565b610d19565b6104bb60405180604001604052806005815260200164322e312e3160d81b81525081565b61063161062b610ce9565b82610d2c565b50565b61064661063f610ce9565b8383610daf565b5050565b610664610655610ce9565b8b8b8b8b8b8b8b8b8b8b610e26565b50505050505050505050565b600061067b82610ebe565b92915050565b630a85bd0160e11b5b949350505050565b600061068a61069f610ce9565b858585610ee7565b600061067b82610f8e565b60006106bc610fb7565b805490915060ff600160401b82041615906001600160401b03166000811580156106e35750825b90506000826001600160401b031660011480156106ff5750303b155b90508115801561070d575080155b1561072b5760405163f92ee8a960e01b815260040160405180910390fd5b845467ffffffffffffffff19166001178555831561075557845460ff60401b1916600160401b1785555b61075e86610fdb565b83156107a457845460ff60401b19168555604051600181527fc7f505b2f371ae2175ee4913f4499e1f2633a7b5936321eed1cdaeb6115181d29060200160405180910390a15b505050505050565b6106466107b7610ce9565b8383610fec565b6106466107c9610ce9565b838361104c565b6107d8613083565b6107f16107e3610ce9565b8b8b8b8b8b8b8b8b8b611097565b9a9950505050505050505050565b610807610ce9565b6001600160a01b03166350c358a4336040518263ffffffff1660e01b81526004016108329190613a38565b602060405180830381865afa15801561084f573d6000803e3d6000fd5b505050506040513d601f19601f820116820180604052508101906108739190613c04565b61089b573360405163988d1f0360e01b81526004016108929190613a38565b60405180910390fd5b6040516323b872dd60e01b81523060048201526001600160a01b038281166024830152604482018490528416906323b872dd90606401600060405180830381600087803b1580156108eb57600080fd5b505af11580156108ff573d6000803e3d6000fd5b50505050505050565b600061093c61093860017f6f55f470bdc9cb5f04223fd822021061668e4dccb43e8727b295106dc9769c8b613c37565b5490565b905090565b600061067b82611601565b600061093c61093860017f812a673dfca07956350df10f8a654925f561d7a0da09bdbe79e653939a14d9f1613c37565b600061067b8261162d565b3330146109d45760405162461bcd60e51b815260206004820152601b60248201527a24b731b932b0b9b2903932bb34b9b4b7b7103337b93134b23232b760291b6044820152606401610892565b60006109f261093860016000805160206158d3833981519152613c37565b6109fd906001613c4a565b9050610a1f81610a1c60016000805160206158d3833981519152613c37565b55565b610a4e82610a1c60017fbfaaa2fb63266ff27c2da975f5894955056f50419af651a81f6c5060581857e4613c37565b604080518281526001600160a01b03841660208201527ff27e2ef832a4eb8ed8ec553b875eecd44764cda95b1c24170e281539e0a869c8910160405180910390a15050565b600061067b82611657565b610646610aa9610ce9565b8383611684565b600061067b826116cf565b610ace610ac6610ce9565b8484846116f6565b505050565b6000610adf8383611779565b9392505050565b600061093c61093860016000805160206158d3833981519152613c37565b610646610b0f610ce9565b83836117a4565b6108ff610b21610ce9565b888888888888886117ef565b610646610b38610ce9565b838361187e565b600061068a8484846118a9565b600061093c61093860017fbfaaa2fb63266ff27c2da975f5894955056f50419af651a81f6c5060581857e4613c37565b610646610b87610ce9565b83836118d8565b610646610b99610ce9565b8383611923565b6000610baa610ce9565b6001600160a01b0316826001600160a01b0316149050919050565b610646610bd0610ce9565b838361196e565b610ace610be2610ce9565b8484846119b9565b610646610bf5610ce9565b8383611a25565b610631610c07610ce9565b82611a70565b610646610c18610ce9565b8383611ab9565b6000816001600160a01b0316610c33610ce9565b6001600160a01b0316635aa6e6756040518163ffffffff1660e01b8152600401602060405180830381865afa158015610c70573d6000803e3d6000fd5b505050506040513d601f19601f82011682018060405250810190610c949190613c68565b6001600160a01b03161492915050565b6000610adf8383611ae4565b606061068a610cbd610ce9565b858585611b0f565b610646610cd0610ce9565b8383611dce565b610646610ce2610ce9565b8383611e19565b600061093c61093860017f5165972ef41194f06c5007493031d0b927c20741adcb74403b954009fd2c3618613c37565b600061067b82610d27610ce9565b611e44565b610d3582611ec5565b73__$418e69fab995b7bcb2c7cc5bb73ada6f02$__63a913674b610d57611f51565b6040516001600160e01b031960e084901b168152600481019190915263ffffffff841660248201526044015b60006040518083038186803b158015610d9b57600080fd5b505af41580156107a4573d6000803e3d6000fd5b610db883611ec5565b73__$418e69fab995b7bcb2c7cc5bb73ada6f02$__63a84d660c610dda611f51565b84846040518463ffffffff1660e01b8152600401610dfa93929190613f96565b60006040518083038186803b158015610e1257600080fd5b505af41580156108ff573d6000803e3d6000fd5b610e2f8b611ec5565b73__$418e69fab995b7bcb2c7cc5bb73ada6f02$__63ca473936610e51611f51565b8c8c8c8c8c8c8c8c8c8c6040518c63ffffffff1660e01b8152600401610e819b9a99989796959493929190614027565b60006040518083038186803b158015610e9957600080fd5b505af4158015610ead573d6000803e3d6000fd5b505050505050505050505050505050565b600061067b610ecb611f51565b61ffff8416600090815260049190910160205260409020611f75565b6000610f85610ef4611f51565b610efc611f51565b63ffffffff871660009081526020918252604090819020548151628e969160e01b8152915161ffff90911692889288926001600160a01b038d1692628e969192600480820193918290030181865afa158015610f5c573d6000803e3d6000fd5b505050506040513d601f19601f82011682018060405250810190610f809190613c68565b611f7f565b95945050505050565b600061067b610f9b611f51565b61ffff8416600090815260059190910160205260409020611f75565b7ff0c57e16840df040f15088dc2f81fe391c3923bec73e23a9662efc9c229c6a0090565b610fe3612202565b61063181612229565b610ff583611ec5565b73__$418e69fab995b7bcb2c7cc5bb73ada6f02$__633e8dd868611017611f51565b6040516001600160e01b031960e084901b168152600481019190915261ffff8516602482015260448101849052606401610dfa565b61105583611ec5565b73__$418e69fab995b7bcb2c7cc5bb73ada6f02$__6301c7664c611077611f51565b84846040518463ffffffff1660e01b8152600401610dfa9392919061423e565b61109f613083565b336001600160a01b03168b6001600160a01b03166389dd9f136040518163ffffffff1660e01b8152600401602060405180830381865afa1580156110e7573d6000803e3d6000fd5b505050506040513d601f19601f8201168201806040525081019061110b9190613c68565b6001600160a01b03161461113457336040516309f23ad160e41b81526004016108929190613a38565b60008b6001600160a01b0316628e96916040518163ffffffff1660e01b8152600401602060405180830381865afa158015611173573d6000803e3d6000fd5b505050506040513d601f19601f820116820180604052508101906111979190613c68565b905060006040518061030001604052808a81526020018681526020016111bc8661233c565b81526020016000801b81526020018d6001600160a01b03168152602001896001600160a01b031681526020018e6001600160a01b03168152602001836001600160a01b031681526020018e6001600160a01b031663016dff5d6040518163ffffffff1660e01b8152600401602060405180830381865afa158015611244573d6000803e3d6000fd5b505050506040513d601f19601f820116820180604052508101906112689190613c68565b6001600160a01b031681526020018e6001600160a01b0316637dc0d1d06040518163ffffffff1660e01b8152600401602060405180830381865afa1580156112b4573d6000803e3d6000fd5b505050506040513d601f19601f820116820180604052508101906112d89190613c68565b6001600160a01b031681526020018e6001600160a01b03166331423c266040518163ffffffff1660e01b8152600401602060405180830381865afa158015611324573d6000803e3d6000fd5b505050506040513d601f19601f820116820180604052508101906113489190613c68565b6001600160a01b03168152600060208201819052604082015260ff88166060820152608001611375611f51565b63ffffffff8d166000818152602092835260408082205461ffff168552928401819052838301819052606084018190526080840181905260a08401919091526001600160401b038f1660c084015260e08301526001600160501b038a1661010083015251631a95890960e31b8152610120909101906001600160a01b0385169063d4ac48489061140b908d908d90600401614261565b60a060405180830381865afa158015611428573d6000803e3d6000fd5b505050506040513d601f19601f8201168201806040525081019061144c9190614285565b8152509050806101c0015161ffff1660000361147b576040516326358d7f60e21b815260040160405180910390fd5b8061010001516001600160a01b0316631789b7b1896040518263ffffffff1660e01b81526004016114ac9190613a38565b602060405180830381865afa1580156114c9573d6000803e3d6000fd5b505050506040513d601f19601f820116820180604052508101906114ed919061431c565b60ff166101608201526114fe611f51565b60408083015160009081526009929092016020529020546060820152611565611525611f51565b601901600061154d8a856101c001518d6001600160a01b03166123529092919063ffffffff16565b81526020019081526020016000205490601082901c90565b64ffffffffff166102a083015261ffff166102408201526040810151601081901c602082901c602883901c846101e0018561020001866101800187610220018461ffff1661ffff168152508460ff1660ff168152508461ffff1661ffff168152508461ffff1661ffff16815250505050506115f0816115eb8f846101c001518c8c611b0f565b612385565b9d9c50505050505050505050505050565b600061160b611f51565b63ffffffff909216600090815260039290920160205250604090205460ff1690565b6000611637611f51565b63ffffffff909216600090815260209290925250604090205461ffff1690565b6000611661611f51565b61ffff909216600090815260019290920160205250604090205463ffffffff1690565b61168d83611ec5565b73__$418e69fab995b7bcb2c7cc5bb73ada6f02$__63568141906116af611f51565b84846040518463ffffffff1660e01b8152600401610dfa9392919061451b565b60006116d9611f51565b61ffff9092166000908152601a9290920160205250604090205490565b6116ff84611ec5565b73__$418e69fab995b7bcb2c7cc5bb73ada6f02$__630324a18c611721611f51565b8585856040518563ffffffff1660e01b8152600401611743949392919061467e565b60006040518083038186803b15801561175b57600080fd5b505af415801561176f573d6000803e3d6000fd5b5050505050505050565b6000610adf82611787611f51565b61ffff86166000908152600491909101602052604090209061264c565b6117ad83611ec5565b73__$418e69fab995b7bcb2c7cc5bb73ada6f02$__63b5083ab96117cf611f51565b84846040518463ffffffff1660e01b8152600401610dfa93929190614929565b6117f888611ec5565b73__$418e69fab995b7bcb2c7cc5bb73ada6f02$__6301c3192f61181a611f51565b898989898989896040518963ffffffff1660e01b8152600401611844989796959493929190614985565b60006040518083038186803b15801561185c57600080fd5b505af4158015611870573d6000803e3d6000fd5b505050505050505050505050565b61188783611ec5565b73__$418e69fab995b7bcb2c7cc5bb73ada6f02$__63b5287c91611017611f51565b60006118cf6118b6611f51565b601901600061154d6001600160a01b0388168787612352565b50949350505050565b6118e183611ec5565b73__$418e69fab995b7bcb2c7cc5bb73ada6f02$__63d335b7f3611903611f51565b84846040518463ffffffff1660e01b8152600401610dfa93929190614a5f565b61192c83611ec5565b73__$418e69fab995b7bcb2c7cc5bb73ada6f02$__638cd5642c61194e611f51565b84846040518463ffffffff1660e01b8152600401610dfa93929190614b71565b61197783611ec5565b73__$418e69fab995b7bcb2c7cc5bb73ada6f02$__63679dde4c611999611f51565b84846040518463ffffffff1660e01b8152600401610dfa93929190614c65565b6119c284611ec5565b73__$418e69fab995b7bcb2c7cc5bb73ada6f02$__631c9a90086119e4611f51565b6040516001600160e01b031960e084901b168152600481019190915261ffff8616602482015263ffffffff8516604482015260648101849052608401611743565b611a2e83611ec5565b73__$418e69fab995b7bcb2c7cc5bb73ada6f02$__636b6cc9f8611a50611f51565b84846040518463ffffffff1660e01b8152600401610dfa93929190614d59565b611a7982611ec5565b73__$418e69fab995b7bcb2c7cc5bb73ada6f02$__639c9dc579611a9b611f51565b836040518363ffffffff1660e01b8152600401610d83929190614f06565b611ac283611ec5565b73__$418e69fab995b7bcb2c7cc5bb73ada6f02$__63cbbefc28611077611f51565b6000610adf82611af2611f51565b61ffff86166000908152600591909101602052604090209061264c565b60606000856001600160a01b031663016dff5d6040518163ffffffff1660e01b8152600401602060405180830381865afa158015611b51573d6000803e3d6000fd5b505050506040513d601f19601f82011682018060405250810190611b759190613c68565b90506000611b9d611b84611f51565b601901600061154d6001600160a01b038916888b612352565b5090506000611baa611f51565b6006016000611c2c84866001600160a01b0316631789b7b18b6040518263ffffffff1660e01b8152600401611bdf9190613a38565b602060405180830381865afa158015611bfc573d6000803e3d6000fd5b505050506040513d601f19601f82011682018060405250810190611c20919061431c565b61ffff8c169190612658565b8152602001908152602001600020805480602002602001604051908101604052809291908181526020018280548015611c8457602002820191906000526020600020905b815481526020019060010190808311611c70575b505050505090508051600003611d1057611c9c611f51565b6006016000611cb061ffff8a168583612658565b8152602001908152602001600020805480602002602001604051908101604052809291908181526020018280548015611d0857602002820191906000526020600020905b815481526020019060010190808311611cf4575b505050505090505b805115611dc35760005b60018251611d289190613c37565b811015611dc1576000611d488260018551611d439190613c37565b61267d565b9050828281518110611d5c57611d5c615248565b6020026020010151838281518110611d7657611d76615248565b6020026020010151848381518110611d9057611d90615248565b60200260200101858581518110611da957611da9615248565b60209081029190910101919091525250600101611d1a565b505b979650505050505050565b611dd783611ec5565b73__$418e69fab995b7bcb2c7cc5bb73ada6f02$__63c5828ff1611df9611f51565b84846040518463ffffffff1660e01b8152600401610dfa9392919061525e565b611e2283611ec5565b73__$418e69fab995b7bcb2c7cc5bb73ada6f02$__63751dda436117cf611f51565b6000670de0b6b3a7640000826001600160a01b031663b1bc41956040518163ffffffff1660e01b8152600401602060405180830381865afa158015611e8d573d6000803e3d6000fd5b505050506040513d601f19601f82011682018060405250810190611eb19190615281565b611ebb908561529a565b610adf91906152c7565b604051631430d62960e21b81526001600160a01b038216906350c358a490611ef1903390600401613a38565b602060405180830381865afa158015611f0e573d6000803e3d6000fd5b505050506040513d601f19601f82011682018060405250810190611f329190613c04565b610631573360405163451cea1760e11b81526004016108929190613a38565b7f1fbca2ab9841348cca3f2687c48325e9989a76ad929b9970d1c11e233677cf0090565b600061067b825490565b61ffff8416600090815260188601602052604081205480158015906120195750604051631a95890960e31b815281906001600160a01b0385169063d4ac484890611fcf9089908990600401614261565b60a060405180830381865afa158015611fec573d6000803e3d6000fd5b505050506040513d601f19601f820116820180604052508101906120109190614285565b5163ffffffff16105b15612028576000915050610f85565b61ffff861660009081526017880160205260408120805490915b818110156121f257600083828154811061205e5761205e615248565b600091825260209182902060408051808201909152600290920201805480835260019091015492820192909252915061209757506121ea565b60008060006120b9846020015190604082901c90608083901c60ff1660011490565b925092509250600081612137578451604051630a82c86160e01b815260048101919091526001600160a01b038c1690630a82c86190602401602060405180830381865afa15801561210e573d6000803e3d6000fd5b505050506040513d601f19601f820116820180604052508101906121329190615281565b6121ac565b8a6001600160a01b0316631c2aafe78e8e88600001516040518463ffffffff1660e01b815260040161216b939291906152db565b602060405180830381865afa158015612188573d6000803e3d6000fd5b505050506040513d601f19601f820116820180604052508101906121ac9190615281565b9050836001600160401b03168110806121cd5750826001600160401b031681115b156121e45760009950505050505050505050610f85565b50505050505b600101612042565b5060019998505050505050505050565b61220a6126ad565b61222757604051631afcd79f60e31b815260040160405180910390fd5b565b6001600160a01b0381166122715760405162461bcd60e51b815260206004820152600f60248201526e2d32b9379031b7b73a3937b63632b960891b6044820152606401610892565b6122a081610a1c60017f5165972ef41194f06c5007493031d0b927c20741adcb74403b954009fd2c3618613c37565b6122cf42610a1c60017f6f55f470bdc9cb5f04223fd822021061668e4dccb43e8727b295106dc9769c8b613c37565b6122fe43610a1c60017f812a673dfca07956350df10f8a654925f561d7a0da09bdbe79e653939a14d9f1613c37565b7f1a2dd071001ebf6e03174e3df5b305795a4ad5d41d8fdb9ba41dbbe236713426814243604051612331939291906152db565b60405180910390a150565b60008180602001905181019061067b9190615281565b6001600160a01b039290921660a09190911b600160a01b600160f01b03161760f09190911b6001600160f01b0319161790565b61238d613083565b6000612397611f51565b905082516000036123e85761026084015163ffffffff166101208301526102c08401516001600160501b031661016083015260a08401516001600160a01b031660408301526001602083015261262a565b836101e0015161ffff16846101c0015161ffff1614612434576101c08401516101e0850151604051636df9cb0960e11b815261ffff928316600482015291166024820152604401610892565b83610200015161ffff1684610240015161ffff1614612480576102408401516102008501516040516364f16ac560e01b815261ffff928316600482015291166024820152604401610892565b61248e8385604001516126c7565b60608401516040805163be03c0c360e01b815291901c60ff166001149060009073__$178ac38bd41d46643174775c0e64a3f7b4$__9063be03c0c3906124da90899087906004016154b9565b602060405180830381865af41580156124f7573d6000803e3d6000fd5b505050506040513d601f19601f8201168201806040525081019061251b91906154d6565b9050612527868461271c565b6000606073__$178ac38bd41d46643174775c0e64a3f7b4$__63341bebc884878b6040518463ffffffff1660e01b8152600401612566939291906154f7565b600060405180830381865af4158015612583573d6000803e3d6000fd5b505050506040513d6000823e601f3d908101601f191682016040526125ab91908101906156a3565b9197509250905083806125bd57508051155b156125ce5760016020870152612625565b4260101b66ffffffffff00001661ffff8316178560190160006126138b6102c001518c6101c001518d60a001516001600160a01b03166123529092919063ffffffff16565b81526020810191909152604001600020555b505050505b8160200151156126455761263e8482612a7d565b6101a08301525b5092915050565b6000610adf8383612b7e565b61ffff9290921660109190911b63ffff0000161760209190911b64ff00000000161790565b600081831061268d57508061067b565b60006126a161269c8585613c37565b612ba8565b905061068a8185613c4a565b60006126b7610fb7565b54600160401b900460ff16919050565b815160005b8181101561270257828482815181106126e7576126e7615248565b6020026020010151036126fa5750505050565b6001016126cc565b5060405163e378efef60e01b815260040160405180910390fd5b604080830151600090815260168301602052908120805490915b81811015612a7657600080600061277886858154811061275857612758615248565b906000526020600020015490600882901c90604883901c60ff1660011490565b925092509250600061278f848a6101200151612c51565b6020810151815191925060009160ff9081169116146127af5760026127b2565b60015b60ff16905060005b81811015612a65576001600160401b0385161580159061286457506101208b015160405163018c895b60e21b815260006004820181905260646024830181905260448301919091526001600160401b038816926001600160a01b031691630632256c91016020604051808303816000875af115801561283d573d6000803e3d6000fd5b505050506040513d601f19601f820116820180604052508101906128619190615281565b11155b15612a5d5760e08b015160a08c01516102c08d015160405163fbed9ac560e01b81526000936001600160a01b03169263fbed9ac5926128c2926004016001600160a01b039290921682526001600160501b0316602082015260400190565b600060405180830381865afa1580156128df573d6000803e3d6000fd5b505050506040513d6000823e601f3d908101601f191682016040526129079190810190615830565b80519091508015612a5a576000808960ff166000036129ba576101208f01516001600160a01b0316630632256c6000612941600187613c37565b6040516001600160e01b031960e085901b16815260048101929092526024820152600060448201526064016020604051808303816000875af115801561298b573d6000803e3d6000fd5b505050506040513d601f19601f820116820180604052508101906129af9190615281565b915060019050612a17565b60005b83811015612a15578786600281106129d7576129d7615248565b602002015160ff168582815181106129f1576129f1615248565b602002602001015160ff1603612a0d5780925060019150612a15565b6001016129bd565b505b8015612a5757612a408f858481518110612a3357612a33615248565b6020026020010151612e49565b8715612a5757505050505050505050505050505050565b50505b50505b6001016127ba565b505050505050806001019050612736565b5050505050565b6060816019016000612ab1856102c00151866101c001518760a001516001600160a01b03166123529092919063ffffffff16565b815260200190815260200160002060009055816008016000612aed8561024001516000876101c0015161ffff166126589092919063ffffffff16565b8152602001908152602001600020805480602002602001604051908101604052809291908181526020018280548015612b7157602002820191906000526020600020906000905b82829054906101000a900463ffffffff1663ffffffff1681526020019060040190602082600301049283019260010382029150808411612b345790505b5050505050905092915050565b6000826000018281548110612b9557612b95615248565b9060005260206000200154905092915050565b600081600003612bba57506000919050565b6000612bc461304b565b9050612bd1836001613c4a565b4340414443423a5a88604051602001612c2e98979695949392919097885260609690961b6001600160601b0319166020880152603487019490945260548601929092526074850152609484015260b483015260d482015260f40190565b6040516020818303038152906040528051906020012060001c610adf91906158be565b612c596130f9565b60ff831660091480612c6e575060ff8316600b145b15612c8e57506040805180820190915260098152600b602082015261067b565b60ff831660071480612ca3575060ff83166008145b15612d4c576040516337347e0560e11b815260016004820152600060248201819052906001600160a01b03841690636e68fc0a906044016020604051808303816000875af1158015612cf9573d6000803e3d6000fd5b505050506040513d601f19601f82011682018060405250810190612d1d9190615281565b15612d29576008612d2c565b60075b6040805180820190915260ff9091168082526020820152915061067b9050565b60ff8316600c1480612d61575060ff8316600d145b80612d6f575060ff8316600e145b15612e2d576040516337347e0560e11b815260026004820152600060248201819052906001600160a01b03841690636e68fc0a906044016020604051808303816000875af1158015612dc5573d6000803e3d6000fd5b505050506040513d601f19601f82011682018060405250810190612de99190615281565b905060008115612e095781600114612e0257600e612e0c565b600d612e0c565b600c5b6040805180820190915260ff9091168082526020820152925061067b915050565b506040805180820190915260ff8316808252602082015261067b565b60e082015160a08301516102c0840151604051633bdb788b60e01b81526001600160a01b0392831660048201526001600160401b03909116602482015260ff841660448201526000928392612eee92911690633bdb788b90606401602060405180830381865afa158015612ec1573d6000803e3d6000fd5b505050506040513d601f19601f82011682018060405250810190612ee59190615281565b9060a082901c90565b61014086015160a08701516102c08801516080890151604051631af6585960e01b81526001600160a01b0380881660048301526024820187905293841660448201526001600160501b03909216606483015260ff89166084830152821660a4820152600160c48201529395509193501690631af658599060e401600060405180830381600087803b158015612f8257600080fd5b505af1158015612f96573d6000803e3d6000fd5b5050505060a0848101516102c086015161028087015161026088015188516020808b0151604080516001600160a01b0398891681526001600160501b03909716928701929092526001600160401b039094169085015263ffffffff9091166060840152928616608083015292810184905260c081019190915260e08101919091527f90f8faed63ed58ae65dfe64762a7be332106a65c6c330964bb08797f5ee6c9a4906101000160405180910390a150505050565b60006350877ed64614806130625750630235ddd046145b15613080576040518060208160008060185afa61307b57fe5b505190505b90565b604080516101c08101825260008082526020820181905291810182905260608082018190526080820183905260a0820183905260c0820183905260e0820183905261010082018390526101208201839052610140820183905261016082018390526101808201929092526101a081019190915290565b60405180604001604052806002906020820280368337509192915050565b63ffffffff8116811461063157600080fd5b60006020828403121561313b57600080fd5b8135610adf81613117565b61ffff8116811461063157600080fd5b803561316181613146565b919050565b600060c0828403121561317857600080fd5b50919050565b6000806040838503121561319157600080fd5b823561319c81613146565b915060208301356001600160401b038111156131b757600080fd5b6131c385828601613166565b9150509250929050565b60008083601f8401126131df57600080fd5b5081356001600160401b038111156131f657600080fd5b6020830191508360208260051b850101111561321157600080fd5b9250929050565b60008060008060008060008060008060c08b8d03121561323757600080fd5b6132408b613156565b995060208b01356001600160401b038082111561325c57600080fd5b6132688e838f016131cd565b909b50995060408d013591508082111561328157600080fd5b61328d8e838f016131cd565b909950975060608d01359150808211156132a657600080fd5b6132b28e838f016131cd565b909750955060808d01359150808211156132cb57600080fd5b506132d88d828e016131cd565b9150809450508092505060a08b013590509295989b9194979a5092959850565b60006020828403121561330a57600080fd5b8135610adf81613146565b6001600160a01b038116811461063157600080fd5b634e487b7160e01b600052604160045260246000fd5b6040516101c081016001600160401b03811182821017156133635761336361332a565b60405290565b604051601f8201601f191681016001600160401b03811182821017156133915761339161332a565b604052919050565b600082601f8301126133aa57600080fd5b81356001600160401b038111156133c3576133c361332a565b6133d6601f8201601f1916602001613369565b8181528460208386010111156133eb57600080fd5b816020850160208301376000918101602001919091529392505050565b6000806000806080858703121561341e57600080fd5b843561342981613315565b9350602085013561343981613315565b92506040850135915060608501356001600160401b0381111561345b57600080fd5b61346787828801613399565b91505092959194509250565b60008060006060848603121561348857600080fd5b833561349381613117565b925060208401356134a381613315565b929592945050506040919091013590565b6000602082840312156134c657600080fd5b8135610adf81613315565b600080604083850312156134e457600080fd5b82356134ef81613146565b946020939093013593505050565b6000806040838503121561351057600080fd5b823561351b81613146565b915060208301356001600160401b0381111561353657600080fd5b830160e0818603121561354857600080fd5b809150509250929050565b80356001600160401b038116811461316157600080fd5b60ff8116811461063157600080fd5b60008060008060008060008060006101208a8c03121561359857600080fd5b89356135a381613315565b98506135b160208b01613553565b975060408a01356135c181613117565b965060608a0135955060808a01356135d881613315565b945060a08a0135935060c08a01356135ef8161356a565b925060e08a013591506101008a01356001600160401b0381111561361257600080fd5b61361e8c828d01613399565b9150509295985092959850929598565b6001600160a01b03169052565b60008151808452602080850194506020840160005b838110156136755781516001600160a01b031687529582019590820190600101613650565b509495945050505050565b60008151808452602080850194506020840160005b8381101561367557815163ffffffff1687529582019590820190600101613695565b602081526136ca60208201835115159052565b600060208301516136df604084018215159052565b5060408301516136f2606084018261362e565b5060608301516101c080608085015261370f6101e085018361363b565b9150608085015161372560a086018260030b9052565b5060a085015161373a60c086018260030b9052565b5060c085015161374f60e086018260030b9052565b5060e08501516101006137668187018360030b9052565b860151905061012061377c8682018360030b9052565b86015190506101406137958682018363ffffffff169052565b86015190506101606137ae8682018363ffffffff169052565b860151610180868101919091528601516101a080870191909152860151858403601f19018387015290506137e28382613680565b9695505050505050565b60008060006060848603121561380157600080fd5b833561380c81613315565b925060208401359150604084013561382381613315565b809150509250925092565b600060a0828403121561317857600080fd5b60008060006060848603121561385557600080fd5b833561386081613146565b925060208401356001600160401b0381111561387b57600080fd5b6138878682870161382e565b92505060408401356006811061382357600080fd5b600080604083850312156138af57600080fd5b82356138ba81613146565b915060208301356001600160401b038111156138d557600080fd5b83016101a0818603121561354857600080fd5b60008060008060008060006080888a03121561390357600080fd5b873561390e81613146565b965060208801356001600160401b038082111561392a57600080fd5b6139368b838c016131cd565b909850965060408a013591508082111561394f57600080fd5b61395b8b838c016131cd565b909650945060608a013591508082111561397457600080fd5b506139818a828b016131cd565b989b979a50959850939692959293505050565b80356001600160501b038116811461316157600080fd5b6000806000606084860312156139c057600080fd5b83356139cb81613315565b92506139d960208501613994565b9150604084013561382381613146565b60006020808352835180602085015260005b81811015613a17578581018301518582016040015282016139fb565b506000604082860101526040601f19601f8301168501019250505092915050565b6001600160a01b0391909116815260200190565b60008060408385031215613a5f57600080fd5b8235613a6a81613146565b915060208301356001600160401b03811115613a8557600080fd5b83016060818603121561354857600080fd5b60008060408385031215613aaa57600080fd5b8235613ab581613146565b915060208301356001600160401b03811115613ad057600080fd5b6131c38582860161382e565b600080600060608486031215613af157600080fd5b8335613afc81613146565b925060208401356134a381613117565b600060208284031215613b1e57600080fd5b81356001600160401b03811115613b3457600080fd5b82016102c08185031215610adf57600080fd5b600080600060608486031215613b5c57600080fd5b8335613b6781613146565b92506020840135613b7781613315565b9150613b8560408501613994565b90509250925092565b6020808252825182820181905260009190848201906040850190845b81811015613bc657835183529284019291840191600101613baa565b50909695505050505050565b600060208284031215613be457600080fd5b5035919050565b801515811461063157600080fd5b805161316181613beb565b600060208284031215613c1657600080fd5b8151610adf81613beb565b634e487b7160e01b600052601160045260246000fd5b8181038181111561067b5761067b613c21565b8082018082111561067b5761067b613c21565b805161316181613315565b600060208284031215613c7a57600080fd5b8151610adf81613315565b6000808335601e19843603018112613c9c57600080fd5b83016020810192503590506001600160401b03811115613cbb57600080fd5b8060051b360382131561321157600080fd5b8183526000602080850194508260005b85811015613675578135613cf081613146565b61ffff1687529582019590820190600101613cdd565b8183526000602080850194508260005b85811015613675578135613d298161356a565b60ff1687529582019590820190600101613d16565b8183526000602080850194508260005b85811015613675578135613d6181613beb565b151587529582019590820190600101613d4e565b6000838385526020808601955060208560051b8301018460005b87811015613dc957848303601f19018952613daa8288613c85565b613db5858284613d3e565b9a86019a9450505090830190600101613d8f565b5090979650505050505050565b6000838385526020808601955060208560051b8301018460005b87811015613dc957848303601f19018952613e0b8288613c85565b613e16858284613d06565b9a86019a9450505090830190600101613df0565b8060030b811461063157600080fd5b8183526000602080850194508260005b85811015613675578135613e5c81613e2a565b60030b87529582019590820190600101613e49565b6000838385526020808601955060208560051b8301018460005b87811015613dc957848303601f19018952613ea68288613c85565b613eb1858284613e39565b9a86019a9450505090830190600101613e8b565b6000613ed18283613c85565b60c08552613ee360c086018284613ccd565b915050613ef36020840184613c85565b8583036020870152613f06838284613d06565b92505050613f176040840184613c85565b8583036040870152613f2a838284613ccd565b92505050613f3b6060840184613c85565b8583036060870152613f4e838284613d75565b92505050613f5f6080840184613c85565b8583036080870152613f72838284613dd6565b92505050613f8360a0840184613c85565b85830360a08701526137e2838284613e71565b83815261ffff83166020820152606060408201526000610f856060830184613ec5565b81835260006001600160fb1b03831115613fd257600080fd5b8260051b80836020870137939093016020019392505050565b8183526000602080850194508260005b85811015613675576001600160401b0361401483613553565b1687529582019590820190600101613ffb565b8b815261ffff8b16602082015260e06040820152600061404b60e083018b8d613fb9565b828103606084015261405e818a8c613feb565b9050828103608084015261407381888a613feb565b905082810360a0840152614088818688613d3e565b9150508260c08301529c9b505050505050505050505050565b6000838385526020808601955060208560051b8301018460005b87811015613dc957848303601f190189526140d68288613c85565b6140e1858284613fb9565b9a86019a94505050908301906001016140bb565b6000838385526020808601955060208560051b8301018460005b87811015613dc957848303601f1901895261412a8288613c85565b614135858284613feb565b9a86019a945050509083019060010161410f565b60006141558283613c85565b60e0855261416760e086018284613ccd565b9150506141776020840184613c85565b858303602087015261418a838284613d06565b9250505061419b6040840184613c85565b85830360408701526141ae838284613ccd565b925050506141bf6060840184613c85565b85830360608701526141d28382846140a1565b925050506141e36080840184613c85565b85830360808701526141f6838284613d75565b9250505061420760a0840184613c85565b85830360a087015261421a8382846140f5565b9250505061422b60c0840184613c85565b85830360c08701526137e28382846140f5565b83815261ffff83166020820152606060408201526000610f856060830184614149565b6001600160a01b03929092168252602082015260400190565b805161316181613117565b600060a0828403121561429757600080fd5b60405160a081018181106001600160401b03821117156142b9576142b961332a565b60405282516142c781613117565b815260208301516142d781613117565b602082015260408301516142ea81613117565b604082015260608301516142fd81613117565b6060820152608083015161431081613117565b60808201529392505050565b60006020828403121561432e57600080fd5b8151610adf8161356a565b60008383855260208086019550808560051b830101846000805b888110156143b957858403601f19018a5261436e8389613c85565b808652868601845b828110156143a457833561438981613315565b6001600160a01b031682529288019290880190600101614376565b509b87019b9550505091840191600101614353565b509198975050505050505050565b60006143d38283613c85565b60c085526143e560c086018284613ccd565b91505060206143f681850185613c85565b86840383880152614408848284613d06565b935050506144196040850185613c85565b868403604088015261442c848284613ccd565b9350505061443d6060850185613c85565b8684036060880152614450848284614339565b935050506144616080850185613c85565b8684036080880152808452828401600582901b850184018360005b848110156144e857878303601f190184526144978287613c85565b80855288850160005b828110156144d35783356001600160581b0381168082146144c057600080fd5b835250928a0192908a01906001016144a0565b5095890195945050509086019060010161447c565b50506144f760a0890189613c85565b9650945088810360a08a015261450e818787613d75565b9998505050505050505050565b83815261ffff83166020820152606060408201526000610f8560608301846143c7565b600061454a8283613c85565b60a0855261455c60a086018284613ccd565b915050602061456d81850185613c85565b8684038388015261457f848284613d06565b935050506145906040850185613c85565b86840360408801526145a3848284613ccd565b935050506145b46060850185613c85565b86840360608801526145c78482846140a1565b935050506145d86080850185613c85565b8684036080880152808452828401600582901b850184018360005b8481101561465957878303601f1901845261460e8287613c85565b80855288850160005b828110156146445783358060010b80821461463157600080fd5b835250928a0192908a0190600101614617565b509589019594505050908601906001016145f3565b50909998505050505050505050565b634e487b7160e01b600052602160045260246000fd5b84815261ffff841660208201526080604082015260006146a1608083018561453e565b9050600683106146b3576146b3614668565b82606083015295945050505050565b8183526000602080850194508260005b858110156136755781356146e581613117565b63ffffffff16875295820195908201906001016146d2565b6000838385526020808601955060208560051b8301018460005b87811015613dc957848303601f190189526147328288613c85565b61473d8582846146c2565b9a86019a9450505090830190600101614717565b60006101a06147608384613c85565b8286526147708387018284613ccd565b925050506147816020840184613c85565b8583036020870152614794838284613d06565b925050506147a56040840184613c85565b85830360408701526147b8838284613ccd565b925050506147c96060840184613c85565b85830360608701526147dc838284613dd6565b925050506147ed6080840184613c85565b8583036080870152614800838284613e71565b9250505061481160a0840184613c85565b85830360a08701526148248382846146c2565b9250505061483560c0840184613c85565b85830360c0870152614848838284613e39565b9250505061485960e0840184613c85565b85830360e087015261486c838284613e39565b9250505061010061487f81850185613c85565b86840383880152614891848284613e39565b93505050506101206148a581850185613c85565b868403838801526148b7848284613e39565b93505050506101406148cb81850185613c85565b868403838801526148dd848284613e39565b93505050506101606148f181850185613c85565b86840383880152614903848284614339565b935050505061018061491781850185613c85565b86840383880152611dc38482846146fd565b83815261ffff83166020820152606060408201526000610f856060830184614751565b8183526000602080850194508260005b8581101561367557813561496f81613146565b61ffff168752958201959082019060010161495c565b8881526000602061ffff8a16602084015260a060408401526149ab60a08401898b61494c565b8381036060850152868152879060200160005b888110156149e65782356149d18161356a565b60ff16825291830191908301906001016149be565b5084810360808601526115f081878961494c565b6000614a068283613c85565b60608552614a18606086018284613ccd565b915050614a286020840184613c85565b8583036020870152614a3b838284613d06565b92505050614a4c6040840184613c85565b85830360408701526137e28382846146fd565b83815261ffff83166020820152606060408201526000610f8560608301846149fa565b6000614a8e8283613c85565b60a08552614aa060a086018284613ccd565b9150506020614ab181850185613c85565b86840383880152614ac3848284613d06565b93505050614ad46040850185613c85565b8684036040880152614ae7848284613ccd565b93505050614af86060850185613c85565b8684036060880152614b0b848284613d06565b93505050614b1c6080850185613c85565b8684036080880152808452828401600582901b850184018360005b8481101561465957878303601f19018452614b528287613c85565b614b5d858284613ccd565b958901959450505090860190600101614b37565b83815261ffff83166020820152606060408201526000610f856060830184614a82565b6000614ba08283613c85565b60c08552614bb260c086018284613ccd565b915050614bc26020840184613c85565b8583036020870152614bd5838284613d06565b92505050614be66040840184613c85565b8583036040870152614bf9838284613ccd565b92505050614c0a6060840184613c85565b8583036060870152614c1d838284614339565b92505050614c2e6080840184613c85565b8583036080870152614c41838284613d75565b92505050614c5260a0840184613c85565b85830360a08701526137e2838284613d75565b83815261ffff83166020820152606060408201526000610f856060830184614b94565b6000614c948283613c85565b60c08552614ca660c086018284613ccd565b915050614cb66020840184613c85565b8583036020870152614cc9838284613d06565b92505050614cda6040840184613c85565b8583036040870152614ced838284613ccd565b92505050614cfe6060840184613c85565b8583036060870152614d118382846146c2565b92505050614d226080840184613c85565b8583036080870152614d358382846146c2565b92505050614d4660a0840184613c85565b85830360a08701526137e2838284613d3e565b83815261ffff83166020820152606060408201526000610f856060830184614c88565b60008235605e19833603018112614d9257600080fd5b90910192915050565b6000614da78283613c85565b60608552614db9606086018284613ccd565b915050614dc96020840184613c85565b8583036020870152614ddc838284613d06565b92505050614ded6040840184613c85565b85830360408701526137e2838284613ccd565b60008235609e19833603018112614d9257600080fd5b6000823560be19833603018112614d9257600080fd5b6000823560de19833603018112614d9257600080fd5b6000614e4e8283613c85565b60c08552614e6060c086018284613ccd565b915050614e706020840184613c85565b8583036020870152614e83838284613d06565b92505050614e946040840184613c85565b8583036040870152614ea7838284613ccd565b92505050614eb86060840184613c85565b8583036060870152614ecb838284613dd6565b92505050614edc6080840184613c85565b8583036080870152614c418382846140f5565b6000823561019e19833603018112614d9257600080fd5b82815260406020820152614f2860408201614f2084613156565b61ffff169052565b6000614f376020840184613c85565b6102c0806060860152614f4f61030086018385613fb9565b9250614f5e6040870187613c85565b9250603f1980878603016080880152614f78858584613feb565b9450614f876060890189613c85565b94509150808786030160a0880152614fa0858584613feb565b9450614faf6080890189613c85565b94509150808786030160c0880152614fc8858584613d3e565b945060a088013560e0880152614fe160c0890189614d7c565b93506101009150808786030182880152614ffb8585614d9b565b945061500a60e0890189614e00565b93506101208188870301818901526150228686614a82565b9550615030838a018a614e16565b9450610140925081888703018389015261504a8686613ec5565b9550615058818a018a614e16565b9450506101608188870301818901526150718686614b94565b955061507f838a018a614e16565b9450610180925081888703018389015261509986866143c7565b95506150a7818a018a614e16565b9450506101a08188870301818901526150c08686614c88565b95506150ce838a018a614e2c565b94506101c092508188870301838901526150e88686614149565b95506150f6818a018a614e2c565b9450506101e081888703018189015261510f8686614149565b955061511d838a018a614e16565b945061020092508188870301838901526151378686614e42565b9550615145818a018a614d7c565b94505061022081888703018189015261515e86866149fa565b955061516c838a018a614eef565b945061024092508188870301838901526151868686614751565b9550615194818a018a614eef565b9450506102608188870301818901526151ad8686614751565b95506151bb838a018a614e00565b945061028092508188870301838901526151d5868661453e565b95506151e3818a018a614e00565b9450506102a08188870301818901526151fc868661453e565b955061520a838a018a614e00565b945081888703018489015261521f868661453e565b955061522d818a018a614e00565b94505080878603016102e08801525050506137e2828261453e565b634e487b7160e01b600052603260045260246000fd5b83815261ffff83166020820152606060408201526000610f856060830184614e42565b60006020828403121561529357600080fd5b5051919050565b808202811582820484141761067b5761067b613c21565b634e487b7160e01b600052601260045260246000fd5b6000826152d6576152d66152b1565b500490565b6001600160a01b039390931683526020830191909152604082015260600190565b805182526020810151602083015260408101516040830152606081015160608301526080810151615330608084018261362e565b5060a081015161534360a084018261362e565b5060c081015161535660c084018261362e565b5060e081015161536960e084018261362e565b506101008082015161537d8285018261362e565b5050610120808201516153928285018261362e565b5050610140808201516153a78285018261362e565b50506101608181015160ff90811691840191909152610180808301518216908401526101a080830151909116908301526101c08082015161ffff908116918401919091526101e080830151821690840152610200808301518216908401526102208083015182169084015261024080830151909116908301526102608082015163ffffffff90811691840191909152610280808301516001600160401b0316908401526102a08083015164ffffffffff16908401526102c0808301516001600160501b0316908401526102e09182015180518216928401929092526020820151811661030084015260408201518116610320840152606082015181166103408401526080909101511661036090910152565b6103a081016154c882856152fc565b826103808301529392505050565b6000602082840312156154e857600080fd5b815160088110610adf57600080fd5b6103c081016008851061550c5761550c614668565b84825283602083015261068a60408301846152fc565b60006001600160401b0382111561553b5761553b61332a565b5060051b60200190565b600082601f83011261555657600080fd5b8151602061556b61556683615522565b613369565b8083825260208201915060208460051b87010193508684111561558d57600080fd5b602086015b848110156155b25780516155a581613315565b8352918301918301615592565b509695505050505050565b805161316181613e2a565b600082601f8301126155d957600080fd5b815160206155e961556683615522565b8083825260208201915060208460051b87010193508684111561560b57600080fd5b602086015b848110156155b257805161562381613117565b8352918301918301615610565b805161316181613146565b600082601f83011261564c57600080fd5b8151602061565c61556683615522565b8083825260208201915060208460051b87010193508684111561567e57600080fd5b602086015b848110156155b257805161569681613146565b8352918301918301615683565b6000806000606084860312156156b857600080fd5b83516001600160401b03808211156156cf57600080fd5b908501906101c082880312156156e457600080fd5b6156ec613340565b6156f583613bf9565b815261570360208401613bf9565b602082015261571460408401613c5d565b604082015260608301518281111561572b57600080fd5b61573789828601615545565b606083015250615749608084016155bd565b608082015261575a60a084016155bd565b60a082015261576b60c084016155bd565b60c082015261577c60e084016155bd565b60e082015261010061578f8185016155bd565b908201526101206157a184820161427a565b908201526101406157b384820161427a565b90820152610160838101519082015261018080840151908201526101a080840151838111156157e157600080fd5b6157ed8a8287016155c8565b8284015250508095505061580360208701615630565b9350604086015191508082111561581957600080fd5b506158268682870161563b565b9150509250925092565b6000602080838503121561584357600080fd5b82516001600160401b0381111561585957600080fd5b8301601f8101851361586a57600080fd5b805161587861556682615522565b81815260059190911b8201830190838101908783111561589757600080fd5b928401925b82841015611dc35783516158af8161356a565b8252928401929084019061589c565b6000826158cd576158cd6152b1565b50069056fe22573091f17911fb166032a3d9e0554aa73d31b7b7ddea4a4dd2995650af84bda2646970667358221220ace54fcb786285e664cc0ee74e9e5bdf223568136b8189f48c08ce380f77574264736f6c63430008170033",
  "libraries": {
    "StoryLib": "0xeaa7Aa2b8D3Bfc9e0a06bd677e5B101ed87cB895",
    "StorySetupLib": "0x682f4eeE28bA5B4Ee508Fe847f2f1E290db7e04d"
  },
  "devdoc": {
    "errors": {
      "InvalidInitialization()": [
        {
          "details": "The contract is already initialized."
        }
      ],
      "NotInitializing()": [
        {
          "details": "The contract is not initializing."
        }
      ]
    },
    "events": {
      "Initialized(uint64)": {
        "details": "Triggered when the contract has been initialized or reinitialized."
      }
    },
    "kind": "dev",
    "methods": {
      "created()": {
        "returns": {
          "_0": "Creation timestamp"
        }
      },
      "createdBlock()": {
        "returns": {
          "_0": "Creation block number"
        }
      },
      "increaseRevision(address)": {
        "details": "Revision should be increased on each contract upgrade"
      },
      "isController(address)": {
        "details": "Return true if given address is controller"
      },
      "onERC721Received(address,address,uint256,bytes)": {
        "details": "See {IERC721Receiver-onERC721Received}. Always returns `IERC721Receiver.onERC721Received.selector`."
      },
      "previousImplementation()": {
        "details": "Previous logic implementation"
      },
      "revision()": {
        "details": "Contract upgrade counter"
      }
    },
    "stateVariables": {
      "VERSION": {
        "details": "Should be incremented when contract changed"
      }
    },
    "version": 1
  },
  "userdoc": {
    "events": {
      "ItemBroken(address,uint256,uint64,uint256,address,uint256,uint256,uint256)": {
        "notice": "Durability of the item was reduced to 0"
      }
    },
    "kind": "user",
    "methods": {
      "CONTROLLABLE_VERSION()": {
        "notice": "Version of the contract"
      },
      "VERSION()": {
        "notice": "Version of the contract"
      },
      "controller()": {
        "notice": "Return controller address saved in the contract slot"
      },
      "created()": {
        "notice": "Return creation timestamp"
      },
      "createdBlock()": {
        "notice": "Return creation block number"
      },
      "isGovernance(address)": {
        "notice": "Return true if given address is setup as governance in Controller"
      }
    },
    "version": 1
  },
  "storageLayout": {
    "storage": [],
    "types": null
  }
}