{
  "address": "0x17513059F17103c62A18dfE5c58F5dD5B7a68151",
  "abi": [
    {
      "inputs": [
        {
          "internalType": "uint16",
          "name": "dungNum",
          "type": "uint16"
        }
      ],
      "name": "DungeonAlreadySpecific",
      "type": "error"
    },
    {
      "inputs": [
        {
          "internalType": "uint16",
          "name": "dungNum",
          "type": "uint16"
        }
      ],
      "name": "DungeonAlreadySpecific2",
      "type": "error"
    },
    {
      "inputs": [],
      "name": "ErrorDungeonCompleted",
      "type": "error"
    },
    {
      "inputs": [],
      "name": "ErrorDungeonIsFreeAlready",
      "type": "error"
    },
    {
      "inputs": [
        {
          "internalType": "address",
          "name": "heroToken",
          "type": "address"
        },
        {
          "internalType": "uint256",
          "name": "heroTokenId",
          "type": "uint256"
        }
      ],
      "name": "ErrorHeroIsDead",
      "type": "error"
    },
    {
      "inputs": [
        {
          "internalType": "address",
          "name": "heroToken",
          "type": "address"
        }
      ],
      "name": "ErrorHeroIsNotRegistered",
      "type": "error"
    },
    {
      "inputs": [],
      "name": "ErrorHeroLevelStartFrom1",
      "type": "error"
    },
    {
      "inputs": [],
      "name": "ErrorHeroNotInDungeon",
      "type": "error"
    },
    {
      "inputs": [
        {
          "internalType": "uint256",
          "name": "biome",
          "type": "uint256"
        }
      ],
      "name": "ErrorIncorrectBiome",
      "type": "error"
    },
    {
      "inputs": [
        {
          "internalType": "uint256",
          "name": "heroLevel",
          "type": "uint256"
        }
      ],
      "name": "ErrorLevelTooLow",
      "type": "error"
    },
    {
      "inputs": [
        {
          "internalType": "uint8",
          "name": "heroBiome",
          "type": "uint8"
        }
      ],
      "name": "ErrorNoDungeonsForBiome",
      "type": "error"
    },
    {
      "inputs": [],
      "name": "ErrorNoEligibleDungeons",
      "type": "error"
    },
    {
      "inputs": [],
      "name": "ErrorNotChances",
      "type": "error"
    },
    {
      "inputs": [
        {
          "internalType": "address",
          "name": "sender",
          "type": "address"
        }
      ],
      "name": "ErrorNotDeployer",
      "type": "error"
    },
    {
      "inputs": [],
      "name": "ErrorNotGoc",
      "type": "error"
    },
    {
      "inputs": [],
      "name": "ErrorNotObject1",
      "type": "error"
    },
    {
      "inputs": [
        {
          "internalType": "address",
          "name": "token",
          "type": "address"
        },
        {
          "internalType": "uint256",
          "name": "tokenId",
          "type": "uint256"
        }
      ],
      "name": "ErrorNotOwner",
      "type": "error"
    },
    {
      "inputs": [],
      "name": "ErrorNotReady",
      "type": "error"
    },
    {
      "inputs": [],
      "name": "ErrorNotStages",
      "type": "error"
    },
    {
      "inputs": [],
      "name": "ErrorOnlyEoa",
      "type": "error"
    },
    {
      "inputs": [],
      "name": "ErrorPaused",
      "type": "error"
    },
    {
      "inputs": [
        {
          "internalType": "uint256",
          "name": "heroLevel",
          "type": "uint256"
        }
      ],
      "name": "ErrorWrongLevel",
      "type": "error"
    },
    {
      "inputs": [
        {
          "internalType": "uint256",
          "name": "multiplier",
          "type": "uint256"
        }
      ],
      "name": "ErrorWrongMultiplier",
      "type": "error"
    },
    {
      "inputs": [
        {
          "internalType": "uint256",
          "name": "stage",
          "type": "uint256"
        }
      ],
      "name": "ErrorWrongStage",
      "type": "error"
    },
    {
      "inputs": [],
      "name": "InvalidInitialization",
      "type": "error"
    },
    {
      "inputs": [],
      "name": "NotInitializing",
      "type": "error"
    },
    {
      "inputs": [
        {
          "internalType": "uint256",
          "name": "index",
          "type": "uint256"
        },
        {
          "internalType": "uint256",
          "name": "length",
          "type": "uint256"
        }
      ],
      "name": "OutOfBounds",
      "type": "error"
    },
    {
      "inputs": [
        {
          "internalType": "uint256",
          "name": "value",
          "type": "uint256"
        }
      ],
      "name": "TooHighValue",
      "type": "error"
    },
    {
      "inputs": [
        {
          "internalType": "uint256",
          "name": "x",
          "type": "uint256"
        }
      ],
      "name": "TooLowX",
      "type": "error"
    },
    {
      "inputs": [],
      "name": "WrongSpecificDungeon",
      "type": "error"
    },
    {
      "anonymous": false,
      "inputs": [
        {
          "indexed": false,
          "internalType": "uint32",
          "name": "objectId",
          "type": "uint32"
        },
        {
          "indexed": false,
          "internalType": "uint256",
          "name": "biome",
          "type": "uint256"
        },
        {
          "indexed": false,
          "internalType": "address",
          "name": "hero",
          "type": "address"
        },
        {
          "indexed": false,
          "internalType": "uint256",
          "name": "heroId",
          "type": "uint256"
        }
      ],
      "name": "BossCompleted",
      "type": "event"
    },
    {
      "anonymous": false,
      "inputs": [
        {
          "indexed": false,
          "internalType": "uint64",
          "name": "dungId",
          "type": "uint64"
        }
      ],
      "name": "Clear",
      "type": "event"
    },
    {
      "anonymous": false,
      "inputs": [
        {
          "indexed": false,
          "internalType": "address",
          "name": "controller",
          "type": "address"
        },
        {
          "indexed": false,
          "internalType": "uint256",
          "name": "ts",
          "type": "uint256"
        },
        {
          "indexed": false,
          "internalType": "uint256",
          "name": "block",
          "type": "uint256"
        }
      ],
      "name": "ContractInitialized",
      "type": "event"
    },
    {
      "anonymous": false,
      "inputs": [
        {
          "indexed": false,
          "internalType": "uint16",
          "name": "dungLogicId",
          "type": "uint16"
        },
        {
          "components": [
            {
              "internalType": "uint8[][]",
              "name": "objTypesByStages",
              "type": "uint8[][]"
            },
            {
              "internalType": "uint32[][]",
              "name": "objChancesByStages",
              "type": "uint32[][]"
            },
            {
              "internalType": "uint32[]",
              "name": "uniqObjects",
              "type": "uint32[]"
            },
            {
              "internalType": "uint8",
              "name": "minLevel",
              "type": "uint8"
            },
            {
              "internalType": "uint8",
              "name": "maxLevel",
              "type": "uint8"
            },
            {
              "internalType": "bytes32[]",
              "name": "requiredCustomDataIndex",
              "type": "bytes32[]"
            },
            {
              "internalType": "uint64[]",
              "name": "requiredCustomDataMinValue",
              "type": "uint64[]"
            },
            {
              "internalType": "uint64[]",
              "name": "requiredCustomDataMaxValue",
              "type": "uint64[]"
            },
            {
              "internalType": "bool[]",
              "name": "requiredCustomDataIsHero",
              "type": "bool[]"
            }
          ],
          "indexed": false,
          "internalType": "struct IDungeonFactory.DungeonGenerateInfo",
          "name": "info",
          "type": "tuple"
        }
      ],
      "name": "DungeonLogicRegistered",
      "type": "event"
    },
    {
      "anonymous": false,
      "inputs": [
        {
          "indexed": false,
          "internalType": "uint16",
          "name": "dungLogicId",
          "type": "uint16"
        }
      ],
      "name": "DungeonLogicRemoved",
      "type": "event"
    },
    {
      "anonymous": false,
      "inputs": [
        {
          "indexed": false,
          "internalType": "uint16",
          "name": "dungLogicId",
          "type": "uint16"
        },
        {
          "indexed": false,
          "internalType": "uint256",
          "name": "biome",
          "type": "uint256"
        },
        {
          "indexed": false,
          "internalType": "uint256",
          "name": "heroCls",
          "type": "uint256"
        }
      ],
      "name": "DungeonSpecificLogicRegistered",
      "type": "event"
    },
    {
      "anonymous": false,
      "inputs": [
        {
          "indexed": false,
          "internalType": "uint16",
          "name": "dungLogicId",
          "type": "uint16"
        },
        {
          "indexed": false,
          "internalType": "uint256",
          "name": "heroLvl",
          "type": "uint256"
        },
        {
          "indexed": false,
          "internalType": "uint256",
          "name": "heroCls",
          "type": "uint256"
        }
      ],
      "name": "DungeonSpecificLogicRemoved",
      "type": "event"
    },
    {
      "anonymous": false,
      "inputs": [
        {
          "indexed": false,
          "internalType": "uint8",
          "name": "biome",
          "type": "uint8"
        },
        {
          "indexed": false,
          "internalType": "uint64",
          "name": "dungeonId",
          "type": "uint64"
        }
      ],
      "name": "FreeDungeonAdded",
      "type": "event"
    },
    {
      "anonymous": false,
      "inputs": [
        {
          "indexed": false,
          "internalType": "uint64",
          "name": "version",
          "type": "uint64"
        }
      ],
      "name": "Initialized",
      "type": "event"
    },
    {
      "anonymous": false,
      "inputs": [
        {
          "indexed": false,
          "internalType": "address",
          "name": "token",
          "type": "address"
        },
        {
          "indexed": false,
          "internalType": "uint256",
          "name": "level",
          "type": "uint256"
        }
      ],
      "name": "MinLevelForTreasuryChanged",
      "type": "event"
    },
    {
      "anonymous": false,
      "inputs": [
        {
          "indexed": false,
          "internalType": "uint64",
          "name": "dungId",
          "type": "uint64"
        },
        {
          "indexed": false,
          "internalType": "address",
          "name": "hero",
          "type": "address"
        },
        {
          "indexed": false,
          "internalType": "uint256",
          "name": "id",
          "type": "uint256"
        },
        {
          "indexed": false,
          "internalType": "uint32",
          "name": "objId",
          "type": "uint32"
        },
        {
          "indexed": false,
          "internalType": "uint256",
          "name": "iteration",
          "type": "uint256"
        },
        {
          "indexed": false,
          "internalType": "uint256",
          "name": "currentStage",
          "type": "uint256"
        }
      ],
      "name": "ObjectOpened",
      "type": "event"
    },
    {
      "anonymous": false,
      "inputs": [
        {
          "indexed": false,
          "internalType": "uint256",
          "name": "value",
          "type": "uint256"
        },
        {
          "indexed": false,
          "internalType": "address",
          "name": "oldLogic",
          "type": "address"
        }
      ],
      "name": "RevisionIncreased",
      "type": "event"
    },
    {
      "inputs": [],
      "name": "CONTROLLABLE_VERSION",
      "outputs": [
        {
          "internalType": "string",
          "name": "",
          "type": "string"
        }
      ],
      "stateMutability": "view",
      "type": "function"
    },
    {
      "inputs": [],
      "name": "VERSION",
      "outputs": [
        {
          "internalType": "string",
          "name": "",
          "type": "string"
        }
      ],
      "stateMutability": "view",
      "type": "function"
    },
    {
      "inputs": [],
      "name": "controller",
      "outputs": [
        {
          "internalType": "address",
          "name": "",
          "type": "address"
        }
      ],
      "stateMutability": "view",
      "type": "function"
    },
    {
      "inputs": [],
      "name": "created",
      "outputs": [
        {
          "internalType": "uint256",
          "name": "",
          "type": "uint256"
        }
      ],
      "stateMutability": "view",
      "type": "function"
    },
    {
      "inputs": [],
      "name": "createdBlock",
      "outputs": [
        {
          "internalType": "uint256",
          "name": "",
          "type": "uint256"
        }
      ],
      "stateMutability": "view",
      "type": "function"
    },
    {
      "inputs": [
        {
          "internalType": "address",
          "name": "heroToken",
          "type": "address"
        },
        {
          "internalType": "uint256",
          "name": "heroTokenId",
          "type": "uint256"
        }
      ],
      "name": "currentDungeon",
      "outputs": [
        {
          "internalType": "uint64",
          "name": "",
          "type": "uint64"
        }
      ],
      "stateMutability": "view",
      "type": "function"
    },
    {
      "inputs": [
        {
          "internalType": "uint16",
          "name": "dungLogicNum",
          "type": "uint16"
        }
      ],
      "name": "dungeonAttributes",
      "outputs": [
        {
          "components": [
            {
              "internalType": "uint8",
              "name": "stages",
              "type": "uint8"
            },
            {
              "internalType": "uint8",
              "name": "biome",
              "type": "uint8"
            },
            {
              "internalType": "uint32[]",
              "name": "uniqObjects",
              "type": "uint32[]"
            },
            {
              "internalType": "bytes32",
              "name": "minMaxLevel",
              "type": "bytes32"
            },
            {
              "internalType": "bytes32[]",
              "name": "requiredCustomDataIndex",
              "type": "bytes32[]"
            },
            {
              "internalType": "bytes32[]",
              "name": "requiredCustomDataValue",
              "type": "bytes32[]"
            },
            {
              "components": [
                {
                  "internalType": "bytes32[]",
                  "name": "objTypesByStages",
                  "type": "bytes32[]"
                },
                {
                  "internalType": "uint32[][]",
                  "name": "objChancesByStages",
                  "type": "uint32[][]"
                }
              ],
              "internalType": "struct IDungeonFactory.ObjectGenerateInfo",
              "name": "info",
              "type": "tuple"
            }
          ],
          "internalType": "struct IDungeonFactory.DungeonAttributes",
          "name": "",
          "type": "tuple"
        }
      ],
      "stateMutability": "view",
      "type": "function"
    },
    {
      "inputs": [],
      "name": "dungeonCounter",
      "outputs": [
        {
          "internalType": "uint64",
          "name": "",
          "type": "uint64"
        }
      ],
      "stateMutability": "view",
      "type": "function"
    },
    {
      "inputs": [
        {
          "internalType": "uint64",
          "name": "dungeonId",
          "type": "uint64"
        }
      ],
      "name": "dungeonStatus",
      "outputs": [
        {
          "internalType": "uint16",
          "name": "dungNum",
          "type": "uint16"
        },
        {
          "internalType": "bool",
          "name": "isCompleted",
          "type": "bool"
        },
        {
          "internalType": "address",
          "name": "heroToken",
          "type": "address"
        },
        {
          "internalType": "uint256",
          "name": "heroTokenId",
          "type": "uint256"
        },
        {
          "internalType": "uint32",
          "name": "currentObject",
          "type": "uint32"
        },
        {
          "internalType": "uint8",
          "name": "currentObjIndex",
          "type": "uint8"
        },
        {
          "internalType": "address[]",
          "name": "treasuryTokens",
          "type": "address[]"
        },
        {
          "internalType": "uint256[]",
          "name": "treasuryTokensAmounts",
          "type": "uint256[]"
        },
        {
          "internalType": "bytes32[]",
          "name": "treasuryItems",
          "type": "bytes32[]"
        },
        {
          "internalType": "uint8",
          "name": "stages",
          "type": "uint8"
        },
        {
          "internalType": "uint32[]",
          "name": "uniqObjects",
          "type": "uint32[]"
        }
      ],
      "stateMutability": "view",
      "type": "function"
    },
    {
      "inputs": [
        {
          "internalType": "address",
          "name": "token",
          "type": "address"
        },
        {
          "internalType": "uint256",
          "name": "maxAvailableBiome_",
          "type": "uint256"
        },
        {
          "internalType": "uint256",
          "name": "treasuryBalance",
          "type": "uint256"
        },
        {
          "internalType": "uint8",
          "name": "heroLevel",
          "type": "uint8"
        },
        {
          "internalType": "uint8",
          "name": "dungeonBiome",
          "type": "uint8"
        },
        {
          "internalType": "uint8",
          "name": "maxOpenedNgLevel",
          "type": "uint8"
        },
        {
          "internalType": "uint8",
          "name": "heroNgLevel",
          "type": "uint8"
        }
      ],
      "name": "dungeonTreasuryReward",
      "outputs": [
        {
          "internalType": "uint256",
          "name": "",
          "type": "uint256"
        }
      ],
      "stateMutability": "view",
      "type": "function"
    },
    {
      "inputs": [
        {
          "internalType": "uint64",
          "name": "dungId",
          "type": "uint64"
        }
      ],
      "name": "emergencyExit",
      "outputs": [],
      "stateMutability": "nonpayable",
      "type": "function"
    },
    {
      "inputs": [
        {
          "internalType": "uint64",
          "name": "dungId",
          "type": "uint64"
        },
        {
          "internalType": "address",
          "name": "heroToken_",
          "type": "address"
        },
        {
          "internalType": "uint256",
          "name": "heroTokenId_",
          "type": "uint256"
        }
      ],
      "name": "enter",
      "outputs": [],
      "stateMutability": "nonpayable",
      "type": "function"
    },
    {
      "inputs": [
        {
          "internalType": "uint64",
          "name": "dungId",
          "type": "uint64"
        },
        {
          "internalType": "bool",
          "name": "claim",
          "type": "bool"
        }
      ],
      "name": "exit",
      "outputs": [],
      "stateMutability": "nonpayable",
      "type": "function"
    },
    {
      "inputs": [
        {
          "internalType": "address",
          "name": "heroToken",
          "type": "address"
        },
        {
          "internalType": "uint256",
          "name": "heroTokenId",
          "type": "uint256"
        },
        {
          "internalType": "address",
          "name": "msgSender",
          "type": "address"
        }
      ],
      "name": "exitForcibly",
      "outputs": [],
      "stateMutability": "nonpayable",
      "type": "function"
    },
    {
      "inputs": [
        {
          "internalType": "uint256",
          "name": "id",
          "type": "uint256"
        },
        {
          "internalType": "uint256",
          "name": "biome",
          "type": "uint256"
        }
      ],
      "name": "freeDungeonsByLevel",
      "outputs": [
        {
          "internalType": "uint64",
          "name": "",
          "type": "uint64"
        }
      ],
      "stateMutability": "view",
      "type": "function"
    },
    {
      "inputs": [
        {
          "internalType": "uint256",
          "name": "biome",
          "type": "uint256"
        }
      ],
      "name": "freeDungeonsByLevelLength",
      "outputs": [
        {
          "internalType": "uint256",
          "name": "",
          "type": "uint256"
        }
      ],
      "stateMutability": "view",
      "type": "function"
    },
    {
      "inputs": [
        {
          "internalType": "contract IController",
          "name": "controller_",
          "type": "address"
        },
        {
          "internalType": "uint8",
          "name": "heroLevel",
          "type": "uint8"
        },
        {
          "internalType": "address",
          "name": "heroToken",
          "type": "address"
        },
        {
          "internalType": "uint256",
          "name": "heroTokenId",
          "type": "uint256"
        },
        {
          "internalType": "uint256",
          "name": "random",
          "type": "uint256"
        }
      ],
      "name": "getDungeonLogic",
      "outputs": [
        {
          "internalType": "uint16",
          "name": "",
          "type": "uint16"
        }
      ],
      "stateMutability": "view",
      "type": "function"
    },
    {
      "inputs": [
        {
          "internalType": "address",
          "name": "token",
          "type": "address"
        },
        {
          "internalType": "uint256",
          "name": "heroLevel",
          "type": "uint256"
        },
        {
          "internalType": "uint256",
          "name": "biome",
          "type": "uint256"
        },
        {
          "internalType": "uint256",
          "name": "heroNgLevel",
          "type": "uint256"
        }
      ],
      "name": "getDungeonTreasuryAmount",
      "outputs": [
        {
          "internalType": "uint256",
          "name": "totalAmount",
          "type": "uint256"
        },
        {
          "internalType": "uint256",
          "name": "amountForDungeon",
          "type": "uint256"
        },
        {
          "internalType": "uint256",
          "name": "mintAmount",
          "type": "uint256"
        }
      ],
      "stateMutability": "view",
      "type": "function"
    },
    {
      "inputs": [
        {
          "internalType": "address",
          "name": "oldLogic",
          "type": "address"
        }
      ],
      "name": "increaseRevision",
      "outputs": [],
      "stateMutability": "nonpayable",
      "type": "function"
    },
    {
      "inputs": [
        {
          "internalType": "address",
          "name": "controller_",
          "type": "address"
        }
      ],
      "name": "init",
      "outputs": [],
      "stateMutability": "nonpayable",
      "type": "function"
    },
    {
      "inputs": [
        {
          "internalType": "address",
          "name": "heroToken",
          "type": "address"
        },
        {
          "internalType": "uint256",
          "name": "heroTokenId",
          "type": "uint256"
        }
      ],
      "name": "isBiomeBoss",
      "outputs": [
        {
          "internalType": "bool",
          "name": "",
          "type": "bool"
        }
      ],
      "stateMutability": "view",
      "type": "function"
    },
    {
      "inputs": [
        {
          "internalType": "address",
          "name": "value_",
          "type": "address"
        }
      ],
      "name": "isController",
      "outputs": [
        {
          "internalType": "bool",
          "name": "",
          "type": "bool"
        }
      ],
      "stateMutability": "view",
      "type": "function"
    },
    {
      "inputs": [
        {
          "internalType": "uint16",
          "name": "dungeonLogic",
          "type": "uint16"
        },
        {
          "internalType": "uint8",
          "name": "heroLevel",
          "type": "uint8"
        },
        {
          "internalType": "address",
          "name": "heroToken",
          "type": "address"
        },
        {
          "internalType": "uint256",
          "name": "heroTokenId",
          "type": "uint256"
        }
      ],
      "name": "isDungeonEligibleForHero",
      "outputs": [
        {
          "internalType": "bool",
          "name": "",
          "type": "bool"
        }
      ],
      "stateMutability": "view",
      "type": "function"
    },
    {
      "inputs": [
        {
          "internalType": "address",
          "name": "value_",
          "type": "address"
        }
      ],
      "name": "isGovernance",
      "outputs": [
        {
          "internalType": "bool",
          "name": "",
          "type": "bool"
        }
      ],
      "stateMutability": "view",
      "type": "function"
    },
    {
      "inputs": [
        {
          "internalType": "address",
          "name": "forwarder",
          "type": "address"
        }
      ],
      "name": "isTrustedForwarder",
      "outputs": [
        {
          "internalType": "bool",
          "name": "",
          "type": "bool"
        }
      ],
      "stateMutability": "view",
      "type": "function"
    },
    {
      "inputs": [
        {
          "internalType": "address",
          "name": "heroToken",
          "type": "address"
        },
        {
          "internalType": "uint256",
          "name": "heroTokenId",
          "type": "uint256"
        },
        {
          "internalType": "address",
          "name": "treasuryToken",
          "type": "address"
        }
      ],
      "name": "launch",
      "outputs": [
        {
          "internalType": "uint64",
          "name": "dungeonId",
          "type": "uint64"
        }
      ],
      "stateMutability": "nonpayable",
      "type": "function"
    },
    {
      "inputs": [
        {
          "internalType": "address",
          "name": "heroToken",
          "type": "address"
        },
        {
          "internalType": "uint256",
          "name": "heroTokenId",
          "type": "uint256"
        },
        {
          "internalType": "address",
          "name": "owner",
          "type": "address"
        }
      ],
      "name": "launchForNewHero",
      "outputs": [
        {
          "internalType": "uint64",
          "name": "dungeonId",
          "type": "uint64"
        }
      ],
      "stateMutability": "nonpayable",
      "type": "function"
    },
    {
      "inputs": [],
      "name": "maxAvailableBiome",
      "outputs": [
        {
          "internalType": "uint8",
          "name": "",
          "type": "uint8"
        }
      ],
      "stateMutability": "view",
      "type": "function"
    },
    {
      "inputs": [
        {
          "internalType": "address",
          "name": "heroToken",
          "type": "address"
        },
        {
          "internalType": "uint256",
          "name": "heroTokenId",
          "type": "uint256"
        }
      ],
      "name": "maxBiomeCompleted",
      "outputs": [
        {
          "internalType": "uint8",
          "name": "",
          "type": "uint8"
        }
      ],
      "stateMutability": "view",
      "type": "function"
    },
    {
      "inputs": [
        {
          "internalType": "address",
          "name": "token",
          "type": "address"
        }
      ],
      "name": "minLevelForTreasury",
      "outputs": [
        {
          "internalType": "uint256",
          "name": "",
          "type": "uint256"
        }
      ],
      "stateMutability": "view",
      "type": "function"
    },
    {
      "inputs": [
        {
          "internalType": "uint64",
          "name": "dungId",
          "type": "uint64"
        },
        {
          "internalType": "bytes",
          "name": "data",
          "type": "bytes"
        }
      ],
      "name": "objectAction",
      "outputs": [],
      "stateMutability": "nonpayable",
      "type": "function"
    },
    {
      "inputs": [
        {
          "internalType": "address",
          "name": "",
          "type": "address"
        },
        {
          "internalType": "address",
          "name": "",
          "type": "address"
        },
        {
          "internalType": "uint256",
          "name": "",
          "type": "uint256"
        },
        {
          "internalType": "bytes",
          "name": "",
          "type": "bytes"
        }
      ],
      "name": "onERC721Received",
      "outputs": [
        {
          "internalType": "bytes4",
          "name": "",
          "type": "bytes4"
        }
      ],
      "stateMutability": "nonpayable",
      "type": "function"
    },
    {
      "inputs": [
        {
          "internalType": "uint64",
          "name": "dungId",
          "type": "uint64"
        }
      ],
      "name": "openObject",
      "outputs": [],
      "stateMutability": "nonpayable",
      "type": "function"
    },
    {
      "inputs": [],
      "name": "previousImplementation",
      "outputs": [
        {
          "internalType": "address",
          "name": "",
          "type": "address"
        }
      ],
      "stateMutability": "view",
      "type": "function"
    },
    {
      "inputs": [
        {
          "internalType": "address",
          "name": "heroToken",
          "type": "address"
        },
        {
          "internalType": "uint256",
          "name": "heroTokenId",
          "type": "uint256"
        }
      ],
      "name": "reborn",
      "outputs": [],
      "stateMutability": "nonpayable",
      "type": "function"
    },
    {
      "inputs": [
        {
          "internalType": "uint16",
          "name": "dungLogicId",
          "type": "uint16"
        },
        {
          "internalType": "uint8",
          "name": "biome",
          "type": "uint8"
        },
        {
          "components": [
            {
              "internalType": "uint8[][]",
              "name": "objTypesByStages",
              "type": "uint8[][]"
            },
            {
              "internalType": "uint32[][]",
              "name": "objChancesByStages",
              "type": "uint32[][]"
            },
            {
              "internalType": "uint32[]",
              "name": "uniqObjects",
              "type": "uint32[]"
            },
            {
              "internalType": "uint8",
              "name": "minLevel",
              "type": "uint8"
            },
            {
              "internalType": "uint8",
              "name": "maxLevel",
              "type": "uint8"
            },
            {
              "internalType": "bytes32[]",
              "name": "requiredCustomDataIndex",
              "type": "bytes32[]"
            },
            {
              "internalType": "uint64[]",
              "name": "requiredCustomDataMinValue",
              "type": "uint64[]"
            },
            {
              "internalType": "uint64[]",
              "name": "requiredCustomDataMaxValue",
              "type": "uint64[]"
            },
            {
              "internalType": "bool[]",
              "name": "requiredCustomDataIsHero",
              "type": "bool[]"
            }
          ],
          "internalType": "struct IDungeonFactory.DungeonGenerateInfo",
          "name": "genInfo",
          "type": "tuple"
        },
        {
          "internalType": "uint8",
          "name": "specReqBiome",
          "type": "uint8"
        },
        {
          "internalType": "uint8",
          "name": "specReqHeroClass",
          "type": "uint8"
        },
        {
          "internalType": "bool",
          "name": "isSpecific",
          "type": "bool"
        }
      ],
      "name": "registerDungeonLogic",
      "outputs": [],
      "stateMutability": "nonpayable",
      "type": "function"
    },
    {
      "inputs": [
        {
          "internalType": "uint16",
          "name": "dungLogicId",
          "type": "uint16"
        },
        {
          "internalType": "uint8",
          "name": "specReqBiome",
          "type": "uint8"
        },
        {
          "internalType": "uint8",
          "name": "specReqHeroClass",
          "type": "uint8"
        }
      ],
      "name": "removeDungeonLogic",
      "outputs": [],
      "stateMutability": "nonpayable",
      "type": "function"
    },
    {
      "inputs": [],
      "name": "revision",
      "outputs": [
        {
          "internalType": "uint256",
          "name": "",
          "type": "uint256"
        }
      ],
      "stateMutability": "view",
      "type": "function"
    },
    {
      "inputs": [
        {
          "internalType": "uint32",
          "name": "objectId",
          "type": "uint32"
        },
        {
          "internalType": "address",
          "name": "heroToken",
          "type": "address"
        },
        {
          "internalType": "uint256",
          "name": "heroTokenId",
          "type": "uint256"
        },
        {
          "internalType": "uint8",
          "name": "heroBiome",
          "type": "uint8"
        }
      ],
      "name": "setBossCompleted",
      "outputs": [],
      "stateMutability": "nonpayable",
      "type": "function"
    },
    {
      "inputs": [
        {
          "internalType": "address",
          "name": "token",
          "type": "address"
        },
        {
          "internalType": "uint256",
          "name": "heroLevel",
          "type": "uint256"
        }
      ],
      "name": "setMinLevelForTreasury",
      "outputs": [],
      "stateMutability": "nonpayable",
      "type": "function"
    },
    {
      "inputs": [
        {
          "internalType": "address",
          "name": "heroToken",
          "type": "address"
        },
        {
          "internalType": "uint256",
          "name": "heroTokenId",
          "type": "uint256"
        }
      ],
      "name": "skillSlotsForDurabilityReduction",
      "outputs": [
        {
          "internalType": "uint8[]",
          "name": "result",
          "type": "uint8[]"
        }
      ],
      "stateMutability": "view",
      "type": "function"
    }
  ],
  "transactionHash": "0x8606cdd8c0a31a5c90dca84e6c39e7116e56a687d8f7e0e6e8aa5da876621ad3",
  "args": [],
  "numDeployments": 28,
  "solcInputHash": "85507b8f0143166af9e275a49e876db4",
  "bytecode": "0x60806040523480156200001157600080fd5b507ff0c57e16840df040f15088dc2f81fe391c3923bec73e23a9662efc9c229c6a00805468010000000000000000810460ff1615906001600160401b03166000811580156200005d5750825b90506000826001600160401b031660011480156200007a5750303b155b90508115801562000089575080155b15620000a85760405163f92ee8a960e01b815260040160405180910390fd5b84546001600160401b03191660011785558315620000d757845460ff60401b1916680100000000000000001785555b83156200011e57845460ff60401b19168555604051600181527fc7f505b2f371ae2175ee4913f4499e1f2633a7b5936321eed1cdaeb6115181d29060200160405180910390a15b5050505050615bb780620001336000396000f3fe608060405234801561001057600080fd5b50600436106102135760003560e01c80639a641e0211610126578063b429afeb116100b3578063b429afeb146104d8578063b5a44d04146104eb578063b6d2fe6c146104fe578063b701c1aa1461052c578063be2e0ad81461054c578063d06969c71461056c578063dee1f0e41461057f578063e76bd82514610592578063f77c4791146105a5578063fee27cbe146105ad578063ffa1ad74146105c057600080fd5b80639a641e02146104175780639d0bcca01461042a5780639f3cfa7a1461043f578063a433af6f14610447578063a46374b31461045a578063a4efd30914610484578063a7540ee514610497578063ac257b3a146104aa578063ad8c5755146104bd578063b2192fdd146104d057600080fd5b8063572b6c05116101a4578063572b6c051461031b57806357bd05b01461032e5780635a67eb48146103415780636a8a5e8c146103545780636bb4b459146103675780637442adbc146103925780637be89369146103a55780637c00116c146103cb5780637cc96380146103de578063936725ec146103e657600080fd5b80630e30c13e14610218578063150b7a021461024257806319ab453c1461027957806327dd892f1461028e5780632fcd5deb146102a1578063325a19f1146102c457806338430cce146102da5780634593144c146102ed57806348b371bf146102f55780634fac6ccd14610308575b600080fd5b61022b610226366004614689565b6105e4565b60405160ff90911681526020015b60405180910390f35b610260610250366004614793565b630a85bd0160e11b949350505050565b6040516001600160e01b03199091168152602001610239565b61028c6102873660046147fe565b6105f9565b005b61028c61029c366004614850565b6106f3565b6102b46102af3660046148b5565b610719565b6040519015158152602001610239565b6102cc6107a0565b604051908152602001610239565b61028c6102e8366004614904565b6107d9565b6102cc6107fb565b61028c610303366004614953565b61082b565b61028c6103163660046147fe565b61083f565b6102b46103293660046147fe565b610951565b61028c61033c366004614982565b61099f565b61028c61034f366004614689565b6109b9565b61028c6103623660046149d5565b6109cb565b61037a6103753660046149d5565b610a61565b6040516001600160401b039091168152602001610239565b6102cc6103a0366004614a17565b610b2b565b6103b86103b3366004614a30565b610b36565b60405161ffff9091168152602001610239565b61037a6103d9366004614a8b565b610b64565b6102cc610b70565b61040a604051806040016040528060058152602001640312e302e360dc1b81525081565b6040516102399190614afd565b61037a610425366004614689565b610b8e565b610432610b9a565b6040516102399190614b10565b61037a610bca565b61028c610455366004614689565b610bd4565b61046d610468366004614953565b610c59565b6040516102399b9a99989796959493929190614bd1565b61028c610492366004614c7c565b610c99565b6102cc6104a53660046147fe565b610cb1565b6102cc6104b8366004614cba565b610cbc565b6102b46104cb366004614689565b610ce5565b61022b610cf9565b6102b46104e63660046147fe565b610d03565b61028c6104f9366004614d3e565b610d28565b61051161050c366004614d7f565b610db2565b60408051938452602084019290925290820152606001610239565b61053f61053a366004614dba565b610e6e565b6040516102399190614e5d565b61055f61055a366004614689565b610e7f565b6040516102399190614f33565b61037a61057a3660046149d5565b610e8b565b6102b461058d3660046147fe565b610ef2565b61028c6105a036600461526e565b610f77565b610432610f8d565b61028c6105bb366004614953565b610fbd565b61040a60405180604001604052806005815260200164322e312e3160d81b81525081565b60006105f08383610fde565b90505b92915050565b600061060361101b565b805490915060ff600160401b82041615906001600160401b031660008115801561062a5750825b90506000826001600160401b031660011480156106465750303b155b905081158015610654575080155b156106725760405163f92ee8a960e01b815260040160405180910390fd5b845467ffffffffffffffff19166001178555831561069c57845460ff60401b1916600160401b1785555b6106a58661103f565b83156106eb57845460ff60401b19168555604051600181527fc7f505b2f371ae2175ee4913f4499e1f2633a7b5936321eed1cdaeb6115181d29060200160405180910390a15b505050505050565b6107156106fe611050565b610706610f8d565b61070e611068565b858561108a565b5050565b6000610797610726611124565b61072e610f8d565b6001600160a01b0316628e96916040518163ffffffff1660e01b8152600401602060405180830381865afa15801561076a573d6000803e3d6000fd5b505050506040513d601f19601f8201168201806040525081019061078e919061542d565b87878787611148565b95945050505050565b60006107d46107d060017f6f55f470bdc9cb5f04223fd822021061668e4dccb43e8727b295106dc9769c8b615460565b5490565b905090565b6107156107e4611050565b6107ec610f8d565b6107f4611068565b8585611401565b60006107d46107d060017f812a673dfca07956350df10f8a654925f561d7a0da09bdbe79e653939a14d9f1615460565b61083c610836610f8d565b8261163f565b50565b3330146108915760405162461bcd60e51b815260206004820152601b60248201527a24b731b932b0b9b2903932bb34b9b4b7b7103337b93134b23232b760291b60448201526064015b60405180910390fd5b60006108af6107d06001600080516020615b62833981519152615460565b6108ba906001615473565b90506108dc816108d96001600080516020615b62833981519152615460565b55565b61090b826108d960017fbfaaa2fb63266ff27c2da975f5894955056f50419af651a81f6c5060581857e4615460565b604080518281526001600160a01b03841660208201527ff27e2ef832a4eb8ed8ec553b875eecd44764cda95b1c24170e281539e0a869c891015b60405180910390a15050565b60006001600160a01b03821673d8253782c45a12053594b9deb72d8e8ab2fca54c14806105f357506001600160a01b0382167352ceba41da235af367bfc0b0ccd3314cb901bb5f1492915050565b6109b36109aa610f8d565b85858585611697565b50505050565b6107156109c4610f8d565b83836119df565b73F4F4014F036bfd119fc7FF945487afE3c07d354e6303395eef6109ed610f8d565b6040516001600160e01b031960e084901b1681526001600160a01b03918216600482015281871660248201526044810186905290841660648201526084015b60006040518083038186803b158015610a4457600080fd5b505af4158015610a58573d6000803e3d6000fd5b50505050505050565b600073F4F4014F036bfd119fc7FF945487afE3c07d354e63987707f9610a85611050565b610a8d610f8d565b610a95611068565b6040516001600160e01b031960e086901b16815292151560048401526001600160a01b03918216602484015281166044830152808816606483015260848201879052851660a482015260c4015b602060405180830381865af4158015610aff573d6000803e3d6000fd5b505050506040513d601f19601f82011682018060405250810190610b239190615486565b949350505050565b60006105f382611a7e565b600080610b4287611a9f565b9050610b59610b4f611124565b8288888888611b1e565b979650505050505050565b60006105f08383611e4b565b60006107d46107d06001600080516020615b62833981519152615460565b60006105f08383611e6e565b60006107d46107d060017fbfaaa2fb63266ff27c2da975f5894955056f50419af651a81f6c5060581857e4615460565b60006107d4611eb1565b73F4F4014F036bfd119fc7FF945487afE3c07d354e63dc01b901610bf6610f8d565b6040516001600160e01b031960e084901b1681526001600160a01b0391821660048201529085166024820152604481018490526064015b60006040518083038186803b158015610c4557600080fd5b505af41580156106eb573d6000803e3d6000fd5b600080600080600080606080606060006060610c748c611ecd565b9a509a509a509a509a509a509a509a509a509a509a5091939597999b90929496989a50565b610cac610ca4610f8d565b848484612176565b505050565b60006105f382612364565b6000610cd98888888860ff168860ff168860ff168860ff16612390565b98975050505050505050565b60006105f0610cf2610f8d565b848461252f565b60006107d4612642565b6000610d0d610f8d565b6001600160a01b0316826001600160a01b0316149050919050565b73F4F4014F036bfd119fc7FF945487afE3c07d354e63efa20d9b610d4a611050565b610d52610f8d565b610d5a611068565b6040516001600160e01b031960e086901b16815292151560048401526001600160a01b039182166024840152811660448301526001600160401b03871660648301528516608482015260a4810184905260c401610a2c565b600080600073F4F4014F036bfd119fc7FF945487afE3c07d354e633e457e4f610dd9610f8d565b6040516001600160e01b031960e084901b1681526001600160a01b039182166004820152908a16602482015260448101899052606481018890526084810187905260a401606060405180830381865af4158015610e3a573d6000803e3d6000fd5b505050506040513d601f19601f82011682018060405250810190610e5e91906154a3565b9250925092509450945094915050565b610e76614497565b6105f382612658565b60606105f0838361290e565b600073F4F4014F036bfd119fc7FF945487afE3c07d354e63c77d56a2610eaf610f8d565b6040516001600160e01b031960e084901b1681526001600160a01b0391821660048201528186166024820152908716604482015260648101869052608401610ae2565b6000816001600160a01b0316610f06610f8d565b6001600160a01b0316635aa6e6756040518163ffffffff1660e01b8152600401602060405180830381865afa158015610f43573d6000803e3d6000fd5b505050506040513d601f19601f82011682018060405250810190610f67919061542d565b6001600160a01b03161492915050565b6106eb610f82610f8d565b878787878787612947565b60006107d46107d060017f5165972ef41194f06c5007493031d0b927c20741adcb74403b954009fd2c3618615460565b61083c610fc8611050565b610fd0610f8d565b610fd8611068565b84612d4e565b6000610fe8612d76565b60030160006110006001600160a01b03861685612d80565b815260208101919091526040016000205460ff169392505050565b7ff0c57e16840df040f15088dc2f81fe391c3923bec73e23a9662efc9c229c6a0090565b611047612dd0565b61083c81612df7565b600061105b33610951565b806107d457505032331490565b600061107333610951565b15611085575060131936013560601c90565b503390565b61109385612f0a565b60405163139ed9b560e21b81526001600160a01b0380861660048301526001600160401b038416602483015282151560448301528416606482015273CA88738B4048aEB81f97d2cEBCAC1F59cF868D4090634e7b66d49060840160006040518083038186803b15801561110557600080fd5b505af4158015611119573d6000803e3d6000fd5b505050505050505050565b7fae5971282b317bbed599861775fe0712755bb3b2f655bfe8fb14280d8429f60090565b61ffff84166000908152600d870160205260408120600281015460ff8082169160081c811690871682118061117f5750808760ff16115b1561119057600093505050506113f7565b50506000816003018054806020026020016040519081016040528092919081815260200182805480156111e257602002820191906000526020600020905b8154815260200190600101908083116111ce575b5050505050905060008260040180548060200260200160405190810160405280929190818152602001828054801561123957602002820191906000526020600020905b815481526020019060010190808311611225575b505085519394506000925050505b818110156113ed576000848281518110611263576112636154d1565b602002602001015190506000801b810361127d57506113e5565b60008060006112b4878681518110611297576112976154d1565b602002602001015190604082901c90608083901c60ff1660011490565b925092509250600081611335578f6001600160a01b0316630a82c861866040518263ffffffff1660e01b81526004016112ef91815260200190565b602060405180830381865afa15801561130c573d6000803e3d6000fd5b505050506040513d601f19601f8201168201806040525081019061133091906154e7565b6113a6565b8f6001600160a01b0316631c2aafe78e8e886040518463ffffffff1660e01b815260040161136593929190615500565b602060405180830381865afa158015611382573d6000803e3d6000fd5b505050506040513d601f19601f820116820180604052508101906113a691906154e7565b9050836001600160401b03168110806113c75750826001600160401b031681115b156113df5760009a50505050505050505050506113f7565b50505050505b600101611247565b5060019450505050505b9695505050505050565b600061140b612d76565b9050600061141886611a9f565b6040805160a0810182526000808252602080830182905282840182905260608301829052608083018290526001600160401b0389168252600e870181528382208054600160401b900461ffff168352600d88019091529290209293509161147e8a612f0a565b611489828986612f28565b50508160020160009054906101000a900463ffffffff16836040019063ffffffff16908163ffffffff168152505073CA88738B4048aEB81f97d2cEBCAC1F59cF868D406311942d1783838a8c8b8f8a604001516040518863ffffffff1660e01b81526004016114fe9796959493929190615521565b608060405180830381865af415801561151b573d6000803e3d6000fd5b505050506040513d601f19601f8201168201806040525081019061153f919061557e565b1515602087015263ffffffff1660608601526080850152158015845261157157815460ff60501b1916600160501b1782555b6080830151156115a257608083015160028301805460ff909216600160201b0264ff00000000199092169190911790555b826040015163ffffffff16836060015163ffffffff16146115de57606083015160028301805463ffffffff191663ffffffff9092169190911790555b8260200151156115fe5780546115fe908390610100900460ff1689613050565b82511580156116155750600282015463ffffffff16155b801561162357508260200151155b15611633576116338489896130bb565b50505050505050505050565b6116488261331b565b604051632586866b60e11b81526001600160a01b03831660048201526001600160401b038216602482015273CA88738B4048aEB81f97d2cEBCAC1F59cF868D4090634b0d0cd690604401610c2d565b336001600160a01b0316856001600160a01b03166389dd9f136040518163ffffffff1660e01b8152600401602060405180830381865afa1580156116df573d6000803e3d6000fd5b505050506040513d601f19601f82011682018060405250810190611703919061542d565b6001600160a01b03161461172a57604051631e66e98d60e01b815260040160405180910390fd5b6000611734612d76565b9050600061174c6001600160a01b03861685856133a7565b600081815260018401602052604090205490915060ff1661178557600081815260018381016020526040909120805460ff191690911790555b600061179a6001600160a01b03871686612d80565b600081815260038501602052604090205490915060ff808616911610156117d95760008181526003840160205260409020805460ff191660ff86161790555b60006117e4856133dc565b9050886001600160a01b0316628e96916040518163ffffffff1660e01b8152600401602060405180830381865afa158015611823573d6000803e3d6000fd5b505050506040513d601f19601f82011682018060405250810190611847919061542d565b60405163184f614360e01b81526001600160a01b038981166004830152602482018990526044820184905260016064830152919091169063184f614390608401600060405180830381600087803b1580156118a157600080fd5b505af11580156118b5573d6000803e3d6000fd5b50505050886001600160a01b031663016dff5d6040518163ffffffff1660e01b8152600401602060405180830381865afa1580156118f7573d6000803e3d6000fd5b505050506040513d601f19601f8201168201806040525081019061191b919061542d565b6001600160a01b0316638659698888888b6040518463ffffffff1660e01b815260040161194a939291906155c8565b600060405180830381600087803b15801561196457600080fd5b505af1158015611978573d6000803e3d6000fd5b50506040805163ffffffff8c16815260ff891660208201526001600160a01b038b1681830152606081018a905290517f9361a6479d59e73126a39557fc9cbc0a4bb9842f0f6979b0d1db2aefa27933c09350908190036080019150a1505050505050505050565b6119e88361331b565b6005811015611a0d57604051634bebee7f60e01b815260048101829052602401610888565b80611a16612d76565b600a016000846001600160a01b03166001600160a01b03168152602001908152602001600020819055507f996f9d801b1a05cd3c7b555e5b6f61db994ea8ef57125b5b5d3b07b9dad4e2cf8282604051611a719291906155ef565b60405180910390a1505050565b60006105f3611a8b612d76565b600084815260209190915260409020613412565b604080516101c081018252600060208201819052918101829052606081018290526080810182905260a0810182905260c0810182905260e08101829052610100810182905261012081018290526101408101829052610160810182905261018081018290526101a08101919091526001600160a01b0391909116815290565b60008460ff16600003611b445760405163a8473eab60e01b815260040160405180910390fd5b600080611b508861341c565b604051631ebd249360e01b81529091506001600160a01b03821690631ebd249390611b8190899089906004016155ef565b602060405180830381865afa158015611b9e573d6000803e3d6000fd5b505050506040513d601f19601f82011682018060405250810190611bc29190615608565b91506000896005016000611c5960058b611bdc919061563b565b611be790600161565d565b604051631789b7b160e01b81526001600160a01b03871690631789b7b190611c13908e90600401614b10565b602060405180830381865afa158015611c30573d6000803e3d6000fd5b505050506040513d601f19601f82011682018060405250810190611c549190615608565b6134b1565b8152602081019190915260400160009081205461ffff169150819003611cb957896005016000611ca160058b611c8f919061563b565b611c9a90600161565d565b60006134b1565b815260208101919091526040016000205461ffff1690505b8061ffff16600003611cee57896005016000611cd66000806134b1565b815260208101919091526040016000205461ffff1690505b61ffff811615611d74576001600160a01b03871660a087901b67ffffffffffffffff60a01b161760f082901b6001600160f01b03191617600090815260028b01602052604090205460ff16158015611d65575061ffff81166000908152600d8b01602052604090205460ff84811661010090920416145b15611d745792506113f7915050565b505060ff81166000908152600889016020526040812090611d9482613412565b905080600003611dbb576040516283533360e01b815260ff84166004820152602401610888565b6000611dc68a6134c6565b9050600080611dd58489615676565b905060005b84811015611e3157611dec8683613557565b9250611dfc8e85858f8f8f611148565b15611e1057829750505050505050506113f7565b81611e1a8161568a565b925050848210611e2957600091505b600101611dda565b5060405163b940612960e01b815260040160405180910390fd5b60006105f083611e59612d76565b60008581526020919091526040902090613557565b6000611e78612d76565b6004016000611e906001600160a01b03861685612d80565b81526020810191909152604001600020546001600160401b03169392505050565b6000611ebb612d76565b600c01546001600160401b0316919050565b6000806000806000806060806060600060606000611ee9612d76565b600e0160008e6001600160401b03166001600160401b0316815260200190815260200160002090508060000160089054906101000a900461ffff169b5080600001600a9054906101000a900460ff169a5080600001600b9054906101000a90046001600160a01b03169950806001015498508060020160009054906101000a900463ffffffff1697508060020160049054906101000a900460ff16965080600601805480602002602001604051908101604052809291908181526020018280548015611fd457602002820191906000526020600020905b815481526020019060010190808311611fc0575b505050600784015460088501805460408051602080840282018101909252828152969a5060ff9093169850909350915083018282801561205f57602002820191906000526020600020906000905b82829054906101000a900463ffffffff1663ffffffff16815260200190600401906020826003010492830192600103820291508084116120225790505b50505050509150600061207482600301613563565b9050806001600160401b0381111561208e5761208e6146b5565b6040519080825280602002602001820160405280156120b7578160200160208202803683370190505b509650806001600160401b038111156120d2576120d26146b5565b6040519080825280602002602001820160405280156120fb578160200160208202803683370190505b50955060005b8181101561216457612116600384018261356e565b898381518110612128576121286154d1565b60200260200101898481518110612141576121416154d1565b60209081029190910101919091526001600160a01b039091169052600101612101565b50505091939597999b90929496989a50565b61217f8461331b565b6000612189612d76565b61ffff85166000908152600d820160205260408120805461ffff198116825592935061010090920460ff1691906121c360018301826144f7565b60028201600090556003820160006121db919061451c565b6121e960048301600061451c565b6005820160006121f9828261451c565b61220760018301600061453a565b50505060ff82166000908152600884016020526040902061222d915061ffff871661358a565b1561228d5760ff8116600090815260088301602052604090206122549061ffff87166135a2565b5060405161ffff861681527f6ee9dd6501e6ec9a0a3e60e773ac5fd9d48414213bc6a16588c88bda44f492899060200160405180910390a15b61229e6006830161ffff871661358a565b156106eb5760006122af85856134b1565b600081815260058501602052604090205490915061ffff8781169116146122e95760405163066a129160e31b815260040160405180910390fd5b60008181526005840160205260409020805461ffff191690556123136006840161ffff88166135a2565b506040805161ffff8816815260ff878116602083015286168183015290517f9c5c01904f703f1392e848da84f3f506975241d8d8d0f67550729c5f5080c94e9181900360600190a150505050505050565b600061236e612d76565b6001600160a01b039092166000908152600a9290920160205250604090205490565b60008684108061239f57508282105b156123ac57506000610b59565b60006123b6611124565b6001600160a01b038a166000908152600a919091016020526040902054905080158015906123e357508086105b156123f2576000915050610b59565b606386111561241757604051633505ce1b60e11b815260048101879052602401610888565b601385111561243c57604051637d34ca9360e01b815260048101869052602401610888565b60006124496005876156a3565b9050675c33b801024d7e4a60006064612488612466856063615460565b612471906001615473565b61248390670de0b6b3a76400006156a3565b6135ae565b6124929084615460565b61249c91906156ba565b9050670de0b6b3a764000081106124c957604051630dd7f01960e01b815260048101829052602401610888565b6000670de0b6b3a76400006124de838d6156a3565b6124e891906156ba565b90508984101561251f576124fc848b615460565b61250790600a615473565b6125129060026157b2565b61251c90826156ba565b90505b9c9b505050505050505050505050565b600080846001600160a01b031663016dff5d6040518163ffffffff1660e01b8152600401602060405180830381865afa158015612570573d6000803e3d6000fd5b505050506040513d601f19601f82011682018060405250810190612594919061542d565b6001600160a01b0316631ebd249385856040518363ffffffff1660e01b81526004016125c19291906155ef565b602060405180830381865afa1580156125de573d6000803e3d6000fd5b505050506040513d601f19601f820116820180604052508101906126029190615608565b905061260c612d76565b60010160006126256001600160a01b03871686856133a7565b815260208101919091526040016000205460ff1695945050505050565b600061264c612d76565b6009015460ff16919050565b612660614497565b612668612d76565b61ffff83166000908152600d919091016020908152604091829020825160e081018452815460ff808216835261010090910416818401526001820180548551818602810186018752818152929593949386019383018282801561271657602002820191906000526020600020906000905b82829054906101000a900463ffffffff1663ffffffff16815260200190600401906020826003010492830192600103820291508084116126d95790505b50505050508152602001600282015481526020016003820180548060200260200160405190810160405280929190818152602001828054801561277857602002820191906000526020600020905b815481526020019060010190808311612764575b50505050508152602001600482018054806020026020016040519081016040528092919081815260200182805480156127d057602002820191906000526020600020905b8154815260200190600101908083116127bc575b50505050508152602001600582016040518060400160405290816000820180548060200260200160405190810160405280929190818152602001828054801561283857602002820191906000526020600020905b815481526020019060010190808311612824575b5050505050815260200160018201805480602002602001604051908101604052809291908181526020016000905b828210156128fe576000848152602090819020830180546040805182850281018501909152818152928301828280156128ea57602002820191906000526020600020906000905b82829054906101000a900463ffffffff1663ffffffff16815260200190600401906020826003010492830192600103820291508084116128ad5790505b505050505081526020019060010190612866565b5050509152505090525092915050565b60606105f061291b612d76565b600b0160006129336001600160a01b03871686612d80565b81526020019081526020016000205461368f565b6129508761331b565b600061295a612d76565b602086015151865151919250908114158061297a57508560400151518114155b156129985760405163c81acf3360e01b815260040160405180910390fd5b60005b81811015612a055786518051829081106129b7576129b76154d1565b602002602001015151876020015182815181106129d6576129d66154d1565b602002602001015151146129fd5760405163f001029b60e01b815260040160405180910390fd5b60010161299b565b5061ffff88166000908152600d830160205260409020600983015460ff9081169089161115612a405760098301805460ff191660ff8a161790555b805460ff8981166101000261ffff199092169084161717815560408701518051612a74916001840191602090910190614558565b50612a87876060015188608001516134b1565b600282015560a08701518051612aa7916003840191602090910190614607565b506004810160005b8860c0015151811015612b3b5781612b208a60c001518381518110612ad657612ad66154d1565b60200260200101518b60e001518481518110612af457612af46154d1565b60200260200101518c61010001518581518110612b1357612b136154d1565b6020026020010151613707565b81546001818101845560009384526020909320015501612aaf565b5060005b83811015612bdc57885180516005850191612b719184908110612b6457612b646154d1565b6020026020010151613742565b815460018101835560009283526020928390200155890151805160068501919083908110612ba157612ba16154d1565b60209081029190910181015182546001810184556000938452928290208151612bd39491909101929190910190614558565b50600101612b3f565b508415612cde576000612bef88886134b1565b600081815260058701602052604090205490915061ffff1615612c2b576040516366e6550f60e01b815261ffff8c166004820152602401610888565b60008181526005860160205260409020805461ffff191661ffff8d16908117909155612c5b90600687019061358a565b15612c7f5760405163ce9c78df60e01b815261ffff8c166004820152602401610888565b612c906006860161ffff8d166137c1565b506040805161ffff8d16815260ff8a8116602083015289168183015290517fc27376e37bec2cd9acd6957a46ca5cba20a88a21fd0eff1b02cf8536462304769181900360600190a150612d08565b8154610100900460ff1660009081526008850160205260409020612d069061ffff8c166137c1565b505b7fa8932b9bd78638467b3e5c0f0ffa9c72761db9f7f605b8df2f7a899770d064ae8a89604051612d39929190615878565b60405180910390a15050505050505050505050565b612d5784612f0a565b6000612d6284611a9f565b9050612d6f8184846130bb565b5050505050565b60006107d4611124565b60006001600160401b03821115612dad57604051633995b34160e01b815260048101839052602401610888565b5067ffffffffffffffff60a01b60a09190911b166001600160a01b039091161790565b612dd86137cd565b612df557604051631afcd79f60e31b815260040160405180910390fd5b565b6001600160a01b038116612e3f5760405162461bcd60e51b815260206004820152600f60248201526e2d32b9379031b7b73a3937b63632b960891b6044820152606401610888565b612e6e816108d960017f5165972ef41194f06c5007493031d0b927c20741adcb74403b954009fd2c3618615460565b612e9d426108d960017f6f55f470bdc9cb5f04223fd822021061668e4dccb43e8727b295106dc9769c8b615460565b612ecc436108d960017f812a673dfca07956350df10f8a654925f561d7a0da09bdbe79e653939a14d9f1615460565b7f1a2dd071001ebf6e03174e3df5b305795a4ad5d41d8fdb9ba41dbbe236713426814243604051612eff93929190615500565b60405180910390a150565b8061083c57604051636221cab960e01b815260040160405180910390fd5b82546001840154600160581b82046001600160a01b031691600160501b900460ff1615612f6857604051636927c40b60e11b815260040160405180910390fd5b612f74828286866137e7565b612f7d836134c6565b6001600160a01b031663f16a306683836040518363ffffffff1660e01b8152600401612faa9291906155ef565b602060405180830381865afa158015612fc7573d6000803e3d6000fd5b505050506040513d601f19601f82011682018060405250810190612feb9190615977565b61300c57818160405163033aace360e41b81526004016108889291906155ef565b84546001600160401b03166130218383611e6e565b6001600160401b031614613048576040516337bcc65160e01b815260040160405180910390fd5b935093915050565b8254600160581b600160f81b03191683556000600184015560028301805464ffffffffff19169055613082828261399e565b6040516001600160401b03821681527f883aa0807cbcd64d238a9795b0433f37884de37e569aff04d512cb1df62c6e0190602001611a71565b60006130c5612d76565b6001600160401b0383166000908152600e8201602090815260408083208054600160401b900461ffff168452600d85018352818420825160a08101845285815293840185905291830184905260608301849052608083019390935292935090919061312f87613a2a565b6001600160a01b03166040820152600283015463ffffffff16156131665760405163282404cd60e01b815260040160405180910390fd5b613171838789612f28565b602083018190526001600160a01b03909116808352600285015460ff600160201b909104166060840181905260408401516131ba938693889392916131b58e6134c6565b613abc565b63ffffffff16608082018190526000036131e757604051638a874ec160e01b815260040160405180910390fd5b608081015160028401805463ffffffff191663ffffffff831617905560408083015183516020850151925163f2c6c6fb60e01b81526000946001600160a01b039093169363f2c6c6fb9361323e93926004016155c8565b6020604051808303816000875af115801561325d573d6000803e3d6000fd5b505050506040513d601f19601f8201168201806040525081019061328191906154e7565b90507f7a40f4421a71ae931ce048b2171197c34a78510813f1d3f4202935dd9f105b1a86836000015184602001518560800151858760600151604051613309969594939291906001600160401b039690961686526001600160a01b03949094166020860152604085019290925263ffffffff166060840152608083015260a082015260c00190565b60405180910390a15050505050505050565b604051631430d62960e21b81526001600160a01b038216906350c358a490613347903390600401614b10565b602060405180830381865afa158015613364573d6000803e3d6000fd5b505050506040513d601f19601f820116820180604052508101906133889190615977565b61083c573360405163451cea1760e11b81526004016108889190614b10565b60609290921b6001600160601b03191660209190911b6bffffffffffffffff00000000161760189190911b63ff000000161790565b60006133ea8260ff16613ec3565b6040516020016133fa9190615994565b6040516020818303038152906040526105f3906159cb565b60006105f3825490565b6101208101516000906001600160a01b03166134a85781600001516001600160a01b031663016dff5d6040518163ffffffff1660e01b8152600401602060405180830381865afa158015613474573d6000803e3d6000fd5b505050506040513d601f19601f82011682018060405250810190613498919061542d565b6001600160a01b03166101208301525b50610120015190565b600060ff8316600883901b61ff0016176105f0565b60208101516000906001600160a01b031661354f5781600001516001600160a01b0316628e96916040518163ffffffff1660e01b8152600401602060405180830381865afa15801561351c573d6000803e3d6000fd5b505050506040513d601f19601f82011682018060405250810190613540919061542d565b6001600160a01b031660208301525b506020015190565b60006105f08383613fc3565b60006105f382613fed565b600080808061357d8686613ff8565b9097909650945050505050565b600081815260018301602052604081205415156105f0565b60006105f08383614023565b6000670de0b6b3a76400008210156135dc57604051637046c4a960e01b815260048101839052602401610888565b60006135f86135f3670de0b6b3a7640000856156ba565b614116565b9050600061360e82670de0b6b3a76400006156a3565b905083821c670de0b6b3a764000081900361362b57509392505050565b6706f05b59d3b200005b801561368557670de0b6b3a764000061364e83806156a3565b61365891906156ba565b9150671bc16d674ec80000821061367d576136738184615473565b9250600182901c91505b60011c613635565b5090949350505050565b6040805160208082526104208201909252606091600091908082016104008036833701905050905060005b6020811015613700576136ce8160086156a3565b8460001c901c8282815181106136e6576136e66154d1565b60ff909216602092830291909101909101526001016136ba565b5092915050565b67ffffffffffffffff60401b604083901b166001600160401b03841617608082613732576000613735565b60015b60ff16901b179392505050565b8051600090602081111561377357604051633d71388b60e21b81526004810182905260206024820152604401610888565b6000805b828110156137b95761378a8160086156a3565b85828151811061379c5761379c6154d1565b602090810291909101015160ff16901b9190911790600101613777565b509392505050565b60006105f083836141f9565b60006137d761101b565b54600160401b900460ff16919050565b6040516331a9108f60e11b8152600481018490526001600160a01b038084169190861690636352211e90602401602060405180830381865afa158015613831573d6000803e3d6000fd5b505050506040513d601f19601f82011682018060405250810190613855919061542d565b6001600160a01b03161461388057838360405163547208b960e11b81526004016108889291906155ef565b6138898161341c565b6001600160a01b0316631789b7b1856040518263ffffffff1660e01b81526004016138b49190614b10565b602060405180830381865afa1580156138d1573d6000803e3d6000fd5b505050506040513d601f19601f820116820180604052508101906138f59190615608565b60ff1660000361391a578360405163adc7fced60e01b81526004016108889190614b10565b80600001516001600160a01b03166318d928316040518163ffffffff1660e01b8152600401602060405180830381865afa15801561395c573d6000803e3d6000fd5b505050506040513d601f19601f820116820180604052508101906139809190615977565b156109b357604051635e1633d360e11b815260040160405180910390fd5b6139cc816001600160401b03166139b3612d76565b60ff8516600090815260209190915260409020906137c1565b6139e9576040516313e5d5f160e11b815260040160405180910390fd5b6040805160ff841681526001600160401b03831660208201527f3e9a7af2aeebce9d24ef707bdb61adf2708293e374a19f8e9c31f905c68b43c19101610945565b60c08101516000906001600160a01b0316613ab45781600001516001600160a01b03166389dd9f136040518163ffffffff1660e01b8152600401602060405180830381865afa158015613a81573d6000803e3d6000fd5b505050506040513d601f19601f82011682018060405250810190613aa5919061542d565b6001600160a01b031660c08301525b5060c0015190565b600786015460009060ff168610613ae9576040516315f7ec4560e21b815260048101879052602401610888565b866008018681548110613afe57613afe6154d1565b60009182526020822060088204015460079091166004026101000a900463ffffffff169150819003610b5957604051631a95890960e31b81526000906001600160a01b0384169063d4ac484890613b5b90889088906004016155ef565b60a060405180830381865afa158015613b78573d6000803e3d6000fd5b505050506040513d601f19601f82011682018060405250810190613b9c91906159f2565b602081015181518b54929350613bc69263ffffffff9283169290911690610100900460ff16614248565b15801590613c175750613bd7612d76565b895460019190910190600090613c01906001600160a01b038916908890610100900460ff166133a7565b815260208101919091526040016000205460ff16155b8015613c4457508854613c3390610100900460ff166005615a89565b60ff16816000015163ffffffff1610155b15613cc2578854610100900460ff16600103613c665762138884915050610b59565b8854610100900460ff16600203613c83576222f238915050610b59565b8854610100900460ff16600303613ca057623234dc915050610b59565b8854610100900460ff16600403613cbd5762417780915050610b59565b613eb7565b6040805160058b01805460606020820284018101855293830181815260009484928491840182828015613d1457602002820191906000526020600020905b815481526020019060010190808311613d00575b5050505050815260200160018201805480602002602001604051908101604052809291908181526020016000905b82821015613dda57600084815260209081902083018054604080518285028101850190915281815292830182828015613dc657602002820191906000526020600020906000905b82829054906101000a900463ffffffff1663ffffffff1681526020019060040190602082600301049283019260010382029150808411613d895790505b505050505081526020019060010190613d42565b50505050815250509050866001600160a01b0316636f383c0f613e1983600001518b81518110613e0c57613e0c6154d1565b602002602001015161429e565b83602001518b81518110613e2f57613e2f6154d1565b60200260200101518d60000160019054906101000a900460ff168a8a6040518663ffffffff1660e01b8152600401613e6b959493929190615aa5565b6020604051808303816000875af1158015613e8a573d6000803e3d6000fd5b505050506040513d601f19601f82011682018060405250810190613eae9190615af4565b92505050610b59565b50979650505050505050565b606081600003613eea5750506040805180820190915260018152600360fc1b602082015290565b8160005b8115613f145780613efe8161568a565b9150613f0d9050600a836156ba565b9150613eee565b6000816001600160401b03811115613f2e57613f2e6146b5565b6040519080825280601f01601f191660200182016040528015613f58576020820181803683370190505b5090505b8415610b2357613f6d600183615460565b9150613f7a600a86615676565b613f85906030615473565b60f81b818381518110613f9a57613f9a6154d1565b60200101906001600160f81b031916908160001a905350613fbc600a866156ba565b9450613f5c565b6000826000018281548110613fda57613fda6154d1565b9060005260206000200154905092915050565b60006105f382613412565b600080806140068585613557565b600081815260029690960160205260409095205494959350505050565b6000818152600183016020526040812054801561410c576000614047600183615460565b855490915060009061405b90600190615460565b90508082146140c057600086600001828154811061407b5761407b6154d1565b906000526020600020015490508087600001848154811061409e5761409e6154d1565b6000918252602080832090910192909255918252600188019052604090208390555b85548690806140d1576140d1615b11565b6001900381819060005260206000200160009055905585600101600086815260200190815260200160002060009055600193505050506105f3565b60009150506105f3565b6000600160801b821061413657608091821c916141339082615473565b90505b600160401b821061415457604091821c916141519082615473565b90505b600160201b821061417257602091821c9161416f9082615473565b90505b62010000821061418f57601091821c9161418c9082615473565b90505b61010082106141ab57600891821c916141a89082615473565b90505b601082106141c657600491821c916141c39082615473565b90505b600482106141e157600291821c916141de9082615473565b90505b600282106141f4576105f3600182615473565b919050565b6000818152600183016020526040812054614240575081546001818101845560008481526020808220909301849055845484825282860190935260409020919091556105f3565b5060006105f3565b600080600561425986866001614392565b61426391906156ba565b61426e906001615473565b905082811161427e576000610797565b6142888382615460565b61429390600a615473565b6107979060026157b2565b606060006142ab8361368f565b90506000805b82518110156142f4578281815181106142cc576142cc6154d1565b602002602001015160ff16600003156142f457816142e98161568a565b9250506001016142b1565b50806001600160401b0381111561430d5761430d6146b5565b604051908082528060200260200182016040528015614336578160200160208202803683370190505b50925060005b8181101561438a57828181518110614356576143566154d1565b6020026020010151848281518110614370576143706154d1565b60ff9092166020928302919091019091015260010161433c565b505050919050565b60008061439f85856143c8565b90508280156143b8575060026143b6826001615473565b115b15610b2357610797600282615460565b805b60638110156105f3576143de836001615473565b6143e7826143fb565b63ffffffff1610156105f3576001016143ca565b600063ffffffff821615806144175750606363ffffffff831610155b1561442457506000919050565b670de0b6b3a764000061445e61443b846063615b27565b614446906002615b44565b6124839063ffffffff16670de0b6b3a76400006156a3565b61447090675cfb2e807b1e0000615460565b614483620186a063ffffffff86166156a3565b61448d91906156a3565b6105f391906156ba565b6040518060e00160405280600060ff168152602001600060ff168152602001606081526020016000801916815260200160608152602001606081526020016144f2604051806040016040528060608152602001606081525090565b905290565b50805460008255600701600890049060005260206000209081019061083c9190614642565b508054600082559060005260206000209081019061083c9190614642565b508054600082559060005260206000209081019061083c9190614657565b828054828255906000526020600020906007016008900481019282156145f75791602002820160005b838211156145c557835183826101000a81548163ffffffff021916908363ffffffff1602179055509260200192600401602081600301049283019260010302614581565b80156145f55782816101000a81549063ffffffff02191690556004016020816003010492830192600103026145c5565b505b50614603929150614642565b5090565b8280548282559060005260206000209081019282156145f7579160200282015b828111156145f7578251825591602001919060010190614627565b5b808211156146035760008155600101614643565b8082111561460357600061466b82826144f7565b50600101614657565b6001600160a01b038116811461083c57600080fd5b6000806040838503121561469c57600080fd5b82356146a781614674565b946020939093013593505050565b634e487b7160e01b600052604160045260246000fd5b60405161012081016001600160401b03811182821017156146ee576146ee6146b5565b60405290565b604051601f8201601f191681016001600160401b038111828210171561471c5761471c6146b5565b604052919050565b600082601f83011261473557600080fd5b81356001600160401b0381111561474e5761474e6146b5565b614761601f8201601f19166020016146f4565b81815284602083860101111561477657600080fd5b816020850160208301376000918101602001919091529392505050565b600080600080608085870312156147a957600080fd5b84356147b481614674565b935060208501356147c481614674565b92506040850135915060608501356001600160401b038111156147e657600080fd5b6147f287828801614724565b91505092959194509250565b60006020828403121561481057600080fd5b813561481b81614674565b9392505050565b6001600160401b038116811461083c57600080fd5b801515811461083c57600080fd5b80356141f481614837565b6000806040838503121561486357600080fd5b823561486e81614822565b9150602083013561487e81614837565b809150509250929050565b803561ffff811681146141f457600080fd5b60ff8116811461083c57600080fd5b80356141f48161489b565b600080600080608085870312156148cb57600080fd5b6148d485614889565b935060208501356148e48161489b565b925060408501356148f481614674565b9396929550929360600135925050565b6000806040838503121561491757600080fd5b823561492281614822565b915060208301356001600160401b0381111561493d57600080fd5b61494985828601614724565b9150509250929050565b60006020828403121561496557600080fd5b813561481b81614822565b63ffffffff8116811461083c57600080fd5b6000806000806080858703121561499857600080fd5b84356149a381614970565b935060208501356149b381614674565b92506040850135915060608501356149ca8161489b565b939692955090935050565b6000806000606084860312156149ea57600080fd5b83356149f581614674565b9250602084013591506040840135614a0c81614674565b809150509250925092565b600060208284031215614a2957600080fd5b5035919050565b600080600080600060a08688031215614a4857600080fd5b8535614a5381614674565b94506020860135614a638161489b565b93506040860135614a7381614674565b94979396509394606081013594506080013592915050565b60008060408385031215614a9e57600080fd5b50508035926020909101359150565b60005b83811015614ac8578181015183820152602001614ab0565b50506000910152565b60008151808452614ae9816020860160208601614aad565b601f01601f19169290920160200192915050565b6020815260006105f06020830184614ad1565b6001600160a01b0391909116815260200190565b60008151808452602080850194506020840160005b83811015614b5e5781516001600160a01b031687529582019590820190600101614b39565b509495945050505050565b60008151808452602080850194506020840160005b83811015614b5e57815187529582019590820190600101614b7e565b60008151808452602080850194506020840160005b83811015614b5e57815163ffffffff1687529582019590820190600101614baf565b61ffff8c1681528a151560208201526001600160a01b038a1660408201526060810189905263ffffffff88166080820152600061016060ff891660a08401528060c0840152614c2281840189614b24565b905082810360e0840152614c368188614b69565b9050828103610100840152614c4b8187614b69565b60ff86166101208501529050828103610140840152614c6a8185614b9a565b9e9d5050505050505050505050505050565b600080600060608486031215614c9157600080fd5b614c9a84614889565b92506020840135614caa8161489b565b91506040840135614a0c8161489b565b600080600080600080600060e0888a031215614cd557600080fd5b8735614ce081614674565b965060208801359550604088013594506060880135614cfe8161489b565b93506080880135614d0e8161489b565b925060a0880135614d1e8161489b565b915060c0880135614d2e8161489b565b8091505092959891949750929550565b600080600060608486031215614d5357600080fd5b8335614d5e81614822565b92506020840135614d6e81614674565b929592945050506040919091013590565b60008060008060808587031215614d9557600080fd5b8435614da081614674565b966020860135965060408601359560600135945092505050565b600060208284031215614dcc57600080fd5b6105f082614889565b60008282518085526020808601955060208260051b8401016020860160005b84811015614e2257601f19868403018952614e10838351614b9a565b98840198925090830190600101614df4565b5090979650505050505050565b6000815160408452614e446040850182614b69565b9050602083015184820360208601526107978282614dd5565b6020815260ff825116602082015260006020830151614e81604084018260ff169052565b50604083015160e06060840152614e9c610100840182614b9a565b9050606084015160808401526080840151601f19808584030160a0860152614ec48383614b69565b925060a08601519150808584030160c0860152614ee18383614b69565b925060c08601519150808584030160e0860152506107978282614e2f565b60008151808452602080850194506020840160005b83811015614b5e57815160ff1687529582019590820190600101614f14565b6020815260006105f06020830184614eff565b60006001600160401b03821115614f5f57614f5f6146b5565b5060051b60200190565b600082601f830112614f7a57600080fd5b81356020614f8f614f8a83614f46565b6146f4565b828152600592831b8501820192828201919087851115614fae57600080fd5b8387015b85811015614e225780356001600160401b03811115614fd15760008081fd5b8801603f81018a13614fe35760008081fd5b858101356040614ff5614f8a83614f46565b82815291851b8301810191888101908d8411156150125760008081fd5b938201935b8385101561503c578435925061502c8361489b565b8282529389019390890190615017565b885250505093850193508401614fb2565b600082601f83011261505e57600080fd5b8135602061506e614f8a83614f46565b8083825260208201915060208460051b87010193508684111561509057600080fd5b602086015b848110156150b55780356150a881614970565b8352918301918301615095565b509695505050505050565b600082601f8301126150d157600080fd5b813560206150e1614f8a83614f46565b82815260059290921b8401810191818101908684111561510057600080fd5b8286015b848110156150b55780356001600160401b038111156151235760008081fd5b6151318986838b010161504d565b845250918301918301615104565b600082601f83011261515057600080fd5b81356020615160614f8a83614f46565b8083825260208201915060208460051b87010193508684111561518257600080fd5b602086015b848110156150b55780358352918301918301615187565b600082601f8301126151af57600080fd5b813560206151bf614f8a83614f46565b8083825260208201915060208460051b8701019350868411156151e157600080fd5b602086015b848110156150b55780356151f981614822565b83529183019183016151e6565b600082601f83011261521757600080fd5b81356020615227614f8a83614f46565b8083825260208201915060208460051b87010193508684111561524957600080fd5b602086015b848110156150b557803561526181614837565b835291830191830161524e565b60008060008060008060c0878903121561528757600080fd5b61529087614889565b955060208701356152a08161489b565b945060408701356001600160401b03808211156152bc57600080fd5b90880190610120828b0312156152d157600080fd5b6152d96146cb565b8235828111156152e857600080fd5b6152f48c828601614f69565b82525060208301358281111561530957600080fd5b6153158c8286016150c0565b60208301525060408301358281111561532d57600080fd5b6153398c82860161504d565b60408301525061534b606084016148aa565b606082015261535c608084016148aa565b608082015260a08301358281111561537357600080fd5b61537f8c82860161513f565b60a08301525060c08301358281111561539757600080fd5b6153a38c82860161519e565b60c08301525060e0830135828111156153bb57600080fd5b6153c78c82860161519e565b60e08301525061010080840135838111156153e157600080fd5b6153ed8d828701615206565b828401525050809650505050615405606088016148aa565b9250615413608088016148aa565b915061542160a08801614845565b90509295509295509295565b60006020828403121561543f57600080fd5b815161481b81614674565b634e487b7160e01b600052601160045260246000fd5b818103818111156105f3576105f361544a565b808201808211156105f3576105f361544a565b60006020828403121561549857600080fd5b815161481b81614822565b6000806000606084860312156154b857600080fd5b8351925060208401519150604084015190509250925092565b634e487b7160e01b600052603260045260246000fd5b6000602082840312156154f957600080fd5b5051919050565b6001600160a01b039390931683526020830191909152604082015260600190565b8781528660208201526001600160401b0386166040820152600060018060a01b03808716606084015260e0608084015261555e60e0840187614ad1565b941660a08301525063ffffffff9190911660c09091015295945050505050565b6000806000806080858703121561559457600080fd5b845161559f81614837565b6020860151604087015191955093506155b781614970565b60608601519092506149ca81614837565b6001600160a01b03939093168352602083019190915263ffffffff16604082015260600190565b6001600160a01b03929092168252602082015260400190565b60006020828403121561561a57600080fd5b815161481b8161489b565b634e487b7160e01b600052601260045260246000fd5b600060ff83168061564e5761564e615625565b8060ff84160491505092915050565b60ff81811683821601908111156105f3576105f361544a565b60008261568557615685615625565b500690565b60006001820161569c5761569c61544a565b5060010190565b80820281158282048414176105f3576105f361544a565b6000826156c9576156c9615625565b500490565b600181815b808511156157095781600019048211156156ef576156ef61544a565b808516156156fc57918102915b93841c93908002906156d3565b509250929050565b600082615720575060016105f3565b8161572d575060006105f3565b8160018114615743576002811461574d57615769565b60019150506105f3565b60ff84111561575e5761575e61544a565b50506001821b6105f3565b5060208310610133831016604e8410600b841016171561578c575081810a6105f3565b61579683836156ce565b80600019048211156157aa576157aa61544a565b029392505050565b60006105f08383615711565b60008282518085526020808601955060208260051b8401016020860160005b84811015614e2257601f198684030189526157f9838351614eff565b988401989250908301906001016157dd565b60008151808452602080850194506020840160005b83811015614b5e5781516001600160401b031687529582019590820190600101615820565b60008151808452602080850194506020840160005b83811015614b5e57815115158752958201959082019060010161585a565b61ffff8316815260406020820152600082516101208060408501526158a16101608501836157be565b91506020850151603f19808685030160608701526158bf8483614dd5565b935060408701519150808685030160808701526158dc8483614b9a565b9350606087015191506158f460a087018360ff169052565b608087015160ff1660c087015260a0870151868503820160e0880152915061591c8483614b69565b935060c0870151915061010081878603018188015261593b858461580b565b945060e08801519250818786030184880152615957858461580b565b945080880151935050808685030161014087015250506113f78282615845565b60006020828403121561598957600080fd5b815161481b81614837565b6e424f53535f434f4d504c455445445f60881b8152600082516159be81600f850160208701614aad565b91909101600f0192915050565b805160208083015191908110156159ec576000198160200360031b1b821691505b50919050565b600060a08284031215615a0457600080fd5b60405160a081018181106001600160401b0382111715615a2657615a266146b5565b6040528251615a3481614970565b81526020830151615a4481614970565b60208201526040830151615a5781614970565b60408201526060830151615a6a81614970565b60608201526080830151615a7d81614970565b60808201529392505050565b60ff81811683821602908116908181146137005761370061544a565b60a081526000615ab860a0830188614eff565b8281036020840152615aca8188614b9a565b60ff96909616604084015250506001600160a01b0392909216606083015260809091015292915050565b600060208284031215615b0657600080fd5b815161481b81614970565b634e487b7160e01b600052603160045260246000fd5b63ffffffff8281168282160390808211156137005761370061544a565b63ffffffff8181168382160190808211156137005761370061544a56fe22573091f17911fb166032a3d9e0554aa73d31b7b7ddea4a4dd2995650af84bda26469706673582212203b4bf80641a0a2844529747c50e5878a7cae0306cbe84c5ee99b11ec6d9492a364736f6c63430008170033",
  "deployedBytecode": "0x608060405234801561001057600080fd5b50600436106102135760003560e01c80639a641e0211610126578063b429afeb116100b3578063b429afeb146104d8578063b5a44d04146104eb578063b6d2fe6c146104fe578063b701c1aa1461052c578063be2e0ad81461054c578063d06969c71461056c578063dee1f0e41461057f578063e76bd82514610592578063f77c4791146105a5578063fee27cbe146105ad578063ffa1ad74146105c057600080fd5b80639a641e02146104175780639d0bcca01461042a5780639f3cfa7a1461043f578063a433af6f14610447578063a46374b31461045a578063a4efd30914610484578063a7540ee514610497578063ac257b3a146104aa578063ad8c5755146104bd578063b2192fdd146104d057600080fd5b8063572b6c05116101a4578063572b6c051461031b57806357bd05b01461032e5780635a67eb48146103415780636a8a5e8c146103545780636bb4b459146103675780637442adbc146103925780637be89369146103a55780637c00116c146103cb5780637cc96380146103de578063936725ec146103e657600080fd5b80630e30c13e14610218578063150b7a021461024257806319ab453c1461027957806327dd892f1461028e5780632fcd5deb146102a1578063325a19f1146102c457806338430cce146102da5780634593144c146102ed57806348b371bf146102f55780634fac6ccd14610308575b600080fd5b61022b610226366004614689565b6105e4565b60405160ff90911681526020015b60405180910390f35b610260610250366004614793565b630a85bd0160e11b949350505050565b6040516001600160e01b03199091168152602001610239565b61028c6102873660046147fe565b6105f9565b005b61028c61029c366004614850565b6106f3565b6102b46102af3660046148b5565b610719565b6040519015158152602001610239565b6102cc6107a0565b604051908152602001610239565b61028c6102e8366004614904565b6107d9565b6102cc6107fb565b61028c610303366004614953565b61082b565b61028c6103163660046147fe565b61083f565b6102b46103293660046147fe565b610951565b61028c61033c366004614982565b61099f565b61028c61034f366004614689565b6109b9565b61028c6103623660046149d5565b6109cb565b61037a6103753660046149d5565b610a61565b6040516001600160401b039091168152602001610239565b6102cc6103a0366004614a17565b610b2b565b6103b86103b3366004614a30565b610b36565b60405161ffff9091168152602001610239565b61037a6103d9366004614a8b565b610b64565b6102cc610b70565b61040a604051806040016040528060058152602001640312e302e360dc1b81525081565b6040516102399190614afd565b61037a610425366004614689565b610b8e565b610432610b9a565b6040516102399190614b10565b61037a610bca565b61028c610455366004614689565b610bd4565b61046d610468366004614953565b610c59565b6040516102399b9a99989796959493929190614bd1565b61028c610492366004614c7c565b610c99565b6102cc6104a53660046147fe565b610cb1565b6102cc6104b8366004614cba565b610cbc565b6102b46104cb366004614689565b610ce5565b61022b610cf9565b6102b46104e63660046147fe565b610d03565b61028c6104f9366004614d3e565b610d28565b61051161050c366004614d7f565b610db2565b60408051938452602084019290925290820152606001610239565b61053f61053a366004614dba565b610e6e565b6040516102399190614e5d565b61055f61055a366004614689565b610e7f565b6040516102399190614f33565b61037a61057a3660046149d5565b610e8b565b6102b461058d3660046147fe565b610ef2565b61028c6105a036600461526e565b610f77565b610432610f8d565b61028c6105bb366004614953565b610fbd565b61040a60405180604001604052806005815260200164322e312e3160d81b81525081565b60006105f08383610fde565b90505b92915050565b600061060361101b565b805490915060ff600160401b82041615906001600160401b031660008115801561062a5750825b90506000826001600160401b031660011480156106465750303b155b905081158015610654575080155b156106725760405163f92ee8a960e01b815260040160405180910390fd5b845467ffffffffffffffff19166001178555831561069c57845460ff60401b1916600160401b1785555b6106a58661103f565b83156106eb57845460ff60401b19168555604051600181527fc7f505b2f371ae2175ee4913f4499e1f2633a7b5936321eed1cdaeb6115181d29060200160405180910390a15b505050505050565b6107156106fe611050565b610706610f8d565b61070e611068565b858561108a565b5050565b6000610797610726611124565b61072e610f8d565b6001600160a01b0316628e96916040518163ffffffff1660e01b8152600401602060405180830381865afa15801561076a573d6000803e3d6000fd5b505050506040513d601f19601f8201168201806040525081019061078e919061542d565b87878787611148565b95945050505050565b60006107d46107d060017f6f55f470bdc9cb5f04223fd822021061668e4dccb43e8727b295106dc9769c8b615460565b5490565b905090565b6107156107e4611050565b6107ec610f8d565b6107f4611068565b8585611401565b60006107d46107d060017f812a673dfca07956350df10f8a654925f561d7a0da09bdbe79e653939a14d9f1615460565b61083c610836610f8d565b8261163f565b50565b3330146108915760405162461bcd60e51b815260206004820152601b60248201527a24b731b932b0b9b2903932bb34b9b4b7b7103337b93134b23232b760291b60448201526064015b60405180910390fd5b60006108af6107d06001600080516020615b62833981519152615460565b6108ba906001615473565b90506108dc816108d96001600080516020615b62833981519152615460565b55565b61090b826108d960017fbfaaa2fb63266ff27c2da975f5894955056f50419af651a81f6c5060581857e4615460565b604080518281526001600160a01b03841660208201527ff27e2ef832a4eb8ed8ec553b875eecd44764cda95b1c24170e281539e0a869c891015b60405180910390a15050565b60006001600160a01b03821673d8253782c45a12053594b9deb72d8e8ab2fca54c14806105f357506001600160a01b0382167352ceba41da235af367bfc0b0ccd3314cb901bb5f1492915050565b6109b36109aa610f8d565b85858585611697565b50505050565b6107156109c4610f8d565b83836119df565b73__$ab645b4c934bd909f08d0d9ba5d19f570d$__6303395eef6109ed610f8d565b6040516001600160e01b031960e084901b1681526001600160a01b03918216600482015281871660248201526044810186905290841660648201526084015b60006040518083038186803b158015610a4457600080fd5b505af4158015610a58573d6000803e3d6000fd5b50505050505050565b600073__$ab645b4c934bd909f08d0d9ba5d19f570d$__63987707f9610a85611050565b610a8d610f8d565b610a95611068565b6040516001600160e01b031960e086901b16815292151560048401526001600160a01b03918216602484015281166044830152808816606483015260848201879052851660a482015260c4015b602060405180830381865af4158015610aff573d6000803e3d6000fd5b505050506040513d601f19601f82011682018060405250810190610b239190615486565b949350505050565b60006105f382611a7e565b600080610b4287611a9f565b9050610b59610b4f611124565b8288888888611b1e565b979650505050505050565b60006105f08383611e4b565b60006107d46107d06001600080516020615b62833981519152615460565b60006105f08383611e6e565b60006107d46107d060017fbfaaa2fb63266ff27c2da975f5894955056f50419af651a81f6c5060581857e4615460565b60006107d4611eb1565b73__$ab645b4c934bd909f08d0d9ba5d19f570d$__63dc01b901610bf6610f8d565b6040516001600160e01b031960e084901b1681526001600160a01b0391821660048201529085166024820152604481018490526064015b60006040518083038186803b158015610c4557600080fd5b505af41580156106eb573d6000803e3d6000fd5b600080600080600080606080606060006060610c748c611ecd565b9a509a509a509a509a509a509a509a509a509a509a5091939597999b90929496989a50565b610cac610ca4610f8d565b848484612176565b505050565b60006105f382612364565b6000610cd98888888860ff168860ff168860ff168860ff16612390565b98975050505050505050565b60006105f0610cf2610f8d565b848461252f565b60006107d4612642565b6000610d0d610f8d565b6001600160a01b0316826001600160a01b0316149050919050565b73__$ab645b4c934bd909f08d0d9ba5d19f570d$__63efa20d9b610d4a611050565b610d52610f8d565b610d5a611068565b6040516001600160e01b031960e086901b16815292151560048401526001600160a01b039182166024840152811660448301526001600160401b03871660648301528516608482015260a4810184905260c401610a2c565b600080600073__$ab645b4c934bd909f08d0d9ba5d19f570d$__633e457e4f610dd9610f8d565b6040516001600160e01b031960e084901b1681526001600160a01b039182166004820152908a16602482015260448101899052606481018890526084810187905260a401606060405180830381865af4158015610e3a573d6000803e3d6000fd5b505050506040513d601f19601f82011682018060405250810190610e5e91906154a3565b9250925092509450945094915050565b610e76614497565b6105f382612658565b60606105f0838361290e565b600073__$ab645b4c934bd909f08d0d9ba5d19f570d$__63c77d56a2610eaf610f8d565b6040516001600160e01b031960e084901b1681526001600160a01b0391821660048201528186166024820152908716604482015260648101869052608401610ae2565b6000816001600160a01b0316610f06610f8d565b6001600160a01b0316635aa6e6756040518163ffffffff1660e01b8152600401602060405180830381865afa158015610f43573d6000803e3d6000fd5b505050506040513d601f19601f82011682018060405250810190610f67919061542d565b6001600160a01b03161492915050565b6106eb610f82610f8d565b878787878787612947565b60006107d46107d060017f5165972ef41194f06c5007493031d0b927c20741adcb74403b954009fd2c3618615460565b61083c610fc8611050565b610fd0610f8d565b610fd8611068565b84612d4e565b6000610fe8612d76565b60030160006110006001600160a01b03861685612d80565b815260208101919091526040016000205460ff169392505050565b7ff0c57e16840df040f15088dc2f81fe391c3923bec73e23a9662efc9c229c6a0090565b611047612dd0565b61083c81612df7565b600061105b33610951565b806107d457505032331490565b600061107333610951565b15611085575060131936013560601c90565b503390565b61109385612f0a565b60405163139ed9b560e21b81526001600160a01b0380861660048301526001600160401b038416602483015282151560448301528416606482015273__$1523437c96ee4244b41dcb81ce9bb69efd$__90634e7b66d49060840160006040518083038186803b15801561110557600080fd5b505af4158015611119573d6000803e3d6000fd5b505050505050505050565b7fae5971282b317bbed599861775fe0712755bb3b2f655bfe8fb14280d8429f60090565b61ffff84166000908152600d870160205260408120600281015460ff8082169160081c811690871682118061117f5750808760ff16115b1561119057600093505050506113f7565b50506000816003018054806020026020016040519081016040528092919081815260200182805480156111e257602002820191906000526020600020905b8154815260200190600101908083116111ce575b5050505050905060008260040180548060200260200160405190810160405280929190818152602001828054801561123957602002820191906000526020600020905b815481526020019060010190808311611225575b505085519394506000925050505b818110156113ed576000848281518110611263576112636154d1565b602002602001015190506000801b810361127d57506113e5565b60008060006112b4878681518110611297576112976154d1565b602002602001015190604082901c90608083901c60ff1660011490565b925092509250600081611335578f6001600160a01b0316630a82c861866040518263ffffffff1660e01b81526004016112ef91815260200190565b602060405180830381865afa15801561130c573d6000803e3d6000fd5b505050506040513d601f19601f8201168201806040525081019061133091906154e7565b6113a6565b8f6001600160a01b0316631c2aafe78e8e886040518463ffffffff1660e01b815260040161136593929190615500565b602060405180830381865afa158015611382573d6000803e3d6000fd5b505050506040513d601f19601f820116820180604052508101906113a691906154e7565b9050836001600160401b03168110806113c75750826001600160401b031681115b156113df5760009a50505050505050505050506113f7565b50505050505b600101611247565b5060019450505050505b9695505050505050565b600061140b612d76565b9050600061141886611a9f565b6040805160a0810182526000808252602080830182905282840182905260608301829052608083018290526001600160401b0389168252600e870181528382208054600160401b900461ffff168352600d88019091529290209293509161147e8a612f0a565b611489828986612f28565b50508160020160009054906101000a900463ffffffff16836040019063ffffffff16908163ffffffff168152505073__$1523437c96ee4244b41dcb81ce9bb69efd$__6311942d1783838a8c8b8f8a604001516040518863ffffffff1660e01b81526004016114fe9796959493929190615521565b608060405180830381865af415801561151b573d6000803e3d6000fd5b505050506040513d601f19601f8201168201806040525081019061153f919061557e565b1515602087015263ffffffff1660608601526080850152158015845261157157815460ff60501b1916600160501b1782555b6080830151156115a257608083015160028301805460ff909216600160201b0264ff00000000199092169190911790555b826040015163ffffffff16836060015163ffffffff16146115de57606083015160028301805463ffffffff191663ffffffff9092169190911790555b8260200151156115fe5780546115fe908390610100900460ff1689613050565b82511580156116155750600282015463ffffffff16155b801561162357508260200151155b15611633576116338489896130bb565b50505050505050505050565b6116488261331b565b604051632586866b60e11b81526001600160a01b03831660048201526001600160401b038216602482015273__$1523437c96ee4244b41dcb81ce9bb69efd$__90634b0d0cd690604401610c2d565b336001600160a01b0316856001600160a01b03166389dd9f136040518163ffffffff1660e01b8152600401602060405180830381865afa1580156116df573d6000803e3d6000fd5b505050506040513d601f19601f82011682018060405250810190611703919061542d565b6001600160a01b03161461172a57604051631e66e98d60e01b815260040160405180910390fd5b6000611734612d76565b9050600061174c6001600160a01b03861685856133a7565b600081815260018401602052604090205490915060ff1661178557600081815260018381016020526040909120805460ff191690911790555b600061179a6001600160a01b03871686612d80565b600081815260038501602052604090205490915060ff808616911610156117d95760008181526003840160205260409020805460ff191660ff86161790555b60006117e4856133dc565b9050886001600160a01b0316628e96916040518163ffffffff1660e01b8152600401602060405180830381865afa158015611823573d6000803e3d6000fd5b505050506040513d601f19601f82011682018060405250810190611847919061542d565b60405163184f614360e01b81526001600160a01b038981166004830152602482018990526044820184905260016064830152919091169063184f614390608401600060405180830381600087803b1580156118a157600080fd5b505af11580156118b5573d6000803e3d6000fd5b50505050886001600160a01b031663016dff5d6040518163ffffffff1660e01b8152600401602060405180830381865afa1580156118f7573d6000803e3d6000fd5b505050506040513d601f19601f8201168201806040525081019061191b919061542d565b6001600160a01b0316638659698888888b6040518463ffffffff1660e01b815260040161194a939291906155c8565b600060405180830381600087803b15801561196457600080fd5b505af1158015611978573d6000803e3d6000fd5b50506040805163ffffffff8c16815260ff891660208201526001600160a01b038b1681830152606081018a905290517f9361a6479d59e73126a39557fc9cbc0a4bb9842f0f6979b0d1db2aefa27933c09350908190036080019150a1505050505050505050565b6119e88361331b565b6005811015611a0d57604051634bebee7f60e01b815260048101829052602401610888565b80611a16612d76565b600a016000846001600160a01b03166001600160a01b03168152602001908152602001600020819055507f996f9d801b1a05cd3c7b555e5b6f61db994ea8ef57125b5b5d3b07b9dad4e2cf8282604051611a719291906155ef565b60405180910390a1505050565b60006105f3611a8b612d76565b600084815260209190915260409020613412565b604080516101c081018252600060208201819052918101829052606081018290526080810182905260a0810182905260c0810182905260e08101829052610100810182905261012081018290526101408101829052610160810182905261018081018290526101a08101919091526001600160a01b0391909116815290565b60008460ff16600003611b445760405163a8473eab60e01b815260040160405180910390fd5b600080611b508861341c565b604051631ebd249360e01b81529091506001600160a01b03821690631ebd249390611b8190899089906004016155ef565b602060405180830381865afa158015611b9e573d6000803e3d6000fd5b505050506040513d601f19601f82011682018060405250810190611bc29190615608565b91506000896005016000611c5960058b611bdc919061563b565b611be790600161565d565b604051631789b7b160e01b81526001600160a01b03871690631789b7b190611c13908e90600401614b10565b602060405180830381865afa158015611c30573d6000803e3d6000fd5b505050506040513d601f19601f82011682018060405250810190611c549190615608565b6134b1565b8152602081019190915260400160009081205461ffff169150819003611cb957896005016000611ca160058b611c8f919061563b565b611c9a90600161565d565b60006134b1565b815260208101919091526040016000205461ffff1690505b8061ffff16600003611cee57896005016000611cd66000806134b1565b815260208101919091526040016000205461ffff1690505b61ffff811615611d74576001600160a01b03871660a087901b67ffffffffffffffff60a01b161760f082901b6001600160f01b03191617600090815260028b01602052604090205460ff16158015611d65575061ffff81166000908152600d8b01602052604090205460ff84811661010090920416145b15611d745792506113f7915050565b505060ff81166000908152600889016020526040812090611d9482613412565b905080600003611dbb576040516283533360e01b815260ff84166004820152602401610888565b6000611dc68a6134c6565b9050600080611dd58489615676565b905060005b84811015611e3157611dec8683613557565b9250611dfc8e85858f8f8f611148565b15611e1057829750505050505050506113f7565b81611e1a8161568a565b925050848210611e2957600091505b600101611dda565b5060405163b940612960e01b815260040160405180910390fd5b60006105f083611e59612d76565b60008581526020919091526040902090613557565b6000611e78612d76565b6004016000611e906001600160a01b03861685612d80565b81526020810191909152604001600020546001600160401b03169392505050565b6000611ebb612d76565b600c01546001600160401b0316919050565b6000806000806000806060806060600060606000611ee9612d76565b600e0160008e6001600160401b03166001600160401b0316815260200190815260200160002090508060000160089054906101000a900461ffff169b5080600001600a9054906101000a900460ff169a5080600001600b9054906101000a90046001600160a01b03169950806001015498508060020160009054906101000a900463ffffffff1697508060020160049054906101000a900460ff16965080600601805480602002602001604051908101604052809291908181526020018280548015611fd457602002820191906000526020600020905b815481526020019060010190808311611fc0575b505050600784015460088501805460408051602080840282018101909252828152969a5060ff9093169850909350915083018282801561205f57602002820191906000526020600020906000905b82829054906101000a900463ffffffff1663ffffffff16815260200190600401906020826003010492830192600103820291508084116120225790505b50505050509150600061207482600301613563565b9050806001600160401b0381111561208e5761208e6146b5565b6040519080825280602002602001820160405280156120b7578160200160208202803683370190505b509650806001600160401b038111156120d2576120d26146b5565b6040519080825280602002602001820160405280156120fb578160200160208202803683370190505b50955060005b8181101561216457612116600384018261356e565b898381518110612128576121286154d1565b60200260200101898481518110612141576121416154d1565b60209081029190910101919091526001600160a01b039091169052600101612101565b50505091939597999b90929496989a50565b61217f8461331b565b6000612189612d76565b61ffff85166000908152600d820160205260408120805461ffff198116825592935061010090920460ff1691906121c360018301826144f7565b60028201600090556003820160006121db919061451c565b6121e960048301600061451c565b6005820160006121f9828261451c565b61220760018301600061453a565b50505060ff82166000908152600884016020526040902061222d915061ffff871661358a565b1561228d5760ff8116600090815260088301602052604090206122549061ffff87166135a2565b5060405161ffff861681527f6ee9dd6501e6ec9a0a3e60e773ac5fd9d48414213bc6a16588c88bda44f492899060200160405180910390a15b61229e6006830161ffff871661358a565b156106eb5760006122af85856134b1565b600081815260058501602052604090205490915061ffff8781169116146122e95760405163066a129160e31b815260040160405180910390fd5b60008181526005840160205260409020805461ffff191690556123136006840161ffff88166135a2565b506040805161ffff8816815260ff878116602083015286168183015290517f9c5c01904f703f1392e848da84f3f506975241d8d8d0f67550729c5f5080c94e9181900360600190a150505050505050565b600061236e612d76565b6001600160a01b039092166000908152600a9290920160205250604090205490565b60008684108061239f57508282105b156123ac57506000610b59565b60006123b6611124565b6001600160a01b038a166000908152600a919091016020526040902054905080158015906123e357508086105b156123f2576000915050610b59565b606386111561241757604051633505ce1b60e11b815260048101879052602401610888565b601385111561243c57604051637d34ca9360e01b815260048101869052602401610888565b60006124496005876156a3565b9050675c33b801024d7e4a60006064612488612466856063615460565b612471906001615473565b61248390670de0b6b3a76400006156a3565b6135ae565b6124929084615460565b61249c91906156ba565b9050670de0b6b3a764000081106124c957604051630dd7f01960e01b815260048101829052602401610888565b6000670de0b6b3a76400006124de838d6156a3565b6124e891906156ba565b90508984101561251f576124fc848b615460565b61250790600a615473565b6125129060026157b2565b61251c90826156ba565b90505b9c9b505050505050505050505050565b600080846001600160a01b031663016dff5d6040518163ffffffff1660e01b8152600401602060405180830381865afa158015612570573d6000803e3d6000fd5b505050506040513d601f19601f82011682018060405250810190612594919061542d565b6001600160a01b0316631ebd249385856040518363ffffffff1660e01b81526004016125c19291906155ef565b602060405180830381865afa1580156125de573d6000803e3d6000fd5b505050506040513d601f19601f820116820180604052508101906126029190615608565b905061260c612d76565b60010160006126256001600160a01b03871686856133a7565b815260208101919091526040016000205460ff1695945050505050565b600061264c612d76565b6009015460ff16919050565b612660614497565b612668612d76565b61ffff83166000908152600d919091016020908152604091829020825160e081018452815460ff808216835261010090910416818401526001820180548551818602810186018752818152929593949386019383018282801561271657602002820191906000526020600020906000905b82829054906101000a900463ffffffff1663ffffffff16815260200190600401906020826003010492830192600103820291508084116126d95790505b50505050508152602001600282015481526020016003820180548060200260200160405190810160405280929190818152602001828054801561277857602002820191906000526020600020905b815481526020019060010190808311612764575b50505050508152602001600482018054806020026020016040519081016040528092919081815260200182805480156127d057602002820191906000526020600020905b8154815260200190600101908083116127bc575b50505050508152602001600582016040518060400160405290816000820180548060200260200160405190810160405280929190818152602001828054801561283857602002820191906000526020600020905b815481526020019060010190808311612824575b5050505050815260200160018201805480602002602001604051908101604052809291908181526020016000905b828210156128fe576000848152602090819020830180546040805182850281018501909152818152928301828280156128ea57602002820191906000526020600020906000905b82829054906101000a900463ffffffff1663ffffffff16815260200190600401906020826003010492830192600103820291508084116128ad5790505b505050505081526020019060010190612866565b5050509152505090525092915050565b60606105f061291b612d76565b600b0160006129336001600160a01b03871686612d80565b81526020019081526020016000205461368f565b6129508761331b565b600061295a612d76565b602086015151865151919250908114158061297a57508560400151518114155b156129985760405163c81acf3360e01b815260040160405180910390fd5b60005b81811015612a055786518051829081106129b7576129b76154d1565b602002602001015151876020015182815181106129d6576129d66154d1565b602002602001015151146129fd5760405163f001029b60e01b815260040160405180910390fd5b60010161299b565b5061ffff88166000908152600d830160205260409020600983015460ff9081169089161115612a405760098301805460ff191660ff8a161790555b805460ff8981166101000261ffff199092169084161717815560408701518051612a74916001840191602090910190614558565b50612a87876060015188608001516134b1565b600282015560a08701518051612aa7916003840191602090910190614607565b506004810160005b8860c0015151811015612b3b5781612b208a60c001518381518110612ad657612ad66154d1565b60200260200101518b60e001518481518110612af457612af46154d1565b60200260200101518c61010001518581518110612b1357612b136154d1565b6020026020010151613707565b81546001818101845560009384526020909320015501612aaf565b5060005b83811015612bdc57885180516005850191612b719184908110612b6457612b646154d1565b6020026020010151613742565b815460018101835560009283526020928390200155890151805160068501919083908110612ba157612ba16154d1565b60209081029190910181015182546001810184556000938452928290208151612bd39491909101929190910190614558565b50600101612b3f565b508415612cde576000612bef88886134b1565b600081815260058701602052604090205490915061ffff1615612c2b576040516366e6550f60e01b815261ffff8c166004820152602401610888565b60008181526005860160205260409020805461ffff191661ffff8d16908117909155612c5b90600687019061358a565b15612c7f5760405163ce9c78df60e01b815261ffff8c166004820152602401610888565b612c906006860161ffff8d166137c1565b506040805161ffff8d16815260ff8a8116602083015289168183015290517fc27376e37bec2cd9acd6957a46ca5cba20a88a21fd0eff1b02cf8536462304769181900360600190a150612d08565b8154610100900460ff1660009081526008850160205260409020612d069061ffff8c166137c1565b505b7fa8932b9bd78638467b3e5c0f0ffa9c72761db9f7f605b8df2f7a899770d064ae8a89604051612d39929190615878565b60405180910390a15050505050505050505050565b612d5784612f0a565b6000612d6284611a9f565b9050612d6f8184846130bb565b5050505050565b60006107d4611124565b60006001600160401b03821115612dad57604051633995b34160e01b815260048101839052602401610888565b5067ffffffffffffffff60a01b60a09190911b166001600160a01b039091161790565b612dd86137cd565b612df557604051631afcd79f60e31b815260040160405180910390fd5b565b6001600160a01b038116612e3f5760405162461bcd60e51b815260206004820152600f60248201526e2d32b9379031b7b73a3937b63632b960891b6044820152606401610888565b612e6e816108d960017f5165972ef41194f06c5007493031d0b927c20741adcb74403b954009fd2c3618615460565b612e9d426108d960017f6f55f470bdc9cb5f04223fd822021061668e4dccb43e8727b295106dc9769c8b615460565b612ecc436108d960017f812a673dfca07956350df10f8a654925f561d7a0da09bdbe79e653939a14d9f1615460565b7f1a2dd071001ebf6e03174e3df5b305795a4ad5d41d8fdb9ba41dbbe236713426814243604051612eff93929190615500565b60405180910390a150565b8061083c57604051636221cab960e01b815260040160405180910390fd5b82546001840154600160581b82046001600160a01b031691600160501b900460ff1615612f6857604051636927c40b60e11b815260040160405180910390fd5b612f74828286866137e7565b612f7d836134c6565b6001600160a01b031663f16a306683836040518363ffffffff1660e01b8152600401612faa9291906155ef565b602060405180830381865afa158015612fc7573d6000803e3d6000fd5b505050506040513d601f19601f82011682018060405250810190612feb9190615977565b61300c57818160405163033aace360e41b81526004016108889291906155ef565b84546001600160401b03166130218383611e6e565b6001600160401b031614613048576040516337bcc65160e01b815260040160405180910390fd5b935093915050565b8254600160581b600160f81b03191683556000600184015560028301805464ffffffffff19169055613082828261399e565b6040516001600160401b03821681527f883aa0807cbcd64d238a9795b0433f37884de37e569aff04d512cb1df62c6e0190602001611a71565b60006130c5612d76565b6001600160401b0383166000908152600e8201602090815260408083208054600160401b900461ffff168452600d85018352818420825160a08101845285815293840185905291830184905260608301849052608083019390935292935090919061312f87613a2a565b6001600160a01b03166040820152600283015463ffffffff16156131665760405163282404cd60e01b815260040160405180910390fd5b613171838789612f28565b602083018190526001600160a01b03909116808352600285015460ff600160201b909104166060840181905260408401516131ba938693889392916131b58e6134c6565b613abc565b63ffffffff16608082018190526000036131e757604051638a874ec160e01b815260040160405180910390fd5b608081015160028401805463ffffffff191663ffffffff831617905560408083015183516020850151925163f2c6c6fb60e01b81526000946001600160a01b039093169363f2c6c6fb9361323e93926004016155c8565b6020604051808303816000875af115801561325d573d6000803e3d6000fd5b505050506040513d601f19601f8201168201806040525081019061328191906154e7565b90507f7a40f4421a71ae931ce048b2171197c34a78510813f1d3f4202935dd9f105b1a86836000015184602001518560800151858760600151604051613309969594939291906001600160401b039690961686526001600160a01b03949094166020860152604085019290925263ffffffff166060840152608083015260a082015260c00190565b60405180910390a15050505050505050565b604051631430d62960e21b81526001600160a01b038216906350c358a490613347903390600401614b10565b602060405180830381865afa158015613364573d6000803e3d6000fd5b505050506040513d601f19601f820116820180604052508101906133889190615977565b61083c573360405163451cea1760e11b81526004016108889190614b10565b60609290921b6001600160601b03191660209190911b6bffffffffffffffff00000000161760189190911b63ff000000161790565b60006133ea8260ff16613ec3565b6040516020016133fa9190615994565b6040516020818303038152906040526105f3906159cb565b60006105f3825490565b6101208101516000906001600160a01b03166134a85781600001516001600160a01b031663016dff5d6040518163ffffffff1660e01b8152600401602060405180830381865afa158015613474573d6000803e3d6000fd5b505050506040513d601f19601f82011682018060405250810190613498919061542d565b6001600160a01b03166101208301525b50610120015190565b600060ff8316600883901b61ff0016176105f0565b60208101516000906001600160a01b031661354f5781600001516001600160a01b0316628e96916040518163ffffffff1660e01b8152600401602060405180830381865afa15801561351c573d6000803e3d6000fd5b505050506040513d601f19601f82011682018060405250810190613540919061542d565b6001600160a01b031660208301525b506020015190565b60006105f08383613fc3565b60006105f382613fed565b600080808061357d8686613ff8565b9097909650945050505050565b600081815260018301602052604081205415156105f0565b60006105f08383614023565b6000670de0b6b3a76400008210156135dc57604051637046c4a960e01b815260048101839052602401610888565b60006135f86135f3670de0b6b3a7640000856156ba565b614116565b9050600061360e82670de0b6b3a76400006156a3565b905083821c670de0b6b3a764000081900361362b57509392505050565b6706f05b59d3b200005b801561368557670de0b6b3a764000061364e83806156a3565b61365891906156ba565b9150671bc16d674ec80000821061367d576136738184615473565b9250600182901c91505b60011c613635565b5090949350505050565b6040805160208082526104208201909252606091600091908082016104008036833701905050905060005b6020811015613700576136ce8160086156a3565b8460001c901c8282815181106136e6576136e66154d1565b60ff909216602092830291909101909101526001016136ba565b5092915050565b67ffffffffffffffff60401b604083901b166001600160401b03841617608082613732576000613735565b60015b60ff16901b179392505050565b8051600090602081111561377357604051633d71388b60e21b81526004810182905260206024820152604401610888565b6000805b828110156137b95761378a8160086156a3565b85828151811061379c5761379c6154d1565b602090810291909101015160ff16901b9190911790600101613777565b509392505050565b60006105f083836141f9565b60006137d761101b565b54600160401b900460ff16919050565b6040516331a9108f60e11b8152600481018490526001600160a01b038084169190861690636352211e90602401602060405180830381865afa158015613831573d6000803e3d6000fd5b505050506040513d601f19601f82011682018060405250810190613855919061542d565b6001600160a01b03161461388057838360405163547208b960e11b81526004016108889291906155ef565b6138898161341c565b6001600160a01b0316631789b7b1856040518263ffffffff1660e01b81526004016138b49190614b10565b602060405180830381865afa1580156138d1573d6000803e3d6000fd5b505050506040513d601f19601f820116820180604052508101906138f59190615608565b60ff1660000361391a578360405163adc7fced60e01b81526004016108889190614b10565b80600001516001600160a01b03166318d928316040518163ffffffff1660e01b8152600401602060405180830381865afa15801561395c573d6000803e3d6000fd5b505050506040513d601f19601f820116820180604052508101906139809190615977565b156109b357604051635e1633d360e11b815260040160405180910390fd5b6139cc816001600160401b03166139b3612d76565b60ff8516600090815260209190915260409020906137c1565b6139e9576040516313e5d5f160e11b815260040160405180910390fd5b6040805160ff841681526001600160401b03831660208201527f3e9a7af2aeebce9d24ef707bdb61adf2708293e374a19f8e9c31f905c68b43c19101610945565b60c08101516000906001600160a01b0316613ab45781600001516001600160a01b03166389dd9f136040518163ffffffff1660e01b8152600401602060405180830381865afa158015613a81573d6000803e3d6000fd5b505050506040513d601f19601f82011682018060405250810190613aa5919061542d565b6001600160a01b031660c08301525b5060c0015190565b600786015460009060ff168610613ae9576040516315f7ec4560e21b815260048101879052602401610888565b866008018681548110613afe57613afe6154d1565b60009182526020822060088204015460079091166004026101000a900463ffffffff169150819003610b5957604051631a95890960e31b81526000906001600160a01b0384169063d4ac484890613b5b90889088906004016155ef565b60a060405180830381865afa158015613b78573d6000803e3d6000fd5b505050506040513d601f19601f82011682018060405250810190613b9c91906159f2565b602081015181518b54929350613bc69263ffffffff9283169290911690610100900460ff16614248565b15801590613c175750613bd7612d76565b895460019190910190600090613c01906001600160a01b038916908890610100900460ff166133a7565b815260208101919091526040016000205460ff16155b8015613c4457508854613c3390610100900460ff166005615a89565b60ff16816000015163ffffffff1610155b15613cc2578854610100900460ff16600103613c665762138884915050610b59565b8854610100900460ff16600203613c83576222f238915050610b59565b8854610100900460ff16600303613ca057623234dc915050610b59565b8854610100900460ff16600403613cbd5762417780915050610b59565b613eb7565b6040805160058b01805460606020820284018101855293830181815260009484928491840182828015613d1457602002820191906000526020600020905b815481526020019060010190808311613d00575b5050505050815260200160018201805480602002602001604051908101604052809291908181526020016000905b82821015613dda57600084815260209081902083018054604080518285028101850190915281815292830182828015613dc657602002820191906000526020600020906000905b82829054906101000a900463ffffffff1663ffffffff1681526020019060040190602082600301049283019260010382029150808411613d895790505b505050505081526020019060010190613d42565b50505050815250509050866001600160a01b0316636f383c0f613e1983600001518b81518110613e0c57613e0c6154d1565b602002602001015161429e565b83602001518b81518110613e2f57613e2f6154d1565b60200260200101518d60000160019054906101000a900460ff168a8a6040518663ffffffff1660e01b8152600401613e6b959493929190615aa5565b6020604051808303816000875af1158015613e8a573d6000803e3d6000fd5b505050506040513d601f19601f82011682018060405250810190613eae9190615af4565b92505050610b59565b50979650505050505050565b606081600003613eea5750506040805180820190915260018152600360fc1b602082015290565b8160005b8115613f145780613efe8161568a565b9150613f0d9050600a836156ba565b9150613eee565b6000816001600160401b03811115613f2e57613f2e6146b5565b6040519080825280601f01601f191660200182016040528015613f58576020820181803683370190505b5090505b8415610b2357613f6d600183615460565b9150613f7a600a86615676565b613f85906030615473565b60f81b818381518110613f9a57613f9a6154d1565b60200101906001600160f81b031916908160001a905350613fbc600a866156ba565b9450613f5c565b6000826000018281548110613fda57613fda6154d1565b9060005260206000200154905092915050565b60006105f382613412565b600080806140068585613557565b600081815260029690960160205260409095205494959350505050565b6000818152600183016020526040812054801561410c576000614047600183615460565b855490915060009061405b90600190615460565b90508082146140c057600086600001828154811061407b5761407b6154d1565b906000526020600020015490508087600001848154811061409e5761409e6154d1565b6000918252602080832090910192909255918252600188019052604090208390555b85548690806140d1576140d1615b11565b6001900381819060005260206000200160009055905585600101600086815260200190815260200160002060009055600193505050506105f3565b60009150506105f3565b6000600160801b821061413657608091821c916141339082615473565b90505b600160401b821061415457604091821c916141519082615473565b90505b600160201b821061417257602091821c9161416f9082615473565b90505b62010000821061418f57601091821c9161418c9082615473565b90505b61010082106141ab57600891821c916141a89082615473565b90505b601082106141c657600491821c916141c39082615473565b90505b600482106141e157600291821c916141de9082615473565b90505b600282106141f4576105f3600182615473565b919050565b6000818152600183016020526040812054614240575081546001818101845560008481526020808220909301849055845484825282860190935260409020919091556105f3565b5060006105f3565b600080600561425986866001614392565b61426391906156ba565b61426e906001615473565b905082811161427e576000610797565b6142888382615460565b61429390600a615473565b6107979060026157b2565b606060006142ab8361368f565b90506000805b82518110156142f4578281815181106142cc576142cc6154d1565b602002602001015160ff16600003156142f457816142e98161568a565b9250506001016142b1565b50806001600160401b0381111561430d5761430d6146b5565b604051908082528060200260200182016040528015614336578160200160208202803683370190505b50925060005b8181101561438a57828181518110614356576143566154d1565b6020026020010151848281518110614370576143706154d1565b60ff9092166020928302919091019091015260010161433c565b505050919050565b60008061439f85856143c8565b90508280156143b8575060026143b6826001615473565b115b15610b2357610797600282615460565b805b60638110156105f3576143de836001615473565b6143e7826143fb565b63ffffffff1610156105f3576001016143ca565b600063ffffffff821615806144175750606363ffffffff831610155b1561442457506000919050565b670de0b6b3a764000061445e61443b846063615b27565b614446906002615b44565b6124839063ffffffff16670de0b6b3a76400006156a3565b61447090675cfb2e807b1e0000615460565b614483620186a063ffffffff86166156a3565b61448d91906156a3565b6105f391906156ba565b6040518060e00160405280600060ff168152602001600060ff168152602001606081526020016000801916815260200160608152602001606081526020016144f2604051806040016040528060608152602001606081525090565b905290565b50805460008255600701600890049060005260206000209081019061083c9190614642565b508054600082559060005260206000209081019061083c9190614642565b508054600082559060005260206000209081019061083c9190614657565b828054828255906000526020600020906007016008900481019282156145f75791602002820160005b838211156145c557835183826101000a81548163ffffffff021916908363ffffffff1602179055509260200192600401602081600301049283019260010302614581565b80156145f55782816101000a81549063ffffffff02191690556004016020816003010492830192600103026145c5565b505b50614603929150614642565b5090565b8280548282559060005260206000209081019282156145f7579160200282015b828111156145f7578251825591602001919060010190614627565b5b808211156146035760008155600101614643565b8082111561460357600061466b82826144f7565b50600101614657565b6001600160a01b038116811461083c57600080fd5b6000806040838503121561469c57600080fd5b82356146a781614674565b946020939093013593505050565b634e487b7160e01b600052604160045260246000fd5b60405161012081016001600160401b03811182821017156146ee576146ee6146b5565b60405290565b604051601f8201601f191681016001600160401b038111828210171561471c5761471c6146b5565b604052919050565b600082601f83011261473557600080fd5b81356001600160401b0381111561474e5761474e6146b5565b614761601f8201601f19166020016146f4565b81815284602083860101111561477657600080fd5b816020850160208301376000918101602001919091529392505050565b600080600080608085870312156147a957600080fd5b84356147b481614674565b935060208501356147c481614674565b92506040850135915060608501356001600160401b038111156147e657600080fd5b6147f287828801614724565b91505092959194509250565b60006020828403121561481057600080fd5b813561481b81614674565b9392505050565b6001600160401b038116811461083c57600080fd5b801515811461083c57600080fd5b80356141f481614837565b6000806040838503121561486357600080fd5b823561486e81614822565b9150602083013561487e81614837565b809150509250929050565b803561ffff811681146141f457600080fd5b60ff8116811461083c57600080fd5b80356141f48161489b565b600080600080608085870312156148cb57600080fd5b6148d485614889565b935060208501356148e48161489b565b925060408501356148f481614674565b9396929550929360600135925050565b6000806040838503121561491757600080fd5b823561492281614822565b915060208301356001600160401b0381111561493d57600080fd5b61494985828601614724565b9150509250929050565b60006020828403121561496557600080fd5b813561481b81614822565b63ffffffff8116811461083c57600080fd5b6000806000806080858703121561499857600080fd5b84356149a381614970565b935060208501356149b381614674565b92506040850135915060608501356149ca8161489b565b939692955090935050565b6000806000606084860312156149ea57600080fd5b83356149f581614674565b9250602084013591506040840135614a0c81614674565b809150509250925092565b600060208284031215614a2957600080fd5b5035919050565b600080600080600060a08688031215614a4857600080fd5b8535614a5381614674565b94506020860135614a638161489b565b93506040860135614a7381614674565b94979396509394606081013594506080013592915050565b60008060408385031215614a9e57600080fd5b50508035926020909101359150565b60005b83811015614ac8578181015183820152602001614ab0565b50506000910152565b60008151808452614ae9816020860160208601614aad565b601f01601f19169290920160200192915050565b6020815260006105f06020830184614ad1565b6001600160a01b0391909116815260200190565b60008151808452602080850194506020840160005b83811015614b5e5781516001600160a01b031687529582019590820190600101614b39565b509495945050505050565b60008151808452602080850194506020840160005b83811015614b5e57815187529582019590820190600101614b7e565b60008151808452602080850194506020840160005b83811015614b5e57815163ffffffff1687529582019590820190600101614baf565b61ffff8c1681528a151560208201526001600160a01b038a1660408201526060810189905263ffffffff88166080820152600061016060ff891660a08401528060c0840152614c2281840189614b24565b905082810360e0840152614c368188614b69565b9050828103610100840152614c4b8187614b69565b60ff86166101208501529050828103610140840152614c6a8185614b9a565b9e9d5050505050505050505050505050565b600080600060608486031215614c9157600080fd5b614c9a84614889565b92506020840135614caa8161489b565b91506040840135614a0c8161489b565b600080600080600080600060e0888a031215614cd557600080fd5b8735614ce081614674565b965060208801359550604088013594506060880135614cfe8161489b565b93506080880135614d0e8161489b565b925060a0880135614d1e8161489b565b915060c0880135614d2e8161489b565b8091505092959891949750929550565b600080600060608486031215614d5357600080fd5b8335614d5e81614822565b92506020840135614d6e81614674565b929592945050506040919091013590565b60008060008060808587031215614d9557600080fd5b8435614da081614674565b966020860135965060408601359560600135945092505050565b600060208284031215614dcc57600080fd5b6105f082614889565b60008282518085526020808601955060208260051b8401016020860160005b84811015614e2257601f19868403018952614e10838351614b9a565b98840198925090830190600101614df4565b5090979650505050505050565b6000815160408452614e446040850182614b69565b9050602083015184820360208601526107978282614dd5565b6020815260ff825116602082015260006020830151614e81604084018260ff169052565b50604083015160e06060840152614e9c610100840182614b9a565b9050606084015160808401526080840151601f19808584030160a0860152614ec48383614b69565b925060a08601519150808584030160c0860152614ee18383614b69565b925060c08601519150808584030160e0860152506107978282614e2f565b60008151808452602080850194506020840160005b83811015614b5e57815160ff1687529582019590820190600101614f14565b6020815260006105f06020830184614eff565b60006001600160401b03821115614f5f57614f5f6146b5565b5060051b60200190565b600082601f830112614f7a57600080fd5b81356020614f8f614f8a83614f46565b6146f4565b828152600592831b8501820192828201919087851115614fae57600080fd5b8387015b85811015614e225780356001600160401b03811115614fd15760008081fd5b8801603f81018a13614fe35760008081fd5b858101356040614ff5614f8a83614f46565b82815291851b8301810191888101908d8411156150125760008081fd5b938201935b8385101561503c578435925061502c8361489b565b8282529389019390890190615017565b885250505093850193508401614fb2565b600082601f83011261505e57600080fd5b8135602061506e614f8a83614f46565b8083825260208201915060208460051b87010193508684111561509057600080fd5b602086015b848110156150b55780356150a881614970565b8352918301918301615095565b509695505050505050565b600082601f8301126150d157600080fd5b813560206150e1614f8a83614f46565b82815260059290921b8401810191818101908684111561510057600080fd5b8286015b848110156150b55780356001600160401b038111156151235760008081fd5b6151318986838b010161504d565b845250918301918301615104565b600082601f83011261515057600080fd5b81356020615160614f8a83614f46565b8083825260208201915060208460051b87010193508684111561518257600080fd5b602086015b848110156150b55780358352918301918301615187565b600082601f8301126151af57600080fd5b813560206151bf614f8a83614f46565b8083825260208201915060208460051b8701019350868411156151e157600080fd5b602086015b848110156150b55780356151f981614822565b83529183019183016151e6565b600082601f83011261521757600080fd5b81356020615227614f8a83614f46565b8083825260208201915060208460051b87010193508684111561524957600080fd5b602086015b848110156150b557803561526181614837565b835291830191830161524e565b60008060008060008060c0878903121561528757600080fd5b61529087614889565b955060208701356152a08161489b565b945060408701356001600160401b03808211156152bc57600080fd5b90880190610120828b0312156152d157600080fd5b6152d96146cb565b8235828111156152e857600080fd5b6152f48c828601614f69565b82525060208301358281111561530957600080fd5b6153158c8286016150c0565b60208301525060408301358281111561532d57600080fd5b6153398c82860161504d565b60408301525061534b606084016148aa565b606082015261535c608084016148aa565b608082015260a08301358281111561537357600080fd5b61537f8c82860161513f565b60a08301525060c08301358281111561539757600080fd5b6153a38c82860161519e565b60c08301525060e0830135828111156153bb57600080fd5b6153c78c82860161519e565b60e08301525061010080840135838111156153e157600080fd5b6153ed8d828701615206565b828401525050809650505050615405606088016148aa565b9250615413608088016148aa565b915061542160a08801614845565b90509295509295509295565b60006020828403121561543f57600080fd5b815161481b81614674565b634e487b7160e01b600052601160045260246000fd5b818103818111156105f3576105f361544a565b808201808211156105f3576105f361544a565b60006020828403121561549857600080fd5b815161481b81614822565b6000806000606084860312156154b857600080fd5b8351925060208401519150604084015190509250925092565b634e487b7160e01b600052603260045260246000fd5b6000602082840312156154f957600080fd5b5051919050565b6001600160a01b039390931683526020830191909152604082015260600190565b8781528660208201526001600160401b0386166040820152600060018060a01b03808716606084015260e0608084015261555e60e0840187614ad1565b941660a08301525063ffffffff9190911660c09091015295945050505050565b6000806000806080858703121561559457600080fd5b845161559f81614837565b6020860151604087015191955093506155b781614970565b60608601519092506149ca81614837565b6001600160a01b03939093168352602083019190915263ffffffff16604082015260600190565b6001600160a01b03929092168252602082015260400190565b60006020828403121561561a57600080fd5b815161481b8161489b565b634e487b7160e01b600052601260045260246000fd5b600060ff83168061564e5761564e615625565b8060ff84160491505092915050565b60ff81811683821601908111156105f3576105f361544a565b60008261568557615685615625565b500690565b60006001820161569c5761569c61544a565b5060010190565b80820281158282048414176105f3576105f361544a565b6000826156c9576156c9615625565b500490565b600181815b808511156157095781600019048211156156ef576156ef61544a565b808516156156fc57918102915b93841c93908002906156d3565b509250929050565b600082615720575060016105f3565b8161572d575060006105f3565b8160018114615743576002811461574d57615769565b60019150506105f3565b60ff84111561575e5761575e61544a565b50506001821b6105f3565b5060208310610133831016604e8410600b841016171561578c575081810a6105f3565b61579683836156ce565b80600019048211156157aa576157aa61544a565b029392505050565b60006105f08383615711565b60008282518085526020808601955060208260051b8401016020860160005b84811015614e2257601f198684030189526157f9838351614eff565b988401989250908301906001016157dd565b60008151808452602080850194506020840160005b83811015614b5e5781516001600160401b031687529582019590820190600101615820565b60008151808452602080850194506020840160005b83811015614b5e57815115158752958201959082019060010161585a565b61ffff8316815260406020820152600082516101208060408501526158a16101608501836157be565b91506020850151603f19808685030160608701526158bf8483614dd5565b935060408701519150808685030160808701526158dc8483614b9a565b9350606087015191506158f460a087018360ff169052565b608087015160ff1660c087015260a0870151868503820160e0880152915061591c8483614b69565b935060c0870151915061010081878603018188015261593b858461580b565b945060e08801519250818786030184880152615957858461580b565b945080880151935050808685030161014087015250506113f78282615845565b60006020828403121561598957600080fd5b815161481b81614837565b6e424f53535f434f4d504c455445445f60881b8152600082516159be81600f850160208701614aad565b91909101600f0192915050565b805160208083015191908110156159ec576000198160200360031b1b821691505b50919050565b600060a08284031215615a0457600080fd5b60405160a081018181106001600160401b0382111715615a2657615a266146b5565b6040528251615a3481614970565b81526020830151615a4481614970565b60208201526040830151615a5781614970565b60408201526060830151615a6a81614970565b60608201526080830151615a7d81614970565b60808201529392505050565b60ff81811683821602908116908181146137005761370061544a565b60a081526000615ab860a0830188614eff565b8281036020840152615aca8188614b9a565b60ff96909616604084015250506001600160a01b0392909216606083015260809091015292915050565b600060208284031215615b0657600080fd5b815161481b81614970565b634e487b7160e01b600052603160045260246000fd5b63ffffffff8281168282160390808211156137005761370061544a565b63ffffffff8181168382160190808211156137005761370061544a56fe22573091f17911fb166032a3d9e0554aa73d31b7b7ddea4a4dd2995650af84bda26469706673582212203b4bf80641a0a2844529747c50e5878a7cae0306cbe84c5ee99b11ec6d9492a364736f6c63430008170033",
  "libraries": {
    "DungeonLib": "0xCA88738B4048aEB81f97d2cEBCAC1F59cF868D40",
    "DungeonFactoryLib": "0xF4F4014F036bfd119fc7FF945487afE3c07d354e"
  },
  "devdoc": {
    "errors": {
      "InvalidInitialization()": [
        {
          "details": "The contract is already initialized."
        }
      ],
      "NotInitializing()": [
        {
          "details": "The contract is not initializing."
        }
      ]
    },
    "events": {
      "Initialized(uint64)": {
        "details": "Triggered when the contract has been initialized or reinitialized."
      }
    },
    "kind": "dev",
    "methods": {
      "created()": {
        "returns": {
          "_0": "Creation timestamp"
        }
      },
      "createdBlock()": {
        "returns": {
          "_0": "Creation block number"
        }
      },
      "emergencyExit(uint64)": {
        "details": "Governance can drop hero from dungeon in emergency case"
      },
      "exitForcibly(address,uint256,address)": {
        "details": "Implement logic of special consumable that allows a hero to exit current dungeon using the shelter"
      },
      "increaseRevision(address)": {
        "details": "Revision should be increased on each contract upgrade"
      },
      "isBiomeBoss(address,uint256)": {
        "details": "Easily get info should given hero fight with boss in the current biome or not."
      },
      "isController(address)": {
        "details": "Return true if given address is controller"
      },
      "onERC721Received(address,address,uint256,bytes)": {
        "details": "See {IERC721Receiver-onERC721Received}. Always returns `IERC721Receiver.onERC721Received.selector`."
      },
      "previousImplementation()": {
        "details": "Previous logic implementation"
      },
      "registerDungeonLogic(uint16,uint8,(uint8[][],uint32[][],uint32[],uint8,uint8,bytes32[],uint64[],uint64[],bool[]),uint8,uint8,bool)": {
        "params": {
          "biome": "Assume biome > 0",
          "isSpecific": "The dungeon is specific, so it shouldn't be registered in dungeonsLogicByBiome",
          "specReqBiome": "required biome",
          "specReqHeroClass": "required hero class"
        }
      },
      "revision()": {
        "details": "Contract upgrade counter"
      },
      "setMinLevelForTreasury(address,uint256)": {
        "details": "Set eligible hero level for treasury tokens"
      }
    },
    "version": 1
  },
  "userdoc": {
    "kind": "user",
    "methods": {
      "CONTROLLABLE_VERSION()": {
        "notice": "Version of the contract"
      },
      "VERSION()": {
        "notice": "Version of the contract"
      },
      "controller()": {
        "notice": "Return controller address saved in the contract slot"
      },
      "created()": {
        "notice": "Return creation timestamp"
      },
      "createdBlock()": {
        "notice": "Return creation block number"
      },
      "exitForcibly(address,uint256,address)": {
        "notice": "Hero exists current dungeon forcibly same as when dying but without loosing life chance"
      },
      "isGovernance(address)": {
        "notice": "Return true if given address is setup as governance in Controller"
      },
      "registerDungeonLogic(uint16,uint8,(uint8[][],uint32[][],uint32[],uint8,uint8,bytes32[],uint64[],uint64[],bool[]),uint8,uint8,bool)": {
        "notice": "Register ordinal or specific dungeon"
      }
    },
    "version": 1
  },
  "storageLayout": {
    "storage": [],
    "types": null
  }
}