{
  "address": "0x34f2Eb57291Bcf5422caFcA97bDD30DF635c4474",
  "abi": [
    {
      "inputs": [],
      "name": "EmptyObjects",
      "type": "error"
    },
    {
      "inputs": [
        {
          "internalType": "address",
          "name": "sender",
          "type": "address"
        }
      ],
      "name": "ErrorNotDeployer",
      "type": "error"
    },
    {
      "inputs": [
        {
          "internalType": "address",
          "name": "sender",
          "type": "address"
        }
      ],
      "name": "ErrorNotDungeonFactory",
      "type": "error"
    },
    {
      "inputs": [],
      "name": "FightDelay",
      "type": "error"
    },
    {
      "inputs": [
        {
          "internalType": "uint8",
          "name": "biome",
          "type": "uint8"
        }
      ],
      "name": "GenObjectIdBiomeOverflow",
      "type": "error"
    },
    {
      "inputs": [
        {
          "internalType": "uint256",
          "name": "id",
          "type": "uint256"
        }
      ],
      "name": "GenObjectIdIdOverflow",
      "type": "error"
    },
    {
      "inputs": [
        {
          "internalType": "uint256",
          "name": "subType",
          "type": "uint256"
        }
      ],
      "name": "GenObjectIdSubTypeOverflow",
      "type": "error"
    },
    {
      "inputs": [
        {
          "internalType": "int256",
          "name": "value",
          "type": "int256"
        }
      ],
      "name": "IntOutOfRange",
      "type": "error"
    },
    {
      "inputs": [
        {
          "internalType": "int256",
          "name": "value",
          "type": "int256"
        }
      ],
      "name": "IntValueOutOfRange",
      "type": "error"
    },
    {
      "inputs": [],
      "name": "InvalidInitialization",
      "type": "error"
    },
    {
      "inputs": [],
      "name": "LengthsMismatch",
      "type": "error"
    },
    {
      "inputs": [],
      "name": "NotInitializing",
      "type": "error"
    },
    {
      "inputs": [],
      "name": "ObjectNotFound",
      "type": "error"
    },
    {
      "inputs": [
        {
          "internalType": "uint32",
          "name": "chance",
          "type": "uint32"
        }
      ],
      "name": "TooHighChance",
      "type": "error"
    },
    {
      "inputs": [
        {
          "internalType": "uint256",
          "name": "value",
          "type": "uint256"
        }
      ],
      "name": "TooHighValue",
      "type": "error"
    },
    {
      "inputs": [
        {
          "internalType": "uint8",
          "name": "objectSubType",
          "type": "uint8"
        }
      ],
      "name": "UnknownObjectTypeForSubtype",
      "type": "error"
    },
    {
      "inputs": [
        {
          "internalType": "uint8",
          "name": "objectType",
          "type": "uint8"
        }
      ],
      "name": "UnknownObjectTypeGoc1",
      "type": "error"
    },
    {
      "inputs": [
        {
          "internalType": "uint8",
          "name": "objectType",
          "type": "uint8"
        }
      ],
      "name": "UnknownObjectTypeGoc2",
      "type": "error"
    },
    {
      "inputs": [
        {
          "internalType": "uint8",
          "name": "objectType",
          "type": "uint8"
        }
      ],
      "name": "UnknownObjectTypeGocLib1",
      "type": "error"
    },
    {
      "inputs": [
        {
          "internalType": "uint8",
          "name": "objectType",
          "type": "uint8"
        }
      ],
      "name": "UnknownObjectTypeGocLib2",
      "type": "error"
    },
    {
      "inputs": [
        {
          "internalType": "uint32",
          "name": "chances",
          "type": "uint32"
        },
        {
          "internalType": "uint32",
          "name": "maxChances",
          "type": "uint32"
        }
      ],
      "name": "WrongChances",
      "type": "error"
    },
    {
      "inputs": [],
      "name": "WrongGetObjectTypeInput",
      "type": "error"
    },
    {
      "inputs": [],
      "name": "ZeroAddress",
      "type": "error"
    },
    {
      "inputs": [],
      "name": "ZeroChance",
      "type": "error"
    },
    {
      "inputs": [],
      "name": "ZeroStoryIdAction",
      "type": "error"
    },
    {
      "inputs": [],
      "name": "ZeroValue",
      "type": "error"
    },
    {
      "inputs": [],
      "name": "ZeroValueNotAllowed",
      "type": "error"
    },
    {
      "anonymous": false,
      "inputs": [
        {
          "indexed": false,
          "internalType": "address",
          "name": "controller",
          "type": "address"
        },
        {
          "indexed": false,
          "internalType": "uint256",
          "name": "ts",
          "type": "uint256"
        },
        {
          "indexed": false,
          "internalType": "uint256",
          "name": "block",
          "type": "uint256"
        }
      ],
      "name": "ContractInitialized",
      "type": "event"
    },
    {
      "anonymous": false,
      "inputs": [
        {
          "indexed": false,
          "internalType": "uint32",
          "name": "objectId",
          "type": "uint32"
        },
        {
          "components": [
            {
              "internalType": "uint8",
              "name": "biome",
              "type": "uint8"
            },
            {
              "internalType": "uint16",
              "name": "eventId",
              "type": "uint16"
            },
            {
              "internalType": "enum IGOC.ObjectSubType",
              "name": "subType",
              "type": "uint8"
            },
            {
              "internalType": "uint32",
              "name": "goodChance",
              "type": "uint32"
            },
            {
              "components": [
                {
                  "internalType": "uint8[]",
                  "name": "ids",
                  "type": "uint8[]"
                },
                {
                  "internalType": "int32[]",
                  "name": "values",
                  "type": "int32[]"
                }
              ],
              "internalType": "struct IGOC.AttributeGenerateInfo",
              "name": "goodAttributes",
              "type": "tuple"
            },
            {
              "components": [
                {
                  "internalType": "uint8[]",
                  "name": "ids",
                  "type": "uint8[]"
                },
                {
                  "internalType": "int32[]",
                  "name": "values",
                  "type": "int32[]"
                }
              ],
              "internalType": "struct IGOC.AttributeGenerateInfo",
              "name": "badAttributes",
              "type": "tuple"
            },
            {
              "internalType": "uint32",
              "name": "experience",
              "type": "uint32"
            },
            {
              "internalType": "int32",
              "name": "heal",
              "type": "int32"
            },
            {
              "internalType": "int32",
              "name": "manaRegen",
              "type": "int32"
            },
            {
              "internalType": "int32",
              "name": "lifeChancesRecovered",
              "type": "int32"
            },
            {
              "internalType": "int32",
              "name": "damage",
              "type": "int32"
            },
            {
              "internalType": "int32",
              "name": "manaConsumed",
              "type": "int32"
            },
            {
              "internalType": "address[]",
              "name": "mintItems",
              "type": "address[]"
            },
            {
              "internalType": "uint32[]",
              "name": "mintItemsChances",
              "type": "uint32[]"
            }
          ],
          "indexed": false,
          "internalType": "struct IGOC.EventRegInfo",
          "name": "eventRegInfo",
          "type": "tuple"
        }
      ],
      "name": "EventRegistered",
      "type": "event"
    },
    {
      "anonymous": false,
      "inputs": [
        {
          "indexed": false,
          "internalType": "uint64",
          "name": "version",
          "type": "uint64"
        }
      ],
      "name": "Initialized",
      "type": "event"
    },
    {
      "anonymous": false,
      "inputs": [
        {
          "indexed": false,
          "internalType": "uint32",
          "name": "objectId",
          "type": "uint32"
        },
        {
          "components": [
            {
              "internalType": "uint16",
              "name": "monsterId",
              "type": "uint16"
            },
            {
              "internalType": "uint8",
              "name": "biome",
              "type": "uint8"
            },
            {
              "internalType": "enum IGOC.ObjectSubType",
              "name": "subType",
              "type": "uint8"
            },
            {
              "internalType": "uint8[]",
              "name": "attributeIds",
              "type": "uint8[]"
            },
            {
              "internalType": "int32[]",
              "name": "attributeValues",
              "type": "int32[]"
            },
            {
              "internalType": "uint8",
              "name": "level",
              "type": "uint8"
            },
            {
              "internalType": "uint8",
              "name": "race",
              "type": "uint8"
            },
            {
              "internalType": "uint32",
              "name": "experience",
              "type": "uint32"
            },
            {
              "internalType": "uint8",
              "name": "maxDropItems",
              "type": "uint8"
            },
            {
              "internalType": "address",
              "name": "attackToken",
              "type": "address"
            },
            {
              "internalType": "uint64",
              "name": "attackTokenId",
              "type": "uint64"
            },
            {
              "internalType": "uint8",
              "name": "attackType",
              "type": "uint8"
            },
            {
              "internalType": "address[]",
              "name": "mintItems",
              "type": "address[]"
            },
            {
              "internalType": "uint32[]",
              "name": "mintItemsChances",
              "type": "uint32[]"
            }
          ],
          "indexed": false,
          "internalType": "struct IGOC.MonsterGenInfo",
          "name": "monsterGenInfo",
          "type": "tuple"
        }
      ],
      "name": "MonsterRegistered",
      "type": "event"
    },
    {
      "anonymous": false,
      "inputs": [
        {
          "indexed": false,
          "internalType": "uint32",
          "name": "objectId",
          "type": "uint32"
        }
      ],
      "name": "ObjectRemoved",
      "type": "event"
    },
    {
      "anonymous": false,
      "inputs": [
        {
          "indexed": false,
          "internalType": "uint64",
          "name": "dungeonId",
          "type": "uint64"
        },
        {
          "indexed": false,
          "internalType": "uint32",
          "name": "objectId",
          "type": "uint32"
        },
        {
          "indexed": false,
          "internalType": "enum IGOC.ObjectType",
          "name": "objectType",
          "type": "uint8"
        },
        {
          "indexed": false,
          "internalType": "address",
          "name": "hero",
          "type": "address"
        },
        {
          "indexed": false,
          "internalType": "uint256",
          "name": "heroId",
          "type": "uint256"
        },
        {
          "indexed": false,
          "internalType": "uint8",
          "name": "stageId",
          "type": "uint8"
        },
        {
          "indexed": false,
          "internalType": "uint256",
          "name": "iteration",
          "type": "uint256"
        },
        {
          "indexed": false,
          "internalType": "bytes",
          "name": "data",
          "type": "bytes"
        },
        {
          "components": [
            {
              "internalType": "bool",
              "name": "kill",
              "type": "bool"
            },
            {
              "internalType": "bool",
              "name": "completed",
              "type": "bool"
            },
            {
              "internalType": "address",
              "name": "heroToken",
              "type": "address"
            },
            {
              "internalType": "address[]",
              "name": "mintItems",
              "type": "address[]"
            },
            {
              "internalType": "int32",
              "name": "heal",
              "type": "int32"
            },
            {
              "internalType": "int32",
              "name": "manaRegen",
              "type": "int32"
            },
            {
              "internalType": "int32",
              "name": "lifeChancesRecovered",
              "type": "int32"
            },
            {
              "internalType": "int32",
              "name": "damage",
              "type": "int32"
            },
            {
              "internalType": "int32",
              "name": "manaConsumed",
              "type": "int32"
            },
            {
              "internalType": "uint32",
              "name": "objectId",
              "type": "uint32"
            },
            {
              "internalType": "uint32",
              "name": "experience",
              "type": "uint32"
            },
            {
              "internalType": "uint256",
              "name": "heroTokenId",
              "type": "uint256"
            },
            {
              "internalType": "uint256",
              "name": "iteration",
              "type": "uint256"
            },
            {
              "internalType": "uint32[]",
              "name": "rewriteNextObject",
              "type": "uint32[]"
            }
          ],
          "indexed": false,
          "internalType": "struct IGOC.ActionResult",
          "name": "result",
          "type": "tuple"
        },
        {
          "indexed": false,
          "internalType": "uint256",
          "name": "salt",
          "type": "uint256"
        }
      ],
      "name": "ObjectResultEvent",
      "type": "event"
    },
    {
      "anonymous": false,
      "inputs": [
        {
          "indexed": false,
          "internalType": "uint256",
          "name": "value",
          "type": "uint256"
        },
        {
          "indexed": false,
          "internalType": "address",
          "name": "oldLogic",
          "type": "address"
        }
      ],
      "name": "RevisionIncreased",
      "type": "event"
    },
    {
      "anonymous": false,
      "inputs": [
        {
          "indexed": false,
          "internalType": "uint32",
          "name": "objectId",
          "type": "uint32"
        },
        {
          "indexed": false,
          "internalType": "uint16",
          "name": "storyId",
          "type": "uint16"
        }
      ],
      "name": "StoryRegistered",
      "type": "event"
    },
    {
      "inputs": [],
      "name": "CONTROLLABLE_VERSION",
      "outputs": [
        {
          "internalType": "string",
          "name": "",
          "type": "string"
        }
      ],
      "stateMutability": "view",
      "type": "function"
    },
    {
      "inputs": [],
      "name": "VERSION",
      "outputs": [
        {
          "internalType": "string",
          "name": "",
          "type": "string"
        }
      ],
      "stateMutability": "view",
      "type": "function"
    },
    {
      "inputs": [
        {
          "internalType": "address",
          "name": "sender",
          "type": "address"
        },
        {
          "internalType": "uint64",
          "name": "dungeonId",
          "type": "uint64"
        },
        {
          "internalType": "uint32",
          "name": "objectId",
          "type": "uint32"
        },
        {
          "internalType": "address",
          "name": "heroToken",
          "type": "address"
        },
        {
          "internalType": "uint256",
          "name": "heroTokenId",
          "type": "uint256"
        },
        {
          "internalType": "uint8",
          "name": "stageId",
          "type": "uint8"
        },
        {
          "internalType": "bytes",
          "name": "data",
          "type": "bytes"
        }
      ],
      "name": "action",
      "outputs": [
        {
          "components": [
            {
              "internalType": "bool",
              "name": "kill",
              "type": "bool"
            },
            {
              "internalType": "bool",
              "name": "completed",
              "type": "bool"
            },
            {
              "internalType": "address",
              "name": "heroToken",
              "type": "address"
            },
            {
              "internalType": "address[]",
              "name": "mintItems",
              "type": "address[]"
            },
            {
              "internalType": "int32",
              "name": "heal",
              "type": "int32"
            },
            {
              "internalType": "int32",
              "name": "manaRegen",
              "type": "int32"
            },
            {
              "internalType": "int32",
              "name": "lifeChancesRecovered",
              "type": "int32"
            },
            {
              "internalType": "int32",
              "name": "damage",
              "type": "int32"
            },
            {
              "internalType": "int32",
              "name": "manaConsumed",
              "type": "int32"
            },
            {
              "internalType": "uint32",
              "name": "objectId",
              "type": "uint32"
            },
            {
              "internalType": "uint32",
              "name": "experience",
              "type": "uint32"
            },
            {
              "internalType": "uint256",
              "name": "heroTokenId",
              "type": "uint256"
            },
            {
              "internalType": "uint256",
              "name": "iteration",
              "type": "uint256"
            },
            {
              "internalType": "uint32[]",
              "name": "rewriteNextObject",
              "type": "uint32[]"
            }
          ],
          "internalType": "struct IGOC.ActionResult",
          "name": "",
          "type": "tuple"
        }
      ],
      "stateMutability": "nonpayable",
      "type": "function"
    },
    {
      "inputs": [],
      "name": "controller",
      "outputs": [
        {
          "internalType": "address",
          "name": "",
          "type": "address"
        }
      ],
      "stateMutability": "view",
      "type": "function"
    },
    {
      "inputs": [],
      "name": "created",
      "outputs": [
        {
          "internalType": "uint256",
          "name": "",
          "type": "uint256"
        }
      ],
      "stateMutability": "view",
      "type": "function"
    },
    {
      "inputs": [],
      "name": "createdBlock",
      "outputs": [
        {
          "internalType": "uint256",
          "name": "",
          "type": "uint256"
        }
      ],
      "stateMutability": "view",
      "type": "function"
    },
    {
      "inputs": [
        {
          "internalType": "uint32",
          "name": "objectId",
          "type": "uint32"
        }
      ],
      "name": "getEventInfo",
      "outputs": [
        {
          "components": [
            {
              "internalType": "uint32",
              "name": "goodChance",
              "type": "uint32"
            },
            {
              "internalType": "bytes32[]",
              "name": "goodAttributes",
              "type": "bytes32[]"
            },
            {
              "internalType": "bytes32[]",
              "name": "badAttributes",
              "type": "bytes32[]"
            },
            {
              "internalType": "bytes32",
              "name": "statsChange",
              "type": "bytes32"
            },
            {
              "internalType": "bytes32[]",
              "name": "mintItems",
              "type": "bytes32[]"
            }
          ],
          "internalType": "struct IGOC.EventInfo",
          "name": "",
          "type": "tuple"
        }
      ],
      "stateMutability": "view",
      "type": "function"
    },
    {
      "inputs": [],
      "name": "getFightDelay",
      "outputs": [
        {
          "internalType": "uint256",
          "name": "",
          "type": "uint256"
        }
      ],
      "stateMutability": "view",
      "type": "function"
    },
    {
      "inputs": [
        {
          "internalType": "address",
          "name": "heroToken",
          "type": "address"
        },
        {
          "internalType": "uint256",
          "name": "heroTokenId",
          "type": "uint256"
        },
        {
          "internalType": "uint32",
          "name": "objId",
          "type": "uint32"
        }
      ],
      "name": "getIteration",
      "outputs": [
        {
          "internalType": "uint256",
          "name": "",
          "type": "uint256"
        }
      ],
      "stateMutability": "view",
      "type": "function"
    },
    {
      "inputs": [
        {
          "internalType": "address",
          "name": "heroToken",
          "type": "address"
        },
        {
          "internalType": "uint256",
          "name": "heroTokenId",
          "type": "uint256"
        }
      ],
      "name": "getLastHeroFightTs",
      "outputs": [
        {
          "internalType": "uint256",
          "name": "",
          "type": "uint256"
        }
      ],
      "stateMutability": "view",
      "type": "function"
    },
    {
      "inputs": [
        {
          "internalType": "address",
          "name": "hero",
          "type": "address"
        },
        {
          "internalType": "uint256",
          "name": "heroId",
          "type": "uint256"
        },
        {
          "internalType": "uint32",
          "name": "objectId",
          "type": "uint32"
        }
      ],
      "name": "getMonsterInfo",
      "outputs": [
        {
          "components": [
            {
              "internalType": "uint16",
              "name": "monsterId",
              "type": "uint16"
            },
            {
              "internalType": "uint8",
              "name": "biome",
              "type": "uint8"
            },
            {
              "internalType": "enum IGOC.ObjectSubType",
              "name": "subType",
              "type": "uint8"
            },
            {
              "internalType": "uint8[]",
              "name": "attributeIds",
              "type": "uint8[]"
            },
            {
              "internalType": "int32[]",
              "name": "attributeValues",
              "type": "int32[]"
            },
            {
              "internalType": "uint8",
              "name": "level",
              "type": "uint8"
            },
            {
              "internalType": "uint8",
              "name": "race",
              "type": "uint8"
            },
            {
              "internalType": "uint32",
              "name": "experience",
              "type": "uint32"
            },
            {
              "internalType": "uint8",
              "name": "maxDropItems",
              "type": "uint8"
            },
            {
              "internalType": "address",
              "name": "attackToken",
              "type": "address"
            },
            {
              "internalType": "uint64",
              "name": "attackTokenId",
              "type": "uint64"
            },
            {
              "internalType": "uint8",
              "name": "attackType",
              "type": "uint8"
            },
            {
              "internalType": "address[]",
              "name": "mintItems",
              "type": "address[]"
            },
            {
              "internalType": "uint32[]",
              "name": "mintItemsChances",
              "type": "uint32[]"
            }
          ],
          "internalType": "struct IGOC.MonsterGenInfo",
          "name": "mGenInfo",
          "type": "tuple"
        },
        {
          "components": [
            {
              "internalType": "bool",
              "name": "generated",
              "type": "bool"
            },
            {
              "internalType": "uint8",
              "name": "turnCounter",
              "type": "uint8"
            },
            {
              "internalType": "int32",
              "name": "hp",
              "type": "int32"
            },
            {
              "internalType": "uint32",
              "name": "amplifier",
              "type": "uint32"
            }
          ],
          "internalType": "struct IGOC.GeneratedMonster",
          "name": "gen",
          "type": "tuple"
        }
      ],
      "stateMutability": "view",
      "type": "function"
    },
    {
      "inputs": [
        {
          "internalType": "uint8",
          "name": "heroNgLevel",
          "type": "uint8"
        }
      ],
      "name": "getMonsterMultiplier",
      "outputs": [
        {
          "internalType": "uint256",
          "name": "",
          "type": "uint256"
        }
      ],
      "stateMutability": "pure",
      "type": "function"
    },
    {
      "inputs": [
        {
          "internalType": "uint8",
          "name": "biome",
          "type": "uint8"
        },
        {
          "internalType": "enum IGOC.ObjectSubType",
          "name": "subType",
          "type": "uint8"
        }
      ],
      "name": "getObjectIds",
      "outputs": [
        {
          "internalType": "uint256[]",
          "name": "",
          "type": "uint256[]"
        }
      ],
      "stateMutability": "view",
      "type": "function"
    },
    {
      "inputs": [
        {
          "internalType": "uint32",
          "name": "objectId",
          "type": "uint32"
        }
      ],
      "name": "getObjectMeta",
      "outputs": [
        {
          "internalType": "uint8",
          "name": "biome",
          "type": "uint8"
        },
        {
          "internalType": "uint8",
          "name": "objectSubType",
          "type": "uint8"
        }
      ],
      "stateMutability": "view",
      "type": "function"
    },
    {
      "inputs": [
        {
          "internalType": "uint32",
          "name": "objectId",
          "type": "uint32"
        }
      ],
      "name": "getObjectTypeBySubType",
      "outputs": [
        {
          "internalType": "enum IGOC.ObjectType",
          "name": "",
          "type": "uint8"
        }
      ],
      "stateMutability": "view",
      "type": "function"
    },
    {
      "inputs": [
        {
          "internalType": "uint8[]",
          "name": "cTypes",
          "type": "uint8[]"
        },
        {
          "internalType": "uint32[]",
          "name": "chances",
          "type": "uint32[]"
        },
        {
          "internalType": "uint8",
          "name": "biome",
          "type": "uint8"
        },
        {
          "internalType": "address",
          "name": "heroToken",
          "type": "address"
        },
        {
          "internalType": "uint256",
          "name": "heroTokenId",
          "type": "uint256"
        }
      ],
      "name": "getRandomObject",
      "outputs": [
        {
          "internalType": "uint32",
          "name": "objectId",
          "type": "uint32"
        }
      ],
      "stateMutability": "nonpayable",
      "type": "function"
    },
    {
      "inputs": [
        {
          "internalType": "uint32",
          "name": "objectId",
          "type": "uint32"
        }
      ],
      "name": "getStoryId",
      "outputs": [
        {
          "internalType": "uint16",
          "name": "",
          "type": "uint16"
        }
      ],
      "stateMutability": "view",
      "type": "function"
    },
    {
      "inputs": [
        {
          "internalType": "address",
          "name": "oldLogic",
          "type": "address"
        }
      ],
      "name": "increaseRevision",
      "outputs": [],
      "stateMutability": "nonpayable",
      "type": "function"
    },
    {
      "inputs": [
        {
          "internalType": "address",
          "name": "controller_",
          "type": "address"
        }
      ],
      "name": "init",
      "outputs": [],
      "stateMutability": "nonpayable",
      "type": "function"
    },
    {
      "inputs": [
        {
          "internalType": "address",
          "name": "heroToken",
          "type": "address"
        },
        {
          "internalType": "uint256",
          "name": "heroTokenId",
          "type": "uint256"
        },
        {
          "internalType": "uint32",
          "name": "objId",
          "type": "uint32"
        }
      ],
      "name": "isAvailableForHero",
      "outputs": [
        {
          "internalType": "bool",
          "name": "",
          "type": "bool"
        }
      ],
      "stateMutability": "view",
      "type": "function"
    },
    {
      "inputs": [
        {
          "internalType": "uint32",
          "name": "objectId",
          "type": "uint32"
        }
      ],
      "name": "isBattleObject",
      "outputs": [
        {
          "internalType": "bool",
          "name": "",
          "type": "bool"
        }
      ],
      "stateMutability": "view",
      "type": "function"
    },
    {
      "inputs": [
        {
          "internalType": "address",
          "name": "value_",
          "type": "address"
        }
      ],
      "name": "isController",
      "outputs": [
        {
          "internalType": "bool",
          "name": "",
          "type": "bool"
        }
      ],
      "stateMutability": "view",
      "type": "function"
    },
    {
      "inputs": [
        {
          "internalType": "address",
          "name": "value_",
          "type": "address"
        }
      ],
      "name": "isGovernance",
      "outputs": [
        {
          "internalType": "bool",
          "name": "",
          "type": "bool"
        }
      ],
      "stateMutability": "view",
      "type": "function"
    },
    {
      "inputs": [
        {
          "internalType": "address",
          "name": "heroToken",
          "type": "address"
        },
        {
          "internalType": "uint256",
          "name": "heroTokenId",
          "type": "uint256"
        },
        {
          "internalType": "uint32",
          "name": "objectId",
          "type": "uint32"
        }
      ],
      "name": "open",
      "outputs": [
        {
          "internalType": "uint256",
          "name": "iteration",
          "type": "uint256"
        }
      ],
      "stateMutability": "nonpayable",
      "type": "function"
    },
    {
      "inputs": [],
      "name": "previousImplementation",
      "outputs": [
        {
          "internalType": "address",
          "name": "",
          "type": "address"
        }
      ],
      "stateMutability": "view",
      "type": "function"
    },
    {
      "inputs": [
        {
          "components": [
            {
              "internalType": "uint8",
              "name": "biome",
              "type": "uint8"
            },
            {
              "internalType": "uint16",
              "name": "eventId",
              "type": "uint16"
            },
            {
              "internalType": "enum IGOC.ObjectSubType",
              "name": "subType",
              "type": "uint8"
            },
            {
              "internalType": "uint32",
              "name": "goodChance",
              "type": "uint32"
            },
            {
              "components": [
                {
                  "internalType": "uint8[]",
                  "name": "ids",
                  "type": "uint8[]"
                },
                {
                  "internalType": "int32[]",
                  "name": "values",
                  "type": "int32[]"
                }
              ],
              "internalType": "struct IGOC.AttributeGenerateInfo",
              "name": "goodAttributes",
              "type": "tuple"
            },
            {
              "components": [
                {
                  "internalType": "uint8[]",
                  "name": "ids",
                  "type": "uint8[]"
                },
                {
                  "internalType": "int32[]",
                  "name": "values",
                  "type": "int32[]"
                }
              ],
              "internalType": "struct IGOC.AttributeGenerateInfo",
              "name": "badAttributes",
              "type": "tuple"
            },
            {
              "internalType": "uint32",
              "name": "experience",
              "type": "uint32"
            },
            {
              "internalType": "int32",
              "name": "heal",
              "type": "int32"
            },
            {
              "internalType": "int32",
              "name": "manaRegen",
              "type": "int32"
            },
            {
              "internalType": "int32",
              "name": "lifeChancesRecovered",
              "type": "int32"
            },
            {
              "internalType": "int32",
              "name": "damage",
              "type": "int32"
            },
            {
              "internalType": "int32",
              "name": "manaConsumed",
              "type": "int32"
            },
            {
              "internalType": "address[]",
              "name": "mintItems",
              "type": "address[]"
            },
            {
              "internalType": "uint32[]",
              "name": "mintItemsChances",
              "type": "uint32[]"
            }
          ],
          "internalType": "struct IGOC.EventRegInfo",
          "name": "regInfo",
          "type": "tuple"
        }
      ],
      "name": "registerEvent",
      "outputs": [],
      "stateMutability": "nonpayable",
      "type": "function"
    },
    {
      "inputs": [
        {
          "components": [
            {
              "internalType": "uint16",
              "name": "monsterId",
              "type": "uint16"
            },
            {
              "internalType": "uint8",
              "name": "biome",
              "type": "uint8"
            },
            {
              "internalType": "enum IGOC.ObjectSubType",
              "name": "subType",
              "type": "uint8"
            },
            {
              "internalType": "uint8[]",
              "name": "attributeIds",
              "type": "uint8[]"
            },
            {
              "internalType": "int32[]",
              "name": "attributeValues",
              "type": "int32[]"
            },
            {
              "internalType": "uint8",
              "name": "level",
              "type": "uint8"
            },
            {
              "internalType": "uint8",
              "name": "race",
              "type": "uint8"
            },
            {
              "internalType": "uint32",
              "name": "experience",
              "type": "uint32"
            },
            {
              "internalType": "uint8",
              "name": "maxDropItems",
              "type": "uint8"
            },
            {
              "internalType": "address",
              "name": "attackToken",
              "type": "address"
            },
            {
              "internalType": "uint64",
              "name": "attackTokenId",
              "type": "uint64"
            },
            {
              "internalType": "uint8",
              "name": "attackType",
              "type": "uint8"
            },
            {
              "internalType": "address[]",
              "name": "mintItems",
              "type": "address[]"
            },
            {
              "internalType": "uint32[]",
              "name": "mintItemsChances",
              "type": "uint32[]"
            }
          ],
          "internalType": "struct IGOC.MonsterGenInfo",
          "name": "monsterGenInfo",
          "type": "tuple"
        }
      ],
      "name": "registerMonster",
      "outputs": [],
      "stateMutability": "nonpayable",
      "type": "function"
    },
    {
      "inputs": [
        {
          "internalType": "uint16",
          "name": "storyId",
          "type": "uint16"
        },
        {
          "internalType": "uint8",
          "name": "biome",
          "type": "uint8"
        },
        {
          "internalType": "enum IGOC.ObjectSubType",
          "name": "subType",
          "type": "uint8"
        }
      ],
      "name": "registerStory",
      "outputs": [],
      "stateMutability": "nonpayable",
      "type": "function"
    },
    {
      "inputs": [
        {
          "internalType": "uint32",
          "name": "objectId",
          "type": "uint32"
        }
      ],
      "name": "removeObject",
      "outputs": [],
      "stateMutability": "nonpayable",
      "type": "function"
    },
    {
      "inputs": [],
      "name": "revision",
      "outputs": [
        {
          "internalType": "uint256",
          "name": "",
          "type": "uint256"
        }
      ],
      "stateMutability": "view",
      "type": "function"
    }
  ],
  "transactionHash": "0x85d6962eacc02f524f3f449debcc2cb1198005ccc5f46533a769fce8ff3e2d19",
  "args": [],
  "numDeployments": 27,
  "solcInputHash": "1c5f5fd0b61f54e5cdb86891b80cc3ef",
  "bytecode": "0x60806040523480156200001157600080fd5b507ff0c57e16840df040f15088dc2f81fe391c3923bec73e23a9662efc9c229c6a00805468010000000000000000810460ff1615906001600160401b03166000811580156200005d5750825b90506000826001600160401b031660011480156200007a5750303b155b90508115801562000089575080155b15620000a85760405163f92ee8a960e01b815260040160405180910390fd5b84546001600160401b03191660011785558315620000d757845460ff60401b1916680100000000000000001785555b83156200011e57845460ff60401b19168555604051600181527fc7f505b2f371ae2175ee4913f4499e1f2633a7b5936321eed1cdaeb6115181d29060200160405180910390a15b505050505061583580620001336000396000f3fe608060405234801561001057600080fd5b506004361061017a5760003560e01c80637cc96380116100d45780637cc96380146102f05780638154916e146102f8578063909aa53914610318578063936725ec146103385780639d0bcca014610369578063a8ca89ff1461037e578063b414c55314610391578063b429afeb146103a4578063d447d4df146103b7578063d5e46dcd146103ca578063dee1f0e4146103f7578063f2c6c6fb1461040a578063f3deb3911461041d578063f77c479114610430578063ffa1ad741461043857600080fd5b806306efb7851461017f5780630e2ecde2146101a55780630e91f15e146101cb578063172ae49a146101eb57806319ab453c146102005780631c10968c14610213578063325a19f11461021b5780634593144c146102235780634675bfff1461022b5780634fac6ccd1461023e5780635f1d20a1146102515780636742e2d61461026457806369c3d472146102875780636f383c0f146102a857806375a8e7da146102d0575b600080fd5b61019261018d366004613e0a565b61045c565b6040519081526020015b60405180910390f35b6101b86101b3366004613e53565b610471565b60405161ffff909116815260200161019c565b6101de6101d9366004613e99565b61047c565b60405161019c9190613ece565b6101fe6101f9366004613e53565b610488565b005b6101fe61020e366004613f12565b61049c565b610192610596565b6101926105a5565b6101926105d9565b6101fe610239366004614226565b610609565b6101fe61024c366004613f12565b61061a565b61019261025f3660046143b3565b61072b565b6102776102723660046143d0565b610736565b604051901515815260200161019c565b61029a6102953660046143d0565b610755565b60405161019c929190614651565b6102bb6102b63660046146a0565b61077c565b60405163ffffffff909116815260200161019c565b6102e36102de366004613e53565b61079f565b60405161019c9190614761565b6101926107b0565b61030b610306366004613e53565b6107ce565b60405161019c91906147e3565b61032b610326366004614808565b6107d9565b60405161019c9190614a0e565b61035c604051806040016040528060058152602001640312e302e360dc1b81525081565b60405161019c9190614a71565b610371610804565b60405161019c9190614a84565b6101fe61038c366004614a98565b610834565b6101fe61039f366004614add565b61084c565b6102776103b2366004613f12565b61085d565b6102776103c5366004613e53565b610882565b6103dd6103d8366004613e53565b61088d565b6040805160ff93841681529290911660208301520161019c565b610277610405366004613f12565b6108a2565b6101926104183660046143d0565b610927565b61019261042b3660046143d0565b61093c565b610371610949565b61035c60405180604001604052806005815260200164312e312e3560d81b81525081565b60006104688383610979565b90505b92915050565b600061046b826109b2565b606061046883836109df565b610499610493610949565b82610a1f565b50565b60006104a6610ad1565b805490915060ff600160401b82041615906001600160401b03166000811580156104cd5750825b90506000826001600160401b031660011480156104e95750303b155b9050811580156104f7575080155b156105155760405163f92ee8a960e01b815260040160405180910390fd5b845467ffffffffffffffff19166001178555831561053f57845460ff60401b1916600160401b1785555b61054886610af5565b831561058e57845460ff60401b19168555604051600181527fc7f505b2f371ae2175ee4913f4499e1f2633a7b5936321eed1cdaeb6115181d29060200160405180910390a15b505050505050565b60006105a0610b06565b905090565b60006105a06105d560017f6f55f470bdc9cb5f04223fd822021061668e4dccb43e8727b295106dc9769c8b614c25565b5490565b60006105a06105d560017f812a673dfca07956350df10f8a654925f561d7a0da09bdbe79e653939a14d9f1614c25565b610499610614610949565b82610b19565b33301461066c5760405162461bcd60e51b815260206004820152601b60248201527a24b731b932b0b9b2903932bb34b9b4b7b7103337b93134b23232b760291b60448201526064015b60405180910390fd5b600061068a6105d560016000805160206157e0833981519152614c25565b610695906001614c38565b90506106b7816106b460016000805160206157e0833981519152614c25565b55565b6106e6826106b460017fbfaaa2fb63266ff27c2da975f5894955056f50419af651a81f6c5060581857e4614c25565b604080518281526001600160a01b03841660208201527ff27e2ef832a4eb8ed8ec553b875eecd44764cda95b1c24170e281539e0a869c8910160405180910390a15050565b600061046b82610c0d565b600061074b610743610949565b858585610c20565b90505b9392505050565b61075d613c30565b610765613ca2565b610770858585610ca7565b91509150935093915050565b6000610793610789610949565b8787878787610d87565b90505b95945050505050565b6107a7613cc9565b61046b82610e14565b60006105a06105d560016000805160206157e0833981519152614c25565b600061046b82610f67565b6107e1613cf6565b6107f86107ec610949565b89898989898989610fb5565b98975050505050505050565b60006105a06105d560017fbfaaa2fb63266ff27c2da975f5894955056f50419af651a81f6c5060581857e4614c25565b61084761083f610949565b8484846114bf565b505050565b610499610857610949565b8261154e565b6000610867610949565b6001600160a01b0316826001600160a01b0316149050919050565b600061046b8261162f565b60008061089983611674565b91509150915091565b6000816001600160a01b03166108b6610949565b6001600160a01b0316635aa6e6756040518163ffffffff1660e01b8152600401602060405180830381865afa1580156108f3573d6000803e3d6000fd5b505050506040513d601f19601f820116820180604052508101906109179190614c56565b6001600160a01b03161492915050565b600061074b610934610949565b858585611682565b600061074b848484611835565b60006105a06105d560017f5165972ef41194f06c5007493031d0b927c20741adcb74403b954009fd2c3618614c25565b6000610983611867565b600701600061099b6001600160a01b0386168561188b565b815260200190815260200160002054905092915050565b60006109bc611867565b63ffffffff909216600090815260059290920160205250604090205461ffff1690565b60606104686109ec611867565b6001016000610a0c86866024811115610a0757610a07614412565b6118da565b81526020019081526020016000206118ef565b610a28826118fc565b6000610a32611867565b63ffffffff8316600090815260209190915260409020549050610a53611867565b63ffffffff831660008181526020929092526040822091909155610a9190610a79611867565b60008481526001919091016020526040902090611988565b5060405163ffffffff831681527f93afafd4d79cc89e4afba48bcd8cac7b8a35b45dfb55afe60cccae721124cd0f906020015b60405180910390a1505050565b7ff0c57e16840df040f15088dc2f81fe391c3923bec73e23a9662efc9c229c6a0090565b610afd611994565b610499816119bb565b6000610b10611867565b60080154905090565b610b22826118fc565b610b36816101800151826101a00151611ace565b6000610b4f826000015183604001518460200151611c07565b90507345D129F2E7F8A7b2b526F80365Ada7f25Ba7eF7F6330f53b2c83610b74611867565b63ffffffff85166000908152600491820160205260409081902090516001600160e01b031960e086901b168152610bac939201614cf3565b60006040518083038186803b158015610bc457600080fd5b505af4158015610bd8573d6000803e3d6000fd5b505050507f8ee0b45ff34ecba58a4014e0e0a9ebb97960cbfcae1e413072685b6b56b724fe8183604051610ac4929190614e87565b600061046b60ff8316633b9aca00614fe8565b600080610c2c83611674565b915050610c9d866001600160a01b031663524a562f6040518163ffffffff1660e01b8152600401602060405180830381865afa158015610c70573d6000803e3d6000fd5b505050506040513d601f19601f82011682018060405250810190610c949190614c56565b84838888611c88565b9695505050505050565b610caf613c30565b610cb7613ca2565b6000610cc1611867565b6003016000610cda6001600160a01b0389168888611da7565b8152602001908152602001600020549050610d14610cf6611867565b63ffffffff8616600090815260069190910160205260409020611dda565b9250610d7c610d21611867565b63ffffffff8087166000908152600692909201602052604082206004019190610d57906001600160a01b038b16908a9061188b16565b8152602001908152602001600020600083815260200190815260200160002054611ffb565b915050935093915050565b6000610d9287612049565b610e09610d9d611867565b886001600160a01b031663524a562f6040518163ffffffff1660e01b8152600401602060405180830381865afa158015610ddb573d6000803e3d6000fd5b505050506040513d601f19601f82011682018060405250810190610dff9190614c56565b88888888886120de565b979650505050505050565b610e1c613cc9565b610e24611867565b63ffffffff80841660009081526004929092016020908152604092839020835160a081018552815490931683526001810180548551818502810185019096528086529394919385840193830182828015610e9d57602002820191906000526020600020905b815481526020019060010190808311610e89575b5050505050815260200160028201805480602002602001604051908101604052809291908181526020018280548015610ef557602002820191906000526020600020905b815481526020019060010190808311610ee1575b505050505081526020016003820154815260200160048201805480602002602001604051908101604052809291908181526020018280548015610f5757602002820191906000526020600020905b815481526020019060010190808311610f43575b5050505050815250509050919050565b600080610f95610f75611867565b63ffffffff85166000908152602091909152604090205490600882901c90565b91505061074e8160ff166024811115610fb057610fb0614412565b612211565b610fbd613cf6565b610fc689612049565b604080516101a0810182526000918101829052606081018290526080810182905260c081018290526101008101829052610140810182905261016081019190915263ffffffff871660e08201526001600160a01b03898116825286166020820152610120810185905260ff841660a0820152610180810183905261104987611674565b60ff90811660808401521660608201526040805163016dff5d60e01b815290516001600160a01b038c169163016dff5d9160048083019260209291908290030181865afa15801561109e573d6000803e3d6000fd5b505050506040513d601f19601f820116820180604052508101906110c29190614c56565b6001600160a01b031663bcd418b087876040518363ffffffff1660e01b81526004016110ef929190614fff565b60a060405180830381865afa15801561110c573d6000803e3d6000fd5b505050506040513d601f19601f820116820180604052508101906111309190615028565b6020015160ff1660c08201526001600160401b038816610100820152611154611867565b600301600061116488888b612613565b815260208101919091526040908101600020546101608301526001600160a01b038b1690820152611193613cf6565b60006111b1836080015160ff166024811115610fb057610fb0614412565b60048111156111c2576111c2614412565b4361014085015290506201b2531946016112405760646001600160a01b031663a3b1b31d6040518163ffffffff1660e01b8152600401602060405180830381865afa158015611215573d6000803e3d6000fd5b505050506040513d601f19601f8201168201806040525081019061123991906150cb565b6101408401525b60001960ff8216016112f3577345D129F2E7F8A7b2b526F80365Ada7f25Ba7eF7F63bd9fe9db8461126f611867565b63ffffffff8d166000908152600491820160205260409081902090516001600160e01b031960e086901b1681526112a79392016151d4565b600060405180830381865af41580156112c4573d6000803e3d6000fd5b505050506040513d6000823e601f3d908101601f191682016040526112ec919081019061541a565b9150611417565b60011960ff8216016113be576113098888612629565b73Bb611DaA59d2D0EEd9B6e73e88526745a672D72463307800a28461132c611867565b60060160008d63ffffffff1663ffffffff1681526020019081526020016000206040518363ffffffff1660e01b81526004016113699291906151d4565b600060405180830381865af4158015611386573d6000803e3d6000fd5b505050506040513d6000823e601f3d908101601f191682016040526113ae919081019061544e565b60ff166101408501529150611417565b60021960ff8216016113f9576112ec836113d6611867565b63ffffffff8c166000908152600591909101602052604090205461ffff166126a6565b604051634d07af3360e01b815260ff82166004820152602401610663565b60e083015163ffffffff166101208301526001600160a01b03881660408301526101608083018890528301516101808301527f67af56937d4d46082b2327381733f95fd39ed3df103ec0f3761eb315b463f5648a8a60ff8416600481111561148157611481614412565b8b8b8b8961016001518c8a8c61014001516040516114a89a9998979695949392919061549f565b60405180910390a1509a9950505050505050505050565b6114c8846118fc565b60006114d5838386611c07565b9050836114e0611867565b63ffffffff831660008181526005929092016020908152604092839020805461ffff191661ffff9586161790558251918252928716928101929092527f9df2729723fcb63a4f46ffc16905a683f7eb0e8dd3ec260515e66b4d4cd8c0ad910160405180910390a15050505050565b611557826118fc565b61156b816101800151826101a00151611ace565b6000611584826020015183604001518460000151611c07565b905061158e611867565b63ffffffff8216600090815260069190910160205260408120906115b28282613d6c565b600182016000905560028201600090556003820160006115d29190613d6c565b50506115fe826115e0611867565b63ffffffff8416600090815260069190910160205260409020612988565b7fe9039f79f66d71725ba719a022b5729bbfce163887322d74e690772fe247fa4b8183604051610ac4929190615530565b60008061163d610f75611867565b91506002905061165b8260ff166024811115610fb057610fb0614412565b600481111561166c5761166c614412565b149392505050565b600080610899610f75611867565b600061168d85612049565b611698848484612b2c565b905060006116a583611674565b9150506000866001600160a01b031663016dff5d6040518163ffffffff1660e01b8152600401602060405180830381865afa1580156116e8573d6000803e3d6000fd5b505050506040513d601f19601f8201168201806040525081019061170c9190614c56565b6001600160a01b031663bcd418b087876040518363ffffffff1660e01b8152600401611739929190614fff565b60a060405180830381865afa158015611756573d6000803e3d6000fd5b505050506040513d601f19601f8201168201806040525081019061177a9190615028565b905060006117968360ff166024811115610fb057610fb0614412565b60048111156117a7576117a7614412565b905060001960ff8216011561182a5760011960ff8216016117ff576117fa6117cd611867565b60060160008763ffffffff1663ffffffff1681526020019081526020016000208888878660200151612b81565b61182a565b60021960ff8216011561182a5760405163cafe050760e01b815260ff82166004820152602401610663565b505050949350505050565b600061183f611867565b600301600061184f868686612613565b81526020019081526020016000205490509392505050565b7ffa9e067a92ca4a9057b7b4465a8f29d633e1758238bd3a4a8ec5d0f904f6b90090565b60006001600160401b038211156118b857604051633995b34160e01b815260048101839052602401610663565b50600160a01b600160e01b0360a09190911b166001600160a01b039091161790565b600060ff8316600883901b61ff001617610468565b6060600061074e83612b91565b604051631430d62960e21b81526001600160a01b038216906350c358a490611928903390600401614a84565b602060405180830381865afa158015611945573d6000803e3d6000fd5b505050506040513d601f19601f82011682018060405250810190611969919061554f565b610499573360405163451cea1760e11b81526004016106639190614a84565b60006104688383612bed565b61199c612ce7565b6119b957604051631afcd79f60e31b815260040160405180910390fd5b565b6001600160a01b038116611a035760405162461bcd60e51b815260206004820152600f60248201526e2d32b9379031b7b73a3937b63632b960891b6044820152606401610663565b611a32816106b460017f5165972ef41194f06c5007493031d0b927c20741adcb74403b954009fd2c3618614c25565b611a61426106b460017f6f55f470bdc9cb5f04223fd822021061668e4dccb43e8727b295106dc9769c8b614c25565b611a90436106b460017f812a673dfca07956350df10f8a654925f561d7a0da09bdbe79e653939a14d9f1614c25565b7f1a2dd071001ebf6e03174e3df5b305795a4ad5d41d8fdb9ba41dbbe236713426814243604051611ac39392919061556a565b60405180910390a150565b815181518114611af15760405163586cb9e160e01b815260040160405180910390fd5b60005b81811015611c015760006001600160a01b0316848281518110611b1957611b1961558b565b60200260200101516001600160a01b031603611b485760405163d92e233d60e01b815260040160405180910390fd5b828181518110611b5a57611b5a61558b565b602002602001015163ffffffff16600003611b885760405163eb79f4eb60e01b815260040160405180910390fd5b633b9aca0063ffffffff16838281518110611ba557611ba561558b565b602002602001015163ffffffff161115611bf957828181518110611bcb57611bcb61558b565b60200260200101516040516304470bfd60e21b8152600401610663919063ffffffff91909116815260200190565b600101611af4565b50505050565b600080611c12611867565b9050611c3085856024811115611c2a57611c2a614412565b85612d01565b91506000611c4a86866024811115610a0757610a07614412565b63ffffffff808516600081815260208681526040808320869055858352600188019091529020929350611c7e9291612df616565b5050509392505050565b600080611ca38560ff166024811115610fb057610fb0614412565b90506001816004811115611cb957611cb9614412565b03611cc8576001915050610796565b6002816004811115611cdc57611cdc614412565b03611ceb576001915050610796565b6003816004811115611cff57611cff614412565b03611d8957604051630152f74f60e41b815263ffffffff871660048201526001600160a01b0385811660248301526044820185905288169063152f74f090606401602060405180830381865afa158015611d5d573d6000803e3d6000fd5b505050506040513d601f19601f82011682018060405250810190611d81919061554f565b915050610796565b604051630dad26cb60e31b815260ff86166004820152602401610663565b6001600160a01b039290921660a09190911b600160a01b600160e01b03161760e09190911b6001600160e01b0319161790565b611de2613c30565b611dea613c30565b611e4583600001805480602002602001604051908101604052809291908181526020018280548015611e3b57602002820191906000526020600020905b815481526020019060010190808311611e27575b5050505050612e02565b606083015260808201526001830154600881901c601082901c603083901c60ff90811661010086015263ffffffff90911660e085015290811660c08401521660a08201526002830154611e9f60a082901c9060e083901c90565b60ff166101608401526001600160401b039081166101408401526001600160a01b039091166101208301526003840154908190811115611ee157611ee1613f2f565b604051908082528060200260200182016040528015611f0a578160200160208202803683370190505b50610180830152806001600160401b03811115611f2957611f29613f2f565b604051908082528060200260200182016040528015611f52578160200160208202803683370190505b506101a083015260005b81811015611ff257611f90856003018281548110611f7c57611f7c61558b565b90600052602060002001549060a082901c90565b8461018001518381518110611fa757611fa761558b565b60200260200101856101a001518481518110611fc557611fc561558b565b63ffffffff909316602093840291909101909201919091526001600160a01b039091169052600101611f5c565b50909392505050565b612003613ca2565b506040805160808101825260ff8381166001148252604884901c166020820152602883901c60030b9181019190915263ffffffff60089290921c91909116606082015290565b336001600160a01b0316816001600160a01b031663683fedf76040518163ffffffff1660e01b8152600401602060405180830381865afa158015612091573d6000803e3d6000fd5b505050506040513d601f19601f820116820180604052508101906120b59190614c56565b6001600160a01b031614610499573360405163cf219bef60e01b81526004016106639190614a84565b6000806120ee87876130f361319c565b9050600089600101600061210288856118da565b81526020019081526020016000209050600061211d826133a5565b9050806000036121405760405163296a76c760e21b815260040160405180910390fd5b6000816001146121625761215d612158600184614c25565b6130f3565b612165565b60005b9050600060028d018160ff60e81b60e88c901b1660ff60e01b60e089901b16600160a01b600160e01b0360a08c901b166001600160a01b038d16171717815260200190815260200160002090506121c48c8486848660008e8e8d6133af565b95508563ffffffff166000036121ed57604051639cb04d5d60e01b815260040160405180910390fd5b6122008163ffffffff80891690612df616565b505050505050979650505050505050565b6000600482602481111561222757612227614412565b14806122445750600582602481111561224257612242614412565b145b806122605750600882602481111561225e5761225e614412565b145b1561226d57506001919050565b600182602481111561228157612281614412565b148061229e5750600282602481111561229c5761229c614412565b145b806122ba575060038260248111156122b8576122b8614412565b145b806122d65750600a8260248111156122d4576122d4614412565b145b806122f2575060208260248111156122f0576122f0614412565b145b8061230e5750602182602481111561230c5761230c614412565b145b8061232a5750602282602481111561232857612328614412565b145b806123465750602382602481111561234457612344614412565b145b1561235357506002919050565b600682602481111561236757612367614412565b14806123845750600782602481111561238257612382614412565b145b806123a05750600b82602481111561239e5761239e614412565b145b806123bc5750600c8260248111156123ba576123ba614412565b145b806123d85750600d8260248111156123d6576123d6614412565b145b806123f45750600e8260248111156123f2576123f2614412565b145b806124105750600f82602481111561240e5761240e614412565b145b8061242c5750601082602481111561242a5761242a614412565b145b806124485750601182602481111561244657612446614412565b145b806124645750601282602481111561246257612462614412565b145b806124805750601382602481111561247e5761247e614412565b145b8061249c5750601482602481111561249a5761249a614412565b145b806124b8575060158260248111156124b6576124b6614412565b145b806124d4575060168260248111156124d2576124d2614412565b145b806124f0575060178260248111156124ee576124ee614412565b145b8061250c5750601882602481111561250a5761250a614412565b145b806125285750601982602481111561252657612526614412565b145b806125445750601a82602481111561254257612542614412565b145b806125605750601b82602481111561255e5761255e614412565b145b8061257c5750601c82602481111561257a5761257a614412565b145b806125985750601d82602481111561259657612596614412565b145b806125b45750601e8260248111156125b2576125b2614412565b145b806125d05750601f8260248111156125ce576125ce614412565b145b156125dd57506003919050565b8160248111156125ef576125ef614412565b6040516302f13cad60e41b815260ff9091166004820152602401610663565b919050565b600061074b6001600160a01b0385168484611da7565b6000612633611867565b9050600061264a6001600160a01b0385168461188b565b60088301546000828152600785016020526040902054919250429161266f9190614c38565b111561268e5760405163051211b760e11b815260040160405180910390fd5b60009081526007909101602052604090204290555050565b6126ae613cf6565b8161ffff166000036126d357604051635c5e6bb360e11b815260040160405180910390fd5b82604001516001600160a01b031663524a562f6040518163ffffffff1660e01b8152600401602060405180830381865afa158015612715573d6000803e3d6000fd5b505050506040513d601f19601f820116820180604052508101906127399190614c56565b6001600160a01b0316631c1b0daa84600001518561010001518660e001518760a0015188602001518961012001518a606001518b61016001518c61018001516040518a63ffffffff1660e01b815260040161279c999897969594939291906155a1565b6000604051808303816000875af11580156127bb573d6000803e3d6000fd5b505050506040513d6000823e601f3d908101601f191682016040526127e3919081019061541a565b90508060200151806127f3575080515b1561046b57600083604001516001600160a01b0316628e96916040518163ffffffff1660e01b8152600401602060405180830381865afa15801561283b573d6000803e3d6000fd5b505050506040513d601f19601f8201168201806040525081019061285f9190614c56565b9050600061286c8461347e565b6020860151610120870151604051631c2aafe760e01b81529293506000926001600160a01b03861692631c2aafe7926128a992879060040161556a565b602060405180830381865afa1580156128c6573d6000803e3d6000fd5b505050506040513d601f19601f820116820180604052508101906128ea91906150cb565b9050826001600160a01b031663184f61438760200151886101200151858560016129149190614c38565b6040516001600160e01b031960e087901b1681526001600160a01b039094166004850152602484019290925260448301526064820152608401600060405180830381600087803b15801561296757600080fd5b505af115801561297b573d6000803e3d6000fd5b5050505050505092915050565b6060820151608083015161299b916134b5565b80516129ae918391602090910190613d8a565b5060a082015160c083015160e084015161010085015160ff90931660089290921b61ff00169190911760109190911b65ffffffff0000161760309190911b60ff60301b161760018201556101208201516101408301516101608401516001600160a01b0390921660a09190911b600160a01b600160e01b03161760e09190911b60ff60e01b16176002820155610180820151516000816001600160401b03811115612a5b57612a5b613f2f565b604051908082528060200260200182016040528015612a84578160200160208202803683370190505b50905060005b82811015612b0f57612aea856101a001518281518110612aac57612aac61558b565b60200260200101518661018001518381518110612acb57612acb61558b565b60200260200101516001600160a01b031661371390919063ffffffff16565b828281518110612afc57612afc61558b565b6020908102919091010152600101612a8a565b508051612b259060038501906020840190613d8a565b5050505050565b600080612b37611867565b90506000612b46868686612613565b6000818152600384016020526040902054909150612b65906001614c38565b6000918252600390920160205260409020819055949350505050565b612b25858585856137318661373c565b606081600001805480602002602001604051908101604052809291908181526020018280548015612be157602002820191906000526020600020905b815481526020019060010190808311612bcd575b50505050509050919050565b60008181526001830160205260408120548015612cd6576000612c11600183614c25565b8554909150600090612c2590600190614c25565b9050808214612c8a576000866000018281548110612c4557612c4561558b565b9060005260206000200154905080876000018481548110612c6857612c6861558b565b6000918252602080832090910192909255918252600188019052604090208390555b8554869080612c9b57612c9b61561a565b60019003818190600052602060002001600090559055856001016000868152602001908152602001600020600090556001935050505061046b565b600091505061046b565b5092915050565b6000612cf1610ad1565b54600160401b900460ff16919050565b600060ff84161580612d14575060ff8316155b80612d21575061ffff8216155b15612d3f5760405163273e150360e21b815260040160405180910390fd5b60648460ff1610612d68576040516340eff0e560e01b815260ff85166004820152602401610663565b60648360ff1610612d915760405163017c4c5960e01b815260ff84166004820152602401610663565b6127108261ffff161115612dbe57604051637dc12d1d60e01b815261ffff83166004820152602401610663565b61ffff8216612dd260ff8516612710615630565b612de260ff8716620f4240615630565b612dec9190615658565b61074b9190615658565b60006104688383613825565b805160609081906000612e16826008614fe8565b90506000816001600160401b03811115612e3257612e32613f2f565b604051908082528060200260200182016040528015612e5b578160200160208202803683370190505b5090506000826001600160401b03811115612e7857612e78613f2f565b604051908082528060200260200182016040528015612ea1578160200160208202803683370190505b5090506000805b85811015612fce5760005b6008811015612fc557600081612eca846008614fe8565b612ed49190614c38565b9050612ee1826020614fe8565b8b8481518110612ef357612ef361558b565b602002602001015160001c901c60020b868281518110612f1557612f1561558b565b60039290920b602092830291909101820152612f32908390614fe8565b612f3d906018614c38565b8b8481518110612f4f57612f4f61558b565b602002602001015160001c901c858281518110612f6e57612f6e61558b565b602002602001019060ff16908160ff1681525050858181518110612f9457612f9461558b565b602002602001015160030b600003612fac5750612fc5565b83612fb681615675565b94505050806001019050612eb3565b50600101612ea8565b50806001600160401b03811115612fe757612fe7613f2f565b604051908082528060200260200182016040528015613010578160200160208202803683370190505b509650806001600160401b0381111561302b5761302b613f2f565b604051908082528060200260200182016040528015613054578160200160208202803683370190505b50955060005b818110156130e8578381815181106130745761307461558b565b602002602001015188828151811061308e5761308e61558b565b602002602001019060030b908160030b815250508281815181106130b4576130b461558b565b60200260200101518782815181106130ce576130ce61558b565b60ff9092166020928302919091019091015260010161305a565b505050505050915091565b60008160000361310557506000919050565b600061310f613874565b905061311c836001614c38565b4340414443423a5a8860405160200161317998979695949392919097885260609690961b6001600160601b0319166020880152603487019490945260548601929092526074850152609484015260b483015260d482015260f40190565b6040516020818303038152906040528051906020012060001c61074e91906156a4565b82516000908015806131af575083518114155b156131cd5760405163360ee06360e21b815260040160405180910390fd5b806001036131f757846000815181106131e8576131e861558b565b60200260200101519150613376565b600061320a633b9aca0063ffffffff8616565b9050600061321d633b9aca006001615658565b63ffffffff16905060005b83811015613372578781815181106132425761324261558b565b602002602001015160ff166000031561336a57633b9aca0063ffffffff168782815181106132725761327261558b565b602002602001015163ffffffff1611156132cf578681815181106132985761329861558b565b6020908102919091010151604051631b4fdad960e11b815263ffffffff9091166004820152633b9aca006024820152604401610663565b828782815181106132e2576132e261558b565b6020026020010151633b9aca006132f991906156b8565b63ffffffff161161336a57818782815181106133175761331761558b565b602002602001015163ffffffff16101561336a5786818151811061333d5761333d61558b565b602002602001015163ffffffff16915087818151811061335f5761335f61558b565b602002602001015194505b600101613228565b5050505b8160ff1660000361339d5760405163b3cea44d60e01b815260006004820152602401610663565b509392505050565b600061046b825490565b6000886133bb886133a5565b106133cd57600194506133cd876138ac565b6000805b8a811015613440578a88106133e557600097505b60006133f18b8a6138fa565b90506134008d82878a8a611c88565b80156134235750878061342357506134218a63ffffffff8084169061390616565b155b1561343357925060019150613440565b50600197880197016133d1565b508015801561344d575085155b156134705761345b886138ac565b61346d8b8b8b8b8b60018b8b8b6133af565b91505b509998505050505050505050565b600061348d8261ffff1661391e565b60405160200161349d91906156d5565b60405160208183030381529060405261046b90615703565b606081518351146134d95760405163586cb9e160e01b815260040160405180910390fd5b6000600884516134e9919061572a565b6134f4906001614c38565b90506000816001600160401b0381111561351057613510613f2f565b604051908082528060200260200182016040528015613539578160200160208202803683370190505b50905060005b8281101561370a5760005b600881101561370157600081613561846008614fe8565b61356b9190614c38565b90508751811061357b5750613701565b627fffff60020b8882815181106135945761359461558b565b602002602001015160030b13806135cd5750627fffff1960020b8882815181106135c0576135c061558b565b602002602001015160030b125b1561360b578781815181106135e4576135e461558b565b602002602001015160030b604051632eb1d06960e01b815260040161066391815260200190565b87818151811061361d5761361d61558b565b602002602001015160030b60000361364857604051637c946ed760e01b815260040160405180910390fd5b613653826020614fe8565b8882815181106136655761366561558b565b602002602001015162ffffff1660001b901b8484815181106136895761368961558b565b6020026020010181815117915081815250508160206136a89190614fe8565b6136b3906018614c38565b8782815181106136c5576136c561558b565b602002602001015160ff1660001b901b8484815181106136e7576136e761558b565b60209081029190910101805190911790525060010161354a565b5060010161353f565b50949350505050565b63ffffffff60a01b60a09190911b166001600160a01b039091161790565b600061046b826130f3565b60408051608081018252600181526000602082018190529181018290526060810161376e633b9aca0063ffffffff8716565b63ffffffff1690529050600061378388611dda565b905060006137ac8260600151836080015185606001516137a288610c0d565b8660e00151613a26565b509050806009815181106137c2576137c261558b565b602090810291909101015160030b60408401526137de83613aec565b60048a0160006137f76001600160a01b038c168b61188b565b8152602001908152602001600020600088815260200190815260200160002081905550505050505050505050565b600081815260018301602052604081205461386c5750815460018181018455600084815260208082209093018490558454848252828601909352604090209190915561046b565b50600061046b565b60006350877ed646148061388b5750630235ddd046145b156138a9576040518060208160008060185afa6138a457fe5b505190505b90565b60006138b7826118ef565b905060005b8151811015610847576138f18282815181106138da576138da61558b565b60200260200101518461198890919063ffffffff16565b506001016138bc565b60006104688383613b0a565b60008181526001830160205260408120541515610468565b6060816000036139455750506040805180820190915260018152600360fc1b602082015290565b8160005b811561396f578061395981615675565b91506139689050600a8361572a565b9150613949565b6000816001600160401b0381111561398957613989613f2f565b6040519080825280601f01601f1916602001820160405280156139b3576020820181803683370190505b5090505b8415613a1e576139c8600183614c25565b91506139d5600a866156a4565b6139e0906030614c38565b60f81b8183815181106139f5576139f561558b565b60200101906001600160f81b031916908160001a905350613a17600a8661572a565b94506139b7565b949350505050565b60606000613a3560048661573e565b60408051602b8082526105808201909252919650602082016105608036833701905050915060005b8751811015613ad357613a8a878281518110613a7b57613a7b61558b565b60200260200101518787613b34565b83898381518110613a9d57613a9d61558b565b602002602001015160ff1681518110613ab857613ab861558b565b60039290920b60209283029190910190910152600101613a5d565b50613ae083866000613b34565b90509550959350505050565b600061046b8260000151836060015184604001518560200151613bdc565b6000826000018281548110613b2157613b2161558b565b9060005260206000200154905092915050565b60008360030b600003613b495750600061074e565b6000633b9aca00613b5e84600388900b615761565b613b689190615791565b633b9aca00613b8163ffffffff8716600389900b615761565b613b8b9190615791565b8660030b613b9991906157bf565b613ba391906157bf565b9050637fffffff811380613bbb5750637fffffff1981125b1561074b576040516344dc334160e01b815260048101829052602401610663565b600084613bea576000613bed565b60015b60ff1660001b905060088463ffffffff1660001b901b8117905060288363ffffffff1660001b901b8117905060488260ff1660001b901b81179050949350505050565b604080516101c081018252600080825260208201819052909182019081526060602082018190526040820181905260008183018190526080830181905260a0830181905260c0830181905260e08301819052610100830181905261012083015261014082018190526101609091015290565b60408051608081018252600080825260208201819052918101829052606081019190915290565b6040805160a081018252600080825260606020830181905292820183905282820152608081019190915290565b604080516101c08101825260008082526020820181905291810182905260608082018190526080820183905260a0820183905260c0820183905260e0820183905261010082018390526101208201839052610140820183905261016082018390526101808201929092526101a081019190915290565b50805460008255906000526020600020908101906104999190613dd5565b828054828255906000526020600020908101928215613dc5579160200282015b82811115613dc5578251825591602001919060010190613daa565b50613dd1929150613dd5565b5090565b5b80821115613dd15760008155600101613dd6565b6001600160a01b038116811461049957600080fd5b803561260e81613dea565b60008060408385031215613e1d57600080fd5b8235613e2881613dea565b946020939093013593505050565b63ffffffff8116811461049957600080fd5b803561260e81613e36565b600060208284031215613e6557600080fd5b813561074e81613e36565b60ff8116811461049957600080fd5b803561260e81613e70565b80356025811061260e57600080fd5b60008060408385031215613eac57600080fd5b8235613eb781613e70565b9150613ec560208401613e8a565b90509250929050565b6020808252825182820181905260009190848201906040850190845b81811015613f0657835183529284019291840191600101613eea565b50909695505050505050565b600060208284031215613f2457600080fd5b813561074e81613dea565b634e487b7160e01b600052604160045260246000fd5b6040516101c081016001600160401b0381118282101715613f6857613f68613f2f565b60405290565b604051601f8201601f191681016001600160401b0381118282101715613f9657613f96613f2f565b604052919050565b803561ffff8116811461260e57600080fd5b60006001600160401b03821115613fc957613fc9613f2f565b5060051b60200190565b600082601f830112613fe457600080fd5b81356020613ff9613ff483613fb0565b613f6e565b8083825260208201915060208460051b87010193508684111561401b57600080fd5b602086015b8481101561404057803561403381613e70565b8352918301918301614020565b509695505050505050565b8060030b811461049957600080fd5b803561260e8161404b565b600082601f83011261407657600080fd5b81356020614086613ff483613fb0565b8083825260208201915060208460051b8701019350868411156140a857600080fd5b602086015b848110156140405780356140c08161404b565b83529183019183016140ad565b6000604082840312156140df57600080fd5b604051604081016001600160401b03828210818311171561410257614102613f2f565b81604052829350843591508082111561411a57600080fd5b61412686838701613fd3565b8352602085013591508082111561413c57600080fd5b5061414985828601614065565b6020830152505092915050565b600082601f83011261416757600080fd5b81356020614177613ff483613fb0565b8083825260208201915060208460051b87010193508684111561419957600080fd5b602086015b848110156140405780356141b181613dea565b835291830191830161419e565b600082601f8301126141cf57600080fd5b813560206141df613ff483613fb0565b8083825260208201915060208460051b87010193508684111561420157600080fd5b602086015b8481101561404057803561421981613e36565b8352918301918301614206565b60006020828403121561423857600080fd5b81356001600160401b038082111561424f57600080fd5b908301906101c0828603121561426457600080fd5b61426c613f45565b61427583613e7f565b815261428360208401613f9e565b602082015261429460408401613e8a565b60408201526142a560608401613e48565b60608201526080830135828111156142bc57600080fd5b6142c8878286016140cd565b60808301525060a0830135828111156142e057600080fd5b6142ec878286016140cd565b60a0830152506142fe60c08401613e48565b60c082015261430f60e0840161405a565b60e082015261010061432281850161405a565b9082015261012061433484820161405a565b9082015261014061434684820161405a565b9082015261016061435884820161405a565b90820152610180838101358381111561437057600080fd5b61437c88828701614156565b8284015250506101a0808401358381111561439657600080fd5b6143a2888287016141be565b918301919091525095945050505050565b6000602082840312156143c557600080fd5b813561074e81613e70565b6000806000606084860312156143e557600080fd5b83356143f081613dea565b925060208401359150604084013561440781613e36565b809150509250925092565b634e487b7160e01b600052602160045260246000fd5b6025811061443857614438614412565b9052565b60008151808452602080850194506020840160005b8381101561447057815160ff1687529582019590820190600101614451565b509495945050505050565b60008151808452602080850194506020840160005b8381101561447057815160030b87529582019590820190600101614490565b6001600160a01b03169052565b60008151808452602080850194506020840160005b838110156144705781516001600160a01b0316875295820195908201906001016144d1565b60008151808452602080850194506020840160005b8381101561447057815163ffffffff168752958201959082019060010161450b565b805161ffff16825260006101c0602083015161454e602086018260ff169052565b5060408301516145616040860182614428565b5060608301518160608601526145798286018261443c565b91505060808301518482036080860152614593828261447b565b91505060a08301516145aa60a086018260ff169052565b5060c08301516145bf60c086018260ff169052565b5060e08301516145d760e086018263ffffffff169052565b506101008381015160ff1690850152610120808401516145f9828701826144af565b5050610140838101516001600160401b0316908501526101608084015160ff1690850152610180808401518583038287015261463583826144bc565b925050506101a08084015185830382870152610c9d83826144f6565b60a08152600061466460a083018561452d565b905082511515602083015260ff6020840151166040830152604083015160030b606083015263ffffffff60608401511660808301529392505050565b600080600080600060a086880312156146b857600080fd5b85356001600160401b03808211156146cf57600080fd5b6146db89838a01613fd3565b965060208801359150808211156146f157600080fd5b506146fe888289016141be565b945050604086013561470f81613e70565b9250606086013561471f81613dea565b949793965091946080013592915050565b60008151808452602080850194506020840160005b8381101561447057815187529582019590820190600101614745565b6020815263ffffffff82511660208201526000602083015160a0604084015261478d60c0840182614730565b90506040840151601f19808584030160608601526147ab8383614730565b92506060860151608086015260808601519150808584030160a0860152506107968282614730565b6005811061443857614438614412565b6020810161046b82846147d3565b80356001600160401b038116811461260e57600080fd5b600080600080600080600060e0888a03121561482357600080fd5b873561482e81613dea565b9650602061483d8982016147f1565b9650604089013561484d81613e36565b9550606089013561485d81613dea565b94506080890135935060a089013561487481613e70565b925060c08901356001600160401b038082111561489057600080fd5b818b0191508b601f8301126148a457600080fd5b8135818111156148b6576148b6613f2f565b6148c8601f8201601f19168501613f6e565b91508082528c848285010111156148de57600080fd5b808484018584013760008482840101525080935050505092959891949750929550565b80511515825260006101c0602083015161491f602086018215159052565b50604083015161493260408601826144af565b50606083015181606086015261494a828601826144bc565b9150506080830151614961608086018260030b9052565b5060a083015161497660a086018260030b9052565b5060c083015161498b60c086018260030b9052565b5060e08301516149a060e086018260030b9052565b50610100808401516149b68287018260030b9052565b50506101208381015163ffffffff81168683015250506101408381015163ffffffff8116868301525050610160838101519085015261018080840151908501526101a08084015185830382870152610c9d83826144f6565b6020815260006104686020830184614901565b60005b83811015614a3c578181015183820152602001614a24565b50506000910152565b60008151808452614a5d816020860160208601614a21565b601f01601f19169290920160200192915050565b6020815260006104686020830184614a45565b6001600160a01b0391909116815260200190565b600080600060608486031215614aad57600080fd5b614ab684613f9e565b92506020840135614ac681613e70565b9150614ad460408501613e8a565b90509250925092565b600060208284031215614aef57600080fd5b81356001600160401b0380821115614b0657600080fd5b908301906101c08286031215614b1b57600080fd5b614b23613f45565b614b2c83613f9e565b8152614b3a60208401613e7f565b6020820152614b4b60408401613e8a565b6040820152606083013582811115614b6257600080fd5b614b6e87828601613fd3565b606083015250608083013582811115614b8657600080fd5b614b9287828601614065565b608083015250614ba460a08401613e7f565b60a0820152614bb560c08401613e7f565b60c0820152614bc660e08401613e48565b60e0820152610100614bd9818501613e7f565b90820152610120614beb848201613dff565b90820152610140614bfd8482016147f1565b90820152610160614358848201613e7f565b634e487b7160e01b600052601160045260246000fd5b8181038181111561046b5761046b614c0f565b8082018082111561046b5761046b614c0f565b805161260e81613dea565b600060208284031215614c6857600080fd5b815161074e81613dea565b805160408084528151908401819052600091602091908201906060860190845b81811015614cb257835160ff1683529284019291840191600101614c93565b50508483015186820387850152805180835290840192506000918401905b8083101561404057835160030b8252928401926001929092019190840190614cd0565b60408152614d0760408201845160ff169052565b60006020840151614d1e606084018261ffff169052565b506040840151614d316080840182614428565b50606084015163ffffffff1660a083015260808401516101c060c08401819052614d5f610200850183614c73565b915060a0860151603f19808685030160e0870152614d7d8483614c73565b935060c08801519150610100614d9a8188018463ffffffff169052565b60e08901519250610120614db28189018560030b9052565b90890151925061014090614dca8883018560030b9052565b8901519250610160614de08882018560030b9052565b90890151925061018090614df88883018560030b9052565b89015192506101a0614e0e8882018560030b9052565b818a01519350828887030185890152614e2786856144bc565b9550808a01519450505080868503016101e08701525050614e4882826144f6565b925050508260208301529392505050565b6000815160408452614e6e604085018261443c565b905060208301518482036020860152610796828261447b565b63ffffffff8316815260406020820152614ea760408201835160ff169052565b60006020830151614ebe606084018261ffff169052565b506040830151614ed16080840182614428565b50606083015163ffffffff1660a083015260808301516101c060c08401819052614eff610200850183614e59565b915060a0850151603f19808685030160e0870152614f1d8483614e59565b935060c08701519150610100614f3a8188018463ffffffff169052565b60e08801519250610120614f528189018560030b9052565b90880151925061014090614f6a8883018560030b9052565b8801519250610160614f808882018560030b9052565b90880151925061018090614f988883018560030b9052565b88015192506101a0614fae8882018560030b9052565b818901519350828887030185890152614fc786856144bc565b9550808901519450505080868503016101e08701525050610c9d82826144f6565b808202811582820484141761046b5761046b614c0f565b6001600160a01b03929092168252602082015260400190565b8051801515811461260e57600080fd5b600060a0828403121561503a57600080fd5b60405160a081018181106001600160401b038211171561505c5761505c613f2f565b604052825161506a81613e70565b8152602083015161507a81613e70565b602082015261508b60408401615018565b6040820152606083015168ffffffffffffffffff811681146150ac57600080fd5b606082015260808301516150bf81613dea565b60808201529392505050565b6000602082840312156150dd57600080fd5b5051919050565b60006101a06150f48484516144af565b602083015161510660208601826144af565b50604083015161511960408601826144af565b50606083015161512e606086018260ff169052565b506080830151615143608086018260ff169052565b5060a083015161515860a086018260ff169052565b5060c083015161516d60c086018260ff169052565b5060e083015161518560e086018263ffffffff169052565b50610100838101516001600160401b03169085015261012080840151908501526101408084015190850152610160808401519085015261018080840151818601839052610c9d83870182614a45565b6040815260006151e760408301856150e4565b90508260208301529392505050565b600082601f83011261520757600080fd5b81516020615217613ff483613fb0565b8083825260208201915060208460051b87010193508684111561523957600080fd5b602086015b8481101561404057805161525181613dea565b835291830191830161523e565b805161260e8161404b565b805161260e81613e36565b600082601f83011261528557600080fd5b81516020615295613ff483613fb0565b8083825260208201915060208460051b8701019350868411156152b757600080fd5b602086015b848110156140405780516152cf81613e36565b83529183019183016152bc565b60006101c082840312156152ef57600080fd5b6152f7613f45565b905061530282615018565b815261531060208301615018565b602082015261532160408301614c4b565b604082015260608201516001600160401b038082111561534057600080fd5b61534c858386016151f6565b606084015261535d6080850161525e565b608084015261536e60a0850161525e565b60a084015261537f60c0850161525e565b60c084015261539060e0850161525e565b60e084015261010091506153a582850161525e565b8284015261012091506153b9828501615269565b8284015261014091506153cd828501615269565b8284015261016091508184015182840152610180915081840151828401526101a09150818401518181111561540157600080fd5b61540d86828701615274565b8385015250505092915050565b60006020828403121561542c57600080fd5b81516001600160401b0381111561544257600080fd5b613a1e848285016152dc565b6000806040838503121561546157600080fd5b82516001600160401b0381111561547757600080fd5b615483858286016152dc565b925050602083015161549481613e70565b809150509250929050565b60006101406001600160401b038d16835263ffffffff8c1660208401526154c9604084018c6147d3565b6001600160a01b038a1660608401526080830189905260ff881660a084015260c0830187905260e0830181905261550281840187614a45565b90508281036101008401526155178186614901565b915050826101208301529b9a5050505050505050505050565b63ffffffff8316815260406020820152600061074b604083018461452d565b60006020828403121561556157600080fd5b61046882615018565b6001600160a01b039390931683526020830191909152604082015260600190565b634e487b7160e01b600052603260045260246000fd5b6001600160a01b038a811682526001600160401b038a16602083015263ffffffff8916604083015260ff8881166060840152908716608083015260a08201869052841660c082015260e08101839052610120610100820181905260009061560a83820185614a45565b9c9b505050505050505050505050565b634e487b7160e01b600052603160045260246000fd5b63ffffffff81811683821602808216919082811461565057615650614c0f565b505092915050565b63ffffffff818116838216019080821115612ce057612ce0614c0f565b60006001820161568757615687614c0f565b5060010190565b634e487b7160e01b600052601260045260246000fd5b6000826156b3576156b361568e565b500690565b63ffffffff828116828216039080821115612ce057612ce0614c0f565b6553544f52595f60d01b8152600082516156f6816006850160208701614a21565b9190910160060192915050565b80516020808301519190811015615724576000198160200360031b1b821691505b50919050565b6000826157395761573961568e565b500490565b600063ffffffff808416806157555761575561568e565b92169190910492915050565b80820260008212600160ff1b8414161561577d5761577d614c0f565b818105831482151761046b5761046b614c0f565b6000826157a0576157a061568e565b600160ff1b8214600019841416156157ba576157ba614c0f565b500590565b808201828112600083128015821682158216171561565057615650614c0f56fe22573091f17911fb166032a3d9e0554aa73d31b7b7ddea4a4dd2995650af84bda26469706673582212204bb3ece109dd8a9ae3d08192ff59a86deb282fd9fc1bf4e786f6778a52e9950a64736f6c63430008170033",
  "deployedBytecode": "0x608060405234801561001057600080fd5b506004361061017a5760003560e01c80637cc96380116100d45780637cc96380146102f05780638154916e146102f8578063909aa53914610318578063936725ec146103385780639d0bcca014610369578063a8ca89ff1461037e578063b414c55314610391578063b429afeb146103a4578063d447d4df146103b7578063d5e46dcd146103ca578063dee1f0e4146103f7578063f2c6c6fb1461040a578063f3deb3911461041d578063f77c479114610430578063ffa1ad741461043857600080fd5b806306efb7851461017f5780630e2ecde2146101a55780630e91f15e146101cb578063172ae49a146101eb57806319ab453c146102005780631c10968c14610213578063325a19f11461021b5780634593144c146102235780634675bfff1461022b5780634fac6ccd1461023e5780635f1d20a1146102515780636742e2d61461026457806369c3d472146102875780636f383c0f146102a857806375a8e7da146102d0575b600080fd5b61019261018d366004613e0a565b61045c565b6040519081526020015b60405180910390f35b6101b86101b3366004613e53565b610471565b60405161ffff909116815260200161019c565b6101de6101d9366004613e99565b61047c565b60405161019c9190613ece565b6101fe6101f9366004613e53565b610488565b005b6101fe61020e366004613f12565b61049c565b610192610596565b6101926105a5565b6101926105d9565b6101fe610239366004614226565b610609565b6101fe61024c366004613f12565b61061a565b61019261025f3660046143b3565b61072b565b6102776102723660046143d0565b610736565b604051901515815260200161019c565b61029a6102953660046143d0565b610755565b60405161019c929190614651565b6102bb6102b63660046146a0565b61077c565b60405163ffffffff909116815260200161019c565b6102e36102de366004613e53565b61079f565b60405161019c9190614761565b6101926107b0565b61030b610306366004613e53565b6107ce565b60405161019c91906147e3565b61032b610326366004614808565b6107d9565b60405161019c9190614a0e565b61035c604051806040016040528060058152602001640312e302e360dc1b81525081565b60405161019c9190614a71565b610371610804565b60405161019c9190614a84565b6101fe61038c366004614a98565b610834565b6101fe61039f366004614add565b61084c565b6102776103b2366004613f12565b61085d565b6102776103c5366004613e53565b610882565b6103dd6103d8366004613e53565b61088d565b6040805160ff93841681529290911660208301520161019c565b610277610405366004613f12565b6108a2565b6101926104183660046143d0565b610927565b61019261042b3660046143d0565b61093c565b610371610949565b61035c60405180604001604052806005815260200164312e312e3560d81b81525081565b60006104688383610979565b90505b92915050565b600061046b826109b2565b606061046883836109df565b610499610493610949565b82610a1f565b50565b60006104a6610ad1565b805490915060ff600160401b82041615906001600160401b03166000811580156104cd5750825b90506000826001600160401b031660011480156104e95750303b155b9050811580156104f7575080155b156105155760405163f92ee8a960e01b815260040160405180910390fd5b845467ffffffffffffffff19166001178555831561053f57845460ff60401b1916600160401b1785555b61054886610af5565b831561058e57845460ff60401b19168555604051600181527fc7f505b2f371ae2175ee4913f4499e1f2633a7b5936321eed1cdaeb6115181d29060200160405180910390a15b505050505050565b60006105a0610b06565b905090565b60006105a06105d560017f6f55f470bdc9cb5f04223fd822021061668e4dccb43e8727b295106dc9769c8b614c25565b5490565b60006105a06105d560017f812a673dfca07956350df10f8a654925f561d7a0da09bdbe79e653939a14d9f1614c25565b610499610614610949565b82610b19565b33301461066c5760405162461bcd60e51b815260206004820152601b60248201527a24b731b932b0b9b2903932bb34b9b4b7b7103337b93134b23232b760291b60448201526064015b60405180910390fd5b600061068a6105d560016000805160206157e0833981519152614c25565b610695906001614c38565b90506106b7816106b460016000805160206157e0833981519152614c25565b55565b6106e6826106b460017fbfaaa2fb63266ff27c2da975f5894955056f50419af651a81f6c5060581857e4614c25565b604080518281526001600160a01b03841660208201527ff27e2ef832a4eb8ed8ec553b875eecd44764cda95b1c24170e281539e0a869c8910160405180910390a15050565b600061046b82610c0d565b600061074b610743610949565b858585610c20565b90505b9392505050565b61075d613c30565b610765613ca2565b610770858585610ca7565b91509150935093915050565b6000610793610789610949565b8787878787610d87565b90505b95945050505050565b6107a7613cc9565b61046b82610e14565b60006105a06105d560016000805160206157e0833981519152614c25565b600061046b82610f67565b6107e1613cf6565b6107f86107ec610949565b89898989898989610fb5565b98975050505050505050565b60006105a06105d560017fbfaaa2fb63266ff27c2da975f5894955056f50419af651a81f6c5060581857e4614c25565b61084761083f610949565b8484846114bf565b505050565b610499610857610949565b8261154e565b6000610867610949565b6001600160a01b0316826001600160a01b0316149050919050565b600061046b8261162f565b60008061089983611674565b91509150915091565b6000816001600160a01b03166108b6610949565b6001600160a01b0316635aa6e6756040518163ffffffff1660e01b8152600401602060405180830381865afa1580156108f3573d6000803e3d6000fd5b505050506040513d601f19601f820116820180604052508101906109179190614c56565b6001600160a01b03161492915050565b600061074b610934610949565b858585611682565b600061074b848484611835565b60006105a06105d560017f5165972ef41194f06c5007493031d0b927c20741adcb74403b954009fd2c3618614c25565b6000610983611867565b600701600061099b6001600160a01b0386168561188b565b815260200190815260200160002054905092915050565b60006109bc611867565b63ffffffff909216600090815260059290920160205250604090205461ffff1690565b60606104686109ec611867565b6001016000610a0c86866024811115610a0757610a07614412565b6118da565b81526020019081526020016000206118ef565b610a28826118fc565b6000610a32611867565b63ffffffff8316600090815260209190915260409020549050610a53611867565b63ffffffff831660008181526020929092526040822091909155610a9190610a79611867565b60008481526001919091016020526040902090611988565b5060405163ffffffff831681527f93afafd4d79cc89e4afba48bcd8cac7b8a35b45dfb55afe60cccae721124cd0f906020015b60405180910390a1505050565b7ff0c57e16840df040f15088dc2f81fe391c3923bec73e23a9662efc9c229c6a0090565b610afd611994565b610499816119bb565b6000610b10611867565b60080154905090565b610b22826118fc565b610b36816101800151826101a00151611ace565b6000610b4f826000015183604001518460200151611c07565b905073__$a0fcfc253474aa5cdb2dbfa020c220d358$__6330f53b2c83610b74611867565b63ffffffff85166000908152600491820160205260409081902090516001600160e01b031960e086901b168152610bac939201614cf3565b60006040518083038186803b158015610bc457600080fd5b505af4158015610bd8573d6000803e3d6000fd5b505050507f8ee0b45ff34ecba58a4014e0e0a9ebb97960cbfcae1e413072685b6b56b724fe8183604051610ac4929190614e87565b600061046b60ff8316633b9aca00614fe8565b600080610c2c83611674565b915050610c9d866001600160a01b031663524a562f6040518163ffffffff1660e01b8152600401602060405180830381865afa158015610c70573d6000803e3d6000fd5b505050506040513d601f19601f82011682018060405250810190610c949190614c56565b84838888611c88565b9695505050505050565b610caf613c30565b610cb7613ca2565b6000610cc1611867565b6003016000610cda6001600160a01b0389168888611da7565b8152602001908152602001600020549050610d14610cf6611867565b63ffffffff8616600090815260069190910160205260409020611dda565b9250610d7c610d21611867565b63ffffffff8087166000908152600692909201602052604082206004019190610d57906001600160a01b038b16908a9061188b16565b8152602001908152602001600020600083815260200190815260200160002054611ffb565b915050935093915050565b6000610d9287612049565b610e09610d9d611867565b886001600160a01b031663524a562f6040518163ffffffff1660e01b8152600401602060405180830381865afa158015610ddb573d6000803e3d6000fd5b505050506040513d601f19601f82011682018060405250810190610dff9190614c56565b88888888886120de565b979650505050505050565b610e1c613cc9565b610e24611867565b63ffffffff80841660009081526004929092016020908152604092839020835160a081018552815490931683526001810180548551818502810185019096528086529394919385840193830182828015610e9d57602002820191906000526020600020905b815481526020019060010190808311610e89575b5050505050815260200160028201805480602002602001604051908101604052809291908181526020018280548015610ef557602002820191906000526020600020905b815481526020019060010190808311610ee1575b505050505081526020016003820154815260200160048201805480602002602001604051908101604052809291908181526020018280548015610f5757602002820191906000526020600020905b815481526020019060010190808311610f43575b5050505050815250509050919050565b600080610f95610f75611867565b63ffffffff85166000908152602091909152604090205490600882901c90565b91505061074e8160ff166024811115610fb057610fb0614412565b612211565b610fbd613cf6565b610fc689612049565b604080516101a0810182526000918101829052606081018290526080810182905260c081018290526101008101829052610140810182905261016081019190915263ffffffff871660e08201526001600160a01b03898116825286166020820152610120810185905260ff841660a0820152610180810183905261104987611674565b60ff90811660808401521660608201526040805163016dff5d60e01b815290516001600160a01b038c169163016dff5d9160048083019260209291908290030181865afa15801561109e573d6000803e3d6000fd5b505050506040513d601f19601f820116820180604052508101906110c29190614c56565b6001600160a01b031663bcd418b087876040518363ffffffff1660e01b81526004016110ef929190614fff565b60a060405180830381865afa15801561110c573d6000803e3d6000fd5b505050506040513d601f19601f820116820180604052508101906111309190615028565b6020015160ff1660c08201526001600160401b038816610100820152611154611867565b600301600061116488888b612613565b815260208101919091526040908101600020546101608301526001600160a01b038b1690820152611193613cf6565b60006111b1836080015160ff166024811115610fb057610fb0614412565b60048111156111c2576111c2614412565b4361014085015290506201b2531946016112405760646001600160a01b031663a3b1b31d6040518163ffffffff1660e01b8152600401602060405180830381865afa158015611215573d6000803e3d6000fd5b505050506040513d601f19601f8201168201806040525081019061123991906150cb565b6101408401525b60001960ff8216016112f35773__$a0fcfc253474aa5cdb2dbfa020c220d358$__63bd9fe9db8461126f611867565b63ffffffff8d166000908152600491820160205260409081902090516001600160e01b031960e086901b1681526112a79392016151d4565b600060405180830381865af41580156112c4573d6000803e3d6000fd5b505050506040513d6000823e601f3d908101601f191682016040526112ec919081019061541a565b9150611417565b60011960ff8216016113be576113098888612629565b73__$201d0d5baf5bd2c94d39dac94ac4e46c3c$__63307800a28461132c611867565b60060160008d63ffffffff1663ffffffff1681526020019081526020016000206040518363ffffffff1660e01b81526004016113699291906151d4565b600060405180830381865af4158015611386573d6000803e3d6000fd5b505050506040513d6000823e601f3d908101601f191682016040526113ae919081019061544e565b60ff166101408501529150611417565b60021960ff8216016113f9576112ec836113d6611867565b63ffffffff8c166000908152600591909101602052604090205461ffff166126a6565b604051634d07af3360e01b815260ff82166004820152602401610663565b60e083015163ffffffff166101208301526001600160a01b03881660408301526101608083018890528301516101808301527f67af56937d4d46082b2327381733f95fd39ed3df103ec0f3761eb315b463f5648a8a60ff8416600481111561148157611481614412565b8b8b8b8961016001518c8a8c61014001516040516114a89a9998979695949392919061549f565b60405180910390a1509a9950505050505050505050565b6114c8846118fc565b60006114d5838386611c07565b9050836114e0611867565b63ffffffff831660008181526005929092016020908152604092839020805461ffff191661ffff9586161790558251918252928716928101929092527f9df2729723fcb63a4f46ffc16905a683f7eb0e8dd3ec260515e66b4d4cd8c0ad910160405180910390a15050505050565b611557826118fc565b61156b816101800151826101a00151611ace565b6000611584826020015183604001518460000151611c07565b905061158e611867565b63ffffffff8216600090815260069190910160205260408120906115b28282613d6c565b600182016000905560028201600090556003820160006115d29190613d6c565b50506115fe826115e0611867565b63ffffffff8416600090815260069190910160205260409020612988565b7fe9039f79f66d71725ba719a022b5729bbfce163887322d74e690772fe247fa4b8183604051610ac4929190615530565b60008061163d610f75611867565b91506002905061165b8260ff166024811115610fb057610fb0614412565b600481111561166c5761166c614412565b149392505050565b600080610899610f75611867565b600061168d85612049565b611698848484612b2c565b905060006116a583611674565b9150506000866001600160a01b031663016dff5d6040518163ffffffff1660e01b8152600401602060405180830381865afa1580156116e8573d6000803e3d6000fd5b505050506040513d601f19601f8201168201806040525081019061170c9190614c56565b6001600160a01b031663bcd418b087876040518363ffffffff1660e01b8152600401611739929190614fff565b60a060405180830381865afa158015611756573d6000803e3d6000fd5b505050506040513d601f19601f8201168201806040525081019061177a9190615028565b905060006117968360ff166024811115610fb057610fb0614412565b60048111156117a7576117a7614412565b905060001960ff8216011561182a5760011960ff8216016117ff576117fa6117cd611867565b60060160008763ffffffff1663ffffffff1681526020019081526020016000208888878660200151612b81565b61182a565b60021960ff8216011561182a5760405163cafe050760e01b815260ff82166004820152602401610663565b505050949350505050565b600061183f611867565b600301600061184f868686612613565b81526020019081526020016000205490509392505050565b7ffa9e067a92ca4a9057b7b4465a8f29d633e1758238bd3a4a8ec5d0f904f6b90090565b60006001600160401b038211156118b857604051633995b34160e01b815260048101839052602401610663565b50600160a01b600160e01b0360a09190911b166001600160a01b039091161790565b600060ff8316600883901b61ff001617610468565b6060600061074e83612b91565b604051631430d62960e21b81526001600160a01b038216906350c358a490611928903390600401614a84565b602060405180830381865afa158015611945573d6000803e3d6000fd5b505050506040513d601f19601f82011682018060405250810190611969919061554f565b610499573360405163451cea1760e11b81526004016106639190614a84565b60006104688383612bed565b61199c612ce7565b6119b957604051631afcd79f60e31b815260040160405180910390fd5b565b6001600160a01b038116611a035760405162461bcd60e51b815260206004820152600f60248201526e2d32b9379031b7b73a3937b63632b960891b6044820152606401610663565b611a32816106b460017f5165972ef41194f06c5007493031d0b927c20741adcb74403b954009fd2c3618614c25565b611a61426106b460017f6f55f470bdc9cb5f04223fd822021061668e4dccb43e8727b295106dc9769c8b614c25565b611a90436106b460017f812a673dfca07956350df10f8a654925f561d7a0da09bdbe79e653939a14d9f1614c25565b7f1a2dd071001ebf6e03174e3df5b305795a4ad5d41d8fdb9ba41dbbe236713426814243604051611ac39392919061556a565b60405180910390a150565b815181518114611af15760405163586cb9e160e01b815260040160405180910390fd5b60005b81811015611c015760006001600160a01b0316848281518110611b1957611b1961558b565b60200260200101516001600160a01b031603611b485760405163d92e233d60e01b815260040160405180910390fd5b828181518110611b5a57611b5a61558b565b602002602001015163ffffffff16600003611b885760405163eb79f4eb60e01b815260040160405180910390fd5b633b9aca0063ffffffff16838281518110611ba557611ba561558b565b602002602001015163ffffffff161115611bf957828181518110611bcb57611bcb61558b565b60200260200101516040516304470bfd60e21b8152600401610663919063ffffffff91909116815260200190565b600101611af4565b50505050565b600080611c12611867565b9050611c3085856024811115611c2a57611c2a614412565b85612d01565b91506000611c4a86866024811115610a0757610a07614412565b63ffffffff808516600081815260208681526040808320869055858352600188019091529020929350611c7e9291612df616565b5050509392505050565b600080611ca38560ff166024811115610fb057610fb0614412565b90506001816004811115611cb957611cb9614412565b03611cc8576001915050610796565b6002816004811115611cdc57611cdc614412565b03611ceb576001915050610796565b6003816004811115611cff57611cff614412565b03611d8957604051630152f74f60e41b815263ffffffff871660048201526001600160a01b0385811660248301526044820185905288169063152f74f090606401602060405180830381865afa158015611d5d573d6000803e3d6000fd5b505050506040513d601f19601f82011682018060405250810190611d81919061554f565b915050610796565b604051630dad26cb60e31b815260ff86166004820152602401610663565b6001600160a01b039290921660a09190911b600160a01b600160e01b03161760e09190911b6001600160e01b0319161790565b611de2613c30565b611dea613c30565b611e4583600001805480602002602001604051908101604052809291908181526020018280548015611e3b57602002820191906000526020600020905b815481526020019060010190808311611e27575b5050505050612e02565b606083015260808201526001830154600881901c601082901c603083901c60ff90811661010086015263ffffffff90911660e085015290811660c08401521660a08201526002830154611e9f60a082901c9060e083901c90565b60ff166101608401526001600160401b039081166101408401526001600160a01b039091166101208301526003840154908190811115611ee157611ee1613f2f565b604051908082528060200260200182016040528015611f0a578160200160208202803683370190505b50610180830152806001600160401b03811115611f2957611f29613f2f565b604051908082528060200260200182016040528015611f52578160200160208202803683370190505b506101a083015260005b81811015611ff257611f90856003018281548110611f7c57611f7c61558b565b90600052602060002001549060a082901c90565b8461018001518381518110611fa757611fa761558b565b60200260200101856101a001518481518110611fc557611fc561558b565b63ffffffff909316602093840291909101909201919091526001600160a01b039091169052600101611f5c565b50909392505050565b612003613ca2565b506040805160808101825260ff8381166001148252604884901c166020820152602883901c60030b9181019190915263ffffffff60089290921c91909116606082015290565b336001600160a01b0316816001600160a01b031663683fedf76040518163ffffffff1660e01b8152600401602060405180830381865afa158015612091573d6000803e3d6000fd5b505050506040513d601f19601f820116820180604052508101906120b59190614c56565b6001600160a01b031614610499573360405163cf219bef60e01b81526004016106639190614a84565b6000806120ee87876130f361319c565b9050600089600101600061210288856118da565b81526020019081526020016000209050600061211d826133a5565b9050806000036121405760405163296a76c760e21b815260040160405180910390fd5b6000816001146121625761215d612158600184614c25565b6130f3565b612165565b60005b9050600060028d018160ff60e81b60e88c901b1660ff60e01b60e089901b16600160a01b600160e01b0360a08c901b166001600160a01b038d16171717815260200190815260200160002090506121c48c8486848660008e8e8d6133af565b95508563ffffffff166000036121ed57604051639cb04d5d60e01b815260040160405180910390fd5b6122008163ffffffff80891690612df616565b505050505050979650505050505050565b6000600482602481111561222757612227614412565b14806122445750600582602481111561224257612242614412565b145b806122605750600882602481111561225e5761225e614412565b145b1561226d57506001919050565b600182602481111561228157612281614412565b148061229e5750600282602481111561229c5761229c614412565b145b806122ba575060038260248111156122b8576122b8614412565b145b806122d65750600a8260248111156122d4576122d4614412565b145b806122f2575060208260248111156122f0576122f0614412565b145b8061230e5750602182602481111561230c5761230c614412565b145b8061232a5750602282602481111561232857612328614412565b145b806123465750602382602481111561234457612344614412565b145b1561235357506002919050565b600682602481111561236757612367614412565b14806123845750600782602481111561238257612382614412565b145b806123a05750600b82602481111561239e5761239e614412565b145b806123bc5750600c8260248111156123ba576123ba614412565b145b806123d85750600d8260248111156123d6576123d6614412565b145b806123f45750600e8260248111156123f2576123f2614412565b145b806124105750600f82602481111561240e5761240e614412565b145b8061242c5750601082602481111561242a5761242a614412565b145b806124485750601182602481111561244657612446614412565b145b806124645750601282602481111561246257612462614412565b145b806124805750601382602481111561247e5761247e614412565b145b8061249c5750601482602481111561249a5761249a614412565b145b806124b8575060158260248111156124b6576124b6614412565b145b806124d4575060168260248111156124d2576124d2614412565b145b806124f0575060178260248111156124ee576124ee614412565b145b8061250c5750601882602481111561250a5761250a614412565b145b806125285750601982602481111561252657612526614412565b145b806125445750601a82602481111561254257612542614412565b145b806125605750601b82602481111561255e5761255e614412565b145b8061257c5750601c82602481111561257a5761257a614412565b145b806125985750601d82602481111561259657612596614412565b145b806125b45750601e8260248111156125b2576125b2614412565b145b806125d05750601f8260248111156125ce576125ce614412565b145b156125dd57506003919050565b8160248111156125ef576125ef614412565b6040516302f13cad60e41b815260ff9091166004820152602401610663565b919050565b600061074b6001600160a01b0385168484611da7565b6000612633611867565b9050600061264a6001600160a01b0385168461188b565b60088301546000828152600785016020526040902054919250429161266f9190614c38565b111561268e5760405163051211b760e11b815260040160405180910390fd5b60009081526007909101602052604090204290555050565b6126ae613cf6565b8161ffff166000036126d357604051635c5e6bb360e11b815260040160405180910390fd5b82604001516001600160a01b031663524a562f6040518163ffffffff1660e01b8152600401602060405180830381865afa158015612715573d6000803e3d6000fd5b505050506040513d601f19601f820116820180604052508101906127399190614c56565b6001600160a01b0316631c1b0daa84600001518561010001518660e001518760a0015188602001518961012001518a606001518b61016001518c61018001516040518a63ffffffff1660e01b815260040161279c999897969594939291906155a1565b6000604051808303816000875af11580156127bb573d6000803e3d6000fd5b505050506040513d6000823e601f3d908101601f191682016040526127e3919081019061541a565b90508060200151806127f3575080515b1561046b57600083604001516001600160a01b0316628e96916040518163ffffffff1660e01b8152600401602060405180830381865afa15801561283b573d6000803e3d6000fd5b505050506040513d601f19601f8201168201806040525081019061285f9190614c56565b9050600061286c8461347e565b6020860151610120870151604051631c2aafe760e01b81529293506000926001600160a01b03861692631c2aafe7926128a992879060040161556a565b602060405180830381865afa1580156128c6573d6000803e3d6000fd5b505050506040513d601f19601f820116820180604052508101906128ea91906150cb565b9050826001600160a01b031663184f61438760200151886101200151858560016129149190614c38565b6040516001600160e01b031960e087901b1681526001600160a01b039094166004850152602484019290925260448301526064820152608401600060405180830381600087803b15801561296757600080fd5b505af115801561297b573d6000803e3d6000fd5b5050505050505092915050565b6060820151608083015161299b916134b5565b80516129ae918391602090910190613d8a565b5060a082015160c083015160e084015161010085015160ff90931660089290921b61ff00169190911760109190911b65ffffffff0000161760309190911b60ff60301b161760018201556101208201516101408301516101608401516001600160a01b0390921660a09190911b600160a01b600160e01b03161760e09190911b60ff60e01b16176002820155610180820151516000816001600160401b03811115612a5b57612a5b613f2f565b604051908082528060200260200182016040528015612a84578160200160208202803683370190505b50905060005b82811015612b0f57612aea856101a001518281518110612aac57612aac61558b565b60200260200101518661018001518381518110612acb57612acb61558b565b60200260200101516001600160a01b031661371390919063ffffffff16565b828281518110612afc57612afc61558b565b6020908102919091010152600101612a8a565b508051612b259060038501906020840190613d8a565b5050505050565b600080612b37611867565b90506000612b46868686612613565b6000818152600384016020526040902054909150612b65906001614c38565b6000918252600390920160205260409020819055949350505050565b612b25858585856137318661373c565b606081600001805480602002602001604051908101604052809291908181526020018280548015612be157602002820191906000526020600020905b815481526020019060010190808311612bcd575b50505050509050919050565b60008181526001830160205260408120548015612cd6576000612c11600183614c25565b8554909150600090612c2590600190614c25565b9050808214612c8a576000866000018281548110612c4557612c4561558b565b9060005260206000200154905080876000018481548110612c6857612c6861558b565b6000918252602080832090910192909255918252600188019052604090208390555b8554869080612c9b57612c9b61561a565b60019003818190600052602060002001600090559055856001016000868152602001908152602001600020600090556001935050505061046b565b600091505061046b565b5092915050565b6000612cf1610ad1565b54600160401b900460ff16919050565b600060ff84161580612d14575060ff8316155b80612d21575061ffff8216155b15612d3f5760405163273e150360e21b815260040160405180910390fd5b60648460ff1610612d68576040516340eff0e560e01b815260ff85166004820152602401610663565b60648360ff1610612d915760405163017c4c5960e01b815260ff84166004820152602401610663565b6127108261ffff161115612dbe57604051637dc12d1d60e01b815261ffff83166004820152602401610663565b61ffff8216612dd260ff8516612710615630565b612de260ff8716620f4240615630565b612dec9190615658565b61074b9190615658565b60006104688383613825565b805160609081906000612e16826008614fe8565b90506000816001600160401b03811115612e3257612e32613f2f565b604051908082528060200260200182016040528015612e5b578160200160208202803683370190505b5090506000826001600160401b03811115612e7857612e78613f2f565b604051908082528060200260200182016040528015612ea1578160200160208202803683370190505b5090506000805b85811015612fce5760005b6008811015612fc557600081612eca846008614fe8565b612ed49190614c38565b9050612ee1826020614fe8565b8b8481518110612ef357612ef361558b565b602002602001015160001c901c60020b868281518110612f1557612f1561558b565b60039290920b602092830291909101820152612f32908390614fe8565b612f3d906018614c38565b8b8481518110612f4f57612f4f61558b565b602002602001015160001c901c858281518110612f6e57612f6e61558b565b602002602001019060ff16908160ff1681525050858181518110612f9457612f9461558b565b602002602001015160030b600003612fac5750612fc5565b83612fb681615675565b94505050806001019050612eb3565b50600101612ea8565b50806001600160401b03811115612fe757612fe7613f2f565b604051908082528060200260200182016040528015613010578160200160208202803683370190505b509650806001600160401b0381111561302b5761302b613f2f565b604051908082528060200260200182016040528015613054578160200160208202803683370190505b50955060005b818110156130e8578381815181106130745761307461558b565b602002602001015188828151811061308e5761308e61558b565b602002602001019060030b908160030b815250508281815181106130b4576130b461558b565b60200260200101518782815181106130ce576130ce61558b565b60ff9092166020928302919091019091015260010161305a565b505050505050915091565b60008160000361310557506000919050565b600061310f613874565b905061311c836001614c38565b4340414443423a5a8860405160200161317998979695949392919097885260609690961b6001600160601b0319166020880152603487019490945260548601929092526074850152609484015260b483015260d482015260f40190565b6040516020818303038152906040528051906020012060001c61074e91906156a4565b82516000908015806131af575083518114155b156131cd5760405163360ee06360e21b815260040160405180910390fd5b806001036131f757846000815181106131e8576131e861558b565b60200260200101519150613376565b600061320a633b9aca0063ffffffff8616565b9050600061321d633b9aca006001615658565b63ffffffff16905060005b83811015613372578781815181106132425761324261558b565b602002602001015160ff166000031561336a57633b9aca0063ffffffff168782815181106132725761327261558b565b602002602001015163ffffffff1611156132cf578681815181106132985761329861558b565b6020908102919091010151604051631b4fdad960e11b815263ffffffff9091166004820152633b9aca006024820152604401610663565b828782815181106132e2576132e261558b565b6020026020010151633b9aca006132f991906156b8565b63ffffffff161161336a57818782815181106133175761331761558b565b602002602001015163ffffffff16101561336a5786818151811061333d5761333d61558b565b602002602001015163ffffffff16915087818151811061335f5761335f61558b565b602002602001015194505b600101613228565b5050505b8160ff1660000361339d5760405163b3cea44d60e01b815260006004820152602401610663565b509392505050565b600061046b825490565b6000886133bb886133a5565b106133cd57600194506133cd876138ac565b6000805b8a811015613440578a88106133e557600097505b60006133f18b8a6138fa565b90506134008d82878a8a611c88565b80156134235750878061342357506134218a63ffffffff8084169061390616565b155b1561343357925060019150613440565b50600197880197016133d1565b508015801561344d575085155b156134705761345b886138ac565b61346d8b8b8b8b8b60018b8b8b6133af565b91505b509998505050505050505050565b600061348d8261ffff1661391e565b60405160200161349d91906156d5565b60405160208183030381529060405261046b90615703565b606081518351146134d95760405163586cb9e160e01b815260040160405180910390fd5b6000600884516134e9919061572a565b6134f4906001614c38565b90506000816001600160401b0381111561351057613510613f2f565b604051908082528060200260200182016040528015613539578160200160208202803683370190505b50905060005b8281101561370a5760005b600881101561370157600081613561846008614fe8565b61356b9190614c38565b90508751811061357b5750613701565b627fffff60020b8882815181106135945761359461558b565b602002602001015160030b13806135cd5750627fffff1960020b8882815181106135c0576135c061558b565b602002602001015160030b125b1561360b578781815181106135e4576135e461558b565b602002602001015160030b604051632eb1d06960e01b815260040161066391815260200190565b87818151811061361d5761361d61558b565b602002602001015160030b60000361364857604051637c946ed760e01b815260040160405180910390fd5b613653826020614fe8565b8882815181106136655761366561558b565b602002602001015162ffffff1660001b901b8484815181106136895761368961558b565b6020026020010181815117915081815250508160206136a89190614fe8565b6136b3906018614c38565b8782815181106136c5576136c561558b565b602002602001015160ff1660001b901b8484815181106136e7576136e761558b565b60209081029190910101805190911790525060010161354a565b5060010161353f565b50949350505050565b63ffffffff60a01b60a09190911b166001600160a01b039091161790565b600061046b826130f3565b60408051608081018252600181526000602082018190529181018290526060810161376e633b9aca0063ffffffff8716565b63ffffffff1690529050600061378388611dda565b905060006137ac8260600151836080015185606001516137a288610c0d565b8660e00151613a26565b509050806009815181106137c2576137c261558b565b602090810291909101015160030b60408401526137de83613aec565b60048a0160006137f76001600160a01b038c168b61188b565b8152602001908152602001600020600088815260200190815260200160002081905550505050505050505050565b600081815260018301602052604081205461386c5750815460018181018455600084815260208082209093018490558454848252828601909352604090209190915561046b565b50600061046b565b60006350877ed646148061388b5750630235ddd046145b156138a9576040518060208160008060185afa6138a457fe5b505190505b90565b60006138b7826118ef565b905060005b8151811015610847576138f18282815181106138da576138da61558b565b60200260200101518461198890919063ffffffff16565b506001016138bc565b60006104688383613b0a565b60008181526001830160205260408120541515610468565b6060816000036139455750506040805180820190915260018152600360fc1b602082015290565b8160005b811561396f578061395981615675565b91506139689050600a8361572a565b9150613949565b6000816001600160401b0381111561398957613989613f2f565b6040519080825280601f01601f1916602001820160405280156139b3576020820181803683370190505b5090505b8415613a1e576139c8600183614c25565b91506139d5600a866156a4565b6139e0906030614c38565b60f81b8183815181106139f5576139f561558b565b60200101906001600160f81b031916908160001a905350613a17600a8661572a565b94506139b7565b949350505050565b60606000613a3560048661573e565b60408051602b8082526105808201909252919650602082016105608036833701905050915060005b8751811015613ad357613a8a878281518110613a7b57613a7b61558b565b60200260200101518787613b34565b83898381518110613a9d57613a9d61558b565b602002602001015160ff1681518110613ab857613ab861558b565b60039290920b60209283029190910190910152600101613a5d565b50613ae083866000613b34565b90509550959350505050565b600061046b8260000151836060015184604001518560200151613bdc565b6000826000018281548110613b2157613b2161558b565b9060005260206000200154905092915050565b60008360030b600003613b495750600061074e565b6000633b9aca00613b5e84600388900b615761565b613b689190615791565b633b9aca00613b8163ffffffff8716600389900b615761565b613b8b9190615791565b8660030b613b9991906157bf565b613ba391906157bf565b9050637fffffff811380613bbb5750637fffffff1981125b1561074b576040516344dc334160e01b815260048101829052602401610663565b600084613bea576000613bed565b60015b60ff1660001b905060088463ffffffff1660001b901b8117905060288363ffffffff1660001b901b8117905060488260ff1660001b901b81179050949350505050565b604080516101c081018252600080825260208201819052909182019081526060602082018190526040820181905260008183018190526080830181905260a0830181905260c0830181905260e08301819052610100830181905261012083015261014082018190526101609091015290565b60408051608081018252600080825260208201819052918101829052606081019190915290565b6040805160a081018252600080825260606020830181905292820183905282820152608081019190915290565b604080516101c08101825260008082526020820181905291810182905260608082018190526080820183905260a0820183905260c0820183905260e0820183905261010082018390526101208201839052610140820183905261016082018390526101808201929092526101a081019190915290565b50805460008255906000526020600020908101906104999190613dd5565b828054828255906000526020600020908101928215613dc5579160200282015b82811115613dc5578251825591602001919060010190613daa565b50613dd1929150613dd5565b5090565b5b80821115613dd15760008155600101613dd6565b6001600160a01b038116811461049957600080fd5b803561260e81613dea565b60008060408385031215613e1d57600080fd5b8235613e2881613dea565b946020939093013593505050565b63ffffffff8116811461049957600080fd5b803561260e81613e36565b600060208284031215613e6557600080fd5b813561074e81613e36565b60ff8116811461049957600080fd5b803561260e81613e70565b80356025811061260e57600080fd5b60008060408385031215613eac57600080fd5b8235613eb781613e70565b9150613ec560208401613e8a565b90509250929050565b6020808252825182820181905260009190848201906040850190845b81811015613f0657835183529284019291840191600101613eea565b50909695505050505050565b600060208284031215613f2457600080fd5b813561074e81613dea565b634e487b7160e01b600052604160045260246000fd5b6040516101c081016001600160401b0381118282101715613f6857613f68613f2f565b60405290565b604051601f8201601f191681016001600160401b0381118282101715613f9657613f96613f2f565b604052919050565b803561ffff8116811461260e57600080fd5b60006001600160401b03821115613fc957613fc9613f2f565b5060051b60200190565b600082601f830112613fe457600080fd5b81356020613ff9613ff483613fb0565b613f6e565b8083825260208201915060208460051b87010193508684111561401b57600080fd5b602086015b8481101561404057803561403381613e70565b8352918301918301614020565b509695505050505050565b8060030b811461049957600080fd5b803561260e8161404b565b600082601f83011261407657600080fd5b81356020614086613ff483613fb0565b8083825260208201915060208460051b8701019350868411156140a857600080fd5b602086015b848110156140405780356140c08161404b565b83529183019183016140ad565b6000604082840312156140df57600080fd5b604051604081016001600160401b03828210818311171561410257614102613f2f565b81604052829350843591508082111561411a57600080fd5b61412686838701613fd3565b8352602085013591508082111561413c57600080fd5b5061414985828601614065565b6020830152505092915050565b600082601f83011261416757600080fd5b81356020614177613ff483613fb0565b8083825260208201915060208460051b87010193508684111561419957600080fd5b602086015b848110156140405780356141b181613dea565b835291830191830161419e565b600082601f8301126141cf57600080fd5b813560206141df613ff483613fb0565b8083825260208201915060208460051b87010193508684111561420157600080fd5b602086015b8481101561404057803561421981613e36565b8352918301918301614206565b60006020828403121561423857600080fd5b81356001600160401b038082111561424f57600080fd5b908301906101c0828603121561426457600080fd5b61426c613f45565b61427583613e7f565b815261428360208401613f9e565b602082015261429460408401613e8a565b60408201526142a560608401613e48565b60608201526080830135828111156142bc57600080fd5b6142c8878286016140cd565b60808301525060a0830135828111156142e057600080fd5b6142ec878286016140cd565b60a0830152506142fe60c08401613e48565b60c082015261430f60e0840161405a565b60e082015261010061432281850161405a565b9082015261012061433484820161405a565b9082015261014061434684820161405a565b9082015261016061435884820161405a565b90820152610180838101358381111561437057600080fd5b61437c88828701614156565b8284015250506101a0808401358381111561439657600080fd5b6143a2888287016141be565b918301919091525095945050505050565b6000602082840312156143c557600080fd5b813561074e81613e70565b6000806000606084860312156143e557600080fd5b83356143f081613dea565b925060208401359150604084013561440781613e36565b809150509250925092565b634e487b7160e01b600052602160045260246000fd5b6025811061443857614438614412565b9052565b60008151808452602080850194506020840160005b8381101561447057815160ff1687529582019590820190600101614451565b509495945050505050565b60008151808452602080850194506020840160005b8381101561447057815160030b87529582019590820190600101614490565b6001600160a01b03169052565b60008151808452602080850194506020840160005b838110156144705781516001600160a01b0316875295820195908201906001016144d1565b60008151808452602080850194506020840160005b8381101561447057815163ffffffff168752958201959082019060010161450b565b805161ffff16825260006101c0602083015161454e602086018260ff169052565b5060408301516145616040860182614428565b5060608301518160608601526145798286018261443c565b91505060808301518482036080860152614593828261447b565b91505060a08301516145aa60a086018260ff169052565b5060c08301516145bf60c086018260ff169052565b5060e08301516145d760e086018263ffffffff169052565b506101008381015160ff1690850152610120808401516145f9828701826144af565b5050610140838101516001600160401b0316908501526101608084015160ff1690850152610180808401518583038287015261463583826144bc565b925050506101a08084015185830382870152610c9d83826144f6565b60a08152600061466460a083018561452d565b905082511515602083015260ff6020840151166040830152604083015160030b606083015263ffffffff60608401511660808301529392505050565b600080600080600060a086880312156146b857600080fd5b85356001600160401b03808211156146cf57600080fd5b6146db89838a01613fd3565b965060208801359150808211156146f157600080fd5b506146fe888289016141be565b945050604086013561470f81613e70565b9250606086013561471f81613dea565b949793965091946080013592915050565b60008151808452602080850194506020840160005b8381101561447057815187529582019590820190600101614745565b6020815263ffffffff82511660208201526000602083015160a0604084015261478d60c0840182614730565b90506040840151601f19808584030160608601526147ab8383614730565b92506060860151608086015260808601519150808584030160a0860152506107968282614730565b6005811061443857614438614412565b6020810161046b82846147d3565b80356001600160401b038116811461260e57600080fd5b600080600080600080600060e0888a03121561482357600080fd5b873561482e81613dea565b9650602061483d8982016147f1565b9650604089013561484d81613e36565b9550606089013561485d81613dea565b94506080890135935060a089013561487481613e70565b925060c08901356001600160401b038082111561489057600080fd5b818b0191508b601f8301126148a457600080fd5b8135818111156148b6576148b6613f2f565b6148c8601f8201601f19168501613f6e565b91508082528c848285010111156148de57600080fd5b808484018584013760008482840101525080935050505092959891949750929550565b80511515825260006101c0602083015161491f602086018215159052565b50604083015161493260408601826144af565b50606083015181606086015261494a828601826144bc565b9150506080830151614961608086018260030b9052565b5060a083015161497660a086018260030b9052565b5060c083015161498b60c086018260030b9052565b5060e08301516149a060e086018260030b9052565b50610100808401516149b68287018260030b9052565b50506101208381015163ffffffff81168683015250506101408381015163ffffffff8116868301525050610160838101519085015261018080840151908501526101a08084015185830382870152610c9d83826144f6565b6020815260006104686020830184614901565b60005b83811015614a3c578181015183820152602001614a24565b50506000910152565b60008151808452614a5d816020860160208601614a21565b601f01601f19169290920160200192915050565b6020815260006104686020830184614a45565b6001600160a01b0391909116815260200190565b600080600060608486031215614aad57600080fd5b614ab684613f9e565b92506020840135614ac681613e70565b9150614ad460408501613e8a565b90509250925092565b600060208284031215614aef57600080fd5b81356001600160401b0380821115614b0657600080fd5b908301906101c08286031215614b1b57600080fd5b614b23613f45565b614b2c83613f9e565b8152614b3a60208401613e7f565b6020820152614b4b60408401613e8a565b6040820152606083013582811115614b6257600080fd5b614b6e87828601613fd3565b606083015250608083013582811115614b8657600080fd5b614b9287828601614065565b608083015250614ba460a08401613e7f565b60a0820152614bb560c08401613e7f565b60c0820152614bc660e08401613e48565b60e0820152610100614bd9818501613e7f565b90820152610120614beb848201613dff565b90820152610140614bfd8482016147f1565b90820152610160614358848201613e7f565b634e487b7160e01b600052601160045260246000fd5b8181038181111561046b5761046b614c0f565b8082018082111561046b5761046b614c0f565b805161260e81613dea565b600060208284031215614c6857600080fd5b815161074e81613dea565b805160408084528151908401819052600091602091908201906060860190845b81811015614cb257835160ff1683529284019291840191600101614c93565b50508483015186820387850152805180835290840192506000918401905b8083101561404057835160030b8252928401926001929092019190840190614cd0565b60408152614d0760408201845160ff169052565b60006020840151614d1e606084018261ffff169052565b506040840151614d316080840182614428565b50606084015163ffffffff1660a083015260808401516101c060c08401819052614d5f610200850183614c73565b915060a0860151603f19808685030160e0870152614d7d8483614c73565b935060c08801519150610100614d9a8188018463ffffffff169052565b60e08901519250610120614db28189018560030b9052565b90890151925061014090614dca8883018560030b9052565b8901519250610160614de08882018560030b9052565b90890151925061018090614df88883018560030b9052565b89015192506101a0614e0e8882018560030b9052565b818a01519350828887030185890152614e2786856144bc565b9550808a01519450505080868503016101e08701525050614e4882826144f6565b925050508260208301529392505050565b6000815160408452614e6e604085018261443c565b905060208301518482036020860152610796828261447b565b63ffffffff8316815260406020820152614ea760408201835160ff169052565b60006020830151614ebe606084018261ffff169052565b506040830151614ed16080840182614428565b50606083015163ffffffff1660a083015260808301516101c060c08401819052614eff610200850183614e59565b915060a0850151603f19808685030160e0870152614f1d8483614e59565b935060c08701519150610100614f3a8188018463ffffffff169052565b60e08801519250610120614f528189018560030b9052565b90880151925061014090614f6a8883018560030b9052565b8801519250610160614f808882018560030b9052565b90880151925061018090614f988883018560030b9052565b88015192506101a0614fae8882018560030b9052565b818901519350828887030185890152614fc786856144bc565b9550808901519450505080868503016101e08701525050610c9d82826144f6565b808202811582820484141761046b5761046b614c0f565b6001600160a01b03929092168252602082015260400190565b8051801515811461260e57600080fd5b600060a0828403121561503a57600080fd5b60405160a081018181106001600160401b038211171561505c5761505c613f2f565b604052825161506a81613e70565b8152602083015161507a81613e70565b602082015261508b60408401615018565b6040820152606083015168ffffffffffffffffff811681146150ac57600080fd5b606082015260808301516150bf81613dea565b60808201529392505050565b6000602082840312156150dd57600080fd5b5051919050565b60006101a06150f48484516144af565b602083015161510660208601826144af565b50604083015161511960408601826144af565b50606083015161512e606086018260ff169052565b506080830151615143608086018260ff169052565b5060a083015161515860a086018260ff169052565b5060c083015161516d60c086018260ff169052565b5060e083015161518560e086018263ffffffff169052565b50610100838101516001600160401b03169085015261012080840151908501526101408084015190850152610160808401519085015261018080840151818601839052610c9d83870182614a45565b6040815260006151e760408301856150e4565b90508260208301529392505050565b600082601f83011261520757600080fd5b81516020615217613ff483613fb0565b8083825260208201915060208460051b87010193508684111561523957600080fd5b602086015b8481101561404057805161525181613dea565b835291830191830161523e565b805161260e8161404b565b805161260e81613e36565b600082601f83011261528557600080fd5b81516020615295613ff483613fb0565b8083825260208201915060208460051b8701019350868411156152b757600080fd5b602086015b848110156140405780516152cf81613e36565b83529183019183016152bc565b60006101c082840312156152ef57600080fd5b6152f7613f45565b905061530282615018565b815261531060208301615018565b602082015261532160408301614c4b565b604082015260608201516001600160401b038082111561534057600080fd5b61534c858386016151f6565b606084015261535d6080850161525e565b608084015261536e60a0850161525e565b60a084015261537f60c0850161525e565b60c084015261539060e0850161525e565b60e084015261010091506153a582850161525e565b8284015261012091506153b9828501615269565b8284015261014091506153cd828501615269565b8284015261016091508184015182840152610180915081840151828401526101a09150818401518181111561540157600080fd5b61540d86828701615274565b8385015250505092915050565b60006020828403121561542c57600080fd5b81516001600160401b0381111561544257600080fd5b613a1e848285016152dc565b6000806040838503121561546157600080fd5b82516001600160401b0381111561547757600080fd5b615483858286016152dc565b925050602083015161549481613e70565b809150509250929050565b60006101406001600160401b038d16835263ffffffff8c1660208401526154c9604084018c6147d3565b6001600160a01b038a1660608401526080830189905260ff881660a084015260c0830187905260e0830181905261550281840187614a45565b90508281036101008401526155178186614901565b915050826101208301529b9a5050505050505050505050565b63ffffffff8316815260406020820152600061074b604083018461452d565b60006020828403121561556157600080fd5b61046882615018565b6001600160a01b039390931683526020830191909152604082015260600190565b634e487b7160e01b600052603260045260246000fd5b6001600160a01b038a811682526001600160401b038a16602083015263ffffffff8916604083015260ff8881166060840152908716608083015260a08201869052841660c082015260e08101839052610120610100820181905260009061560a83820185614a45565b9c9b505050505050505050505050565b634e487b7160e01b600052603160045260246000fd5b63ffffffff81811683821602808216919082811461565057615650614c0f565b505092915050565b63ffffffff818116838216019080821115612ce057612ce0614c0f565b60006001820161568757615687614c0f565b5060010190565b634e487b7160e01b600052601260045260246000fd5b6000826156b3576156b361568e565b500690565b63ffffffff828116828216039080821115612ce057612ce0614c0f565b6553544f52595f60d01b8152600082516156f6816006850160208701614a21565b9190910160060192915050565b80516020808301519190811015615724576000198160200360031b1b821691505b50919050565b6000826157395761573961568e565b500490565b600063ffffffff808416806157555761575561568e565b92169190910492915050565b80820260008212600160ff1b8414161561577d5761577d614c0f565b818105831482151761046b5761046b614c0f565b6000826157a0576157a061568e565b600160ff1b8214600019841416156157ba576157ba614c0f565b500590565b808201828112600083128015821682158216171561565057615650614c0f56fe22573091f17911fb166032a3d9e0554aa73d31b7b7ddea4a4dd2995650af84bda26469706673582212204bb3ece109dd8a9ae3d08192ff59a86deb282fd9fc1bf4e786f6778a52e9950a64736f6c63430008170033",
  "libraries": {
    "EventLib": "0x45D129F2E7F8A7b2b526F80365Ada7f25Ba7eF7F",
    "StoryLib": "0x0bDDE3236D22B33bF09CdE2c576Be6a54e2C1F71",
    "MonsterLib": "0xBb611DaA59d2D0EEd9B6e73e88526745a672D724",
    "GOCLib": "0x7D2c213e7AdEEEeDF16A173BAe33000AFE4F419A"
  },
  "devdoc": {
    "errors": {
      "InvalidInitialization()": [
        {
          "details": "The contract is already initialized."
        }
      ],
      "NotInitializing()": [
        {
          "details": "The contract is not initializing."
        }
      ]
    },
    "events": {
      "Initialized(uint64)": {
        "details": "Triggered when the contract has been initialized or reinitialized."
      }
    },
    "kind": "dev",
    "methods": {
      "created()": {
        "returns": {
          "_0": "Creation timestamp"
        }
      },
      "createdBlock()": {
        "returns": {
          "_0": "Creation block number"
        }
      },
      "getObjectMeta(uint32)": {
        "details": "represent object registration if non zero values"
      },
      "getRandomObject(uint8[],uint32[],uint8,address,uint256)": {
        "details": "Chances in range 0-1e9"
      },
      "increaseRevision(address)": {
        "details": "Revision should be increased on each contract upgrade"
      },
      "isController(address)": {
        "details": "Return true if given address is controller"
      },
      "previousImplementation()": {
        "details": "Previous logic implementation"
      },
      "revision()": {
        "details": "Contract upgrade counter"
      }
    },
    "version": 1
  },
  "userdoc": {
    "kind": "user",
    "methods": {
      "CONTROLLABLE_VERSION()": {
        "notice": "Version of the contract"
      },
      "VERSION()": {
        "notice": "Version of the contract"
      },
      "controller()": {
        "notice": "Return controller address saved in the contract slot"
      },
      "created()": {
        "notice": "Return creation timestamp"
      },
      "createdBlock()": {
        "notice": "Return creation block number"
      },
      "isGovernance(address)": {
        "notice": "Return true if given address is setup as governance in Controller"
      }
    },
    "version": 1
  },
  "storageLayout": {
    "storage": [],
    "types": null
  }
}