{
  "address": "0x6f2fb669B52e4ED21a019e9db197F27f4B88eBf9",
  "abi": [
    {
      "inputs": [
        {
          "internalType": "address",
          "name": "token_",
          "type": "address"
        },
        {
          "internalType": "address",
          "name": "controller_",
          "type": "address"
        }
      ],
      "stateMutability": "nonpayable",
      "type": "constructor"
    },
    {
      "inputs": [],
      "name": "AlreadyInitialized",
      "type": "error"
    },
    {
      "inputs": [],
      "name": "NotInitialized",
      "type": "error"
    },
    {
      "inputs": [],
      "name": "VERSION",
      "outputs": [
        {
          "internalType": "string",
          "name": "",
          "type": "string"
        }
      ],
      "stateMutability": "view",
      "type": "function"
    },
    {
      "inputs": [
        {
          "internalType": "uint256",
          "name": "dungeonBiomeLevel",
          "type": "uint256"
        },
        {
          "internalType": "uint256",
          "name": "heroLvl",
          "type": "uint256"
        }
      ],
      "name": "amountForDungeon",
      "outputs": [
        {
          "internalType": "uint256",
          "name": "",
          "type": "uint256"
        }
      ],
      "stateMutability": "view",
      "type": "function"
    },
    {
      "inputs": [],
      "name": "controller",
      "outputs": [
        {
          "internalType": "contract IController",
          "name": "",
          "type": "address"
        }
      ],
      "stateMutability": "view",
      "type": "function"
    },
    {
      "inputs": [
        {
          "internalType": "uint64",
          "name": "",
          "type": "uint64"
        }
      ],
      "name": "dungeonMinted",
      "outputs": [
        {
          "internalType": "bool",
          "name": "",
          "type": "bool"
        }
      ],
      "stateMutability": "view",
      "type": "function"
    },
    {
      "inputs": [],
      "name": "finalize",
      "outputs": [],
      "stateMutability": "nonpayable",
      "type": "function"
    },
    {
      "inputs": [],
      "name": "finalized",
      "outputs": [
        {
          "internalType": "bool",
          "name": "",
          "type": "bool"
        }
      ],
      "stateMutability": "view",
      "type": "function"
    },
    {
      "inputs": [
        {
          "internalType": "uint64",
          "name": "dungeonId",
          "type": "uint64"
        },
        {
          "internalType": "uint256",
          "name": "dungeonBiomeLevel",
          "type": "uint256"
        },
        {
          "internalType": "uint256",
          "name": "heroLvl",
          "type": "uint256"
        }
      ],
      "name": "mintDungeonReward",
      "outputs": [
        {
          "internalType": "uint256",
          "name": "amount",
          "type": "uint256"
        }
      ],
      "stateMutability": "nonpayable",
      "type": "function"
    },
    {
      "inputs": [
        {
          "internalType": "uint256",
          "name": "amount",
          "type": "uint256"
        }
      ],
      "name": "mintForMyrd",
      "outputs": [],
      "stateMutability": "nonpayable",
      "type": "function"
    },
    {
      "inputs": [],
      "name": "myrdToken",
      "outputs": [
        {
          "internalType": "address",
          "name": "",
          "type": "address"
        }
      ],
      "stateMutability": "view",
      "type": "function"
    },
    {
      "inputs": [
        {
          "internalType": "bool",
          "name": "value",
          "type": "bool"
        }
      ],
      "name": "pause",
      "outputs": [],
      "stateMutability": "nonpayable",
      "type": "function"
    },
    {
      "inputs": [
        {
          "internalType": "address",
          "name": "myrdToken_",
          "type": "address"
        }
      ],
      "name": "setMyrdToken",
      "outputs": [],
      "stateMutability": "nonpayable",
      "type": "function"
    },
    {
      "inputs": [],
      "name": "token",
      "outputs": [
        {
          "internalType": "contract IGameToken",
          "name": "",
          "type": "address"
        }
      ],
      "stateMutability": "view",
      "type": "function"
    },
    {
      "inputs": [
        {
          "internalType": "address",
          "name": "value",
          "type": "address"
        }
      ],
      "name": "transferMinter",
      "outputs": [],
      "stateMutability": "nonpayable",
      "type": "function"
    }
  ],
  "transactionHash": "0x41abdb25051b5b98a8e0d0b6a79bf398f58a41131485503325127d4b96f58209",
  "args": [
    "0x6B2e0fACD2F2A8f407aC591067Ac06b5d29247E4",
    "0x6ce857d3037e87465b003aCbA264DDF2Cec6D5E4"
  ],
  "numDeployments": 1,
  "solcInputHash": "26aa46af27336d196c04997c06413167",
  "bytecode": "0x60c060405234801561001057600080fd5b50604051610e0f380380610e0f83398101604081905261002f91610062565b6001600160a01b0391821660a05216608052610095565b80516001600160a01b038116811461005d57600080fd5b919050565b6000806040838503121561007557600080fd5b61007e83610046565b915061008c60208401610046565b90509250929050565b60805160a051610d246100eb600039600081816101c50152818161024a0152818161039501528181610463015281816106a001526107a601526000818161019e015281816107e701526108dc0152610d246000f3fe608060405234801561001057600080fd5b50600436106100af5760003560e01c806302329a29146100b45780634bb278f3146100c95780636ff9fe9b146100d1578063a06db52d146100ff578063ab05b5aa14610132578063b1bd8fe914610145578063b3f05b9714610166578063cba04d1f14610173578063e7bf7e7814610186578063f77c479114610199578063fc0c546a146101c0578063fe99ad5a146101e7578063ffa1ad74146101fa575b600080fd5b6100c76100c23660046109b6565b61022b565b005b6100c76102b2565b6001546100e99061010090046001600160a01b031681565b6040516100f691906109d3565b60405180910390f35b61012261010d366004610a04565b60006020819052908152604090205460ff1681565b60405190151581526020016100f6565b6100c7610140366004610a1f565b6102c8565b610158610153366004610a38565b610414565b6040519081526020016100f6565b6001546101229060ff1681565b6100c7610181366004610a6f565b6105b4565b610158610194366004610a8c565b610612565b6100e97f000000000000000000000000000000000000000000000000000000000000000081565b6100e97f000000000000000000000000000000000000000000000000000000000000000081565b6100c76101f5366004610a6f565b610748565b61021e60405180604001604052806005815260200164312e302e3160d81b81525081565b6040516100f69190610abf565b6102336107db565b6040516302329a2960e01b815281151560048201527f00000000000000000000000000000000000000000000000000000000000000006001600160a01b0316906302329a29906024015b600060405180830381600087803b15801561029757600080fd5b505af11580156102ab573d6000803e3d6000fd5b5050505050565b6102ba6107db565b6001805460ff191681179055565b60015461010090046001600160a01b03166102f6576040516321c4e35760e21b815260040160405180910390fd5b8015610411576001546040516323b872dd60e01b815233600482015261dead6024820152604481018390526101009091046001600160a01b0316906323b872dd906064016020604051808303816000875af1158015610359573d6000803e3d6000fd5b505050506040513d601f19601f8201168201806040525081019061037d9190610b0e565b506040516340c10f1960e01b81526001600160a01b037f000000000000000000000000000000000000000000000000000000000000000016906340c10f19906103cc9033908590600401610b2b565b6020604051808303816000875af11580156103eb573d6000803e3d6000fd5b505050506040513d601f19601f8201168201806040525081019061040f9190610b0e565b505b50565b60006014831061045c5760405162461bcd60e51b815260206004820152600e60248201526d546f6f20686967682062696f6d6560901b60448201526064015b60405180910390fd5b60006104ea7f00000000000000000000000000000000000000000000000000000000000000006001600160a01b03166318160ddd6040518163ffffffff1660e01b8152600401602060405180830381865afa1580156104bf573d6000803e3d6000fd5b505050506040513d601f19601f820116820180604052508101906104e39190610b44565b60016108a9565b9050600061052b61051c836105126a084595161401484a000000670de0b6b3a7640000610b73565b6104e39190610b8a565b6801158e460913d000006108c1565b9050610538600386610c90565b6105429082610b73565b61054d906004610b73565b90508460010361056557610562600a82610b8a565b90505b6000610572600586610b8a565b61057d906001610c9f565b9050858111156105a9576105918682610cb2565b61059c906002610cc5565b6105a69083610b8a565b91505b509150505b92915050565b6105bc6107db565b60015461010090046001600160a01b0316156105ea5760405162dc149f60e41b815260040160405180910390fd5b600180546001600160a01b0390921661010002610100600160a81b0319909216919091179055565b600061061c6108d0565b67ffffffffffffffff841660009081526020819052604090205460ff16156106775760405162461bcd60e51b815260206004820152600e60248201526d105b1c9958591e481b5a5b9d195960921b6044820152606401610453565b6106818383610414565b9050801561071c576040516340c10f1960e01b81526001600160a01b037f000000000000000000000000000000000000000000000000000000000000000016906340c10f19906106d79033908590600401610b2b565b6020604051808303816000875af11580156106f6573d6000803e3d6000fd5b505050506040513d601f19601f8201168201806040525081019061071a9190610b0e565b505b67ffffffffffffffff9093166000908152602081905260409020805460ff191660011790555090919050565b6107506107db565b60015460ff161561078f5760405162461bcd60e51b8152602060048201526009602482015268199a5b985b1a5e995960ba1b6044820152606401610453565b604051637e51dad560e11b81526001600160a01b037f0000000000000000000000000000000000000000000000000000000000000000169063fca3b5aa9061027d9084906004016109d3565b336001600160a01b03167f00000000000000000000000000000000000000000000000000000000000000006001600160a01b0316635aa6e6756040518163ffffffff1660e01b8152600401602060405180830381865afa158015610843573d6000803e3d6000fd5b505050506040513d601f19601f820116820180604052508101906108679190610cd1565b6001600160a01b0316146108a75760405162461bcd60e51b81526020600482015260076024820152662737ba1033b7bb60c91b6044820152606401610453565b565b60008183116108b857816108ba565b825b9392505050565b60008183106108b857816108ba565b336001600160a01b03167f00000000000000000000000000000000000000000000000000000000000000006001600160a01b031663683fedf76040518163ffffffff1660e01b8152600401602060405180830381865afa158015610938573d6000803e3d6000fd5b505050506040513d601f19601f8201168201806040525081019061095c9190610cd1565b6001600160a01b0316146108a75760405162461bcd60e51b81526020600482015260136024820152724e6f742064756e67656f6e20666163746f727960681b6044820152606401610453565b801515811461041157600080fd5b6000602082840312156109c857600080fd5b81356108ba816109a8565b6001600160a01b0391909116815260200190565b803567ffffffffffffffff811681146109ff57600080fd5b919050565b600060208284031215610a1657600080fd5b6108ba826109e7565b600060208284031215610a3157600080fd5b5035919050565b60008060408385031215610a4b57600080fd5b50508035926020909101359150565b6001600160a01b038116811461041157600080fd5b600060208284031215610a8157600080fd5b81356108ba81610a5a565b600080600060608486031215610aa157600080fd5b610aaa846109e7565b95602085013595506040909401359392505050565b60006020808352835180602085015260005b81811015610aed57858101830151858201604001528201610ad1565b506000604082860101526040601f19601f8301168501019250505092915050565b600060208284031215610b2057600080fd5b81516108ba816109a8565b6001600160a01b03929092168252602082015260400190565b600060208284031215610b5657600080fd5b5051919050565b634e487b7160e01b600052601160045260246000fd5b80820281158282048414176105ae576105ae610b5d565b600082610ba757634e487b7160e01b600052601260045260246000fd5b500490565b600181815b80851115610be7578160001904821115610bcd57610bcd610b5d565b80851615610bda57918102915b93841c9390800290610bb1565b509250929050565b600082610bfe575060016105ae565b81610c0b575060006105ae565b8160018114610c215760028114610c2b57610c47565b60019150506105ae565b60ff841115610c3c57610c3c610b5d565b50506001821b6105ae565b5060208310610133831016604e8410600b8410161715610c6a575081810a6105ae565b610c748383610bac565b8060001904821115610c8857610c88610b5d565b029392505050565b60006108ba60ff841683610bef565b808201808211156105ae576105ae610b5d565b818103818111156105ae576105ae610b5d565b60006108ba8383610bef565b600060208284031215610ce357600080fd5b81516108ba81610a5a56fea2646970667358221220f43bcd404adf222665b826edc10183dcf8408186ed761d14687cae9ea3c1a45e64736f6c63430008170033",
  "devdoc": {
    "kind": "dev",
    "methods": {
      "finalize()": {
        "details": "Stop possibility change minter"
      },
      "mintForMyrd(uint256)": {
        "params": {
          "amount": "Amount to mint. Assume, that the same {amount} of {myrdToken} is approved by the msg.sender"
        }
      }
    },
    "stateVariables": {
      "VERSION": {
        "details": "Should be incremented when contract changed"
      }
    },
    "version": 1
  },
  "userdoc": {
    "kind": "user",
    "methods": {
      "VERSION()": {
        "notice": "Version of the contract"
      },
      "mintForMyrd(uint256)": {
        "notice": "Mint game token in exchange to {myrdToken}, rate 1:1"
      },
      "myrdToken()": {
        "notice": "Token for which you can exchange the game token"
      }
    },
    "version": 1
  },
  "storageLayout": {
    "storage": [
      {
        "astId": 98298,
        "contract": "contracts/token/Minter.sol:Minter",
        "label": "dungeonMinted",
        "offset": 0,
        "slot": "0",
        "type": "t_mapping(t_uint64,t_bool)"
      },
      {
        "astId": 98300,
        "contract": "contracts/token/Minter.sol:Minter",
        "label": "finalized",
        "offset": 0,
        "slot": "1",
        "type": "t_bool"
      },
      {
        "astId": 98303,
        "contract": "contracts/token/Minter.sol:Minter",
        "label": "myrdToken",
        "offset": 1,
        "slot": "1",
        "type": "t_address"
      }
    ],
    "types": {
      "t_address": {
        "encoding": "inplace",
        "label": "address",
        "numberOfBytes": "20"
      },
      "t_bool": {
        "encoding": "inplace",
        "label": "bool",
        "numberOfBytes": "1"
      },
      "t_mapping(t_uint64,t_bool)": {
        "encoding": "mapping",
        "key": "t_uint64",
        "label": "mapping(uint64 => bool)",
        "numberOfBytes": "32",
        "value": "t_bool"
      },
      "t_uint64": {
        "encoding": "inplace",
        "label": "uint64",
        "numberOfBytes": "8"
      }
    }
  }
}