{
  "address": "0x71d63e1f587e175D4281F3a4285Cafe38d233854",
  "abi": [
    {
      "inputs": [],
      "name": "EquippedItemsExist",
      "type": "error"
    },
    {
      "inputs": [
        {
          "internalType": "address",
          "name": "sender",
          "type": "address"
        }
      ],
      "name": "ErrorNotDeployer",
      "type": "error"
    },
    {
      "inputs": [
        {
          "internalType": "address",
          "name": "sender",
          "type": "address"
        }
      ],
      "name": "ErrorNotHeroController",
      "type": "error"
    },
    {
      "inputs": [
        {
          "internalType": "uint256",
          "name": "index",
          "type": "uint256"
        },
        {
          "internalType": "uint256",
          "name": "length",
          "type": "uint256"
        }
      ],
      "name": "OutOfBounds",
      "type": "error"
    },
    {
      "inputs": [
        {
          "internalType": "uint256",
          "name": "value",
          "type": "uint256"
        }
      ],
      "name": "TooHighValue",
      "type": "error"
    },
    {
      "inputs": [
        {
          "internalType": "uint256",
          "name": "heroClass",
          "type": "uint256"
        }
      ],
      "name": "UnknownHeroClass",
      "type": "error"
    },
    {
      "inputs": [],
      "name": "ZeroValueNotAllowed",
      "type": "error"
    },
    {
      "anonymous": false,
      "inputs": [
        {
          "indexed": false,
          "internalType": "address",
          "name": "token",
          "type": "address"
        },
        {
          "indexed": false,
          "internalType": "uint256",
          "name": "tokenId",
          "type": "uint256"
        },
        {
          "indexed": false,
          "internalType": "bytes32",
          "name": "index",
          "type": "bytes32"
        },
        {
          "indexed": false,
          "internalType": "uint256",
          "name": "value",
          "type": "uint256"
        },
        {
          "indexed": false,
          "internalType": "uint8",
          "name": "ngLevel",
          "type": "uint8"
        }
      ],
      "name": "HeroCustomDataChangedNg",
      "type": "event"
    },
    {
      "anonymous": false,
      "inputs": [
        {
          "indexed": false,
          "internalType": "address",
          "name": "token",
          "type": "address"
        },
        {
          "indexed": false,
          "internalType": "uint256",
          "name": "tokenId",
          "type": "uint256"
        }
      ],
      "name": "HeroCustomDataCleared",
      "type": "event"
    },
    {
      "anonymous": false,
      "inputs": [
        {
          "indexed": false,
          "internalType": "address",
          "name": "heroToken",
          "type": "address"
        },
        {
          "indexed": false,
          "internalType": "uint256",
          "name": "heroTokenId",
          "type": "uint256"
        },
        {
          "components": [
            {
              "internalType": "uint32",
              "name": "level",
              "type": "uint32"
            },
            {
              "internalType": "uint32",
              "name": "experience",
              "type": "uint32"
            },
            {
              "internalType": "uint32",
              "name": "life",
              "type": "uint32"
            },
            {
              "internalType": "uint32",
              "name": "mana",
              "type": "uint32"
            },
            {
              "internalType": "uint32",
              "name": "lifeChances",
              "type": "uint32"
            }
          ],
          "indexed": false,
          "internalType": "struct IStatController.ChangeableStats",
          "name": "stats",
          "type": "tuple"
        }
      ],
      "name": "NewHeroInited",
      "type": "event"
    },
    {
      "inputs": [],
      "name": "DEATH_COUNT_HASH",
      "outputs": [
        {
          "internalType": "bytes32",
          "name": "",
          "type": "bytes32"
        }
      ],
      "stateMutability": "view",
      "type": "function"
    },
    {
      "inputs": [],
      "name": "HERO_CLASS_HASH",
      "outputs": [
        {
          "internalType": "bytes32",
          "name": "",
          "type": "bytes32"
        }
      ],
      "stateMutability": "view",
      "type": "function"
    },
    {
      "inputs": [],
      "name": "KARMA_HASH",
      "outputs": [
        {
          "internalType": "bytes32",
          "name": "",
          "type": "bytes32"
        }
      ],
      "stateMutability": "view",
      "type": "function"
    },
    {
      "inputs": [],
      "name": "LEVEL_UP_SUM",
      "outputs": [
        {
          "internalType": "int32",
          "name": "",
          "type": "int32"
        }
      ],
      "stateMutability": "view",
      "type": "function"
    }
  ],
  "transactionHash": "0x0dfa854de08d2ac052157a206b8d6cb2d609d2562878a5bc2d9d78e95669af5b",
  "args": [],
  "numDeployments": 7,
  "solcInputHash": "1c5f5fd0b61f54e5cdb86891b80cc3ef",
  "bytecode": "0x61354761003a600b82828239805160001a60731461002d57634e487b7160e01b600052600060045260246000fd5b30600052607381538281f3fe73000000000000000000000000000000000000000030146080604052600436106100825760003560e01c8063089aa40d146100875780630c2bd671146100a957806324642164146100c95780635a1b0ae3146100e957806367937dd114610111578063bc36137214610125578063d183e1b514610146578063f0a31ecc14610155575b600080fd5b81801561009357600080fd5b506100a76100a2366004612ce0565b610170565b005b8180156100b557600080fd5b506100a76100c4366004612d26565b610298565b8180156100d557600080fd5b506100a76100e4366004612d78565b610451565b6100fe6a111150551217d0d3d5539560aa1b81565b6040519081526020015b60405180910390f35b6100fe694845524f5f434c41535360b01b81565b610138610133366004612dc0565b610539565b604051610108929190612e1f565b6100fe644b41524d4160d81b81565b61015d600581565b60405160039190910b8152602001610108565b600061017a610a59565b905060006101888585610a7d565b9050600061019587610ad2565b905061019f610a59565b60008381526006919091016020526040902054156101d0576040516303a684c160e51b815260040160405180910390fd5b60006101dd848888610b6a565b6080015160008481526020869052604081209192506101fc9190612bf3565b6000838152600385016020526040812061021591612bf3565b6000838152600285016020526040812061022e91612bf3565b600061023b858588610c8e565b90506102828585600160008560008151811061025957610259612e73565b60200260200101518660018151811061027457610274612e73565b602002602001015188610cc8565b61028d838989610e1b565b505050505050505050565b60006102a385610ad2565b905060006102b18585610a7d565b905060006102c0888386610c8e565b9050610321888360016000856000815181106102de576102de612e73565b6020026020010151866001815181106102f9576102f9612e73565b60200260200101518760028151811061031457610314612e73565b6020026020010151610cc8565b7f04bfc2c521fc80553ed48f0c6811371ee4c7f94f912eba0835d44c6e07b06f8586866040518060a00160405280600163ffffffff168152602001600063ffffffff1681526020018560008151811061037c5761037c612e73565b602002602001015163ffffffff168152602001856001815181106103a2576103a2612e73565b602002602001015163ffffffff168152602001856002815181106103c8576103c8612e73565b60209081029190910181015163ffffffff908116909252604080516001600160a01b039096168652858201949094528251821685850152820151811660608086019190915292820151811660808086019190915292820151811660a08501529101511660c082015260e00160405180910390a161044788848888610fef565b5050505050505050565b61045a8361110b565b6104c6836001600160a01b031663016dff5d6040518163ffffffff1660e01b8152600401602060405180830381865afa15801561049b573d6000803e3d6000fd5b505050506040513d601f19601f820116820180604052508101906104bf9190612e89565b838361119a565b61053384846001600160a01b031663016dff5d6040518163ffffffff1660e01b8152600401602060405180830381865afa158015610508573d6000803e3d6000fd5b505050506040513d601f19601f8201168201806040525081019061052c9190612e89565b8484610fef565b50505050565b606060008061054a84840185612ea6565b905090508060000361057d57610571866105676020870187612eef565b866020013561150d565b60009250925050610a51565b6000856001600160a01b03166331423c266040518163ffffffff1660e01b8152600401602060405180830381865afa1580156105bd573d6000803e3d6000fd5b505050506040513d601f19601f820116820180604052508101906105e19190612e89565b60408051602b80825261058082019092529192506000919060208201610560803683370190505090506000836001600160401b0381111561062457610624612f22565b60405190808252806020026020018201604052801561064d578160200160208202803683370190505b50905060005b848110156108e9576000805b828110156106db5761067460608b018b612ea6565b8481811061068457610684612e73565b90506020020160208101906106999190612eef565b6001600160a01b03168482815181106106b4576106b4612e73565b60200260200101516001600160a01b0316036106d357600191506106db565b60010161065f565b5080156106e857506108e1565b6001600160a01b0385166382b538de61070460608c018c612ea6565b8581811061071457610714612e73565b90506020020160208101906107299190612eef565b6040518263ffffffff1660e01b81526004016107459190612f38565b61018060405180830381865afa158015610763573d6000803e3d6000fd5b505050506040513d601f19601f820116820180604052508101906107879190613085565b60a001516107959088613152565b96506000806001600160a01b03871663010759756107b660608e018e612ea6565b878181106107c6576107c6612e73565b90506020020160208101906107db9190612eef565b6107e860808f018f612ea6565b888181106107f8576107f8612e73565b905060200201356040518363ffffffff1660e01b815260040161081c929190613179565b600060405180830381865afa158015610839573d6000803e3d6000fd5b505050506040513d6000823e601f3d908101601f19168201604052610861919081019061322b565b91509150610878866108738484611592565b611640565b5061088660608c018c612ea6565b8581811061089657610896612e73565b90506020020160208101906108ab9190612eef565b8585815181106108bd576108bd612e73565b60200260200101906001600160a01b031690816001600160a01b0316815250505050505b600101610653565b50600061091061090a8b61090060208c018c612eef565b8b6020013561150d565b84611640565b9050610931836108738c61092760208d018d612eef565b8c6020013561169e565b50610951836108738c61094760208d018d612eef565b8c602001356116b3565b50610a4981848b6001600160a01b031663016dff5d6040518163ffffffff1660e01b8152600401602060405180830381865afa158015610995573d6000803e3d6000fd5b505050506040513d601f19601f820116820180604052508101906109b99190612e89565b6001600160a01b0316631789b7b16109d460208e018e612eef565b6040518263ffffffff1660e01b81526004016109f09190612f38565b602060405180830381865afa158015610a0d573d6000803e3d6000fd5b505050506040513d601f19601f82011682018060405250810190610a3191906132ed565b60ff16610a4460608d0160408e01613308565b6116c8565b965050505050505b935093915050565b7fca9e8235a410bd2656fc43f888ab589425034944963c2881072ee821e700e60090565b60006001600160401b03821115610aaf57604051633995b34160e01b8152600481018390526024015b60405180910390fd5b5067ffffffffffffffff60a01b60a09190911b166001600160a01b039091161790565b600080826001600160a01b031663016dff5d6040518163ffffffff1660e01b8152600401602060405180830381865afa158015610b13573d6000803e3d6000fd5b505050506040513d601f19601f82011682018060405250810190610b379190612e89565b90506001600160a01b0381163314610b6457336040516303f2374960e01b8152600401610aa69190612f38565b92915050565b6040805160a081018252600080825260208201819052918101829052606081018290526080810182905290610bbb6004860182610ba78787610a7d565b8152602001908152602001600020546119eb565b90506040518060a0016040528082600081518110610bdb57610bdb612e73565b602002602001015163ffffffff16815260200182600181518110610c0157610c01612e73565b602002602001015163ffffffff16815260200182600281518110610c2757610c27612e73565b602002602001015163ffffffff16815260200182600381518110610c4d57610c4d612e73565b602002602001015163ffffffff16815260200182600481518110610c7357610c73612e73565b602002602001015163ffffffff168152509150509392505050565b6060610c9b848484611a60565b6000838152602085905260409020610cbf81846001610cb982611b67565b51611bf0565b95945050505050565b63ffffffff811615801590610ce1575063ffffffff8316155b15610ceb57600192505b60408051600580825260c082019092526000916020820160a0803683370190505090508581600081518110610d2257610d22612e73565b602002602001019063ffffffff16908163ffffffff16815250508481600181518110610d5057610d50612e73565b602002602001019063ffffffff16908163ffffffff16815250508381600281518110610d7e57610d7e612e73565b602002602001019063ffffffff16908163ffffffff16815250508281600381518110610dac57610dac612e73565b602002602001019063ffffffff16908163ffffffff16815250508181600481518110610dda57610dda612e73565b602002602001019063ffffffff16908163ffffffff1681525050610dfd81611dba565b60009788526004909801602052505060409094209490945550505050565b604051630bcd418b60e41b81526000906001600160a01b0385169063bcd418b090610e4c9086908690600401613179565b60a060405180830381865afa158015610e69573d6000803e3d6000fd5b505050506040513d601f19601f82011682018060405250810190610e8d9190613335565b6020015190508060ff16600003610eb75760405163273e150360e21b815260040160405180910390fd5b6000610ec46001836133d4565b9050600080610f126a111150551217d0d3d5539560aa1b610ee3610a59565b600a016000610ef68a8a8960ff16611e3c565b8152602001908152602001600020611e9e90919063ffffffff16565b91509150818015610f2257508015155b15610faf57610f726a111150551217d0d3d5539560aa1b82610f42610a59565b600a016000610f558b8b8b60ff16611e3c565b8152602001908152602001600020611ebc9092919063ffffffff16565b506000805160206134f283398151915286866a111150551217d0d3d5539560aa1b8488604051610fa69594939291906133ed565b60405180910390a15b6000805160206134f28339815191528686644b41524d4160d81b6103e888604051610fde9594939291906133ed565b60405180910390a150505050505050565b604051630bcd418b60e41b81526000906001600160a01b0385169063bcd418b0906110209086908690600401613179565b60a060405180830381865afa15801561103d573d6000803e3d6000fd5b505050506040513d601f19601f820116820180604052508101906110619190613335565b602001519050600061107784848460ff16611e3c565b6000818152600a88016020526040902090915061109f81644b41524d4160d81b6103e8611ebc565b506000805160206134f28339815191528585644b41524d4160d81b6103e8876040516110cf9594939291906133ed565b60405180910390a16000805160206134f283398151915285856a111150551217d0d3d5539560aa1b600087604051610fde9594939291906133ed565b604051631430d62960e21b81526001600160a01b038216906350c358a490611137903390600401612f38565b602060405180830381865afa158015611154573d6000803e3d6000fd5b505050506040513d601f19601f82011682018060405250810190611178919061341e565b611197573360405163451cea1760e11b8152600401610aa69190612f38565b50565b60006111a4610a59565b600a0160006112298585886001600160a01b031663bcd418b089896040518363ffffffff1660e01b81526004016111dc929190613179565b60a060405180830381865afa1580156111f9573d6000803e3d6000fd5b505050506040513d601f19601f8201168201806040525081019061121d9190613335565b6020015160ff16611e3c565b81526020019081526020016000209050600061124482611ec9565b90506000816001600160401b0381111561126057611260612f22565b604051908082528060200260200182016040528015611289578160200160208202803683370190505b50905060006040516020016112ac90674d4f4e535445525f60c01b815260080190565b6040516020818303038152906040526112c490613439565b905060006040516020016112e4906553544f52595f60d01b815260060190565b6040516020818303038152906040526112fc90613439565b905060005b848110156114645760006113158783611ed4565b5090506a111150551217d0d3d5539560aa1b8114806113405750694845524f5f434c41535360b01b81145b1561134b575061145c565b60008060005b600881101561142857821580156113a6575086816020811061137557611375612e73565b1a60f81b6001600160f81b03191684826020811061139557611395612e73565b1a60f81b6001600160f81b03191614155b156113b057600192505b811580156113be5750600681105b801561140857508581602081106113d7576113d7612e73565b1a60f81b6001600160f81b0319168482602081106113f7576113f7612e73565b1a60f81b6001600160f81b03191614155b1561141257600191505b82801561141c5750815b61142857600101611351565b508180156114335750805b15611458578287858151811061144b5761144b612e73565b6020026020010181815250505b5050505b600101611301565b5060005b848110156114c9576000801b84828151811061148657611486612e73565b6020026020010151146114c1576114bf8482815181106114a8576114a8612e73565b602002602001015187611ee390919063ffffffff16565b505b600101611468565b507f5b6e264cb3325688785ed5b6b2392e03227b6dc244988c18c163024e4a51ff5287876040516114fb929190613179565b60405180910390a15050505050505050565b606061158a84600061151f8686610a7d565b815260200190815260200160002080548060200260200160405190810160405280929190818152602001828054801561157757602002820191906000526020600020905b815481526020019060010190808311611563575b50602b935061158592505050565b611ef6565b949350505050565b60408051602b8082526105808201909252606091602082016105608036833701905050905060005b83518110156116395760008482815181106115d7576115d7612e73565b602002602001015190508060030b60001461163057808385848151811061160057611600612e73565b602002602001015160ff168151811061161b5761161b612e73565b602002602001019060030b908160030b815250505b506001016115ba565b5092915050565b606060005b83518110156116965782818151811061166057611660612e73565b602002602001015184828151811061167a5761167a612e73565b60209081029190910101805190910160030b9052600101611645565b509192915050565b606061158a84600201600061151f8686610a7d565b606061158a84600301600061151f8686610a7d565b606060008581815181106116de576116de612e73565b602002602001015190506000866001602b8111156116fe576116fe612f0c565b8151811061170e5761170e612e73565b602002602001015190506000876002602b81111561172e5761172e612f0c565b8151811061173e5761173e612e73565b602002602001015190506000886003602b81111561175e5761175e612f0c565b8151811061176e5761176e612e73565b60200260200101519050876004602b81111561178c5761178c612f0c565b8151811061179c5761179c612e73565b60200260200101516117ae8589611fbe565b6117b89190613152565b896004815181106117cb576117cb612e73565b60039290920b60209283029190910190910152876005815181106117f1576117f1612e73565b60200260200101516118038589611ff8565b61180d9190613152565b8960058151811061182057611820612e73565b60039290920b602092830291909101909101528760068151811061184657611846612e73565b60200260200101516118588489612020565b6118629190613152565b8960068151811061187557611875612e73565b60039290920b602092830291909101909101528760078151811061189b5761189b612e73565b60200260200101516118ad8489612048565b6118b79190613152565b896007815181106118ca576118ca612e73565b60039290920b60209283029190910190910152876008815181106118f0576118f0612e73565b60200260200101516119028489612070565b61190c9190613152565b8960088151811061191f5761191f612e73565b60039290920b602092830291909101909101528760098151811061194557611945612e73565b60200260200101516119588389896120b6565b6119629190613152565b8960098151811061197557611975612e73565b60039290920b6020928302919091019091015287600a8151811061199b5761199b612e73565b60200260200101516119ae82898961212d565b6119b89190613152565b89600a815181106119cb576119cb612e73565b60039290920b602092830291909101909101525096979650505050505050565b604080516008808252610120820190925260609160009190602082016101008036833701905050905060005b600881101561163957611a2b816020613460565b8460001c901c828281518110611a4357611a43612e73565b63ffffffff90921660209283029190910190910152600101611a17565b6000611a6b82611b67565b5160408051600480825260a082019092529192506000919060208201608080368337019050509050816000015181600081518110611aab57611aab612e73565b602002602001019060030b908160030b81525050816020015181600181518110611ad757611ad7612e73565b602002602001019060030b908160030b81525050816040015181600281518110611b0357611b03612e73565b602002602001019060030b908160030b81525050816060015181600381518110611b2f57611b2f612e73565b602002602001019060030b908160030b81525050611b4c81612189565b60009485526001909501602052505060409091209190915550565b611b6f612c11565b81600103611b7f57610b64612203565b81600203611b8f57610b646122f3565b81600303611b9f57610b6461241d565b81600403611baf57610b6461250d565b81600503611bbf57610b646125fd565b81600603611bcf57610b646126ed565b604051635613365f60e11b815260048101839052602401610aa6565b919050565b6060611c01600083518791906127dd565b611c13600160208401518791906127dd565b611c25600260408401518791906127dd565b611c37600360608401518791906127dd565b611c5060048351611c489087611fbe565b8791906127dd565b611c6160058351611c489087611ff8565b611c746006611c48846020015187612020565b611c876007611c48846020015187612048565b611c9a6008611c48846020015187612070565b611cae6009611c48846040015187876120b6565b611cc2600a611c488460600151878761212d565b611cd16016611c4886866128b4565b604080516003808252608082019092529060208201606080368337019050509050611d0c611d04836040015186866120b6565b60030b6128ca565b81600081518110611d1f57611d1f612e73565b602002602001019063ffffffff16908163ffffffff1681525050611d4b611d048360600151868661212d565b81600181518110611d5e57611d5e612e73565b602002602001019063ffffffff16908163ffffffff1681525050611d85611d0485856128b4565b81600281518110611d9857611d98612e73565b602002602001019063ffffffff16908163ffffffff1681525050949350505050565b80516000906008811115611deb57604051633d71388b60e21b81526004810182905260086024820152604401610aa6565b6000805b82811015611e3457611e02816020613460565b858281518110611e1457611e14612e73565b602090810291909101015163ffffffff16901b9190911790600101611def565b509392505050565b60006001600160401b03831115611e6957604051633995b34160e01b815260048101849052602401610aa6565b506001600160a01b039290921660a09190911b67ffffffffffffffff60a01b161760e09190911b6001600160e01b0319161790565b6000808080611ead86866128f9565b909450925050505b9250929050565b600061158a848484612933565b6000610b6482612950565b6000808080611ead868661295b565b6000611eef8383612986565b9392505050565b60606000826001600160401b03811115611f1257611f12612f22565b604051908082528060200260200182016040528015611f3b578160200160208202803683370190505b50905060005b8451811015611e345760005b6008811015611fb557600081611f64846008613460565b611f6e9190613477565b9050858110611f7d5750611fb5565b611f8787826129a3565b848281518110611f9957611f99612e73565b60039290920b6020928302919091019091015250600101611f4d565b50600101611f41565b6000670de0b6b3a7640000611fd283611b67565b6020015151611fe4600386900b6128ca565b611fee9190613460565b611eef91906134a0565b6000670de0b6b3a764000061200c83611b67565b6020015160200151611fe48560030b6128ca565b6000670de0b6b3a764000061203483611b67565b6020015160400151611fe48560030b6128ca565b6000670de0b6b3a764000061205c83611b67565b6020015160600151611fe48560030b6128ca565b6000611eef670de0b6b3a764000061208784611b67565b602001516080015161209b8660030b6128ca565b6120a59190613460565b6120af91906134a0565b604b612a07565b6000670de0b6b3a76400006120ca84611b67565b60400151516120df9063ffffffff8516613460565b6120e991906134a0565b670de0b6b3a76400006120fb85611b67565b6020015160a0015161210f8760030b6128ca565b6121199190613460565b61212391906134a0565b61158a9190613477565b6000670de0b6b3a764000061214184611b67565b60400151602001516121599063ffffffff8516613460565b61216391906134a0565b670de0b6b3a764000061217585611b67565b6020015160c0015161210f8760030b6128ca565b805160009060088111156121ba57604051633d71388b60e21b81526004810182905260086024820152604401610aa6565b6000805b82811015611e34576121d1816020613460565b8582815181106121e3576121e3612e73565b602090810291909101015163ffffffff16901b91909117906001016121be565b61220b612c11565b60405180608001604052806040518060800160405280600f60030b8152602001600f60030b8152602001601e60030b8152602001600a60030b81525081526020016040518060e0016040528067016345785d8a000081526020016702c68af0bb1400008152602001671bc16d674ec800008152602001671bc16d674ec80000815260200167016345785d8a000081526020016714d1120d7b16000081526020016706f05b59d3b2000081525081526020016040518060400160405280671bc16d674ec800008152602001670de0b6b3a76400008152508152602001600560030b815250905090565b6122fb612c11565b6000612305612a1d565b6040805161010081018252601e60808201908152600560a0830152601960c0830152600a60e0808401919091529082528251908101909252670214e8348c4f0000825291925060208083019190810184612367576706f05b59d3b20000612371565b6703782dace9d900005b6001600160401b0316815260200184612392576729a2241af62c000061239c565b671bc16d674ec800005b6001600160401b03168152602001670de0b6b3a7640000815260200167011c37937e080000815260200167120a871cc002000081526020016706f05b59d3b20000815250815260200160405180604001604052806718fae27693b400008152602001670de0b6b3a76400008152508152602001600560030b81525091505090565b612425612c11565b60405180608001604052806040518060800160405280600a60030b8152602001600f60030b8152602001601460030b8152602001601960030b81525081526020016040518060e0016040528067016345785d8a000081526020016702c68af0bb1400008152602001671bc16d674ec800008152602001670de0b6b3a7640000815260200167016345785d8a00008152602001670de0b6b3a76400008152602001671bc16d674ec800008152508152602001604051806040016040528067120a871cc00200008152602001671bc16d674ec800008152508152602001600560030b815250905090565b612515612c11565b60405180608001604052806040518060800160405280600f60030b8152602001601960030b8152602001600f60030b8152602001600f60030b81525081526020016040518060e0016040528067016345785d8a000081526020016702c68af0bb1400008152602001673782dace9d90000081526020016729a2241af62c000081526020016702c68af0bb14000081526020016710a741a4627800008152602001670de0b6b3a7640000815250815260200160405180604001604052806717979cfe362a000081526020016714d1120d7b1600008152508152602001600560030b815250905090565b612605612c11565b60405180608001604052806040518060800160405280601460030b8152602001601460030b8152602001601460030b8152602001600a60030b81525081526020016040518060e00160405280670214e8348c4f000081526020016703782dace9d9000081526020016729a2241af62c000081526020016722b1c8c1227a00008152602001670214e8348c4f000081526020016714d1120d7b16000081526020016714d1120d7b160000815250815260200160405180604001604052806714d1120d7b16000081526020016714d1120d7b1600008152508152602001600160030b815250905090565b6126f5612c11565b60405180608001604052806040518060800160405280603260030b8152602001601e60030b8152602001603260030b8152602001600f60030b81525081526020016040518060e001604052806702c68af0bb1400008152602001670429d069189e00008152602001674563918244f4000081526020016729a2241af62c00008152602001670214e8348c4f00008152602001671bc16d674ec800008152602001671bc16d674ec80000815250815260200160405180604001604052806717979cfe362a000081526020016714d1120d7b1600008152508152602001600160030b815250905090565b60006127ea6008846134a0565b905060006127f96008856134b4565b612804906020613460565b855490915080831061285057855460018101875560008781526020812090910155805b8381101561284e578654600181810189556000898152602081209092019190915501612827565b505b818463ffffffff1663ffffffff16901b8263ffffffff901b1987858154811061287b5761287b612e73565b906000526020600020015460001c161760001b8684815481106128a0576128a0612e73565b600091825260209091200155505050505050565b60006128bf83611b67565b606001519392505050565b6000808260030b12156128df57506000919050565b60008260030b136128f257506000919050565b5060030b90565b60008181526002830160205260408120548190806129285761291b8585612a35565b925060009150611eb59050565b600192509050611eb5565b6000828152600284016020526040812082905561158a8484612a41565b6000610b6482612a4d565b600080806129698585612a57565b600081815260029690960160205260409095205494959350505050565b60008181526002830160205260408120819055611eef8383612a63565b81516000906129b36008846134a0565b106129c057506000610b64565b6129cb6008836134b4565b6129d6906020613460565b836129e26008856134a0565b815181106129f2576129f2612e73565b602002602001015160001c901c905092915050565b6000818310612a165781611eef565b5090919050565b60006201b254461480612a30575060fa46145b905090565b6000611eef8383612a6f565b6000611eef8383612a87565b6000610b64825490565b6000611eef8383612ad6565b6000611eef8383612b00565b60008181526001830160205260408120541515611eef565b6000818152600183016020526040812054612ace57508154600181810184556000848152602080822090930184905584548482528286019093526040902091909155610b64565b506000610b64565b6000826000018281548110612aed57612aed612e73565b9060005260206000200154905092915050565b60008181526001830160205260408120548015612be9576000612b246001836134c8565b8554909150600090612b38906001906134c8565b9050808214612b9d576000866000018281548110612b5857612b58612e73565b9060005260206000200154905080876000018481548110612b7b57612b7b612e73565b6000918252602080832090910192909255918252600188019052604090208390555b8554869080612bae57612bae6134db565b600190038181906000526020600020016000905590558560010160008681526020019081526020016000206000905560019350505050610b64565b6000915050610b64565b50805460008255906000526020600020908101906111979190612cb2565b60408051610100810190915260006080820181815260a0830182905260c0830182905260e083019190915281908152602001612c836040518060e00160405280600081526020016000815260200160008152602001600081526020016000815260200160008152602001600081525090565b8152602001612ca5604051806040016040528060008152602001600081525090565b8152600060209091015290565b5b80821115612cc75760008155600101612cb3565b5090565b6001600160a01b038116811461119757600080fd5b60008060008060808587031215612cf657600080fd5b8435612d0181612ccb565b93506020850135612d1181612ccb565b93969395505050506040820135916060013590565b600080600080600060a08688031215612d3e57600080fd5b853594506020860135612d5081612ccb565b93506040860135612d6081612ccb565b94979396509394606081013594506080013592915050565b60008060008060808587031215612d8e57600080fd5b843593506020850135612da081612ccb565b92506040850135612db081612ccb565b9396929550929360600135925050565b600080600060608486031215612dd557600080fd5b833592506020840135612de781612ccb565b915060408401356001600160401b03811115612e0257600080fd5b840160a08187031215612e1457600080fd5b809150509250925092565b604080825283519082018190526000906020906060840190828701845b82811015612e5b57815160030b84529284019290840190600101612e3c565b50505080925050508260030b60208301529392505050565b634e487b7160e01b600052603260045260246000fd5b600060208284031215612e9b57600080fd5b8151611eef81612ccb565b6000808335601e19843603018112612ebd57600080fd5b8301803591506001600160401b03821115612ed757600080fd5b6020019150600581901b3603821315611eb557600080fd5b600060208284031215612f0157600080fd5b8135611eef81612ccb565b634e487b7160e01b600052602160045260246000fd5b634e487b7160e01b600052604160045260246000fd5b6001600160a01b0391909116815260200190565b60405161012081016001600160401b0381118282101715612f6f57612f6f612f22565b60405290565b604051601f8201601f191681016001600160401b0381118282101715612f9d57612f9d612f22565b604052919050565b805160ff81168114611beb57600080fd5b8051600e8110611beb57600080fd5b805161ffff81168114611beb57600080fd5b63ffffffff8116811461119757600080fd5b8051611beb81612fd7565b8051600381900b8114611beb57600080fd5b60006080828403121561301857600080fd5b604051608081018181106001600160401b038211171561303a5761303a612f22565b60405290508061304983612ff4565b815261305760208401612ff4565b602082015261306860408401612ff4565b604082015261307960608401612ff4565b60608201525092915050565b6000610180828403121561309857600080fd5b6130a0612f4c565b6130a983612fa5565b81526130b760208401612fa5565b60208201526130c860408401612fb6565b60408201526130d960608401612fc5565b60608201526130ea60808401612fa5565b60808201526130fb60a08401612fe9565b60a082015261310c60c08401612fa5565b60c082015261311d60e08401612fa5565b60e082015261010061313185828601613006565b908201529392505050565b634e487b7160e01b600052601160045260246000fd5b600381810b9083900b01637fffffff8113637fffffff1982121715610b6457610b6461313c565b6001600160a01b03929092168252602082015260400190565b60006001600160401b038211156131ab576131ab612f22565b5060051b60200190565b600082601f8301126131c657600080fd5b815160206131db6131d683613192565b612f75565b8083825260208201915060208460051b8701019350868411156131fd57600080fd5b602086015b848110156132205761321381612fa5565b8352918301918301613202565b509695505050505050565b6000806040838503121561323e57600080fd5b82516001600160401b038082111561325557600080fd5b818501915085601f83011261326957600080fd5b815160206132796131d683613192565b82815260059290921b8401810191818101908984111561329857600080fd5b948201945b838610156132bd576132ae86612ff4565b8252948201949082019061329d565b918801519196509093505050808211156132d657600080fd5b506132e3858286016131b5565b9150509250929050565b6000602082840312156132ff57600080fd5b611eef82612fa5565b60006020828403121561331a57600080fd5b8135611eef81612fd7565b80518015158114611beb57600080fd5b600060a0828403121561334757600080fd5b60405160a081018181106001600160401b038211171561336957613369612f22565b60405261337583612fa5565b815261338360208401612fa5565b602082015261339460408401613325565b6040820152606083015168ffffffffffffffffff811681146133b557600080fd5b606082015260808301516133c881612ccb565b60808201529392505050565b60ff8281168282160390811115610b6457610b6461313c565b6001600160a01b0395909516855260208501939093526040840191909152606083015260ff16608082015260a00190565b60006020828403121561343057600080fd5b611eef82613325565b8051602080830151919081101561345a576000198160200360031b1b821691505b50919050565b8082028115828204841417610b6457610b6461313c565b80820180821115610b6457610b6461313c565b634e487b7160e01b600052601260045260246000fd5b6000826134af576134af61348a565b500490565b6000826134c3576134c361348a565b500690565b81810381811115610b6457610b6461313c565b634e487b7160e01b600052603160045260246000fdfe8af92dbc104a8f5c91bb1ce162c9bb05b14354b888ff1d97cd8c09ebee492599a264697066735822122080eaa6594738d1ab757b716c06054fea8a57e0e62063ce3da50db3625a10666c64736f6c63430008170033",
  "devdoc": {
    "kind": "dev",
    "methods": {
      "initNewHero(IStatController.MainState storage,IController,address,uint256,uint256)": {
        "params": {
          "heroClass": "[1..6], see StatLib.initHeroXXX"
        }
      },
      "reborn(IController,address,uint256,uint256)": {
        "params": {
          "heroClass": "Assume that heroController passes correct value of the heroClass for the given hero Also assume that the hero exists and alive"
        }
      },
      "resetHeroCustomData(IStatController.MainState storage,IController,address,uint256)": {
        "details": "Reset custom hero data if something went wrong"
      }
    },
    "stateVariables": {
      "MAIN_STORAGE_LOCATION": {
        "details": "keccak256(abi.encode(uint256(keccak256(\"stat.controller.main\")) - 1)) & ~bytes32(uint256(0xff))"
      }
    },
    "version": 1
  },
  "userdoc": {
    "kind": "user",
    "methods": {
      "DEATH_COUNT_HASH()": {
        "notice": "Custom data of the hero. Value is incremented on every life-chance lost"
      },
      "HERO_CLASS_HASH()": {
        "notice": "Virtual data, value is not stored to hero custom data, heroClass is taken from heroController by the index"
      },
      "buffHero(IStatController.MainState storage,IController,IStatController.BuffInfo)": {
        "notice": "Calculate totalAttributes + all attributes of the items specified in {info}"
      },
      "initNewHero(IStatController.MainState storage,IController,address,uint256,uint256)": {
        "notice": "Initialize new hero, set up custom data, core data, changeable stats by default value"
      }
    },
    "notice": "Implementation of StatController",
    "version": 1
  },
  "storageLayout": {
    "storage": [],
    "types": null
  }
}