{
  "address": "0x787470944A51366692254eC9DCa8C1ceF52B3268",
  "abi": [
    {
      "inputs": [
        {
          "internalType": "address",
          "name": "sender",
          "type": "address"
        }
      ],
      "name": "ErrorNotDungeonFactory",
      "type": "error"
    },
    {
      "inputs": [],
      "name": "InvalidInitialization",
      "type": "error"
    },
    {
      "inputs": [],
      "name": "NotEnoughBalance",
      "type": "error"
    },
    {
      "inputs": [],
      "name": "NotInitializing",
      "type": "error"
    },
    {
      "anonymous": false,
      "inputs": [
        {
          "indexed": false,
          "internalType": "address",
          "name": "dungeon",
          "type": "address"
        },
        {
          "indexed": false,
          "internalType": "address",
          "name": "token",
          "type": "address"
        },
        {
          "indexed": false,
          "internalType": "uint256",
          "name": "amount",
          "type": "uint256"
        }
      ],
      "name": "AssetsSentToDungeon",
      "type": "event"
    },
    {
      "anonymous": false,
      "inputs": [
        {
          "indexed": false,
          "internalType": "address",
          "name": "controller",
          "type": "address"
        },
        {
          "indexed": false,
          "internalType": "uint256",
          "name": "ts",
          "type": "uint256"
        },
        {
          "indexed": false,
          "internalType": "uint256",
          "name": "block",
          "type": "uint256"
        }
      ],
      "name": "ContractInitialized",
      "type": "event"
    },
    {
      "anonymous": false,
      "inputs": [
        {
          "indexed": false,
          "internalType": "uint64",
          "name": "version",
          "type": "uint64"
        }
      ],
      "name": "Initialized",
      "type": "event"
    },
    {
      "anonymous": false,
      "inputs": [
        {
          "indexed": false,
          "internalType": "uint256",
          "name": "value",
          "type": "uint256"
        },
        {
          "indexed": false,
          "internalType": "address",
          "name": "oldLogic",
          "type": "address"
        }
      ],
      "name": "RevisionIncreased",
      "type": "event"
    },
    {
      "inputs": [],
      "name": "AUGMENT_GOV_FEE",
      "outputs": [
        {
          "internalType": "uint256",
          "name": "",
          "type": "uint256"
        }
      ],
      "stateMutability": "view",
      "type": "function"
    },
    {
      "inputs": [],
      "name": "CONTROLLABLE_VERSION",
      "outputs": [
        {
          "internalType": "string",
          "name": "",
          "type": "string"
        }
      ],
      "stateMutability": "view",
      "type": "function"
    },
    {
      "inputs": [],
      "name": "REPAIR_GOV_FEE",
      "outputs": [
        {
          "internalType": "uint256",
          "name": "",
          "type": "uint256"
        }
      ],
      "stateMutability": "view",
      "type": "function"
    },
    {
      "inputs": [],
      "name": "VERSION",
      "outputs": [
        {
          "internalType": "string",
          "name": "",
          "type": "string"
        }
      ],
      "stateMutability": "view",
      "type": "function"
    },
    {
      "inputs": [
        {
          "internalType": "address",
          "name": "token",
          "type": "address"
        }
      ],
      "name": "balanceOfToken",
      "outputs": [
        {
          "internalType": "uint256",
          "name": "",
          "type": "uint256"
        }
      ],
      "stateMutability": "view",
      "type": "function"
    },
    {
      "inputs": [],
      "name": "controller",
      "outputs": [
        {
          "internalType": "address",
          "name": "",
          "type": "address"
        }
      ],
      "stateMutability": "view",
      "type": "function"
    },
    {
      "inputs": [],
      "name": "created",
      "outputs": [
        {
          "internalType": "uint256",
          "name": "",
          "type": "uint256"
        }
      ],
      "stateMutability": "view",
      "type": "function"
    },
    {
      "inputs": [],
      "name": "createdBlock",
      "outputs": [
        {
          "internalType": "uint256",
          "name": "",
          "type": "uint256"
        }
      ],
      "stateMutability": "view",
      "type": "function"
    },
    {
      "inputs": [
        {
          "internalType": "address",
          "name": "oldLogic",
          "type": "address"
        }
      ],
      "name": "increaseRevision",
      "outputs": [],
      "stateMutability": "nonpayable",
      "type": "function"
    },
    {
      "inputs": [
        {
          "internalType": "address",
          "name": "controller_",
          "type": "address"
        }
      ],
      "name": "init",
      "outputs": [],
      "stateMutability": "nonpayable",
      "type": "function"
    },
    {
      "inputs": [
        {
          "internalType": "address",
          "name": "value_",
          "type": "address"
        }
      ],
      "name": "isController",
      "outputs": [
        {
          "internalType": "bool",
          "name": "",
          "type": "bool"
        }
      ],
      "stateMutability": "view",
      "type": "function"
    },
    {
      "inputs": [
        {
          "internalType": "address",
          "name": "value_",
          "type": "address"
        }
      ],
      "name": "isGovernance",
      "outputs": [
        {
          "internalType": "bool",
          "name": "",
          "type": "bool"
        }
      ],
      "stateMutability": "view",
      "type": "function"
    },
    {
      "inputs": [],
      "name": "previousImplementation",
      "outputs": [
        {
          "internalType": "address",
          "name": "",
          "type": "address"
        }
      ],
      "stateMutability": "view",
      "type": "function"
    },
    {
      "inputs": [],
      "name": "revision",
      "outputs": [
        {
          "internalType": "uint256",
          "name": "",
          "type": "uint256"
        }
      ],
      "stateMutability": "view",
      "type": "function"
    },
    {
      "inputs": [
        {
          "internalType": "address",
          "name": "dungeon",
          "type": "address"
        },
        {
          "internalType": "address",
          "name": "token",
          "type": "address"
        },
        {
          "internalType": "uint256",
          "name": "amount",
          "type": "uint256"
        }
      ],
      "name": "sendToDungeon",
      "outputs": [],
      "stateMutability": "nonpayable",
      "type": "function"
    }
  ],
  "transactionHash": "0x4adf16cbc6325a706f07bbb4786f9d6c29ec1af5ec74fd15f1da24996e6f4773",
  "args": [],
  "numDeployments": 17,
  "solcInputHash": "f3f5194c47a261ae15032b46ec064164",
  "bytecode": "0x608060405234801561001057600080fd5b507ff0c57e16840df040f15088dc2f81fe391c3923bec73e23a9662efc9c229c6a00805468010000000000000000810460ff1615906001600160401b031660008115801561005b5750825b90506000826001600160401b031660011480156100775750303b155b905081158015610085575080155b156100a35760405163f92ee8a960e01b815260040160405180910390fd5b84546001600160401b031916600117855583156100d157845460ff60401b1916680100000000000000001785555b831561011757845460ff60401b19168555604051600181527fc7f505b2f371ae2175ee4913f4499e1f2633a7b5936321eed1cdaeb6115181d29060200160405180910390a15b5050505050610b898061012b6000396000f3fe608060405234801561001057600080fd5b50600436106100c55760003560e01c806319ab453c146100ca578063325a19f1146100df578063454bf5dd146100fa5780634593144c146101025780634fac6ccd1461010a57806352e540441461011d5780637cc9638014610130578063936725ec146101385780639d0bcca014610169578063b429afeb1461017e578063b99152d0146101a1578063c7942f03146100fa578063dee1f0e4146101b4578063f77c4791146101c7578063ffa1ad74146101cf575b600080fd5b6100dd6100d83660046109d7565b6101f3565b005b6100e76102ef565b6040519081526020015b60405180910390f35b6100e7603281565b6100e7610328565b6100dd6101183660046109d7565b610358565b6100dd61012b3660046109fb565b610469565b6100e7610481565b61015c604051806040016040528060058152602001640312e302e360dc1b81525081565b6040516100f19190610a3c565b61017161049f565b6040516100f19190610a8b565b61019161018c3660046109d7565b6104cf565b60405190151581526020016100f1565b6100e76101af3660046109d7565b6104f4565b6101916101c23660046109d7565b610505565b61017161058a565b61015c60405180604001604052806005815260200164312e302e3360d81b81525081565b60006101fd6105ba565b805490915060ff600160401b820416159067ffffffffffffffff166000811580156102255750825b905060008267ffffffffffffffff1660011480156102425750303b155b905081158015610250575080155b1561026e5760405163f92ee8a960e01b815260040160405180910390fd5b845467ffffffffffffffff19166001178555831561029857845460ff60401b1916600160401b1785555b6102a1866105de565b83156102e757845460ff60401b19168555604051600181527fc7f505b2f371ae2175ee4913f4499e1f2633a7b5936321eed1cdaeb6115181d29060200160405180910390a15b505050505050565b600061032361031f60017f6f55f470bdc9cb5f04223fd822021061668e4dccb43e8727b295106dc9769c8b610ab5565b5490565b905090565b600061032361031f60017f812a673dfca07956350df10f8a654925f561d7a0da09bdbe79e653939a14d9f1610ab5565b3330146103aa5760405162461bcd60e51b815260206004820152601b60248201527a24b731b932b0b9b2903932bb34b9b4b7b7103337b93134b23232b760291b60448201526064015b60405180910390fd5b60006103c861031f6001600080516020610b34833981519152610ab5565b6103d3906001610ac8565b90506103f5816103f26001600080516020610b34833981519152610ab5565b55565b610424826103f260017fbfaaa2fb63266ff27c2da975f5894955056f50419af651a81f6c5060581857e4610ab5565b604080518281526001600160a01b03841660208201527ff27e2ef832a4eb8ed8ec553b875eecd44764cda95b1c24170e281539e0a869c8910160405180910390a15050565b61047c61047461058a565b8484846105f2565b505050565b600061032361031f6001600080516020610b34833981519152610ab5565b600061032361031f60017fbfaaa2fb63266ff27c2da975f5894955056f50419af651a81f6c5060581857e4610ab5565b60006104d961058a565b6001600160a01b0316826001600160a01b0316149050919050565b60006104ff8261075d565b92915050565b6000816001600160a01b031661051961058a565b6001600160a01b0316635aa6e6756040518163ffffffff1660e01b8152600401602060405180830381865afa158015610556573d6000803e3d6000fd5b505050506040513d601f19601f8201168201806040525081019061057a9190610adb565b6001600160a01b03161492915050565b600061032361031f60017f5165972ef41194f06c5007493031d0b927c20741adcb74403b954009fd2c3618610ab5565b7ff0c57e16840df040f15088dc2f81fe391c3923bec73e23a9662efc9c229c6a0090565b6105e66107cd565b6105ef816107f4565b50565b6105fb84610913565b6040516370a0823160e01b81526000906001600160a01b038416906370a082319061062a903090600401610a8b565b602060405180830381865afa158015610647573d6000803e3d6000fd5b505050506040513d601f19601f8201168201806040525081019061066b9190610af8565b905080158061067957508082115b156106975760405163569d45cf60e11b815260040160405180910390fd5b60405163a9059cbb60e01b81526001600160a01b0385811660048301526024820184905284169063a9059cbb906044016020604051808303816000875af11580156106e6573d6000803e3d6000fd5b505050506040513d601f19601f8201168201806040525081019061070a9190610b11565b50604080516001600160a01b038087168252851660208201529081018390527f19db20e8b14cd9bf93cc4c470366811fa0ddd60942567107f6f707ea217659bc9060600160405180910390a15050505050565b6040516370a0823160e01b81526000906001600160a01b038316906370a082319061078c903090600401610a8b565b602060405180830381865afa1580156107a9573d6000803e3d6000fd5b505050506040513d601f19601f820116820180604052508101906104ff9190610af8565b6107d56109a8565b6107f257604051631afcd79f60e31b815260040160405180910390fd5b565b6001600160a01b03811661083c5760405162461bcd60e51b815260206004820152600f60248201526e2d32b9379031b7b73a3937b63632b960891b60448201526064016103a1565b61086b816103f260017f5165972ef41194f06c5007493031d0b927c20741adcb74403b954009fd2c3618610ab5565b61089a426103f260017f6f55f470bdc9cb5f04223fd822021061668e4dccb43e8727b295106dc9769c8b610ab5565b6108c9436103f260017f812a673dfca07956350df10f8a654925f561d7a0da09bdbe79e653939a14d9f1610ab5565b604080516001600160a01b0383168152426020820152438183015290517f1a2dd071001ebf6e03174e3df5b305795a4ad5d41d8fdb9ba41dbbe2367134269181900360600190a150565b336001600160a01b0316816001600160a01b031663683fedf76040518163ffffffff1660e01b8152600401602060405180830381865afa15801561095b573d6000803e3d6000fd5b505050506040513d601f19601f8201168201806040525081019061097f9190610adb565b6001600160a01b0316146105ef573360405163cf219bef60e01b81526004016103a19190610a8b565b60006109b26105ba565b54600160401b900460ff16919050565b6001600160a01b03811681146105ef57600080fd5b6000602082840312156109e957600080fd5b81356109f4816109c2565b9392505050565b600080600060608486031215610a1057600080fd5b8335610a1b816109c2565b92506020840135610a2b816109c2565b929592945050506040919091013590565b60006020808352835180602085015260005b81811015610a6a57858101830151858201604001528201610a4e565b506000604082860101526040601f19601f8301168501019250505092915050565b6001600160a01b0391909116815260200190565b634e487b7160e01b600052601160045260246000fd5b818103818111156104ff576104ff610a9f565b808201808211156104ff576104ff610a9f565b600060208284031215610aed57600080fd5b81516109f4816109c2565b600060208284031215610b0a57600080fd5b5051919050565b600060208284031215610b2357600080fd5b815180151581146109f457600080fdfe22573091f17911fb166032a3d9e0554aa73d31b7b7ddea4a4dd2995650af84bda2646970667358221220560fbbd2e97140ca4c4eba2d231f32a519d713bf65b984bd9cc4c6f737ccf00264736f6c63430008170033",
  "devdoc": {
    "errors": {
      "InvalidInitialization()": [
        {
          "details": "The contract is already initialized."
        }
      ],
      "NotInitializing()": [
        {
          "details": "The contract is not initializing."
        }
      ]
    },
    "events": {
      "Initialized(uint64)": {
        "details": "Triggered when the contract has been initialized or reinitialized."
      }
    },
    "kind": "dev",
    "methods": {
      "created()": {
        "returns": {
          "_0": "Creation timestamp"
        }
      },
      "createdBlock()": {
        "returns": {
          "_0": "Creation block number"
        }
      },
      "increaseRevision(address)": {
        "details": "Revision should be increased on each contract upgrade"
      },
      "isController(address)": {
        "details": "Return true if given address is controller"
      },
      "previousImplementation()": {
        "details": "Previous logic implementation"
      },
      "revision()": {
        "details": "Contract upgrade counter"
      }
    },
    "stateVariables": {
      "VERSION": {
        "details": "Should be incremented when contract changed"
      }
    },
    "version": 1
  },
  "userdoc": {
    "kind": "user",
    "methods": {
      "CONTROLLABLE_VERSION()": {
        "notice": "Version of the contract"
      },
      "VERSION()": {
        "notice": "Version of the contract"
      },
      "controller()": {
        "notice": "Return controller address saved in the contract slot"
      },
      "created()": {
        "notice": "Return creation timestamp"
      },
      "createdBlock()": {
        "notice": "Return creation block number"
      },
      "isGovernance(address)": {
        "notice": "Return true if given address is setup as governance in Controller"
      }
    },
    "version": 1
  },
  "storageLayout": {
    "storage": [],
    "types": null
  }
}