{
  "address": "0xB2672ed032aAB2C481dfD031A58F10cDbe3e906E",
  "abi": [
    {
      "inputs": [],
      "name": "EmptyNameNotAllowed",
      "type": "error"
    },
    {
      "inputs": [
        {
          "internalType": "address",
          "name": "sender",
          "type": "address"
        }
      ],
      "name": "ErrorNotDeployer",
      "type": "error"
    },
    {
      "inputs": [
        {
          "internalType": "address",
          "name": "sender",
          "type": "address"
        }
      ],
      "name": "ErrorNotDungeonFactory",
      "type": "error"
    },
    {
      "inputs": [
        {
          "internalType": "address",
          "name": "sender",
          "type": "address"
        }
      ],
      "name": "ErrorNotHeroController",
      "type": "error"
    },
    {
      "inputs": [],
      "name": "ErrorOnlyEoa",
      "type": "error"
    },
    {
      "inputs": [
        {
          "internalType": "uint8",
          "name": "openedNgLevel",
          "type": "uint8"
        }
      ],
      "name": "FameHallHeroAlreadyRegistered",
      "type": "error"
    },
    {
      "inputs": [],
      "name": "InvalidInitialization",
      "type": "error"
    },
    {
      "inputs": [],
      "name": "NameTaken",
      "type": "error"
    },
    {
      "inputs": [
        {
          "internalType": "address",
          "name": "msgSender",
          "type": "address"
        },
        {
          "internalType": "uint256",
          "name": "lootBoxKind",
          "type": "uint256"
        }
      ],
      "name": "NoAvailableLootBox",
      "type": "error"
    },
    {
      "inputs": [
        {
          "internalType": "address",
          "name": "sender",
          "type": "address"
        }
      ],
      "name": "NotGovernance",
      "type": "error"
    },
    {
      "inputs": [],
      "name": "NotInitializing",
      "type": "error"
    },
    {
      "inputs": [],
      "name": "TooBigName",
      "type": "error"
    },
    {
      "inputs": [
        {
          "internalType": "uint32",
          "name": "chance",
          "type": "uint32"
        }
      ],
      "name": "TooHighChance",
      "type": "error"
    },
    {
      "inputs": [],
      "name": "TooLongUrl",
      "type": "error"
    },
    {
      "inputs": [],
      "name": "WrongSymbolsInTheName",
      "type": "error"
    },
    {
      "anonymous": false,
      "inputs": [
        {
          "indexed": false,
          "internalType": "address",
          "name": "user",
          "type": "address"
        },
        {
          "indexed": false,
          "internalType": "bool",
          "name": "daily",
          "type": "bool"
        },
        {
          "indexed": false,
          "internalType": "bool",
          "name": "weekly",
          "type": "bool"
        }
      ],
      "name": "ActivityCompleted",
      "type": "event"
    },
    {
      "anonymous": false,
      "inputs": [
        {
          "indexed": false,
          "internalType": "address",
          "name": "controller",
          "type": "address"
        },
        {
          "indexed": false,
          "internalType": "uint256",
          "name": "ts",
          "type": "uint256"
        },
        {
          "indexed": false,
          "internalType": "uint256",
          "name": "block",
          "type": "uint256"
        }
      ],
      "name": "ContractInitialized",
      "type": "event"
    },
    {
      "anonymous": false,
      "inputs": [
        {
          "indexed": false,
          "internalType": "address",
          "name": "hero",
          "type": "address"
        },
        {
          "indexed": false,
          "internalType": "uint256",
          "name": "heroId",
          "type": "uint256"
        },
        {
          "indexed": false,
          "internalType": "address",
          "name": "heroOwner",
          "type": "address"
        },
        {
          "indexed": false,
          "internalType": "uint8",
          "name": "openedNgLevel",
          "type": "uint8"
        }
      ],
      "name": "FameHallHeroRegistered",
      "type": "event"
    },
    {
      "anonymous": false,
      "inputs": [
        {
          "indexed": false,
          "internalType": "uint64",
          "name": "version",
          "type": "uint64"
        }
      ],
      "name": "Initialized",
      "type": "event"
    },
    {
      "anonymous": false,
      "inputs": [
        {
          "indexed": false,
          "internalType": "uint256",
          "name": "lootBoxKind",
          "type": "uint256"
        },
        {
          "indexed": false,
          "internalType": "address[]",
          "name": "mintItems",
          "type": "address[]"
        },
        {
          "indexed": false,
          "internalType": "uint32[]",
          "name": "mintItemsChances",
          "type": "uint32[]"
        },
        {
          "indexed": false,
          "internalType": "uint256",
          "name": "maxDropItems",
          "type": "uint256"
        }
      ],
      "name": "LootBoxConfigChanged",
      "type": "event"
    },
    {
      "anonymous": false,
      "inputs": [
        {
          "indexed": false,
          "internalType": "address",
          "name": "user",
          "type": "address"
        },
        {
          "indexed": false,
          "internalType": "uint256",
          "name": "lootBoxKind",
          "type": "uint256"
        },
        {
          "indexed": false,
          "internalType": "address[]",
          "name": "itemTokens",
          "type": "address[]"
        },
        {
          "indexed": false,
          "internalType": "uint256[]",
          "name": "itemTokenIds",
          "type": "uint256[]"
        }
      ],
      "name": "LootBoxOpened",
      "type": "event"
    },
    {
      "anonymous": false,
      "inputs": [
        {
          "indexed": false,
          "internalType": "uint256",
          "name": "value",
          "type": "uint256"
        },
        {
          "indexed": false,
          "internalType": "address",
          "name": "oldLogic",
          "type": "address"
        }
      ],
      "name": "RevisionIncreased",
      "type": "event"
    },
    {
      "anonymous": false,
      "inputs": [
        {
          "indexed": false,
          "internalType": "uint256",
          "name": "feeRenaming",
          "type": "uint256"
        }
      ],
      "name": "SetFeeRenaming",
      "type": "event"
    },
    {
      "anonymous": false,
      "inputs": [
        {
          "indexed": false,
          "internalType": "address",
          "name": "user",
          "type": "address"
        },
        {
          "indexed": false,
          "internalType": "string",
          "name": "avatar",
          "type": "string"
        }
      ],
      "name": "SetUserAvatar",
      "type": "event"
    },
    {
      "anonymous": false,
      "inputs": [
        {
          "indexed": false,
          "internalType": "address",
          "name": "user",
          "type": "address"
        },
        {
          "indexed": false,
          "internalType": "string",
          "name": "name",
          "type": "string"
        }
      ],
      "name": "SetUserName",
      "type": "event"
    },
    {
      "inputs": [],
      "name": "CONTROLLABLE_VERSION",
      "outputs": [
        {
          "internalType": "string",
          "name": "",
          "type": "string"
        }
      ],
      "stateMutability": "view",
      "type": "function"
    },
    {
      "inputs": [],
      "name": "VERSION",
      "outputs": [
        {
          "internalType": "string",
          "name": "",
          "type": "string"
        }
      ],
      "stateMutability": "view",
      "type": "function"
    },
    {
      "inputs": [],
      "name": "controller",
      "outputs": [
        {
          "internalType": "address",
          "name": "",
          "type": "address"
        }
      ],
      "stateMutability": "view",
      "type": "function"
    },
    {
      "inputs": [
        {
          "internalType": "address",
          "name": "user",
          "type": "address"
        }
      ],
      "name": "counterLootBoxes",
      "outputs": [
        {
          "internalType": "uint32",
          "name": "dailyCounter",
          "type": "uint32"
        },
        {
          "internalType": "uint32",
          "name": "weeklyCounter",
          "type": "uint32"
        }
      ],
      "stateMutability": "view",
      "type": "function"
    },
    {
      "inputs": [],
      "name": "created",
      "outputs": [
        {
          "internalType": "uint256",
          "name": "",
          "type": "uint256"
        }
      ],
      "stateMutability": "view",
      "type": "function"
    },
    {
      "inputs": [],
      "name": "createdBlock",
      "outputs": [
        {
          "internalType": "uint256",
          "name": "",
          "type": "uint256"
        }
      ],
      "stateMutability": "view",
      "type": "function"
    },
    {
      "inputs": [
        {
          "internalType": "uint8",
          "name": "openedNgLevel",
          "type": "uint8"
        }
      ],
      "name": "fameHallHero",
      "outputs": [
        {
          "internalType": "address",
          "name": "hero",
          "type": "address"
        },
        {
          "internalType": "uint256",
          "name": "heroId",
          "type": "uint256"
        },
        {
          "internalType": "address",
          "name": "heroOwner",
          "type": "address"
        },
        {
          "internalType": "uint64",
          "name": "tsOpen",
          "type": "uint64"
        }
      ],
      "stateMutability": "view",
      "type": "function"
    },
    {
      "inputs": [],
      "name": "feeRenaming",
      "outputs": [
        {
          "internalType": "uint256",
          "name": "",
          "type": "uint256"
        }
      ],
      "stateMutability": "view",
      "type": "function"
    },
    {
      "inputs": [
        {
          "internalType": "address",
          "name": "oldLogic",
          "type": "address"
        }
      ],
      "name": "increaseRevision",
      "outputs": [],
      "stateMutability": "nonpayable",
      "type": "function"
    },
    {
      "inputs": [
        {
          "internalType": "address",
          "name": "controller_",
          "type": "address"
        }
      ],
      "name": "init",
      "outputs": [],
      "stateMutability": "nonpayable",
      "type": "function"
    },
    {
      "inputs": [
        {
          "internalType": "address",
          "name": "value_",
          "type": "address"
        }
      ],
      "name": "isController",
      "outputs": [
        {
          "internalType": "bool",
          "name": "",
          "type": "bool"
        }
      ],
      "stateMutability": "view",
      "type": "function"
    },
    {
      "inputs": [
        {
          "internalType": "address",
          "name": "value_",
          "type": "address"
        }
      ],
      "name": "isGovernance",
      "outputs": [
        {
          "internalType": "bool",
          "name": "",
          "type": "bool"
        }
      ],
      "stateMutability": "view",
      "type": "function"
    },
    {
      "inputs": [
        {
          "internalType": "address",
          "name": "forwarder",
          "type": "address"
        }
      ],
      "name": "isTrustedForwarder",
      "outputs": [
        {
          "internalType": "bool",
          "name": "",
          "type": "bool"
        }
      ],
      "stateMutability": "view",
      "type": "function"
    },
    {
      "inputs": [
        {
          "internalType": "uint256",
          "name": "lootBoxKind",
          "type": "uint256"
        }
      ],
      "name": "lootBoxConfig",
      "outputs": [
        {
          "internalType": "address[]",
          "name": "mintItems",
          "type": "address[]"
        },
        {
          "internalType": "uint32[]",
          "name": "mintItemsChances",
          "type": "uint32[]"
        },
        {
          "internalType": "uint256",
          "name": "maxDropItems",
          "type": "uint256"
        }
      ],
      "stateMutability": "view",
      "type": "function"
    },
    {
      "inputs": [
        {
          "internalType": "string",
          "name": "name",
          "type": "string"
        }
      ],
      "name": "nameToUserAccount",
      "outputs": [
        {
          "internalType": "address",
          "name": "",
          "type": "address"
        }
      ],
      "stateMutability": "view",
      "type": "function"
    },
    {
      "inputs": [
        {
          "internalType": "uint256",
          "name": "lootBoxKind",
          "type": "uint256"
        }
      ],
      "name": "openLootBox",
      "outputs": [],
      "stateMutability": "nonpayable",
      "type": "function"
    },
    {
      "inputs": [],
      "name": "previousImplementation",
      "outputs": [
        {
          "internalType": "address",
          "name": "",
          "type": "address"
        }
      ],
      "stateMutability": "view",
      "type": "function"
    },
    {
      "inputs": [
        {
          "internalType": "address",
          "name": "hero",
          "type": "address"
        },
        {
          "internalType": "uint256",
          "name": "heroId",
          "type": "uint256"
        },
        {
          "internalType": "uint8",
          "name": "openedNgLevel",
          "type": "uint8"
        }
      ],
      "name": "registerFameHallHero",
      "outputs": [],
      "stateMutability": "nonpayable",
      "type": "function"
    },
    {
      "inputs": [
        {
          "internalType": "address",
          "name": "user",
          "type": "address"
        }
      ],
      "name": "registerPassedDungeon",
      "outputs": [],
      "stateMutability": "nonpayable",
      "type": "function"
    },
    {
      "inputs": [
        {
          "internalType": "address",
          "name": "user",
          "type": "address"
        },
        {
          "internalType": "bool",
          "name": "isWinner",
          "type": "bool"
        }
      ],
      "name": "registerPvP",
      "outputs": [],
      "stateMutability": "nonpayable",
      "type": "function"
    },
    {
      "inputs": [],
      "name": "revision",
      "outputs": [
        {
          "internalType": "uint256",
          "name": "",
          "type": "uint256"
        }
      ],
      "stateMutability": "view",
      "type": "function"
    },
    {
      "inputs": [
        {
          "internalType": "uint256",
          "name": "amount",
          "type": "uint256"
        }
      ],
      "name": "setFeeRenaming",
      "outputs": [],
      "stateMutability": "nonpayable",
      "type": "function"
    },
    {
      "inputs": [
        {
          "internalType": "uint256",
          "name": "lootBoxKind",
          "type": "uint256"
        },
        {
          "components": [
            {
              "internalType": "address[]",
              "name": "mintItems",
              "type": "address[]"
            },
            {
              "internalType": "uint32[]",
              "name": "mintItemsChances",
              "type": "uint32[]"
            },
            {
              "internalType": "uint256",
              "name": "maxDropItems",
              "type": "uint256"
            }
          ],
          "internalType": "struct IUserController.LootBoxConfig",
          "name": "config",
          "type": "tuple"
        }
      ],
      "name": "setLootBoxConfig",
      "outputs": [],
      "stateMutability": "nonpayable",
      "type": "function"
    },
    {
      "inputs": [
        {
          "internalType": "string",
          "name": "avatar",
          "type": "string"
        }
      ],
      "name": "setUserAvatar",
      "outputs": [],
      "stateMutability": "nonpayable",
      "type": "function"
    },
    {
      "inputs": [
        {
          "internalType": "string",
          "name": "name",
          "type": "string"
        }
      ],
      "name": "setUserName",
      "outputs": [],
      "stateMutability": "nonpayable",
      "type": "function"
    },
    {
      "inputs": [
        {
          "internalType": "address",
          "name": "userAccount",
          "type": "address"
        }
      ],
      "name": "userAccountName",
      "outputs": [
        {
          "internalType": "string",
          "name": "",
          "type": "string"
        }
      ],
      "stateMutability": "view",
      "type": "function"
    },
    {
      "inputs": [
        {
          "internalType": "address",
          "name": "user",
          "type": "address"
        }
      ],
      "name": "userActivity",
      "outputs": [
        {
          "components": [
            {
              "internalType": "uint32",
              "name": "epochDay",
              "type": "uint32"
            },
            {
              "internalType": "uint32",
              "name": "epochWeek",
              "type": "uint32"
            },
            {
              "internalType": "uint32",
              "name": "counterPassedDungeons",
              "type": "uint32"
            },
            {
              "internalType": "uint32",
              "name": "counterPvp",
              "type": "uint32"
            },
            {
              "internalType": "uint16",
              "name": "dailyActivities",
              "type": "uint16"
            },
            {
              "internalType": "bool",
              "name": "dailyLootBoxReceived",
              "type": "bool"
            },
            {
              "internalType": "bool",
              "name": "weeklyLootBoxReceived",
              "type": "bool"
            }
          ],
          "internalType": "struct IUserController.UserActivity",
          "name": "",
          "type": "tuple"
        }
      ],
      "stateMutability": "view",
      "type": "function"
    },
    {
      "inputs": [
        {
          "internalType": "address",
          "name": "userAccount",
          "type": "address"
        }
      ],
      "name": "userAvatar",
      "outputs": [
        {
          "internalType": "string",
          "name": "",
          "type": "string"
        }
      ],
      "stateMutability": "view",
      "type": "function"
    }
  ],
  "transactionHash": "0xa61de4776480903733364ce5b5b6ac087ad4309a78e534c1924a1ca32f057e80",
  "args": [],
  "numDeployments": 23,
  "solcInputHash": "1c5f5fd0b61f54e5cdb86891b80cc3ef",
  "bytecode": "0x60806040523480156200001157600080fd5b507ff0c57e16840df040f15088dc2f81fe391c3923bec73e23a9662efc9c229c6a00805468010000000000000000810460ff1615906001600160401b03166000811580156200005d5750825b90506000826001600160401b031660011480156200007a5750303b155b90508115801562000089575080155b15620000a85760405163f92ee8a960e01b815260040160405180910390fd5b84546001600160401b03191660011785558315620000d757845460ff60401b1916680100000000000000001785555b83156200011e57845460ff60401b19168555604051600181527fc7f505b2f371ae2175ee4913f4499e1f2633a7b5936321eed1cdaeb6115181d29060200160405180910390a15b505050505061340680620001336000396000f3fe608060405234801561001057600080fd5b50600436106101645760003560e01c8063769000ba116100c9578063769000ba146102e55780637cc96380146102f8578063936725ec1461030057806399e6da34146103245780639d0bcca0146103a3578063a3da7c13146103b8578063aa4bbdd6146103da578063b429afeb146103e2578063b875fb16146103f5578063c8e2c27914610408578063dee1f0e41461041b578063ef08d0951461042e578063f77c479114610441578063ffa1ad741461044957600080fd5b806301b543531461016957806319ab453c146101ba5780631a08e2fe146101cf578063234c23c0146101e25780632b5914fe146102125780632ca9aeed14610225578063325a19f1146102455780634593144c1461025b57806348b3bbec146102635780634fac6ccd1461027657806355a02c2d14610289578063572b6c051461029c5780636cd48ca1146102bf57806374303398146102d2575b600080fd5b61017c610177366004612b3a565b61046d565b604080516001600160a01b039586168152602081019490945291909316908201526001600160401b0390911660608201526080015b60405180910390f35b6101cd6101c8366004612b6a565b61048b565b005b6101cd6101dd366004612bf5565b610599565b6101f56101f0366004612b6a565b6105b5565b6040805163ffffffff9384168152929091166020830152016101b1565b6101cd610220366004612bf5565b6105ca565b610238610233366004612b6a565b6105eb565b6040516101b19190612cd9565b61024d6105fc565b6040519081526020016101b1565b61024d610635565b610238610271366004612b6a565b610665565b6101cd610284366004612b6a565b610670565b6101cd610297366004612cec565b610781565b6102af6102aa366004612b6a565b6107b1565b60405190151581526020016101b1565b6101cd6102cd366004612b6a565b6107ff565b6101cd6102e0366004612d13565b61081d565b6101cd6102f3366004612cec565b610834565b61024d61084d565b610238604051806040016040528060058152602001640312e302e360dc1b81525081565b610337610332366004612b6a565b61086b565b6040516101b19190600060e08201905063ffffffff8084511683528060208501511660208401528060408501511660408401528060608501511660608401525061ffff608084015116608083015260a0830151151560a083015260c0830151151560c083015292915050565b6103ab61087c565b6040516101b19190612d4c565b6103cb6103c6366004612cec565b6108ac565b6040516101b193929190612ddc565b61024d6108c7565b6102af6103f0366004612b6a565b6108d1565b6103ab610403366004612bf5565b6108f6565b6101cd610416366004612eb7565b610901565b6102af610429366004612b6a565b61091b565b6101cd61043c366004612fb8565b6109a0565b6103ab6109c0565b61023860405180604001604052806005815260200164312e302e3160d81b81525081565b60008060008061047c856109f0565b93509350935093509193509193565b6000610495610a77565b805490915060ff600160401b82041615906001600160401b03166000811580156104bc5750825b90506000826001600160401b031660011480156104d85750303b155b9050811580156104e6575080155b156105045760405163f92ee8a960e01b815260040160405180910390fd5b845467ffffffffffffffff19166001178555831561052e57845460ff60401b1916600160401b1785555b61053786610a9b565b683635c9adc5dea00000610549610aac565b55831561059157845460ff60401b19168555604051600181527fc7f505b2f371ae2175ee4913f4499e1f2633a7b5936321eed1cdaeb6115181d2906020015b60405180910390a15b505050505050565b6105b26105a4610ad0565b6105ac610ae8565b83610b0a565b50565b6000806105c183610ba5565b91509150915091565b6105b26105d5610ad0565b6105dd6109c0565b6105e5610ae8565b84610bfe565b60606105f682610f55565b92915050565b600061063061062c60017f6f55f470bdc9cb5f04223fd822021061668e4dccb43e8727b295106dc9769c8b61300c565b5490565b905090565b600061063061062c60017f812a673dfca07956350df10f8a654925f561d7a0da09bdbe79e653939a14d9f161300c565b60606105f68261100b565b3330146106c25760405162461bcd60e51b815260206004820152601b60248201527a24b731b932b0b9b2903932bb34b9b4b7b7103337b93134b23232b760291b60448201526064015b60405180910390fd5b60006106e061062c60016000805160206133b183398151915261300c565b6106eb90600161301f565b905061070d8161070a60016000805160206133b183398151915261300c565b55565b61073c8261070a60017fbfaaa2fb63266ff27c2da975f5894955056f50419af651a81f6c5060581857e461300c565b604080518281526001600160a01b03841660208201527ff27e2ef832a4eb8ed8ec553b875eecd44764cda95b1c24170e281539e0a869c8910160405180910390a15050565b6105b261078c6109c0565b610794610ae8565b8360028111156107a6576107a6613032565b61103c61105861149a565b60006001600160a01b03821673d8253782c45a12053594b9deb72d8e8ab2fca54c14806105f657506001600160a01b0382167352ceba41da235af367bfc0b0ccd3314cb901bb5f1492915050565b6105b261080a6109c0565b610812610ae8565b834260036007611a41565b6108306108286109c0565b610830610ae8565b5050565b6105b261083f6109c0565b610847610ae8565b83611e88565b600061063061062c60016000805160206133b183398151915261300c565b6108736129c8565b6105f682611ecc565b600061063061062c60017fbfaaa2fb63266ff27c2da975f5894955056f50419af651a81f6c5060581857e461300c565b60608060006108ba84611f78565b9250925092509193909250565b60006106306120e3565b60006108db6109c0565b6001600160a01b0316826001600160a01b0316149050919050565b60006105f6826120f3565b61083061090c6109c0565b610914610ae8565b848461212d565b6000816001600160a01b031661092f6109c0565b6001600160a01b0316635aa6e6756040518163ffffffff1660e01b8152600401602060405180830381865afa15801561096c573d6000803e3d6000fd5b505050506040513d601f19601f820116820180604052508101906109909190613048565b6001600160a01b03161492915050565b6109bb6109ab6109c0565b6109b3610ae8565b858585612215565b505050565b600061063061062c60017f5165972ef41194f06c5007493031d0b927c20741adcb74403b954009fd2c361861300c565b6000806000806000610a00610aac565b60ff96909616600090815260089096016020908152604096879020875160808101895281546001600160a01b038082168084526001600160401b03600160a01b9384900481169685018790526001909501549182169b84018c90529190049092166060909101819052909891979650945092505050565b7ff0c57e16840df040f15088dc2f81fe391c3923bec73e23a9662efc9c229c6a0090565b610aa36123e9565b6105b281612410565b7fb1ab856820591f650019ba94531c31db134c614288dc690130c9f2a4ef55480090565b6000610adb336107b1565b8061063057505032331490565b6000610af3336107b1565b15610b05575060131936013560601c90565b503390565b610b138361252f565b610100815110610b3657604051630595c1cb60e01b815260040160405180910390fd5b80610b3f610aac565b6001600160a01b03841660009081526007919091016020526040902090610b6690826130e7565b507f929802be5fe7ae64145e14ac786a7fbac52694e2e11fecbdc23db55f7a8132678282604051610b989291906131a6565b60405180910390a1505050565b6000806000610bb2610aac565b6001600160a01b039094166000908152600494909401602090815260409485902085518087019096525463ffffffff808216808852600160201b90920416959091018590529492505050565b610c078461252f565b6000610c11610aac565b60020182604051610c2291906131d2565b908152604051908190036020019020546001600160a01b031614610c5957604051639e4b268560e01b815260040160405180910390fd5b6014815110610c7b576040516370ab3a0360e11b815260040160405180910390fd5b610c848161254d565b610ca1576040516389974bd960e01b815260040160405180910390fd5b8051600003610cc35760405163b6f63d6560e01b815260040160405180910390fd5b6000610ccd610aac565b6001600160a01b0384166000908152600191909101602052604090208054610cf490613065565b80601f0160208091040260200160405190810160405280929190818152602001828054610d2090613065565b8015610d6d5780601f10610d4257610100808354040283529160200191610d6d565b820191906000526020600020905b815481529060010190602001808311610d5057829003601f168201915b505050505090508051600014610e9c576000610d87610aac565b5490508015610e64576000856001600160a01b031663c3dfdae66040518163ffffffff1660e01b8152600401602060405180830381865afa158015610dd0573d6000803e3d6000fd5b505050506040513d601f19601f82011682018060405250810190610df49190613048565b604051631e478ddf60e11b81526001600160a01b03808316600483015260248201859052878116604483015291925090871690633c8f1bbe90606401600060405180830381600087803b158015610e4a57600080fd5b505af1158015610e5e573d6000803e3d6000fd5b50505050505b610e6c610aac565b60020182604051610e7d91906131d2565b90815260405190819003602001902080546001600160a01b0319169055505b81610ea5610aac565b6001600160a01b03851660009081526001919091016020526040902090610ecc90826130e7565b5082610ed6610aac565b60020183604051610ee791906131d2565b90815260405190819003602001812080546001600160a01b03939093166001600160a01b0319909316929092179091557f18a9dce8ee97a89f83790cde290c8fba79f6ab76dc2ab1e3dd1db62e3f19f5ea90610f4690859085906131a6565b60405180910390a15050505050565b6060610f5f610aac565b6001600160a01b0383166000908152600791909101602052604090208054610f8690613065565b80601f0160208091040260200160405190810160405280929190818152602001828054610fb290613065565b8015610fff5780601f10610fd457610100808354040283529160200191610fff565b820191906000526020600020905b815481529060010190602001808311610fe257829003601f168201915b50505050509050919050565b6060611015610aac565b6001600160a01b0383166000908152600191909101602052604090208054610f8690613065565b60208220808352600090611051908390613204565b9392505050565b606082610100015160001461107c57506040805160008152602081019091526105f6565b60a083015151604080516020810191829052608086015160e08701516337347e0560e11b909352633b9aca006024830152604482019290925260009181906001600160a01b0316636e68fc0a606483016020604051808303816000875af11580156110eb573d6000803e3d6000fd5b505050506040513d601f19601f8201168201806040525081019061110f9190613218565b905290506000826001600160401b0381111561112d5761112d612b87565b604051908082528060200260200182016040528015611156578160200160208202803683370190505b50905060015b8381101561118a578082828151811061117757611177613231565b602090810291909101015260010161115c565b5061119582826125bd565b6000836001600160401b038111156111af576111af612b87565b6040519080825280602002602001820160405280156111d8578160200160208202803683370190505b5090506000806111f56111ee8a6040015161263f565b606461266e565b905060005b868110156113ac57633b9aca0063ffffffff168a6060015186838151811061122457611224613231565b60200260200101518151811061123c5761123c613231565b602002602001015163ffffffff1611156112ad57896060015185828151811061126757611267613231565b60200260200101518151811061127f5761127f613231565b60200260200101516040516304470bfd60e21b81526004016106b9919063ffffffff91909116815260200190565b60006112f08b606001518784815181106112c9576112c9613231565b6020026020010151815181106112e1576112e1613231565b60200260200101518c85612684565b9050600061130688633b9aca0063ffffffff8e16565b905081158015906113245750633b9aca008210158061132457508181105b156113a2578b5160ff168510156113a2578b60a0015187848151811061134c5761134c613231565b60200260200101518151811061136457611364613231565b602002602001015186848151811061137e5761137e613231565b6001600160a01b039092166020928302919091019091015261139f85613247565b94505b50506001016111fa565b506000826001600160401b038111156113c7576113c7612b87565b6040519080825280602002602001820160405280156113f0578160200160208202803683370190505b5090506000805b8881101561148a5760006001600160a01b031686828151811061141c5761141c613231565b60200260200101516001600160a01b0316146114825785818151811061144457611444613231565b602002602001015183838151811061145e5761145e613231565b6001600160a01b039092166020928302919091019091015261147f82613247565b91505b6001016113f7565b50909a9950505050505050505050565b60006114a4610aac565b6001600160a01b0386166000908152600491909101602090815260409182902082518084019093525463ffffffff8082168452600160201b9091041690820152905060018460028111156114fa576114fa613032565b14801561150f5750602081015163ffffffff16155b8061153b5750600084600281111561152957611529613032565b14801561153b5750805163ffffffff16155b806115585750600284600281111561155557611555613032565b10155b1561159a578484600281111561157057611570613032565b6040516317b49b4160e31b81526001600160a01b03909216600483015260248201526044016106b9565b60006115a4610aac565b60050160008660028111156115bb576115bb613032565b60028111156115cc576115cc613032565b81526020019081526020016000206040518060600160405290816000820180548060200260200160405190810160405280929190818152602001828054801561163e57602002820191906000526020600020905b81546001600160a01b03168152600190910190602001808311611620575b50505050508152602001600182018054806020026020016040519081016040528092919081815260200182805480156116c257602002820191906000526020600020906000905b82829054906101000a900463ffffffff1663ffffffff16815260200190600401906020826003010492830192600103820291508084116116855790505b50505050508152602001600282015481525050905060006117b8604051806101400160405280846040015160ff168152602001600060030b8152602001600060030b8152602001846020015181526020018a6001600160a01b0316637dc0d1d06040518163ffffffff1660e01b8152600401602060405180830381865afa158015611751573d6000803e3d6000fd5b505050506040513d601f19601f820116820180604052508101906117759190613048565b6001600160a01b0316815260200184600001518152602001600081526020016000815260200160008152602001670de0b6b3a7640000815250868663ffffffff16565b805190915060609080156119425760008a6001600160a01b03166331423c266040518163ffffffff1660e01b8152600401602060405180830381865afa158015611806573d6000803e3d6000fd5b505050506040513d601f19601f8201168201806040525081019061182a9190613048565b9050816001600160401b0381111561184457611844612b87565b60405190808252806020026020018201604052801561186d578160200160208202803683370190505b50925060005b8281101561193f57816001600160a01b031663ee1fe2ad86838151811061189c5761189c613231565b60200260200101518d6040518363ffffffff1660e01b81526004016118d79291906001600160a01b0392831681529116602082015260400190565b6020604051808303816000875af11580156118f6573d6000803e3d6000fd5b505050506040513d601f19601f8201168201806040525081019061191a9190613218565b84828151811061192c5761192c613231565b6020908102919091010152600101611873565b50505b600188600281111561195657611956613032565b03611979576020850180519061196b82613260565b63ffffffff1690525061198f565b84518561198582613260565b63ffffffff169052505b84611998610aac565b6001600160a01b038b1660009081526004919091016020908152604090912082518154939092015163ffffffff908116600160201b0267ffffffffffffffff199094169216919091179190911790557fe27b53ebf1a20d889e4f0ed669a58c8e30801cf8adcedbd1cf293d01bda71e1889896002811115611a1b57611a1b613032565b8585604051611a2d9493929190613280565b60405180910390a150505050505050505050565b611a4b868661274a565b6000611a55610aac565b6001600160a01b038616600090815260039190910160209081526040808320815160e081018352905463ffffffff8082168352600160201b8204811694830194909452600160401b8104841692820192909252600160601b8204909216606083015261ffff600160801b820416608083015260ff600160901b82048116151560a0840152600160981b90910416151560c08201529150611af862015180866132ec565b9050816000015163ffffffff168163ffffffff1614611b305763ffffffff811682526000604083018190526060830181905260a08301525b6000611b418263ffffffff166127df565b9050826020015163ffffffff168163ffffffff1614611b7057600060c084018190526080840181905260208401525b8260a00151611d4c57600183604001818151611b8c9190613300565b63ffffffff9081169091526040850151168690039050611d4c576000611bb0610aac565b6001600160a01b0389166000908152600491909101602090815260409182902082518084019093525463ffffffff808216808552600160201b90920416918301919091529091506001908290611c07908390613300565b63ffffffff908116909152600160a087015260208601518116908416039050611c8c57600184608001818151611c3d9190613324565b61ffff908116909152608086015116861490508015611c5e57508360c00151155b15611c8757600160c08501819052602082018051611c7d908390613300565b63ffffffff169052505b611ca7565b6001608085015263ffffffff82166020850152600060c08501525b80611cb0610aac565b6001600160a01b038a1660008181526004929092016020908152604092839020845181549583015163ffffffff908116600160201b0267ffffffffffffffff199097169116179490941790935560a087015160c0880151835192835290151593820193909352911515908201527f5f25ce8c1e71434ecac489aa2348b229579daa9554f1ba4800dddb335615432d9060600160405180910390a1505b82611d55610aac565b6003016000896001600160a01b03166001600160a01b0316815260200190815260200160002060008201518160000160006101000a81548163ffffffff021916908363ffffffff16021790555060208201518160000160046101000a81548163ffffffff021916908363ffffffff16021790555060408201518160000160086101000a81548163ffffffff021916908363ffffffff160217905550606082015181600001600c6101000a81548163ffffffff021916908363ffffffff16021790555060808201518160000160106101000a81548161ffff021916908361ffff16021790555060a08201518160000160126101000a81548160ff02191690831515021790555060c08201518160000160136101000a81548160ff021916908315150217905550905050505050505050505050565b611e9283836127f8565b80611e9b610aac565b556040518181527f2588659e00a7fbdb77c55e648801820a38c83b94785588b4963677243f20541c90602001610b98565b611ed46129c8565b611edc610aac565b6001600160a01b0390921660009081526003929092016020908152604092839020835160e081018552905463ffffffff8082168352600160201b8204811693830193909352600160401b8104831694820194909452600160601b8404909116606082015261ffff600160801b840416608082015260ff600160901b84048116151560a0830152600160981b909304909216151560c08301525090565b606080600080611f86610aac565b6005016000866002811115611f9d57611f9d613032565b6002811115611fae57611fae613032565b6002811115611fbf57611fbf613032565b81526020019081526020016000206040518060600160405290816000820180548060200260200160405190810160405280929190818152602001828054801561203157602002820191906000526020600020905b81546001600160a01b03168152600190910190602001808311612013575b50505050508152602001600182018054806020026020016040519081016040528092919081815260200182805480156120b557602002820191906000526020600020906000905b82829054906101000a900463ffffffff1663ffffffff16815260200190600401906020826003010492830192600103820291508084116120785790505b5050509183525050600291909101546020918201528151908201516040909201519097919650945092505050565b60006120ed610aac565b54919050565b60006120fd610aac565b6002018260405161210e91906131d2565b908152604051908190036020019020546001600160a01b031692915050565b612137848461288d565b80612140610aac565b600501600084600281111561215757612157613032565b600281111561216857612168613032565b600281111561217957612179613032565b815260208082019290925260400160002082518051919261219f92849290910190612a04565b5060208281015180516121b89260018501920190612a69565b50604082015181600201559050507fbe653149cd17ff0e18389f00dc982329cea9f2a2d7274325a883a003cdb95f1282826000015183602001518460400151604051612207949392919061333f565b60405180910390a150505050565b61221f8585612919565b6000612229610aac565b60ff8316600090815260089190910160205260409020600101546001600160a01b03161461226f5760405163c1bb6e6560e01b815260ff821660048201526024016106b9565b6040516331a9108f60e11b8152600481018390526000906001600160a01b03851690636352211e90602401602060405180830381865afa1580156122b7573d6000803e3d6000fd5b505050506040513d601f19601f820116820180604052508101906122db9190613048565b90506040518060800160405280856001600160a01b03168152602001846001600160401b03168152602001826001600160a01b03168152602001426001600160401b031681525061232a610aac565b60ff84166000818152600892909201602090815260409283902084518154868401516001600160a01b039283166001600160e01b031992831617600160a01b6001600160401b039283168102919091178555888801516001909501805460609a8b015196861694169390931794909116029290921790915583518982168152918201889052851692810192909252918101919091527f9eb204826c4f9d20314d07689c3cd26ce672205690832243437ce4c748b9e48a90608001610588565b6123f16129ae565b61240e57604051631afcd79f60e31b815260040160405180910390fd5b565b6001600160a01b0381166124585760405162461bcd60e51b815260206004820152600f60248201526e2d32b9379031b7b73a3937b63632b960891b60448201526064016106b9565b6124878161070a60017f5165972ef41194f06c5007493031d0b927c20741adcb74403b954009fd2c361861300c565b6124b64261070a60017f6f55f470bdc9cb5f04223fd822021061668e4dccb43e8727b295106dc9769c8b61300c565b6124e54361070a60017f812a673dfca07956350df10f8a654925f561d7a0da09bdbe79e653939a14d9f161300c565b604080516001600160a01b0383168152426020820152438183015290517f1a2dd071001ebf6e03174e3df5b305795a4ad5d41d8fdb9ba41dbbe2367134269181900360600190a150565b806105b257604051636221cab960e01b815260040160405180910390fd5b600081815b81518110156125b357602082828151811061256f5761256f613231565b016020015160f81c108061259c5750607f82828151811061259257612592613231565b016020015160f81c115b156125ab575060009392505050565b600101612552565b5060019392505050565b80516000196001600160801b038215612638576020840193505b6020852080865282840193608082901c0660051b8501846125f9575050612638565b600585811b8701805183519091529091528385019482841606901b850184612622575050612638565b600585901b8601805182519091529052506125d7565b5050505050565b6000808260030b121561265457506000919050565b60008260030b1361266757506000919050565b5060030b90565b600081831061267d5781611051565b5090919050565b600080670de0b6b3a76400006126a7670de0b6b3a764000086610120015161266e565b6126b79063ffffffff881661337c565b6126c191906132ec565b9050670de0b6b3a76400008460c00151826126dc919061337c565b6126e691906132ec565b6126f0908261301f565b90506064612701856020015161263f565b61270b908361337c565b61271591906132ec565b61271f908261301f565b9050606461272d848361337c565b61273791906132ec565b612741908261300c565b95945050505050565b806001600160a01b0316826001600160a01b031663683fedf76040518163ffffffff1660e01b8152600401602060405180830381865afa158015612792573d6000803e3d6000fd5b505050506040513d601f19601f820116820180604052508101906127b69190613048565b6001600160a01b031614610830578060405163cf219bef60e01b81526004016106b99190612d4c565b600060076127ee83600361301f565b6105f691906132ec565b806001600160a01b0316826001600160a01b0316635aa6e6756040518163ffffffff1660e01b8152600401602060405180830381865afa158015612840573d6000803e3d6000fd5b505050506040513d601f19601f820116820180604052508101906128649190613048565b6001600160a01b031614610830578060405163988d1f0360e01b81526004016106b99190612d4c565b604051631430d62960e21b81526001600160a01b038316906350c358a4906128b9908490600401612d4c565b602060405180830381865afa1580156128d6573d6000803e3d6000fd5b505050506040513d601f19601f820116820180604052508101906128fa9190613393565b610830578060405163451cea1760e11b81526004016106b99190612d4c565b806001600160a01b0316826001600160a01b031663016dff5d6040518163ffffffff1660e01b8152600401602060405180830381865afa158015612961573d6000803e3d6000fd5b505050506040513d601f19601f820116820180604052508101906129859190613048565b6001600160a01b03161461083057806040516303f2374960e01b81526004016106b99190612d4c565b60006129b8610a77565b54600160401b900460ff16919050565b6040805160e081018252600080825260208201819052918101829052606081018290526080810182905260a0810182905260c081019190915290565b828054828255906000526020600020908101928215612a59579160200282015b82811115612a5957825182546001600160a01b0319166001600160a01b03909116178255602090920191600190910190612a24565b50612a65929150612b0f565b5090565b82805482825590600052602060002090600701600890048101928215612a595791602002820160005b83821115612ad657835183826101000a81548163ffffffff021916908363ffffffff1602179055509260200192600401602081600301049283019260010302612a92565b8015612b065782816101000a81549063ffffffff0219169055600401602081600301049283019260010302612ad6565b5050612a659291505b5b80821115612a655760008155600101612b10565b803560ff81168114612b3557600080fd5b919050565b600060208284031215612b4c57600080fd5b61105182612b24565b6001600160a01b03811681146105b257600080fd5b600060208284031215612b7c57600080fd5b813561105181612b55565b634e487b7160e01b600052604160045260246000fd5b604051606081016001600160401b0381118282101715612bbf57612bbf612b87565b60405290565b604051601f8201601f191681016001600160401b0381118282101715612bed57612bed612b87565b604052919050565b60006020808385031215612c0857600080fd5b82356001600160401b0380821115612c1f57600080fd5b818501915085601f830112612c3357600080fd5b813581811115612c4557612c45612b87565b612c57601f8201601f19168501612bc5565b91508082528684828501011115612c6d57600080fd5b8084840185840137600090820190930192909252509392505050565b60005b83811015612ca4578181015183820152602001612c8c565b50506000910152565b60008151808452612cc5816020860160208601612c89565b601f01601f19169290920160200192915050565b6020815260006110516020830184612cad565b600060208284031215612cfe57600080fd5b5035919050565b80151581146105b257600080fd5b60008060408385031215612d2657600080fd5b8235612d3181612b55565b91506020830135612d4181612d05565b809150509250929050565b6001600160a01b0391909116815260200190565b60008151808452602080850194506020840160005b83811015612d9a5781516001600160a01b031687529582019590820190600101612d75565b509495945050505050565b60008151808452602080850194506020840160005b83811015612d9a57815163ffffffff1687529582019590820190600101612dba565b606081526000612def6060830186612d60565b8281036020840152612e018186612da5565b915050826040830152949350505050565b60006001600160401b03821115612e2b57612e2b612b87565b5060051b60200190565b600082601f830112612e4657600080fd5b81356020612e5b612e5683612e12565b612bc5565b8083825260208201915060208460051b870101935086841115612e7d57600080fd5b602086015b84811015612eac57803563ffffffff81168114612e9f5760008081fd5b8352918301918301612e82565b509695505050505050565b60008060408385031215612eca57600080fd5b823591506020808401356001600160401b0380821115612ee957600080fd5b9085019060608288031215612efd57600080fd5b612f05612b9d565b823582811115612f1457600080fd5b8301601f81018913612f2557600080fd5b8035612f33612e5682612e12565b81815260059190911b8201860190868101908b831115612f5257600080fd5b928701925b82841015612f79578335612f6a81612b55565b82529287019290870190612f57565b84525050508284013582811115612f8f57600080fd5b612f9b89828601612e35565b858301525060408301356040820152809450505050509250929050565b600080600060608486031215612fcd57600080fd5b8335612fd881612b55565b925060208401359150612fed60408501612b24565b90509250925092565b634e487b7160e01b600052601160045260246000fd5b818103818111156105f6576105f6612ff6565b808201808211156105f6576105f6612ff6565b634e487b7160e01b600052602160045260246000fd5b60006020828403121561305a57600080fd5b815161105181612b55565b600181811c9082168061307957607f821691505b60208210810361309957634e487b7160e01b600052602260045260246000fd5b50919050565b601f8211156109bb576000816000526020600020601f850160051c810160208610156130c85750805b601f850160051c820191505b81811015610591578281556001016130d4565b81516001600160401b0381111561310057613100612b87565b6131148161310e8454613065565b8461309f565b602080601f83116001811461314957600084156131315750858301515b600019600386901b1c1916600185901b178555610591565b600085815260208120601f198616915b8281101561317857888601518255948401946001909101908401613159565b50858210156131965787850151600019600388901b60f8161c191681555b5050505050600190811b01905550565b6001600160a01b03831681526040602082018190526000906131ca90830184612cad565b949350505050565b600082516131e4818460208701612c89565b9190910192915050565b634e487b7160e01b600052601260045260246000fd5b600082613213576132136131ee565b500690565b60006020828403121561322a57600080fd5b5051919050565b634e487b7160e01b600052603260045260246000fd5b60006001820161325957613259612ff6565b5060010190565b600063ffffffff82168061327657613276612ff6565b6000190192915050565b60018060a01b038516815260006020856020840152608060408401526132a96080840186612d60565b83810360608501528451808252602080870192019060005b818110156132dd578351835292840192918401916001016132c1565b50909998505050505050505050565b6000826132fb576132fb6131ee565b500490565b63ffffffff81811683821601908082111561331d5761331d612ff6565b5092915050565b61ffff81811683821601908082111561331d5761331d612ff6565b8481526080602082015260006133586080830186612d60565b828103604084015261336a8186612da5565b91505082606083015295945050505050565b80820281158282048414176105f6576105f6612ff6565b6000602082840312156133a557600080fd5b815161105181612d0556fe22573091f17911fb166032a3d9e0554aa73d31b7b7ddea4a4dd2995650af84bda264697066735822122056aee46d82568a4bc5d318cc301f2c74c2f272f291da8499b8cbbc293ebc4e9364736f6c63430008170033",
  "libraries": {},
  "devdoc": {
    "errors": {
      "InvalidInitialization()": [
        {
          "details": "The contract is already initialized."
        }
      ],
      "NotInitializing()": [
        {
          "details": "The contract is not initializing."
        }
      ]
    },
    "events": {
      "Initialized(uint64)": {
        "details": "Triggered when the contract has been initialized or reinitialized."
      }
    },
    "kind": "dev",
    "methods": {
      "created()": {
        "returns": {
          "_0": "Creation timestamp"
        }
      },
      "createdBlock()": {
        "returns": {
          "_0": "Creation block number"
        }
      },
      "fameHallHero(uint8)": {
        "returns": {
          "hero": "The hero who has opened given NG_LEVE first",
          "heroId": "ID of the hero who has opened given NG_LEVE first",
          "heroOwner": "The owner of the hero",
          "tsOpen": "Timestamp of the moment of opening of the given NG_LEVEL"
        }
      },
      "increaseRevision(address)": {
        "details": "Revision should be increased on each contract upgrade"
      },
      "isController(address)": {
        "details": "Return true if given address is controller"
      },
      "previousImplementation()": {
        "details": "Previous logic implementation"
      },
      "registerPassedDungeon(address)": {
        "params": {
          "user": "Owner of the hero who has passed the dungeon"
        }
      },
      "registerPvP(address,bool)": {
        "params": {
          "user": "Owner of the hero who has taken participation in the PvP"
        }
      },
      "revision()": {
        "details": "Contract upgrade counter"
      }
    },
    "stateVariables": {
      "VERSION": {
        "details": "Should be incremented when contract changed"
      }
    },
    "version": 1
  },
  "userdoc": {
    "kind": "user",
    "methods": {
      "CONTROLLABLE_VERSION()": {
        "notice": "Version of the contract"
      },
      "VERSION()": {
        "notice": "Version of the contract"
      },
      "controller()": {
        "notice": "Return controller address saved in the contract slot"
      },
      "created()": {
        "notice": "Return creation timestamp"
      },
      "createdBlock()": {
        "notice": "Return creation block number"
      },
      "isGovernance(address)": {
        "notice": "Return true if given address is setup as governance in Controller"
      },
      "registerFameHallHero(address,uint256,uint8)": {
        "notice": "Register the hero who has opened given NG_LEVE first in the Hall of Fame"
      },
      "registerPassedDungeon(address)": {
        "notice": "Register daily activity - a dungeon was passed"
      },
      "registerPvP(address,bool)": {
        "notice": "Register daily activity - PvP was made"
      }
    },
    "version": 1
  },
  "storageLayout": {
    "storage": [],
    "types": null
  }
}