{
  "address": "0xeFBc16b8c973DecA383aAAbAB07153D2EB676556",
  "abi": [
    {
      "inputs": [],
      "name": "clearData",
      "outputs": [],
      "stateMutability": "nonpayable",
      "type": "function"
    },
    {
      "inputs": [
        {
          "internalType": "address",
          "name": "",
          "type": "address"
        }
      ],
      "name": "data",
      "outputs": [
        {
          "internalType": "bytes",
          "name": "",
          "type": "bytes"
        }
      ],
      "stateMutability": "view",
      "type": "function"
    },
    {
      "inputs": [
        {
          "internalType": "bytes",
          "name": "_data",
          "type": "bytes"
        }
      ],
      "name": "store",
      "outputs": [],
      "stateMutability": "nonpayable",
      "type": "function"
    }
  ],
  "transactionHash": "0x5d6017b2c8b4917f97d3a4cd5eb6e49e16ce865c687c87c99f181bdbb7339abc",
  "args": [],
  "numDeployments": 1,
  "solcInputHash": "16985c9b56ef3e837ac22e18deab0d1a",
  "bytecode": "0x608060405234801561001057600080fd5b5061043d806100206000396000f3fe608060405234801561001057600080fd5b50600436106100415760003560e01c8063b374012b14610046578063b90d3d0c1461005b578063b9e7a43914610084575b600080fd5b6100596100543660046101b5565b61008c565b005b61006e610069366004610227565b6100ab565b60405161007b9190610257565b60405180910390f35b610059610145565b3360009081526020819052604090206100a6828483610346565b505050565b600060208190529081526040902080546100c4906102bc565b80601f01602080910402602001604051908101604052809291908181526020018280546100f0906102bc565b801561013d5780601f106101125761010080835404028352916020019161013d565b820191906000526020600020905b81548152906001019060200180831161012057829003601f168201915b505050505081565b33600090815260208190526040812061015d9161015f565b565b50805461016b906102bc565b6000825580601f1061017b575050565b601f016020900490600052602060002090810190610199919061019c565b50565b5b808211156101b1576000815560010161019d565b5090565b600080602083850312156101c857600080fd5b823567ffffffffffffffff808211156101e057600080fd5b818501915085601f8301126101f457600080fd5b81358181111561020357600080fd5b86602082850101111561021557600080fd5b60209290920196919550909350505050565b60006020828403121561023957600080fd5b81356001600160a01b038116811461025057600080fd5b9392505050565b60006020808352835180602085015260005b8181101561028557858101830151858201604001528201610269565b506000604082860101526040601f19601f8301168501019250505092915050565b634e487b7160e01b600052604160045260246000fd5b600181811c908216806102d057607f821691505b6020821081036102f057634e487b7160e01b600052602260045260246000fd5b50919050565b601f8211156100a6576000816000526020600020601f850160051c8101602086101561031f5750805b601f850160051c820191505b8181101561033e5782815560010161032b565b505050505050565b67ffffffffffffffff83111561035e5761035e6102a6565b6103728361036c83546102bc565b836102f6565b6000601f8411600181146103a6576000851561038e5750838201355b600019600387901b1c1916600186901b178355610400565b600083815260209020601f19861690835b828110156103d757868501358255602094850194600190920191016103b7565b50868210156103f45760001960f88860031b161c19848701351681555b505060018560011b0183555b505050505056fea2646970667358221220262925e8d3c8f39e5b9d2e203cee1401071df511b57a0b961386133f652f015064736f6c63430008170033",
  "devdoc": {
    "kind": "dev",
    "methods": {},
    "version": 1
  },
  "userdoc": {
    "kind": "user",
    "methods": {},
    "version": 1
  },
  "storageLayout": {
    "storage": [
      {
        "astId": 123159,
        "contract": "contracts/tools/DataStorage.sol:DataStorage",
        "label": "data",
        "offset": 0,
        "slot": "0",
        "type": "t_mapping(t_address,t_bytes_storage)"
      }
    ],
    "types": {
      "t_address": {
        "encoding": "inplace",
        "label": "address",
        "numberOfBytes": "20"
      },
      "t_bytes_storage": {
        "encoding": "bytes",
        "label": "bytes",
        "numberOfBytes": "32"
      },
      "t_mapping(t_address,t_bytes_storage)": {
        "encoding": "mapping",
        "key": "t_address",
        "label": "mapping(address => bytes)",
        "numberOfBytes": "32",
        "value": "t_bytes_storage"
      }
    }
  }
}