{
  "address": "0x999a922eF15Cb498dF693F9482698471EF8e9Dc9",
  "abi": [
    {
      "inputs": [],
      "name": "ErrorHeroNotInDungeon",
      "type": "error"
    },
    {
      "inputs": [],
      "name": "ErrorNotCompleted",
      "type": "error"
    },
    {
      "inputs": [
        {
          "internalType": "uint32",
          "name": "mana",
          "type": "uint32"
        },
        {
          "internalType": "uint256",
          "name": "requiredMana",
          "type": "uint256"
        }
      ],
      "name": "ErrorNotEnoughMana",
      "type": "error"
    },
    {
      "inputs": [],
      "name": "ErrorNotObject2",
      "type": "error"
    },
    {
      "inputs": [
        {
          "internalType": "address",
          "name": "token",
          "type": "address"
        },
        {
          "internalType": "uint256",
          "name": "tokenId",
          "type": "uint256"
        }
      ],
      "name": "ErrorNotOwner",
      "type": "error"
    },
    {
      "inputs": [],
      "name": "ErrorPaused",
      "type": "error"
    },
    {
      "inputs": [],
      "name": "LastLifeChance",
      "type": "error"
    },
    {
      "inputs": [
        {
          "internalType": "uint256",
          "name": "balance",
          "type": "uint256"
        },
        {
          "internalType": "uint256",
          "name": "expectedBalance",
          "type": "uint256"
        }
      ],
      "name": "NotEnoughTokens",
      "type": "error"
    },
    {
      "inputs": [
        {
          "internalType": "uint256",
          "name": "index",
          "type": "uint256"
        },
        {
          "internalType": "uint256",
          "name": "length",
          "type": "uint256"
        }
      ],
      "name": "OutOfBounds",
      "type": "error"
    },
    {
      "inputs": [
        {
          "internalType": "uint256",
          "name": "value",
          "type": "uint256"
        }
      ],
      "name": "TooHighValue",
      "type": "error"
    },
    {
      "inputs": [
        {
          "internalType": "uint256",
          "name": "x",
          "type": "uint256"
        }
      ],
      "name": "TooLowX",
      "type": "error"
    },
    {
      "inputs": [],
      "name": "ZeroToken",
      "type": "error"
    },
    {
      "anonymous": false,
      "inputs": [
        {
          "indexed": false,
          "internalType": "uint64",
          "name": "dungId",
          "type": "uint64"
        },
        {
          "indexed": false,
          "internalType": "address",
          "name": "itemAdr",
          "type": "address"
        },
        {
          "indexed": false,
          "internalType": "uint256",
          "name": "itemId",
          "type": "uint256"
        }
      ],
      "name": "AddTreasuryItem",
      "type": "event"
    },
    {
      "anonymous": false,
      "inputs": [
        {
          "indexed": false,
          "internalType": "uint64",
          "name": "dungId",
          "type": "uint64"
        },
        {
          "indexed": false,
          "internalType": "address",
          "name": "token",
          "type": "address"
        },
        {
          "indexed": false,
          "internalType": "uint256",
          "name": "amount",
          "type": "uint256"
        }
      ],
      "name": "AddTreasuryToken",
      "type": "event"
    },
    {
      "anonymous": false,
      "inputs": [
        {
          "indexed": false,
          "internalType": "address",
          "name": "msgSender",
          "type": "address"
        },
        {
          "indexed": false,
          "internalType": "uint8",
          "name": "biome",
          "type": "uint8"
        },
        {
          "indexed": false,
          "internalType": "uint256",
          "name": "guildId",
          "type": "uint256"
        },
        {
          "indexed": false,
          "internalType": "uint256",
          "name": "amount",
          "type": "uint256"
        },
        {
          "indexed": false,
          "internalType": "uint256",
          "name": "taxPercent",
          "type": "uint256"
        },
        {
          "indexed": false,
          "internalType": "uint256",
          "name": "taxAmount",
          "type": "uint256"
        },
        {
          "indexed": false,
          "internalType": "uint64",
          "name": "dungeonId",
          "type": "uint64"
        }
      ],
      "name": "BiomeTaxPaid",
      "type": "event"
    },
    {
      "anonymous": false,
      "inputs": [
        {
          "indexed": false,
          "internalType": "address",
          "name": "msgSender",
          "type": "address"
        },
        {
          "indexed": false,
          "internalType": "uint8",
          "name": "biome",
          "type": "uint8"
        },
        {
          "indexed": false,
          "internalType": "uint256",
          "name": "guildId",
          "type": "uint256"
        },
        {
          "indexed": false,
          "internalType": "address",
          "name": "item",
          "type": "address"
        },
        {
          "indexed": false,
          "internalType": "uint256",
          "name": "itemId",
          "type": "uint256"
        },
        {
          "indexed": false,
          "internalType": "uint256",
          "name": "taxPercent",
          "type": "uint256"
        },
        {
          "indexed": false,
          "internalType": "uint64",
          "name": "dungeonId",
          "type": "uint64"
        }
      ],
      "name": "BiomeTaxPaidNft",
      "type": "event"
    },
    {
      "anonymous": false,
      "inputs": [
        {
          "indexed": false,
          "internalType": "uint64",
          "name": "dungId",
          "type": "uint64"
        },
        {
          "indexed": false,
          "internalType": "address",
          "name": "token",
          "type": "address"
        },
        {
          "indexed": false,
          "internalType": "uint256",
          "name": "id",
          "type": "uint256"
        }
      ],
      "name": "ClaimItem",
      "type": "event"
    },
    {
      "anonymous": false,
      "inputs": [
        {
          "indexed": false,
          "internalType": "uint64",
          "name": "dungId",
          "type": "uint64"
        },
        {
          "indexed": false,
          "internalType": "address",
          "name": "token",
          "type": "address"
        },
        {
          "indexed": false,
          "internalType": "uint256",
          "name": "amount",
          "type": "uint256"
        }
      ],
      "name": "ClaimToken",
      "type": "event"
    },
    {
      "anonymous": false,
      "inputs": [
        {
          "indexed": false,
          "internalType": "uint16",
          "name": "dungLogicNum",
          "type": "uint16"
        },
        {
          "indexed": false,
          "internalType": "uint64",
          "name": "dungId",
          "type": "uint64"
        },
        {
          "indexed": false,
          "internalType": "address",
          "name": "hero",
          "type": "address"
        },
        {
          "indexed": false,
          "internalType": "uint256",
          "name": "heroId",
          "type": "uint256"
        }
      ],
      "name": "DungeonCompleted",
      "type": "event"
    },
    {
      "anonymous": false,
      "inputs": [
        {
          "indexed": false,
          "internalType": "uint64",
          "name": "dungId",
          "type": "uint64"
        },
        {
          "indexed": false,
          "internalType": "bool",
          "name": "claim",
          "type": "bool"
        }
      ],
      "name": "Exit",
      "type": "event"
    },
    {
      "anonymous": false,
      "inputs": [
        {
          "indexed": false,
          "internalType": "address",
          "name": "hero",
          "type": "address"
        },
        {
          "indexed": false,
          "internalType": "uint256",
          "name": "heroId",
          "type": "uint256"
        },
        {
          "indexed": false,
          "internalType": "uint64",
          "name": "dungeonId",
          "type": "uint64"
        }
      ],
      "name": "HeroCurrentDungeonChanged",
      "type": "event"
    },
    {
      "anonymous": false,
      "inputs": [
        {
          "indexed": false,
          "internalType": "uint64",
          "name": "dungId",
          "type": "uint64"
        },
        {
          "components": [
            {
              "internalType": "bool",
              "name": "kill",
              "type": "bool"
            },
            {
              "internalType": "bool",
              "name": "completed",
              "type": "bool"
            },
            {
              "internalType": "address",
              "name": "heroToken",
              "type": "address"
            },
            {
              "internalType": "address[]",
              "name": "mintItems",
              "type": "address[]"
            },
            {
              "internalType": "int32",
              "name": "heal",
              "type": "int32"
            },
            {
              "internalType": "int32",
              "name": "manaRegen",
              "type": "int32"
            },
            {
              "internalType": "int32",
              "name": "lifeChancesRecovered",
              "type": "int32"
            },
            {
              "internalType": "int32",
              "name": "damage",
              "type": "int32"
            },
            {
              "internalType": "int32",
              "name": "manaConsumed",
              "type": "int32"
            },
            {
              "internalType": "uint32",
              "name": "objectId",
              "type": "uint32"
            },
            {
              "internalType": "uint32",
              "name": "experience",
              "type": "uint32"
            },
            {
              "internalType": "uint256",
              "name": "heroTokenId",
              "type": "uint256"
            },
            {
              "internalType": "uint256",
              "name": "iteration",
              "type": "uint256"
            },
            {
              "internalType": "uint32[]",
              "name": "rewriteNextObject",
              "type": "uint32[]"
            }
          ],
          "indexed": false,
          "internalType": "struct IGOC.ActionResultEvent",
          "name": "result",
          "type": "tuple"
        },
        {
          "indexed": false,
          "internalType": "uint256",
          "name": "currentStage",
          "type": "uint256"
        },
        {
          "indexed": false,
          "internalType": "address",
          "name": "heroToken",
          "type": "address"
        },
        {
          "indexed": false,
          "internalType": "uint256",
          "name": "heroTokenId",
          "type": "uint256"
        },
        {
          "indexed": false,
          "internalType": "uint256",
          "name": "newStage",
          "type": "uint256"
        }
      ],
      "name": "ObjectAction",
      "type": "event"
    },
    {
      "anonymous": false,
      "inputs": [
        {
          "indexed": false,
          "internalType": "uint64",
          "name": "dungId",
          "type": "uint64"
        },
        {
          "indexed": false,
          "internalType": "address",
          "name": "token",
          "type": "address"
        },
        {
          "indexed": false,
          "internalType": "uint256",
          "name": "amount",
          "type": "uint256"
        }
      ],
      "name": "SandboxReturnAmountToTreasury",
      "type": "event"
    },
    {
      "inputs": [],
      "name": "MIN_LEVEL_FOR_TREASURY_DEFAULT",
      "outputs": [
        {
          "internalType": "uint256",
          "name": "",
          "type": "uint256"
        }
      ],
      "stateMutability": "view",
      "type": "function"
    }
  ],
  "transactionHash": "0x97887a0547da2322f4bd37bbbb3637fad6583e4eef14680bee140fc6923908a9",
  "args": [],
  "numDeployments": 15,
  "solcInputHash": "21694ae9f6af6d7e6b6c0f63af22fba5",
  "bytecode": "0x6154ae61003a600b82828239805160001a60731461002d57634e487b7160e01b600052600060045260246000fd5b30600052607381538281f3fe73000000000000000000000000000000000000000030146080604052600436106100565760003560e01c80630b5ac2981461005b57806311942d17146100765780634b0d0cd6146100c65780634e7b66d4146100e8575b600080fd5b610063600581565b6040519081526020015b60405180910390f35b81801561008257600080fd5b506100966100913660046145fb565b610108565b60405161006d94939291909315158452602084019290925263ffffffff1660408301521515606082015260800190565b8180156100d257600080fd5b506100e66100e13660046146e7565b6102e2565b005b8180156100f457600080fd5b506100e661010336600461472a565b610407565b604080516101e08101825260008082526020820181905291810182905260608082018190526080820181905260a0820183905260c0820183905260e08201839052610100820183905261012082018390526101408201839052610160820183905261018082018390526101a082018390526101c08201528190819081906000610190886107f6565b90506102ca604051806101a001604052808c6001600160a01b031681526020018f600001600b9054906101000a90046001600160a01b03166001600160a01b031681526020016101df8461080e565b6001600160a01b031681526020018b81526020018f60070160009054906101000a900460ff1660ff1681526020018e60000160019054906101000a900460ff1660ff1681526020018f6001015481526020018d6001600160401b031681526020018963ffffffff1681526020018f60020160049054906101000a900460ff1660ff1681526020016000151581526020018481526020016040518060a00160405280600063ffffffff168152602001600063ffffffff168152602001600063ffffffff168152602001600063ffffffff168152602001600063ffffffff168152508152508e8e84610833565b95509550955095505050975097509750979350505050565b60006102ec610e55565b9050600081600e016000846001600160401b03166001600160401b03168152602001908152602001600020905061039d82856001600160a01b031663016dff5d6040518163ffffffff1660e01b8152600401602060405180830381865afa15801561035b573d6000803e3d6000fd5b505050506040513d601f19601f8201168201806040525081019061037f919061478f565b83546001850154600160581b9091046001600160a01b031690610e79565b8054600160501b600160f81b031916600160501b178155600060018201819055604080516001600160401b038616815260208101929092527f9bc0000bc1cebc0d3d656c85c7b4b33090a7808ebf6f438c98d93e4430f5ce0a91015b60405180910390a150505050565b6000610411610e55565b6001600160401b0385166000908152600e91909101602052604081209150610438866107f6565b82546001840154919250600160581b81046001600160a01b03169190600160501b900460ff1661047b576040516324b7275f60e01b815260040160405180910390fd5b876001600160a01b03166318d928316040518163ffffffff1660e01b8152600401602060405180830381865afa1580156104b9573d6000803e3d6000fd5b505050506040513d601f19601f820116820180604052508101906104dd91906147b7565b156104fb57604051635e1633d360e11b815260040160405180910390fd5b610506828287610efe565b866001600160401b0316610518610e55565b60040160006105306001600160a01b03861685610f9c565b81526020810191909152604001600020546001600160401b031614610568576040516337bcc65160e01b815260040160405180910390fd5b600061057384610fec565b90506000816001600160a01b031663a13cf106856040518263ffffffff1660e01b81526004016105a391906147d4565b6040805180830381865afa1580156105bf573d6000803e3d6000fd5b505050506040513d601f19601f820116820180604052508101906105e391906147e8565b5090506001600160a01b03811661060d5760405163ad1991f560e01b815260040160405180910390fd5b8554600160401b900461ffff1661062e610625610e55565b828c888861100c565b88156106435761064386898c848b8a8a6110cd565b61065661064e610e55565b848787610e79565b60008b6001600160a01b031663490fb76a6040518163ffffffff1660e01b8152600401602060405180830381865afa158015610696573d6000803e3d6000fd5b505050506040513d601f19601f820116820180604052508101906106ba919061478f565b90506001600160a01b038116156107a45760405163dec38e7760e01b81526001906001600160a01b0386169063dec38e77906106fc908a908a9060040161482c565b602060405180830381865afa158015610719573d6000803e3d6000fd5b505050506040513d601f19601f8201168201806040525081019061073d9190614856565b60ff16146107a457604051636cd48ca160e01b81526001600160a01b03821690636cd48ca190610771908c906004016147d4565b600060405180830381600087803b15801561078b57600080fd5b505af115801561079f573d6000803e3d6000fd5b505050505b604080516001600160401b038d1681528b151560208201527f9bc0000bc1cebc0d3d656c85c7b4b33090a7808ebf6f438c98d93e4430f5ce0a91015b60405180910390a1505050505050505050505050565b6107fe6143a7565b6001600160a01b03909116815290565b600061082d82600084600001516001600160a01b0316628e9691611760565b92915050565b61010084015160009081908163ffffffff821681036108655760405163230b93ef60e11b815260040160405180910390fd5b61086e8561186e565b61010089015160405163d447d4df60e01b815263ffffffff90911660048201526001600160a01b03919091169063d447d4df90602401602060405180830381865afa1580156108c1573d6000803e3d6000fd5b505050506040513d601f19601f820116820180604052508101906108e591906147b7565b15156101408901526108f68561186e565b6001600160a01b031663909aa53989600001518a60e001518b61010001518c602001518d60c001518e61012001518f606001516040518863ffffffff1660e01b815260040161094b9796959493929190614871565b6000604051808303816000875af115801561096a573d6000803e3d6000fd5b505050506040513d6000823e601f3d908101601f191682016040526109929190810190614a2d565b610160890152610140880151156109d0576109d06109ae610e55565b89604001516109bc8861188e565b8b606001518c602001518d60c001516118ae565b87604001516001600160a01b031663d4ac484889602001518a60c001516040518363ffffffff1660e01b8152600401610a0a92919061482c565b60a060405180830381865afa158015610a27573d6000803e3d6000fd5b505050506040513d601f19601f82011682018060405250810190610a4b9190614baa565b6101808901526101608801516101200151610a689060030b611c2f565b8861018001516060015163ffffffff161015610aca5787610180015160600151610a9e896101600151610120015160030b611c2f565b60405163c3054b0760e01b815263ffffffff909216600483015260248201526044015b60405180910390fd5b6101608801515180610b005750610aed886101600151610100015160030b611c2f565b8861018001516040015163ffffffff1611155b15610c585761016088015160019052610b1b88888888611c4a565b600088604001516001600160a01b0316631c2aafe78a602001518b60c001516a111150551217d0d3d5539560aa1b6040518463ffffffff1660e01b8152600401610b6793929190614c24565b602060405180830381865afa158015610b84573d6000803e3d6000fd5b505050506040513d601f19601f82011682018060405250810190610ba89190614c45565b905088604001516001600160a01b031663184f61438a602001518b60c001516a111150551217d0d3d5539560aa1b856001610be39190614c74565b6040516001600160e01b031960e087901b1681526001600160a01b039094166004850152602484019290925260448301526064820152608401600060405180830381600087803b158015610c3657600080fd5b505af1158015610c4a573d6000803e3d6000fd5b505050506001915050610cee565b610c75886040015189602001518a60c001518b6101600151611c82565b610c92886040015189602001518a60c001518b6101600151611daa565b610ca0888689600601611e66565b8761016001516020015115610cee57610cd288602001518960c001518a60a001518b6101400151898d60400151612066565b610ce68886898b608001518b600301612160565b919550935091505b7f804029ca0a7a4ab694bbeb66bacea4ab2a03a2250bbb4cbcb80275189d1c08658860e00151604051806101c001604052808b610160015160000151151581526020018b610160015160200151151581526020018b6101600151604001516001600160a01b031681526020018b61016001516060015181526020018b610160015160a0015160030b81526020018b610160015160c0015160030b81526020018b610160015160e0015160030b81526020018b6101600151610100015160030b81526020018b6101600151610120015160030b81526020018b6101600151610140015163ffffffff1681526020018b6101600151610160015163ffffffff1681526020018b6101600151610180015181526020018b61016001516101a0015181526020018b61016001516101c001518152508a61012001518b602001518c60c0015188604051610e4296959493929190614d03565b60405180910390a1945094509450949050565b7fae5971282b317bbed599861775fe0712755bb3b2f655bfe8fb14280d8429f60090565b610e868483836000612383565b6040516387a97d3f60e01b81526001600160a01b038416906387a97d3f90610eb4908590859060040161482c565b60408051808303816000875af1158015610ed2573d6000803e3d6000fd5b505050506040513d601f19601f82011682018060405250810190610ef691906147e8565b505050505050565b6040516331a9108f60e11b8152600481018390526001600160a01b038083169190851690636352211e90602401602060405180830381865afa158015610f48573d6000803e3d6000fd5b505050506040513d601f19601f82011682018060405250810190610f6c919061478f565b6001600160a01b031614610f9757828260405163547208b960e11b8152600401610ac192919061482c565b505050565b60006001600160401b03821115610fc957604051633995b34160e01b815260048101839052602401610ac1565b5067ffffffffffffffff60a01b60a09190911b166001600160a01b039091161790565b600061082d82600884600001516001600160a01b031663016dff5d611760565b61101d6006860161ffff8616612413565b1561106b576001600160a01b03821660a082901b67ffffffffffffffff60a01b161760f085901b6001600160f01b0319161760009081526002860160205260409020805460ff191660011790555b6040805161ffff861681526001600160401b03851660208201526001600160a01b038416818301526060810183905290517fd286ec1708c735de138179aa583b9b6b3ca43fc819d236a33f0487208b7d1bc19181900360800190a15050505050565b61117e60405180610220016040528060006001600160a01b0316815260200160006001600160a01b0316815260200160006001600160a01b031681526020016060815260200160608152602001600060ff168152602001600060ff16815260200160006001600160401b031681526020016000815260200160008152602001600081526020016000815260200160008152602001600081526020016060815260200160608152602001600081525090565b6001600160a01b03871660208201526001600160401b03861660e08201526111a588610fec565b6001600160a01b03166395f0d29a84846040518363ffffffff1660e01b81526004016111d292919061482c565b6040805180830381865afa1580156111ee573d6000803e3d6000fd5b505050506040513d601f19601f8201168201806040525081019061121291906147e8565b6101608301526001600160a01b0316815261122c8861242e565b815161016083015160405163c78f839d60e01b81526001600160a01b03939093169263c78f839d9261126292909160040161482c565b602060405180830381865afa15801561127f573d6000803e3d6000fd5b505050506040513d601f19601f820116820180604052508101906112a39190614c45565b61010082015260068401546101208201526112c06003850161244e565b61014082018190526001600160401b038111156112df576112df614542565b604051908082528060200260200182016040528015611308578160200160208202803683370190505b5060608201526101408101516001600160401b0381111561132b5761132b614542565b604051908082528060200260200182016040528015611354578160200160208202803683370190505b506101c08201526000611365610e55565b61ffff87166000908152600d91909101602052604090208054610100900460ff1660a0840181905290915061139a908a612459565b6101a08501526001600160a01b031660408401526101808301526113bd89610fec565b6001600160a01b031663dec38e7785856040518363ffffffff1660e01b81526004016113ea92919061482c565b602060405180830381865afa158015611407573d6000803e3d6000fd5b505050506040513d601f19601f8201168201806040525081019061142b9190614856565b60ff1660c083015260005b8261014001518110156114a7576114506003870182612590565b8460600151838151811061146657611466614e68565b60200260200101856101c00151848151811061148457611484614e68565b60209081029190910101919091526001600160a01b039091169052600101611436565b5060005b82610140015181101561150b5761150386600301848c866060015185815181106114d7576114d7614e68565b6020026020010151876101c0015186815181106114f6576114f6614e68565b60200260200101516125ae565b6001016114ab565b5060c082015160ff166001148015611527575061012082015115155b156115ce578161012001516001600160401b0381111561154957611549614542565b604051908082528060200260200182016040528015611572578160200160208202803683370190505b5060808301526101208201516001600160401b0381111561159557611595614542565b6040519080825280602002602001820160405280156115be578160200160208202803683370190505b506101e083015260006102008301525b60005b8261012001518110156116a95760008061160d8860060184815481106115f9576115f9614e68565b90600052602060002001549060a082901c90565b9150915061161d858d8484612a3c565b1561169f578185608001518661020001518151811061163e5761163e614e68565b60200260200101906001600160a01b031690816001600160a01b03168152505080856101e001518661020001518151811061167b5761167b614e68565b6020026020010181815250506001856102000181815161169b9190614c74565b9052505b50506001016115d1565b5060c082015160ff1660011480156116c5575061020082015115155b15611747576116d389612f39565b60808301516101e08401516102008501516040516309e90e2f60e21b81526001600160a01b0394909416936327a438bc93611714938a938a93600401614e7e565b600060405180830381600087803b15801561172e57600080fd5b505af1158015611742573d6000803e3d6000fd5b505050505b6117556006860160006143cf565b505050505050505050565b600080856020015185600e81111561177a5761177a614816565b600f811061178a5761178a614e68565b602002015190506001600160a01b038116156117a7579050611866565b83836040518163ffffffff1660e01b8152600401602060405180830381865afa1580156117d8573d6000803e3d6000fd5b505050506040513d601f19601f820116820180604052508101906117fc919061478f565b866020015186600e81111561181357611813614816565b600f811061182357611823614e68565b6001600160a01b039092166020928302919091015286015185600e81111561184d5761184d614816565b600f811061185d5761185d614e68565b60200201519150505b949350505050565b600061082d82600584600001516001600160a01b03166389dd9f13611760565b600061082d82600784600001516001600160a01b03166331423c26611760565b60408051600380825260808201909252600091602082016060803683370190505090506000848060200190518101906118e79190614f52565b6060810151519091508015158061190a575060208201516001600160a01b031615155b15611bf15760008061191d8a8888612f59565b9150915060005b83811015611ae65760008560600151828151811061194457611944614e68565b6020026020010151905060008660800151838151811061196657611966614e68565b6020026020010151905060008c6001600160a01b031663aef874fa84846040518363ffffffff1660e01b81526004016119a092919061482c565b6040805180830381865afa1580156119bc573d6000803e3d6000fd5b505050506040513d601f19601f820116820180604052508101906119e091906147e8565b5090508a6001600160a01b0316816001600160a01b031603611ad85785516001600160a01b038481169116148015611a185750845182145b15611a4b57600189600081518110611a3257611a32614e68565b602002602001019060ff16908160ff1681525050611ad8565b60208601516001600160a01b038481169116148015611a6d5750602085015182145b15611a8757600189600181518110611a3257611a32614e68565b60408601516001600160a01b038481169116148015611aa95750604085015182145b15611ad857600189600281518110611ac357611ac3614e68565b602002602001019060ff16908160ff16815250505b505050806001019050611924565b50815160208501516001600160a01b039081169116148015611b0c575080516040850151145b15611b3f57600185600081518110611b2657611b26614e68565b602002602001019060ff16908160ff1681525050611bee565b81600160200201516001600160a01b031684602001516001600160a01b0316148015611b72575060208101516040850151145b15611b8c57600185600181518110611b2657611b26614e68565b81600260200201516001600160a01b031684602001516001600160a01b0316148015611bbf575060408082015190850151145b15611bee57600185600281518110611bd957611bd9614e68565b602002602001019060ff16908160ff16815250505b50505b611bfa836131c7565b600b8a016000611c136001600160a01b03891688610f9c565b8152602081019190915260400160002055505050505050505050565b6000808260030b13611c4357506000919050565b5060030b90565b611c7c84602001518560c00151866040015187610180015187878760008c60e001518d60a001518e6101400151613246565b50505050565b60a081015160030b151580611c9d575060c081015160030b15155b80611cb2575061016081015163ffffffff1615155b80611cc3575060e081015160030b15155b15611c7c57836001600160a01b031663afb1a9ed84846040518060a00160405280600063ffffffff16815260200186610160015163ffffffff168152602001611d128760a0015160030b611c2f565b63ffffffff168152602001611d2d8760c0015160030b611c2f565b63ffffffff168152602001611d488760e0015160030b611c2f565b63ffffffff1681525060016040518563ffffffff1660e01b8152600401611d729493929190615014565b600060405180830381600087803b158015611d8c57600080fd5b505af1158015611da0573d6000803e3d6000fd5b5050505050505050565b61010081015160030b151580611dc7575061012081015160030b15155b15611c7c57836001600160a01b031663afb1a9ed84846040518060a00160405280600063ffffffff168152602001600063ffffffff168152602001611e1387610100015160030b611c2f565b63ffffffff168152602001611e2f87610120015160030b611c2f565b63ffffffff168152602001600063ffffffff1681525060006040518563ffffffff1660e01b8152600401611d729493929190615014565b60e08301516101608401516000611e7c8561188e565b905060005b82606001515181101561205d5760006001600160a01b031683606001518281518110611eaf57611eaf614e68565b60200260200101516001600160a01b03160315612055576000826001600160a01b031663faa7550985606001518481518110611eed57611eed614e68565b6020026020010151308588608001515111611f09576000611f28565b87608001518681518110611f1f57611f1f614e68565b60200260200101515b6040516001600160e01b031960e086901b1681526001600160a01b03938416600482015292909116602483015263ffffffff1660448201526064016020604051808303816000875af1158015611f82573d6000803e3d6000fd5b505050506040513d601f19601f82011682018060405250810190611fa69190614c45565b905085611fe28286606001518581518110611fc357611fc3614e68565b60200260200101516001600160a01b0316610f9c90919063ffffffff16565b81546001810183556000928352602090922090910155606084015180517ff553c9933803294e9346a2c18a7d9adc497894ca1f03a6e885713cbb91f6d5ea9187918590811061203357612033614e68565b60200260200101518360405161204b9392919061507e565b60405180910390a1505b600101611e81565b50505050505050565b8215610ef6576120758261188e565b604051633972500160e01b81526001600160a01b0388811660048301526024820188905260ff87166044830152600060648301529190911690633972500190608401600060405180830381600087803b1580156120d157600080fd5b505af11580156120e5573d6000803e3d6000fd5b505050506001600160a01b03811615610ef657604051630a72082d60e11b81526001600160a01b038216906314e4105a90612126908990899060040161482c565b600060405180830381600087803b15801561214057600080fd5b505af1158015612154573d6000803e3d6000fd5b50505050505050505050565b6000806000808861016001516101c0015151905085896101200151600161218791906150a8565b60ff1610158015612196575080155b15612220576121c88961018001516020015163ffffffff168a61018001516000015163ffffffff168b60a0015161350b565b600003612217576122178960e00151896122028c61018001516020015163ffffffff168d61018001516000015163ffffffff16600161356a565b8c60a00151898e602001518f60c001516135a0565b60019350612377565b6000818a6101200151600161223591906150a8565b60ff166122429190614c74565b9050808710156122b75760078801805460ff191660ff8316179055806001600160401b0381111561227557612275614542565b60405190808252806020026020018201604052801561229e578160200160208202803683370190505b5080516122b59160088b01916020909101906143f0565b505b60005b8281101561235e5760008b61016001516101c0015182815181106122e0576122e0614e68565b60200260200101519050808a600801838e6101200151600161230291906150a8565b60ff1661230f9190614c74565b8154811061231f5761231f614e68565b90600052602060002090600891828204019190066004026101000a81548163ffffffff021916908363ffffffff160217905550508060010190506122ba565b506101208a01516123709060016150a8565b60ff169350505b50955095509592505050565b8060048501600061239d6001600160a01b03871686610f9c565b81526020808201929092526040908101600020805467ffffffffffffffff19166001600160401b0394851617905580516001600160a01b0387168152918201859052918316918101919091527f8ebd68fe1e3421901e2b847f98e29d93fe0fee648e48e4f410620e599a80dc31906060016103f9565b600081815260018301602052604081205415155b9392505050565b600061082d82600684600001516001600160a01b0316632f91ede9611760565b600061082d826137f0565b600080600080612468856137fb565b90506001600160a01b0381161561258857604051630984b3cb60e01b815260ff8716600482015260009081906001600160a01b03841690630984b3cb9060240160408051808303816000875af11580156124c6573d6000803e3d6000fd5b505050506040513d601f19601f820116820180604052508101906124ea91906150c1565b9150915081600014612585576124ff8761381b565b6001600160a01b031663f2e0023d836040518263ffffffff1660e01b815260040161252c91815260200190565b602060405180830381865afa158015612549573d6000803e3d6000fd5b505050506040513d601f19601f8201168201806040525081019061256d919061478f565b94506001600160a01b03851615612585578193508095505b50505b509250925092565b600080808061259f868661383b565b909450925050505b9250929050565b60006125b984613866565b90506125c58684613886565b508115610ef657600160ff168560c0015160ff160361269c57826001600160a01b031663a9059cbb6125f68661389b565b846040518363ffffffff1660e01b815260040161261492919061482c565b6020604051808303816000875af1158015612633573d6000803e3d6000fd5b505050506040513d601f19601f8201168201806040525081019061265791906147b7565b507fc1576e2b27f6fc2203a94435e120ffd0b7383f265000e14a097cd44017c6e48b8560e00151848460405161268f9392919061507e565b60405180910390a1610ef6565b6101808501518290158015906126be575060408601516001600160a01b031615155b80156126db5750836001600160a01b0316826001600160a01b0316145b15612816576000620186a0876101800151856126f791906150e5565b61270191906150fc565b604080890151905163a9059cbb60e01b81529192506001600160a01b0387169163a9059cbb9161273591859060040161482c565b6020604051808303816000875af1158015612754573d6000803e3d6000fd5b505050506040513d601f19601f8201168201806040525081019061277891906147b7565b50612783818361511e565b60208089015160a0808b01516101a08c01516101808d015160e0808f0151604080516001600160a01b03909816885260ff9095169787019790975292850191909152606084018a905260808401529082018590526001600160401b0390921660c08201529193507ec198487b55518293df1b9016883dd797aa7067b00ef0c9c8ad53817b184bb8910160405180910390a1505b85516000906001600160a01b031615806128425750846001600160a01b0316836001600160a01b031614155b6128685760648761010001518361285991906150e5565b61286391906150fc565b61286b565b60005b90506000612879828461511e565b905080156128f857602088015160405163a9059cbb60e01b81526001600160a01b0388169163a9059cbb916128b39190859060040161482c565b6020604051808303816000875af11580156128d2573d6000803e3d6000fd5b505050506040513d601f19601f820116820180604052508101906128f691906147b7565b505b81156129f25760006129098861242e565b60405163a9059cbb60e01b81529091506001600160a01b0388169063a9059cbb9061293a908490879060040161482c565b6020604051808303816000875af1158015612959573d6000803e3d6000fd5b505050506040513d601f19601f8201168201806040525081019061297d91906147b7565b5088516101608a015160e08b0151604051632e46b1c360e11b81526001600160a01b03851693635c8d6386936129be93919290918d918a9190600401615131565b600060405180830381600087803b1580156129d857600080fd5b505af11580156129ec573d6000803e3d6000fd5b50505050505b7fa397d03deda538096e1c8388ffb4776cb6b719f9fdab8a209c93eb626d95b9748860e001518787604051612a299392919061507e565b60405180910390a1505050505050505050565b6040516331a9108f60e11b81526004810182905260009030906001600160a01b03851690636352211e90602401602060405180830381865afa158015612a86573d6000803e3d6000fd5b505050506040513d601f19601f82011682018060405250810190612aaa919061478f565b6001600160a01b031603611866576000856101800151600014158015612adc575060408601516001600160a01b031615155b15612b6a57856101800151612af0866138bb565b6040516337347e0560e11b8152620186a06004820152600060248201526001600160a01b039190911690636e68fc0a906044016020604051808303816000875af1158015612b42573d6000803e3d6000fd5b505050506040513d601f19601f82011682018060405250810190612b669190614c45565b1090505b600081158015612b83575086516001600160a01b031615155b15612c0f57866101000151612b97876138bb565b6040516337347e0560e11b815260646004820152600060248201526001600160a01b039190911690636e68fc0a906044016020604051808303816000875af1158015612be7573d6000803e3d6000fd5b505050506040513d601f19601f82011682018060405250810190612c0b9190614c45565b1090505b8115612d125760408088015190516323b872dd60e01b81526001600160a01b038716916323b872dd91612c48913091899060040161516d565b600060405180830381600087803b158015612c6257600080fd5b505af1158015612c76573d6000803e3d6000fd5b5050505060208781015160a0808a01516101a08b01516101808c015160e0808e0151604080516001600160a01b03988916815260ff9096169886019890985296840192909252938a16606083015260808201899052918101929092526001600160401b0390921660c08201527f487a1e3b25c36c974f4ac7dbe18030cb20102a79205a59ae924bab802b4f442c910160405180910390a1612ef0565b8015612dfe576000612d238761242e565b604051632142170760e11b81529091506001600160a01b038716906342842e0e90612d5690309085908a9060040161516d565b600060405180830381600087803b158015612d7057600080fd5b505af1158015612d84573d6000803e3d6000fd5b505089516101608b015160e08c015160405163558bb0db60e11b81526001600160a01b038716955063ab1761b69450612dc69392918c918c9190600401615131565b600060405180830381600087803b158015612de057600080fd5b505af1158015612df4573d6000803e3d6000fd5b5050505050612ef0565b600160ff168760c0015160ff1603612e8a576000612e1b87612f39565b604051632142170760e11b81529091506001600160a01b038716906342842e0e90612e4e90309085908a9060040161516d565b600060405180830381600087803b158015612e6857600080fd5b505af1158015612e7c573d6000803e3d6000fd5b505050506001935050612ef0565b6020870151604051632142170760e11b81526001600160a01b038716916342842e0e91612ebd913091899060040161516d565b600060405180830381600087803b158015612ed757600080fd5b505af1158015612eeb573d6000803e3d6000fd5b505050505b7f51800dde1cec04c2fd52cbb34419220aaee296e2aacbe6fe67b275ba003457ed8760e001518686604051612f279392919061507e565b60405180910390a15050949350505050565b600061082d82600e84600001516001600160a01b0316630139009f611760565b612f6161449f565b612f6961449f565b60405163fbed9ac560e01b81526001600160a01b0385811660048301526001600160401b03851660248301526000919087169063fbed9ac590604401600060405180830381865afa158015612fc2573d6000803e3d6000fd5b505050506040513d6000823e601f3d908101601f19168201604052612fea9190810190615191565b905060005b81518110156131bd57600c60ff1682828151811061300f5761300f614e68565b602002602001015160ff16036130e7576130d9876001600160a01b0316633bdb788b888886868151811061304557613045614e68565b60209081029190910101516040516001600160e01b031960e086901b1681526001600160a01b0390931660048401526001600160401b03909116602483015260ff166044820152606401602060405180830381865afa1580156130ac573d6000803e3d6000fd5b505050506040513d601f19601f820116820180604052508101906130d09190614c45565b9060a082901c90565b84526001600160a01b031684525b600d60ff168282815181106130fe576130fe614e68565b602002602001015160ff160361314e57613134876001600160a01b0316633bdb788b888886868151811061304557613045614e68565b6020858101919091526001600160a01b0391909116908501525b600e60ff1682828151811061316557613165614e68565b602002602001015160ff16036131b55761319b876001600160a01b0316633bdb788b888886868151811061304557613045614e68565b6040858101919091526001600160a01b0391909116908501525b600101612fef565b5050935093915050565b805160009060208111156131f857604051633d71388b60e21b81526004810182905260206024820152604401610ac1565b6000805b8281101561323e5761320f8160086150e5565b85828151811061322157613221614e68565b602090810291909101015160ff16901b91909117906001016131fc565b509392505050565b61325a613251610e55565b8c8c6000612383565b600061326586610fec565b6040516387a97d3f60e01b81529091506001600160a01b038216906387a97d3f90613296908f908f9060040161482c565b60408051808303816000875af11580156132b4573d6000803e3d6000fd5b505050506040513d601f19601f820116820180604052508101906132d891906147e8565b50506132e488886138db565b6000808660028111156132f9576132f9614816565b0361336057613310613309610e55565b8e8e6139f6565b60018a6080015163ffffffff1611159050801561333c5761333782868f8f8d600601613a26565b613436565b61334b8d8d86868b6000612066565b6133378b8e8e8d604001518e60600151613aab565b600186600281111561337457613374614816565b036133de57816001600160a01b0316631e78fd718e8e6040518363ffffffff1660e01b81526004016133a792919061482c565b600060405180830381600087803b1580156133c157600080fd5b505af11580156133d5573d6000803e3d6000fd5b50505050613436565b60028660028111156133f2576133f2614816565b036134365760018a6080015163ffffffff16116134215760405162e232f160e81b815260040160405180910390fd5b6134368b8e8e8d604001518e60600151613aab565b806134fc578a6001600160a01b0316637ac46f978e8e6040518363ffffffff1660e01b815260040161346992919061482c565b600060405180830381600087803b15801561348357600080fd5b505af1158015613497573d6000803e3d6000fd5b505050508a6001600160a01b03166314e4105a8e8e6040518363ffffffff1660e01b81526004016134c992919061482c565b600060405180830381600087803b1580156134e357600080fd5b505af11580156134f7573d6000803e3d6000fd5b505050505b50505050505050505050505050565b600080600561351c8686600161356a565b61352691906150fc565b613531906001614c74565b9050828111613541576000613561565b61354b838261511e565b61355690600a614c74565b613561906002615304565b95945050505050565b6000806135778585613c9a565b90508280156135905750600261358e826001614c74565b115b156118665761356160028261511e565b60006135ab87610fec565b90506000816001600160a01b031663bcd418b085856040518363ffffffff1660e01b81526004016135dd92919061482c565b60a060405180830381865afa1580156135fa573d6000803e3d6000fd5b505050506040513d601f19601f8201168201806040525081019061361e9190615310565b6020015160ff169050600061363289613866565b90506000816001600160a01b031663075461726040518163ffffffff1660e01b8152600401602060405180830381865afa158015613674573d6000803e3d6000fd5b505050506040513d601f19601f82011682018060405250810190613698919061478f565b604051631cf7efcf60e31b81526001600160401b038d166004820152602481018a9052604481018b90526001600160a01b03919091169063e7bf7e78906064016020604051808303816000875af11580156136f7573d6000803e3d6000fd5b505050506040513d601f19601f8201168201806040525081019061371b9190614c45565b905060006137298285613ccd565b9050808211156137b2576001600160a01b0383166342966c6861374c838561511e565b6040518263ffffffff1660e01b815260040161376a91815260200190565b6020604051808303816000875af1158015613789573d6000803e3d6000fd5b505050506040513d601f19601f820116820180604052508101906137ad91906147b7565b508091505b6137bd838984613d19565b7fe6af75537b8a11fb06030b59a88fccf1306148dd7d330908df86c86e9b3fe70a8c84846040516107e09392919061507e565b600061082d82613e12565b600061082d82600c84600001516001600160a01b031663a27218ac611760565b600061082d82600b84600001516001600160a01b03166325eb1c87611760565b600080806138498585613e1c565b600081815260029690960160205260409095205494959350505050565b600061082d82600984600001516001600160a01b031663c3dfdae6611760565b6000612427836001600160a01b038416613e28565b600061082d82600384600001516001600160a01b03166361d027b3611760565b600061082d82600284600001516001600160a01b0316637dc0d1d0611760565b805460078301805460ff191660ff9092169190911790556139006008830160006144bd565b60008160010180548060200260200160405190810160405280929190818152602001828054801561397c57602002820191906000526020600020906000905b82829054906101000a900463ffffffff1663ffffffff168152602001906004019060208260030104928301926001038202915080841161393f5790505b5050505050905060005b8151811015611c7c57836008018282815181106139a5576139a5614e68565b6020908102919091018101518254600181810185556000948552929093206008840401805463ffffffff92831660046007909616959095026101000a94850292909402199093161790915501613986565b600b83016000613a0f6001600160a01b03851684610f9c565b815260200190815260200160002060009055505050565b6040516349383c0160e11b81526000906001600160a01b03871690639270780290613a57908790879060040161482c565b6000604051808303816000875af1158015613a76573d6000803e3d6000fd5b505050506040513d6000823e601f3d908101601f19168201604052613a9e9190810190615388565b9050610ef6858284613e45565b6000613b286001600160a01b0387166320a7d299878760095b6040518463ffffffff1660e01b8152600401613ae293929190614c24565b602060405180830381865afa158015613aff573d6000803e3d6000fd5b505050506040513d601f19601f82011682018060405250810190613b23919061540d565b611c2f565b90506000613b476001600160a01b0388166320a7d2998888600a613ac4565b6040805160a0810182526000808252602082018190528183018190526060820181905260016080830152915163afb1a9ed60e01b81529293506001600160a01b038a169263afb1a9ed92613ba2928b928b9290600401615014565b600060405180830381600087803b158015613bbc57600080fd5b505af1158015613bd0573d6000803e3d6000fd5b50505050866001600160a01b031663afb1a9ed87876040518060a00160405280600063ffffffff168152602001600063ffffffff168152602001613c14888b613ef9565b63ffffffff168152602001613c29878a613ef9565b63ffffffff16815260006020909101526040516001600160e01b031960e086901b168152613c5f93929190600190600401615014565b600060405180830381600087803b158015613c7957600080fd5b505af1158015613c8d573d6000803e3d6000fd5b5050505050505050505050565b805b606381101561082d57613cb0836001614c74565b613cb982613f1f565b63ffffffff16101561082d57600101613c9c565b6000808215613cfb5782600114613cf45782600214613ced576064613cfe565b6050613cfe565b603c613cfe565b60285b60ff1690506064613d0f82866150e5565b61186691906150fc565b600080613d268486613fc0565b91509150811580613d4057506000613d3e8483614c74565b115b15613e0b576040516370a0823160e01b81526000906001600160a01b038716906370a0823190613d749030906004016147d4565b602060405180830381865afa158015613d91573d6000803e3d6000fd5b505050506040513d601f19601f82011682018060405250810190613db59190614c45565b9050613dc18483614c74565b811015613df55780613dd38584614c74565b604051636584853f60e01b815260048101929092526024820152604401610ac1565b61205d86613e038685614c74565b879190613fd8565b5050505050565b600061082d825490565b60006124278383613fee565b600081815260028301602052604081208190556124278383614018565b815160005b81811015613e0b5782848281518110613e6557613e65614e68565b602090810291909101810151825460018101845560009384529183209091015584518190613eb090879085908110613e9f57613e9f614e68565b60200260200101519060a082901c90565b915091507ff553c9933803294e9346a2c18a7d9adc497894ca1f03a6e885713cbb91f6d5ea878383604051613ee79392919061507e565b60405180910390a15050600101613e4a565b60008163ffffffff168363ffffffff1611613f15576000612427565b6124278284615428565b600063ffffffff82161580613f3b5750606363ffffffff831610155b15613f4857506000919050565b670de0b6b3a7640000613f87613f5f846063615428565b613f6a906002615445565b613f829063ffffffff16670de0b6b3a76400006150e5565b614024565b613f9990675cfb2e807b1e000061511e565b613fac620186a063ffffffff86166150e5565b613fb691906150e5565b61082d91906150fc565b600080808061259f866001600160a01b038716614105565b6000611866846001600160a01b03851684614147565b600082600001828154811061400557614005614e68565b9060005260206000200154905092915050565b60006124278383614164565b6000670de0b6b3a764000082101561405257604051637046c4a960e01b815260048101839052602401610ac1565b600061406e614069670de0b6b3a7640000856150fc565b61425e565b9050600061408482670de0b6b3a76400006150e5565b905083821c670de0b6b3a76400008190036140a157509392505050565b6706f05b59d3b200005b80156140fb57670de0b6b3a76400006140c483806150e5565b6140ce91906150fc565b9150671bc16d674ec8000082106140f3576140e98184614c74565b9250600182901c91505b60011c6140ab565b5090949350505050565b6000818152600283016020526040812054819080614134576141278585614342565b9250600091506125a79050565b6001925090506125a7565b509250929050565b60008281526002840160205260408120829055611866848461434e565b6000818152600183016020526040812054801561424d57600061418860018361511e565b855490915060009061419c9060019061511e565b90508082146142015760008660000182815481106141bc576141bc614e68565b90600052602060002001549050808760000184815481106141df576141df614e68565b6000918252602080832090910192909255918252600188019052604090208390555b855486908061421257614212615462565b60019003818190600052602060002001600090559055856001016000868152602001908152602001600020600090556001935050505061082d565b600091505061082d565b5092915050565b6000600160801b821061427e57608091821c9161427b9082614c74565b90505b600160401b821061429c57604091821c916142999082614c74565b90505b64010000000082106142bb57602091821c916142b89082614c74565b90505b6201000082106142d857601091821c916142d59082614c74565b90505b61010082106142f457600891821c916142f19082614c74565b90505b6010821061430f57600491821c9161430c9082614c74565b90505b6004821061432a57600291821c916143279082614c74565b90505b6002821061433d5761082d600182614c74565b919050565b60006124278383612413565b60008181526001830160205260408120546124279084908490849061439f5750815460018181018455600084815260208082209093018490558454848252828601909352604090209190915561082d565b50600061082d565b604051806040016040528060006001600160a01b031681526020016143ca6144e2565b905290565b50805460008255906000526020600020908101906143ed9190614501565b50565b8280548282559060005260206000209060070160089004810192821561448f5791602002820160005b8382111561445d57835183826101000a81548163ffffffff021916908363ffffffff1602179055509260200192600401602081600301049283019260010302614419565b801561448d5782816101000a81549063ffffffff021916905560040160208160030104928301926001030261445d565b505b5061449b929150614501565b5090565b60405180606001604052806003906020820280368337509192915050565b5080546000825560070160089004906000526020600020908101906143ed9190614501565b604051806101e00160405280600f906020820280368337509192915050565b5b8082111561449b5760008155600101614502565b80356001600160401b038116811461433d57600080fd5b6001600160a01b03811681146143ed57600080fd5b634e487b7160e01b600052604160045260246000fd5b6040516101e081016001600160401b038111828210171561457b5761457b614542565b60405290565b60405160a081016001600160401b038111828210171561457b5761457b614542565b604051601f8201601f191681016001600160401b03811182821017156145cb576145cb614542565b604052919050565b803561433d8161452d565b63ffffffff811681146143ed57600080fd5b803561433d816145de565b600080600080600080600060e0888a03121561461657600080fd5b87359650602080890135965061462e60408a01614516565b9550606089013561463e8161452d565b945060808901356001600160401b038082111561465a57600080fd5b818b0191508b601f83011261466e57600080fd5b81358181111561468057614680614542565b614692601f8201601f191685016145a3565b91508082528c848285010111156146a857600080fd5b80848401858401376000848284010152508095505050506146cb60a089016145d3565b91506146d960c089016145f0565b905092959891949750929550565b600080604083850312156146fa57600080fd5b82356147058161452d565b915061471360208401614516565b90509250929050565b80151581146143ed57600080fd5b6000806000806080858703121561474057600080fd5b843561474b8161452d565b935061475960208601614516565b925060408501356147698161471c565b915060608501356147798161452d565b939692955090935050565b805161433d8161452d565b6000602082840312156147a157600080fd5b81516124278161452d565b805161433d8161471c565b6000602082840312156147c957600080fd5b81516124278161471c565b6001600160a01b0391909116815260200190565b600080604083850312156147fb57600080fd5b82516148068161452d565b6020939093015192949293505050565b634e487b7160e01b600052602160045260246000fd5b6001600160a01b03929092168252602082015260400190565b805160ff8116811461433d57600080fd5b60006020828403121561486857600080fd5b61242782614845565b600060018060a01b03808a16835260206001600160401b038a16602085015263ffffffff89166040850152818816606085015286608085015260ff861660a085015260e060c0850152845191508160e085015260005b828110156148e457858101820151858201610100015281016148c7565b5050610100600081838601015280601f19601f8401168501019250505098975050505050505050565b60006001600160401b0382111561492657614926614542565b5060051b60200190565b600082601f83011261494157600080fd5b815160206149566149518361490d565b6145a3565b8083825260208201915060208460051b87010193508684111561497857600080fd5b602086015b8481101561499d5780516149908161452d565b835291830191830161497d565b509695505050505050565b805161433d816145de565b600082601f8301126149c457600080fd5b815160206149d46149518361490d565b8083825260208201915060208460051b8701019350868411156149f657600080fd5b602086015b8481101561499d578051614a0e816145de565b83529183019183016149fb565b8051600381900b811461433d57600080fd5b600060208284031215614a3f57600080fd5b81516001600160401b0380821115614a5657600080fd5b908301906101e08286031215614a6b57600080fd5b614a73614558565b614a7c836147ac565b8152614a8a602084016147ac565b6020820152614a9b60408401614784565b6040820152606083015182811115614ab257600080fd5b614abe87828601614930565b606083015250608083015182811115614ad657600080fd5b614ae2878286016149b3565b608083015250614af460a08401614a1b565b60a0820152614b0560c08401614a1b565b60c0820152614b1660e08401614a1b565b60e0820152610100614b29818501614a1b565b90820152610120614b3b848201614a1b565b90820152610140614b4d8482016149a8565b90820152610160614b5f8482016149a8565b9082015261018083810151908201526101a080840151908201526101c08084015183811115614b8d57600080fd5b614b99888287016149b3565b918301919091525095945050505050565b600060a08284031215614bbc57600080fd5b614bc4614581565b8251614bcf816145de565b81526020830151614bdf816145de565b60208201526040830151614bf2816145de565b60408201526060830151614c05816145de565b60608201526080830151614c18816145de565b60808201529392505050565b6001600160a01b039390931683526020830191909152604082015260600190565b600060208284031215614c5757600080fd5b5051919050565b634e487b7160e01b600052601160045260246000fd5b8082018082111561082d5761082d614c5e565b60008151808452602080850194506020840160005b83811015614cc15781516001600160a01b031687529582019590820190600101614c9c565b509495945050505050565b60008151808452602080850194506020840160005b83811015614cc157815163ffffffff1687529582019590820190600101614ce1565b6001600160401b038716815260c06020820152614d2560c08201875115159052565b60006020870151614d3a60e084018215159052565b5060408701516001600160a01b031661010083015260608701516101c0610120808501829052614d6e610280860184614c87565b925060808a0151610140614d868188018360030b9052565b60a08c01519150610160614d9e8189018460030b9052565b60c08d01519250610180614db6818a018560030b9052565b60e08e015193506101a0614dce818b018660030b9052565b6101008f01519450614de4878b018660030b9052565b948e015163ffffffff9081166101e08b0152928e01519092166102008901528c01516102208801528b01516102408701525089015160bf19858403016102608601529050614e328282614ccc565b92505050614e45604083018760ff169052565b6001600160a01b0385166060830152608082019390935260a00152949350505050565b634e487b7160e01b600052603260045260246000fd5b60018060a01b03861681526000602086602084015260a06040840152614ea760a0840187614c87565b83810360608501528551808252602080880192019060005b81811015614edb57835183529284019291840191600101614ebf565b50508093505050508260808301529695505050505050565b600082601f830112614f0457600080fd5b81516020614f146149518361490d565b8083825260208201915060208460051b870101935086841115614f3657600080fd5b602086015b8481101561499d5780518352918301918301614f3b565b600060208284031215614f6457600080fd5b81516001600160401b0380821115614f7b57600080fd5b9083019060a08286031215614f8f57600080fd5b614f97614581565b8251600b8110614fa657600080fd5b8152614fb460208401614784565b602082015260408301516040820152606083015182811115614fd557600080fd5b614fe187828601614930565b606083015250608083015182811115614ff957600080fd5b61500587828601614ef3565b60808301525095945050505050565b60006101008201905060018060a01b038616825284602083015263ffffffff8085511660408401528060208601511660608401528060408601511660808401528060608601511660a08401528060808601511660c08401525082151560e083015295945050505050565b6001600160401b039390931683526001600160a01b03919091166020830152604082015260600190565b60ff818116838216019081111561082d5761082d614c5e565b600080604083850312156150d457600080fd5b505080516020909101519092909150565b808202811582820484141761082d5761082d614c5e565b60008261511957634e487b7160e01b600052601260045260246000fd5b500490565b8181038181111561082d5761082d614c5e565b6001600160a01b039586168152602081019490945291909316604083015260608201929092526001600160401b03909116608082015260a00190565b6001600160a01b039384168152919092166020820152604081019190915260600190565b600060208083850312156151a457600080fd5b82516001600160401b038111156151ba57600080fd5b8301601f810185136151cb57600080fd5b80516151d96149518261490d565b81815260059190911b820183019083810190878311156151f857600080fd5b928401925b8284101561521d5761520e84614845565b825292840192908401906151fd565b979650505050505050565b600181815b8085111561413f57816000190482111561524957615249614c5e565b8085161561525657918102915b93841c939080029061522d565b6000826152725750600161082d565b8161527f5750600061082d565b8160018114615295576002811461529f576152bb565b600191505061082d565b60ff8411156152b0576152b0614c5e565b50506001821b61082d565b5060208310610133831016604e8410600b84101617156152de575081810a61082d565b6152e88383615228565b80600019048211156152fc576152fc614c5e565b029392505050565b60006124278383615263565b600060a0828403121561532257600080fd5b61532a614581565b61533383614845565b815261534160208401614845565b602082015260408301516153548161471c565b6040820152606083015168ffffffffffffffffff8116811461537557600080fd5b60608201526080830151614c188161452d565b6000602080838503121561539b57600080fd5b82516001600160401b038111156153b157600080fd5b8301601f810185136153c257600080fd5b80516153d06149518261490d565b81815260059190911b820183019083810190878311156153ef57600080fd5b928401925b8284101561521d578351825292840192908401906153f4565b60006020828403121561541f57600080fd5b61242782614a1b565b63ffffffff82811682821603908082111561425757614257614c5e565b63ffffffff81811683821601908082111561425757614257614c5e565b634e487b7160e01b600052603160045260246000fdfea26469706673582212203b7af4cc470d2216410e650c76c275296b101d11c0b2c32489f7e1ee12d3411764736f6c63430008170033",
  "devdoc": {
    "kind": "dev",
    "methods": {
      "exitDungeon(IController,uint64,bool,address)": {
        "params": {
          "claim": "Claim treasure items and tokens"
        }
      }
    },
    "stateVariables": {
      "DUNGEON_FACTORY_STORAGE_LOCATION": {
        "details": "keccak256(abi.encode(uint256(keccak256(\"dungeon.factory.main\")) - 1)) & ~bytes32(uint256(0xff))"
      }
    },
    "version": 1
  },
  "userdoc": {
    "events": {
      "AddTreasuryItem(uint64,address,uint256)": {
        "notice": "On add the item to the dungeon"
      }
    },
    "kind": "user",
    "methods": {
      "MIN_LEVEL_FOR_TREASURY_DEFAULT()": {
        "notice": "Treasure reward is available starting from level 5. We need some initial gap as protection against bots"
      },
      "emergencyExit(IController,uint64)": {
        "notice": "Emergency exit: the governance can drop the hero from dungeon in emergency"
      },
      "exitDungeon(IController,uint64,bool,address)": {
        "notice": "Exit the dungeon"
      },
      "objectAction(IDungeonFactory.DungeonStatus storage,IDungeonFactory.DungeonAttributes storage,uint64,address,bytes,IController,uint32)": {
        "notice": "Make an action with object, update hero params according results"
      }
    },
    "version": 1
  },
  "storageLayout": {
    "storage": [],
    "types": null
  }
}