{
  "address": "0x421eFE85777A5c7B50842599cD6e041fAb182135",
  "abi": [
    {
      "inputs": [],
      "name": "ERC721EnumerableForbiddenBatchMint",
      "type": "error"
    },
    {
      "inputs": [
        {
          "internalType": "address",
          "name": "sender",
          "type": "address"
        },
        {
          "internalType": "uint256",
          "name": "tokenId",
          "type": "uint256"
        },
        {
          "internalType": "address",
          "name": "owner",
          "type": "address"
        }
      ],
      "name": "ERC721IncorrectOwner",
      "type": "error"
    },
    {
      "inputs": [
        {
          "internalType": "address",
          "name": "operator",
          "type": "address"
        },
        {
          "internalType": "uint256",
          "name": "tokenId",
          "type": "uint256"
        }
      ],
      "name": "ERC721InsufficientApproval",
      "type": "error"
    },
    {
      "inputs": [
        {
          "internalType": "address",
          "name": "approver",
          "type": "address"
        }
      ],
      "name": "ERC721InvalidApprover",
      "type": "error"
    },
    {
      "inputs": [
        {
          "internalType": "address",
          "name": "operator",
          "type": "address"
        }
      ],
      "name": "ERC721InvalidOperator",
      "type": "error"
    },
    {
      "inputs": [
        {
          "internalType": "address",
          "name": "owner",
          "type": "address"
        }
      ],
      "name": "ERC721InvalidOwner",
      "type": "error"
    },
    {
      "inputs": [
        {
          "internalType": "address",
          "name": "receiver",
          "type": "address"
        }
      ],
      "name": "ERC721InvalidReceiver",
      "type": "error"
    },
    {
      "inputs": [
        {
          "internalType": "address",
          "name": "sender",
          "type": "address"
        }
      ],
      "name": "ERC721InvalidSender",
      "type": "error"
    },
    {
      "inputs": [
        {
          "internalType": "uint256",
          "name": "tokenId",
          "type": "uint256"
        }
      ],
      "name": "ERC721NonexistentToken",
      "type": "error"
    },
    {
      "inputs": [
        {
          "internalType": "address",
          "name": "owner",
          "type": "address"
        },
        {
          "internalType": "uint256",
          "name": "index",
          "type": "uint256"
        }
      ],
      "name": "ERC721OutOfBoundsIndex",
      "type": "error"
    },
    {
      "inputs": [
        {
          "internalType": "address",
          "name": "sender",
          "type": "address"
        }
      ],
      "name": "ErrorNotDeployer",
      "type": "error"
    },
    {
      "inputs": [
        {
          "internalType": "address",
          "name": "sender",
          "type": "address"
        }
      ],
      "name": "ErrorNotHeroController",
      "type": "error"
    },
    {
      "inputs": [
        {
          "internalType": "uint256",
          "name": "id",
          "type": "uint256"
        }
      ],
      "name": "IdOverflow",
      "type": "error"
    },
    {
      "inputs": [],
      "name": "InvalidInitialization",
      "type": "error"
    },
    {
      "inputs": [
        {
          "internalType": "uint256",
          "name": "tokenId",
          "type": "uint256"
        }
      ],
      "name": "NotExistToken",
      "type": "error"
    },
    {
      "inputs": [],
      "name": "NotInitializing",
      "type": "error"
    },
    {
      "inputs": [],
      "name": "TokenTransferNotAllowed",
      "type": "error"
    },
    {
      "anonymous": false,
      "inputs": [
        {
          "indexed": true,
          "internalType": "address",
          "name": "owner",
          "type": "address"
        },
        {
          "indexed": true,
          "internalType": "address",
          "name": "approved",
          "type": "address"
        },
        {
          "indexed": true,
          "internalType": "uint256",
          "name": "tokenId",
          "type": "uint256"
        }
      ],
      "name": "Approval",
      "type": "event"
    },
    {
      "anonymous": false,
      "inputs": [
        {
          "indexed": true,
          "internalType": "address",
          "name": "owner",
          "type": "address"
        },
        {
          "indexed": true,
          "internalType": "address",
          "name": "operator",
          "type": "address"
        },
        {
          "indexed": false,
          "internalType": "bool",
          "name": "approved",
          "type": "bool"
        }
      ],
      "name": "ApprovalForAll",
      "type": "event"
    },
    {
      "anonymous": false,
      "inputs": [
        {
          "indexed": false,
          "internalType": "string",
          "name": "uri",
          "type": "string"
        }
      ],
      "name": "BaseUriChanged",
      "type": "event"
    },
    {
      "anonymous": false,
      "inputs": [
        {
          "indexed": false,
          "internalType": "address",
          "name": "controller",
          "type": "address"
        },
        {
          "indexed": false,
          "internalType": "uint256",
          "name": "ts",
          "type": "uint256"
        },
        {
          "indexed": false,
          "internalType": "uint256",
          "name": "block",
          "type": "uint256"
        }
      ],
      "name": "ContractInitialized",
      "type": "event"
    },
    {
      "anonymous": false,
      "inputs": [
        {
          "indexed": false,
          "internalType": "uint256",
          "name": "heroId",
          "type": "uint256"
        }
      ],
      "name": "HeroBurned",
      "type": "event"
    },
    {
      "anonymous": false,
      "inputs": [
        {
          "indexed": false,
          "internalType": "uint256",
          "name": "heroId",
          "type": "uint256"
        }
      ],
      "name": "HeroMinted",
      "type": "event"
    },
    {
      "anonymous": false,
      "inputs": [
        {
          "indexed": false,
          "internalType": "string",
          "name": "uri",
          "type": "string"
        },
        {
          "indexed": false,
          "internalType": "uint256",
          "name": "statusLvl",
          "type": "uint256"
        }
      ],
      "name": "HeroUriByStatusChanged",
      "type": "event"
    },
    {
      "anonymous": false,
      "inputs": [
        {
          "indexed": false,
          "internalType": "uint64",
          "name": "version",
          "type": "uint64"
        }
      ],
      "name": "Initialized",
      "type": "event"
    },
    {
      "anonymous": false,
      "inputs": [
        {
          "indexed": false,
          "internalType": "uint256",
          "name": "value",
          "type": "uint256"
        },
        {
          "indexed": false,
          "internalType": "address",
          "name": "oldLogic",
          "type": "address"
        }
      ],
      "name": "RevisionIncreased",
      "type": "event"
    },
    {
      "anonymous": false,
      "inputs": [
        {
          "indexed": true,
          "internalType": "address",
          "name": "from",
          "type": "address"
        },
        {
          "indexed": true,
          "internalType": "address",
          "name": "to",
          "type": "address"
        },
        {
          "indexed": true,
          "internalType": "uint256",
          "name": "tokenId",
          "type": "uint256"
        }
      ],
      "name": "Transfer",
      "type": "event"
    },
    {
      "anonymous": false,
      "inputs": [
        {
          "indexed": false,
          "internalType": "uint256",
          "name": "id",
          "type": "uint256"
        },
        {
          "indexed": false,
          "internalType": "string",
          "name": "uri",
          "type": "string"
        }
      ],
      "name": "UniqueUriChanged",
      "type": "event"
    },
    {
      "inputs": [],
      "name": "CONTROLLABLE_VERSION",
      "outputs": [
        {
          "internalType": "string",
          "name": "",
          "type": "string"
        }
      ],
      "stateMutability": "view",
      "type": "function"
    },
    {
      "inputs": [],
      "name": "KILL_PENALTY",
      "outputs": [
        {
          "internalType": "uint256",
          "name": "",
          "type": "uint256"
        }
      ],
      "stateMutability": "view",
      "type": "function"
    },
    {
      "inputs": [],
      "name": "VERSION",
      "outputs": [
        {
          "internalType": "string",
          "name": "",
          "type": "string"
        }
      ],
      "stateMutability": "view",
      "type": "function"
    },
    {
      "inputs": [
        {
          "internalType": "address",
          "name": "to",
          "type": "address"
        },
        {
          "internalType": "uint256",
          "name": "tokenId",
          "type": "uint256"
        }
      ],
      "name": "approve",
      "outputs": [],
      "stateMutability": "nonpayable",
      "type": "function"
    },
    {
      "inputs": [
        {
          "internalType": "address",
          "name": "owner",
          "type": "address"
        }
      ],
      "name": "balanceOf",
      "outputs": [
        {
          "internalType": "uint256",
          "name": "",
          "type": "uint256"
        }
      ],
      "stateMutability": "view",
      "type": "function"
    },
    {
      "inputs": [],
      "name": "baseURI",
      "outputs": [
        {
          "internalType": "string",
          "name": "",
          "type": "string"
        }
      ],
      "stateMutability": "view",
      "type": "function"
    },
    {
      "inputs": [
        {
          "internalType": "uint256",
          "name": "heroId",
          "type": "uint256"
        }
      ],
      "name": "burn",
      "outputs": [],
      "stateMutability": "nonpayable",
      "type": "function"
    },
    {
      "inputs": [],
      "name": "controller",
      "outputs": [
        {
          "internalType": "address",
          "name": "",
          "type": "address"
        }
      ],
      "stateMutability": "view",
      "type": "function"
    },
    {
      "inputs": [],
      "name": "created",
      "outputs": [
        {
          "internalType": "uint256",
          "name": "",
          "type": "uint256"
        }
      ],
      "stateMutability": "view",
      "type": "function"
    },
    {
      "inputs": [],
      "name": "createdBlock",
      "outputs": [
        {
          "internalType": "uint256",
          "name": "",
          "type": "uint256"
        }
      ],
      "stateMutability": "view",
      "type": "function"
    },
    {
      "inputs": [
        {
          "internalType": "uint256",
          "name": "tokenId",
          "type": "uint256"
        }
      ],
      "name": "exists",
      "outputs": [
        {
          "internalType": "bool",
          "name": "",
          "type": "bool"
        }
      ],
      "stateMutability": "view",
      "type": "function"
    },
    {
      "inputs": [
        {
          "internalType": "uint256",
          "name": "tokenId",
          "type": "uint256"
        }
      ],
      "name": "getApproved",
      "outputs": [
        {
          "internalType": "address",
          "name": "",
          "type": "address"
        }
      ],
      "stateMutability": "view",
      "type": "function"
    },
    {
      "inputs": [
        {
          "internalType": "address",
          "name": "oldLogic",
          "type": "address"
        }
      ],
      "name": "increaseRevision",
      "outputs": [],
      "stateMutability": "nonpayable",
      "type": "function"
    },
    {
      "inputs": [
        {
          "internalType": "string",
          "name": "name_",
          "type": "string"
        },
        {
          "internalType": "string",
          "name": "symbol_",
          "type": "string"
        },
        {
          "internalType": "address",
          "name": "controller_",
          "type": "address"
        },
        {
          "internalType": "string",
          "name": "uri",
          "type": "string"
        }
      ],
      "name": "init",
      "outputs": [],
      "stateMutability": "nonpayable",
      "type": "function"
    },
    {
      "inputs": [
        {
          "internalType": "address",
          "name": "owner",
          "type": "address"
        },
        {
          "internalType": "address",
          "name": "operator",
          "type": "address"
        }
      ],
      "name": "isApprovedForAll",
      "outputs": [
        {
          "internalType": "bool",
          "name": "",
          "type": "bool"
        }
      ],
      "stateMutability": "view",
      "type": "function"
    },
    {
      "inputs": [
        {
          "internalType": "address",
          "name": "value_",
          "type": "address"
        }
      ],
      "name": "isController",
      "outputs": [
        {
          "internalType": "bool",
          "name": "",
          "type": "bool"
        }
      ],
      "stateMutability": "view",
      "type": "function"
    },
    {
      "inputs": [
        {
          "internalType": "address",
          "name": "value_",
          "type": "address"
        }
      ],
      "name": "isGovernance",
      "outputs": [
        {
          "internalType": "bool",
          "name": "",
          "type": "bool"
        }
      ],
      "stateMutability": "view",
      "type": "function"
    },
    {
      "inputs": [],
      "name": "isHero",
      "outputs": [
        {
          "internalType": "bool",
          "name": "",
          "type": "bool"
        }
      ],
      "stateMutability": "pure",
      "type": "function"
    },
    {
      "inputs": [
        {
          "internalType": "address",
          "name": "forwarder",
          "type": "address"
        }
      ],
      "name": "isTrustedForwarder",
      "outputs": [
        {
          "internalType": "bool",
          "name": "",
          "type": "bool"
        }
      ],
      "stateMutability": "view",
      "type": "function"
    },
    {
      "inputs": [
        {
          "internalType": "address",
          "name": "recipient",
          "type": "address"
        }
      ],
      "name": "mintFor",
      "outputs": [
        {
          "internalType": "uint256",
          "name": "heroId",
          "type": "uint256"
        }
      ],
      "stateMutability": "nonpayable",
      "type": "function"
    },
    {
      "inputs": [],
      "name": "name",
      "outputs": [
        {
          "internalType": "string",
          "name": "",
          "type": "string"
        }
      ],
      "stateMutability": "view",
      "type": "function"
    },
    {
      "inputs": [
        {
          "internalType": "address",
          "name": "",
          "type": "address"
        },
        {
          "internalType": "address",
          "name": "",
          "type": "address"
        },
        {
          "internalType": "uint256",
          "name": "",
          "type": "uint256"
        },
        {
          "internalType": "bytes",
          "name": "",
          "type": "bytes"
        }
      ],
      "name": "onERC721Received",
      "outputs": [
        {
          "internalType": "bytes4",
          "name": "",
          "type": "bytes4"
        }
      ],
      "stateMutability": "nonpayable",
      "type": "function"
    },
    {
      "inputs": [
        {
          "internalType": "uint256",
          "name": "tokenId",
          "type": "uint256"
        }
      ],
      "name": "ownerOf",
      "outputs": [
        {
          "internalType": "address",
          "name": "",
          "type": "address"
        }
      ],
      "stateMutability": "view",
      "type": "function"
    },
    {
      "inputs": [],
      "name": "previousImplementation",
      "outputs": [
        {
          "internalType": "address",
          "name": "",
          "type": "address"
        }
      ],
      "stateMutability": "view",
      "type": "function"
    },
    {
      "inputs": [],
      "name": "revision",
      "outputs": [
        {
          "internalType": "uint256",
          "name": "",
          "type": "uint256"
        }
      ],
      "stateMutability": "view",
      "type": "function"
    },
    {
      "inputs": [
        {
          "internalType": "address",
          "name": "from",
          "type": "address"
        },
        {
          "internalType": "address",
          "name": "to",
          "type": "address"
        },
        {
          "internalType": "uint256",
          "name": "tokenId",
          "type": "uint256"
        }
      ],
      "name": "safeTransferFrom",
      "outputs": [],
      "stateMutability": "nonpayable",
      "type": "function"
    },
    {
      "inputs": [
        {
          "internalType": "address",
          "name": "from",
          "type": "address"
        },
        {
          "internalType": "address",
          "name": "to",
          "type": "address"
        },
        {
          "internalType": "uint256",
          "name": "tokenId",
          "type": "uint256"
        },
        {
          "internalType": "bytes",
          "name": "data",
          "type": "bytes"
        }
      ],
      "name": "safeTransferFrom",
      "outputs": [],
      "stateMutability": "nonpayable",
      "type": "function"
    },
    {
      "inputs": [
        {
          "internalType": "address",
          "name": "operator",
          "type": "address"
        },
        {
          "internalType": "bool",
          "name": "approved",
          "type": "bool"
        }
      ],
      "name": "setApprovalForAll",
      "outputs": [],
      "stateMutability": "nonpayable",
      "type": "function"
    },
    {
      "inputs": [
        {
          "internalType": "string",
          "name": "value",
          "type": "string"
        }
      ],
      "name": "setBaseUri",
      "outputs": [],
      "stateMutability": "nonpayable",
      "type": "function"
    },
    {
      "inputs": [
        {
          "internalType": "string",
          "name": "uri",
          "type": "string"
        },
        {
          "internalType": "uint256",
          "name": "statusLvl",
          "type": "uint256"
        }
      ],
      "name": "setHeroUriByStatus",
      "outputs": [],
      "stateMutability": "nonpayable",
      "type": "function"
    },
    {
      "inputs": [
        {
          "internalType": "uint256",
          "name": "tokenId",
          "type": "uint256"
        },
        {
          "internalType": "string",
          "name": "uri",
          "type": "string"
        }
      ],
      "name": "setUniqueUri",
      "outputs": [],
      "stateMutability": "nonpayable",
      "type": "function"
    },
    {
      "inputs": [
        {
          "internalType": "bytes4",
          "name": "interfaceId",
          "type": "bytes4"
        }
      ],
      "name": "supportsInterface",
      "outputs": [
        {
          "internalType": "bool",
          "name": "",
          "type": "bool"
        }
      ],
      "stateMutability": "view",
      "type": "function"
    },
    {
      "inputs": [],
      "name": "symbol",
      "outputs": [
        {
          "internalType": "string",
          "name": "",
          "type": "string"
        }
      ],
      "stateMutability": "view",
      "type": "function"
    },
    {
      "inputs": [
        {
          "internalType": "uint256",
          "name": "index",
          "type": "uint256"
        }
      ],
      "name": "tokenByIndex",
      "outputs": [
        {
          "internalType": "uint256",
          "name": "",
          "type": "uint256"
        }
      ],
      "stateMutability": "view",
      "type": "function"
    },
    {
      "inputs": [
        {
          "internalType": "address",
          "name": "owner",
          "type": "address"
        },
        {
          "internalType": "uint256",
          "name": "index",
          "type": "uint256"
        }
      ],
      "name": "tokenOfOwnerByIndex",
      "outputs": [
        {
          "internalType": "uint256",
          "name": "",
          "type": "uint256"
        }
      ],
      "stateMutability": "view",
      "type": "function"
    },
    {
      "inputs": [
        {
          "internalType": "uint256",
          "name": "tokenId",
          "type": "uint256"
        }
      ],
      "name": "tokenURI",
      "outputs": [
        {
          "internalType": "string",
          "name": "",
          "type": "string"
        }
      ],
      "stateMutability": "view",
      "type": "function"
    },
    {
      "inputs": [],
      "name": "totalSupply",
      "outputs": [
        {
          "internalType": "uint256",
          "name": "",
          "type": "uint256"
        }
      ],
      "stateMutability": "view",
      "type": "function"
    },
    {
      "inputs": [
        {
          "internalType": "address",
          "name": "from",
          "type": "address"
        },
        {
          "internalType": "address",
          "name": "to",
          "type": "address"
        },
        {
          "internalType": "uint256",
          "name": "tokenId",
          "type": "uint256"
        }
      ],
      "name": "transferFrom",
      "outputs": [],
      "stateMutability": "nonpayable",
      "type": "function"
    }
  ],
  "transactionHash": "0xa697620b09ffd9ad953a739856ec99414330510b5a1cb5b1f192ebb10763a5f9",
  "args": [],
  "numDeployments": 14,
  "solcInputHash": "21694ae9f6af6d7e6b6c0f63af22fba5",
  "bytecode": "0x60806040523480156200001157600080fd5b507ff0c57e16840df040f15088dc2f81fe391c3923bec73e23a9662efc9c229c6a00805468010000000000000000810460ff1615906001600160401b03166000811580156200005d5750825b90506000826001600160401b031660011480156200007a5750303b155b90508115801562000089575080155b15620000a85760405163f92ee8a960e01b815260040160405180910390fd5b84546001600160401b03191660011785558315620000d757845460ff60401b1916680100000000000000001785555b83156200011e57845460ff60401b19168555604051600181527fc7f505b2f371ae2175ee4913f4499e1f2633a7b5936321eed1cdaeb6115181d29060200160405180910390a15b505050505061288780620001336000396000f3fe608060405234801561001057600080fd5b50600436106101f25760003560e01c806370a0823111610110578063a60138a7116100a8578063a60138a71461041b578063b429afeb1461042e578063b88d4fde14610441578063c87b56dd14610454578063d910437514610467578063d9f20a7f1461047a578063dee1f0e414610482578063e985e9c514610495578063f77c4791146104a8578063ffa1ad74146104b057600080fd5b806370a082311461038c57806371e578dc1461039f57806379e7d945146103b25780637cc96380146103b9578063936725ec146103c157806395d89b41146103e55780639d0bcca0146103ed578063a0bcfc7f146103f5578063a22cb4651461040857600080fd5b806342842e0e1161018e57806342842e0e146102e457806342966c68146102f75780634593144c1461030a5780634f558e79146103125780634f6ccce7146103255780634fac6ccd146103385780635002254c1461034b578063572b6c051461035e5780636352211e146103715780636c0360eb1461038457600080fd5b806301ffc9a7146101f757806306fdde031461021f578063081812fc14610234578063095ea7b314610254578063150b7a021461026957806318160ddd146102a057806323b872dd146102b65780632f745c59146102c9578063325a19f1146102dc575b600080fd5b61020a61020536600461209a565b6104d4565b60405190151581526020015b60405180910390f35b6102276104ff565b6040516102169190612104565b610247610242366004612117565b6105a0565b6040516102169190612130565b610267610262366004612159565b6105b5565b005b610287610277366004612210565b630a85bd0160e11b949350505050565b6040516001600160e01b03199091168152602001610216565b6102a86105cb565b604051908152602001610216565b6102676102c436600461228f565b6105e0565b6102a86102d7366004612159565b61067b565b6102a86106dd565b6102676102f236600461228f565b610716565b610267610305366004612117565b610736565b6102a8610809565b61020a610320366004612117565b610839565b6102a8610333366004612117565b610856565b6102676103463660046122d0565b6108b7565b61026761035936600461230d565b6109c4565b61020a61036c3660046122d0565b610ac4565b61024761037f366004612117565b610b39565b610227610b44565b6102a861039a3660046122d0565b610b4e565b6102a86103ad3660046122d0565b610ba6565b600161020a565b6102a8610c87565b610227604051806040016040528060058152602001640312e302e360dc1b81525081565b610227610ca5565b610247610cc2565b61026761040336600461239d565b610cf2565b6102676104163660046123df565b610d41565b610267610429366004612418565b610d53565b61020a61043c3660046122d0565b610db3565b61026761044f366004612210565b610dd8565b610227610462366004612117565b610def565b61026761047536600461245e565b610f00565b6102a8604681565b61020a6104903660046122d0565b610f5d565b61020a6104a33660046124a2565b610fe2565b610247611021565b61022760405180604001604052806005815260200164322e302e3160d81b81525081565b60006001600160e01b0319821663780e9d6360e01b14806104f957506104f982611051565b92915050565b6060600061050b6110a1565b905080600001805461051c906124d0565b80601f0160208091040260200160405190810160405280929190818152602001828054610548906124d0565b80156105955780601f1061056a57610100808354040283529160200191610595565b820191906000526020600020905b81548152906001019060200180831161057857829003601f168201915b505050505091505090565b60006105ab826110c5565b506104f9826110fd565b6105c782826105c2611126565b611148565b5050565b6000806105d6611155565b6002015492915050565b6001600160a01b038216610613576000604051633250574960e11b815260040161060a9190612130565b60405180910390fd5b60006106278383610622611126565b611179565b9050836001600160a01b0316816001600160a01b031614610675576040516364283d7b60e01b81526001600160a01b038086166004830152602482018490528216604482015260640161060a565b50505050565b600080610686611155565b905061069184610b4e565b83106106b457838360405163295f44f760e21b815260040161060a92919061250a565b6001600160a01b0384166000908152602091825260408082208583529092522054905092915050565b600061071161070d60017f6f55f470bdc9cb5f04223fd822021061668e4dccb43e8727b295106dc9769c8b612539565b5490565b905090565b61073183838360405180602001604052806000815250610dd8565b505050565b3361073f611021565b6001600160a01b031663016dff5d6040518163ffffffff1660e01b8152600401602060405180830381865afa15801561077c573d6000803e3d6000fd5b505050506040513d601f19601f820116820180604052508101906107a0919061254c565b6001600160a01b0316146107c957336040516303f2374960e01b815260040161060a9190612130565b6107d28161118f565b6040518181527f76126f33d318abe88f8b82c5136b7e5a52091ab897679a40f612d7590adfc997906020015b60405180910390a150565b600061071161070d60017f812a673dfca07956350df10f8a654925f561d7a0da09bdbe79e653939a14d9f1612539565b600080610845836111ca565b6001600160a01b0316141592915050565b600080610861611155565b905061086b6105cb565b831061088f5760008360405163295f44f760e21b815260040161060a92919061250a565b8060020183815481106108a4576108a4612569565b9060005260206000200154915050919050565b3330146109045760405162461bcd60e51b815260206004820152601b60248201527a24b731b932b0b9b2903932bb34b9b4b7b7103337b93134b23232b760291b604482015260640161060a565b600061092261070d6001600080516020612832833981519152612539565b61092d90600161257f565b905061094f8161094c6001600080516020612832833981519152612539565b55565b61097e8261094c60017fbfaaa2fb63266ff27c2da975f5894955056f50419af651a81f6c5060581857e4612539565b604080518281526001600160a01b03841660208201527ff27e2ef832a4eb8ed8ec553b875eecd44764cda95b1c24170e281539e0a869c891015b60405180910390a15050565b60006109ce6111f3565b805490915060ff600160401b82041615906001600160401b03166000811580156109f55750825b90506000826001600160401b03166001148015610a115750303b155b905081158015610a1f575080155b15610a3d5760405163f92ee8a960e01b815260040160405180910390fd5b845467ffffffffffffffff191660011785558315610a6757845460ff60401b1916600160401b1785555b610a7389898989611217565b8315610ab957845460ff60401b19168555604051600181527fc7f505b2f371ae2175ee4913f4499e1f2633a7b5936321eed1cdaeb6115181d29060200160405180910390a15b505050505050505050565b60006001600160a01b03821673d8253782c45a12053594b9deb72d8e8ab2fca54c1480610b0d57506001600160a01b0382167352ceba41da235af367bfc0b0ccd3314cb901bb5f145b806104f957506001600160a01b03821673102f1f556cd9c3d5f820e6920a8931657c5da21b1492915050565b60006104f9826110c5565b606061071161122b565b600080610b596110a1565b90506001600160a01b038316610b855760006040516322718ad960e21b815260040161060a9190612130565b6001600160a01b039092166000908152600390920160205250604090205490565b600033610bb1611021565b6001600160a01b031663016dff5d6040518163ffffffff1660e01b8152600401602060405180830381865afa158015610bee573d6000803e3d6000fd5b505050506040513d601f19601f82011682018060405250810190610c12919061254c565b6001600160a01b031614610c3b57336040516303f2374960e01b815260040161060a9190612130565b610c436112c6565b9050610c4f8282611321565b6040518181527f137a90ac9032bb52a13f83c0ac1598bbf4eb39c8cacd438d83089f198173dbc09060200160405180910390a1919050565b600061071161070d6001600080516020612832833981519152612539565b60606000610cb16110a1565b905080600101805461051c906124d0565b600061071161070d60017fbfaaa2fb63266ff27c2da975f5894955056f50419af651a81f6c5060581857e4612539565b610cfa61133b565b80610d036113d0565b60010190610d1190826125e2565b507f87cdeaffd8e70903d6ce7cc983fac3b09ca79e83818124c98e47a1d70f8027d6816040516107fe9190612104565b6105c7610d4c611126565b83836113f4565b610d5b61133b565b80610d646113d0565b60008481526002919091016020526040902090610d8190826125e2565b507ff32b5bcd021361ac825fde09ff2121b0e5783f9f993196194fab9471799e54dd82826040516109b89291906126a1565b6000610dbd611021565b6001600160a01b0316826001600160a01b0316149050919050565b610de38484846105e0565b61067584848484611499565b6060610df96113d0565b54821115610e1d57604051636438665560e11b81526004810183905260240161060a565b6000610e276113d0565b6000848152600291909101602052604090208054610e44906124d0565b80601f0160208091040260200160405190810160405280929190818152602001828054610e70906124d0565b8015610ebd5780601f10610e9257610100808354040283529160200191610ebd565b820191906000526020600020905b815481529060010190602001808311610ea057829003601f168201915b505050505090508051600014610ed35792915050565b6000610ede846115b7565b90508051600014610ef0579392505050565b610ef861122b565b949350505050565b610f0861133b565b81610f11611776565b60008381526020919091526040902090610f2b90826125e2565b507fc937f64a4fbd422a84dca96e2027e7213484be732acbb0811271e547bc62e4b582826040516109b89291906126ba565b6000816001600160a01b0316610f71611021565b6001600160a01b0316635aa6e6756040518163ffffffff1660e01b8152600401602060405180830381865afa158015610fae573d6000803e3d6000fd5b505050506040513d601f19601f82011682018060405250810190610fd2919061254c565b6001600160a01b03161492915050565b600080610fed6110a1565b6001600160a01b03948516600090815260059190910160209081526040808320959096168252939093525050205460ff1690565b600061071161070d60017f5165972ef41194f06c5007493031d0b927c20741adcb74403b954009fd2c3618612539565b60006001600160e01b031982166380ac58cd60e01b148061108257506001600160e01b03198216635b5e139f60e01b145b806104f957506301ffc9a760e01b6001600160e01b03198316146104f9565b7f80bb2b638cc20bc4d0a60d66940f3ab4a00c1d7b313497ca82fb0b4ab007930090565b6000806110d1836111ca565b90506001600160a01b0381166104f957604051637e27328960e01b81526004810184905260240161060a565b6000806111086110a1565b6000938452600401602052505060409020546001600160a01b031690565b600061113133610ac4565b15611143575060131936013560601c90565b503390565b610731838383600161179a565b7f645e039705490088daad89bae25049a34f4a9072d398537b1ab2425f24cbed0090565b6000611184836118a4565b610ef884848461199d565b600061119e6000836000611179565b90506001600160a01b0381166105c757604051637e27328960e01b81526004810183905260240161060a565b6000806111d56110a1565b6000938452600201602052505060409020546001600160a01b031690565b7ff0c57e16840df040f15088dc2f81fe391c3923bec73e23a9662efc9c229c6a0090565b61121f611a2b565b61067584848484611a50565b60606112356113d0565b6001018054611243906124d0565b80601f016020809104026020016040519081016040528092919081815260200182805461126f906124d0565b80156112bc5780601f10611291576101008083540402835291602001916112bc565b820191906000526020600020905b81548152906001019060200180831161129f57829003601f168201915b5050505050905090565b6000806112d16113d0565b5490506001600160401b036112e782600161257f565b10611308576040516308278bff60e41b81526004810182905260240161060a565b61131381600161257f565b61131b6113d0565b55919050565b6105c7828260405180602001604052806000815250611ac3565b611343611021565b6001600160a01b03166350c358a4336040518263ffffffff1660e01b815260040161136e9190612130565b602060405180830381865afa15801561138b573d6000803e3d6000fd5b505050506040513d601f19601f820116820180604052508101906113af91906126dc565b6113ce573360405163451cea1760e11b815260040161060a9190612130565b565b7fda2932ada77a3c8131d8c171a8679090714572b6a41aff2e2186c297ac0f550090565b60006113fe6110a1565b90506001600160a01b0383166114295782604051630b61174360e31b815260040161060a9190612130565b6001600160a01b038481166000818152600584016020908152604080832094881680845294825291829020805460ff191687151590811790915591519182527f17307eab39ab6107e8899845ad3d59bd9653f200f220920489ca2b5937696c31910160405180910390a350505050565b6001600160a01b0383163b1561067557826001600160a01b031663150b7a026114c0611126565b8685856040518563ffffffff1660e01b81526004016114e294939291906126f9565b6020604051808303816000875af192505050801561151d575060408051601f3d908101601f1916820190925261151a91810190612736565b60015b61157d573d80801561154b576040519150601f19603f3d011682016040523d82523d6000602084013e611550565b606091505b5080516000036115755783604051633250574960e11b815260040161060a9190612130565b805181602001fd5b6001600160e01b03198116630a85bd0160e11b146115b05783604051633250574960e11b815260040161060a9190612130565b5050505050565b606060006115c3611021565b6001600160a01b0316628e96916040518163ffffffff1660e01b8152600401602060405180830381865afa1580156115ff573d6000803e3d6000fd5b505050506040513d601f19601f82011682018060405250810190611623919061254c565b6001600160a01b031663d4ac484830856040518363ffffffff1660e01b815260040161165092919061250a565b60a060405180830381865afa15801561166d573d6000803e3d6000fd5b505050506040513d601f19601f82011682018060405250810190611691919061276c565b5163ffffffff1690506116a5600a826127f9565b6000036116c2575050604080516020810190915260008152919050565b6116ca611776565b60006116d7600a846127f9565b815260200190815260200160002080546116f0906124d0565b80601f016020809104026020016040519081016040528092919081815260200182805461171c906124d0565b80156117695780601f1061173e57610100808354040283529160200191611769565b820191906000526020600020905b81548152906001019060200180831161174c57829003601f168201915b5050505050915050919050565b7fc546abf9ed7c8d4a6ded82a0edfd8f66c8300256eba0932933c3d559a091ea0090565b60006117a46110a1565b905081806117ba57506001600160a01b03831615155b156118735760006117ca856110c5565b90506001600160a01b038416158015906117f65750836001600160a01b0316816001600160a01b031614155b801561180957506118078185610fe2565b155b15611829578360405163a9fbf51f60e01b815260040161060a9190612130565b82156118715784866001600160a01b0316826001600160a01b03167f8c5be1e5ebec7d5bd14f71427d1e84f3dd0314c0f7b2291e5b200ac8c7c3b92560405160405180910390a45b505b600093845260040160205250506040902080546001600160a01b0319166001600160a01b0392909216919091179055565b6118ac611021565b6001600160a01b031663016dff5d6040518163ffffffff1660e01b8152600401602060405180830381865afa1580156118e9573d6000803e3d6000fd5b505050506040513d601f19601f8201168201806040525081019061190d919061254c565b6001600160a01b031663649dab3930836040518363ffffffff1660e01b815260040161193a92919061250a565b6020604051808303816000875af1158015611959573d6000803e3d6000fd5b505050506040513d601f19601f8201168201806040525081019061197d91906126dc565b61199a5760405163ca7cbc7760e01b815260040160405180910390fd5b50565b6000806119ab858585611ada565b90506001600160a01b0381166119c9576119c484611be1565b6119ec565b846001600160a01b0316816001600160a01b0316146119ec576119ec8185611c1a565b6001600160a01b038516611a0857611a0384611cbb565b610ef8565b846001600160a01b0316816001600160a01b031614610ef857610ef88585611d84565b611a33611ddc565b6113ce57604051631afcd79f60e31b815260040160405180910390fd5b611a5a8484611df6565b611a6382611e08565b6001611a6d6113d0565b5580611a776113d0565b60010190611a8590826125e2565b507f87cdeaffd8e70903d6ce7cc983fac3b09ca79e83818124c98e47a1d70f8027d681604051611ab59190612104565b60405180910390a150505050565b611acd8383611e19565b6107316000848484611499565b600080611ae56110a1565b90506000611af2856111ca565b90506001600160a01b03841615611b0e57611b0e818587611e7e565b6001600160a01b03811615611b4e57611b2b60008660008061179a565b6001600160a01b0381166000908152600383016020526040902080546000190190555b6001600160a01b03861615611b7f576001600160a01b03861660009081526003830160205260409020805460010190555b600085815260028301602052604080822080546001600160a01b0319166001600160a01b038a811691821790925591518893918516917fddf252ad1be2c89b69c2b068fc378daa952ba7f163c4a11628f55a4df523b3ef91a495945050505050565b6000611beb611155565b600281018054600085815260039093016020908152604084208290556001820183559183529120019190915550565b6000611c24611155565b90506000611c3184610b4e565b6000848152600184016020526040902054909150808214611c86576001600160a01b03851660009081526020848152604080832085845282528083205484845281842081905583526001860190915290208190555b50600092835260018201602090815260408085208590556001600160a01b039095168452918252838320908352905290812055565b6000611cc5611155565b6002810154909150600090611cdc90600190612539565b6000848152600384016020526040812054600285018054939450909284908110611d0857611d08612569565b9060005260206000200154905080846002018381548110611d2b57611d2b612569565b600091825260208083209091019290925582815260038601909152604080822084905586825281205560028401805480611d6757611d6761281b565b600190038181906000526020600020016000905590555050505050565b6000611d8e611155565b905060006001611d9d85610b4e565b611da79190612539565b6001600160a01b0390941660009081526020838152604080832087845282528083208690559482526001909301909252502055565b6000611de66111f3565b54600160401b900460ff16919050565b611dfe611a2b565b6105c78282611ed4565b611e10611a2b565b61199a81611f02565b6001600160a01b038216611e43576000604051633250574960e11b815260040161060a9190612130565b6000611e5183836000611179565b90506001600160a01b038116156107315760006040516339e3563760e11b815260040161060a9190612130565b611e8983838361201f565b610731576001600160a01b038316611eb757604051637e27328960e01b81526004810182905260240161060a565b818160405163177e802f60e01b815260040161060a92919061250a565b611edc611a2b565b6000611ee66110a1565b905080611ef384826125e2565b506001810161067583826125e2565b6001600160a01b038116611f4a5760405162461bcd60e51b815260206004820152600f60248201526e2d32b9379031b7b73a3937b63632b960891b604482015260640161060a565b611f798161094c60017f5165972ef41194f06c5007493031d0b927c20741adcb74403b954009fd2c3618612539565b611fa84261094c60017f6f55f470bdc9cb5f04223fd822021061668e4dccb43e8727b295106dc9769c8b612539565b611fd74361094c60017f812a673dfca07956350df10f8a654925f561d7a0da09bdbe79e653939a14d9f1612539565b604080516001600160a01b038316815242602082015243918101919091527f1a2dd071001ebf6e03174e3df5b305795a4ad5d41d8fdb9ba41dbbe236713426906060016107fe565b60006001600160a01b03831615801590610ef85750826001600160a01b0316846001600160a01b0316148061205957506120598484610fe2565b80610ef85750826001600160a01b0316612072836110fd565b6001600160a01b031614949350505050565b6001600160e01b03198116811461199a57600080fd5b6000602082840312156120ac57600080fd5b81356120b781612084565b9392505050565b6000815180845260005b818110156120e4576020818501810151868301820152016120c8565b506000602082860101526020601f19601f83011685010191505092915050565b6020815260006120b760208301846120be565b60006020828403121561212957600080fd5b5035919050565b6001600160a01b0391909116815260200190565b6001600160a01b038116811461199a57600080fd5b6000806040838503121561216c57600080fd5b823561217781612144565b946020939093013593505050565b634e487b7160e01b600052604160045260246000fd5b60006001600160401b03808411156121b5576121b5612185565b604051601f8501601f19908116603f011681019082821181831017156121dd576121dd612185565b816040528093508581528686860111156121f657600080fd5b858560208301376000602087830101525050509392505050565b6000806000806080858703121561222657600080fd5b843561223181612144565b9350602085013561224181612144565b92506040850135915060608501356001600160401b0381111561226357600080fd5b8501601f8101871361227457600080fd5b6122838782356020840161219b565b91505092959194509250565b6000806000606084860312156122a457600080fd5b83356122af81612144565b925060208401356122bf81612144565b929592945050506040919091013590565b6000602082840312156122e257600080fd5b81356120b781612144565b600082601f8301126122fe57600080fd5b6120b78383356020850161219b565b6000806000806080858703121561232357600080fd5b84356001600160401b038082111561233a57600080fd5b612346888389016122ed565b9550602087013591508082111561235c57600080fd5b612368888389016122ed565b94506040870135915061237a82612144565b9092506060860135908082111561239057600080fd5b50612283878288016122ed565b6000602082840312156123af57600080fd5b81356001600160401b038111156123c557600080fd5b610ef8848285016122ed565b801515811461199a57600080fd5b600080604083850312156123f257600080fd5b82356123fd81612144565b9150602083013561240d816123d1565b809150509250929050565b6000806040838503121561242b57600080fd5b8235915060208301356001600160401b0381111561244857600080fd5b612454858286016122ed565b9150509250929050565b6000806040838503121561247157600080fd5b82356001600160401b0381111561248757600080fd5b612493858286016122ed565b95602094909401359450505050565b600080604083850312156124b557600080fd5b82356124c081612144565b9150602083013561240d81612144565b600181811c908216806124e457607f821691505b60208210810361250457634e487b7160e01b600052602260045260246000fd5b50919050565b6001600160a01b03929092168252602082015260400190565b634e487b7160e01b600052601160045260246000fd5b818103818111156104f9576104f9612523565b60006020828403121561255e57600080fd5b81516120b781612144565b634e487b7160e01b600052603260045260246000fd5b808201808211156104f9576104f9612523565b601f821115610731576000816000526020600020601f850160051c810160208610156125bb5750805b601f850160051c820191505b818110156125da578281556001016125c7565b505050505050565b81516001600160401b038111156125fb576125fb612185565b61260f8161260984546124d0565b84612592565b602080601f831160018114612644576000841561262c5750858301515b600019600386901b1c1916600185901b1785556125da565b600085815260208120601f198616915b8281101561267357888601518255948401946001909101908401612654565b50858210156126915787850151600019600388901b60f8161c191681555b5050505050600190811b01905550565b828152604060208201526000610ef860408301846120be565b6040815260006126cd60408301856120be565b90508260208301529392505050565b6000602082840312156126ee57600080fd5b81516120b7816123d1565b6001600160a01b038581168252841660208201526040810183905260806060820181905260009061272c908301846120be565b9695505050505050565b60006020828403121561274857600080fd5b81516120b781612084565b805163ffffffff8116811461276757600080fd5b919050565b600060a0828403121561277e57600080fd5b60405160a081018181106001600160401b03821117156127a0576127a0612185565b6040526127ac83612753565b81526127ba60208401612753565b60208201526127cb60408401612753565b60408201526127dc60608401612753565b60608201526127ed60808401612753565b60808201529392505050565b60008261281657634e487b7160e01b600052601260045260246000fd5b500490565b634e487b7160e01b600052603160045260246000fdfe22573091f17911fb166032a3d9e0554aa73d31b7b7ddea4a4dd2995650af84bda26469706673582212201964c30e839baa695f5d0d81a5933c92ac94708c3d49180c462def8900a88cd964736f6c63430008170033",
  "devdoc": {
    "errors": {
      "ERC721EnumerableForbiddenBatchMint()": [
        {
          "details": "Batch mint is not allowed."
        }
      ],
      "ERC721IncorrectOwner(address,uint256,address)": [
        {
          "details": "Indicates an error related to the ownership over a particular token. Used in transfers.",
          "params": {
            "owner": "Address of the current owner of a token.",
            "sender": "Address whose tokens are being transferred.",
            "tokenId": "Identifier number of a token."
          }
        }
      ],
      "ERC721InsufficientApproval(address,uint256)": [
        {
          "details": "Indicates a failure with the `operator`s approval. Used in transfers.",
          "params": {
            "operator": "Address that may be allowed to operate on tokens without being their owner.",
            "tokenId": "Identifier number of a token."
          }
        }
      ],
      "ERC721InvalidApprover(address)": [
        {
          "details": "Indicates a failure with the `approver` of a token to be approved. Used in approvals.",
          "params": {
            "approver": "Address initiating an approval operation."
          }
        }
      ],
      "ERC721InvalidOperator(address)": [
        {
          "details": "Indicates a failure with the `operator` to be approved. Used in approvals.",
          "params": {
            "operator": "Address that may be allowed to operate on tokens without being their owner."
          }
        }
      ],
      "ERC721InvalidOwner(address)": [
        {
          "details": "Indicates that an address can't be an owner. For example, `address(0)` is a forbidden owner in ERC-20. Used in balance queries.",
          "params": {
            "owner": "Address of the current owner of a token."
          }
        }
      ],
      "ERC721InvalidReceiver(address)": [
        {
          "details": "Indicates a failure with the token `receiver`. Used in transfers.",
          "params": {
            "receiver": "Address to which tokens are being transferred."
          }
        }
      ],
      "ERC721InvalidSender(address)": [
        {
          "details": "Indicates a failure with the token `sender`. Used in transfers.",
          "params": {
            "sender": "Address whose tokens are being transferred."
          }
        }
      ],
      "ERC721NonexistentToken(uint256)": [
        {
          "details": "Indicates a `tokenId` whose `owner` is the zero address.",
          "params": {
            "tokenId": "Identifier number of a token."
          }
        }
      ],
      "ERC721OutOfBoundsIndex(address,uint256)": [
        {
          "details": "An `owner`'s token query was out of bounds for `index`. NOTE: The owner being `address(0)` indicates a global out of bounds index."
        }
      ],
      "InvalidInitialization()": [
        {
          "details": "The contract is already initialized."
        }
      ],
      "NotInitializing()": [
        {
          "details": "The contract is not initializing."
        }
      ]
    },
    "events": {
      "Approval(address,address,uint256)": {
        "details": "Emitted when `owner` enables `approved` to manage the `tokenId` token."
      },
      "ApprovalForAll(address,address,bool)": {
        "details": "Emitted when `owner` enables or disables (`approved`) `operator` to manage all of its assets."
      },
      "Initialized(uint64)": {
        "details": "Triggered when the contract has been initialized or reinitialized."
      },
      "Transfer(address,address,uint256)": {
        "details": "Emitted when `tokenId` token is transferred from `from` to `to`."
      }
    },
    "kind": "dev",
    "methods": {
      "approve(address,uint256)": {
        "details": "See {IERC721-approve}."
      },
      "balanceOf(address)": {
        "details": "See {IERC721-balanceOf}."
      },
      "created()": {
        "returns": {
          "_0": "Creation timestamp"
        }
      },
      "createdBlock()": {
        "returns": {
          "_0": "Creation block number"
        }
      },
      "getApproved(uint256)": {
        "details": "See {IERC721-getApproved}."
      },
      "increaseRevision(address)": {
        "details": "Revision should be increased on each contract upgrade"
      },
      "isApprovedForAll(address,address)": {
        "details": "See {IERC721-isApprovedForAll}."
      },
      "isController(address)": {
        "details": "Return true if given address is controller"
      },
      "name()": {
        "details": "See {IERC721Metadata-name}."
      },
      "onERC721Received(address,address,uint256,bytes)": {
        "details": "See {IERC721Receiver-onERC721Received}. Always returns `IERC721Receiver.onERC721Received.selector`."
      },
      "ownerOf(uint256)": {
        "details": "See {IERC721-ownerOf}."
      },
      "previousImplementation()": {
        "details": "Previous logic implementation"
      },
      "revision()": {
        "details": "Contract upgrade counter"
      },
      "safeTransferFrom(address,address,uint256)": {
        "details": "See {IERC721-safeTransferFrom}."
      },
      "safeTransferFrom(address,address,uint256,bytes)": {
        "details": "See {IERC721-safeTransferFrom}."
      },
      "setApprovalForAll(address,bool)": {
        "details": "See {IERC721-setApprovalForAll}."
      },
      "setHeroUriByStatus(string,uint256)": {
        "details": "Every 10 levels we can show uniq img"
      },
      "supportsInterface(bytes4)": {
        "details": "See {IERC165-supportsInterface}."
      },
      "symbol()": {
        "details": "See {IERC721Metadata-symbol}."
      },
      "tokenByIndex(uint256)": {
        "details": "See {IERC721Enumerable-tokenByIndex}."
      },
      "tokenOfOwnerByIndex(address,uint256)": {
        "details": "See {IERC721Enumerable-tokenOfOwnerByIndex}."
      },
      "tokenURI(uint256)": {
        "details": "See {IERC721Metadata-tokenURI}."
      },
      "totalSupply()": {
        "details": "See {IERC721Enumerable-totalSupply}."
      },
      "transferFrom(address,address,uint256)": {
        "details": "See {IERC721-transferFrom}."
      }
    },
    "stateVariables": {
      "VERSION": {
        "details": "Should be incremented when contract changed"
      }
    },
    "version": 1
  },
  "userdoc": {
    "kind": "user",
    "methods": {
      "CONTROLLABLE_VERSION()": {
        "notice": "Version of the contract"
      },
      "VERSION()": {
        "notice": "Version of the contract"
      },
      "controller()": {
        "notice": "Return controller address saved in the contract slot"
      },
      "created()": {
        "notice": "Return creation timestamp"
      },
      "createdBlock()": {
        "notice": "Return creation block number"
      },
      "isGovernance(address)": {
        "notice": "Return true if given address is setup as governance in Controller"
      }
    },
    "version": 1
  },
  "storageLayout": {
    "storage": [],
    "types": null
  }
}