{
  "address": "0xC481120D7EA2cE8d9086E268c1f222E1a5d90726",
  "abi": [
    {
      "inputs": [],
      "name": "AlreadyRegistered",
      "type": "error"
    },
    {
      "inputs": [
        {
          "internalType": "bytes32",
          "name": "key",
          "type": "bytes32"
        }
      ],
      "name": "EnumerableMapNonexistentKey",
      "type": "error"
    },
    {
      "inputs": [
        {
          "internalType": "address",
          "name": "heroToken",
          "type": "address"
        },
        {
          "internalType": "uint256",
          "name": "heroTokenId",
          "type": "uint256"
        }
      ],
      "name": "ErrorHeroIsDead",
      "type": "error"
    },
    {
      "inputs": [],
      "name": "ErrorNotAllowedSender",
      "type": "error"
    },
    {
      "inputs": [
        {
          "internalType": "address",
          "name": "sender",
          "type": "address"
        }
      ],
      "name": "ErrorNotDungeonFactory",
      "type": "error"
    },
    {
      "inputs": [
        {
          "internalType": "address",
          "name": "sender",
          "type": "address"
        }
      ],
      "name": "ErrorNotHeroController",
      "type": "error"
    },
    {
      "inputs": [
        {
          "internalType": "address",
          "name": "sender",
          "type": "address"
        }
      ],
      "name": "ErrorNotItemController",
      "type": "error"
    },
    {
      "inputs": [
        {
          "internalType": "address",
          "name": "token",
          "type": "address"
        },
        {
          "internalType": "uint256",
          "name": "tokenId",
          "type": "uint256"
        }
      ],
      "name": "ErrorNotOwner",
      "type": "error"
    },
    {
      "inputs": [],
      "name": "ErrorPaused",
      "type": "error"
    },
    {
      "inputs": [],
      "name": "InvalidInitialization",
      "type": "error"
    },
    {
      "inputs": [
        {
          "internalType": "address",
          "name": "item",
          "type": "address"
        },
        {
          "internalType": "uint256",
          "name": "itemId",
          "type": "uint256"
        }
      ],
      "name": "ItemEquipped",
      "type": "error"
    },
    {
      "inputs": [
        {
          "internalType": "address",
          "name": "item",
          "type": "address"
        },
        {
          "internalType": "uint256",
          "name": "itemId",
          "type": "uint256"
        }
      ],
      "name": "ItemNotFound",
      "type": "error"
    },
    {
      "inputs": [],
      "name": "LengthsMismatch",
      "type": "error"
    },
    {
      "inputs": [],
      "name": "NotInitializing",
      "type": "error"
    },
    {
      "inputs": [
        {
          "internalType": "uint256",
          "name": "index",
          "type": "uint256"
        },
        {
          "internalType": "uint256",
          "name": "length",
          "type": "uint256"
        }
      ],
      "name": "OutOfBounds",
      "type": "error"
    },
    {
      "inputs": [],
      "name": "SandboxDifferentHeroesNotAllowed",
      "type": "error"
    },
    {
      "inputs": [],
      "name": "SandboxItemNotActive",
      "type": "error"
    },
    {
      "inputs": [],
      "name": "SandboxItemNotRegistered",
      "type": "error"
    },
    {
      "inputs": [],
      "name": "SandboxItemOutside",
      "type": "error"
    },
    {
      "inputs": [],
      "name": "SandboxModeRequired",
      "type": "error"
    },
    {
      "inputs": [],
      "name": "SandboxUpgradeModeRequired",
      "type": "error"
    },
    {
      "inputs": [
        {
          "internalType": "uint256",
          "name": "value",
          "type": "uint256"
        }
      ],
      "name": "TooHighValue",
      "type": "error"
    },
    {
      "anonymous": false,
      "inputs": [
        {
          "indexed": false,
          "internalType": "address",
          "name": "controller",
          "type": "address"
        },
        {
          "indexed": false,
          "internalType": "uint256",
          "name": "ts",
          "type": "uint256"
        },
        {
          "indexed": false,
          "internalType": "uint256",
          "name": "block",
          "type": "uint256"
        }
      ],
      "name": "ContractInitialized",
      "type": "event"
    },
    {
      "anonymous": false,
      "inputs": [
        {
          "indexed": false,
          "internalType": "address",
          "name": "item",
          "type": "address"
        },
        {
          "indexed": false,
          "internalType": "uint256",
          "name": "itemId",
          "type": "uint256"
        }
      ],
      "name": "DestroyItemInSandbox",
      "type": "event"
    },
    {
      "anonymous": false,
      "inputs": [
        {
          "indexed": false,
          "internalType": "uint64",
          "name": "version",
          "type": "uint64"
        }
      ],
      "name": "Initialized",
      "type": "event"
    },
    {
      "anonymous": false,
      "inputs": [
        {
          "indexed": false,
          "internalType": "address",
          "name": "hero",
          "type": "address"
        },
        {
          "indexed": false,
          "internalType": "uint256",
          "name": "heroId",
          "type": "uint256"
        },
        {
          "indexed": false,
          "internalType": "address",
          "name": "item",
          "type": "address"
        },
        {
          "indexed": false,
          "internalType": "uint256",
          "name": "itemId",
          "type": "uint256"
        }
      ],
      "name": "ItemReturnedToSandbox",
      "type": "event"
    },
    {
      "anonymous": false,
      "inputs": [
        {
          "indexed": false,
          "internalType": "address",
          "name": "item",
          "type": "address"
        },
        {
          "indexed": false,
          "internalType": "uint256",
          "name": "itemId",
          "type": "uint256"
        }
      ],
      "name": "NewItemSentToSandbox",
      "type": "event"
    },
    {
      "anonymous": false,
      "inputs": [
        {
          "indexed": false,
          "internalType": "address",
          "name": "hero",
          "type": "address"
        },
        {
          "indexed": false,
          "internalType": "uint256",
          "name": "heroId",
          "type": "uint256"
        },
        {
          "indexed": false,
          "internalType": "address",
          "name": "item",
          "type": "address"
        },
        {
          "indexed": false,
          "internalType": "uint256",
          "name": "itemId",
          "type": "uint256"
        },
        {
          "indexed": false,
          "internalType": "uint256",
          "name": "tsMinting",
          "type": "uint256"
        }
      ],
      "name": "RegisterSandboxItem",
      "type": "event"
    },
    {
      "anonymous": false,
      "inputs": [
        {
          "indexed": false,
          "internalType": "address",
          "name": "hero",
          "type": "address"
        },
        {
          "indexed": false,
          "internalType": "uint256",
          "name": "heroId",
          "type": "uint256"
        },
        {
          "indexed": false,
          "internalType": "uint256",
          "name": "tsUpgradng",
          "type": "uint256"
        }
      ],
      "name": "RegisterSandboxUpgrade",
      "type": "event"
    },
    {
      "anonymous": false,
      "inputs": [
        {
          "indexed": false,
          "internalType": "uint256",
          "name": "value",
          "type": "uint256"
        },
        {
          "indexed": false,
          "internalType": "address",
          "name": "oldLogic",
          "type": "address"
        }
      ],
      "name": "RevisionIncreased",
      "type": "event"
    },
    {
      "anonymous": false,
      "inputs": [
        {
          "indexed": false,
          "internalType": "address",
          "name": "hero",
          "type": "address"
        },
        {
          "indexed": false,
          "internalType": "uint256",
          "name": "heroId",
          "type": "uint256"
        },
        {
          "indexed": false,
          "internalType": "address",
          "name": "item",
          "type": "address"
        },
        {
          "indexed": false,
          "internalType": "uint256",
          "name": "itemId",
          "type": "uint256"
        }
      ],
      "name": "TransferItemToHeroFromSandbox",
      "type": "event"
    },
    {
      "anonymous": false,
      "inputs": [
        {
          "indexed": false,
          "internalType": "address",
          "name": "hero",
          "type": "address"
        },
        {
          "indexed": false,
          "internalType": "uint256",
          "name": "heroId",
          "type": "uint256"
        },
        {
          "indexed": false,
          "internalType": "address[]",
          "name": "items",
          "type": "address[]"
        },
        {
          "indexed": false,
          "internalType": "uint256[]",
          "name": "itemIds",
          "type": "uint256[]"
        }
      ],
      "name": "WithdrawItemsFromSandbox",
      "type": "event"
    },
    {
      "inputs": [],
      "name": "CONTROLLABLE_VERSION",
      "outputs": [
        {
          "internalType": "string",
          "name": "",
          "type": "string"
        }
      ],
      "stateMutability": "view",
      "type": "function"
    },
    {
      "inputs": [],
      "name": "VERSION",
      "outputs": [
        {
          "internalType": "string",
          "name": "",
          "type": "string"
        }
      ],
      "stateMutability": "view",
      "type": "function"
    },
    {
      "inputs": [],
      "name": "controller",
      "outputs": [
        {
          "internalType": "address",
          "name": "",
          "type": "address"
        }
      ],
      "stateMutability": "view",
      "type": "function"
    },
    {
      "inputs": [],
      "name": "created",
      "outputs": [
        {
          "internalType": "uint256",
          "name": "",
          "type": "uint256"
        }
      ],
      "stateMutability": "view",
      "type": "function"
    },
    {
      "inputs": [],
      "name": "createdBlock",
      "outputs": [
        {
          "internalType": "uint256",
          "name": "",
          "type": "uint256"
        }
      ],
      "stateMutability": "view",
      "type": "function"
    },
    {
      "inputs": [
        {
          "internalType": "address",
          "name": "item",
          "type": "address"
        },
        {
          "internalType": "uint256",
          "name": "itemId",
          "type": "uint256"
        }
      ],
      "name": "destroyItem",
      "outputs": [],
      "stateMutability": "nonpayable",
      "type": "function"
    },
    {
      "inputs": [
        {
          "internalType": "address",
          "name": "hero",
          "type": "address"
        },
        {
          "internalType": "uint256",
          "name": "heroId",
          "type": "uint256"
        },
        {
          "internalType": "address",
          "name": "item",
          "type": "address"
        }
      ],
      "name": "firstActiveItemOfHeroByIndex",
      "outputs": [
        {
          "internalType": "uint256",
          "name": "itemId",
          "type": "uint256"
        }
      ],
      "stateMutability": "view",
      "type": "function"
    },
    {
      "inputs": [
        {
          "internalType": "address",
          "name": "hero",
          "type": "address"
        },
        {
          "internalType": "uint256",
          "name": "heroId",
          "type": "uint256"
        },
        {
          "internalType": "address",
          "name": "item",
          "type": "address"
        }
      ],
      "name": "getActiveItemIds",
      "outputs": [
        {
          "internalType": "uint256[]",
          "name": "itemIds",
          "type": "uint256[]"
        },
        {
          "internalType": "bool[]",
          "name": "toWithdraw",
          "type": "bool[]"
        },
        {
          "internalType": "uint256[]",
          "name": "timestamps",
          "type": "uint256[]"
        }
      ],
      "stateMutability": "view",
      "type": "function"
    },
    {
      "inputs": [
        {
          "internalType": "address",
          "name": "hero",
          "type": "address"
        },
        {
          "internalType": "uint256",
          "name": "heroId",
          "type": "uint256"
        }
      ],
      "name": "getHeroRegisteredItems",
      "outputs": [
        {
          "internalType": "address[]",
          "name": "items",
          "type": "address[]"
        }
      ],
      "stateMutability": "view",
      "type": "function"
    },
    {
      "inputs": [
        {
          "internalType": "address",
          "name": "hero",
          "type": "address"
        },
        {
          "internalType": "uint256",
          "name": "heroId",
          "type": "uint256"
        },
        {
          "internalType": "address",
          "name": "item",
          "type": "address"
        },
        {
          "internalType": "uint256",
          "name": "itemId",
          "type": "uint256"
        }
      ],
      "name": "getItemInfo",
      "outputs": [
        {
          "internalType": "bool",
          "name": "withdrawn",
          "type": "bool"
        },
        {
          "internalType": "uint256",
          "name": "tsMinted",
          "type": "uint256"
        }
      ],
      "stateMutability": "view",
      "type": "function"
    },
    {
      "inputs": [
        {
          "internalType": "address",
          "name": "oldLogic",
          "type": "address"
        }
      ],
      "name": "increaseRevision",
      "outputs": [],
      "stateMutability": "nonpayable",
      "type": "function"
    },
    {
      "inputs": [
        {
          "internalType": "address",
          "name": "controller_",
          "type": "address"
        }
      ],
      "name": "init",
      "outputs": [],
      "stateMutability": "nonpayable",
      "type": "function"
    },
    {
      "inputs": [
        {
          "internalType": "address",
          "name": "value_",
          "type": "address"
        }
      ],
      "name": "isController",
      "outputs": [
        {
          "internalType": "bool",
          "name": "",
          "type": "bool"
        }
      ],
      "stateMutability": "view",
      "type": "function"
    },
    {
      "inputs": [
        {
          "internalType": "address",
          "name": "value_",
          "type": "address"
        }
      ],
      "name": "isGovernance",
      "outputs": [
        {
          "internalType": "bool",
          "name": "",
          "type": "bool"
        }
      ],
      "stateMutability": "view",
      "type": "function"
    },
    {
      "inputs": [
        {
          "internalType": "address",
          "name": "forwarder",
          "type": "address"
        }
      ],
      "name": "isTrustedForwarder",
      "outputs": [
        {
          "internalType": "bool",
          "name": "",
          "type": "bool"
        }
      ],
      "stateMutability": "view",
      "type": "function"
    },
    {
      "inputs": [
        {
          "internalType": "address",
          "name": "item",
          "type": "address"
        },
        {
          "internalType": "uint256",
          "name": "itemId",
          "type": "uint256"
        }
      ],
      "name": "itemHero",
      "outputs": [
        {
          "internalType": "address",
          "name": "hero",
          "type": "address"
        },
        {
          "internalType": "uint256",
          "name": "heroId",
          "type": "uint256"
        }
      ],
      "stateMutability": "view",
      "type": "function"
    },
    {
      "inputs": [
        {
          "internalType": "address",
          "name": "hero",
          "type": "address"
        },
        {
          "internalType": "uint256",
          "name": "heroId",
          "type": "uint256"
        },
        {
          "internalType": "address",
          "name": "item",
          "type": "address"
        },
        {
          "internalType": "uint256",
          "name": "itemId",
          "type": "uint256"
        }
      ],
      "name": "itemState",
      "outputs": [
        {
          "internalType": "enum IItemBoxController.ItemState",
          "name": "",
          "type": "uint8"
        }
      ],
      "stateMutability": "view",
      "type": "function"
    },
    {
      "inputs": [
        {
          "internalType": "address",
          "name": "operator",
          "type": "address"
        },
        {
          "internalType": "address",
          "name": "from",
          "type": "address"
        },
        {
          "internalType": "uint256",
          "name": "tokenId",
          "type": "uint256"
        },
        {
          "internalType": "bytes",
          "name": "data",
          "type": "bytes"
        }
      ],
      "name": "onERC721Received",
      "outputs": [
        {
          "internalType": "bytes4",
          "name": "",
          "type": "bytes4"
        }
      ],
      "stateMutability": "nonpayable",
      "type": "function"
    },
    {
      "inputs": [],
      "name": "previousImplementation",
      "outputs": [
        {
          "internalType": "address",
          "name": "",
          "type": "address"
        }
      ],
      "stateMutability": "view",
      "type": "function"
    },
    {
      "inputs": [
        {
          "internalType": "address",
          "name": "hero",
          "type": "address"
        },
        {
          "internalType": "uint256",
          "name": "heroId",
          "type": "uint256"
        },
        {
          "internalType": "address[]",
          "name": "items",
          "type": "address[]"
        },
        {
          "internalType": "uint256[]",
          "name": "itemIds",
          "type": "uint256[]"
        },
        {
          "internalType": "uint256",
          "name": "countValidItems",
          "type": "uint256"
        }
      ],
      "name": "registerItems",
      "outputs": [],
      "stateMutability": "nonpayable",
      "type": "function"
    },
    {
      "inputs": [
        {
          "internalType": "bytes32",
          "name": "packedHero",
          "type": "bytes32"
        }
      ],
      "name": "registerSandboxUpgrade",
      "outputs": [],
      "stateMutability": "nonpayable",
      "type": "function"
    },
    {
      "inputs": [],
      "name": "revision",
      "outputs": [
        {
          "internalType": "uint256",
          "name": "",
          "type": "uint256"
        }
      ],
      "stateMutability": "view",
      "type": "function"
    },
    {
      "inputs": [
        {
          "internalType": "address",
          "name": "hero",
          "type": "address"
        },
        {
          "internalType": "uint256",
          "name": "heroId",
          "type": "uint256"
        },
        {
          "internalType": "address",
          "name": "item",
          "type": "address"
        },
        {
          "internalType": "uint256",
          "name": "itemId",
          "type": "uint256"
        }
      ],
      "name": "transferToHero",
      "outputs": [],
      "stateMutability": "nonpayable",
      "type": "function"
    },
    {
      "inputs": [
        {
          "internalType": "address",
          "name": "hero",
          "type": "address"
        },
        {
          "internalType": "uint256",
          "name": "heroId",
          "type": "uint256"
        }
      ],
      "name": "upgradedAt",
      "outputs": [
        {
          "internalType": "uint256",
          "name": "timestamp",
          "type": "uint256"
        }
      ],
      "stateMutability": "view",
      "type": "function"
    },
    {
      "inputs": [
        {
          "internalType": "address",
          "name": "hero",
          "type": "address"
        },
        {
          "internalType": "uint256",
          "name": "heroId",
          "type": "uint256"
        },
        {
          "internalType": "address[]",
          "name": "items",
          "type": "address[]"
        },
        {
          "internalType": "uint256[]",
          "name": "itemIds",
          "type": "uint256[]"
        },
        {
          "internalType": "address",
          "name": "receiver",
          "type": "address"
        }
      ],
      "name": "withdrawActiveItems",
      "outputs": [],
      "stateMutability": "nonpayable",
      "type": "function"
    }
  ],
  "transactionHash": "0x16dacbce3277f575febe1fd865602372ce8f39ecd7e5be9e388e3903e3068bda",
  "args": [],
  "numDeployments": 9,
  "solcInputHash": "21694ae9f6af6d7e6b6c0f63af22fba5",
  "bytecode": "0x60806040523480156200001157600080fd5b507ff0c57e16840df040f15088dc2f81fe391c3923bec73e23a9662efc9c229c6a00805468010000000000000000810460ff1615906001600160401b03166000811580156200005d5750825b90506000826001600160401b031660011480156200007a5750303b155b90508115801562000089575080155b15620000a85760405163f92ee8a960e01b815260040160405180910390fd5b84546001600160401b03191660011785558315620000d757845460ff60401b1916680100000000000000001785555b83156200011e57845460ff60401b19168555604051600181527fc7f505b2f371ae2175ee4913f4499e1f2633a7b5936321eed1cdaeb6115181d29060200160405180910390a15b505050505061318a80620001336000396000f3fe608060405234801561001057600080fd5b50600436106101435760003560e01c80638d85758c116100be5780638d85758c14610273578063936725ec14610286578063962feff7146102b75780639866c1c8146102ca5780639d0bcca0146102dd578063b429afeb146102f2578063ba18133d14610305578063de953a0b1461032f578063deb45ffd14610342578063dee1f0e414610362578063e2d9245514610375578063f77c479114610388578063ffa1ad741461028657600080fd5b8063050aa03414610148578063150b7a021461016e57806319ab453c1461019a5780631d9fc84d146101af57806327a438bc146101cf578063325a19f1146101e25780634593144c146101ea5780634fac6ccd146101f2578063572b6c051461020557806376bf69e71461022857806377acb3ec1461024a5780637cc963801461026b575b600080fd5b61015b6101563660046129cf565b610390565b6040519081526020015b60405180910390f35b61018161017c366004612a57565b6103a5565b6040516001600160e01b03199091168152602001610165565b6101ad6101a8366004612b1a565b6103cc565b005b6101c26101bd366004612b37565b6104c6565b6040516101659190612ba8565b6101ad6101dd366004612cb5565b6104db565b61015b6104f7565b61015b610530565b6101ad610200366004612b1a565b610560565b610218610213366004612b1a565b610671565b6040519015158152602001610165565b61023b6102363660046129cf565b6106e6565b60405161016593929190612d6d565b61025d610258366004612b37565b610705565b604051610165929190612dd9565b61015b61071e565b6101ad610281366004612b37565b61073c565b6102aa604051806040016040528060058152602001640312e302e360dc1b81525081565b6040516101659190612df2565b61015b6102c5366004612b37565b610752565b6101ad6102d8366004612e41565b61075e565b6102e5610772565b6040516101659190612e5a565b610218610300366004612b1a565b6107a2565b610318610313366004612e6e565b6107c7565b604080519215158352602083019190915201610165565b6101ad61033d366004612eb6565b6107e3565b610355610350366004612e6e565b610800565b6040516101659190612f60565b610218610370366004612b1a565b610817565b6101ad610383366004612e6e565b61089c565b6102e56108b6565b600061039d8484846108e6565b949350505050565b60006103bb6103b26108b6565b868686866109c9565b50630a85bd0160e11b949350505050565b60006103d6610afa565b805490915060ff600160401b82041615906001600160401b03166000811580156103fd5750825b90506000826001600160401b031660011480156104195750303b155b905081158015610427575080155b156104455760405163f92ee8a960e01b815260040160405180910390fd5b845467ffffffffffffffff19166001178555831561046f57845460ff60401b1916600160401b1785555b61047886610b1e565b83156104be57845460ff60401b19168555604051600181527fc7f505b2f371ae2175ee4913f4499e1f2633a7b5936321eed1cdaeb6115181d29060200160405180910390a15b505050505050565b60606104d28383610b2f565b90505b92915050565b6104f06104e66108b6565b8686868686610b63565b5050505050565b600061052b61052760017f6f55f470bdc9cb5f04223fd822021061668e4dccb43e8727b295106dc9769c8b612f9e565b5490565b905090565b600061052b61052760017f812a673dfca07956350df10f8a654925f561d7a0da09bdbe79e653939a14d9f1612f9e565b3330146105b25760405162461bcd60e51b815260206004820152601b60248201527a24b731b932b0b9b2903932bb34b9b4b7b7103337b93134b23232b760291b60448201526064015b60405180910390fd5b60006105d06105276001600080516020613135833981519152612f9e565b6105db906001612fb1565b90506105fd816105fa6001600080516020613135833981519152612f9e565b55565b61062c826105fa60017fbfaaa2fb63266ff27c2da975f5894955056f50419af651a81f6c5060581857e4612f9e565b604080518281526001600160a01b03841660208201527ff27e2ef832a4eb8ed8ec553b875eecd44764cda95b1c24170e281539e0a869c8910160405180910390a15050565b60006001600160a01b03821673d8253782c45a12053594b9deb72d8e8ab2fca54c14806106ba57506001600160a01b0382167352ceba41da235af367bfc0b0ccd3314cb901bb5f145b806104d557506001600160a01b03821673102f1f556cd9c3d5f820e6920a8931657c5da21b1492915050565b60608060606106f6868686610f2c565b92509250925093509350939050565b600080610712848461116c565b915091505b9250929050565b600061052b6105276001600080516020613135833981519152612f9e565b61074e6107476108b6565b83836111ac565b5050565b60006104d2838361133d565b61076f6107696108b6565b8261136b565b50565b600061052b61052760017fbfaaa2fb63266ff27c2da975f5894955056f50419af651a81f6c5060581857e4612f9e565b60006107ac6108b6565b6001600160a01b0316826001600160a01b0316149050919050565b6000806107d6868686866113df565b9150915094509492505050565b6104f06107ee6108b6565b6107f6611473565b8787878787611495565b600061080e85858585611905565b95945050505050565b6000816001600160a01b031661082b6108b6565b6001600160a01b0316635aa6e6756040518163ffffffff1660e01b8152600401602060405180830381865afa158015610868573d6000803e3d6000fd5b505050506040513d601f19601f8201168201806040525081019061088c9190612fc4565b6001600160a01b03161492915050565b6108b06108a76108b6565b85858585611980565b50505050565b600061052b61052760017f5165972ef41194f06c5007493031d0b927c20741adcb74403b954009fd2c3618612f9e565b6000806108f1611aa5565b60006108fd8787611ac9565b81526020019081526020016000209050600061091882611b19565b6001600160a01b0385166000908152600384016020526040812091925061093e82611b2c565b9050805b80156109bd57600080610960610959600185612f9e565b8690611b37565b909250905060ff811615156001600160401b03600883901c166109866201518082612fb1565b881061099557505050506109bd565b816109a657839950505050506109bd565b5050505080806109b590612fe1565b915050610942565b50505050509392505050565b6109d38585611b53565b60006109df3384611ac9565b905060006109eb611aa5565b600083815260019190910160205260408120549150819003610a45577fc5d6a1d8746fe2b4346513896a11cde3ad0f00805bd7fd078b981dc3ae5af64e3385604051610a38929190612dd9565b60405180910390a1610af1565b6000610a4f611aa5565b600083815260209182526040808220338352600381019093528120919250610a8a610a7a8389611c67565b60ff811615159160089190911c90565b915050610aa487610a9c600084611c73565b849190611ca7565b50604051849060a082901c907f9c99f877e02cfb1359dc4ba5d7a3d29fe96f38b938027b7ab77eeb96abf5d4ef90610ae3908490849033908e90612ff8565b60405180910390a150505050505b50505050505050565b7ff0c57e16840df040f15088dc2f81fe391c3923bec73e23a9662efc9c229c6a0090565b610b26611cb4565b61076f81611cdb565b60606000610b3b611aa5565b6000610b478686611ac9565b8152602001908152602001600020600101905061039d81611dee565b610b6c86611e02565b610b77868686611e97565b825182518114610b9a5760405163586cb9e160e01b815260040160405180910390fd5b81811015610bc557604051633d71388b60e21b815260048101839052602481018290526044016105a9565b6000610bd18787611ac9565b90506000610bdd611aa5565b600083815260209190915260408120915060018201905b85811015610f1f57610c28888281518110610c1157610c11613022565b602002602001015183611f9290919063ffffffff16565b610c5a57610c58888281518110610c4157610c41613022565b602002602001015183611fa790919063ffffffff16565b505b60008360030160008a8481518110610c7457610c74613022565b60200260200101516001600160a01b03166001600160a01b031681526020019081526020016000209050610cca888381518110610cb357610cb3613022565b602002602001015182611fbc90919063ffffffff16565b15610ce857604051630ea075bf60e21b815260040160405180910390fd5b306001600160a01b0316898381518110610d0457610d04613022565b60200260200101516001600160a01b0316636352211e8a8581518110610d2c57610d2c613022565b60200260200101516040518263ffffffff1660e01b8152600401610d5291815260200190565b602060405180830381865afa158015610d6f573d6000803e3d6000fd5b505050506040513d601f19601f82011682018060405250810190610d939190612fc4565b6001600160a01b031614610df057888281518110610db357610db3613022565b6020026020010151888381518110610dcd57610dcd613022565b60200260200101516040516317c8bddd60e11b81526004016105a9929190612dd9565b610e20888381518110610e0557610e05613022565b6020026020010151610e18600042611c73565b839190611ca7565b5084610e2a611aa5565b6001016000610e6b8c8681518110610e4457610e44613022565b60200260200101518c8781518110610e5e57610e5e613022565b6020026020010151611ac9565b8152602001908152602001600020819055507fc3b4ee7c56f2128f56423aae30d7346078e99b40bc91da5b92e191a9708a05378b8b8b8581518110610eb257610eb2613022565b60200260200101518b8681518110610ecc57610ecc613022565b602090810291909101810151604080516001600160a01b03968716815292830194909452919093168383015260608301526001600160401b0342166080830152519081900360a00190a150600101610bf4565b5050505050505050505050565b60608060606000610f3b611aa5565b6000610f478989611ac9565b815260200190815260200160002090506000610f6282611b19565b6001600160a01b03871660009081526003840160205260408120919250610f8882611b2c565b9050806001600160401b03811115610fa257610fa2612a11565b604051908082528060200260200182016040528015610fcb578160200160208202803683370190505b509650806001600160401b03811115610fe657610fe6612a11565b60405190808252806020026020018201604052801561100f578160200160208202803683370190505b509450806001600160401b0381111561102a5761102a612a11565b604051908082528060200260200182016040528015611053578160200160208202803683370190505b50955060005b8181101561115e57600061106d8483611b37565b8a848151811061107f5761107f613022565b6020908102919091010191909152905060ff81161515600882901c806001600160401b031690508984815181106110b8576110b8613022565b602002602001018985815181106110d1576110d1613022565b6020026020010182815250821515151581525050508782815181106110f8576110f8613022565b6020026020010151158015611133575086828151811061111a5761111a613022565b602002602001015162015180866111319190612f9e565b105b88838151811061114557611145613022565b9115156020928302919091019091015250600101611059565b505050505093509350939050565b6000806111a161117a611aa5565b60010160006111898787611ac9565b8152602001908152602001600020549060a082901c90565b909590945092505050565b6111b68333611fc8565b60006111c28383611ac9565b905060006111ce611aa5565b6000838152600191909101602052604081205491506111eb611aa5565b6000838152602091825260408082206001600160a01b03891683526003810190935281209192508390036112365785856040516317c8bddd60e11b81526004016105a9929190612dd9565b600080611243838861205d565b915091508161126957878760405163547208b960e11b81526004016105a9929190612dd9565b600061127485611b19565b9050611280828261206c565b600882901c61129c89611294600184611c73565b879190611ca7565b50604051630852cd8d60e31b8152600481018a90526001600160a01b038b16906342966c6890602401600060405180830381600087803b1580156112df57600080fd5b505af11580156112f3573d6000803e3d6000fd5b505050507fc29e02d898e0917fa6d4a130c0d695a815cd27e348fd7210cf1acca7e7e5fb128a8a604051611328929190612dd9565b60405180910390a15050505050505050505050565b6000611347611aa5565b60006113538585611ac9565b81526020810191909152604001600020549392505050565b61137482612110565b600061137e611aa5565b6000838152602091909152604081204281559150808360a081901c915091507fdf74a666d342a714a0ba7fdd314497fc2898cf50b9e595117b7ee58d7400cbdb8282426040516113d093929190613038565b60405180910390a15050505050565b60008060006113ec611aa5565b60006113f88989611ac9565b81526020019081526020016000209050600080611444868460030160008a6001600160a01b03166001600160a01b0316815260200190815260200160002061205d90919063ffffffff16565b9150915081156114675760ff8116151594506001600160401b03600882901c1693505b50505094509492505050565b600061147e33610671565b15611490575060131936013560601c90565b503390565b6114c260405180608001604052806000815260200160008152602001600015158152602001600081525090565b6114cd8887876121a5565b6114d98887878a612295565b83518082528351146114fe5760405163586cb9e160e01b815260040160405180910390fd5b600260ff16886001600160a01b031663016dff5d6040518163ffffffff1660e01b8152600401602060405180830381865afa158015611541573d6000803e3d6000fd5b505050506040513d601f19601f820116820180604052508101906115659190612fc4565b6001600160a01b031663dec38e7788886040518363ffffffff1660e01b8152600401611592929190612dd9565b602060405180830381865afa1580156115af573d6000803e3d6000fd5b505050506040513d601f19601f820116820180604052508101906115d39190613059565b60ff16146115f457604051631ef00a2160e21b815260040160405180910390fd5b6000886001600160a01b03166331423c266040518163ffffffff1660e01b8152600401602060405180830381865afa158015611634573d6000803e3d6000fd5b505050506040513d601f19601f820116820180604052508101906116589190612fc4565b90506000611664611aa5565b60006116708a8a611ac9565b8152602001908152602001600020905061168981611b19565b602084015260005b83518110156118bb5760008260030160008984815181106116b4576116b4613022565b60200260200101516001600160a01b03166001600160a01b03168152602001908152602001600020905061170a8783815181106116f3576116f3613022565b60200260200101518261205d90919063ffffffff16565b606087015215156040860181905261176b5787828151811061172e5761172e613022565b602002602001015187838151811061174857611748613022565b602002602001015160405163547208b960e11b81526004016105a9929190612dd9565b606085015160ff81161580159160081c90611799576040516356b547d360e11b815260040160405180910390fd5b6117d6868b86815181106117af576117af613022565b60200260200101518b87815181106117c9576117c9613022565b60200260200101516123ae565b6117e88760600151886020015161206c565b8984815181106117fa576117fa613022565b60200260200101516001600160a01b03166323b872dd308a8c888151811061182457611824613022565b60200260200101516040518463ffffffff1660e01b815260040161184a9392919061307c565b600060405180830381600087803b15801561186457600080fd5b505af1158015611878573d6000803e3d6000fd5b505050506118ac89858151811061189157611891613022565b60200260200101516118a4600184611c73565b859190611ca7565b50505050806001019050611691565b507f78f64a6f3e7b5765c0411b871d834dc24eace5c86c22c5f5e4f82a3f3041b7f9888888886040516118f194939291906130a0565b60405180910390a150505050505050505050565b6000806119128686611ac9565b9050600061191e611aa5565b6000838152602091825260408082206001600160a01b038916835260038101909352812091925080611950838861205d565b9150915081611960576000611972565b6119728161196d86611b19565b61244e565b9a9950505050505050505050565b61198a8533611fc8565b60008061199a878787878761249c565b915091506119aa82828686612704565b604051630ee8df4560e31b81526001600160a01b03851690637746fa28906119da9030908a90889060040161307c565b600060405180830381600087803b1580156119f457600080fd5b505af1158015611a08573d6000803e3d6000fd5b505050506000611a16611aa5565b6000611a228585611ac9565b8152602080820192909252604090810160009081206001600160a01b038916825260038101909352908120919250611a5d610a7a8388611c67565b915050611a6f86610a9c600184611c73565b507f5c9a3ca31bcd49674c3d26f698d7a0bc72a634a02b498d21652296fb67461cff898989896040516118f19493929190612ff8565b7ff371ac52645de7a0c0ec059ab8ab924072822dd11454646ed103127e27edb60090565b60006001600160401b03821115611af657604051633995b34160e01b8152600481018390526024016105a9565b5067ffffffffffffffff60a01b60a09190911b166001600160a01b039091161790565b80546000819003611b275750425b919050565b60006104d5826127aa565b6000808080611b4686866127b5565b9097909650945050505050565b806001600160a01b0316826001600160a01b03166331423c266040518163ffffffff1660e01b8152600401602060405180830381865afa158015611b9b573d6000803e3d6000fd5b505050506040513d601f19601f82011682018060405250810190611bbf9190612fc4565b6001600160a01b031614158015611c495750806001600160a01b0316826001600160a01b031663683fedf76040518163ffffffff1660e01b8152600401602060405180830381865afa158015611c19573d6000803e3d6000fd5b505050506040513d601f19601f82011682018060405250810190611c3d9190612fc4565b6001600160a01b031614155b1561074e5760405163f20e063760e01b815260040160405180910390fd5b60006104d283836127e0565b600082611c81576000611c84565b60015b60ff1660001b90506008826001600160401b031660001b901b8117905092915050565b600061039d848484612827565b611cbc612844565b611cd957604051631afcd79f60e31b815260040160405180910390fd5b565b6001600160a01b038116611d235760405162461bcd60e51b815260206004820152600f60248201526e2d32b9379031b7b73a3937b63632b960891b60448201526064016105a9565b611d52816105fa60017f5165972ef41194f06c5007493031d0b927c20741adcb74403b954009fd2c3618612f9e565b611d81426105fa60017f6f55f470bdc9cb5f04223fd822021061668e4dccb43e8727b295106dc9769c8b612f9e565b611db0436105fa60017f812a673dfca07956350df10f8a654925f561d7a0da09bdbe79e653939a14d9f1612f9e565b7f1a2dd071001ebf6e03174e3df5b305795a4ad5d41d8fdb9ba41dbbe236713426814243604051611de393929190613038565b60405180910390a150565b60606000611dfb8361285e565b9392505050565b336001600160a01b0316816001600160a01b031663683fedf76040518163ffffffff1660e01b8152600401602060405180830381865afa158015611e4a573d6000803e3d6000fd5b505050506040513d601f19601f82011682018060405250810190611e6e9190612fc4565b6001600160a01b03161461076f573360405163cf219bef60e01b81526004016105a99190612e5a565b600160ff16836001600160a01b031663016dff5d6040518163ffffffff1660e01b8152600401602060405180830381865afa158015611eda573d6000803e3d6000fd5b505050506040513d601f19601f82011682018060405250810190611efe9190612fc4565b6001600160a01b031663dec38e7784846040518363ffffffff1660e01b8152600401611f2b929190612dd9565b602060405180830381865afa158015611f48573d6000803e3d6000fd5b505050506040513d601f19601f82011682018060405250810190611f6c9190613059565b60ff1614611f8d5760405163eb28d20b60e01b815260040160405180910390fd5b505050565b60006104d2836001600160a01b0384166128ba565b60006104d2836001600160a01b0384166128d2565b60006104d2838361291c565b806001600160a01b0316826001600160a01b03166331423c266040518163ffffffff1660e01b8152600401602060405180830381865afa158015612010573d6000803e3d6000fd5b505050506040513d601f19601f820116820180604052508101906120349190612fc4565b6001600160a01b03161461074e578060405163f6b9c4d960e01b81526004016105a99190612e5a565b6000808080611b468686612928565b6000612078838361244e565b9050600181600381111561208e5761208e612f4a565b036120ac57604051630b423bd560e41b815260040160405180910390fd5b60038160038111156120c0576120c0612f4a565b036120de576040516356b547d360e11b815260040160405180910390fd5b60008160038111156120f2576120f2612f4a565b03611f8d57604051630b866da560e21b815260040160405180910390fd5b336001600160a01b0316816001600160a01b031663016dff5d6040518163ffffffff1660e01b8152600401602060405180830381865afa158015612158573d6000803e3d6000fd5b505050506040513d601f19601f8201168201806040525081019061217c9190612fc4565b6001600160a01b03161461076f57336040516303f2374960e01b81526004016105a99190612e5a565b826001600160a01b0316628e96916040518163ffffffff1660e01b8152600401602060405180830381865afa1580156121e2573d6000803e3d6000fd5b505050506040513d601f19601f820116820180604052508101906122069190612fc4565b6001600160a01b031663f16a306683836040518363ffffffff1660e01b8152600401612233929190612dd9565b602060405180830381865afa158015612250573d6000803e3d6000fd5b505050506040513d601f19601f8201168201806040525081019061227491906130e4565b611f8d57818160405163033aace360e41b81526004016105a9929190612dd9565b836001600160a01b03166318d928316040518163ffffffff1660e01b8152600401602060405180830381865afa1580156122d3573d6000803e3d6000fd5b505050506040513d601f19601f820116820180604052508101906122f791906130e4565b1561231557604051635e1633d360e11b815260040160405180910390fd5b6040516331a9108f60e11b8152600481018390526001600160a01b038083169190851690636352211e90602401602060405180830381865afa15801561235f573d6000803e3d6000fd5b505050506040513d601f19601f820116820180604052508101906123839190612fc4565b6001600160a01b0316146108b057828260405163547208b960e11b81526004016105a9929190612dd9565b60405163577c3a7d60e11b81526000906001600160a01b0385169063aef874fa906123df9086908690600401612dd9565b6040805180830381865afa1580156123fb573d6000803e3d6000fd5b505050506040513d601f19601f8201168201806040525081019061241f9190613106565b5090506001600160a01b038116156108b057828260405163b713373360e01b81526004016105a9929190612dd9565b600060ff831615801590600885901c9061246d576003925050506104d5565b612483620151806001600160401b038316612fb1565b8410612490576001612493565b60025b925050506104d5565b6000806124aa61117a611aa5565b80925081935050506000876001600160a01b031663016dff5d6040518163ffffffff1660e01b8152600401602060405180830381865afa1580156124f2573d6000803e3d6000fd5b505050506040513d601f19601f820116820180604052508101906125169190612fc4565b6001600160a01b031663dec38e7784846040518363ffffffff1660e01b8152600401612543929190612dd9565b602060405180830381865afa158015612560573d6000803e3d6000fd5b505050506040513d601f19601f820116820180604052508101906125849190613059565b60ff16905060001981016125d657826001600160a01b0316876001600160a01b03161415806125b35750818614155b156125d157604051637530513360e11b815260040160405180910390fd5b6126f9565b60011981016126e0576040516331a9108f60e11b8152600481018390526001600160a01b03841690636352211e90602401602060405180830381865afa158015612624573d6000803e3d6000fd5b505050506040513d601f19601f820116820180604052508101906126489190612fc4565b6040516331a9108f60e11b8152600481018890526001600160a01b0391821691891690636352211e90602401602060405180830381865afa158015612691573d6000803e3d6000fd5b505050506040513d601f19601f820116820180604052508101906126b59190612fc4565b6001600160a01b0316146125d157848460405163547208b960e11b81526004016105a9929190612dd9565b60405163eb28d20b60e01b815260040160405180910390fd5b509550959350505050565b600061271285858585611905565b9050600181600381111561272857612728612f4a565b0361274657604051630b423bd560e41b815260040160405180910390fd5b600381600381111561275a5761275a612f4a565b03612778576040516356b547d360e11b815260040160405180910390fd5b600081600381111561278c5761278c612f4a565b036104f057604051630b866da560e21b815260040160405180910390fd5b60006104d582612962565b600080806127c3858561296c565b600081815260029690960160205260409095205494959350505050565b6000818152600283016020526040812054801580156128065750612804848461291c565b155b156104d25760405163015ab34360e11b8152600481018490526024016105a9565b6000828152600284016020526040812082905561039d8484612978565b600061284e610afa565b54600160401b900460ff16919050565b6060816000018054806020026020016040519081016040528092919081815260200182805480156128ae57602002820191906000526020600020905b81548152602001906001019080831161289a575b50505050509050919050565b60009081526001919091016020526040902054151590565b60006128de83836128ba565b612914575081546001818101845560008481526020808220909301849055845484825282860190935260409020919091556104d5565b5060006104d5565b60006104d28383612984565b60008181526002830160205260408120548190806129575761294a858561291c565b9250600091506107179050565b600192509050610717565b60006104d5825490565b60006104d28383612990565b60006104d283836128d2565b60006104d283836128ba565b60008260000182815481106129a7576129a7613022565b9060005260206000200154905092915050565b6001600160a01b038116811461076f57600080fd5b6000806000606084860312156129e457600080fd5b83356129ef816129ba565b9250602084013591506040840135612a06816129ba565b809150509250925092565b634e487b7160e01b600052604160045260246000fd5b604051601f8201601f191681016001600160401b0381118282101715612a4f57612a4f612a11565b604052919050565b60008060008060808587031215612a6d57600080fd5b8435612a78816129ba565b9350602085810135612a89816129ba565b93506040860135925060608601356001600160401b0380821115612aac57600080fd5b818801915088601f830112612ac057600080fd5b813581811115612ad257612ad2612a11565b612ae4601f8201601f19168501612a27565b91508082528984828501011115612afa57600080fd5b808484018584013760008482840101525080935050505092959194509250565b600060208284031215612b2c57600080fd5b81356104d2816129ba565b60008060408385031215612b4a57600080fd5b8235612b55816129ba565b946020939093013593505050565b60008151808452602080850194506020840160005b83811015612b9d5781516001600160a01b031687529582019590820190600101612b78565b509495945050505050565b6020815260006104d26020830184612b63565b60006001600160401b03821115612bd457612bd4612a11565b5060051b60200190565b600082601f830112612bef57600080fd5b81356020612c04612bff83612bbb565b612a27565b8083825260208201915060208460051b870101935086841115612c2657600080fd5b602086015b84811015612c4b578035612c3e816129ba565b8352918301918301612c2b565b509695505050505050565b600082601f830112612c6757600080fd5b81356020612c77612bff83612bbb565b8083825260208201915060208460051b870101935086841115612c9957600080fd5b602086015b84811015612c4b5780358352918301918301612c9e565b600080600080600060a08688031215612ccd57600080fd5b8535612cd8816129ba565b94506020860135935060408601356001600160401b0380821115612cfb57600080fd5b612d0789838a01612bde565b94506060880135915080821115612d1d57600080fd5b50612d2a88828901612c56565b95989497509295608001359392505050565b60008151808452602080850194506020840160005b83811015612b9d57815187529582019590820190600101612d51565b606081526000612d806060830186612d3c565b82810360208481019190915285518083528682019282019060005b81811015612db9578451151583529383019391830191600101612d9b565b50508481036040860152612dcd8187612d3c565b98975050505050505050565b6001600160a01b03929092168252602082015260400190565b60006020808352835180602085015260005b81811015612e2057858101830151858201604001528201612e04565b506000604082860101526040601f19601f8301168501019250505092915050565b600060208284031215612e5357600080fd5b5035919050565b6001600160a01b0391909116815260200190565b60008060008060808587031215612e8457600080fd5b8435612e8f816129ba565b9350602085013592506040850135612ea6816129ba565b9396929550929360600135925050565b600080600080600060a08688031215612ece57600080fd5b8535612ed9816129ba565b94506020860135935060408601356001600160401b0380821115612efc57600080fd5b612f0889838a01612bde565b94506060880135915080821115612f1e57600080fd5b50612f2b88828901612c56565b9250506080860135612f3c816129ba565b809150509295509295909350565b634e487b7160e01b600052602160045260246000fd5b6020810160048310612f8257634e487b7160e01b600052602160045260246000fd5b91905290565b634e487b7160e01b600052601160045260246000fd5b818103818111156104d5576104d5612f88565b808201808211156104d5576104d5612f88565b600060208284031215612fd657600080fd5b81516104d2816129ba565b600081612ff057612ff0612f88565b506000190190565b6001600160a01b039485168152602081019390935292166040820152606081019190915260800190565b634e487b7160e01b600052603260045260246000fd5b6001600160a01b039390931683526020830191909152604082015260600190565b60006020828403121561306b57600080fd5b815160ff811681146104d257600080fd5b6001600160a01b039384168152919092166020820152604081019190915260600190565b60018060a01b03851681528360208201526080604082015260006130c76080830185612b63565b82810360608401526130d98185612d3c565b979650505050505050565b6000602082840312156130f657600080fd5b815180151581146104d257600080fd5b6000806040838503121561311957600080fd5b8251613124816129ba565b602093909301519294929350505056fe22573091f17911fb166032a3d9e0554aa73d31b7b7ddea4a4dd2995650af84bda264697066735822122064d6c6e22c121550652aba08952c24f70eec30734b410c854d1e533b878b185c64736f6c63430008170033",
  "devdoc": {
    "errors": {
      "EnumerableMapNonexistentKey(bytes32)": [
        {
          "details": "Query for a nonexistent map key."
        }
      ],
      "InvalidInitialization()": [
        {
          "details": "The contract is already initialized."
        }
      ],
      "NotInitializing()": [
        {
          "details": "The contract is not initializing."
        }
      ]
    },
    "events": {
      "Initialized(uint64)": {
        "details": "Triggered when the contract has been initialized or reinitialized."
      }
    },
    "kind": "dev",
    "methods": {
      "created()": {
        "returns": {
          "_0": "Creation timestamp"
        }
      },
      "createdBlock()": {
        "returns": {
          "_0": "Creation block number"
        }
      },
      "increaseRevision(address)": {
        "details": "Revision should be increased on each contract upgrade"
      },
      "isController(address)": {
        "details": "Return true if given address is controller"
      },
      "previousImplementation()": {
        "details": "Previous logic implementation"
      },
      "registerItems(address,uint256,address[],uint256[],uint256)": {
        "params": {
          "countValidItems": "Count of valid items in {items} and {itemIds}, it should be <= items.length"
        }
      },
      "revision()": {
        "details": "Contract upgrade counter"
      },
      "transferToHero(address,uint256,address,uint256)": {
        "params": {
          "itemId": "The item must belong to the hero OR to the different hero of the same owner"
        }
      }
    },
    "stateVariables": {
      "VERSION": {
        "details": "Should be incremented when contract changed"
      }
    },
    "version": 1
  },
  "userdoc": {
    "kind": "user",
    "methods": {
      "CONTROLLABLE_VERSION()": {
        "notice": "Version of the contract"
      },
      "VERSION()": {
        "notice": "Version of the contract"
      },
      "controller()": {
        "notice": "Return controller address saved in the contract slot"
      },
      "created()": {
        "notice": "Return creation timestamp"
      },
      "createdBlock()": {
        "notice": "Return creation block number"
      },
      "isGovernance(address)": {
        "notice": "Return true if given address is setup as governance in Controller"
      },
      "transferToHero(address,uint256,address,uint256)": {
        "notice": "Transfer given {item} to the given {hero}."
      },
      "withdrawActiveItems(address,uint256,address[],uint256[],address)": {
        "notice": "Transfer given items from ItemBox to the hero owner Use {getHeroItemByIndex} and check {toWithdraw} to detect what items can be withdrawn"
      }
    },
    "version": 1
  },
  "storageLayout": {
    "storage": [],
    "types": null
  }
}