{
  "address": "0x89e38267340a574c3c01C3B641032F3d8eB738d3",
  "abi": [
    {
      "inputs": [],
      "name": "AlreadyStaked",
      "type": "error"
    },
    {
      "inputs": [
        {
          "internalType": "address",
          "name": "heroToken",
          "type": "address"
        },
        {
          "internalType": "uint256",
          "name": "heroTokenId",
          "type": "uint256"
        }
      ],
      "name": "ErrorHeroIsDead",
      "type": "error"
    },
    {
      "inputs": [
        {
          "internalType": "address",
          "name": "heroToken",
          "type": "address"
        }
      ],
      "name": "ErrorHeroIsNotRegistered",
      "type": "error"
    },
    {
      "inputs": [
        {
          "internalType": "address",
          "name": "sender",
          "type": "address"
        }
      ],
      "name": "ErrorNotDeployer",
      "type": "error"
    },
    {
      "inputs": [
        {
          "internalType": "address",
          "name": "sender",
          "type": "address"
        }
      ],
      "name": "ErrorNotDungeonFactory",
      "type": "error"
    },
    {
      "inputs": [
        {
          "internalType": "address",
          "name": "sender",
          "type": "address"
        }
      ],
      "name": "ErrorNotHeroController",
      "type": "error"
    },
    {
      "inputs": [
        {
          "internalType": "address",
          "name": "token",
          "type": "address"
        },
        {
          "internalType": "uint256",
          "name": "tokenId",
          "type": "uint256"
        }
      ],
      "name": "ErrorNotOwner",
      "type": "error"
    },
    {
      "inputs": [],
      "name": "ErrorOnlyEoa",
      "type": "error"
    },
    {
      "inputs": [],
      "name": "ErrorPaused",
      "type": "error"
    },
    {
      "inputs": [],
      "name": "GuildHasNoShelter",
      "type": "error"
    },
    {
      "inputs": [
        {
          "internalType": "uint256",
          "name": "guildId",
          "type": "uint256"
        },
        {
          "internalType": "address",
          "name": "helper",
          "type": "address"
        },
        {
          "internalType": "uint256",
          "name": "helperId",
          "type": "uint256"
        }
      ],
      "name": "GuildHelperNotAvailable",
      "type": "error"
    },
    {
      "inputs": [],
      "name": "GuildReinforcementCooldownPeriod",
      "type": "error"
    },
    {
      "inputs": [],
      "name": "HelperNotAvailableInGivenBiome",
      "type": "error"
    },
    {
      "inputs": [],
      "name": "HeroInDungeon",
      "type": "error"
    },
    {
      "inputs": [],
      "name": "InvalidInitialization",
      "type": "error"
    },
    {
      "inputs": [],
      "name": "NotBusyGuildHelper",
      "type": "error"
    },
    {
      "inputs": [],
      "name": "NotGuildMember",
      "type": "error"
    },
    {
      "inputs": [],
      "name": "NotInitializing",
      "type": "error"
    },
    {
      "inputs": [],
      "name": "NotStaked",
      "type": "error"
    },
    {
      "inputs": [],
      "name": "NotStakedInGuild",
      "type": "error"
    },
    {
      "inputs": [],
      "name": "PvpStaked",
      "type": "error"
    },
    {
      "inputs": [],
      "name": "SandboxModeNotAllowed",
      "type": "error"
    },
    {
      "inputs": [],
      "name": "ShelterHasNotEnoughLevelForReinforcement",
      "type": "error"
    },
    {
      "inputs": [],
      "name": "StakeHeroNotStats",
      "type": "error"
    },
    {
      "inputs": [
        {
          "internalType": "uint256",
          "name": "value",
          "type": "uint256"
        }
      ],
      "name": "TooHighValue",
      "type": "error"
    },
    {
      "inputs": [],
      "name": "ZeroAmount",
      "type": "error"
    },
    {
      "anonymous": false,
      "inputs": [
        {
          "indexed": false,
          "internalType": "address",
          "name": "heroToken",
          "type": "address"
        },
        {
          "indexed": false,
          "internalType": "uint256",
          "name": "heroId",
          "type": "uint256"
        },
        {
          "indexed": false,
          "internalType": "address",
          "name": "item",
          "type": "address"
        },
        {
          "indexed": false,
          "internalType": "uint256",
          "name": "itemId",
          "type": "uint256"
        },
        {
          "indexed": false,
          "internalType": "address",
          "name": "recipient",
          "type": "address"
        }
      ],
      "name": "ClaimedItem",
      "type": "event"
    },
    {
      "anonymous": false,
      "inputs": [
        {
          "indexed": false,
          "internalType": "address",
          "name": "heroToken",
          "type": "address"
        },
        {
          "indexed": false,
          "internalType": "uint256",
          "name": "heroId",
          "type": "uint256"
        },
        {
          "indexed": false,
          "internalType": "address",
          "name": "token",
          "type": "address"
        },
        {
          "indexed": false,
          "internalType": "uint256",
          "name": "amount",
          "type": "uint256"
        },
        {
          "indexed": false,
          "internalType": "address",
          "name": "recipient",
          "type": "address"
        }
      ],
      "name": "ClaimedToken",
      "type": "event"
    },
    {
      "anonymous": false,
      "inputs": [
        {
          "indexed": false,
          "internalType": "address",
          "name": "controller",
          "type": "address"
        },
        {
          "indexed": false,
          "internalType": "uint256",
          "name": "ts",
          "type": "uint256"
        },
        {
          "indexed": false,
          "internalType": "uint256",
          "name": "block",
          "type": "uint256"
        }
      ],
      "name": "ContractInitialized",
      "type": "event"
    },
    {
      "anonymous": false,
      "inputs": [
        {
          "indexed": false,
          "internalType": "address",
          "name": "heroToken",
          "type": "address"
        },
        {
          "indexed": false,
          "internalType": "uint256",
          "name": "heroId",
          "type": "uint256"
        },
        {
          "indexed": false,
          "internalType": "uint256",
          "name": "guildId",
          "type": "uint256"
        },
        {
          "indexed": false,
          "internalType": "address",
          "name": "user",
          "type": "address"
        }
      ],
      "name": "GuildHeroAsked",
      "type": "event"
    },
    {
      "anonymous": false,
      "inputs": [
        {
          "indexed": false,
          "internalType": "address",
          "name": "heroToken",
          "type": "address"
        },
        {
          "indexed": false,
          "internalType": "uint256",
          "name": "heroId",
          "type": "uint256"
        },
        {
          "indexed": false,
          "internalType": "uint256",
          "name": "guildId",
          "type": "uint256"
        },
        {
          "indexed": false,
          "internalType": "address",
          "name": "user",
          "type": "address"
        }
      ],
      "name": "GuildHeroReleased",
      "type": "event"
    },
    {
      "anonymous": false,
      "inputs": [
        {
          "indexed": false,
          "internalType": "address",
          "name": "heroToken",
          "type": "address"
        },
        {
          "indexed": false,
          "internalType": "uint256",
          "name": "heroId",
          "type": "uint256"
        },
        {
          "indexed": false,
          "internalType": "uint256",
          "name": "guildId",
          "type": "uint256"
        }
      ],
      "name": "GuildHeroStaked",
      "type": "event"
    },
    {
      "anonymous": false,
      "inputs": [
        {
          "indexed": false,
          "internalType": "address",
          "name": "heroToken",
          "type": "address"
        },
        {
          "indexed": false,
          "internalType": "uint256",
          "name": "heroId",
          "type": "uint256"
        },
        {
          "indexed": false,
          "internalType": "uint256",
          "name": "guildId",
          "type": "uint256"
        }
      ],
      "name": "GuildHeroWithdrawn",
      "type": "event"
    },
    {
      "anonymous": false,
      "inputs": [
        {
          "indexed": false,
          "internalType": "address",
          "name": "heroToken",
          "type": "address"
        },
        {
          "indexed": false,
          "internalType": "uint256",
          "name": "heroId",
          "type": "uint256"
        },
        {
          "indexed": false,
          "internalType": "address",
          "name": "token",
          "type": "address"
        },
        {
          "indexed": false,
          "internalType": "uint256",
          "name": "id",
          "type": "uint256"
        },
        {
          "indexed": false,
          "internalType": "uint256",
          "name": "guildId",
          "type": "uint256"
        },
        {
          "indexed": false,
          "internalType": "uint64",
          "name": "dungeonId",
          "type": "uint64"
        }
      ],
      "name": "GuildNftRewardRegistered",
      "type": "event"
    },
    {
      "anonymous": false,
      "inputs": [
        {
          "indexed": false,
          "internalType": "address",
          "name": "heroToken",
          "type": "address"
        },
        {
          "indexed": false,
          "internalType": "uint256",
          "name": "heroId",
          "type": "uint256"
        },
        {
          "indexed": false,
          "internalType": "address",
          "name": "token",
          "type": "address"
        },
        {
          "indexed": false,
          "internalType": "uint256",
          "name": "amountAdded",
          "type": "uint256"
        },
        {
          "indexed": false,
          "internalType": "uint256",
          "name": "guildId",
          "type": "uint256"
        },
        {
          "indexed": false,
          "internalType": "uint64",
          "name": "dungeonId",
          "type": "uint64"
        }
      ],
      "name": "GuildTokenRewardRegistered",
      "type": "event"
    },
    {
      "anonymous": false,
      "inputs": [
        {
          "indexed": false,
          "internalType": "address",
          "name": "heroToken",
          "type": "address"
        },
        {
          "indexed": false,
          "internalType": "uint256",
          "name": "heroId",
          "type": "uint256"
        },
        {
          "indexed": false,
          "internalType": "uint256",
          "name": "hitsLast24h",
          "type": "uint256"
        },
        {
          "indexed": false,
          "internalType": "uint256",
          "name": "fixedFee",
          "type": "uint256"
        },
        {
          "indexed": false,
          "internalType": "uint256",
          "name": "helperRewardAmount",
          "type": "uint256"
        }
      ],
      "name": "HeroAskV2",
      "type": "event"
    },
    {
      "anonymous": false,
      "inputs": [
        {
          "indexed": false,
          "internalType": "address",
          "name": "heroToken",
          "type": "address"
        },
        {
          "indexed": false,
          "internalType": "uint256",
          "name": "heroId",
          "type": "uint256"
        },
        {
          "indexed": false,
          "internalType": "uint256",
          "name": "biome",
          "type": "uint256"
        },
        {
          "indexed": false,
          "internalType": "uint256",
          "name": "rewardAmount",
          "type": "uint256"
        }
      ],
      "name": "HeroStakedV2",
      "type": "event"
    },
    {
      "anonymous": false,
      "inputs": [
        {
          "indexed": false,
          "internalType": "address",
          "name": "heroToken",
          "type": "address"
        },
        {
          "indexed": false,
          "internalType": "uint256",
          "name": "heroId",
          "type": "uint256"
        }
      ],
      "name": "HeroWithdraw",
      "type": "event"
    },
    {
      "anonymous": false,
      "inputs": [
        {
          "indexed": false,
          "internalType": "uint64",
          "name": "version",
          "type": "uint64"
        }
      ],
      "name": "Initialized",
      "type": "event"
    },
    {
      "anonymous": false,
      "inputs": [
        {
          "indexed": false,
          "internalType": "address",
          "name": "heroToken",
          "type": "address"
        },
        {
          "indexed": false,
          "internalType": "uint256",
          "name": "heroId",
          "type": "uint256"
        },
        {
          "indexed": false,
          "internalType": "address",
          "name": "token",
          "type": "address"
        },
        {
          "indexed": false,
          "internalType": "uint256",
          "name": "id",
          "type": "uint256"
        }
      ],
      "name": "NftRewardRegistered",
      "type": "event"
    },
    {
      "anonymous": false,
      "inputs": [
        {
          "indexed": false,
          "internalType": "uint256",
          "name": "value",
          "type": "uint256"
        },
        {
          "indexed": false,
          "internalType": "address",
          "name": "oldLogic",
          "type": "address"
        }
      ],
      "name": "RevisionIncreased",
      "type": "event"
    },
    {
      "anonymous": false,
      "inputs": [
        {
          "indexed": false,
          "internalType": "address",
          "name": "heroToken",
          "type": "address"
        },
        {
          "indexed": false,
          "internalType": "uint256",
          "name": "heroId",
          "type": "uint256"
        },
        {
          "indexed": false,
          "internalType": "address",
          "name": "token",
          "type": "address"
        },
        {
          "indexed": false,
          "internalType": "uint256",
          "name": "amountAdded",
          "type": "uint256"
        },
        {
          "indexed": false,
          "internalType": "uint256",
          "name": "totalAmount",
          "type": "uint256"
        }
      ],
      "name": "TokenRewardRegistered",
      "type": "event"
    },
    {
      "inputs": [],
      "name": "CONTROLLABLE_VERSION",
      "outputs": [
        {
          "internalType": "string",
          "name": "",
          "type": "string"
        }
      ],
      "stateMutability": "view",
      "type": "function"
    },
    {
      "inputs": [],
      "name": "VERSION",
      "outputs": [
        {
          "internalType": "string",
          "name": "",
          "type": "string"
        }
      ],
      "stateMutability": "view",
      "type": "function"
    },
    {
      "inputs": [
        {
          "internalType": "address",
          "name": "hero",
          "type": "address"
        },
        {
          "internalType": "uint256",
          "name": "heroId",
          "type": "uint256"
        },
        {
          "internalType": "address",
          "name": "helper",
          "type": "address"
        },
        {
          "internalType": "uint256",
          "name": "helperId",
          "type": "uint256"
        }
      ],
      "name": "askGuildHero",
      "outputs": [
        {
          "internalType": "int32[]",
          "name": "attributes",
          "type": "int32[]"
        }
      ],
      "stateMutability": "nonpayable",
      "type": "function"
    },
    {
      "inputs": [
        {
          "internalType": "address",
          "name": "hero",
          "type": "address"
        },
        {
          "internalType": "uint256",
          "name": "heroId",
          "type": "uint256"
        },
        {
          "internalType": "address",
          "name": "helper",
          "type": "address"
        },
        {
          "internalType": "uint256",
          "name": "helperId",
          "type": "uint256"
        }
      ],
      "name": "askHeroV2",
      "outputs": [
        {
          "internalType": "int32[]",
          "name": "attributes",
          "type": "int32[]"
        }
      ],
      "stateMutability": "nonpayable",
      "type": "function"
    },
    {
      "inputs": [
        {
          "internalType": "address",
          "name": "heroToken",
          "type": "address"
        },
        {
          "internalType": "uint256",
          "name": "heroId",
          "type": "uint256"
        }
      ],
      "name": "busyGuildHelperOf",
      "outputs": [
        {
          "internalType": "uint256",
          "name": "guildId",
          "type": "uint256"
        }
      ],
      "stateMutability": "view",
      "type": "function"
    },
    {
      "inputs": [
        {
          "internalType": "address",
          "name": "heroToken",
          "type": "address"
        },
        {
          "internalType": "uint256",
          "name": "heroId",
          "type": "uint256"
        }
      ],
      "name": "claimAll",
      "outputs": [],
      "stateMutability": "nonpayable",
      "type": "function"
    },
    {
      "inputs": [
        {
          "internalType": "address",
          "name": "heroToken",
          "type": "address"
        },
        {
          "internalType": "uint256",
          "name": "heroId",
          "type": "uint256"
        },
        {
          "internalType": "uint256",
          "name": "countNft",
          "type": "uint256"
        }
      ],
      "name": "claimNft",
      "outputs": [],
      "stateMutability": "nonpayable",
      "type": "function"
    },
    {
      "inputs": [],
      "name": "controller",
      "outputs": [
        {
          "internalType": "address",
          "name": "",
          "type": "address"
        }
      ],
      "stateMutability": "view",
      "type": "function"
    },
    {
      "inputs": [],
      "name": "created",
      "outputs": [
        {
          "internalType": "uint256",
          "name": "",
          "type": "uint256"
        }
      ],
      "stateMutability": "view",
      "type": "function"
    },
    {
      "inputs": [],
      "name": "createdBlock",
      "outputs": [
        {
          "internalType": "uint256",
          "name": "",
          "type": "uint256"
        }
      ],
      "stateMutability": "view",
      "type": "function"
    },
    {
      "inputs": [
        {
          "internalType": "address",
          "name": "heroToken",
          "type": "address"
        },
        {
          "internalType": "uint256",
          "name": "heroId",
          "type": "uint256"
        }
      ],
      "name": "earned",
      "outputs": [
        {
          "internalType": "address[]",
          "name": "tokens",
          "type": "address[]"
        },
        {
          "internalType": "uint256[]",
          "name": "amounts",
          "type": "uint256[]"
        },
        {
          "internalType": "address[]",
          "name": "nfts",
          "type": "address[]"
        },
        {
          "internalType": "uint256[]",
          "name": "ids",
          "type": "uint256[]"
        }
      ],
      "stateMutability": "view",
      "type": "function"
    },
    {
      "inputs": [],
      "name": "getConfigV2",
      "outputs": [
        {
          "internalType": "uint32",
          "name": "minNumberHits",
          "type": "uint32"
        },
        {
          "internalType": "uint32",
          "name": "maxNumberHits",
          "type": "uint32"
        },
        {
          "internalType": "uint32",
          "name": "lowDivider",
          "type": "uint32"
        },
        {
          "internalType": "uint32",
          "name": "highDivider",
          "type": "uint32"
        },
        {
          "internalType": "uint8",
          "name": "limitLevel",
          "type": "uint8"
        }
      ],
      "stateMutability": "view",
      "type": "function"
    },
    {
      "inputs": [
        {
          "internalType": "uint256",
          "name": "hitsLast24h",
          "type": "uint256"
        },
        {
          "internalType": "uint8",
          "name": "biome",
          "type": "uint8"
        },
        {
          "internalType": "uint8",
          "name": "ngLevel",
          "type": "uint8"
        }
      ],
      "name": "getFeeAmount",
      "outputs": [
        {
          "internalType": "uint256",
          "name": "feeAmount",
          "type": "uint256"
        }
      ],
      "stateMutability": "view",
      "type": "function"
    },
    {
      "inputs": [
        {
          "internalType": "uint8",
          "name": "biome",
          "type": "uint8"
        }
      ],
      "name": "getHitsNumberPerLast24Hours",
      "outputs": [
        {
          "internalType": "uint256",
          "name": "hitsLast24h",
          "type": "uint256"
        }
      ],
      "stateMutability": "view",
      "type": "function"
    },
    {
      "inputs": [
        {
          "internalType": "uint8",
          "name": "biome",
          "type": "uint8"
        }
      ],
      "name": "getLastWindowsV2",
      "outputs": [
        {
          "components": [
            {
              "internalType": "uint24[8]",
              "name": "baskets",
              "type": "uint24[8]"
            },
            {
              "internalType": "uint24",
              "name": "basketValue",
              "type": "uint24"
            },
            {
              "internalType": "uint48",
              "name": "basketIndex",
              "type": "uint48"
            }
          ],
          "internalType": "struct IReinforcementController.LastWindowsV2",
          "name": "",
          "type": "tuple"
        }
      ],
      "stateMutability": "view",
      "type": "function"
    },
    {
      "inputs": [
        {
          "internalType": "address",
          "name": "heroToken",
          "type": "address"
        },
        {
          "internalType": "uint256",
          "name": "heroId",
          "type": "uint256"
        }
      ],
      "name": "getStakedGuild",
      "outputs": [
        {
          "internalType": "uint256",
          "name": "",
          "type": "uint256"
        }
      ],
      "stateMutability": "view",
      "type": "function"
    },
    {
      "inputs": [
        {
          "internalType": "address",
          "name": "heroToken",
          "type": "address"
        },
        {
          "internalType": "uint256",
          "name": "heroId",
          "type": "uint256"
        }
      ],
      "name": "heroInfo",
      "outputs": [
        {
          "components": [
            {
              "internalType": "uint8",
              "name": "biome",
              "type": "uint8"
            },
            {
              "internalType": "uint256",
              "name": "score",
              "type": "uint256"
            },
            {
              "internalType": "uint8",
              "name": "fee",
              "type": "uint8"
            },
            {
              "internalType": "uint64",
              "name": "stakeTs",
              "type": "uint64"
            }
          ],
          "internalType": "struct IReinforcementController.HeroInfo",
          "name": "",
          "type": "tuple"
        }
      ],
      "stateMutability": "view",
      "type": "function"
    },
    {
      "inputs": [
        {
          "internalType": "address",
          "name": "heroToken",
          "type": "address"
        },
        {
          "internalType": "uint256",
          "name": "heroId",
          "type": "uint256"
        }
      ],
      "name": "heroInfoV2",
      "outputs": [
        {
          "components": [
            {
              "internalType": "uint8",
              "name": "biome",
              "type": "uint8"
            },
            {
              "internalType": "uint64",
              "name": "stakeTs",
              "type": "uint64"
            },
            {
              "internalType": "uint128",
              "name": "rewardAmount",
              "type": "uint128"
            }
          ],
          "internalType": "struct IReinforcementController.HeroInfoV2",
          "name": "",
          "type": "tuple"
        }
      ],
      "stateMutability": "view",
      "type": "function"
    },
    {
      "inputs": [
        {
          "internalType": "uint8",
          "name": "biome",
          "type": "uint8"
        }
      ],
      "name": "heroesByBiomeV2",
      "outputs": [
        {
          "internalType": "address[]",
          "name": "helpers",
          "type": "address[]"
        },
        {
          "internalType": "uint256[]",
          "name": "helperIds",
          "type": "uint256[]"
        }
      ],
      "stateMutability": "view",
      "type": "function"
    },
    {
      "inputs": [
        {
          "internalType": "uint8",
          "name": "biome",
          "type": "uint8"
        },
        {
          "internalType": "uint256",
          "name": "index",
          "type": "uint256"
        }
      ],
      "name": "heroesByBiomeV2ByIndex",
      "outputs": [
        {
          "internalType": "address",
          "name": "helper",
          "type": "address"
        },
        {
          "internalType": "uint256",
          "name": "helperId",
          "type": "uint256"
        }
      ],
      "stateMutability": "view",
      "type": "function"
    },
    {
      "inputs": [
        {
          "internalType": "uint8",
          "name": "biome",
          "type": "uint8"
        }
      ],
      "name": "heroesByBiomeV2Length",
      "outputs": [
        {
          "internalType": "uint256",
          "name": "",
          "type": "uint256"
        }
      ],
      "stateMutability": "view",
      "type": "function"
    },
    {
      "inputs": [
        {
          "internalType": "address",
          "name": "oldLogic",
          "type": "address"
        }
      ],
      "name": "increaseRevision",
      "outputs": [],
      "stateMutability": "nonpayable",
      "type": "function"
    },
    {
      "inputs": [
        {
          "internalType": "address",
          "name": "controller_",
          "type": "address"
        }
      ],
      "name": "init",
      "outputs": [],
      "stateMutability": "nonpayable",
      "type": "function"
    },
    {
      "inputs": [
        {
          "internalType": "address",
          "name": "value_",
          "type": "address"
        }
      ],
      "name": "isController",
      "outputs": [
        {
          "internalType": "bool",
          "name": "",
          "type": "bool"
        }
      ],
      "stateMutability": "view",
      "type": "function"
    },
    {
      "inputs": [
        {
          "internalType": "address",
          "name": "value_",
          "type": "address"
        }
      ],
      "name": "isGovernance",
      "outputs": [
        {
          "internalType": "bool",
          "name": "",
          "type": "bool"
        }
      ],
      "stateMutability": "view",
      "type": "function"
    },
    {
      "inputs": [
        {
          "internalType": "address",
          "name": "heroToken",
          "type": "address"
        },
        {
          "internalType": "uint256",
          "name": "heroId",
          "type": "uint256"
        }
      ],
      "name": "isStaked",
      "outputs": [
        {
          "internalType": "bool",
          "name": "",
          "type": "bool"
        }
      ],
      "stateMutability": "view",
      "type": "function"
    },
    {
      "inputs": [
        {
          "internalType": "address",
          "name": "heroToken",
          "type": "address"
        },
        {
          "internalType": "uint256",
          "name": "heroId",
          "type": "uint256"
        }
      ],
      "name": "isStakedV1",
      "outputs": [
        {
          "internalType": "bool",
          "name": "",
          "type": "bool"
        }
      ],
      "stateMutability": "view",
      "type": "function"
    },
    {
      "inputs": [
        {
          "internalType": "address",
          "name": "heroToken",
          "type": "address"
        },
        {
          "internalType": "uint256",
          "name": "heroId",
          "type": "uint256"
        }
      ],
      "name": "isStakedV2",
      "outputs": [
        {
          "internalType": "bool",
          "name": "",
          "type": "bool"
        }
      ],
      "stateMutability": "view",
      "type": "function"
    },
    {
      "inputs": [
        {
          "internalType": "address",
          "name": "forwarder",
          "type": "address"
        }
      ],
      "name": "isTrustedForwarder",
      "outputs": [
        {
          "internalType": "bool",
          "name": "",
          "type": "bool"
        }
      ],
      "stateMutability": "view",
      "type": "function"
    },
    {
      "inputs": [
        {
          "internalType": "address",
          "name": "heroToken",
          "type": "address"
        },
        {
          "internalType": "uint256",
          "name": "heroId",
          "type": "uint256"
        }
      ],
      "name": "lastGuildHeroWithdrawTs",
      "outputs": [
        {
          "internalType": "uint256",
          "name": "",
          "type": "uint256"
        }
      ],
      "stateMutability": "view",
      "type": "function"
    },
    {
      "inputs": [
        {
          "internalType": "address",
          "name": "",
          "type": "address"
        },
        {
          "internalType": "address",
          "name": "",
          "type": "address"
        },
        {
          "internalType": "uint256",
          "name": "",
          "type": "uint256"
        },
        {
          "internalType": "bytes",
          "name": "",
          "type": "bytes"
        }
      ],
      "name": "onERC721Received",
      "outputs": [
        {
          "internalType": "bytes4",
          "name": "",
          "type": "bytes4"
        }
      ],
      "stateMutability": "nonpayable",
      "type": "function"
    },
    {
      "inputs": [],
      "name": "previousImplementation",
      "outputs": [
        {
          "internalType": "address",
          "name": "",
          "type": "address"
        }
      ],
      "stateMutability": "view",
      "type": "function"
    },
    {
      "inputs": [
        {
          "internalType": "address",
          "name": "heroToken",
          "type": "address"
        },
        {
          "internalType": "uint256",
          "name": "heroId",
          "type": "uint256"
        },
        {
          "internalType": "address",
          "name": "token",
          "type": "address"
        },
        {
          "internalType": "uint256",
          "name": "tokenId",
          "type": "uint256"
        },
        {
          "internalType": "uint64",
          "name": "dungeonId",
          "type": "uint64"
        }
      ],
      "name": "registerNftReward",
      "outputs": [],
      "stateMutability": "nonpayable",
      "type": "function"
    },
    {
      "inputs": [
        {
          "internalType": "address",
          "name": "heroToken",
          "type": "address"
        },
        {
          "internalType": "uint256",
          "name": "heroId",
          "type": "uint256"
        },
        {
          "internalType": "address",
          "name": "token",
          "type": "address"
        },
        {
          "internalType": "uint256",
          "name": "amount",
          "type": "uint256"
        },
        {
          "internalType": "uint64",
          "name": "dungeonId",
          "type": "uint64"
        }
      ],
      "name": "registerTokenReward",
      "outputs": [],
      "stateMutability": "nonpayable",
      "type": "function"
    },
    {
      "inputs": [
        {
          "internalType": "address",
          "name": "helperHeroToken",
          "type": "address"
        },
        {
          "internalType": "uint256",
          "name": "helperHeroTokenId",
          "type": "uint256"
        }
      ],
      "name": "releaseGuildHero",
      "outputs": [],
      "stateMutability": "nonpayable",
      "type": "function"
    },
    {
      "inputs": [],
      "name": "revision",
      "outputs": [
        {
          "internalType": "uint256",
          "name": "",
          "type": "uint256"
        }
      ],
      "stateMutability": "view",
      "type": "function"
    },
    {
      "inputs": [
        {
          "components": [
            {
              "internalType": "uint32",
              "name": "minNumberHits",
              "type": "uint32"
            },
            {
              "internalType": "uint32",
              "name": "maxNumberHits",
              "type": "uint32"
            },
            {
              "internalType": "uint32",
              "name": "lowDivider",
              "type": "uint32"
            },
            {
              "internalType": "uint32",
              "name": "highDivider",
              "type": "uint32"
            },
            {
              "internalType": "uint8",
              "name": "levelLimit",
              "type": "uint8"
            }
          ],
          "internalType": "struct IReinforcementController.ConfigReinforcementV2",
          "name": "config",
          "type": "tuple"
        }
      ],
      "name": "setConfigV2",
      "outputs": [],
      "stateMutability": "nonpayable",
      "type": "function"
    },
    {
      "inputs": [
        {
          "internalType": "address",
          "name": "heroToken",
          "type": "address"
        },
        {
          "internalType": "uint256",
          "name": "heroId",
          "type": "uint256"
        }
      ],
      "name": "stakeGuildHero",
      "outputs": [],
      "stateMutability": "nonpayable",
      "type": "function"
    },
    {
      "inputs": [
        {
          "internalType": "address",
          "name": "heroToken",
          "type": "address"
        },
        {
          "internalType": "uint256",
          "name": "heroId",
          "type": "uint256"
        },
        {
          "internalType": "uint256",
          "name": "rewardAmount",
          "type": "uint256"
        }
      ],
      "name": "stakeHeroV2",
      "outputs": [],
      "stateMutability": "nonpayable",
      "type": "function"
    },
    {
      "inputs": [
        {
          "internalType": "uint256",
          "name": "guildId",
          "type": "uint256"
        },
        {
          "internalType": "uint256",
          "name": "index",
          "type": "uint256"
        }
      ],
      "name": "stakedGuildHelperByIndex",
      "outputs": [
        {
          "internalType": "address",
          "name": "hero",
          "type": "address"
        },
        {
          "internalType": "uint256",
          "name": "heroId",
          "type": "uint256"
        },
        {
          "internalType": "uint256",
          "name": "busyInGuildId",
          "type": "uint256"
        }
      ],
      "stateMutability": "view",
      "type": "function"
    },
    {
      "inputs": [
        {
          "internalType": "uint256",
          "name": "guildId",
          "type": "uint256"
        }
      ],
      "name": "stakedGuildHelpersLength",
      "outputs": [
        {
          "internalType": "uint256",
          "name": "",
          "type": "uint256"
        }
      ],
      "stateMutability": "view",
      "type": "function"
    },
    {
      "inputs": [
        {
          "internalType": "address",
          "name": "heroToken",
          "type": "address"
        },
        {
          "internalType": "uint256",
          "name": "heroId",
          "type": "uint256"
        }
      ],
      "name": "toHelperRatio",
      "outputs": [
        {
          "internalType": "uint256",
          "name": "",
          "type": "uint256"
        }
      ],
      "stateMutability": "view",
      "type": "function"
    },
    {
      "inputs": [
        {
          "internalType": "address",
          "name": "heroToken",
          "type": "address"
        },
        {
          "internalType": "uint256",
          "name": "heroId",
          "type": "uint256"
        }
      ],
      "name": "withdrawGuildHero",
      "outputs": [],
      "stateMutability": "nonpayable",
      "type": "function"
    },
    {
      "inputs": [
        {
          "internalType": "address",
          "name": "heroToken",
          "type": "address"
        },
        {
          "internalType": "uint256",
          "name": "heroId",
          "type": "uint256"
        }
      ],
      "name": "withdrawHero",
      "outputs": [],
      "stateMutability": "nonpayable",
      "type": "function"
    },
    {
      "inputs": [
        {
          "internalType": "address",
          "name": "heroToken",
          "type": "address"
        },
        {
          "internalType": "uint256",
          "name": "heroId",
          "type": "uint256"
        }
      ],
      "name": "withdrawHeroV2",
      "outputs": [],
      "stateMutability": "nonpayable",
      "type": "function"
    }
  ],
  "transactionHash": "0xfd7d6df9e0c79fa2d033afc6f225b81c24d569edb6e6a381a548e3cba8db8e7a",
  "args": [],
  "numDeployments": 14,
  "solcInputHash": "5bf49bc431fa59b17b06db41a166ea67",
  "bytecode": "0x60806040523480156200001157600080fd5b507ff0c57e16840df040f15088dc2f81fe391c3923bec73e23a9662efc9c229c6a00805468010000000000000000810460ff1615906001600160401b03166000811580156200005d5750825b90506000826001600160401b031660011480156200007a5750303b155b90508115801562000089575080155b15620000a85760405163f92ee8a960e01b815260040160405180910390fd5b84546001600160401b03191660011785558315620000d757845460ff60401b1916680100000000000000001785555b83156200011e57845460ff60401b19168555604051600181527fc7f505b2f371ae2175ee4913f4499e1f2633a7b5936321eed1cdaeb6115181d29060200160405180910390a15b50505050506156e880620001336000396000f3fe608060405234801561001057600080fd5b506004361061023f5760003560e01c8063756db3e71161013c578063ba2386ec116100be578063ba2386ec146105d6578063bb98ca32146105f7578063c1b5d13014610618578063c78f839d1461062b578063ce1da0cb1461063e578063ce6b137214610651578063d080f5e314610673578063dc5137ab14610686578063dee1f0e414610699578063f77c4791146106ac578063fe7ad3a7146106b4578063ffa1ad74146106c757600080fd5b8063756db3e71461048a5780637bcdeb201461049d5780637cc96380146104b0578063936725ec146104b85780639a839877146104e95780639d0bcca0146104fc578063a69ceaf014610511578063a815a1f814610553578063ab1761b61461059d578063aeade66d146105b0578063b429afeb146105c357600080fd5b80634e52ad12116101c55780634e52ad12146103ac5780634fac6ccd146103bf5780635451da1b146103d2578063572b6c05146103e55780635c8d6386146103f85780635cf20c7b1461040b578063600c66731461041e578063622dde3d1461043e57806368c45eca146104515780636bff61e7146104645780636f58e1691461047757600080fd5b8063150b7a021461024457806319ab453c146102805780631babdb79146102955780632e322a9c146102a8578063325a19f11461030257806332aa45c8146103185780633571da2d1461032b5780633e491d471461033e5780634040991914610361578063442b6cdd146103845780634593144c146103a4575b600080fd5b610262610252366004614c1b565b630a85bd0160e11b949350505050565b6040516001600160e01b031990911681526020015b60405180910390f35b61029361028e366004614cc9565b6106eb565b005b6102936102a3366004614ce6565b6107e5565b6102bb6102b6366004614ce6565b61080b565b6040516102779190600060808201905060ff83511682526020830151602083015260ff60408401511660408301526001600160401b03606084015116606083015292915050565b61030a610826565b604051908152602001610277565b61030a610326366004614ce6565b61085f565b610293610339366004614d12565b61086b565b61035161034c366004614ce6565b610893565b6040516102779493929190614dbd565b61037461036f366004614ce6565b6108b3565b6040519015158152602001610277565b610397610392366004614e24565b6108bf565b6040516102779190614e41565b61030a6108d0565b61030a6103ba366004614e24565b610900565b6102936103cd366004614cc9565b61090b565b6103746103e0366004614ce6565b610a1c565b6103746103f3366004614cc9565b610a28565b610293610406366004614eb1565b610a9d565b610293610419366004614ce6565b610ab9565b61043161042c366004614f10565b610adb565b6040516102779190614f58565b61029361044c366004614ce6565b610afa565b61043161045f366004614f10565b610b1c565b610374610472366004614ce6565b610b33565b61030a610485366004614f9f565b610b3f565b61030a610498366004614ce6565b610b4a565b6102936104ab366004614d12565b610b56565b61030a610b79565b6104dc604051806040016040528060058152602001640312e302e360dc1b81525081565b6040516102779190614fdc565b61030a6104f7366004614e24565b610b97565b610504610ba3565b604051610277919061500f565b610519610bd3565b6040805163ffffffff9687168152948616602086015292851692840192909252909216606082015260ff909116608082015260a001610277565b610566610561366004614ce6565b610bf4565b60408051825160ff1681526020808401516001600160401b031690820152918101516001600160801b031690820152606001610277565b6102936105ab366004614eb1565b610c06565b6102936105be366004615035565b610c1b565b6103746105d1366004614cc9565b610c2f565b6105e96105e4366004614e24565b610c54565b6040516102779291906150af565b61060a6106053660046150d4565b610c69565b6040516102779291906150f2565b610293610626366004614ce6565b610c82565b61030a610639366004614ce6565b610c94565b61029361064c366004614ce6565b610ca8565b61066461065f36600461510b565b610cca565b6040516102779392919061512d565b61030a61068136600461514e565b610ce6565b610293610694366004614ce6565b610d64565b6103746106a7366004614cc9565b610d86565b610504610e0b565b61030a6106c2366004614ce6565b610e3b565b6104dc604051806040016040528060058152602001640332e302e360dc1b81525081565b60006106f5610e47565b805490915060ff600160401b82041615906001600160401b031660008115801561071c5750825b90506000826001600160401b031660011480156107385750303b155b905081158015610746575080155b156107645760405163f92ee8a960e01b815260040160405180910390fd5b845467ffffffffffffffff19166001178555831561078e57845460ff60401b1916600160401b1785555b61079786610e6b565b83156107dd57845460ff60401b19168555604051600181527fc7f505b2f371ae2175ee4913f4499e1f2633a7b5936321eed1cdaeb6115181d29060200160405180910390a15b505050505050565b6108076107f0610e7c565b6107f8610e0b565b610800610e94565b8585610eb6565b5050565b610813614a18565b61081d8383610fbe565b90505b92915050565b600061085a61085660017f6f55f470bdc9cb5f04223fd822021061668e4dccb43e8727b295106dc9769c8b6151a6565b5490565b905090565b600061081d8383610ffd565b61088e610876610e7c565b61087e610e0b565b610886610e94565b868686611036565b505050565b6060806060806108a3868661104f565b9299919850965090945092505050565b600061081d83836112cf565b6108c7614a3f565b610820826112e8565b600061085a61085660017f812a673dfca07956350df10f8a654925f561d7a0da09bdbe79e653939a14d9f16151a6565b60006108208261139d565b33301461095d5760405162461bcd60e51b815260206004820152601b60248201527a24b731b932b0b9b2903932bb34b9b4b7b7103337b93134b23232b760291b60448201526064015b60405180910390fd5b600061097b61085660016000805160206156938339815191526151a6565b6109869060016151b9565b90506109a8816109a560016000805160206156938339815191526151a6565b55565b6109d7826109a560017fbfaaa2fb63266ff27c2da975f5894955056f50419af651a81f6c5060581857e46151a6565b604080518281526001600160a01b03841660208201527ff27e2ef832a4eb8ed8ec553b875eecd44764cda95b1c24170e281539e0a869c8910160405180910390a15050565b600061081d83836113c6565b60006001600160a01b03821673d8253782c45a12053594b9deb72d8e8ab2fca54c1480610a7157506001600160a01b0382167352ceba41da235af367bfc0b0ccd3314cb901bb5f145b8061082057506001600160a01b03821673102f1f556cd9c3d5f820e6920a8931657c5da21b1492915050565b610ab2610aa8610e0b565b86868686866113f5565b5050505050565b610807610ac4610e7c565b610acc610e0b565b610ad4610e94565b858561166e565b6060610af1610ae8610e0b565b86868686611691565b95945050505050565b610807610b05610e7c565b610b0d610e0b565b610b15610e94565b85856117a9565b6060610af1610b29610e0b565b86868686426118b8565b600061081d8383611c5e565b600061082082611c6a565b600061081d8383611c8e565b61088e610b61610e7c565b610b69610e0b565b610b71610e94565b868686611cb0565b600061085a61085660016000805160206156938339815191526151a6565b60006108208242612024565b600061085a61085660017fbfaaa2fb63266ff27c2da975f5894955056f50419af651a81f6c5060581857e46151a6565b6000806000806000610be36120e5565b945094509450945094509091929394565b610bfc614a66565b61081d838361212b565b610ab2610c11610e0b565b86868686866121a7565b610c2c610c26610e0b565b826123e3565b50565b6000610c39610e0b565b6001600160a01b0316826001600160a01b0316149050919050565b606080610c6083612464565b91509150915091565b600080610c768484612593565b915091505b9250929050565b610807610c8d610e0b565b83836125cf565b600061081d610ca1610e0b565b84846126c8565b610807610cb3610e7c565b610cbb610e0b565b610cc3610e94565b85856127c1565b6000806000610cd985856128d0565b9250925092509250925092565b6000610d5c610cf3610e0b565b6001600160a01b031663c3dfdae66040518163ffffffff1660e01b8152600401602060405180830381865afa158015610d30573d6000803e3d6000fd5b505050506040513d601f19601f82011682018060405250810190610d5491906151cc565b85858561290d565b949350505050565b610807610d6f610e7c565b610d77610e0b565b610d7f610e94565b8585612b15565b6000816001600160a01b0316610d9a610e0b565b6001600160a01b0316635aa6e6756040518163ffffffff1660e01b8152600401602060405180830381865afa158015610dd7573d6000803e3d6000fd5b505050506040513d601f19601f82011682018060405250810190610dfb91906151cc565b6001600160a01b03161492915050565b600061085a61085660017f5165972ef41194f06c5007493031d0b927c20741adcb74403b954009fd2c36186151a6565b600061081d8383612c01565b7ff0c57e16840df040f15088dc2f81fe391c3923bec73e23a9662efc9c229c6a0090565b610e73612c23565b610c2c81612c4a565b6000610e8733610a28565b8061085a57505032331490565b6000610e9f33610a28565b15610eb1575060131936013560601c90565b503390565b610ec38585858585612d5d565b6000610ecd612e5d565b90506000610ee46001600160a01b03851684612e81565b6000818152600684016020526040812054919250819003610f18576040516317273b9760e11b815260040160405180910390fd5b60008281526006840160209081526040808320839055838352600886019091529020610f449083612ed1565b15610f655760008181526008840160205260409020610f639083612edd565b505b600082815260098401602052604090819020429055517f459ed80326c4c5156216d3439f237c617338905f60ef91fba12b7d9869018e6d90610fac9087908790859061512d565b60405180910390a15050505050505050565b610fc6614a18565b61081d610fd1612e5d565b6001016000610fe96001600160a01b03871686612e81565b815260200190815260200160002054612ee9565b6000611007612e5d565b600701600061101f6001600160a01b03861685612e81565b815260200190815260200160002054905092915050565b6110438686868686612f2d565b6107dd8383868461300a565b606080606080600061105f612e5d565b60050160006110776001600160a01b038a1689612e81565b815260200190815260200160002090506000611092826131b3565b9050806001600160401b038111156110ac576110ac614b86565b6040519080825280602002602001820160405280156110d5578160200160208202803683370190505b509550806001600160401b038111156110f0576110f0614b86565b604051908082528060200260200182016040528015611119578160200160208202803683370190505b50945060005b8181101561117f5761113183826131be565b888381518110611143576111436151e9565b6020026020010188848151811061115c5761115c6151e9565b60209081029190910101919091526001600160a01b03909116905260010161111f565b50600061118a612e5d565b60040160006111a26001600160a01b038c168b612e81565b81526020810191909152604001600020805492509050816001600160401b038111156111d0576111d0614b86565b6040519080825280602002602001820160405280156111f9578160200160208202803683370190505b509450816001600160401b0381111561121457611214614b86565b60405190808252806020026020018201604052801561123d578160200160208202803683370190505b50935060005b828110156112c257611274828281548110611260576112606151e9565b90600052602060002001549060a082901c90565b878381518110611286576112866151e9565b6020026020010187848151811061129f5761129f6151e9565b60209081029190910101919091526001600160a01b039091169052600101611243565b5050505092959194509250565b60006112db838361212b565b5160ff1615159392505050565b6112f0614a3f565b6112f8612e5d565b60ff83166000908152600d919091016020526040908190208151610160810190925281606081018260088282826020028201916000905b82829054906101000a900462ffffff1662ffffff168152602001906003019060208260020104928301926001038202915080841161132f575050509284525050506001919091015462ffffff811660208301526301000000900465ffffffffffff1660409091015292915050565b60006108206113aa612e5d565b600c0160008460ff1681526020019081526020016000206131da565b60006113d283836112cf565b806113e557506113e28383612c01565b15155b8061081d575061081d8383611c5e565b6113fe866131e4565b600061140a8686610ffd565b9050806000036114e557600061141e612e5d565b60050160006114366001600160a01b038a1689612e81565b81526020019081526020016000209050600061145b868361327990919063ffffffff16565b915061147590508661146d87846151b9565b849190613291565b507f489180b84bf13edb925b7af708ef969b23c416ae7162f37699365c9c199155f9888888886114a581876151b9565b604080516001600160a01b039687168152602081019590955292909416838301526060830152608082019290925290519081900360a00190a15050611665565b6000876001600160a01b03166325eb1c876040518163ffffffff1660e01b8152600401602060405180830381865afa158015611525573d6000803e3d6000fd5b505050506040513d601f19601f8201168201806040525081019061154991906151cc565b6001600160a01b031663f2e0023d836040518263ffffffff1660e01b815260040161157691815260200190565b602060405180830381865afa158015611593573d6000803e3d6000fd5b505050506040513d601f19601f820116820180604052508101906115b791906151cc565b60405163a9059cbb60e01b81529091506001600160a01b0386169063a9059cbb906115e890849088906004016150f2565b6020604051808303816000875af1158015611607573d6000803e3d6000fd5b505050506040513d601f19601f8201168201806040525081019061162b919061520f565b507fe058b1a310b685a210cfe5cdaf8a9f6c62a94379a99dad83df3ac87fa5b6e7f6878787878688604051610fac9695949392919061522a565b50505050505050565b61167b8585858585612f2d565b6116868282856132a7565b610ab2828285613470565b606061169c866135b6565b5060006116a9868661364c565b905060006116b5612e5d565b90506000806116c48a856136b8565b915091506116d282826137b0565b60006116de8888612e81565b600083815260088601602052604090209091506116fb8183612ed1565b611731576040516314e08ecd60e31b8152600481018490526001600160a01b038a16602482015260448101899052606401610954565b61173c81838561386f565b506000828152600786016020526040902083905561175b8c8a8a61387c565b96507fa9f6a928afcd91ea0ca31b487447b80f731d872c8e93c8915b70b85ccb623a7489898589604051611792949392919061526b565b60405180910390a150505050505095945050505050565b60006117b3612e5d565b90506117c28686868686612d5d565b60006117d76001600160a01b03851684612e81565b6000818152600b8401602090815260408083208151606081018352905460ff811680835261010082046001600160401b031694830194909452600160481b90046001600160801b0316918101919091529293509003611848576040516273e5c360e31b815260040160405180910390fd5b805160ff166000908152600c8401602052604090206118679083613aa1565b506000828152600b840160205260409081902080546001600160c81b0319169055517f20eeb4de14666113d3c1af96b5380282a9d983b562f22d95af267f1603f8a74090610fac90879087906150f2565b60606000806000806118cc8b8b8b89613aad565b935093509350935060006118de612e5d565b600b0160006118f66001600160a01b038c168b612e81565b815260208082019290925260409081016000208151606081018352905460ff80821680845261010083046001600160401b031695840195909552600160481b9091046001600160801b031692820192909252925085161461196a5760405163f099165f60e01b815260040160405180910390fd5b846001600160a01b03166323b872dd6119838d8d61364c565b3084604001516001600160801b03168661199d91906151b9565b6040518463ffffffff1660e01b81526004016119bb93929190615296565b6020604051808303816000875af11580156119da573d6000803e3d6000fd5b505050506040513d601f19601f820116820180604052508101906119fe919061520f565b50846001600160a01b031663a9059cbb611a188b8b61364c565b60408085015190516001600160e01b031960e085901b1681526001600160a01b0390921660048301526001600160801b031660248201526044016020604051808303816000875af1158015611a71573d6000803e3d6000fd5b505050506040513d601f19601f82011682018060405250810190611a95919061520f565b50611aa185838e613c31565b604051631e478ddf60e11b81526001600160a01b038681166004830152602482018490523060448301528d1690633c8f1bbe90606401600060405180830381600087803b158015611af157600080fd5b505af1158015611b05573d6000803e3d6000fd5b50505050611b148c8a8a61387c565b95508b6001600160a01b03166331423c266040518163ffffffff1660e01b8152600401602060405180830381865afa158015611b54573d6000803e3d6000fd5b505050506040513d601f19601f82011682018060405250810190611b7891906151cc565b604051633972500160e01b81526001600160a01b038b81166004830152602482018b905260ff87166044830152600160648301529190911690633972500190608401600060405180830381600087803b158015611bd457600080fd5b505af1158015611be8573d6000803e3d6000fd5b50505060408083015181516001600160a01b038d168152602081018c9052918201869052606082018590526001600160801b031660808201527f254e29b5a83f4954c9f1684403e89427434a2197b94f2848ef44fda3a5f28d96915060a00160405180910390a150505050509695505050505050565b60006112db8383610fbe565b6000610820611c77612e5d565b6000848152600891909101602052604090206131b3565b6000611c98612e5d565b600901600061101f6001600160a01b03861685612e81565b6000611cba612e5d565b905081600003611cdd57604051631f2a200560e01b815260040160405180910390fd5b6000611cec8888888888613d1d565b90506000876001600160a01b0316628e96916040518163ffffffff1660e01b8152600401602060405180830381865afa158015611d2d573d6000803e3d6000fd5b505050506040513d601f19601f82011682018060405250810190611d5191906151cc565b90506000826001600160a01b0316631ebd249388886040518363ffffffff1660e01b8152600401611d839291906150f2565b602060405180830381865afa158015611da0573d6000803e3d6000fd5b505050506040513d601f19601f82011682018060405250810190611dc491906152ba565b90506000611dd06120e5565b9450505050506000836001600160a01b031663d4ac48488a8a6040518363ffffffff1660e01b8152600401611e069291906150f2565b60a060405180830381865afa158015611e23573d6000803e3d6000fd5b505050506040513d601f19601f82011682018060405250810190611e4791906152d7565b905060ff821615611eb0578160ff16816000015163ffffffff16118015611e925750805160ff8085169190841690611e80908290615345565b611e8a9190615378565b63ffffffff16115b15611eb0576040516312bbf80d60e11b815260040160405180910390fd5b806080015163ffffffff16600003611edf57888860405163033aace360e41b81526004016109549291906150f2565b50611f129050611ef86001600160a01b03891688612e81565b60ff83166000908152600c870160205260409020906140e3565b506040805160608101825260ff831681526001600160401b03421660208201526001600160801b03871691810191909152600b85016000611f5c6001600160a01b038b168a612e81565b815260208082019290925260409081016000208351815485850151958401516001600160801b0316600160481b02600160481b600160c81b03196001600160401b03909716610100026001600160481b031990921660ff93841617919091179590951694909417905580516001600160a01b038b16815291820189905291831691810191909152606081018690527fc9ea6915b84c156bb0d9e09c9e50941469b6c143cb6f9740ab10cfb48c1646df906080015b60405180910390a150505050505050505050565b60008061202f612e5d565b60ff85166000908152600d919091016020526040908190208151610160810190925281606081018260088282826020028201916000905b82829054906101000a900462ffffff1662ffffff1681526020019060030190602082600201049283019260010382029150808411612066575050509284525050506001919091015462ffffff811660208301526301000000900465ffffffffffff1660409091015290506120dc836003836140ef565b50949350505050565b6000806000806000610be36120f8612e5d565b600a0160008081526020019081526020016000205460001b90602082901c90604083901c90606084901c90608085901c90565b612133614a66565b61213b612e5d565b600b0160006121536001600160a01b03861685612e81565b815260208082019290925260409081016000208151606081018352905460ff8116825261010081046001600160401b031693820193909352600160481b9092046001600160801b0316908201529392505050565b6121b0866131e4565b60006121bc8686610ffd565b905080600003612273576121ce612e5d565b60040160006121e66001600160a01b03891688612e81565b815260208101919091526040016000206122096001600160a01b03861685612e81565b815460018101835560009283526020928390200155604080516001600160a01b0389811682529281018890529186168282015260608201859052517f919406f90d972565a1723b92e77ce09436e08a13d98dcc138b0ebac4ccc793619181900360800190a1611665565b6000876001600160a01b03166325eb1c876040518163ffffffff1660e01b8152600401602060405180830381865afa1580156122b3573d6000803e3d6000fd5b505050506040513d601f19601f820116820180604052508101906122d791906151cc565b6001600160a01b031663f2e0023d836040518263ffffffff1660e01b815260040161230491815260200190565b602060405180830381865afa158015612321573d6000803e3d6000fd5b505050506040513d601f19601f8201168201806040525081019061234591906151cc565b6040516323b872dd60e01b81529091506001600160a01b038616906323b872dd9061237890309085908990600401615296565b600060405180830381600087803b15801561239257600080fd5b505af11580156123a6573d6000803e3d6000fd5b505050507fd331ae4800244fe6f7853cde70482c10930794b351be0c7da4cc70bf1b2ff12a878787878688604051610fac9695949392919061522a565b6123ec826143cc565b805160208083015160408085015160608087015160808089015163ffffffff9098169590961b67ffffffff0000000016949094179190921b63ffffffff60401b161791901b63ffffffff60601b161791901b60ff60801b161761244d612e5d565b6000808052600a9190910160205260409020555050565b6060806000612471612e5d565b60ff85166000908152600c91909101602052604081209150612492826131da565b9050806001600160401b038111156124ac576124ac614b86565b6040519080825280602002602001820160405280156124d5578160200160208202803683370190505b509350806001600160401b038111156124f0576124f0614b86565b604051908082528060200260200182016040528015612519578160200160208202803683370190505b50925060005b8181101561258b5761253d6125348483614458565b9060a082901c90565b86838151811061254f5761254f6151e9565b60200260200101868481518110612568576125686151e9565b60209081029190910101919091526001600160a01b03909116905260010161251f565b505050915091565b60008060006125c0846125a4612e5d565b60ff88166000908152600c919091016020526040902090614458565b9560a087901c95509350505050565b6125d8836135b6565b5060006125ee6001600160a01b03841683612e81565b905060006125fa612e5d565b905060006126088585614464565b60008481526007840160205260408120549192500361263a5760405163025f18e960e31b815260040160405180910390fd5b6000838152600683016020526040902054801561266e576000818152600884016020526040812061266c91869061386f565b505b600084815260078401602052604080822091909155517fff3f399b51e1741f54b71e3fb71c44ec83451521b14ebcef80a585ab57136ece906126b790889088908590879061526b565b60405180910390a150505050505050565b6000806126d58484610ffd565b905080156127b957846001600160a01b03166325eb1c876040518163ffffffff1660e01b8152600401602060405180830381865afa15801561271b573d6000803e3d6000fd5b505050506040513d601f19601f8201168201806040525081019061273f91906151cc565b6001600160a01b031663df1dd976826040518263ffffffff1660e01b815260040161276c91815260200190565b600060405180830381865afa158015612789573d6000803e3d6000fd5b505050506040513d6000823e601f3d908101601f191682016040526127b191908101906153e0565b965050505050505b509392505050565b60006127cb612e5d565b90506127da8686868686612d5d565b600061281b60018301826127f76001600160a01b03881687612e81565b81526020019081526020016000205490600882901c90608883901c90609084901c90565b50505090508060ff16600003612843576040516273e5c360e31b815260040160405180910390fd5b6128736128596001600160a01b03861685612e81565b60ff83166000908152600285016020526040902090613aa1565b5060018201600061288d6001600160a01b03871686612e81565b8152602001908152602001600020600090557f20eeb4de14666113d3c1af96b5380282a9d983b562f22d95af267f1603f8a74084846040516126b79291906150f2565b6000806000806128fa856128e2612e5d565b600089815260089190910160205260409020906131be565b909760a089901c97509095509350505050565b600080600080600061291d6120e5565b50935093509350935060008463ffffffff16670de0b6b3a76400006129429190615487565b9050600061295e63ffffffff8616670de0b6b3a7640000615487565b905060008b6001600160a01b031663075461726040518163ffffffff1660e01b8152600401602060405180830381865afa1580156129a0573d6000803e3d6000fd5b505050506040513d601f19601f820116820180604052508101906129c491906151cc565b60405163b1bd8fe960e01b815260ff8c16600482018190526024820152909150600090612a49906001600160a01b0384169063b1bd8fe990604401602060405180830381865afa158015612a1c573d6000803e3d6000fd5b505050506040513d601f19601f82011682018060405250810190612a40919061549e565b8b60ff166144f4565b612a5490600a615487565b9050838c1015612a6257839b505b828c1115612a6e57829b505b6000612a7a85856151a6565b612a84868f6151a6565b612a9690670de0b6b3a7640000615487565b612aa091906154b7565b9050670de0b6b3a7640000612abb63ffffffff8916846154b7565b612acb63ffffffff8916856154b7565b612ad591906151a6565b612adf9083615487565b612ae991906154b7565b612af963ffffffff8916846154b7565b612b0391906151b9565b9e9d5050505050505050505050505050565b612b228585858585613d1d565b506000612b2d612e5d565b90506000612b446001600160a01b03851684612e81565b90506000612b5287876136b8565b6000848152600986016020526040902054909250905080612b7662015180426151a6565b1015612b9557604051630aa5ffa760e41b815260040160405180910390fd5b600083815260068501602090815260408083208590556007870182528083205485845260088801909252909120612bcd90858361386f565b507f03d40efe738c2a9f6be71d1edbf883369790c4dfa72f3449ee9abd3c59f27fda8787856040516120109392919061512d565b6000612c0b612e5d565b600601600061101f6001600160a01b03861685612e81565b612c2b614540565b612c4857604051631afcd79f60e31b815260040160405180910390fd5b565b6001600160a01b038116612c925760405162461bcd60e51b815260206004820152600f60248201526e2d32b9379031b7b73a3937b63632b960891b6044820152606401610954565b612cc1816109a560017f5165972ef41194f06c5007493031d0b927c20741adcb74403b954009fd2c36186151a6565b612cf0426109a560017f6f55f470bdc9cb5f04223fd822021061668e4dccb43e8727b295106dc9769c8b6151a6565b612d1f436109a560017f812a673dfca07956350df10f8a654925f561d7a0da09bdbe79e653939a14d9f16151a6565b7f1a2dd071001ebf6e03174e3df5b305795a4ad5d41d8fdb9ba41dbbe236713426814243604051612d529392919061512d565b60405180910390a150565b612d6a8585858585612f2d565b836001600160a01b031663016dff5d6040518163ffffffff1660e01b8152600401602060405180830381865afa158015612da8573d6000803e3d6000fd5b505050506040513d601f19601f82011682018060405250810190612dcc91906151cc565b6001600160a01b0316631789b7b1836040518263ffffffff1660e01b8152600401612df7919061500f565b602060405180830381865afa158015612e14573d6000803e3d6000fd5b505050506040513d601f19601f82011682018060405250810190612e3891906152ba565b60ff16600003610ab2578160405163adc7fced60e01b8152600401610954919061500f565b7f5a053c541e08c6bd7dfc3042a100e83af246544a23ecda1a47bf22b441b00c0090565b60006001600160401b03821115612eae57604051633995b34160e01b815260048101839052602401610954565b5067ffffffffffffffff60a01b60a09190911b166001600160a01b039091161790565b600061081d838361455a565b600061081d8383614566565b612ef1614a18565b6001600160401b03609083901c16606082015260ff608883901c811660408301526001600160801b03600884901c166020830152909116815290565b84612f4b57604051636221cab960e01b815260040160405180910390fd5b836001600160a01b03166318d928316040518163ffffffff1660e01b8152600401602060405180830381865afa158015612f89573d6000803e3d6000fd5b505050506040513d601f19601f82011682018060405250810190612fad919061520f565b15612fcb57604051635e1633d360e11b815260040160405180910390fd5b826001600160a01b0316612fdf838361364c565b6001600160a01b031614610ab257818160405163547208b960e11b81526004016109549291906150f2565b6000613014612e5d565b600401600061302c6001600160a01b03881687612e81565b8152602081019190915260400160009081208054909250908184101561305b5761305684836151a6565b61305e565b60005b90505b8082146131715760008061308a8561307a6001876151a6565b81548110611260576112606151e9565b604051632142170760e11b815291935091506001600160a01b038316906342842e0e906130bf9030908b908690600401615296565b600060405180830381600087803b1580156130d957600080fd5b505af11580156130ed573d6000803e3d6000fd5b505050507fff05befd582c4ae0b942a67d42cde1aa0fbd2c4cebd9e347e376be674e44df87898984848b6040516131289594939291906154cb565b60405180910390a18361313a816154fb565b945050821561316a578480548061315357613153615512565b600190038181906000526020600020016000905590555b5050613061565b8160000361166557613181612e5d565b60040160006131996001600160a01b038a1689612e81565b815260200190815260200160002060006116659190614a86565b600061082082614583565b60008080806131cd868661458e565b9097909650945050505050565b6000610820825490565b336001600160a01b0316816001600160a01b031663683fedf76040518163ffffffff1660e01b8152600401602060405180830381865afa15801561322c573d6000803e3d6000fd5b505050506040513d601f19601f8201168201806040525081019061325091906151cc565b6001600160a01b031614610c2c573360405163cf219bef60e01b8152600401610954919061500f565b60008080806131cd866001600160a01b0387166145b9565b6000610d5c846001600160a01b038516846145f3565b60006132b1612e5d565b60050160006132c96001600160a01b03871686612e81565b8152602001908152602001600020905060006132e4826131b3565b90506000816001600160401b0381111561330057613300614b86565b604051908082528060200260200182016040528015613329578160200160208202803683370190505b50905060005b8281101561342f5760008061334486846131be565b60405163a9059cbb60e01b815291935091506001600160a01b0383169063a9059cbb90613377908a9085906004016150f2565b6020604051808303816000875af1158015613396573d6000803e3d6000fd5b505050506040513d601f19601f820116820180604052508101906133ba919061520f565b507f846e45ae5b621ebf9a92358abaccb933a344b2d44654dfbd9993c99c6add12c3898984848b6040516133f29594939291906154cb565b60405180910390a18184848151811061340d5761340d6151e9565b6001600160a01b0390921660209283029190910190910152505060010161332f565b5060005b8281101561166557613467828281518110613450576134506151e9565b60200260200101518561461090919063ffffffff16565b50600101613433565b600061347a612e5d565b60040160006134926001600160a01b03871686612e81565b8152602081019190915260400160009081208054909250905b8181101561357b576000806134cb858481548110611260576112606151e9565b604051632142170760e11b815291935091506001600160a01b038316906342842e0e906135009030908a908690600401615296565b600060405180830381600087803b15801561351a57600080fd5b505af115801561352e573d6000803e3d6000fd5b505050507fff05befd582c4ae0b942a67d42cde1aa0fbd2c4cebd9e347e376be674e44df87888884848a6040516135699594939291906154cb565b60405180910390a150506001016134ab565b50613584612e5d565b600401600061359c6001600160a01b03881687612e81565b81526020019081526020016000206000610ab29190614a86565b6000816001600160a01b031663016dff5d6040518163ffffffff1660e01b8152600401602060405180830381865afa1580156135f6573d6000803e3d6000fd5b505050506040513d601f19601f8201168201806040525081019061361a91906151cc565b90506001600160a01b038116331461364757336040516303f2374960e01b8152600401610954919061500f565b919050565b6040516331a9108f60e11b8152600481018290526000906001600160a01b03841690636352211e90602401602060405180830381865afa158015613694573d6000803e3d6000fd5b505050506040513d601f19601f8201168201806040525081019061081d91906151cc565b600080836001600160a01b03166325eb1c876040518163ffffffff1660e01b8152600401602060405180830381865afa1580156136f9573d6000803e3d6000fd5b505050506040513d601f19601f8201168201806040525081019061371d91906151cc565b604051633b4c989160e01b81529092506001600160a01b03831690633b4c98919061374c90869060040161500f565b602060405180830381865afa158015613769573d6000803e3d6000fd5b505050506040513d601f19601f8201168201806040525081019061378d919061549e565b905080600003610c7b57604051632f6c853960e11b815260040160405180910390fd5b604051635f1c54df60e01b8152600481018290526000906001600160a01b03841690635f1c54df90602401602060405180830381865afa1580156137f8573d6000803e3d6000fd5b505050506040513d601f19601f8201168201806040525081019061381c919061549e565b90508060000361383f57604051633dc6521560e21b815260040160405180910390fd5b600881901c600260ff8216101561386957604051639663935b60e01b815260040160405180910390fd5b50505050565b6000610d5c8484846145f3565b60606000846001600160a01b0316628e96916040518163ffffffff1660e01b8152600401602060405180830381865afa1580156138bd573d6000803e3d6000fd5b505050506040513d601f19601f820116820180604052508101906138e191906151cc565b60408051600c8082526101a0820190925291925060009190602082016101808036833701905050905060008160008151811061391f5761391f6151e9565b602090810291909101015260018160018151811061393f5761393f6151e9565b602090810291909101015260028160028151811061395f5761395f6151e9565b602090810291909101015260038160038151811061397f5761397f6151e9565b602090810291909101015260048160048151811061399f5761399f6151e9565b60209081029190910101526005816005815181106139bf576139bf6151e9565b60209081029190910101526006816006815181106139df576139df6151e9565b60209081029190910101526007816007815181106139ff576139ff6151e9565b6020908102919091010152600881600881518110613a1f57613a1f6151e9565b6020908102919091010152600b81600981518110613a3f57613a3f6151e9565b6020908102919091010152600c81600a81518110613a5f57613a5f6151e9565b6020908102919091010152600d81600b81518110613a7f57613a7f6151e9565b602002602001018181525050613a9782828787614625565b9695505050505050565b600061081d8383614748565b600080600080876001600160a01b031663c3dfdae66040518163ffffffff1660e01b8152600401602060405180830381865afa158015613af1573d6000803e3d6000fd5b505050506040513d601f19601f82011682018060405250810190613b1591906151cc565b93506000613b22896135b6565b604051631ebd249360e01b81529091506001600160a01b03821690631ebd249390613b53908b908b906004016150f2565b602060405180830381865afa158015613b70573d6000803e3d6000fd5b505050506040513d601f19601f82011682018060405250810190613b9491906152ba565b9350613ba38460ff1687614842565b9250613c23858486846001600160a01b031663bcd418b08d8d6040518363ffffffff1660e01b8152600401613bd99291906150f2565b60a060405180830381865afa158015613bf6573d6000803e3d6000fd5b505050506040513d601f19601f82011682018060405250810190613c1a9190615528565b6020015161290d565b915050945094509450949050565b604051636eb1769f60e11b81523060048201526001600160a01b03828116602483015283919085169063dd62ed3e90604401602060405180830381865afa158015613c80573d6000803e3d6000fd5b505050506040513d601f19601f82011682018060405250810190613ca4919061549e565b101561088e5760405163095ea7b360e01b81526001600160a01b0384169063095ea7b390613cda908490600019906004016150f2565b6020604051808303816000875af1158015613cf9573d6000803e3d6000fd5b505050506040513d601f19601f82011682018060405250810190613869919061520f565b6000613d2c8686868686612f2d565b6000856001600160a01b031663016dff5d6040518163ffffffff1660e01b8152600401602060405180830381865afa158015613d6c573d6000803e3d6000fd5b505050506040513d601f19601f82011682018060405250810190613d9091906151cc565b604051631789b7b160e01b81529091506001600160a01b03821690631789b7b190613dbf90879060040161500f565b602060405180830381865afa158015613ddc573d6000803e3d6000fd5b505050506040513d601f19601f82011682018060405250810190613e0091906152ba565b60ff16600003613e25578360405163adc7fced60e01b8152600401610954919061500f565b856001600160a01b031663683fedf76040518163ffffffff1660e01b8152600401602060405180830381865afa158015613e63573d6000803e3d6000fd5b505050506040513d601f19601f82011682018060405250810190613e8791906151cc565b6001600160a01b0316639a641e0285856040518363ffffffff1660e01b8152600401613eb49291906150f2565b602060405180830381865afa158015613ed1573d6000803e3d6000fd5b505050506040513d601f19601f82011682018060405250810190613ef591906155a2565b6001600160401b031615613f1b5760405162dc1c0b60e01b815260040160405180910390fd5b613f2584846113c6565b15613f4357604051630ae3514d60e01b815260040160405180910390fd5b6000866001600160a01b031663a27218ac6040518163ffffffff1660e01b8152600401602060405180830381865afa158015613f83573d6000803e3d6000fd5b505050506040513d601f19601f82011682018060405250810190613fa791906151cc565b90506001600160a01b038116156140455760405163ce4a79a960e01b81526001600160a01b0382169063ce4a79a990613fe690889088906004016150f2565b602060405180830381865afa158015614003573d6000803e3d6000fd5b505050506040513d601f19601f82011682018060405250810190614027919061520f565b156140455760405163cba088b360e01b815260040160405180910390fd5b60405163dec38e7760e01b81526001906001600160a01b0384169063dec38e779061407690899089906004016150f2565b602060405180830381865afa158015614093573d6000803e3d6000fd5b505050506040513d601f19601f820116820180604052508101906140b791906152ba565b60ff16036140d857604051631ed7101960e21b815260040160405180910390fd5b509695505050505050565b600061081d838361496a565b60006140f9614a3f565b60006141068560186154b7565b90506000603c61411681896154b7565b61412091906154b7565b9050600061412e87836154b7565b905080866040015165ffffffffffff160361417357602086015162ffffff908116101561416e5760208601805190614165826155bf565b62ffffff169052505b614281565b60208601518651604088015161419290869065ffffffffffff166155e1565b600881106141a2576141a26151e9565b62ffffff909216602092909202015260408601516141c990849065ffffffffffff166151b9565b811061420d5760005b8381101561420757865160009082600881106141f0576141f06151e9565b62ffffff90921660209290920201526001016141d2565b5061426b565b60008660400151600161422091906155f5565b65ffffffffffff1690505b8181101561426957865160009061424286846155e1565b60088110614252576142526151e9565b62ffffff909216602092909202015260010161422b565b505b6001602087015265ffffffffffff811660408701525b600061428e88603c615487565b61429990603c615487565b6142a38984615487565b6142ae90603c615487565b6142b990603c615487565b6142c3908b6151a6565b6142d590670de0b6b3a7640000615487565b6142df91906154b7565b9050600084886040015165ffffffffffff166142fb91906155e1565b905060005b858110156143bb578181036143775760208901516143239062ffffff1684615487565b61433584670de0b6b3a76400006151a6565b8a518360088110614348576143486151e9565b602002015162ffffff1661435c9190615487565b61436691906151b9565b61437090896151b9565b97506143b3565b8851816008811061438a5761438a6151e9565b60200201516143a69062ffffff16670de0b6b3a7640000615487565b6143b090896151b9565b97505b600101614300565b508795505050505050935093915050565b604051631430d62960e21b81526001600160a01b038216906350c358a4906143f890339060040161500f565b602060405180830381865afa158015614415573d6000803e3d6000fd5b505050506040513d601f19601f82011682018060405250810190614439919061520f565b610c2c573360405163451cea1760e11b8152600401610954919061500f565b600061081d83836149b9565b60006001600160a01b038316158061447a575081155b1561448757506000610820565b6040516331a9108f60e11b8152600481018390526001600160a01b03841690636352211e90602401602060405180830381865afa9250505080156144e8575060408051601f3d908101601f191682019092526144e5918101906151cc565b60015b15610820579392505050565b6000808215614522578260011461451b5782600214614514576064614525565b6050614525565b603c614525565b60285b60ff16905060646145368286615487565b610d5c91906154b7565b600061454a610e47565b54600160401b900460ff16919050565b600061081d83836149e3565b6000818152600283016020526040812081905561081d8383613aa1565b6000610820826131da565b6000808061459c8585614458565b600081815260029690960160205260409095205494959350505050565b60008181526002830160205260408120548190806145e8576145db858561455a565b925060009150610c7b9050565b600192509050610c7b565b60008281526002840160205260408120829055610d5c84846140e3565b600061081d836001600160a01b038416614566565b60408051602b8082526105808201909252606091602082016105608036833701905050905060005b84518110156120dc5761470260646014886001600160a01b03166320a7d29988888b8881518110614680576146806151e9565b60200260200101516040518463ffffffff1660e01b81526004016146a69392919061512d565b602060405180830381865afa1580156146c3573d6000803e3d6000fd5b505050506040513d601f19601f820116820180604052508101906146e79190615614565b6146f19190615637565b6146fb9190615657565b60016149fb565b82868381518110614715576147156151e9565b60200260200101518151811061472d5761472d6151e9565b60039290920b6020928302919091019091015260010161464d565b6000818152600183016020526040812054801561483157600061476c6001836151a6565b8554909150600090614780906001906151a6565b90508082146147e55760008660000182815481106147a0576147a06151e9565b90600052602060002001549050808760000184815481106147c3576147c36151e9565b6000918252602080832090910192909255918252600188019052604090208390555b85548690806147f6576147f6615512565b600190038181906000526020600020016000905590558560010160008681526020019081526020016000206000905560019350505050610820565b6000915050610820565b5092915050565b60008061484d612e5d565b6000858152600d919091016020526040908190208151610160810190925281606081018260088282826020028201916000905b82829054906101000a900462ffffff1662ffffff1681526020019060030190602082600201049283019260010382029150808411614880575050509284525050506001919091015462ffffff811660208301526301000000900465ffffffffffff1660409091015290506148f6836003836140ef565b909250905080614904612e5d565b6000868152600d919091016020526040902081516149259082906008614aa4565b5060208201516001909101805460409093015165ffffffffffff166301000000026001600160481b031990931662ffffff909216919091179190911790555092915050565b60008181526001830160205260408120546149b157508154600181810184556000848152602080822090930184905584548482528286019093526040902091909155610820565b506000610820565b60008260000182815481106149d0576149d06151e9565b9060005260206000200154905092915050565b6000818152600183016020526040812054151561081d565b60008160030b8360030b1215614a11578161081d565b5090919050565b60408051608081018252600080825260208201819052918101829052606081019190915290565b6040518060600160405280614a52614b3d565b815260006020820181905260409091015290565b604080516060810182526000808252602082018190529181019190915290565b5080546000825590600052602060002090810190610c2c9190614b5c565b600183019183908215614b2d5791602002820160005b83821115614afc57835183826101000a81548162ffffff021916908362ffffff1602179055509260200192600301602081600201049283019260010302614aba565b8015614b2b5782816101000a81549062ffffff0219169055600301602081600201049283019260010302614afc565b505b50614b39929150614b5c565b5090565b6040518061010001604052806008906020820280368337509192915050565b5b80821115614b395760008155600101614b5d565b6001600160a01b0381168114610c2c57600080fd5b634e487b7160e01b600052604160045260246000fd5b60405160a081016001600160401b0381118282101715614bbe57614bbe614b86565b60405290565b604051601f8201601f191681016001600160401b0381118282101715614bec57614bec614b86565b604052919050565b60006001600160401b03821115614c0d57614c0d614b86565b50601f01601f191660200190565b60008060008060808587031215614c3157600080fd5b8435614c3c81614b71565b93506020850135614c4c81614b71565b92506040850135915060608501356001600160401b03811115614c6e57600080fd5b8501601f81018713614c7f57600080fd5b8035614c92614c8d82614bf4565b614bc4565b818152886020838501011115614ca757600080fd5b8160208401602083013760006020838301015280935050505092959194509250565b600060208284031215614cdb57600080fd5b813561081d81614b71565b60008060408385031215614cf957600080fd5b8235614d0481614b71565b946020939093013593505050565b600080600060608486031215614d2757600080fd5b8335614d3281614b71565b95602085013595506040909401359392505050565b60008151808452602080850194506020840160005b83811015614d815781516001600160a01b031687529582019590820190600101614d5c565b509495945050505050565b60008151808452602080850194506020840160005b83811015614d8157815187529582019590820190600101614da1565b608081526000614dd06080830187614d47565b8281036020840152614de28187614d8c565b90508281036040840152614df68186614d47565b90508281036060840152614e0a8185614d8c565b979650505050505050565b60ff81168114610c2c57600080fd5b600060208284031215614e3657600080fd5b813561081d81614e15565b81516101408201908260005b6008811015614e7157825162ffffff16825260209283019290910190600101614e4d565b505050602083015162ffffff1661010083015260409092015165ffffffffffff166101209091015290565b6001600160401b0381168114610c2c57600080fd5b600080600080600060a08688031215614ec957600080fd5b8535614ed481614b71565b9450602086013593506040860135614eeb81614b71565b9250606086013591506080860135614f0281614e9c565b809150509295509295909350565b60008060008060808587031215614f2657600080fd5b8435614f3181614b71565b9350602085013592506040850135614f4881614b71565b9396929550929360600135925050565b6020808252825182820181905260009190848201906040850190845b81811015614f9357835160030b83529284019291840191600101614f74565b50909695505050505050565b600060208284031215614fb157600080fd5b5035919050565b60005b83811015614fd3578181015183820152602001614fbb565b50506000910152565b6020815260008251806020840152614ffb816040850160208701614fb8565b601f01601f19169190910160400192915050565b6001600160a01b0391909116815260200190565b63ffffffff81168114610c2c57600080fd5b600060a0828403121561504757600080fd5b61504f614b9c565b823561505a81615023565b8152602083013561506a81615023565b6020820152604083013561507d81615023565b6040820152606083013561509081615023565b606082015260808301356150a381614e15565b60808201529392505050565b6040815260006150c26040830185614d47565b8281036020840152610af18185614d8c565b600080604083850312156150e757600080fd5b8235614d0481614e15565b6001600160a01b03929092168252602082015260400190565b6000806040838503121561511e57600080fd5b50508035926020909101359150565b6001600160a01b039390931683526020830191909152604082015260600190565b60008060006060848603121561516357600080fd5b83359250602084013561517581614e15565b9150604084013561518581614e15565b809150509250925092565b634e487b7160e01b600052601160045260246000fd5b8181038181111561082057610820615190565b8082018082111561082057610820615190565b6000602082840312156151de57600080fd5b815161081d81614b71565b634e487b7160e01b600052603260045260246000fd5b8051801515811461364757600080fd5b60006020828403121561522157600080fd5b61081d826151ff565b6001600160a01b0396871681526020810195909552929094166040840152606083015260808201929092526001600160401b0390911660a082015260c00190565b6001600160a01b03948516815260208101939093526040830191909152909116606082015260800190565b6001600160a01b039384168152919092166020820152604081019190915260600190565b6000602082840312156152cc57600080fd5b815161081d81614e15565b600060a082840312156152e957600080fd5b6152f1614b9c565b82516152fc81615023565b8152602083015161530c81615023565b6020820152604083015161531f81615023565b6040820152606083015161533281615023565b606082015260808301516150a381615023565b63ffffffff82811682821603908082111561483b5761483b615190565b634e487b7160e01b600052601260045260246000fd5b600063ffffffff8084168061538f5761538f615362565b92169190910492915050565b600082601f8301126153ac57600080fd5b81516153ba614c8d82614bf4565b8181528460208386010111156153cf57600080fd5b610d5c826020830160208701614fb8565b60008060008060008060c087890312156153f957600080fd5b86516001600160401b038082111561541057600080fd5b61541c8a838b0161539b565b9750602089015191508082111561543257600080fd5b5061543f89828a0161539b565b955050604087015161545081614b71565b606088015190945061546181614e15565b608088015190935061547281614e9c565b8092505060a087015190509295509295509295565b808202811582820484141761082057610820615190565b6000602082840312156154b057600080fd5b5051919050565b6000826154c6576154c6615362565b500490565b6001600160a01b039586168152602081019490945291841660408401526060830152909116608082015260a00190565b60008161550a5761550a615190565b506000190190565b634e487b7160e01b600052603160045260246000fd5b600060a0828403121561553a57600080fd5b615542614b9c565b825161554d81614e15565b8152602083015161555d81614e15565b602082015261556e604084016151ff565b6040820152606083015168ffffffffffffffffff8116811461558f57600080fd5b606082015260808301516150a381614b71565b6000602082840312156155b457600080fd5b815161081d81614e9c565b600062ffffff8083168181036155d7576155d7615190565b6001019392505050565b6000826155f0576155f0615362565b500690565b65ffffffffffff81811683821601908082111561483b5761483b615190565b60006020828403121561562657600080fd5b81518060030b811461081d57600080fd5b60008260030b8260030b028060030b915080821461483b5761483b615190565b60008160030b8360030b8061566e5761566e615362565b637fffffff1982146000198214161561568957615689615190565b9005939250505056fe22573091f17911fb166032a3d9e0554aa73d31b7b7ddea4a4dd2995650af84bda2646970667358221220ebb104454d46d4638e0fd483fc764787eef4856f1c69eafc801739471a5b587f64736f6c63430008170033",
  "devdoc": {
    "errors": {
      "InvalidInitialization()": [
        {
          "details": "The contract is already initialized."
        }
      ],
      "NotInitializing()": [
        {
          "details": "The contract is not initializing."
        }
      ]
    },
    "events": {
      "GuildHeroReleased(address,uint256,uint256,address)": {
        "params": {
          "user": "Address can be 0 if heroId was already burnt at the moment of reinforcement releasing"
        }
      },
      "Initialized(uint64)": {
        "details": "Triggered when the contract has been initialized or reinitialized."
      }
    },
    "kind": "dev",
    "methods": {
      "created()": {
        "returns": {
          "_0": "Creation timestamp"
        }
      },
      "createdBlock()": {
        "returns": {
          "_0": "Creation block number"
        }
      },
      "getStakedGuild(address,uint256)": {
        "returns": {
          "_0": "Return the guild in which the hero is staked for guild reinforcement"
        }
      },
      "increaseRevision(address)": {
        "details": "Revision should be increased on each contract upgrade"
      },
      "isController(address)": {
        "details": "Return true if given address is controller"
      },
      "onERC721Received(address,address,uint256,bytes)": {
        "details": "See {IERC721Receiver-onERC721Received}. Always returns `IERC721Receiver.onERC721Received.selector`."
      },
      "previousImplementation()": {
        "details": "Previous logic implementation"
      },
      "registerNftReward(address,uint256,address,uint256,uint64)": {
        "details": "Only for dungeon. Assume the NFT already sent to this contract."
      },
      "registerTokenReward(address,uint256,address,uint256,uint64)": {
        "details": "Only for dungeon. Assume the tokens already sent to this contract."
      },
      "revision()": {
        "details": "Contract upgrade counter"
      },
      "stakeHeroV2(address,uint256,uint256)": {
        "params": {
          "rewardAmount": "Reward required by the helper for the help."
        }
      },
      "stakedGuildHelperByIndex(uint256,uint256)": {
        "returns": {
          "busyInGuildId": "Id of the guild where the hero is being asked for help currently. 0 - free for being asked for the help",
          "hero": "Staked hero",
          "heroId": "ID of the staked hero"
        }
      }
    },
    "version": 1
  },
  "userdoc": {
    "kind": "user",
    "methods": {
      "CONTROLLABLE_VERSION()": {
        "notice": "Version of the contract"
      },
      "VERSION()": {
        "notice": "Version of the contract"
      },
      "askGuildHero(address,uint256,address,uint256)": {
        "notice": "user User which asks for guild reinforcement"
      },
      "askHeroV2(address,uint256,address,uint256)": {
        "notice": "{hero} asks help of the {helper} Hero owner sends reward amount to the helper owner as the reward for the help. Hero owner sends fixed fee to controller using standard process-routine. Size of the fixed fee depends on total number of calls of {askHeroV2} for last 24 hours since the current moment. Durability of all equipped items of the helper are reduced. Assume, that hero owner approves rewardAmount + fixed fee to reinforcementController-contract - rewardAmount: amount required by the helper (see {heroInfoV2}) - fixed fee: fee taken by controller (see {getFeeAmount})"
      },
      "busyGuildHelperOf(address,uint256)": {
        "notice": "Return the guild in which the hero is currently asked for guild reinforcement"
      },
      "claimNft(address,uint256,uint256)": {
        "notice": "Claim {countNft} last NFT"
      },
      "controller()": {
        "notice": "Return controller address saved in the contract slot"
      },
      "created()": {
        "notice": "Return creation timestamp"
      },
      "createdBlock()": {
        "notice": "Return creation block number"
      },
      "isGovernance(address)": {
        "notice": "Return true if given address is setup as governance in Controller"
      },
      "lastGuildHeroWithdrawTs(address,uint256)": {
        "notice": "Return moment of last withdrawing of the hero from guild reinforcement"
      },
      "stakeHeroV2(address,uint256,uint256)": {
        "notice": "Stake hero in reinforcement-v2"
      },
      "withdrawHeroV2(address,uint256)": {
        "notice": "Reverse operation for {stakeHeroV2}"
      }
    },
    "version": 1
  },
  "storageLayout": {
    "storage": [],
    "types": null
  }
}