{
  "address": "0x206a6314133a997c604dE3CF1Ceb84CD7573BbAA",
  "abi": [
    {
      "inputs": [],
      "name": "EquippedItemsExist",
      "type": "error"
    },
    {
      "inputs": [
        {
          "internalType": "address",
          "name": "sender",
          "type": "address"
        }
      ],
      "name": "ErrorForbidden",
      "type": "error"
    },
    {
      "inputs": [
        {
          "internalType": "address",
          "name": "sender",
          "type": "address"
        }
      ],
      "name": "ErrorNotDeployer",
      "type": "error"
    },
    {
      "inputs": [
        {
          "internalType": "address",
          "name": "sender",
          "type": "address"
        }
      ],
      "name": "ErrorNotHeroController",
      "type": "error"
    },
    {
      "inputs": [
        {
          "internalType": "uint256",
          "name": "index",
          "type": "uint256"
        },
        {
          "internalType": "uint256",
          "name": "length",
          "type": "uint256"
        }
      ],
      "name": "OutOfBounds",
      "type": "error"
    },
    {
      "inputs": [
        {
          "internalType": "uint256",
          "name": "value",
          "type": "uint256"
        }
      ],
      "name": "TooHighValue",
      "type": "error"
    },
    {
      "inputs": [
        {
          "internalType": "uint256",
          "name": "heroClass",
          "type": "uint256"
        }
      ],
      "name": "UnknownHeroClass",
      "type": "error"
    },
    {
      "inputs": [],
      "name": "ZeroValueNotAllowed",
      "type": "error"
    },
    {
      "anonymous": false,
      "inputs": [
        {
          "indexed": false,
          "internalType": "address",
          "name": "token",
          "type": "address"
        },
        {
          "indexed": false,
          "internalType": "uint256",
          "name": "tokenId",
          "type": "uint256"
        },
        {
          "indexed": false,
          "internalType": "bytes32",
          "name": "index",
          "type": "bytes32"
        },
        {
          "indexed": false,
          "internalType": "uint256",
          "name": "value",
          "type": "uint256"
        },
        {
          "indexed": false,
          "internalType": "uint8",
          "name": "ngLevel",
          "type": "uint8"
        }
      ],
      "name": "HeroCustomDataChangedNg",
      "type": "event"
    },
    {
      "anonymous": false,
      "inputs": [
        {
          "indexed": false,
          "internalType": "address",
          "name": "token",
          "type": "address"
        },
        {
          "indexed": false,
          "internalType": "uint256",
          "name": "tokenId",
          "type": "uint256"
        }
      ],
      "name": "HeroCustomDataCleared",
      "type": "event"
    },
    {
      "anonymous": false,
      "inputs": [
        {
          "indexed": false,
          "internalType": "address",
          "name": "heroToken",
          "type": "address"
        },
        {
          "indexed": false,
          "internalType": "uint256",
          "name": "heroTokenId",
          "type": "uint256"
        },
        {
          "components": [
            {
              "internalType": "uint32",
              "name": "level",
              "type": "uint32"
            },
            {
              "internalType": "uint32",
              "name": "experience",
              "type": "uint32"
            },
            {
              "internalType": "uint32",
              "name": "life",
              "type": "uint32"
            },
            {
              "internalType": "uint32",
              "name": "mana",
              "type": "uint32"
            },
            {
              "internalType": "uint32",
              "name": "lifeChances",
              "type": "uint32"
            }
          ],
          "indexed": false,
          "internalType": "struct IStatController.ChangeableStats",
          "name": "stats",
          "type": "tuple"
        }
      ],
      "name": "NewHeroInited",
      "type": "event"
    },
    {
      "inputs": [],
      "name": "DEATH_COUNT_HASH",
      "outputs": [
        {
          "internalType": "bytes32",
          "name": "",
          "type": "bytes32"
        }
      ],
      "stateMutability": "view",
      "type": "function"
    },
    {
      "inputs": [],
      "name": "HERO_CLASS_HASH",
      "outputs": [
        {
          "internalType": "bytes32",
          "name": "",
          "type": "bytes32"
        }
      ],
      "stateMutability": "view",
      "type": "function"
    },
    {
      "inputs": [],
      "name": "KARMA_HASH",
      "outputs": [
        {
          "internalType": "bytes32",
          "name": "",
          "type": "bytes32"
        }
      ],
      "stateMutability": "view",
      "type": "function"
    },
    {
      "inputs": [],
      "name": "LEVEL_UP_SUM",
      "outputs": [
        {
          "internalType": "int32",
          "name": "",
          "type": "int32"
        }
      ],
      "stateMutability": "view",
      "type": "function"
    }
  ],
  "transactionHash": "0xad842ed739f7f27b6c672c36592c05e6172ed8f765e130d4ebbce50b2a08c900",
  "args": [],
  "numDeployments": 12,
  "solcInputHash": "5bf49bc431fa59b17b06db41a166ea67",
  "bytecode": "0x613b0261003a600b82828239805160001a60731461002d57634e487b7160e01b600052600060045260246000fd5b30600052607381538281f3fe730000000000000000000000000000000000000000301460806040526004361061008d5760003560e01c8063089aa40d146100925780630c2bd671146100b457806324642164146100d45780635a1b0ae3146100f457806367937dd11461011c578063bc36137214610130578063d183e1b514610151578063dff9636e14610160578063f0a31ecc14610180575b600080fd5b81801561009e57600080fd5b506100b26100ad366004613179565b61019b565b005b8180156100c057600080fd5b506100b26100cf3660046131bf565b6102c3565b8180156100e057600080fd5b506100b26100ef366004613211565b61047c565b6101096a111150551217d0d3d5539560aa1b81565b6040519081526020015b60405180910390f35b610109694845524f5f434c41535360b01b81565b61014361013e366004613259565b610564565b6040516101139291906132b8565b610109644b41524d4160d81b81565b81801561016c57600080fd5b506100b261017b3660046133ad565b610a84565b610188600581565b60405160039190910b8152602001610113565b60006101a5610b5b565b905060006101b38585610b7f565b905060006101c087610bd4565b90506101ca610b5b565b60008381526006919091016020526040902054156101fb576040516303a684c160e51b815260040160405180910390fd5b6000610208848888610c6c565b608001516000848152602086905260408120919250610227919061308c565b600083815260038501602052604081206102409161308c565b600083815260028501602052604081206102599161308c565b6000610266858588610d90565b90506102ad8585600160008560008151811061028457610284613486565b60200260200101518660018151811061029f5761029f613486565b602002602001015188610dca565b6102b8838989610f1d565b505050505050505050565b60006102ce85610bd4565b905060006102dc8585610b7f565b905060006102eb888386610d90565b905061034c8883600160008560008151811061030957610309613486565b60200260200101518660018151811061032457610324613486565b60200260200101518760028151811061033f5761033f613486565b6020026020010151610dca565b7f04bfc2c521fc80553ed48f0c6811371ee4c7f94f912eba0835d44c6e07b06f8586866040518060a00160405280600163ffffffff168152602001600063ffffffff168152602001856000815181106103a7576103a7613486565b602002602001015163ffffffff168152602001856001815181106103cd576103cd613486565b602002602001015163ffffffff168152602001856002815181106103f3576103f3613486565b60209081029190910181015163ffffffff908116909252604080516001600160a01b039096168652858201949094528251821685850152820151811660608086019190915292820151811660808086019190915292820151811660a08501529101511660c082015260e00160405180910390a1610472888488886110f1565b5050505050505050565b6104858361120d565b6104f1836001600160a01b031663016dff5d6040518163ffffffff1660e01b8152600401602060405180830381865afa1580156104c6573d6000803e3d6000fd5b505050506040513d601f19601f820116820180604052508101906104ea919061349c565b838361129c565b61055e84846001600160a01b031663016dff5d6040518163ffffffff1660e01b8152600401602060405180830381865afa158015610533573d6000803e3d6000fd5b505050506040513d601f19601f82011682018060405250810190610557919061349c565b84846110f1565b50505050565b6060600080610575848401856134b9565b90509050806000036105a85761059c866105926020870187613502565b866020013561160f565b60009250925050610a7c565b6000856001600160a01b03166331423c266040518163ffffffff1660e01b8152600401602060405180830381865afa1580156105e8573d6000803e3d6000fd5b505050506040513d601f19601f8201168201806040525081019061060c919061349c565b60408051602b80825261058082019092529192506000919060208201610560803683370190505090506000836001600160401b0381111561064f5761064f61330c565b604051908082528060200260200182016040528015610678578160200160208202803683370190505b50905060005b84811015610914576000805b828110156107065761069f60608b018b6134b9565b848181106106af576106af613486565b90506020020160208101906106c49190613502565b6001600160a01b03168482815181106106df576106df613486565b60200260200101516001600160a01b0316036106fe5760019150610706565b60010161068a565b508015610713575061090c565b6001600160a01b0385166382b538de61072f60608c018c6134b9565b8581811061073f5761073f613486565b90506020020160208101906107549190613502565b6040518263ffffffff1660e01b81526004016107709190613535565b61018060405180830381865afa15801561078e573d6000803e3d6000fd5b505050506040513d601f19601f820116820180604052508101906107b29190613622565b60a001516107c090886136ef565b96506000806001600160a01b03871663010759756107e160608e018e6134b9565b878181106107f1576107f1613486565b90506020020160208101906108069190613502565b61081360808f018f6134b9565b8881811061082357610823613486565b905060200201356040518363ffffffff1660e01b8152600401610847929190613716565b600060405180830381865afa158015610864573d6000803e3d6000fd5b505050506040513d6000823e601f3d908101601f1916820160405261088c91908101906137a0565b915091506108a38661089e8484611694565b611742565b506108b160608c018c6134b9565b858181106108c1576108c1613486565b90506020020160208101906108d69190613502565b8585815181106108e8576108e8613486565b60200260200101906001600160a01b031690816001600160a01b0316815250505050505b60010161067e565b50600061093b6109358b61092b60208c018c613502565b8b6020013561160f565b84611742565b905061095c8361089e8c61095260208d018d613502565b8c602001356117a0565b5061097c8361089e8c61097260208d018d613502565b8c602001356117b5565b50610a7481848b6001600160a01b031663016dff5d6040518163ffffffff1660e01b8152600401602060405180830381865afa1580156109c0573d6000803e3d6000fd5b505050506040513d601f19601f820116820180604052508101906109e4919061349c565b6001600160a01b0316631789b7b16109ff60208e018e613502565b6040518263ffffffff1660e01b8152600401610a1b9190613535565b602060405180830381865afa158015610a38573d6000803e3d6000fd5b505050506040513d601f19601f82011682018060405250810190610a5c9190613864565b60ff16610a6f60608d0160408e0161387f565b6117ca565b965050505050505b935093915050565b610a8d84611aed565b506000610a9b868585610c6c565b90506000610aa98585610b7f565b6000818152602089905260409020909150610aeb610aca60095b8390611e11565b8560095b81518110610ade57610ade613486565b6020026020010151611e75565b83604001818151610afc919061389c565b63ffffffff16905250610b1a610b12600a610ac3565b85600a610ace565b83606001818151610b2b919061389c565b63ffffffff1690525082516020840151604085015160608601516080870151610472948d94889491939092610dca565b7fca9e8235a410bd2656fc43f888ab589425034944963c2881072ee821e700e60090565b60006001600160401b03821115610bb157604051633995b34160e01b8152600481018390526024015b60405180910390fd5b5067ffffffffffffffff60a01b60a09190911b166001600160a01b039091161790565b600080826001600160a01b031663016dff5d6040518163ffffffff1660e01b8152600401602060405180830381865afa158015610c15573d6000803e3d6000fd5b505050506040513d601f19601f82011682018060405250810190610c39919061349c565b90506001600160a01b0381163314610c6657336040516303f2374960e01b8152600401610ba89190613535565b92915050565b6040805160a081018252600080825260208201819052918101829052606081018290526080810182905290610cbd6004860182610ca98787610b7f565b815260200190815260200160002054611e9f565b90506040518060a0016040528082600081518110610cdd57610cdd613486565b602002602001015163ffffffff16815260200182600181518110610d0357610d03613486565b602002602001015163ffffffff16815260200182600281518110610d2957610d29613486565b602002602001015163ffffffff16815260200182600381518110610d4f57610d4f613486565b602002602001015163ffffffff16815260200182600481518110610d7557610d75613486565b602002602001015163ffffffff168152509150509392505050565b6060610d9d848484611f14565b6000838152602085905260409020610dc181846001610dbb8261201b565b516120a4565b95945050505050565b63ffffffff811615801590610de3575063ffffffff8316155b15610ded57600192505b60408051600580825260c082019092526000916020820160a0803683370190505090508581600081518110610e2457610e24613486565b602002602001019063ffffffff16908163ffffffff16815250508481600181518110610e5257610e52613486565b602002602001019063ffffffff16908163ffffffff16815250508381600281518110610e8057610e80613486565b602002602001019063ffffffff16908163ffffffff16815250508281600381518110610eae57610eae613486565b602002602001019063ffffffff16908163ffffffff16815250508181600481518110610edc57610edc613486565b602002602001019063ffffffff16908163ffffffff1681525050610eff8161226e565b60009788526004909801602052505060409094209490945550505050565b604051630bcd418b60e41b81526000906001600160a01b0385169063bcd418b090610f4e9086908690600401613716565b60a060405180830381865afa158015610f6b573d6000803e3d6000fd5b505050506040513d601f19601f82011682018060405250810190610f8f91906138c9565b6020015190508060ff16600003610fb95760405163273e150360e21b815260040160405180910390fd5b6000610fc6600183613968565b90506000806110146a111150551217d0d3d5539560aa1b610fe5610b5b565b600a016000610ff88a8a8960ff166122f0565b815260200190815260200160002061235290919063ffffffff16565b9150915081801561102457508015155b156110b1576110746a111150551217d0d3d5539560aa1b82611044610b5b565b600a0160006110578b8b8b60ff166122f0565b81526020019081526020016000206123709092919063ffffffff16565b50600080516020613aad83398151915286866a111150551217d0d3d5539560aa1b84886040516110a8959493929190613981565b60405180910390a15b600080516020613aad8339815191528686644b41524d4160d81b6103e8886040516110e0959493929190613981565b60405180910390a150505050505050565b604051630bcd418b60e41b81526000906001600160a01b0385169063bcd418b0906111229086908690600401613716565b60a060405180830381865afa15801561113f573d6000803e3d6000fd5b505050506040513d601f19601f8201168201806040525081019061116391906138c9565b602001519050600061117984848460ff166122f0565b6000818152600a8801602052604090209091506111a181644b41524d4160d81b6103e8612370565b50600080516020613aad8339815191528585644b41524d4160d81b6103e8876040516111d1959493929190613981565b60405180910390a1600080516020613aad83398151915285856a111150551217d0d3d5539560aa1b6000876040516110e0959493929190613981565b604051631430d62960e21b81526001600160a01b038216906350c358a490611239903390600401613535565b602060405180830381865afa158015611256573d6000803e3d6000fd5b505050506040513d601f19601f8201168201806040525081019061127a91906139b2565b611299573360405163451cea1760e11b8152600401610ba89190613535565b50565b60006112a6610b5b565b600a01600061132b8585886001600160a01b031663bcd418b089896040518363ffffffff1660e01b81526004016112de929190613716565b60a060405180830381865afa1580156112fb573d6000803e3d6000fd5b505050506040513d601f19601f8201168201806040525081019061131f91906138c9565b6020015160ff166122f0565b8152602001908152602001600020905060006113468261237d565b90506000816001600160401b038111156113625761136261330c565b60405190808252806020026020018201604052801561138b578160200160208202803683370190505b50905060006040516020016113ae90674d4f4e535445525f60c01b815260080190565b6040516020818303038152906040526113c6906139cd565b905060006040516020016113e6906553544f52595f60d01b815260060190565b6040516020818303038152906040526113fe906139cd565b905060005b848110156115665760006114178783612388565b5090506a111150551217d0d3d5539560aa1b8114806114425750694845524f5f434c41535360b01b81145b1561144d575061155e565b60008060005b600881101561152a57821580156114a8575086816020811061147757611477613486565b1a60f81b6001600160f81b03191684826020811061149757611497613486565b1a60f81b6001600160f81b03191614155b156114b257600192505b811580156114c05750600681105b801561150a57508581602081106114d9576114d9613486565b1a60f81b6001600160f81b0319168482602081106114f9576114f9613486565b1a60f81b6001600160f81b03191614155b1561151457600191505b82801561151e5750815b61152a57600101611453565b508180156115355750805b1561155a578287858151811061154d5761154d613486565b6020026020010181815250505b5050505b600101611403565b5060005b848110156115cb576000801b84828151811061158857611588613486565b6020026020010151146115c3576115c18482815181106115aa576115aa613486565b60200260200101518761239790919063ffffffff16565b505b60010161156a565b507f5b6e264cb3325688785ed5b6b2392e03227b6dc244988c18c163024e4a51ff5287876040516115fd929190613716565b60405180910390a15050505050505050565b606061168c8460006116218686610b7f565b815260200190815260200160002080548060200260200160405190810160405280929190818152602001828054801561167957602002820191906000526020600020905b815481526020019060010190808311611665575b50602b935061168792505050565b6123a3565b949350505050565b60408051602b8082526105808201909252606091602082016105608036833701905050905060005b835181101561173b5760008482815181106116d9576116d9613486565b602002602001015190508060030b60001461173257808385848151811061170257611702613486565b602002602001015160ff168151811061171d5761171d613486565b602002602001019060030b908160030b815250505b506001016116bc565b5092915050565b606060005b83518110156117985782818151811061176257611762613486565b602002602001015184828151811061177c5761177c613486565b60209081029190910101805190910160030b9052600101611747565b509192915050565b606061168c8460020160006116218686610b7f565b606061168c8460030160006116218686610b7f565b606060008581815181106117e0576117e0613486565b602002602001015190506000866001602b8111156118005761180061351f565b8151811061181057611810613486565b602002602001015190506000876002602b8111156118305761183061351f565b8151811061184057611840613486565b602002602001015190506000886003602b8111156118605761186061351f565b8151811061187057611870613486565b60200260200101519050876004602b81111561188e5761188e61351f565b8151811061189e5761189e613486565b60200260200101516118b0858961246b565b6118ba91906136ef565b896004815181106118cd576118cd613486565b60039290920b60209283029190910190910152876005815181106118f3576118f3613486565b602002602001015161190585896124a5565b61190f91906136ef565b8960058151811061192257611922613486565b60039290920b602092830291909101909101528760068151811061194857611948613486565b602002602001015161195a84896124cd565b61196491906136ef565b8960068151811061197757611977613486565b60039290920b602092830291909101909101528760078151811061199d5761199d613486565b60200260200101516119af84896124f5565b6119b991906136ef565b896007815181106119cc576119cc613486565b60039290920b60209283029190910190910152876008815181106119f2576119f2613486565b6020026020010151611a04848961251d565b611a0e91906136ef565b89600881518110611a2157611a21613486565b60039290920b6020928302919091019091015287600981518110611a4757611a47613486565b6020026020010151611a5a838989612563565b611a6491906136ef565b89600981518110611a7757611a77613486565b60039290920b6020928302919091019091015287600a81518110611a9d57611a9d613486565b6020026020010151611ab08289896125da565b611aba91906136ef565b89600a81518110611acd57611acd613486565b60039290920b602092830291909101909101525096979650505050505050565b6000803390506000836001600160a01b031663016dff5d6040518163ffffffff1660e01b8152600401602060405180830381865afa158015611b33573d6000803e3d6000fd5b505050506040513d601f19601f82011682018060405250810190611b57919061349c565b9050816001600160a01b0316816001600160a01b031614158015611bee5750816001600160a01b0316846001600160a01b03166331423c266040518163ffffffff1660e01b8152600401602060405180830381865afa158015611bbe573d6000803e3d6000fd5b505050506040513d601f19601f82011682018060405250810190611be2919061349c565b6001600160a01b031614155b8015611c6d5750816001600160a01b0316846001600160a01b031663683fedf76040518163ffffffff1660e01b8152600401602060405180830381865afa158015611c3d573d6000803e3d6000fd5b505050506040513d601f19601f82011682018060405250810190611c61919061349c565b6001600160a01b031614155b8015611cec5750816001600160a01b0316846001600160a01b031663524a562f6040518163ffffffff1660e01b8152600401602060405180830381865afa158015611cbc573d6000803e3d6000fd5b505050506040513d601f19601f82011682018060405250810190611ce0919061349c565b6001600160a01b031614155b8015611d6b5750816001600160a01b0316846001600160a01b03166389dd9f136040518163ffffffff1660e01b8152600401602060405180830381865afa158015611d3b573d6000803e3d6000fd5b505050506040513d601f19601f82011682018060405250810190611d5f919061349c565b6001600160a01b031614155b8015611dea5750816001600160a01b0316846001600160a01b031663a27218ac6040518163ffffffff1660e01b8152600401602060405180830381865afa158015611dba573d6000803e3d6000fd5b505050506040513d601f19601f82011682018060405250810190611dde919061349c565b6001600160a01b031614155b15611e0a578160405163f652640360e01b8152600401610ba89190613535565b9392505050565b8154600090611e21600884613a0a565b10611e2e57506000610c66565b611e39600883613a1e565b611e44906020613a32565b83611e50600885613a0a565b81548110611e6057611e60613486565b600091825260209091200154901c9392505050565b60008160030b8360030b12611e9657611e8e8284613a49565b60030b611e0a565b60009392505050565b604080516008808252610120820190925260609160009190602082016101008036833701905050905060005b600881101561173b57611edf816020613a32565b8460001c901c828281518110611ef757611ef7613486565b63ffffffff90921660209283029190910190910152600101611ecb565b6000611f1f8261201b565b5160408051600480825260a082019092529192506000919060208201608080368337019050509050816000015181600081518110611f5f57611f5f613486565b602002602001019060030b908160030b81525050816020015181600181518110611f8b57611f8b613486565b602002602001019060030b908160030b81525050816040015181600281518110611fb757611fb7613486565b602002602001019060030b908160030b81525050816060015181600381518110611fe357611fe3613486565b602002602001019060030b908160030b8152505061200081612636565b60009485526001909501602052505060409091209190915550565b6120236130aa565b8160010361203357610c666126b0565b8160020361204357610c666127a0565b8160030361205357610c666128ca565b8160040361206357610c666129ba565b8160050361207357610c66612aaa565b8160060361208357610c66612b9a565b604051635613365f60e11b815260048101839052602401610ba8565b919050565b60606120b560008351879190612c8a565b6120c760016020840151879190612c8a565b6120d960026040840151879190612c8a565b6120eb60036060840151879190612c8a565b612104600483516120fc908761246b565b879190612c8a565b612115600583516120fc90876124a5565b61212860066120fc8460200151876124cd565b61213b60076120fc8460200151876124f5565b61214e60086120fc84602001518761251d565b61216260096120fc84604001518787612563565b612176600a6120fc846060015187876125da565b61218560166120fc8686612d61565b6040805160038082526080820190925290602082016060803683370190505090506121c06121b883604001518686612563565b60030b612d77565b816000815181106121d3576121d3613486565b602002602001019063ffffffff16908163ffffffff16815250506121ff6121b8836060015186866125da565b8160018151811061221257612212613486565b602002602001019063ffffffff16908163ffffffff16815250506122396121b88585612d61565b8160028151811061224c5761224c613486565b602002602001019063ffffffff16908163ffffffff1681525050949350505050565b8051600090600881111561229f57604051633d71388b60e21b81526004810182905260086024820152604401610ba8565b6000805b828110156122e8576122b6816020613a32565b8582815181106122c8576122c8613486565b602090810291909101015163ffffffff16901b91909117906001016122a3565b509392505050565b60006001600160401b0383111561231d57604051633995b34160e01b815260048101849052602401610ba8565b506001600160a01b039290921660a09190911b67ffffffffffffffff60a01b161760e09190911b6001600160e01b0319161790565b60008080806123618686612d92565b909450925050505b9250929050565b600061168c848484612dcc565b6000610c6682612de9565b60008080806123618686612df4565b6000611e0a8383612e1f565b60606000826001600160401b038111156123bf576123bf61330c565b6040519080825280602002602001820160405280156123e8578160200160208202803683370190505b50905060005b84518110156122e85760005b600881101561246257600081612411846008613a32565b61241b9190613a70565b905085811061242a5750612462565b6124348782612e3c565b84828151811061244657612446613486565b60039290920b60209283029190910190910152506001016123fa565b506001016123ee565b6000670de0b6b3a764000061247f8361201b565b6020015151612491600386900b612d77565b61249b9190613a32565b611e0a9190613a0a565b6000670de0b6b3a76400006124b98361201b565b60200151602001516124918560030b612d77565b6000670de0b6b3a76400006124e18361201b565b60200151604001516124918560030b612d77565b6000670de0b6b3a76400006125098361201b565b60200151606001516124918560030b612d77565b6000611e0a670de0b6b3a76400006125348461201b565b60200151608001516125488660030b612d77565b6125529190613a32565b61255c9190613a0a565b604b612ea0565b6000670de0b6b3a76400006125778461201b565b604001515161258c9063ffffffff8516613a32565b6125969190613a0a565b670de0b6b3a76400006125a88561201b565b6020015160a001516125bc8760030b612d77565b6125c69190613a32565b6125d09190613a0a565b61168c9190613a70565b6000670de0b6b3a76400006125ee8461201b565b60400151602001516126069063ffffffff8516613a32565b6126109190613a0a565b670de0b6b3a76400006126228561201b565b6020015160c001516125bc8760030b612d77565b8051600090600881111561266757604051633d71388b60e21b81526004810182905260086024820152604401610ba8565b6000805b828110156122e85761267e816020613a32565b85828151811061269057612690613486565b602090810291909101015163ffffffff16901b919091179060010161266b565b6126b86130aa565b60405180608001604052806040518060800160405280600f60030b8152602001600f60030b8152602001601e60030b8152602001600a60030b81525081526020016040518060e0016040528067016345785d8a000081526020016702c68af0bb1400008152602001671bc16d674ec800008152602001671bc16d674ec80000815260200167016345785d8a000081526020016714d1120d7b16000081526020016706f05b59d3b2000081525081526020016040518060400160405280671bc16d674ec800008152602001670de0b6b3a76400008152508152602001600560030b815250905090565b6127a86130aa565b60006127b2612eb6565b6040805161010081018252601e60808201908152600560a0830152601960c0830152600a60e0808401919091529082528251908101909252670214e8348c4f0000825291925060208083019190810184612814576706f05b59d3b2000061281e565b6703782dace9d900005b6001600160401b031681526020018461283f576729a2241af62c0000612849565b671bc16d674ec800005b6001600160401b03168152602001670de0b6b3a7640000815260200167011c37937e080000815260200167120a871cc002000081526020016706f05b59d3b20000815250815260200160405180604001604052806718fae27693b400008152602001670de0b6b3a76400008152508152602001600560030b81525091505090565b6128d26130aa565b60405180608001604052806040518060800160405280600a60030b8152602001600f60030b8152602001601460030b8152602001601960030b81525081526020016040518060e0016040528067016345785d8a000081526020016702c68af0bb1400008152602001671bc16d674ec800008152602001670de0b6b3a7640000815260200167016345785d8a00008152602001670de0b6b3a76400008152602001671bc16d674ec800008152508152602001604051806040016040528067120a871cc00200008152602001671bc16d674ec800008152508152602001600560030b815250905090565b6129c26130aa565b60405180608001604052806040518060800160405280600f60030b8152602001601960030b8152602001600f60030b8152602001600f60030b81525081526020016040518060e0016040528067016345785d8a000081526020016702c68af0bb1400008152602001673782dace9d90000081526020016729a2241af62c000081526020016702c68af0bb14000081526020016710a741a4627800008152602001670de0b6b3a7640000815250815260200160405180604001604052806717979cfe362a000081526020016714d1120d7b1600008152508152602001600560030b815250905090565b612ab26130aa565b60405180608001604052806040518060800160405280601460030b8152602001601460030b8152602001601460030b8152602001600a60030b81525081526020016040518060e00160405280670214e8348c4f000081526020016703782dace9d9000081526020016729a2241af62c000081526020016722b1c8c1227a00008152602001670214e8348c4f000081526020016714d1120d7b16000081526020016714d1120d7b160000815250815260200160405180604001604052806714d1120d7b16000081526020016714d1120d7b1600008152508152602001600160030b815250905090565b612ba26130aa565b60405180608001604052806040518060800160405280603260030b8152602001601e60030b8152602001603260030b8152602001600f60030b81525081526020016040518060e001604052806702c68af0bb1400008152602001670429d069189e00008152602001674563918244f4000081526020016729a2241af62c00008152602001670214e8348c4f00008152602001671bc16d674ec800008152602001671bc16d674ec80000815250815260200160405180604001604052806717979cfe362a000081526020016714d1120d7b1600008152508152602001600160030b815250905090565b6000612c97600884613a0a565b90506000612ca6600885613a1e565b612cb1906020613a32565b8554909150808310612cfd57855460018101875560008781526020812090910155805b83811015612cfb578654600181810189556000898152602081209092019190915501612cd4565b505b818463ffffffff1663ffffffff16901b8263ffffffff901b19878581548110612d2857612d28613486565b906000526020600020015460001c161760001b868481548110612d4d57612d4d613486565b600091825260209091200155505050505050565b6000612d6c8361201b565b606001519392505050565b6000808260030b13612d8b57506000919050565b5060030b90565b6000818152600283016020526040812054819080612dc157612db48585612ece565b9250600091506123699050565b600192509050612369565b6000828152600284016020526040812082905561168c8484612eda565b6000610c6682612ee6565b60008080612e028585612ef0565b600081815260029690960160205260409095205494959350505050565b60008181526002830160205260408120819055611e0a8383612efc565b8151600090612e4c600884613a0a565b10612e5957506000610c66565b612e64600883613a1e565b612e6f906020613a32565b83612e7b600885613a0a565b81518110612e8b57612e8b613486565b602002602001015160001c901c905092915050565b6000818310612eaf5781611e0a565b5090919050565b60006201b254461480612ec9575060fa46145b905090565b6000611e0a8383612f08565b6000611e0a8383612f20565b6000610c66825490565b6000611e0a8383612f6f565b6000611e0a8383612f99565b60008181526001830160205260408120541515611e0a565b6000818152600183016020526040812054612f6757508154600181810184556000848152602080822090930184905584548482528286019093526040902091909155610c66565b506000610c66565b6000826000018281548110612f8657612f86613486565b9060005260206000200154905092915050565b60008181526001830160205260408120548015613082576000612fbd600183613a83565b8554909150600090612fd190600190613a83565b9050808214613036576000866000018281548110612ff157612ff1613486565b906000526020600020015490508087600001848154811061301457613014613486565b6000918252602080832090910192909255918252600188019052604090208390555b855486908061304757613047613a96565b600190038181906000526020600020016000905590558560010160008681526020019081526020016000206000905560019350505050610c66565b6000915050610c66565b5080546000825590600052602060002090810190611299919061314b565b60408051610100810190915260006080820181815260a0830182905260c0830182905260e08301919091528190815260200161311c6040518060e00160405280600081526020016000815260200160008152602001600081526020016000815260200160008152602001600081525090565b815260200161313e604051806040016040528060008152602001600081525090565b8152600060209091015290565b5b80821115613160576000815560010161314c565b5090565b6001600160a01b038116811461129957600080fd5b6000806000806080858703121561318f57600080fd5b843561319a81613164565b935060208501356131aa81613164565b93969395505050506040820135916060013590565b600080600080600060a086880312156131d757600080fd5b8535945060208601356131e981613164565b935060408601356131f981613164565b94979396509394606081013594506080013592915050565b6000806000806080858703121561322757600080fd5b84359350602085013561323981613164565b9250604085013561324981613164565b9396929550929360600135925050565b60008060006060848603121561326e57600080fd5b83359250602084013561328081613164565b915060408401356001600160401b0381111561329b57600080fd5b840160a081870312156132ad57600080fd5b809150509250925092565b604080825283519082018190526000906020906060840190828701845b828110156132f457815160030b845292840192908401906001016132d5565b50505080925050508260030b60208301529392505050565b634e487b7160e01b600052604160045260246000fd5b60405161012081016001600160401b03811182821017156133455761334561330c565b60405290565b604051601f8201601f191681016001600160401b03811182821017156133735761337361330c565b604052919050565b60006001600160401b038211156133945761339461330c565b5060051b60200190565b8060030b811461129957600080fd5b600080600080600060a086880312156133c557600080fd5b853594506020808701356133d881613164565b945060408701356133e881613164565b93506060870135925060808701356001600160401b0381111561340a57600080fd5b8701601f8101891361341b57600080fd5b803561342e6134298261337b565b61334b565b81815260059190911b8201830190838101908b83111561344d57600080fd5b928401925b828410156134745783356134658161339e565b82529284019290840190613452565b80955050505050509295509295909350565b634e487b7160e01b600052603260045260246000fd5b6000602082840312156134ae57600080fd5b8151611e0a81613164565b6000808335601e198436030181126134d057600080fd5b8301803591506001600160401b038211156134ea57600080fd5b6020019150600581901b360382131561236957600080fd5b60006020828403121561351457600080fd5b8135611e0a81613164565b634e487b7160e01b600052602160045260246000fd5b6001600160a01b0391909116815260200190565b805160ff8116811461209f57600080fd5b8051600e811061209f57600080fd5b805161ffff8116811461209f57600080fd5b63ffffffff8116811461129957600080fd5b805161209f8161357b565b6000608082840312156135aa57600080fd5b604051608081018181106001600160401b03821117156135cc576135cc61330c565b806040525080915082516135df8161339e565b815260208301516135ef8161339e565b602082015260408301516136028161339e565b604082015260608301516136158161339e565b6060919091015292915050565b6000610180828403121561363557600080fd5b61363d613322565b61364683613549565b815261365460208401613549565b60208201526136656040840161355a565b604082015261367660608401613569565b606082015261368760808401613549565b608082015261369860a0840161358d565b60a08201526136a960c08401613549565b60c08201526136ba60e08401613549565b60e08201526101006136ce85828601613598565b908201529392505050565b634e487b7160e01b600052601160045260246000fd5b600381810b9083900b01637fffffff8113637fffffff1982121715610c6657610c666136d9565b6001600160a01b03929092168252602082015260400190565b600082601f83011261374057600080fd5b815160206137506134298361337b565b8083825260208201915060208460051b87010193508684111561377257600080fd5b602086015b848110156137955761378881613549565b8352918301918301613777565b509695505050505050565b600080604083850312156137b357600080fd5b82516001600160401b03808211156137ca57600080fd5b818501915085601f8301126137de57600080fd5b815160206137ee6134298361337b565b82815260059290921b8401810191818101908984111561380d57600080fd5b948201945b838610156138345785516138258161339e565b82529482019490820190613812565b9188015191965090935050508082111561384d57600080fd5b5061385a8582860161372f565b9150509250929050565b60006020828403121561387657600080fd5b611e0a82613549565b60006020828403121561389157600080fd5b8135611e0a8161357b565b63ffffffff81811683821601908082111561173b5761173b6136d9565b8051801515811461209f57600080fd5b600060a082840312156138db57600080fd5b60405160a081018181106001600160401b03821117156138fd576138fd61330c565b60405261390983613549565b815261391760208401613549565b6020820152613928604084016138b9565b6040820152606083015168ffffffffffffffffff8116811461394957600080fd5b6060820152608083015161395c81613164565b60808201529392505050565b60ff8281168282160390811115610c6657610c666136d9565b6001600160a01b0395909516855260208501939093526040840191909152606083015260ff16608082015260a00190565b6000602082840312156139c457600080fd5b611e0a826138b9565b805160208083015191908110156139ee576000198160200360031b1b821691505b50919050565b634e487b7160e01b600052601260045260246000fd5b600082613a1957613a196139f4565b500490565b600082613a2d57613a2d6139f4565b500690565b8082028115828204841417610c6657610c666136d9565b600382810b9082900b03637fffffff198112637fffffff82131715610c6657610c666136d9565b80820180821115610c6657610c666136d9565b81810381811115610c6657610c666136d9565b634e487b7160e01b600052603160045260246000fdfe8af92dbc104a8f5c91bb1ce162c9bb05b14354b888ff1d97cd8c09ebee492599a2646970667358221220c3c6e227a141d62b3685dcecf49112995df6e9ceebf7f533db46b48a53a49a2c64736f6c63430008170033",
  "devdoc": {
    "kind": "dev",
    "methods": {
      "initNewHero(IStatController.MainState storage,IController,address,uint256,uint256)": {
        "params": {
          "heroClass": "[1..6], see StatLib.initHeroXXX"
        }
      },
      "reborn(IController,address,uint256,uint256)": {
        "params": {
          "heroClass": "Assume that heroController passes correct value of the heroClass for the given hero Also assume that the hero exists and alive"
        }
      },
      "resetHeroCustomData(IStatController.MainState storage,IController,address,uint256)": {
        "details": "Reset custom hero data if something went wrong"
      },
      "restoreLifeAndMana(IStatController.MainState storage,IController,address,uint256,int32[])": {
        "params": {
          "prevAttributes": "Hero attributes before reinforcement"
        }
      }
    },
    "stateVariables": {
      "MAIN_STORAGE_LOCATION": {
        "details": "keccak256(abi.encode(uint256(keccak256(\"stat.controller.main\")) - 1)) & ~bytes32(uint256(0xff))"
      }
    },
    "version": 1
  },
  "userdoc": {
    "kind": "user",
    "methods": {
      "DEATH_COUNT_HASH()": {
        "notice": "Custom data of the hero. Value is incremented on every life-chance lost"
      },
      "HERO_CLASS_HASH()": {
        "notice": "Virtual data, value is not stored to hero custom data, heroClass is taken from heroController by the index"
      },
      "buffHero(IStatController.MainState storage,IController,IStatController.BuffInfo)": {
        "notice": "Calculate totalAttributes + all attributes of the items specified in {info}"
      },
      "initNewHero(IStatController.MainState storage,IController,address,uint256,uint256)": {
        "notice": "Initialize new hero, set up custom data, core data, changeable stats by default value"
      },
      "restoreLifeAndMana(IStatController.MainState storage,IController,address,uint256,int32[])": {
        "notice": "scb-1009: Update current values of Life and mana during reinforcement as following: Reinforcement increases max value of life/mana on DELTA, current value of life/mana is increased on DELTA too"
      }
    },
    "notice": "Implementation of StatController",
    "version": 1
  },
  "storageLayout": {
    "storage": [],
    "types": null
  }
}